{
  "contractName": "CognitiveJob",
  "abi": [
    {
      "constant": true,
      "inputs": [],
      "name": "PartialResult",
      "outputs": [
        {
          "name": "",
          "type": "uint8"
        }
      ],
      "payable": false,
      "stateMutability": "view",
      "type": "function"
    },
    {
      "constant": true,
      "inputs": [],
      "name": "dataset",
      "outputs": [
        {
          "name": "",
          "type": "address"
        }
      ],
      "payable": false,
      "stateMutability": "view",
      "type": "function"
    },
    {
      "constant": true,
      "inputs": [],
      "name": "currentState",
      "outputs": [
        {
          "name": "",
          "type": "uint8"
        }
      ],
      "payable": false,
      "stateMutability": "view",
      "type": "function"
    },
    {
      "constant": true,
      "inputs": [
        {
          "name": "",
          "type": "uint256"
        }
      ],
      "name": "ipfsResults",
      "outputs": [
        {
          "name": "",
          "type": "bytes"
        }
      ],
      "payable": false,
      "stateMutability": "view",
      "type": "function"
    },
    {
      "constant": true,
      "inputs": [],
      "name": "Cognition",
      "outputs": [
        {
          "name": "",
          "type": "uint8"
        }
      ],
      "payable": false,
      "stateMutability": "view",
      "type": "function"
    },
    {
      "constant": true,
      "inputs": [],
      "name": "pandora",
      "outputs": [
        {
          "name": "",
          "type": "address"
        }
      ],
      "payable": false,
      "stateMutability": "view",
      "type": "function"
    },
    {
      "constant": true,
      "inputs": [],
      "name": "Uninitialized",
      "outputs": [
        {
          "name": "",
          "type": "uint8"
        }
      ],
      "payable": false,
      "stateMutability": "view",
      "type": "function"
    },
    {
      "constant": true,
      "inputs": [],
      "name": "GatheringWorkers",
      "outputs": [
        {
          "name": "",
          "type": "uint8"
        }
      ],
      "payable": false,
      "stateMutability": "view",
      "type": "function"
    },
    {
      "constant": true,
      "inputs": [],
      "name": "complexity",
      "outputs": [
        {
          "name": "",
          "type": "uint256"
        }
      ],
      "payable": false,
      "stateMutability": "view",
      "type": "function"
    },
    {
      "constant": true,
      "inputs": [],
      "name": "progress",
      "outputs": [
        {
          "name": "",
          "type": "uint8"
        }
      ],
      "payable": false,
      "stateMutability": "view",
      "type": "function"
    },
    {
      "constant": true,
      "inputs": [
        {
          "name": "",
          "type": "uint256"
        }
      ],
      "name": "activeWorkers",
      "outputs": [
        {
          "name": "",
          "type": "address"
        }
      ],
      "payable": false,
      "stateMutability": "view",
      "type": "function"
    },
    {
      "constant": true,
      "inputs": [],
      "name": "InvalidData",
      "outputs": [
        {
          "name": "",
          "type": "uint8"
        }
      ],
      "payable": false,
      "stateMutability": "view",
      "type": "function"
    },
    {
      "constant": true,
      "inputs": [
        {
          "name": "",
          "type": "uint256"
        }
      ],
      "name": "workersPool",
      "outputs": [
        {
          "name": "",
          "type": "address"
        }
      ],
      "payable": false,
      "stateMutability": "view",
      "type": "function"
    },
    {
      "constant": false,
      "inputs": [],
      "name": "renounceOwnership",
      "outputs": [],
      "payable": false,
      "stateMutability": "nonpayable",
      "type": "function"
    },
    {
      "constant": true,
      "inputs": [],
      "name": "description",
      "outputs": [
        {
          "name": "",
          "type": "bytes32"
        }
      ],
      "payable": false,
      "stateMutability": "view",
      "type": "function"
    },
    {
      "constant": true,
      "inputs": [],
      "name": "jobType",
      "outputs": [
        {
          "name": "",
          "type": "uint256"
        }
      ],
      "payable": false,
      "stateMutability": "view",
      "type": "function"
    },
    {
      "constant": false,
      "inputs": [],
      "name": "destroy",
      "outputs": [],
      "payable": false,
      "stateMutability": "nonpayable",
      "type": "function"
    },
    {
      "constant": true,
      "inputs": [],
      "name": "owner",
      "outputs": [
        {
          "name": "",
          "type": "address"
        }
      ],
      "payable": false,
      "stateMutability": "view",
      "type": "function"
    },
    {
      "constant": false,
      "inputs": [
        {
          "name": "_newState",
          "type": "uint8"
        }
      ],
      "name": "transitionToState",
      "outputs": [],
      "payable": false,
      "stateMutability": "nonpayable",
      "type": "function"
    },
    {
      "constant": true,
      "inputs": [],
      "name": "InsufficientWorkers",
      "outputs": [
        {
          "name": "",
          "type": "uint8"
        }
      ],
      "payable": false,
      "stateMutability": "view",
      "type": "function"
    },
    {
      "constant": true,
      "inputs": [],
      "name": "DataValidation",
      "outputs": [
        {
          "name": "",
          "type": "uint8"
        }
      ],
      "payable": false,
      "stateMutability": "view",
      "type": "function"
    },
    {
      "constant": true,
      "inputs": [],
      "name": "Destroyed",
      "outputs": [
        {
          "name": "",
          "type": "uint8"
        }
      ],
      "payable": false,
      "stateMutability": "view",
      "type": "function"
    },
    {
      "constant": true,
      "inputs": [],
      "name": "batches",
      "outputs": [
        {
          "name": "",
          "type": "uint256"
        }
      ],
      "payable": false,
      "stateMutability": "view",
      "type": "function"
    },
    {
      "constant": true,
      "inputs": [],
      "name": "kernel",
      "outputs": [
        {
          "name": "",
          "type": "address"
        }
      ],
      "payable": false,
      "stateMutability": "view",
      "type": "function"
    },
    {
      "constant": true,
      "inputs": [],
      "name": "Completed",
      "outputs": [
        {
          "name": "",
          "type": "uint8"
        }
      ],
      "payable": false,
      "stateMutability": "view",
      "type": "function"
    },
    {
      "constant": false,
      "inputs": [
        {
          "name": "_newOwner",
          "type": "address"
        }
      ],
      "name": "transferOwnership",
      "outputs": [],
      "payable": false,
      "stateMutability": "nonpayable",
      "type": "function"
    },
    {
      "constant": false,
      "inputs": [
        {
          "name": "_recipient",
          "type": "address"
        }
      ],
      "name": "destroyAndSend",
      "outputs": [],
      "payable": false,
      "stateMutability": "nonpayable",
      "type": "function"
    },
    {
      "inputs": [
        {
          "name": "_pandora",
          "type": "address"
        },
        {
          "name": "_kernel",
          "type": "address"
        },
        {
          "name": "_dataset",
          "type": "address"
        },
        {
          "name": "_workersPool",
          "type": "address[]"
        },
        {
          "name": "_complexity",
          "type": "uint256"
        },
        {
          "name": "_description",
          "type": "bytes32"
        }
      ],
      "payable": false,
      "stateMutability": "nonpayable",
      "type": "constructor"
    },
    {
      "anonymous": false,
      "inputs": [],
      "name": "WorkersUpdated",
      "type": "event"
    },
    {
      "anonymous": false,
      "inputs": [],
      "name": "WorkersNotFound",
      "type": "event"
    },
    {
      "anonymous": false,
      "inputs": [],
      "name": "DataValidationStarted",
      "type": "event"
    },
    {
      "anonymous": false,
      "inputs": [],
      "name": "DataValidationFailed",
      "type": "event"
    },
    {
      "anonymous": false,
      "inputs": [],
      "name": "CognitionStarted",
      "type": "event"
    },
    {
      "anonymous": false,
      "inputs": [
        {
          "indexed": false,
          "name": "precent",
          "type": "uint8"
        }
      ],
      "name": "CognitionProgressed",
      "type": "event"
    },
    {
      "anonymous": false,
      "inputs": [
        {
          "indexed": false,
          "name": "partialResult",
          "type": "bool"
        }
      ],
      "name": "CognitionCompleted",
      "type": "event"
    },
    {
      "anonymous": false,
      "inputs": [
        {
          "indexed": false,
          "name": "oldState",
          "type": "uint8"
        },
        {
          "indexed": false,
          "name": "newState",
          "type": "uint8"
        }
      ],
      "name": "StateChanged",
      "type": "event"
    },
    {
      "anonymous": false,
      "inputs": [
        {
          "indexed": true,
          "name": "previousOwner",
          "type": "address"
        }
      ],
      "name": "OwnershipRenounced",
      "type": "event"
    },
    {
      "anonymous": false,
      "inputs": [
        {
          "indexed": true,
          "name": "previousOwner",
          "type": "address"
        },
        {
          "indexed": true,
          "name": "newOwner",
          "type": "address"
        }
      ],
      "name": "OwnershipTransferred",
      "type": "event"
    },
    {
      "constant": false,
      "inputs": [],
      "name": "isAllWorkersAccepted",
      "outputs": [
        {
          "name": "accepted",
          "type": "bool"
        }
      ],
      "payable": false,
      "stateMutability": "nonpayable",
      "type": "function"
    },
    {
      "constant": false,
      "inputs": [],
      "name": "isAllWorkersValidated",
      "outputs": [
        {
          "name": "validated",
          "type": "bool"
        }
      ],
      "payable": false,
      "stateMutability": "nonpayable",
      "type": "function"
    },
    {
      "constant": false,
      "inputs": [],
      "name": "isAllWorkersCompleted",
      "outputs": [
        {
          "name": "completed",
          "type": "bool"
        }
      ],
      "payable": false,
      "stateMutability": "nonpayable",
      "type": "function"
    },
    {
      "constant": true,
      "inputs": [],
      "name": "ipfsResultsCount",
      "outputs": [
        {
          "name": "count",
          "type": "uint256"
        }
      ],
      "payable": false,
      "stateMutability": "view",
      "type": "function"
    },
    {
      "constant": false,
      "inputs": [],
      "name": "initialize",
      "outputs": [],
      "payable": false,
      "stateMutability": "nonpayable",
      "type": "function"
    },
    {
      "constant": false,
      "inputs": [
        {
          "name": "_reportedWorker",
          "type": "address"
        }
      ],
      "name": "reportOfflineWorker",
      "outputs": [],
      "payable": true,
      "stateMutability": "payable",
      "type": "function"
    },
    {
      "constant": false,
      "inputs": [
        {
          "name": "_flag",
          "type": "bool"
        }
      ],
      "name": "gatheringWorkersResponse",
      "outputs": [],
      "payable": false,
      "stateMutability": "nonpayable",
      "type": "function"
    },
    {
      "constant": false,
      "inputs": [
        {
          "name": "_response",
          "type": "uint8"
        }
      ],
      "name": "dataValidationResponse",
      "outputs": [],
      "payable": false,
      "stateMutability": "nonpayable",
      "type": "function"
    },
    {
      "constant": false,
      "inputs": [
        {
          "name": "_percent",
          "type": "uint8"
        }
      ],
      "name": "commitProgress",
      "outputs": [],
      "payable": false,
      "stateMutability": "nonpayable",
      "type": "function"
    },
    {
      "constant": false,
      "inputs": [
        {
          "name": "_ipfsResults",
          "type": "bytes"
        }
      ],
      "name": "completeWork",
      "outputs": [],
      "payable": false,
      "stateMutability": "nonpayable",
      "type": "function"
    },
    {
      "constant": true,
      "inputs": [],
      "name": "activeWorkersCount",
      "outputs": [
        {
          "name": "",
          "type": "uint256"
        }
      ],
      "payable": false,
      "stateMutability": "view",
      "type": "function"
    },
    {
      "constant": true,
      "inputs": [
        {
          "name": "no",
          "type": "uint256"
        }
      ],
      "name": "didWorkerCompute",
      "outputs": [
        {
          "name": "",
          "type": "bool"
        }
      ],
      "payable": false,
      "stateMutability": "view",
      "type": "function"
    }
  ],
  "bytecode": "0x60806040523480156200001157600080fd5b50604051620040eb380380620040eb833981018060405281019080805190602001909291908051906020019092919080519060200190929190805182019291906020018051906020019092919080519060200190929190505050336000806101000a81548173ffffffffffffffffffffffffffffffffffffffff021916908373ffffffffffffffffffffffffffffffffffffffff1602179055508373ffffffffffffffffffffffffffffffffffffffff166387ea09616040518163ffffffff167c0100000000000000000000000000000000000000000000000000000000028152600401602060405180830381600087803b1580156200011057600080fd5b505af115801562000125573d6000803e3d6000fd5b505050506040513d60208110156200013c57600080fd5b810190808051906020019092919050505060ff1660128190555060006012541115156200016857600080fd5b6012548351101515156200017b57600080fd5b600073ffffffffffffffffffffffffffffffffffffffff168673ffffffffffffffffffffffffffffffffffffffff1614151515620001b857600080fd5b600073ffffffffffffffffffffffffffffffffffffffff168573ffffffffffffffffffffffffffffffffffffffff1614151515620001f557600080fd5b600073ffffffffffffffffffffffffffffffffffffffff168473ffffffffffffffffffffffffffffffffffffffff16141515156200023257600080fd5b85600f60006101000a81548173ffffffffffffffffffffffffffffffffffffffff021916908373ffffffffffffffffffffffffffffffffffffffff16021790555084601060006101000a81548173ffffffffffffffffffffffffffffffffffffffff021916908373ffffffffffffffffffffffffffffffffffffffff16021790555083601160006101000a81548173ffffffffffffffffffffffffffffffffffffffff021916908373ffffffffffffffffffffffffffffffffffffffff16021790555082601690805190602001906200030d92919062000693565b508160138190555080601481600019169055506200033962000345640100000000026401000000009004565b505050505050620009a5565b6000600d6001019050602060405190810160405280600160ff1660ff168152508160008060ff1660ff1681526020019081526020016000209060016200038d92919062000722565b506040805190810160405280600260ff1660ff168152602001600360ff1660ff16815250816000600160ff1660ff168152602001908152602001600020906002620003da929190620007d0565b50606060405190810160405280600460ff1660ff168152602001600560ff1660ff168152602001600260ff1660ff16815250816000600360ff1660ff168152602001908152602001600020906003620004359291906200087e565b506040805190810160405280600760ff1660ff168152602001600660ff1660ff16815250816000600560ff1660ff16815260200190815260200160002090600262000482929190620007d0565b50620004a1620004c36401000000000262003556176401000000009004565b6000600d60000160016101000a81548160ff021916908360ff16021790555050565b6040805190810160405280601181526020017f5f696e697453746174654d616368696e6500000000000000000000000000000081525060001515600c826040518082805190602001908083835b60208310151562000537578051825260208201915060208101905060208303925062000510565b6001836020036101000a038019825116818451168082178552505050505050905001915050908152602001604051809103902060009054906101000a900460ff1615151415156200058757600080fd5b620005a7600d6200063064010000000002620036a8176401000000009004565b6001600c826040518082805190602001908083835b602083101515620005e35780518252602082019150602081019050602083039250620005bc565b6001836020036101000a038019825116818451168082178552505050505050905001915050908152602001604051809103902060006101000a81548160ff02191690831515021790555050565b600015158160000160009054906101000a900460ff1615151415156200065557600080fd5b60018160000160016101000a81548160ff021916908360ff16021790555060018160000160006101000a81548160ff02191690831515021790555050565b8280548282559060005260206000209081019282156200070f579160200282015b828111156200070e5782518260006101000a81548173ffffffffffffffffffffffffffffffffffffffff021916908373ffffffffffffffffffffffffffffffffffffffff16021790555091602001919060010190620006b4565b5b5090506200071e91906200092c565b5090565b82805482825590600052602060002090601f01602090048101928215620007bd5791602002820160005b838211156200078c57835183826101000a81548160ff021916908360ff16021790555092602001926001016020816000010492830192600103026200074c565b8015620007bb5782816101000a81549060ff02191690556001016020816000010492830192600103026200078c565b505b509050620007cc919062000972565b5090565b82805482825590600052602060002090601f016020900481019282156200086b5791602002820160005b838211156200083a57835183826101000a81548160ff021916908360ff1602179055509260200192600101602081600001049283019260010302620007fa565b8015620008695782816101000a81549060ff02191690556001016020816000010492830192600103026200083a565b505b5090506200087a919062000972565b5090565b82805482825590600052602060002090601f01602090048101928215620009195791602002820160005b83821115620008e857835183826101000a81548160ff021916908360ff1602179055509260200192600101602081600001049283019260010302620008a8565b8015620009175782816101000a81549060ff0219169055600101602081600001049283019260010302620008e8565b505b50905062000928919062000972565b5090565b6200096f91905b808211156200096b57600081816101000a81549073ffffffffffffffffffffffffffffffffffffffff02191690555060010162000933565b5090565b90565b620009a291905b808211156200099e57600081816101000a81549060ff02191690555060010162000979565b5090565b90565b61373680620009b56000396000f3006080604052600436106101e3576000357c0100000000000000000000000000000000000000000000000000000000900463ffffffff168063026d49ea146101e857806302b728ab146102195780630c3f6acf146102705780630fb03aad146102a15780631590d658146103475780631a0bc596146103785780631c72fad4146103cf57806321514ef31461040057806323d554731461043157806334e5b9ba1461045c57806340a030a21461048b5780634804b4ba146104b65780634e6b42a8146104e1578063577bd3361461051c578063589094001461054d5780635cb045db146105ba5780635e405967146105eb57806364d3414c146106585780636936087d14610687578063715018a6146106b75780637284e416146106ce5780638080be77146107015780638129fc1c1461072c57806383197ef0146107435780638da5cb5b1461075a578063927fdcd6146107b1578063acf7807b146107e0578063b225be4214610810578063c36b33b014610840578063cbd315ae14610871578063cc0e82c1146108a2578063cfdf677e146108d3578063d4aae0c4146108fe578063d6ccdca314610955578063d94c69aa1461099a578063e06452d0146109d0578063f2fde38b14610a01578063f5074f4114610a44578063f89b149014610a87575b600080fd5b3480156101f457600080fd5b506101fd610ab6565b604051808260ff1660ff16815260200191505060405180910390f35b34801561022557600080fd5b5061022e610abb565b604051808273ffffffffffffffffffffffffffffffffffffffff1673ffffffffffffffffffffffffffffffffffffffff16815260200191505060405180910390f35b34801561027c57600080fd5b50610285610ae1565b604051808260ff1660ff16815260200191505060405180910390f35b3480156102ad57600080fd5b506102cc60048036038101908080359060200190929190505050610afb565b6040518080602001828103825283818151815260200191508051906020019080838360005b8381101561030c5780820151818401526020810190506102f1565b50505050905090810190601f1680156103395780820380516001836020036101000a031916815260200191505b509250505060405180910390f35b34801561035357600080fd5b5061035c610bb6565b604051808260ff1660ff16815260200191505060405180910390f35b34801561038457600080fd5b5061038d610bbb565b604051808273ffffffffffffffffffffffffffffffffffffffff1673ffffffffffffffffffffffffffffffffffffffff16815260200191505060405180910390f35b3480156103db57600080fd5b506103e4610be1565b604051808260ff1660ff16815260200191505060405180910390f35b34801561040c57600080fd5b50610415610be6565b604051808260ff1660ff16815260200191505060405180910390f35b34801561043d57600080fd5b50610446610beb565b6040518082815260200191505060405180910390f35b34801561046857600080fd5b50610471610bf1565b604051808215151515815260200191505060405180910390f35b34801561049757600080fd5b506104a0610c5c565b6040518082815260200191505060405180910390f35b3480156104c257600080fd5b506104cb610c69565b6040518082815260200191505060405180910390f35b3480156104ed57600080fd5b5061051a600480360381019080803590602001908201803590602001919091929391929390505050610c76565b005b34801561052857600080fd5b50610531610e89565b604051808260ff1660ff16815260200191505060405180910390f35b34801561055957600080fd5b5061057860048036038101908080359060200190929190505050610e9c565b604051808273ffffffffffffffffffffffffffffffffffffffff1673ffffffffffffffffffffffffffffffffffffffff16815260200191505060405180910390f35b3480156105c657600080fd5b506105cf610eda565b604051808260ff1660ff16815260200191505060405180910390f35b3480156105f757600080fd5b5061061660048036038101908080359060200190929190505050610edf565b604051808273ffffffffffffffffffffffffffffffffffffffff1673ffffffffffffffffffffffffffffffffffffffff16815260200191505060405180910390f35b34801561066457600080fd5b50610685600480360381019080803515159060200190929190505050610f1d565b005b34801561069357600080fd5b506106b5600480360381019080803560ff169060200190929190505050611087565b005b3480156106c357600080fd5b506106cc611253565b005b3480156106da57600080fd5b506106e3611355565b60405180826000191660001916815260200191505060405180910390f35b34801561070d57600080fd5b5061071661135b565b6040518082815260200191505060405180910390f35b34801561073857600080fd5b50610741611361565b005b34801561074f57600080fd5b50610758611846565b005b34801561076657600080fd5b5061076f6118db565b604051808273ffffffffffffffffffffffffffffffffffffffff1673ffffffffffffffffffffffffffffffffffffffff16815260200191505060405180910390f35b3480156107bd57600080fd5b506107c6611900565b604051808215151515815260200191505060405180910390f35b3480156107ec57600080fd5b5061080e600480360381019080803560ff16906020019092919050505061196b565b005b34801561081c57600080fd5b5061083e600480360381019080803560ff169060200190929190505050611a09565b005b34801561084c57600080fd5b50610855611bba565b604051808260ff1660ff16815260200191505060405180910390f35b34801561087d57600080fd5b50610886611bbf565b604051808260ff1660ff16815260200191505060405180910390f35b3480156108ae57600080fd5b506108b7611bc4565b604051808260ff1660ff16815260200191505060405180910390f35b3480156108df57600080fd5b506108e8611bc9565b6040518082815260200191505060405180910390f35b34801561090a57600080fd5b50610913611bcf565b604051808273ffffffffffffffffffffffffffffffffffffffff1673ffffffffffffffffffffffffffffffffffffffff16815260200191505060405180910390f35b34801561096157600080fd5b5061098060048036038101908080359060200190929190505050611bf5565b604051808215151515815260200191505060405180910390f35b6109ce600480360381019080803573ffffffffffffffffffffffffffffffffffffffff169060200190929190505050611c56565b005b3480156109dc57600080fd5b506109e5611cfa565b604051808260ff1660ff16815260200191505060405180910390f35b348015610a0d57600080fd5b50610a42600480360381019080803573ffffffffffffffffffffffffffffffffffffffff169060200190929190505050611cff565b005b348015610a5057600080fd5b50610a85600480360381019080803573ffffffffffffffffffffffffffffffffffffffff169060200190929190505050611d66565b005b348015610a9357600080fd5b50610a9c611dda565b604051808215151515815260200191505060405180910390f35b600681565b601160009054906101000a900473ffffffffffffffffffffffffffffffffffffffff1681565b6000600d60000160019054906101000a900460ff16905090565b601781815481101515610b0a57fe5b906000526020600020016000915090508054600181600116156101000203166002900480601f016020809104026020016040519081016040528092919081815260200182805460018160011615610100020316600290048015610bae5780601f10610b8357610100808354040283529160200191610bae565b820191906000526020600020905b815481529060010190602001808311610b9157829003601f168201915b505050505081565b600581565b600f60009054906101000a900473ffffffffffffffffffffffffffffffffffffffff1681565b600081565b600181565b60135481565b60008060019150600090505b601980549050811015610c585760011515601982815481101515610c1d57fe5b90600052602060002090602091828204019190069054906101000a900460ff161515141515610c4b57600091505b8080600101915050610bfd565b5090565b6000601780549050905090565b6000601580549050905090565b600080610c81611e45565b5080915050600073ffffffffffffffffffffffffffffffffffffffff168173ffffffffffffffffffffffffffffffffffffffff1614151515610cc257600080fd5b8073ffffffffffffffffffffffffffffffffffffffff163373ffffffffffffffffffffffffffffffffffffffff16141515610cfc57600080fd5b8073ffffffffffffffffffffffffffffffffffffffff16638da5cb5b6040518163ffffffff167c0100000000000000000000000000000000000000000000000000000000028152600401602060405180830381600087803b158015610d6057600080fd5b505af1158015610d74573d6000803e3d6000fd5b505050506040513d6020811015610d8a57600080fd5b810190808051906020019092919050505073ffffffffffffffffffffffffffffffffffffffff163273ffffffffffffffffffffffffffffffffffffffff16141515610dd457600080fd5b610ddc611e45565b9050809250508383601784815481101515610df357fe5b906000526020600020019190610e0a9291906130af565b506001601b83815481101515610e1c57fe5b90600052602060002090602091828204019190066101000a81548160ff02191690831515021790555042601883815481101515610e5557fe5b9060005260206000200181905550610e6b611ecd565b610e73611dda565b15610e8357610e82600761213e565b5b50505050565b600a60009054906101000a900460ff1681565b601581815481101515610eab57fe5b906000526020600020016000915054906101000a900473ffffffffffffffffffffffffffffffffffffffff1681565b600481565b601681815481101515610eee57fe5b906000526020600020016000915054906101000a900473ffffffffffffffffffffffffffffffffffffffff1681565b6000610f27611e45565b5080915050600073ffffffffffffffffffffffffffffffffffffffff168173ffffffffffffffffffffffffffffffffffffffff1614151515610f6857600080fd5b8073ffffffffffffffffffffffffffffffffffffffff163373ffffffffffffffffffffffffffffffffffffffff16141515610fa257600080fd5b8073ffffffffffffffffffffffffffffffffffffffff16638da5cb5b6040518163ffffffff167c0100000000000000000000000000000000000000000000000000000000028152600401602060405180830381600087803b15801561100657600080fd5b505af115801561101a573d6000803e3d6000fd5b505050506040513d602081101561103057600080fd5b810190808051906020019092919050505073ffffffffffffffffffffffffffffffffffffffff163273ffffffffffffffffffffffffffffffffffffffff1614151561107a57600080fd5b61108382612160565b5050565b600080611092611e45565b5080915050600073ffffffffffffffffffffffffffffffffffffffff168173ffffffffffffffffffffffffffffffffffffffff16141515156110d357600080fd5b8073ffffffffffffffffffffffffffffffffffffffff163373ffffffffffffffffffffffffffffffffffffffff1614151561110d57600080fd5b8073ffffffffffffffffffffffffffffffffffffffff16638da5cb5b6040518163ffffffff167c0100000000000000000000000000000000000000000000000000000000028152600401602060405180830381600087803b15801561117157600080fd5b505af1158015611185573d6000803e3d6000fd5b505050506040513d602081101561119b57600080fd5b810190808051906020019092919050505073ffffffffffffffffffffffffffffffffffffffff163273ffffffffffffffffffffffffffffffffffffffff161415156111e557600080fd5b6111ed611e45565b9050809250504260188381548110151561120357fe5b90600052602060002001819055507f6e61ae137e19999439ac1653b045d99d8b1a4d38b3b2ef2956ab2b5494957b3d83604051808260ff1660ff16815260200191505060405180910390a1505050565b6000809054906101000a900473ffffffffffffffffffffffffffffffffffffffff1673ffffffffffffffffffffffffffffffffffffffff163373ffffffffffffffffffffffffffffffffffffffff161415156112ae57600080fd5b6000809054906101000a900473ffffffffffffffffffffffffffffffffffffffff1673ffffffffffffffffffffffffffffffffffffffff167ff8df31144d9c2f0f6b59d69b8b98abd5459d07f2742c4df920b25aae33c6482060405160405180910390a260008060006101000a81548173ffffffffffffffffffffffffffffffffffffffff021916908373ffffffffffffffffffffffffffffffffffffffff160217905550565b60145481565b60065481565b60008060008060ff16600d60000160019054906101000a900460ff1660ff1614151561138c57600080fd5b6012546040519080825280602002602001820160405280156113bd5781602001602082028038833980820191505090505b50601590805190602001906113d392919061312f565b506012546040519080825280602002602001820160405280156114055781602001602082028038833980820191505090505b506018908051906020019061141b9291906131b9565b5060125460405190808252806020026020018201604052801561144d5781602001602082028038833980820191505090505b5060199080519060200190611463929190613206565b506012546040519080825280602002602001820160405280156114955781602001602082028038833980820191505090505b50601a90805190602001906114ab929190613206565b506012546040519080825280602002602001820160405280156114dd5781602001602082028038833980820191505090505b50601b90805190602001906114f3929190613206565b5060125460405190808252806020026020018201604052801561152a57816020015b60608152602001906001900390816115155790505b50601790805190602001906115409291906132ac565b50600092505b6012548360ff16101561174457600060198460ff1681548110151561156757fe5b90600052602060002090602091828204019190066101000a81548160ff0219169083151502179055504260188460ff168154811015156115a357fe5b906000526020600020018190555060168360ff168154811015156115c357fe5b9060005260206000200160009054906101000a900473ffffffffffffffffffffffffffffffffffffffff1660158460ff1681548110151561160057fe5b9060005260206000200160006101000a81548173ffffffffffffffffffffffffffffffffffffffff021916908373ffffffffffffffffffffffffffffffffffffffff16021790555060158360ff1681548110151561165a57fe5b9060005260206000200160009054906101000a900473ffffffffffffffffffffffffffffffffffffffff1673ffffffffffffffffffffffffffffffffffffffff1663897399ae306040518263ffffffff167c0100000000000000000000000000000000000000000000000000000000028152600401808273ffffffffffffffffffffffffffffffffffffffff1673ffffffffffffffffffffffffffffffffffffffff168152602001915050600060405180830381600087803b15801561171f57600080fd5b505af1158015611733573d6000803e3d6000fd5b505050508280600101935050611546565b8260ff1691505b6016805490508261ffff16101561180b576016808361ffff1681548110151561177057fe5b9060005260206000200160009054906101000a900473ffffffffffffffffffffffffffffffffffffffff1690806001815401808255809150509060018203906000526020600020016000909192909190916101000a81548173ffffffffffffffffffffffffffffffffffffffff021916908373ffffffffffffffffffffffffffffffffffffffff16021790555050818060010192505061174b565b611815600161213e565b7f7e0d09ae7160446fde9323338cdbe3e98cc2d5197108e8a3c5e037265288335d60405160405180910390a1505050565b6000809054906101000a900473ffffffffffffffffffffffffffffffffffffffff1673ffffffffffffffffffffffffffffffffffffffff163373ffffffffffffffffffffffffffffffffffffffff161415156118a157600080fd5b6000809054906101000a900473ffffffffffffffffffffffffffffffffffffffff1673ffffffffffffffffffffffffffffffffffffffff16ff5b6000809054906101000a900473ffffffffffffffffffffffffffffffffffffffff1681565b60008060019150600090505b601a805490508110156119675760011515601a8281548110151561192c57fe5b90600052602060002090602091828204019190069054906101000a900460ff16151514151561195a57600091505b808060010191505061190c565b5090565b6000600d60000160019054906101000a900460ff16905081600d60000160016101000a81548160ff021916908360ff1602179055507fe8a97ea87e4388fa22d496b95a8ed5ced6717f49790318de2b928aaf37a021d881600d60000160019054906101000a900460ff16604051808360ff1660ff1681526020018260ff1660ff1681526020019250505060405180910390a1611a0561233c565b5050565b6000611a13611e45565b5080915050600073ffffffffffffffffffffffffffffffffffffffff168173ffffffffffffffffffffffffffffffffffffffff1614151515611a5457600080fd5b8073ffffffffffffffffffffffffffffffffffffffff163373ffffffffffffffffffffffffffffffffffffffff16141515611a8e57600080fd5b8073ffffffffffffffffffffffffffffffffffffffff16638da5cb5b6040518163ffffffff167c0100000000000000000000000000000000000000000000000000000000028152600401602060405180830381600087803b158015611af257600080fd5b505af1158015611b06573d6000803e3d6000fd5b505050506040513d6020811015611b1c57600080fd5b810190808051906020019092919050505073ffffffffffffffffffffffffffffffffffffffff163273ffffffffffffffffffffffffffffffffffffffff16141515611b6657600080fd5b600280811115611b7257fe5b826002811115611b7e57fe5b1415611b9357611b8e600461213e565b611bb6565b611bb560006002811115611ba357fe5b836002811115611baf57fe5b14612655565b5b5050565b600281565b600381565b60ff81565b60125481565b601060009054906101000a900473ffffffffffffffffffffffffffffffffffffffff1681565b600060058060ff16600d60000160019054906101000a900460ff1660ff16141515611c1f57600080fd5b601983815481101515611c2e57fe5b90600052602060002090602091828204019190069054906101000a900460ff16915050919050565b6000600160ff16600d60000160019054906101000a900460ff1660ff161480611c975750600360ff16600d60000160019054906101000a900460ff1660ff16145b80611cba5750600560ff16600d60000160019054906101000a900460ff1660ff16145b1515611cc557600080fd5b611cce82612831565b9050610708601882815481101515611ce257fe5b906000526020600020505050611cf6611ecd565b5050565b600781565b6000809054906101000a900473ffffffffffffffffffffffffffffffffffffffff1673ffffffffffffffffffffffffffffffffffffffff163373ffffffffffffffffffffffffffffffffffffffff16141515611d5a57600080fd5b611d63816128f2565b50565b6000809054906101000a900473ffffffffffffffffffffffffffffffffffffffff1673ffffffffffffffffffffffffffffffffffffffff163373ffffffffffffffffffffffffffffffffffffffff16141515611dc157600080fd5b8073ffffffffffffffffffffffffffffffffffffffff16ff5b60008060019150600090505b601b80549050811015611e415760011515601b82815481101515611e0657fe5b90600052602060002090602091828204019190069054906101000a900460ff161515141515611e3457600091505b8080600101915050611de6565b5090565b600080611e5133612831565b9050601580549050811115611e8c5760007fffffffffffffffffffffffffffffffffffffffffffffffffffffffffffffffff91509150611ec9565b601581815481101515611e9b57fe5b9060005260206000200160009054906101000a900473ffffffffffffffffffffffffffffffffffffffff1691505b9091565b6000806000600160ff16600d60000160019054906101000a900460ff1660ff161480611f115750600360ff16600d60000160019054906101000a900460ff1660ff16145b80611f345750600560ff16600d60000160019054906101000a900460ff1660ff16145b1515611f3f57600080fd5b600092505b60188054905083101561213957610708601884815481101515611f6357fe5b90600052602060002001544203111561212c57601583815481101515611f8557fe5b9060005260206000200160009054906101000a900473ffffffffffffffffffffffffffffffffffffffff169150600160ff16600d60000160019054906101000a900460ff1660ff161415611fdc5760009050612037565b600360ff16600d60000160019054906101000a900460ff1660ff1614156120065760029050612036565b600560ff16600d60000160019054906101000a900460ff1660ff1614156120305760049050612035565b600080fd5b5b5b600f60009054906101000a900473ffffffffffffffffffffffffffffffffffffffff1673ffffffffffffffffffffffffffffffffffffffff16635ef1777683836040518363ffffffff167c0100000000000000000000000000000000000000000000000000000000028152600401808373ffffffffffffffffffffffffffffffffffffffff1673ffffffffffffffffffffffffffffffffffffffff1681526020018260048111156120e457fe5b60ff16815260200192505050600060405180830381600087803b15801561210a57600080fd5b505af115801561211e573d6000803e3d6000fd5b5050505061212b836129ec565b5b8280600101935050611f44565b505050565b8061215381600d612d6590919063ffffffff16565b61215c8261196b565b5050565b60008061216b611e45565b8092508193505050600073ffffffffffffffffffffffffffffffffffffffff168273ffffffffffffffffffffffffffffffffffffffff16141515156121af57600080fd5b6000151583151514156122b6576121c5816129ec565b600f60009054906101000a900473ffffffffffffffffffffffffffffffffffffffff1673ffffffffffffffffffffffffffffffffffffffff16635ef177768360006040518363ffffffff167c0100000000000000000000000000000000000000000000000000000000028152600401808373ffffffffffffffffffffffffffffffffffffffff1673ffffffffffffffffffffffffffffffffffffffff16815260200182600481111561227357fe5b60ff16815260200192505050600060405180830381600087803b15801561229957600080fd5b505af11580156122ad573d6000803e3d6000fd5b50505050612337565b60016019828154811015156122c757fe5b90600052602060002090602091828204019190066101000a81548160ff0219169083151502179055504260188281548110151561230057fe5b9060005260206000200181905550612316611ecd565b61231e610bf1565b156123365761232b612e35565b612335600361213e565b5b5b505050565b600260ff16612349610ae1565b60ff16141561238b577f5f64b01e798e22b7b006309d50c085491c227a74e9cf11a922528b0d9a414de460405160405180910390a1612386612e76565b612653565b600360ff16612398610ae1565b60ff1614156123d2577f2d9c6af01e1c3857ef5720b6226a3b900b0db1a5a9430c53d8a35b4fccf2015560405160405180910390a1612652565b600460ff166123df610ae1565b60ff161415612421577f75be0ccc76f667c80f1c9ab66fafe78bd732b900403eb3f0da135c085955deca60405160405180910390a161241c612e76565b612651565b600560ff1661242e610ae1565b60ff161415612468577f51273f7efcba23797f509c81f07b426c6b9cdbee92a6a40389a405d0152178c960405160405180910390a1612650565b600660ff16612475610ae1565b60ff16141561255d577ff8d8e42e26bfacf74ecaff47cd43fa79d51c74d3a979d58521d12f369ad2bf7b6001604051808215151515815260200191505060405180910390a1600f60009054906101000a900473ffffffffffffffffffffffffffffffffffffffff1673ffffffffffffffffffffffffffffffffffffffff1663171317516040518163ffffffff167c0100000000000000000000000000000000000000000000000000000000028152600401600060405180830381600087803b15801561254057600080fd5b505af1158015612554573d6000803e3d6000fd5b5050505061264f565b600760ff1661256a610ae1565b60ff16141561264e577ff8d8e42e26bfacf74ecaff47cd43fa79d51c74d3a979d58521d12f369ad2bf7b6000604051808215151515815260200191505060405180910390a1600f60009054906101000a900473ffffffffffffffffffffffffffffffffffffffff1673ffffffffffffffffffffffffffffffffffffffff1663171317516040518163ffffffff167c0100000000000000000000000000000000000000000000000000000000028152600401600060405180830381600087803b15801561263557600080fd5b505af1158015612649573d6000803e3d6000fd5b505050505b5b5b5b5b5b565b600080612660611e45565b8092508193505050600073ffffffffffffffffffffffffffffffffffffffff168273ffffffffffffffffffffffffffffffffffffffff16141515156126a457600080fd5b6000151583151514156127ab576126ba816129ec565b600f60009054906101000a900473ffffffffffffffffffffffffffffffffffffffff1673ffffffffffffffffffffffffffffffffffffffff16635ef177768360016040518363ffffffff167c0100000000000000000000000000000000000000000000000000000000028152600401808373ffffffffffffffffffffffffffffffffffffffff1673ffffffffffffffffffffffffffffffffffffffff16815260200182600481111561276857fe5b60ff16815260200192505050600060405180830381600087803b15801561278e57600080fd5b505af11580156127a2573d6000803e3d6000fd5b5050505061282c565b6001601a828154811015156127bc57fe5b90600052602060002090602091828204019190066101000a81548160ff021916908315150217905550426018828154811015156127f557fe5b906000526020600020018190555061280b611ecd565b612813611900565b1561282b57612820612e35565b61282a600561213e565b5b5b505050565b600080600090505b6015805490508110156128c85760158181548110151561285557fe5b9060005260206000200160009054906101000a900473ffffffffffffffffffffffffffffffffffffffff1673ffffffffffffffffffffffffffffffffffffffff168373ffffffffffffffffffffffffffffffffffffffff1614156128bb578091506128ec565b8080600101915050612839565b7fffffffffffffffffffffffffffffffffffffffffffffffffffffffffffffffff91505b50919050565b600073ffffffffffffffffffffffffffffffffffffffff168173ffffffffffffffffffffffffffffffffffffffff161415151561292e57600080fd5b8073ffffffffffffffffffffffffffffffffffffffff166000809054906101000a900473ffffffffffffffffffffffffffffffffffffffff1673ffffffffffffffffffffffffffffffffffffffff167f8be0079c531659141344cd1fd0a4f28419497f9722a3daafe3b4186f6b6457e060405160405180910390a3806000806101000a81548173ffffffffffffffffffffffffffffffffffffffff021916908373ffffffffffffffffffffffffffffffffffffffff16021790555050565b600060036005612a088282600d612ec89092919063ffffffff16565b5b60006016805490501415612a2457612a1f612f2e565b612d5f565b6016600160168054905003815481101515612a3b57fe5b9060005260206000200160009054906101000a900473ffffffffffffffffffffffffffffffffffffffff169250600160168054905003601681612a7e919061330c565b508273ffffffffffffffffffffffffffffffffffffffff1663ae897c556040518163ffffffff167c0100000000000000000000000000000000000000000000000000000000028152600401602060405180830381600087803b158015612ae357600080fd5b505af1158015612af7573d6000803e3d6000fd5b505050506040513d6020811015612b0d57600080fd5b810190808051906020019092919050505060ff168373ffffffffffffffffffffffffffffffffffffffff16630c3f6acf6040518163ffffffff167c0100000000000000000000000000000000000000000000000000000000028152600401602060405180830381600087803b158015612b8557600080fd5b505af1158015612b99573d6000803e3d6000fd5b505050506040513d6020811015612baf57600080fd5b810190808051906020019092919050505060ff16141515612bcf57612a09565b6000601985815481101515612be057fe5b90600052602060002090602091828204019190066101000a81548160ff02191690831515021790555042601885815481101515612c1957fe5b906000526020600020018190555082601585815481101515612c3757fe5b9060005260206000200160006101000a81548173ffffffffffffffffffffffffffffffffffffffff021916908373ffffffffffffffffffffffffffffffffffffffff1602179055508273ffffffffffffffffffffffffffffffffffffffff1663897399ae306040518263ffffffff167c0100000000000000000000000000000000000000000000000000000000028152600401808273ffffffffffffffffffffffffffffffffffffffff1673ffffffffffffffffffffffffffffffffffffffff168152602001915050600060405180830381600087803b158015612d1a57600080fd5b505af1158015612d2e573d6000803e3d6000fd5b505050507f7e0d09ae7160446fde9323338cdbe3e98cc2d5197108e8a3c5e037265288335d60405160405180910390a15b50505050565b600080600060ff8560000160019054906101000a900460ff1660ff1614151515612d8b57fe5b600092508460010160008660000160019054906101000a900460ff1660ff1660ff1681526020019081526020016000209150600090505b8180549050811015612e1b578360ff168282815481101515612de057fe5b90600052602060002090602091828204019190069054906101000a900460ff1660ff161415612e0e57600192505b8080600101915050612dc2565b60011515831515141515612e2e57600080fd5b5050505050565b60008090505b601580549050811015612e735742601882815481101515612e5857fe5b90600052602060002001819055508080600101915050612e3b565b50565b6000601681612e85919061330c565b506000601581612e95919061330c565b506000601781612ea59190613338565b506000601981612eb59190613364565b506000601881612ec5919061339e565b50565b60008090508360000160019054906101000a900460ff1660ff168360ff161415612ef157600190505b8360000160019054906101000a900460ff1660ff168260ff161415612f1557600190505b60011515811515141515612f2857600080fd5b50505050565b6000600160ff16600d60000160019054906101000a900460ff1660ff161480612f6f5750600360ff16600d60000160019054906101000a900460ff1660ff16145b80612f925750600560ff16600d60000160019054906101000a900460ff1660ff16145b1515612f9d57600080fd5b600090505b60158054905081101561307157601581815481101515612fbe57fe5b9060005260206000200160009054906101000a900473ffffffffffffffffffffffffffffffffffffffff1673ffffffffffffffffffffffffffffffffffffffff1663b07c74756040518163ffffffff167c0100000000000000000000000000000000000000000000000000000000028152600401600060405180830381600087803b15801561304c57600080fd5b505af1158015613060573d6000803e3d6000fd5b505050508080600101915050612fa2565b600560ff16600d60000160019054906101000a900460ff1660ff1614156130a15761309c600661213e565b6130ac565b6130ab600261213e565b5b50565b828054600181600116156101000203166002900490600052602060002090601f016020900481019282601f106130f057803560ff191683800117855561311e565b8280016001018555821561311e579182015b8281111561311d578235825591602001919060010190613102565b5b50905061312b91906133ca565b5090565b8280548282559060005260206000209081019282156131a8579160200282015b828111156131a75782518260006101000a81548173ffffffffffffffffffffffffffffffffffffffff021916908373ffffffffffffffffffffffffffffffffffffffff1602179055509160200191906001019061314f565b5b5090506131b591906133ef565b5090565b8280548282559060005260206000209081019282156131f5579160200282015b828111156131f45782518255916020019190600101906131d9565b5b50905061320291906133ca565b5090565b82805482825590600052602060002090601f0160209004810192821561329b5791602002820160005b8382111561326c57835183826101000a81548160ff021916908315150217905550926020019260010160208160000104928301926001030261322f565b80156132995782816101000a81549060ff021916905560010160208160000104928301926001030261326c565b505b5090506132a89190613432565b5090565b8280548282559060005260206000209081019282156132fb579160200282015b828111156132fa5782518290805190602001906132ea929190613462565b50916020019190600101906132cc565b5b50905061330891906134e2565b5090565b8154818355818111156133335781836000526020600020918201910161333291906133ca565b5b505050565b81548183558181111561335f5781836000526020600020918201910161335e91906134e2565b5b505050565b81548183558181111561339957601f016020900481601f0160209004836000526020600020918201910161339891906133ca565b5b505050565b8154818355818111156133c5578183600052602060002091820191016133c491906133ca565b5b505050565b6133ec91905b808211156133e85760008160009055506001016133d0565b5090565b90565b61342f91905b8082111561342b57600081816101000a81549073ffffffffffffffffffffffffffffffffffffffff0219169055506001016133f5565b5090565b90565b61345f91905b8082111561345b57600081816101000a81549060ff021916905550600101613438565b5090565b90565b828054600181600116156101000203166002900490600052602060002090601f016020900481019282601f106134a357805160ff19168380011785556134d1565b828001600101855582156134d1579182015b828111156134d05782518255916020019190600101906134b5565b5b5090506134de91906133ca565b5090565b61350b91905b8082111561350757600081816134fe919061350e565b506001016134e8565b5090565b90565b50805460018160011615610100020316600290046000825580601f106135345750613553565b601f01602090049060005260206000209081019061355291906133ca565b5b50565b6040805190810160405280601181526020017f5f696e697453746174654d616368696e6500000000000000000000000000000081525060001515600c826040518082805190602001908083835b6020831015156135c857805182526020820191506020810190506020830392506135a3565b6001836020036101000a038019825116818451168082178552505050505050905001915050908152602001604051809103902060009054906101000a900460ff16151514151561361757600080fd5b613621600d6136a8565b6001600c826040518082805190602001908083835b60208310151561365b5780518252602082019150602081019050602083039250613636565b6001836020036101000a038019825116818451168082178552505050505050905001915050908152602001604051809103902060006101000a81548160ff02191690831515021790555050565b600015158160000160009054906101000a900460ff1615151415156136cc57600080fd5b60018160000160016101000a81548160ff021916908360ff16021790555060018160000160006101000a81548160ff021916908315150217905550505600a165627a7a7230582085f7669d5448f1210a41d0fdc0c3021893e1bfd7f6656b5f101a823d39ae32320029",
  "source": "pragma solidity ^0.4.23;\n\nimport \"../libraries/StateMachine.sol\";\nimport \"./IComputingJob.sol\";\n\n/*\n\n */\n\ncontract CognitiveJob is IComputingJob, StateMachine /* final */ {\n\n    /**\n     * ## Main functionality\n     */\n\n    uint internal constant WORKER_TIMEOUT = 30 minutes;\n\n    IPandora public pandora;\n    IKernel public kernel;\n    IDataset public dataset;\n    uint256 public batches;\n    uint256 public complexity; //todo find better name\n    bytes32 public description;\n    IWorkerNode[] public activeWorkers;\n    IWorkerNode[] public workersPool;\n    bytes[] public ipfsResults;\n\n    uint256[] private responseTimestamps;\n    bool[] private acceptionFlags;\n    bool[] private validationFlags;\n    bool[] private completionFlags;\n\n    event WorkersUpdated();\n    event WorkersNotFound();\n    event DataValidationStarted();\n    event DataValidationFailed();\n    event CognitionStarted();\n    event CognitionProgressed(uint8 precent);\n    event CognitionCompleted(bool partialResult);\n\n    constructor(\n        IPandora _pandora,\n        IKernel _kernel,\n        IDataset _dataset,\n        IWorkerNode[] _workersPool,\n        uint256 _complexity,\n        bytes32 _description\n    )\n    public {\n        batches = _dataset.batchesCount();\n        require(batches > 0);\n        require(_workersPool.length >= batches);\n        require(_pandora != address(0));\n        require(_kernel != address(0));\n        require(_dataset != address(0));\n\n        pandora = _pandora;\n        kernel = _kernel;\n        dataset = _dataset;\n        workersPool = _workersPool;\n        complexity = _complexity;\n        description = _description;\n        _initStateMachine();\n    }\n\n    modifier onlyPandora() {\n        require(msg.sender == address(pandora));\n        _;\n    }\n\n    modifier onlyActiveWorkers() {\n        IWorkerNode workerNode;\n        (workerNode,) = _getWorkerFromSender();\n        require(workerNode != IWorkerNode(0));\n        require(msg.sender == address(workerNode));\n        require(tx.origin == workerNode.owner());\n        _;\n    }\n\n    function isAllWorkersAccepted() returns(bool accepted) {\n        accepted = true;\n        for (uint256 i = 0; i < acceptionFlags.length; i++) {\n            if (acceptionFlags[i] != true) {\n                accepted = false;\n            }\n        }\n    }\n\n    function isAllWorkersValidated() returns(bool validated) {\n        validated = true;\n        for (uint256 i = 0; i < validationFlags.length; i++) {\n            if (validationFlags[i] != true) {\n                validated = false;\n            }\n        }\n    }\n\n    function isAllWorkersCompleted() returns(bool completed) {\n        completed = true;\n        for (uint256 i = 0; i < completionFlags.length; i++) {\n            if (completionFlags[i] != true) {\n                completed = false;\n            }\n        }\n    }\n\n    function _getWorkerIndex(IWorkerNode _worker) private view returns (uint256) {\n        for (uint256 index = 0; index < activeWorkers.length; index++) {\n            if (_worker == address(activeWorkers[index])) {\n                return index;\n            }\n        }\n        return uint256(-1);\n    }\n\n    function ipfsResultsCount() public view returns (uint256 count) {\n        count = ipfsResults.length;\n    }\n\n    function _getWorkerFromSender() private view returns (IWorkerNode o_workerNode, uint256 o_workerIndex) {\n        o_workerIndex = _getWorkerIndex(IWorkerNode(msg.sender));\n        if (o_workerIndex > activeWorkers.length) {\n            return (IWorkerNode(0), uint256(-1));\n        }\n        o_workerNode = activeWorkers[o_workerIndex];\n    }\n\n    function _replaceWorker(uint256 workerIndex) private requireStates2(DataValidation, Cognition) {\n        IWorkerNode replacementWorker;\n        do {\n            if (workersPool.length == 0) {\n                _insufficientWorkers();\n                return;\n            }\n            replacementWorker = workersPool[workersPool.length - 1];\n            workersPool.length = workersPool.length - 1;\n        } while (replacementWorker.currentState() != replacementWorker.Idle());\n\n        acceptionFlags[workerIndex] = false; // no response is given from the new worker yet\n        responseTimestamps[workerIndex] = block.timestamp;\n        activeWorkers[workerIndex] = replacementWorker;\n        replacementWorker.assignJob(this);\n        emit WorkersUpdated();\n    }\n\n    function _insufficientWorkers() private requireActiveStates {\n        for (uint no = 0; no < activeWorkers.length; no++) {\n            activeWorkers[no].cancelJob();\n        }\n\n        if (stateMachine.currentState == Cognition) {\n            _transitionToState(PartialResult);\n        } else {\n            _transitionToState(InsufficientWorkers);\n        }\n    }\n\n    function _cleanStorage() private {\n        workersPool.length = 0;\n        activeWorkers.length = 0;\n        ipfsResults.length = 0;\n        acceptionFlags.length = 0;\n        responseTimestamps.length = 0;\n    }\n\n    function _trackOfflineWorkers() private requireActiveStates {\n        for (uint256 no = 0; no < responseTimestamps.length; no++) {\n            if (block.timestamp - responseTimestamps[no] > WORKER_TIMEOUT) {\n                IWorkerNode guiltyWorker = activeWorkers[no];\n                IWorkerNode.Penalties penalty;\n                if (stateMachine.currentState == GatheringWorkers) {\n                    penalty = IWorkerNode.Penalties.OfflineWhileGathering;\n                } else if (stateMachine.currentState == DataValidation) {\n                    penalty = IWorkerNode.Penalties.OfflineWhileDataValidation;\n                } else if (stateMachine.currentState == Cognition) {\n                    penalty = IWorkerNode.Penalties.OfflineWhileCognition;\n                } else {\n                    revert();// This should not happen due to requireActiveStates function modifier\n                }\n                pandora.penaltizeWorkerNode(guiltyWorker, penalty);\n                _replaceWorker(no);\n            }\n        }\n    }\n\n    function _transitionToState(uint8 _newState) private requireAllowedTransition(_newState)  {\n        transitionToState(_newState);\n    }\n\n    function _processAcceptanceResponse(bool _flag) private {\n        IWorkerNode reportingWorker;\n        uint256 workerIndex;\n        (reportingWorker, workerIndex) = _getWorkerFromSender();\n        require(reportingWorker != IWorkerNode(0));\n\n        if (_flag == false) {\n            _replaceWorker(workerIndex);\n            pandora.penaltizeWorkerNode(reportingWorker, IWorkerNode.Penalties.OfflineWhileGathering);\n        } else {\n            acceptionFlags[workerIndex] = true;\n            responseTimestamps[workerIndex] = block.timestamp;\n            _trackOfflineWorkers();\n            if (isAllWorkersAccepted()) {\n                updateResponses();\n                _transitionToState(DataValidation);\n            }\n        }\n    }\n\n    function _processValidationResponse(bool _flag) private {\n        IWorkerNode reportingWorker;\n        uint256 workerIndex;\n        (reportingWorker, workerIndex) = _getWorkerFromSender();\n        require(reportingWorker != IWorkerNode(0));\n\n        if (_flag == false) {\n            _replaceWorker(workerIndex);\n            pandora.penaltizeWorkerNode(reportingWorker, IWorkerNode.Penalties.DeclinesJob);\n        } else {\n            validationFlags[workerIndex] = true;\n            responseTimestamps[workerIndex] = block.timestamp;\n            _trackOfflineWorkers();\n            if (isAllWorkersValidated()) {\n                updateResponses();\n                _transitionToState(Cognition);\n            }\n        }\n    }\n\n    ///@dev Reset all response flags after gathering and cognition start\n    function updateResponses() private {\n        for (uint256 i = 0; i < activeWorkers.length; i++) {\n            responseTimestamps[i] = block.timestamp;\n        }\n    }\n\n    function initialize()\n    external\n// onlyPandora\n    requireState(Uninitialized)\n    {\n        // Select initial worker\n        activeWorkers = new IWorkerNode[](batches);\n        responseTimestamps = new uint[](batches);\n        acceptionFlags = new bool[](batches);\n        validationFlags = new bool[](batches);\n        completionFlags = new bool[](batches);\n        ipfsResults = new bytes[](batches);\n        for (uint8 batch = 0; batch < batches; batch++) {\n            acceptionFlags[batch] = false; // no response is given yet\n            responseTimestamps[batch] = block.timestamp;\n            activeWorkers[batch] = workersPool[batch];\n            activeWorkers[batch].assignJob(this);\n        }\n        for (uint16 pool = batch; pool < workersPool.length; pool++) {\n            workersPool.push(workersPool[pool]);\n        }\n\n        _transitionToState(GatheringWorkers);\n        emit WorkersUpdated();\n    }\n\n    /// @dev Main entry point for\n    /// (Witnessing worker nodes went offline)[https://github.com/pandoraboxchain/techspecs/wiki/Witnessing-worker-nodes-going-offline]\n    /// workflow\n    function reportOfflineWorker(IWorkerNode _reportedWorker)\n    payable\n    external\n    requireActiveStates {\n        /// @todo accept deposit\n        uint256 reportedIndex = _getWorkerIndex(_reportedWorker);\n        if (block.timestamp - responseTimestamps[reportedIndex] > WORKER_TIMEOUT) {\n            /// @todo pay reward and return deposit\n        }\n        _trackOfflineWorkers();\n    }\n\n    function gatheringWorkersResponse(bool _flag)\n    onlyActiveWorkers\n//    requireState(GatheringWorkers)\n    external {\n        _processAcceptanceResponse(_flag);\n    }\n\n    function dataValidationResponse(DataValidationResponse _response)\n    onlyActiveWorkers\n//    requireState(DataValidation)\n    external {\n        /// @todo implement full (data arbitration alorithm)[https://github.com/pandoraboxchain/techspecs/wiki/Data-inconsistency-arbitration]\n        if (_response == DataValidationResponse.Invalid) {\n            _transitionToState(InvalidData);\n            return;\n        }\n        _processValidationResponse(_response == DataValidationResponse.Accept);\n    }\n\n    function commitProgress(uint8 _percent)\n    onlyActiveWorkers\n    external {\n        uint256 workerIndex;\n        (,workerIndex) = _getWorkerFromSender();\n        responseTimestamps[workerIndex] = block.timestamp;\n        emit CognitionProgressed(_percent);\n    }\n\n    function completeWork(bytes _ipfsResults)\n    onlyActiveWorkers\n//    requireState(Cognition)\n    external {\n        uint256 workerIndex;\n        (,workerIndex) = _getWorkerFromSender();\n        ipfsResults[workerIndex] = _ipfsResults;\n        completionFlags[workerIndex] = true;\n        responseTimestamps[workerIndex] = block.timestamp;\n        _trackOfflineWorkers();\n        if (isAllWorkersCompleted()) {\n            _transitionToState(Completed);\n        }\n    }\n\n    function activeWorkersCount()\n    view\n    external\n    returns(uint256) {\n        return activeWorkers.length;\n    }\n\n    function didWorkerCompute(\n        uint no\n    )\n    requireState(Cognition) //worker could compute only in Cognition job state\n    view\n    external\n    returns(bool)\n    {\n        return acceptionFlags[no];\n    }\n\n    /**\n     * ## State Machine implementation\n     */\n\n    modifier requireActiveStates() {\n        require(\n            stateMachine.currentState == GatheringWorkers ||\n            stateMachine.currentState == DataValidation ||\n            stateMachine.currentState == Cognition\n        );\n        _;\n    }\n\n    function _initStateMachine() internal {\n        // Creating table of possible state transitions\n        mapping(uint8 => uint8[]) transitions = stateMachine.transitionTable;\n        transitions[Uninitialized] = [GatheringWorkers];\n        transitions[GatheringWorkers] = [InsufficientWorkers, DataValidation];\n        transitions[DataValidation] = [InvalidData, Cognition, InsufficientWorkers];\n        transitions[Cognition] = [Completed, PartialResult];\n\n        // Initializing state machine via base contract code\n        super._initStateMachine();\n\n        // Going into initial state (Uninitialized)\n        stateMachine.currentState = Uninitialized;\n    }\n\n    function _fireStateEvent() internal {\n        if (currentState() == InsufficientWorkers) {\n            emit WorkersNotFound();\n            _cleanStorage();\n        } else if (currentState() == DataValidation) {\n            emit DataValidationStarted();\n        } else if (currentState() == InvalidData) {\n            emit DataValidationFailed();\n            _cleanStorage();\n        } else if (currentState() == Cognition) {\n            emit CognitionStarted();\n        } else if (currentState() == PartialResult) {\n            emit CognitionCompleted(true);\n            pandora.finishCognitiveJob();\n            //todo separate finishing in cognitiveJobManager\n        } else if (currentState() == Completed) {\n            emit CognitionCompleted(false);\n            pandora.finishCognitiveJob();\n        }\n    }\n}\n",
  "sourcePath": "/home/kostysh/dev/pyrrha-consensus/contracts/jobs/CognitiveJob.sol",
  "compiler": {
    "name": "solc",
    "version": "0.4.24+commit.e67f0147.Emscripten.clang"
  },
  "schemaVersion": "2.0.0",
  "updatedAt": "2018-06-27T12:31:51.066Z"
}