{
  "contractName": "CognitiveJobFactory",
  "abi": [
    {
      "constant": true,
      "inputs": [],
      "name": "owner",
      "outputs": [
        {
          "name": "",
          "type": "address"
        }
      ],
      "payable": false,
      "stateMutability": "view",
      "type": "function"
    },
    {
      "constant": false,
      "inputs": [
        {
          "name": "newOwner",
          "type": "address"
        }
      ],
      "name": "transferOwnership",
      "outputs": [],
      "payable": false,
      "stateMutability": "nonpayable",
      "type": "function"
    },
    {
      "inputs": [],
      "payable": false,
      "stateMutability": "nonpayable",
      "type": "constructor"
    },
    {
      "anonymous": false,
      "inputs": [
        {
          "indexed": true,
          "name": "previousOwner",
          "type": "address"
        },
        {
          "indexed": true,
          "name": "newOwner",
          "type": "address"
        }
      ],
      "name": "OwnershipTransferred",
      "type": "event"
    },
    {
      "constant": false,
      "inputs": [
        {
          "name": "_kernel",
          "type": "address"
        },
        {
          "name": "_dataset",
          "type": "address"
        },
        {
          "name": "_workersPool",
          "type": "address[]"
        },
        {
          "name": "_complexity",
          "type": "uint256"
        },
        {
          "name": "_description",
          "type": "bytes32"
        }
      ],
      "name": "create",
      "outputs": [
        {
          "name": "o_cognitiveJob",
          "type": "address"
        }
      ],
      "payable": false,
      "stateMutability": "nonpayable",
      "type": "function"
    }
  ],
  "bytecode": "0x608060405234801561001057600080fd5b50336000806101000a81548173ffffffffffffffffffffffffffffffffffffffff021916908373ffffffffffffffffffffffffffffffffffffffff16021790555061428c806100606000396000f300608060405260043610610057576000357c0100000000000000000000000000000000000000000000000000000000900463ffffffff1680630109c3f91461005c5780638da5cb5b1461012f578063f2fde38b14610186575b600080fd5b34801561006857600080fd5b506100ed600480360381019080803573ffffffffffffffffffffffffffffffffffffffff169060200190929190803573ffffffffffffffffffffffffffffffffffffffff1690602001909291908035906020019082018035906020019190919293919293908035906020019092919080356000191690602001909291905050506101c9565b604051808273ffffffffffffffffffffffffffffffffffffffff1673ffffffffffffffffffffffffffffffffffffffff16815260200191505060405180910390f35b34801561013b57600080fd5b50610144610428565b604051808273ffffffffffffffffffffffffffffffffffffffff1673ffffffffffffffffffffffffffffffffffffffff16815260200191505060405180910390f35b34801561019257600080fd5b506101c7600480360381019080803573ffffffffffffffffffffffffffffffffffffffff16906020019092919050505061044d565b005b60008060009054906101000a900473ffffffffffffffffffffffffffffffffffffffff1673ffffffffffffffffffffffffffffffffffffffff163373ffffffffffffffffffffffffffffffffffffffff1614151561022657600080fd5b6000809054906101000a900473ffffffffffffffffffffffffffffffffffffffff168787878787876102566105a2565b808873ffffffffffffffffffffffffffffffffffffffff1673ffffffffffffffffffffffffffffffffffffffff1681526020018773ffffffffffffffffffffffffffffffffffffffff1673ffffffffffffffffffffffffffffffffffffffff1681526020018673ffffffffffffffffffffffffffffffffffffffff1673ffffffffffffffffffffffffffffffffffffffff1681526020018060200184815260200183600019166000191681526020018281038252868682818152602001925060200280828437820191505098505050505050505050604051809103906000f080158015610347573d6000803e3d6000fd5b5090508073ffffffffffffffffffffffffffffffffffffffff1663f2fde38b6000809054906101000a900473ffffffffffffffffffffffffffffffffffffffff166040518263ffffffff167c0100000000000000000000000000000000000000000000000000000000028152600401808273ffffffffffffffffffffffffffffffffffffffff1673ffffffffffffffffffffffffffffffffffffffff168152602001915050600060405180830381600087803b15801561040657600080fd5b505af115801561041a573d6000803e3d6000fd5b505050509695505050505050565b6000809054906101000a900473ffffffffffffffffffffffffffffffffffffffff1681565b6000809054906101000a900473ffffffffffffffffffffffffffffffffffffffff1673ffffffffffffffffffffffffffffffffffffffff163373ffffffffffffffffffffffffffffffffffffffff161415156104a857600080fd5b600073ffffffffffffffffffffffffffffffffffffffff168173ffffffffffffffffffffffffffffffffffffffff16141515156104e457600080fd5b8073ffffffffffffffffffffffffffffffffffffffff166000809054906101000a900473ffffffffffffffffffffffffffffffffffffffff1673ffffffffffffffffffffffffffffffffffffffff167f8be0079c531659141344cd1fd0a4f28419497f9722a3daafe3b4186f6b6457e060405160405180910390a3806000806101000a81548173ffffffffffffffffffffffffffffffffffffffff021916908373ffffffffffffffffffffffffffffffffffffffff16021790555050565b604051613cad80620005b483390190560060806040526000601960006101000a81548160ff021916908360ff1602179055503480156200002d57600080fd5b5060405162003cad38038062003cad833981018060405281019080805190602001909291908051906020019092919080519060200190929190805182019291906020018051906020019092919080519060200190929190505050336000806101000a81548173ffffffffffffffffffffffffffffffffffffffff021916908373ffffffffffffffffffffffffffffffffffffffff1602179055508373ffffffffffffffffffffffffffffffffffffffff166387ea09616040518163ffffffff167c0100000000000000000000000000000000000000000000000000000000028152600401602060405180830381600087803b1580156200012c57600080fd5b505af115801562000141573d6000803e3d6000fd5b505050506040513d60208110156200015857600080fd5b810190808051906020019092919050505060ff1660128190555060006012541115156200018457600080fd5b6012548351101515156200019757600080fd5b600073ffffffffffffffffffffffffffffffffffffffff168673ffffffffffffffffffffffffffffffffffffffff1614151515620001d457600080fd5b600073ffffffffffffffffffffffffffffffffffffffff168573ffffffffffffffffffffffffffffffffffffffff16141515156200021157600080fd5b600073ffffffffffffffffffffffffffffffffffffffff168473ffffffffffffffffffffffffffffffffffffffff16141515156200024e57600080fd5b85600f60006101000a81548173ffffffffffffffffffffffffffffffffffffffff021916908373ffffffffffffffffffffffffffffffffffffffff16021790555084601060006101000a81548173ffffffffffffffffffffffffffffffffffffffff021916908373ffffffffffffffffffffffffffffffffffffffff16021790555083601160006101000a81548173ffffffffffffffffffffffffffffffffffffffff021916908373ffffffffffffffffffffffffffffffffffffffff160217905550826016908051906020019062000329929190620006af565b508160138190555080601481600019169055506200035562000361640100000000026401000000009004565b505050505050620009c1565b6000600d6001019050602060405190810160405280600160ff1660ff168152508160008060ff1660ff168152602001908152602001600020906001620003a99291906200073e565b506040805190810160405280600260ff1660ff168152602001600360ff1660ff16815250816000600160ff1660ff168152602001908152602001600020906002620003f6929190620007ec565b50606060405190810160405280600460ff1660ff168152602001600560ff1660ff168152602001600260ff1660ff16815250816000600360ff1660ff168152602001908152602001600020906003620004519291906200089a565b506040805190810160405280600760ff1660ff168152602001600660ff1660ff16815250816000600560ff1660ff1681526020019081526020016000209060026200049e929190620007ec565b50620004bd620004df64010000000002620030fc176401000000009004565b6000600d60000160016101000a81548160ff021916908360ff16021790555050565b6040805190810160405280601181526020017f5f696e697453746174654d616368696e6500000000000000000000000000000081525060001515600c826040518082805190602001908083835b6020831015156200055357805182526020820191506020810190506020830392506200052c565b6001836020036101000a038019825116818451168082178552505050505050905001915050908152602001604051809103902060009054906101000a900460ff161515141515620005a357600080fd5b620005c3600d6200064c640100000000026200324e176401000000009004565b6001600c826040518082805190602001908083835b602083101515620005ff5780518252602082019150602081019050602083039250620005d8565b6001836020036101000a038019825116818451168082178552505050505050905001915050908152602001604051809103902060006101000a81548160ff02191690831515021790555050565b600015158160000160009054906101000a900460ff1615151415156200067157600080fd5b60018160000160016101000a81548160ff021916908360ff16021790555060018160000160006101000a81548160ff02191690831515021790555050565b8280548282559060005260206000209081019282156200072b579160200282015b828111156200072a5782518260006101000a81548173ffffffffffffffffffffffffffffffffffffffff021916908373ffffffffffffffffffffffffffffffffffffffff16021790555091602001919060010190620006d0565b5b5090506200073a919062000948565b5090565b82805482825590600052602060002090601f01602090048101928215620007d95791602002820160005b83821115620007a857835183826101000a81548160ff021916908360ff160217905550926020019260010160208160000104928301926001030262000768565b8015620007d75782816101000a81549060ff0219169055600101602081600001049283019260010302620007a8565b505b509050620007e891906200098e565b5090565b82805482825590600052602060002090601f01602090048101928215620008875791602002820160005b838211156200085657835183826101000a81548160ff021916908360ff160217905550926020019260010160208160000104928301926001030262000816565b8015620008855782816101000a81549060ff021916905560010160208160000104928301926001030262000856565b505b5090506200089691906200098e565b5090565b82805482825590600052602060002090601f01602090048101928215620009355791602002820160005b838211156200090457835183826101000a81548160ff021916908360ff1602179055509260200192600101602081600001049283019260010302620008c4565b8015620009335782816101000a81549060ff021916905560010160208160000104928301926001030262000904565b505b5090506200094491906200098e565b5090565b6200098b91905b808211156200098757600081816101000a81549073ffffffffffffffffffffffffffffffffffffffff0219169055506001016200094f565b5090565b90565b620009be91905b80821115620009ba57600081816101000a81549060ff02191690555060010162000995565b5090565b90565b6132dc80620009d16000396000f3006080604052600436106101ac576000357c0100000000000000000000000000000000000000000000000000000000900463ffffffff168063026d49ea146101b157806302b728ab146101e25780630c3f6acf146102395780630fb03aad1461026a5780631590d658146103105780631a0bc596146103415780631c72fad41461039857806321514ef3146103c957806323d55473146103fa57806340a030a2146104255780634804b4ba146104505780634e6b42a81461047b578063577bd336146104b657806358909400146104e75780635cb045db146105545780635e4059671461058557806364d3414c146105f25780636936087d146106215780637284e416146106515780638080be77146106845780638129fc1c146106af57806383197ef0146106c65780638da5cb5b146106dd578063b225be4214610734578063c36b33b014610764578063cbd315ae14610795578063cc0e82c1146107c6578063cfdf677e146107f7578063d4aae0c414610822578063d6ccdca314610879578063d94c69aa146108be578063e06452d0146108f4578063f2fde38b14610925578063f5074f4114610968575b600080fd5b3480156101bd57600080fd5b506101c66109ab565b604051808260ff1660ff16815260200191505060405180910390f35b3480156101ee57600080fd5b506101f76109b0565b604051808273ffffffffffffffffffffffffffffffffffffffff1673ffffffffffffffffffffffffffffffffffffffff16815260200191505060405180910390f35b34801561024557600080fd5b5061024e6109d6565b604051808260ff1660ff16815260200191505060405180910390f35b34801561027657600080fd5b50610295600480360381019080803590602001909291905050506109f0565b6040518080602001828103825283818151815260200191508051906020019080838360005b838110156102d55780820151818401526020810190506102ba565b50505050905090810190601f1680156103025780820380516001836020036101000a031916815260200191505b509250505060405180910390f35b34801561031c57600080fd5b50610325610aab565b604051808260ff1660ff16815260200191505060405180910390f35b34801561034d57600080fd5b50610356610ab0565b604051808273ffffffffffffffffffffffffffffffffffffffff1673ffffffffffffffffffffffffffffffffffffffff16815260200191505060405180910390f35b3480156103a457600080fd5b506103ad610ad6565b604051808260ff1660ff16815260200191505060405180910390f35b3480156103d557600080fd5b506103de610adb565b604051808260ff1660ff16815260200191505060405180910390f35b34801561040657600080fd5b5061040f610ae0565b6040518082815260200191505060405180910390f35b34801561043157600080fd5b5061043a610ae6565b6040518082815260200191505060405180910390f35b34801561045c57600080fd5b50610465610af3565b6040518082815260200191505060405180910390f35b34801561048757600080fd5b506104b4600480360381019080803590602001908201803590602001919091929391929390505050610b00565b005b3480156104c257600080fd5b506104cb610d05565b604051808260ff1660ff16815260200191505060405180910390f35b3480156104f357600080fd5b5061051260048036038101908080359060200190929190505050610d18565b604051808273ffffffffffffffffffffffffffffffffffffffff1673ffffffffffffffffffffffffffffffffffffffff16815260200191505060405180910390f35b34801561056057600080fd5b50610569610d56565b604051808260ff1660ff16815260200191505060405180910390f35b34801561059157600080fd5b506105b060048036038101908080359060200190929190505050610d5b565b604051808273ffffffffffffffffffffffffffffffffffffffff1673ffffffffffffffffffffffffffffffffffffffff16815260200191505060405180910390f35b3480156105fe57600080fd5b5061061f600480360381019080803515159060200190929190505050610d99565b005b34801561062d57600080fd5b5061064f600480360381019080803560ff169060200190929190505050610f30565b005b34801561065d57600080fd5b50610666611091565b60405180826000191660001916815260200191505060405180910390f35b34801561069057600080fd5b50610699611097565b6040518082815260200191505060405180910390f35b3480156106bb57600080fd5b506106c461109d565b005b3480156106d257600080fd5b506106db61159a565b005b3480156106e957600080fd5b506106f261162f565b604051808273ffffffffffffffffffffffffffffffffffffffff1673ffffffffffffffffffffffffffffffffffffffff16815260200191505060405180910390f35b34801561074057600080fd5b50610762600480360381019080803560ff169060200190929190505050611654565b005b34801561077057600080fd5b50610779611809565b604051808260ff1660ff16815260200191505060405180910390f35b3480156107a157600080fd5b506107aa61180e565b604051808260ff1660ff16815260200191505060405180910390f35b3480156107d257600080fd5b506107db611813565b604051808260ff1660ff16815260200191505060405180910390f35b34801561080357600080fd5b5061080c611818565b6040518082815260200191505060405180910390f35b34801561082e57600080fd5b5061083761181e565b604051808273ffffffffffffffffffffffffffffffffffffffff1673ffffffffffffffffffffffffffffffffffffffff16815260200191505060405180910390f35b34801561088557600080fd5b506108a460048036038101908080359060200190929190505050611844565b604051808215151515815260200191505060405180910390f35b6108f2600480360381019080803573ffffffffffffffffffffffffffffffffffffffff169060200190929190505050611883565b005b34801561090057600080fd5b50610909611927565b604051808260ff1660ff16815260200191505060405180910390f35b34801561093157600080fd5b50610966600480360381019080803573ffffffffffffffffffffffffffffffffffffffff16906020019092919050505061192c565b005b34801561097457600080fd5b506109a9600480360381019080803573ffffffffffffffffffffffffffffffffffffffff169060200190929190505050611a81565b005b600681565b601160009054906101000a900473ffffffffffffffffffffffffffffffffffffffff1681565b6000600d60000160019054906101000a900460ff16905090565b601a818154811015156109ff57fe5b906000526020600020016000915090508054600181600116156101000203166002900480601f016020809104026020016040519081016040528092919081815260200182805460018160011615610100020316600290048015610aa35780601f10610a7857610100808354040283529160200191610aa3565b820191906000526020600020905b815481529060010190602001808311610a8657829003601f168201915b505050505081565b600581565b600f60009054906101000a900473ffffffffffffffffffffffffffffffffffffffff1681565b600081565b600181565b60135481565b6000601a80549050905090565b6000601580549050905090565b600080610b0b611af5565b5080915050600073ffffffffffffffffffffffffffffffffffffffff168173ffffffffffffffffffffffffffffffffffffffff1614151515610b4c57600080fd5b8073ffffffffffffffffffffffffffffffffffffffff163373ffffffffffffffffffffffffffffffffffffffff16141515610b8657600080fd5b8073ffffffffffffffffffffffffffffffffffffffff16638da5cb5b6040518163ffffffff167c0100000000000000000000000000000000000000000000000000000000028152600401602060405180830381600087803b158015610bea57600080fd5b505af1158015610bfe573d6000803e3d6000fd5b505050506040513d6020811015610c1457600080fd5b810190808051906020019092919050505073ffffffffffffffffffffffffffffffffffffffff163273ffffffffffffffffffffffffffffffffffffffff16141515610c5e57600080fd5b610c66611af5565b9050809250508383601a84815481101515610c7d57fe5b906000526020600020019190610c94929190612c55565b506001601883815481101515610ca657fe5b90600052602060002090602091828204019190066101000a81548160ff02191690831515021790555042601783815481101515610cdf57fe5b9060005260206000200181905550610cf5611b7d565b610cff6007611dee565b50505050565b601960009054906101000a900460ff1681565b601581815481101515610d2757fe5b906000526020600020016000915054906101000a900473ffffffffffffffffffffffffffffffffffffffff1681565b600481565b601681815481101515610d6a57fe5b906000526020600020016000915054906101000a900473ffffffffffffffffffffffffffffffffffffffff1681565b6000610da3611af5565b5080915050600073ffffffffffffffffffffffffffffffffffffffff168173ffffffffffffffffffffffffffffffffffffffff1614151515610de457600080fd5b8073ffffffffffffffffffffffffffffffffffffffff163373ffffffffffffffffffffffffffffffffffffffff16141515610e1e57600080fd5b8073ffffffffffffffffffffffffffffffffffffffff16638da5cb5b6040518163ffffffff167c0100000000000000000000000000000000000000000000000000000000028152600401602060405180830381600087803b158015610e8257600080fd5b505af1158015610e96573d6000803e3d6000fd5b505050506040513d6020811015610eac57600080fd5b810190808051906020019092919050505073ffffffffffffffffffffffffffffffffffffffff163273ffffffffffffffffffffffffffffffffffffffff16141515610ef657600080fd5b60018060ff16600d60000160019054906101000a900460ff1660ff16141515610f1e57600080fd5b610f2b8360006003611f7f565b505050565b6000610f3a611af5565b5080915050600073ffffffffffffffffffffffffffffffffffffffff168173ffffffffffffffffffffffffffffffffffffffff1614151515610f7b57600080fd5b8073ffffffffffffffffffffffffffffffffffffffff163373ffffffffffffffffffffffffffffffffffffffff16141515610fb557600080fd5b8073ffffffffffffffffffffffffffffffffffffffff16638da5cb5b6040518163ffffffff167c0100000000000000000000000000000000000000000000000000000000028152600401602060405180830381600087803b15801561101957600080fd5b505af115801561102d573d6000803e3d6000fd5b505050506040513d602081101561104357600080fd5b810190808051906020019092919050505073ffffffffffffffffffffffffffffffffffffffff163273ffffffffffffffffffffffffffffffffffffffff1614151561108d57600080fd5b5050565b60145481565b60065481565b60008060008060ff16600d60000160019054906101000a900460ff1660ff161415156110c857600080fd5b60016000600d60000160019054906101000a900460ff1690506110f582600d61214590919063ffffffff16565b6012546040519080825280602002602001820160405280156111265781602001602082028038833980820191505090505b506015908051906020019061113c929190612cd5565b5060125460405190808252806020026020018201604052801561116e5781602001602082028038833980820191505090505b5060179080519060200190611184929190612d5f565b506012546040519080825280602002602001820160405280156111b65781602001602082028038833980820191505090505b50601890805190602001906111cc929190612dac565b5060125460405190808252806020026020018201604052801561120357816020015b60608152602001906001900390816111ee5790505b50601a9080519060200190611219929190612e52565b50600094505b6012548560ff16101561141d57600060188660ff1681548110151561124057fe5b90600052602060002090602091828204019190066101000a81548160ff0219169083151502179055504260178660ff1681548110151561127c57fe5b906000526020600020018190555060168560ff1681548110151561129c57fe5b9060005260206000200160009054906101000a900473ffffffffffffffffffffffffffffffffffffffff1660158660ff168154811015156112d957fe5b9060005260206000200160006101000a81548173ffffffffffffffffffffffffffffffffffffffff021916908373ffffffffffffffffffffffffffffffffffffffff16021790555060158560ff1681548110151561133357fe5b9060005260206000200160009054906101000a900473ffffffffffffffffffffffffffffffffffffffff1673ffffffffffffffffffffffffffffffffffffffff1663897399ae306040518263ffffffff167c0100000000000000000000000000000000000000000000000000000000028152600401808273ffffffffffffffffffffffffffffffffffffffff1673ffffffffffffffffffffffffffffffffffffffff168152602001915050600060405180830381600087803b1580156113f857600080fd5b505af115801561140c573d6000803e3d6000fd5b50505050848060010195505061121f565b8460ff1693505b6016805490508461ffff1610156114e4576016808561ffff1681548110151561144957fe5b9060005260206000200160009054906101000a900473ffffffffffffffffffffffffffffffffffffffff1690806001815401808255809150509060018203906000526020600020016000909192909190916101000a81548173ffffffffffffffffffffffffffffffffffffffff021916908373ffffffffffffffffffffffffffffffffffffffff160217905550508380600101945050611424565b7f7e0d09ae7160446fde9323338cdbe3e98cc2d5197108e8a3c5e037265288335d60405160405180910390a181600d60000160016101000a81548160ff021916908360ff1602179055507fe8a97ea87e4388fa22d496b95a8ed5ced6717f49790318de2b928aaf37a021d881600d60000160019054906101000a900460ff16604051808360ff1660ff1681526020018260ff1660ff1681526020019250505060405180910390a1611593612215565b5050505050565b6000809054906101000a900473ffffffffffffffffffffffffffffffffffffffff1673ffffffffffffffffffffffffffffffffffffffff163373ffffffffffffffffffffffffffffffffffffffff161415156115f557600080fd5b6000809054906101000a900473ffffffffffffffffffffffffffffffffffffffff1673ffffffffffffffffffffffffffffffffffffffff16ff5b6000809054906101000a900473ffffffffffffffffffffffffffffffffffffffff1681565b600061165e611af5565b5080915050600073ffffffffffffffffffffffffffffffffffffffff168173ffffffffffffffffffffffffffffffffffffffff161415151561169f57600080fd5b8073ffffffffffffffffffffffffffffffffffffffff163373ffffffffffffffffffffffffffffffffffffffff161415156116d957600080fd5b8073ffffffffffffffffffffffffffffffffffffffff16638da5cb5b6040518163ffffffff167c0100000000000000000000000000000000000000000000000000000000028152600401602060405180830381600087803b15801561173d57600080fd5b505af1158015611751573d6000803e3d6000fd5b505050506040513d602081101561176757600080fd5b810190808051906020019092919050505073ffffffffffffffffffffffffffffffffffffffff163273ffffffffffffffffffffffffffffffffffffffff161415156117b157600080fd5b6002808111156117bd57fe5b8260028111156117c957fe5b14156117de576117d9600461252e565b611805565b611804600060028111156117ee57fe5b8360028111156117fa57fe5b1460016005611f7f565b5b5050565b600281565b600381565b60ff81565b60125481565b601060009054906101000a900473ffffffffffffffffffffffffffffffffffffffff1681565b60006001151560188381548110151561185957fe5b90600052602060002090602091828204019190069054906101000a900460ff161515149050919050565b6000600160ff16600d60000160019054906101000a900460ff1660ff1614806118c45750600360ff16600d60000160019054906101000a900460ff1660ff16145b806118e75750600560ff16600d60000160019054906101000a900460ff1660ff16145b15156118f257600080fd5b6118fb826125e2565b905061070860178281548110151561190f57fe5b906000526020600020505050611923611b7d565b5050565b600781565b6000809054906101000a900473ffffffffffffffffffffffffffffffffffffffff1673ffffffffffffffffffffffffffffffffffffffff163373ffffffffffffffffffffffffffffffffffffffff1614151561198757600080fd5b600073ffffffffffffffffffffffffffffffffffffffff168173ffffffffffffffffffffffffffffffffffffffff16141515156119c357600080fd5b8073ffffffffffffffffffffffffffffffffffffffff166000809054906101000a900473ffffffffffffffffffffffffffffffffffffffff1673ffffffffffffffffffffffffffffffffffffffff167f8be0079c531659141344cd1fd0a4f28419497f9722a3daafe3b4186f6b6457e060405160405180910390a3806000806101000a81548173ffffffffffffffffffffffffffffffffffffffff021916908373ffffffffffffffffffffffffffffffffffffffff16021790555050565b6000809054906101000a900473ffffffffffffffffffffffffffffffffffffffff1673ffffffffffffffffffffffffffffffffffffffff163373ffffffffffffffffffffffffffffffffffffffff16141515611adc57600080fd5b8073ffffffffffffffffffffffffffffffffffffffff16ff5b600080611b01336125e2565b9050601580549050811115611b3c5760007fffffffffffffffffffffffffffffffffffffffffffffffffffffffffffffffff91509150611b79565b601581815481101515611b4b57fe5b9060005260206000200160009054906101000a900473ffffffffffffffffffffffffffffffffffffffff1691505b9091565b6000806000600160ff16600d60000160019054906101000a900460ff1660ff161480611bc15750600360ff16600d60000160019054906101000a900460ff1660ff16145b80611be45750600560ff16600d60000160019054906101000a900460ff1660ff16145b1515611bef57600080fd5b600092505b601780549050831015611de957610708601784815481101515611c1357fe5b906000526020600020015442031115611ddc57601583815481101515611c3557fe5b9060005260206000200160009054906101000a900473ffffffffffffffffffffffffffffffffffffffff169150600160ff16600d60000160019054906101000a900460ff1660ff161415611c8c5760009050611ce7565b600360ff16600d60000160019054906101000a900460ff1660ff161415611cb65760029050611ce6565b600560ff16600d60000160019054906101000a900460ff1660ff161415611ce05760049050611ce5565b600080fd5b5b5b600f60009054906101000a900473ffffffffffffffffffffffffffffffffffffffff1673ffffffffffffffffffffffffffffffffffffffff16635ef1777683836040518363ffffffff167c0100000000000000000000000000000000000000000000000000000000028152600401808373ffffffffffffffffffffffffffffffffffffffff1673ffffffffffffffffffffffffffffffffffffffff168152602001826004811115611d9457fe5b60ff16815260200192505050600060405180830381600087803b158015611dba57600080fd5b505af1158015611dce573d6000803e3d6000fd5b50505050611ddb836126a3565b5b8280600101935050611bf4565b505050565b600080600090505b601880549050811015611e515760011515601882815481101515611e1657fe5b90600052602060002090602091828204019190069054906101000a900460ff161515141515611e4457611f7a565b8080600101915050611df6565b826000600d60000160019054906101000a900460ff169050611e7d82600d61214590919063ffffffff16565b600093505b601780549050841015611ef4576000601885815481101515611ea057fe5b90600052602060002090602091828204019190066101000a81548160ff02191690831515021790555042601785815481101515611ed957fe5b90600052602060002001819055508380600101945050611e82565b81600d60000160016101000a81548160ff021916908360ff1602179055507fe8a97ea87e4388fa22d496b95a8ed5ced6717f49790318de2b928aaf37a021d881600d60000160019054906101000a900460ff16604051808360ff1660ff1681526020018260ff1660ff1681526020019250505060405180910390a1611f77612215565b50505b505050565b600080611f8a611af5565b8092508193505050600073ffffffffffffffffffffffffffffffffffffffff168273ffffffffffffffffffffffffffffffffffffffff1614151515611fce57600080fd5b6000151585151514156120d457611fe4816126a3565b600f60009054906101000a900473ffffffffffffffffffffffffffffffffffffffff1673ffffffffffffffffffffffffffffffffffffffff16635ef1777683866040518363ffffffff167c0100000000000000000000000000000000000000000000000000000000028152600401808373ffffffffffffffffffffffffffffffffffffffff1673ffffffffffffffffffffffffffffffffffffffff16815260200182600481111561209157fe5b60ff16815260200192505050600060405180830381600087803b1580156120b757600080fd5b505af11580156120cb573d6000803e3d6000fd5b5050505061213e565b60016018828154811015156120e557fe5b90600052602060002090602091828204019190066101000a81548160ff0219169083151502179055504260178281548110151561211e57fe5b9060005260206000200181905550612134611b7d565b61213d83611dee565b5b5050505050565b600080600060ff8560000160019054906101000a900460ff1660ff161415151561216b57fe5b600092508460010160008660000160019054906101000a900460ff1660ff1660ff1681526020019081526020016000209150600090505b81805490508110156121fb578360ff1682828154811015156121c057fe5b90600052602060002090602091828204019190069054906101000a900460ff1660ff1614156121ee57600192505b80806001019150506121a2565b6001151583151514151561220e57600080fd5b5050505050565b600260ff166122226109d6565b60ff161415612264577f5f64b01e798e22b7b006309d50c085491c227a74e9cf11a922528b0d9a414de460405160405180910390a161225f612a1c565b61252c565b600360ff166122716109d6565b60ff1614156122ab577f2d9c6af01e1c3857ef5720b6226a3b900b0db1a5a9430c53d8a35b4fccf2015560405160405180910390a161252b565b600460ff166122b86109d6565b60ff1614156122fa577f75be0ccc76f667c80f1c9ab66fafe78bd732b900403eb3f0da135c085955deca60405160405180910390a16122f5612a1c565b61252a565b600560ff166123076109d6565b60ff161415612341577f51273f7efcba23797f509c81f07b426c6b9cdbee92a6a40389a405d0152178c960405160405180910390a1612529565b600660ff1661234e6109d6565b60ff161415612436577ff8d8e42e26bfacf74ecaff47cd43fa79d51c74d3a979d58521d12f369ad2bf7b6001604051808215151515815260200191505060405180910390a1600f60009054906101000a900473ffffffffffffffffffffffffffffffffffffffff1673ffffffffffffffffffffffffffffffffffffffff1663171317516040518163ffffffff167c0100000000000000000000000000000000000000000000000000000000028152600401600060405180830381600087803b15801561241957600080fd5b505af115801561242d573d6000803e3d6000fd5b50505050612528565b600760ff166124436109d6565b60ff161415612527577ff8d8e42e26bfacf74ecaff47cd43fa79d51c74d3a979d58521d12f369ad2bf7b6000604051808215151515815260200191505060405180910390a1600f60009054906101000a900473ffffffffffffffffffffffffffffffffffffffff1673ffffffffffffffffffffffffffffffffffffffff1663171317516040518163ffffffff167c0100000000000000000000000000000000000000000000000000000000028152600401600060405180830381600087803b15801561250e57600080fd5b505af1158015612522573d6000803e3d6000fd5b505050505b5b5b5b5b5b565b806000600d60000160019054906101000a900460ff16905061255a82600d61214590919063ffffffff16565b81600d60000160016101000a81548160ff021916908360ff1602179055507fe8a97ea87e4388fa22d496b95a8ed5ced6717f49790318de2b928aaf37a021d881600d60000160019054906101000a900460ff16604051808360ff1660ff1681526020018260ff1660ff1681526020019250505060405180910390a16125dd612215565b505050565b600080600090505b6015805490508110156126795760158181548110151561260657fe5b9060005260206000200160009054906101000a900473ffffffffffffffffffffffffffffffffffffffff1673ffffffffffffffffffffffffffffffffffffffff168373ffffffffffffffffffffffffffffffffffffffff16141561266c5780915061269d565b80806001019150506125ea565b7fffffffffffffffffffffffffffffffffffffffffffffffffffffffffffffffff91505b50919050565b6000600360056126bf8282600d612a6e9092919063ffffffff16565b5b600060168054905014156126db576126d6612ad4565b612a16565b60166001601680549050038154811015156126f257fe5b9060005260206000200160009054906101000a900473ffffffffffffffffffffffffffffffffffffffff1692506001601680549050036016816127359190612eb2565b508273ffffffffffffffffffffffffffffffffffffffff1663ae897c556040518163ffffffff167c0100000000000000000000000000000000000000000000000000000000028152600401602060405180830381600087803b15801561279a57600080fd5b505af11580156127ae573d6000803e3d6000fd5b505050506040513d60208110156127c457600080fd5b810190808051906020019092919050505060ff168373ffffffffffffffffffffffffffffffffffffffff16630c3f6acf6040518163ffffffff167c0100000000000000000000000000000000000000000000000000000000028152600401602060405180830381600087803b15801561283c57600080fd5b505af1158015612850573d6000803e3d6000fd5b505050506040513d602081101561286657600080fd5b810190808051906020019092919050505060ff16141515612886576126c0565b600060188581548110151561289757fe5b90600052602060002090602091828204019190066101000a81548160ff021916908315150217905550426017858154811015156128d057fe5b9060005260206000200181905550826015858154811015156128ee57fe5b9060005260206000200160006101000a81548173ffffffffffffffffffffffffffffffffffffffff021916908373ffffffffffffffffffffffffffffffffffffffff1602179055508273ffffffffffffffffffffffffffffffffffffffff1663897399ae306040518263ffffffff167c0100000000000000000000000000000000000000000000000000000000028152600401808273ffffffffffffffffffffffffffffffffffffffff1673ffffffffffffffffffffffffffffffffffffffff168152602001915050600060405180830381600087803b1580156129d157600080fd5b505af11580156129e5573d6000803e3d6000fd5b505050507f7e0d09ae7160446fde9323338cdbe3e98cc2d5197108e8a3c5e037265288335d60405160405180910390a15b50505050565b6000601681612a2b9190612eb2565b506000601581612a3b9190612eb2565b506000601a81612a4b9190612ede565b506000601881612a5b9190612f0a565b506000601781612a6b9190612f44565b50565b60008090508360000160019054906101000a900460ff1660ff168360ff161415612a9757600190505b8360000160019054906101000a900460ff1660ff168260ff161415612abb57600190505b60011515811515141515612ace57600080fd5b50505050565b6000600160ff16600d60000160019054906101000a900460ff1660ff161480612b155750600360ff16600d60000160019054906101000a900460ff1660ff16145b80612b385750600560ff16600d60000160019054906101000a900460ff1660ff16145b1515612b4357600080fd5b600090505b601580549050811015612c1757601581815481101515612b6457fe5b9060005260206000200160009054906101000a900473ffffffffffffffffffffffffffffffffffffffff1673ffffffffffffffffffffffffffffffffffffffff1663b07c74756040518163ffffffff167c0100000000000000000000000000000000000000000000000000000000028152600401600060405180830381600087803b158015612bf257600080fd5b505af1158015612c06573d6000803e3d6000fd5b505050508080600101915050612b48565b600560ff16600d60000160019054906101000a900460ff1660ff161415612c4757612c42600661252e565b612c52565b612c51600261252e565b5b50565b828054600181600116156101000203166002900490600052602060002090601f016020900481019282601f10612c9657803560ff1916838001178555612cc4565b82800160010185558215612cc4579182015b82811115612cc3578235825591602001919060010190612ca8565b5b509050612cd19190612f70565b5090565b828054828255906000526020600020908101928215612d4e579160200282015b82811115612d4d5782518260006101000a81548173ffffffffffffffffffffffffffffffffffffffff021916908373ffffffffffffffffffffffffffffffffffffffff16021790555091602001919060010190612cf5565b5b509050612d5b9190612f95565b5090565b828054828255906000526020600020908101928215612d9b579160200282015b82811115612d9a578251825591602001919060010190612d7f565b5b509050612da89190612f70565b5090565b82805482825590600052602060002090601f01602090048101928215612e415791602002820160005b83821115612e1257835183826101000a81548160ff0219169083151502179055509260200192600101602081600001049283019260010302612dd5565b8015612e3f5782816101000a81549060ff0219169055600101602081600001049283019260010302612e12565b505b509050612e4e9190612fd8565b5090565b828054828255906000526020600020908101928215612ea1579160200282015b82811115612ea0578251829080519060200190612e90929190613008565b5091602001919060010190612e72565b5b509050612eae9190613088565b5090565b815481835581811115612ed957818360005260206000209182019101612ed89190612f70565b5b505050565b815481835581811115612f0557818360005260206000209182019101612f049190613088565b5b505050565b815481835581811115612f3f57601f016020900481601f01602090048360005260206000209182019101612f3e9190612f70565b5b505050565b815481835581811115612f6b57818360005260206000209182019101612f6a9190612f70565b5b505050565b612f9291905b80821115612f8e576000816000905550600101612f76565b5090565b90565b612fd591905b80821115612fd157600081816101000a81549073ffffffffffffffffffffffffffffffffffffffff021916905550600101612f9b565b5090565b90565b61300591905b8082111561300157600081816101000a81549060ff021916905550600101612fde565b5090565b90565b828054600181600116156101000203166002900490600052602060002090601f016020900481019282601f1061304957805160ff1916838001178555613077565b82800160010185558215613077579182015b8281111561307657825182559160200191906001019061305b565b5b5090506130849190612f70565b5090565b6130b191905b808211156130ad57600081816130a491906130b4565b5060010161308e565b5090565b90565b50805460018160011615610100020316600290046000825580601f106130da57506130f9565b601f0160209004906000526020600020908101906130f89190612f70565b5b50565b6040805190810160405280601181526020017f5f696e697453746174654d616368696e6500000000000000000000000000000081525060001515600c826040518082805190602001908083835b60208310151561316e5780518252602082019150602081019050602083039250613149565b6001836020036101000a038019825116818451168082178552505050505050905001915050908152602001604051809103902060009054906101000a900460ff1615151415156131bd57600080fd5b6131c7600d61324e565b6001600c826040518082805190602001908083835b60208310151561320157805182526020820191506020810190506020830392506131dc565b6001836020036101000a038019825116818451168082178552505050505050905001915050908152602001604051809103902060006101000a81548160ff02191690831515021790555050565b600015158160000160009054906101000a900460ff16151514151561327257600080fd5b60018160000160016101000a81548160ff021916908360ff16021790555060018160000160006101000a81548160ff021916908315150217905550505600a165627a7a72305820ce7390dc6a970d9ce192f6447d50fc4912d8cd24b11c9a764b018dd80342b89f0029a165627a7a7230582067339cbe1d4f3f5607ffd9bea24776a8facc6975fb90c494ad63995b60f8753a0029",
  "source": "pragma solidity ^0.4.23;\n\nimport \"openzeppelin-solidity/contracts/ownership/Ownable.sol\";\nimport \"../../jobs/CognitiveJob.sol\";\nimport \"../../entities/IDataEntity.sol\";\nimport \"../../entities/IDataset.sol\";\nimport \"../../entities/IKernel.sol\";\nimport \"../../nodes/IWorkerNode.sol\";\nimport \"../IPandora.sol\";\n\ncontract CognitiveJobFactory is Ownable {\n    constructor() public { }\n\n    function create(\n        IKernel _kernel,\n        IDataset _dataset,\n        IWorkerNode[] _workersPool,\n        uint256 _complexity,\n        bytes32 _description\n    )\n    onlyOwner\n    external\n    returns (CognitiveJob o_cognitiveJob) {\n        // Creating job\n        o_cognitiveJob = new CognitiveJob(\n            IPandora(owner), _kernel, _dataset, _workersPool, _complexity, _description);\n\n//        // Checking that it was created correctly\n//        assert(o_cognitiveJob != CognitiveJob(0));\n\n        // Transferring ownership to the main Pandora contract (which owns this factory)\n        o_cognitiveJob.transferOwnership(owner);\n    }\n}\n",
  "sourcePath": "/home/kostysh/dev/pyrrha-consensus/contracts/pandora/factories/CognitiveJobFactory.sol",
  "compiler": {
    "name": "solc",
    "version": "0.4.24+commit.e67f0147.Emscripten.clang"
  },
  "schemaVersion": "2.0.0",
  "updatedAt": "2018-06-19T22:32:02.442Z"
}