{
  "contractName": "CognitiveJob",
  "abi": [
    {
      "constant": true,
      "inputs": [],
      "name": "PartialResult",
      "outputs": [
        {
          "name": "",
          "type": "uint8"
        }
      ],
      "payable": false,
      "stateMutability": "view",
      "type": "function"
    },
    {
      "constant": true,
      "inputs": [],
      "name": "dataset",
      "outputs": [
        {
          "name": "",
          "type": "address"
        }
      ],
      "payable": false,
      "stateMutability": "view",
      "type": "function"
    },
    {
      "constant": true,
      "inputs": [],
      "name": "currentState",
      "outputs": [
        {
          "name": "",
          "type": "uint8"
        }
      ],
      "payable": false,
      "stateMutability": "view",
      "type": "function"
    },
    {
      "constant": true,
      "inputs": [
        {
          "name": "",
          "type": "uint256"
        }
      ],
      "name": "ipfsResults",
      "outputs": [
        {
          "name": "",
          "type": "bytes"
        }
      ],
      "payable": false,
      "stateMutability": "view",
      "type": "function"
    },
    {
      "constant": true,
      "inputs": [],
      "name": "Cognition",
      "outputs": [
        {
          "name": "",
          "type": "uint8"
        }
      ],
      "payable": false,
      "stateMutability": "view",
      "type": "function"
    },
    {
      "constant": true,
      "inputs": [],
      "name": "pandora",
      "outputs": [
        {
          "name": "",
          "type": "address"
        }
      ],
      "payable": false,
      "stateMutability": "view",
      "type": "function"
    },
    {
      "constant": true,
      "inputs": [],
      "name": "Uninitialized",
      "outputs": [
        {
          "name": "",
          "type": "uint8"
        }
      ],
      "payable": false,
      "stateMutability": "view",
      "type": "function"
    },
    {
      "constant": true,
      "inputs": [],
      "name": "GatheringWorkers",
      "outputs": [
        {
          "name": "",
          "type": "uint8"
        }
      ],
      "payable": false,
      "stateMutability": "view",
      "type": "function"
    },
    {
      "constant": true,
      "inputs": [],
      "name": "complexity",
      "outputs": [
        {
          "name": "",
          "type": "uint256"
        }
      ],
      "payable": false,
      "stateMutability": "view",
      "type": "function"
    },
    {
      "constant": true,
      "inputs": [],
      "name": "progress",
      "outputs": [
        {
          "name": "",
          "type": "uint8"
        }
      ],
      "payable": false,
      "stateMutability": "view",
      "type": "function"
    },
    {
      "constant": true,
      "inputs": [
        {
          "name": "",
          "type": "uint256"
        }
      ],
      "name": "activeWorkers",
      "outputs": [
        {
          "name": "",
          "type": "address"
        }
      ],
      "payable": false,
      "stateMutability": "view",
      "type": "function"
    },
    {
      "constant": true,
      "inputs": [],
      "name": "InvalidData",
      "outputs": [
        {
          "name": "",
          "type": "uint8"
        }
      ],
      "payable": false,
      "stateMutability": "view",
      "type": "function"
    },
    {
      "constant": true,
      "inputs": [
        {
          "name": "",
          "type": "uint256"
        }
      ],
      "name": "workersPool",
      "outputs": [
        {
          "name": "",
          "type": "address"
        }
      ],
      "payable": false,
      "stateMutability": "view",
      "type": "function"
    },
    {
      "constant": true,
      "inputs": [],
      "name": "description",
      "outputs": [
        {
          "name": "",
          "type": "bytes32"
        }
      ],
      "payable": false,
      "stateMutability": "view",
      "type": "function"
    },
    {
      "constant": true,
      "inputs": [],
      "name": "jobType",
      "outputs": [
        {
          "name": "",
          "type": "uint256"
        }
      ],
      "payable": false,
      "stateMutability": "view",
      "type": "function"
    },
    {
      "constant": false,
      "inputs": [],
      "name": "destroy",
      "outputs": [],
      "payable": false,
      "stateMutability": "nonpayable",
      "type": "function"
    },
    {
      "constant": true,
      "inputs": [],
      "name": "owner",
      "outputs": [
        {
          "name": "",
          "type": "address"
        }
      ],
      "payable": false,
      "stateMutability": "view",
      "type": "function"
    },
    {
      "constant": true,
      "inputs": [],
      "name": "InsufficientWorkers",
      "outputs": [
        {
          "name": "",
          "type": "uint8"
        }
      ],
      "payable": false,
      "stateMutability": "view",
      "type": "function"
    },
    {
      "constant": true,
      "inputs": [],
      "name": "DataValidation",
      "outputs": [
        {
          "name": "",
          "type": "uint8"
        }
      ],
      "payable": false,
      "stateMutability": "view",
      "type": "function"
    },
    {
      "constant": true,
      "inputs": [],
      "name": "Destroyed",
      "outputs": [
        {
          "name": "",
          "type": "uint8"
        }
      ],
      "payable": false,
      "stateMutability": "view",
      "type": "function"
    },
    {
      "constant": true,
      "inputs": [],
      "name": "batches",
      "outputs": [
        {
          "name": "",
          "type": "uint256"
        }
      ],
      "payable": false,
      "stateMutability": "view",
      "type": "function"
    },
    {
      "constant": true,
      "inputs": [],
      "name": "kernel",
      "outputs": [
        {
          "name": "",
          "type": "address"
        }
      ],
      "payable": false,
      "stateMutability": "view",
      "type": "function"
    },
    {
      "constant": true,
      "inputs": [],
      "name": "Completed",
      "outputs": [
        {
          "name": "",
          "type": "uint8"
        }
      ],
      "payable": false,
      "stateMutability": "view",
      "type": "function"
    },
    {
      "constant": false,
      "inputs": [
        {
          "name": "newOwner",
          "type": "address"
        }
      ],
      "name": "transferOwnership",
      "outputs": [],
      "payable": false,
      "stateMutability": "nonpayable",
      "type": "function"
    },
    {
      "constant": false,
      "inputs": [
        {
          "name": "_recipient",
          "type": "address"
        }
      ],
      "name": "destroyAndSend",
      "outputs": [],
      "payable": false,
      "stateMutability": "nonpayable",
      "type": "function"
    },
    {
      "inputs": [
        {
          "name": "_pandora",
          "type": "address"
        },
        {
          "name": "_kernel",
          "type": "address"
        },
        {
          "name": "_dataset",
          "type": "address"
        },
        {
          "name": "_workersPool",
          "type": "address[]"
        }
      ],
      "payable": false,
      "stateMutability": "nonpayable",
      "type": "constructor"
    },
    {
      "anonymous": false,
      "inputs": [],
      "name": "WorkersUpdated",
      "type": "event"
    },
    {
      "anonymous": false,
      "inputs": [],
      "name": "WorkersNotFound",
      "type": "event"
    },
    {
      "anonymous": false,
      "inputs": [],
      "name": "DataValidationStarted",
      "type": "event"
    },
    {
      "anonymous": false,
      "inputs": [],
      "name": "DataValidationFailed",
      "type": "event"
    },
    {
      "anonymous": false,
      "inputs": [],
      "name": "CognitionStarted",
      "type": "event"
    },
    {
      "anonymous": false,
      "inputs": [
        {
          "indexed": false,
          "name": "precent",
          "type": "uint8"
        }
      ],
      "name": "CognitionProgressed",
      "type": "event"
    },
    {
      "anonymous": false,
      "inputs": [
        {
          "indexed": false,
          "name": "partialResult",
          "type": "bool"
        }
      ],
      "name": "CognitionCompleted",
      "type": "event"
    },
    {
      "anonymous": false,
      "inputs": [
        {
          "indexed": false,
          "name": "number",
          "type": "uint256"
        }
      ],
      "name": "Flag",
      "type": "event"
    },
    {
      "anonymous": false,
      "inputs": [
        {
          "indexed": false,
          "name": "oldState",
          "type": "uint8"
        },
        {
          "indexed": false,
          "name": "newState",
          "type": "uint8"
        }
      ],
      "name": "StateChanged",
      "type": "event"
    },
    {
      "anonymous": false,
      "inputs": [
        {
          "indexed": true,
          "name": "previousOwner",
          "type": "address"
        },
        {
          "indexed": true,
          "name": "newOwner",
          "type": "address"
        }
      ],
      "name": "OwnershipTransferred",
      "type": "event"
    },
    {
      "constant": false,
      "inputs": [],
      "name": "ipfsResultsCount",
      "outputs": [
        {
          "name": "count",
          "type": "uint256"
        }
      ],
      "payable": false,
      "stateMutability": "nonpayable",
      "type": "function"
    },
    {
      "constant": false,
      "inputs": [],
      "name": "initialize",
      "outputs": [],
      "payable": false,
      "stateMutability": "nonpayable",
      "type": "function"
    },
    {
      "constant": false,
      "inputs": [
        {
          "name": "_reportedWorker",
          "type": "address"
        }
      ],
      "name": "reportOfflineWorker",
      "outputs": [],
      "payable": true,
      "stateMutability": "payable",
      "type": "function"
    },
    {
      "constant": false,
      "inputs": [
        {
          "name": "_acceptanceFlag",
          "type": "bool"
        }
      ],
      "name": "gatheringWorkersResponse",
      "outputs": [],
      "payable": false,
      "stateMutability": "nonpayable",
      "type": "function"
    },
    {
      "constant": false,
      "inputs": [
        {
          "name": "_response",
          "type": "uint8"
        }
      ],
      "name": "dataValidationResponse",
      "outputs": [],
      "payable": false,
      "stateMutability": "nonpayable",
      "type": "function"
    },
    {
      "constant": false,
      "inputs": [
        {
          "name": "percent",
          "type": "uint8"
        }
      ],
      "name": "commitProgress",
      "outputs": [],
      "payable": false,
      "stateMutability": "nonpayable",
      "type": "function"
    },
    {
      "constant": false,
      "inputs": [
        {
          "name": "_ipfsResults",
          "type": "bytes"
        }
      ],
      "name": "completeWork",
      "outputs": [],
      "payable": false,
      "stateMutability": "nonpayable",
      "type": "function"
    },
    {
      "constant": true,
      "inputs": [],
      "name": "activeWorkersCount",
      "outputs": [
        {
          "name": "",
          "type": "uint256"
        }
      ],
      "payable": false,
      "stateMutability": "view",
      "type": "function"
    },
    {
      "constant": true,
      "inputs": [
        {
          "name": "no",
          "type": "uint256"
        }
      ],
      "name": "didWorkerCompute",
      "outputs": [
        {
          "name": "",
          "type": "bool"
        }
      ],
      "payable": false,
      "stateMutability": "view",
      "type": "function"
    }
  ],
  "bytecode": "0x60806040526000601a60006101000a81548160ff021916908360ff1602179055503480156200002d57600080fd5b5060405162003cd138038062003cd183398101806040528101908080519060200190929190805190602001909291908051906020019092919080518201929190505050336000806101000a81548173ffffffffffffffffffffffffffffffffffffffff021916908373ffffffffffffffffffffffffffffffffffffffff1602179055508173ffffffffffffffffffffffffffffffffffffffff166387ea09616040518163ffffffff167c0100000000000000000000000000000000000000000000000000000000028152600401602060405180830381600087803b1580156200011557600080fd5b505af11580156200012a573d6000803e3d6000fd5b505050506040513d60208110156200014157600080fd5b810190808051906020019092919050505060ff1660128190555060006012541115156200016d57600080fd5b6012548151101515156200018057600080fd5b600073ffffffffffffffffffffffffffffffffffffffff168473ffffffffffffffffffffffffffffffffffffffff1614151515620001bd57600080fd5b600073ffffffffffffffffffffffffffffffffffffffff168373ffffffffffffffffffffffffffffffffffffffff1614151515620001fa57600080fd5b600073ffffffffffffffffffffffffffffffffffffffff168273ffffffffffffffffffffffffffffffffffffffff16141515156200023757600080fd5b83600f60006101000a81548173ffffffffffffffffffffffffffffffffffffffff021916908373ffffffffffffffffffffffffffffffffffffffff16021790555082601060006101000a81548173ffffffffffffffffffffffffffffffffffffffff021916908373ffffffffffffffffffffffffffffffffffffffff16021790555081601160006101000a81548173ffffffffffffffffffffffffffffffffffffffff021916908373ffffffffffffffffffffffffffffffffffffffff16021790555080601790805190602001906200031292919062000684565b506200032c62000336640100000000026401000000009004565b5050505062000996565b6000600d6001019050602060405190810160405280600160ff1660ff168152508160008060ff1660ff1681526020019081526020016000209060016200037e92919062000713565b506040805190810160405280600260ff1660ff168152602001600360ff1660ff16815250816000600160ff1660ff168152602001908152602001600020906002620003cb929190620007c1565b50606060405190810160405280600460ff1660ff168152602001600560ff1660ff168152602001600260ff1660ff16815250816000600360ff1660ff168152602001908152602001600020906003620004269291906200086f565b506040805190810160405280600760ff1660ff168152602001600660ff1660ff16815250816000600560ff1660ff16815260200190815260200160002090600262000473929190620007c1565b5062000492620004b4640100000000026200314b176401000000009004565b6000600d60000160016101000a81548160ff021916908360ff16021790555050565b6040805190810160405280601181526020017f5f696e697453746174654d616368696e6500000000000000000000000000000081525060001515600c826040518082805190602001908083835b60208310151562000528578051825260208201915060208101905060208303925062000501565b6001836020036101000a038019825116818451168082178552505050505050905001915050908152602001604051809103902060009054906101000a900460ff1615151415156200057857600080fd5b62000598600d62000621640100000000026200329d176401000000009004565b6001600c826040518082805190602001908083835b602083101515620005d45780518252602082019150602081019050602083039250620005ad565b6001836020036101000a038019825116818451168082178552505050505050905001915050908152602001604051809103902060006101000a81548160ff02191690831515021790555050565b600015158160000160009054906101000a900460ff1615151415156200064657600080fd5b60018160000160016101000a81548160ff021916908360ff16021790555060018160000160006101000a81548160ff02191690831515021790555050565b82805482825590600052602060002090810192821562000700579160200282015b82811115620006ff5782518260006101000a81548173ffffffffffffffffffffffffffffffffffffffff021916908373ffffffffffffffffffffffffffffffffffffffff16021790555091602001919060010190620006a5565b5b5090506200070f91906200091d565b5090565b82805482825590600052602060002090601f01602090048101928215620007ae5791602002820160005b838211156200077d57835183826101000a81548160ff021916908360ff16021790555092602001926001016020816000010492830192600103026200073d565b8015620007ac5782816101000a81549060ff02191690556001016020816000010492830192600103026200077d565b505b509050620007bd919062000963565b5090565b82805482825590600052602060002090601f016020900481019282156200085c5791602002820160005b838211156200082b57835183826101000a81548160ff021916908360ff1602179055509260200192600101602081600001049283019260010302620007eb565b80156200085a5782816101000a81549060ff02191690556001016020816000010492830192600103026200082b565b505b5090506200086b919062000963565b5090565b82805482825590600052602060002090601f016020900481019282156200090a5791602002820160005b83821115620008d957835183826101000a81548160ff021916908360ff160217905550926020019260010160208160000104928301926001030262000899565b8015620009085782816101000a81549060ff0219169055600101602081600001049283019260010302620008d9565b505b50905062000919919062000963565b5090565b6200096091905b808211156200095c57600081816101000a81549073ffffffffffffffffffffffffffffffffffffffff02191690555060010162000924565b5090565b90565b6200099391905b808211156200098f57600081816101000a81549060ff0219169055506001016200096a565b5090565b90565b61332b80620009a66000396000f3006080604052600436106101ac576000357c0100000000000000000000000000000000000000000000000000000000900463ffffffff168063026d49ea146101b157806302b728ab146101e25780630c3f6acf146102395780630fb03aad1461026a5780631590d658146103105780631a0bc596146103415780631c72fad41461039857806321514ef3146103c957806323d55473146103fa57806340a030a2146104255780634804b4ba146104505780634e6b42a81461047b578063577bd336146104b657806358909400146104e75780635cb045db146105545780635e4059671461058557806364d3414c146105f25780636936087d146106215780637284e416146106515780638080be77146106845780638129fc1c146106af57806383197ef0146106c65780638da5cb5b146106dd578063b225be4214610734578063c36b33b014610764578063cbd315ae14610795578063cc0e82c1146107c6578063cfdf677e146107f7578063d4aae0c414610822578063d6ccdca314610879578063d94c69aa146108be578063e06452d0146108f4578063f2fde38b14610925578063f5074f4114610968575b600080fd5b3480156101bd57600080fd5b506101c66109ab565b604051808260ff1660ff16815260200191505060405180910390f35b3480156101ee57600080fd5b506101f76109b0565b604051808273ffffffffffffffffffffffffffffffffffffffff1673ffffffffffffffffffffffffffffffffffffffff16815260200191505060405180910390f35b34801561024557600080fd5b5061024e6109d6565b604051808260ff1660ff16815260200191505060405180910390f35b34801561027657600080fd5b50610295600480360381019080803590602001909291905050506109f0565b6040518080602001828103825283818151815260200191508051906020019080838360005b838110156102d55780820151818401526020810190506102ba565b50505050905090810190601f1680156103025780820380516001836020036101000a031916815260200191505b509250505060405180910390f35b34801561031c57600080fd5b50610325610aab565b604051808260ff1660ff16815260200191505060405180910390f35b34801561034d57600080fd5b50610356610ab0565b604051808273ffffffffffffffffffffffffffffffffffffffff1673ffffffffffffffffffffffffffffffffffffffff16815260200191505060405180910390f35b3480156103a457600080fd5b506103ad610ad6565b604051808260ff1660ff16815260200191505060405180910390f35b3480156103d557600080fd5b506103de610adb565b604051808260ff1660ff16815260200191505060405180910390f35b34801561040657600080fd5b5061040f610ae0565b6040518082815260200191505060405180910390f35b34801561043157600080fd5b5061043a610ae6565b6040518082815260200191505060405180910390f35b34801561045c57600080fd5b50610465610af3565b6040518082815260200191505060405180910390f35b34801561048757600080fd5b506104b4600480360381019080803590602001908201803590602001919091929391929390505050610b00565b005b3480156104c257600080fd5b506104cb610d00565b604051808260ff1660ff16815260200191505060405180910390f35b3480156104f357600080fd5b5061051260048036038101908080359060200190929190505050610d13565b604051808273ffffffffffffffffffffffffffffffffffffffff1673ffffffffffffffffffffffffffffffffffffffff16815260200191505060405180910390f35b34801561056057600080fd5b50610569610d51565b604051808260ff1660ff16815260200191505060405180910390f35b34801561059157600080fd5b506105b060048036038101908080359060200190929190505050610d56565b604051808273ffffffffffffffffffffffffffffffffffffffff1673ffffffffffffffffffffffffffffffffffffffff16815260200191505060405180910390f35b3480156105fe57600080fd5b5061061f600480360381019080803515159060200190929190505050610d94565b005b34801561062d57600080fd5b5061064f600480360381019080803560ff169060200190929190505050610f29565b005b34801561065d57600080fd5b50610666611088565b60405180826000191660001916815260200191505060405180910390f35b34801561069057600080fd5b5061069961108e565b6040518082815260200191505060405180910390f35b3480156106bb57600080fd5b506106c4611094565b005b3480156106d257600080fd5b506106db611591565b005b3480156106e957600080fd5b506106f2611626565b604051808273ffffffffffffffffffffffffffffffffffffffff1673ffffffffffffffffffffffffffffffffffffffff16815260200191505060405180910390f35b34801561074057600080fd5b50610762600480360381019080803560ff16906020019092919050505061164b565b005b34801561077057600080fd5b506107796117fe565b604051808260ff1660ff16815260200191505060405180910390f35b3480156107a157600080fd5b506107aa611803565b604051808260ff1660ff16815260200191505060405180910390f35b3480156107d257600080fd5b506107db611808565b604051808260ff1660ff16815260200191505060405180910390f35b34801561080357600080fd5b5061080c61180d565b6040518082815260200191505060405180910390f35b34801561082e57600080fd5b50610837611813565b604051808273ffffffffffffffffffffffffffffffffffffffff1673ffffffffffffffffffffffffffffffffffffffff16815260200191505060405180910390f35b34801561088557600080fd5b506108a460048036038101908080359060200190929190505050611839565b604051808215151515815260200191505060405180910390f35b6108f2600480360381019080803573ffffffffffffffffffffffffffffffffffffffff169060200190929190505050611878565b005b34801561090057600080fd5b5061090961191c565b604051808260ff1660ff16815260200191505060405180910390f35b34801561093157600080fd5b50610966600480360381019080803573ffffffffffffffffffffffffffffffffffffffff169060200190929190505050611921565b005b34801561097457600080fd5b506109a9600480360381019080803573ffffffffffffffffffffffffffffffffffffffff169060200190929190505050611a76565b005b600681565b601160009054906101000a900473ffffffffffffffffffffffffffffffffffffffff1681565b6000600d60000160019054906101000a900460ff16905090565b601b818154811015156109ff57fe5b906000526020600020016000915090508054600181600116156101000203166002900480601f016020809104026020016040519081016040528092919081815260200182805460018160011615610100020316600290048015610aa35780601f10610a7857610100808354040283529160200191610aa3565b820191906000526020600020905b815481529060010190602001808311610a8657829003601f168201915b505050505081565b600581565b600f60009054906101000a900473ffffffffffffffffffffffffffffffffffffffff1681565b600081565b600181565b60135481565b6000601b80549050905090565b6000601680549050905090565b600080610b0b611aea565b509050600073ffffffffffffffffffffffffffffffffffffffff168173ffffffffffffffffffffffffffffffffffffffff1614151515610b4a57600080fd5b8073ffffffffffffffffffffffffffffffffffffffff163373ffffffffffffffffffffffffffffffffffffffff16141515610b8457600080fd5b8073ffffffffffffffffffffffffffffffffffffffff16638da5cb5b6040518163ffffffff167c0100000000000000000000000000000000000000000000000000000000028152600401602060405180830381600087803b158015610be857600080fd5b505af1158015610bfc573d6000803e3d6000fd5b505050506040513d6020811015610c1257600080fd5b810190808051906020019092919050505073ffffffffffffffffffffffffffffffffffffffff163273ffffffffffffffffffffffffffffffffffffffff16141515610c5c57600080fd5b610c64611aea565b9250508383601b84815481101515610c7857fe5b906000526020600020019190610c8f929190612c82565b506001601983815481101515610ca157fe5b90600052602060002090602091828204019190066101000a81548160ff02191690831515021790555042601883815481101515610cda57fe5b9060005260206000200181905550610cf0611b72565b610cfa6007611de3565b50505050565b601a60009054906101000a900460ff1681565b601681815481101515610d2257fe5b906000526020600020016000915054906101000a900473ffffffffffffffffffffffffffffffffffffffff1681565b600481565b601781815481101515610d6557fe5b906000526020600020016000915054906101000a900473ffffffffffffffffffffffffffffffffffffffff1681565b6000610d9e611aea565b509050600073ffffffffffffffffffffffffffffffffffffffff168173ffffffffffffffffffffffffffffffffffffffff1614151515610ddd57600080fd5b8073ffffffffffffffffffffffffffffffffffffffff163373ffffffffffffffffffffffffffffffffffffffff16141515610e1757600080fd5b8073ffffffffffffffffffffffffffffffffffffffff16638da5cb5b6040518163ffffffff167c0100000000000000000000000000000000000000000000000000000000028152600401602060405180830381600087803b158015610e7b57600080fd5b505af1158015610e8f573d6000803e3d6000fd5b505050506040513d6020811015610ea557600080fd5b810190808051906020019092919050505073ffffffffffffffffffffffffffffffffffffffff163273ffffffffffffffffffffffffffffffffffffffff16141515610eef57600080fd5b60018060ff16600d60000160019054906101000a900460ff1660ff16141515610f1757600080fd5b610f248360006003611f74565b505050565b6000610f33611aea565b509050600073ffffffffffffffffffffffffffffffffffffffff168173ffffffffffffffffffffffffffffffffffffffff1614151515610f7257600080fd5b8073ffffffffffffffffffffffffffffffffffffffff163373ffffffffffffffffffffffffffffffffffffffff16141515610fac57600080fd5b8073ffffffffffffffffffffffffffffffffffffffff16638da5cb5b6040518163ffffffff167c0100000000000000000000000000000000000000000000000000000000028152600401602060405180830381600087803b15801561101057600080fd5b505af1158015611024573d6000803e3d6000fd5b505050506040513d602081101561103a57600080fd5b810190808051906020019092919050505073ffffffffffffffffffffffffffffffffffffffff163273ffffffffffffffffffffffffffffffffffffffff1614151561108457600080fd5b5050565b60155481565b60145481565b60008060008060ff16600d60000160019054906101000a900460ff1660ff161415156110bf57600080fd5b60016000600d60000160019054906101000a900460ff1690506110ec82600d61213690919063ffffffff16565b60125460405190808252806020026020018201604052801561111d5781602001602082028038833980820191505090505b5060169080519060200190611133929190612d02565b506012546040519080825280602002602001820160405280156111655781602001602082028038833980820191505090505b506018908051906020019061117b929190612d8c565b506012546040519080825280602002602001820160405280156111ad5781602001602082028038833980820191505090505b50601990805190602001906111c3929190612dd9565b506012546040519080825280602002602001820160405280156111fa57816020015b60608152602001906001900390816111e55790505b50601b9080519060200190611210929190612e7f565b50600094505b6012548560ff16101561141457600060198660ff1681548110151561123757fe5b90600052602060002090602091828204019190066101000a81548160ff0219169083151502179055504260188660ff1681548110151561127357fe5b906000526020600020018190555060178560ff1681548110151561129357fe5b9060005260206000200160009054906101000a900473ffffffffffffffffffffffffffffffffffffffff1660168660ff168154811015156112d057fe5b9060005260206000200160006101000a81548173ffffffffffffffffffffffffffffffffffffffff021916908373ffffffffffffffffffffffffffffffffffffffff16021790555060168560ff1681548110151561132a57fe5b9060005260206000200160009054906101000a900473ffffffffffffffffffffffffffffffffffffffff1673ffffffffffffffffffffffffffffffffffffffff1663897399ae306040518263ffffffff167c0100000000000000000000000000000000000000000000000000000000028152600401808273ffffffffffffffffffffffffffffffffffffffff1673ffffffffffffffffffffffffffffffffffffffff168152602001915050600060405180830381600087803b1580156113ef57600080fd5b505af1158015611403573d6000803e3d6000fd5b505050508480600101955050611216565b8460ff1693505b6017805490508461ffff1610156114db576017808561ffff1681548110151561144057fe5b9060005260206000200160009054906101000a900473ffffffffffffffffffffffffffffffffffffffff1690806001815401808255809150509060018203906000526020600020016000909192909190916101000a81548173ffffffffffffffffffffffffffffffffffffffff021916908373ffffffffffffffffffffffffffffffffffffffff16021790555050838060010194505061141b565b7f7e0d09ae7160446fde9323338cdbe3e98cc2d5197108e8a3c5e037265288335d60405160405180910390a181600d60000160016101000a81548160ff021916908360ff1602179055507fe8a97ea87e4388fa22d496b95a8ed5ced6717f49790318de2b928aaf37a021d881600d60000160019054906101000a900460ff16604051808360ff1660ff1681526020018260ff1660ff1681526020019250505060405180910390a161158a612206565b5050505050565b6000809054906101000a900473ffffffffffffffffffffffffffffffffffffffff1673ffffffffffffffffffffffffffffffffffffffff163373ffffffffffffffffffffffffffffffffffffffff161415156115ec57600080fd5b6000809054906101000a900473ffffffffffffffffffffffffffffffffffffffff1673ffffffffffffffffffffffffffffffffffffffff16ff5b6000809054906101000a900473ffffffffffffffffffffffffffffffffffffffff1681565b6000611655611aea565b509050600073ffffffffffffffffffffffffffffffffffffffff168173ffffffffffffffffffffffffffffffffffffffff161415151561169457600080fd5b8073ffffffffffffffffffffffffffffffffffffffff163373ffffffffffffffffffffffffffffffffffffffff161415156116ce57600080fd5b8073ffffffffffffffffffffffffffffffffffffffff16638da5cb5b6040518163ffffffff167c0100000000000000000000000000000000000000000000000000000000028152600401602060405180830381600087803b15801561173257600080fd5b505af1158015611746573d6000803e3d6000fd5b505050506040513d602081101561175c57600080fd5b810190808051906020019092919050505073ffffffffffffffffffffffffffffffffffffffff163273ffffffffffffffffffffffffffffffffffffffff161415156117a657600080fd5b6002808111156117b257fe5b8260028111156117be57fe5b14156117d3576117ce600461251f565b6117fa565b6117f9600060028111156117e357fe5b8360028111156117ef57fe5b1460016005611f74565b5b5050565b600281565b600381565b60ff81565b60125481565b601060009054906101000a900473ffffffffffffffffffffffffffffffffffffffff1681565b60006001151560198381548110151561184e57fe5b90600052602060002090602091828204019190069054906101000a900460ff161515149050919050565b6000600160ff16600d60000160019054906101000a900460ff1660ff1614806118b95750600360ff16600d60000160019054906101000a900460ff1660ff16145b806118dc5750600560ff16600d60000160019054906101000a900460ff1660ff16145b15156118e757600080fd5b6118f0826125d3565b905061070860188281548110151561190457fe5b906000526020600020505050611918611b72565b5050565b600781565b6000809054906101000a900473ffffffffffffffffffffffffffffffffffffffff1673ffffffffffffffffffffffffffffffffffffffff163373ffffffffffffffffffffffffffffffffffffffff1614151561197c57600080fd5b600073ffffffffffffffffffffffffffffffffffffffff168173ffffffffffffffffffffffffffffffffffffffff16141515156119b857600080fd5b8073ffffffffffffffffffffffffffffffffffffffff166000809054906101000a900473ffffffffffffffffffffffffffffffffffffffff1673ffffffffffffffffffffffffffffffffffffffff167f8be0079c531659141344cd1fd0a4f28419497f9722a3daafe3b4186f6b6457e060405160405180910390a3806000806101000a81548173ffffffffffffffffffffffffffffffffffffffff021916908373ffffffffffffffffffffffffffffffffffffffff16021790555050565b6000809054906101000a900473ffffffffffffffffffffffffffffffffffffffff1673ffffffffffffffffffffffffffffffffffffffff163373ffffffffffffffffffffffffffffffffffffffff16141515611ad157600080fd5b8073ffffffffffffffffffffffffffffffffffffffff16ff5b600080611af6336125d3565b9050601680549050811115611b315760007fffffffffffffffffffffffffffffffffffffffffffffffffffffffffffffffff91509150611b6e565b601681815481101515611b4057fe5b9060005260206000200160009054906101000a900473ffffffffffffffffffffffffffffffffffffffff1691505b9091565b6000806000600160ff16600d60000160019054906101000a900460ff1660ff161480611bb65750600360ff16600d60000160019054906101000a900460ff1660ff16145b80611bd95750600560ff16600d60000160019054906101000a900460ff1660ff16145b1515611be457600080fd5b600092505b601880549050831015611dde57610708601884815481101515611c0857fe5b906000526020600020015442031115611dd157601683815481101515611c2a57fe5b9060005260206000200160009054906101000a900473ffffffffffffffffffffffffffffffffffffffff169150600160ff16600d60000160019054906101000a900460ff1660ff161415611c815760009050611cdc565b600360ff16600d60000160019054906101000a900460ff1660ff161415611cab5760029050611cdb565b600560ff16600d60000160019054906101000a900460ff1660ff161415611cd55760049050611cda565b600080fd5b5b5b600f60009054906101000a900473ffffffffffffffffffffffffffffffffffffffff1673ffffffffffffffffffffffffffffffffffffffff16635ef1777683836040518363ffffffff167c0100000000000000000000000000000000000000000000000000000000028152600401808373ffffffffffffffffffffffffffffffffffffffff1673ffffffffffffffffffffffffffffffffffffffff168152602001826004811115611d8957fe5b60ff16815260200192505050600060405180830381600087803b158015611daf57600080fd5b505af1158015611dc3573d6000803e3d6000fd5b50505050611dd083612694565b5b8280600101935050611be9565b505050565b600080600090505b601980549050811015611e465760011515601982815481101515611e0b57fe5b90600052602060002090602091828204019190069054906101000a900460ff161515141515611e3957611f6f565b8080600101915050611deb565b826000600d60000160019054906101000a900460ff169050611e7282600d61213690919063ffffffff16565b600093505b601880549050841015611ee9576000601985815481101515611e9557fe5b90600052602060002090602091828204019190066101000a81548160ff02191690831515021790555042601885815481101515611ece57fe5b90600052602060002001819055508380600101945050611e77565b81600d60000160016101000a81548160ff021916908360ff1602179055507fe8a97ea87e4388fa22d496b95a8ed5ced6717f49790318de2b928aaf37a021d881600d60000160019054906101000a900460ff16604051808360ff1660ff1681526020018260ff1660ff1681526020019250505060405180910390a1611f6c612206565b50505b505050565b600080611f7f611aea565b91509150600073ffffffffffffffffffffffffffffffffffffffff168273ffffffffffffffffffffffffffffffffffffffff1614151515611fbf57600080fd5b6000151585151514156120c557611fd581612694565b600f60009054906101000a900473ffffffffffffffffffffffffffffffffffffffff1673ffffffffffffffffffffffffffffffffffffffff16635ef1777683866040518363ffffffff167c0100000000000000000000000000000000000000000000000000000000028152600401808373ffffffffffffffffffffffffffffffffffffffff1673ffffffffffffffffffffffffffffffffffffffff16815260200182600481111561208257fe5b60ff16815260200192505050600060405180830381600087803b1580156120a857600080fd5b505af11580156120bc573d6000803e3d6000fd5b5050505061212f565b60016019828154811015156120d657fe5b90600052602060002090602091828204019190066101000a81548160ff0219169083151502179055504260188281548110151561210f57fe5b9060005260206000200181905550612125611b72565b61212e83611de3565b5b5050505050565b600080600060ff8560000160019054906101000a900460ff1660ff161415151561215c57fe5b600092508460010160008660000160019054906101000a900460ff1660ff1660ff1681526020019081526020016000209150600090505b81805490508110156121ec578360ff1682828154811015156121b157fe5b90600052602060002090602091828204019190069054906101000a900460ff1660ff1614156121df57600192505b8080600101915050612193565b600115158315151415156121ff57600080fd5b5050505050565b600260ff166122136109d6565b60ff161415612255577f5f64b01e798e22b7b006309d50c085491c227a74e9cf11a922528b0d9a414de460405160405180910390a1612250612a0d565b61251d565b600360ff166122626109d6565b60ff16141561229c577f2d9c6af01e1c3857ef5720b6226a3b900b0db1a5a9430c53d8a35b4fccf2015560405160405180910390a161251c565b600460ff166122a96109d6565b60ff1614156122eb577f75be0ccc76f667c80f1c9ab66fafe78bd732b900403eb3f0da135c085955deca60405160405180910390a16122e6612a0d565b61251b565b600560ff166122f86109d6565b60ff161415612332577f51273f7efcba23797f509c81f07b426c6b9cdbee92a6a40389a405d0152178c960405160405180910390a161251a565b600660ff1661233f6109d6565b60ff161415612427577ff8d8e42e26bfacf74ecaff47cd43fa79d51c74d3a979d58521d12f369ad2bf7b6001604051808215151515815260200191505060405180910390a1600f60009054906101000a900473ffffffffffffffffffffffffffffffffffffffff1673ffffffffffffffffffffffffffffffffffffffff1663171317516040518163ffffffff167c0100000000000000000000000000000000000000000000000000000000028152600401600060405180830381600087803b15801561240a57600080fd5b505af115801561241e573d6000803e3d6000fd5b50505050612519565b600760ff166124346109d6565b60ff161415612518577ff8d8e42e26bfacf74ecaff47cd43fa79d51c74d3a979d58521d12f369ad2bf7b6000604051808215151515815260200191505060405180910390a1600f60009054906101000a900473ffffffffffffffffffffffffffffffffffffffff1673ffffffffffffffffffffffffffffffffffffffff1663171317516040518163ffffffff167c0100000000000000000000000000000000000000000000000000000000028152600401600060405180830381600087803b1580156124ff57600080fd5b505af1158015612513573d6000803e3d6000fd5b505050505b5b5b5b5b5b565b806000600d60000160019054906101000a900460ff16905061254b82600d61213690919063ffffffff16565b81600d60000160016101000a81548160ff021916908360ff1602179055507fe8a97ea87e4388fa22d496b95a8ed5ced6717f49790318de2b928aaf37a021d881600d60000160019054906101000a900460ff16604051808360ff1660ff1681526020018260ff1660ff1681526020019250505060405180910390a16125ce612206565b505050565b600080600090505b60168054905081101561266a576016818154811015156125f757fe5b9060005260206000200160009054906101000a900473ffffffffffffffffffffffffffffffffffffffff1673ffffffffffffffffffffffffffffffffffffffff163373ffffffffffffffffffffffffffffffffffffffff16141561265d5780915061268e565b80806001019150506125db565b7fffffffffffffffffffffffffffffffffffffffffffffffffffffffffffffffff91505b50919050565b6000600360056126b08282600d612a5f9092919063ffffffff16565b5b600060178054905014156126cc576126c7612b01565b612a07565b60176001601780549050038154811015156126e357fe5b9060005260206000200160009054906101000a900473ffffffffffffffffffffffffffffffffffffffff1692506001601780549050036017816127269190612edf565b508273ffffffffffffffffffffffffffffffffffffffff1663ae897c556040518163ffffffff167c0100000000000000000000000000000000000000000000000000000000028152600401602060405180830381600087803b15801561278b57600080fd5b505af115801561279f573d6000803e3d6000fd5b505050506040513d60208110156127b557600080fd5b810190808051906020019092919050505060ff168373ffffffffffffffffffffffffffffffffffffffff16630c3f6acf6040518163ffffffff167c0100000000000000000000000000000000000000000000000000000000028152600401602060405180830381600087803b15801561282d57600080fd5b505af1158015612841573d6000803e3d6000fd5b505050506040513d602081101561285757600080fd5b810190808051906020019092919050505060ff16141515612877576126b1565b600060198581548110151561288857fe5b90600052602060002090602091828204019190066101000a81548160ff021916908315150217905550426018858154811015156128c157fe5b9060005260206000200181905550826016858154811015156128df57fe5b9060005260206000200160006101000a81548173ffffffffffffffffffffffffffffffffffffffff021916908373ffffffffffffffffffffffffffffffffffffffff1602179055508273ffffffffffffffffffffffffffffffffffffffff1663897399ae306040518263ffffffff167c0100000000000000000000000000000000000000000000000000000000028152600401808273ffffffffffffffffffffffffffffffffffffffff1673ffffffffffffffffffffffffffffffffffffffff168152602001915050600060405180830381600087803b1580156129c257600080fd5b505af11580156129d6573d6000803e3d6000fd5b505050507f7e0d09ae7160446fde9323338cdbe3e98cc2d5197108e8a3c5e037265288335d60405160405180910390a15b50505050565b6000601781612a1c9190612edf565b506000601681612a2c9190612edf565b506000601b81612a3c9190612f0b565b506000601981612a4c9190612f37565b506000601881612a5c9190612f71565b50565b6000612a69612f9d565b600080925060408051908101604052808660ff1660ff1681526020018560ff1660ff168152509150600090505b6002811015612ae6578560000160019054906101000a900460ff1660ff168282600281101515612ac257fe5b602002015160ff161415612ad95760019250612ae6565b8080600101915050612a96565b60011515831515141515612af957600080fd5b505050505050565b6000600160ff16600d60000160019054906101000a900460ff1660ff161480612b425750600360ff16600d60000160019054906101000a900460ff1660ff16145b80612b655750600560ff16600d60000160019054906101000a900460ff1660ff16145b1515612b7057600080fd5b600090505b601680549050811015612c4457601681815481101515612b9157fe5b9060005260206000200160009054906101000a900473ffffffffffffffffffffffffffffffffffffffff1673ffffffffffffffffffffffffffffffffffffffff1663b07c74756040518163ffffffff167c0100000000000000000000000000000000000000000000000000000000028152600401600060405180830381600087803b158015612c1f57600080fd5b505af1158015612c33573d6000803e3d6000fd5b505050508080600101915050612b75565b600560ff16600d60000160019054906101000a900460ff1660ff161415612c7457612c6f600661251f565b612c7f565b612c7e600261251f565b5b50565b828054600181600116156101000203166002900490600052602060002090601f016020900481019282601f10612cc357803560ff1916838001178555612cf1565b82800160010185558215612cf1579182015b82811115612cf0578235825591602001919060010190612cd5565b5b509050612cfe9190612fbf565b5090565b828054828255906000526020600020908101928215612d7b579160200282015b82811115612d7a5782518260006101000a81548173ffffffffffffffffffffffffffffffffffffffff021916908373ffffffffffffffffffffffffffffffffffffffff16021790555091602001919060010190612d22565b5b509050612d889190612fe4565b5090565b828054828255906000526020600020908101928215612dc8579160200282015b82811115612dc7578251825591602001919060010190612dac565b5b509050612dd59190612fbf565b5090565b82805482825590600052602060002090601f01602090048101928215612e6e5791602002820160005b83821115612e3f57835183826101000a81548160ff0219169083151502179055509260200192600101602081600001049283019260010302612e02565b8015612e6c5782816101000a81549060ff0219169055600101602081600001049283019260010302612e3f565b505b509050612e7b9190613027565b5090565b828054828255906000526020600020908101928215612ece579160200282015b82811115612ecd578251829080519060200190612ebd929190613057565b5091602001919060010190612e9f565b5b509050612edb91906130d7565b5090565b815481835581811115612f0657818360005260206000209182019101612f059190612fbf565b5b505050565b815481835581811115612f3257818360005260206000209182019101612f3191906130d7565b5b505050565b815481835581811115612f6c57601f016020900481601f01602090048360005260206000209182019101612f6b9190612fbf565b5b505050565b815481835581811115612f9857818360005260206000209182019101612f979190612fbf565b5b505050565b6040805190810160405280600290602082028038833980820191505090505090565b612fe191905b80821115612fdd576000816000905550600101612fc5565b5090565b90565b61302491905b8082111561302057600081816101000a81549073ffffffffffffffffffffffffffffffffffffffff021916905550600101612fea565b5090565b90565b61305491905b8082111561305057600081816101000a81549060ff02191690555060010161302d565b5090565b90565b828054600181600116156101000203166002900490600052602060002090601f016020900481019282601f1061309857805160ff19168380011785556130c6565b828001600101855582156130c6579182015b828111156130c55782518255916020019190600101906130aa565b5b5090506130d39190612fbf565b5090565b61310091905b808211156130fc57600081816130f39190613103565b506001016130dd565b5090565b90565b50805460018160011615610100020316600290046000825580601f106131295750613148565b601f0160209004906000526020600020908101906131479190612fbf565b5b50565b6040805190810160405280601181526020017f5f696e697453746174654d616368696e6500000000000000000000000000000081525060001515600c826040518082805190602001908083835b6020831015156131bd5780518252602082019150602081019050602083039250613198565b6001836020036101000a038019825116818451168082178552505050505050905001915050908152602001604051809103902060009054906101000a900460ff16151514151561320c57600080fd5b613216600d61329d565b6001600c826040518082805190602001908083835b602083101515613250578051825260208201915060208101905060208303925061322b565b6001836020036101000a038019825116818451168082178552505050505050905001915050908152602001604051809103902060006101000a81548160ff02191690831515021790555050565b600015158160000160009054906101000a900460ff1615151415156132c157600080fd5b60018160000160016101000a81548160ff021916908360ff16021790555060018160000160006101000a81548160ff021916908315150217905550505600a165627a7a7230582004d0395f5707dc569d73e445d7cf932ac6835e6bae922b361ec37523829047940029",
  "source": "pragma solidity ^0.4.23;\n\nimport \"../libraries/StateMachine.sol\";\nimport \"./IComputingJob.sol\";\n\n/*\n\n */\n\ncontract CognitiveJob is IComputingJob, StateMachine /* final */ {\n\n    /**\n     * ## Main functionality\n     */\n\n    uint internal constant WORKER_TIMEOUT = 30 minutes;\n\n    IPandora public pandora;\n    IKernel public kernel;\n    IDataset public dataset;\n    uint256 public batches;\n    uint256 public complexity; //todo find better name\n    uint256 public jobType;\n    bytes32 public description;\n    IWorkerNode[] public activeWorkers;\n    IWorkerNode[] public workersPool;\n\n    uint256[] internal responseTimestamps;\n    bool[] internal responseFlags;\n\n    //TODO implement progress report\n    uint8 public progress = 0;\n    bytes[] public ipfsResults;\n\n    event WorkersUpdated();\n    event WorkersNotFound();\n    event DataValidationStarted();\n    event DataValidationFailed();\n    event CognitionStarted();\n    event CognitionProgressed(uint8 precent);\n    event CognitionCompleted(bool partialResult);\n\n    constructor(\n        IPandora _pandora,\n        IKernel _kernel,\n        IDataset _dataset,\n        IWorkerNode[] _workersPool\n    )\n    public {\n        batches = _dataset.batchesCount();\n        require(batches > 0);\n        require(_workersPool.length >= batches);\n        require(_pandora != address(0));\n        require(_kernel != address(0));\n        require(_dataset != address(0));\n\n        pandora = _pandora;\n        kernel = _kernel;\n        dataset = _dataset;\n        workersPool = _workersPool;\n\n        _initStateMachine();\n    }\n\n    modifier onlyPandora() {\n        require(msg.sender == address(pandora));\n        _;\n    }\n\n    modifier onlyActiveWorkers() {\n        var (workerNode,) = _getWorkerFromSender();\n        require(workerNode != IWorkerNode(0));\n        require(msg.sender == address(workerNode));\n        require(tx.origin == workerNode.owner());\n        _;\n    }\n\n    modifier checkReadiness() {\n        for (uint256 no = 0; no < responseFlags.length; no++) {\n            if (responseFlags[no] != true) {\n                return;\n            }\n        }\n        _;\n    }\n\n    function _getWorkerIndex(IWorkerNode _worker) private view returns (uint256) {\n        for (uint256 index = 0; index < activeWorkers.length; index++) {\n            if (msg.sender == address(activeWorkers[index])) {\n                return index;\n            }\n        }\n        return uint256(-1);\n    }\n\n    function ipfsResultsCount() public returns (uint256 count) {\n        count = ipfsResults.length;\n    }\n\n    function _getWorkerFromSender() private view returns (IWorkerNode o_workerNode, uint256 o_workerIndex) {\n        o_workerIndex = _getWorkerIndex(IWorkerNode(msg.sender));\n        if (o_workerIndex > activeWorkers.length) {\n            return (IWorkerNode(0), uint256(-1));\n        }\n        o_workerNode = activeWorkers[o_workerIndex];\n    }\n\n    function _replaceWorker(uint256 workerIndex) private requireStates2(DataValidation, Cognition) {\n        IWorkerNode replacementWorker;\n        do {\n            if (workersPool.length == 0) {\n                _insufficientWorkers();\n                return;\n            }\n            replacementWorker = workersPool[workersPool.length - 1];\n            workersPool.length = workersPool.length - 1;\n        } while (replacementWorker.currentState() != replacementWorker.Idle());\n\n        responseFlags[workerIndex] = false; // no response is given from the new worker yet\n        responseTimestamps[workerIndex] = block.timestamp;\n        activeWorkers[workerIndex] = replacementWorker;\n        replacementWorker.assignJob(this);\n        emit WorkersUpdated();\n    }\n\n    function _insufficientWorkers() private requireActiveStates {\n        for (uint no = 0; no < activeWorkers.length; no++) {\n            activeWorkers[no].cancelJob();\n        }\n\n        if (stateMachine.currentState == Cognition) {\n            _transitionToState(PartialResult);\n        } else {\n            _transitionToState(InsufficientWorkers);\n        }\n    }\n\n    function _cleanStorage() private {\n        workersPool.length = 0;\n        activeWorkers.length = 0;\n        ipfsResults.length = 0;\n        responseFlags.length = 0;\n        responseTimestamps.length = 0;\n    }\n\n    function _trackOfflineWorkers() private requireActiveStates {\n        for (uint256 no = 0; no < responseTimestamps.length; no++) {\n            if (block.timestamp - responseTimestamps[no] > WORKER_TIMEOUT) {\n                IWorkerNode guiltyWorker = activeWorkers[no];\n                IWorkerNode.Penalties penalty;\n                if (stateMachine.currentState == GatheringWorkers) {\n                    penalty = IWorkerNode.Penalties.OfflineWhileGathering;\n                } else if (stateMachine.currentState == DataValidation) {\n                    penalty = IWorkerNode.Penalties.OfflineWhileDataValidation;\n                } else if (stateMachine.currentState == Cognition) {\n                    penalty = IWorkerNode.Penalties.OfflineWhileCognition;\n                } else {\n                    revert();// This should not happen due to requireActiveStates function modifier\n                }\n                pandora.penaltizeWorkerNode(guiltyWorker, penalty);\n                _replaceWorker(no);\n            }\n        }\n    }\n\n    function _transitionToState(uint8 _newState) private transitionToState(_newState) {\n        // All actual work is performed by function modifier transitionToState\n    }\n\n\n    function _transitionIfReady(uint8 _newState) private checkReadiness transitionToState(_newState) {\n        for (uint256 no = 0; no < responseTimestamps.length; no++) {\n            responseFlags[no] = false;  // no response or update is given yet\n            responseTimestamps[no] = block.timestamp;\n        }\n    }\n\n    function _processWorkerResponse(bool _acceptanceFlag, IWorkerNode.Penalties _penaltyForDecline, uint8 _nextState) private {\n        var (reportingWorker, workerIndex) = _getWorkerFromSender();\n        require(reportingWorker != IWorkerNode(0));\n\n        if (_acceptanceFlag == false) {\n            _replaceWorker(workerIndex);\n            pandora.penaltizeWorkerNode(reportingWorker, _penaltyForDecline);\n        } else {\n            responseFlags[workerIndex] = true;\n            responseTimestamps[workerIndex] = block.timestamp;\n            _trackOfflineWorkers();\n            _transitionIfReady(_nextState);\n        }\n    }\n\n    function initialize()\n    external\n// onlyPandora //removed for job queue proper work - TODO research and test consequences of removing modifier\n    requireState(Uninitialized)\n    transitionToState(GatheringWorkers) {\n        // Select initial worker\n        activeWorkers = new IWorkerNode[](batches);\n        responseTimestamps = new uint[](batches);\n        responseFlags = new bool[](batches);\n        ipfsResults = new bytes[](batches);\n        for (uint8 batch = 0; batch < batches; batch++) {\n            responseFlags[batch] = false; // no response is given yet\n            responseTimestamps[batch] = block.timestamp;\n            activeWorkers[batch] = workersPool[batch];\n            activeWorkers[batch].assignJob(this);\n        }\n        for (uint16 pool = batch; pool < workersPool.length; pool++) {\n            workersPool.push(workersPool[pool]);\n        }\n\n        emit WorkersUpdated();\n    }\n\n    /// @dev Main entry point for\n    /// (Witnessing worker nodes went offline)[https://github.com/pandoraboxchain/techspecs/wiki/Witnessing-worker-nodes-going-offline]\n    /// workflow\n    function reportOfflineWorker(IWorkerNode _reportedWorker)\n    payable\n    external\n    requireActiveStates {\n        /// @todo accept deposit\n        uint256 reportedIndex = _getWorkerIndex(_reportedWorker);\n        if (block.timestamp - responseTimestamps[reportedIndex] > WORKER_TIMEOUT) {\n            /// @todo pay reward and return deposit\n        }\n        _trackOfflineWorkers();\n    }\n\n    function gatheringWorkersResponse(bool _acceptanceFlag)\n    onlyActiveWorkers\n    requireState(GatheringWorkers)\n    external {\n        _processWorkerResponse(_acceptanceFlag, IWorkerNode.Penalties.OfflineWhileGathering, DataValidation);\n    }\n\n    function dataValidationResponse(DataValidationResponse _response)\n    onlyActiveWorkers\n    external {\n        /// @todo implement full (data arbitration alorithm)[https://github.com/pandoraboxchain/techspecs/wiki/Data-inconsistency-arbitration]\n        if (_response == DataValidationResponse.Invalid) {\n            _transitionToState(InvalidData);\n            return;\n        }\n        _processWorkerResponse(_response == DataValidationResponse.Accept, IWorkerNode.Penalties.DeclinesJob, Cognition);\n    }\n\n    function commitProgress(uint8 percent)\n    onlyActiveWorkers\n    external {\n        /// @todo Implement tracking progress of cognitive work\n        //CognitionProgressed(percent);\n    }\n\n    function completeWork(bytes _ipfsResults)\n    onlyActiveWorkers\n    external {\n        var (,workerIndex) = _getWorkerFromSender();\n        ipfsResults[workerIndex] = _ipfsResults;\n        responseFlags[workerIndex] = true;\n        responseTimestamps[workerIndex] = block.timestamp;\n        _trackOfflineWorkers();\n        _transitionIfReady(Completed);\n    }\n\n    function activeWorkersCount()\n    view\n    external\n    returns(uint256) {\n        return activeWorkers.length;\n    }\n\n    function didWorkerCompute(\n        uint no\n    )\n    view\n    external\n    returns(bool) {\n        return responseFlags[no] == true;\n    }\n\n    /**\n     * ## State Machine implementation\n     */\n\n    modifier requireActiveStates() {\n        require(\n            stateMachine.currentState == GatheringWorkers ||\n            stateMachine.currentState == DataValidation ||\n            stateMachine.currentState == Cognition\n        );\n        _;\n    }\n\n    function _initStateMachine() internal {\n        // Creating table of possible state transitions\n        var transitions = stateMachine.transitionTable;\n        transitions[Uninitialized] = [GatheringWorkers];\n        transitions[GatheringWorkers] = [InsufficientWorkers, DataValidation];\n        transitions[DataValidation] = [InvalidData, Cognition, InsufficientWorkers];\n        transitions[Cognition] = [Completed, PartialResult];\n\n        // Initializing state machine via base contract code\n        super._initStateMachine();\n\n        // Going into initial state (Uninitialized)\n        stateMachine.currentState = Uninitialized;\n    }\n\n    event Flag(uint number);\n\n    function _fireStateEvent() internal {\n        if (currentState() == InsufficientWorkers) {\n            emit WorkersNotFound();\n            _cleanStorage();\n        } else if (currentState() == DataValidation) {\n            emit DataValidationStarted();\n        } else if (currentState() == InvalidData) {\n            emit DataValidationFailed();\n            _cleanStorage();\n        } else if (currentState() == Cognition) {\n            emit CognitionStarted();\n        } else if (currentState() == PartialResult) {\n            emit CognitionCompleted(true);\n            pandora.finishCognitiveJob();\n        } else if (currentState() == Completed) {\n            emit CognitionCompleted(false);\n            pandora.finishCognitiveJob();\n        }\n    }\n}\n",
  "sourcePath": "/home/aleksei/projects/pandora/pandora-pyrrha/pyrrha-consensus/contracts/jobs/CognitiveJob.sol",
  "compiler": {
    "name": "solc",
    "version": "0.4.23+commit.124ca40d.Emscripten.clang"
  },
  "schemaVersion": "2.0.0",
  "updatedAt": "2018-06-14T23:47:32.427Z"
}