{
  "contractName": "CognitiveJobController",
  "abi": [
    {
      "constant": true,
      "inputs": [
        {
          "name": "",
          "type": "uint256"
        }
      ],
      "name": "completedJobs",
      "outputs": [
        {
          "name": "id",
          "type": "bytes32"
        },
        {
          "name": "kernel",
          "type": "address"
        },
        {
          "name": "dataset",
          "type": "address"
        },
        {
          "name": "complexity",
          "type": "uint256"
        },
        {
          "name": "description",
          "type": "bytes32"
        },
        {
          "name": "progress",
          "type": "uint8"
        },
        {
          "name": "state",
          "type": "uint8"
        }
      ],
      "payable": false,
      "stateMutability": "view",
      "type": "function"
    },
    {
      "constant": true,
      "inputs": [
        {
          "name": "",
          "type": "bytes32"
        }
      ],
      "name": "completedJobsIndexes",
      "outputs": [
        {
          "name": "",
          "type": "uint16"
        }
      ],
      "payable": false,
      "stateMutability": "view",
      "type": "function"
    },
    {
      "constant": true,
      "inputs": [
        {
          "name": "",
          "type": "bytes32"
        }
      ],
      "name": "activeJobsIndexes",
      "outputs": [
        {
          "name": "",
          "type": "uint16"
        }
      ],
      "payable": false,
      "stateMutability": "view",
      "type": "function"
    },
    {
      "constant": false,
      "inputs": [],
      "name": "renounceOwnership",
      "outputs": [],
      "payable": false,
      "stateMutability": "nonpayable",
      "type": "function"
    },
    {
      "constant": true,
      "inputs": [],
      "name": "owner",
      "outputs": [
        {
          "name": "",
          "type": "address"
        }
      ],
      "payable": false,
      "stateMutability": "view",
      "type": "function"
    },
    {
      "constant": true,
      "inputs": [
        {
          "name": "",
          "type": "uint8"
        },
        {
          "name": "",
          "type": "uint256"
        }
      ],
      "name": "transitionTable",
      "outputs": [
        {
          "name": "",
          "type": "uint8"
        }
      ],
      "payable": false,
      "stateMutability": "view",
      "type": "function"
    },
    {
      "constant": false,
      "inputs": [
        {
          "name": "_newOwner",
          "type": "address"
        }
      ],
      "name": "transferOwnership",
      "outputs": [],
      "payable": false,
      "stateMutability": "nonpayable",
      "type": "function"
    },
    {
      "inputs": [],
      "payable": false,
      "stateMutability": "nonpayable",
      "type": "constructor"
    },
    {
      "anonymous": false,
      "inputs": [
        {
          "indexed": true,
          "name": "jobId",
          "type": "bytes32"
        },
        {
          "indexed": false,
          "name": "oldState",
          "type": "uint8"
        },
        {
          "indexed": false,
          "name": "newState",
          "type": "uint8"
        }
      ],
      "name": "JobStateChanged",
      "type": "event"
    },
    {
      "anonymous": false,
      "inputs": [
        {
          "indexed": true,
          "name": "jobId",
          "type": "bytes32"
        }
      ],
      "name": "WorkersUpdated",
      "type": "event"
    },
    {
      "anonymous": false,
      "inputs": [
        {
          "indexed": true,
          "name": "jobId",
          "type": "bytes32"
        }
      ],
      "name": "WorkersNotFound",
      "type": "event"
    },
    {
      "anonymous": false,
      "inputs": [
        {
          "indexed": true,
          "name": "jobId",
          "type": "bytes32"
        }
      ],
      "name": "DataValidationStarted",
      "type": "event"
    },
    {
      "anonymous": false,
      "inputs": [
        {
          "indexed": true,
          "name": "jobId",
          "type": "bytes32"
        }
      ],
      "name": "DataValidationFailed",
      "type": "event"
    },
    {
      "anonymous": false,
      "inputs": [
        {
          "indexed": true,
          "name": "jobId",
          "type": "bytes32"
        }
      ],
      "name": "CognitionStarted",
      "type": "event"
    },
    {
      "anonymous": false,
      "inputs": [
        {
          "indexed": true,
          "name": "jobId",
          "type": "bytes32"
        },
        {
          "indexed": false,
          "name": "precent",
          "type": "uint8"
        }
      ],
      "name": "CognitionProgressed",
      "type": "event"
    },
    {
      "anonymous": false,
      "inputs": [
        {
          "indexed": true,
          "name": "jobId",
          "type": "bytes32"
        },
        {
          "indexed": false,
          "name": "partialResult",
          "type": "bool"
        }
      ],
      "name": "CognitionCompleted",
      "type": "event"
    },
    {
      "anonymous": false,
      "inputs": [
        {
          "indexed": true,
          "name": "previousOwner",
          "type": "address"
        }
      ],
      "name": "OwnershipRenounced",
      "type": "event"
    },
    {
      "anonymous": false,
      "inputs": [
        {
          "indexed": true,
          "name": "previousOwner",
          "type": "address"
        },
        {
          "indexed": true,
          "name": "newOwner",
          "type": "address"
        }
      ],
      "name": "OwnershipTransferred",
      "type": "event"
    },
    {
      "constant": true,
      "inputs": [],
      "name": "activeJobsCount",
      "outputs": [
        {
          "name": "",
          "type": "uint256"
        }
      ],
      "payable": false,
      "stateMutability": "view",
      "type": "function"
    },
    {
      "constant": true,
      "inputs": [],
      "name": "completedJobsCount",
      "outputs": [
        {
          "name": "",
          "type": "uint256"
        }
      ],
      "payable": false,
      "stateMutability": "view",
      "type": "function"
    },
    {
      "constant": true,
      "inputs": [
        {
          "name": "_index",
          "type": "uint16"
        },
        {
          "name": "_isActive",
          "type": "bool"
        }
      ],
      "name": "getJobId",
      "outputs": [
        {
          "name": "",
          "type": "bytes32"
        }
      ],
      "payable": false,
      "stateMutability": "view",
      "type": "function"
    },
    {
      "constant": true,
      "inputs": [
        {
          "name": "_jobId",
          "type": "bytes32"
        }
      ],
      "name": "getCognitiveJobDetails",
      "outputs": [
        {
          "name": "kernel",
          "type": "address"
        },
        {
          "name": "dataset",
          "type": "address"
        },
        {
          "name": "complexity",
          "type": "uint256"
        },
        {
          "name": "description",
          "type": "bytes32"
        },
        {
          "name": "activeWorkers",
          "type": "address[]"
        },
        {
          "name": "progress",
          "type": "uint8"
        },
        {
          "name": "state",
          "type": "uint8"
        }
      ],
      "payable": false,
      "stateMutability": "view",
      "type": "function"
    },
    {
      "constant": true,
      "inputs": [
        {
          "name": "_jobId",
          "type": "bytes32"
        },
        {
          "name": "_index",
          "type": "uint8"
        }
      ],
      "name": "getCognitiveJobResults",
      "outputs": [
        {
          "name": "ipfsResults",
          "type": "bytes"
        }
      ],
      "payable": false,
      "stateMutability": "view",
      "type": "function"
    },
    {
      "constant": true,
      "inputs": [
        {
          "name": "_jobId",
          "type": "bytes32"
        }
      ],
      "name": "getCognitiveJobServiceInfo",
      "outputs": [
        {
          "name": "responseTimestamps",
          "type": "uint32[]"
        },
        {
          "name": "responseFlags",
          "type": "bool[]"
        }
      ],
      "payable": false,
      "stateMutability": "view",
      "type": "function"
    },
    {
      "constant": false,
      "inputs": [
        {
          "name": "_id",
          "type": "bytes32"
        },
        {
          "name": "_kernel",
          "type": "address"
        },
        {
          "name": "_dataset",
          "type": "address"
        },
        {
          "name": "_assignedWorkers",
          "type": "address[]"
        },
        {
          "name": "_complexity",
          "type": "uint256"
        },
        {
          "name": "_description",
          "type": "bytes32"
        }
      ],
      "name": "createCognitiveJob",
      "outputs": [],
      "payable": false,
      "stateMutability": "nonpayable",
      "type": "function"
    },
    {
      "constant": false,
      "inputs": [
        {
          "name": "_jobId",
          "type": "bytes32"
        },
        {
          "name": "_workerId",
          "type": "address"
        },
        {
          "name": "_responseType",
          "type": "uint8"
        },
        {
          "name": "_response",
          "type": "bool"
        }
      ],
      "name": "respondToJob",
      "outputs": [
        {
          "name": "result",
          "type": "bool"
        }
      ],
      "payable": false,
      "stateMutability": "nonpayable",
      "type": "function"
    },
    {
      "constant": false,
      "inputs": [
        {
          "name": "_jobId",
          "type": "bytes32"
        },
        {
          "name": "_workerId",
          "type": "address"
        },
        {
          "name": "_percent",
          "type": "uint8"
        }
      ],
      "name": "commitProgress",
      "outputs": [],
      "payable": false,
      "stateMutability": "nonpayable",
      "type": "function"
    },
    {
      "constant": false,
      "inputs": [
        {
          "name": "_jobId",
          "type": "bytes32"
        },
        {
          "name": "_workerId",
          "type": "address"
        },
        {
          "name": "_ipfsResults",
          "type": "bytes"
        }
      ],
      "name": "completeWork",
      "outputs": [
        {
          "name": "result",
          "type": "bool"
        }
      ],
      "payable": false,
      "stateMutability": "nonpayable",
      "type": "function"
    }
  ],
  "bytecode": "0x60806040523480156200001157600080fd5b50336000806101000a81548173ffffffffffffffffffffffffffffffffffffffff021916908373ffffffffffffffffffffffffffffffffffffffff1602179055506200006b62000071640100000000026401000000009004565b6200047c565b600060059050602060405190810160405280600160088111156200009157fe5b60ff1660ff16815250816000806008811115620000aa57fe5b60ff1660ff168152602001908152602001600020906001620000ce9291906200023f565b50604080519081016040528060026008811115620000e857fe5b60ff1660ff168152602001600360088111156200010157fe5b60ff1660ff16815250816000600160088111156200011b57fe5b60ff1660ff1681526020019081526020016000209060026200013f929190620002ed565b50606060405190810160405280600460088111156200015a57fe5b60ff1660ff168152602001600560088111156200017357fe5b60ff1660ff168152602001600260088111156200018c57fe5b60ff1660ff1681525081600060036008811115620001a657fe5b60ff1660ff168152602001908152602001600020906003620001ca9291906200039b565b50604080519081016040528060076008811115620001e457fe5b60ff1660ff16815260200160066008811115620001fd57fe5b60ff1660ff16815250816000600560088111156200021757fe5b60ff1660ff1681526020019081526020016000209060026200023b929190620002ed565b5050565b82805482825590600052602060002090601f01602090048101928215620002da5791602002820160005b83821115620002a957835183826101000a81548160ff021916908360ff160217905550926020019260010160208160000104928301926001030262000269565b8015620002d85782816101000a81549060ff0219169055600101602081600001049283019260010302620002a9565b505b509050620002e9919062000449565b5090565b82805482825590600052602060002090601f01602090048101928215620003885791602002820160005b838211156200035757835183826101000a81548160ff021916908360ff160217905550926020019260010160208160000104928301926001030262000317565b8015620003865782816101000a81549060ff021916905560010160208160000104928301926001030262000357565b505b50905062000397919062000449565b5090565b82805482825590600052602060002090601f01602090048101928215620004365791602002820160005b838211156200040557835183826101000a81548160ff021916908360ff1602179055509260200192600101602081600001049283019260010302620003c5565b8015620004345782816101000a81549060ff021916905560010160208160000104928301926001030262000405565b505b50905062000445919062000449565b5090565b6200047991905b808211156200047557600081816101000a81549060ff02191690555060010162000450565b5090565b90565b613d79806200048c6000396000f3006080604052600436106100f1576000357c0100000000000000000000000000000000000000000000000000000000900463ffffffff1680631f9ca61d146100f65780632b4acd86146101d557806339d9de641461028c5780633b183eb5146103a857806347d9eee9146104295780634a1f8abc146104ca5780634e5613c3146105175780635c2b37fa14610599578063672d98d6146105c4578063715018a614610611578063752f4a9c146106285780638da5cb5b14610681578063ba0a9ef5146106d8578063c9b7b25b146107a6578063ead4d67914610804578063f21ee5c61461082f578063f2fde38b14610883575b600080fd5b34801561010257600080fd5b50610121600480360381019080803590602001909291905050506108c6565b6040518088600019166000191681526020018773ffffffffffffffffffffffffffffffffffffffff1673ffffffffffffffffffffffffffffffffffffffff1681526020018673ffffffffffffffffffffffffffffffffffffffff1673ffffffffffffffffffffffffffffffffffffffff16815260200185815260200184600019166000191681526020018360ff1660ff1681526020018260ff1660ff16815260200197505050505050505060405180910390f35b3480156101e157600080fd5b506102116004803603810190808035600019169060200190929190803560ff169060200190929190505050610971565b6040518080602001828103825283818151815260200191508051906020019080838360005b83811015610251578082015181840152602081019050610236565b50505050905090810190601f16801561027e5780820380516001836020036101000a031916815260200191505b509250505060405180910390f35b34801561029857600080fd5b506102bb6004803603810190808035600019169060200190929190505050610ae3565b604051808873ffffffffffffffffffffffffffffffffffffffff1673ffffffffffffffffffffffffffffffffffffffff1681526020018773ffffffffffffffffffffffffffffffffffffffff1673ffffffffffffffffffffffffffffffffffffffff1681526020018681526020018560001916600019168152602001806020018460ff1660ff1681526020018360ff1660ff168152602001828103825285818151815260200191508051906020019060200280838360005b8381101561038e578082015181840152602081019050610373565b505050509050019850505050505050505060405180910390f35b3480156103b457600080fd5b5061040f6004803603810190808035600019169060200190929190803573ffffffffffffffffffffffffffffffffffffffff169060200190929190803590602001908201803590602001919091929391929390505050610cb9565b604051808215151515815260200191505060405180910390f35b34801561043557600080fd5b506104c86004803603810190808035600019169060200190929190803573ffffffffffffffffffffffffffffffffffffffff169060200190929190803573ffffffffffffffffffffffffffffffffffffffff169060200190929190803590602001908201803590602001919091929391929390803590602001909291908035600019169060200190929190505050610e6b565b005b3480156104d657600080fd5b506104f96004803603810190808035600019169060200190929190505050611340565b604051808261ffff1661ffff16815260200191505060405180910390f35b34801561052357600080fd5b5061057f6004803603810190808035600019169060200190929190803573ffffffffffffffffffffffffffffffffffffffff169060200190929190803560ff169060200190929190803515159060200190929190505050611361565b604051808215151515815260200191505060405180910390f35b3480156105a557600080fd5b506105ae6114b2565b6040518082815260200191505060405180910390f35b3480156105d057600080fd5b506105f360048036038101908080356000191690602001909291905050506114bf565b604051808261ffff1661ffff16815260200191505060405180910390f35b34801561061d57600080fd5b506106266114e0565b005b34801561063457600080fd5b50610663600480360381019080803561ffff1690602001909291908035151590602001909291905050506115e2565b60405180826000191660001916815260200191505060405180910390f35b34801561068d57600080fd5b50610696611642565b604051808273ffffffffffffffffffffffffffffffffffffffff1673ffffffffffffffffffffffffffffffffffffffff16815260200191505060405180910390f35b3480156106e457600080fd5b506107076004803603810190808035600019169060200190929190505050611667565b604051808060200180602001838103835285818151815260200191508051906020019060200280838360005b8381101561074e578082015181840152602081019050610733565b50505050905001838103825284818151815260200191508051906020019060200280838360005b83811015610790578082015181840152602081019050610775565b5050505090500194505050505060405180910390f35b3480156107b257600080fd5b506108026004803603810190808035600019169060200190929190803573ffffffffffffffffffffffffffffffffffffffff169060200190929190803560ff16906020019092919050505061181b565b005b34801561081057600080fd5b50610819611a0b565b6040518082815260200191505060405180910390f35b34801561083b57600080fd5b50610867600480360381019080803560ff16906020019092919080359060200190929190505050611a18565b604051808260ff1660ff16815260200191505060405180910390f35b34801561088f57600080fd5b506108c4600480360381019080803573ffffffffffffffffffffffffffffffffffffffff169060200190929190505050611a5a565b005b6004818154811015156108d557fe5b90600052602060002090600a02016000915090508060000154908060010160009054906101000a900473ffffffffffffffffffffffffffffffffffffffff16908060020160009054906101000a900473ffffffffffffffffffffffffffffffffffffffff16908060030154908060040154908060090160009054906101000a900460ff16908060090160019054906101000a900460ff16905087565b6060600061097e84611ac1565b6109d4576004600160036000876000191660001916815260200190815260200160002060009054906101000a900461ffff160361ffff168154811015156109c157fe5b90600052602060002090600a0201610a21565b60026001806000876000191660001916815260200190815260200160002060009054906101000a900461ffff160361ffff16815481101515610a1257fe5b90600052602060002090600a02015b9050806006018360ff16815481101515610a3757fe5b906000526020600020018054600181600116156101000203166002900480601f016020809104026020016040519081016040528092919081815260200182805460018160011615610100020316600290048015610ad55780601f10610aaa57610100808354040283529160200191610ad5565b820191906000526020600020905b815481529060010190602001808311610ab857829003601f168201915b505050505091505092915050565b60008060008060606000806000610af989611ac1565b610b4f5760046001600360008c6000191660001916815260200190815260200160002060009054906101000a900461ffff160361ffff16815481101515610b3c57fe5b90600052602060002090600a0201610b9c565b600260018060008c6000191660001916815260200190815260200160002060009054906101000a900461ffff160361ffff16815481101515610b8d57fe5b90600052602060002090600a02015b90508060010160009054906101000a900473ffffffffffffffffffffffffffffffffffffffff1697508060020160009054906101000a900473ffffffffffffffffffffffffffffffffffffffff169650806003015495508060040154945080600501805480602002602001604051908101604052809291908181526020018280548015610c7e57602002820191906000526020600020905b8160009054906101000a900473ffffffffffffffffffffffffffffffffffffffff1673ffffffffffffffffffffffffffffffffffffffff1681526020019060010190808311610c34575b505050505093508060090160009054906101000a900460ff1692508060090160019054906101000a900460ff16915050919395979092949650565b6000808560056008811115610cca57fe5b8060ff1660026001806000866000191660001916815260200190815260200160002060009054906101000a900461ffff160361ffff16815481101515610d0c57fe5b90600052602060002090600a020160090160019054906101000a900460ff1660ff16141515610d3a57600080fd5b6000809054906101000a900473ffffffffffffffffffffffffffffffffffffffff1673ffffffffffffffffffffffffffffffffffffffff163373ffffffffffffffffffffffffffffffffffffffff16141515610d9557600080fd5b610d9f8888611b49565b92507fffffffffffffffffffffffffffffffffffffffffffffffffffffffffffffffff8314151515610dd057600080fd5b8585600260018060008d6000191660001916815260200190815260200160002060009054906101000a900461ffff160361ffff16815481101515610e1057fe5b90600052602060002090600a020160060185815481101515610e2e57fe5b906000526020600020019190610e4592919061368a565b50610e5e8888600280811115610e5757fe5b6001611c60565b9350505050949350505050565b6000806000809054906101000a900473ffffffffffffffffffffffffffffffffffffffff1673ffffffffffffffffffffffffffffffffffffffff163373ffffffffffffffffffffffffffffffffffffffff16141515610ec957600080fd5b7fffffffffffffffffffffffffffffffffffffffffffffffffffffffffffffffff61ffff16600280549050101515610f0057600080fd5b6002610160604051908101604052808b6000191681526020018a73ffffffffffffffffffffffffffffffffffffffff1681526020018973ffffffffffffffffffffffffffffffffffffffff16815260200186815260200185600019168152602001888880806020026020016040519081016040528093929190818152602001838360200280828437820191505050505050815260200188889050604051908082528060200260200182016040528015610fcd57816020015b6060815260200190600190039081610fb85790505b508152602001888890506040519080825280602002602001820160405280156110055781602001602082028038833980820191505090505b5081526020018888905060405190808252806020026020018201604052801561103d5781602001602082028038833980820191505090505b508152602001600060ff1681526020016000600881111561105a57fe5b60ff168152509080600181540180825580915050906001820390600052602060002090600a0201600090919290919091506000820151816000019060001916905560208201518160010160006101000a81548173ffffffffffffffffffffffffffffffffffffffff021916908373ffffffffffffffffffffffffffffffffffffffff16021790555060408201518160020160006101000a81548173ffffffffffffffffffffffffffffffffffffffff021916908373ffffffffffffffffffffffffffffffffffffffff160217905550606082015181600301556080820151816004019060001916905560a082015181600501908051906020019061115f92919061370a565b5060c082015181600601908051906020019061117c929190613794565b5060e08201518160070190805190602001906111999291906137f4565b506101008201518160080190805190602001906111b79291906138a4565b506101208201518160090160006101000a81548160ff021916908360ff1602179055506101408201518160090160016101000a81548160ff021916908360ff160217905550505050600280549050600160008b6000191660001916815260200190815260200160002060006101000a81548161ffff021916908361ffff160217905550600260018060008c6000191660001916815260200190815260200160002060009054906101000a900461ffff160361ffff1681548110151561127857fe5b90600052602060002090600a02019150600090505b81600701805490508110156112ee574282600701828154811015156112ae57fe5b90600052602060002090600891828204019190066004026101000a81548163ffffffff021916908363ffffffff160217905550808060010191505061128d565b61130489600160088111156112ff57fe5b611d49565b88600019167fcdd8e82457800d3241f19b61393a2bbceb40e44253685afc406b2bb489c84ad360405160405180910390a2505050505050505050565b60036020528060005260406000206000915054906101000a900461ffff1681565b600084600060026001806000856000191660001916815260200190815260200160002060009054906101000a900461ffff160361ffff168154811015156113a457fe5b90600052602060002090600a02019050600160088111156113c157fe5b60ff168160090160019054906101000a900460ff1660ff1614806114075750600360088111156113ed57fe5b60ff168160090160019054906101000a900460ff1660ff16145b8061143457506005600881111561141a57fe5b60ff168160090160019054906101000a900460ff1660ff16145b151561143f57600080fd5b6000809054906101000a900473ffffffffffffffffffffffffffffffffffffffff1673ffffffffffffffffffffffffffffffffffffffff163373ffffffffffffffffffffffffffffffffffffffff1614151561149a57600080fd5b6114a687878787611c60565b92505050949350505050565b6000600280549050905090565b60016020528060005260406000206000915054906101000a900461ffff1681565b6000809054906101000a900473ffffffffffffffffffffffffffffffffffffffff1673ffffffffffffffffffffffffffffffffffffffff163373ffffffffffffffffffffffffffffffffffffffff1614151561153b57600080fd5b6000809054906101000a900473ffffffffffffffffffffffffffffffffffffffff1673ffffffffffffffffffffffffffffffffffffffff167ff8df31144d9c2f0f6b59d69b8b98abd5459d07f2742c4df920b25aae33c6482060405160405180910390a260008060006101000a81548173ffffffffffffffffffffffffffffffffffffffff021916908373ffffffffffffffffffffffffffffffffffffffff160217905550565b600080826116105760048461ffff168154811015156115fd57fe5b90600052602060002090600a0201611632565b60028461ffff1681548110151561162357fe5b90600052602060002090600a02015b9050806000015491505092915050565b6000809054906101000a900473ffffffffffffffffffffffffffffffffffffffff1681565b606080600061167584611ac1565b6116cb576004600160036000876000191660001916815260200190815260200160002060009054906101000a900461ffff160361ffff168154811015156116b857fe5b90600052602060002090600a0201611718565b60026001806000876000191660001916815260200190815260200160002060009054906101000a900461ffff160361ffff1681548110151561170957fe5b90600052602060002090600a02015b90508060070180548060200260200160405190810160405280929190818152602001828054801561179457602002820191906000526020600020906000905b82829054906101000a900463ffffffff1663ffffffff16815260200190600401906020826003010492830192600103820291508084116117575790505b505050505092508060080180548060200260200160405190810160405280929190818152602001828054801561180e57602002820191906000526020600020906000905b82829054906101000a900460ff161515815260200190600101906020826000010492830192600103820291508084116117d85790505b5050505050915050915091565b6000836005600881111561182b57fe5b8060ff1660026001806000866000191660001916815260200190815260200160002060009054906101000a900461ffff160361ffff1681548110151561186d57fe5b90600052602060002090600a020160090160019054906101000a900460ff1660ff1614151561189b57600080fd5b6000809054906101000a900473ffffffffffffffffffffffffffffffffffffffff1673ffffffffffffffffffffffffffffffffffffffff163373ffffffffffffffffffffffffffffffffffffffff161415156118f657600080fd5b6119008686611b49565b92507fffffffffffffffffffffffffffffffffffffffffffffffffffffffffffffffff831415151561193157600080fd5b42600260018060008a6000191660001916815260200190815260200160002060009054906101000a900461ffff160361ffff1681548110151561197057fe5b90600052602060002090600a02016007018481548110151561198e57fe5b90600052602060002090600891828204019190066004026101000a81548163ffffffff021916908363ffffffff16021790555085600019167f84d08018633e0a8a0ba434acc29166246cfe913279e254647ca8c2f24f13660785604051808260ff1660ff16815260200191505060405180910390a2505050505050565b6000600480549050905090565b600560205281600052604060002081815481101515611a3357fe5b9060005260206000209060209182820401919006915091509054906101000a900460ff1681565b6000809054906101000a900473ffffffffffffffffffffffffffffffffffffffff1673ffffffffffffffffffffffffffffffffffffffff163373ffffffffffffffffffffffffffffffffffffffff16141515611ab557600080fd5b611abe81611f32565b50565b60008060016000846000191660001916815260200190815260200160002060009054906101000a900461ffff1661ffff16141515611b025760019050611b44565b600060036000846000191660001916815260200190815260200160002060009054906101000a900461ffff1661ffff1614151515611b3f57600080fd5b600090505b919050565b600080600060026001806000886000191660001916815260200190815260200160002060009054906101000a900461ffff160361ffff16815481101515611b8c57fe5b90600052602060002090600a02019150600090505b8160050180549050811015611c34578373ffffffffffffffffffffffffffffffffffffffff168260050182815481101515611bd857fe5b9060005260206000200160009054906101000a900473ffffffffffffffffffffffffffffffffffffffff1673ffffffffffffffffffffffffffffffffffffffff161415611c2757809250611c58565b8080600101915050611ba1565b7fffffffffffffffffffffffffffffffffffffffffffffffffffffffffffffffff92505b505092915050565b6000611c6e8585858561202c565b611c7785612254565b15611d41576001905060006002811115611c8d57fe5b60ff168360ff161415611cbe57611cb08560036008811115611cab57fe5b611d49565b611cb985612316565b611d40565b60016002811115611ccb57fe5b60ff168360ff161415611cfc57611cee8560056008811115611ce957fe5b611d49565b611cf785612316565b611d3f565b600280811115611d0857fe5b60ff168360ff161415611d3957611d2b8560076008811115611d2657fe5b611d49565b611d348561240e565b611d3e565b600090505b5b5b5b949350505050565b6000808383600080600080925060056000600260018060008a6000191660001916815260200190815260200160002060009054906101000a900461ffff160361ffff16815481101515611d9857fe5b90600052602060002090600a020160090160019054906101000a900460ff1660ff1660ff1681526020019081526020016000209150600090505b8180549050811015611e2b578360ff168282815481101515611df057fe5b90600052602060002090602091828204019190069054906101000a900460ff1660ff161415611e1e57600192505b8080600101915050611dd2565b60011515831515141515611e3e57600080fd5b600260018060008c6000191660001916815260200190815260200160002060009054906101000a900461ffff160361ffff16815481101515611e7c57fe5b90600052602060002090600a020196508660090160019054906101000a900460ff169550878760090160016101000a81548160ff021916908360ff16021790555088600019167f9cb99c834b5e878ca7005d163b0fd70203dbc223d5845abe517de64a74dc5816878960090160019054906101000a900460ff16604051808360ff1660ff1681526020018260ff1660ff1681526020019250505060405180910390a2611f2789613111565b505050505050505050565b600073ffffffffffffffffffffffffffffffffffffffff168173ffffffffffffffffffffffffffffffffffffffff1614151515611f6e57600080fd5b8073ffffffffffffffffffffffffffffffffffffffff166000809054906101000a900473ffffffffffffffffffffffffffffffffffffffff1673ffffffffffffffffffffffffffffffffffffffff167f8be0079c531659141344cd1fd0a4f28419497f9722a3daafe3b4186f6b6457e060405160405180910390a3806000806101000a81548173ffffffffffffffffffffffffffffffffffffffff021916908373ffffffffffffffffffffffffffffffffffffffff16021790555050565b60006120388585611b49565b90507fffffffffffffffffffffffffffffffffffffffffffffffffffffffffffffffff811415151561206957600080fd5b6000600281111561207657fe5b60ff168360ff161415612104576001600881111561209057fe5b60ff1660026001806000896000191660001916815260200190815260200160002060009054906101000a900461ffff160361ffff168154811015156120d157fe5b90600052602060002090600a020160090160019054906101000a900460ff1660ff161415156120ff57600080fd5b612237565b6001600281111561211157fe5b60ff168360ff16141561219f576003600881111561212b57fe5b60ff1660026001806000896000191660001916815260200190815260200160002060009054906101000a900461ffff160361ffff1681548110151561216c57fe5b90600052602060002090600a020160090160019054906101000a900460ff1660ff1614151561219a57600080fd5b612236565b6002808111156121ab57fe5b60ff168360ff16141561223557600560088111156121c557fe5b60ff1660026001806000896000191660001916815260200190815260200160002060009054906101000a900461ffff160361ffff1681548110151561220657fe5b90600052602060002090600a020160090160019054906101000a900460ff1660ff1614151561223457600080fd5b5b5b5b612242858284613377565b61224b85613492565b50505050505050565b60008060006001925060026001806000876000191660001916815260200190815260200160002060009054906101000a900461ffff160361ffff1681548110151561229b57fe5b90600052602060002090600a02019150600090505b816008018054905081101561230f576001151582600801828154811015156122d457fe5b90600052602060002090602091828204019190069054906101000a900460ff16151514151561230257600092505b80806001019150506122b0565b5050919050565b60008060026001806000866000191660001916815260200190815260200160002060009054906101000a900461ffff160361ffff1681548110151561235757fe5b90600052602060002090600a02019150600090505b8160080180549050811015612409576000826008018281548110151561238e57fe5b90600052602060002090602091828204019190066101000a81548160ff0219169083151502179055504282600701828154811015156123c957fe5b90600052602060002090600891828204019190066004026101000a81548163ffffffff021916908363ffffffff160217905550808060010191505061236c565b505050565b61241661394a565b61241e61394a565b60026001806000866000191660001916815260200190815260200160002060009054906101000a900461ffff160361ffff1681548110151561245c57fe5b90600052602060002090600a020161016060405190810160405290816000820154600019166000191681526020016001820160009054906101000a900473ffffffffffffffffffffffffffffffffffffffff1673ffffffffffffffffffffffffffffffffffffffff1673ffffffffffffffffffffffffffffffffffffffff1681526020016002820160009054906101000a900473ffffffffffffffffffffffffffffffffffffffff1673ffffffffffffffffffffffffffffffffffffffff1673ffffffffffffffffffffffffffffffffffffffff16815260200160038201548152602001600482015460001916600019168152602001600582018054806020026020016040519081016040528092919081815260200182805480156125d657602002820191906000526020600020905b8160009054906101000a900473ffffffffffffffffffffffffffffffffffffffff1673ffffffffffffffffffffffffffffffffffffffff168152602001906001019080831161258c575b5050505050815260200160068201805480602002602001604051908101604052809291908181526020016000905b828210156126c0578382906000526020600020018054600181600116156101000203166002900480601f0160208091040260200160405190810160405280929190818152602001828054600181600116156101000203166002900480156126ac5780601f10612681576101008083540402835291602001916126ac565b820191906000526020600020905b81548152906001019060200180831161268f57829003601f168201915b505050505081526020019060010190612604565b5050505081526020016007820180548060200260200160405190810160405280929190818152602001828054801561274357602002820191906000526020600020906000905b82829054906101000a900463ffffffff1663ffffffff16815260200190600401906020826003010492830192600103820291508084116127065790505b50505050508152602001600882018054806020026020016040519081016040528092919081815260200182805480156127c057602002820191906000526020600020906000905b82829054906101000a900460ff1615158152602001906001019060208260000104928301926001038202915080841161278a5790505b505050505081526020016009820160009054906101000a900460ff1660ff1660ff1681526020016009820160019054906101000a900460ff1660ff1660ff168152505091506004829080600181540180825580915050906001820390600052602060002090600a0201600090919290919091506000820151816000019060001916905560208201518160010160006101000a81548173ffffffffffffffffffffffffffffffffffffffff021916908373ffffffffffffffffffffffffffffffffffffffff16021790555060408201518160020160006101000a81548173ffffffffffffffffffffffffffffffffffffffff021916908373ffffffffffffffffffffffffffffffffffffffff160217905550606082015181600301556080820151816004019060001916905560a082015181600501908051906020019061290792919061370a565b5060c0820151816006019080519060200190612924929190613794565b5060e08201518160070190805190602001906129419291906137f4565b5061010082015181600801908051906020019061295f9291906138a4565b506101208201518160090160006101000a81548160ff021916908360ff1602179055506101408201518160090160016101000a81548160ff021916908360ff16021790555050505060048054905060ff1660036000856000191660001916815260200190815260200160002060006101000a81548161ffff021916908361ffff16021790555060028054905060016000856000191660001916815260200190815260200160002060009054906101000a900461ffff1661ffff16141515612fa2576002600160028054905003815481101515612a3757fe5b90600052602060002090600a020161016060405190810160405290816000820154600019166000191681526020016001820160009054906101000a900473ffffffffffffffffffffffffffffffffffffffff1673ffffffffffffffffffffffffffffffffffffffff1673ffffffffffffffffffffffffffffffffffffffff1681526020016002820160009054906101000a900473ffffffffffffffffffffffffffffffffffffffff1673ffffffffffffffffffffffffffffffffffffffff1673ffffffffffffffffffffffffffffffffffffffff1681526020016003820154815260200160048201546000191660001916815260200160058201805480602002602001604051908101604052809291908181526020018280548015612bb157602002820191906000526020600020905b8160009054906101000a900473ffffffffffffffffffffffffffffffffffffffff1673ffffffffffffffffffffffffffffffffffffffff1681526020019060010190808311612b67575b5050505050815260200160068201805480602002602001604051908101604052809291908181526020016000905b82821015612c9b578382906000526020600020018054600181600116156101000203166002900480601f016020809104026020016040519081016040528092919081815260200182805460018160011615610100020316600290048015612c875780601f10612c5c57610100808354040283529160200191612c87565b820191906000526020600020905b815481529060010190602001808311612c6a57829003601f168201915b505050505081526020019060010190612bdf565b50505050815260200160078201805480602002602001604051908101604052809291908181526020018280548015612d1e57602002820191906000526020600020906000905b82829054906101000a900463ffffffff1663ffffffff1681526020019060040190602082600301049283019260010382029150808411612ce15790505b5050505050815260200160088201805480602002602001604051908101604052809291908181526020018280548015612d9b57602002820191906000526020600020906000905b82829054906101000a900460ff16151581526020019060010190602082600001049283019260010382029150808411612d655790505b505050505081526020016009820160009054906101000a900460ff1660ff1660ff1681526020016009820160019054906101000a900460ff1660ff1660ff168152505090508060026001806000876000191660001916815260200190815260200160002060009054906101000a900461ffff160361ffff16815481101515612e1f57fe5b90600052602060002090600a02016000820151816000019060001916905560208201518160010160006101000a81548173ffffffffffffffffffffffffffffffffffffffff021916908373ffffffffffffffffffffffffffffffffffffffff16021790555060408201518160020160006101000a81548173ffffffffffffffffffffffffffffffffffffffff021916908373ffffffffffffffffffffffffffffffffffffffff160217905550606082015181600301556080820151816004019060001916905560a0820151816005019080519060200190612f0192919061370a565b5060c0820151816006019080519060200190612f1e929190613794565b5060e0820151816007019080519060200190612f3b9291906137f4565b50610100820151816008019080519060200190612f599291906138a4565b506101208201518160090160006101000a81548160ff021916908360ff1602179055506101408201518160090160016101000a81548160ff021916908360ff1602179055509050505b60026001806000866000191660001916815260200190815260200160002060009054906101000a900461ffff160361ffff16815481101515612fe057fe5b90600052602060002090600a02016000808201600090556001820160006101000a81549073ffffffffffffffffffffffffffffffffffffffff02191690556002820160006101000a81549073ffffffffffffffffffffffffffffffffffffffff02191690556003820160009055600482016000905560058201600061306591906139dd565b60068201600061307591906139fe565b6007820160006130859190613a1f565b6008820160006130959190613a47565b6009820160006101000a81549060ff02191690556009820160016101000a81549060ff02191690555050600060016000856000191660001916815260200190815260200160002060006101000a81548161ffff021916908361ffff160217905550600280548091906001900361310b9190613a6f565b50505050565b600060026001806000856000191660001916815260200190815260200160002060009054906101000a900461ffff160361ffff1681548110151561315157fe5b90600052602060002090600a020160090160019054906101000a900460ff1690506002600881111561317f57fe5b60ff168160ff1614156131c25781600019167f5261c4ecde326f171b514c548529aa2219b22fedf2fa5640ae6f7d939aaefbf860405160405180910390a2613373565b600360088111156131cf57fe5b60ff168160ff1614156132125781600019167f664052ccd6bc90c161d5b3a6ed2bff308e2bf01e52fbc112e7a8d445bb9c66ee60405160405180910390a2613372565b6004600881111561321f57fe5b60ff168160ff1614156132625781600019167fee170c67bd88e14fcfccdcf7817ddb732cb1a466d0c333f4642571d1282556eb60405160405180910390a2613371565b6005600881111561326f57fe5b60ff168160ff1614156132b25781600019167f3010926e292de172661e49071a9be4cb18f63877dffcc78013e349175f5b03b260405160405180910390a2613370565b600660088111156132bf57fe5b60ff168160ff1614156133125781600019167f439c5ac734864869b402ad7298724e0154a172f98a32de5c8e877b3f234dc5d76001604051808215151515815260200191505060405180910390a261336f565b6007600881111561331f57fe5b60ff168160ff16141561336e5781600019167f439c5ac734864869b402ad7298724e0154a172f98a32de5c8e877b3f234dc5d76000604051808215151515815260200191505060405180910390a25b5b5b5b5b5b5050565b8060026001806000876000191660001916815260200190815260200160002060009054906101000a900461ffff160361ffff168154811015156133b657fe5b90600052602060002090600a0201600801838154811015156133d457fe5b90600052602060002090602091828204019190066101000a81548160ff0219169083151502179055504260026001806000876000191660001916815260200190815260200160002060009054906101000a900461ffff160361ffff1681548110151561343c57fe5b90600052602060002090600a02016007018381548110151561345a57fe5b90600052602060002090600891828204019190066004026101000a81548163ffffffff021916908363ffffffff160217905550505050565b60008060008084600060026001806000856000191660001916815260200190815260200160002060009054906101000a900461ffff160361ffff168154811015156134d957fe5b90600052602060002090600a02019050600160088111156134f657fe5b60ff168160090160019054906101000a900460ff1660ff16148061353c57506003600881111561352257fe5b60ff168160090160019054906101000a900460ff1660ff16145b8061356957506005600881111561354f57fe5b60ff168160090160019054906101000a900460ff1660ff16145b151561357457600080fd5b600260018060008a6000191660001916815260200190815260200160002060009054906101000a900461ffff160361ffff168154811015156135b257fe5b90600052602060002090600a02019350600092505b83600701805490508310156136815761070884600701848154811015156135ea57fe5b90600052602060002090600891828204019190066004029054906101000a900463ffffffff164260ff160363ffffffff16111561367457836005018381548110151561363257fe5b9060005260206000200160009054906101000a900473ffffffffffffffffffffffffffffffffffffffff1695508360090160019054906101000a900460ff1694505b82806001019350506135c7565b50505050915091565b828054600181600116156101000203166002900490600052602060002090601f016020900481019282601f106136cb57803560ff19168380011785556136f9565b828001600101855582156136f9579182015b828111156136f85782358255916020019190600101906136dd565b5b5090506137069190613aa1565b5090565b828054828255906000526020600020908101928215613783579160200282015b828111156137825782518260006101000a81548173ffffffffffffffffffffffffffffffffffffffff021916908373ffffffffffffffffffffffffffffffffffffffff1602179055509160200191906001019061372a565b5b5090506137909190613ac6565b5090565b8280548282559060005260206000209081019282156137e3579160200282015b828111156137e25782518290805190602001906137d2929190613b09565b50916020019190600101906137b4565b5b5090506137f09190613b89565b5090565b828054828255906000526020600020906007016008900481019282156138935791602002820160005b8382111561386157835183826101000a81548163ffffffff021916908363ffffffff160217905550926020019260040160208160030104928301926001030261381d565b80156138915782816101000a81549063ffffffff0219169055600401602081600301049283019260010302613861565b505b5090506138a09190613bb5565b5090565b82805482825590600052602060002090601f016020900481019282156139395791602002820160005b8382111561390a57835183826101000a81548160ff02191690831515021790555092602001926001016020816000010492830192600103026138cd565b80156139375782816101000a81549060ff021916905560010160208160000104928301926001030261390a565b505b5090506139469190613be8565b5090565b6101606040519081016040528060008019168152602001600073ffffffffffffffffffffffffffffffffffffffff168152602001600073ffffffffffffffffffffffffffffffffffffffff168152602001600081526020016000801916815260200160608152602001606081526020016060815260200160608152602001600060ff168152602001600060ff1681525090565b50805460008255906000526020600020908101906139fb9190613aa1565b50565b5080546000825590600052602060002090810190613a1c9190613b89565b50565b508054600082556007016008900490600052602060002090810190613a449190613aa1565b50565b50805460008255601f016020900490600052602060002090810190613a6c9190613aa1565b50565b815481835581811115613a9c57600a0281600a028360005260206000209182019101613a9b9190613c18565b5b505050565b613ac391905b80821115613abf576000816000905550600101613aa7565b5090565b90565b613b0691905b80821115613b0257600081816101000a81549073ffffffffffffffffffffffffffffffffffffffff021916905550600101613acc565b5090565b90565b828054600181600116156101000203166002900490600052602060002090601f016020900481019282601f10613b4a57805160ff1916838001178555613b78565b82800160010185558215613b78579182015b82811115613b77578251825591602001919060010190613b5c565b5b509050613b859190613aa1565b5090565b613bb291905b80821115613bae5760008181613ba59190613d05565b50600101613b8f565b5090565b90565b613be591905b80821115613be157600081816101000a81549063ffffffff021916905550600101613bbb565b5090565b90565b613c1591905b80821115613c1157600081816101000a81549060ff021916905550600101613bee565b5090565b90565b613d0291905b80821115613cfe576000808201600090556001820160006101000a81549073ffffffffffffffffffffffffffffffffffffffff02191690556002820160006101000a81549073ffffffffffffffffffffffffffffffffffffffff021916905560038201600090556004820160009055600582016000613c9d91906139dd565b600682016000613cad91906139fe565b600782016000613cbd9190613a1f565b600882016000613ccd9190613a47565b6009820160006101000a81549060ff02191690556009820160016101000a81549060ff021916905550600a01613c1e565b5090565b90565b50805460018160011615610100020316600290046000825580601f10613d2b5750613d4a565b601f016020900490600052602060002090810190613d499190613aa1565b5b505600a165627a7a723058200810da9cb0d67fba2059f80daebc83a9b6679f3c2f9507aef440c0f7a1030a8b0029",
  "source": "pragma solidity ^0.4.24;\n\nimport \"./ICognitiveJobController.sol\";\n\n\n// Contract implement main cognitive job functionality\ncontract CognitiveJobController is ICognitiveJobController{\n\n    /*******************************************************************************************************************\n     * ## Storage\n     */\n\n    enum WorkerResponses {\n        Assignment,\n        DataValidation,\n        Result\n    }\n\n    enum States {\n        Uninitialized,\n        GatheringWorkers,\n        InsufficientWorkers,\n        DataValidation,\n        InvalidData,\n        Cognition,\n        PartialResult,\n        Completed,\n        Destroyed\n    }\n\n    struct CognitiveJob {\n        bytes32 id;\n        address kernel;\n        address dataset;\n        uint256 complexity; //todo find better name\n        bytes32 description;\n        address[] activeWorkers;\n        bytes[] ipfsResults;\n        uint32[] responseTimestamps; // time of each worker response\n        bool[] responseFlags;\n        uint8 progress;\n        uint8 state;\n    }\n\n    /// @dev Indexes (+1) of active (=running) cognitive jobs in `activeJobs` mapped from their creators\n    /// (owners of the corresponding cognitive job contracts). Zero values corresponds to no active job,\n    /// one  to the one with index 0 and so forth.\n    mapping(bytes32 => uint16) public activeJobsIndexes;\n\n    /// @dev List of all active cognitive jobs\n    CognitiveJob[] activeJobs;\n\n    mapping(bytes32 => uint16) public completedJobsIndexes;\n\n    /// @dev List of all completed cognitive jobs\n    CognitiveJob[] public completedJobs;\n\n    ///Table of all possible state transitions\n    mapping(uint8 => uint8[]) public transitionTable;\n\n    //        uint8 WORKER_TIMEOUT = 30 minutes;\n\n    constructor() public {\n        //state machine initialization should be performed only once with filling transitionTable\n        _initStateMachine();\n    }\n\n    /******************************************************************************************************************\n    Public functions\n    */\n\n    /// @dev Returns total count of active jobs\n    function activeJobsCount() view public returns (uint256) {\n        return activeJobs.length;\n    }\n\n    /// @dev Returns total count of active jobs\n    function completedJobsCount() view public returns (uint256) {\n        return completedJobs.length;\n    }\n\n    function getJobId(uint16 _index, bool _isActive)\n    view\n    public\n    returns(bytes32){\n        CognitiveJob storage job = _isActive ?\n            activeJobs[_index]\n            : completedJobs[_index];\n        return job.id;\n    }\n\n    function getCognitiveJobDetails(bytes32 _jobId)\n    external\n    view\n    returns (\n        address kernel,\n        address dataset,\n        uint256 complexity,\n        bytes32 description,\n        address[] activeWorkers,\n        uint8 progress,\n        uint8 state\n    ) {\n        CognitiveJob storage job = isActiveJob(_jobId) ?\n            activeJobs[activeJobsIndexes[_jobId] - 1]\n            : completedJobs[completedJobsIndexes[_jobId] - 1];\n        kernel = job.kernel;\n        dataset = job.dataset;\n        complexity = job.complexity;\n        description = job.description;\n        activeWorkers = job.activeWorkers;\n        progress = job.progress;\n        state = job.state;\n    }\n\n    function getCognitiveJobResults(\n        bytes32 _jobId,\n        uint8 _index //index of worker, whose results should be returned\n    )\n    public\n    view\n    returns(\n        bytes ipfsResults\n    ) {\n        CognitiveJob storage job = isActiveJob(_jobId) ?\n            activeJobs[activeJobsIndexes[_jobId] - 1]\n            : completedJobs[completedJobsIndexes[_jobId] - 1];\n        ipfsResults = job.ipfsResults[_index];\n    }\n\n    function getCognitiveJobServiceInfo(\n        bytes32 _jobId\n    )\n    public\n    view\n    returns(\n        uint32[] responseTimestamps,\n        bool[] responseFlags\n    ) {\n        CognitiveJob storage job = isActiveJob(_jobId) ?\n            activeJobs[activeJobsIndexes[_jobId] - 1]\n            : completedJobs[completedJobsIndexes[_jobId] - 1];\n        responseTimestamps = job.responseTimestamps;\n        responseFlags = job.responseFlags;\n    }\n\n    /******************************************************************************************************************\n    External functions (Only Pandora by interface)\n    */\n    function createCognitiveJob (\n        bytes32 _id,\n        address _kernel,\n        address _dataset,\n        address[] _assignedWorkers,\n        uint256 _complexity,\n        bytes32 _description\n    )\n    onlyOwner()\n    external {\n        // The created job must fit into uint16 size\n        require(activeJobs.length < uint16(-1));\n\n        activeJobs.push(CognitiveJob({\n            id: _id,\n            kernel: _kernel,\n            dataset: _dataset,\n            complexity: _complexity,\n            description: _description,\n            activeWorkers: _assignedWorkers,\n            ipfsResults: new bytes[](_assignedWorkers.length),\n            responseTimestamps: new uint32[](_assignedWorkers.length),\n            responseFlags: new bool[](_assignedWorkers.length),\n            progress: 0,\n            state: uint8(States.Uninitialized)\n            })\n        );\n        // Add to addresses map\n        activeJobsIndexes[_id] = uint16(activeJobs.length);\n\n        CognitiveJob storage job = activeJobs[activeJobsIndexes[_id] - 1];\n        // Init timestamps\n        for (uint256 i = 0; i < job.responseTimestamps.length; i++) {\n            job.responseTimestamps[i] = uint32(block.timestamp);\n        }\n        _transitionToState( _id, uint8(States.GatheringWorkers));\n        emit WorkersUpdated(_id);\n    }\n\n    function respondToJob(\n        bytes32 _jobId,\n        address _workerId,\n        uint8 _responseType,\n        bool _response)\n    requireActiveStates(_jobId)\n    onlyOwner()\n    external\n    returns (bool result)\n    {\n        return _onWorkerResponse(_jobId, _workerId, _responseType, _response);\n    }\n\n    //should be called for responseTimestamp refresh after actual progress change in workerNode\n    //todo implement requirement of new progress > current progress in workerController in new v.\n    function commitProgress(\n        bytes32 _jobId,\n        address _workerId,\n        uint8 _percent)\n    requireState(_jobId, uint8(States.Cognition))\n    onlyOwner()\n    external {\n        //todo check active worker with workerController\n        uint256 workerIndex = _getWorkerIndex( _jobId, _workerId);\n        require(workerIndex != uint256(-1)); //worker is computing current job\n        activeJobs[activeJobsIndexes[_jobId] - 1].responseTimestamps[workerIndex] = uint32(block.timestamp);\n        emit CognitionProgressed(_jobId, _percent);\n    }\n\n    /// @notice should be called with provided results\n    function completeWork(\n        bytes32 _jobId,\n        address _workerId,\n        bytes _ipfsResults)\n    requireState(_jobId, uint8(States.Cognition))\n    onlyOwner()\n    external\n    returns (\n        bool result // true - if all workers have submitted result\n    ){\n        uint256 workerIndex = _getWorkerIndex( _jobId, _workerId);\n        require(workerIndex != uint256(-1)); //worker is computing current job\n\n        activeJobs[activeJobsIndexes[_jobId] - 1].ipfsResults[workerIndex] = _ipfsResults;\n        result = _onWorkerResponse( _jobId, _workerId, uint8(WorkerResponses.Result), true);\n    }\n\n    //    function reportOfflineWorker(IWorkerNode reported) payable external requireActiveStates;\n    //todo should be implemented in workerController in upcoming version\n\n    /******************************************************************************************************************\n    Private functions\n    */\n\n    /// @dev Could be called from manager with two types of response - Assignment and DataValidation\n    function _onWorkerResponse(\n        bytes32 _jobId,\n        address _workerId,\n        uint8 _responseType,\n        bool _response)\n    private\n    returns (bool result)\n    {\n\n        _checkResponse( _jobId, _workerId, _responseType, _response);\n        // Transition to next state when all workers have responded\n        if (_isAllWorkersResponded( _jobId)) {\n            result = true;\n            if (_responseType == uint8(WorkerResponses.Assignment)) {\n                _transitionToState( _jobId, uint8(States.DataValidation));\n                //todo implement process decline, with validation in new v.\n                _resetAllResponses( _jobId);\n            } else if (_responseType == uint8(WorkerResponses.DataValidation)) {\n                _transitionToState( _jobId, uint8(States.Cognition));\n                //todo implement process decline, with validation in new v.\n                _resetAllResponses( _jobId);\n            } else if (_responseType == uint8(WorkerResponses.Result)) {\n                _transitionToState( _jobId, uint8(States.Completed));\n                _onJobComplete(_jobId); // move active job to completed ones\n            } else {\n                result = false; //not all workers responded\n            }\n        }\n    }\n\n    ///@dev Checks is worker actually computing current job, then updates response's flag and timestamp\n    function _checkResponse(\n        bytes32 _jobId,\n        address _workerId,\n        uint8 _responseType,\n        bool _response)\n    private {\n        uint256 workerIndex = _getWorkerIndex( _jobId, _workerId);\n        require(workerIndex != uint256(-1)); //worker is computing current job\n\n        if (_responseType == uint8(WorkerResponses.Assignment)) {\n            require(activeJobs[activeJobsIndexes[_jobId] - 1].state == uint8(States.GatheringWorkers));\n        } else if (_responseType == uint8(WorkerResponses.DataValidation)) {\n            require(activeJobs[activeJobsIndexes[_jobId] - 1].state == uint8(States.DataValidation));\n        } else if (_responseType == uint8(WorkerResponses.Result)) {\n            require(activeJobs[activeJobsIndexes[_jobId] - 1].state == uint8(States.Cognition));\n        }\n\n        //todo implement penalties\n        _updateResponse( _jobId, workerIndex, _response);\n        _trackOfflineWorkers( _jobId);\n    }\n\n    function _getWorkerIndex(\n        bytes32 _jobId,\n        address _workerId)\n    private\n    view\n    returns (\n        uint256\n    ) {\n        CognitiveJob storage job = activeJobs[activeJobsIndexes[_jobId] - 1];\n        for (uint256 i = 0; i < job.activeWorkers.length; i++) {\n            if (job.activeWorkers[i] == _workerId) {\n                return i;\n            }\n        }\n        return uint256(-1);\n    }\n\n    function _isAllWorkersResponded(\n        bytes32 _jobId)\n    private\n    view\n    returns (\n        bool responded\n    ) {\n        responded = true;\n        CognitiveJob storage job = activeJobs[activeJobsIndexes[_jobId] - 1];\n        for (uint256 i = 0; i < job.responseFlags.length; i++) {\n            if (job.responseFlags[i] != true) {\n                responded = false;\n            }\n        }\n    }\n\n    function _updateResponse(\n        bytes32 _jobId,\n        uint256 _workerIndex,\n        bool _response)\n    private {\n        activeJobs[activeJobsIndexes[_jobId] - 1].responseFlags[_workerIndex] = _response;\n        activeJobs[activeJobsIndexes[_jobId] - 1].responseTimestamps[_workerIndex] = uint32(block.timestamp);\n    }\n\n    ///@dev Reset all response flags and update all timestamps\n    function _resetAllResponses(\n        bytes32 _jobId)\n    private {\n        CognitiveJob storage job = activeJobs[activeJobsIndexes[_jobId] - 1];\n        for (uint256 i = 0; i < job.responseFlags.length; i++) {\n            job.responseFlags[i] = false;\n            job.responseTimestamps[i] = uint32(block.timestamp);\n        }\n    }\n\n    //todo provide listener and handle guilty worker and job state in manager, so it could penaltize worker\n    function _trackOfflineWorkers(\n        bytes32 _jobId)\n    requireActiveStates( _jobId)\n    internal\n    returns (\n        address guiltyWorker,\n        uint8 jobState\n    ){\n        CognitiveJob storage job = activeJobs[activeJobsIndexes[_jobId] - 1];\n        for (uint256 i = 0; i < job.responseTimestamps.length; i++) {\n            if (uint8(block.timestamp) - job.responseTimestamps[i] > 30 minutes) {\n                guiltyWorker = job.activeWorkers[i];\n                jobState = job.state;\n            }\n        }\n    }\n\n    /******************************************************************************************************************\n    State machine implementation\n    */\n\n    modifier requireActiveStates(\n        bytes32 _jobId)\n    {\n        CognitiveJob storage job = activeJobs[activeJobsIndexes[_jobId] - 1];\n        require(\n            job.state == uint8(States.GatheringWorkers) ||\n            job.state == uint8(States.DataValidation) ||\n            job.state == uint8(States.Cognition)\n        );\n        _;\n    }\n\n    modifier requireState(\n        bytes32 _jobId,\n        uint8 requiredState\n    ) {\n        require(activeJobs[activeJobsIndexes[_jobId] - 1].state == requiredState);\n        _;\n    }\n\n    modifier requireAllowedTransition(\n        bytes32 _jobId,\n        uint8 _newState\n    ) {\n        // Checking if the state transition is allowed\n        bool transitionAllowed = false;\n        uint8[] storage allowedStates =\n            transitionTable[uint8(activeJobs[activeJobsIndexes[_jobId] - 1].state)];\n        for (uint no = 0; no < allowedStates.length; no++) {\n            if (allowedStates[no] == _newState) {\n                transitionAllowed = true;\n            }\n        }\n        require(transitionAllowed == true);\n        _;\n    }\n\n    function _transitionToState(\n        bytes32 _jobId,\n        uint8 _newState)\n    requireAllowedTransition( _jobId, _newState)\n    private\n    {\n        CognitiveJob storage job = activeJobs[activeJobsIndexes[_jobId] - 1];\n        uint8 oldState = job.state;\n        job.state = _newState;\n        emit JobStateChanged(_jobId, oldState, job.state);\n        _fireStateEvent(_jobId);\n    }\n\n    //Fill table of possible state transitions\n    function _initStateMachine()\n    private {\n        mapping(uint8 => uint8[]) transitions = transitionTable;\n        transitions[uint8(States.Uninitialized)] =\n            [uint8(States.GatheringWorkers)];\n        transitions[uint8(States.GatheringWorkers)] =\n            [uint8(States.InsufficientWorkers), uint8(States.DataValidation)];\n        transitions[uint8(States.DataValidation)] =\n            [uint8(States.InvalidData), uint8(States.Cognition), uint8(States.InsufficientWorkers)];\n        transitions[uint8(States.Cognition)] =\n            [uint8(States.Completed), uint8(States.PartialResult)];\n    }\n\n    function _fireStateEvent(\n        bytes32 _jobId)\n    private {\n        uint8 state = activeJobs[activeJobsIndexes[_jobId] - 1].state;\n        if (state == uint8(States.InsufficientWorkers)) {\n            emit WorkersNotFound(_jobId);\n            //_onJobComplete(_jobId); //todo refactor with queue\n        } else if (state == uint8(States.DataValidation)) {\n            emit DataValidationStarted(_jobId);\n        } else if (state == uint8(States.InvalidData)) {\n            emit DataValidationFailed(_jobId);\n            //_cleanStorage(); //todo refactor\n        } else if (state == uint8(States.Cognition)) {\n            emit CognitionStarted(_jobId);\n        } else if (state == uint8(States.PartialResult)) {\n            emit CognitionCompleted(_jobId, true);\n        } else if (state == uint8(States.Completed)) {\n            emit CognitionCompleted(_jobId, false);\n        }\n    }\n\n    function _onJobComplete(\n        bytes32 _jobId)\n    private\n    {\n        CognitiveJob memory currentJob = activeJobs[activeJobsIndexes[_jobId] - 1];\n        completedJobs.push(currentJob);\n        completedJobsIndexes[_jobId] = uint8(completedJobs.length);\n\n        if (activeJobsIndexes[_jobId] != activeJobs.length) {\n            CognitiveJob memory movedJob = activeJobs[activeJobs.length - 1];\n            activeJobs[activeJobsIndexes[_jobId] - 1] = movedJob;\n        }\n        delete activeJobs[activeJobsIndexes[_jobId] - 1]; //todo check storage erasing in test\n        activeJobsIndexes[_jobId] = 0;\n        activeJobs.length--;\n    }\n\n    /// @dev Checks that job with given id is active or not (tx will fail if job is not existed)\n    function isActiveJob(\n        bytes32 _jobId\n    )\n    view\n    private\n    returns (\n        bool\n    ) {\n        if (activeJobsIndexes[_jobId] != 0) {\n            return true;\n        } else {\n            require(completedJobsIndexes[_jobId] != 0);\n            return false;\n        }\n    }\n}\n",
  "sourcePath": "/home/kostysh/dev/pyrrha-consensus/contracts/pandora/managers/CognitiveJobController.sol",
  "compiler": {
    "name": "solc",
    "version": "0.4.24+commit.e67f0147.Emscripten.clang"
  },
  "schemaVersion": "2.0.1",
  "updatedAt": "2018-08-03T08:49:56.600Z"
}