{
  "contractName": "CognitiveJobController",
  "abi": [
    {
      "constant": true,
      "inputs": [
        {
          "name": "",
          "type": "uint256"
        }
      ],
      "name": "completedJobs",
      "outputs": [
        {
          "name": "id",
          "type": "bytes32"
        },
        {
          "name": "kernel",
          "type": "address"
        },
        {
          "name": "dataset",
          "type": "address"
        },
        {
          "name": "complexity",
          "type": "uint256"
        },
        {
          "name": "description",
          "type": "bytes32"
        },
        {
          "name": "progress",
          "type": "uint8"
        },
        {
          "name": "state",
          "type": "uint8"
        }
      ],
      "payable": false,
      "stateMutability": "view",
      "type": "function"
    },
    {
      "constant": true,
      "inputs": [
        {
          "name": "",
          "type": "uint256"
        }
      ],
      "name": "activeJobs",
      "outputs": [
        {
          "name": "id",
          "type": "bytes32"
        },
        {
          "name": "kernel",
          "type": "address"
        },
        {
          "name": "dataset",
          "type": "address"
        },
        {
          "name": "complexity",
          "type": "uint256"
        },
        {
          "name": "description",
          "type": "bytes32"
        },
        {
          "name": "progress",
          "type": "uint8"
        },
        {
          "name": "state",
          "type": "uint8"
        }
      ],
      "payable": false,
      "stateMutability": "view",
      "type": "function"
    },
    {
      "constant": true,
      "inputs": [
        {
          "name": "",
          "type": "bytes32"
        }
      ],
      "name": "completedJobsIndexes",
      "outputs": [
        {
          "name": "",
          "type": "uint16"
        }
      ],
      "payable": false,
      "stateMutability": "view",
      "type": "function"
    },
    {
      "constant": true,
      "inputs": [
        {
          "name": "",
          "type": "bytes32"
        }
      ],
      "name": "activeJobsIndexes",
      "outputs": [
        {
          "name": "",
          "type": "uint16"
        }
      ],
      "payable": false,
      "stateMutability": "view",
      "type": "function"
    },
    {
      "constant": false,
      "inputs": [],
      "name": "renounceOwnership",
      "outputs": [],
      "payable": false,
      "stateMutability": "nonpayable",
      "type": "function"
    },
    {
      "constant": true,
      "inputs": [],
      "name": "owner",
      "outputs": [
        {
          "name": "",
          "type": "address"
        }
      ],
      "payable": false,
      "stateMutability": "view",
      "type": "function"
    },
    {
      "constant": true,
      "inputs": [
        {
          "name": "",
          "type": "uint8"
        },
        {
          "name": "",
          "type": "uint256"
        }
      ],
      "name": "transitionTable",
      "outputs": [
        {
          "name": "",
          "type": "uint8"
        }
      ],
      "payable": false,
      "stateMutability": "view",
      "type": "function"
    },
    {
      "constant": false,
      "inputs": [
        {
          "name": "_newOwner",
          "type": "address"
        }
      ],
      "name": "transferOwnership",
      "outputs": [],
      "payable": false,
      "stateMutability": "nonpayable",
      "type": "function"
    },
    {
      "inputs": [],
      "payable": false,
      "stateMutability": "nonpayable",
      "type": "constructor"
    },
    {
      "anonymous": false,
      "inputs": [
        {
          "indexed": true,
          "name": "jobId",
          "type": "bytes32"
        },
        {
          "indexed": false,
          "name": "oldState",
          "type": "uint8"
        },
        {
          "indexed": false,
          "name": "newState",
          "type": "uint8"
        }
      ],
      "name": "JobStateChanged",
      "type": "event"
    },
    {
      "anonymous": false,
      "inputs": [
        {
          "indexed": true,
          "name": "jobId",
          "type": "bytes32"
        }
      ],
      "name": "WorkersUpdated",
      "type": "event"
    },
    {
      "anonymous": false,
      "inputs": [
        {
          "indexed": true,
          "name": "jobId",
          "type": "bytes32"
        }
      ],
      "name": "WorkersNotFound",
      "type": "event"
    },
    {
      "anonymous": false,
      "inputs": [
        {
          "indexed": true,
          "name": "jobId",
          "type": "bytes32"
        }
      ],
      "name": "DataValidationStarted",
      "type": "event"
    },
    {
      "anonymous": false,
      "inputs": [
        {
          "indexed": true,
          "name": "jobId",
          "type": "bytes32"
        }
      ],
      "name": "DataValidationFailed",
      "type": "event"
    },
    {
      "anonymous": false,
      "inputs": [
        {
          "indexed": true,
          "name": "jobId",
          "type": "bytes32"
        }
      ],
      "name": "CognitionStarted",
      "type": "event"
    },
    {
      "anonymous": false,
      "inputs": [
        {
          "indexed": true,
          "name": "jobId",
          "type": "bytes32"
        },
        {
          "indexed": false,
          "name": "precent",
          "type": "uint8"
        }
      ],
      "name": "CognitionProgressed",
      "type": "event"
    },
    {
      "anonymous": false,
      "inputs": [
        {
          "indexed": true,
          "name": "jobId",
          "type": "bytes32"
        },
        {
          "indexed": false,
          "name": "partialResult",
          "type": "bool"
        }
      ],
      "name": "CognitionCompleted",
      "type": "event"
    },
    {
      "anonymous": false,
      "inputs": [
        {
          "indexed": true,
          "name": "previousOwner",
          "type": "address"
        }
      ],
      "name": "OwnershipRenounced",
      "type": "event"
    },
    {
      "anonymous": false,
      "inputs": [
        {
          "indexed": true,
          "name": "previousOwner",
          "type": "address"
        },
        {
          "indexed": true,
          "name": "newOwner",
          "type": "address"
        }
      ],
      "name": "OwnershipTransferred",
      "type": "event"
    },
    {
      "constant": true,
      "inputs": [],
      "name": "activeJobsCount",
      "outputs": [
        {
          "name": "",
          "type": "uint256"
        }
      ],
      "payable": false,
      "stateMutability": "view",
      "type": "function"
    },
    {
      "constant": true,
      "inputs": [],
      "name": "completedJobsCount",
      "outputs": [
        {
          "name": "",
          "type": "uint256"
        }
      ],
      "payable": false,
      "stateMutability": "view",
      "type": "function"
    },
    {
      "constant": true,
      "inputs": [
        {
          "name": "_index",
          "type": "uint16"
        },
        {
          "name": "_isActive",
          "type": "bool"
        }
      ],
      "name": "getJobId",
      "outputs": [
        {
          "name": "",
          "type": "bytes32"
        }
      ],
      "payable": false,
      "stateMutability": "view",
      "type": "function"
    },
    {
      "constant": true,
      "inputs": [
        {
          "name": "_jobId",
          "type": "bytes32"
        }
      ],
      "name": "getCognitiveJobDetails",
      "outputs": [
        {
          "name": "kernel",
          "type": "address"
        },
        {
          "name": "dataset",
          "type": "address"
        },
        {
          "name": "complexity",
          "type": "uint256"
        },
        {
          "name": "description",
          "type": "bytes32"
        },
        {
          "name": "activeWorkers",
          "type": "address[]"
        },
        {
          "name": "progress",
          "type": "uint8"
        },
        {
          "name": "state",
          "type": "uint8"
        }
      ],
      "payable": false,
      "stateMutability": "view",
      "type": "function"
    },
    {
      "constant": true,
      "inputs": [
        {
          "name": "_jobId",
          "type": "bytes32"
        },
        {
          "name": "_index",
          "type": "uint8"
        }
      ],
      "name": "getCognitiveJobResults",
      "outputs": [
        {
          "name": "ipfsResults",
          "type": "bytes"
        }
      ],
      "payable": false,
      "stateMutability": "view",
      "type": "function"
    },
    {
      "constant": true,
      "inputs": [
        {
          "name": "_jobId",
          "type": "bytes32"
        }
      ],
      "name": "getCognitiveJobServiceInfo",
      "outputs": [
        {
          "name": "responseTimestamps",
          "type": "uint32[]"
        },
        {
          "name": "responseFlags",
          "type": "bool[]"
        }
      ],
      "payable": false,
      "stateMutability": "view",
      "type": "function"
    },
    {
      "constant": false,
      "inputs": [
        {
          "name": "_id",
          "type": "bytes32"
        },
        {
          "name": "_kernel",
          "type": "address"
        },
        {
          "name": "_dataset",
          "type": "address"
        },
        {
          "name": "_assignedWorkers",
          "type": "address[]"
        },
        {
          "name": "_complexity",
          "type": "uint256"
        },
        {
          "name": "_description",
          "type": "bytes32"
        }
      ],
      "name": "createCognitiveJob",
      "outputs": [],
      "payable": false,
      "stateMutability": "nonpayable",
      "type": "function"
    },
    {
      "constant": false,
      "inputs": [
        {
          "name": "_jobId",
          "type": "bytes32"
        },
        {
          "name": "_workerId",
          "type": "address"
        },
        {
          "name": "_responseType",
          "type": "uint8"
        },
        {
          "name": "_response",
          "type": "bool"
        }
      ],
      "name": "respondToJob",
      "outputs": [
        {
          "name": "result",
          "type": "bool"
        }
      ],
      "payable": false,
      "stateMutability": "nonpayable",
      "type": "function"
    },
    {
      "constant": false,
      "inputs": [
        {
          "name": "_jobId",
          "type": "bytes32"
        },
        {
          "name": "_workerId",
          "type": "address"
        },
        {
          "name": "_percent",
          "type": "uint8"
        }
      ],
      "name": "commitProgress",
      "outputs": [],
      "payable": false,
      "stateMutability": "nonpayable",
      "type": "function"
    },
    {
      "constant": false,
      "inputs": [
        {
          "name": "_jobId",
          "type": "bytes32"
        },
        {
          "name": "_workerId",
          "type": "address"
        },
        {
          "name": "_ipfsResults",
          "type": "bytes"
        }
      ],
      "name": "completeWork",
      "outputs": [
        {
          "name": "result",
          "type": "bool"
        }
      ],
      "payable": false,
      "stateMutability": "nonpayable",
      "type": "function"
    }
  ],
  "bytecode": "0x60806040523480156200001157600080fd5b50336000806101000a81548173ffffffffffffffffffffffffffffffffffffffff021916908373ffffffffffffffffffffffffffffffffffffffff1602179055506200006b62000071640100000000026401000000009004565b6200047c565b600060059050602060405190810160405280600160088111156200009157fe5b60ff1660ff16815250816000806008811115620000aa57fe5b60ff1660ff168152602001908152602001600020906001620000ce9291906200023f565b50604080519081016040528060026008811115620000e857fe5b60ff1660ff168152602001600360088111156200010157fe5b60ff1660ff16815250816000600160088111156200011b57fe5b60ff1660ff1681526020019081526020016000209060026200013f929190620002ed565b50606060405190810160405280600460088111156200015a57fe5b60ff1660ff168152602001600560088111156200017357fe5b60ff1660ff168152602001600260088111156200018c57fe5b60ff1660ff1681525081600060036008811115620001a657fe5b60ff1660ff168152602001908152602001600020906003620001ca9291906200039b565b50604080519081016040528060076008811115620001e457fe5b60ff1660ff16815260200160066008811115620001fd57fe5b60ff1660ff16815250816000600560088111156200021757fe5b60ff1660ff1681526020019081526020016000209060026200023b929190620002ed565b5050565b82805482825590600052602060002090601f01602090048101928215620002da5791602002820160005b83821115620002a957835183826101000a81548160ff021916908360ff160217905550926020019260010160208160000104928301926001030262000269565b8015620002d85782816101000a81549060ff0219169055600101602081600001049283019260010302620002a9565b505b509050620002e9919062000449565b5090565b82805482825590600052602060002090601f01602090048101928215620003885791602002820160005b838211156200035757835183826101000a81548160ff021916908360ff160217905550926020019260010160208160000104928301926001030262000317565b8015620003865782816101000a81549060ff021916905560010160208160000104928301926001030262000357565b505b50905062000397919062000449565b5090565b82805482825590600052602060002090601f01602090048101928215620004365791602002820160005b838211156200040557835183826101000a81548160ff021916908360ff1602179055509260200192600101602081600001049283019260010302620003c5565b8015620004345782816101000a81549060ff021916905560010160208160000104928301926001030262000405565b505b50905062000445919062000449565b5090565b6200047991905b808211156200047557600081816101000a81549060ff02191690555060010162000450565b5090565b90565b613a18806200048c6000396000f3006080604052600436106100fc576000357c0100000000000000000000000000000000000000000000000000000000900463ffffffff1680631f9ca61d1461010157806321b0908b146101e05780632b4acd86146102bf57806339d9de64146103765780633b183eb51461049257806347d9eee9146105135780634a1f8abc146105b45780634e5613c3146106015780635c2b37fa14610683578063672d98d6146106ae578063715018a6146106fb578063752f4a9c146107125780638da5cb5b1461076b578063ba0a9ef5146107c2578063c9b7b25b14610890578063ead4d679146108ee578063f21ee5c614610919578063f2fde38b1461096d575b600080fd5b34801561010d57600080fd5b5061012c600480360381019080803590602001909291905050506109b0565b6040518088600019166000191681526020018773ffffffffffffffffffffffffffffffffffffffff1673ffffffffffffffffffffffffffffffffffffffff1681526020018673ffffffffffffffffffffffffffffffffffffffff1673ffffffffffffffffffffffffffffffffffffffff16815260200185815260200184600019166000191681526020018360ff1660ff1681526020018260ff1660ff16815260200197505050505050505060405180910390f35b3480156101ec57600080fd5b5061020b60048036038101908080359060200190929190505050610a5b565b6040518088600019166000191681526020018773ffffffffffffffffffffffffffffffffffffffff1673ffffffffffffffffffffffffffffffffffffffff1681526020018673ffffffffffffffffffffffffffffffffffffffff1673ffffffffffffffffffffffffffffffffffffffff16815260200185815260200184600019166000191681526020018360ff1660ff1681526020018260ff1660ff16815260200197505050505050505060405180910390f35b3480156102cb57600080fd5b506102fb6004803603810190808035600019169060200190929190803560ff169060200190929190505050610b06565b6040518080602001828103825283818151815260200191508051906020019080838360005b8381101561033b578082015181840152602081019050610320565b50505050905090810190601f1680156103685780820380516001836020036101000a031916815260200191505b509250505060405180910390f35b34801561038257600080fd5b506103a56004803603810190808035600019169060200190929190505050610c78565b604051808873ffffffffffffffffffffffffffffffffffffffff1673ffffffffffffffffffffffffffffffffffffffff1681526020018773ffffffffffffffffffffffffffffffffffffffff1673ffffffffffffffffffffffffffffffffffffffff1681526020018681526020018560001916600019168152602001806020018460ff1660ff1681526020018360ff1660ff168152602001828103825285818151815260200191508051906020019060200280838360005b8381101561047857808201518184015260208101905061045d565b505050509050019850505050505050505060405180910390f35b34801561049e57600080fd5b506104f96004803603810190808035600019169060200190929190803573ffffffffffffffffffffffffffffffffffffffff169060200190929190803590602001908201803590602001919091929391929390505050610e4e565b604051808215151515815260200191505060405180910390f35b34801561051f57600080fd5b506105b26004803603810190808035600019169060200190929190803573ffffffffffffffffffffffffffffffffffffffff169060200190929190803573ffffffffffffffffffffffffffffffffffffffff169060200190929190803590602001908201803590602001919091929391929390803590602001909291908035600019169060200190929190505050611000565b005b3480156105c057600080fd5b506105e360048036038101908080356000191690602001909291905050506114d5565b604051808261ffff1661ffff16815260200191505060405180910390f35b34801561060d57600080fd5b506106696004803603810190808035600019169060200190929190803573ffffffffffffffffffffffffffffffffffffffff169060200190929190803560ff1690602001909291908035151590602001909291905050506114f6565b604051808215151515815260200191505060405180910390f35b34801561068f57600080fd5b50610698611647565b6040518082815260200191505060405180910390f35b3480156106ba57600080fd5b506106dd6004803603810190808035600019169060200190929190505050611654565b604051808261ffff1661ffff16815260200191505060405180910390f35b34801561070757600080fd5b50610710611675565b005b34801561071e57600080fd5b5061074d600480360381019080803561ffff169060200190929190803515159060200190929190505050611777565b60405180826000191660001916815260200191505060405180910390f35b34801561077757600080fd5b506107806117d7565b604051808273ffffffffffffffffffffffffffffffffffffffff1673ffffffffffffffffffffffffffffffffffffffff16815260200191505060405180910390f35b3480156107ce57600080fd5b506107f160048036038101908080356000191690602001909291905050506117fc565b604051808060200180602001838103835285818151815260200191508051906020019060200280838360005b8381101561083857808201518184015260208101905061081d565b50505050905001838103825284818151815260200191508051906020019060200280838360005b8381101561087a57808201518184015260208101905061085f565b5050505090500194505050505060405180910390f35b34801561089c57600080fd5b506108ec6004803603810190808035600019169060200190929190803573ffffffffffffffffffffffffffffffffffffffff169060200190929190803560ff1690602001909291905050506119b0565b005b3480156108fa57600080fd5b50610903611ba0565b6040518082815260200191505060405180910390f35b34801561092557600080fd5b50610951600480360381019080803560ff16906020019092919080359060200190929190505050611bad565b604051808260ff1660ff16815260200191505060405180910390f35b34801561097957600080fd5b506109ae600480360381019080803573ffffffffffffffffffffffffffffffffffffffff169060200190929190505050611bef565b005b6004818154811015156109bf57fe5b90600052602060002090600a02016000915090508060000154908060010160009054906101000a900473ffffffffffffffffffffffffffffffffffffffff16908060020160009054906101000a900473ffffffffffffffffffffffffffffffffffffffff16908060030154908060040154908060090160009054906101000a900460ff16908060090160019054906101000a900460ff16905087565b600281815481101515610a6a57fe5b90600052602060002090600a02016000915090508060000154908060010160009054906101000a900473ffffffffffffffffffffffffffffffffffffffff16908060020160009054906101000a900473ffffffffffffffffffffffffffffffffffffffff16908060030154908060040154908060090160009054906101000a900460ff16908060090160019054906101000a900460ff16905087565b60606000610b1384611c56565b610b69576004600160036000876000191660001916815260200190815260200160002060009054906101000a900461ffff160361ffff16815481101515610b5657fe5b90600052602060002090600a0201610bb6565b60026001806000876000191660001916815260200190815260200160002060009054906101000a900461ffff160361ffff16815481101515610ba757fe5b90600052602060002090600a02015b9050806006018360ff16815481101515610bcc57fe5b906000526020600020018054600181600116156101000203166002900480601f016020809104026020016040519081016040528092919081815260200182805460018160011615610100020316600290048015610c6a5780601f10610c3f57610100808354040283529160200191610c6a565b820191906000526020600020905b815481529060010190602001808311610c4d57829003601f168201915b505050505091505092915050565b60008060008060606000806000610c8e89611c56565b610ce45760046001600360008c6000191660001916815260200190815260200160002060009054906101000a900461ffff160361ffff16815481101515610cd157fe5b90600052602060002090600a0201610d31565b600260018060008c6000191660001916815260200190815260200160002060009054906101000a900461ffff160361ffff16815481101515610d2257fe5b90600052602060002090600a02015b90508060010160009054906101000a900473ffffffffffffffffffffffffffffffffffffffff1697508060020160009054906101000a900473ffffffffffffffffffffffffffffffffffffffff169650806003015495508060040154945080600501805480602002602001604051908101604052809291908181526020018280548015610e1357602002820191906000526020600020905b8160009054906101000a900473ffffffffffffffffffffffffffffffffffffffff1673ffffffffffffffffffffffffffffffffffffffff1681526020019060010190808311610dc9575b505050505093508060090160009054906101000a900460ff1692508060090160019054906101000a900460ff16915050919395979092949650565b6000808560056008811115610e5f57fe5b8060ff1660026001806000866000191660001916815260200190815260200160002060009054906101000a900461ffff160361ffff16815481101515610ea157fe5b90600052602060002090600a020160090160019054906101000a900460ff1660ff16141515610ecf57600080fd5b6000809054906101000a900473ffffffffffffffffffffffffffffffffffffffff1673ffffffffffffffffffffffffffffffffffffffff163373ffffffffffffffffffffffffffffffffffffffff16141515610f2a57600080fd5b610f348888611cde565b92507fffffffffffffffffffffffffffffffffffffffffffffffffffffffffffffffff8314151515610f6557600080fd5b8585600260018060008d6000191660001916815260200190815260200160002060009054906101000a900461ffff160361ffff16815481101515610fa557fe5b90600052602060002090600a020160060185815481101515610fc357fe5b906000526020600020019190610fda9291906131b3565b50610ff38888600280811115610fec57fe5b6001611df5565b9350505050949350505050565b6000806000809054906101000a900473ffffffffffffffffffffffffffffffffffffffff1673ffffffffffffffffffffffffffffffffffffffff163373ffffffffffffffffffffffffffffffffffffffff1614151561105e57600080fd5b7fffffffffffffffffffffffffffffffffffffffffffffffffffffffffffffffff61ffff1660028054905010151561109557600080fd5b6002610160604051908101604052808b6000191681526020018a73ffffffffffffffffffffffffffffffffffffffff1681526020018973ffffffffffffffffffffffffffffffffffffffff1681526020018681526020018560001916815260200188888080602002602001604051908101604052809392919081815260200183836020028082843782019150505050505081526020018888905060405190808252806020026020018201604052801561116257816020015b606081526020019060019003908161114d5790505b5081526020018888905060405190808252806020026020018201604052801561119a5781602001602082028038833980820191505090505b508152602001888890506040519080825280602002602001820160405280156111d25781602001602082028038833980820191505090505b508152602001600060ff168152602001600060088111156111ef57fe5b60ff168152509080600181540180825580915050906001820390600052602060002090600a0201600090919290919091506000820151816000019060001916905560208201518160010160006101000a81548173ffffffffffffffffffffffffffffffffffffffff021916908373ffffffffffffffffffffffffffffffffffffffff16021790555060408201518160020160006101000a81548173ffffffffffffffffffffffffffffffffffffffff021916908373ffffffffffffffffffffffffffffffffffffffff160217905550606082015181600301556080820151816004019060001916905560a08201518160050190805190602001906112f4929190613233565b5060c08201518160060190805190602001906113119291906132bd565b5060e082015181600701908051906020019061132e92919061331d565b5061010082015181600801908051906020019061134c9291906133cd565b506101208201518160090160006101000a81548160ff021916908360ff1602179055506101408201518160090160016101000a81548160ff021916908360ff160217905550505050600280549050600160008b6000191660001916815260200190815260200160002060006101000a81548161ffff021916908361ffff160217905550600260018060008c6000191660001916815260200190815260200160002060009054906101000a900461ffff160361ffff1681548110151561140d57fe5b90600052602060002090600a02019150600090505b81600701805490508110156114835742826007018281548110151561144357fe5b90600052602060002090600891828204019190066004026101000a81548163ffffffff021916908363ffffffff1602179055508080600101915050611422565b611499896001600881111561149457fe5b611ede565b88600019167fcdd8e82457800d3241f19b61393a2bbceb40e44253685afc406b2bb489c84ad360405160405180910390a2505050505050505050565b60036020528060005260406000206000915054906101000a900461ffff1681565b600084600060026001806000856000191660001916815260200190815260200160002060009054906101000a900461ffff160361ffff1681548110151561153957fe5b90600052602060002090600a020190506001600881111561155657fe5b60ff168160090160019054906101000a900460ff1660ff16148061159c57506003600881111561158257fe5b60ff168160090160019054906101000a900460ff1660ff16145b806115c95750600560088111156115af57fe5b60ff168160090160019054906101000a900460ff1660ff16145b15156115d457600080fd5b6000809054906101000a900473ffffffffffffffffffffffffffffffffffffffff1673ffffffffffffffffffffffffffffffffffffffff163373ffffffffffffffffffffffffffffffffffffffff1614151561162f57600080fd5b61163b87878787611df5565b92505050949350505050565b6000600280549050905090565b60016020528060005260406000206000915054906101000a900461ffff1681565b6000809054906101000a900473ffffffffffffffffffffffffffffffffffffffff1673ffffffffffffffffffffffffffffffffffffffff163373ffffffffffffffffffffffffffffffffffffffff161415156116d057600080fd5b6000809054906101000a900473ffffffffffffffffffffffffffffffffffffffff1673ffffffffffffffffffffffffffffffffffffffff167ff8df31144d9c2f0f6b59d69b8b98abd5459d07f2742c4df920b25aae33c6482060405160405180910390a260008060006101000a81548173ffffffffffffffffffffffffffffffffffffffff021916908373ffffffffffffffffffffffffffffffffffffffff160217905550565b600080826117a55760048461ffff1681548110151561179257fe5b90600052602060002090600a02016117c7565b60028461ffff168154811015156117b857fe5b90600052602060002090600a02015b9050806000015491505092915050565b6000809054906101000a900473ffffffffffffffffffffffffffffffffffffffff1681565b606080600061180a84611c56565b611860576004600160036000876000191660001916815260200190815260200160002060009054906101000a900461ffff160361ffff1681548110151561184d57fe5b90600052602060002090600a02016118ad565b60026001806000876000191660001916815260200190815260200160002060009054906101000a900461ffff160361ffff1681548110151561189e57fe5b90600052602060002090600a02015b90508060070180548060200260200160405190810160405280929190818152602001828054801561192957602002820191906000526020600020906000905b82829054906101000a900463ffffffff1663ffffffff16815260200190600401906020826003010492830192600103820291508084116118ec5790505b50505050509250806008018054806020026020016040519081016040528092919081815260200182805480156119a357602002820191906000526020600020906000905b82829054906101000a900460ff1615158152602001906001019060208260000104928301926001038202915080841161196d5790505b5050505050915050915091565b600083600560088111156119c057fe5b8060ff1660026001806000866000191660001916815260200190815260200160002060009054906101000a900461ffff160361ffff16815481101515611a0257fe5b90600052602060002090600a020160090160019054906101000a900460ff1660ff16141515611a3057600080fd5b6000809054906101000a900473ffffffffffffffffffffffffffffffffffffffff1673ffffffffffffffffffffffffffffffffffffffff163373ffffffffffffffffffffffffffffffffffffffff16141515611a8b57600080fd5b611a958686611cde565b92507fffffffffffffffffffffffffffffffffffffffffffffffffffffffffffffffff8314151515611ac657600080fd5b42600260018060008a6000191660001916815260200190815260200160002060009054906101000a900461ffff160361ffff16815481101515611b0557fe5b90600052602060002090600a020160070184815481101515611b2357fe5b90600052602060002090600891828204019190066004026101000a81548163ffffffff021916908363ffffffff16021790555085600019167f84d08018633e0a8a0ba434acc29166246cfe913279e254647ca8c2f24f13660785604051808260ff1660ff16815260200191505060405180910390a2505050505050565b6000600480549050905090565b600560205281600052604060002081815481101515611bc857fe5b9060005260206000209060209182820401919006915091509054906101000a900460ff1681565b6000809054906101000a900473ffffffffffffffffffffffffffffffffffffffff1673ffffffffffffffffffffffffffffffffffffffff163373ffffffffffffffffffffffffffffffffffffffff16141515611c4a57600080fd5b611c53816120c7565b50565b60008060016000846000191660001916815260200190815260200160002060009054906101000a900461ffff1661ffff16141515611c975760019050611cd9565b600060036000846000191660001916815260200190815260200160002060009054906101000a900461ffff1661ffff1614151515611cd457600080fd5b600090505b919050565b600080600060026001806000886000191660001916815260200190815260200160002060009054906101000a900461ffff160361ffff16815481101515611d2157fe5b90600052602060002090600a02019150600090505b8160050180549050811015611dc9578373ffffffffffffffffffffffffffffffffffffffff168260050182815481101515611d6d57fe5b9060005260206000200160009054906101000a900473ffffffffffffffffffffffffffffffffffffffff1673ffffffffffffffffffffffffffffffffffffffff161415611dbc57809250611ded565b8080600101915050611d36565b7fffffffffffffffffffffffffffffffffffffffffffffffffffffffffffffffff92505b505092915050565b6000611e03858585856121c1565b611e0c856123e9565b15611ed6576001905060006002811115611e2257fe5b60ff168360ff161415611e5357611e458560036008811115611e4057fe5b611ede565b611e4e856124ab565b611ed5565b60016002811115611e6057fe5b60ff168360ff161415611e9157611e838560056008811115611e7e57fe5b611ede565b611e8c856124ab565b611ed4565b600280811115611e9d57fe5b60ff168360ff161415611ece57611ec08560076008811115611ebb57fe5b611ede565b611ec9856125a3565b611ed3565b600090505b5b5b5b949350505050565b6000808383600080600080925060056000600260018060008a6000191660001916815260200190815260200160002060009054906101000a900461ffff160361ffff16815481101515611f2d57fe5b90600052602060002090600a020160090160019054906101000a900460ff1660ff1660ff1681526020019081526020016000209150600090505b8180549050811015611fc0578360ff168282815481101515611f8557fe5b90600052602060002090602091828204019190069054906101000a900460ff1660ff161415611fb357600192505b8080600101915050611f67565b60011515831515141515611fd357600080fd5b600260018060008c6000191660001916815260200190815260200160002060009054906101000a900461ffff160361ffff1681548110151561201157fe5b90600052602060002090600a020196508660090160019054906101000a900460ff169550878760090160016101000a81548160ff021916908360ff16021790555088600019167f9cb99c834b5e878ca7005d163b0fd70203dbc223d5845abe517de64a74dc5816878960090160019054906101000a900460ff16604051808360ff1660ff1681526020018260ff1660ff1681526020019250505060405180910390a26120bc89612c3a565b505050505050505050565b600073ffffffffffffffffffffffffffffffffffffffff168173ffffffffffffffffffffffffffffffffffffffff161415151561210357600080fd5b8073ffffffffffffffffffffffffffffffffffffffff166000809054906101000a900473ffffffffffffffffffffffffffffffffffffffff1673ffffffffffffffffffffffffffffffffffffffff167f8be0079c531659141344cd1fd0a4f28419497f9722a3daafe3b4186f6b6457e060405160405180910390a3806000806101000a81548173ffffffffffffffffffffffffffffffffffffffff021916908373ffffffffffffffffffffffffffffffffffffffff16021790555050565b60006121cd8585611cde565b90507fffffffffffffffffffffffffffffffffffffffffffffffffffffffffffffffff81141515156121fe57600080fd5b6000600281111561220b57fe5b60ff168360ff161415612299576001600881111561222557fe5b60ff1660026001806000896000191660001916815260200190815260200160002060009054906101000a900461ffff160361ffff1681548110151561226657fe5b90600052602060002090600a020160090160019054906101000a900460ff1660ff1614151561229457600080fd5b6123cc565b600160028111156122a657fe5b60ff168360ff16141561233457600360088111156122c057fe5b60ff1660026001806000896000191660001916815260200190815260200160002060009054906101000a900461ffff160361ffff1681548110151561230157fe5b90600052602060002090600a020160090160019054906101000a900460ff1660ff1614151561232f57600080fd5b6123cb565b60028081111561234057fe5b60ff168360ff1614156123ca576005600881111561235a57fe5b60ff1660026001806000896000191660001916815260200190815260200160002060009054906101000a900461ffff160361ffff1681548110151561239b57fe5b90600052602060002090600a020160090160019054906101000a900460ff1660ff161415156123c957600080fd5b5b5b5b6123d7858284612ea0565b6123e085612fbb565b50505050505050565b60008060006001925060026001806000876000191660001916815260200190815260200160002060009054906101000a900461ffff160361ffff1681548110151561243057fe5b90600052602060002090600a02019150600090505b81600801805490508110156124a45760011515826008018281548110151561246957fe5b90600052602060002090602091828204019190069054906101000a900460ff16151514151561249757600092505b8080600101915050612445565b5050919050565b60008060026001806000866000191660001916815260200190815260200160002060009054906101000a900461ffff160361ffff168154811015156124ec57fe5b90600052602060002090600a02019150600090505b816008018054905081101561259e576000826008018281548110151561252357fe5b90600052602060002090602091828204019190066101000a81548160ff02191690831515021790555042826007018281548110151561255e57fe5b90600052602060002090600891828204019190066004026101000a81548163ffffffff021916908363ffffffff1602179055508080600101915050612501565b505050565b600460026001806000856000191660001916815260200190815260200160002060009054906101000a900461ffff160361ffff168154811015156125e357fe5b90600052602060002090600a02019080600181540180825580915050906001820390600052602060002090600a020160009091929091909150600082015481600001906000191690556001820160009054906101000a900473ffffffffffffffffffffffffffffffffffffffff168160010160006101000a81548173ffffffffffffffffffffffffffffffffffffffff021916908373ffffffffffffffffffffffffffffffffffffffff1602179055506002820160009054906101000a900473ffffffffffffffffffffffffffffffffffffffff168160020160006101000a81548173ffffffffffffffffffffffffffffffffffffffff021916908373ffffffffffffffffffffffffffffffffffffffff1602179055506003820154816003015560048201548160040190600019169055600582018160050190805461272a929190613473565b5060068201816006019080546127419291906134c5565b506007820181600701908054612758929190613535565b50600882018160080190805461276f929190613595565b506009820160009054906101000a900460ff168160090160006101000a81548160ff021916908360ff1602179055506009820160019054906101000a900460ff168160090160016101000a81548160ff021916908360ff16021790555050505060048054905060ff1660036000836000191660001916815260200190815260200160002060006101000a81548161ffff021916908361ffff16021790555060028054905060016000836000191660001916815260200190815260200160002060009054906101000a900461ffff1661ffff16141515612af457600260016002805490500381548110151561285f57fe5b90600052602060002090600a020160026001806000856000191660001916815260200190815260200160002060009054906101000a900461ffff160361ffff168154811015156128ab57fe5b90600052602060002090600a0201600082015481600001906000191690556001820160009054906101000a900473ffffffffffffffffffffffffffffffffffffffff168160010160006101000a81548173ffffffffffffffffffffffffffffffffffffffff021916908373ffffffffffffffffffffffffffffffffffffffff1602179055506002820160009054906101000a900473ffffffffffffffffffffffffffffffffffffffff168160020160006101000a81548173ffffffffffffffffffffffffffffffffffffffff021916908373ffffffffffffffffffffffffffffffffffffffff160217905550600382015481600301556004820154816004019060001916905560058201816005019080546129c7929190613473565b5060068201816006019080546129de9291906134c5565b5060078201816007019080546129f5929190613535565b506008820181600801908054612a0c929190613595565b506009820160009054906101000a900460ff168160090160006101000a81548160ff021916908360ff1602179055506009820160019054906101000a900460ff168160090160016101000a81548160ff021916908360ff16021790555090505060016000826000191660001916815260200190815260200160002060009054906101000a900461ffff16600160006002600160028054905003815481101515612ab157fe5b90600052602060002090600a0201600001546000191660001916815260200190815260200160002060006101000a81548161ffff021916908361ffff1602179055505b6002600160028054905003815481101515612b0b57fe5b90600052602060002090600a02016000808201600090556001820160006101000a81549073ffffffffffffffffffffffffffffffffffffffff02191690556002820160006101000a81549073ffffffffffffffffffffffffffffffffffffffff021916905560038201600090556004820160009055600582016000612b9091906135f5565b600682016000612ba09190613616565b600782016000612bb09190613637565b600882016000612bc0919061365f565b6009820160006101000a81549060ff02191690556009820160016101000a81549060ff02191690555050600060016000836000191660001916815260200190815260200160002060006101000a81548161ffff021916908361ffff1602179055506002805480919060019003612c369190613687565b5050565b600060026001806000856000191660001916815260200190815260200160002060009054906101000a900461ffff160361ffff16815481101515612c7a57fe5b90600052602060002090600a020160090160019054906101000a900460ff16905060026008811115612ca857fe5b60ff168160ff161415612ceb5781600019167f5261c4ecde326f171b514c548529aa2219b22fedf2fa5640ae6f7d939aaefbf860405160405180910390a2612e9c565b60036008811115612cf857fe5b60ff168160ff161415612d3b5781600019167f664052ccd6bc90c161d5b3a6ed2bff308e2bf01e52fbc112e7a8d445bb9c66ee60405160405180910390a2612e9b565b60046008811115612d4857fe5b60ff168160ff161415612d8b5781600019167fee170c67bd88e14fcfccdcf7817ddb732cb1a466d0c333f4642571d1282556eb60405160405180910390a2612e9a565b60056008811115612d9857fe5b60ff168160ff161415612ddb5781600019167f3010926e292de172661e49071a9be4cb18f63877dffcc78013e349175f5b03b260405160405180910390a2612e99565b60066008811115612de857fe5b60ff168160ff161415612e3b5781600019167f439c5ac734864869b402ad7298724e0154a172f98a32de5c8e877b3f234dc5d76001604051808215151515815260200191505060405180910390a2612e98565b60076008811115612e4857fe5b60ff168160ff161415612e975781600019167f439c5ac734864869b402ad7298724e0154a172f98a32de5c8e877b3f234dc5d76000604051808215151515815260200191505060405180910390a25b5b5b5b5b5b5050565b8060026001806000876000191660001916815260200190815260200160002060009054906101000a900461ffff160361ffff16815481101515612edf57fe5b90600052602060002090600a020160080183815481101515612efd57fe5b90600052602060002090602091828204019190066101000a81548160ff0219169083151502179055504260026001806000876000191660001916815260200190815260200160002060009054906101000a900461ffff160361ffff16815481101515612f6557fe5b90600052602060002090600a020160070183815481101515612f8357fe5b90600052602060002090600891828204019190066004026101000a81548163ffffffff021916908363ffffffff160217905550505050565b60008060008084600060026001806000856000191660001916815260200190815260200160002060009054906101000a900461ffff160361ffff1681548110151561300257fe5b90600052602060002090600a020190506001600881111561301f57fe5b60ff168160090160019054906101000a900460ff1660ff16148061306557506003600881111561304b57fe5b60ff168160090160019054906101000a900460ff1660ff16145b8061309257506005600881111561307857fe5b60ff168160090160019054906101000a900460ff1660ff16145b151561309d57600080fd5b600260018060008a6000191660001916815260200190815260200160002060009054906101000a900461ffff160361ffff168154811015156130db57fe5b90600052602060002090600a02019350600092505b83600701805490508310156131aa57610708846007018481548110151561311357fe5b90600052602060002090600891828204019190066004029054906101000a900463ffffffff164260ff160363ffffffff16111561319d57836005018381548110151561315b57fe5b9060005260206000200160009054906101000a900473ffffffffffffffffffffffffffffffffffffffff1695508360090160019054906101000a900460ff1694505b82806001019350506130f0565b50505050915091565b828054600181600116156101000203166002900490600052602060002090601f016020900481019282601f106131f457803560ff1916838001178555613222565b82800160010185558215613222579182015b82811115613221578235825591602001919060010190613206565b5b50905061322f91906136b9565b5090565b8280548282559060005260206000209081019282156132ac579160200282015b828111156132ab5782518260006101000a81548173ffffffffffffffffffffffffffffffffffffffff021916908373ffffffffffffffffffffffffffffffffffffffff16021790555091602001919060010190613253565b5b5090506132b991906136de565b5090565b82805482825590600052602060002090810192821561330c579160200282015b8281111561330b5782518290805190602001906132fb929190613721565b50916020019190600101906132dd565b5b50905061331991906137a1565b5090565b828054828255906000526020600020906007016008900481019282156133bc5791602002820160005b8382111561338a57835183826101000a81548163ffffffff021916908363ffffffff1602179055509260200192600401602081600301049283019260010302613346565b80156133ba5782816101000a81549063ffffffff021916905560040160208160030104928301926001030261338a565b505b5090506133c991906137cd565b5090565b82805482825590600052602060002090601f016020900481019282156134625791602002820160005b8382111561343357835183826101000a81548160ff02191690831515021790555092602001926001016020816000010492830192600103026133f6565b80156134605782816101000a81549060ff0219169055600101602081600001049283019260010302613433565b505b50905061346f9190613800565b5090565b8280548282559060005260206000209081019282156134b45760005260206000209182015b828111156134b3578254825591600101919060010190613498565b5b5090506134c191906136de565b5090565b8280548282559060005260206000209081019282156135245760005260206000209182015b828111156135235782829080546001816001161561010002031660029004613513929190613830565b50916001019190600101906134ea565b5b50905061353191906137a1565b5090565b82805482825590600052602060002090600701600890048101928215613584576000526020600020916007016008900482015b82811115613583578254825591600101919060010190613568565b5b50905061359191906137cd565b5090565b82805482825590600052602060002090601f016020900481019282156135e457600052602060002091601f016020900482015b828111156135e35782548255916001019190600101906135c8565b5b5090506135f19190613800565b5090565b508054600082559060005260206000209081019061361391906136b9565b50565b508054600082559060005260206000209081019061363491906137a1565b50565b50805460008255600701600890049060005260206000209081019061365c91906136b9565b50565b50805460008255601f01602090049060005260206000209081019061368491906136b9565b50565b8154818355818111156136b457600a0281600a0283600052602060002091820191016136b391906138b7565b5b505050565b6136db91905b808211156136d75760008160009055506001016136bf565b5090565b90565b61371e91905b8082111561371a57600081816101000a81549073ffffffffffffffffffffffffffffffffffffffff0219169055506001016136e4565b5090565b90565b828054600181600116156101000203166002900490600052602060002090601f016020900481019282601f1061376257805160ff1916838001178555613790565b82800160010185558215613790579182015b8281111561378f578251825591602001919060010190613774565b5b50905061379d91906136b9565b5090565b6137ca91905b808211156137c657600081816137bd91906139a4565b506001016137a7565b5090565b90565b6137fd91905b808211156137f957600081816101000a81549063ffffffff0219169055506001016137d3565b5090565b90565b61382d91905b8082111561382957600081816101000a81549060ff021916905550600101613806565b5090565b90565b828054600181600116156101000203166002900490600052602060002090601f016020900481019282601f1061386957805485556138a6565b828001600101855582156138a657600052602060002091601f016020900482015b828111156138a557825482559160010191906001019061388a565b5b5090506138b391906136b9565b5090565b6139a191905b8082111561399d576000808201600090556001820160006101000a81549073ffffffffffffffffffffffffffffffffffffffff02191690556002820160006101000a81549073ffffffffffffffffffffffffffffffffffffffff02191690556003820160009055600482016000905560058201600061393c91906135f5565b60068201600061394c9190613616565b60078201600061395c9190613637565b60088201600061396c919061365f565b6009820160006101000a81549060ff02191690556009820160016101000a81549060ff021916905550600a016138bd565b5090565b90565b50805460018160011615610100020316600290046000825580601f106139ca57506139e9565b601f0160209004906000526020600020908101906139e891906136b9565b5b505600a165627a7a72305820fb82edf547314bc12a6e34d67252f8ddc0031ff0a31139b6109311e4a2585d7a0029",
  "source": "pragma solidity ^0.4.24;\r\n\r\nimport \"./ICognitiveJobController.sol\";\r\n\r\n\r\n// Contract implement main cognitive job functionality\r\ncontract CognitiveJobController is ICognitiveJobController{\r\n\r\n    /*******************************************************************************************************************\r\n     * ## Storage\r\n     */\r\n\r\n    enum WorkerResponses {\r\n        Assignment,\r\n        DataValidation,\r\n        Result\r\n    }\r\n\r\n    enum States {\r\n        Uninitialized,\r\n        GatheringWorkers,\r\n        InsufficientWorkers,\r\n        DataValidation,\r\n        InvalidData,\r\n        Cognition,\r\n        PartialResult,\r\n        Completed,\r\n        Destroyed\r\n    }\r\n\r\n    struct CognitiveJob {\r\n        bytes32 id;\r\n        address kernel;\r\n        address dataset;\r\n        uint256 complexity; //todo find better name\r\n        bytes32 description;\r\n        address[] activeWorkers;\r\n        bytes[] ipfsResults;\r\n        uint32[] responseTimestamps; // time of each worker response\r\n        bool[] responseFlags;\r\n        uint8 progress;\r\n        uint8 state;\r\n    }\r\n\r\n    /// @dev Indexes (+1) of active (=running) cognitive jobs in `activeJobs` mapped from their creators\r\n    /// (owners of the corresponding cognitive job contracts). Zero values corresponds to no active job,\r\n    /// one  to the one with index 0 and so forth.\r\n    mapping(bytes32 => uint16) public activeJobsIndexes;\r\n\r\n    /// @dev List of all active cognitive jobs\r\n    CognitiveJob[] public activeJobs;\r\n\r\n    mapping(bytes32 => uint16) public completedJobsIndexes;\r\n\r\n    /// @dev List of all completed cognitive jobs\r\n    CognitiveJob[] public completedJobs;\r\n\r\n    ///Table of all possible state transitions\r\n    mapping(uint8 => uint8[]) public transitionTable;\r\n\r\n    //        uint8 WORKER_TIMEOUT = 30 minutes;\r\n\r\n    constructor() public {\r\n        //state machine initialization should be performed only once with filling transitionTable\r\n        _initStateMachine();\r\n    }\r\n\r\n    /******************************************************************************************************************\r\n    Public functions\r\n    */\r\n\r\n    /// @dev Returns total count of active jobs\r\n    function activeJobsCount() view public returns (uint256) {\r\n        return activeJobs.length;\r\n    }\r\n\r\n    /// @dev Returns total count of active jobs\r\n    function completedJobsCount() view public returns (uint256) {\r\n        return completedJobs.length;\r\n    }\r\n\r\n    function getJobId(uint16 _index, bool _isActive)\r\n    view\r\n    public\r\n    returns(bytes32){\r\n        CognitiveJob storage job = _isActive ?\r\n            activeJobs[_index]\r\n            : completedJobs[_index];\r\n        return job.id;\r\n    }\r\n\r\n    function getCognitiveJobDetails(bytes32 _jobId)\r\n    external\r\n    view\r\n    returns (\r\n        address kernel,\r\n        address dataset,\r\n        uint256 complexity,\r\n        bytes32 description,\r\n        address[] activeWorkers,\r\n        uint8 progress,\r\n        uint8 state\r\n    ) {\r\n        CognitiveJob storage job = isActiveJob(_jobId) ?\r\n            activeJobs[activeJobsIndexes[_jobId] - 1]\r\n            : completedJobs[completedJobsIndexes[_jobId] - 1];\r\n        kernel = job.kernel;\r\n        dataset = job.dataset;\r\n        complexity = job.complexity;\r\n        description = job.description;\r\n        activeWorkers = job.activeWorkers;\r\n        progress = job.progress;\r\n        state = job.state;\r\n    }\r\n\r\n    function getCognitiveJobResults(\r\n        bytes32 _jobId,\r\n        uint8 _index //index of worker, whose results should be returned\r\n    )\r\n    public\r\n    view\r\n    returns(\r\n        bytes ipfsResults\r\n    ) {\r\n        CognitiveJob storage job = isActiveJob(_jobId) ?\r\n            activeJobs[activeJobsIndexes[_jobId] - 1]\r\n            : completedJobs[completedJobsIndexes[_jobId] - 1];\r\n        ipfsResults = job.ipfsResults[_index];\r\n    }\r\n\r\n    function getCognitiveJobServiceInfo(\r\n        bytes32 _jobId\r\n    )\r\n    public\r\n    view\r\n    returns(\r\n        uint32[] responseTimestamps,\r\n        bool[] responseFlags\r\n    ) {\r\n        CognitiveJob storage job = isActiveJob(_jobId) ?\r\n            activeJobs[activeJobsIndexes[_jobId] - 1]\r\n            : completedJobs[completedJobsIndexes[_jobId] - 1];\r\n        responseTimestamps = job.responseTimestamps;\r\n        responseFlags = job.responseFlags;\r\n    }\r\n\r\n    /******************************************************************************************************************\r\n    External functions (Only Pandora by interface)\r\n    */\r\n    function createCognitiveJob (\r\n        bytes32 _id,\r\n        address _kernel,\r\n        address _dataset,\r\n        address[] _assignedWorkers,\r\n        uint256 _complexity,\r\n        bytes32 _description\r\n    )\r\n    onlyOwner()\r\n    external {\r\n        // The created job must fit into uint16 size\r\n        require(activeJobs.length < uint16(-1));\r\n\r\n        activeJobs.push(CognitiveJob({\r\n            id: _id,\r\n            kernel: _kernel,\r\n            dataset: _dataset,\r\n            complexity: _complexity,\r\n            description: _description,\r\n            activeWorkers: _assignedWorkers,\r\n            ipfsResults: new bytes[](_assignedWorkers.length),\r\n            responseTimestamps: new uint32[](_assignedWorkers.length),\r\n            responseFlags: new bool[](_assignedWorkers.length),\r\n            progress: 0,\r\n            state: uint8(States.Uninitialized)\r\n            })\r\n        );\r\n        // Add to addresses map\r\n        activeJobsIndexes[_id] = uint16(activeJobs.length);\r\n\r\n        CognitiveJob storage job = activeJobs[activeJobsIndexes[_id] - 1];\r\n        // Init timestamps\r\n        for (uint256 i = 0; i < job.responseTimestamps.length; i++) {\r\n            job.responseTimestamps[i] = uint32(block.timestamp);\r\n        }\r\n        _transitionToState( _id, uint8(States.GatheringWorkers));\r\n        emit WorkersUpdated(_id);\r\n    }\r\n\r\n    function respondToJob(\r\n        bytes32 _jobId,\r\n        address _workerId,\r\n        uint8 _responseType,\r\n        bool _response)\r\n    requireActiveStates(_jobId)\r\n    onlyOwner()\r\n    external\r\n    returns (bool result)\r\n    {\r\n        return _onWorkerResponse(_jobId, _workerId, _responseType, _response);\r\n    }\r\n\r\n    //should be called for responseTimestamp refresh after actual progress change in workerNode\r\n    //todo implement requirement of new progress > current progress in workerController in new v.\r\n    function commitProgress(\r\n        bytes32 _jobId,\r\n        address _workerId,\r\n        uint8 _percent)\r\n    requireState(_jobId, uint8(States.Cognition))\r\n    onlyOwner()\r\n    external {\r\n        //todo check active worker with workerController\r\n        uint256 workerIndex = _getWorkerIndex( _jobId, _workerId);\r\n        require(workerIndex != uint256(-1)); //worker is computing current job\r\n        activeJobs[activeJobsIndexes[_jobId] - 1].responseTimestamps[workerIndex] = uint32(block.timestamp);\r\n        emit CognitionProgressed(_jobId, _percent);\r\n    }\r\n\r\n    /// @notice should be called with provided results\r\n    function completeWork(\r\n        bytes32 _jobId,\r\n        address _workerId,\r\n        bytes _ipfsResults)\r\n    requireState(_jobId, uint8(States.Cognition))\r\n    onlyOwner()\r\n    external\r\n    returns (\r\n        bool result // true - if all workers have submitted result\r\n    ){\r\n        uint256 workerIndex = _getWorkerIndex( _jobId, _workerId);\r\n        require(workerIndex != uint256(-1)); //worker is computing current job\r\n\r\n        activeJobs[activeJobsIndexes[_jobId] - 1].ipfsResults[workerIndex] = _ipfsResults;\r\n        result = _onWorkerResponse( _jobId, _workerId, uint8(WorkerResponses.Result), true);\r\n    }\r\n\r\n    //    function reportOfflineWorker(IWorkerNode reported) payable external requireActiveStates;\r\n    //todo should be implemented in workerController in upcoming version\r\n\r\n    /******************************************************************************************************************\r\n    Private functions\r\n    */\r\n\r\n    /// @dev Could be called from manager with two types of response - Assignment and DataValidation\r\n    function _onWorkerResponse(\r\n        bytes32 _jobId,\r\n        address _workerId,\r\n        uint8 _responseType,\r\n        bool _response)\r\n    private\r\n    returns (bool result)\r\n    {\r\n        _checkResponse( _jobId, _workerId, _responseType, _response);\r\n        // Transition to next state when all workers have responded\r\n        if (_isAllWorkersResponded( _jobId)) {\r\n            result = true;\r\n            if (_responseType == uint8(WorkerResponses.Assignment)) {\r\n                _transitionToState( _jobId, uint8(States.DataValidation));\r\n                //todo implement process decline, with validation in new v.\r\n                _resetAllResponses( _jobId);\r\n            } else if (_responseType == uint8(WorkerResponses.DataValidation)) {\r\n                _transitionToState( _jobId, uint8(States.Cognition));\r\n                //todo implement process decline, with validation in new v.\r\n                _resetAllResponses( _jobId);\r\n            } else if (_responseType == uint8(WorkerResponses.Result)) {\r\n                _transitionToState( _jobId, uint8(States.Completed));\r\n                _onJobComplete(_jobId); // move active job to completed ones\r\n            } else {\r\n                result = false; //not all workers responded\r\n            }\r\n        }\r\n    }\r\n\r\n    ///@dev Checks is worker actually computing current job, then updates response's flag and timestamp\r\n    function _checkResponse(\r\n        bytes32 _jobId,\r\n        address _workerId,\r\n        uint8 _responseType,\r\n        bool _response)\r\n    private {\r\n        uint256 workerIndex = _getWorkerIndex( _jobId, _workerId);\r\n        require(workerIndex != uint256(-1)); //worker is computing current job\r\n\r\n        if (_responseType == uint8(WorkerResponses.Assignment)) {\r\n            require(activeJobs[activeJobsIndexes[_jobId] - 1].state == uint8(States.GatheringWorkers));\r\n        } else if (_responseType == uint8(WorkerResponses.DataValidation)) {\r\n            require(activeJobs[activeJobsIndexes[_jobId] - 1].state == uint8(States.DataValidation));\r\n        } else if (_responseType == uint8(WorkerResponses.Result)) {\r\n            require(activeJobs[activeJobsIndexes[_jobId] - 1].state == uint8(States.Cognition));\r\n        }\r\n\r\n        //todo implement penalties\r\n        _updateResponse( _jobId, workerIndex, _response);\r\n        _trackOfflineWorkers( _jobId);\r\n    }\r\n\r\n    function _getWorkerIndex(\r\n        bytes32 _jobId,\r\n        address _workerId)\r\n    private\r\n    view\r\n    returns (\r\n        uint256\r\n    ) {\r\n        CognitiveJob storage job = activeJobs[activeJobsIndexes[_jobId] - 1];\r\n        for (uint256 i = 0; i < job.activeWorkers.length; i++) {\r\n            if (job.activeWorkers[i] == _workerId) {\r\n                return i;\r\n            }\r\n        }\r\n        return uint256(-1);\r\n    }\r\n\r\n    function _isAllWorkersResponded(\r\n        bytes32 _jobId)\r\n    private\r\n    view\r\n    returns (\r\n        bool responded\r\n    ) {\r\n        responded = true;\r\n        CognitiveJob storage job = activeJobs[activeJobsIndexes[_jobId] - 1];\r\n        for (uint256 i = 0; i < job.responseFlags.length; i++) {\r\n            if (job.responseFlags[i] != true) {\r\n                responded = false;\r\n            }\r\n        }\r\n    }\r\n\r\n    function _updateResponse(\r\n        bytes32 _jobId,\r\n        uint256 _workerIndex,\r\n        bool _response)\r\n    private {\r\n        activeJobs[activeJobsIndexes[_jobId] - 1].responseFlags[_workerIndex] = _response;\r\n        activeJobs[activeJobsIndexes[_jobId] - 1].responseTimestamps[_workerIndex] = uint32(block.timestamp);\r\n    }\r\n\r\n    ///@dev Reset all response flags and update all timestamps\r\n    function _resetAllResponses(\r\n        bytes32 _jobId)\r\n    private {\r\n        CognitiveJob storage job = activeJobs[activeJobsIndexes[_jobId] - 1];\r\n        for (uint256 i = 0; i < job.responseFlags.length; i++) {\r\n            job.responseFlags[i] = false;\r\n            job.responseTimestamps[i] = uint32(block.timestamp);\r\n        }\r\n    }\r\n\r\n    //todo provide listener and handle guilty worker and job state in manager, so it could penaltize worker\r\n    function _trackOfflineWorkers(\r\n        bytes32 _jobId)\r\n    requireActiveStates( _jobId)\r\n    internal\r\n    returns (\r\n        address guiltyWorker,\r\n        uint8 jobState\r\n    ){\r\n        CognitiveJob storage job = activeJobs[activeJobsIndexes[_jobId] - 1];\r\n        for (uint256 i = 0; i < job.responseTimestamps.length; i++) {\r\n            if (uint8(block.timestamp) - job.responseTimestamps[i] > 30 minutes) {\r\n                guiltyWorker = job.activeWorkers[i];\r\n                jobState = job.state;\r\n            }\r\n        }\r\n    }\r\n\r\n    function _onJobComplete(\r\n        bytes32 _jobId)\r\n    private\r\n    {\r\n        completedJobs.push(activeJobs[activeJobsIndexes[_jobId] - 1]);\r\n        completedJobsIndexes[_jobId] = uint8(completedJobs.length);\r\n\r\n        if (activeJobsIndexes[_jobId] != activeJobs.length) {\r\n            activeJobs[activeJobsIndexes[_jobId] - 1] = activeJobs[activeJobs.length - 1];\r\n            activeJobsIndexes[activeJobs[activeJobs.length - 1].id] = activeJobsIndexes[_jobId];\r\n        }\r\n        delete activeJobs[activeJobs.length - 1];\r\n        activeJobsIndexes[_jobId] = 0;\r\n        activeJobs.length--;\r\n    }\r\n\r\n    /// @dev Checks that job with given id is active or not (tx will fail if job is not existed)\r\n    function isActiveJob(\r\n        bytes32 _jobId\r\n    )\r\n    view\r\n    private\r\n    returns (\r\n        bool\r\n    ) {\r\n        if (activeJobsIndexes[_jobId] != 0) {\r\n            return true;\r\n        } else {\r\n            require(completedJobsIndexes[_jobId] != 0);\r\n            return false;\r\n        }\r\n    }\r\n\r\n    /******************************************************************************************************************\r\n    State machine implementation\r\n    */\r\n\r\n    modifier requireActiveStates(\r\n        bytes32 _jobId)\r\n    {\r\n        CognitiveJob storage job = activeJobs[activeJobsIndexes[_jobId] - 1];\r\n        require(\r\n            job.state == uint8(States.GatheringWorkers) ||\r\n            job.state == uint8(States.DataValidation) ||\r\n            job.state == uint8(States.Cognition)\r\n        );\r\n        _;\r\n    }\r\n\r\n    modifier requireState(\r\n        bytes32 _jobId,\r\n        uint8 requiredState\r\n    ) {\r\n        require(activeJobs[activeJobsIndexes[_jobId] - 1].state == requiredState);\r\n        _;\r\n    }\r\n\r\n    modifier requireAllowedTransition(\r\n        bytes32 _jobId,\r\n        uint8 _newState\r\n    ) {\r\n        // Checking if the state transition is allowed\r\n        bool transitionAllowed = false;\r\n        uint8[] storage allowedStates =\r\n            transitionTable[uint8(activeJobs[activeJobsIndexes[_jobId] - 1].state)];\r\n        for (uint no = 0; no < allowedStates.length; no++) {\r\n            if (allowedStates[no] == _newState) {\r\n                transitionAllowed = true;\r\n            }\r\n        }\r\n        require(transitionAllowed == true);\r\n        _;\r\n    }\r\n\r\n    function _transitionToState(\r\n        bytes32 _jobId,\r\n        uint8 _newState)\r\n    requireAllowedTransition( _jobId, _newState)\r\n    private\r\n    {\r\n        CognitiveJob storage job = activeJobs[activeJobsIndexes[_jobId] - 1];\r\n        uint8 oldState = job.state;\r\n        job.state = _newState;\r\n        emit JobStateChanged(_jobId, oldState, job.state);\r\n        _fireStateEvent(_jobId);\r\n    }\r\n\r\n    //Fill table of possible state transitions\r\n    function _initStateMachine()\r\n    private {\r\n        mapping(uint8 => uint8[]) transitions = transitionTable;\r\n        transitions[uint8(States.Uninitialized)] =\r\n            [uint8(States.GatheringWorkers)];\r\n        transitions[uint8(States.GatheringWorkers)] =\r\n            [uint8(States.InsufficientWorkers), uint8(States.DataValidation)];\r\n        transitions[uint8(States.DataValidation)] =\r\n            [uint8(States.InvalidData), uint8(States.Cognition), uint8(States.InsufficientWorkers)];\r\n        transitions[uint8(States.Cognition)] =\r\n            [uint8(States.Completed), uint8(States.PartialResult)];\r\n    }\r\n\r\n    function _fireStateEvent(\r\n        bytes32 _jobId)\r\n    private {\r\n        uint8 state = activeJobs[activeJobsIndexes[_jobId] - 1].state;\r\n        if (state == uint8(States.InsufficientWorkers)) {\r\n            emit WorkersNotFound(_jobId);\r\n            //_onJobComplete(_jobId); //todo refactor with queue\r\n        } else if (state == uint8(States.DataValidation)) {\r\n            emit DataValidationStarted(_jobId);\r\n        } else if (state == uint8(States.InvalidData)) {\r\n            emit DataValidationFailed(_jobId);\r\n            //_cleanStorage(); //todo refactor\r\n        } else if (state == uint8(States.Cognition)) {\r\n            emit CognitionStarted(_jobId);\r\n        } else if (state == uint8(States.PartialResult)) {\r\n            emit CognitionCompleted(_jobId, true);\r\n        } else if (state == uint8(States.Completed)) {\r\n            emit CognitionCompleted(_jobId, false);\r\n        }\r\n    }\r\n}\r\n",
  "sourcePath": "G:\\PROJECTS\\Pandora\\pyrrha-consensus\\contracts\\pandora\\managers\\CognitiveJobController.sol",
  "compiler": {
    "name": "solc",
    "version": "0.4.24+commit.e67f0147.Emscripten.clang"
  },
  "schemaVersion": "2.0.1",
  "updatedAt": "2018-08-10T20:55:45.439Z"
}