{
  "contractName": "CognitiveJobManager",
  "abi": [
    {
      "constant": true,
      "inputs": [],
      "name": "workerNodesCount",
      "outputs": [
        {
          "name": "",
          "type": "uint256"
        }
      ],
      "payable": false,
      "stateMutability": "view",
      "type": "function"
    },
    {
      "constant": false,
      "inputs": [
        {
          "name": "_workerOwner",
          "type": "address"
        }
      ],
      "name": "whitelistWorkerOwner",
      "outputs": [],
      "payable": false,
      "stateMutability": "nonpayable",
      "type": "function"
    },
    {
      "constant": true,
      "inputs": [],
      "name": "initialized",
      "outputs": [
        {
          "name": "",
          "type": "bool"
        }
      ],
      "payable": false,
      "stateMutability": "view",
      "type": "function"
    },
    {
      "constant": true,
      "inputs": [
        {
          "name": "",
          "type": "uint256"
        }
      ],
      "name": "workerNodes",
      "outputs": [
        {
          "name": "",
          "type": "address"
        }
      ],
      "payable": false,
      "stateMutability": "view",
      "type": "function"
    },
    {
      "constant": true,
      "inputs": [],
      "name": "RESULT_CODE_JOB_CREATED",
      "outputs": [
        {
          "name": "",
          "type": "uint8"
        }
      ],
      "payable": false,
      "stateMutability": "view",
      "type": "function"
    },
    {
      "constant": true,
      "inputs": [],
      "name": "jobController",
      "outputs": [
        {
          "name": "",
          "type": "address"
        }
      ],
      "payable": false,
      "stateMutability": "view",
      "type": "function"
    },
    {
      "constant": true,
      "inputs": [],
      "name": "economicController",
      "outputs": [
        {
          "name": "",
          "type": "address"
        }
      ],
      "payable": false,
      "stateMutability": "view",
      "type": "function"
    },
    {
      "constant": false,
      "inputs": [
        {
          "name": "_guiltyWorker",
          "type": "address"
        },
        {
          "name": "_reason",
          "type": "uint8"
        }
      ],
      "name": "penaltizeWorkerNode",
      "outputs": [],
      "payable": false,
      "stateMutability": "nonpayable",
      "type": "function"
    },
    {
      "constant": false,
      "inputs": [
        {
          "name": "computingPrice",
          "type": "uint256"
        }
      ],
      "name": "createWorkerNode",
      "outputs": [
        {
          "name": "",
          "type": "address"
        }
      ],
      "payable": false,
      "stateMutability": "nonpayable",
      "type": "function"
    },
    {
      "constant": true,
      "inputs": [
        {
          "name": "",
          "type": "address"
        }
      ],
      "name": "workerNodeOwners",
      "outputs": [
        {
          "name": "",
          "type": "bool"
        }
      ],
      "payable": false,
      "stateMutability": "view",
      "type": "function"
    },
    {
      "constant": false,
      "inputs": [],
      "name": "renounceOwnership",
      "outputs": [],
      "payable": false,
      "stateMutability": "nonpayable",
      "type": "function"
    },
    {
      "constant": false,
      "inputs": [
        {
          "name": "_workerOwner",
          "type": "address"
        }
      ],
      "name": "blacklistWorkerOwner",
      "outputs": [],
      "payable": false,
      "stateMutability": "nonpayable",
      "type": "function"
    },
    {
      "constant": false,
      "inputs": [],
      "name": "initialize",
      "outputs": [],
      "payable": false,
      "stateMutability": "nonpayable",
      "type": "function"
    },
    {
      "constant": true,
      "inputs": [],
      "name": "RESULT_CODE_ADD_TO_QUEUE",
      "outputs": [
        {
          "name": "",
          "type": "uint8"
        }
      ],
      "payable": false,
      "stateMutability": "view",
      "type": "function"
    },
    {
      "constant": true,
      "inputs": [],
      "name": "owner",
      "outputs": [
        {
          "name": "",
          "type": "address"
        }
      ],
      "payable": false,
      "stateMutability": "view",
      "type": "function"
    },
    {
      "constant": true,
      "inputs": [],
      "name": "isOwner",
      "outputs": [
        {
          "name": "",
          "type": "bool"
        }
      ],
      "payable": false,
      "stateMutability": "view",
      "type": "function"
    },
    {
      "constant": false,
      "inputs": [
        {
          "name": "_workerNode",
          "type": "address"
        }
      ],
      "name": "destroyWorkerNode",
      "outputs": [],
      "payable": false,
      "stateMutability": "nonpayable",
      "type": "function"
    },
    {
      "constant": true,
      "inputs": [],
      "name": "REQUIRED_DEPOSIT",
      "outputs": [
        {
          "name": "",
          "type": "uint256"
        }
      ],
      "payable": false,
      "stateMutability": "view",
      "type": "function"
    },
    {
      "constant": true,
      "inputs": [],
      "name": "reputation",
      "outputs": [
        {
          "name": "",
          "type": "address"
        }
      ],
      "payable": false,
      "stateMutability": "view",
      "type": "function"
    },
    {
      "constant": false,
      "inputs": [
        {
          "name": "newOwner",
          "type": "address"
        }
      ],
      "name": "transferOwnership",
      "outputs": [],
      "payable": false,
      "stateMutability": "nonpayable",
      "type": "function"
    },
    {
      "constant": true,
      "inputs": [],
      "name": "panToken",
      "outputs": [
        {
          "name": "",
          "type": "address"
        }
      ],
      "payable": false,
      "stateMutability": "view",
      "type": "function"
    },
    {
      "constant": true,
      "inputs": [],
      "name": "workerNodeFactory",
      "outputs": [
        {
          "name": "",
          "type": "address"
        }
      ],
      "payable": false,
      "stateMutability": "view",
      "type": "function"
    },
    {
      "constant": true,
      "inputs": [
        {
          "name": "",
          "type": "address"
        }
      ],
      "name": "deposits",
      "outputs": [
        {
          "name": "",
          "type": "uint256"
        }
      ],
      "payable": false,
      "stateMutability": "view",
      "type": "function"
    },
    {
      "constant": true,
      "inputs": [
        {
          "name": "",
          "type": "address"
        }
      ],
      "name": "workerAddresses",
      "outputs": [
        {
          "name": "",
          "type": "uint16"
        }
      ],
      "payable": false,
      "stateMutability": "view",
      "type": "function"
    },
    {
      "inputs": [
        {
          "name": "_jobController",
          "type": "address"
        },
        {
          "name": "_economicController",
          "type": "address"
        },
        {
          "name": "_nodeFactory",
          "type": "address"
        },
        {
          "name": "_reputation",
          "type": "address"
        },
        {
          "name": "_pan",
          "type": "address"
        }
      ],
      "payable": false,
      "stateMutability": "nonpayable",
      "type": "constructor"
    },
    {
      "anonymous": false,
      "inputs": [
        {
          "indexed": false,
          "name": "jobId",
          "type": "bytes32"
        }
      ],
      "name": "CognitiveJobCreated",
      "type": "event"
    },
    {
      "anonymous": false,
      "inputs": [
        {
          "indexed": false,
          "name": "jobId",
          "type": "bytes32"
        }
      ],
      "name": "CognitiveJobQueued",
      "type": "event"
    },
    {
      "anonymous": false,
      "inputs": [
        {
          "indexed": false,
          "name": "worker",
          "type": "address"
        }
      ],
      "name": "Debug",
      "type": "event"
    },
    {
      "anonymous": false,
      "inputs": [
        {
          "indexed": false,
          "name": "workerNode",
          "type": "address"
        }
      ],
      "name": "WorkerNodeCreated",
      "type": "event"
    },
    {
      "anonymous": false,
      "inputs": [
        {
          "indexed": false,
          "name": "workerNode",
          "type": "address"
        }
      ],
      "name": "WorkerNodeDestroyed",
      "type": "event"
    },
    {
      "anonymous": false,
      "inputs": [
        {
          "indexed": true,
          "name": "previousOwner",
          "type": "address"
        },
        {
          "indexed": true,
          "name": "newOwner",
          "type": "address"
        }
      ],
      "name": "OwnershipTransferred",
      "type": "event"
    },
    {
      "constant": true,
      "inputs": [],
      "name": "getMaximumWorkerPrice",
      "outputs": [
        {
          "name": "maximumPrice",
          "type": "uint256"
        }
      ],
      "payable": false,
      "stateMutability": "view",
      "type": "function"
    },
    {
      "constant": false,
      "inputs": [
        {
          "name": "_to",
          "type": "address"
        },
        {
          "name": "_value",
          "type": "uint256"
        }
      ],
      "name": "withdrawSystemTokens",
      "outputs": [],
      "payable": false,
      "stateMutability": "nonpayable",
      "type": "function"
    },
    {
      "constant": false,
      "inputs": [],
      "name": "checkJobQueue",
      "outputs": [],
      "payable": false,
      "stateMutability": "nonpayable",
      "type": "function"
    },
    {
      "constant": false,
      "inputs": [
        {
          "name": "_kernel",
          "type": "address"
        },
        {
          "name": "_dataset",
          "type": "address"
        },
        {
          "name": "_complexity",
          "type": "uint256"
        },
        {
          "name": "_description",
          "type": "bytes32"
        }
      ],
      "name": "createCognitiveJob",
      "outputs": [
        {
          "name": "o_jobId",
          "type": "bytes32"
        },
        {
          "name": "o_resultCode",
          "type": "uint8"
        }
      ],
      "payable": true,
      "stateMutability": "payable",
      "type": "function"
    },
    {
      "constant": false,
      "inputs": [],
      "name": "getQueueDepth",
      "outputs": [
        {
          "name": "",
          "type": "uint256"
        }
      ],
      "payable": false,
      "stateMutability": "nonpayable",
      "type": "function"
    },
    {
      "constant": false,
      "inputs": [
        {
          "name": "_jobId",
          "type": "bytes32"
        },
        {
          "name": "_ipfsResults",
          "type": "bytes"
        }
      ],
      "name": "provideResults",
      "outputs": [],
      "payable": false,
      "stateMutability": "nonpayable",
      "type": "function"
    },
    {
      "constant": false,
      "inputs": [
        {
          "name": "_jobId",
          "type": "bytes32"
        },
        {
          "name": "_responseType",
          "type": "uint8"
        },
        {
          "name": "_response",
          "type": "bool"
        }
      ],
      "name": "respondToJob",
      "outputs": [],
      "payable": false,
      "stateMutability": "nonpayable",
      "type": "function"
    },
    {
      "constant": false,
      "inputs": [
        {
          "name": "_jobId",
          "type": "bytes32"
        },
        {
          "name": "_percent",
          "type": "uint8"
        }
      ],
      "name": "commitProgress",
      "outputs": [],
      "payable": false,
      "stateMutability": "nonpayable",
      "type": "function"
    }
  ],
  "bytecode": "0x608060405260008060006101000a81548160ff0219169083151502179055503480156200002b57600080fd5b5060405160a08062004d2183398101806040528101908080519060200190929190805190602001909291908051906020019092919080519060200190929190805190602001909291905050508260008060006101000a81548160ff02191690831515021790555033600060016101000a81548173ffffffffffffffffffffffffffffffffffffffff021916908373ffffffffffffffffffffffffffffffffffffffff160217905550600060019054906101000a900473ffffffffffffffffffffffffffffffffffffffff1673ffffffffffffffffffffffffffffffffffffffff16600073ffffffffffffffffffffffffffffffffffffffff167f8be0079c531659141344cd1fd0a4f28419497f9722a3daafe3b4186f6b6457e060405160405180910390a3600073ffffffffffffffffffffffffffffffffffffffff168173ffffffffffffffffffffffffffffffffffffffff16141515156200018d57600080fd5b80600660006101000a81548173ffffffffffffffffffffffffffffffffffffffff021916908373ffffffffffffffffffffffffffffffffffffffff1602179055505084601060006101000a81548173ffffffffffffffffffffffffffffffffffffffff021916908373ffffffffffffffffffffffffffffffffffffffff16021790555083600160006101000a81548173ffffffffffffffffffffffffffffffffffffffff021916908373ffffffffffffffffffffffffffffffffffffffff16021790555081600a60006101000a81548173ffffffffffffffffffffffffffffffffffffffff021916908373ffffffffffffffffffffffffffffffffffffffff16021790555080601160006101000a81548173ffffffffffffffffffffffffffffffffffffffff021916908373ffffffffffffffffffffffffffffffffffffffff160217905550620002dd62000346565b604051809103906000f080158015620002fa573d6000803e3d6000fd5b50600c60006101000a81548173ffffffffffffffffffffffffffffffffffffffff021916908373ffffffffffffffffffffffffffffffffffffffff160217905550505050505062000357565b60405161023d8062004ae483390190565b61477d80620003676000396000f300608060405260043610610196576000357c0100000000000000000000000000000000000000000000000000000000900463ffffffff1680630e3b581f1461019b57806313b5165f146101c6578063158ef93e146102095780631dc20af41461023857806323ce524a146102a55780632f853d86146102d657806346f340741461032d5780634de7485d146103585780635ef17776146103af578063687fbdff146103ff5780636d77b2081461043d57806370064e33146104aa578063715018a6146105055780637b3c611c1461051c5780637e58bf1e1461055f5780638129fc1c1461058a57806383c94c69146105a15780638da5cb5b146105d25780638f32d59b14610629578063a3e27fc914610658578063ae1092ae1461066f578063b0e79d9b146106b2578063bbcc7261146106fc578063be64b76b14610745578063c1cae9d714610770578063c52164c6146107bd578063ea84546b14610814578063f2fde38b146108ab578063f53f8e94146108ee578063f9d84ade14610945578063fc7e286d1461099c578063fdb5b8d4146109f3575b600080fd5b3480156101a757600080fd5b506101b0610a52565b6040518082815260200191505060405180910390f35b3480156101d257600080fd5b50610207600480360381019080803573ffffffffffffffffffffffffffffffffffffffff169060200190929190505050610a80565b005b34801561021557600080fd5b5061021e610aee565b604051808215151515815260200191505060405180910390f35b34801561024457600080fd5b5061026360048036038101908080359060200190929190505050610b00565b604051808273ffffffffffffffffffffffffffffffffffffffff1673ffffffffffffffffffffffffffffffffffffffff16815260200191505060405180910390f35b3480156102b157600080fd5b506102ba610b3e565b604051808260ff1660ff16815260200191505060405180910390f35b3480156102e257600080fd5b506102eb610b43565b604051808273ffffffffffffffffffffffffffffffffffffffff1673ffffffffffffffffffffffffffffffffffffffff16815260200191505060405180910390f35b34801561033957600080fd5b50610342610b69565b6040518082815260200191505060405180910390f35b34801561036457600080fd5b5061036d610d50565b604051808273ffffffffffffffffffffffffffffffffffffffff1673ffffffffffffffffffffffffffffffffffffffff16815260200191505060405180910390f35b3480156103bb57600080fd5b506103fd600480360381019080803573ffffffffffffffffffffffffffffffffffffffff169060200190929190803560ff169060200190929190505050610d76565b005b34801561040b57600080fd5b5061043b6004803603810190808035600019169060200190929190803560ff169060200190929190505050610d9b565b005b34801561044957600080fd5b5061046860048036038101908080359060200190929190505050610e92565b604051808273ffffffffffffffffffffffffffffffffffffffff1673ffffffffffffffffffffffffffffffffffffffff16815260200191505060405180910390f35b3480156104b657600080fd5b506104eb600480360381019080803573ffffffffffffffffffffffffffffffffffffffff16906020019092919050505061133a565b604051808215151515815260200191505060405180910390f35b34801561051157600080fd5b5061051a61135a565b005b34801561052857600080fd5b5061055d600480360381019080803573ffffffffffffffffffffffffffffffffffffffff16906020019092919050505061142d565b005b34801561056b57600080fd5b50610574611492565b6040518082815260200191505060405180910390f35b34801561059657600080fd5b5061059f6114a3565b005b3480156105ad57600080fd5b506105b66114bf565b604051808260ff1660ff16815260200191505060405180910390f35b3480156105de57600080fd5b506105e76114c4565b604051808273ffffffffffffffffffffffffffffffffffffffff1673ffffffffffffffffffffffffffffffffffffffff16815260200191505060405180910390f35b34801561063557600080fd5b5061063e6114ed565b604051808215151515815260200191505060405180910390f35b34801561066457600080fd5b5061066d611544565b005b34801561067b57600080fd5b506106b0600480360381019080803573ffffffffffffffffffffffffffffffffffffffff16906020019092919050505061172d565b005b3480156106be57600080fd5b506106fa6004803603810190808035600019169060200190929190803560ff169060200190929190803515159060200190929190505050611cd3565b005b34801561070857600080fd5b506107436004803603810190808035600019169060200190929190803590602001908201803590602001919091929391929390505050612070565b005b34801561075157600080fd5b5061075a612461565b6040518082815260200191505060405180910390f35b34801561077c57600080fd5b506107bb600480360381019080803573ffffffffffffffffffffffffffffffffffffffff1690602001909291908035906020019092919050505061246d565b005b3480156107c957600080fd5b506107d26126f4565b604051808273ffffffffffffffffffffffffffffffffffffffff1673ffffffffffffffffffffffffffffffffffffffff16815260200191505060405180910390f35b610880600480360381019080803573ffffffffffffffffffffffffffffffffffffffff169060200190929190803573ffffffffffffffffffffffffffffffffffffffff16906020019092919080359060200190929190803560001916906020019092919050505061271a565b6040518083600019166000191681526020018260ff1660ff1681526020019250505060405180910390f35b3480156108b757600080fd5b506108ec600480360381019080803573ffffffffffffffffffffffffffffffffffffffff169060200190929190505050612f5f565b005b3480156108fa57600080fd5b50610903612f7e565b604051808273ffffffffffffffffffffffffffffffffffffffff1673ffffffffffffffffffffffffffffffffffffffff16815260200191505060405180910390f35b34801561095157600080fd5b5061095a612fa4565b604051808273ffffffffffffffffffffffffffffffffffffffff1673ffffffffffffffffffffffffffffffffffffffff16815260200191505060405180910390f35b3480156109a857600080fd5b506109dd600480360381019080803573ffffffffffffffffffffffffffffffffffffffff169060200190929190505050612fca565b6040518082815260200191505060405180910390f35b3480156109ff57600080fd5b50610a34600480360381019080803573ffffffffffffffffffffffffffffffffffffffff169060200190929190505050612fe2565b604051808261ffff1661ffff16815260200191505060405180910390f35b6000600115156000809054906101000a900460ff161515141515610a7557600080fd5b600780549050905090565b610a886114ed565b1515610a9357600080fd5b6001600960008373ffffffffffffffffffffffffffffffffffffffff1673ffffffffffffffffffffffffffffffffffffffff16815260200190815260200160002060006101000a81548160ff02191690831515021790555050565b6000809054906101000a900460ff1681565b600781815481101515610b0f57fe5b906000526020600020016000915054906101000a900473ffffffffffffffffffffffffffffffffffffffff1681565b600181565b601060009054906101000a900473ffffffffffffffffffffffffffffffffffffffff1681565b60008060009150600090505b600780549050811015610d495781600782815481101515610b9257fe5b9060005260206000200160009054906101000a900473ffffffffffffffffffffffffffffffffffffffff1673ffffffffffffffffffffffffffffffffffffffff166312c88ecd6040518163ffffffff167c0100000000000000000000000000000000000000000000000000000000028152600401602060405180830381600087803b158015610c2057600080fd5b505af1158015610c34573d6000803e3d6000fd5b505050506040513d6020811015610c4a57600080fd5b81019080805190602001909291905050501115610d3c57600781815481101515610c7057fe5b9060005260206000200160009054906101000a900473ffffffffffffffffffffffffffffffffffffffff1673ffffffffffffffffffffffffffffffffffffffff166312c88ecd6040518163ffffffff167c0100000000000000000000000000000000000000000000000000000000028152600401602060405180830381600087803b158015610cfe57600080fd5b505af1158015610d12573d6000803e3d6000fd5b505050506040513d6020811015610d2857600080fd5b810190808051906020019092919050505091505b8080600101915050610b75565b8191505090565b600160009054906101000a900473ffffffffffffffffffffffffffffffffffffffff1681565b600115156000809054906101000a900460ff161515141515610d9757600080fd5b5050565b601060009054906101000a900473ffffffffffffffffffffffffffffffffffffffff1673ffffffffffffffffffffffffffffffffffffffff1663c9b7b25b8333846040518463ffffffff167c01000000000000000000000000000000000000000000000000000000000281526004018084600019166000191681526020018373ffffffffffffffffffffffffffffffffffffffff1673ffffffffffffffffffffffffffffffffffffffff1681526020018260ff1660ff1681526020019350505050600060405180830381600087803b158015610e7657600080fd5b505af1158015610e8a573d6000803e3d6000fd5b505050505050565b600080600115156000809054906101000a900460ff161515141515610eb657600080fd5b60011515600960003373ffffffffffffffffffffffffffffffffffffffff1673ffffffffffffffffffffffffffffffffffffffff16815260200190815260200160002060009054906101000a900460ff161515141515610f1557600080fd5b3273ffffffffffffffffffffffffffffffffffffffff163373ffffffffffffffffffffffffffffffffffffffff16141515610f4f57600080fd5b600d600780549050101515610f6357600080fd5b60018310151515610fdc576040517f08c379a000000000000000000000000000000000000000000000000000000000815260040180806020018281038252601d8152602001807f4552524f525f494e56414c49445f434f4d505554494e475f505249434500000081525060200191505060405180910390fd5b600160009054906101000a900473ffffffffffffffffffffffffffffffffffffffff1673ffffffffffffffffffffffffffffffffffffffff1663823043a4336040518263ffffffff167c0100000000000000000000000000000000000000000000000000000000028152600401808273ffffffffffffffffffffffffffffffffffffffff1673ffffffffffffffffffffffffffffffffffffffff168152602001915050600060405180830381600087803b15801561109957600080fd5b505af11580156110ad573d6000803e3d6000fd5b50505050600660009054906101000a900473ffffffffffffffffffffffffffffffffffffffff1673ffffffffffffffffffffffffffffffffffffffff1663ffe5725f33600160009054906101000a900473ffffffffffffffffffffffffffffffffffffffff16866040518463ffffffff167c0100000000000000000000000000000000000000000000000000000000028152600401808473ffffffffffffffffffffffffffffffffffffffff1673ffffffffffffffffffffffffffffffffffffffff1681526020018373ffffffffffffffffffffffffffffffffffffffff1673ffffffffffffffffffffffffffffffffffffffff1681526020018281526020019350505050602060405180830381600087803b1580156111cc57600080fd5b505af11580156111e0573d6000803e3d6000fd5b505050506040513d60208110156111f657600080fd5b8101908080519060200190929190505050905060078190806001815401808255809150509060018203906000526020600020016000909192909190916101000a81548173ffffffffffffffffffffffffffffffffffffffff021916908373ffffffffffffffffffffffffffffffffffffffff16021790555050600780549050600860008373ffffffffffffffffffffffffffffffffffffffff1673ffffffffffffffffffffffffffffffffffffffff16815260200190815260200160002060006101000a81548161ffff021916908361ffff1602179055507f093794466f44429afc8d8ec2c4c7f42c98d5db9b3db965ce46a31e7d4f7c29c881604051808273ffffffffffffffffffffffffffffffffffffffff1673ffffffffffffffffffffffffffffffffffffffff16815260200191505060405180910390a180915050919050565b60096020528060005260406000206000915054906101000a900460ff1681565b6113626114ed565b151561136d57600080fd5b600073ffffffffffffffffffffffffffffffffffffffff16600060019054906101000a900473ffffffffffffffffffffffffffffffffffffffff1673ffffffffffffffffffffffffffffffffffffffff167f8be0079c531659141344cd1fd0a4f28419497f9722a3daafe3b4186f6b6457e060405160405180910390a360008060016101000a81548173ffffffffffffffffffffffffffffffffffffffff021916908373ffffffffffffffffffffffffffffffffffffffff160217905550565b6114356114ed565b151561144057600080fd5b600960008273ffffffffffffffffffffffffffffffffffffffff1673ffffffffffffffffffffffffffffffffffffffff16815260200190815260200160002060006101000a81549060ff021916905550565b600061149e600d613003565b905090565b60016000806101000a81548160ff021916908315150217905550565b600081565b60008060019054906101000a900473ffffffffffffffffffffffffffffffffffffffff16905090565b60008060019054906101000a900473ffffffffffffffffffffffffffffffffffffffff1673ffffffffffffffffffffffffffffffffffffffff163373ffffffffffffffffffffffffffffffffffffffff1614905090565b61154c61465c565b60008060008060606000806060600080611566600d613003565b995060018a60ff1611611579578961157c565b60015b9950600098505b8960ff168960ff161015611720575a975061159c61301a565b96506000871115156115ad57611720565b6115b687613627565b95508551945086851415156115ca57611720565b6115de85600d613a0d90919063ffffffff16565b15156115e957611720565b6115f3600d613a36565b809550819c505050611609868c60a00151613a65565b92506116158b84613c09565b91507f11a21264ecb93e14000906dc00b4753fd6eec24f9f0f1b4305a1a04740b3023e8260405180826000191660001916815260200191505060405180910390a13a5a8961dea8010302905083811161166e5780611670565b835b90503373ffffffffffffffffffffffffffffffffffffffff166108fc829081150290604051600060405180830381858888f193505050501580156116b8573d6000803e3d6000fd5b506000818503141515611713578a6080015173ffffffffffffffffffffffffffffffffffffffff166108fc8286039081150290604051600060405180830381858888f19350505050158015611711573d6000803e3d6000fd5b505b8880600101995050611583565b5050505050505050505050565b600080600115156000809054906101000a900460ff16151514151561175157600080fd5b3373ffffffffffffffffffffffffffffffffffffffff168373ffffffffffffffffffffffffffffffffffffffff16638da5cb5b6040518163ffffffff167c0100000000000000000000000000000000000000000000000000000000028152600401602060405180830381600087803b1580156117cc57600080fd5b505af11580156117e0573d6000803e3d6000fd5b505050506040513d60208110156117f657600080fd5b810190808051906020019092919050505073ffffffffffffffffffffffffffffffffffffffff1614151561182957600080fd5b8273ffffffffffffffffffffffffffffffffffffffff1663ae897c556040518163ffffffff167c0100000000000000000000000000000000000000000000000000000000028152600401602060405180830381600087803b15801561188d57600080fd5b505af11580156118a1573d6000803e3d6000fd5b505050506040513d60208110156118b757600080fd5b810190808051906020019092919050505060ff168373ffffffffffffffffffffffffffffffffffffffff16630c3f6acf6040518163ffffffff167c0100000000000000000000000000000000000000000000000000000000028152600401602060405180830381600087803b15801561192f57600080fd5b505af1158015611943573d6000803e3d6000fd5b505050506040513d602081101561195957600080fd5b810190808051906020019092919050505060ff1614151561197957600080fd5b6000600860008573ffffffffffffffffffffffffffffffffffffffff1673ffffffffffffffffffffffffffffffffffffffff16815260200190815260200160002060009054906101000a900461ffff1661ffff16141515156119da57600080fd5b8273ffffffffffffffffffffffffffffffffffffffff166383197ef06040518163ffffffff167c0100000000000000000000000000000000000000000000000000000000028152600401600060405180830381600087803b158015611a3e57600080fd5b505af1158015611a52573d6000803e3d6000fd5b505050506001600860008573ffffffffffffffffffffffffffffffffffffffff1673ffffffffffffffffffffffffffffffffffffffff16815260200190815260200160002060009054906101000a900461ffff16039150600860008473ffffffffffffffffffffffffffffffffffffffff1673ffffffffffffffffffffffffffffffffffffffff16815260200190815260200160002060006101000a81549061ffff02191690556001600780549050038261ffff16141515611c10576007600160078054905003815481101515611b2557fe5b9060005260206000200160009054906101000a900473ffffffffffffffffffffffffffffffffffffffff1690508060078361ffff16815481101515611b6657fe5b9060005260206000200160006101000a81548173ffffffffffffffffffffffffffffffffffffffff021916908373ffffffffffffffffffffffffffffffffffffffff16021790555060018201600860008373ffffffffffffffffffffffffffffffffffffffff1673ffffffffffffffffffffffffffffffffffffffff16815260200190815260200160002060006101000a81548161ffff021916908361ffff160217905550611c55565b6007600160078054905003815481101515611c2757fe5b9060005260206000200160006101000a81549073ffffffffffffffffffffffffffffffffffffffff02191690555b6007805480919060019003611c6a9190614700565b507f677f03e392472a48b617167ed4dbec758d26d8517257ec077bed2d27d192816483604051808273ffffffffffffffffffffffffffffffffffffffff1673ffffffffffffffffffffffffffffffffffffffff16815260200191505060405180910390a1505050565b600160009054906101000a900473ffffffffffffffffffffffffffffffffffffffff1673ffffffffffffffffffffffffffffffffffffffff1663a27ef1bc336040518263ffffffff167c0100000000000000000000000000000000000000000000000000000000028152600401808273ffffffffffffffffffffffffffffffffffffffff1673ffffffffffffffffffffffffffffffffffffffff168152602001915050602060405180830381600087803b158015611d9057600080fd5b505af1158015611da4573d6000803e3d6000fd5b505050506040513d6020811015611dba57600080fd5b81019080805190602001909291905050501515611e3f576040517f08c379a00000000000000000000000000000000000000000000000000000000081526004018080602001828103825260208152602001807f4552524f525f4e454741544956455f574f524b45525f4e4f44455f5354414b4581525060200191505060405180910390fd5b60008260ff16148015611e56575060001515811515145b15611f4857600160009054906101000a900473ffffffffffffffffffffffffffffffffffffffff1673ffffffffffffffffffffffffffffffffffffffff1663f417e7c93360016040518363ffffffff167c0100000000000000000000000000000000000000000000000000000000028152600401808373ffffffffffffffffffffffffffffffffffffffff1673ffffffffffffffffffffffffffffffffffffffff168152602001826004811115611f0957fe5b60ff16815260200192505050600060405180830381600087803b158015611f2f57600080fd5b505af1158015611f43573d6000803e3d6000fd5b505050505b601060009054906101000a900473ffffffffffffffffffffffffffffffffffffffff1673ffffffffffffffffffffffffffffffffffffffff16634e5613c3843385856040518563ffffffff167c01000000000000000000000000000000000000000000000000000000000281526004018085600019166000191681526020018473ffffffffffffffffffffffffffffffffffffffff1673ffffffffffffffffffffffffffffffffffffffff1681526020018360ff1660ff16815260200182151515158152602001945050505050602060405180830381600087803b15801561202f57600080fd5b505af1158015612043573d6000803e3d6000fd5b505050506040513d602081101561205957600080fd5b810190808051906020019092919050505050505050565b600060606000601060009054906101000a900473ffffffffffffffffffffffffffffffffffffffff1673ffffffffffffffffffffffffffffffffffffffff16633b183eb5873388886040518563ffffffff167c01000000000000000000000000000000000000000000000000000000000281526004018085600019166000191681526020018473ffffffffffffffffffffffffffffffffffffffff1673ffffffffffffffffffffffffffffffffffffffff168152602001806020018281038252848482818152602001925080828437820191505095505050505050602060405180830381600087803b15801561216557600080fd5b505af1158015612179573d6000803e3d6000fd5b505050506040513d602081101561218f57600080fd5b81019080805190602001909291905050501561245957601060009054906101000a900473ffffffffffffffffffffffffffffffffffffffff1673ffffffffffffffffffffffffffffffffffffffff166339d9de64876040518263ffffffff167c0100000000000000000000000000000000000000000000000000000000028152600401808260001916600019168152602001915050600060405180830381600087803b15801561223e57600080fd5b505af1158015612252573d6000803e3d6000fd5b505050506040513d6000823e3d601f19601f8201168201806040525061010081101561227d57600080fd5b81019080805190602001909291908051906020019092919080519060200190929190805190602001909291908051906020019092919080516401000000008111156122c757600080fd5b828101905060208101848111156122dd57600080fd5b81518560208202830111640100000000821117156122fa57600080fd5b50509291906020018051906020019092919080519060200190929190505050909192939495965090919293949550909192939450909192509050508093508194505050600090505b815181101561245857600a60009054906101000a900473ffffffffffffffffffffffffffffffffffffffff1673ffffffffffffffffffffffffffffffffffffffff1663e6808ff0838381518110151561239757fe5b906020019060200201518451868115156123ad57fe5b046040518363ffffffff167c0100000000000000000000000000000000000000000000000000000000028152600401808373ffffffffffffffffffffffffffffffffffffffff1673ffffffffffffffffffffffffffffffffffffffff16815260200182815260200192505050600060405180830381600087803b15801561243357600080fd5b505af1158015612447573d6000803e3d6000fd5b505050508080600101915050612342565b5b505050505050565b6706f05b59d3b2000081565b6124756114ed565b151561248057600080fd5b80601160009054906101000a900473ffffffffffffffffffffffffffffffffffffffff1673ffffffffffffffffffffffffffffffffffffffff166370a08231306040518263ffffffff167c0100000000000000000000000000000000000000000000000000000000028152600401808273ffffffffffffffffffffffffffffffffffffffff1673ffffffffffffffffffffffffffffffffffffffff168152602001915050602060405180830381600087803b15801561253e57600080fd5b505af1158015612552573d6000803e3d6000fd5b505050506040513d602081101561256857600080fd5b8101908080519060200190929190505050101515156125ef576040517f08c379a00000000000000000000000000000000000000000000000000000000081526004018080602001828103825260188152602001807f4552524f525f494e53554646494349454e545f46554e4453000000000000000081525060200191505060405180910390fd5b601160009054906101000a900473ffffffffffffffffffffffffffffffffffffffff1673ffffffffffffffffffffffffffffffffffffffff1663a9059cbb83836040518363ffffffff167c0100000000000000000000000000000000000000000000000000000000028152600401808373ffffffffffffffffffffffffffffffffffffffff1673ffffffffffffffffffffffffffffffffffffffff16815260200182815260200192505050602060405180830381600087803b1580156126b457600080fd5b505af11580156126c8573d6000803e3d6000fd5b505050506040513d60208110156126de57600080fd5b8101908080519060200190929190505050505050565b600a60009054906101000a900473ffffffffffffffffffffffffffffffffffffffff1681565b6000806000806060808873ffffffffffffffffffffffffffffffffffffffff166387ea09616040518163ffffffff167c0100000000000000000000000000000000000000000000000000000000028152600401602060405180830381600087803b15801561278757600080fd5b505af115801561279b573d6000803e3d6000fd5b505050506040513d60208110156127b157600080fd5b81019080805190602001909291905050509350600a8460ff16111515156127d757600080fd5b8360ff1688101515156127e957600080fd5b8873ffffffffffffffffffffffffffffffffffffffff1663b1f8d9ba6040518163ffffffff167c0100000000000000000000000000000000000000000000000000000000028152600401602060405180830381600087803b15801561284d57600080fd5b505af1158015612861573d6000803e3d6000fd5b505050506040513d602081101561287757600080fd5b81019080805190602001909291905050508a73ffffffffffffffffffffffffffffffffffffffff1663b1f8d9ba6040518163ffffffff167c0100000000000000000000000000000000000000000000000000000000028152600401602060405180830381600087803b1580156128ec57600080fd5b505af1158015612900573d6000803e3d6000fd5b505050506040513d602081101561291657600080fd5b810190808051906020019092919050505014151561293357600080fd5b6706f05b59d3b20000341015151561294a57600080fd5b600160009054906101000a900473ffffffffffffffffffffffffffffffffffffffff1673ffffffffffffffffffffffffffffffffffffffff166350bb343a338660ff16612995610b69565b028d73ffffffffffffffffffffffffffffffffffffffff16639d1b464a6040518163ffffffff167c0100000000000000000000000000000000000000000000000000000000028152600401602060405180830381600087803b1580156129fa57600080fd5b505af1158015612a0e573d6000803e3d6000fd5b505050506040513d6020811015612a2457600080fd5b81019080805190602001909291905050508d73ffffffffffffffffffffffffffffffffffffffff16639d1b464a6040518163ffffffff167c0100000000000000000000000000000000000000000000000000000000028152600401602060405180830381600087803b158015612a9957600080fd5b505af1158015612aad573d6000803e3d6000fd5b505050506040513d6020811015612ac357600080fd5b810190808051906020019092919050505001016040518363ffffffff167c0100000000000000000000000000000000000000000000000000000000028152600401808373ffffffffffffffffffffffffffffffffffffffff1673ffffffffffffffffffffffffffffffffffffffff16815260200182815260200192505050600060405180830381600087803b158015612b5b57600080fd5b505af1158015612b6f573d6000803e3d6000fd5b5050505043600d60000180549050601060009054906101000a900473ffffffffffffffffffffffffffffffffffffffff1673ffffffffffffffffffffffffffffffffffffffff1663ead4d6796040518163ffffffff167c0100000000000000000000000000000000000000000000000000000000028152600401602060405180830381600087803b158015612c0357600080fd5b505af1158015612c17573d6000803e3d6000fd5b505050506040513d6020811015612c2d57600080fd5b8101908080519060200190929190505050601060009054906101000a900473ffffffffffffffffffffffffffffffffffffffff1673ffffffffffffffffffffffffffffffffffffffff16635c2b37fa6040518163ffffffff167c0100000000000000000000000000000000000000000000000000000000028152600401602060405180830381600087803b158015612cc457600080fd5b505af1158015612cd8573d6000803e3d6000fd5b505050506040513d6020811015612cee57600080fd5b8101908080519060200190929190505050010101604051602001808281526020019150506040516020818303038152906040526040518082805190602001908083835b602083101515612d565780518252602082019150602081019050602083039250612d31565b6001836020036101000a03801982511681845116808217855250505050505090500191505060405180910390209550612d8d61301a565b92508360ff16831015612e9e57612dc186338c8c33348a60ff168f8f600d613c60909998979695949392919063ffffffff16565b612e1334600b60003373ffffffffffffffffffffffffffffffffffffffff1673ffffffffffffffffffffffffffffffffffffffff16815260200190815260200160002054613ed690919063ffffffff16565b600b60003373ffffffffffffffffffffffffffffffffffffffff1673ffffffffffffffffffffffffffffffffffffffff16815260200190815260200160002081905550600094507f2c45d5fba2a924464674ba6274086714ee596687cf6a6110111b80abe05f28b38660405180826000191660001916815260200191505060405180910390a1612f52565b3373ffffffffffffffffffffffffffffffffffffffff166108fc349081150290604051600060405180830381858888f19350505050158015612ee4573d6000803e3d6000fd5b50612eee83613627565b9150612efd828560ff16613a65565b9050612f0e86338c8c858d8d613ef7565b600194507f11a21264ecb93e14000906dc00b4753fd6eec24f9f0f1b4305a1a04740b3023e8660405180826000191660001916815260200191505060405180910390a15b5050505094509492505050565b612f676114ed565b1515612f7257600080fd5b612f7b81614248565b50565b601160009054906101000a900473ffffffffffffffffffffffffffffffffffffffff1681565b600660009054906101000a900473ffffffffffffffffffffffffffffffffffffffff1681565b600b6020528060005260406000206000915090505481565b60086020528060005260406000206000915054906101000a900461ffff1681565b600081600201548260000180549050039050919050565b60008060009150600090505b6007805490508110156136205760078181548110151561304257fe5b9060005260206000200160009054906101000a900473ffffffffffffffffffffffffffffffffffffffff1673ffffffffffffffffffffffffffffffffffffffff1663822bb4d16040518163ffffffff167c0100000000000000000000000000000000000000000000000000000000028152600401602060405180830381600087803b1580156130d057600080fd5b505af11580156130e4573d6000803e3d6000fd5b505050506040513d60208110156130fa57600080fd5b810190808051906020019092919050505060ff1660078281548110151561311d57fe5b9060005260206000200160009054906101000a900473ffffffffffffffffffffffffffffffffffffffff1673ffffffffffffffffffffffffffffffffffffffff16630c3f6acf6040518163ffffffff167c0100000000000000000000000000000000000000000000000000000000028152600401602060405180830381600087803b1580156131ab57600080fd5b505af11580156131bf573d6000803e3d6000fd5b505050506040513d60208110156131d557600080fd5b810190808051906020019092919050505060ff16141561331557600160009054906101000a900473ffffffffffffffffffffffffffffffffffffffff1673ffffffffffffffffffffffffffffffffffffffff1663f417e7c960078381548110151561323c57fe5b9060005260206000200160009054906101000a900473ffffffffffffffffffffffffffffffffffffffff1660006040518363ffffffff167c0100000000000000000000000000000000000000000000000000000000028152600401808373ffffffffffffffffffffffffffffffffffffffff1673ffffffffffffffffffffffffffffffffffffffff1681526020018260048111156132d657fe5b60ff16815260200192505050600060405180830381600087803b1580156132fc57600080fd5b505af1158015613310573d6000803e3d6000fd5b505050505b60078181548110151561332457fe5b9060005260206000200160009054906101000a900473ffffffffffffffffffffffffffffffffffffffff1673ffffffffffffffffffffffffffffffffffffffff1663ae897c556040518163ffffffff167c0100000000000000000000000000000000000000000000000000000000028152600401602060405180830381600087803b1580156133b257600080fd5b505af11580156133c6573d6000803e3d6000fd5b505050506040513d60208110156133dc57600080fd5b810190808051906020019092919050505060ff166007828154811015156133ff57fe5b9060005260206000200160009054906101000a900473ffffffffffffffffffffffffffffffffffffffff1673ffffffffffffffffffffffffffffffffffffffff16630c3f6acf6040518163ffffffff167c0100000000000000000000000000000000000000000000000000000000028152600401602060405180830381600087803b15801561348d57600080fd5b505af11580156134a1573d6000803e3d6000fd5b505050506040513d60208110156134b757600080fd5b810190808051906020019092919050505060ff161480156136055750600160009054906101000a900473ffffffffffffffffffffffffffffffffffffffff1673ffffffffffffffffffffffffffffffffffffffff1663a27ef1bc60078381548110151561352057fe5b9060005260206000200160009054906101000a900473ffffffffffffffffffffffffffffffffffffffff166040518263ffffffff167c0100000000000000000000000000000000000000000000000000000000028152600401808273ffffffffffffffffffffffffffffffffffffffff1673ffffffffffffffffffffffffffffffffffffffff168152602001915050602060405180830381600087803b1580156135c957600080fd5b505af11580156135dd573d6000803e3d6000fd5b505050506040513d60208110156135f357600080fd5b81019080805190602001909291905050505b156136135781806001019250505b8080600101915050613026565b8191505090565b6060806000808460405190808252806020026020018201604052801561365c5781602001602082028038833980820191505090505b50925060009150600090505b600780549050811015613a025760078181548110151561368457fe5b9060005260206000200160009054906101000a900473ffffffffffffffffffffffffffffffffffffffff1673ffffffffffffffffffffffffffffffffffffffff1663ae897c556040518163ffffffff167c0100000000000000000000000000000000000000000000000000000000028152600401602060405180830381600087803b15801561371257600080fd5b505af1158015613726573d6000803e3d6000fd5b505050506040513d602081101561373c57600080fd5b810190808051906020019092919050505060ff1660078281548110151561375f57fe5b9060005260206000200160009054906101000a900473ffffffffffffffffffffffffffffffffffffffff1673ffffffffffffffffffffffffffffffffffffffff16630c3f6acf6040518163ffffffff167c0100000000000000000000000000000000000000000000000000000000028152600401602060405180830381600087803b1580156137ed57600080fd5b505af1158015613801573d6000803e3d6000fd5b505050506040513d602081101561381757600080fd5b810190808051906020019092919050505060ff161480156139655750600160009054906101000a900473ffffffffffffffffffffffffffffffffffffffff1673ffffffffffffffffffffffffffffffffffffffff1663a27ef1bc60078381548110151561388057fe5b9060005260206000200160009054906101000a900473ffffffffffffffffffffffffffffffffffffffff166040518263ffffffff167c0100000000000000000000000000000000000000000000000000000000028152600401808273ffffffffffffffffffffffffffffffffffffffff1673ffffffffffffffffffffffffffffffffffffffff168152602001915050602060405180830381600087803b15801561392957600080fd5b505af115801561393d573d6000803e3d6000fd5b505050506040513d602081101561395357600080fd5b81019080805190602001909291905050505b156139f55760078181548110151561397957fe5b9060005260206000200160009054906101000a900473ffffffffffffffffffffffffffffffffffffffff1683838060010194508151811015156139b857fe5b9060200190602002019073ffffffffffffffffffffffffffffffffffffffff16908173ffffffffffffffffffffffffffffffffffffffff16815250505b8080600101915050613668565b829350505050919050565b6000613a1761465c565b613a2084614344565b5080915050828160a00151111591505092915050565b613a3e61465c565b6000613a4983614344565b8092508193505050613a5a8361453a565b818191509150915091565b606060008083604051908082528060200260200182016040528015613a995781602001602082028038833980820191505090505b509250600c60009054906101000a900473ffffffffffffffffffffffffffffffffffffffff1673ffffffffffffffffffffffffffffffffffffffff1663cd4b691484516040518263ffffffff167c010000000000000000000000000000000000000000000000000000000002815260040180828152602001915050602060405180830381600087803b158015613b2e57600080fd5b505af1158015613b42573d6000803e3d6000fd5b505050506040513d6020811015613b5857600080fd5b81019080805190602001909291905050509150600090505b8251811015613c01578482815181101515613b8757fe5b906020019060200201518382815181101515613b9f57fe5b9060200190602002019073ffffffffffffffffffffffffffffffffffffffff16908173ffffffffffffffffffffffffffffffffffffffff168152505060018351038214613bef5760018201613bf2565b60005b91508080600101915050613b70565b505092915050565b6000600115156000809054906101000a900460ff161515141515613c2c57600080fd5b613c538360000151846020015185604001518660600151868860c001518960e00151613ef7565b8260000151905092915050565b896000018054905060018b6000018054905001111515613c7f57600080fd5b89600001610100604051908101604052808b6000191681526020018a73ffffffffffffffffffffffffffffffffffffffff1681526020018973ffffffffffffffffffffffffffffffffffffffff1681526020018873ffffffffffffffffffffffffffffffffffffffff1681526020018773ffffffffffffffffffffffffffffffffffffffff1681526020018581526020018481526020018360001916815250908060018154018082558091505090600182039060005260206000209060080201600090919290919091506000820151816000019060001916905560208201518160010160006101000a81548173ffffffffffffffffffffffffffffffffffffffff021916908373ffffffffffffffffffffffffffffffffffffffff16021790555060408201518160020160006101000a81548173ffffffffffffffffffffffffffffffffffffffff021916908373ffffffffffffffffffffffffffffffffffffffff16021790555060608201518160030160006101000a81548173ffffffffffffffffffffffffffffffffffffffff021916908373ffffffffffffffffffffffffffffffffffffffff16021790555060808201518160040160006101000a81548173ffffffffffffffffffffffffffffffffffffffff021916908373ffffffffffffffffffffffffffffffffffffffff16021790555060a0820151816005015560c0820151816006015560e082015181600701906000191690555050508960010184908060018154018082558091505090600182039060005260206000200160009091929091909150555050505050505050505050565b6000808284019050838110151515613eed57600080fd5b8091505092915050565b6060600080600115156000809054906101000a900460ff161515141515613f1d57600080fd5b8551604051908082528060200260200182016040528015613f4d5781602001602082028038833980820191505090505b509250600091505b8251821015613fcd578582815181101515613f6c57fe5b906020019060200201518383815181101515613f8457fe5b9060200190602002019073ffffffffffffffffffffffffffffffffffffffff16908173ffffffffffffffffffffffffffffffffffffffff16815250508180600101925050613f55565b601060009054906101000a900473ffffffffffffffffffffffffffffffffffffffff1673ffffffffffffffffffffffffffffffffffffffff16630a224a538b8b8b8b888b8b6040518863ffffffff167c01000000000000000000000000000000000000000000000000000000000281526004018088600019166000191681526020018773ffffffffffffffffffffffffffffffffffffffff1673ffffffffffffffffffffffffffffffffffffffff1681526020018673ffffffffffffffffffffffffffffffffffffffff1673ffffffffffffffffffffffffffffffffffffffff1681526020018573ffffffffffffffffffffffffffffffffffffffff1673ffffffffffffffffffffffffffffffffffffffff168152602001806020018481526020018360001916600019168152602001828103825285818151815260200191508051906020019060200280838360005b8381101561413857808201518184015260208101905061411d565b5050505090500198505050505050505050600060405180830381600087803b15801561416357600080fd5b505af1158015614177573d6000803e3d6000fd5b50505050600090505b855181101561423c57858181518110151561419757fe5b9060200190602002015173ffffffffffffffffffffffffffffffffffffffff16637aee7e098b6040518263ffffffff167c0100000000000000000000000000000000000000000000000000000000028152600401808260001916600019168152602001915050600060405180830381600087803b15801561421757600080fd5b505af115801561422b573d6000803e3d6000fd5b505050508080600101915050614180565b50505050505050505050565b600073ffffffffffffffffffffffffffffffffffffffff168173ffffffffffffffffffffffffffffffffffffffff161415151561428457600080fd5b8073ffffffffffffffffffffffffffffffffffffffff16600060019054906101000a900473ffffffffffffffffffffffffffffffffffffffff1673ffffffffffffffffffffffffffffffffffffffff167f8be0079c531659141344cd1fd0a4f28419497f9722a3daafe3b4186f6b6457e060405160405180910390a380600060016101000a81548173ffffffffffffffffffffffffffffffffffffffff021916908373ffffffffffffffffffffffffffffffffffffffff16021790555050565b61434c61465c565b600082600001836002015481548110151561436357fe5b906000526020600020906008020183600101846002015481548110151561438657fe5b90600052602060002001548161010060405190810160405290816000820154600019166000191681526020016001820160009054906101000a900473ffffffffffffffffffffffffffffffffffffffff1673ffffffffffffffffffffffffffffffffffffffff1673ffffffffffffffffffffffffffffffffffffffff1681526020016002820160009054906101000a900473ffffffffffffffffffffffffffffffffffffffff1673ffffffffffffffffffffffffffffffffffffffff1673ffffffffffffffffffffffffffffffffffffffff1681526020016003820160009054906101000a900473ffffffffffffffffffffffffffffffffffffffff1673ffffffffffffffffffffffffffffffffffffffff1673ffffffffffffffffffffffffffffffffffffffff1681526020016004820160009054906101000a900473ffffffffffffffffffffffffffffffffffffffff1673ffffffffffffffffffffffffffffffffffffffff1673ffffffffffffffffffffffffffffffffffffffff16815260200160058201548152602001600682015481526020016007820154600019166000191681525050915091509150915091565b806002016000815480929190600101919050555080600001600182600201540381548110151561456657fe5b90600052602060002090600802016000808201600090556001820160006101000a81549073ffffffffffffffffffffffffffffffffffffffff02191690556002820160006101000a81549073ffffffffffffffffffffffffffffffffffffffff02191690556003820160006101000a81549073ffffffffffffffffffffffffffffffffffffffff02191690556004820160006101000a81549073ffffffffffffffffffffffffffffffffffffffff0219169055600582016000905560068201600090556007820160009055505080600101600182600201540381548110151561464b57fe5b906000526020600020016000905550565b6101006040519081016040528060008019168152602001600073ffffffffffffffffffffffffffffffffffffffff168152602001600073ffffffffffffffffffffffffffffffffffffffff168152602001600073ffffffffffffffffffffffffffffffffffffffff168152602001600073ffffffffffffffffffffffffffffffffffffffff1681526020016000815260200160008152602001600080191681525090565b81548183558181111561472757818360005260206000209182019101614726919061472c565b5b505050565b61474e91905b8082111561474a576000816000905550600101614732565b5090565b905600a165627a7a7230582050959c7cb8cb2fab783e1c6d83505362b64604eb3b65e976097449c0dbbda95e0029608060405234801561001057600080fd5b5043600181905550610216806100276000396000f300608060405260043610610041576000357c0100000000000000000000000000000000000000000000000000000000900463ffffffff168063cd4b691414610046575b600080fd5b34801561005257600080fd5b5061007160048036038101908080359060200190929190505050610087565b6040518082815260200191505060405180910390f35b600060015443111561013a5743600181905550600a4303406001900443406001900401604051602001808281526020019150506040516020818303038152906040526040518082805190602001908083835b6020831015156100fe57805182526020820191506020810190506020830392506100d9565b6001836020036101000a0380198251168184511680821785525050505050509050019150506040518091039020600081600019169055506101d1565b6000546040516020018082600019166000191681526020019150506040516020818303038152906040526040518082805190602001908083835b6020831015156101995780518252602082019150602081019050602083039250610174565b6001836020036101000a0380198251168184511680821785525050505050509050019150506040518091039020600081600019169055505b81600054600190048115156101e257fe5b0690509190505600a165627a7a723058201ba3fced9b6c890462be9e5abcceeb59a4c5eacf6473625f2fd6e48fb69aceab0029",
  "source": "pragma solidity 0.4.24;\n\nimport \"openzeppelin-solidity/contracts/math/SafeMath.sol\";\nimport \"../../lifecycle/Initializable.sol\";\nimport \"../lottery/RandomEngine.sol\";\nimport \"./ICognitiveJobManager.sol\";\nimport \"./WorkerNodeManager.sol\";\nimport \"../token/Reputation.sol\";\nimport \"./ICognitiveJobController.sol\";\nimport \"../../nodes/IWorkerNode.sol\";\nimport \"./IEconomicController.sol\";\nimport \"../token/Pan.sol\";\n\nimport {JobQueueLib as JQL} from \"../../libraries/JobQueueLib.sol\";\n\n/**\n * @title Pandora Smart Contract\n * @author \"Dr Maxim Orlovsky\" <orlovsky@pandora.foundation>\n *\n * @dev # Pandora Smart Contract\n *\n * Main & root contract implementing the first level of Pandora Boxchain consensus\n * See section [\"3.3. Proof of Cognitive Work (PoCW)\" in Pandora white paper](https://steemit.com/cryptocurrency/%40pandoraboxchain/world-decentralized-ai-on-blockchain-with-cognitive-mining-and-open-markets-for-data-and-algorithms-pandora-boxchain)\n * for more details.\n */\ncontract CognitiveJobManager is ICognitiveJobManager, WorkerNodeManager  {\n\n    /*******************************************************************************************************************\n     * ## Storage\n     */\n\n    /// ### Public variables\n\n    /// @dev Contract, that store rep. values for each address\n    IReputation public reputation;\n\n    // Deposits from clients used as payment for work\n    mapping(address => uint256) public deposits;\n\n    /// @notice Status code returned by `createCognitiveJob()` method when no Idle WorkerNodes were available\n    /// and job was not created but was put into the job queue to be processed lately\n    uint8 constant public RESULT_CODE_ADD_TO_QUEUE = 0;\n    /// @notice Status code returned by `createCognitiveJob()` method when CognitiveJob was created successfully\n    uint8 constant public RESULT_CODE_JOB_CREATED = 1;\n\n    uint256 constant public REQUIRED_DEPOSIT = 500 finney;\n\n    /// ### Private and internal variables\n\n    /// @dev Contract implementing lottery interface for workers selection. Only internal usage\n    /// by `createCognitiveJob` function\n    ILotteryEngine internal workerLotteryEngine;\n\n    // Queue for CognitiveJobs kept while no Idle WorkerNodes available\n    /// @dev Cognitive job queue used for case when no idle workers available\n    using JQL for JQL.Queue;\n    JQL.Queue internal jobQueue;\n\n    // Controller for CognitiveJobs\n    ICognitiveJobController public jobController;\n\n    // Pan token\n    Pan public panToken;\n\n    using SafeMath for uint;\n\n    /*******************************************************************************************************************\n     * ## Events\n     */\n\n    /// @dev Event firing when a new cognitive job created\n    event CognitiveJobCreated(bytes32 jobId);\n\n    /// @dev Event firing when a new cognitive job queued\n    event CognitiveJobQueued(bytes32 jobId);\n\n    /*******************************************************************************************************************\n     * ## Constructor and initialization\n     */\n\n    /// ### Constructor\n    /// @dev Constructor receives addresses for the owners of whitelisted worker nodes, which will be assigned an owners\n    /// of worker nodes contracts\n    constructor(\n        ICognitiveJobController _jobController, /// Controller with all cognitive job logic and storage\n        IEconomicController _economicController, \n        IWorkerNodeFactory _nodeFactory, /// Factory class for creating WorkerNode contracts\n        IReputation _reputation,\n        Pan _pan\n    )\n    public\n    WorkerNodeManager(_nodeFactory)\n    {\n        jobController = _jobController;\n        economicController = _economicController;\n\n        // Init reputation storage contract\n        reputation = _reputation;\n\n        // Init Pan token\n        panToken = _pan;\n\n        // Initializing worker lottery engine\n        workerLotteryEngine = new RandomEngine();\n    }\n\n    /*******************************************************************************************************************\n     * ## Functions\n     */\n\n    /// ### Public\n\n    /**\n     * @dev Gets a maximum worker price value\n     */\n    function getMaximumWorkerPrice() public view returns (uint256 maximumPrice) {\n        maximumPrice = 0;\n\n        for (uint i = 0; i < workerNodes.length; i++) {\n\n            if (workerNodes[i].computingPrice() > maximumPrice) {\n                maximumPrice = workerNodes[i].computingPrice();\n            }\n        }\n\n        return maximumPrice;\n    }\n\n    function withdrawSystemTokens(address _to, uint256 _value) external onlyOwner {\n        require(panToken.balanceOf(address(this)) >= _value, \"ERROR_INSUFFICIENT_FUNDS\");\n        panToken.transfer(_to, _value);\n    }\n\n    /// @notice Public function which checks queue of jobs and create new jobs\n    /// #dev Function is called by worker owner, after finalize congitiveJob (but could be called by any address)\n    /// to unlock worker's idle state and allocate newly freed WorkerNodes to perform cognitive jobs from the queue.\n    function checkJobQueue(\n    // No arguments\n    )\n    public {\n        JQL.QueuedJob memory queuedJob;\n        // Iterate queue and check queue depth\n\n        uint8 limitQueueReq = uint8(jobQueue.queueDepth());\n        limitQueueReq = limitQueueReq > 1 ? 1 : limitQueueReq;\n        // todo check limit (2) for queue requests with tests\n\n        for (uint8 k = 0; k < limitQueueReq; k++) {\n\n            // Count remaining gas\n            uint initialGas = gasleft();\n\n            // Counting number of available worker nodes (in Idle state)\n            uint256 estimatedSize = _countIdleWorkers();\n\n            // There must be at least one free worker node\n            if (estimatedSize <= 0) {\n                break;\n            }\n\n            // Initializing in-memory array for idle node list and populating it with data\n            IWorkerNode[] memory idleWorkers = _listIdleWorkers(estimatedSize);\n            uint actualSize = idleWorkers.length;\n            if (actualSize != estimatedSize) {\n                break;\n            }\n\n            // Check number of batches with number of idle workers\n            if (!jobQueue.checkElementBatches(actualSize)) {\n                break;\n            }\n\n            // uint value1 = cognitiveJobQueue.queueDepth();\n            uint256 value;\n            // Value from queuedJob deposit\n            (queuedJob, value) = jobQueue.requestJob();\n\n            // Running lottery to select worker node to be assigned cognitive job contract\n            IWorkerNode[] memory assignedWorkers = _selectWorkersWithLottery(idleWorkers, queuedJob.batches);\n\n            bytes32 jobId = _initQueuedJob(queuedJob, assignedWorkers);\n\n            emit CognitiveJobCreated(jobId);\n\n            // Count used funds for queue\n            //todo set limit for gasprice\n            uint weiUsed = (57000 + initialGas - gasleft()) * tx.gasprice;\n            //57k of gas used for transfers and storage writing\n\n            weiUsed = weiUsed > value ? value : weiUsed;\n            //weiUsed should not exceed deposit fixme set constraint to minimal deposit\n\n            // Gas refund to node\n            msg.sender.transfer(weiUsed);\n\n            // Return remaining deposit to customer\n            if (value - weiUsed != 0) {\n                queuedJob.customer.transfer(value - weiUsed);\n            }\n        }\n    }\n\n    event Debug(address worker);\n\n    /******************************************************************************************************************\n    External functions\n    */\n\n    /// @notice Creates and returns new cognitive job contract and starts actual cognitive work instantly\n    /// @dev Core function creating new cognitive job contract and returning it back to the caller\n    function createCognitiveJob(\n        IKernel _kernel, /// Pre-initialized kernel data entity contract\n        IDataset _dataset, /// Pre-initialized dataset entity contract\n        uint256 _complexity,\n        bytes32 _description\n    )\n    external\n    payable\n    returns (\n        bytes32 o_jobId, /// Newly created cognitive jobs (starts automatically)\n        uint8 o_resultCode /// result code of creating job, 0 - job queued (no available workers) , 1 - job created\n    ) {\n\n        // Restriction for batches count came from potential high gas usage in JobQueue processing\n        // todo check batches limit with tests\n        uint8 batchesCount = _dataset.batchesCount();\n        require(batchesCount <= 10);\n\n        // Complexity should be divisible by workers\n        require(_complexity >= uint256(batchesCount));\n\n        // Dimensions of the input data and neural network input layer must be equal\n        require(_kernel.dataDim() == _dataset.dataDim());\n\n        // @todo check payment corresponds to required amount + gas payment - (fixed value + #batches * value)\n        require(msg.value >= REQUIRED_DEPOSIT);\n\n        // Block required amount of tokens\n        economicController.blockTokensFrom(msg.sender, _dataset.currentPrice() + _kernel.currentPrice() + getMaximumWorkerPrice() * batchesCount);\n\n        // Counting number of available worker nodes (in Idle state)\n        // Since Solidity does not supports dynamic in-memory arrays (yet), has to be done in two-staged way:\n        // first by counting array size and then by allocating and populating array itself\n\n        o_jobId = keccak256(abi.encodePacked(\n                jobController.activeJobsCount() +\n                jobController.completedJobsCount() +\n                jobQueue.jobArray.length +\n                block.number));\n        uint256 estimatedSize = _countIdleWorkers();\n        if (estimatedSize < uint256(batchesCount)) {\n            // Put task in queue\n            jobQueue.put(\n                o_jobId,\n                msg.sender,\n                address(_kernel),\n                address(_dataset),\n                msg.sender,\n                msg.value,\n                batchesCount,\n                _complexity,\n                _description);\n            //  Hold payment from customer\n            deposits[msg.sender] = deposits[msg.sender].add(msg.value);\n            o_resultCode = RESULT_CODE_ADD_TO_QUEUE;\n            emit CognitiveJobQueued(o_jobId);\n        } else {\n            // Job created instantly\n            // Return funds to sender\n            msg.sender.transfer(msg.value);\n            // Initializing in-memory array for idle node list and populating it with data\n            IWorkerNode[] memory idleWorkers = _listIdleWorkers(estimatedSize);\n\n            // Running lottery to select worker node to be assigned cognitive job contract\n            IWorkerNode[] memory assignedWorkers = _selectWorkersWithLottery(idleWorkers, batchesCount);\n\n            _initCognitiveJob(o_jobId, msg.sender, _kernel, _dataset, assignedWorkers, _complexity, _description);\n            o_resultCode = RESULT_CODE_JOB_CREATED;\n\n            emit CognitiveJobCreated(o_jobId);\n        }\n    }\n\n    function getQueueDepth(\n        // No arguments\n    )\n    external\n    returns (uint256)\n    {\n        return jobQueue.queueDepth();\n    }\n\n    /**\n     * @dev Provide job result by worker\n     * @param _jobId Job Id\n     * @param _ipfsResults IPFS link to job result\n     * @notice Throw if worker has no funds on stake balance\n     */\n    function provideResults(\n        bytes32 _jobId,\n        bytes _ipfsResults\n    )\n    external     \n    {\n        //todo get workerId with workerController in new v.\n        if (jobController.completeWork(_jobId, msg.sender, _ipfsResults)) {\n            // Increase reputation of workers involved to computation\n            //todo add koef for complexity-reputation\n            uint256 complexity;\n            address[] memory activeWorkers;\n            ( , , ,complexity, ,activeWorkers, , ) = jobController.getCognitiveJobDetails(_jobId);\n            for (uint256 i = 0; i < activeWorkers.length; i++) {\n                reputation.incrReputation(\n                    activeWorkers[i],\n                    complexity / activeWorkers.length);\n            }\n        }\n    }\n\n    function respondToJob(\n        bytes32 _jobId,\n        uint8 _responseType,\n        bool _response) \n    external     \n    {\n        require(economicController.positiveWorkerNodeStake(msg.sender), \"ERROR_NEGATIVE_WORKER_NODE_STAKE\");\n\n        // Apply penalty to worker node if assigned job has been declined\n        if (_responseType == 0 && _response == false) {\n            economicController.applyPenalty(msg.sender, IWorkerNode.Penalties.DeclinesJob);            \n        }\n\n        jobController.respondToJob(_jobId, msg.sender, _responseType, _response);\n    }\n\n    /**\n     * @dev Commit progress of job by worker\n     * @param _jobId Job Id\n     * @param _percent Prcesnt of job to finish\n     * @notice Throw if worker has no funds on stake balance\n     */\n    function commitProgress(\n        bytes32 _jobId,\n        uint8 _percent)\n    external     \n    {\n        //todo implement get workerId with worker controller in new version\n        jobController.commitProgress(_jobId, msg.sender, _percent);\n    }\n\n    /******************************************************************************************************************\n    Private functions\n    */\n\n    function _initQueuedJob(JQL.QueuedJob queuedJob, IWorkerNode[] assignedWorkers)\n    private\n    onlyInitialized\n    returns (\n        bytes32\n    ) {\n        _initCognitiveJob(\n            queuedJob.id,\n            queuedJob.owner,\n            IKernel(queuedJob.kernel),\n            IDataset(queuedJob.dataset),\n            assignedWorkers,\n            queuedJob.complexity,\n            queuedJob.description\n        );\n        return queuedJob.id;\n    }\n\n    /// @notice Can\"t be called by the user or other contract: for private use only\n    /// @dev Creates cognitive job contract, saves it to storage and fires global event to notify selected worker node.\n    /// Used both by `createCognitiveJob()` and `_checksJobQueue()` methods.\n    function _initCognitiveJob(\n        bytes32 _id,\n        address _owner,\n        IKernel _kernel, /// Pre-initialized kernel data entity contract (taken from `createCognitiveJob` arguments or\n    /// from the the `cognitiveJobQueue` `QueuedJob` structure)\n        IDataset _dataset, /// Pre-initialized dataset entity contract (taken from `createCognitiveJob` arguments or\n    /// from the the `cognitiveJobQueue` `QueuedJob` structure)\n        IWorkerNode[] _assignedWorkers, /// Array of workers assigned for the job by the lottery engine //todo change to address\n        uint256 _complexity,\n        bytes32 _description\n    )\n    private\n    onlyInitialized {\n\n        // @fixme remove in upcoming version\n        // (temporarily due to worker controller absence) convert workers array to address array\n        address[] memory workerAddresses = new address[](_assignedWorkers.length);\n        for (uint256 i = 0; i < workerAddresses.length; i++) {\n            workerAddresses[i] = address(_assignedWorkers[i]);\n        }\n\n        jobController.createCognitiveJob(\n            _id,\n            _owner,\n            address(_kernel),\n            address(_dataset),\n            workerAddresses,\n            _complexity,\n            _description);\n\n        //assign each worker to job\n        for (uint256 j = 0; j < _assignedWorkers.length; j++) {\n            _assignedWorkers[j].assignJob(_id);\n        }\n    }\n\n    /// @notice Can\"t be called by the user or other contract: for private use only\n    /// @dev Running lottery to select random worker nodes from the provided list. Used by both `createCognitiveJob`\n    /// and `_checksJobQueue` functions.\n    function _selectWorkersWithLottery(\n        IWorkerNode[] _idleWorkers, /// Pre-defined pool of Idle WorkerNodes to select from\n        uint _numberWorkersRequired /// Number of workers required by cognitive job, match with number of batches\n    )\n    private\n    returns (\n        IWorkerNode[] assignedWorkers /// Resulting sublist of the selected WorkerNodes\n    ) {\n        assignedWorkers = new IWorkerNode[](_numberWorkersRequired);\n        uint no = workerLotteryEngine.getRandom(assignedWorkers.length);\n\n        for (uint i = 0; i < assignedWorkers.length; i++) {\n            assignedWorkers[i] = _idleWorkers[no];\n            no = (no == assignedWorkers.length - 1) ? 0 : no + 1;\n        }\n    }\n\n    /// @notice Can\"t be called by the user or other contract: for private use only\n    /// @dev Pre-count amount of available Idle WorkerNodes. Required to allocate in-memory list of WorkerNodes.\n    function _countIdleWorkers(\n    // No arguments\n    )\n    private\n    view\n    returns (\n        uint o_estimatedSize /// Amount of currently available (Idle) WorkerNodes\n    ) {\n        o_estimatedSize = 0;\n\n        for (uint i = 0; i < workerNodes.length; i++) {\n\n            if (workerNodes[i].currentState() == workerNodes[i].Offline()) {\n                economicController.applyPenalty(workerNodes[i], IWorkerNode.Penalties.OfflineWhileGathering);                \n            }\n\n            if (workerNodes[i].currentState() == workerNodes[i].Idle() && \n                economicController.positiveWorkerNodeStake(workerNodes[i])) {\n\n                o_estimatedSize++;\n            }\n        }\n\n        return o_estimatedSize;\n    }\n\n    /// @notice Can\"t be called by the user or other contract: for private use only\n    /// @dev Allocates and returns in-memory array of all Idle WorkerNodes taking estimated size as an argument\n    /// (returned by `_countIdleWorkers()`)\n    function _listIdleWorkers(\n        uint _estimatedSize /// Size of array to return\n    )\n    private\n    view\n    returns (\n        IWorkerNode[] /// Returned array of all Idle WorkerNodes\n    ) {\n        IWorkerNode[] memory idleWorkers = new IWorkerNode[](_estimatedSize);\n        uint256 actualSize = 0;\n        for (uint j = 0; j < workerNodes.length; j++) {\n\n            // Choose idle workers with positive stake\n            if (workerNodes[j].currentState() == workerNodes[j].Idle() && \n                economicController.positiveWorkerNodeStake(workerNodes[j])) {\n\n                idleWorkers[actualSize++] = workerNodes[j];\n            }\n        }\n        return idleWorkers;\n    }\n}\n",
  "sourcePath": "/home/kostysh/dev/pyrrha-consensus/contracts/pandora/managers/CognitiveJobManager.sol",
  "compiler": {
    "name": "solc",
    "version": "0.4.24+commit.e67f0147.Emscripten.clang"
  },
  "schemaVersion": "2.0.1",
  "updatedAt": "2019-01-10T21:31:35.468Z"
}