{
  "contractName": "CognitiveJobFactory",
  "abi": [
    {
      "constant": false,
      "inputs": [],
      "name": "renounceOwnership",
      "outputs": [],
      "payable": false,
      "stateMutability": "nonpayable",
      "type": "function"
    },
    {
      "constant": true,
      "inputs": [],
      "name": "owner",
      "outputs": [
        {
          "name": "",
          "type": "address"
        }
      ],
      "payable": false,
      "stateMutability": "view",
      "type": "function"
    },
    {
      "constant": false,
      "inputs": [
        {
          "name": "_newOwner",
          "type": "address"
        }
      ],
      "name": "transferOwnership",
      "outputs": [],
      "payable": false,
      "stateMutability": "nonpayable",
      "type": "function"
    },
    {
      "inputs": [],
      "payable": false,
      "stateMutability": "nonpayable",
      "type": "constructor"
    },
    {
      "anonymous": false,
      "inputs": [
        {
          "indexed": true,
          "name": "previousOwner",
          "type": "address"
        }
      ],
      "name": "OwnershipRenounced",
      "type": "event"
    },
    {
      "anonymous": false,
      "inputs": [
        {
          "indexed": true,
          "name": "previousOwner",
          "type": "address"
        },
        {
          "indexed": true,
          "name": "newOwner",
          "type": "address"
        }
      ],
      "name": "OwnershipTransferred",
      "type": "event"
    },
    {
      "constant": false,
      "inputs": [
        {
          "name": "_kernel",
          "type": "address"
        },
        {
          "name": "_dataset",
          "type": "address"
        },
        {
          "name": "_workersPool",
          "type": "address[]"
        },
        {
          "name": "_complexity",
          "type": "uint256"
        },
        {
          "name": "_description",
          "type": "bytes32"
        }
      ],
      "name": "create",
      "outputs": [
        {
          "name": "o_cognitiveJob",
          "type": "address"
        }
      ],
      "payable": false,
      "stateMutability": "nonpayable",
      "type": "function"
    }
  ],
  "bytecode": "0x608060405234801561001057600080fd5b50336000806101000a81548173ffffffffffffffffffffffffffffffffffffffff021916908373ffffffffffffffffffffffffffffffffffffffff160217905550614ba9806100606000396000f30060806040526004361062000067576000357c0100000000000000000000000000000000000000000000000000000000900463ffffffff1680630109c3f9146200006c578063715018a614620001425780638da5cb5b146200015c578063f2fde38b14620001b6575b600080fd5b3480156200007957600080fd5b5062000100600480360381019080803573ffffffffffffffffffffffffffffffffffffffff169060200190929190803573ffffffffffffffffffffffffffffffffffffffff169060200190929190803590602001908201803590602001919091929391929390803590602001909291908035600019169060200190929190505050620001fc565b604051808273ffffffffffffffffffffffffffffffffffffffff1673ffffffffffffffffffffffffffffffffffffffff16815260200191505060405180910390f35b3480156200014f57600080fd5b506200015a62000461565b005b3480156200016957600080fd5b506200017462000564565b604051808273ffffffffffffffffffffffffffffffffffffffff1673ffffffffffffffffffffffffffffffffffffffff16815260200191505060405180910390f35b348015620001c357600080fd5b50620001fa600480360381019080803573ffffffffffffffffffffffffffffffffffffffff16906020019092919050505062000589565b005b60008060009054906101000a900473ffffffffffffffffffffffffffffffffffffffff1673ffffffffffffffffffffffffffffffffffffffff163373ffffffffffffffffffffffffffffffffffffffff161415156200025a57600080fd5b6000809054906101000a900473ffffffffffffffffffffffffffffffffffffffff168787878787876200028c620006ee565b808873ffffffffffffffffffffffffffffffffffffffff1673ffffffffffffffffffffffffffffffffffffffff1681526020018773ffffffffffffffffffffffffffffffffffffffff1673ffffffffffffffffffffffffffffffffffffffff1681526020018673ffffffffffffffffffffffffffffffffffffffff1673ffffffffffffffffffffffffffffffffffffffff1681526020018060200184815260200183600019166000191681526020018281038252868682818152602001925060200280828437820191505098505050505050505050604051809103906000f0801580156200037e573d6000803e3d6000fd5b5090508073ffffffffffffffffffffffffffffffffffffffff1663f2fde38b6000809054906101000a900473ffffffffffffffffffffffffffffffffffffffff166040518263ffffffff167c0100000000000000000000000000000000000000000000000000000000028152600401808273ffffffffffffffffffffffffffffffffffffffff1673ffffffffffffffffffffffffffffffffffffffff168152602001915050600060405180830381600087803b1580156200043e57600080fd5b505af115801562000453573d6000803e3d6000fd5b505050509695505050505050565b6000809054906101000a900473ffffffffffffffffffffffffffffffffffffffff1673ffffffffffffffffffffffffffffffffffffffff163373ffffffffffffffffffffffffffffffffffffffff16141515620004bd57600080fd5b6000809054906101000a900473ffffffffffffffffffffffffffffffffffffffff1673ffffffffffffffffffffffffffffffffffffffff167ff8df31144d9c2f0f6b59d69b8b98abd5459d07f2742c4df920b25aae33c6482060405160405180910390a260008060006101000a81548173ffffffffffffffffffffffffffffffffffffffff021916908373ffffffffffffffffffffffffffffffffffffffff160217905550565b6000809054906101000a900473ffffffffffffffffffffffffffffffffffffffff1681565b6000809054906101000a900473ffffffffffffffffffffffffffffffffffffffff1673ffffffffffffffffffffffffffffffffffffffff163373ffffffffffffffffffffffffffffffffffffffff16141515620005e557600080fd5b620005f081620005f3565b50565b600073ffffffffffffffffffffffffffffffffffffffff168173ffffffffffffffffffffffffffffffffffffffff16141515156200063057600080fd5b8073ffffffffffffffffffffffffffffffffffffffff166000809054906101000a900473ffffffffffffffffffffffffffffffffffffffff1673ffffffffffffffffffffffffffffffffffffffff167f8be0079c531659141344cd1fd0a4f28419497f9722a3daafe3b4186f6b6457e060405160405180910390a3806000806101000a81548173ffffffffffffffffffffffffffffffffffffffff021916908373ffffffffffffffffffffffffffffffffffffffff16021790555050565b60405161447e806200070083390190560060806040523480156200001157600080fd5b506040516200447e3803806200447e833981018060405281019080805190602001909291908051906020019092919080519060200190929190805182019291906020018051906020019092919080519060200190929190505050336000806101000a81548173ffffffffffffffffffffffffffffffffffffffff021916908373ffffffffffffffffffffffffffffffffffffffff1602179055508373ffffffffffffffffffffffffffffffffffffffff166387ea09616040518163ffffffff167c0100000000000000000000000000000000000000000000000000000000028152600401602060405180830381600087803b1580156200011057600080fd5b505af115801562000125573d6000803e3d6000fd5b505050506040513d60208110156200013c57600080fd5b810190808051906020019092919050505060ff1660048190555060006004541115156200016857600080fd5b6004548351101515156200017b57600080fd5b600073ffffffffffffffffffffffffffffffffffffffff168673ffffffffffffffffffffffffffffffffffffffff1614151515620001b857600080fd5b600073ffffffffffffffffffffffffffffffffffffffff168573ffffffffffffffffffffffffffffffffffffffff1614151515620001f557600080fd5b600073ffffffffffffffffffffffffffffffffffffffff168473ffffffffffffffffffffffffffffffffffffffff16141515156200023257600080fd5b85600160006101000a81548173ffffffffffffffffffffffffffffffffffffffff021916908373ffffffffffffffffffffffffffffffffffffffff16021790555084600260006101000a81548173ffffffffffffffffffffffffffffffffffffffff021916908373ffffffffffffffffffffffffffffffffffffffff16021790555083600360006101000a81548173ffffffffffffffffffffffffffffffffffffffff021916908373ffffffffffffffffffffffffffffffffffffffff16021790555082600990805190602001906200030d92919062000693565b508160058190555080600781600019169055506200033962000345640100000000026401000000009004565b505050505050620009a5565b6000600d6001019050602060405190810160405280600160ff1660ff168152508160008060ff1660ff1681526020019081526020016000209060016200038d92919062000722565b506040805190810160405280600260ff1660ff168152602001600360ff1660ff16815250816000600160ff1660ff168152602001908152602001600020906002620003da929190620007d0565b50606060405190810160405280600460ff1660ff168152602001600560ff1660ff168152602001600260ff1660ff16815250816000600360ff1660ff168152602001908152602001600020906003620004359291906200087e565b506040805190810160405280600760ff1660ff168152602001600660ff1660ff16815250816000600560ff1660ff16815260200190815260200160002090600262000482929190620007d0565b50620004a1620004c364010000000002620038e9176401000000009004565b6000600d60000160016101000a81548160ff021916908360ff16021790555050565b6040805190810160405280601181526020017f5f696e697453746174654d616368696e6500000000000000000000000000000081525060001515600c826040518082805190602001908083835b60208310151562000537578051825260208201915060208101905060208303925062000510565b6001836020036101000a038019825116818451168082178552505050505050905001915050908152602001604051809103902060009054906101000a900460ff1615151415156200058757600080fd5b620005a7600d620006306401000000000262003a3b176401000000009004565b6001600c826040518082805190602001908083835b602083101515620005e35780518252602082019150602081019050602083039250620005bc565b6001836020036101000a038019825116818451168082178552505050505050905001915050908152602001604051809103902060006101000a81548160ff02191690831515021790555050565b600015158160000160009054906101000a900460ff1615151415156200065557600080fd5b60018160000160016101000a81548160ff021916908360ff16021790555060018160000160006101000a81548160ff02191690831515021790555050565b8280548282559060005260206000209081019282156200070f579160200282015b828111156200070e5782518260006101000a81548173ffffffffffffffffffffffffffffffffffffffff021916908373ffffffffffffffffffffffffffffffffffffffff16021790555091602001919060010190620006b4565b5b5090506200071e91906200092c565b5090565b82805482825590600052602060002090601f01602090048101928215620007bd5791602002820160005b838211156200078c57835183826101000a81548160ff021916908360ff16021790555092602001926001016020816000010492830192600103026200074c565b8015620007bb5782816101000a81549060ff02191690556001016020816000010492830192600103026200078c565b505b509050620007cc919062000972565b5090565b82805482825590600052602060002090601f016020900481019282156200086b5791602002820160005b838211156200083a57835183826101000a81548160ff021916908360ff1602179055509260200192600101602081600001049283019260010302620007fa565b8015620008695782816101000a81549060ff02191690556001016020816000010492830192600103026200083a565b505b5090506200087a919062000972565b5090565b82805482825590600052602060002090601f01602090048101928215620009195791602002820160005b83821115620008e857835183826101000a81548160ff021916908360ff1602179055509260200192600101602081600001049283019260010302620008a8565b8015620009175782816101000a81549060ff0219169055600101602081600001049283019260010302620008e8565b505b50905062000928919062000972565b5090565b6200096f91905b808211156200096b57600081816101000a81549073ffffffffffffffffffffffffffffffffffffffff02191690555060010162000933565b5090565b90565b620009a291905b808211156200099e57600081816101000a81549060ff02191690555060010162000979565b5090565b90565b613ac980620009b56000396000f300608060405260043610610204576000357c0100000000000000000000000000000000000000000000000000000000900463ffffffff168063026d49ea1461020957806302b728ab1461023a5780630c3f6acf146102915780630fb03aad146102c25780631590d658146103685780631a0bc596146103995780631c72fad4146103f057806321514ef31461042157806323d554731461045257806340a030a21461047d5780634804b4ba146104a85780634a41db85146104d35780634e6b42a814610514578063577bd3361461056757806358909400146105985780635cb045db146106055780635e4059671461063657806364d3414c146106a35780636936087d146106d2578063715018a6146107025780637284e416146107195780637932293a1461074c5780638080be77146107635780638129fc1c1461078e57806383197ef0146107a55780638da5cb5b146107bc57806393b7e27414610813578063a5eaec1a14610858578063a8b1d0f41461089d578063acf7807b146108f4578063b225be4214610924578063b69aa62914610954578063c36b33b014610999578063cbd315ae146109ca578063cc0e82c1146109fb578063cfdf677e14610a2c578063d4aae0c414610a57578063d6ccdca314610aae578063d94c69aa14610af3578063e06452d014610b29578063f2fde38b14610b5a578063f5074f4114610b9d575b600080fd5b34801561021557600080fd5b5061021e610be0565b604051808260ff1660ff16815260200191505060405180910390f35b34801561024657600080fd5b5061024f610be5565b604051808273ffffffffffffffffffffffffffffffffffffffff1673ffffffffffffffffffffffffffffffffffffffff16815260200191505060405180910390f35b34801561029d57600080fd5b506102a6610c0b565b604051808260ff1660ff16815260200191505060405180910390f35b3480156102ce57600080fd5b506102ed60048036038101908080359060200190929190505050610c25565b6040518080602001828103825283818151815260200191508051906020019080838360005b8381101561032d578082015181840152602081019050610312565b50505050905090810190601f16801561035a5780820380516001836020036101000a031916815260200191505b509250505060405180910390f35b34801561037457600080fd5b5061037d610ce0565b604051808260ff1660ff16815260200191505060405180910390f35b3480156103a557600080fd5b506103ae610ce5565b604051808273ffffffffffffffffffffffffffffffffffffffff1673ffffffffffffffffffffffffffffffffffffffff16815260200191505060405180910390f35b3480156103fc57600080fd5b50610405610d0b565b604051808260ff1660ff16815260200191505060405180910390f35b34801561042d57600080fd5b50610436610d10565b604051808260ff1660ff16815260200191505060405180910390f35b34801561045e57600080fd5b50610467610d15565b6040518082815260200191505060405180910390f35b34801561048957600080fd5b50610492610d1b565b6040518082815260200191505060405180910390f35b3480156104b457600080fd5b506104bd610d28565b6040518082815260200191505060405180910390f35b3480156104df57600080fd5b506104fe60048036038101908080359060200190929190505050610d35565b6040518082815260200191505060405180910390f35b34801561052057600080fd5b5061054d600480360381019080803590602001908201803590602001919091929391929390505050610d58565b604051808215151515815260200191505060405180910390f35b34801561057357600080fd5b5061057c610fb4565b604051808260ff1660ff16815260200191505060405180910390f35b3480156105a457600080fd5b506105c360048036038101908080359060200190929190505050610fc7565b604051808273ffffffffffffffffffffffffffffffffffffffff1673ffffffffffffffffffffffffffffffffffffffff16815260200191505060405180910390f35b34801561061157600080fd5b5061061a611005565b604051808260ff1660ff16815260200191505060405180910390f35b34801561064257600080fd5b506106616004803603810190808035906020019092919050505061100a565b604051808273ffffffffffffffffffffffffffffffffffffffff1673ffffffffffffffffffffffffffffffffffffffff16815260200191505060405180910390f35b3480156106af57600080fd5b506106d0600480360381019080803515159060200190929190505050611048565b005b3480156106de57600080fd5b50610700600480360381019080803560ff1690602001909291905050506111b2565b005b34801561070e57600080fd5b5061071761137e565b005b34801561072557600080fd5b5061072e611480565b60405180826000191660001916815260200191505060405180910390f35b34801561075857600080fd5b50610761611486565b005b34801561076f57600080fd5b506107786115c4565b6040518082815260200191505060405180910390f35b34801561079a57600080fd5b506107a36115ca565b005b3480156107b157600080fd5b506107ba611aaf565b005b3480156107c857600080fd5b506107d1611b44565b604051808273ffffffffffffffffffffffffffffffffffffffff1673ffffffffffffffffffffffffffffffffffffffff16815260200191505060405180910390f35b34801561081f57600080fd5b5061083e60048036038101908080359060200190929190505050611b69565b604051808215151515815260200191505060405180910390f35b34801561086457600080fd5b5061088360048036038101908080359060200190929190505050611b9c565b604051808215151515815260200191505060405180910390f35b3480156108a957600080fd5b506108b2611bcf565b604051808273ffffffffffffffffffffffffffffffffffffffff1673ffffffffffffffffffffffffffffffffffffffff16815260200191505060405180910390f35b34801561090057600080fd5b50610922600480360381019080803560ff169060200190929190505050611bf5565b005b34801561093057600080fd5b50610952600480360381019080803560ff169060200190929190505050611c93565b005b34801561096057600080fd5b5061097f60048036038101908080359060200190929190505050611e44565b604051808215151515815260200191505060405180910390f35b3480156109a557600080fd5b506109ae611e77565b604051808260ff1660ff16815260200191505060405180910390f35b3480156109d657600080fd5b506109df611e7c565b604051808260ff1660ff16815260200191505060405180910390f35b348015610a0757600080fd5b50610a10611e81565b604051808260ff1660ff16815260200191505060405180910390f35b348015610a3857600080fd5b50610a41611e86565b6040518082815260200191505060405180910390f35b348015610a6357600080fd5b50610a6c611e8c565b604051808273ffffffffffffffffffffffffffffffffffffffff1673ffffffffffffffffffffffffffffffffffffffff16815260200191505060405180910390f35b348015610aba57600080fd5b50610ad960048036038101908080359060200190929190505050611eb2565b604051808215151515815260200191505060405180910390f35b610b27600480360381019080803573ffffffffffffffffffffffffffffffffffffffff169060200190929190505050611f13565b005b348015610b3557600080fd5b50610b3e611fb7565b604051808260ff1660ff16815260200191505060405180910390f35b348015610b6657600080fd5b50610b9b600480360381019080803573ffffffffffffffffffffffffffffffffffffffff169060200190929190505050611fbc565b005b348015610ba957600080fd5b50610bde600480360381019080803573ffffffffffffffffffffffffffffffffffffffff169060200190929190505050612023565b005b600681565b600360009054906101000a900473ffffffffffffffffffffffffffffffffffffffff1681565b6000600d60000160019054906101000a900460ff16905090565b600b81815481101515610c3457fe5b906000526020600020016000915090508054600181600116156101000203166002900480601f016020809104026020016040519081016040528092919081815260200182805460018160011615610100020316600290048015610cd85780601f10610cad57610100808354040283529160200191610cd8565b820191906000526020600020905b815481529060010190602001808311610cbb57829003601f168201915b505050505081565b600581565b600160009054906101000a900473ffffffffffffffffffffffffffffffffffffffff1681565b600081565b600181565b60055481565b6000600b80549050905090565b6000600880549050905090565b600f81815481101515610d4457fe5b906000526020600020016000915090505481565b6000806000610d65612097565b5080915050600073ffffffffffffffffffffffffffffffffffffffff168173ffffffffffffffffffffffffffffffffffffffff1614151515610da657600080fd5b8073ffffffffffffffffffffffffffffffffffffffff163373ffffffffffffffffffffffffffffffffffffffff16141515610de057600080fd5b8073ffffffffffffffffffffffffffffffffffffffff16638da5cb5b6040518163ffffffff167c0100000000000000000000000000000000000000000000000000000000028152600401602060405180830381600087803b158015610e4457600080fd5b505af1158015610e58573d6000803e3d6000fd5b505050506040513d6020811015610e6e57600080fd5b810190808051906020019092919050505073ffffffffffffffffffffffffffffffffffffffff163273ffffffffffffffffffffffffffffffffffffffff16141515610eb857600080fd5b610ec0612097565b9050809250508484600b84815481101515610ed757fe5b906000526020600020019190610eee929190613442565b506001601283815481101515610f0057fe5b90600052602060002090602091828204019190066101000a81548160ff02191690831515021790555042600f83815481101515610f3957fe5b9060005260206000200181905550610f4f61211f565b610f57612390565b15610fac57610f6660076123fb565b6001925033600a60006101000a81548173ffffffffffffffffffffffffffffffffffffffff021916908373ffffffffffffffffffffffffffffffffffffffff1602179055505b505092915050565b600a60149054906101000a900460ff1681565b600881815481101515610fd657fe5b906000526020600020016000915054906101000a900473ffffffffffffffffffffffffffffffffffffffff1681565b600481565b60098181548110151561101957fe5b906000526020600020016000915054906101000a900473ffffffffffffffffffffffffffffffffffffffff1681565b6000611052612097565b5080915050600073ffffffffffffffffffffffffffffffffffffffff168173ffffffffffffffffffffffffffffffffffffffff161415151561109357600080fd5b8073ffffffffffffffffffffffffffffffffffffffff163373ffffffffffffffffffffffffffffffffffffffff161415156110cd57600080fd5b8073ffffffffffffffffffffffffffffffffffffffff16638da5cb5b6040518163ffffffff167c0100000000000000000000000000000000000000000000000000000000028152600401602060405180830381600087803b15801561113157600080fd5b505af1158015611145573d6000803e3d6000fd5b505050506040513d602081101561115b57600080fd5b810190808051906020019092919050505073ffffffffffffffffffffffffffffffffffffffff163273ffffffffffffffffffffffffffffffffffffffff161415156111a557600080fd5b6111ae8261241d565b5050565b6000806111bd612097565b5080915050600073ffffffffffffffffffffffffffffffffffffffff168173ffffffffffffffffffffffffffffffffffffffff16141515156111fe57600080fd5b8073ffffffffffffffffffffffffffffffffffffffff163373ffffffffffffffffffffffffffffffffffffffff1614151561123857600080fd5b8073ffffffffffffffffffffffffffffffffffffffff16638da5cb5b6040518163ffffffff167c0100000000000000000000000000000000000000000000000000000000028152600401602060405180830381600087803b15801561129c57600080fd5b505af11580156112b0573d6000803e3d6000fd5b505050506040513d60208110156112c657600080fd5b810190808051906020019092919050505073ffffffffffffffffffffffffffffffffffffffff163273ffffffffffffffffffffffffffffffffffffffff1614151561131057600080fd5b611318612097565b90508092505042600f8381548110151561132e57fe5b90600052602060002001819055507f6e61ae137e19999439ac1653b045d99d8b1a4d38b3b2ef2956ab2b5494957b3d83604051808260ff1660ff16815260200191505060405180910390a1505050565b6000809054906101000a900473ffffffffffffffffffffffffffffffffffffffff1673ffffffffffffffffffffffffffffffffffffffff163373ffffffffffffffffffffffffffffffffffffffff161415156113d957600080fd5b6000809054906101000a900473ffffffffffffffffffffffffffffffffffffffff1673ffffffffffffffffffffffffffffffffffffffff167ff8df31144d9c2f0f6b59d69b8b98abd5459d07f2742c4df920b25aae33c6482060405160405180910390a260008060006101000a81548173ffffffffffffffffffffffffffffffffffffffff021916908373ffffffffffffffffffffffffffffffffffffffff160217905550565b60075481565b600160009054906101000a900473ffffffffffffffffffffffffffffffffffffffff1673ffffffffffffffffffffffffffffffffffffffff163373ffffffffffffffffffffffffffffffffffffffff161415156114e257600080fd5b600a60009054906101000a900473ffffffffffffffffffffffffffffffffffffffff1673ffffffffffffffffffffffffffffffffffffffff1663bc1d3c1d6040518163ffffffff167c0100000000000000000000000000000000000000000000000000000000028152600401600060405180830381600087803b15801561156857600080fd5b505af115801561157c573d6000803e3d6000fd5b505050506000600a60006101000a81548173ffffffffffffffffffffffffffffffffffffffff021916908373ffffffffffffffffffffffffffffffffffffffff160217905550565b60065481565b60008060008060ff16600d60000160019054906101000a900460ff1660ff161415156115f557600080fd5b6004546040519080825280602002602001820160405280156116265781602001602082028038833980820191505090505b506008908051906020019061163c9291906134c2565b5060045460405190808252806020026020018201604052801561166e5781602001602082028038833980820191505090505b50600f908051906020019061168492919061354c565b506004546040519080825280602002602001820160405280156116b65781602001602082028038833980820191505090505b50601090805190602001906116cc929190613599565b506004546040519080825280602002602001820160405280156116fe5781602001602082028038833980820191505090505b5060119080519060200190611714929190613599565b506004546040519080825280602002602001820160405280156117465781602001602082028038833980820191505090505b506012908051906020019061175c929190613599565b5060045460405190808252806020026020018201604052801561179357816020015b606081526020019060019003908161177e5790505b50600b90805190602001906117a992919061363f565b50600092505b6004548360ff1610156119ad57600060108460ff168154811015156117d057fe5b90600052602060002090602091828204019190066101000a81548160ff02191690831515021790555042600f8460ff1681548110151561180c57fe5b906000526020600020018190555060098360ff1681548110151561182c57fe5b9060005260206000200160009054906101000a900473ffffffffffffffffffffffffffffffffffffffff1660088460ff1681548110151561186957fe5b9060005260206000200160006101000a81548173ffffffffffffffffffffffffffffffffffffffff021916908373ffffffffffffffffffffffffffffffffffffffff16021790555060088360ff168154811015156118c357fe5b9060005260206000200160009054906101000a900473ffffffffffffffffffffffffffffffffffffffff1673ffffffffffffffffffffffffffffffffffffffff1663897399ae306040518263ffffffff167c0100000000000000000000000000000000000000000000000000000000028152600401808273ffffffffffffffffffffffffffffffffffffffff1673ffffffffffffffffffffffffffffffffffffffff168152602001915050600060405180830381600087803b15801561198857600080fd5b505af115801561199c573d6000803e3d6000fd5b5050505082806001019350506117af565b8260ff1691505b6009805490508261ffff161015611a74576009808361ffff168154811015156119d957fe5b9060005260206000200160009054906101000a900473ffffffffffffffffffffffffffffffffffffffff1690806001815401808255809150509060018203906000526020600020016000909192909190916101000a81548173ffffffffffffffffffffffffffffffffffffffff021916908373ffffffffffffffffffffffffffffffffffffffff1602179055505081806001019250506119b4565b611a7e60016123fb565b7f7e0d09ae7160446fde9323338cdbe3e98cc2d5197108e8a3c5e037265288335d60405160405180910390a1505050565b6000809054906101000a900473ffffffffffffffffffffffffffffffffffffffff1673ffffffffffffffffffffffffffffffffffffffff163373ffffffffffffffffffffffffffffffffffffffff16141515611b0a57600080fd5b6000809054906101000a900473ffffffffffffffffffffffffffffffffffffffff1673ffffffffffffffffffffffffffffffffffffffff16ff5b6000809054906101000a900473ffffffffffffffffffffffffffffffffffffffff1681565b601081815481101515611b7857fe5b9060005260206000209060209182820401919006915054906101000a900460ff1681565b601281815481101515611bab57fe5b9060005260206000209060209182820401919006915054906101000a900460ff1681565b600a60009054906101000a900473ffffffffffffffffffffffffffffffffffffffff1681565b6000600d60000160019054906101000a900460ff16905081600d60000160016101000a81548160ff021916908360ff1602179055507fe8a97ea87e4388fa22d496b95a8ed5ced6717f49790318de2b928aaf37a021d881600d60000160019054906101000a900460ff16604051808360ff1660ff1681526020018260ff1660ff1681526020019250505060405180910390a1611c8f6125f9565b5050565b6000611c9d612097565b5080915050600073ffffffffffffffffffffffffffffffffffffffff168173ffffffffffffffffffffffffffffffffffffffff1614151515611cde57600080fd5b8073ffffffffffffffffffffffffffffffffffffffff163373ffffffffffffffffffffffffffffffffffffffff16141515611d1857600080fd5b8073ffffffffffffffffffffffffffffffffffffffff16638da5cb5b6040518163ffffffff167c0100000000000000000000000000000000000000000000000000000000028152600401602060405180830381600087803b158015611d7c57600080fd5b505af1158015611d90573d6000803e3d6000fd5b505050506040513d6020811015611da657600080fd5b810190808051906020019092919050505073ffffffffffffffffffffffffffffffffffffffff163273ffffffffffffffffffffffffffffffffffffffff16141515611df057600080fd5b600280811115611dfc57fe5b826002811115611e0857fe5b1415611e1d57611e1860046123fb565b611e40565b611e3f60006002811115611e2d57fe5b836002811115611e3957fe5b14612912565b5b5050565b601181815481101515611e5357fe5b9060005260206000209060209182820401919006915054906101000a900460ff1681565b600281565b600381565b60ff81565b60045481565b600260009054906101000a900473ffffffffffffffffffffffffffffffffffffffff1681565b600060058060ff16600d60000160019054906101000a900460ff1660ff16141515611edc57600080fd5b601083815481101515611eeb57fe5b90600052602060002090602091828204019190069054906101000a900460ff16915050919050565b6000600160ff16600d60000160019054906101000a900460ff1660ff161480611f545750600360ff16600d60000160019054906101000a900460ff1660ff16145b80611f775750600560ff16600d60000160019054906101000a900460ff1660ff16145b1515611f8257600080fd5b611f8b82612aee565b9050610708600f82815481101515611f9f57fe5b906000526020600020505050611fb361211f565b5050565b600781565b6000809054906101000a900473ffffffffffffffffffffffffffffffffffffffff1673ffffffffffffffffffffffffffffffffffffffff163373ffffffffffffffffffffffffffffffffffffffff1614151561201757600080fd5b61202081612baf565b50565b6000809054906101000a900473ffffffffffffffffffffffffffffffffffffffff1673ffffffffffffffffffffffffffffffffffffffff163373ffffffffffffffffffffffffffffffffffffffff1614151561207e57600080fd5b8073ffffffffffffffffffffffffffffffffffffffff16ff5b6000806120a333612aee565b90506008805490508111156120de5760007fffffffffffffffffffffffffffffffffffffffffffffffffffffffffffffffff9150915061211b565b6008818154811015156120ed57fe5b9060005260206000200160009054906101000a900473ffffffffffffffffffffffffffffffffffffffff1691505b9091565b6000806000600160ff16600d60000160019054906101000a900460ff1660ff1614806121635750600360ff16600d60000160019054906101000a900460ff1660ff16145b806121865750600560ff16600d60000160019054906101000a900460ff1660ff16145b151561219157600080fd5b600092505b600f8054905083101561238b57610708600f848154811015156121b557fe5b90600052602060002001544203111561237e576008838154811015156121d757fe5b9060005260206000200160009054906101000a900473ffffffffffffffffffffffffffffffffffffffff169150600160ff16600d60000160019054906101000a900460ff1660ff16141561222e5760009050612289565b600360ff16600d60000160019054906101000a900460ff1660ff1614156122585760029050612288565b600560ff16600d60000160019054906101000a900460ff1660ff1614156122825760049050612287565b600080fd5b5b5b600160009054906101000a900473ffffffffffffffffffffffffffffffffffffffff1673ffffffffffffffffffffffffffffffffffffffff16635ef1777683836040518363ffffffff167c0100000000000000000000000000000000000000000000000000000000028152600401808373ffffffffffffffffffffffffffffffffffffffff1673ffffffffffffffffffffffffffffffffffffffff16815260200182600481111561233657fe5b60ff16815260200192505050600060405180830381600087803b15801561235c57600080fd5b505af1158015612370573d6000803e3d6000fd5b5050505061237d83612ca9565b5b8280600101935050612196565b505050565b60008060019150600090505b6012805490508110156123f757600115156012828154811015156123bc57fe5b90600052602060002090602091828204019190069054906101000a900460ff1615151415156123ea57600091505b808060010191505061239c565b5090565b8061241081600d61302290919063ffffffff16565b61241982611bf5565b5050565b600080612428612097565b8092508193505050600073ffffffffffffffffffffffffffffffffffffffff168273ffffffffffffffffffffffffffffffffffffffff161415151561246c57600080fd5b6000151583151514156125735761248281612ca9565b600160009054906101000a900473ffffffffffffffffffffffffffffffffffffffff1673ffffffffffffffffffffffffffffffffffffffff16635ef177768360006040518363ffffffff167c0100000000000000000000000000000000000000000000000000000000028152600401808373ffffffffffffffffffffffffffffffffffffffff1673ffffffffffffffffffffffffffffffffffffffff16815260200182600481111561253057fe5b60ff16815260200192505050600060405180830381600087803b15801561255657600080fd5b505af115801561256a573d6000803e3d6000fd5b505050506125f4565b600160108281548110151561258457fe5b90600052602060002090602091828204019190066101000a81548160ff02191690831515021790555042600f828154811015156125bd57fe5b90600052602060002001819055506125d361211f565b6125db6130f2565b156125f3576125e861315d565b6125f260036123fb565b5b5b505050565b600260ff16612606610c0b565b60ff161415612648577f5f64b01e798e22b7b006309d50c085491c227a74e9cf11a922528b0d9a414de460405160405180910390a161264361319e565b612910565b600360ff16612655610c0b565b60ff16141561268f577f2d9c6af01e1c3857ef5720b6226a3b900b0db1a5a9430c53d8a35b4fccf2015560405160405180910390a161290f565b600460ff1661269c610c0b565b60ff1614156126de577f75be0ccc76f667c80f1c9ab66fafe78bd732b900403eb3f0da135c085955deca60405160405180910390a16126d961319e565b61290e565b600560ff166126eb610c0b565b60ff161415612725577f51273f7efcba23797f509c81f07b426c6b9cdbee92a6a40389a405d0152178c960405160405180910390a161290d565b600660ff16612732610c0b565b60ff16141561281a577ff8d8e42e26bfacf74ecaff47cd43fa79d51c74d3a979d58521d12f369ad2bf7b6001604051808215151515815260200191505060405180910390a1600160009054906101000a900473ffffffffffffffffffffffffffffffffffffffff1673ffffffffffffffffffffffffffffffffffffffff1663171317516040518163ffffffff167c0100000000000000000000000000000000000000000000000000000000028152600401600060405180830381600087803b1580156127fd57600080fd5b505af1158015612811573d6000803e3d6000fd5b5050505061290c565b600760ff16612827610c0b565b60ff16141561290b577ff8d8e42e26bfacf74ecaff47cd43fa79d51c74d3a979d58521d12f369ad2bf7b6000604051808215151515815260200191505060405180910390a1600160009054906101000a900473ffffffffffffffffffffffffffffffffffffffff1673ffffffffffffffffffffffffffffffffffffffff1663171317516040518163ffffffff167c0100000000000000000000000000000000000000000000000000000000028152600401600060405180830381600087803b1580156128f257600080fd5b505af1158015612906573d6000803e3d6000fd5b505050505b5b5b5b5b5b565b60008061291d612097565b8092508193505050600073ffffffffffffffffffffffffffffffffffffffff168273ffffffffffffffffffffffffffffffffffffffff161415151561296157600080fd5b600015158315151415612a685761297781612ca9565b600160009054906101000a900473ffffffffffffffffffffffffffffffffffffffff1673ffffffffffffffffffffffffffffffffffffffff16635ef177768360016040518363ffffffff167c0100000000000000000000000000000000000000000000000000000000028152600401808373ffffffffffffffffffffffffffffffffffffffff1673ffffffffffffffffffffffffffffffffffffffff168152602001826004811115612a2557fe5b60ff16815260200192505050600060405180830381600087803b158015612a4b57600080fd5b505af1158015612a5f573d6000803e3d6000fd5b50505050612ae9565b6001601182815481101515612a7957fe5b90600052602060002090602091828204019190066101000a81548160ff02191690831515021790555042600f82815481101515612ab257fe5b9060005260206000200181905550612ac861211f565b612ad06131f0565b15612ae857612add61315d565b612ae760056123fb565b5b5b505050565b600080600090505b600880549050811015612b8557600881815481101515612b1257fe5b9060005260206000200160009054906101000a900473ffffffffffffffffffffffffffffffffffffffff1673ffffffffffffffffffffffffffffffffffffffff168373ffffffffffffffffffffffffffffffffffffffff161415612b7857809150612ba9565b8080600101915050612af6565b7fffffffffffffffffffffffffffffffffffffffffffffffffffffffffffffffff91505b50919050565b600073ffffffffffffffffffffffffffffffffffffffff168173ffffffffffffffffffffffffffffffffffffffff1614151515612beb57600080fd5b8073ffffffffffffffffffffffffffffffffffffffff166000809054906101000a900473ffffffffffffffffffffffffffffffffffffffff1673ffffffffffffffffffffffffffffffffffffffff167f8be0079c531659141344cd1fd0a4f28419497f9722a3daafe3b4186f6b6457e060405160405180910390a3806000806101000a81548173ffffffffffffffffffffffffffffffffffffffff021916908373ffffffffffffffffffffffffffffffffffffffff16021790555050565b600060036005612cc58282600d61325b9092919063ffffffff16565b5b60006009805490501415612ce157612cdc6132c1565b61301c565b6009600160098054905003815481101515612cf857fe5b9060005260206000200160009054906101000a900473ffffffffffffffffffffffffffffffffffffffff169250600160098054905003600981612d3b919061369f565b508273ffffffffffffffffffffffffffffffffffffffff1663ae897c556040518163ffffffff167c0100000000000000000000000000000000000000000000000000000000028152600401602060405180830381600087803b158015612da057600080fd5b505af1158015612db4573d6000803e3d6000fd5b505050506040513d6020811015612dca57600080fd5b810190808051906020019092919050505060ff168373ffffffffffffffffffffffffffffffffffffffff16630c3f6acf6040518163ffffffff167c0100000000000000000000000000000000000000000000000000000000028152600401602060405180830381600087803b158015612e4257600080fd5b505af1158015612e56573d6000803e3d6000fd5b505050506040513d6020811015612e6c57600080fd5b810190808051906020019092919050505060ff16141515612e8c57612cc6565b6000601085815481101515612e9d57fe5b90600052602060002090602091828204019190066101000a81548160ff02191690831515021790555042600f85815481101515612ed657fe5b906000526020600020018190555082600885815481101515612ef457fe5b9060005260206000200160006101000a81548173ffffffffffffffffffffffffffffffffffffffff021916908373ffffffffffffffffffffffffffffffffffffffff1602179055508273ffffffffffffffffffffffffffffffffffffffff1663897399ae306040518263ffffffff167c0100000000000000000000000000000000000000000000000000000000028152600401808273ffffffffffffffffffffffffffffffffffffffff1673ffffffffffffffffffffffffffffffffffffffff168152602001915050600060405180830381600087803b158015612fd757600080fd5b505af1158015612feb573d6000803e3d6000fd5b505050507f7e0d09ae7160446fde9323338cdbe3e98cc2d5197108e8a3c5e037265288335d60405160405180910390a15b50505050565b600080600060ff8560000160019054906101000a900460ff1660ff161415151561304857fe5b600092508460010160008660000160019054906101000a900460ff1660ff1660ff1681526020019081526020016000209150600090505b81805490508110156130d8578360ff16828281548110151561309d57fe5b90600052602060002090602091828204019190069054906101000a900460ff1660ff1614156130cb57600192505b808060010191505061307f565b600115158315151415156130eb57600080fd5b5050505050565b60008060019150600090505b601080549050811015613159576001151560108281548110151561311e57fe5b90600052602060002090602091828204019190069054906101000a900460ff16151514151561314c57600091505b80806001019150506130fe565b5090565b60008090505b60088054905081101561319b5742600f8281548110151561318057fe5b90600052602060002001819055508080600101915050613163565b50565b60006009816131ad919061369f565b5060006008816131bd919061369f565b506000600b816131cd91906136cb565b5060006010816131dd91906136f7565b506000600f816131ed9190613731565b50565b60008060019150600090505b601180549050811015613257576001151560118281548110151561321c57fe5b90600052602060002090602091828204019190069054906101000a900460ff16151514151561324a57600091505b80806001019150506131fc565b5090565b60008090508360000160019054906101000a900460ff1660ff168360ff16141561328457600190505b8360000160019054906101000a900460ff1660ff168260ff1614156132a857600190505b600115158115151415156132bb57600080fd5b50505050565b6000600160ff16600d60000160019054906101000a900460ff1660ff1614806133025750600360ff16600d60000160019054906101000a900460ff1660ff16145b806133255750600560ff16600d60000160019054906101000a900460ff1660ff16145b151561333057600080fd5b600090505b6008805490508110156134045760088181548110151561335157fe5b9060005260206000200160009054906101000a900473ffffffffffffffffffffffffffffffffffffffff1673ffffffffffffffffffffffffffffffffffffffff1663b07c74756040518163ffffffff167c0100000000000000000000000000000000000000000000000000000000028152600401600060405180830381600087803b1580156133df57600080fd5b505af11580156133f3573d6000803e3d6000fd5b505050508080600101915050613335565b600560ff16600d60000160019054906101000a900460ff1660ff1614156134345761342f60066123fb565b61343f565b61343e60026123fb565b5b50565b828054600181600116156101000203166002900490600052602060002090601f016020900481019282601f1061348357803560ff19168380011785556134b1565b828001600101855582156134b1579182015b828111156134b0578235825591602001919060010190613495565b5b5090506134be919061375d565b5090565b82805482825590600052602060002090810192821561353b579160200282015b8281111561353a5782518260006101000a81548173ffffffffffffffffffffffffffffffffffffffff021916908373ffffffffffffffffffffffffffffffffffffffff160217905550916020019190600101906134e2565b5b5090506135489190613782565b5090565b828054828255906000526020600020908101928215613588579160200282015b8281111561358757825182559160200191906001019061356c565b5b509050613595919061375d565b5090565b82805482825590600052602060002090601f0160209004810192821561362e5791602002820160005b838211156135ff57835183826101000a81548160ff02191690831515021790555092602001926001016020816000010492830192600103026135c2565b801561362c5782816101000a81549060ff02191690556001016020816000010492830192600103026135ff565b505b50905061363b91906137c5565b5090565b82805482825590600052602060002090810192821561368e579160200282015b8281111561368d57825182908051906020019061367d9291906137f5565b509160200191906001019061365f565b5b50905061369b9190613875565b5090565b8154818355818111156136c6578183600052602060002091820191016136c5919061375d565b5b505050565b8154818355818111156136f2578183600052602060002091820191016136f19190613875565b5b505050565b81548183558181111561372c57601f016020900481601f0160209004836000526020600020918201910161372b919061375d565b5b505050565b81548183558181111561375857818360005260206000209182019101613757919061375d565b5b505050565b61377f91905b8082111561377b576000816000905550600101613763565b5090565b90565b6137c291905b808211156137be57600081816101000a81549073ffffffffffffffffffffffffffffffffffffffff021916905550600101613788565b5090565b90565b6137f291905b808211156137ee57600081816101000a81549060ff0219169055506001016137cb565b5090565b90565b828054600181600116156101000203166002900490600052602060002090601f016020900481019282601f1061383657805160ff1916838001178555613864565b82800160010185558215613864579182015b82811115613863578251825591602001919060010190613848565b5b509050613871919061375d565b5090565b61389e91905b8082111561389a576000818161389191906138a1565b5060010161387b565b5090565b90565b50805460018160011615610100020316600290046000825580601f106138c757506138e6565b601f0160209004906000526020600020908101906138e5919061375d565b5b50565b6040805190810160405280601181526020017f5f696e697453746174654d616368696e6500000000000000000000000000000081525060001515600c826040518082805190602001908083835b60208310151561395b5780518252602082019150602081019050602083039250613936565b6001836020036101000a038019825116818451168082178552505050505050905001915050908152602001604051809103902060009054906101000a900460ff1615151415156139aa57600080fd5b6139b4600d613a3b565b6001600c826040518082805190602001908083835b6020831015156139ee57805182526020820191506020810190506020830392506139c9565b6001836020036101000a038019825116818451168082178552505050505050905001915050908152602001604051809103902060006101000a81548160ff02191690831515021790555050565b600015158160000160009054906101000a900460ff161515141515613a5f57600080fd5b60018160000160016101000a81548160ff021916908360ff16021790555060018160000160006101000a81548160ff021916908315150217905550505600a165627a7a72305820326adedafd54322e480ae8c9d5fe72801a92cc4196542d0a9b50dea3e290b5300029a165627a7a723058207027e485a0f697394a93b467d78241a9c5902b56e6f6740864bcca2a08a682680029",
  "source": "pragma solidity ^0.4.23;\r\n\r\nimport \"./ICognitiveJobFactory.sol\";\r\nimport \"../../jobs/CognitiveJob.sol\";\r\nimport \"../../entities/IDataEntity.sol\";\r\nimport \"../../entities/IDataset.sol\";\r\nimport \"../../entities/IKernel.sol\";\r\nimport \"../../nodes/IWorkerNode.sol\";\r\nimport \"../IPandora.sol\";\r\n\r\ncontract CognitiveJobFactory is ICognitiveJobFactory {\r\n    constructor() public { }\r\n\r\n    function create(\r\n        IKernel _kernel,\r\n        IDataset _dataset,\r\n        IWorkerNode[] _workersPool,\r\n        uint256 _complexity,\r\n        bytes32 _description\r\n    )\r\n    onlyOwner\r\n    external\r\n    returns (CognitiveJob o_cognitiveJob) {\r\n        // Creating job\r\n        o_cognitiveJob = new CognitiveJob(\r\n            IPandora(owner), _kernel, _dataset, _workersPool, _complexity, _description);\r\n\r\n//        // Checking that it was created correctly\r\n//        assert(o_cognitiveJob != CognitiveJob(0));\r\n\r\n        // Transferring ownership to the main Pandora contract (which owns this factory)\r\n        o_cognitiveJob.transferOwnership(owner);\r\n    }\r\n}\r\n",
  "sourcePath": "C:\\Users\\Oleksii\\Pandora\\pyrrha-consensus\\contracts\\pandora\\factories\\CognitiveJobFactory.sol",
  "compiler": {
    "name": "solc",
    "version": "0.4.24+commit.e67f0147.Emscripten.clang"
  },
  "schemaVersion": "2.0.1",
  "updatedAt": "2018-06-29T20:49:42.348Z"
}