{
  "contractName": "CognitiveJobManager",
  "abi": [
    {
      "constant": true,
      "inputs": [],
      "name": "workerNodesCount",
      "outputs": [
        {
          "name": "",
          "type": "uint256"
        }
      ],
      "payable": false,
      "stateMutability": "view",
      "type": "function"
    },
    {
      "constant": false,
      "inputs": [
        {
          "name": "_workerOwner",
          "type": "address"
        }
      ],
      "name": "whitelistWorkerOwner",
      "outputs": [],
      "payable": false,
      "stateMutability": "nonpayable",
      "type": "function"
    },
    {
      "constant": true,
      "inputs": [],
      "name": "initialized",
      "outputs": [
        {
          "name": "",
          "type": "bool"
        }
      ],
      "payable": false,
      "stateMutability": "view",
      "type": "function"
    },
    {
      "constant": true,
      "inputs": [
        {
          "name": "",
          "type": "uint256"
        }
      ],
      "name": "workerNodes",
      "outputs": [
        {
          "name": "",
          "type": "address"
        }
      ],
      "payable": false,
      "stateMutability": "view",
      "type": "function"
    },
    {
      "constant": true,
      "inputs": [],
      "name": "RESULT_CODE_JOB_CREATED",
      "outputs": [
        {
          "name": "",
          "type": "uint8"
        }
      ],
      "payable": false,
      "stateMutability": "view",
      "type": "function"
    },
    {
      "constant": true,
      "inputs": [],
      "name": "cognitiveJobFactory",
      "outputs": [
        {
          "name": "",
          "type": "address"
        }
      ],
      "payable": false,
      "stateMutability": "view",
      "type": "function"
    },
    {
      "constant": true,
      "inputs": [
        {
          "name": "",
          "type": "address"
        }
      ],
      "name": "jobAddresses",
      "outputs": [
        {
          "name": "",
          "type": "uint16"
        }
      ],
      "payable": false,
      "stateMutability": "view",
      "type": "function"
    },
    {
      "constant": false,
      "inputs": [
        {
          "name": "_guiltyWorker",
          "type": "address"
        },
        {
          "name": "_reason",
          "type": "uint8"
        }
      ],
      "name": "penaltizeWorkerNode",
      "outputs": [],
      "payable": false,
      "stateMutability": "nonpayable",
      "type": "function"
    },
    {
      "constant": true,
      "inputs": [
        {
          "name": "",
          "type": "address"
        }
      ],
      "name": "workerNodeOwners",
      "outputs": [
        {
          "name": "",
          "type": "bool"
        }
      ],
      "payable": false,
      "stateMutability": "view",
      "type": "function"
    },
    {
      "constant": false,
      "inputs": [],
      "name": "renounceOwnership",
      "outputs": [],
      "payable": false,
      "stateMutability": "nonpayable",
      "type": "function"
    },
    {
      "constant": false,
      "inputs": [
        {
          "name": "_workerOwner",
          "type": "address"
        }
      ],
      "name": "blacklistWorkerOwner",
      "outputs": [],
      "payable": false,
      "stateMutability": "nonpayable",
      "type": "function"
    },
    {
      "constant": false,
      "inputs": [],
      "name": "initialize",
      "outputs": [],
      "payable": false,
      "stateMutability": "nonpayable",
      "type": "function"
    },
    {
      "constant": true,
      "inputs": [],
      "name": "RESULT_CODE_ADD_TO_QUEUE",
      "outputs": [
        {
          "name": "",
          "type": "uint8"
        }
      ],
      "payable": false,
      "stateMutability": "view",
      "type": "function"
    },
    {
      "constant": false,
      "inputs": [],
      "name": "createWorkerNode",
      "outputs": [
        {
          "name": "",
          "type": "address"
        }
      ],
      "payable": false,
      "stateMutability": "nonpayable",
      "type": "function"
    },
    {
      "constant": true,
      "inputs": [],
      "name": "owner",
      "outputs": [
        {
          "name": "",
          "type": "address"
        }
      ],
      "payable": false,
      "stateMutability": "view",
      "type": "function"
    },
    {
      "constant": false,
      "inputs": [
        {
          "name": "_workerNode",
          "type": "address"
        }
      ],
      "name": "destroyWorkerNode",
      "outputs": [],
      "payable": false,
      "stateMutability": "nonpayable",
      "type": "function"
    },
    {
      "constant": true,
      "inputs": [
        {
          "name": "",
          "type": "uint256"
        }
      ],
      "name": "cognitiveJobs",
      "outputs": [
        {
          "name": "",
          "type": "address"
        }
      ],
      "payable": false,
      "stateMutability": "view",
      "type": "function"
    },
    {
      "constant": true,
      "inputs": [],
      "name": "REQUIRED_DEPOSIT",
      "outputs": [
        {
          "name": "",
          "type": "uint256"
        }
      ],
      "payable": false,
      "stateMutability": "view",
      "type": "function"
    },
    {
      "constant": false,
      "inputs": [
        {
          "name": "_newOwner",
          "type": "address"
        }
      ],
      "name": "transferOwnership",
      "outputs": [],
      "payable": false,
      "stateMutability": "nonpayable",
      "type": "function"
    },
    {
      "constant": true,
      "inputs": [],
      "name": "workerNodeFactory",
      "outputs": [
        {
          "name": "",
          "type": "address"
        }
      ],
      "payable": false,
      "stateMutability": "view",
      "type": "function"
    },
    {
      "constant": true,
      "inputs": [
        {
          "name": "",
          "type": "address"
        }
      ],
      "name": "deposits",
      "outputs": [
        {
          "name": "",
          "type": "uint256"
        }
      ],
      "payable": false,
      "stateMutability": "view",
      "type": "function"
    },
    {
      "constant": true,
      "inputs": [
        {
          "name": "",
          "type": "address"
        }
      ],
      "name": "workerAddresses",
      "outputs": [
        {
          "name": "",
          "type": "uint16"
        }
      ],
      "payable": false,
      "stateMutability": "view",
      "type": "function"
    },
    {
      "inputs": [
        {
          "name": "_jobFactory",
          "type": "address"
        },
        {
          "name": "_nodeFactory",
          "type": "address"
        },
        {
          "name": "_reputation",
          "type": "address"
        }
      ],
      "payable": false,
      "stateMutability": "nonpayable",
      "type": "constructor"
    },
    {
      "anonymous": false,
      "inputs": [
        {
          "indexed": false,
          "name": "cognitiveJob",
          "type": "address"
        },
        {
          "indexed": false,
          "name": "resultCode",
          "type": "uint256"
        }
      ],
      "name": "CognitiveJobCreated",
      "type": "event"
    },
    {
      "anonymous": false,
      "inputs": [
        {
          "indexed": false,
          "name": "cognitiveJob",
          "type": "address"
        },
        {
          "indexed": false,
          "name": "resultCode",
          "type": "uint256"
        }
      ],
      "name": "CognitiveJobCreateFailed",
      "type": "event"
    },
    {
      "anonymous": false,
      "inputs": [
        {
          "indexed": false,
          "name": "value",
          "type": "uint256"
        }
      ],
      "name": "DebugEvent",
      "type": "event"
    },
    {
      "anonymous": false,
      "inputs": [
        {
          "indexed": false,
          "name": "addr",
          "type": "address"
        }
      ],
      "name": "DebugEvent1",
      "type": "event"
    },
    {
      "anonymous": false,
      "inputs": [
        {
          "indexed": false,
          "name": "nodes",
          "type": "address[]"
        }
      ],
      "name": "DebugEvent2",
      "type": "event"
    },
    {
      "anonymous": false,
      "inputs": [
        {
          "indexed": false,
          "name": "descr",
          "type": "bytes32"
        }
      ],
      "name": "DebugEvent3",
      "type": "event"
    },
    {
      "anonymous": false,
      "inputs": [
        {
          "indexed": false,
          "name": "workerNode",
          "type": "address"
        }
      ],
      "name": "WorkerNodeCreated",
      "type": "event"
    },
    {
      "anonymous": false,
      "inputs": [
        {
          "indexed": false,
          "name": "workerNode",
          "type": "address"
        }
      ],
      "name": "WorkerNodeDestroyed",
      "type": "event"
    },
    {
      "anonymous": false,
      "inputs": [
        {
          "indexed": true,
          "name": "previousOwner",
          "type": "address"
        }
      ],
      "name": "OwnershipRenounced",
      "type": "event"
    },
    {
      "anonymous": false,
      "inputs": [
        {
          "indexed": true,
          "name": "previousOwner",
          "type": "address"
        },
        {
          "indexed": true,
          "name": "newOwner",
          "type": "address"
        }
      ],
      "name": "OwnershipTransferred",
      "type": "event"
    },
    {
      "anonymous": false,
      "inputs": [
        {
          "indexed": false,
          "name": "cognitiveJob",
          "type": "address"
        }
      ],
      "name": "CognitiveJobCreated",
      "type": "event"
    },
    {
      "constant": true,
      "inputs": [],
      "name": "cognitiveJobsCount",
      "outputs": [
        {
          "name": "",
          "type": "uint256"
        }
      ],
      "payable": false,
      "stateMutability": "view",
      "type": "function"
    },
    {
      "constant": true,
      "inputs": [
        {
          "name": "_job",
          "type": "address"
        }
      ],
      "name": "isActiveJob",
      "outputs": [
        {
          "name": "",
          "type": "bool"
        }
      ],
      "payable": false,
      "stateMutability": "view",
      "type": "function"
    },
    {
      "constant": false,
      "inputs": [
        {
          "name": "_kernel",
          "type": "address"
        },
        {
          "name": "_dataset",
          "type": "address"
        },
        {
          "name": "_complexity",
          "type": "uint256"
        },
        {
          "name": "_description",
          "type": "bytes32"
        }
      ],
      "name": "createCognitiveJob",
      "outputs": [
        {
          "name": "o_cognitiveJob",
          "type": "address"
        },
        {
          "name": "o_resultCode",
          "type": "uint8"
        }
      ],
      "payable": true,
      "stateMutability": "payable",
      "type": "function"
    },
    {
      "constant": false,
      "inputs": [],
      "name": "finishCognitiveJob",
      "outputs": [],
      "payable": false,
      "stateMutability": "nonpayable",
      "type": "function"
    }
  ],
  "bytecode": "0x608060405260008060006101000a81548160ff0219169083151502179055503480156200002b57600080fd5b50604051606080620037a28339810180604052810190808051906020019092919080519060200190929190805190602001909291905050508160008060006101000a81548160ff02191690831515021790555033600360006101000a81548173ffffffffffffffffffffffffffffffffffffffff021916908373ffffffffffffffffffffffffffffffffffffffff160217905550600073ffffffffffffffffffffffffffffffffffffffff168173ffffffffffffffffffffffffffffffffffffffff1614151515620000fc57600080fd5b80600760006101000a81548173ffffffffffffffffffffffffffffffffffffffff021916908373ffffffffffffffffffffffffffffffffffffffff16021790555050600073ffffffffffffffffffffffffffffffffffffffff168373ffffffffffffffffffffffffffffffffffffffff16141515156200017b57600080fd5b82600b60006101000a81548173ffffffffffffffffffffffffffffffffffffffff021916908373ffffffffffffffffffffffffffffffffffffffff16021790555080600e60006101000a81548173ffffffffffffffffffffffffffffffffffffffff021916908373ffffffffffffffffffffffffffffffffffffffff160217905550620002076200026e565b604051809103906000f08015801562000224573d6000803e3d6000fd5b50601060006101000a81548173ffffffffffffffffffffffffffffffffffffffff021916908373ffffffffffffffffffffffffffffffffffffffff1602179055505050506200027f565b604051610165806200363d83390190565b6133ae806200028f6000396000f300608060405260043610610154576000357c0100000000000000000000000000000000000000000000000000000000900463ffffffff1680630ba58574146101595780630e3b581f146101b457806313b5165f146101df578063158ef93e1461022257806317131751146102515780631dc20af41461026857806323ce524a146102d557806336bad828146103065780635ecc2e441461035d5780635ef17776146103bc57806370064e331461040c578063715018a6146104675780637b3c611c1461047e5780638129fc1c146104c157806383c94c69146104d857806386b07332146105095780638da5cb5b14610560578063a00197fb146105b7578063ae1092ae146105e2578063b643809514610625578063be64b76b14610692578063ea84546b146106bd578063f2fde38b14610778578063f9d84ade146107bb578063fc7e286d14610812578063fdb5b8d414610869575b600080fd5b34801561016557600080fd5b5061019a600480360381019080803573ffffffffffffffffffffffffffffffffffffffff1690602001909291905050506108c8565b604051808215151515815260200191505060405180910390f35b3480156101c057600080fd5b506101c96109d6565b6040518082815260200191505060405180910390f35b3480156101eb57600080fd5b50610220600480360381019080803573ffffffffffffffffffffffffffffffffffffffff169060200190929190505050610a04565b005b34801561022e57600080fd5b50610237610abb565b604051808215151515815260200191505060405180910390f35b34801561025d57600080fd5b50610266610acd565b005b34801561027457600080fd5b5061029360048036038101908080359060200190929190505050610e20565b604051808273ffffffffffffffffffffffffffffffffffffffff1673ffffffffffffffffffffffffffffffffffffffff16815260200191505060405180910390f35b3480156102e157600080fd5b506102ea610e5e565b604051808260ff1660ff16815260200191505060405180910390f35b34801561031257600080fd5b5061031b610e63565b604051808273ffffffffffffffffffffffffffffffffffffffff1673ffffffffffffffffffffffffffffffffffffffff16815260200191505060405180910390f35b34801561036957600080fd5b5061039e600480360381019080803573ffffffffffffffffffffffffffffffffffffffff169060200190929190505050610e89565b604051808261ffff1661ffff16815260200191505060405180910390f35b3480156103c857600080fd5b5061040a600480360381019080803573ffffffffffffffffffffffffffffffffffffffff169060200190929190803560ff169060200190929190505050610eaa565b005b34801561041857600080fd5b5061044d600480360381019080803573ffffffffffffffffffffffffffffffffffffffff169060200190929190505050610ecf565b604051808215151515815260200191505060405180910390f35b34801561047357600080fd5b5061047c610eef565b005b34801561048a57600080fd5b506104bf600480360381019080803573ffffffffffffffffffffffffffffffffffffffff169060200190929190505050610ff4565b005b3480156104cd57600080fd5b506104d66110a2565b005b3480156104e457600080fd5b506104ed6110be565b604051808260ff1660ff16815260200191505060405180910390f35b34801561051557600080fd5b5061051e6110c3565b604051808273ffffffffffffffffffffffffffffffffffffffff1673ffffffffffffffffffffffffffffffffffffffff16815260200191505060405180910390f35b34801561056c57600080fd5b506105756113bd565b604051808273ffffffffffffffffffffffffffffffffffffffff1673ffffffffffffffffffffffffffffffffffffffff16815260200191505060405180910390f35b3480156105c357600080fd5b506105cc6113e3565b6040518082815260200191505060405180910390f35b3480156105ee57600080fd5b50610623600480360381019080803573ffffffffffffffffffffffffffffffffffffffff169060200190929190505050611411565b005b34801561063157600080fd5b5061065060048036038101908080359060200190929190505050611963565b604051808273ffffffffffffffffffffffffffffffffffffffff1673ffffffffffffffffffffffffffffffffffffffff16815260200191505060405180910390f35b34801561069e57600080fd5b506106a76119a1565b6040518082815260200191505060405180910390f35b610729600480360381019080803573ffffffffffffffffffffffffffffffffffffffff169060200190929190803573ffffffffffffffffffffffffffffffffffffffff1690602001909291908035906020019092919080356000191690602001909291905050506119ad565b604051808373ffffffffffffffffffffffffffffffffffffffff1673ffffffffffffffffffffffffffffffffffffffff1681526020018260ff1660ff1681526020019250505060405180910390f35b34801561078457600080fd5b506107b9600480360381019080803573ffffffffffffffffffffffffffffffffffffffff169060200190929190505050611df3565b005b3480156107c757600080fd5b506107d0611e5b565b604051808273ffffffffffffffffffffffffffffffffffffffff1673ffffffffffffffffffffffffffffffffffffffff16815260200191505060405180910390f35b34801561081e57600080fd5b50610853600480360381019080803573ffffffffffffffffffffffffffffffffffffffff169060200190929190505050611e81565b6040518082815260200191505060405180910390f35b34801561087557600080fd5b506108aa600480360381019080803573ffffffffffffffffffffffffffffffffffffffff169060200190929190505050611e99565b604051808261ffff1661ffff16815260200191505060405180910390f35b6000806000600115156000809054906101000a900460ff1615151415156108ee57600080fd5b600c60008573ffffffffffffffffffffffffffffffffffffffff1673ffffffffffffffffffffffffffffffffffffffff16815260200190815260200160002060009054906101000a900461ffff16915060008261ffff16141561095457600092506109cf565b818060019003925050600d8261ffff1681548110151561097057fe5b9060005260206000200160009054906101000a900473ffffffffffffffffffffffffffffffffffffffff1690508373ffffffffffffffffffffffffffffffffffffffff168173ffffffffffffffffffffffffffffffffffffffff161492505b5050919050565b6000600115156000809054906101000a900460ff1615151415156109f957600080fd5b600880549050905090565b600360009054906101000a900473ffffffffffffffffffffffffffffffffffffffff1673ffffffffffffffffffffffffffffffffffffffff163373ffffffffffffffffffffffffffffffffffffffff16141515610a6057600080fd5b6001600a60008373ffffffffffffffffffffffffffffffffffffffff1673ffffffffffffffffffffffffffffffffffffffff16815260200190815260200160002060006101000a81548160ff02191690831515021790555050565b6000809054906101000a900460ff1681565b600080600080600115156000809054906101000a900460ff161515141515610af457600080fd5b600c60003373ffffffffffffffffffffffffffffffffffffffff1673ffffffffffffffffffffffffffffffffffffffff16815260200190815260200160002060009054906101000a900461ffff16935060008461ffff1614151515610b5857600080fd5b838060019003945050600d8461ffff16815481101515610b7457fe5b9060005260206000200160009054906101000a900473ffffffffffffffffffffffffffffffffffffffff1692503373ffffffffffffffffffffffffffffffffffffffff168373ffffffffffffffffffffffffffffffffffffffff16141515610bdb57600080fd5b610be3611eba565b8273ffffffffffffffffffffffffffffffffffffffff166323d554736040518163ffffffff167c0100000000000000000000000000000000000000000000000000000000028152600401602060405180830381600087803b158015610c4757600080fd5b505af1158015610c5b573d6000803e3d6000fd5b505050506040513d6020811015610c7157600080fd5b81019080805190602001909291905050509150600090505b8273ffffffffffffffffffffffffffffffffffffffff16634804b4ba6040518163ffffffff167c0100000000000000000000000000000000000000000000000000000000028152600401602060405180830381600087803b158015610ced57600080fd5b505af1158015610d01573d6000803e3d6000fd5b505050506040513d6020811015610d1757600080fd5b810190808051906020019092919050505081111515610e1a57600e60009054906101000a900473ffffffffffffffffffffffffffffffffffffffff1673ffffffffffffffffffffffffffffffffffffffff1663e6808ff082846040518363ffffffff167c0100000000000000000000000000000000000000000000000000000000028152600401808373ffffffffffffffffffffffffffffffffffffffff1673ffffffffffffffffffffffffffffffffffffffff16815260200182815260200192505050600060405180830381600087803b158015610df557600080fd5b505af1158015610e09573d6000803e3d6000fd5b505050508080600101915050610c89565b50505050565b600881815481101515610e2f57fe5b906000526020600020016000915054906101000a900473ffffffffffffffffffffffffffffffffffffffff1681565b600181565b600b60009054906101000a900473ffffffffffffffffffffffffffffffffffffffff1681565b600c6020528060005260406000206000915054906101000a900461ffff1681565b600115156000809054906101000a900460ff161515141515610ecb57600080fd5b5050565b600a6020528060005260406000206000915054906101000a900460ff1681565b600360009054906101000a900473ffffffffffffffffffffffffffffffffffffffff1673ffffffffffffffffffffffffffffffffffffffff163373ffffffffffffffffffffffffffffffffffffffff16141515610f4b57600080fd5b600360009054906101000a900473ffffffffffffffffffffffffffffffffffffffff1673ffffffffffffffffffffffffffffffffffffffff167ff8df31144d9c2f0f6b59d69b8b98abd5459d07f2742c4df920b25aae33c6482060405160405180910390a26000600360006101000a81548173ffffffffffffffffffffffffffffffffffffffff021916908373ffffffffffffffffffffffffffffffffffffffff160217905550565b600360009054906101000a900473ffffffffffffffffffffffffffffffffffffffff1673ffffffffffffffffffffffffffffffffffffffff163373ffffffffffffffffffffffffffffffffffffffff1614151561105057600080fd5b600a60008273ffffffffffffffffffffffffffffffffffffffff1673ffffffffffffffffffffffffffffffffffffffff16815260200190815260200160002060006101000a81549060ff021916905550565b60016000806101000a81548160ff021916908315150217905550565b600081565b600080600115156000809054906101000a900460ff1615151415156110e757600080fd5b60011515600a60003373ffffffffffffffffffffffffffffffffffffffff1673ffffffffffffffffffffffffffffffffffffffff16815260200190815260200160002060009054906101000a900460ff16151514151561114657600080fd5b3273ffffffffffffffffffffffffffffffffffffffff163373ffffffffffffffffffffffffffffffffffffffff1614151561118057600080fd5b600d60088054905010151561119457600080fd5b600760009054906101000a900473ffffffffffffffffffffffffffffffffffffffff1673ffffffffffffffffffffffffffffffffffffffff16639ed93318336040518263ffffffff167c0100000000000000000000000000000000000000000000000000000000028152600401808273ffffffffffffffffffffffffffffffffffffffff1673ffffffffffffffffffffffffffffffffffffffff168152602001915050602060405180830381600087803b15801561125157600080fd5b505af1158015611265573d6000803e3d6000fd5b505050506040513d602081101561127b57600080fd5b8101908080519060200190929190505050905060088190806001815401808255809150509060018203906000526020600020016000909192909190916101000a81548173ffffffffffffffffffffffffffffffffffffffff021916908373ffffffffffffffffffffffffffffffffffffffff16021790555050600880549050600960008373ffffffffffffffffffffffffffffffffffffffff1673ffffffffffffffffffffffffffffffffffffffff16815260200190815260200160002060006101000a81548161ffff021916908361ffff1602179055507f093794466f44429afc8d8ec2c4c7f42c98d5db9b3db965ce46a31e7d4f7c29c881604051808273ffffffffffffffffffffffffffffffffffffffff1673ffffffffffffffffffffffffffffffffffffffff16815260200191505060405180910390a18091505090565b600360009054906101000a900473ffffffffffffffffffffffffffffffffffffffff1681565b6000600115156000809054906101000a900460ff16151514151561140657600080fd5b600d80549050905090565b60008060008360003390508173ffffffffffffffffffffffffffffffffffffffff16638da5cb5b6040518163ffffffff167c0100000000000000000000000000000000000000000000000000000000028152600401602060405180830381600087803b15801561148057600080fd5b505af1158015611494573d6000803e3d6000fd5b505050506040513d60208110156114aa57600080fd5b810190808051906020019092919050505073ffffffffffffffffffffffffffffffffffffffff168173ffffffffffffffffffffffffffffffffffffffff161415156114f457600080fd5b6000600960008373ffffffffffffffffffffffffffffffffffffffff1673ffffffffffffffffffffffffffffffffffffffff16815260200190815260200160002060009054906101000a900461ffff1661ffff1611151561155457600080fd5b600115156000809054906101000a900460ff16151514151561157557600080fd5b3394508573ffffffffffffffffffffffffffffffffffffffff1663ae897c556040518163ffffffff167c0100000000000000000000000000000000000000000000000000000000028152600401602060405180830381600087803b1580156115dc57600080fd5b505af11580156115f0573d6000803e3d6000fd5b505050506040513d602081101561160657600080fd5b810190808051906020019092919050505060ff168673ffffffffffffffffffffffffffffffffffffffff16630c3f6acf6040518163ffffffff167c0100000000000000000000000000000000000000000000000000000000028152600401602060405180830381600087803b15801561167e57600080fd5b505af1158015611692573d6000803e3d6000fd5b505050506040513d60208110156116a857600080fd5b810190808051906020019092919050505060ff161415156116c857600080fd5b8573ffffffffffffffffffffffffffffffffffffffff166383197ef06040518163ffffffff167c0100000000000000000000000000000000000000000000000000000000028152600401600060405180830381600087803b15801561172c57600080fd5b505af1158015611740573d6000803e3d6000fd5b505050506001600960008773ffffffffffffffffffffffffffffffffffffffff1673ffffffffffffffffffffffffffffffffffffffff16815260200190815260200160002060009054906101000a900461ffff16039350600960008673ffffffffffffffffffffffffffffffffffffffff1673ffffffffffffffffffffffffffffffffffffffff16815260200190815260200160002060006101000a81549061ffff021916905560086001600880549050038154811015156117fe57fe5b9060005260206000200160009054906101000a900473ffffffffffffffffffffffffffffffffffffffff1660088561ffff1681548110151561183c57fe5b9060005260206000200160006101000a81548173ffffffffffffffffffffffffffffffffffffffff021916908373ffffffffffffffffffffffffffffffffffffffff1602179055925060018401600960008573ffffffffffffffffffffffffffffffffffffffff1673ffffffffffffffffffffffffffffffffffffffff16815260200190815260200160002060006101000a81548161ffff021916908361ffff16021790555060088054809190600190036118f791906132b5565b507f677f03e392472a48b617167ed4dbec758d26d8517257ec077bed2d27d192816486604051808273ffffffffffffffffffffffffffffffffffffffff1673ffffffffffffffffffffffffffffffffffffffff16815260200191505060405180910390a1505050505050565b600d8181548110151561197257fe5b906000526020600020016000915054906101000a900473ffffffffffffffffffffffffffffffffffffffff1681565b6706f05b59d3b2000081565b600080600080606080600115156000809054906101000a900460ff1615151415156119d757600080fd5b8873ffffffffffffffffffffffffffffffffffffffff166387ea09616040518163ffffffff167c0100000000000000000000000000000000000000000000000000000000028152600401602060405180830381600087803b158015611a3b57600080fd5b505af1158015611a4f573d6000803e3d6000fd5b505050506040513d6020811015611a6557600080fd5b81019080805190602001909291905050509350600a8460ff1611151515611a8b57600080fd5b8873ffffffffffffffffffffffffffffffffffffffff1663b1f8d9ba6040518163ffffffff167c0100000000000000000000000000000000000000000000000000000000028152600401602060405180830381600087803b158015611aef57600080fd5b505af1158015611b03573d6000803e3d6000fd5b505050506040513d6020811015611b1957600080fd5b81019080805190602001909291905050508a73ffffffffffffffffffffffffffffffffffffffff1663b1f8d9ba6040518163ffffffff167c0100000000000000000000000000000000000000000000000000000000028152600401602060405180830381600087803b158015611b8e57600080fd5b505af1158015611ba2573d6000803e3d6000fd5b505050506040513d6020811015611bb857600080fd5b8101908080519060200190929190505050141515611bd557600080fd5b600d8080549050101515611be857600080fd5b6706f05b59d3b200003410151515611bff57600080fd5b611c07612183565b92508360ff16831015611cb55760009450611c3b8a8a33348860ff168d8d601161237590979695949392919063ffffffff16565b507fea6be648d373c4709986e67f6b7ee9ef9875b1243f38efc6bd48024bc10f8aac8686604051808373ffffffffffffffffffffffffffffffffffffffff1673ffffffffffffffffffffffffffffffffffffffff1681526020018260ff1681526020019250505060405180910390a1858595509550611de6565b611cbe8361257a565b9150611ccd828560ff16612827565b9050611cdc8a8a838b8b6129cb565b955060019450611d3434600f60003373ffffffffffffffffffffffffffffffffffffffff1673ffffffffffffffffffffffffffffffffffffffff16815260200190815260200160002054612e4d90919063ffffffff16565b600f60003373ffffffffffffffffffffffffffffffffffffffff1673ffffffffffffffffffffffffffffffffffffffff168152602001908152602001600020819055507f422ca471d1a1b69b87453d0f5149fd001dc7fd04fc2b5b8b8d70b17398a9b85a8686604051808373ffffffffffffffffffffffffffffffffffffffff1673ffffffffffffffffffffffffffffffffffffffff1681526020018260ff1681526020019250505060405180910390a15b5050505094509492505050565b600360009054906101000a900473ffffffffffffffffffffffffffffffffffffffff1673ffffffffffffffffffffffffffffffffffffffff163373ffffffffffffffffffffffffffffffffffffffff16141515611e4f57600080fd5b611e5881612e69565b50565b600760009054906101000a900473ffffffffffffffffffffffffffffffffffffffff1681565b600f6020528060005260406000206000915090505481565b60096020528060005260406000206000915054906101000a900461ffff1681565b611ec26132e1565b60008060008060606000806060600080600115156000809054906101000a900460ff161515141515611ef357600080fd5b611efd6011612f65565b9950600a8a11611f0d5789611f10565b600a5b9950600098505b89891015612176575a9750611f2a612183565b9650600087111515611f3b57612176565b611f448761257a565b9550855194508685141515611f5857612176565b611f6c856011612f7c90919063ffffffff16565b1515611f7757612176565b611f816011612fa5565b809550819c505050611f97868c60600151612827565b9250611fa38b84612fd4565b91507f422ca471d1a1b69b87453d0f5149fd001dc7fd04fc2b5b8b8d70b17398a9b85a826001604051808373ffffffffffffffffffffffffffffffffffffffff1673ffffffffffffffffffffffffffffffffffffffff1681526020018260ff1681526020019250505060405180910390a13a5a8961dea801030290508381111561202b578390505b61208184600f60008e6040015173ffffffffffffffffffffffffffffffffffffffff1673ffffffffffffffffffffffffffffffffffffffff1681526020019081526020016000205461301c90919063ffffffff16565b600f60008d6040015173ffffffffffffffffffffffffffffffffffffffff1673ffffffffffffffffffffffffffffffffffffffff168152602001908152602001600020819055503273ffffffffffffffffffffffffffffffffffffffff166108fc829081150290604051600060405180830381858888f1935050505015801561210e573d6000803e3d6000fd5b506000818503141515612169578a6040015173ffffffffffffffffffffffffffffffffffffffff166108fc8286039081150290604051600060405180830381858888f19350505050158015612167573d6000803e3d6000fd5b505b8880600101995050611f17565b5050505050505050505050565b60008060009150600090505b60088054905081101561236e576008818154811015156121ab57fe5b9060005260206000200160009054906101000a900473ffffffffffffffffffffffffffffffffffffffff1673ffffffffffffffffffffffffffffffffffffffff1663ae897c556040518163ffffffff167c0100000000000000000000000000000000000000000000000000000000028152600401602060405180830381600087803b15801561223957600080fd5b505af115801561224d573d6000803e3d6000fd5b505050506040513d602081101561226357600080fd5b810190808051906020019092919050505060ff1660088281548110151561228657fe5b9060005260206000200160009054906101000a900473ffffffffffffffffffffffffffffffffffffffff1673ffffffffffffffffffffffffffffffffffffffff16630c3f6acf6040518163ffffffff167c0100000000000000000000000000000000000000000000000000000000028152600401602060405180830381600087803b15801561231457600080fd5b505af1158015612328573d6000803e3d6000fd5b505050506040513d602081101561233e57600080fd5b810190808051906020019092919050505060ff1614156123615781806001019250505b808060010191505061218f565b8191505090565b6000886000018054905060018a600001805490500111151561239657600080fd5b8860000160c0604051908101604052808a73ffffffffffffffffffffffffffffffffffffffff1681526020018973ffffffffffffffffffffffffffffffffffffffff1681526020018873ffffffffffffffffffffffffffffffffffffffff16815260200186815260200185815260200184600019168152509080600181540180825580915050906001820390600052602060002090600602016000909192909190915060008201518160000160006101000a81548173ffffffffffffffffffffffffffffffffffffffff021916908373ffffffffffffffffffffffffffffffffffffffff16021790555060208201518160010160006101000a81548173ffffffffffffffffffffffffffffffffffffffff021916908373ffffffffffffffffffffffffffffffffffffffff16021790555060408201518160020160006101000a81548173ffffffffffffffffffffffffffffffffffffffff021916908373ffffffffffffffffffffffffffffffffffffffff160217905550606082015181600301556080820151816004015560a082015181600501906000191690555050508860010185908060018154018082558091505090600182039060005260206000200160009091929091909150555061256c89612f65565b905098975050505050505050565b606080600080846040519080825280602002602001820160405280156125af5781602001602082028038833980820191505090505b50925060009150600090505b60088054905081101561281c576008818154811015156125d757fe5b9060005260206000200160009054906101000a900473ffffffffffffffffffffffffffffffffffffffff1673ffffffffffffffffffffffffffffffffffffffff1663ae897c556040518163ffffffff167c0100000000000000000000000000000000000000000000000000000000028152600401602060405180830381600087803b15801561266557600080fd5b505af1158015612679573d6000803e3d6000fd5b505050506040513d602081101561268f57600080fd5b810190808051906020019092919050505060ff166008828154811015156126b257fe5b9060005260206000200160009054906101000a900473ffffffffffffffffffffffffffffffffffffffff1673ffffffffffffffffffffffffffffffffffffffff16630c3f6acf6040518163ffffffff167c0100000000000000000000000000000000000000000000000000000000028152600401602060405180830381600087803b15801561274057600080fd5b505af1158015612754573d6000803e3d6000fd5b505050506040513d602081101561276a57600080fd5b810190808051906020019092919050505060ff16141561280f5760088181548110151561279357fe5b9060005260206000200160009054906101000a900473ffffffffffffffffffffffffffffffffffffffff1683838060010194508151811015156127d257fe5b9060200190602002019073ffffffffffffffffffffffffffffffffffffffff16908173ffffffffffffffffffffffffffffffffffffffff16815250505b80806001019150506125bb565b829350505050919050565b60606000808360405190808252806020026020018201604052801561285b5781602001602082028038833980820191505090505b509250601060009054906101000a900473ffffffffffffffffffffffffffffffffffffffff1673ffffffffffffffffffffffffffffffffffffffff1663cd4b691484516040518263ffffffff167c010000000000000000000000000000000000000000000000000000000002815260040180828152602001915050602060405180830381600087803b1580156128f057600080fd5b505af1158015612904573d6000803e3d6000fd5b505050506040513d602081101561291a57600080fd5b81019080805190602001909291905050509150600090505b82518110156129c357848281518110151561294957fe5b90602001906020020151838281518110151561296157fe5b9060200190602002019073ffffffffffffffffffffffffffffffffffffffff16908173ffffffffffffffffffffffffffffffffffffffff1681525050600183510382146129b157600182016129b4565b60005b91508080600101915050612932565b505092915050565b6000600115156000809054906101000a900460ff1615151415156129ee57600080fd5b600b60009054906101000a900473ffffffffffffffffffffffffffffffffffffffff1673ffffffffffffffffffffffffffffffffffffffff16630109c3f987878787876040518663ffffffff167c0100000000000000000000000000000000000000000000000000000000028152600401808673ffffffffffffffffffffffffffffffffffffffff1673ffffffffffffffffffffffffffffffffffffffff1681526020018573ffffffffffffffffffffffffffffffffffffffff1673ffffffffffffffffffffffffffffffffffffffff168152602001806020018481526020018360001916600019168152602001828103825285818151815260200191508051906020019060200280838360005b83811015612b17578082015181840152602081019050612afc565b505050509050019650505050505050602060405180830381600087803b158015612b4057600080fd5b505af1158015612b54573d6000803e3d6000fd5b505050506040513d6020811015612b6a57600080fd5b81019080805190602001909291905050509050600073ffffffffffffffffffffffffffffffffffffffff168173ffffffffffffffffffffffffffffffffffffffff1614151515612bb657fe5b8073ffffffffffffffffffffffffffffffffffffffff16631c72fad46040518163ffffffff167c0100000000000000000000000000000000000000000000000000000000028152600401602060405180830381600087803b158015612c1a57600080fd5b505af1158015612c2e573d6000803e3d6000fd5b505050506040513d6020811015612c4457600080fd5b810190808051906020019092919050505060ff168173ffffffffffffffffffffffffffffffffffffffff16630c3f6acf6040518163ffffffff167c0100000000000000000000000000000000000000000000000000000000028152600401602060405180830381600087803b158015612cbc57600080fd5b505af1158015612cd0573d6000803e3d6000fd5b505050506040513d6020811015612ce657600080fd5b810190808051906020019092919050505060ff16141515612d0357fe5b600d8190806001815401808255809150509060018203906000526020600020016000909192909190916101000a81548173ffffffffffffffffffffffffffffffffffffffff021916908373ffffffffffffffffffffffffffffffffffffffff16021790555050600d80549050600c60008373ffffffffffffffffffffffffffffffffffffffff1673ffffffffffffffffffffffffffffffffffffffff16815260200190815260200160002060006101000a81548161ffff021916908361ffff1602179055508073ffffffffffffffffffffffffffffffffffffffff16638129fc1c6040518163ffffffff167c0100000000000000000000000000000000000000000000000000000000028152600401600060405180830381600087803b158015612e2c57600080fd5b505af1158015612e40573d6000803e3d6000fd5b5050505095945050505050565b60008183019050828110151515612e6057fe5b80905092915050565b600073ffffffffffffffffffffffffffffffffffffffff168173ffffffffffffffffffffffffffffffffffffffff1614151515612ea557600080fd5b8073ffffffffffffffffffffffffffffffffffffffff16600360009054906101000a900473ffffffffffffffffffffffffffffffffffffffff1673ffffffffffffffffffffffffffffffffffffffff167f8be0079c531659141344cd1fd0a4f28419497f9722a3daafe3b4186f6b6457e060405160405180910390a380600360006101000a81548173ffffffffffffffffffffffffffffffffffffffff021916908373ffffffffffffffffffffffffffffffffffffffff16021790555050565b600081600201548260000180549050039050919050565b6000612f866132e1565b612f8f84613035565b5080915050828160600151111591505092915050565b612fad6132e1565b6000612fb883613035565b8092508193505050612fc9836131c2565b818191509150915091565b6000600115156000809054906101000a900460ff161515141515612ff757600080fd5b613014836000015184602001518486608001518760a001516129cb565b905092915050565b600082821115151561302a57fe5b818303905092915050565b61303d6132e1565b600082600001836002015481548110151561305457fe5b906000526020600020906006020183600101846002015481548110151561307757fe5b90600052602060002001548160c060405190810160405290816000820160009054906101000a900473ffffffffffffffffffffffffffffffffffffffff1673ffffffffffffffffffffffffffffffffffffffff1673ffffffffffffffffffffffffffffffffffffffff1681526020016001820160009054906101000a900473ffffffffffffffffffffffffffffffffffffffff1673ffffffffffffffffffffffffffffffffffffffff1673ffffffffffffffffffffffffffffffffffffffff1681526020016002820160009054906101000a900473ffffffffffffffffffffffffffffffffffffffff1673ffffffffffffffffffffffffffffffffffffffff1673ffffffffffffffffffffffffffffffffffffffff16815260200160038201548152602001600482015481526020016005820154600019166000191681525050915091509150915091565b80600201600081548092919060010191905055508060000160018260020154038154811015156131ee57fe5b9060005260206000209060060201600080820160006101000a81549073ffffffffffffffffffffffffffffffffffffffff02191690556001820160006101000a81549073ffffffffffffffffffffffffffffffffffffffff02191690556002820160006101000a81549073ffffffffffffffffffffffffffffffffffffffff021916905560038201600090556004820160009055600582016000905550508060010160018260020154038154811015156132a457fe5b906000526020600020016000905550565b8154818355818111156132dc578183600052602060002091820191016132db919061335d565b5b505050565b60c060405190810160405280600073ffffffffffffffffffffffffffffffffffffffff168152602001600073ffffffffffffffffffffffffffffffffffffffff168152602001600073ffffffffffffffffffffffffffffffffffffffff1681526020016000815260200160008152602001600080191681525090565b61337f91905b8082111561337b576000816000905550600101613363565b5090565b905600a165627a7a723058206086ea98e50258d2f5df8504c3954996266222c0be0c6b1bdd02bcfda98cc62b0029608060405234801561001057600080fd5b504360018190555061013e806100276000396000f300608060405260043610610041576000357c0100000000000000000000000000000000000000000000000000000000900463ffffffff168063cd4b691414610046575b600080fd5b34801561005257600080fd5b5061007160048036038101908080359060200190929190505050610087565b6040518082815260200191505060405180910390f35b60006001544311156100ce5743600181905550600a4303406001900443406001900401604051808281526020019150506040518091039020600081600019169055506100f9565b6000546040518082600019166000191681526020019150506040518091039020600081600019169055505b816000546001900481151561010a57fe5b0690509190505600a165627a7a723058207d1203d115f9334e2e262ce744641f6cf745a5777fc2a653f60204c0ccdddb960029",
  "source": "pragma solidity ^0.4.23;\n\nimport \"openzeppelin-solidity/contracts/math/SafeMath.sol\";\nimport \"../../lifecycle/Initializable.sol\";\nimport \"../lottery/RandomEngine.sol\";\nimport \"./ICognitiveJobManager.sol\";\nimport \"./WorkerNodeManager.sol\";\nimport \"../../jobs/IComputingJob.sol\";\nimport \"../../libraries/JobQueueLib.sol\";\nimport \"../token/Reputation.sol\";\n\n/**\n * @title Pandora Smart Contract\n * @author \"Dr Maxim Orlovsky\" <orlovsky@pandora.foundation>\n *\n * @dev # Pandora Smart Contract\n *\n * Main & root contract implementing the first level of Pandora Boxchain consensus\n * See section [\"3.3. Proof of Cognitive Work (PoCW)\" in Pandora white paper](https://steemit.com/cryptocurrency/%40pandoraboxchain/world-decentralized-ai-on-blockchain-with-cognitive-mining-and-open-markets-for-data-and-algorithms-pandora-boxchain)\n * for more details.\n *\n * Contract token functionality is separated into a separate contract named PAN (after the name of the token)\n * and Pandora contracts just simply inherits PAN contract.\n */\n\ncontract CognitiveJobManager is Initializable, ICognitiveJobManager, WorkerNodeManager {\n\n    /*******************************************************************************************************************\n     * ## Storage\n     */\n\n    /// ### Public variables\n\n    /// @notice Reference to a factory used in creating CognitiveJob contracts\n    /// @dev Factories are used to reduce gas consumption by the main Pandora contract. Since Pandora needs to control\n    /// the code used to deploy Cognitive Jobs and Worker Nodes, it must embed all the byte code for the smart contract.\n    /// However this dramatically increases gas consumption for deploying Pandora contract itself. Thus, the\n    /// CognitiveJob smart contract is deployed by a special factory class `CognitiveJobFactory`, and a special workflow\n    /// is used to ensure uniqueness of the factories and the fact that their code source is coming from the same\n    /// address which have deployed the main Pandora contract. In particular, because of this Pandora is defined as an\n    /// `Ownable` contract and a special `initialize` function and `properlyInitialized` member variable is added.\n    //todo create interface\n    CognitiveJobFactory public cognitiveJobFactory;\n\n    /// @dev Indexes (+1) of active (=running) cognitive jobs in `activeJobs` mapped from their creators\n    /// (owners of the corresponding cognitive job contracts). Zero values corresponds to no active job,\n    /// one  to the one with index 0 and so forth.\n    mapping(address => uint16) public jobAddresses;\n\n    /// @dev List of all active cognitive jobs\n    IComputingJob[] public cognitiveJobs;\n\n    /// @dev Contract, that store rep. values for each address\n    Reputation reputation;\n\n    /// @dev Returns total count of active jobs\n    function cognitiveJobsCount() onlyInitialized view public returns (uint256) {\n        return cognitiveJobs.length;\n    }\n\n    // Deposits from clients used as payment for work\n    mapping(address => uint256) public deposits;\n\n    /// @notice Status code returned by `createCognitiveJob()` method when no Idle WorkerNodes were available\n    /// and job was not created but was put into the job queue to be processed lately\n    uint8 constant public RESULT_CODE_ADD_TO_QUEUE = 0;\n    /// @notice Status code returned by `createCognitiveJob()` method when CognitiveJob was created successfully\n    uint8 constant public RESULT_CODE_JOB_CREATED = 1;\n\n    uint256 constant public REQUIRED_DEPOSIT = 500 finney;\n\n    /// ### Private and internal variables\n\n    /// @dev Contract implementing lottery interface for workers selection. Only internal usage\n    /// by `createCognitiveJob` function\n    ILotteryEngine internal workerLotteryEngine;\n\n    // Queue for CognitiveJobs kept while no Idle WorkerNodes available\n    using JobQueueLib for JobQueueLib.Queue;\n    /// @dev Cognitive job queue used for case when no idle workers available\n    JobQueueLib.Queue internal cognitiveJobQueue;\n\n    using SafeMath for uint;\n\n    /*******************************************************************************************************************\n     * ## Events\n     */\n\n    /// @dev Event firing when a new cognitive job created\n    event CognitiveJobCreated(IComputingJob cognitiveJob, uint resultCode);\n\n    /// @dev Event firing when a new cognitive job failed to create\n    event CognitiveJobCreateFailed(IComputingJob cognitiveJob, uint resultCode);\n\n    /*******************************************************************************************************************\n     * ## Constructor and initialization\n     */\n\n    /// ### Constructor\n    /// @dev Constructor receives addresses for the owners of whitelisted worker nodes, which will be assigned an owners\n    /// of worker nodes contracts\n    constructor(\n        CognitiveJobFactory _jobFactory, /// Factory class for creating CognitiveJob contracts\n        WorkerNodeFactory _nodeFactory, /// Factory class for creating WorkerNode contracts\n        Reputation _reputation\n    )\n    public\n    WorkerNodeManager(_nodeFactory) {\n\n        // Must ensure that the supplied factories are already created contracts\n        require(_jobFactory != address(0));\n\n        // Assign factories to storage variables\n        cognitiveJobFactory = _jobFactory;\n\n        reputation = _reputation;\n\n        // Initializing worker lottery engine\n        // In Pyrrha we use round robin algorithm to give our whitelisted nodes equal and consequential chances\n        workerLotteryEngine = new RandomEngine();\n    }\n\n    /*******************************************************************************************************************\n     * ## Modifiers\n     */\n\n\n    /*******************************************************************************************************************\n     * ## Functions\n     */\n\n    /// ### Public and external\n\n    /// @notice Test whether the given `job` is registered as an active job by the main Pandora contract\n    /// @dev Used to test if some given job contract is a contract created by the Pandora and is listed by it as an\n    /// active contract\n    function isActiveJob(\n        IComputingJob _job /// Job contract to test\n    )\n    onlyInitialized\n    view\n    public\n    returns (\n        bool /// Testing result\n    ) {\n        // Getting the index of the job from the internal list\n        uint16 index = jobAddresses[_job];\n        // Testing if the job was present in the list\n        if (index == 0) {\n            return false;\n        }\n        // We must decrease the index since they are 1-based, not 0-based (0 corresponds to \"no contract\" due to\n        // Solidity specificity\n        index--;\n\n        // Retrieving the job contract from the index\n        IComputingJob job = cognitiveJobs[index];\n        // Double-checking that the job at the index is the actual job being tested\n        return(job == _job);\n    }\n\n    /// @notice Creates and returns new cognitive job contract and starts actual cognitive work instantly\n    /// @dev Core function creating new cognitive job contract and returning it back to the caller\n    function createCognitiveJob(\n        IKernel _kernel, /// Pre-initialized kernel data entity contract\n        IDataset _dataset, /// Pre-initialized dataset entity contract\n        uint256 _complexity,\n        bytes32 _description\n    )\n    external\n    payable\n    onlyInitialized\n    returns (\n        IComputingJob o_cognitiveJob, /// Newly created cognitive jobs (starts automatically)\n        uint8 o_resultCode /// result code of creating cognitiveJob, 0 - no available workers, 1 - job created\n    ) {\n\n        // Restriction for batches count came from potential high gas usage in JobQueue processing\n        // todo check batches limit with tests\n        uint8 batchesCount = _dataset.batchesCount();\n        require(batchesCount <= 10);\n\n        // Dimensions of the input data and neural network input layer must be equal\n        require(_kernel.dataDim() == _dataset.dataDim());\n\n        // The created job must fit into uint16 size\n        require(cognitiveJobs.length < 2 ^ 16 - 1);\n\n        // @todo check payment corresponds to required amount + gas payment - (fixed value + #batches * value)\n        require(msg.value >= REQUIRED_DEPOSIT);\n\n        // Counting number of available worker nodes (in Idle state)\n        // Since Solidity does not supports dynamic in-memory arrays (yet), has to be done in two-staged way:\n        // first by counting array size and then by allocating and populating array itself\n\n        uint256 estimatedSize = _countIdleWorkers();\n        // Put task in queue if number of idle workers less than number of batches in dataset\n        if (estimatedSize < uint256(batchesCount)) {\n            o_resultCode = RESULT_CODE_ADD_TO_QUEUE;\n            cognitiveJobQueue.put(\n                address(_kernel),\n                address(_dataset),\n                msg.sender,\n                msg.value,\n                batchesCount,\n                _complexity,\n                _description);\n            emit CognitiveJobCreateFailed(o_cognitiveJob, o_resultCode);\n            return (o_cognitiveJob, o_resultCode);\n        }\n\n        // Initializing in-memory array for idle node list and populating it with data\n        IWorkerNode[] memory idleWorkers = _listIdleWorkers(estimatedSize);\n\n        // Running lottery to select worker node to be assigned cognitive job contract\n        IWorkerNode[] memory assignedWorkers = _selectWorkersWithLottery(idleWorkers, batchesCount);\n\n        o_cognitiveJob = _initCognitiveJob(_kernel, _dataset, assignedWorkers, _complexity, _description);\n        o_resultCode = RESULT_CODE_JOB_CREATED;\n\n        //  Hold payment from customer\n        deposits[msg.sender] = deposits[msg.sender].add(msg.value);\n\n        emit CognitiveJobCreated(o_cognitiveJob, o_resultCode);\n    }\n\n    //todo should be called after providing full result of entire job\n\n    /// @notice Can\"t be called by the user, for internal use only\n    /// @dev Function must be called only by the master node running cognitive job. It completes the job, updates\n    /// worker node back to `Idle` state (in smart contract) and removes job contract from the list of active contracts\n    function finishCognitiveJob(\n        // No arguments - cognitive job is taken from msg.sender\n    )\n    external\n    onlyInitialized\n    {\n        uint16 index = jobAddresses[msg.sender];\n        require(index != 0);\n        index--;\n\n        IComputingJob job = cognitiveJobs[index];\n        require(address(job) == msg.sender);\n\n        // @fixme set \"Idle\" state to the worker (check in stateMachine lib)\n\n        // After finish, try to start new CognitiveJob from a queue of activeJobs\n        _checkJobQueue();\n\n        // Increase reputation of workers involved to computation\n        uint256 reputationReward = job.complexity(); //todo add koef for complexity-reputation\n        for (uint256 i = 0; i <= job.activeWorkersCount(); i++) {\n            reputation.incrReputation(address(i), reputationReward);\n        }\n    }\n\n    /// @notice Private function which checks queue of jobs and create new jobs\n    /// #dev Function is called only in `finishCognitiveJob()` in order to allocate newly freed WorkerNodes\n    /// to perform cognitive jobs from the queue.\n    function _checkJobQueue(\n        // No arguments\n    )\n    private\n    onlyInitialized {\n        JobQueueLib.QueuedJob memory queuedJob;\n        // Iterate queue and check queue depth\n\n        uint256 limitQueueReq = cognitiveJobQueue.queueDepth();\n        limitQueueReq = limitQueueReq > 10 ? 10 : limitQueueReq; // todo check limit (10) for queue requests with tests\n\n        for (uint256 k = 0; k < limitQueueReq; k++) {\n\n            // Count remaining gas\n            uint initialGas = gasleft();\n\n            // Counting number of available worker nodes (in Idle state)\n            uint256 estimatedSize = _countIdleWorkers();\n\n            // There must be at least one free worker node\n            if (estimatedSize <= 0) {\n                break;\n            }\n\n            // Initializing in-memory array for idle node list and populating it with data\n            IWorkerNode[] memory idleWorkers = _listIdleWorkers(estimatedSize);\n            uint actualSize = idleWorkers.length;\n            if (actualSize != estimatedSize) {\n                break;\n            }\n\n            // Check number of batches with number of idle workers\n            if (!cognitiveJobQueue.checkElementBatches(actualSize)) {\n                break;\n            }\n\n            // uint value1 = cognitiveJobQueue.queueDepth();\n            uint256 value; // Value from queuedJob deposit\n            (queuedJob, value) = cognitiveJobQueue.requestJob();\n\n            // Running lottery to select worker node to be assigned cognitive job contract\n            IWorkerNode[] memory assignedWorkers = _selectWorkersWithLottery(idleWorkers, queuedJob.batches);\n\n            IComputingJob createdCognitiveJob = _initQueuedJob(queuedJob, assignedWorkers);\n\n            emit CognitiveJobCreated(createdCognitiveJob, RESULT_CODE_JOB_CREATED);\n\n            // Count used funds for queue\n            //todo set limit for gasprice\n            uint weiUsed = (57000 + initialGas - gasleft()) * tx.gasprice; //57k of gas used for transfers and storage writing\n            if (weiUsed > value) {\n                weiUsed = value;\n            }\n\n//            emit DebugEvent(tx.gasprice);\n//            emit DebugEvent(initialGas);\n//            emit DebugEvent(gasleft());\n//            emit DebugEvent(REQUIRED_DEPOSIT);\n//            emit DebugEvent(weiUsed);\n//            emit DebugEvent(this.balance);\n//            emit DebugEvent(deposits[queuedJob.customer]);\n//            emit DebugEvent(value - weiUsed);\n\n\t        //Withdraw from customer's deposit\n            deposits[queuedJob.customer] = deposits[queuedJob.customer].sub(value);\n\n            // Gas refund to node\n            tx.origin.transfer(weiUsed);\n            \n            // Return remaining deposit to customer\n            if (value - weiUsed != 0) {\n                queuedJob.customer.transfer(value - weiUsed);\n            }\n        }\n    }\n\n    function _initQueuedJob(JobQueueLib.QueuedJob queuedJob, IWorkerNode[] assignedWorkers)\n    private\n    onlyInitialized\n    returns (\n        IComputingJob job\n    ) {\n        job = _initCognitiveJob(\n            IKernel(queuedJob.kernel),\n            IDataset(queuedJob.dataset),\n            assignedWorkers,\n            queuedJob.complexity,\n            queuedJob.description\n        );\n    }\n\n    event DebugEvent(uint value);\n    event DebugEvent1(address addr);\n    event DebugEvent2(IWorkerNode[] nodes);\n    event DebugEvent3(bytes32 descr);\n\n    /// @notice Can\"t be called by the user or other contract: for private use only\n    /// @dev Creates cognitive job contract, saves it to storage and fires global event to notify selected worker node.\n    /// Used both by `createCognitiveJob()` and `_checksJobQueue()` methods.\n    function _initCognitiveJob(\n        IKernel _kernel, /// Pre-initialized kernel data entity contract (taken from `createCognitiveJob` arguments or\n                        /// from the the `cognitiveJobQueue` `QueuedJob` structure)\n        IDataset _dataset, /// Pre-initialized dataset entity contract (taken from `createCognitiveJob` arguments or\n                          /// from the the `cognitiveJobQueue` `QueuedJob` structure)\n        IWorkerNode[] _assignedWorkers, /// Array of workers assigned for the job by the lottery engine\n        uint256 _complexity,\n        bytes32 _description\n    )\n    private\n    onlyInitialized\n    returns (\n        IComputingJob o_cognitiveJob /// Created cognitive job (function may fail only due to the bugs, so there is no\n                                     /// reason for returning status code)\n    ) {\n        o_cognitiveJob = cognitiveJobFactory.create(_kernel, _dataset, _assignedWorkers, _complexity, _description);\n//\n        // Ensuring that contract was successfully created\n        assert(o_cognitiveJob != address(0));\n        // Hint: trying to figure out was the contract body actually created and initialized with proper values\n        assert(o_cognitiveJob.currentState() == o_cognitiveJob.Uninitialized());\n\n        // Save new contract to the storage\n        cognitiveJobs.push(o_cognitiveJob);\n        jobAddresses[o_cognitiveJob] = uint16(cognitiveJobs.length);\n\n        o_cognitiveJob.initialize();\n    }\n\n    /// @notice Can\"t be called by the user or other contract: for private use only\n    /// @dev Running lottery to select random worker nodes from the provided list. Used by both `createCognitiveJob`\n    /// and `_checksJobQueue` functions.\n    function _selectWorkersWithLottery(\n        IWorkerNode[] _idleWorkers, /// Pre-defined pool of Idle WorkerNodes to select from\n        uint _numberWorkersRequired /// Number of workers required by cognitive job, match with number of batches\n    )\n    private\n    returns (\n        IWorkerNode[] assignedWorkers /// Resulting sublist of the selected WorkerNodes\n    ) {\n        assignedWorkers = new IWorkerNode[](_numberWorkersRequired);\n        uint no = workerLotteryEngine.getRandom(assignedWorkers.length);\n        for (uint i = 0; i < assignedWorkers.length; i++) {\n            assignedWorkers[i] = _idleWorkers[no];\n            no = (no == assignedWorkers.length - 1) ? 0 : no + 1;\n        }\n    }\n\n    /// @notice Can\"t be called by the user or other contract: for private use only\n    /// @dev Pre-count amount of available Idle WorkerNodes. Required to allocate in-memory list of WorkerNodes.\n    function _countIdleWorkers(\n        // No arguments\n    )\n    private\n    view\n    returns (\n        uint o_estimatedSize /// Amount of currently available (Idle) WorkerNodes\n    ) {\n        o_estimatedSize = 0;\n        for (uint i = 0; i < workerNodes.length; i++) {\n            if (workerNodes[i].currentState() == workerNodes[i].Idle()) {\n                o_estimatedSize++;\n            }\n        }\n        return o_estimatedSize;\n    }\n\n    /// @notice Can\"t be called by the user or other contract: for private use only\n    /// @dev Allocates and returns in-memory array of all Idle WorkerNodes taking estimated size as an argument\n    /// (returned by `_countIdleWorkers()`)\n    function _listIdleWorkers(\n        uint _estimatedSize /// Size of array to return\n    )\n    private\n    view\n    returns (\n        IWorkerNode[] /// Returned array of all Idle WorkerNodes\n    ) {\n        IWorkerNode[] memory idleWorkers = new IWorkerNode[](_estimatedSize);\n        uint256 actualSize = 0;\n        for (uint j = 0; j < workerNodes.length; j++) {\n            if (workerNodes[j].currentState() == workerNodes[j].Idle()) {\n                idleWorkers[actualSize++] = workerNodes[j];\n            }\n        }\n        return idleWorkers;\n    }\n}",
  "sourcePath": "/home/kostysh/dev/pyrrha-consensus/contracts/pandora/managers/CognitiveJobManager.sol",
  "compiler": {
    "name": "solc",
    "version": "0.4.24+commit.e67f0147.Emscripten.clang"
  },
  "schemaVersion": "2.0.0",
  "updatedAt": "2018-06-27T12:50:31.443Z"
}