{
  "contractName": "CognitiveJobController",
  "abi": [
    {
      "constant": true,
      "inputs": [
        {
          "name": "",
          "type": "uint256"
        }
      ],
      "name": "completedJobs",
      "outputs": [
        {
          "name": "id",
          "type": "bytes32"
        },
        {
          "name": "kernel",
          "type": "address"
        },
        {
          "name": "dataset",
          "type": "address"
        },
        {
          "name": "complexity",
          "type": "uint256"
        },
        {
          "name": "description",
          "type": "bytes32"
        },
        {
          "name": "progress",
          "type": "uint8"
        },
        {
          "name": "state",
          "type": "uint8"
        }
      ],
      "payable": false,
      "stateMutability": "view",
      "type": "function"
    },
    {
      "constant": true,
      "inputs": [
        {
          "name": "",
          "type": "bytes32"
        }
      ],
      "name": "completedJobsIndexes",
      "outputs": [
        {
          "name": "",
          "type": "uint16"
        }
      ],
      "payable": false,
      "stateMutability": "view",
      "type": "function"
    },
    {
      "constant": true,
      "inputs": [
        {
          "name": "",
          "type": "bytes32"
        }
      ],
      "name": "activeJobsIndexes",
      "outputs": [
        {
          "name": "",
          "type": "uint16"
        }
      ],
      "payable": false,
      "stateMutability": "view",
      "type": "function"
    },
    {
      "constant": false,
      "inputs": [],
      "name": "renounceOwnership",
      "outputs": [],
      "payable": false,
      "stateMutability": "nonpayable",
      "type": "function"
    },
    {
      "constant": true,
      "inputs": [],
      "name": "owner",
      "outputs": [
        {
          "name": "",
          "type": "address"
        }
      ],
      "payable": false,
      "stateMutability": "view",
      "type": "function"
    },
    {
      "constant": true,
      "inputs": [
        {
          "name": "",
          "type": "uint8"
        },
        {
          "name": "",
          "type": "uint256"
        }
      ],
      "name": "transitionTable",
      "outputs": [
        {
          "name": "",
          "type": "uint8"
        }
      ],
      "payable": false,
      "stateMutability": "view",
      "type": "function"
    },
    {
      "constant": false,
      "inputs": [
        {
          "name": "_newOwner",
          "type": "address"
        }
      ],
      "name": "transferOwnership",
      "outputs": [],
      "payable": false,
      "stateMutability": "nonpayable",
      "type": "function"
    },
    {
      "inputs": [],
      "payable": false,
      "stateMutability": "nonpayable",
      "type": "constructor"
    },
    {
      "anonymous": false,
      "inputs": [
        {
          "indexed": true,
          "name": "jobId",
          "type": "bytes32"
        },
        {
          "indexed": false,
          "name": "oldState",
          "type": "uint8"
        },
        {
          "indexed": false,
          "name": "newState",
          "type": "uint8"
        }
      ],
      "name": "JobStateChanged",
      "type": "event"
    },
    {
      "anonymous": false,
      "inputs": [
        {
          "indexed": true,
          "name": "jobId",
          "type": "bytes32"
        }
      ],
      "name": "WorkersUpdated",
      "type": "event"
    },
    {
      "anonymous": false,
      "inputs": [
        {
          "indexed": true,
          "name": "jobId",
          "type": "bytes32"
        }
      ],
      "name": "WorkersNotFound",
      "type": "event"
    },
    {
      "anonymous": false,
      "inputs": [
        {
          "indexed": true,
          "name": "jobId",
          "type": "bytes32"
        }
      ],
      "name": "DataValidationStarted",
      "type": "event"
    },
    {
      "anonymous": false,
      "inputs": [
        {
          "indexed": true,
          "name": "jobId",
          "type": "bytes32"
        }
      ],
      "name": "DataValidationFailed",
      "type": "event"
    },
    {
      "anonymous": false,
      "inputs": [
        {
          "indexed": true,
          "name": "jobId",
          "type": "bytes32"
        }
      ],
      "name": "CognitionStarted",
      "type": "event"
    },
    {
      "anonymous": false,
      "inputs": [
        {
          "indexed": true,
          "name": "jobId",
          "type": "bytes32"
        },
        {
          "indexed": false,
          "name": "precent",
          "type": "uint8"
        }
      ],
      "name": "CognitionProgressed",
      "type": "event"
    },
    {
      "anonymous": false,
      "inputs": [
        {
          "indexed": true,
          "name": "jobId",
          "type": "bytes32"
        },
        {
          "indexed": false,
          "name": "partialResult",
          "type": "bool"
        }
      ],
      "name": "CognitionCompleted",
      "type": "event"
    },
    {
      "anonymous": false,
      "inputs": [
        {
          "indexed": true,
          "name": "previousOwner",
          "type": "address"
        }
      ],
      "name": "OwnershipRenounced",
      "type": "event"
    },
    {
      "anonymous": false,
      "inputs": [
        {
          "indexed": true,
          "name": "previousOwner",
          "type": "address"
        },
        {
          "indexed": true,
          "name": "newOwner",
          "type": "address"
        }
      ],
      "name": "OwnershipTransferred",
      "type": "event"
    },
    {
      "constant": true,
      "inputs": [],
      "name": "activeJobsCount",
      "outputs": [
        {
          "name": "",
          "type": "uint256"
        }
      ],
      "payable": false,
      "stateMutability": "view",
      "type": "function"
    },
    {
      "constant": true,
      "inputs": [],
      "name": "completedJobsCount",
      "outputs": [
        {
          "name": "",
          "type": "uint256"
        }
      ],
      "payable": false,
      "stateMutability": "view",
      "type": "function"
    },
    {
      "constant": true,
      "inputs": [
        {
          "name": "_index",
          "type": "uint16"
        },
        {
          "name": "_isActive",
          "type": "bool"
        }
      ],
      "name": "getJobId",
      "outputs": [
        {
          "name": "",
          "type": "bytes32"
        }
      ],
      "payable": false,
      "stateMutability": "view",
      "type": "function"
    },
    {
      "constant": true,
      "inputs": [
        {
          "name": "_jobId",
          "type": "bytes32"
        }
      ],
      "name": "getCognitiveJobDetails",
      "outputs": [
        {
          "name": "kernel",
          "type": "address"
        },
        {
          "name": "dataset",
          "type": "address"
        },
        {
          "name": "complexity",
          "type": "uint256"
        },
        {
          "name": "description",
          "type": "bytes32"
        },
        {
          "name": "activeWorkers",
          "type": "address[]"
        },
        {
          "name": "progress",
          "type": "uint8"
        },
        {
          "name": "state",
          "type": "uint8"
        }
      ],
      "payable": false,
      "stateMutability": "view",
      "type": "function"
    },
    {
      "constant": true,
      "inputs": [
        {
          "name": "_jobId",
          "type": "bytes32"
        },
        {
          "name": "_index",
          "type": "uint8"
        }
      ],
      "name": "getCognitiveJobResults",
      "outputs": [
        {
          "name": "ipfsResults",
          "type": "bytes"
        }
      ],
      "payable": false,
      "stateMutability": "view",
      "type": "function"
    },
    {
      "constant": true,
      "inputs": [
        {
          "name": "_jobId",
          "type": "bytes32"
        }
      ],
      "name": "getCognitiveJobServiceInfo",
      "outputs": [
        {
          "name": "responseTimestamps",
          "type": "uint32[]"
        },
        {
          "name": "responseFlags",
          "type": "bool[]"
        }
      ],
      "payable": false,
      "stateMutability": "view",
      "type": "function"
    },
    {
      "constant": false,
      "inputs": [
        {
          "name": "_id",
          "type": "bytes32"
        },
        {
          "name": "_kernel",
          "type": "address"
        },
        {
          "name": "_dataset",
          "type": "address"
        },
        {
          "name": "_assignedWorkers",
          "type": "address[]"
        },
        {
          "name": "_complexity",
          "type": "uint256"
        },
        {
          "name": "_description",
          "type": "bytes32"
        }
      ],
      "name": "createCognitiveJob",
      "outputs": [],
      "payable": false,
      "stateMutability": "nonpayable",
      "type": "function"
    },
    {
      "constant": false,
      "inputs": [
        {
          "name": "_jobId",
          "type": "bytes32"
        },
        {
          "name": "_workerId",
          "type": "address"
        },
        {
          "name": "_responseType",
          "type": "uint8"
        },
        {
          "name": "_response",
          "type": "bool"
        }
      ],
      "name": "respondToJob",
      "outputs": [
        {
          "name": "result",
          "type": "bool"
        }
      ],
      "payable": false,
      "stateMutability": "nonpayable",
      "type": "function"
    },
    {
      "constant": false,
      "inputs": [
        {
          "name": "_jobId",
          "type": "bytes32"
        },
        {
          "name": "_workerId",
          "type": "address"
        },
        {
          "name": "_percent",
          "type": "uint8"
        }
      ],
      "name": "commitProgress",
      "outputs": [],
      "payable": false,
      "stateMutability": "nonpayable",
      "type": "function"
    },
    {
      "constant": false,
      "inputs": [
        {
          "name": "_jobId",
          "type": "bytes32"
        },
        {
          "name": "_workerId",
          "type": "address"
        },
        {
          "name": "_ipfsResults",
          "type": "bytes"
        }
      ],
      "name": "completeWork",
      "outputs": [
        {
          "name": "result",
          "type": "bool"
        }
      ],
      "payable": false,
      "stateMutability": "nonpayable",
      "type": "function"
    }
  ],
  "bytecode": "0x60806040523480156200001157600080fd5b50336000806101000a81548173ffffffffffffffffffffffffffffffffffffffff021916908373ffffffffffffffffffffffffffffffffffffffff1602179055506200006b62000071640100000000026401000000009004565b6200047c565b600060059050602060405190810160405280600160088111156200009157fe5b60ff1660ff16815250816000806008811115620000aa57fe5b60ff1660ff168152602001908152602001600020906001620000ce9291906200023f565b50604080519081016040528060026008811115620000e857fe5b60ff1660ff168152602001600360088111156200010157fe5b60ff1660ff16815250816000600160088111156200011b57fe5b60ff1660ff1681526020019081526020016000209060026200013f929190620002ed565b50606060405190810160405280600460088111156200015a57fe5b60ff1660ff168152602001600560088111156200017357fe5b60ff1660ff168152602001600260088111156200018c57fe5b60ff1660ff1681525081600060036008811115620001a657fe5b60ff1660ff168152602001908152602001600020906003620001ca9291906200039b565b50604080519081016040528060076008811115620001e457fe5b60ff1660ff16815260200160066008811115620001fd57fe5b60ff1660ff16815250816000600560088111156200021757fe5b60ff1660ff1681526020019081526020016000209060026200023b929190620002ed565b5050565b82805482825590600052602060002090601f01602090048101928215620002da5791602002820160005b83821115620002a957835183826101000a81548160ff021916908360ff160217905550926020019260010160208160000104928301926001030262000269565b8015620002d85782816101000a81549060ff0219169055600101602081600001049283019260010302620002a9565b505b509050620002e9919062000449565b5090565b82805482825590600052602060002090601f01602090048101928215620003885791602002820160005b838211156200035757835183826101000a81548160ff021916908360ff160217905550926020019260010160208160000104928301926001030262000317565b8015620003865782816101000a81549060ff021916905560010160208160000104928301926001030262000357565b505b50905062000397919062000449565b5090565b82805482825590600052602060002090601f01602090048101928215620004365791602002820160005b838211156200040557835183826101000a81548160ff021916908360ff1602179055509260200192600101602081600001049283019260010302620003c5565b8015620004345782816101000a81549060ff021916905560010160208160000104928301926001030262000405565b505b50905062000445919062000449565b5090565b6200047991905b808211156200047557600081816101000a81549060ff02191690555060010162000450565b5090565b90565b613ba9806200048c6000396000f3006080604052600436106100f1576000357c0100000000000000000000000000000000000000000000000000000000900463ffffffff1680631f9ca61d146100f65780632b4acd86146101d557806339d9de641461028c5780633b183eb5146103a857806347d9eee9146104295780634a1f8abc146104ca5780634e5613c3146105175780635c2b37fa14610599578063672d98d6146105c4578063715018a614610611578063752f4a9c146106285780638da5cb5b14610681578063ba0a9ef5146106d8578063c9b7b25b146107a6578063ead4d67914610804578063f21ee5c61461082f578063f2fde38b14610883575b600080fd5b34801561010257600080fd5b50610121600480360381019080803590602001909291905050506108c6565b6040518088600019166000191681526020018773ffffffffffffffffffffffffffffffffffffffff1673ffffffffffffffffffffffffffffffffffffffff1681526020018673ffffffffffffffffffffffffffffffffffffffff1673ffffffffffffffffffffffffffffffffffffffff16815260200185815260200184600019166000191681526020018360ff1660ff1681526020018260ff1660ff16815260200197505050505050505060405180910390f35b3480156101e157600080fd5b506102116004803603810190808035600019169060200190929190803560ff169060200190929190505050610971565b6040518080602001828103825283818151815260200191508051906020019080838360005b83811015610251578082015181840152602081019050610236565b50505050905090810190601f16801561027e5780820380516001836020036101000a031916815260200191505b509250505060405180910390f35b34801561029857600080fd5b506102bb6004803603810190808035600019169060200190929190505050610ae3565b604051808873ffffffffffffffffffffffffffffffffffffffff1673ffffffffffffffffffffffffffffffffffffffff1681526020018773ffffffffffffffffffffffffffffffffffffffff1673ffffffffffffffffffffffffffffffffffffffff1681526020018681526020018560001916600019168152602001806020018460ff1660ff1681526020018360ff1660ff168152602001828103825285818151815260200191508051906020019060200280838360005b8381101561038e578082015181840152602081019050610373565b505050509050019850505050505050505060405180910390f35b3480156103b457600080fd5b5061040f6004803603810190808035600019169060200190929190803573ffffffffffffffffffffffffffffffffffffffff169060200190929190803590602001908201803590602001919091929391929390505050610cb9565b604051808215151515815260200191505060405180910390f35b34801561043557600080fd5b506104c86004803603810190808035600019169060200190929190803573ffffffffffffffffffffffffffffffffffffffff169060200190929190803573ffffffffffffffffffffffffffffffffffffffff169060200190929190803590602001908201803590602001919091929391929390803590602001909291908035600019169060200190929190505050610e6b565b005b3480156104d657600080fd5b506104f96004803603810190808035600019169060200190929190505050611340565b604051808261ffff1661ffff16815260200191505060405180910390f35b34801561052357600080fd5b5061057f6004803603810190808035600019169060200190929190803573ffffffffffffffffffffffffffffffffffffffff169060200190929190803560ff169060200190929190803515159060200190929190505050611361565b604051808215151515815260200191505060405180910390f35b3480156105a557600080fd5b506105ae6114b2565b6040518082815260200191505060405180910390f35b3480156105d057600080fd5b506105f360048036038101908080356000191690602001909291905050506114bf565b604051808261ffff1661ffff16815260200191505060405180910390f35b34801561061d57600080fd5b506106266114e0565b005b34801561063457600080fd5b50610663600480360381019080803561ffff1690602001909291908035151590602001909291905050506115e2565b60405180826000191660001916815260200191505060405180910390f35b34801561068d57600080fd5b50610696611642565b604051808273ffffffffffffffffffffffffffffffffffffffff1673ffffffffffffffffffffffffffffffffffffffff16815260200191505060405180910390f35b3480156106e457600080fd5b506107076004803603810190808035600019169060200190929190505050611667565b604051808060200180602001838103835285818151815260200191508051906020019060200280838360005b8381101561074e578082015181840152602081019050610733565b50505050905001838103825284818151815260200191508051906020019060200280838360005b83811015610790578082015181840152602081019050610775565b5050505090500194505050505060405180910390f35b3480156107b257600080fd5b506108026004803603810190808035600019169060200190929190803573ffffffffffffffffffffffffffffffffffffffff169060200190929190803560ff16906020019092919050505061181b565b005b34801561081057600080fd5b50610819611a0b565b6040518082815260200191505060405180910390f35b34801561083b57600080fd5b50610867600480360381019080803560ff16906020019092919080359060200190929190505050611a18565b604051808260ff1660ff16815260200191505060405180910390f35b34801561088f57600080fd5b506108c4600480360381019080803573ffffffffffffffffffffffffffffffffffffffff169060200190929190505050611a5a565b005b6004818154811015156108d557fe5b90600052602060002090600a02016000915090508060000154908060010160009054906101000a900473ffffffffffffffffffffffffffffffffffffffff16908060020160009054906101000a900473ffffffffffffffffffffffffffffffffffffffff16908060030154908060040154908060090160009054906101000a900460ff16908060090160019054906101000a900460ff16905087565b6060600061097e84611ac1565b6109d4576004600160036000876000191660001916815260200190815260200160002060009054906101000a900461ffff160361ffff168154811015156109c157fe5b90600052602060002090600a0201610a21565b60026001806000876000191660001916815260200190815260200160002060009054906101000a900461ffff160361ffff16815481101515610a1257fe5b90600052602060002090600a02015b9050806006018360ff16815481101515610a3757fe5b906000526020600020018054600181600116156101000203166002900480601f016020809104026020016040519081016040528092919081815260200182805460018160011615610100020316600290048015610ad55780601f10610aaa57610100808354040283529160200191610ad5565b820191906000526020600020905b815481529060010190602001808311610ab857829003601f168201915b505050505091505092915050565b60008060008060606000806000610af989611ac1565b610b4f5760046001600360008c6000191660001916815260200190815260200160002060009054906101000a900461ffff160361ffff16815481101515610b3c57fe5b90600052602060002090600a0201610b9c565b600260018060008c6000191660001916815260200190815260200160002060009054906101000a900461ffff160361ffff16815481101515610b8d57fe5b90600052602060002090600a02015b90508060010160009054906101000a900473ffffffffffffffffffffffffffffffffffffffff1697508060020160009054906101000a900473ffffffffffffffffffffffffffffffffffffffff169650806003015495508060040154945080600501805480602002602001604051908101604052809291908181526020018280548015610c7e57602002820191906000526020600020905b8160009054906101000a900473ffffffffffffffffffffffffffffffffffffffff1673ffffffffffffffffffffffffffffffffffffffff1681526020019060010190808311610c34575b505050505093508060090160009054906101000a900460ff1692508060090160019054906101000a900460ff16915050919395979092949650565b6000808560056008811115610cca57fe5b8060ff1660026001806000866000191660001916815260200190815260200160002060009054906101000a900461ffff160361ffff16815481101515610d0c57fe5b90600052602060002090600a020160090160019054906101000a900460ff1660ff16141515610d3a57600080fd5b6000809054906101000a900473ffffffffffffffffffffffffffffffffffffffff1673ffffffffffffffffffffffffffffffffffffffff163373ffffffffffffffffffffffffffffffffffffffff16141515610d9557600080fd5b610d9f8888611b49565b92507fffffffffffffffffffffffffffffffffffffffffffffffffffffffffffffffff8314151515610dd057600080fd5b8585600260018060008d6000191660001916815260200190815260200160002060009054906101000a900461ffff160361ffff16815481101515610e1057fe5b90600052602060002090600a020160060185815481101515610e2e57fe5b906000526020600020019190610e459291906134ba565b50610e5e8888600280811115610e5757fe5b6001611c60565b9350505050949350505050565b6000806000809054906101000a900473ffffffffffffffffffffffffffffffffffffffff1673ffffffffffffffffffffffffffffffffffffffff163373ffffffffffffffffffffffffffffffffffffffff16141515610ec957600080fd5b7fffffffffffffffffffffffffffffffffffffffffffffffffffffffffffffffff61ffff16600280549050101515610f0057600080fd5b6002610160604051908101604052808b6000191681526020018a73ffffffffffffffffffffffffffffffffffffffff1681526020018973ffffffffffffffffffffffffffffffffffffffff16815260200186815260200185600019168152602001888880806020026020016040519081016040528093929190818152602001838360200280828437820191505050505050815260200188889050604051908082528060200260200182016040528015610fcd57816020015b6060815260200190600190039081610fb85790505b508152602001888890506040519080825280602002602001820160405280156110055781602001602082028038833980820191505090505b5081526020018888905060405190808252806020026020018201604052801561103d5781602001602082028038833980820191505090505b508152602001600060ff1681526020016000600881111561105a57fe5b60ff168152509080600181540180825580915050906001820390600052602060002090600a0201600090919290919091506000820151816000019060001916905560208201518160010160006101000a81548173ffffffffffffffffffffffffffffffffffffffff021916908373ffffffffffffffffffffffffffffffffffffffff16021790555060408201518160020160006101000a81548173ffffffffffffffffffffffffffffffffffffffff021916908373ffffffffffffffffffffffffffffffffffffffff160217905550606082015181600301556080820151816004019060001916905560a082015181600501908051906020019061115f92919061353a565b5060c082015181600601908051906020019061117c9291906135c4565b5060e0820151816007019080519060200190611199929190613624565b506101008201518160080190805190602001906111b79291906136d4565b506101208201518160090160006101000a81548160ff021916908360ff1602179055506101408201518160090160016101000a81548160ff021916908360ff160217905550505050600280549050600160008b6000191660001916815260200190815260200160002060006101000a81548161ffff021916908361ffff160217905550600260018060008c6000191660001916815260200190815260200160002060009054906101000a900461ffff160361ffff1681548110151561127857fe5b90600052602060002090600a02019150600090505b81600701805490508110156112ee574282600701828154811015156112ae57fe5b90600052602060002090600891828204019190066004026101000a81548163ffffffff021916908363ffffffff160217905550808060010191505061128d565b61130489600160088111156112ff57fe5b611d48565b88600019167fcdd8e82457800d3241f19b61393a2bbceb40e44253685afc406b2bb489c84ad360405160405180910390a2505050505050505050565b60036020528060005260406000206000915054906101000a900461ffff1681565b600084600060026001806000856000191660001916815260200190815260200160002060009054906101000a900461ffff160361ffff168154811015156113a457fe5b90600052602060002090600a02019050600160088111156113c157fe5b60ff168160090160019054906101000a900460ff1660ff1614806114075750600360088111156113ed57fe5b60ff168160090160019054906101000a900460ff1660ff16145b8061143457506005600881111561141a57fe5b60ff168160090160019054906101000a900460ff1660ff16145b151561143f57600080fd5b6000809054906101000a900473ffffffffffffffffffffffffffffffffffffffff1673ffffffffffffffffffffffffffffffffffffffff163373ffffffffffffffffffffffffffffffffffffffff1614151561149a57600080fd5b6114a687878787611c60565b92505050949350505050565b6000600280549050905090565b60016020528060005260406000206000915054906101000a900461ffff1681565b6000809054906101000a900473ffffffffffffffffffffffffffffffffffffffff1673ffffffffffffffffffffffffffffffffffffffff163373ffffffffffffffffffffffffffffffffffffffff1614151561153b57600080fd5b6000809054906101000a900473ffffffffffffffffffffffffffffffffffffffff1673ffffffffffffffffffffffffffffffffffffffff167ff8df31144d9c2f0f6b59d69b8b98abd5459d07f2742c4df920b25aae33c6482060405160405180910390a260008060006101000a81548173ffffffffffffffffffffffffffffffffffffffff021916908373ffffffffffffffffffffffffffffffffffffffff160217905550565b600080826116105760048461ffff168154811015156115fd57fe5b90600052602060002090600a0201611632565b60028461ffff1681548110151561162357fe5b90600052602060002090600a02015b9050806000015491505092915050565b6000809054906101000a900473ffffffffffffffffffffffffffffffffffffffff1681565b606080600061167584611ac1565b6116cb576004600160036000876000191660001916815260200190815260200160002060009054906101000a900461ffff160361ffff168154811015156116b857fe5b90600052602060002090600a0201611718565b60026001806000876000191660001916815260200190815260200160002060009054906101000a900461ffff160361ffff1681548110151561170957fe5b90600052602060002090600a02015b90508060070180548060200260200160405190810160405280929190818152602001828054801561179457602002820191906000526020600020906000905b82829054906101000a900463ffffffff1663ffffffff16815260200190600401906020826003010492830192600103820291508084116117575790505b505050505092508060080180548060200260200160405190810160405280929190818152602001828054801561180e57602002820191906000526020600020906000905b82829054906101000a900460ff161515815260200190600101906020826000010492830192600103820291508084116117d85790505b5050505050915050915091565b6000836005600881111561182b57fe5b8060ff1660026001806000866000191660001916815260200190815260200160002060009054906101000a900461ffff160361ffff1681548110151561186d57fe5b90600052602060002090600a020160090160019054906101000a900460ff1660ff1614151561189b57600080fd5b6000809054906101000a900473ffffffffffffffffffffffffffffffffffffffff1673ffffffffffffffffffffffffffffffffffffffff163373ffffffffffffffffffffffffffffffffffffffff161415156118f657600080fd5b6119008686611b49565b92507fffffffffffffffffffffffffffffffffffffffffffffffffffffffffffffffff831415151561193157600080fd5b42600260018060008a6000191660001916815260200190815260200160002060009054906101000a900461ffff160361ffff1681548110151561197057fe5b90600052602060002090600a02016007018481548110151561198e57fe5b90600052602060002090600891828204019190066004026101000a81548163ffffffff021916908363ffffffff16021790555085600019167f84d08018633e0a8a0ba434acc29166246cfe913279e254647ca8c2f24f13660785604051808260ff1660ff16815260200191505060405180910390a2505050505050565b6000600480549050905090565b600560205281600052604060002081815481101515611a3357fe5b9060005260206000209060209182820401919006915091509054906101000a900460ff1681565b6000809054906101000a900473ffffffffffffffffffffffffffffffffffffffff1673ffffffffffffffffffffffffffffffffffffffff163373ffffffffffffffffffffffffffffffffffffffff16141515611ab557600080fd5b611abe81611f31565b50565b60008060016000846000191660001916815260200190815260200160002060009054906101000a900461ffff1661ffff16141515611b025760019050611b44565b600060036000846000191660001916815260200190815260200160002060009054906101000a900461ffff1661ffff1614151515611b3f57600080fd5b600090505b919050565b600080600060026001806000886000191660001916815260200190815260200160002060009054906101000a900461ffff160361ffff16815481101515611b8c57fe5b90600052602060002090600a02019150600090505b8160050180549050811015611c34578373ffffffffffffffffffffffffffffffffffffffff168260050182815481101515611bd857fe5b9060005260206000200160009054906101000a900473ffffffffffffffffffffffffffffffffffffffff1673ffffffffffffffffffffffffffffffffffffffff161415611c2757809250611c58565b8080600101915050611ba1565b7fffffffffffffffffffffffffffffffffffffffffffffffffffffffffffffffff92505b505092915050565b6000611c6d85858461202b565b611c7685612084565b15611d40576001905060006002811115611c8c57fe5b60ff168360ff161415611cbd57611caf8560036008811115611caa57fe5b611d48565b611cb885612146565b611d3f565b60016002811115611cca57fe5b60ff168360ff161415611cfb57611ced8560056008811115611ce857fe5b611d48565b611cf685612146565b611d3e565b600280811115611d0757fe5b60ff168360ff161415611d3857611d2a8560076008811115611d2557fe5b611d48565b611d338561223e565b611d3d565b600090505b5b5b5b949350505050565b6000808383600080600080925060056000600260018060008a6000191660001916815260200190815260200160002060009054906101000a900461ffff160361ffff16815481101515611d9757fe5b90600052602060002090600a020160090160019054906101000a900460ff1660ff1660ff1681526020019081526020016000209150600090505b8180549050811015611e2a578360ff168282815481101515611def57fe5b90600052602060002090602091828204019190069054906101000a900460ff1660ff161415611e1d57600192505b8080600101915050611dd1565b60011515831515141515611e3d57600080fd5b600260018060008c6000191660001916815260200190815260200160002060009054906101000a900461ffff160361ffff16815481101515611e7b57fe5b90600052602060002090600a020196508660090160019054906101000a900460ff169550878760090160016101000a81548160ff021916908360ff16021790555088600019167f9cb99c834b5e878ca7005d163b0fd70203dbc223d5845abe517de64a74dc5816878960090160019054906101000a900460ff16604051808360ff1660ff1681526020018260ff1660ff1681526020019250505060405180910390a2611f2689612f41565b505050505050505050565b600073ffffffffffffffffffffffffffffffffffffffff168173ffffffffffffffffffffffffffffffffffffffff1614151515611f6d57600080fd5b8073ffffffffffffffffffffffffffffffffffffffff166000809054906101000a900473ffffffffffffffffffffffffffffffffffffffff1673ffffffffffffffffffffffffffffffffffffffff167f8be0079c531659141344cd1fd0a4f28419497f9722a3daafe3b4186f6b6457e060405160405180910390a3806000806101000a81548173ffffffffffffffffffffffffffffffffffffffff021916908373ffffffffffffffffffffffffffffffffffffffff16021790555050565b60006120378484611b49565b90507fffffffffffffffffffffffffffffffffffffffffffffffffffffffffffffffff811415151561206857600080fd5b6120738482846131a7565b61207c846132c2565b505050505050565b60008060006001925060026001806000876000191660001916815260200190815260200160002060009054906101000a900461ffff160361ffff168154811015156120cb57fe5b90600052602060002090600a02019150600090505b816008018054905081101561213f5760011515826008018281548110151561210457fe5b90600052602060002090602091828204019190069054906101000a900460ff16151514151561213257600092505b80806001019150506120e0565b5050919050565b60008060026001806000866000191660001916815260200190815260200160002060009054906101000a900461ffff160361ffff1681548110151561218757fe5b90600052602060002090600a02019150600090505b816008018054905081101561223957600082600801828154811015156121be57fe5b90600052602060002090602091828204019190066101000a81548160ff0219169083151502179055504282600701828154811015156121f957fe5b90600052602060002090600891828204019190066004026101000a81548163ffffffff021916908363ffffffff160217905550808060010191505061219c565b505050565b61224661377a565b61224e61377a565b60026001806000866000191660001916815260200190815260200160002060009054906101000a900461ffff160361ffff1681548110151561228c57fe5b90600052602060002090600a020161016060405190810160405290816000820154600019166000191681526020016001820160009054906101000a900473ffffffffffffffffffffffffffffffffffffffff1673ffffffffffffffffffffffffffffffffffffffff1673ffffffffffffffffffffffffffffffffffffffff1681526020016002820160009054906101000a900473ffffffffffffffffffffffffffffffffffffffff1673ffffffffffffffffffffffffffffffffffffffff1673ffffffffffffffffffffffffffffffffffffffff168152602001600382015481526020016004820154600019166000191681526020016005820180548060200260200160405190810160405280929190818152602001828054801561240657602002820191906000526020600020905b8160009054906101000a900473ffffffffffffffffffffffffffffffffffffffff1673ffffffffffffffffffffffffffffffffffffffff16815260200190600101908083116123bc575b5050505050815260200160068201805480602002602001604051908101604052809291908181526020016000905b828210156124f0578382906000526020600020018054600181600116156101000203166002900480601f0160208091040260200160405190810160405280929190818152602001828054600181600116156101000203166002900480156124dc5780601f106124b1576101008083540402835291602001916124dc565b820191906000526020600020905b8154815290600101906020018083116124bf57829003601f168201915b505050505081526020019060010190612434565b5050505081526020016007820180548060200260200160405190810160405280929190818152602001828054801561257357602002820191906000526020600020906000905b82829054906101000a900463ffffffff1663ffffffff16815260200190600401906020826003010492830192600103820291508084116125365790505b50505050508152602001600882018054806020026020016040519081016040528092919081815260200182805480156125f057602002820191906000526020600020906000905b82829054906101000a900460ff161515815260200190600101906020826000010492830192600103820291508084116125ba5790505b505050505081526020016009820160009054906101000a900460ff1660ff1660ff1681526020016009820160019054906101000a900460ff1660ff1660ff168152505091506004829080600181540180825580915050906001820390600052602060002090600a0201600090919290919091506000820151816000019060001916905560208201518160010160006101000a81548173ffffffffffffffffffffffffffffffffffffffff021916908373ffffffffffffffffffffffffffffffffffffffff16021790555060408201518160020160006101000a81548173ffffffffffffffffffffffffffffffffffffffff021916908373ffffffffffffffffffffffffffffffffffffffff160217905550606082015181600301556080820151816004019060001916905560a082015181600501908051906020019061273792919061353a565b5060c08201518160060190805190602001906127549291906135c4565b5060e0820151816007019080519060200190612771929190613624565b5061010082015181600801908051906020019061278f9291906136d4565b506101208201518160090160006101000a81548160ff021916908360ff1602179055506101408201518160090160016101000a81548160ff021916908360ff16021790555050505060048054905060ff1660036000856000191660001916815260200190815260200160002060006101000a81548161ffff021916908361ffff16021790555060028054905060016000856000191660001916815260200190815260200160002060009054906101000a900461ffff1661ffff16141515612dd257600260016002805490500381548110151561286757fe5b90600052602060002090600a020161016060405190810160405290816000820154600019166000191681526020016001820160009054906101000a900473ffffffffffffffffffffffffffffffffffffffff1673ffffffffffffffffffffffffffffffffffffffff1673ffffffffffffffffffffffffffffffffffffffff1681526020016002820160009054906101000a900473ffffffffffffffffffffffffffffffffffffffff1673ffffffffffffffffffffffffffffffffffffffff1673ffffffffffffffffffffffffffffffffffffffff16815260200160038201548152602001600482015460001916600019168152602001600582018054806020026020016040519081016040528092919081815260200182805480156129e157602002820191906000526020600020905b8160009054906101000a900473ffffffffffffffffffffffffffffffffffffffff1673ffffffffffffffffffffffffffffffffffffffff1681526020019060010190808311612997575b5050505050815260200160068201805480602002602001604051908101604052809291908181526020016000905b82821015612acb578382906000526020600020018054600181600116156101000203166002900480601f016020809104026020016040519081016040528092919081815260200182805460018160011615610100020316600290048015612ab75780601f10612a8c57610100808354040283529160200191612ab7565b820191906000526020600020905b815481529060010190602001808311612a9a57829003601f168201915b505050505081526020019060010190612a0f565b50505050815260200160078201805480602002602001604051908101604052809291908181526020018280548015612b4e57602002820191906000526020600020906000905b82829054906101000a900463ffffffff1663ffffffff1681526020019060040190602082600301049283019260010382029150808411612b115790505b5050505050815260200160088201805480602002602001604051908101604052809291908181526020018280548015612bcb57602002820191906000526020600020906000905b82829054906101000a900460ff16151581526020019060010190602082600001049283019260010382029150808411612b955790505b505050505081526020016009820160009054906101000a900460ff1660ff1660ff1681526020016009820160019054906101000a900460ff1660ff1660ff168152505090508060026001806000876000191660001916815260200190815260200160002060009054906101000a900461ffff160361ffff16815481101515612c4f57fe5b90600052602060002090600a02016000820151816000019060001916905560208201518160010160006101000a81548173ffffffffffffffffffffffffffffffffffffffff021916908373ffffffffffffffffffffffffffffffffffffffff16021790555060408201518160020160006101000a81548173ffffffffffffffffffffffffffffffffffffffff021916908373ffffffffffffffffffffffffffffffffffffffff160217905550606082015181600301556080820151816004019060001916905560a0820151816005019080519060200190612d3192919061353a565b5060c0820151816006019080519060200190612d4e9291906135c4565b5060e0820151816007019080519060200190612d6b929190613624565b50610100820151816008019080519060200190612d899291906136d4565b506101208201518160090160006101000a81548160ff021916908360ff1602179055506101408201518160090160016101000a81548160ff021916908360ff1602179055509050505b60026001806000866000191660001916815260200190815260200160002060009054906101000a900461ffff160361ffff16815481101515612e1057fe5b90600052602060002090600a02016000808201600090556001820160006101000a81549073ffffffffffffffffffffffffffffffffffffffff02191690556002820160006101000a81549073ffffffffffffffffffffffffffffffffffffffff021916905560038201600090556004820160009055600582016000612e95919061380d565b600682016000612ea5919061382e565b600782016000612eb5919061384f565b600882016000612ec59190613877565b6009820160006101000a81549060ff02191690556009820160016101000a81549060ff02191690555050600060016000856000191660001916815260200190815260200160002060006101000a81548161ffff021916908361ffff1602179055506002805480919060019003612f3b919061389f565b50505050565b600060026001806000856000191660001916815260200190815260200160002060009054906101000a900461ffff160361ffff16815481101515612f8157fe5b90600052602060002090600a020160090160019054906101000a900460ff16905060026008811115612faf57fe5b60ff168160ff161415612ff25781600019167f5261c4ecde326f171b514c548529aa2219b22fedf2fa5640ae6f7d939aaefbf860405160405180910390a26131a3565b60036008811115612fff57fe5b60ff168160ff1614156130425781600019167f664052ccd6bc90c161d5b3a6ed2bff308e2bf01e52fbc112e7a8d445bb9c66ee60405160405180910390a26131a2565b6004600881111561304f57fe5b60ff168160ff1614156130925781600019167fee170c67bd88e14fcfccdcf7817ddb732cb1a466d0c333f4642571d1282556eb60405160405180910390a26131a1565b6005600881111561309f57fe5b60ff168160ff1614156130e25781600019167f3010926e292de172661e49071a9be4cb18f63877dffcc78013e349175f5b03b260405160405180910390a26131a0565b600660088111156130ef57fe5b60ff168160ff1614156131425781600019167f439c5ac734864869b402ad7298724e0154a172f98a32de5c8e877b3f234dc5d76001604051808215151515815260200191505060405180910390a261319f565b6007600881111561314f57fe5b60ff168160ff16141561319e5781600019167f439c5ac734864869b402ad7298724e0154a172f98a32de5c8e877b3f234dc5d76000604051808215151515815260200191505060405180910390a25b5b5b5b5b5b5050565b8060026001806000876000191660001916815260200190815260200160002060009054906101000a900461ffff160361ffff168154811015156131e657fe5b90600052602060002090600a02016008018381548110151561320457fe5b90600052602060002090602091828204019190066101000a81548160ff0219169083151502179055504260026001806000876000191660001916815260200190815260200160002060009054906101000a900461ffff160361ffff1681548110151561326c57fe5b90600052602060002090600a02016007018381548110151561328a57fe5b90600052602060002090600891828204019190066004026101000a81548163ffffffff021916908363ffffffff160217905550505050565b60008060008084600060026001806000856000191660001916815260200190815260200160002060009054906101000a900461ffff160361ffff1681548110151561330957fe5b90600052602060002090600a020190506001600881111561332657fe5b60ff168160090160019054906101000a900460ff1660ff16148061336c57506003600881111561335257fe5b60ff168160090160019054906101000a900460ff1660ff16145b8061339957506005600881111561337f57fe5b60ff168160090160019054906101000a900460ff1660ff16145b15156133a457600080fd5b600260018060008a6000191660001916815260200190815260200160002060009054906101000a900461ffff160361ffff168154811015156133e257fe5b90600052602060002090600a02019350600092505b83600701805490508310156134b157610708846007018481548110151561341a57fe5b90600052602060002090600891828204019190066004029054906101000a900463ffffffff164260ff160363ffffffff1611156134a457836005018381548110151561346257fe5b9060005260206000200160009054906101000a900473ffffffffffffffffffffffffffffffffffffffff1695508360090160019054906101000a900460ff1694505b82806001019350506133f7565b50505050915091565b828054600181600116156101000203166002900490600052602060002090601f016020900481019282601f106134fb57803560ff1916838001178555613529565b82800160010185558215613529579182015b8281111561352857823582559160200191906001019061350d565b5b50905061353691906138d1565b5090565b8280548282559060005260206000209081019282156135b3579160200282015b828111156135b25782518260006101000a81548173ffffffffffffffffffffffffffffffffffffffff021916908373ffffffffffffffffffffffffffffffffffffffff1602179055509160200191906001019061355a565b5b5090506135c091906138f6565b5090565b828054828255906000526020600020908101928215613613579160200282015b82811115613612578251829080519060200190613602929190613939565b50916020019190600101906135e4565b5b50905061362091906139b9565b5090565b828054828255906000526020600020906007016008900481019282156136c35791602002820160005b8382111561369157835183826101000a81548163ffffffff021916908363ffffffff160217905550926020019260040160208160030104928301926001030261364d565b80156136c15782816101000a81549063ffffffff0219169055600401602081600301049283019260010302613691565b505b5090506136d091906139e5565b5090565b82805482825590600052602060002090601f016020900481019282156137695791602002820160005b8382111561373a57835183826101000a81548160ff02191690831515021790555092602001926001016020816000010492830192600103026136fd565b80156137675782816101000a81549060ff021916905560010160208160000104928301926001030261373a565b505b5090506137769190613a18565b5090565b6101606040519081016040528060008019168152602001600073ffffffffffffffffffffffffffffffffffffffff168152602001600073ffffffffffffffffffffffffffffffffffffffff168152602001600081526020016000801916815260200160608152602001606081526020016060815260200160608152602001600060ff168152602001600060ff1681525090565b508054600082559060005260206000209081019061382b91906138d1565b50565b508054600082559060005260206000209081019061384c91906139b9565b50565b50805460008255600701600890049060005260206000209081019061387491906138d1565b50565b50805460008255601f01602090049060005260206000209081019061389c91906138d1565b50565b8154818355818111156138cc57600a0281600a0283600052602060002091820191016138cb9190613a48565b5b505050565b6138f391905b808211156138ef5760008160009055506001016138d7565b5090565b90565b61393691905b8082111561393257600081816101000a81549073ffffffffffffffffffffffffffffffffffffffff0219169055506001016138fc565b5090565b90565b828054600181600116156101000203166002900490600052602060002090601f016020900481019282601f1061397a57805160ff19168380011785556139a8565b828001600101855582156139a8579182015b828111156139a757825182559160200191906001019061398c565b5b5090506139b591906138d1565b5090565b6139e291905b808211156139de57600081816139d59190613b35565b506001016139bf565b5090565b90565b613a1591905b80821115613a1157600081816101000a81549063ffffffff0219169055506001016139eb565b5090565b90565b613a4591905b80821115613a4157600081816101000a81549060ff021916905550600101613a1e565b5090565b90565b613b3291905b80821115613b2e576000808201600090556001820160006101000a81549073ffffffffffffffffffffffffffffffffffffffff02191690556002820160006101000a81549073ffffffffffffffffffffffffffffffffffffffff021916905560038201600090556004820160009055600582016000613acd919061380d565b600682016000613add919061382e565b600782016000613aed919061384f565b600882016000613afd9190613877565b6009820160006101000a81549060ff02191690556009820160016101000a81549060ff021916905550600a01613a4e565b5090565b90565b50805460018160011615610100020316600290046000825580601f10613b5b5750613b7a565b601f016020900490600052602060002090810190613b7991906138d1565b5b505600a165627a7a723058203220feaa734306e72870d01786ad9d9af4d940a4464a37b3d5cbf10fb67296850029",
  "source": "pragma solidity ^0.4.24;\n\nimport \"./ICognitiveJobController.sol\";\n\n\n// Contract implement main cognitive job functionality\ncontract CognitiveJobController is ICognitiveJobController{\n\n    /*******************************************************************************************************************\n     * ## Storage\n     */\n\n    enum WorkerResponses {\n        Assignment,\n        DataValidation,\n        Result\n    }\n\n    enum States {\n        Uninitialized,\n        GatheringWorkers,\n        InsufficientWorkers,\n        DataValidation,\n        InvalidData,\n        Cognition,\n        PartialResult,\n        Completed,\n        Destroyed\n    }\n\n    struct CognitiveJob {\n        bytes32 id;\n        address kernel;\n        address dataset;\n        uint256 complexity; //todo find better name\n        bytes32 description;\n        address[] activeWorkers;\n        bytes[] ipfsResults;\n        uint32[] responseTimestamps; // time of each worker response\n        bool[] responseFlags;\n        uint8 progress;\n        uint8 state;\n    }\n\n    /// @dev Indexes (+1) of active (=running) cognitive jobs in `activeJobs` mapped from their creators\n    /// (owners of the corresponding cognitive job contracts). Zero values corresponds to no active job,\n    /// one  to the one with index 0 and so forth.\n    mapping(bytes32 => uint16) public activeJobsIndexes;\n\n    /// @dev List of all active cognitive jobs\n    CognitiveJob[] activeJobs;\n\n    mapping(bytes32 => uint16) public completedJobsIndexes;\n\n    /// @dev List of all completed cognitive jobs\n    CognitiveJob[] public completedJobs;\n\n    ///Table of all possible state transitions\n    mapping(uint8 => uint8[]) public transitionTable;\n\n    //        uint8 WORKER_TIMEOUT = 30 minutes;\n\n    constructor() public {\n        //state machine initialization should be performed only once with filling transitionTable\n        _initStateMachine();\n    }\n\n    /******************************************************************************************************************\n    Public functions\n    */\n\n    /// @dev Returns total count of active jobs\n    function activeJobsCount() view public returns (uint256) {\n        return activeJobs.length;\n    }\n\n    /// @dev Returns total count of active jobs\n    function completedJobsCount() view public returns (uint256) {\n        return completedJobs.length;\n    }\n\n    function getJobId(uint16 _index, bool _isActive)\n    view\n    public\n    returns(bytes32){\n        CognitiveJob storage job = _isActive ?\n            activeJobs[_index]\n            : completedJobs[_index];\n        return job.id;\n    }\n\n    function getCognitiveJobDetails(bytes32 _jobId)\n    external\n    view\n    returns (\n        address kernel,\n        address dataset,\n        uint256 complexity,\n        bytes32 description,\n        address[] activeWorkers,\n        uint8 progress,\n        uint8 state\n    ) {\n        CognitiveJob storage job = isActiveJob(_jobId) ?\n            activeJobs[activeJobsIndexes[_jobId] - 1]\n            : completedJobs[completedJobsIndexes[_jobId] - 1];\n        kernel = job.kernel;\n        dataset = job.dataset;\n        complexity = job.complexity;\n        description = job.description;\n        activeWorkers = job.activeWorkers;\n        progress = job.progress;\n        state = job.state;\n    }\n\n    function getCognitiveJobResults(\n        bytes32 _jobId,\n        uint8 _index //index of worker, whose results should be returned\n    )\n    public\n    view\n    returns(\n        bytes ipfsResults\n    ) {\n        CognitiveJob storage job = isActiveJob(_jobId) ?\n            activeJobs[activeJobsIndexes[_jobId] - 1]\n            : completedJobs[completedJobsIndexes[_jobId] - 1];\n        ipfsResults = job.ipfsResults[_index];\n    }\n\n    function getCognitiveJobServiceInfo(\n        bytes32 _jobId\n    )\n    public\n    view\n    returns(\n        uint32[] responseTimestamps,\n        bool[] responseFlags\n    ) {\n        CognitiveJob storage job = isActiveJob(_jobId) ?\n            activeJobs[activeJobsIndexes[_jobId] - 1]\n            : completedJobs[completedJobsIndexes[_jobId] - 1];\n        responseTimestamps = job.responseTimestamps;\n        responseFlags = job.responseFlags;\n    }\n\n    /******************************************************************************************************************\n    External functions (Only Pandora by interface)\n    */\n    function createCognitiveJob (\n        bytes32 _id,\n        address _kernel,\n        address _dataset,\n        address[] _assignedWorkers,\n        uint256 _complexity,\n        bytes32 _description\n    )\n    onlyOwner()\n    external {\n        // The created job must fit into uint16 size\n        require(activeJobs.length < uint16(-1));\n\n        activeJobs.push(CognitiveJob({\n            id: _id,\n            kernel: _kernel,\n            dataset: _dataset,\n            complexity: _complexity,\n            description: _description,\n            activeWorkers: _assignedWorkers,\n            ipfsResults: new bytes[](_assignedWorkers.length),\n            responseTimestamps: new uint32[](_assignedWorkers.length),\n            responseFlags: new bool[](_assignedWorkers.length),\n            progress: 0,\n            state: uint8(States.Uninitialized)\n            })\n        );\n        // Add to addresses map\n        activeJobsIndexes[_id] = uint16(activeJobs.length);\n\n        CognitiveJob storage job = activeJobs[activeJobsIndexes[_id] - 1];\n        // Init timestamps\n        for (uint256 i = 0; i < job.responseTimestamps.length; i++) {\n            job.responseTimestamps[i] = uint32(block.timestamp);\n        }\n        _transitionToState( _id, uint8(States.GatheringWorkers));\n        emit WorkersUpdated(_id);\n    }\n\n    function respondToJob(\n        bytes32 _jobId,\n        address _workerId,\n        uint8 _responseType,\n        bool _response)\n    requireActiveStates( _jobId)\n    onlyOwner()\n    external\n    returns (bool result)\n    {\n        return _onWorkerResponse(_jobId, _workerId, _responseType, _response);\n    }\n\n    //should be called for responseTimestamp refresh after actual progress change in workerNode\n    //todo implement requirement of new progress > current progress in workerController in new v.\n    function commitProgress(\n        bytes32 _jobId,\n        address _workerId,\n        uint8 _percent)\n    requireState( _jobId, uint8(States.Cognition))\n    onlyOwner()\n    external {\n        //todo check active worker with workerController\n        uint256 workerIndex = _getWorkerIndex( _jobId, _workerId);\n        require(workerIndex != uint256(-1)); //worker is computing current job\n        activeJobs[activeJobsIndexes[_jobId] - 1].responseTimestamps[workerIndex] = uint32(block.timestamp);\n        emit CognitionProgressed(_jobId, _percent);\n    }\n\n    /// @notice should be called with provided results\n    function completeWork(\n        bytes32 _jobId,\n        address _workerId,\n        bytes _ipfsResults)\n    requireState( _jobId, uint8(States.Cognition))\n    onlyOwner()\n    external\n    returns (\n        bool result // true - if all workers have submitted result\n    ){\n        uint256 workerIndex = _getWorkerIndex( _jobId, _workerId);\n        require(workerIndex != uint256(-1)); //worker is computing current job\n\n        activeJobs[activeJobsIndexes[_jobId] - 1].ipfsResults[workerIndex] = _ipfsResults;\n        result = _onWorkerResponse( _jobId, _workerId, uint8(WorkerResponses.Result), true);\n    }\n\n    //    function reportOfflineWorker(IWorkerNode reported) payable external requireActiveStates;\n    //todo should be implemented in workerController in upcoming version\n\n    /******************************************************************************************************************\n    Private functions\n    */\n\n    /// @dev Could be called from manager with two types of response - Assignment and DataValidation\n    function _onWorkerResponse(\n        bytes32 _jobId,\n        address _workerId,\n        uint8 _responseType,\n        bool _response)\n    private\n    returns (bool result)\n    {\n        _checkResponse( _jobId, _workerId, _response);\n        // Transition to next state when all workers have responded\n        if (_isAllWorkersResponded( _jobId)) {\n            result = true;\n            if (_responseType == uint8(WorkerResponses.Assignment)) {\n                _transitionToState( _jobId, uint8(States.DataValidation));\n                //todo implement process decline, with validation in new v.\n                _resetAllResponses( _jobId);\n            } else if (_responseType == uint8(WorkerResponses.DataValidation)) {\n                _transitionToState( _jobId, uint8(States.Cognition));\n                //todo implement process decline, with validation in new v.\n                _resetAllResponses( _jobId);\n            } else if (_responseType == uint8(WorkerResponses.Result)) {\n                _transitionToState( _jobId, uint8(States.Completed));\n                _onJobComplete(_jobId); // move active job to completed ones\n            } else {\n                result = false; //not all workers responded\n            }\n        }\n    }\n\n    ///@dev Checks is worker actually computing current job, then updates response's flag and timestamp\n    function _checkResponse(\n        bytes32 _jobId,\n        address _workerId,\n        bool _response)\n    private {\n        uint256 workerIndex = _getWorkerIndex( _jobId, _workerId);\n        require(workerIndex != uint256(-1)); //worker is computing current job\n\n        //todo implement penalties\n        _updateResponse( _jobId, workerIndex, _response);\n        _trackOfflineWorkers( _jobId);\n    }\n\n    function _getWorkerIndex(\n        bytes32 _jobId,\n        address _workerId)\n    private\n    view\n    returns (\n        uint256\n    ) {\n        CognitiveJob storage job = activeJobs[activeJobsIndexes[_jobId] - 1];\n        for (uint256 i = 0; i < job.activeWorkers.length; i++) {\n            if (job.activeWorkers[i] == _workerId) {\n                return i;\n            }\n        }\n        return uint256(-1);\n    }\n\n    function _isAllWorkersResponded(\n        bytes32 _jobId)\n    private\n    view\n    returns (\n        bool responded\n    ) {\n        responded = true;\n        CognitiveJob storage job = activeJobs[activeJobsIndexes[_jobId] - 1];\n        for (uint256 i = 0; i < job.responseFlags.length; i++) {\n            if (job.responseFlags[i] != true) {\n                responded = false;\n            }\n        }\n    }\n\n    function _updateResponse(\n        bytes32 _jobId,\n        uint256 _workerIndex,\n        bool _response)\n    private {\n        activeJobs[activeJobsIndexes[_jobId] - 1].responseFlags[_workerIndex] = _response;\n        activeJobs[activeJobsIndexes[_jobId] - 1].responseTimestamps[_workerIndex] = uint32(block.timestamp);\n    }\n\n    ///@dev Reset all response flags and update all timestamps\n    function _resetAllResponses(\n        bytes32 _jobId)\n    private {\n        CognitiveJob storage job = activeJobs[activeJobsIndexes[_jobId] - 1];\n        for (uint256 i = 0; i < job.responseFlags.length; i++) {\n            job.responseFlags[i] = false;\n            job.responseTimestamps[i] = uint32(block.timestamp);\n        }\n    }\n\n    //todo provide listener and handle guilty worker and job state in manager, so it could penaltize worker\n    function _trackOfflineWorkers(\n        bytes32 _jobId)\n    requireActiveStates( _jobId)\n    internal\n    returns (\n        address guiltyWorker,\n        uint8 jobState\n    ){\n        CognitiveJob storage job = activeJobs[activeJobsIndexes[_jobId] - 1];\n        for (uint256 i = 0; i < job.responseTimestamps.length; i++) {\n            if (uint8(block.timestamp) - job.responseTimestamps[i] > 30 minutes) {\n                guiltyWorker = job.activeWorkers[i];\n                jobState = job.state;\n            }\n        }\n    }\n\n    /******************************************************************************************************************\n    State machine implementation\n    */\n\n    modifier requireActiveStates(\n        bytes32 _jobId)\n    {\n        CognitiveJob storage job = activeJobs[activeJobsIndexes[_jobId] - 1];\n        require(\n            job.state == uint8(States.GatheringWorkers) ||\n            job.state == uint8(States.DataValidation) ||\n            job.state == uint8(States.Cognition)\n        );\n        _;\n    }\n\n    modifier requireState(\n        bytes32 _jobId,\n        uint8 requiredState\n    ) {\n        require(activeJobs[activeJobsIndexes[_jobId] - 1].state == requiredState);\n        _;\n    }\n\n    modifier requireAllowedTransition(\n        bytes32 _jobId,\n        uint8 _newState\n    ) {\n        // Checking if the state transition is allowed\n        bool transitionAllowed = false;\n        uint8[] storage allowedStates =\n            transitionTable[uint8(activeJobs[activeJobsIndexes[_jobId] - 1].state)];\n        for (uint no = 0; no < allowedStates.length; no++) {\n            if (allowedStates[no] == _newState) {\n                transitionAllowed = true;\n            }\n        }\n        require(transitionAllowed == true);\n        _;\n    }\n\n    function _transitionToState(\n        bytes32 _jobId,\n        uint8 _newState)\n    requireAllowedTransition( _jobId, _newState)\n    private\n    {\n        CognitiveJob storage job = activeJobs[activeJobsIndexes[_jobId] - 1];\n        uint8 oldState = job.state;\n        job.state = _newState;\n        emit JobStateChanged(_jobId, oldState, job.state);\n        _fireStateEvent(_jobId);\n    }\n\n    //Fill table of possible state transitions\n    function _initStateMachine()\n    private {\n        mapping(uint8 => uint8[]) transitions = transitionTable;\n        transitions[uint8(States.Uninitialized)] =\n            [uint8(States.GatheringWorkers)];\n        transitions[uint8(States.GatheringWorkers)] =\n            [uint8(States.InsufficientWorkers), uint8(States.DataValidation)];\n        transitions[uint8(States.DataValidation)] =\n            [uint8(States.InvalidData), uint8(States.Cognition), uint8(States.InsufficientWorkers)];\n        transitions[uint8(States.Cognition)] =\n            [uint8(States.Completed), uint8(States.PartialResult)];\n    }\n\n    function _fireStateEvent(\n        bytes32 _jobId)\n    private {\n        uint8 state = activeJobs[activeJobsIndexes[_jobId] - 1].state;\n        if (state == uint8(States.InsufficientWorkers)) {\n            emit WorkersNotFound(_jobId);\n            //_onJobComplete(_jobId); //todo refactor with queue\n        } else if (state == uint8(States.DataValidation)) {\n            emit DataValidationStarted(_jobId);\n        } else if (state == uint8(States.InvalidData)) {\n            emit DataValidationFailed(_jobId);\n            //_cleanStorage(); //todo refactor\n        } else if (state == uint8(States.Cognition)) {\n            emit CognitionStarted(_jobId);\n        } else if (state == uint8(States.PartialResult)) {\n            emit CognitionCompleted(_jobId, true);\n        } else if (state == uint8(States.Completed)) {\n            emit CognitionCompleted(_jobId, false);\n        }\n    }\n\n    function _onJobComplete(\n        bytes32 _jobId)\n    private\n    {\n        CognitiveJob memory currentJob = activeJobs[activeJobsIndexes[_jobId] - 1];\n        completedJobs.push(currentJob);\n        completedJobsIndexes[_jobId] = uint8(completedJobs.length);\n\n        if (activeJobsIndexes[_jobId] != activeJobs.length) {\n            CognitiveJob memory movedJob = activeJobs[activeJobs.length - 1];\n            activeJobs[activeJobsIndexes[_jobId] - 1] = movedJob;\n        }\n        delete activeJobs[activeJobsIndexes[_jobId] - 1]; //todo check storage erasing in test\n        activeJobsIndexes[_jobId] = 0;\n        activeJobs.length--;\n    }\n\n    /// @dev Checks that job with given id is active or not (tx will fail if job is not existed)\n    function isActiveJob(\n        bytes32 _jobId\n    )\n    view\n    private\n    returns (\n        bool\n    ) {\n        if (activeJobsIndexes[_jobId] != 0) {\n            return true;\n        } else {\n            require(completedJobsIndexes[_jobId] != 0);\n            return false;\n        }\n    }\n}\n",
  "sourcePath": "/home/kostysh/dev/pyrrha-consensus/contracts/pandora/managers/CognitiveJobController.sol",
  "compiler": {
    "name": "solc",
    "version": "0.4.24+commit.e67f0147.Emscripten.clang"
  },
  "schemaVersion": "2.0.1",
  "updatedAt": "2018-07-26T07:59:01.271Z"
}