{
  "contractName": "CognitiveJobManager",
  "abi": [
    {
      "constant": true,
      "inputs": [],
      "name": "workerNodesCount",
      "outputs": [
        {
          "name": "",
          "type": "uint256"
        }
      ],
      "payable": false,
      "stateMutability": "view",
      "type": "function"
    },
    {
      "constant": false,
      "inputs": [
        {
          "name": "_workerOwner",
          "type": "address"
        }
      ],
      "name": "whitelistWorkerOwner",
      "outputs": [],
      "payable": false,
      "stateMutability": "nonpayable",
      "type": "function"
    },
    {
      "constant": true,
      "inputs": [],
      "name": "initialized",
      "outputs": [
        {
          "name": "",
          "type": "bool"
        }
      ],
      "payable": false,
      "stateMutability": "view",
      "type": "function"
    },
    {
      "constant": true,
      "inputs": [
        {
          "name": "",
          "type": "uint256"
        }
      ],
      "name": "workerNodes",
      "outputs": [
        {
          "name": "",
          "type": "address"
        }
      ],
      "payable": false,
      "stateMutability": "view",
      "type": "function"
    },
    {
      "constant": true,
      "inputs": [
        {
          "name": "",
          "type": "uint256"
        }
      ],
      "name": "activeJobs",
      "outputs": [
        {
          "name": "",
          "type": "address"
        }
      ],
      "payable": false,
      "stateMutability": "view",
      "type": "function"
    },
    {
      "constant": true,
      "inputs": [],
      "name": "RESULT_CODE_JOB_CREATED",
      "outputs": [
        {
          "name": "",
          "type": "uint8"
        }
      ],
      "payable": false,
      "stateMutability": "view",
      "type": "function"
    },
    {
      "constant": true,
      "inputs": [],
      "name": "cognitiveJobFactory",
      "outputs": [
        {
          "name": "",
          "type": "address"
        }
      ],
      "payable": false,
      "stateMutability": "view",
      "type": "function"
    },
    {
      "constant": true,
      "inputs": [
        {
          "name": "",
          "type": "address"
        }
      ],
      "name": "jobAddresses",
      "outputs": [
        {
          "name": "",
          "type": "uint16"
        }
      ],
      "payable": false,
      "stateMutability": "view",
      "type": "function"
    },
    {
      "constant": false,
      "inputs": [
        {
          "name": "_guiltyWorker",
          "type": "address"
        },
        {
          "name": "_reason",
          "type": "uint8"
        }
      ],
      "name": "penaltizeWorkerNode",
      "outputs": [],
      "payable": false,
      "stateMutability": "nonpayable",
      "type": "function"
    },
    {
      "constant": true,
      "inputs": [
        {
          "name": "",
          "type": "address"
        }
      ],
      "name": "workerNodeOwners",
      "outputs": [
        {
          "name": "",
          "type": "bool"
        }
      ],
      "payable": false,
      "stateMutability": "view",
      "type": "function"
    },
    {
      "constant": false,
      "inputs": [
        {
          "name": "_workerOwner",
          "type": "address"
        }
      ],
      "name": "blacklistWorkerOwner",
      "outputs": [],
      "payable": false,
      "stateMutability": "nonpayable",
      "type": "function"
    },
    {
      "constant": false,
      "inputs": [],
      "name": "initialize",
      "outputs": [],
      "payable": false,
      "stateMutability": "nonpayable",
      "type": "function"
    },
    {
      "constant": true,
      "inputs": [],
      "name": "RESULT_CODE_ADD_TO_QUEUE",
      "outputs": [
        {
          "name": "",
          "type": "uint8"
        }
      ],
      "payable": false,
      "stateMutability": "view",
      "type": "function"
    },
    {
      "constant": false,
      "inputs": [],
      "name": "createWorkerNode",
      "outputs": [
        {
          "name": "",
          "type": "address"
        }
      ],
      "payable": false,
      "stateMutability": "nonpayable",
      "type": "function"
    },
    {
      "constant": true,
      "inputs": [],
      "name": "owner",
      "outputs": [
        {
          "name": "",
          "type": "address"
        }
      ],
      "payable": false,
      "stateMutability": "view",
      "type": "function"
    },
    {
      "constant": false,
      "inputs": [
        {
          "name": "_workerNode",
          "type": "address"
        }
      ],
      "name": "destroyWorkerNode",
      "outputs": [],
      "payable": false,
      "stateMutability": "nonpayable",
      "type": "function"
    },
    {
      "constant": false,
      "inputs": [
        {
          "name": "newOwner",
          "type": "address"
        }
      ],
      "name": "transferOwnership",
      "outputs": [],
      "payable": false,
      "stateMutability": "nonpayable",
      "type": "function"
    },
    {
      "constant": true,
      "inputs": [],
      "name": "workerNodeFactory",
      "outputs": [
        {
          "name": "",
          "type": "address"
        }
      ],
      "payable": false,
      "stateMutability": "view",
      "type": "function"
    },
    {
      "constant": true,
      "inputs": [
        {
          "name": "",
          "type": "address"
        }
      ],
      "name": "workerAddresses",
      "outputs": [
        {
          "name": "",
          "type": "uint16"
        }
      ],
      "payable": false,
      "stateMutability": "view",
      "type": "function"
    },
    {
      "inputs": [
        {
          "name": "_jobFactory",
          "type": "address"
        },
        {
          "name": "_nodeFactory",
          "type": "address"
        }
      ],
      "payable": false,
      "stateMutability": "nonpayable",
      "type": "constructor"
    },
    {
      "anonymous": false,
      "inputs": [
        {
          "indexed": false,
          "name": "cognitiveJob",
          "type": "address"
        },
        {
          "indexed": false,
          "name": "resultCode",
          "type": "uint256"
        }
      ],
      "name": "CognitiveJobCreated",
      "type": "event"
    },
    {
      "anonymous": false,
      "inputs": [
        {
          "indexed": false,
          "name": "cognitiveJob",
          "type": "address"
        },
        {
          "indexed": false,
          "name": "resultCode",
          "type": "uint256"
        }
      ],
      "name": "CognitiveJobCreateFailed",
      "type": "event"
    },
    {
      "anonymous": false,
      "inputs": [
        {
          "indexed": false,
          "name": "workerNode",
          "type": "address"
        }
      ],
      "name": "WorkerNodeCreated",
      "type": "event"
    },
    {
      "anonymous": false,
      "inputs": [
        {
          "indexed": false,
          "name": "workerNode",
          "type": "address"
        }
      ],
      "name": "WorkerNodeDestroyed",
      "type": "event"
    },
    {
      "anonymous": false,
      "inputs": [
        {
          "indexed": true,
          "name": "previousOwner",
          "type": "address"
        },
        {
          "indexed": true,
          "name": "newOwner",
          "type": "address"
        }
      ],
      "name": "OwnershipTransferred",
      "type": "event"
    },
    {
      "anonymous": false,
      "inputs": [
        {
          "indexed": false,
          "name": "cognitiveJob",
          "type": "address"
        }
      ],
      "name": "CognitiveJobCreated",
      "type": "event"
    },
    {
      "constant": true,
      "inputs": [],
      "name": "activeJobsCount",
      "outputs": [
        {
          "name": "",
          "type": "uint256"
        }
      ],
      "payable": false,
      "stateMutability": "view",
      "type": "function"
    },
    {
      "constant": true,
      "inputs": [
        {
          "name": "_job",
          "type": "address"
        }
      ],
      "name": "isActiveJob",
      "outputs": [
        {
          "name": "",
          "type": "bool"
        }
      ],
      "payable": false,
      "stateMutability": "view",
      "type": "function"
    },
    {
      "constant": false,
      "inputs": [
        {
          "name": "_kernel",
          "type": "address"
        },
        {
          "name": "_dataset",
          "type": "address"
        }
      ],
      "name": "createCognitiveJob",
      "outputs": [
        {
          "name": "o_cognitiveJob",
          "type": "address"
        },
        {
          "name": "o_resultCode",
          "type": "uint8"
        }
      ],
      "payable": true,
      "stateMutability": "payable",
      "type": "function"
    },
    {
      "constant": false,
      "inputs": [],
      "name": "finishCognitiveJob",
      "outputs": [],
      "payable": false,
      "stateMutability": "nonpayable",
      "type": "function"
    },
    {
      "constant": false,
      "inputs": [
        {
          "name": "_arrayLength",
          "type": "uint256"
        },
        {
          "name": "_numbersRange",
          "type": "uint256"
        }
      ],
      "name": "getRandomArray",
      "outputs": [
        {
          "name": "o_result",
          "type": "uint256[]"
        }
      ],
      "payable": false,
      "stateMutability": "nonpayable",
      "type": "function"
    }
  ],
  "bytecode": "0x606060405260008060006101000a81548160ff02191690831515021790555034156200002a57600080fd5b604051604080620035f6833981016040528080519060200190919080519060200190919050508060008060006101000a81548160ff02191690831515021790555033600360006101000a81548173ffffffffffffffffffffffffffffffffffffffff021916908373ffffffffffffffffffffffffffffffffffffffff160217905550600073ffffffffffffffffffffffffffffffffffffffff168173ffffffffffffffffffffffffffffffffffffffff1614151515620000e957600080fd5b80600760006101000a81548173ffffffffffffffffffffffffffffffffffffffff021916908373ffffffffffffffffffffffffffffffffffffffff16021790555050600073ffffffffffffffffffffffffffffffffffffffff168273ffffffffffffffffffffffffffffffffffffffff16141515156200016857600080fd5b81600b60006101000a81548173ffffffffffffffffffffffffffffffffffffffff021916908373ffffffffffffffffffffffffffffffffffffffff160217905550620001b362000212565b604051809103906000f0801515620001ca57600080fd5b600f60006101000a81548173ffffffffffffffffffffffffffffffffffffffff021916908373ffffffffffffffffffffffffffffffffffffffff160217905550505062000222565b60405160f780620034ff83390190565b6132cd80620002326000396000f30060606040526004361061013e576000357c0100000000000000000000000000000000000000000000000000000000900463ffffffff1680630ba58574146101435780630e3b581f1461019457806313b5165f146101bd578063158ef93e146101f657806317131751146102235780631dc20af41461023857806321b0908b1461029b57806323ce524a146102fe57806336bad8281461032d5780635c2b37fa146103825780635ecc2e44146103ab5780635ef177761461040057806370064e33146104455780637b3c611c146104965780638129fc1c146104cf57806383c94c69146104e457806386b07332146105135780638da5cb5b14610568578063ae1092ae146105bd578063ea449e0f146105f6578063f2fde38b14610677578063f9bb6cfe146106b0578063f9d84ade1461074a578063fdb5b8d41461079f575b600080fd5b341561014e57600080fd5b61017a600480803573ffffffffffffffffffffffffffffffffffffffff169060200190919050506107f4565b604051808215151515815260200191505060405180910390f35b341561019f57600080fd5b6101a7610903565b6040518082815260200191505060405180910390f35b34156101c857600080fd5b6101f4600480803573ffffffffffffffffffffffffffffffffffffffff16906020019091905050610931565b005b341561020157600080fd5b6102096109e8565b604051808215151515815260200191505060405180910390f35b341561022e57600080fd5b6102366109fa565b005b341561024357600080fd5b6102596004808035906020019091905050610e96565b604051808273ffffffffffffffffffffffffffffffffffffffff1673ffffffffffffffffffffffffffffffffffffffff16815260200191505060405180910390f35b34156102a657600080fd5b6102bc6004808035906020019091905050610ed5565b604051808273ffffffffffffffffffffffffffffffffffffffff1673ffffffffffffffffffffffffffffffffffffffff16815260200191505060405180910390f35b341561030957600080fd5b610311610f14565b604051808260ff1660ff16815260200191505060405180910390f35b341561033857600080fd5b610340610f19565b604051808273ffffffffffffffffffffffffffffffffffffffff1673ffffffffffffffffffffffffffffffffffffffff16815260200191505060405180910390f35b341561038d57600080fd5b610395610f3f565b6040518082815260200191505060405180910390f35b34156103b657600080fd5b6103e2600480803573ffffffffffffffffffffffffffffffffffffffff16906020019091905050610f6d565b604051808261ffff1661ffff16815260200191505060405180910390f35b341561040b57600080fd5b610443600480803573ffffffffffffffffffffffffffffffffffffffff1690602001909190803560ff16906020019091905050610f8e565b005b341561045057600080fd5b61047c600480803573ffffffffffffffffffffffffffffffffffffffff16906020019091905050610fb3565b604051808215151515815260200191505060405180910390f35b34156104a157600080fd5b6104cd600480803573ffffffffffffffffffffffffffffffffffffffff16906020019091905050610fd3565b005b34156104da57600080fd5b6104e2611081565b005b34156104ef57600080fd5b6104f761109d565b604051808260ff1660ff16815260200191505060405180910390f35b341561051e57600080fd5b6105266110a2565b604051808273ffffffffffffffffffffffffffffffffffffffff1673ffffffffffffffffffffffffffffffffffffffff16815260200191505060405180910390f35b341561057357600080fd5b61057b61137a565b604051808273ffffffffffffffffffffffffffffffffffffffff1673ffffffffffffffffffffffffffffffffffffffff16815260200191505060405180910390f35b34156105c857600080fd5b6105f4600480803573ffffffffffffffffffffffffffffffffffffffff169060200190919050506113a0565b005b341561060157600080fd5b610620600480803590602001909190803590602001909190505061187c565b6040518080602001828103825283818151815260200191508051906020019060200280838360005b83811015610663578082015181840152602081019050610648565b505050509050019250505060405180910390f35b341561068257600080fd5b6106ae600480803573ffffffffffffffffffffffffffffffffffffffff1690602001909190505061198c565b005b6106fb600480803573ffffffffffffffffffffffffffffffffffffffff1690602001909190803573ffffffffffffffffffffffffffffffffffffffff16906020019091905050611ae4565b604051808373ffffffffffffffffffffffffffffffffffffffff1673ffffffffffffffffffffffffffffffffffffffff1681526020018260ff1660ff1681526020019250505060405180910390f35b341561075557600080fd5b61075d611f9d565b604051808273ffffffffffffffffffffffffffffffffffffffff1673ffffffffffffffffffffffffffffffffffffffff16815260200191505060405180910390f35b34156107aa57600080fd5b6107d6600480803573ffffffffffffffffffffffffffffffffffffffff16906020019091905050611fc3565b604051808261ffff1661ffff16815260200191505060405180910390f35b6000806000600115156000809054906101000a900460ff16151514151561081a57600080fd5b600c60008573ffffffffffffffffffffffffffffffffffffffff1673ffffffffffffffffffffffffffffffffffffffff16815260200190815260200160002060009054906101000a900461ffff16915060008261ffff16141561088057600092506108fc565b818060019003925050600d8261ffff1681548110151561089c57fe5b906000526020600020900160009054906101000a900473ffffffffffffffffffffffffffffffffffffffff1690508373ffffffffffffffffffffffffffffffffffffffff168173ffffffffffffffffffffffffffffffffffffffff161492505b5050919050565b6000600115156000809054906101000a900460ff16151514151561092657600080fd5b600880549050905090565b600360009054906101000a900473ffffffffffffffffffffffffffffffffffffffff1673ffffffffffffffffffffffffffffffffffffffff163373ffffffffffffffffffffffffffffffffffffffff1614151561098d57600080fd5b6001600a60008373ffffffffffffffffffffffffffffffffffffffff1673ffffffffffffffffffffffffffffffffffffffff16815260200190815260200160002060006101000a81548160ff02191690831515021790555050565b6000809054906101000a900460ff1681565b600080600080600115156000809054906101000a900460ff161515141515610a2157600080fd5b600c60003373ffffffffffffffffffffffffffffffffffffffff1673ffffffffffffffffffffffffffffffffffffffff16815260200190815260200160002060009054906101000a900461ffff16935060008461ffff1614151515610a8557600080fd5b838060019003945050600d8461ffff16815481101515610aa157fe5b906000526020600020900160009054906101000a900473ffffffffffffffffffffffffffffffffffffffff1692503373ffffffffffffffffffffffffffffffffffffffff168373ffffffffffffffffffffffffffffffffffffffff16141515610b0957600080fd5b600091505b8273ffffffffffffffffffffffffffffffffffffffff16634804b4ba6040518163ffffffff167c0100000000000000000000000000000000000000000000000000000000028152600401602060405180830381600087803b1515610b7157600080fd5b5af11515610b7e57600080fd5b50505060405180519050821015610d2557600115158373ffffffffffffffffffffffffffffffffffffffff1663d6ccdca3846040518263ffffffff167c010000000000000000000000000000000000000000000000000000000002815260040180828152602001915050602060405180830381600087803b1515610c0157600080fd5b5af11515610c0e57600080fd5b5050506040518051905015151415610d18578273ffffffffffffffffffffffffffffffffffffffff166358909400836040518263ffffffff167c010000000000000000000000000000000000000000000000000000000002815260040180828152602001915050602060405180830381600087803b1515610c8e57600080fd5b5af11515610c9b57600080fd5b5050506040518051905073ffffffffffffffffffffffffffffffffffffffff1663e5469d9f6040518163ffffffff167c0100000000000000000000000000000000000000000000000000000000028152600401600060405180830381600087803b1515610d0757600080fd5b5af11515610d1457600080fd5b5050505b8180600101925050610b0e565b600c60008473ffffffffffffffffffffffffffffffffffffffff1673ffffffffffffffffffffffffffffffffffffffff16815260200190815260200160002060006101000a81549061ffff0219169055600d6001600d8054905003815481101515610d8c57fe5b906000526020600020900160009054906101000a900473ffffffffffffffffffffffffffffffffffffffff16600d8561ffff16815481101515610dcb57fe5b906000526020600020900160006101000a81548173ffffffffffffffffffffffffffffffffffffffff021916908373ffffffffffffffffffffffffffffffffffffffff1602179055905060018401600c60008373ffffffffffffffffffffffffffffffffffffffff1673ffffffffffffffffffffffffffffffffffffffff16815260200190815260200160002060006101000a81548161ffff021916908361ffff160217905550600d805480919060019003610e87919061304e565b50610e90611fe4565b50505050565b600881815481101515610ea557fe5b90600052602060002090016000915054906101000a900473ffffffffffffffffffffffffffffffffffffffff1681565b600d81815481101515610ee457fe5b90600052602060002090016000915054906101000a900473ffffffffffffffffffffffffffffffffffffffff1681565b600181565b600b60009054906101000a900473ffffffffffffffffffffffffffffffffffffffff1681565b6000600115156000809054906101000a900460ff161515141515610f6257600080fd5b600d80549050905090565b600c6020528060005260406000206000915054906101000a900461ffff1681565b600115156000809054906101000a900460ff161515141515610faf57600080fd5b5050565b600a6020528060005260406000206000915054906101000a900460ff1681565b600360009054906101000a900473ffffffffffffffffffffffffffffffffffffffff1673ffffffffffffffffffffffffffffffffffffffff163373ffffffffffffffffffffffffffffffffffffffff1614151561102f57600080fd5b600a60008273ffffffffffffffffffffffffffffffffffffffff1673ffffffffffffffffffffffffffffffffffffffff16815260200190815260200160002060006101000a81549060ff021916905550565b60016000806101000a81548160ff021916908315150217905550565b600081565b6000806000600115156000809054906101000a900460ff1615151415156110c857600080fd5b60011515600a60003373ffffffffffffffffffffffffffffffffffffffff1673ffffffffffffffffffffffffffffffffffffffff16815260200190815260200160002060009054906101000a900460ff16151514151561112757600080fd5b3391503273ffffffffffffffffffffffffffffffffffffffff163373ffffffffffffffffffffffffffffffffffffffff1614151561116457600080fd5b600d60088054905010151561117857600080fd5b600760009054906101000a900473ffffffffffffffffffffffffffffffffffffffff1673ffffffffffffffffffffffffffffffffffffffff16639ed93318836040518263ffffffff167c0100000000000000000000000000000000000000000000000000000000028152600401808273ffffffffffffffffffffffffffffffffffffffff1673ffffffffffffffffffffffffffffffffffffffff168152602001915050602060405180830381600087803b151561123457600080fd5b5af1151561124157600080fd5b50505060405180519050905060088054806001018281611261919061307a565b9160005260206000209001600083909190916101000a81548173ffffffffffffffffffffffffffffffffffffffff021916908373ffffffffffffffffffffffffffffffffffffffff16021790555050600880549050600960008373ffffffffffffffffffffffffffffffffffffffff1673ffffffffffffffffffffffffffffffffffffffff16815260200190815260200160002060006101000a81548161ffff021916908361ffff1602179055507f093794466f44429afc8d8ec2c4c7f42c98d5db9b3db965ce46a31e7d4f7c29c881604051808273ffffffffffffffffffffffffffffffffffffffff1673ffffffffffffffffffffffffffffffffffffffff16815260200191505060405180910390a1809250505090565b600360009054906101000a900473ffffffffffffffffffffffffffffffffffffffff1681565b60008060008360003390508173ffffffffffffffffffffffffffffffffffffffff16638da5cb5b6040518163ffffffff167c0100000000000000000000000000000000000000000000000000000000028152600401602060405180830381600087803b151561140e57600080fd5b5af1151561141b57600080fd5b5050506040518051905073ffffffffffffffffffffffffffffffffffffffff168173ffffffffffffffffffffffffffffffffffffffff1614151561145e57600080fd5b6000600960008373ffffffffffffffffffffffffffffffffffffffff1673ffffffffffffffffffffffffffffffffffffffff16815260200190815260200160002060009054906101000a900461ffff1661ffff161115156114be57600080fd5b600115156000809054906101000a900460ff1615151415156114df57600080fd5b3394508573ffffffffffffffffffffffffffffffffffffffff1663ae897c556040518163ffffffff167c0100000000000000000000000000000000000000000000000000000000028152600401602060405180830381600087803b151561154557600080fd5b5af1151561155257600080fd5b5050506040518051905060ff168673ffffffffffffffffffffffffffffffffffffffff16630c3f6acf6040518163ffffffff167c0100000000000000000000000000000000000000000000000000000000028152600401602060405180830381600087803b15156115c257600080fd5b5af115156115cf57600080fd5b5050506040518051905060ff161415156115e857600080fd5b8573ffffffffffffffffffffffffffffffffffffffff166383197ef06040518163ffffffff167c0100000000000000000000000000000000000000000000000000000000028152600401600060405180830381600087803b151561164b57600080fd5b5af1151561165857600080fd5b5050506001600960008773ffffffffffffffffffffffffffffffffffffffff1673ffffffffffffffffffffffffffffffffffffffff16815260200190815260200160002060009054906101000a900461ffff16039350600960008673ffffffffffffffffffffffffffffffffffffffff1673ffffffffffffffffffffffffffffffffffffffff16815260200190815260200160002060006101000a81549061ffff0219169055600860016008805490500381548110151561171557fe5b906000526020600020900160009054906101000a900473ffffffffffffffffffffffffffffffffffffffff1660088561ffff1681548110151561175457fe5b906000526020600020900160006101000a81548173ffffffffffffffffffffffffffffffffffffffff021916908373ffffffffffffffffffffffffffffffffffffffff1602179055925060018401600960008573ffffffffffffffffffffffffffffffffffffffff1673ffffffffffffffffffffffffffffffffffffffff16815260200190815260200160002060006101000a81548161ffff021916908361ffff160217905550600880548091906001900361181091906130a6565b507f677f03e392472a48b617167ed4dbec758d26d8517257ec077bed2d27d192816486604051808273ffffffffffffffffffffffffffffffffffffffff1673ffffffffffffffffffffffffffffffffffffffff16815260200191505060405180910390a1505050505050565b6118846130d2565b6000836040518059106118945750595b90808252806020026020018201604052509150600090505b815181101561198557600f60009054906101000a900473ffffffffffffffffffffffffffffffffffffffff1673ffffffffffffffffffffffffffffffffffffffff1663cd4b6914846040518263ffffffff167c010000000000000000000000000000000000000000000000000000000002815260040180828152602001915050602060405180830381600087803b151561194557600080fd5b5af1151561195257600080fd5b50505060405180519050828281518110151561196a57fe5b906020019060200201818152505080806001019150506118ac565b5092915050565b600360009054906101000a900473ffffffffffffffffffffffffffffffffffffffff1673ffffffffffffffffffffffffffffffffffffffff163373ffffffffffffffffffffffffffffffffffffffff161415156119e857600080fd5b600073ffffffffffffffffffffffffffffffffffffffff168173ffffffffffffffffffffffffffffffffffffffff1614151515611a2457600080fd5b8073ffffffffffffffffffffffffffffffffffffffff16600360009054906101000a900473ffffffffffffffffffffffffffffffffffffffff1673ffffffffffffffffffffffffffffffffffffffff167f8be0079c531659141344cd1fd0a4f28419497f9722a3daafe3b4186f6b6457e060405160405180910390a380600360006101000a81548173ffffffffffffffffffffffffffffffffffffffff021916908373ffffffffffffffffffffffffffffffffffffffff16021790555050565b600080600080611af26130e6565b6000611afc6130e6565b600115156000809054906101000a900460ff161515141515611b1d57600080fd5b600a8873ffffffffffffffffffffffffffffffffffffffff166387ea09616040518163ffffffff167c0100000000000000000000000000000000000000000000000000000000028152600401602060405180830381600087803b1515611b8257600080fd5b5af11515611b8f57600080fd5b5050506040518051905060ff1611151515611ba957600080fd5b8773ffffffffffffffffffffffffffffffffffffffff1663b1f8d9ba6040518163ffffffff167c0100000000000000000000000000000000000000000000000000000000028152600401602060405180830381600087803b1515611c0c57600080fd5b5af11515611c1957600080fd5b505050604051805190508973ffffffffffffffffffffffffffffffffffffffff1663b1f8d9ba6040518163ffffffff167c0100000000000000000000000000000000000000000000000000000000028152600401602060405180830381600087803b1515611c8657600080fd5b5af11515611c9357600080fd5b50505060405180519050141515611ca957600080fd5b600d8080549050101515611cbc57600080fd5b611cc46122cc565b94508773ffffffffffffffffffffffffffffffffffffffff166387ea09616040518163ffffffff167c0100000000000000000000000000000000000000000000000000000000028152600401602060405180830381600087803b1515611d2957600080fd5b5af11515611d3657600080fd5b5050506040518051905093508360ff16851015611de55760009550611d6b89893433601061247690949392919063ffffffff16565b507fea6be648d373c4709986e67f6b7ee9ef9875b1243f38efc6bd48024bc10f8aac8787604051808373ffffffffffffffffffffffffffffffffffffffff1673ffffffffffffffffffffffffffffffffffffffff1681526020018260ff1681526020019250505060405180910390a1868696509650611f91565b611dee85612637565b925082519150611e7a838973ffffffffffffffffffffffffffffffffffffffff166387ea09616040518163ffffffff167c0100000000000000000000000000000000000000000000000000000000028152600401602060405180830381600087803b1515611e5b57600080fd5b5af11515611e6857600080fd5b5050506040518051905060ff16612899565b9050611e87898983612976565b965060019550611edf34600e60003373ffffffffffffffffffffffffffffffffffffffff1673ffffffffffffffffffffffffffffffffffffffff16815260200190815260200160002054612ce890919063ffffffff16565b600e60003373ffffffffffffffffffffffffffffffffffffffff1673ffffffffffffffffffffffffffffffffffffffff168152602001908152602001600020819055507f422ca471d1a1b69b87453d0f5149fd001dc7fd04fc2b5b8b8d70b17398a9b85a8787604051808373ffffffffffffffffffffffffffffffffffffffff1673ffffffffffffffffffffffffffffffffffffffff1681526020018260ff1681526020019250505060405180910390a15b50505050509250929050565b600760009054906101000a900473ffffffffffffffffffffffffffffffffffffffff1681565b60096020528060005260406000206000915054906101000a900461ffff1681565b611fec6130fa565b600080600080611ffa6130e6565b6000806120056130e6565b6000806000600115156000809054906101000a900460ff16151514151561202b57600080fd5b600a9a50600099505b61203e6010612d06565b8a108061204a57508a8a105b156122be575a985061205a6122cc565b975060008811151561206b576122be565b61207488612637565b9650865195508786141515612088576122be565b61209c866010612d1d90919063ffffffff16565b15156120a7576122be565b6120b16010612dc2565b809650819d505050612143878d6020015173ffffffffffffffffffffffffffffffffffffffff166387ea09616040518163ffffffff167c0100000000000000000000000000000000000000000000000000000000028152600401602060405180830381600087803b151561212457600080fd5b5af1151561213157600080fd5b5050506040518051905060ff16612899565b93506121588c600001518d6020015186612976565b9250600160ff1691507f422ca471d1a1b69b87453d0f5149fd001dc7fd04fc2b5b8b8d70b17398a9b85a8383604051808373ffffffffffffffffffffffffffffffffffffffff1673ffffffffffffffffffffffffffffffffffffffff1681526020018281526020019250505060405180910390a13a5a8a038115156121d957fe5b0490503273ffffffffffffffffffffffffffffffffffffffff166108fc829081150290604051600060405180830381858888f193505050505061226a858203600e60008f6040015173ffffffffffffffffffffffffffffffffffffffff1673ffffffffffffffffffffffffffffffffffffffff16815260200190815260200160002054612df190919063ffffffff16565b600e60008e6040015173ffffffffffffffffffffffffffffffffffffffff1673ffffffffffffffffffffffffffffffffffffffff1681526020019081526020016000208190555089806001019a5050612034565b505050505050505050505050565b60008060009150600090505b60088054905081101561246f576008818154811015156122f457fe5b906000526020600020900160009054906101000a900473ffffffffffffffffffffffffffffffffffffffff1673ffffffffffffffffffffffffffffffffffffffff1663ae897c556040518163ffffffff167c0100000000000000000000000000000000000000000000000000000000028152600401602060405180830381600087803b151561238257600080fd5b5af1151561238f57600080fd5b5050506040518051905060ff166008828154811015156123ab57fe5b906000526020600020900160009054906101000a900473ffffffffffffffffffffffffffffffffffffffff1673ffffffffffffffffffffffffffffffffffffffff16630c3f6acf6040518163ffffffff167c0100000000000000000000000000000000000000000000000000000000028152600401602060405180830381600087803b151561243957600080fd5b5af1151561244657600080fd5b5050506040518051905060ff1614156124625781806001019250505b80806001019150506122d8565b8191505090565b60008560000180549050600187600001805490500111151561249757600080fd5b8560000180548060010182816124ad919061315e565b916000526020600020906003020160006060604051908101604052808973ffffffffffffffffffffffffffffffffffffffff1681526020018873ffffffffffffffffffffffffffffffffffffffff1681526020018673ffffffffffffffffffffffffffffffffffffffff16815250909190915060008201518160000160006101000a81548173ffffffffffffffffffffffffffffffffffffffff021916908373ffffffffffffffffffffffffffffffffffffffff16021790555060208201518160010160006101000a81548173ffffffffffffffffffffffffffffffffffffffff021916908373ffffffffffffffffffffffffffffffffffffffff16021790555060408201518160020160006101000a81548173ffffffffffffffffffffffffffffffffffffffff021916908373ffffffffffffffffffffffffffffffffffffffff16021790555050505085600101805480600101828161260e9190613190565b91600052602060002090016000859091909150555061262c86612d06565b905095945050505050565b61263f6130e6565b6126476130e6565b600080846040518059106126585750595b9080825280602002602001820160405250925060009150600090505b60088054905081101561288e5760088181548110151561269057fe5b906000526020600020900160009054906101000a900473ffffffffffffffffffffffffffffffffffffffff1673ffffffffffffffffffffffffffffffffffffffff1663ae897c556040518163ffffffff167c0100000000000000000000000000000000000000000000000000000000028152600401602060405180830381600087803b151561271e57600080fd5b5af1151561272b57600080fd5b5050506040518051905060ff1660088281548110151561274757fe5b906000526020600020900160009054906101000a900473ffffffffffffffffffffffffffffffffffffffff1673ffffffffffffffffffffffffffffffffffffffff16630c3f6acf6040518163ffffffff167c0100000000000000000000000000000000000000000000000000000000028152600401602060405180830381600087803b15156127d557600080fd5b5af115156127e257600080fd5b5050506040518051905060ff1614156128815760088181548110151561280457fe5b906000526020600020900160009054906101000a900473ffffffffffffffffffffffffffffffffffffffff16838380600101945081518110151561284457fe5b9060200190602002019073ffffffffffffffffffffffffffffffffffffffff16908173ffffffffffffffffffffffffffffffffffffffff16815250505b8080600101915050612674565b829350505050919050565b6128a16130e6565b6128a96130d2565b6000836040518059106128b95750595b908082528060200260200182016040525092506128d88351865161187c565b9150600090505b825181101561296e578482828151811015156128f757fe5b9060200190602002015181518110151561290d57fe5b90602001906020020151838281518110151561292557fe5b9060200190602002019073ffffffffffffffffffffffffffffffffffffffff16908173ffffffffffffffffffffffffffffffffffffffff168152505080806001019150506128df565b505092915050565b6000600115156000809054906101000a900460ff16151514151561299957600080fd5b600b60009054906101000a900473ffffffffffffffffffffffffffffffffffffffff1673ffffffffffffffffffffffffffffffffffffffff16631c695d2b8585856040518463ffffffff167c0100000000000000000000000000000000000000000000000000000000028152600401808473ffffffffffffffffffffffffffffffffffffffff1673ffffffffffffffffffffffffffffffffffffffff1681526020018373ffffffffffffffffffffffffffffffffffffffff1673ffffffffffffffffffffffffffffffffffffffff16815260200180602001828103825283818151815260200191508051906020019060200280838360005b83811015612aac578082015181840152602081019050612a91565b50505050905001945050505050602060405180830381600087803b1515612ad257600080fd5b5af11515612adf57600080fd5b505050604051805190509050600073ffffffffffffffffffffffffffffffffffffffff168173ffffffffffffffffffffffffffffffffffffffff1614151515612b2457fe5b60ff8173ffffffffffffffffffffffffffffffffffffffff1663cc0e82c16040518163ffffffff167c0100000000000000000000000000000000000000000000000000000000028152600401602060405180830381600087803b1515612b8957600080fd5b5af11515612b9657600080fd5b5050506040518051905060ff16141515612bac57fe5b600d8054806001018281612bc091906131bc565b9160005260206000209001600083909190916101000a81548173ffffffffffffffffffffffffffffffffffffffff021916908373ffffffffffffffffffffffffffffffffffffffff16021790555050600d80549050600c60008373ffffffffffffffffffffffffffffffffffffffff1673ffffffffffffffffffffffffffffffffffffffff16815260200190815260200160002060006101000a81548161ffff021916908361ffff1602179055508073ffffffffffffffffffffffffffffffffffffffff16638129fc1c6040518163ffffffff167c0100000000000000000000000000000000000000000000000000000000028152600401600060405180830381600087803b1515612cd157600080fd5b5af11515612cde57600080fd5b5050509392505050565b6000808284019050838110151515612cfc57fe5b8091505092915050565b600081600201548260000180549050039050919050565b6000612d276130fa565b612d3084612e0a565b508091505082816020015173ffffffffffffffffffffffffffffffffffffffff166387ea09616040518163ffffffff167c0100000000000000000000000000000000000000000000000000000000028152600401602060405180830381600087803b1515612d9d57600080fd5b5af11515612daa57600080fd5b5050506040518051905060ff16111591505092915050565b612dca6130fa565b6000612dd583612e0a565b8092508193505050612de683612f72565b818191509150915091565b6000828211151515612dff57fe5b818303905092915050565b612e126130fa565b6000826000018360020154815481101515612e2957fe5b9060005260206000209060030201836001018460020154815481101515612e4c57fe5b90600052602060002090015481606060405190810160405290816000820160009054906101000a900473ffffffffffffffffffffffffffffffffffffffff1673ffffffffffffffffffffffffffffffffffffffff1673ffffffffffffffffffffffffffffffffffffffff1681526020016001820160009054906101000a900473ffffffffffffffffffffffffffffffffffffffff1673ffffffffffffffffffffffffffffffffffffffff1673ffffffffffffffffffffffffffffffffffffffff1681526020016002820160009054906101000a900473ffffffffffffffffffffffffffffffffffffffff1673ffffffffffffffffffffffffffffffffffffffff1673ffffffffffffffffffffffffffffffffffffffff1681525050915091509150915091565b8060020160008154809291906001019190505550806000016001826002015403815481101515612f9e57fe5b9060005260206000209060030201600080820160006101000a81549073ffffffffffffffffffffffffffffffffffffffff02191690556001820160006101000a81549073ffffffffffffffffffffffffffffffffffffffff02191690556002820160006101000a81549073ffffffffffffffffffffffffffffffffffffffff0219169055505080600101600182600201540381548110151561303c57fe5b90600052602060002090016000905550565b8154818355818115116130755781836000526020600020918201910161307491906131e8565b5b505050565b8154818355818115116130a1578183600052602060002091820191016130a091906131e8565b5b505050565b8154818355818115116130cd578183600052602060002091820191016130cc91906131e8565b5b505050565b602060405190810160405280600081525090565b602060405190810160405280600081525090565b606060405190810160405280600073ffffffffffffffffffffffffffffffffffffffff168152602001600073ffffffffffffffffffffffffffffffffffffffff168152602001600073ffffffffffffffffffffffffffffffffffffffff1681525090565b81548183558181151161318b5760030281600302836000526020600020918201910161318a919061320d565b5b505050565b8154818355818115116131b7578183600052602060002091820191016131b691906131e8565b5b505050565b8154818355818115116131e3578183600052602060002091820191016131e291906131e8565b5b505050565b61320a91905b808211156132065760008160009055506001016131ee565b5090565b90565b61329e91905b8082111561329a57600080820160006101000a81549073ffffffffffffffffffffffffffffffffffffffff02191690556001820160006101000a81549073ffffffffffffffffffffffffffffffffffffffff02191690556002820160006101000a81549073ffffffffffffffffffffffffffffffffffffffff021916905550600301613213565b5090565b905600a165627a7a72305820c27bc73e2550527626fab6f7ec14f97bc2f9662e4c8e98877c32f800a3bdfd7900296060604052341561000f57600080fd5b6000808190555060d3806100246000396000f300606060405260043610603f576000357c0100000000000000000000000000000000000000000000000000000000900463ffffffff168063cd4b6914146044575b600080fd5b3415604e57600080fd5b606260048080359060200190919050506078565b6040518082815260200191505060405180910390f35b600081600054101515608c57600080819055505b600054905060008081548092919060010191905055509190505600a165627a7a723058203635b251093193402c2f5166a0ecf7dbbe9b0009c403f30e9047b79885d81b3b0029",
  "source": "pragma solidity ^0.4.18;\n\nimport 'zeppelin-solidity/contracts/math/SafeMath.sol';\nimport '../../lifecycle/Initializable.sol';\nimport '../lottery/RoundRobinLottery.sol';\nimport './ICognitiveJobManager.sol';\nimport './WorkerNodeManager.sol';\nimport '../../jobs/IComputingJob.sol';\nimport '../../libraries/JobQueueLib.sol';\n\n/**\n * @title Pandora Smart Contract\n * @author \"Dr Maxim Orlovsky\" <orlovsky@pandora.foundation>\n *\n * @dev # Pandora Smart Contract\n *\n * Main & root contract implementing the first level of Pandora Boxchain consensus\n * See section [\"3.3. Proof of Cognitive Work (PoCW)\" in Pandora white paper](https://steemit.com/cryptocurrency/%40pandoraboxchain/world-decentralized-ai-on-blockchain-with-cognitive-mining-and-open-markets-for-data-and-algorithms-pandora-boxchain)\n * for more details.\n *\n * Contract token functionality is separated into a separate contract named PAN (after the name of the token)\n * and Pandora contracts just simply inherits PAN contract.\n */\n\ncontract CognitiveJobManager is Initializable, ICognitiveJobManager, WorkerNodeManager {\n\n    /*******************************************************************************************************************\n     * ## Storage\n     */\n\n    /// ### Public variables\n\n    /// @notice Reference to a factory used in creating CognitiveJob contracts\n    /// @dev Factories are used to reduce gas consumption by the main Pandora contract. Since Pandora needs to control\n    /// the code used to deploy Cognitive Jobs and Worker Nodes, it must embed all the byte code for the smart contract.\n    /// However this dramatically increases gas consumption for deploying Pandora contract itself. Thus, the\n    /// CognitiveJob smart contract is deployed by a special factory class `CognitiveJobFactory`, and a special workflow\n    /// is used to ensure uniqueness of the factories and the fact that their code source is coming from the same\n    /// address which have deployed the main Pandora contract. In particular, because of this Pandora is defined as an\n    /// `Ownable` contract and a special `initialize` function and `properlyInitialized` member variable is added.\n    CognitiveJobFactory public cognitiveJobFactory;\n\n    /// @dev Indexes (+1) of active (=running) cognitive jobs in `activeJobs` mapped from their creators\n    /// (owners of the corresponding cognitive job contracts). Zero values corresponds to no active job,\n    /// one  to the one with index 0 and so forth.\n    mapping(address => uint16) public jobAddresses;\n\n    /// @dev List of all active cognitive jobs\n    IComputingJob[] public activeJobs;\n\n    /// @dev Returns total count of active jobs\n    function activeJobsCount() onlyInitialized view public returns (uint256) {\n        return activeJobs.length;\n    }\n\n    // Deposits from clients used as payment for work\n    mapping(address => uint256) deposits;\n\n    /// @notice Status code returned by `createCognitiveJob()` method when no Idle WorkerNodes were available\n    /// and job was not created but was put into the job queue to be processed lately\n    uint8 constant public RESULT_CODE_ADD_TO_QUEUE = 0;\n    /// @notice Status code returned by `createCognitiveJob()` method when CognitiveJob was created successfully\n    uint8 constant public RESULT_CODE_JOB_CREATED = 1;\n\n    /// ### Private and internal variables\n\n    /// @dev Limit for the amount of lottery cycles before reporting failure to start cognitive job.\n    /// Used in `createCognitiveJob`\n    uint8 constant private MAX_WORKER_LOTTERY_TRIES = 10;\n\n    /// @dev Contract implementing lottery interface for workers selection. Only internal usage\n    /// by `createCognitiveJob` function\n    ILotteryEngine internal workerLotteryEngine;\n\n    // Queue for CognitiveJobs kept while no Idle WorkerNodes available\n    using JobQueueLib for JobQueueLib.Queue;\n    /// @dev Cognitive job queue used for case when no idle workers available\n    JobQueueLib.Queue internal cognitiveJobQueue;\n\n    using SafeMath for uint;\n\n    /*******************************************************************************************************************\n     * ## Events\n     */\n\n    /// @dev Event firing when a new cognitive job created\n    event CognitiveJobCreated(IComputingJob cognitiveJob, uint resultCode);\n\n    /// @dev Event firing when a new cognitive job failed to create\n    event CognitiveJobCreateFailed(IComputingJob cognitiveJob, uint resultCode);\n\n    /*******************************************************************************************************************\n     * ## Constructor and initialization\n     */\n\n    /// ### Constructor\n    /// @dev Constructor receives addresses for the owners of whitelisted worker nodes, which will be assigned an owners\n    /// of worker nodes contracts\n    function CognitiveJobManager (\n        CognitiveJobFactory _jobFactory, /// Factory class for creating CognitiveJob contracts\n        WorkerNodeFactory _nodeFactory /// Factory class for creating WorkerNode contracts\n    )\n    public\n    WorkerNodeManager(_nodeFactory) {\n\n        // Must ensure that the supplied factories are already created contracts\n        require(_jobFactory != address(0));\n\n        // Assign factories to storage variables\n        cognitiveJobFactory = _jobFactory;\n\n        // Initializing worker lottery engine\n        // In Pyrrha we use round robin algorithm to give our whitelisted nodes equal and consequential chances\n        workerLotteryEngine = new RoundRobinLottery();\n    }\n\n    /*******************************************************************************************************************\n     * ## Modifiers\n     */\n\n\n    /*******************************************************************************************************************\n     * ## Functions\n     */\n\n    /// ### Public and external\n\n    /// @notice Test whether the given `job` is registered as an active job by the main Pandora contract\n    /// @dev Used to test if some given job contract is a contract created by the Pandora and is listed by it as an\n    /// active contract\n    function isActiveJob(\n        IComputingJob _job /// Job contract to test\n    )\n    onlyInitialized\n    view\n    public\n    returns (\n        bool /// Testing result\n    ) {\n        // Getting the index of the job from the internal list\n        uint16 index = jobAddresses[_job];\n        // Testing if the job was present in the list\n        if (index == 0) {\n            return false;\n        }\n        // We must decrease the index since they are 1-based, not 0-based (0 corresponds to \"no contract\" due to\n        // Solidity specificity\n        index--;\n\n        // Retrieving the job contract from the index\n        IComputingJob job = activeJobs[index];\n        // Double-checking that the job at the index is the actual job being tested\n        return(job == _job);\n    }\n\n\n    /// @notice Creates and returns new cognitive job contract and starts actual cognitive work instantly\n    /// @dev Core function creating new cognitive job contract and returning it back to the caller\n    function createCognitiveJob(\n        IKernel _kernel, /// Pre-initialized kernel data entity contract\n        IDataset _dataset /// Pre-initialized dataset entity contract\n    )\n    external\n    payable\n    onlyInitialized\n    returns (\n        IComputingJob o_cognitiveJob, /// Newly created cognitive jobs (starts automatically)\n        uint8 o_resultCode /// result code of creating cognitiveJob, 0 - no available workers, 1 - job created\n    ) {\n\n        // Restriction for batches count came from potential high gas usage in JobQueue processing\n        // todo check max restriction with tests\n        require(_dataset.batchesCount() <= 10);\n\n        // Dimensions of the input data and neural network input layer must be equal\n        require(_kernel.dataDim() == _dataset.dataDim());\n\n        // The created job must fit into uint16 size\n        require(activeJobs.length < 2 ^ 16 - 1);\n\n        // @todo check payment corresponds to required amount + gas payment\n\n        // Counting number of available worker nodes (in Idle state)\n        // Since Solidity does not supports dynamic in-memory arrays (yet), has to be done in two-staged way:\n        // first by counting array size and then by allocating and populating array itself\n\n        uint256 estimatedSize = _countIdleWorkers();\n\n        // Put task in queue if number of idle workers less than number of batches in dataset\n        uint8 batchesCount = _dataset.batchesCount();\n        if (estimatedSize < uint256(batchesCount)) {\n            o_resultCode = RESULT_CODE_ADD_TO_QUEUE;\n            cognitiveJobQueue.put(_kernel, _dataset, msg.value, msg.sender);\n            CognitiveJobCreateFailed(o_cognitiveJob, o_resultCode);\n            return (o_cognitiveJob, o_resultCode);\n        }\n\n        // Initializing in-memory array for idle node list and populating it with data\n        IWorkerNode[] memory idleWorkers = _listIdleWorkers(estimatedSize);\n        uint actualSize = idleWorkers.length;\n\n//        // Something really wrong happened with EVM if this assert fails\n//        if (actualSize != estimatedSize) {\n//            o_resultCode = RESULT_CODE_ADD_TO_QUEUE;\n//            cognitiveJobQueue.put(kernel, dataset, msg.value, msg.sender);\n//            CognitiveJobCreateFailed(o_cognitiveJob, o_resultCode);\n//            return (o_cognitiveJob, o_resultCode);\n//        }\n\n        // Running lottery to select worker node to be assigned cognitive job contract\n        IWorkerNode[] memory assignedWorkers = _selectWorkersWithLottery(idleWorkers, _dataset.batchesCount());\n\n        o_cognitiveJob = _initCognitiveJob(_kernel, _dataset, assignedWorkers);\n        o_resultCode = RESULT_CODE_JOB_CREATED;\n\n        //  Hold payment from client\n        deposits[msg.sender] = deposits[msg.sender].add(msg.value);\n\n        CognitiveJobCreated(o_cognitiveJob, o_resultCode);\n    }\n\n    /// @notice Can't be called by the user, for internal use only\n    /// @dev Function must be called only by the master node running cognitive job. It completes the job, updates\n    /// worker node back to `Idle` state (in smart contract) and removes job contract from the list of active contracts\n    function finishCognitiveJob(\n        // No arguments - cognitive job is taken from msg.sender\n    )\n    external\n    onlyInitialized\n    {\n        uint16 index = jobAddresses[msg.sender];\n        require(index != 0);\n        index--;\n\n        IComputingJob job = activeJobs[index];\n        require(address(job) == msg.sender);\n\n        // @todo Kill the job contract\n\n        for (uint no = 0; no < job.activeWorkersCount(); no++) {\n            if (job.didWorkerCompute(no) == true) {\n                job.activeWorkers(no).increaseReputation();\n            }\n        }\n\n        // @fixme set 'Idle' state to the worker\n\n        // Remove cognitive job contract from the storage\n        delete jobAddresses[address(job)];\n        IComputingJob movedJob = activeJobs[index] = activeJobs[activeJobs.length - 1];\n        jobAddresses[movedJob] = index + 1;\n        activeJobs.length--;\n\n        // After finish, try to start new CognitiveJob from a queue of activeJobs\n        _checkJobQueue();\n    }\n\n    /// @notice Can't be called by the user or other contract: for private use only\n    /// #dev Function is called only by `finishCognitiveJob()` in order to allocate newly freed WorkerNodes\n    /// to perform cognitive jobs from the queue.\n    function _checkJobQueue(\n        // No arguments\n    )\n    private\n    onlyInitialized {\n        JobQueueLib.QueuedJob memory queuedJob;\n        // Iterate queue and check queue depth\n\n        uint maxNumberOfQueueRequests = 10; // todo check max restriction for queue requests with tests\n\n        for (uint256 k = 0; (k < cognitiveJobQueue.queueDepth()) || (k < maxNumberOfQueueRequests); k++) {\n\n            // Count remaining gas\n            uint initialGas = msg.gas; // @fixme deprecated in 0.4.21. should be replaced with gasleft()\n\n            // Counting number of available worker nodes (in Idle state)\n            uint256 estimatedSize = _countIdleWorkers();\n\n            // There must be at least one free worker node\n            if (estimatedSize <= 0) {\n                break;\n            }\n\n            // Initializing in-memory array for idle node list and populating it with data\n            IWorkerNode[] memory idleWorkers = _listIdleWorkers(estimatedSize);\n            uint actualSize = idleWorkers.length;\n            if (actualSize != estimatedSize) {\n                break;\n            }\n\n            // Check number of batches with number of idle workers\n            if (!cognitiveJobQueue.compareFirstElementToIdleWorkers(actualSize)) {\n                break;\n            }\n\n            uint256 value; // Value from queuedJob deposit\n            (queuedJob, value) = cognitiveJobQueue.requestJob();\n\n            // Running lottery to select worker node to be assigned cognitive job contract\n            IWorkerNode[] memory assignedWorkers = _selectWorkersWithLottery(idleWorkers, queuedJob.dataset.batchesCount());\n\n            IComputingJob createdCognitiveJob = _initCognitiveJob(queuedJob.kernel, queuedJob.dataset, assignedWorkers);\n            uint resultCode = RESULT_CODE_JOB_CREATED;\n\n            CognitiveJobCreated(createdCognitiveJob, resultCode);\n\n            // Count used funds for queue\n            uint weiUsedForQueuedJob = (initialGas - msg.gas) / tx.gasprice;\n\n            // Gas refund to node\n            tx.origin.send(weiUsedForQueuedJob);\n\n            // Withdraw from client's deposits\n            deposits[queuedJob.client] = deposits[queuedJob.client].sub(weiUsedForQueuedJob - value);\n        }\n    }\n\n    /// @notice Can't be called by the user or other contract: for private use only\n    /// @dev Creates cognitive job contract, saves it to storage and fires global event to notify selected worker node.\n    /// Used both by `createCognitiveJob()` and `_checksJobQueue()` methods.\n    function _initCognitiveJob(\n        IKernel _kernel, /// Pre-initialized kernel data entity contract (taken from `createCognitiveJob` arguments or\n                        /// from the the `cognitiveJobQueue` `QueuedJob` structure)\n        IDataset _dataset, /// Pre-initialized dataset entity contract (taken from `createCognitiveJob` arguments or\n                          /// from the the `cognitiveJobQueue` `QueuedJob` structure)\n        IWorkerNode[] _assignedWorkers /// Array of workers assigned for the job by the lottery engine\n    )\n    private\n    onlyInitialized\n    returns (\n        IComputingJob o_cognitiveJob /// Created cognitive job (function may fail only due to the bugs, so there is no\n                                     /// reason for returning status code)\n    ) {\n        o_cognitiveJob = cognitiveJobFactory.create(_kernel, _dataset, _assignedWorkers);\n\n        // Ensuring that contract was successfully created\n        assert(o_cognitiveJob != address(0));\n        // Hint: trying to figure out was the contract body actually created and initialized with proper values\n        assert(o_cognitiveJob.Destroyed() == 0xFF);\n\n        // Save new contract to the storage\n        activeJobs.push(o_cognitiveJob);\n        jobAddresses[o_cognitiveJob] = uint16(activeJobs.length);\n\n        o_cognitiveJob.initialize();\n    }\n\n    /// @notice Can't be called by the user or other contract: for private use only\n    /// @dev Running lottery to select random worker nodes from the provided list. Used by both `createCognitiveJob`\n    /// and `_checksJobQueue` functions.\n    function _selectWorkersWithLottery(\n        IWorkerNode[] _idleWorkers, /// Pre-defined pool of Idle WorkerNodes to select from\n        uint _numberWorkersRequired /// Number of workers required by cognitive job, match with number of batches\n    )\n    private\n    returns (\n        IWorkerNode[] assignedWorkers /// Resulting sublist of the selected WorkerNodes\n    ) {\n        assignedWorkers = new IWorkerNode[](_numberWorkersRequired);\n        uint256[] memory randomNumbers = getRandomArray(\n            assignedWorkers.length,\n            uint256(_idleWorkers.length));\n        for (uint i = 0; i < assignedWorkers.length; i++) {\n            assignedWorkers[i] = _idleWorkers[randomNumbers[i]];\n        }\n    }\n\n    /// @notice Can't be called by the user or other contract: for private use only\n    /// @dev Pre-count amount of available Idle WorkerNodes. Required to allocate in-memory list of WorkerNodes.\n    function _countIdleWorkers(\n        // No arguments\n    )\n    private\n    returns (\n        uint o_estimatedSize /// Amount of currently available (Idle) WorkerNodes\n    ) {\n        o_estimatedSize = 0;\n        for (uint i = 0; i < workerNodes.length; i++) {\n            if (workerNodes[i].currentState() == workerNodes[i].Idle()) {\n                o_estimatedSize++;\n            }\n        }\n        return o_estimatedSize;\n    }\n\n    /// @notice Can't be called by the user or other contract: for private use only\n    /// @dev Allocates and returns in-memory array of all Idle WorkerNodes taking estimated size as an argument\n    /// (returned by `_countIdleWorkers()`)\n    function _listIdleWorkers(\n        uint _estimatedSize /// Size of array to return\n    )\n    private\n    returns (\n        IWorkerNode[] /// Returned array of all Idle WorkerNodes\n    ) {\n        IWorkerNode[] memory idleWorkers = new IWorkerNode[](_estimatedSize);\n        uint256 actualSize = 0;\n        for (uint j = 0; j < workerNodes.length; j++) {\n            if (workerNodes[j].currentState() == workerNodes[j].Idle()) {\n                idleWorkers[actualSize++] = workerNodes[j];\n            }\n        }\n        return idleWorkers;\n    }\n\n    function getRandomArray(\n        uint _arrayLength,\n        uint256 _numbersRange)\n    public\n    returns (uint256[] o_result) {\n        o_result = new uint256[](_arrayLength);\n        for (uint i = 0; i < o_result.length; i++) {\n            o_result[i] = workerLotteryEngine.getRandom(_numbersRange);\n        }\n    }\n}",
  "sourcePath": "/home/aleksei/pandora-pyrrha/pyrrha-consensus/contracts/pandora/managers/CognitiveJobManager.sol",
  "compiler": {
    "name": "solc",
    "version": "0.4.21+commit.dfe3193c.Emscripten.clang"
  },
  "schemaVersion": "2.0.0",
  "updatedAt": "2018-04-11T12:12:45.967Z"
}