{
  "contractName": "CognitiveJobFactory",
  "abi": [
    {
      "constant": true,
      "inputs": [],
      "name": "owner",
      "outputs": [
        {
          "name": "",
          "type": "address"
        }
      ],
      "payable": false,
      "stateMutability": "view",
      "type": "function"
    },
    {
      "constant": false,
      "inputs": [
        {
          "name": "newOwner",
          "type": "address"
        }
      ],
      "name": "transferOwnership",
      "outputs": [],
      "payable": false,
      "stateMutability": "nonpayable",
      "type": "function"
    },
    {
      "inputs": [],
      "payable": false,
      "stateMutability": "nonpayable",
      "type": "constructor"
    },
    {
      "anonymous": false,
      "inputs": [
        {
          "indexed": true,
          "name": "previousOwner",
          "type": "address"
        },
        {
          "indexed": true,
          "name": "newOwner",
          "type": "address"
        }
      ],
      "name": "OwnershipTransferred",
      "type": "event"
    },
    {
      "constant": false,
      "inputs": [
        {
          "name": "_kernel",
          "type": "address"
        },
        {
          "name": "_dataset",
          "type": "address"
        },
        {
          "name": "_workersPool",
          "type": "address[]"
        }
      ],
      "name": "create",
      "outputs": [
        {
          "name": "o_cognitiveJob",
          "type": "address"
        }
      ],
      "payable": false,
      "stateMutability": "nonpayable",
      "type": "function"
    }
  ],
  "bytecode": "0x608060405234801561001057600080fd5b50336000806101000a81548173ffffffffffffffffffffffffffffffffffffffff021916908373ffffffffffffffffffffffffffffffffffffffff160217905550614256806100606000396000f300608060405260043610610057576000357c0100000000000000000000000000000000000000000000000000000000900463ffffffff1680631c695d2b1461005c5780638da5cb5b14610117578063f2fde38b1461016e575b600080fd5b34801561006857600080fd5b506100d5600480360381019080803573ffffffffffffffffffffffffffffffffffffffff169060200190929190803573ffffffffffffffffffffffffffffffffffffffff1690602001909291908035906020019082018035906020019190919293919293905050506101b1565b604051808273ffffffffffffffffffffffffffffffffffffffff1673ffffffffffffffffffffffffffffffffffffffff16815260200191505060405180910390f35b34801561012357600080fd5b5061012c6103f6565b604051808273ffffffffffffffffffffffffffffffffffffffff1673ffffffffffffffffffffffffffffffffffffffff16815260200191505060405180910390f35b34801561017a57600080fd5b506101af600480360381019080803573ffffffffffffffffffffffffffffffffffffffff16906020019092919050505061041b565b005b60008060009054906101000a900473ffffffffffffffffffffffffffffffffffffffff1673ffffffffffffffffffffffffffffffffffffffff163373ffffffffffffffffffffffffffffffffffffffff1614151561020e57600080fd5b6000809054906101000a900473ffffffffffffffffffffffffffffffffffffffff168585858561023c610570565b808673ffffffffffffffffffffffffffffffffffffffff1673ffffffffffffffffffffffffffffffffffffffff1681526020018573ffffffffffffffffffffffffffffffffffffffff1673ffffffffffffffffffffffffffffffffffffffff1681526020018473ffffffffffffffffffffffffffffffffffffffff1673ffffffffffffffffffffffffffffffffffffffff16815260200180602001828103825284848281815260200192506020028082843782019150509650505050505050604051809103906000f080158015610317573d6000803e3d6000fd5b5090508073ffffffffffffffffffffffffffffffffffffffff1663f2fde38b6000809054906101000a900473ffffffffffffffffffffffffffffffffffffffff166040518263ffffffff167c0100000000000000000000000000000000000000000000000000000000028152600401808273ffffffffffffffffffffffffffffffffffffffff1673ffffffffffffffffffffffffffffffffffffffff168152602001915050600060405180830381600087803b1580156103d657600080fd5b505af11580156103ea573d6000803e3d6000fd5b50505050949350505050565b6000809054906101000a900473ffffffffffffffffffffffffffffffffffffffff1681565b6000809054906101000a900473ffffffffffffffffffffffffffffffffffffffff1673ffffffffffffffffffffffffffffffffffffffff163373ffffffffffffffffffffffffffffffffffffffff1614151561047657600080fd5b600073ffffffffffffffffffffffffffffffffffffffff168173ffffffffffffffffffffffffffffffffffffffff16141515156104b257600080fd5b8073ffffffffffffffffffffffffffffffffffffffff166000809054906101000a900473ffffffffffffffffffffffffffffffffffffffff1673ffffffffffffffffffffffffffffffffffffffff167f8be0079c531659141344cd1fd0a4f28419497f9722a3daafe3b4186f6b6457e060405160405180910390a3806000806101000a81548173ffffffffffffffffffffffffffffffffffffffff021916908373ffffffffffffffffffffffffffffffffffffffff16021790555050565b604051613ca9806200058283390190560060806040526000601260006101000a81548160ff021916908360ff1602179055503480156200002d57600080fd5b5060405162003ca938038062003ca983398101806040528101908080519060200190929190805190602001909291908051906020019092919080518201929190505050336000806101000a81548173ffffffffffffffffffffffffffffffffffffffff021916908373ffffffffffffffffffffffffffffffffffffffff1602179055508173ffffffffffffffffffffffffffffffffffffffff166387ea09616040518163ffffffff167c0100000000000000000000000000000000000000000000000000000000028152600401602060405180830381600087803b1580156200011557600080fd5b505af11580156200012a573d6000803e3d6000fd5b505050506040513d60208110156200014157600080fd5b8101908080519060200190929190505050600d60146101000a81548160ff021916908360ff1602179055506000600d60149054906101000a900460ff1660ff161115156200018e57600080fd5b600d60149054906101000a900460ff1660ff16815110151515620001b157600080fd5b600073ffffffffffffffffffffffffffffffffffffffff168473ffffffffffffffffffffffffffffffffffffffff1614151515620001ee57600080fd5b600073ffffffffffffffffffffffffffffffffffffffff168373ffffffffffffffffffffffffffffffffffffffff16141515156200022b57600080fd5b600073ffffffffffffffffffffffffffffffffffffffff168273ffffffffffffffffffffffffffffffffffffffff16141515156200026857600080fd5b83600b60006101000a81548173ffffffffffffffffffffffffffffffffffffffff021916908373ffffffffffffffffffffffffffffffffffffffff16021790555082600c60006101000a81548173ffffffffffffffffffffffffffffffffffffffff021916908373ffffffffffffffffffffffffffffffffffffffff16021790555081600d60006101000a81548173ffffffffffffffffffffffffffffffffffffffff021916908373ffffffffffffffffffffffffffffffffffffffff16021790555080600f908051906020019062000343929190620006b5565b506200035d62000367640100000000026401000000009004565b50505050620009c7565b600060096001019050602060405190810160405280600160ff1660ff168152508160008060ff1660ff168152602001908152602001600020906001620003af92919062000744565b506040805190810160405280600260ff1660ff168152602001600360ff1660ff16815250816000600160ff1660ff168152602001908152602001600020906002620003fc929190620007f2565b50606060405190810160405280600460ff1660ff168152602001600560ff1660ff168152602001600260ff1660ff16815250816000600360ff1660ff16815260200190815260200160002090600362000457929190620008a0565b506040805190810160405280600760ff1660ff168152602001600660ff1660ff16815250816000600560ff1660ff168152602001908152602001600020906002620004a4929190620007f2565b50620004c3620004e564010000000002620030f2176401000000009004565b6000600960000160016101000a81548160ff021916908360ff16021790555050565b6040805190810160405280601181526020017f5f696e697453746174654d616368696e65000000000000000000000000000000815250600015156008826040518082805190602001908083835b60208310151562000559578051825260208201915060208101905060208303925062000532565b6001836020036101000a038019825116818451168082178552505050505050905001915050908152602001604051809103902060009054906101000a900460ff161515141515620005a957600080fd5b620005c96009620006526401000000000262003244176401000000009004565b60016008826040518082805190602001908083835b602083101515620006055780518252602082019150602081019050602083039250620005de565b6001836020036101000a038019825116818451168082178552505050505050905001915050908152602001604051809103902060006101000a81548160ff02191690831515021790555050565b600015158160000160009054906101000a900460ff1615151415156200067757600080fd5b60018160000160016101000a81548160ff021916908360ff16021790555060018160000160006101000a81548160ff02191690831515021790555050565b82805482825590600052602060002090810192821562000731579160200282015b82811115620007305782518260006101000a81548173ffffffffffffffffffffffffffffffffffffffff021916908373ffffffffffffffffffffffffffffffffffffffff16021790555091602001919060010190620006d6565b5b5090506200074091906200094e565b5090565b82805482825590600052602060002090601f01602090048101928215620007df5791602002820160005b83821115620007ae57835183826101000a81548160ff021916908360ff16021790555092602001926001016020816000010492830192600103026200076e565b8015620007dd5782816101000a81549060ff0219169055600101602081600001049283019260010302620007ae565b505b509050620007ee919062000994565b5090565b82805482825590600052602060002090601f016020900481019282156200088d5791602002820160005b838211156200085c57835183826101000a81548160ff021916908360ff16021790555092602001926001016020816000010492830192600103026200081c565b80156200088b5782816101000a81549060ff02191690556001016020816000010492830192600103026200085c565b505b5090506200089c919062000994565b5090565b82805482825590600052602060002090601f016020900481019282156200093b5791602002820160005b838211156200090a57835183826101000a81548160ff021916908360ff1602179055509260200192600101602081600001049283019260010302620008ca565b8015620009395782816101000a81549060ff02191690556001016020816000010492830192600103026200090a565b505b5090506200094a919062000994565b5090565b6200099191905b808211156200098d57600081816101000a81549073ffffffffffffffffffffffffffffffffffffffff02191690555060010162000955565b5090565b90565b620009c491905b80821115620009c057600081816101000a81549060ff0219169055506001016200099b565b5090565b90565b6132d280620009d76000396000f30060806040526004361061018b576000357c0100000000000000000000000000000000000000000000000000000000900463ffffffff168063026d49ea1461019057806302b728ab146101c15780630c3f6acf146102185780630fb03aad146102495780631590d658146102ef5780631a0bc596146103205780631c72fad41461037757806321514ef3146103a857806340a030a2146103d95780634804b4ba146104045780634e6b42a81461042f578063577bd3361461046a578063589094001461049b5780635cb045db146105085780635e4059671461053957806364d3414c146105a65780636936087d146105d55780638129fc1c1461060557806383197ef01461061c5780638da5cb5b14610633578063b225be421461068a578063c36b33b0146106ba578063cbd315ae146106eb578063cc0e82c11461071c578063cfdf677e1461074d578063d4aae0c41461077e578063d6ccdca3146107d5578063d94c69aa1461081a578063e06452d014610850578063f2fde38b14610881578063f5074f41146108c4575b600080fd5b34801561019c57600080fd5b506101a5610907565b604051808260ff1660ff16815260200191505060405180910390f35b3480156101cd57600080fd5b506101d661090c565b604051808273ffffffffffffffffffffffffffffffffffffffff1673ffffffffffffffffffffffffffffffffffffffff16815260200191505060405180910390f35b34801561022457600080fd5b5061022d610932565b604051808260ff1660ff16815260200191505060405180910390f35b34801561025557600080fd5b506102746004803603810190808035906020019092919050505061094c565b6040518080602001828103825283818151815260200191508051906020019080838360005b838110156102b4578082015181840152602081019050610299565b50505050905090810190601f1680156102e15780820380516001836020036101000a031916815260200191505b509250505060405180910390f35b3480156102fb57600080fd5b50610304610a07565b604051808260ff1660ff16815260200191505060405180910390f35b34801561032c57600080fd5b50610335610a0c565b604051808273ffffffffffffffffffffffffffffffffffffffff1673ffffffffffffffffffffffffffffffffffffffff16815260200191505060405180910390f35b34801561038357600080fd5b5061038c610a32565b604051808260ff1660ff16815260200191505060405180910390f35b3480156103b457600080fd5b506103bd610a37565b604051808260ff1660ff16815260200191505060405180910390f35b3480156103e557600080fd5b506103ee610a3c565b6040518082815260200191505060405180910390f35b34801561041057600080fd5b50610419610a49565b6040518082815260200191505060405180910390f35b34801561043b57600080fd5b50610468600480360381019080803590602001908201803590602001919091929391929390505050610a56565b005b34801561047657600080fd5b5061047f610c56565b604051808260ff1660ff16815260200191505060405180910390f35b3480156104a757600080fd5b506104c660048036038101908080359060200190929190505050610c69565b604051808273ffffffffffffffffffffffffffffffffffffffff1673ffffffffffffffffffffffffffffffffffffffff16815260200191505060405180910390f35b34801561051457600080fd5b5061051d610ca7565b604051808260ff1660ff16815260200191505060405180910390f35b34801561054557600080fd5b5061056460048036038101908080359060200190929190505050610cac565b604051808273ffffffffffffffffffffffffffffffffffffffff1673ffffffffffffffffffffffffffffffffffffffff16815260200191505060405180910390f35b3480156105b257600080fd5b506105d3600480360381019080803515159060200190929190505050610cea565b005b3480156105e157600080fd5b50610603600480360381019080803560ff169060200190929190505050610e7f565b005b34801561061157600080fd5b5061061a610fde565b005b34801561062857600080fd5b5061063161152b565b005b34801561063f57600080fd5b506106486115c0565b604051808273ffffffffffffffffffffffffffffffffffffffff1673ffffffffffffffffffffffffffffffffffffffff16815260200191505060405180910390f35b34801561069657600080fd5b506106b8600480360381019080803560ff1690602001909291905050506115e5565b005b3480156106c657600080fd5b506106cf611798565b604051808260ff1660ff16815260200191505060405180910390f35b3480156106f757600080fd5b5061070061179d565b604051808260ff1660ff16815260200191505060405180910390f35b34801561072857600080fd5b506107316117a2565b604051808260ff1660ff16815260200191505060405180910390f35b34801561075957600080fd5b506107626117a7565b604051808260ff1660ff16815260200191505060405180910390f35b34801561078a57600080fd5b506107936117ba565b604051808273ffffffffffffffffffffffffffffffffffffffff1673ffffffffffffffffffffffffffffffffffffffff16815260200191505060405180910390f35b3480156107e157600080fd5b50610800600480360381019080803590602001909291905050506117e0565b604051808215151515815260200191505060405180910390f35b61084e600480360381019080803573ffffffffffffffffffffffffffffffffffffffff16906020019092919050505061181f565b005b34801561085c57600080fd5b506108656118c3565b604051808260ff1660ff16815260200191505060405180910390f35b34801561088d57600080fd5b506108c2600480360381019080803573ffffffffffffffffffffffffffffffffffffffff1690602001909291905050506118c8565b005b3480156108d057600080fd5b50610905600480360381019080803573ffffffffffffffffffffffffffffffffffffffff169060200190929190505050611a1d565b005b600681565b600d60009054906101000a900473ffffffffffffffffffffffffffffffffffffffff1681565b6000600960000160019054906101000a900460ff16905090565b60138181548110151561095b57fe5b906000526020600020016000915090508054600181600116156101000203166002900480601f0160208091040260200160405190810160405280929190818152602001828054600181600116156101000203166002900480156109ff5780601f106109d4576101008083540402835291602001916109ff565b820191906000526020600020905b8154815290600101906020018083116109e257829003601f168201915b505050505081565b600581565b600b60009054906101000a900473ffffffffffffffffffffffffffffffffffffffff1681565b600081565b600181565b6000601380549050905090565b6000600e80549050905090565b600080610a61611a91565b509050600073ffffffffffffffffffffffffffffffffffffffff168173ffffffffffffffffffffffffffffffffffffffff1614151515610aa057600080fd5b8073ffffffffffffffffffffffffffffffffffffffff163373ffffffffffffffffffffffffffffffffffffffff16141515610ada57600080fd5b8073ffffffffffffffffffffffffffffffffffffffff16638da5cb5b6040518163ffffffff167c0100000000000000000000000000000000000000000000000000000000028152600401602060405180830381600087803b158015610b3e57600080fd5b505af1158015610b52573d6000803e3d6000fd5b505050506040513d6020811015610b6857600080fd5b810190808051906020019092919050505073ffffffffffffffffffffffffffffffffffffffff163273ffffffffffffffffffffffffffffffffffffffff16141515610bb257600080fd5b610bba611a91565b9250508383601384815481101515610bce57fe5b906000526020600020019190610be5929190612c29565b506001601183815481101515610bf757fe5b90600052602060002090602091828204019190066101000a81548160ff02191690831515021790555042601083815481101515610c3057fe5b9060005260206000200181905550610c46611b19565b610c506007611d8a565b50505050565b601260009054906101000a900460ff1681565b600e81815481101515610c7857fe5b906000526020600020016000915054906101000a900473ffffffffffffffffffffffffffffffffffffffff1681565b600481565b600f81815481101515610cbb57fe5b906000526020600020016000915054906101000a900473ffffffffffffffffffffffffffffffffffffffff1681565b6000610cf4611a91565b509050600073ffffffffffffffffffffffffffffffffffffffff168173ffffffffffffffffffffffffffffffffffffffff1614151515610d3357600080fd5b8073ffffffffffffffffffffffffffffffffffffffff163373ffffffffffffffffffffffffffffffffffffffff16141515610d6d57600080fd5b8073ffffffffffffffffffffffffffffffffffffffff16638da5cb5b6040518163ffffffff167c0100000000000000000000000000000000000000000000000000000000028152600401602060405180830381600087803b158015610dd157600080fd5b505af1158015610de5573d6000803e3d6000fd5b505050506040513d6020811015610dfb57600080fd5b810190808051906020019092919050505073ffffffffffffffffffffffffffffffffffffffff163273ffffffffffffffffffffffffffffffffffffffff16141515610e4557600080fd5b60018060ff16600960000160019054906101000a900460ff1660ff16141515610e6d57600080fd5b610e7a8360006003611f1b565b505050565b6000610e89611a91565b509050600073ffffffffffffffffffffffffffffffffffffffff168173ffffffffffffffffffffffffffffffffffffffff1614151515610ec857600080fd5b8073ffffffffffffffffffffffffffffffffffffffff163373ffffffffffffffffffffffffffffffffffffffff16141515610f0257600080fd5b8073ffffffffffffffffffffffffffffffffffffffff16638da5cb5b6040518163ffffffff167c0100000000000000000000000000000000000000000000000000000000028152600401602060405180830381600087803b158015610f6657600080fd5b505af1158015610f7a573d6000803e3d6000fd5b505050506040513d6020811015610f9057600080fd5b810190808051906020019092919050505073ffffffffffffffffffffffffffffffffffffffff163273ffffffffffffffffffffffffffffffffffffffff16141515610fda57600080fd5b5050565b60008060008060ff16600960000160019054906101000a900460ff1660ff1614151561100957600080fd5b60016000600960000160019054906101000a900460ff1690506110368260096120dd90919063ffffffff16565b600d60149054906101000a900460ff1660ff166040519080825280602002602001820160405280156110775781602001602082028038833980820191505090505b50600e908051906020019061108d929190612ca9565b50600d60149054906101000a900460ff1660ff166040519080825280602002602001820160405280156110cf5781602001602082028038833980820191505090505b50601090805190602001906110e5929190612d33565b50600d60149054906101000a900460ff1660ff166040519080825280602002602001820160405280156111275781602001602082028038833980820191505090505b506011908051906020019061113d929190612d80565b50600d60149054906101000a900460ff1660ff1660405190808252806020026020018201604052801561118457816020015b606081526020019060019003908161116f5790505b506013908051906020019061119a929190612e26565b50600094505b600d60149054906101000a900460ff1660ff168560ff1610156113ae57600060118660ff168154811015156111d157fe5b90600052602060002090602091828204019190066101000a81548160ff0219169083151502179055504260108660ff1681548110151561120d57fe5b9060005260206000200181905550600f8560ff1681548110151561122d57fe5b9060005260206000200160009054906101000a900473ffffffffffffffffffffffffffffffffffffffff16600e8660ff1681548110151561126a57fe5b9060005260206000200160006101000a81548173ffffffffffffffffffffffffffffffffffffffff021916908373ffffffffffffffffffffffffffffffffffffffff160217905550600e8560ff168154811015156112c457fe5b9060005260206000200160009054906101000a900473ffffffffffffffffffffffffffffffffffffffff1673ffffffffffffffffffffffffffffffffffffffff1663897399ae306040518263ffffffff167c0100000000000000000000000000000000000000000000000000000000028152600401808273ffffffffffffffffffffffffffffffffffffffff1673ffffffffffffffffffffffffffffffffffffffff168152602001915050600060405180830381600087803b15801561138957600080fd5b505af115801561139d573d6000803e3d6000fd5b5050505084806001019550506111a0565b8460ff1693505b600f805490508461ffff16101561147557600f808561ffff168154811015156113da57fe5b9060005260206000200160009054906101000a900473ffffffffffffffffffffffffffffffffffffffff1690806001815401808255809150509060018203906000526020600020016000909192909190916101000a81548173ffffffffffffffffffffffffffffffffffffffff021916908373ffffffffffffffffffffffffffffffffffffffff1602179055505083806001019450506113b5565b7f7e0d09ae7160446fde9323338cdbe3e98cc2d5197108e8a3c5e037265288335d60405160405180910390a181600960000160016101000a81548160ff021916908360ff1602179055507fe8a97ea87e4388fa22d496b95a8ed5ced6717f49790318de2b928aaf37a021d881600960000160019054906101000a900460ff16604051808360ff1660ff1681526020018260ff1660ff1681526020019250505060405180910390a16115246121ad565b5050505050565b6000809054906101000a900473ffffffffffffffffffffffffffffffffffffffff1673ffffffffffffffffffffffffffffffffffffffff163373ffffffffffffffffffffffffffffffffffffffff1614151561158657600080fd5b6000809054906101000a900473ffffffffffffffffffffffffffffffffffffffff1673ffffffffffffffffffffffffffffffffffffffff16ff5b6000809054906101000a900473ffffffffffffffffffffffffffffffffffffffff1681565b60006115ef611a91565b509050600073ffffffffffffffffffffffffffffffffffffffff168173ffffffffffffffffffffffffffffffffffffffff161415151561162e57600080fd5b8073ffffffffffffffffffffffffffffffffffffffff163373ffffffffffffffffffffffffffffffffffffffff1614151561166857600080fd5b8073ffffffffffffffffffffffffffffffffffffffff16638da5cb5b6040518163ffffffff167c0100000000000000000000000000000000000000000000000000000000028152600401602060405180830381600087803b1580156116cc57600080fd5b505af11580156116e0573d6000803e3d6000fd5b505050506040513d60208110156116f657600080fd5b810190808051906020019092919050505073ffffffffffffffffffffffffffffffffffffffff163273ffffffffffffffffffffffffffffffffffffffff1614151561174057600080fd5b60028081111561174c57fe5b82600281111561175857fe5b141561176d5761176860046124c6565b611794565b6117936000600281111561177d57fe5b83600281111561178957fe5b1460016005611f1b565b5b5050565b600281565b600381565b60ff81565b600d60149054906101000a900460ff1681565b600c60009054906101000a900473ffffffffffffffffffffffffffffffffffffffff1681565b6000600115156011838154811015156117f557fe5b90600052602060002090602091828204019190069054906101000a900460ff161515149050919050565b6000600160ff16600960000160019054906101000a900460ff1660ff1614806118605750600360ff16600960000160019054906101000a900460ff1660ff16145b806118835750600560ff16600960000160019054906101000a900460ff1660ff16145b151561188e57600080fd5b6118978261257a565b90506107086010828154811015156118ab57fe5b9060005260206000205050506118bf611b19565b5050565b600781565b6000809054906101000a900473ffffffffffffffffffffffffffffffffffffffff1673ffffffffffffffffffffffffffffffffffffffff163373ffffffffffffffffffffffffffffffffffffffff1614151561192357600080fd5b600073ffffffffffffffffffffffffffffffffffffffff168173ffffffffffffffffffffffffffffffffffffffff161415151561195f57600080fd5b8073ffffffffffffffffffffffffffffffffffffffff166000809054906101000a900473ffffffffffffffffffffffffffffffffffffffff1673ffffffffffffffffffffffffffffffffffffffff167f8be0079c531659141344cd1fd0a4f28419497f9722a3daafe3b4186f6b6457e060405160405180910390a3806000806101000a81548173ffffffffffffffffffffffffffffffffffffffff021916908373ffffffffffffffffffffffffffffffffffffffff16021790555050565b6000809054906101000a900473ffffffffffffffffffffffffffffffffffffffff1673ffffffffffffffffffffffffffffffffffffffff163373ffffffffffffffffffffffffffffffffffffffff16141515611a7857600080fd5b8073ffffffffffffffffffffffffffffffffffffffff16ff5b600080611a9d3361257a565b9050600e80549050811115611ad85760007fffffffffffffffffffffffffffffffffffffffffffffffffffffffffffffffff91509150611b15565b600e81815481101515611ae757fe5b9060005260206000200160009054906101000a900473ffffffffffffffffffffffffffffffffffffffff1691505b9091565b6000806000600160ff16600960000160019054906101000a900460ff1660ff161480611b5d5750600360ff16600960000160019054906101000a900460ff1660ff16145b80611b805750600560ff16600960000160019054906101000a900460ff1660ff16145b1515611b8b57600080fd5b600092505b601080549050831015611d8557610708601084815481101515611baf57fe5b906000526020600020015442031115611d7857600e83815481101515611bd157fe5b9060005260206000200160009054906101000a900473ffffffffffffffffffffffffffffffffffffffff169150600160ff16600960000160019054906101000a900460ff1660ff161415611c285760009050611c83565b600360ff16600960000160019054906101000a900460ff1660ff161415611c525760029050611c82565b600560ff16600960000160019054906101000a900460ff1660ff161415611c7c5760049050611c81565b600080fd5b5b5b600b60009054906101000a900473ffffffffffffffffffffffffffffffffffffffff1673ffffffffffffffffffffffffffffffffffffffff16635ef1777683836040518363ffffffff167c0100000000000000000000000000000000000000000000000000000000028152600401808373ffffffffffffffffffffffffffffffffffffffff1673ffffffffffffffffffffffffffffffffffffffff168152602001826004811115611d3057fe5b60ff16815260200192505050600060405180830381600087803b158015611d5657600080fd5b505af1158015611d6a573d6000803e3d6000fd5b50505050611d778361263b565b5b8280600101935050611b90565b505050565b600080600090505b601180549050811015611ded5760011515601182815481101515611db257fe5b90600052602060002090602091828204019190069054906101000a900460ff161515141515611de057611f16565b8080600101915050611d92565b826000600960000160019054906101000a900460ff169050611e198260096120dd90919063ffffffff16565b600093505b601080549050841015611e90576000601185815481101515611e3c57fe5b90600052602060002090602091828204019190066101000a81548160ff02191690831515021790555042601085815481101515611e7557fe5b90600052602060002001819055508380600101945050611e1e565b81600960000160016101000a81548160ff021916908360ff1602179055507fe8a97ea87e4388fa22d496b95a8ed5ced6717f49790318de2b928aaf37a021d881600960000160019054906101000a900460ff16604051808360ff1660ff1681526020018260ff1660ff1681526020019250505060405180910390a1611f136121ad565b50505b505050565b600080611f26611a91565b91509150600073ffffffffffffffffffffffffffffffffffffffff168273ffffffffffffffffffffffffffffffffffffffff1614151515611f6657600080fd5b60001515851515141561206c57611f7c8161263b565b600b60009054906101000a900473ffffffffffffffffffffffffffffffffffffffff1673ffffffffffffffffffffffffffffffffffffffff16635ef1777683866040518363ffffffff167c0100000000000000000000000000000000000000000000000000000000028152600401808373ffffffffffffffffffffffffffffffffffffffff1673ffffffffffffffffffffffffffffffffffffffff16815260200182600481111561202957fe5b60ff16815260200192505050600060405180830381600087803b15801561204f57600080fd5b505af1158015612063573d6000803e3d6000fd5b505050506120d6565b600160118281548110151561207d57fe5b90600052602060002090602091828204019190066101000a81548160ff021916908315150217905550426010828154811015156120b657fe5b90600052602060002001819055506120cc611b19565b6120d583611d8a565b5b5050505050565b600080600060ff8560000160019054906101000a900460ff1660ff161415151561210357fe5b600092508460010160008660000160019054906101000a900460ff1660ff1660ff1681526020019081526020016000209150600090505b8180549050811015612193578360ff16828281548110151561215857fe5b90600052602060002090602091828204019190069054906101000a900460ff1660ff16141561218657600192505b808060010191505061213a565b600115158315151415156121a657600080fd5b5050505050565b600260ff166121ba610932565b60ff1614156121fc577f5f64b01e798e22b7b006309d50c085491c227a74e9cf11a922528b0d9a414de460405160405180910390a16121f76129b4565b6124c4565b600360ff16612209610932565b60ff161415612243577f2d9c6af01e1c3857ef5720b6226a3b900b0db1a5a9430c53d8a35b4fccf2015560405160405180910390a16124c3565b600460ff16612250610932565b60ff161415612292577f75be0ccc76f667c80f1c9ab66fafe78bd732b900403eb3f0da135c085955deca60405160405180910390a161228d6129b4565b6124c2565b600560ff1661229f610932565b60ff1614156122d9577f51273f7efcba23797f509c81f07b426c6b9cdbee92a6a40389a405d0152178c960405160405180910390a16124c1565b600660ff166122e6610932565b60ff1614156123ce577ff8d8e42e26bfacf74ecaff47cd43fa79d51c74d3a979d58521d12f369ad2bf7b6001604051808215151515815260200191505060405180910390a1600b60009054906101000a900473ffffffffffffffffffffffffffffffffffffffff1673ffffffffffffffffffffffffffffffffffffffff1663171317516040518163ffffffff167c0100000000000000000000000000000000000000000000000000000000028152600401600060405180830381600087803b1580156123b157600080fd5b505af11580156123c5573d6000803e3d6000fd5b505050506124c0565b600760ff166123db610932565b60ff1614156124bf577ff8d8e42e26bfacf74ecaff47cd43fa79d51c74d3a979d58521d12f369ad2bf7b6000604051808215151515815260200191505060405180910390a1600b60009054906101000a900473ffffffffffffffffffffffffffffffffffffffff1673ffffffffffffffffffffffffffffffffffffffff1663171317516040518163ffffffff167c0100000000000000000000000000000000000000000000000000000000028152600401600060405180830381600087803b1580156124a657600080fd5b505af11580156124ba573d6000803e3d6000fd5b505050505b5b5b5b5b5b565b806000600960000160019054906101000a900460ff1690506124f28260096120dd90919063ffffffff16565b81600960000160016101000a81548160ff021916908360ff1602179055507fe8a97ea87e4388fa22d496b95a8ed5ced6717f49790318de2b928aaf37a021d881600960000160019054906101000a900460ff16604051808360ff1660ff1681526020018260ff1660ff1681526020019250505060405180910390a16125756121ad565b505050565b600080600090505b600e8054905081101561261157600e8181548110151561259e57fe5b9060005260206000200160009054906101000a900473ffffffffffffffffffffffffffffffffffffffff1673ffffffffffffffffffffffffffffffffffffffff163373ffffffffffffffffffffffffffffffffffffffff16141561260457809150612635565b8080600101915050612582565b7fffffffffffffffffffffffffffffffffffffffffffffffffffffffffffffffff91505b50919050565b60006003600561265782826009612a069092919063ffffffff16565b5b6000600f8054905014156126735761266e612aa8565b6129ae565b600f6001600f805490500381548110151561268a57fe5b9060005260206000200160009054906101000a900473ffffffffffffffffffffffffffffffffffffffff1692506001600f8054905003600f816126cd9190612e86565b508273ffffffffffffffffffffffffffffffffffffffff1663ae897c556040518163ffffffff167c0100000000000000000000000000000000000000000000000000000000028152600401602060405180830381600087803b15801561273257600080fd5b505af1158015612746573d6000803e3d6000fd5b505050506040513d602081101561275c57600080fd5b810190808051906020019092919050505060ff168373ffffffffffffffffffffffffffffffffffffffff16630c3f6acf6040518163ffffffff167c0100000000000000000000000000000000000000000000000000000000028152600401602060405180830381600087803b1580156127d457600080fd5b505af11580156127e8573d6000803e3d6000fd5b505050506040513d60208110156127fe57600080fd5b810190808051906020019092919050505060ff1614151561281e57612658565b600060118581548110151561282f57fe5b90600052602060002090602091828204019190066101000a81548160ff0219169083151502179055504260108581548110151561286857fe5b906000526020600020018190555082600e8581548110151561288657fe5b9060005260206000200160006101000a81548173ffffffffffffffffffffffffffffffffffffffff021916908373ffffffffffffffffffffffffffffffffffffffff1602179055508273ffffffffffffffffffffffffffffffffffffffff1663897399ae306040518263ffffffff167c0100000000000000000000000000000000000000000000000000000000028152600401808273ffffffffffffffffffffffffffffffffffffffff1673ffffffffffffffffffffffffffffffffffffffff168152602001915050600060405180830381600087803b15801561296957600080fd5b505af115801561297d573d6000803e3d6000fd5b505050507f7e0d09ae7160446fde9323338cdbe3e98cc2d5197108e8a3c5e037265288335d60405160405180910390a15b50505050565b6000600f816129c39190612e86565b506000600e816129d39190612e86565b5060006013816129e39190612eb2565b5060006011816129f39190612ede565b506000601081612a039190612f18565b50565b6000612a10612f44565b600080925060408051908101604052808660ff1660ff1681526020018560ff1660ff168152509150600090505b6002811015612a8d578560000160019054906101000a900460ff1660ff168282600281101515612a6957fe5b602002015160ff161415612a805760019250612a8d565b8080600101915050612a3d565b60011515831515141515612aa057600080fd5b505050505050565b6000600160ff16600960000160019054906101000a900460ff1660ff161480612ae95750600360ff16600960000160019054906101000a900460ff1660ff16145b80612b0c5750600560ff16600960000160019054906101000a900460ff1660ff16145b1515612b1757600080fd5b600090505b600e80549050811015612beb57600e81815481101515612b3857fe5b9060005260206000200160009054906101000a900473ffffffffffffffffffffffffffffffffffffffff1673ffffffffffffffffffffffffffffffffffffffff1663b07c74756040518163ffffffff167c0100000000000000000000000000000000000000000000000000000000028152600401600060405180830381600087803b158015612bc657600080fd5b505af1158015612bda573d6000803e3d6000fd5b505050508080600101915050612b1c565b600560ff16600960000160019054906101000a900460ff1660ff161415612c1b57612c1660066124c6565b612c26565b612c2560026124c6565b5b50565b828054600181600116156101000203166002900490600052602060002090601f016020900481019282601f10612c6a57803560ff1916838001178555612c98565b82800160010185558215612c98579182015b82811115612c97578235825591602001919060010190612c7c565b5b509050612ca59190612f66565b5090565b828054828255906000526020600020908101928215612d22579160200282015b82811115612d215782518260006101000a81548173ffffffffffffffffffffffffffffffffffffffff021916908373ffffffffffffffffffffffffffffffffffffffff16021790555091602001919060010190612cc9565b5b509050612d2f9190612f8b565b5090565b828054828255906000526020600020908101928215612d6f579160200282015b82811115612d6e578251825591602001919060010190612d53565b5b509050612d7c9190612f66565b5090565b82805482825590600052602060002090601f01602090048101928215612e155791602002820160005b83821115612de657835183826101000a81548160ff0219169083151502179055509260200192600101602081600001049283019260010302612da9565b8015612e135782816101000a81549060ff0219169055600101602081600001049283019260010302612de6565b505b509050612e229190612fce565b5090565b828054828255906000526020600020908101928215612e75579160200282015b82811115612e74578251829080519060200190612e64929190612ffe565b5091602001919060010190612e46565b5b509050612e82919061307e565b5090565b815481835581811115612ead57818360005260206000209182019101612eac9190612f66565b5b505050565b815481835581811115612ed957818360005260206000209182019101612ed8919061307e565b5b505050565b815481835581811115612f1357601f016020900481601f01602090048360005260206000209182019101612f129190612f66565b5b505050565b815481835581811115612f3f57818360005260206000209182019101612f3e9190612f66565b5b505050565b6040805190810160405280600290602082028038833980820191505090505090565b612f8891905b80821115612f84576000816000905550600101612f6c565b5090565b90565b612fcb91905b80821115612fc757600081816101000a81549073ffffffffffffffffffffffffffffffffffffffff021916905550600101612f91565b5090565b90565b612ffb91905b80821115612ff757600081816101000a81549060ff021916905550600101612fd4565b5090565b90565b828054600181600116156101000203166002900490600052602060002090601f016020900481019282601f1061303f57805160ff191683800117855561306d565b8280016001018555821561306d579182015b8281111561306c578251825591602001919060010190613051565b5b50905061307a9190612f66565b5090565b6130a791905b808211156130a3576000818161309a91906130aa565b50600101613084565b5090565b90565b50805460018160011615610100020316600290046000825580601f106130d057506130ef565b601f0160209004906000526020600020908101906130ee9190612f66565b5b50565b6040805190810160405280601181526020017f5f696e697453746174654d616368696e65000000000000000000000000000000815250600015156008826040518082805190602001908083835b602083101515613164578051825260208201915060208101905060208303925061313f565b6001836020036101000a038019825116818451168082178552505050505050905001915050908152602001604051809103902060009054906101000a900460ff1615151415156131b357600080fd5b6131bd6009613244565b60016008826040518082805190602001908083835b6020831015156131f757805182526020820191506020810190506020830392506131d2565b6001836020036101000a038019825116818451168082178552505050505050905001915050908152602001604051809103902060006101000a81548160ff02191690831515021790555050565b600015158160000160009054906101000a900460ff16151514151561326857600080fd5b60018160000160016101000a81548160ff021916908360ff16021790555060018160000160006101000a81548160ff021916908315150217905550505600a165627a7a72305820f60659f376c6fa6a0e77f97d608a055719be92c175b5a1d906ceb2dddf700a680029a165627a7a7230582011d137a939c5e76c442523fadafc1e30485a56c93b4c75ab384898cc4e12ae420029",
  "source": "pragma solidity ^0.4.23;\n\nimport \"openzeppelin-solidity/contracts/ownership/Ownable.sol\";\nimport \"../../jobs/CognitiveJob.sol\";\nimport \"../../entities/IDataEntity.sol\";\nimport \"../../entities/IDataset.sol\";\nimport \"../../entities/IKernel.sol\";\nimport \"../../nodes/IWorkerNode.sol\";\nimport \"../IPandora.sol\";\n\ncontract CognitiveJobFactory is Ownable {\n    constructor() public { }\n\n    function create(\n        IKernel _kernel,\n        IDataset _dataset,\n        IWorkerNode[] _workersPool\n    )\n    onlyOwner\n    external\n    returns (CognitiveJob o_cognitiveJob) {\n        // Creating job\n        o_cognitiveJob = new CognitiveJob(IPandora(owner), _kernel, _dataset, _workersPool);\n\n//        // Checking that it was created correctly\n//        assert(o_cognitiveJob != CognitiveJob(0));\n\n        // Transferring ownership to the main Pandora contract (which owns this factory)\n        o_cognitiveJob.transferOwnership(owner);\n    }\n}\n",
  "sourcePath": "/home/kostysh/dev/pyrrha-consensus/contracts/pandora/factories/CognitiveJobFactory.sol",
  "compiler": {
    "name": "solc",
    "version": "0.4.23+commit.124ca40d.Emscripten.clang"
  },
  "schemaVersion": "2.0.0",
  "updatedAt": "2018-05-21T20:36:00.832Z"
}