{
  "contractName": "CognitiveJobFactory",
  "abi": [
    {
      "constant": false,
      "inputs": [],
      "name": "renounceOwnership",
      "outputs": [],
      "payable": false,
      "stateMutability": "nonpayable",
      "type": "function"
    },
    {
      "constant": true,
      "inputs": [],
      "name": "owner",
      "outputs": [
        {
          "name": "",
          "type": "address"
        }
      ],
      "payable": false,
      "stateMutability": "view",
      "type": "function"
    },
    {
      "constant": false,
      "inputs": [
        {
          "name": "_newOwner",
          "type": "address"
        }
      ],
      "name": "transferOwnership",
      "outputs": [],
      "payable": false,
      "stateMutability": "nonpayable",
      "type": "function"
    },
    {
      "inputs": [],
      "payable": false,
      "stateMutability": "nonpayable",
      "type": "constructor"
    },
    {
      "anonymous": false,
      "inputs": [
        {
          "indexed": true,
          "name": "previousOwner",
          "type": "address"
        }
      ],
      "name": "OwnershipRenounced",
      "type": "event"
    },
    {
      "anonymous": false,
      "inputs": [
        {
          "indexed": true,
          "name": "previousOwner",
          "type": "address"
        },
        {
          "indexed": true,
          "name": "newOwner",
          "type": "address"
        }
      ],
      "name": "OwnershipTransferred",
      "type": "event"
    },
    {
      "constant": false,
      "inputs": [
        {
          "name": "_kernel",
          "type": "address"
        },
        {
          "name": "_dataset",
          "type": "address"
        },
        {
          "name": "_workersPool",
          "type": "address[]"
        },
        {
          "name": "_complexity",
          "type": "uint256"
        },
        {
          "name": "_description",
          "type": "bytes32"
        }
      ],
      "name": "create",
      "outputs": [
        {
          "name": "o_cognitiveJob",
          "type": "address"
        }
      ],
      "payable": false,
      "stateMutability": "nonpayable",
      "type": "function"
    }
  ],
  "bytecode": "0x608060405234801561001057600080fd5b50336000806101000a81548173ffffffffffffffffffffffffffffffffffffffff021916908373ffffffffffffffffffffffffffffffffffffffff160217905550614768806100606000396000f30060806040526004361062000067576000357c0100000000000000000000000000000000000000000000000000000000900463ffffffff1680630109c3f9146200006c578063715018a614620001425780638da5cb5b146200015c578063f2fde38b14620001b6575b600080fd5b3480156200007957600080fd5b5062000100600480360381019080803573ffffffffffffffffffffffffffffffffffffffff169060200190929190803573ffffffffffffffffffffffffffffffffffffffff169060200190929190803590602001908201803590602001919091929391929390803590602001909291908035600019169060200190929190505050620001fc565b604051808273ffffffffffffffffffffffffffffffffffffffff1673ffffffffffffffffffffffffffffffffffffffff16815260200191505060405180910390f35b3480156200014f57600080fd5b506200015a62000461565b005b3480156200016957600080fd5b506200017462000564565b604051808273ffffffffffffffffffffffffffffffffffffffff1673ffffffffffffffffffffffffffffffffffffffff16815260200191505060405180910390f35b348015620001c357600080fd5b50620001fa600480360381019080803573ffffffffffffffffffffffffffffffffffffffff16906020019092919050505062000589565b005b60008060009054906101000a900473ffffffffffffffffffffffffffffffffffffffff1673ffffffffffffffffffffffffffffffffffffffff163373ffffffffffffffffffffffffffffffffffffffff161415156200025a57600080fd5b6000809054906101000a900473ffffffffffffffffffffffffffffffffffffffff168787878787876200028c620006ee565b808873ffffffffffffffffffffffffffffffffffffffff1673ffffffffffffffffffffffffffffffffffffffff1681526020018773ffffffffffffffffffffffffffffffffffffffff1673ffffffffffffffffffffffffffffffffffffffff1681526020018673ffffffffffffffffffffffffffffffffffffffff1673ffffffffffffffffffffffffffffffffffffffff1681526020018060200184815260200183600019166000191681526020018281038252868682818152602001925060200280828437820191505098505050505050505050604051809103906000f0801580156200037e573d6000803e3d6000fd5b5090508073ffffffffffffffffffffffffffffffffffffffff1663f2fde38b6000809054906101000a900473ffffffffffffffffffffffffffffffffffffffff166040518263ffffffff167c0100000000000000000000000000000000000000000000000000000000028152600401808273ffffffffffffffffffffffffffffffffffffffff1673ffffffffffffffffffffffffffffffffffffffff168152602001915050600060405180830381600087803b1580156200043e57600080fd5b505af115801562000453573d6000803e3d6000fd5b505050509695505050505050565b6000809054906101000a900473ffffffffffffffffffffffffffffffffffffffff1673ffffffffffffffffffffffffffffffffffffffff163373ffffffffffffffffffffffffffffffffffffffff16141515620004bd57600080fd5b6000809054906101000a900473ffffffffffffffffffffffffffffffffffffffff1673ffffffffffffffffffffffffffffffffffffffff167ff8df31144d9c2f0f6b59d69b8b98abd5459d07f2742c4df920b25aae33c6482060405160405180910390a260008060006101000a81548173ffffffffffffffffffffffffffffffffffffffff021916908373ffffffffffffffffffffffffffffffffffffffff160217905550565b6000809054906101000a900473ffffffffffffffffffffffffffffffffffffffff1681565b6000809054906101000a900473ffffffffffffffffffffffffffffffffffffffff1673ffffffffffffffffffffffffffffffffffffffff163373ffffffffffffffffffffffffffffffffffffffff16141515620005e557600080fd5b620005f081620005f3565b50565b600073ffffffffffffffffffffffffffffffffffffffff168173ffffffffffffffffffffffffffffffffffffffff16141515156200063057600080fd5b8073ffffffffffffffffffffffffffffffffffffffff166000809054906101000a900473ffffffffffffffffffffffffffffffffffffffff1673ffffffffffffffffffffffffffffffffffffffff167f8be0079c531659141344cd1fd0a4f28419497f9722a3daafe3b4186f6b6457e060405160405180910390a3806000806101000a81548173ffffffffffffffffffffffffffffffffffffffff021916908373ffffffffffffffffffffffffffffffffffffffff16021790555050565b60405161403d806200070083390190560060806040523480156200001157600080fd5b506040516200403d3803806200403d833981018060405281019080805190602001909291908051906020019092919080519060200190929190805182019291906020018051906020019092919080519060200190929190505050336000806101000a81548173ffffffffffffffffffffffffffffffffffffffff021916908373ffffffffffffffffffffffffffffffffffffffff1602179055508373ffffffffffffffffffffffffffffffffffffffff166387ea09616040518163ffffffff167c0100000000000000000000000000000000000000000000000000000000028152600401602060405180830381600087803b1580156200011057600080fd5b505af115801562000125573d6000803e3d6000fd5b505050506040513d60208110156200013c57600080fd5b810190808051906020019092919050505060ff1660128190555060006012541115156200016857600080fd5b6012548351101515156200017b57600080fd5b600073ffffffffffffffffffffffffffffffffffffffff168673ffffffffffffffffffffffffffffffffffffffff1614151515620001b857600080fd5b600073ffffffffffffffffffffffffffffffffffffffff168573ffffffffffffffffffffffffffffffffffffffff1614151515620001f557600080fd5b600073ffffffffffffffffffffffffffffffffffffffff168473ffffffffffffffffffffffffffffffffffffffff16141515156200023257600080fd5b85600f60006101000a81548173ffffffffffffffffffffffffffffffffffffffff021916908373ffffffffffffffffffffffffffffffffffffffff16021790555084601060006101000a81548173ffffffffffffffffffffffffffffffffffffffff021916908373ffffffffffffffffffffffffffffffffffffffff16021790555083601160006101000a81548173ffffffffffffffffffffffffffffffffffffffff021916908373ffffffffffffffffffffffffffffffffffffffff16021790555082601690805190602001906200030d92919062000693565b508160138190555080601481600019169055506200033962000345640100000000026401000000009004565b505050505050620009a5565b6000600d6001019050602060405190810160405280600160ff1660ff168152508160008060ff1660ff1681526020019081526020016000209060016200038d92919062000722565b506040805190810160405280600260ff1660ff168152602001600360ff1660ff16815250816000600160ff1660ff168152602001908152602001600020906002620003da929190620007d0565b50606060405190810160405280600460ff1660ff168152602001600560ff1660ff168152602001600260ff1660ff16815250816000600360ff1660ff168152602001908152602001600020906003620004359291906200087e565b506040805190810160405280600760ff1660ff168152602001600660ff1660ff16815250816000600560ff1660ff16815260200190815260200160002090600262000482929190620007d0565b50620004a1620004c364010000000002620034a8176401000000009004565b6000600d60000160016101000a81548160ff021916908360ff16021790555050565b6040805190810160405280601181526020017f5f696e697453746174654d616368696e6500000000000000000000000000000081525060001515600c826040518082805190602001908083835b60208310151562000537578051825260208201915060208101905060208303925062000510565b6001836020036101000a038019825116818451168082178552505050505050905001915050908152602001604051809103902060009054906101000a900460ff1615151415156200058757600080fd5b620005a7600d6200063064010000000002620035fa176401000000009004565b6001600c826040518082805190602001908083835b602083101515620005e35780518252602082019150602081019050602083039250620005bc565b6001836020036101000a038019825116818451168082178552505050505050905001915050908152602001604051809103902060006101000a81548160ff02191690831515021790555050565b600015158160000160009054906101000a900460ff1615151415156200065557600080fd5b60018160000160016101000a81548160ff021916908360ff16021790555060018160000160006101000a81548160ff02191690831515021790555050565b8280548282559060005260206000209081019282156200070f579160200282015b828111156200070e5782518260006101000a81548173ffffffffffffffffffffffffffffffffffffffff021916908373ffffffffffffffffffffffffffffffffffffffff16021790555091602001919060010190620006b4565b5b5090506200071e91906200092c565b5090565b82805482825590600052602060002090601f01602090048101928215620007bd5791602002820160005b838211156200078c57835183826101000a81548160ff021916908360ff16021790555092602001926001016020816000010492830192600103026200074c565b8015620007bb5782816101000a81549060ff02191690556001016020816000010492830192600103026200078c565b505b509050620007cc919062000972565b5090565b82805482825590600052602060002090601f016020900481019282156200086b5791602002820160005b838211156200083a57835183826101000a81548160ff021916908360ff1602179055509260200192600101602081600001049283019260010302620007fa565b8015620008695782816101000a81549060ff02191690556001016020816000010492830192600103026200083a565b505b5090506200087a919062000972565b5090565b82805482825590600052602060002090601f01602090048101928215620009195791602002820160005b83821115620008e857835183826101000a81548160ff021916908360ff1602179055509260200192600101602081600001049283019260010302620008a8565b8015620009175782816101000a81549060ff0219169055600101602081600001049283019260010302620008e8565b505b50905062000928919062000972565b5090565b6200096f91905b808211156200096b57600081816101000a81549073ffffffffffffffffffffffffffffffffffffffff02191690555060010162000933565b5090565b90565b620009a291905b808211156200099e57600081816101000a81549060ff02191690555060010162000979565b5090565b90565b61368880620009b56000396000f3006080604052600436106101c2576000357c0100000000000000000000000000000000000000000000000000000000900463ffffffff168063026d49ea146101c757806302b728ab146101f85780630c3f6acf1461024f5780630fb03aad146102805780631590d658146103265780631a0bc596146103575780631c72fad4146103ae57806321514ef3146103df57806323d554731461041057806340a030a21461043b5780634804b4ba146104665780634e6b42a814610491578063577bd336146104cc57806358909400146104fd5780635cb045db1461056a5780635e4059671461059b57806364d3414c146106085780636936087d14610637578063715018a6146106675780637284e4161461067e5780638080be77146106b15780638129fc1c146106dc57806383197ef0146106f35780638da5cb5b1461070a578063acf7807b14610761578063b225be4214610791578063c36b33b0146107c1578063cbd315ae146107f2578063cc0e82c114610823578063cfdf677e14610854578063d4aae0c41461087f578063d6ccdca3146108d6578063d94c69aa1461091b578063e06452d014610951578063f2fde38b14610982578063f5074f41146109c5575b600080fd5b3480156101d357600080fd5b506101dc610a08565b604051808260ff1660ff16815260200191505060405180910390f35b34801561020457600080fd5b5061020d610a0d565b604051808273ffffffffffffffffffffffffffffffffffffffff1673ffffffffffffffffffffffffffffffffffffffff16815260200191505060405180910390f35b34801561025b57600080fd5b50610264610a33565b604051808260ff1660ff16815260200191505060405180910390f35b34801561028c57600080fd5b506102ab60048036038101908080359060200190929190505050610a4d565b6040518080602001828103825283818151815260200191508051906020019080838360005b838110156102eb5780820151818401526020810190506102d0565b50505050905090810190601f1680156103185780820380516001836020036101000a031916815260200191505b509250505060405180910390f35b34801561033257600080fd5b5061033b610b08565b604051808260ff1660ff16815260200191505060405180910390f35b34801561036357600080fd5b5061036c610b0d565b604051808273ffffffffffffffffffffffffffffffffffffffff1673ffffffffffffffffffffffffffffffffffffffff16815260200191505060405180910390f35b3480156103ba57600080fd5b506103c3610b33565b604051808260ff1660ff16815260200191505060405180910390f35b3480156103eb57600080fd5b506103f4610b38565b604051808260ff1660ff16815260200191505060405180910390f35b34801561041c57600080fd5b50610425610b3d565b6040518082815260200191505060405180910390f35b34801561044757600080fd5b50610450610b43565b6040518082815260200191505060405180910390f35b34801561047257600080fd5b5061047b610b50565b6040518082815260200191505060405180910390f35b34801561049d57600080fd5b506104ca600480360381019080803590602001908201803590602001919091929391929390505050610b5d565b005b3480156104d857600080fd5b506104e1610d70565b604051808260ff1660ff16815260200191505060405180910390f35b34801561050957600080fd5b5061052860048036038101908080359060200190929190505050610d83565b604051808273ffffffffffffffffffffffffffffffffffffffff1673ffffffffffffffffffffffffffffffffffffffff16815260200191505060405180910390f35b34801561057657600080fd5b5061057f610dc1565b604051808260ff1660ff16815260200191505060405180910390f35b3480156105a757600080fd5b506105c660048036038101908080359060200190929190505050610dc6565b604051808273ffffffffffffffffffffffffffffffffffffffff1673ffffffffffffffffffffffffffffffffffffffff16815260200191505060405180910390f35b34801561061457600080fd5b50610635600480360381019080803515159060200190929190505050610e04565b005b34801561064357600080fd5b50610665600480360381019080803560ff169060200190929190505050610f6e565b005b34801561067357600080fd5b5061067c61113a565b005b34801561068a57600080fd5b5061069361123c565b60405180826000191660001916815260200191505060405180910390f35b3480156106bd57600080fd5b506106c6611242565b6040518082815260200191505060405180910390f35b3480156106e857600080fd5b506106f1611248565b005b3480156106ff57600080fd5b5061070861172d565b005b34801561071657600080fd5b5061071f6117c2565b604051808273ffffffffffffffffffffffffffffffffffffffff1673ffffffffffffffffffffffffffffffffffffffff16815260200191505060405180910390f35b34801561076d57600080fd5b5061078f600480360381019080803560ff1690602001909291905050506117e7565b005b34801561079d57600080fd5b506107bf600480360381019080803560ff169060200190929190505050611885565b005b3480156107cd57600080fd5b506107d6611a36565b604051808260ff1660ff16815260200191505060405180910390f35b3480156107fe57600080fd5b50610807611a3b565b604051808260ff1660ff16815260200191505060405180910390f35b34801561082f57600080fd5b50610838611a40565b604051808260ff1660ff16815260200191505060405180910390f35b34801561086057600080fd5b50610869611a45565b6040518082815260200191505060405180910390f35b34801561088b57600080fd5b50610894611a4b565b604051808273ffffffffffffffffffffffffffffffffffffffff1673ffffffffffffffffffffffffffffffffffffffff16815260200191505060405180910390f35b3480156108e257600080fd5b5061090160048036038101908080359060200190929190505050611a71565b604051808215151515815260200191505060405180910390f35b61094f600480360381019080803573ffffffffffffffffffffffffffffffffffffffff169060200190929190505050611ad2565b005b34801561095d57600080fd5b50610966611b76565b604051808260ff1660ff16815260200191505060405180910390f35b34801561098e57600080fd5b506109c3600480360381019080803573ffffffffffffffffffffffffffffffffffffffff169060200190929190505050611b7b565b005b3480156109d157600080fd5b50610a06600480360381019080803573ffffffffffffffffffffffffffffffffffffffff169060200190929190505050611be2565b005b600681565b601160009054906101000a900473ffffffffffffffffffffffffffffffffffffffff1681565b6000600d60000160019054906101000a900460ff16905090565b601781815481101515610a5c57fe5b906000526020600020016000915090508054600181600116156101000203166002900480601f016020809104026020016040519081016040528092919081815260200182805460018160011615610100020316600290048015610b005780601f10610ad557610100808354040283529160200191610b00565b820191906000526020600020905b815481529060010190602001808311610ae357829003601f168201915b505050505081565b600581565b600f60009054906101000a900473ffffffffffffffffffffffffffffffffffffffff1681565b600081565b600181565b60135481565b6000601780549050905090565b6000601580549050905090565b600080610b68611c56565b5080915050600073ffffffffffffffffffffffffffffffffffffffff168173ffffffffffffffffffffffffffffffffffffffff1614151515610ba957600080fd5b8073ffffffffffffffffffffffffffffffffffffffff163373ffffffffffffffffffffffffffffffffffffffff16141515610be357600080fd5b8073ffffffffffffffffffffffffffffffffffffffff16638da5cb5b6040518163ffffffff167c0100000000000000000000000000000000000000000000000000000000028152600401602060405180830381600087803b158015610c4757600080fd5b505af1158015610c5b573d6000803e3d6000fd5b505050506040513d6020811015610c7157600080fd5b810190808051906020019092919050505073ffffffffffffffffffffffffffffffffffffffff163273ffffffffffffffffffffffffffffffffffffffff16141515610cbb57600080fd5b610cc3611c56565b9050809250508383601784815481101515610cda57fe5b906000526020600020019190610cf1929190613001565b506001601b83815481101515610d0357fe5b90600052602060002090602091828204019190066101000a81548160ff02191690831515021790555042601883815481101515610d3c57fe5b9060005260206000200181905550610d52611cde565b610d5a611f4f565b15610d6a57610d696007611fba565b5b50505050565b600a60009054906101000a900460ff1681565b601581815481101515610d9257fe5b906000526020600020016000915054906101000a900473ffffffffffffffffffffffffffffffffffffffff1681565b600481565b601681815481101515610dd557fe5b906000526020600020016000915054906101000a900473ffffffffffffffffffffffffffffffffffffffff1681565b6000610e0e611c56565b5080915050600073ffffffffffffffffffffffffffffffffffffffff168173ffffffffffffffffffffffffffffffffffffffff1614151515610e4f57600080fd5b8073ffffffffffffffffffffffffffffffffffffffff163373ffffffffffffffffffffffffffffffffffffffff16141515610e8957600080fd5b8073ffffffffffffffffffffffffffffffffffffffff16638da5cb5b6040518163ffffffff167c0100000000000000000000000000000000000000000000000000000000028152600401602060405180830381600087803b158015610eed57600080fd5b505af1158015610f01573d6000803e3d6000fd5b505050506040513d6020811015610f1757600080fd5b810190808051906020019092919050505073ffffffffffffffffffffffffffffffffffffffff163273ffffffffffffffffffffffffffffffffffffffff16141515610f6157600080fd5b610f6a82611fdc565b5050565b600080610f79611c56565b5080915050600073ffffffffffffffffffffffffffffffffffffffff168173ffffffffffffffffffffffffffffffffffffffff1614151515610fba57600080fd5b8073ffffffffffffffffffffffffffffffffffffffff163373ffffffffffffffffffffffffffffffffffffffff16141515610ff457600080fd5b8073ffffffffffffffffffffffffffffffffffffffff16638da5cb5b6040518163ffffffff167c0100000000000000000000000000000000000000000000000000000000028152600401602060405180830381600087803b15801561105857600080fd5b505af115801561106c573d6000803e3d6000fd5b505050506040513d602081101561108257600080fd5b810190808051906020019092919050505073ffffffffffffffffffffffffffffffffffffffff163273ffffffffffffffffffffffffffffffffffffffff161415156110cc57600080fd5b6110d4611c56565b905080925050426018838154811015156110ea57fe5b90600052602060002001819055507f6e61ae137e19999439ac1653b045d99d8b1a4d38b3b2ef2956ab2b5494957b3d83604051808260ff1660ff16815260200191505060405180910390a1505050565b6000809054906101000a900473ffffffffffffffffffffffffffffffffffffffff1673ffffffffffffffffffffffffffffffffffffffff163373ffffffffffffffffffffffffffffffffffffffff1614151561119557600080fd5b6000809054906101000a900473ffffffffffffffffffffffffffffffffffffffff1673ffffffffffffffffffffffffffffffffffffffff167ff8df31144d9c2f0f6b59d69b8b98abd5459d07f2742c4df920b25aae33c6482060405160405180910390a260008060006101000a81548173ffffffffffffffffffffffffffffffffffffffff021916908373ffffffffffffffffffffffffffffffffffffffff160217905550565b60145481565b60065481565b60008060008060ff16600d60000160019054906101000a900460ff1660ff1614151561127357600080fd5b6012546040519080825280602002602001820160405280156112a45781602001602082028038833980820191505090505b50601590805190602001906112ba929190613081565b506012546040519080825280602002602001820160405280156112ec5781602001602082028038833980820191505090505b506018908051906020019061130292919061310b565b506012546040519080825280602002602001820160405280156113345781602001602082028038833980820191505090505b506019908051906020019061134a929190613158565b5060125460405190808252806020026020018201604052801561137c5781602001602082028038833980820191505090505b50601a9080519060200190611392929190613158565b506012546040519080825280602002602001820160405280156113c45781602001602082028038833980820191505090505b50601b90805190602001906113da929190613158565b5060125460405190808252806020026020018201604052801561141157816020015b60608152602001906001900390816113fc5790505b50601790805190602001906114279291906131fe565b50600092505b6012548360ff16101561162b57600060198460ff1681548110151561144e57fe5b90600052602060002090602091828204019190066101000a81548160ff0219169083151502179055504260188460ff1681548110151561148a57fe5b906000526020600020018190555060168360ff168154811015156114aa57fe5b9060005260206000200160009054906101000a900473ffffffffffffffffffffffffffffffffffffffff1660158460ff168154811015156114e757fe5b9060005260206000200160006101000a81548173ffffffffffffffffffffffffffffffffffffffff021916908373ffffffffffffffffffffffffffffffffffffffff16021790555060158360ff1681548110151561154157fe5b9060005260206000200160009054906101000a900473ffffffffffffffffffffffffffffffffffffffff1673ffffffffffffffffffffffffffffffffffffffff1663897399ae306040518263ffffffff167c0100000000000000000000000000000000000000000000000000000000028152600401808273ffffffffffffffffffffffffffffffffffffffff1673ffffffffffffffffffffffffffffffffffffffff168152602001915050600060405180830381600087803b15801561160657600080fd5b505af115801561161a573d6000803e3d6000fd5b50505050828060010193505061142d565b8260ff1691505b6016805490508261ffff1610156116f2576016808361ffff1681548110151561165757fe5b9060005260206000200160009054906101000a900473ffffffffffffffffffffffffffffffffffffffff1690806001815401808255809150509060018203906000526020600020016000909192909190916101000a81548173ffffffffffffffffffffffffffffffffffffffff021916908373ffffffffffffffffffffffffffffffffffffffff160217905550508180600101925050611632565b6116fc6001611fba565b7f7e0d09ae7160446fde9323338cdbe3e98cc2d5197108e8a3c5e037265288335d60405160405180910390a1505050565b6000809054906101000a900473ffffffffffffffffffffffffffffffffffffffff1673ffffffffffffffffffffffffffffffffffffffff163373ffffffffffffffffffffffffffffffffffffffff1614151561178857600080fd5b6000809054906101000a900473ffffffffffffffffffffffffffffffffffffffff1673ffffffffffffffffffffffffffffffffffffffff16ff5b6000809054906101000a900473ffffffffffffffffffffffffffffffffffffffff1681565b6000600d60000160019054906101000a900460ff16905081600d60000160016101000a81548160ff021916908360ff1602179055507fe8a97ea87e4388fa22d496b95a8ed5ced6717f49790318de2b928aaf37a021d881600d60000160019054906101000a900460ff16604051808360ff1660ff1681526020018260ff1660ff1681526020019250505060405180910390a16118816121b8565b5050565b600061188f611c56565b5080915050600073ffffffffffffffffffffffffffffffffffffffff168173ffffffffffffffffffffffffffffffffffffffff16141515156118d057600080fd5b8073ffffffffffffffffffffffffffffffffffffffff163373ffffffffffffffffffffffffffffffffffffffff1614151561190a57600080fd5b8073ffffffffffffffffffffffffffffffffffffffff16638da5cb5b6040518163ffffffff167c0100000000000000000000000000000000000000000000000000000000028152600401602060405180830381600087803b15801561196e57600080fd5b505af1158015611982573d6000803e3d6000fd5b505050506040513d602081101561199857600080fd5b810190808051906020019092919050505073ffffffffffffffffffffffffffffffffffffffff163273ffffffffffffffffffffffffffffffffffffffff161415156119e257600080fd5b6002808111156119ee57fe5b8260028111156119fa57fe5b1415611a0f57611a0a6004611fba565b611a32565b611a3160006002811115611a1f57fe5b836002811115611a2b57fe5b146124d1565b5b5050565b600281565b600381565b60ff81565b60125481565b601060009054906101000a900473ffffffffffffffffffffffffffffffffffffffff1681565b600060058060ff16600d60000160019054906101000a900460ff1660ff16141515611a9b57600080fd5b601983815481101515611aaa57fe5b90600052602060002090602091828204019190069054906101000a900460ff16915050919050565b6000600160ff16600d60000160019054906101000a900460ff1660ff161480611b135750600360ff16600d60000160019054906101000a900460ff1660ff16145b80611b365750600560ff16600d60000160019054906101000a900460ff1660ff16145b1515611b4157600080fd5b611b4a826126ad565b9050610708601882815481101515611b5e57fe5b906000526020600020505050611b72611cde565b5050565b600781565b6000809054906101000a900473ffffffffffffffffffffffffffffffffffffffff1673ffffffffffffffffffffffffffffffffffffffff163373ffffffffffffffffffffffffffffffffffffffff16141515611bd657600080fd5b611bdf8161276e565b50565b6000809054906101000a900473ffffffffffffffffffffffffffffffffffffffff1673ffffffffffffffffffffffffffffffffffffffff163373ffffffffffffffffffffffffffffffffffffffff16141515611c3d57600080fd5b8073ffffffffffffffffffffffffffffffffffffffff16ff5b600080611c62336126ad565b9050601580549050811115611c9d5760007fffffffffffffffffffffffffffffffffffffffffffffffffffffffffffffffff91509150611cda565b601581815481101515611cac57fe5b9060005260206000200160009054906101000a900473ffffffffffffffffffffffffffffffffffffffff1691505b9091565b6000806000600160ff16600d60000160019054906101000a900460ff1660ff161480611d225750600360ff16600d60000160019054906101000a900460ff1660ff16145b80611d455750600560ff16600d60000160019054906101000a900460ff1660ff16145b1515611d5057600080fd5b600092505b601880549050831015611f4a57610708601884815481101515611d7457fe5b906000526020600020015442031115611f3d57601583815481101515611d9657fe5b9060005260206000200160009054906101000a900473ffffffffffffffffffffffffffffffffffffffff169150600160ff16600d60000160019054906101000a900460ff1660ff161415611ded5760009050611e48565b600360ff16600d60000160019054906101000a900460ff1660ff161415611e175760029050611e47565b600560ff16600d60000160019054906101000a900460ff1660ff161415611e415760049050611e46565b600080fd5b5b5b600f60009054906101000a900473ffffffffffffffffffffffffffffffffffffffff1673ffffffffffffffffffffffffffffffffffffffff16635ef1777683836040518363ffffffff167c0100000000000000000000000000000000000000000000000000000000028152600401808373ffffffffffffffffffffffffffffffffffffffff1673ffffffffffffffffffffffffffffffffffffffff168152602001826004811115611ef557fe5b60ff16815260200192505050600060405180830381600087803b158015611f1b57600080fd5b505af1158015611f2f573d6000803e3d6000fd5b50505050611f3c83612868565b5b8280600101935050611d55565b505050565b60008060019150600090505b601b80549050811015611fb65760011515601b82815481101515611f7b57fe5b90600052602060002090602091828204019190069054906101000a900460ff161515141515611fa957600091505b8080600101915050611f5b565b5090565b80611fcf81600d612be190919063ffffffff16565b611fd8826117e7565b5050565b600080611fe7611c56565b8092508193505050600073ffffffffffffffffffffffffffffffffffffffff168273ffffffffffffffffffffffffffffffffffffffff161415151561202b57600080fd5b6000151583151514156121325761204181612868565b600f60009054906101000a900473ffffffffffffffffffffffffffffffffffffffff1673ffffffffffffffffffffffffffffffffffffffff16635ef177768360006040518363ffffffff167c0100000000000000000000000000000000000000000000000000000000028152600401808373ffffffffffffffffffffffffffffffffffffffff1673ffffffffffffffffffffffffffffffffffffffff1681526020018260048111156120ef57fe5b60ff16815260200192505050600060405180830381600087803b15801561211557600080fd5b505af1158015612129573d6000803e3d6000fd5b505050506121b3565b600160198281548110151561214357fe5b90600052602060002090602091828204019190066101000a81548160ff0219169083151502179055504260188281548110151561217c57fe5b9060005260206000200181905550612192611cde565b61219a612cb1565b156121b2576121a7612d1c565b6121b16003611fba565b5b5b505050565b600260ff166121c5610a33565b60ff161415612207577f5f64b01e798e22b7b006309d50c085491c227a74e9cf11a922528b0d9a414de460405160405180910390a1612202612d5d565b6124cf565b600360ff16612214610a33565b60ff16141561224e577f2d9c6af01e1c3857ef5720b6226a3b900b0db1a5a9430c53d8a35b4fccf2015560405160405180910390a16124ce565b600460ff1661225b610a33565b60ff16141561229d577f75be0ccc76f667c80f1c9ab66fafe78bd732b900403eb3f0da135c085955deca60405160405180910390a1612298612d5d565b6124cd565b600560ff166122aa610a33565b60ff1614156122e4577f51273f7efcba23797f509c81f07b426c6b9cdbee92a6a40389a405d0152178c960405160405180910390a16124cc565b600660ff166122f1610a33565b60ff1614156123d9577ff8d8e42e26bfacf74ecaff47cd43fa79d51c74d3a979d58521d12f369ad2bf7b6001604051808215151515815260200191505060405180910390a1600f60009054906101000a900473ffffffffffffffffffffffffffffffffffffffff1673ffffffffffffffffffffffffffffffffffffffff1663171317516040518163ffffffff167c0100000000000000000000000000000000000000000000000000000000028152600401600060405180830381600087803b1580156123bc57600080fd5b505af11580156123d0573d6000803e3d6000fd5b505050506124cb565b600760ff166123e6610a33565b60ff1614156124ca577ff8d8e42e26bfacf74ecaff47cd43fa79d51c74d3a979d58521d12f369ad2bf7b6000604051808215151515815260200191505060405180910390a1600f60009054906101000a900473ffffffffffffffffffffffffffffffffffffffff1673ffffffffffffffffffffffffffffffffffffffff1663171317516040518163ffffffff167c0100000000000000000000000000000000000000000000000000000000028152600401600060405180830381600087803b1580156124b157600080fd5b505af11580156124c5573d6000803e3d6000fd5b505050505b5b5b5b5b5b565b6000806124dc611c56565b8092508193505050600073ffffffffffffffffffffffffffffffffffffffff168273ffffffffffffffffffffffffffffffffffffffff161415151561252057600080fd5b6000151583151514156126275761253681612868565b600f60009054906101000a900473ffffffffffffffffffffffffffffffffffffffff1673ffffffffffffffffffffffffffffffffffffffff16635ef177768360016040518363ffffffff167c0100000000000000000000000000000000000000000000000000000000028152600401808373ffffffffffffffffffffffffffffffffffffffff1673ffffffffffffffffffffffffffffffffffffffff1681526020018260048111156125e457fe5b60ff16815260200192505050600060405180830381600087803b15801561260a57600080fd5b505af115801561261e573d6000803e3d6000fd5b505050506126a8565b6001601a8281548110151561263857fe5b90600052602060002090602091828204019190066101000a81548160ff0219169083151502179055504260188281548110151561267157fe5b9060005260206000200181905550612687611cde565b61268f612daf565b156126a75761269c612d1c565b6126a66005611fba565b5b5b505050565b600080600090505b601580549050811015612744576015818154811015156126d157fe5b9060005260206000200160009054906101000a900473ffffffffffffffffffffffffffffffffffffffff1673ffffffffffffffffffffffffffffffffffffffff168373ffffffffffffffffffffffffffffffffffffffff16141561273757809150612768565b80806001019150506126b5565b7fffffffffffffffffffffffffffffffffffffffffffffffffffffffffffffffff91505b50919050565b600073ffffffffffffffffffffffffffffffffffffffff168173ffffffffffffffffffffffffffffffffffffffff16141515156127aa57600080fd5b8073ffffffffffffffffffffffffffffffffffffffff166000809054906101000a900473ffffffffffffffffffffffffffffffffffffffff1673ffffffffffffffffffffffffffffffffffffffff167f8be0079c531659141344cd1fd0a4f28419497f9722a3daafe3b4186f6b6457e060405160405180910390a3806000806101000a81548173ffffffffffffffffffffffffffffffffffffffff021916908373ffffffffffffffffffffffffffffffffffffffff16021790555050565b6000600360056128848282600d612e1a9092919063ffffffff16565b5b600060168054905014156128a05761289b612e80565b612bdb565b60166001601680549050038154811015156128b757fe5b9060005260206000200160009054906101000a900473ffffffffffffffffffffffffffffffffffffffff1692506001601680549050036016816128fa919061325e565b508273ffffffffffffffffffffffffffffffffffffffff1663ae897c556040518163ffffffff167c0100000000000000000000000000000000000000000000000000000000028152600401602060405180830381600087803b15801561295f57600080fd5b505af1158015612973573d6000803e3d6000fd5b505050506040513d602081101561298957600080fd5b810190808051906020019092919050505060ff168373ffffffffffffffffffffffffffffffffffffffff16630c3f6acf6040518163ffffffff167c0100000000000000000000000000000000000000000000000000000000028152600401602060405180830381600087803b158015612a0157600080fd5b505af1158015612a15573d6000803e3d6000fd5b505050506040513d6020811015612a2b57600080fd5b810190808051906020019092919050505060ff16141515612a4b57612885565b6000601985815481101515612a5c57fe5b90600052602060002090602091828204019190066101000a81548160ff02191690831515021790555042601885815481101515612a9557fe5b906000526020600020018190555082601585815481101515612ab357fe5b9060005260206000200160006101000a81548173ffffffffffffffffffffffffffffffffffffffff021916908373ffffffffffffffffffffffffffffffffffffffff1602179055508273ffffffffffffffffffffffffffffffffffffffff1663897399ae306040518263ffffffff167c0100000000000000000000000000000000000000000000000000000000028152600401808273ffffffffffffffffffffffffffffffffffffffff1673ffffffffffffffffffffffffffffffffffffffff168152602001915050600060405180830381600087803b158015612b9657600080fd5b505af1158015612baa573d6000803e3d6000fd5b505050507f7e0d09ae7160446fde9323338cdbe3e98cc2d5197108e8a3c5e037265288335d60405160405180910390a15b50505050565b600080600060ff8560000160019054906101000a900460ff1660ff1614151515612c0757fe5b600092508460010160008660000160019054906101000a900460ff1660ff1660ff1681526020019081526020016000209150600090505b8180549050811015612c97578360ff168282815481101515612c5c57fe5b90600052602060002090602091828204019190069054906101000a900460ff1660ff161415612c8a57600192505b8080600101915050612c3e565b60011515831515141515612caa57600080fd5b5050505050565b60008060019150600090505b601980549050811015612d185760011515601982815481101515612cdd57fe5b90600052602060002090602091828204019190069054906101000a900460ff161515141515612d0b57600091505b8080600101915050612cbd565b5090565b60008090505b601580549050811015612d5a5742601882815481101515612d3f57fe5b90600052602060002001819055508080600101915050612d22565b50565b6000601681612d6c919061325e565b506000601581612d7c919061325e565b506000601781612d8c919061328a565b506000601981612d9c91906132b6565b506000601881612dac91906132f0565b50565b60008060019150600090505b601a80549050811015612e165760011515601a82815481101515612ddb57fe5b90600052602060002090602091828204019190069054906101000a900460ff161515141515612e0957600091505b8080600101915050612dbb565b5090565b60008090508360000160019054906101000a900460ff1660ff168360ff161415612e4357600190505b8360000160019054906101000a900460ff1660ff168260ff161415612e6757600190505b60011515811515141515612e7a57600080fd5b50505050565b6000600160ff16600d60000160019054906101000a900460ff1660ff161480612ec15750600360ff16600d60000160019054906101000a900460ff1660ff16145b80612ee45750600560ff16600d60000160019054906101000a900460ff1660ff16145b1515612eef57600080fd5b600090505b601580549050811015612fc357601581815481101515612f1057fe5b9060005260206000200160009054906101000a900473ffffffffffffffffffffffffffffffffffffffff1673ffffffffffffffffffffffffffffffffffffffff1663b07c74756040518163ffffffff167c0100000000000000000000000000000000000000000000000000000000028152600401600060405180830381600087803b158015612f9e57600080fd5b505af1158015612fb2573d6000803e3d6000fd5b505050508080600101915050612ef4565b600560ff16600d60000160019054906101000a900460ff1660ff161415612ff357612fee6006611fba565b612ffe565b612ffd6002611fba565b5b50565b828054600181600116156101000203166002900490600052602060002090601f016020900481019282601f1061304257803560ff1916838001178555613070565b82800160010185558215613070579182015b8281111561306f578235825591602001919060010190613054565b5b50905061307d919061331c565b5090565b8280548282559060005260206000209081019282156130fa579160200282015b828111156130f95782518260006101000a81548173ffffffffffffffffffffffffffffffffffffffff021916908373ffffffffffffffffffffffffffffffffffffffff160217905550916020019190600101906130a1565b5b5090506131079190613341565b5090565b828054828255906000526020600020908101928215613147579160200282015b8281111561314657825182559160200191906001019061312b565b5b509050613154919061331c565b5090565b82805482825590600052602060002090601f016020900481019282156131ed5791602002820160005b838211156131be57835183826101000a81548160ff0219169083151502179055509260200192600101602081600001049283019260010302613181565b80156131eb5782816101000a81549060ff02191690556001016020816000010492830192600103026131be565b505b5090506131fa9190613384565b5090565b82805482825590600052602060002090810192821561324d579160200282015b8281111561324c57825182908051906020019061323c9291906133b4565b509160200191906001019061321e565b5b50905061325a9190613434565b5090565b81548183558181111561328557818360005260206000209182019101613284919061331c565b5b505050565b8154818355818111156132b1578183600052602060002091820191016132b09190613434565b5b505050565b8154818355818111156132eb57601f016020900481601f016020900483600052602060002091820191016132ea919061331c565b5b505050565b81548183558181111561331757818360005260206000209182019101613316919061331c565b5b505050565b61333e91905b8082111561333a576000816000905550600101613322565b5090565b90565b61338191905b8082111561337d57600081816101000a81549073ffffffffffffffffffffffffffffffffffffffff021916905550600101613347565b5090565b90565b6133b191905b808211156133ad57600081816101000a81549060ff02191690555060010161338a565b5090565b90565b828054600181600116156101000203166002900490600052602060002090601f016020900481019282601f106133f557805160ff1916838001178555613423565b82800160010185558215613423579182015b82811115613422578251825591602001919060010190613407565b5b509050613430919061331c565b5090565b61345d91905b8082111561345957600081816134509190613460565b5060010161343a565b5090565b90565b50805460018160011615610100020316600290046000825580601f1061348657506134a5565b601f0160209004906000526020600020908101906134a4919061331c565b5b50565b6040805190810160405280601181526020017f5f696e697453746174654d616368696e6500000000000000000000000000000081525060001515600c826040518082805190602001908083835b60208310151561351a57805182526020820191506020810190506020830392506134f5565b6001836020036101000a038019825116818451168082178552505050505050905001915050908152602001604051809103902060009054906101000a900460ff16151514151561356957600080fd5b613573600d6135fa565b6001600c826040518082805190602001908083835b6020831015156135ad5780518252602082019150602081019050602083039250613588565b6001836020036101000a038019825116818451168082178552505050505050905001915050908152602001604051809103902060006101000a81548160ff02191690831515021790555050565b600015158160000160009054906101000a900460ff16151514151561361e57600080fd5b60018160000160016101000a81548160ff021916908360ff16021790555060018160000160006101000a81548160ff021916908315150217905550505600a165627a7a7230582009e2a26adfeba155f5c8f94bf91cab491553ff62737631d59d724a0184c801790029a165627a7a72305820c098b1ef5ba6db96a79e51dfb39a6bdea79725b9ccb4507476f94ec506081fda0029",
  "source": "pragma solidity ^0.4.23;\n\nimport \"openzeppelin-solidity/contracts/ownership/Ownable.sol\";\nimport \"../../jobs/CognitiveJob.sol\";\nimport \"../../entities/IDataEntity.sol\";\nimport \"../../entities/IDataset.sol\";\nimport \"../../entities/IKernel.sol\";\nimport \"../../nodes/IWorkerNode.sol\";\nimport \"../IPandora.sol\";\n\ncontract CognitiveJobFactory is Ownable {\n    constructor() public { }\n\n    function create(\n        IKernel _kernel,\n        IDataset _dataset,\n        IWorkerNode[] _workersPool,\n        uint256 _complexity,\n        bytes32 _description\n    )\n    onlyOwner\n    external\n    returns (CognitiveJob o_cognitiveJob) {\n        // Creating job\n        o_cognitiveJob = new CognitiveJob(\n            IPandora(owner), _kernel, _dataset, _workersPool, _complexity, _description);\n\n//        // Checking that it was created correctly\n//        assert(o_cognitiveJob != CognitiveJob(0));\n\n        // Transferring ownership to the main Pandora contract (which owns this factory)\n        o_cognitiveJob.transferOwnership(owner);\n    }\n}\n",
  "sourcePath": "/home/kostysh/dev/pyrrha-consensus/contracts/pandora/factories/CognitiveJobFactory.sol",
  "compiler": {
    "name": "solc",
    "version": "0.4.24+commit.e67f0147.Emscripten.clang"
  },
  "schemaVersion": "2.0.0",
  "updatedAt": "2018-06-28T15:40:02.908Z"
}