{
  "contractName": "CognitiveJobManager",
  "abi": [
    {
      "constant": true,
      "inputs": [],
      "name": "workerNodesCount",
      "outputs": [
        {
          "name": "",
          "type": "uint256"
        }
      ],
      "payable": false,
      "stateMutability": "view",
      "type": "function"
    },
    {
      "constant": false,
      "inputs": [
        {
          "name": "_workerOwner",
          "type": "address"
        }
      ],
      "name": "whitelistWorkerOwner",
      "outputs": [],
      "payable": false,
      "stateMutability": "nonpayable",
      "type": "function"
    },
    {
      "constant": true,
      "inputs": [],
      "name": "initialized",
      "outputs": [
        {
          "name": "",
          "type": "bool"
        }
      ],
      "payable": false,
      "stateMutability": "view",
      "type": "function"
    },
    {
      "constant": true,
      "inputs": [
        {
          "name": "",
          "type": "uint256"
        }
      ],
      "name": "workerNodes",
      "outputs": [
        {
          "name": "",
          "type": "address"
        }
      ],
      "payable": false,
      "stateMutability": "view",
      "type": "function"
    },
    {
      "constant": true,
      "inputs": [],
      "name": "RESULT_CODE_JOB_CREATED",
      "outputs": [
        {
          "name": "",
          "type": "uint8"
        }
      ],
      "payable": false,
      "stateMutability": "view",
      "type": "function"
    },
    {
      "constant": true,
      "inputs": [],
      "name": "jobController",
      "outputs": [
        {
          "name": "",
          "type": "address"
        }
      ],
      "payable": false,
      "stateMutability": "view",
      "type": "function"
    },
    {
      "constant": false,
      "inputs": [
        {
          "name": "_guiltyWorker",
          "type": "address"
        },
        {
          "name": "_reason",
          "type": "uint8"
        }
      ],
      "name": "penaltizeWorkerNode",
      "outputs": [],
      "payable": false,
      "stateMutability": "nonpayable",
      "type": "function"
    },
    {
      "constant": true,
      "inputs": [
        {
          "name": "",
          "type": "address"
        }
      ],
      "name": "workerNodeOwners",
      "outputs": [
        {
          "name": "",
          "type": "bool"
        }
      ],
      "payable": false,
      "stateMutability": "view",
      "type": "function"
    },
    {
      "constant": false,
      "inputs": [],
      "name": "renounceOwnership",
      "outputs": [],
      "payable": false,
      "stateMutability": "nonpayable",
      "type": "function"
    },
    {
      "constant": false,
      "inputs": [
        {
          "name": "_workerOwner",
          "type": "address"
        }
      ],
      "name": "blacklistWorkerOwner",
      "outputs": [],
      "payable": false,
      "stateMutability": "nonpayable",
      "type": "function"
    },
    {
      "constant": false,
      "inputs": [],
      "name": "initialize",
      "outputs": [],
      "payable": false,
      "stateMutability": "nonpayable",
      "type": "function"
    },
    {
      "constant": true,
      "inputs": [],
      "name": "RESULT_CODE_ADD_TO_QUEUE",
      "outputs": [
        {
          "name": "",
          "type": "uint8"
        }
      ],
      "payable": false,
      "stateMutability": "view",
      "type": "function"
    },
    {
      "constant": false,
      "inputs": [],
      "name": "createWorkerNode",
      "outputs": [
        {
          "name": "",
          "type": "address"
        }
      ],
      "payable": false,
      "stateMutability": "nonpayable",
      "type": "function"
    },
    {
      "constant": true,
      "inputs": [],
      "name": "owner",
      "outputs": [
        {
          "name": "",
          "type": "address"
        }
      ],
      "payable": false,
      "stateMutability": "view",
      "type": "function"
    },
    {
      "constant": false,
      "inputs": [
        {
          "name": "_workerNode",
          "type": "address"
        }
      ],
      "name": "destroyWorkerNode",
      "outputs": [],
      "payable": false,
      "stateMutability": "nonpayable",
      "type": "function"
    },
    {
      "constant": true,
      "inputs": [],
      "name": "REQUIRED_DEPOSIT",
      "outputs": [
        {
          "name": "",
          "type": "uint256"
        }
      ],
      "payable": false,
      "stateMutability": "view",
      "type": "function"
    },
    {
      "constant": true,
      "inputs": [],
      "name": "reputation",
      "outputs": [
        {
          "name": "",
          "type": "address"
        }
      ],
      "payable": false,
      "stateMutability": "view",
      "type": "function"
    },
    {
      "constant": false,
      "inputs": [
        {
          "name": "_newOwner",
          "type": "address"
        }
      ],
      "name": "transferOwnership",
      "outputs": [],
      "payable": false,
      "stateMutability": "nonpayable",
      "type": "function"
    },
    {
      "constant": true,
      "inputs": [],
      "name": "workerNodeFactory",
      "outputs": [
        {
          "name": "",
          "type": "address"
        }
      ],
      "payable": false,
      "stateMutability": "view",
      "type": "function"
    },
    {
      "constant": true,
      "inputs": [
        {
          "name": "",
          "type": "address"
        }
      ],
      "name": "deposits",
      "outputs": [
        {
          "name": "",
          "type": "uint256"
        }
      ],
      "payable": false,
      "stateMutability": "view",
      "type": "function"
    },
    {
      "constant": true,
      "inputs": [
        {
          "name": "",
          "type": "address"
        }
      ],
      "name": "workerAddresses",
      "outputs": [
        {
          "name": "",
          "type": "uint16"
        }
      ],
      "payable": false,
      "stateMutability": "view",
      "type": "function"
    },
    {
      "inputs": [
        {
          "name": "_jobController",
          "type": "address"
        },
        {
          "name": "_nodeFactory",
          "type": "address"
        },
        {
          "name": "_reputation",
          "type": "address"
        }
      ],
      "payable": false,
      "stateMutability": "nonpayable",
      "type": "constructor"
    },
    {
      "anonymous": false,
      "inputs": [
        {
          "indexed": false,
          "name": "jobId",
          "type": "bytes32"
        }
      ],
      "name": "CognitiveJobCreated",
      "type": "event"
    },
    {
      "anonymous": false,
      "inputs": [
        {
          "indexed": false,
          "name": "jobId",
          "type": "bytes32"
        }
      ],
      "name": "CognitiveJobQueued",
      "type": "event"
    },
    {
      "anonymous": false,
      "inputs": [
        {
          "indexed": false,
          "name": "workerNode",
          "type": "address"
        }
      ],
      "name": "WorkerNodeCreated",
      "type": "event"
    },
    {
      "anonymous": false,
      "inputs": [
        {
          "indexed": false,
          "name": "workerNode",
          "type": "address"
        }
      ],
      "name": "WorkerNodeDestroyed",
      "type": "event"
    },
    {
      "anonymous": false,
      "inputs": [
        {
          "indexed": true,
          "name": "previousOwner",
          "type": "address"
        }
      ],
      "name": "OwnershipRenounced",
      "type": "event"
    },
    {
      "anonymous": false,
      "inputs": [
        {
          "indexed": true,
          "name": "previousOwner",
          "type": "address"
        },
        {
          "indexed": true,
          "name": "newOwner",
          "type": "address"
        }
      ],
      "name": "OwnershipTransferred",
      "type": "event"
    },
    {
      "constant": false,
      "inputs": [],
      "name": "checkJobQueue",
      "outputs": [],
      "payable": false,
      "stateMutability": "nonpayable",
      "type": "function"
    },
    {
      "constant": false,
      "inputs": [
        {
          "name": "_kernel",
          "type": "address"
        },
        {
          "name": "_dataset",
          "type": "address"
        },
        {
          "name": "_complexity",
          "type": "uint256"
        },
        {
          "name": "_description",
          "type": "bytes32"
        }
      ],
      "name": "createCognitiveJob",
      "outputs": [
        {
          "name": "o_jobId",
          "type": "bytes32"
        },
        {
          "name": "o_resultCode",
          "type": "uint8"
        }
      ],
      "payable": true,
      "stateMutability": "payable",
      "type": "function"
    },
    {
      "constant": false,
      "inputs": [],
      "name": "getQueueDepth",
      "outputs": [
        {
          "name": "",
          "type": "uint256"
        }
      ],
      "payable": false,
      "stateMutability": "nonpayable",
      "type": "function"
    },
    {
      "constant": false,
      "inputs": [
        {
          "name": "_jobId",
          "type": "bytes32"
        },
        {
          "name": "_ipfsResults",
          "type": "bytes"
        }
      ],
      "name": "provideResults",
      "outputs": [],
      "payable": false,
      "stateMutability": "nonpayable",
      "type": "function"
    },
    {
      "constant": false,
      "inputs": [
        {
          "name": "_jobId",
          "type": "bytes32"
        },
        {
          "name": "_responseType",
          "type": "uint8"
        },
        {
          "name": "_response",
          "type": "bool"
        }
      ],
      "name": "respondToJob",
      "outputs": [],
      "payable": false,
      "stateMutability": "nonpayable",
      "type": "function"
    },
    {
      "constant": false,
      "inputs": [
        {
          "name": "_jobId",
          "type": "bytes32"
        },
        {
          "name": "_percent",
          "type": "uint8"
        }
      ],
      "name": "commitProgress",
      "outputs": [],
      "payable": false,
      "stateMutability": "nonpayable",
      "type": "function"
    }
  ],
  "bytecode": "0x608060405260008060006101000a81548160ff0219169083151502179055503480156200002b57600080fd5b506040516060806200379e8339810180604052810190808051906020019092919080519060200190929190805190602001909291905050508160008060006101000a81548160ff02191690831515021790555033600060016101000a81548173ffffffffffffffffffffffffffffffffffffffff021916908373ffffffffffffffffffffffffffffffffffffffff160217905550600073ffffffffffffffffffffffffffffffffffffffff168173ffffffffffffffffffffffffffffffffffffffff1614151515620000fc57600080fd5b80600460006101000a81548173ffffffffffffffffffffffffffffffffffffffff021916908373ffffffffffffffffffffffffffffffffffffffff1602179055505082600e60006101000a81548173ffffffffffffffffffffffffffffffffffffffff021916908373ffffffffffffffffffffffffffffffffffffffff16021790555080600860006101000a81548173ffffffffffffffffffffffffffffffffffffffff021916908373ffffffffffffffffffffffffffffffffffffffff160217905550620001ca62000231565b604051809103906000f080158015620001e7573d6000803e3d6000fd5b50600a60006101000a81548173ffffffffffffffffffffffffffffffffffffffff021916908373ffffffffffffffffffffffffffffffffffffffff16021790555050505062000242565b604051610165806200363983390190565b6133e780620002526000396000f30060806040526004361061015f576000357c0100000000000000000000000000000000000000000000000000000000900463ffffffff1680630e3b581f1461016457806313b5165f1461018f578063158ef93e146101d25780631dc20af41461020157806323ce524a1461026e5780632f853d861461029f5780635ef17776146102f6578063687fbdff1461034657806370064e3314610384578063715018a6146103df5780637b3c611c146103f65780637e58bf1e146104395780638129fc1c1461046457806383c94c691461047b57806386b07332146104ac5780638da5cb5b14610503578063a3e27fc91461055a578063ae1092ae14610571578063b0e79d9b146105b4578063bbcc7261146105fe578063be64b76b14610647578063c52164c614610672578063ea84546b146106c9578063f2fde38b14610760578063f9d84ade146107a3578063fc7e286d146107fa578063fdb5b8d414610851575b600080fd5b34801561017057600080fd5b506101796108b0565b6040518082815260200191505060405180910390f35b34801561019b57600080fd5b506101d0600480360381019080803573ffffffffffffffffffffffffffffffffffffffff1690602001909291905050506108de565b005b3480156101de57600080fd5b506101e7610995565b604051808215151515815260200191505060405180910390f35b34801561020d57600080fd5b5061022c600480360381019080803590602001909291905050506109a7565b604051808273ffffffffffffffffffffffffffffffffffffffff1673ffffffffffffffffffffffffffffffffffffffff16815260200191505060405180910390f35b34801561027a57600080fd5b506102836109e5565b604051808260ff1660ff16815260200191505060405180910390f35b3480156102ab57600080fd5b506102b46109ea565b604051808273ffffffffffffffffffffffffffffffffffffffff1673ffffffffffffffffffffffffffffffffffffffff16815260200191505060405180910390f35b34801561030257600080fd5b50610344600480360381019080803573ffffffffffffffffffffffffffffffffffffffff169060200190929190803560ff169060200190929190505050610a10565b005b34801561035257600080fd5b506103826004803603810190808035600019169060200190929190803560ff169060200190929190505050610a35565b005b34801561039057600080fd5b506103c5600480360381019080803573ffffffffffffffffffffffffffffffffffffffff169060200190929190505050610b2c565b604051808215151515815260200191505060405180910390f35b3480156103eb57600080fd5b506103f4610b4c565b005b34801561040257600080fd5b50610437600480360381019080803573ffffffffffffffffffffffffffffffffffffffff169060200190929190505050610c50565b005b34801561044557600080fd5b5061044e610cfe565b6040518082815260200191505060405180910390f35b34801561047057600080fd5b50610479610d0f565b005b34801561048757600080fd5b50610490610d2b565b604051808260ff1660ff16815260200191505060405180910390f35b3480156104b857600080fd5b506104c1610d30565b604051808273ffffffffffffffffffffffffffffffffffffffff1673ffffffffffffffffffffffffffffffffffffffff16815260200191505060405180910390f35b34801561050f57600080fd5b5061051861102a565b604051808273ffffffffffffffffffffffffffffffffffffffff1673ffffffffffffffffffffffffffffffffffffffff16815260200191505060405180910390f35b34801561056657600080fd5b5061056f611050565b005b34801561057d57600080fd5b506105b2600480360381019080803573ffffffffffffffffffffffffffffffffffffffff1690602001909291905050506113c0565b005b3480156105c057600080fd5b506105fc6004803603810190808035600019169060200190929190803560ff169060200190929190803515159060200190929190505050611912565b005b34801561060a57600080fd5b506106456004803603810190808035600019169060200190929190803590602001908201803590602001919091929391929390505050611a3a565b005b34801561065357600080fd5b5061065c611e1f565b6040518082815260200191505060405180910390f35b34801561067e57600080fd5b50610687611e2b565b604051808273ffffffffffffffffffffffffffffffffffffffff1673ffffffffffffffffffffffffffffffffffffffff16815260200191505060405180910390f35b610735600480360381019080803573ffffffffffffffffffffffffffffffffffffffff169060200190929190803573ffffffffffffffffffffffffffffffffffffffff169060200190929190803590602001909291908035600019169060200190929190505050611e51565b6040518083600019166000191681526020018260ff1660ff1681526020019250505060405180910390f35b34801561076c57600080fd5b506107a1600480360381019080803573ffffffffffffffffffffffffffffffffffffffff169060200190929190505050612246565b005b3480156107af57600080fd5b506107b86122ae565b604051808273ffffffffffffffffffffffffffffffffffffffff1673ffffffffffffffffffffffffffffffffffffffff16815260200191505060405180910390f35b34801561080657600080fd5b5061083b600480360381019080803573ffffffffffffffffffffffffffffffffffffffff1690602001909291905050506122d4565b6040518082815260200191505060405180910390f35b34801561085d57600080fd5b50610892600480360381019080803573ffffffffffffffffffffffffffffffffffffffff1690602001909291905050506122ec565b604051808261ffff1661ffff16815260200191505060405180910390f35b6000600115156000809054906101000a900460ff1615151415156108d357600080fd5b600580549050905090565b600060019054906101000a900473ffffffffffffffffffffffffffffffffffffffff1673ffffffffffffffffffffffffffffffffffffffff163373ffffffffffffffffffffffffffffffffffffffff1614151561093a57600080fd5b6001600760008373ffffffffffffffffffffffffffffffffffffffff1673ffffffffffffffffffffffffffffffffffffffff16815260200190815260200160002060006101000a81548160ff02191690831515021790555050565b6000809054906101000a900460ff1681565b6005818154811015156109b657fe5b906000526020600020016000915054906101000a900473ffffffffffffffffffffffffffffffffffffffff1681565b600181565b600e60009054906101000a900473ffffffffffffffffffffffffffffffffffffffff1681565b600115156000809054906101000a900460ff161515141515610a3157600080fd5b5050565b600e60009054906101000a900473ffffffffffffffffffffffffffffffffffffffff1673ffffffffffffffffffffffffffffffffffffffff1663c9b7b25b8333846040518463ffffffff167c01000000000000000000000000000000000000000000000000000000000281526004018084600019166000191681526020018373ffffffffffffffffffffffffffffffffffffffff1673ffffffffffffffffffffffffffffffffffffffff1681526020018260ff1660ff1681526020019350505050600060405180830381600087803b158015610b1057600080fd5b505af1158015610b24573d6000803e3d6000fd5b505050505050565b60076020528060005260406000206000915054906101000a900460ff1681565b600060019054906101000a900473ffffffffffffffffffffffffffffffffffffffff1673ffffffffffffffffffffffffffffffffffffffff163373ffffffffffffffffffffffffffffffffffffffff16141515610ba857600080fd5b600060019054906101000a900473ffffffffffffffffffffffffffffffffffffffff1673ffffffffffffffffffffffffffffffffffffffff167ff8df31144d9c2f0f6b59d69b8b98abd5459d07f2742c4df920b25aae33c6482060405160405180910390a260008060016101000a81548173ffffffffffffffffffffffffffffffffffffffff021916908373ffffffffffffffffffffffffffffffffffffffff160217905550565b600060019054906101000a900473ffffffffffffffffffffffffffffffffffffffff1673ffffffffffffffffffffffffffffffffffffffff163373ffffffffffffffffffffffffffffffffffffffff16141515610cac57600080fd5b600760008273ffffffffffffffffffffffffffffffffffffffff1673ffffffffffffffffffffffffffffffffffffffff16815260200190815260200160002060006101000a81549060ff021916905550565b6000610d0a600b61230d565b905090565b60016000806101000a81548160ff021916908315150217905550565b600081565b600080600115156000809054906101000a900460ff161515141515610d5457600080fd5b60011515600760003373ffffffffffffffffffffffffffffffffffffffff1673ffffffffffffffffffffffffffffffffffffffff16815260200190815260200160002060009054906101000a900460ff161515141515610db357600080fd5b3273ffffffffffffffffffffffffffffffffffffffff163373ffffffffffffffffffffffffffffffffffffffff16141515610ded57600080fd5b600d600580549050101515610e0157600080fd5b600460009054906101000a900473ffffffffffffffffffffffffffffffffffffffff1673ffffffffffffffffffffffffffffffffffffffff16639ed93318336040518263ffffffff167c0100000000000000000000000000000000000000000000000000000000028152600401808273ffffffffffffffffffffffffffffffffffffffff1673ffffffffffffffffffffffffffffffffffffffff168152602001915050602060405180830381600087803b158015610ebe57600080fd5b505af1158015610ed2573d6000803e3d6000fd5b505050506040513d6020811015610ee857600080fd5b8101908080519060200190929190505050905060058190806001815401808255809150509060018203906000526020600020016000909192909190916101000a81548173ffffffffffffffffffffffffffffffffffffffff021916908373ffffffffffffffffffffffffffffffffffffffff16021790555050600580549050600660008373ffffffffffffffffffffffffffffffffffffffff1673ffffffffffffffffffffffffffffffffffffffff16815260200190815260200160002060006101000a81548161ffff021916908361ffff1602179055507f093794466f44429afc8d8ec2c4c7f42c98d5db9b3db965ce46a31e7d4f7c29c881604051808273ffffffffffffffffffffffffffffffffffffffff1673ffffffffffffffffffffffffffffffffffffffff16815260200191505060405180910390a18091505090565b600060019054906101000a900473ffffffffffffffffffffffffffffffffffffffff1681565b6110586132ee565b6000806000806060600080606080600080600080611076600b61230d565b9c5060018d60ff1611611089578c61108c565b60015b9c5060009b505b8c60ff168c60ff1610156113b0575a9a506110ac612324565b995060008a1115156110bd576113b0565b6110c68a612516565b98508851975089881415156110da576113b0565b6110ee88600b6127c390919063ffffffff16565b15156110f9576113b0565b611103600b6127ec565b809850819f505050611119898f6060015161281b565b9550855160405190808252806020026020018201604052801561114b5781602001602082028038833980820191505090505b509450600093505b84518460ff1610156111d457858460ff1681518110151561117057fe5b90602001906020020151858560ff1681518110151561118b57fe5b9060200190602002019073ffffffffffffffffffffffffffffffffffffffff16908173ffffffffffffffffffffffffffffffffffffffff16815250508380600101945050611153565b6111de8e876129bf565b9250600091505b85518260ff1610156112a757858260ff1681518110151561120257fe5b9060200190602002015173ffffffffffffffffffffffffffffffffffffffff16637aee7e09846040518263ffffffff167c0100000000000000000000000000000000000000000000000000000000028152600401808260001916600019168152602001915050600060405180830381600087803b15801561128257600080fd5b505af1158015611296573d6000803e3d6000fd5b5050505083806001019450506111e5565b7f11a21264ecb93e14000906dc00b4753fd6eec24f9f0f1b4305a1a04740b3023e8360405180826000191660001916815260200191505060405180910390a13a5a8c61dea801030290508681116112fe5780611300565b865b90503373ffffffffffffffffffffffffffffffffffffffff166108fc829081150290604051600060405180830381858888f19350505050158015611348573d6000803e3d6000fd5b5060008188031415156113a3578d6040015173ffffffffffffffffffffffffffffffffffffffff166108fc8289039081150290604051600060405180830381858888f193505050501580156113a1573d6000803e3d6000fd5b505b8b806001019c5050611093565b5050505050505050505050505050565b60008060008360003390508173ffffffffffffffffffffffffffffffffffffffff16638da5cb5b6040518163ffffffff167c0100000000000000000000000000000000000000000000000000000000028152600401602060405180830381600087803b15801561142f57600080fd5b505af1158015611443573d6000803e3d6000fd5b505050506040513d602081101561145957600080fd5b810190808051906020019092919050505073ffffffffffffffffffffffffffffffffffffffff168173ffffffffffffffffffffffffffffffffffffffff161415156114a357600080fd5b6000600660008373ffffffffffffffffffffffffffffffffffffffff1673ffffffffffffffffffffffffffffffffffffffff16815260200190815260200160002060009054906101000a900461ffff1661ffff1611151561150357600080fd5b600115156000809054906101000a900460ff16151514151561152457600080fd5b3394508573ffffffffffffffffffffffffffffffffffffffff1663ae897c556040518163ffffffff167c0100000000000000000000000000000000000000000000000000000000028152600401602060405180830381600087803b15801561158b57600080fd5b505af115801561159f573d6000803e3d6000fd5b505050506040513d60208110156115b557600080fd5b810190808051906020019092919050505060ff168673ffffffffffffffffffffffffffffffffffffffff16630c3f6acf6040518163ffffffff167c0100000000000000000000000000000000000000000000000000000000028152600401602060405180830381600087803b15801561162d57600080fd5b505af1158015611641573d6000803e3d6000fd5b505050506040513d602081101561165757600080fd5b810190808051906020019092919050505060ff1614151561167757600080fd5b8573ffffffffffffffffffffffffffffffffffffffff166383197ef06040518163ffffffff167c0100000000000000000000000000000000000000000000000000000000028152600401600060405180830381600087803b1580156116db57600080fd5b505af11580156116ef573d6000803e3d6000fd5b505050506001600660008773ffffffffffffffffffffffffffffffffffffffff1673ffffffffffffffffffffffffffffffffffffffff16815260200190815260200160002060009054906101000a900461ffff16039350600660008673ffffffffffffffffffffffffffffffffffffffff1673ffffffffffffffffffffffffffffffffffffffff16815260200190815260200160002060006101000a81549061ffff021916905560056001600580549050038154811015156117ad57fe5b9060005260206000200160009054906101000a900473ffffffffffffffffffffffffffffffffffffffff1660058561ffff168154811015156117eb57fe5b9060005260206000200160006101000a81548173ffffffffffffffffffffffffffffffffffffffff021916908373ffffffffffffffffffffffffffffffffffffffff1602179055925060018401600660008573ffffffffffffffffffffffffffffffffffffffff1673ffffffffffffffffffffffffffffffffffffffff16815260200190815260200160002060006101000a81548161ffff021916908361ffff16021790555060058054809190600190036118a6919061336a565b507f677f03e392472a48b617167ed4dbec758d26d8517257ec077bed2d27d192816486604051808273ffffffffffffffffffffffffffffffffffffffff1673ffffffffffffffffffffffffffffffffffffffff16815260200191505060405180910390a1505050505050565b600e60009054906101000a900473ffffffffffffffffffffffffffffffffffffffff1673ffffffffffffffffffffffffffffffffffffffff16634028d76c843385856040518563ffffffff167c01000000000000000000000000000000000000000000000000000000000281526004018085600019166000191681526020018473ffffffffffffffffffffffffffffffffffffffff1673ffffffffffffffffffffffffffffffffffffffff1681526020018360ff1660ff16815260200182151515158152602001945050505050602060405180830381600087803b1580156119f957600080fd5b505af1158015611a0d573d6000803e3d6000fd5b505050506040513d6020811015611a2357600080fd5b810190808051906020019092919050505050505050565b600060606000600e60009054906101000a900473ffffffffffffffffffffffffffffffffffffffff1673ffffffffffffffffffffffffffffffffffffffff16633b183eb5873388886040518563ffffffff167c01000000000000000000000000000000000000000000000000000000000281526004018085600019166000191681526020018473ffffffffffffffffffffffffffffffffffffffff1673ffffffffffffffffffffffffffffffffffffffff168152602001806020018281038252848482818152602001925080828437820191505095505050505050602060405180830381600087803b158015611b2f57600080fd5b505af1158015611b43573d6000803e3d6000fd5b505050506040513d6020811015611b5957600080fd5b810190808051906020019092919050505015611e1757600e60009054906101000a900473ffffffffffffffffffffffffffffffffffffffff1673ffffffffffffffffffffffffffffffffffffffff166339d9de64876040518263ffffffff167c0100000000000000000000000000000000000000000000000000000000028152600401808260001916600019168152602001915050600060405180830381600087803b158015611c0857600080fd5b505af1158015611c1c573d6000803e3d6000fd5b505050506040513d6000823e3d601f19601f8201168201806040525060e0811015611c4657600080fd5b81019080805190602001909291908051906020019092919080519060200190929190805190602001909291908051640100000000811115611c8657600080fd5b82810190506020810184811115611c9c57600080fd5b8151856020820283011164010000000082111715611cb957600080fd5b5050929190602001805190602001909291908051906020019092919050505090919293949550909192939450909192509050508093508194505050600090505b815181111515611e1657600860009054906101000a900473ffffffffffffffffffffffffffffffffffffffff1673ffffffffffffffffffffffffffffffffffffffff1663e6808ff08383815181101515611d4f57fe5b90602001906020020151611d6c8487612a0790919063ffffffff16565b6040518363ffffffff167c0100000000000000000000000000000000000000000000000000000000028152600401808373ffffffffffffffffffffffffffffffffffffffff1673ffffffffffffffffffffffffffffffffffffffff16815260200182815260200192505050600060405180830381600087803b158015611df157600080fd5b505af1158015611e05573d6000803e3d6000fd5b505050508080600101915050611cf9565b5b505050505050565b6706f05b59d3b2000081565b600860009054906101000a900473ffffffffffffffffffffffffffffffffffffffff1681565b6000806000806060808873ffffffffffffffffffffffffffffffffffffffff166387ea09616040518163ffffffff167c0100000000000000000000000000000000000000000000000000000000028152600401602060405180830381600087803b158015611ebe57600080fd5b505af1158015611ed2573d6000803e3d6000fd5b505050506040513d6020811015611ee857600080fd5b81019080805190602001909291905050509350600a8460ff1611151515611f0e57600080fd5b8873ffffffffffffffffffffffffffffffffffffffff1663b1f8d9ba6040518163ffffffff167c0100000000000000000000000000000000000000000000000000000000028152600401602060405180830381600087803b158015611f7257600080fd5b505af1158015611f86573d6000803e3d6000fd5b505050506040513d6020811015611f9c57600080fd5b81019080805190602001909291905050508a73ffffffffffffffffffffffffffffffffffffffff1663b1f8d9ba6040518163ffffffff167c0100000000000000000000000000000000000000000000000000000000028152600401602060405180830381600087803b15801561201157600080fd5b505af1158015612025573d6000803e3d6000fd5b505050506040513d602081101561203b57600080fd5b810190808051906020019092919050505014151561205857600080fd5b6706f05b59d3b20000341015151561206f57600080fd5b612077612324565b92508360ff1683101561218557600094506120ab8a8a33348860ff168d8d600b612a1d90979695949392919063ffffffff16565b506120fe34600960003373ffffffffffffffffffffffffffffffffffffffff1673ffffffffffffffffffffffffffffffffffffffff16815260200190815260200160002054612c2290919063ffffffff16565b600960003373ffffffffffffffffffffffffffffffffffffffff1673ffffffffffffffffffffffffffffffffffffffff168152602001908152602001600020819055507f2c45d5fba2a924464674ba6274086714ee596687cf6a6110111b80abe05f28b38660405180826000191660001916815260200191505060405180910390a1612239565b3373ffffffffffffffffffffffffffffffffffffffff166108fc349081150290604051600060405180830381858888f193505050501580156121cb573d6000803e3d6000fd5b506121d583612516565b91506121e4828560ff1661281b565b90506121f38a8a838b8b612c3e565b9550600194507f11a21264ecb93e14000906dc00b4753fd6eec24f9f0f1b4305a1a04740b3023e8660405180826000191660001916815260200191505060405180910390a15b5050505094509492505050565b600060019054906101000a900473ffffffffffffffffffffffffffffffffffffffff1673ffffffffffffffffffffffffffffffffffffffff163373ffffffffffffffffffffffffffffffffffffffff161415156122a257600080fd5b6122ab81612f72565b50565b600460009054906101000a900473ffffffffffffffffffffffffffffffffffffffff1681565b60096020528060005260406000206000915090505481565b60066020528060005260406000206000915054906101000a900461ffff1681565b600081600201548260000180549050039050919050565b60008060009150600090505b60058054905081101561250f5760058181548110151561234c57fe5b9060005260206000200160009054906101000a900473ffffffffffffffffffffffffffffffffffffffff1673ffffffffffffffffffffffffffffffffffffffff1663ae897c556040518163ffffffff167c0100000000000000000000000000000000000000000000000000000000028152600401602060405180830381600087803b1580156123da57600080fd5b505af11580156123ee573d6000803e3d6000fd5b505050506040513d602081101561240457600080fd5b810190808051906020019092919050505060ff1660058281548110151561242757fe5b9060005260206000200160009054906101000a900473ffffffffffffffffffffffffffffffffffffffff1673ffffffffffffffffffffffffffffffffffffffff16630c3f6acf6040518163ffffffff167c0100000000000000000000000000000000000000000000000000000000028152600401602060405180830381600087803b1580156124b557600080fd5b505af11580156124c9573d6000803e3d6000fd5b505050506040513d60208110156124df57600080fd5b810190808051906020019092919050505060ff1614156125025781806001019250505b8080600101915050612330565b8191505090565b6060806000808460405190808252806020026020018201604052801561254b5781602001602082028038833980820191505090505b50925060009150600090505b6005805490508110156127b85760058181548110151561257357fe5b9060005260206000200160009054906101000a900473ffffffffffffffffffffffffffffffffffffffff1673ffffffffffffffffffffffffffffffffffffffff1663ae897c556040518163ffffffff167c0100000000000000000000000000000000000000000000000000000000028152600401602060405180830381600087803b15801561260157600080fd5b505af1158015612615573d6000803e3d6000fd5b505050506040513d602081101561262b57600080fd5b810190808051906020019092919050505060ff1660058281548110151561264e57fe5b9060005260206000200160009054906101000a900473ffffffffffffffffffffffffffffffffffffffff1673ffffffffffffffffffffffffffffffffffffffff16630c3f6acf6040518163ffffffff167c0100000000000000000000000000000000000000000000000000000000028152600401602060405180830381600087803b1580156126dc57600080fd5b505af11580156126f0573d6000803e3d6000fd5b505050506040513d602081101561270657600080fd5b810190808051906020019092919050505060ff1614156127ab5760058181548110151561272f57fe5b9060005260206000200160009054906101000a900473ffffffffffffffffffffffffffffffffffffffff16838380600101945081518110151561276e57fe5b9060200190602002019073ffffffffffffffffffffffffffffffffffffffff16908173ffffffffffffffffffffffffffffffffffffffff16815250505b8080600101915050612557565b829350505050919050565b60006127cd6132ee565b6127d68461306e565b5080915050828160600151111591505092915050565b6127f46132ee565b60006127ff8361306e565b8092508193505050612810836131fb565b818191509150915091565b60606000808360405190808252806020026020018201604052801561284f5781602001602082028038833980820191505090505b509250600a60009054906101000a900473ffffffffffffffffffffffffffffffffffffffff1673ffffffffffffffffffffffffffffffffffffffff1663cd4b691484516040518263ffffffff167c010000000000000000000000000000000000000000000000000000000002815260040180828152602001915050602060405180830381600087803b1580156128e457600080fd5b505af11580156128f8573d6000803e3d6000fd5b505050506040513d602081101561290e57600080fd5b81019080805190602001909291905050509150600090505b82518110156129b757848281518110151561293d57fe5b90602001906020020151838281518110151561295557fe5b9060200190602002019073ffffffffffffffffffffffffffffffffffffffff16908173ffffffffffffffffffffffffffffffffffffffff1681525050600183510382146129a557600182016129a8565b60005b91508080600101915050612926565b505092915050565b6000600115156000809054906101000a900460ff1615151415156129e257600080fd5b6129ff836000015184602001518486608001518760a00151612c3e565b905092915050565b60008183811515612a1457fe5b04905092915050565b6000886000018054905060018a6000018054905001111515612a3e57600080fd5b8860000160c0604051908101604052808a73ffffffffffffffffffffffffffffffffffffffff1681526020018973ffffffffffffffffffffffffffffffffffffffff1681526020018873ffffffffffffffffffffffffffffffffffffffff16815260200186815260200185815260200184600019168152509080600181540180825580915050906001820390600052602060002090600602016000909192909190915060008201518160000160006101000a81548173ffffffffffffffffffffffffffffffffffffffff021916908373ffffffffffffffffffffffffffffffffffffffff16021790555060208201518160010160006101000a81548173ffffffffffffffffffffffffffffffffffffffff021916908373ffffffffffffffffffffffffffffffffffffffff16021790555060408201518160020160006101000a81548173ffffffffffffffffffffffffffffffffffffffff021916908373ffffffffffffffffffffffffffffffffffffffff160217905550606082015181600301556080820151816004015560a0820151816005019060001916905550505088600101859080600181540180825580915050906001820390600052602060002001600090919290919091505550612c148961230d565b905098975050505050505050565b60008183019050828110151515612c3557fe5b80905092915050565b60006060600080600115156000809054906101000a900460ff161515141515612c6657600080fd5b8651604051908082528060200260200182016040528015612c965781602001602082028038833980820191505090505b509250600091505b8251821015612d16578682815181101515612cb557fe5b906020019060200201518383815181101515612ccd57fe5b9060200190602002019073ffffffffffffffffffffffffffffffffffffffff16908173ffffffffffffffffffffffffffffffffffffffff16815250508180600101925050612c9e565b600e60009054906101000a900473ffffffffffffffffffffffffffffffffffffffff1673ffffffffffffffffffffffffffffffffffffffff16633605853f8a8a868a8a6040518663ffffffff167c0100000000000000000000000000000000000000000000000000000000028152600401808673ffffffffffffffffffffffffffffffffffffffff1673ffffffffffffffffffffffffffffffffffffffff1681526020018573ffffffffffffffffffffffffffffffffffffffff1673ffffffffffffffffffffffffffffffffffffffff168152602001806020018481526020018360001916600019168152602001828103825285818151815260200191508051906020019060200280838360005b83811015612e3f578082015181840152602081019050612e24565b505050509050019650505050505050602060405180830381600087803b158015612e6857600080fd5b505af1158015612e7c573d6000803e3d6000fd5b505050506040513d6020811015612e9257600080fd5b81019080805190602001909291905050509350600090505b8651811015612f66578681815181101515612ec157fe5b9060200190602002015173ffffffffffffffffffffffffffffffffffffffff16637aee7e09856040518263ffffffff167c0100000000000000000000000000000000000000000000000000000000028152600401808260001916600019168152602001915050600060405180830381600087803b158015612f4157600080fd5b505af1158015612f55573d6000803e3d6000fd5b505050508080600101915050612eaa565b50505095945050505050565b600073ffffffffffffffffffffffffffffffffffffffff168173ffffffffffffffffffffffffffffffffffffffff1614151515612fae57600080fd5b8073ffffffffffffffffffffffffffffffffffffffff16600060019054906101000a900473ffffffffffffffffffffffffffffffffffffffff1673ffffffffffffffffffffffffffffffffffffffff167f8be0079c531659141344cd1fd0a4f28419497f9722a3daafe3b4186f6b6457e060405160405180910390a380600060016101000a81548173ffffffffffffffffffffffffffffffffffffffff021916908373ffffffffffffffffffffffffffffffffffffffff16021790555050565b6130766132ee565b600082600001836002015481548110151561308d57fe5b90600052602060002090600602018360010184600201548154811015156130b057fe5b90600052602060002001548160c060405190810160405290816000820160009054906101000a900473ffffffffffffffffffffffffffffffffffffffff1673ffffffffffffffffffffffffffffffffffffffff1673ffffffffffffffffffffffffffffffffffffffff1681526020016001820160009054906101000a900473ffffffffffffffffffffffffffffffffffffffff1673ffffffffffffffffffffffffffffffffffffffff1673ffffffffffffffffffffffffffffffffffffffff1681526020016002820160009054906101000a900473ffffffffffffffffffffffffffffffffffffffff1673ffffffffffffffffffffffffffffffffffffffff1673ffffffffffffffffffffffffffffffffffffffff16815260200160038201548152602001600482015481526020016005820154600019166000191681525050915091509150915091565b806002016000815480929190600101919050555080600001600182600201540381548110151561322757fe5b9060005260206000209060060201600080820160006101000a81549073ffffffffffffffffffffffffffffffffffffffff02191690556001820160006101000a81549073ffffffffffffffffffffffffffffffffffffffff02191690556002820160006101000a81549073ffffffffffffffffffffffffffffffffffffffff021916905560038201600090556004820160009055600582016000905550508060010160018260020154038154811015156132dd57fe5b906000526020600020016000905550565b60c060405190810160405280600073ffffffffffffffffffffffffffffffffffffffff168152602001600073ffffffffffffffffffffffffffffffffffffffff168152602001600073ffffffffffffffffffffffffffffffffffffffff1681526020016000815260200160008152602001600080191681525090565b815481835581811115613391578183600052602060002091820191016133909190613396565b5b505050565b6133b891905b808211156133b457600081600090555060010161339c565b5090565b905600a165627a7a72305820ff8c8ddb476e75ef2c6a512fba87a4e1fcf1856f5f78cddec6433db2fdd069b10029608060405234801561001057600080fd5b504360018190555061013e806100276000396000f300608060405260043610610041576000357c0100000000000000000000000000000000000000000000000000000000900463ffffffff168063cd4b691414610046575b600080fd5b34801561005257600080fd5b5061007160048036038101908080359060200190929190505050610087565b6040518082815260200191505060405180910390f35b60006001544311156100ce5743600181905550600a4303406001900443406001900401604051808281526020019150506040518091039020600081600019169055506100f9565b6000546040518082600019166000191681526020019150506040518091039020600081600019169055505b816000546001900481151561010a57fe5b0690509190505600a165627a7a723058206d0e130fb41378b33f655ee7d756dee83ffa1f621213d92d96a035448e63a45a0029",
  "source": "pragma solidity ^0.4.23;\r\n\r\nimport \"openzeppelin-solidity/contracts/math/SafeMath.sol\";\r\nimport \"../../lifecycle/Initializable.sol\";\r\nimport \"../lottery/RandomEngine.sol\";\r\nimport \"./ICognitiveJobManager.sol\";\r\nimport \"./WorkerNodeManager.sol\";\r\nimport \"../token/Reputation.sol\";\r\nimport \"./ICognitiveJobController.sol\";\r\n\r\nimport {JobQueueLib as JQL} from \"../../libraries/JobQueueLib.sol\";\r\n\r\n/**\r\n * @title Pandora Smart Contract\r\n * @author \"Dr Maxim Orlovsky\" <orlovsky@pandora.foundation>\r\n *\r\n * @dev # Pandora Smart Contract\r\n *\r\n * Main & root contract implementing the first level of Pandora Boxchain consensus\r\n * See section [\"3.3. Proof of Cognitive Work (PoCW)\" in Pandora white paper](https://steemit.com/cryptocurrency/%40pandoraboxchain/world-decentralized-ai-on-blockchain-with-cognitive-mining-and-open-markets-for-data-and-algorithms-pandora-boxchain)\r\n * for more details.\r\n */\r\n\r\ncontract CognitiveJobManager is ICognitiveJobManager, WorkerNodeManager {\r\n\r\n    /*******************************************************************************************************************\r\n     * ## Storage\r\n     */\r\n\r\n    /// ### Public variables\r\n\r\n    /// @dev Contract, that store rep. values for each address\r\n    IReputation public reputation;\r\n\r\n    // Deposits from clients used as payment for work\r\n    mapping(address => uint256) public deposits;\r\n\r\n    /// @notice Status code returned by `createCognitiveJob()` method when no Idle WorkerNodes were available\r\n    /// and job was not created but was put into the job queue to be processed lately\r\n    uint8 constant public RESULT_CODE_ADD_TO_QUEUE = 0;\r\n    /// @notice Status code returned by `createCognitiveJob()` method when CognitiveJob was created successfully\r\n    uint8 constant public RESULT_CODE_JOB_CREATED = 1;\r\n\r\n    uint256 constant public REQUIRED_DEPOSIT = 500 finney;\r\n\r\n    /// ### Private and internal variables\r\n\r\n    /// @dev Contract implementing lottery interface for workers selection. Only internal usage\r\n    /// by `createCognitiveJob` function\r\n    ILotteryEngine internal workerLotteryEngine;\r\n\r\n    // Queue for CognitiveJobs kept while no Idle WorkerNodes available\r\n    /// @dev Cognitive job queue used for case when no idle workers available\r\n    using JQL for JQL.Queue;\r\n    JQL.Queue internal jobQueue;\r\n\r\n    // Controller for CognitiveJobs\r\n    ICognitiveJobController public jobController;\r\n\r\n    using SafeMath for uint;\r\n\r\n    /*******************************************************************************************************************\r\n     * ## Events\r\n     */\r\n\r\n    /// @dev Event firing when a new cognitive job created\r\n    event CognitiveJobCreated(bytes32 jobId);\r\n\r\n    /// @dev Event firing when a new cognitive job queued\r\n    event CognitiveJobQueued(bytes32 jobId);\r\n\r\n    /*******************************************************************************************************************\r\n     * ## Constructor and initialization\r\n     */\r\n\r\n    /// ### Constructor\r\n    /// @dev Constructor receives addresses for the owners of whitelisted worker nodes, which will be assigned an owners\r\n    /// of worker nodes contracts\r\n    constructor(\r\n        ICognitiveJobController _jobController, /// Controller with all cognitive job logic and storage\r\n        IWorkerNodeFactory _nodeFactory, /// Factory class for creating WorkerNode contracts\r\n        IReputation _reputation\r\n    )\r\n    public\r\n    WorkerNodeManager(_nodeFactory) {\r\n\r\n        jobController = _jobController;\r\n        // Init reputation storage contract\r\n        reputation = _reputation;\r\n\r\n        // Initializing worker lottery engine\r\n        workerLotteryEngine = new RandomEngine();\r\n    }\r\n\r\n    /*******************************************************************************************************************\r\n     * ## Functions\r\n     */\r\n\r\n    /// ### Public\r\n\r\n    /// @notice Public function which checks queue of jobs and create new jobs\r\n    /// #dev Function is called by worker owner, after finalize congitiveJob (but could be called by any address)\r\n    /// to unlock worker's idle state and allocate newly freed WorkerNodes to perform cognitive jobs from the queue.\r\n    function checkJobQueue(\r\n    // No arguments\r\n    )\r\n    public {\r\n        JQL.QueuedJob memory queuedJob;\r\n        // Iterate queue and check queue depth\r\n\r\n        uint8 limitQueueReq = uint8(jobQueue.queueDepth());\r\n        limitQueueReq = limitQueueReq > 1 ? 1 : limitQueueReq;\r\n        // todo check limit (2) for queue requests with tests\r\n\r\n        for (uint8 k = 0; k < limitQueueReq; k++) {\r\n\r\n            // Count remaining gas\r\n            uint initialGas = gasleft();\r\n\r\n            // Counting number of available worker nodes (in Idle state)\r\n            uint256 estimatedSize = _countIdleWorkers();\r\n\r\n            // There must be at least one free worker node\r\n            if (estimatedSize <= 0) {\r\n                break;\r\n            }\r\n\r\n            // Initializing in-memory array for idle node list and populating it with data\r\n            IWorkerNode[] memory idleWorkers = _listIdleWorkers(estimatedSize);\r\n            uint actualSize = idleWorkers.length;\r\n            if (actualSize != estimatedSize) {\r\n                break;\r\n            }\r\n\r\n            // Check number of batches with number of idle workers\r\n            if (!jobQueue.checkElementBatches(actualSize)) {\r\n                break;\r\n            }\r\n\r\n            // uint value1 = cognitiveJobQueue.queueDepth();\r\n            uint256 value;\r\n            // Value from queuedJob deposit\r\n            (queuedJob, value) = jobQueue.requestJob();\r\n\r\n            // Running lottery to select worker node to be assigned cognitive job contract\r\n            IWorkerNode[] memory assignedWorkers = _selectWorkersWithLottery(idleWorkers, queuedJob.batches);\r\n\r\n            // @fixme remove in upcoming version\r\n            // (temporarily due to worker controller absence) convert workers array to address array\r\n            address[] memory workerAddresses = new address[](assignedWorkers.length);\r\n            for (uint8 i = 0; i < workerAddresses.length; i++) {\r\n                workerAddresses[i] = address(assignedWorkers[i]);\r\n            }\r\n\r\n            bytes32 jobId = _initQueuedJob(queuedJob, assignedWorkers);\r\n\r\n            //todo assign job to each worker\r\n            for (uint8 j = 0; j < assignedWorkers.length; i++) {\r\n                assignedWorkers[j].assignJob(jobId);\r\n            }\r\n\r\n            emit CognitiveJobCreated(jobId);\r\n\r\n            // Count used funds for queue\r\n            //todo set limit for gasprice\r\n            uint weiUsed = (57000 + initialGas - gasleft()) * tx.gasprice;\r\n            //57k of gas used for transfers and storage writing\r\n\r\n            weiUsed = weiUsed > value ? value : weiUsed;\r\n            //weiUsed should not exceed deposit fixme set constraint to minimal deposit\r\n\r\n            // Gas refund to node\r\n            msg.sender.transfer(weiUsed);\r\n\r\n            // Return remaining deposit to customer\r\n            if (value - weiUsed != 0) {\r\n                queuedJob.customer.transfer(value - weiUsed);\r\n            }\r\n        }\r\n    }\r\n\r\n    /******************************************************************************************************************\r\n    External functions\r\n    */\r\n\r\n    /// @notice Creates and returns new cognitive job contract and starts actual cognitive work instantly\r\n    /// @dev Core function creating new cognitive job contract and returning it back to the caller\r\n    function createCognitiveJob(\r\n        IKernel _kernel, /// Pre-initialized kernel data entity contract\r\n        IDataset _dataset, /// Pre-initialized dataset entity contract\r\n        uint256 _complexity,\r\n        bytes32 _description\r\n    )\r\n    external\r\n    payable\r\n    returns (\r\n        bytes32 o_jobId, /// Newly created cognitive jobs (starts automatically)\r\n        uint8 o_resultCode /// result code of creating job, 0 - job queued (no available workers) , 1 - job created\r\n    ) {\r\n\r\n        // Restriction for batches count came from potential high gas usage in JobQueue processing\r\n        // todo check batches limit with tests\r\n        uint8 batchesCount = _dataset.batchesCount();\r\n        require(batchesCount <= 10);\r\n\r\n        // Dimensions of the input data and neural network input layer must be equal\r\n        require(_kernel.dataDim() == _dataset.dataDim());\r\n\r\n        // @todo check payment corresponds to required amount + gas payment - (fixed value + #batches * value)\r\n        require(msg.value >= REQUIRED_DEPOSIT);\r\n\r\n        // Counting number of available worker nodes (in Idle state)\r\n        // Since Solidity does not supports dynamic in-memory arrays (yet), has to be done in two-staged way:\r\n        // first by counting array size and then by allocating and populating array itself\r\n\r\n        uint256 estimatedSize = _countIdleWorkers();\r\n        if (estimatedSize < uint256(batchesCount)) {\r\n            // Put task in queue\r\n            o_resultCode = RESULT_CODE_ADD_TO_QUEUE;\r\n            jobQueue.put(\r\n                address(_kernel),\r\n                address(_dataset),\r\n                msg.sender,\r\n                msg.value,\r\n                batchesCount,\r\n                _complexity,\r\n                _description);\r\n            //  Hold payment from customer\r\n            deposits[msg.sender] = deposits[msg.sender].add(msg.value);\r\n            emit CognitiveJobQueued(o_jobId);\r\n        } else {\r\n            // Job created instantly\r\n            // Return funds to sender\r\n            msg.sender.transfer(msg.value);\r\n            // Initializing in-memory array for idle node list and populating it with data\r\n            IWorkerNode[] memory idleWorkers = _listIdleWorkers(estimatedSize);\r\n\r\n            // Running lottery to select worker node to be assigned cognitive job contract\r\n            IWorkerNode[] memory assignedWorkers = _selectWorkersWithLottery(idleWorkers, batchesCount);\r\n\r\n            o_jobId = _initCognitiveJob(_kernel, _dataset, assignedWorkers, _complexity, _description);\r\n            o_resultCode = RESULT_CODE_JOB_CREATED;\r\n\r\n            emit CognitiveJobCreated(o_jobId);\r\n        }\r\n    }\r\n\r\n    function getQueueDepth(\r\n        // No arguments\r\n    )\r\n    external\r\n    returns (uint256)\r\n    {\r\n        return jobQueue.queueDepth();\r\n    }\r\n\r\n    function provideResults(\r\n        bytes32 _jobId,\r\n        bytes _ipfsResults\r\n    )\r\n    external {\r\n        //todo get workerId with workerController in new v.\r\n        if (jobController.completeWork(_jobId, msg.sender, _ipfsResults)) {\r\n            // Increase reputation of workers involved to computation\r\n            //todo add koef for complexity-reputation\r\n            uint256 complexity;\r\n            address[] memory activeWorkers;\r\n            ( , ,complexity, ,activeWorkers, , ) = jobController.getCognitiveJobDetails(_jobId);\r\n            for (uint256 i = 0; i <= activeWorkers.length; i++) {\r\n                reputation.incrReputation(\r\n                    activeWorkers[i],\r\n                    complexity.div(i));\r\n            }\r\n        }\r\n    }\r\n\r\n    function respondToJob(\r\n        bytes32 _jobId,\r\n        uint8 _responseType,\r\n        bool _response)\r\n    external {\r\n        //todo implement get workerId with worker controller in new version\r\n        jobController.onWorkerResponse(_jobId, msg.sender, _responseType, _response);\r\n    }\r\n\r\n    function commitProgress(\r\n        bytes32 _jobId,\r\n        uint8 _percent)\r\n    external {\r\n        //todo implement get workerId with worker controller in new version\r\n        jobController.commitProgress(_jobId, msg.sender, _percent);\r\n    }\r\n\r\n    /******************************************************************************************************************\r\n    Private functions\r\n    */\r\n\r\n    function _initQueuedJob(JQL.QueuedJob queuedJob, IWorkerNode[] assignedWorkers)\r\n    private\r\n    onlyInitialized\r\n    returns (\r\n        bytes32 jobId\r\n    ) {\r\n        jobId = _initCognitiveJob(\r\n            IKernel(queuedJob.kernel),\r\n            IDataset(queuedJob.dataset),\r\n            assignedWorkers,\r\n            queuedJob.complexity,\r\n            queuedJob.description\r\n        );\r\n    }\r\n\r\n    /// @notice Can\"t be called by the user or other contract: for private use only\r\n    /// @dev Creates cognitive job contract, saves it to storage and fires global event to notify selected worker node.\r\n    /// Used both by `createCognitiveJob()` and `_checksJobQueue()` methods.\r\n    function _initCognitiveJob(\r\n        IKernel _kernel, /// Pre-initialized kernel data entity contract (taken from `createCognitiveJob` arguments or\r\n    /// from the the `cognitiveJobQueue` `QueuedJob` structure)\r\n        IDataset _dataset, /// Pre-initialized dataset entity contract (taken from `createCognitiveJob` arguments or\r\n    /// from the the `cognitiveJobQueue` `QueuedJob` structure)\r\n        IWorkerNode[] _assignedWorkers, /// Array of workers assigned for the job by the lottery engine //todo change to address\r\n        uint256 _complexity,\r\n        bytes32 _description\r\n    )\r\n    private\r\n    onlyInitialized\r\n    returns (\r\n        bytes32 o_jobId /// Created cognitive job ID\r\n    ) {\r\n\r\n        // @fixme remove in upcoming version\r\n        // (temporarily due to worker controller absence) convert workers array to address array\r\n        address[] memory workerAddresses = new address[](_assignedWorkers.length);\r\n        for (uint256 i = 0; i < workerAddresses.length; i++) {\r\n            workerAddresses[i] = address(_assignedWorkers[i]);\r\n        }\r\n\r\n        o_jobId = jobController.createCognitiveJob(\r\n            address(_kernel),\r\n            address(_dataset),\r\n            workerAddresses,\r\n            _complexity,\r\n            _description);\r\n\r\n        //assign each worker to job\r\n        for (uint256 j = 0; j < _assignedWorkers.length; j++) {\r\n            _assignedWorkers[j].assignJob(o_jobId);\r\n        }\r\n    }\r\n\r\n    /// @notice Can\"t be called by the user or other contract: for private use only\r\n    /// @dev Running lottery to select random worker nodes from the provided list. Used by both `createCognitiveJob`\r\n    /// and `_checksJobQueue` functions.\r\n    function _selectWorkersWithLottery(\r\n        IWorkerNode[] _idleWorkers, /// Pre-defined pool of Idle WorkerNodes to select from\r\n        uint _numberWorkersRequired /// Number of workers required by cognitive job, match with number of batches\r\n    )\r\n    private\r\n    returns (\r\n        IWorkerNode[] assignedWorkers /// Resulting sublist of the selected WorkerNodes\r\n    ) {\r\n        assignedWorkers = new IWorkerNode[](_numberWorkersRequired);\r\n        uint no = workerLotteryEngine.getRandom(assignedWorkers.length);\r\n        for (uint i = 0; i < assignedWorkers.length; i++) {\r\n            assignedWorkers[i] = _idleWorkers[no];\r\n            no = (no == assignedWorkers.length - 1) ? 0 : no + 1;\r\n        }\r\n    }\r\n\r\n    /// @notice Can\"t be called by the user or other contract: for private use only\r\n    /// @dev Pre-count amount of available Idle WorkerNodes. Required to allocate in-memory list of WorkerNodes.\r\n    function _countIdleWorkers(\r\n    // No arguments\r\n    )\r\n    private\r\n    view\r\n    returns (\r\n        uint o_estimatedSize /// Amount of currently available (Idle) WorkerNodes\r\n    ) {\r\n        o_estimatedSize = 0;\r\n        for (uint i = 0; i < workerNodes.length; i++) {\r\n            if (workerNodes[i].currentState() == workerNodes[i].Idle()) {\r\n                o_estimatedSize++;\r\n            }\r\n        }\r\n        return o_estimatedSize;\r\n    }\r\n\r\n    /// @notice Can\"t be called by the user or other contract: for private use only\r\n    /// @dev Allocates and returns in-memory array of all Idle WorkerNodes taking estimated size as an argument\r\n    /// (returned by `_countIdleWorkers()`)\r\n    function _listIdleWorkers(\r\n        uint _estimatedSize /// Size of array to return\r\n    )\r\n    private\r\n    view\r\n    returns (\r\n        IWorkerNode[] /// Returned array of all Idle WorkerNodes\r\n    ) {\r\n        IWorkerNode[] memory idleWorkers = new IWorkerNode[](_estimatedSize);\r\n        uint256 actualSize = 0;\r\n        for (uint j = 0; j < workerNodes.length; j++) {\r\n            if (workerNodes[j].currentState() == workerNodes[j].Idle()) {\r\n                idleWorkers[actualSize++] = workerNodes[j];\r\n            }\r\n        }\r\n        return idleWorkers;\r\n    }\r\n}",
  "sourcePath": "G:\\PROJECTS\\Pandora\\pyrrha-consensus\\contracts\\pandora\\managers\\CognitiveJobManager.sol",
  "compiler": {
    "name": "solc",
    "version": "0.4.24+commit.e67f0147.Emscripten.clang"
  },
  "schemaVersion": "2.0.1",
  "updatedAt": "2018-07-20T19:47:04.863Z"
}