{
  "contractName": "CognitiveJobManager",
  "abi": [
    {
      "constant": true,
      "inputs": [],
      "name": "workerNodesCount",
      "outputs": [
        {
          "name": "",
          "type": "uint256"
        }
      ],
      "payable": false,
      "stateMutability": "view",
      "type": "function"
    },
    {
      "constant": false,
      "inputs": [
        {
          "name": "_workerOwner",
          "type": "address"
        }
      ],
      "name": "whitelistWorkerOwner",
      "outputs": [],
      "payable": false,
      "stateMutability": "nonpayable",
      "type": "function"
    },
    {
      "constant": true,
      "inputs": [],
      "name": "initialized",
      "outputs": [
        {
          "name": "",
          "type": "bool"
        }
      ],
      "payable": false,
      "stateMutability": "view",
      "type": "function"
    },
    {
      "constant": true,
      "inputs": [
        {
          "name": "",
          "type": "uint256"
        }
      ],
      "name": "workerNodes",
      "outputs": [
        {
          "name": "",
          "type": "address"
        }
      ],
      "payable": false,
      "stateMutability": "view",
      "type": "function"
    },
    {
      "constant": true,
      "inputs": [
        {
          "name": "",
          "type": "uint256"
        }
      ],
      "name": "activeJobs",
      "outputs": [
        {
          "name": "",
          "type": "address"
        }
      ],
      "payable": false,
      "stateMutability": "view",
      "type": "function"
    },
    {
      "constant": true,
      "inputs": [],
      "name": "RESULT_CODE_JOB_CREATED",
      "outputs": [
        {
          "name": "",
          "type": "uint8"
        }
      ],
      "payable": false,
      "stateMutability": "view",
      "type": "function"
    },
    {
      "constant": true,
      "inputs": [],
      "name": "cognitiveJobFactory",
      "outputs": [
        {
          "name": "",
          "type": "address"
        }
      ],
      "payable": false,
      "stateMutability": "view",
      "type": "function"
    },
    {
      "constant": true,
      "inputs": [
        {
          "name": "",
          "type": "address"
        }
      ],
      "name": "jobAddresses",
      "outputs": [
        {
          "name": "",
          "type": "uint16"
        }
      ],
      "payable": false,
      "stateMutability": "view",
      "type": "function"
    },
    {
      "constant": false,
      "inputs": [
        {
          "name": "_guiltyWorker",
          "type": "address"
        },
        {
          "name": "_reason",
          "type": "uint8"
        }
      ],
      "name": "penaltizeWorkerNode",
      "outputs": [],
      "payable": false,
      "stateMutability": "nonpayable",
      "type": "function"
    },
    {
      "constant": true,
      "inputs": [
        {
          "name": "",
          "type": "address"
        }
      ],
      "name": "workerNodeOwners",
      "outputs": [
        {
          "name": "",
          "type": "bool"
        }
      ],
      "payable": false,
      "stateMutability": "view",
      "type": "function"
    },
    {
      "constant": false,
      "inputs": [
        {
          "name": "_workerOwner",
          "type": "address"
        }
      ],
      "name": "blacklistWorkerOwner",
      "outputs": [],
      "payable": false,
      "stateMutability": "nonpayable",
      "type": "function"
    },
    {
      "constant": false,
      "inputs": [],
      "name": "initialize",
      "outputs": [],
      "payable": false,
      "stateMutability": "nonpayable",
      "type": "function"
    },
    {
      "constant": true,
      "inputs": [],
      "name": "RESULT_CODE_ADD_TO_QUEUE",
      "outputs": [
        {
          "name": "",
          "type": "uint8"
        }
      ],
      "payable": false,
      "stateMutability": "view",
      "type": "function"
    },
    {
      "constant": false,
      "inputs": [],
      "name": "createWorkerNode",
      "outputs": [
        {
          "name": "",
          "type": "address"
        }
      ],
      "payable": false,
      "stateMutability": "nonpayable",
      "type": "function"
    },
    {
      "constant": true,
      "inputs": [],
      "name": "owner",
      "outputs": [
        {
          "name": "",
          "type": "address"
        }
      ],
      "payable": false,
      "stateMutability": "view",
      "type": "function"
    },
    {
      "constant": false,
      "inputs": [
        {
          "name": "_workerNode",
          "type": "address"
        }
      ],
      "name": "destroyWorkerNode",
      "outputs": [],
      "payable": false,
      "stateMutability": "nonpayable",
      "type": "function"
    },
    {
      "constant": false,
      "inputs": [
        {
          "name": "newOwner",
          "type": "address"
        }
      ],
      "name": "transferOwnership",
      "outputs": [],
      "payable": false,
      "stateMutability": "nonpayable",
      "type": "function"
    },
    {
      "constant": true,
      "inputs": [],
      "name": "workerNodeFactory",
      "outputs": [
        {
          "name": "",
          "type": "address"
        }
      ],
      "payable": false,
      "stateMutability": "view",
      "type": "function"
    },
    {
      "constant": true,
      "inputs": [
        {
          "name": "",
          "type": "address"
        }
      ],
      "name": "workerAddresses",
      "outputs": [
        {
          "name": "",
          "type": "uint16"
        }
      ],
      "payable": false,
      "stateMutability": "view",
      "type": "function"
    },
    {
      "inputs": [
        {
          "name": "_jobFactory",
          "type": "address"
        },
        {
          "name": "_nodeFactory",
          "type": "address"
        },
        {
          "name": "_reputation",
          "type": "address"
        }
      ],
      "payable": false,
      "stateMutability": "nonpayable",
      "type": "constructor"
    },
    {
      "anonymous": false,
      "inputs": [
        {
          "indexed": false,
          "name": "cognitiveJob",
          "type": "address"
        },
        {
          "indexed": false,
          "name": "resultCode",
          "type": "uint256"
        }
      ],
      "name": "CognitiveJobCreated",
      "type": "event"
    },
    {
      "anonymous": false,
      "inputs": [
        {
          "indexed": false,
          "name": "cognitiveJob",
          "type": "address"
        },
        {
          "indexed": false,
          "name": "resultCode",
          "type": "uint256"
        }
      ],
      "name": "CognitiveJobCreateFailed",
      "type": "event"
    },
    {
      "anonymous": false,
      "inputs": [
        {
          "indexed": false,
          "name": "workerNode",
          "type": "address"
        }
      ],
      "name": "WorkerNodeCreated",
      "type": "event"
    },
    {
      "anonymous": false,
      "inputs": [
        {
          "indexed": false,
          "name": "workerNode",
          "type": "address"
        }
      ],
      "name": "WorkerNodeDestroyed",
      "type": "event"
    },
    {
      "anonymous": false,
      "inputs": [
        {
          "indexed": true,
          "name": "previousOwner",
          "type": "address"
        },
        {
          "indexed": true,
          "name": "newOwner",
          "type": "address"
        }
      ],
      "name": "OwnershipTransferred",
      "type": "event"
    },
    {
      "anonymous": false,
      "inputs": [
        {
          "indexed": false,
          "name": "cognitiveJob",
          "type": "address"
        }
      ],
      "name": "CognitiveJobCreated",
      "type": "event"
    },
    {
      "constant": true,
      "inputs": [],
      "name": "activeJobsCount",
      "outputs": [
        {
          "name": "",
          "type": "uint256"
        }
      ],
      "payable": false,
      "stateMutability": "view",
      "type": "function"
    },
    {
      "constant": true,
      "inputs": [
        {
          "name": "_job",
          "type": "address"
        }
      ],
      "name": "isActiveJob",
      "outputs": [
        {
          "name": "",
          "type": "bool"
        }
      ],
      "payable": false,
      "stateMutability": "view",
      "type": "function"
    },
    {
      "constant": false,
      "inputs": [
        {
          "name": "_kernel",
          "type": "address"
        },
        {
          "name": "_dataset",
          "type": "address"
        },
        {
          "name": "_complexity",
          "type": "uint256"
        }
      ],
      "name": "createCognitiveJob",
      "outputs": [
        {
          "name": "o_cognitiveJob",
          "type": "address"
        },
        {
          "name": "o_resultCode",
          "type": "uint8"
        }
      ],
      "payable": true,
      "stateMutability": "payable",
      "type": "function"
    },
    {
      "constant": false,
      "inputs": [],
      "name": "finishCognitiveJob",
      "outputs": [],
      "payable": false,
      "stateMutability": "nonpayable",
      "type": "function"
    },
    {
      "constant": false,
      "inputs": [
        {
          "name": "_arrayLength",
          "type": "uint256"
        },
        {
          "name": "_numbersRange",
          "type": "uint256"
        }
      ],
      "name": "getRandomArray",
      "outputs": [
        {
          "name": "o_result",
          "type": "uint256[]"
        }
      ],
      "payable": false,
      "stateMutability": "nonpayable",
      "type": "function"
    }
  ],
  "bytecode": "0x608060405260008060006101000a81548160ff0219169083151502179055503480156200002b57600080fd5b506040516060806200388f8339810180604052810190808051906020019092919080519060200190929190805190602001909291905050508160008060006101000a81548160ff02191690831515021790555033600360006101000a81548173ffffffffffffffffffffffffffffffffffffffff021916908373ffffffffffffffffffffffffffffffffffffffff160217905550600073ffffffffffffffffffffffffffffffffffffffff168173ffffffffffffffffffffffffffffffffffffffff1614151515620000fc57600080fd5b80600760006101000a81548173ffffffffffffffffffffffffffffffffffffffff021916908373ffffffffffffffffffffffffffffffffffffffff16021790555050600073ffffffffffffffffffffffffffffffffffffffff168373ffffffffffffffffffffffffffffffffffffffff16141515156200017b57600080fd5b82600b60006101000a81548173ffffffffffffffffffffffffffffffffffffffff021916908373ffffffffffffffffffffffffffffffffffffffff16021790555080600e60006101000a81548173ffffffffffffffffffffffffffffffffffffffff021916908373ffffffffffffffffffffffffffffffffffffffff160217905550620002076200026e565b604051809103906000f08015801562000224573d6000803e3d6000fd5b50601060006101000a81548173ffffffffffffffffffffffffffffffffffffffff021916908373ffffffffffffffffffffffffffffffffffffffff1602179055505050506200027f565b604051610103806200378c83390190565b6134fd806200028f6000396000f30060806040526004361061013e576000357c0100000000000000000000000000000000000000000000000000000000900463ffffffff1680630ba58574146101435780630e3b581f1461019e57806313b5165f146101c9578063158ef93e1461020c578063171317511461023b5780631dc20af41461025257806321b0908b146102bf57806323ce524a1461032c57806336bad8281461035d5780635c2b37fa146103b45780635ecc2e44146103df5780635ef177761461043e578063669abff31461048e57806370064e331461053b5780637b3c611c146105965780638129fc1c146105d957806383c94c69146105f057806386b07332146106215780638da5cb5b14610678578063ae1092ae146106cf578063ea449e0f14610712578063f2fde38b1461079e578063f9d84ade146107e1578063fdb5b8d414610838575b600080fd5b34801561014f57600080fd5b50610184600480360381019080803573ffffffffffffffffffffffffffffffffffffffff169060200190929190505050610897565b604051808215151515815260200191505060405180910390f35b3480156101aa57600080fd5b506101b36109a5565b6040518082815260200191505060405180910390f35b3480156101d557600080fd5b5061020a600480360381019080803573ffffffffffffffffffffffffffffffffffffffff1690602001909291905050506109d3565b005b34801561021857600080fd5b50610221610a8a565b604051808215151515815260200191505060405180910390f35b34801561024757600080fd5b50610250610a9c565b005b34801561025e57600080fd5b5061027d60048036038101908080359060200190929190505050610f53565b604051808273ffffffffffffffffffffffffffffffffffffffff1673ffffffffffffffffffffffffffffffffffffffff16815260200191505060405180910390f35b3480156102cb57600080fd5b506102ea60048036038101908080359060200190929190505050610f91565b604051808273ffffffffffffffffffffffffffffffffffffffff1673ffffffffffffffffffffffffffffffffffffffff16815260200191505060405180910390f35b34801561033857600080fd5b50610341610fcf565b604051808260ff1660ff16815260200191505060405180910390f35b34801561036957600080fd5b50610372610fd4565b604051808273ffffffffffffffffffffffffffffffffffffffff1673ffffffffffffffffffffffffffffffffffffffff16815260200191505060405180910390f35b3480156103c057600080fd5b506103c9610ffa565b6040518082815260200191505060405180910390f35b3480156103eb57600080fd5b50610420600480360381019080803573ffffffffffffffffffffffffffffffffffffffff169060200190929190505050611028565b604051808261ffff1661ffff16815260200191505060405180910390f35b34801561044a57600080fd5b5061048c600480360381019080803573ffffffffffffffffffffffffffffffffffffffff169060200190929190803560ff169060200190929190505050611049565b005b6104ec600480360381019080803573ffffffffffffffffffffffffffffffffffffffff169060200190929190803573ffffffffffffffffffffffffffffffffffffffff1690602001909291908035906020019092919050505061106e565b604051808373ffffffffffffffffffffffffffffffffffffffff1673ffffffffffffffffffffffffffffffffffffffff1681526020018260ff1660ff1681526020019250505060405180910390f35b34801561054757600080fd5b5061057c600480360381019080803573ffffffffffffffffffffffffffffffffffffffff1690602001909291905050506115d8565b604051808215151515815260200191505060405180910390f35b3480156105a257600080fd5b506105d7600480360381019080803573ffffffffffffffffffffffffffffffffffffffff1690602001909291905050506115f8565b005b3480156105e557600080fd5b506105ee6116a6565b005b3480156105fc57600080fd5b506106056116c2565b604051808260ff1660ff16815260200191505060405180910390f35b34801561062d57600080fd5b506106366116c7565b604051808273ffffffffffffffffffffffffffffffffffffffff1673ffffffffffffffffffffffffffffffffffffffff16815260200191505060405180910390f35b34801561068457600080fd5b5061068d6119c7565b604051808273ffffffffffffffffffffffffffffffffffffffff1673ffffffffffffffffffffffffffffffffffffffff16815260200191505060405180910390f35b3480156106db57600080fd5b50610710600480360381019080803573ffffffffffffffffffffffffffffffffffffffff1690602001909291905050506119ed565b005b34801561071e57600080fd5b506107476004803603810190808035906020019092919080359060200190929190505050611f3f565b6040518080602001828103825283818151815260200191508051906020019060200280838360005b8381101561078a57808201518184015260208101905061076f565b505050509050019250505060405180910390f35b3480156107aa57600080fd5b506107df600480360381019080803573ffffffffffffffffffffffffffffffffffffffff16906020019092919050505061207f565b005b3480156107ed57600080fd5b506107f66121d7565b604051808273ffffffffffffffffffffffffffffffffffffffff1673ffffffffffffffffffffffffffffffffffffffff16815260200191505060405180910390f35b34801561084457600080fd5b50610879600480360381019080803573ffffffffffffffffffffffffffffffffffffffff1690602001909291905050506121fd565b604051808261ffff1661ffff16815260200191505060405180910390f35b6000806000600115156000809054906101000a900460ff1615151415156108bd57600080fd5b600c60008573ffffffffffffffffffffffffffffffffffffffff1673ffffffffffffffffffffffffffffffffffffffff16815260200190815260200160002060009054906101000a900461ffff16915060008261ffff161415610923576000925061099e565b818060019003925050600d8261ffff1681548110151561093f57fe5b9060005260206000200160009054906101000a900473ffffffffffffffffffffffffffffffffffffffff1690508373ffffffffffffffffffffffffffffffffffffffff168173ffffffffffffffffffffffffffffffffffffffff161492505b5050919050565b6000600115156000809054906101000a900460ff1615151415156109c857600080fd5b600880549050905090565b600360009054906101000a900473ffffffffffffffffffffffffffffffffffffffff1673ffffffffffffffffffffffffffffffffffffffff163373ffffffffffffffffffffffffffffffffffffffff16141515610a2f57600080fd5b6001600a60008373ffffffffffffffffffffffffffffffffffffffff1673ffffffffffffffffffffffffffffffffffffffff16815260200190815260200160002060006101000a81548160ff02191690831515021790555050565b6000809054906101000a900460ff1681565b6000806000806000600115156000809054906101000a900460ff161515141515610ac557600080fd5b600c60003373ffffffffffffffffffffffffffffffffffffffff1673ffffffffffffffffffffffffffffffffffffffff16815260200190815260200160002060009054906101000a900461ffff16945060008561ffff1614151515610b2957600080fd5b848060019003955050600d8561ffff16815481101515610b4557fe5b9060005260206000200160009054906101000a900473ffffffffffffffffffffffffffffffffffffffff1693503373ffffffffffffffffffffffffffffffffffffffff168473ffffffffffffffffffffffffffffffffffffffff16141515610bac57600080fd5b600c60008573ffffffffffffffffffffffffffffffffffffffff1673ffffffffffffffffffffffffffffffffffffffff16815260200190815260200160002060006101000a81549061ffff0219169055600d6001600d8054905003815481101515610c1357fe5b9060005260206000200160009054906101000a900473ffffffffffffffffffffffffffffffffffffffff16600d8661ffff16815481101515610c5157fe5b9060005260206000200160006101000a81548173ffffffffffffffffffffffffffffffffffffffff021916908373ffffffffffffffffffffffffffffffffffffffff1602179055925060018501600c60008573ffffffffffffffffffffffffffffffffffffffff1673ffffffffffffffffffffffffffffffffffffffff16815260200190815260200160002060006101000a81548161ffff021916908361ffff160217905550600d805480919060019003610d0c91906133e9565b50610d1561221e565b8373ffffffffffffffffffffffffffffffffffffffff166323d554736040518163ffffffff167c0100000000000000000000000000000000000000000000000000000000028152600401602060405180830381600087803b158015610d7957600080fd5b505af1158015610d8d573d6000803e3d6000fd5b505050506040513d6020811015610da357600080fd5b81019080805190602001909291905050509150600090505b8373ffffffffffffffffffffffffffffffffffffffff16634804b4ba6040518163ffffffff167c0100000000000000000000000000000000000000000000000000000000028152600401602060405180830381600087803b158015610e1f57600080fd5b505af1158015610e33573d6000803e3d6000fd5b505050506040513d6020811015610e4957600080fd5b810190808051906020019092919050505081111515610f4c57600e60009054906101000a900473ffffffffffffffffffffffffffffffffffffffff1673ffffffffffffffffffffffffffffffffffffffff1663e6808ff082846040518363ffffffff167c0100000000000000000000000000000000000000000000000000000000028152600401808373ffffffffffffffffffffffffffffffffffffffff1673ffffffffffffffffffffffffffffffffffffffff16815260200182815260200192505050600060405180830381600087803b158015610f2757600080fd5b505af1158015610f3b573d6000803e3d6000fd5b505050508080600101915050610dbb565b5050505050565b600881815481101515610f6257fe5b906000526020600020016000915054906101000a900473ffffffffffffffffffffffffffffffffffffffff1681565b600d81815481101515610fa057fe5b906000526020600020016000915054906101000a900473ffffffffffffffffffffffffffffffffffffffff1681565b600181565b600b60009054906101000a900473ffffffffffffffffffffffffffffffffffffffff1681565b6000600115156000809054906101000a900460ff16151514151561101d57600080fd5b600d80549050905090565b600c6020528060005260406000206000915054906101000a900461ffff1681565b600115156000809054906101000a900460ff16151514151561106a57600080fd5b5050565b600080600080606060006060600115156000809054906101000a900460ff16151514151561109b57600080fd5b600a8973ffffffffffffffffffffffffffffffffffffffff166387ea09616040518163ffffffff167c0100000000000000000000000000000000000000000000000000000000028152600401602060405180830381600087803b15801561110157600080fd5b505af1158015611115573d6000803e3d6000fd5b505050506040513d602081101561112b57600080fd5b810190808051906020019092919050505060ff161115151561114c57600080fd5b8873ffffffffffffffffffffffffffffffffffffffff1663b1f8d9ba6040518163ffffffff167c0100000000000000000000000000000000000000000000000000000000028152600401602060405180830381600087803b1580156111b057600080fd5b505af11580156111c4573d6000803e3d6000fd5b505050506040513d60208110156111da57600080fd5b81019080805190602001909291905050508a73ffffffffffffffffffffffffffffffffffffffff1663b1f8d9ba6040518163ffffffff167c0100000000000000000000000000000000000000000000000000000000028152600401602060405180830381600087803b15801561124f57600080fd5b505af1158015611263573d6000803e3d6000fd5b505050506040513d602081101561127957600080fd5b810190808051906020019092919050505014151561129657600080fd5b600d80805490501015156112a957600080fd5b6112b1612526565b94508873ffffffffffffffffffffffffffffffffffffffff166387ea09616040518163ffffffff167c0100000000000000000000000000000000000000000000000000000000028152600401602060405180830381600087803b15801561131757600080fd5b505af115801561132b573d6000803e3d6000fd5b505050506040513d602081101561134157600080fd5b810190808051906020019092919050505093508360ff168510156113f9576000955061137f8a8a34338c60116127189095949392919063ffffffff16565b507fea6be648d373c4709986e67f6b7ee9ef9875b1243f38efc6bd48024bc10f8aac8787604051808373ffffffffffffffffffffffffffffffffffffffff1673ffffffffffffffffffffffffffffffffffffffff1681526020018260ff1681526020019250505060405180910390a18686965096506115cb565b611402856128f1565b9250825191506114b3838a73ffffffffffffffffffffffffffffffffffffffff166387ea09616040518163ffffffff167c0100000000000000000000000000000000000000000000000000000000028152600401602060405180830381600087803b15801561147057600080fd5b505af1158015611484573d6000803e3d6000fd5b505050506040513d602081101561149a57600080fd5b810190808051906020019092919050505060ff16612b9e565b90506114c18a8a838b612c7f565b96506001955061151934600f60003373ffffffffffffffffffffffffffffffffffffffff1673ffffffffffffffffffffffffffffffffffffffff1681526020019081526020016000205461305090919063ffffffff16565b600f60003373ffffffffffffffffffffffffffffffffffffffff1673ffffffffffffffffffffffffffffffffffffffff168152602001908152602001600020819055507f422ca471d1a1b69b87453d0f5149fd001dc7fd04fc2b5b8b8d70b17398a9b85a8787604051808373ffffffffffffffffffffffffffffffffffffffff1673ffffffffffffffffffffffffffffffffffffffff1681526020018260ff1681526020019250505060405180910390a15b5050505050935093915050565b600a6020528060005260406000206000915054906101000a900460ff1681565b600360009054906101000a900473ffffffffffffffffffffffffffffffffffffffff1673ffffffffffffffffffffffffffffffffffffffff163373ffffffffffffffffffffffffffffffffffffffff1614151561165457600080fd5b600a60008273ffffffffffffffffffffffffffffffffffffffff1673ffffffffffffffffffffffffffffffffffffffff16815260200190815260200160002060006101000a81549060ff021916905550565b60016000806101000a81548160ff021916908315150217905550565b600081565b6000806000600115156000809054906101000a900460ff1615151415156116ed57600080fd5b60011515600a60003373ffffffffffffffffffffffffffffffffffffffff1673ffffffffffffffffffffffffffffffffffffffff16815260200190815260200160002060009054906101000a900460ff16151514151561174c57600080fd5b3391503273ffffffffffffffffffffffffffffffffffffffff163373ffffffffffffffffffffffffffffffffffffffff1614151561178957600080fd5b600d60088054905010151561179d57600080fd5b600760009054906101000a900473ffffffffffffffffffffffffffffffffffffffff1673ffffffffffffffffffffffffffffffffffffffff16639ed93318836040518263ffffffff167c0100000000000000000000000000000000000000000000000000000000028152600401808273ffffffffffffffffffffffffffffffffffffffff1673ffffffffffffffffffffffffffffffffffffffff168152602001915050602060405180830381600087803b15801561185a57600080fd5b505af115801561186e573d6000803e3d6000fd5b505050506040513d602081101561188457600080fd5b8101908080519060200190929190505050905060088190806001815401808255809150509060018203906000526020600020016000909192909190916101000a81548173ffffffffffffffffffffffffffffffffffffffff021916908373ffffffffffffffffffffffffffffffffffffffff16021790555050600880549050600960008373ffffffffffffffffffffffffffffffffffffffff1673ffffffffffffffffffffffffffffffffffffffff16815260200190815260200160002060006101000a81548161ffff021916908361ffff1602179055507f093794466f44429afc8d8ec2c4c7f42c98d5db9b3db965ce46a31e7d4f7c29c881604051808273ffffffffffffffffffffffffffffffffffffffff1673ffffffffffffffffffffffffffffffffffffffff16815260200191505060405180910390a1809250505090565b600360009054906101000a900473ffffffffffffffffffffffffffffffffffffffff1681565b60008060008360003390508173ffffffffffffffffffffffffffffffffffffffff16638da5cb5b6040518163ffffffff167c0100000000000000000000000000000000000000000000000000000000028152600401602060405180830381600087803b158015611a5c57600080fd5b505af1158015611a70573d6000803e3d6000fd5b505050506040513d6020811015611a8657600080fd5b810190808051906020019092919050505073ffffffffffffffffffffffffffffffffffffffff168173ffffffffffffffffffffffffffffffffffffffff16141515611ad057600080fd5b6000600960008373ffffffffffffffffffffffffffffffffffffffff1673ffffffffffffffffffffffffffffffffffffffff16815260200190815260200160002060009054906101000a900461ffff1661ffff16111515611b3057600080fd5b600115156000809054906101000a900460ff161515141515611b5157600080fd5b3394508573ffffffffffffffffffffffffffffffffffffffff1663ae897c556040518163ffffffff167c0100000000000000000000000000000000000000000000000000000000028152600401602060405180830381600087803b158015611bb857600080fd5b505af1158015611bcc573d6000803e3d6000fd5b505050506040513d6020811015611be257600080fd5b810190808051906020019092919050505060ff168673ffffffffffffffffffffffffffffffffffffffff16630c3f6acf6040518163ffffffff167c0100000000000000000000000000000000000000000000000000000000028152600401602060405180830381600087803b158015611c5a57600080fd5b505af1158015611c6e573d6000803e3d6000fd5b505050506040513d6020811015611c8457600080fd5b810190808051906020019092919050505060ff16141515611ca457600080fd5b8573ffffffffffffffffffffffffffffffffffffffff166383197ef06040518163ffffffff167c0100000000000000000000000000000000000000000000000000000000028152600401600060405180830381600087803b158015611d0857600080fd5b505af1158015611d1c573d6000803e3d6000fd5b505050506001600960008773ffffffffffffffffffffffffffffffffffffffff1673ffffffffffffffffffffffffffffffffffffffff16815260200190815260200160002060009054906101000a900461ffff16039350600960008673ffffffffffffffffffffffffffffffffffffffff1673ffffffffffffffffffffffffffffffffffffffff16815260200190815260200160002060006101000a81549061ffff02191690556008600160088054905003815481101515611dda57fe5b9060005260206000200160009054906101000a900473ffffffffffffffffffffffffffffffffffffffff1660088561ffff16815481101515611e1857fe5b9060005260206000200160006101000a81548173ffffffffffffffffffffffffffffffffffffffff021916908373ffffffffffffffffffffffffffffffffffffffff1602179055925060018401600960008573ffffffffffffffffffffffffffffffffffffffff1673ffffffffffffffffffffffffffffffffffffffff16815260200190815260200160002060006101000a81548161ffff021916908361ffff1602179055506008805480919060019003611ed39190613415565b507f677f03e392472a48b617167ed4dbec758d26d8517257ec077bed2d27d192816486604051808273ffffffffffffffffffffffffffffffffffffffff1673ffffffffffffffffffffffffffffffffffffffff16815260200191505060405180910390a1505050505050565b6060600083604051908082528060200260200182016040528015611f725781602001602082028038833980820191505090505b509150600090505b815181101561207857601060009054906101000a900473ffffffffffffffffffffffffffffffffffffffff1673ffffffffffffffffffffffffffffffffffffffff1663cd4b6914846040518263ffffffff167c010000000000000000000000000000000000000000000000000000000002815260040180828152602001915050602060405180830381600087803b15801561201457600080fd5b505af1158015612028573d6000803e3d6000fd5b505050506040513d602081101561203e57600080fd5b8101908080519060200190929190505050828281518110151561205d57fe5b90602001906020020181815250508080600101915050611f7a565b5092915050565b600360009054906101000a900473ffffffffffffffffffffffffffffffffffffffff1673ffffffffffffffffffffffffffffffffffffffff163373ffffffffffffffffffffffffffffffffffffffff161415156120db57600080fd5b600073ffffffffffffffffffffffffffffffffffffffff168173ffffffffffffffffffffffffffffffffffffffff161415151561211757600080fd5b8073ffffffffffffffffffffffffffffffffffffffff16600360009054906101000a900473ffffffffffffffffffffffffffffffffffffffff1673ffffffffffffffffffffffffffffffffffffffff167f8be0079c531659141344cd1fd0a4f28419497f9722a3daafe3b4186f6b6457e060405160405180910390a380600360006101000a81548173ffffffffffffffffffffffffffffffffffffffff021916908373ffffffffffffffffffffffffffffffffffffffff16021790555050565b600760009054906101000a900473ffffffffffffffffffffffffffffffffffffffff1681565b60096020528060005260406000206000915054906101000a900461ffff1681565b612226613441565b60008060008060606000806060600080600115156000809054906101000a900460ff16151514151561225757600080fd5b600a9950600098505b61226a601161306c565b89108061227657508989105b15612519575a9750612286612526565b965060008711151561229757612519565b6122a0876128f1565b95508551945086851415156122b457612519565b6122c885601161308390919063ffffffff16565b15156122d357612519565b6122dd601161314d565b809550819c505050612394868c6020015173ffffffffffffffffffffffffffffffffffffffff166387ea09616040518163ffffffff167c0100000000000000000000000000000000000000000000000000000000028152600401602060405180830381600087803b15801561235157600080fd5b505af1158015612365573d6000803e3d6000fd5b505050506040513d602081101561237b57600080fd5b810190808051906020019092919050505060ff16612b9e565b92506123ae8b600001518c60200151858e60600151612c7f565b91507f422ca471d1a1b69b87453d0f5149fd001dc7fd04fc2b5b8b8d70b17398a9b85a826001604051808373ffffffffffffffffffffffffffffffffffffffff1673ffffffffffffffffffffffffffffffffffffffff1681526020018260ff1681526020019250505060405180910390a13a5a89030290503273ffffffffffffffffffffffffffffffffffffffff166108fc829081150290604051600060405180830381858888f1935050505015801561246c573d6000803e3d6000fd5b506124c5848203600f60008e6040015173ffffffffffffffffffffffffffffffffffffffff1673ffffffffffffffffffffffffffffffffffffffff1681526020019081526020016000205461317c90919063ffffffff16565b600f60008d6040015173ffffffffffffffffffffffffffffffffffffffff1673ffffffffffffffffffffffffffffffffffffffff168152602001908152602001600020819055508880600101995050612260565b5050505050505050505050565b60008060009150600090505b6008805490508110156127115760088181548110151561254e57fe5b9060005260206000200160009054906101000a900473ffffffffffffffffffffffffffffffffffffffff1673ffffffffffffffffffffffffffffffffffffffff1663ae897c556040518163ffffffff167c0100000000000000000000000000000000000000000000000000000000028152600401602060405180830381600087803b1580156125dc57600080fd5b505af11580156125f0573d6000803e3d6000fd5b505050506040513d602081101561260657600080fd5b810190808051906020019092919050505060ff1660088281548110151561262957fe5b9060005260206000200160009054906101000a900473ffffffffffffffffffffffffffffffffffffffff1673ffffffffffffffffffffffffffffffffffffffff16630c3f6acf6040518163ffffffff167c0100000000000000000000000000000000000000000000000000000000028152600401602060405180830381600087803b1580156126b757600080fd5b505af11580156126cb573d6000803e3d6000fd5b505050506040513d60208110156126e157600080fd5b810190808051906020019092919050505060ff1614156127045781806001019250505b8080600101915050612532565b8191505090565b60008660000180549050600188600001805490500111151561273957600080fd5b866000016080604051908101604052808873ffffffffffffffffffffffffffffffffffffffff1681526020018773ffffffffffffffffffffffffffffffffffffffff1681526020018573ffffffffffffffffffffffffffffffffffffffff168152602001848152509080600181540180825580915050906001820390600052602060002090600402016000909192909190915060008201518160000160006101000a81548173ffffffffffffffffffffffffffffffffffffffff021916908373ffffffffffffffffffffffffffffffffffffffff16021790555060208201518160010160006101000a81548173ffffffffffffffffffffffffffffffffffffffff021916908373ffffffffffffffffffffffffffffffffffffffff16021790555060408201518160020160006101000a81548173ffffffffffffffffffffffffffffffffffffffff021916908373ffffffffffffffffffffffffffffffffffffffff16021790555060608201518160030155505050866001018490806001815401808255809150509060018203906000526020600020016000909192909190915055506128e58761306c565b90509695505050505050565b606080600080846040519080825280602002602001820160405280156129265781602001602082028038833980820191505090505b50925060009150600090505b600880549050811015612b935760088181548110151561294e57fe5b9060005260206000200160009054906101000a900473ffffffffffffffffffffffffffffffffffffffff1673ffffffffffffffffffffffffffffffffffffffff1663ae897c556040518163ffffffff167c0100000000000000000000000000000000000000000000000000000000028152600401602060405180830381600087803b1580156129dc57600080fd5b505af11580156129f0573d6000803e3d6000fd5b505050506040513d6020811015612a0657600080fd5b810190808051906020019092919050505060ff16600882815481101515612a2957fe5b9060005260206000200160009054906101000a900473ffffffffffffffffffffffffffffffffffffffff1673ffffffffffffffffffffffffffffffffffffffff16630c3f6acf6040518163ffffffff167c0100000000000000000000000000000000000000000000000000000000028152600401602060405180830381600087803b158015612ab757600080fd5b505af1158015612acb573d6000803e3d6000fd5b505050506040513d6020811015612ae157600080fd5b810190808051906020019092919050505060ff161415612b8657600881815481101515612b0a57fe5b9060005260206000200160009054906101000a900473ffffffffffffffffffffffffffffffffffffffff168383806001019450815181101515612b4957fe5b9060200190602002019073ffffffffffffffffffffffffffffffffffffffff16908173ffffffffffffffffffffffffffffffffffffffff16815250505b8080600101915050612932565b829350505050919050565b606080600083604051908082528060200260200182016040528015612bd25781602001602082028038833980820191505090505b509250612be183518651611f3f565b9150600090505b8251811015612c7757848282815181101515612c0057fe5b90602001906020020151815181101515612c1657fe5b906020019060200201518382815181101515612c2e57fe5b9060200190602002019073ffffffffffffffffffffffffffffffffffffffff16908173ffffffffffffffffffffffffffffffffffffffff16815250508080600101915050612be8565b505092915050565b6000600115156000809054906101000a900460ff161515141515612ca257600080fd5b600b60009054906101000a900473ffffffffffffffffffffffffffffffffffffffff1673ffffffffffffffffffffffffffffffffffffffff1663296c2efa868686866040518563ffffffff167c0100000000000000000000000000000000000000000000000000000000028152600401808573ffffffffffffffffffffffffffffffffffffffff1673ffffffffffffffffffffffffffffffffffffffff1681526020018473ffffffffffffffffffffffffffffffffffffffff1673ffffffffffffffffffffffffffffffffffffffff16815260200180602001838152602001828103825284818151815260200191508051906020019060200280838360005b83811015612dbc578082015181840152602081019050612da1565b5050505090500195505050505050602060405180830381600087803b158015612de457600080fd5b505af1158015612df8573d6000803e3d6000fd5b505050506040513d6020811015612e0e57600080fd5b81019080805190602001909291905050509050600073ffffffffffffffffffffffffffffffffffffffff168173ffffffffffffffffffffffffffffffffffffffff1614151515612e5a57fe5b60ff8173ffffffffffffffffffffffffffffffffffffffff1663cc0e82c16040518163ffffffff167c0100000000000000000000000000000000000000000000000000000000028152600401602060405180830381600087803b158015612ec057600080fd5b505af1158015612ed4573d6000803e3d6000fd5b505050506040513d6020811015612eea57600080fd5b810190808051906020019092919050505060ff16141515612f0757fe5b600d8190806001815401808255809150509060018203906000526020600020016000909192909190916101000a81548173ffffffffffffffffffffffffffffffffffffffff021916908373ffffffffffffffffffffffffffffffffffffffff16021790555050600d80549050600c60008373ffffffffffffffffffffffffffffffffffffffff1673ffffffffffffffffffffffffffffffffffffffff16815260200190815260200160002060006101000a81548161ffff021916908361ffff1602179055508073ffffffffffffffffffffffffffffffffffffffff16638129fc1c6040518163ffffffff167c0100000000000000000000000000000000000000000000000000000000028152600401600060405180830381600087803b15801561303057600080fd5b505af1158015613044573d6000803e3d6000fd5b50505050949350505050565b6000818301905082811015151561306357fe5b80905092915050565b600081600201548260000180549050039050919050565b600061308d613441565b61309684613195565b508091505082816020015173ffffffffffffffffffffffffffffffffffffffff166387ea09616040518163ffffffff167c0100000000000000000000000000000000000000000000000000000000028152600401602060405180830381600087803b15801561310457600080fd5b505af1158015613118573d6000803e3d6000fd5b505050506040513d602081101561312e57600080fd5b810190808051906020019092919050505060ff16111591505092915050565b613155613441565b600061316083613195565b809250819350505061317183613306565b818191509150915091565b600082821115151561318a57fe5b818303905092915050565b61319d613441565b60008260000183600201548154811015156131b457fe5b90600052602060002090600402018360010184600201548154811015156131d757fe5b906000526020600020015481608060405190810160405290816000820160009054906101000a900473ffffffffffffffffffffffffffffffffffffffff1673ffffffffffffffffffffffffffffffffffffffff1673ffffffffffffffffffffffffffffffffffffffff1681526020016001820160009054906101000a900473ffffffffffffffffffffffffffffffffffffffff1673ffffffffffffffffffffffffffffffffffffffff1673ffffffffffffffffffffffffffffffffffffffff1681526020016002820160009054906101000a900473ffffffffffffffffffffffffffffffffffffffff1673ffffffffffffffffffffffffffffffffffffffff1673ffffffffffffffffffffffffffffffffffffffff168152602001600382015481525050915091509150915091565b806002016000815480929190600101919050555080600001600182600201540381548110151561333257fe5b9060005260206000209060040201600080820160006101000a81549073ffffffffffffffffffffffffffffffffffffffff02191690556001820160006101000a81549073ffffffffffffffffffffffffffffffffffffffff02191690556002820160006101000a81549073ffffffffffffffffffffffffffffffffffffffff0219169055600382016000905550508060010160018260020154038154811015156133d857fe5b906000526020600020016000905550565b8154818355818111156134105781836000526020600020918201910161340f91906134ac565b5b505050565b81548183558181111561343c5781836000526020600020918201910161343b91906134ac565b5b505050565b608060405190810160405280600073ffffffffffffffffffffffffffffffffffffffff168152602001600073ffffffffffffffffffffffffffffffffffffffff168152602001600073ffffffffffffffffffffffffffffffffffffffff168152602001600081525090565b6134ce91905b808211156134ca5760008160009055506001016134b2565b5090565b905600a165627a7a723058205230032d356d2411abd4d141453167fc7826c02563e8e945e58923c278c200140029608060405234801561001057600080fd5b506000808190555060dd806100266000396000f300608060405260043610603f576000357c0100000000000000000000000000000000000000000000000000000000900463ffffffff168063cd4b6914146044575b600080fd5b348015604f57600080fd5b50606c600480360381019080803590602001909291905050506082565b6040518082815260200191505060405180910390f35b600081600054101515609657600080819055505b600054905060008081548092919060010191905055509190505600a165627a7a72305820970315786f7a36e08403a72d9137fe8942fdec79bbe1a8b2bfaf14e132ff1cdd0029",
  "source": "pragma solidity ^0.4.23;\n\nimport \"openzeppelin-solidity/contracts/math/SafeMath.sol\";\nimport \"../../lifecycle/Initializable.sol\";\nimport \"../lottery/RoundRobinLottery.sol\";\nimport \"./ICognitiveJobManager.sol\";\nimport \"./WorkerNodeManager.sol\";\nimport \"../../jobs/IComputingJob.sol\";\nimport \"../../libraries/JobQueueLib.sol\";\nimport \"../token/Reputation.sol\";\n\n/**\n * @title Pandora Smart Contract\n * @author \"Dr Maxim Orlovsky\" <orlovsky@pandora.foundation>\n *\n * @dev # Pandora Smart Contract\n *\n * Main & root contract implementing the first level of Pandora Boxchain consensus\n * See section [\"3.3. Proof of Cognitive Work (PoCW)\" in Pandora white paper](https://steemit.com/cryptocurrency/%40pandoraboxchain/world-decentralized-ai-on-blockchain-with-cognitive-mining-and-open-markets-for-data-and-algorithms-pandora-boxchain)\n * for more details.\n *\n * Contract token functionality is separated into a separate contract named PAN (after the name of the token)\n * and Pandora contracts just simply inherits PAN contract.\n */\n\ncontract CognitiveJobManager is Initializable, ICognitiveJobManager, WorkerNodeManager {\n\n    /*******************************************************************************************************************\n     * ## Storage\n     */\n\n    /// ### Public variables\n\n    /// @notice Reference to a factory used in creating CognitiveJob contracts\n    /// @dev Factories are used to reduce gas consumption by the main Pandora contract. Since Pandora needs to control\n    /// the code used to deploy Cognitive Jobs and Worker Nodes, it must embed all the byte code for the smart contract.\n    /// However this dramatically increases gas consumption for deploying Pandora contract itself. Thus, the\n    /// CognitiveJob smart contract is deployed by a special factory class `CognitiveJobFactory`, and a special workflow\n    /// is used to ensure uniqueness of the factories and the fact that their code source is coming from the same\n    /// address which have deployed the main Pandora contract. In particular, because of this Pandora is defined as an\n    /// `Ownable` contract and a special `initialize` function and `properlyInitialized` member variable is added.\n    CognitiveJobFactory public cognitiveJobFactory;\n\n    /// @dev Indexes (+1) of active (=running) cognitive jobs in `activeJobs` mapped from their creators\n    /// (owners of the corresponding cognitive job contracts). Zero values corresponds to no active job,\n    /// one  to the one with index 0 and so forth.\n    mapping(address => uint16) public jobAddresses;\n\n    /// @dev List of all active cognitive jobs\n    IComputingJob[] public activeJobs;\n\n    /// @dev Contract, that store rep. values for each address\n    Reputation reputation;\n\n    /// @dev Returns total count of active jobs\n    function activeJobsCount() onlyInitialized view public returns (uint256) {\n        return activeJobs.length;\n    }\n\n    // Deposits from clients used as payment for work\n    mapping(address => uint256) deposits;\n\n    /// @notice Status code returned by `createCognitiveJob()` method when no Idle WorkerNodes were available\n    /// and job was not created but was put into the job queue to be processed lately\n    uint8 constant public RESULT_CODE_ADD_TO_QUEUE = 0;\n    /// @notice Status code returned by `createCognitiveJob()` method when CognitiveJob was created successfully\n    uint8 constant public RESULT_CODE_JOB_CREATED = 1;\n\n    /// ### Private and internal variables\n\n    /// @dev Limit for the amount of lottery cycles before reporting failure to start cognitive job.\n    /// Used in `createCognitiveJob`\n    uint8 constant private MAX_WORKER_LOTTERY_TRIES = 10;\n\n    /// @dev Contract implementing lottery interface for workers selection. Only internal usage\n    /// by `createCognitiveJob` function\n    ILotteryEngine internal workerLotteryEngine;\n\n    // Queue for CognitiveJobs kept while no Idle WorkerNodes available\n    using JobQueueLib for JobQueueLib.Queue;\n    /// @dev Cognitive job queue used for case when no idle workers available\n    JobQueueLib.Queue internal cognitiveJobQueue;\n\n    using SafeMath for uint;\n\n    /*******************************************************************************************************************\n     * ## Events\n     */\n\n    /// @dev Event firing when a new cognitive job created\n    event CognitiveJobCreated(IComputingJob cognitiveJob, uint resultCode);\n\n    /// @dev Event firing when a new cognitive job failed to create\n    event CognitiveJobCreateFailed(IComputingJob cognitiveJob, uint resultCode);\n\n    /*******************************************************************************************************************\n     * ## Constructor and initialization\n     */\n\n    /// ### Constructor\n    /// @dev Constructor receives addresses for the owners of whitelisted worker nodes, which will be assigned an owners\n    /// of worker nodes contracts\n    constructor(\n        CognitiveJobFactory _jobFactory, /// Factory class for creating CognitiveJob contracts\n        WorkerNodeFactory _nodeFactory, /// Factory class for creating WorkerNode contracts\n        Reputation _reputation\n    )\n    public\n    WorkerNodeManager(_nodeFactory) {\n\n        // Must ensure that the supplied factories are already created contracts\n        require(_jobFactory != address(0));\n\n        // Assign factories to storage variables\n        cognitiveJobFactory = _jobFactory;\n\n        reputation = _reputation;\n\n        // Initializing worker lottery engine\n        // In Pyrrha we use round robin algorithm to give our whitelisted nodes equal and consequential chances\n        workerLotteryEngine = new RoundRobinLottery();\n    }\n\n    /*******************************************************************************************************************\n     * ## Modifiers\n     */\n\n\n    /*******************************************************************************************************************\n     * ## Functions\n     */\n\n    /// ### Public and external\n\n    /// @notice Test whether the given `job` is registered as an active job by the main Pandora contract\n    /// @dev Used to test if some given job contract is a contract created by the Pandora and is listed by it as an\n    /// active contract\n    function isActiveJob(\n        IComputingJob _job /// Job contract to test\n    )\n    onlyInitialized\n    view\n    public\n    returns (\n        bool /// Testing result\n    ) {\n        // Getting the index of the job from the internal list\n        uint16 index = jobAddresses[_job];\n        // Testing if the job was present in the list\n        if (index == 0) {\n            return false;\n        }\n        // We must decrease the index since they are 1-based, not 0-based (0 corresponds to \"no contract\" due to\n        // Solidity specificity\n        index--;\n\n        // Retrieving the job contract from the index\n        IComputingJob job = activeJobs[index];\n        // Double-checking that the job at the index is the actual job being tested\n        return(job == _job);\n    }\n\n\n    /// @notice Creates and returns new cognitive job contract and starts actual cognitive work instantly\n    /// @dev Core function creating new cognitive job contract and returning it back to the caller\n    function createCognitiveJob(\n        IKernel _kernel, /// Pre-initialized kernel data entity contract\n        IDataset _dataset, /// Pre-initialized dataset entity contract\n        uint256 _complexity\n    )\n    external\n    payable\n    onlyInitialized\n    returns (\n        IComputingJob o_cognitiveJob, /// Newly created cognitive jobs (starts automatically)\n        uint8 o_resultCode /// result code of creating cognitiveJob, 0 - no available workers, 1 - job created\n    ) {\n\n        // Restriction for batches count came from potential high gas usage in JobQueue processing\n        // todo check max restriction with tests\n        require(_dataset.batchesCount() <= 10);\n\n        // Dimensions of the input data and neural network input layer must be equal\n        require(_kernel.dataDim() == _dataset.dataDim());\n\n        // The created job must fit into uint16 size\n        require(activeJobs.length < 2 ^ 16 - 1);\n\n        // @todo check payment corresponds to required amount + gas payment (from tests)\n\n        // Counting number of available worker nodes (in Idle state)\n        // Since Solidity does not supports dynamic in-memory arrays (yet), has to be done in two-staged way:\n        // first by counting array size and then by allocating and populating array itself\n\n        uint256 estimatedSize = _countIdleWorkers();\n\n        // Put task in queue if number of idle workers less than number of batches in dataset\n        uint8 batchesCount = _dataset.batchesCount();\n        if (estimatedSize < uint256(batchesCount)) {\n            o_resultCode = RESULT_CODE_ADD_TO_QUEUE;\n            cognitiveJobQueue.put(_kernel, _dataset, msg.value, msg.sender, _complexity);\n            emit CognitiveJobCreateFailed(o_cognitiveJob, o_resultCode);\n            return (o_cognitiveJob, o_resultCode);\n        }\n\n        // Initializing in-memory array for idle node list and populating it with data\n        IWorkerNode[] memory idleWorkers = _listIdleWorkers(estimatedSize);\n        uint actualSize = idleWorkers.length;\n\n//        // Something really wrong happened with EVM if this assert fails\n//        if (actualSize != estimatedSize) {\n//            o_resultCode = RESULT_CODE_ADD_TO_QUEUE;\n//            cognitiveJobQueue.put(kernel, dataset, msg.value, msg.sender);\n//            CognitiveJobCreateFailed(o_cognitiveJob, o_resultCode);\n//            return (o_cognitiveJob, o_resultCode);\n//        }\n\n        // Running lottery to select worker node to be assigned cognitive job contract\n        IWorkerNode[] memory assignedWorkers = _selectWorkersWithLottery(idleWorkers, _dataset.batchesCount());\n\n        o_cognitiveJob = _initCognitiveJob(_kernel, _dataset, assignedWorkers, _complexity);\n        o_resultCode = RESULT_CODE_JOB_CREATED;\n\n        //  Hold payment from client\n        deposits[msg.sender] = deposits[msg.sender].add(msg.value);\n\n        emit CognitiveJobCreated(o_cognitiveJob, o_resultCode);\n    }\n\n    //todo should be called after providing full resulta of entire job\n\n    /// @notice Can\"t be called by the user, for internal use only\n    /// @dev Function must be called only by the master node running cognitive job. It completes the job, updates\n    /// worker node back to `Idle` state (in smart contract) and removes job contract from the list of active contracts\n    function finishCognitiveJob(\n        // No arguments - cognitive job is taken from msg.sender\n    )\n    external\n    onlyInitialized\n    {\n        uint16 index = jobAddresses[msg.sender];\n        require(index != 0);\n        index--;\n\n        IComputingJob job = activeJobs[index];\n        require(address(job) == msg.sender);\n\n        // @todo Kill the job contract\n\n//        for (uint no = 0; no < job.activeWorkersCount(); no++) {\n//            if (job.didWorkerCompute(no) == true) {\n//                job.activeWorkers(no).increaseReputation();\n//            }\n//        }\n\n        // @fixme set \"Idle\" state to the worker\n\n        //todo add removed job to completed job array\n        // Remove cognitive job contract from the storage\n        delete jobAddresses[address(job)];\n        IComputingJob movedJob = activeJobs[index] = activeJobs[activeJobs.length - 1];\n        jobAddresses[movedJob] = index + 1;\n        //todo delete job from array (not only change length)\n        activeJobs.length--;\n\n        // After finish, try to start new CognitiveJob from a queue of activeJobs\n        _checkJobQueue();\n\n        // Increase reputation of workers involved to computation\n        uint256 reputationReward = job.complexity(); //todo add koef for complexity-reputation\n        for (uint256 i = 0; i <= job.activeWorkersCount(); i++) {\n            reputation.incrReputation(address(i), reputationReward);\n        }\n        //todo: user have to able to withdraw remaining funds if worker is idle\n    }\n\n    /// @notice Private function which checks queue of jobs and create new jobs\n    /// #dev Function is called only in `finishCognitiveJob()` in order to allocate newly freed WorkerNodes\n    /// to perform cognitive jobs from the queue.\n    function _checkJobQueue(\n        // No arguments\n    )\n    private\n    onlyInitialized {\n        JobQueueLib.QueuedJob memory queuedJob;\n        // Iterate queue and check queue depth\n\n        uint limitQueueRequests = 10; // todo check limit for queue requests with tests\n\n        for (uint256 k = 0; (k < cognitiveJobQueue.queueDepth()) || (k < limitQueueRequests); k++) {\n\n            // Count remaining gas\n            uint initialGas = gasleft();\n\n            // Counting number of available worker nodes (in Idle state)\n            uint256 estimatedSize = _countIdleWorkers();\n\n            // There must be at least one free worker node\n            if (estimatedSize <= 0) {\n                break;\n            }\n\n            // Initializing in-memory array for idle node list and populating it with data\n            IWorkerNode[] memory idleWorkers = _listIdleWorkers(estimatedSize);\n            uint actualSize = idleWorkers.length;\n            if (actualSize != estimatedSize) {\n                break;\n            }\n\n            // Check number of batches with number of idle workers\n            if (!cognitiveJobQueue.compareFirstElementToIdleWorkers(actualSize)) {\n                break;\n            }\n\n            uint256 value; // Value from queuedJob deposit\n            (queuedJob, value) = cognitiveJobQueue.requestJob();\n\n            // Running lottery to select worker node to be assigned cognitive job contract\n            IWorkerNode[] memory assignedWorkers = _selectWorkersWithLottery(idleWorkers, queuedJob.dataset.batchesCount());\n\n            IComputingJob createdCognitiveJob = _initCognitiveJob(queuedJob.kernel, queuedJob.dataset, assignedWorkers, queuedJob.complexity);\n\n            emit CognitiveJobCreated(createdCognitiveJob, RESULT_CODE_JOB_CREATED);\n\n            // Count used funds for queue\n            uint weiUsedForQueuedJob = (initialGas - gasleft()) * tx.gasprice;\n\n            // Gas refund to node\n            tx.origin.transfer(weiUsedForQueuedJob);\n\n            // Withdraw from client\"s deposits\n            deposits[queuedJob.client] = deposits[queuedJob.client].sub(weiUsedForQueuedJob - value);\n        }\n    }\n\n    /// @notice Can\"t be called by the user or other contract: for private use only\n    /// @dev Creates cognitive job contract, saves it to storage and fires global event to notify selected worker node.\n    /// Used both by `createCognitiveJob()` and `_checksJobQueue()` methods.\n    function _initCognitiveJob(\n        IKernel _kernel, /// Pre-initialized kernel data entity contract (taken from `createCognitiveJob` arguments or\n                        /// from the the `cognitiveJobQueue` `QueuedJob` structure)\n        IDataset _dataset, /// Pre-initialized dataset entity contract (taken from `createCognitiveJob` arguments or\n                          /// from the the `cognitiveJobQueue` `QueuedJob` structure)\n        IWorkerNode[] _assignedWorkers, /// Array of workers assigned for the job by the lottery engine\n        uint256 _complexity\n    )\n    private\n    onlyInitialized\n    returns (\n        IComputingJob o_cognitiveJob /// Created cognitive job (function may fail only due to the bugs, so there is no\n                                     /// reason for returning status code)\n    ) {\n        o_cognitiveJob = cognitiveJobFactory.create(_kernel, _dataset, _assignedWorkers, _complexity);\n\n        // Ensuring that contract was successfully created\n        assert(o_cognitiveJob != address(0));\n        // Hint: trying to figure out was the contract body actually created and initialized with proper values\n        assert(o_cognitiveJob.Destroyed() == 0xFF);\n\n        // Save new contract to the storage\n        activeJobs.push(o_cognitiveJob);\n        jobAddresses[o_cognitiveJob] = uint16(activeJobs.length);\n\n        o_cognitiveJob.initialize();\n    }\n\n    /// @notice Can\"t be called by the user or other contract: for private use only\n    /// @dev Running lottery to select random worker nodes from the provided list. Used by both `createCognitiveJob`\n    /// and `_checksJobQueue` functions.\n    function _selectWorkersWithLottery(\n        IWorkerNode[] _idleWorkers, /// Pre-defined pool of Idle WorkerNodes to select from\n        uint _numberWorkersRequired /// Number of workers required by cognitive job, match with number of batches\n    )\n    private\n    returns (\n        IWorkerNode[] assignedWorkers /// Resulting sublist of the selected WorkerNodes\n    ) {\n        assignedWorkers = new IWorkerNode[](_numberWorkersRequired);\n        uint256[] memory randomNumbers = getRandomArray(\n            assignedWorkers.length,\n            uint256(_idleWorkers.length));\n        for (uint i = 0; i < assignedWorkers.length; i++) {\n            assignedWorkers[i] = _idleWorkers[randomNumbers[i]];\n        }\n    }\n\n    /// @notice Can\"t be called by the user or other contract: for private use only\n    /// @dev Pre-count amount of available Idle WorkerNodes. Required to allocate in-memory list of WorkerNodes.\n    function _countIdleWorkers(\n        // No arguments\n    )\n    private\n    returns (\n        uint o_estimatedSize /// Amount of currently available (Idle) WorkerNodes\n    ) {\n        o_estimatedSize = 0;\n        for (uint i = 0; i < workerNodes.length; i++) {\n            if (workerNodes[i].currentState() == workerNodes[i].Idle()) {\n                o_estimatedSize++;\n            }\n        }\n        return o_estimatedSize;\n    }\n\n    /// @notice Can\"t be called by the user or other contract: for private use only\n    /// @dev Allocates and returns in-memory array of all Idle WorkerNodes taking estimated size as an argument\n    /// (returned by `_countIdleWorkers()`)\n    function _listIdleWorkers(\n        uint _estimatedSize /// Size of array to return\n    )\n    private\n    returns (\n        IWorkerNode[] /// Returned array of all Idle WorkerNodes\n    ) {\n        IWorkerNode[] memory idleWorkers = new IWorkerNode[](_estimatedSize);\n        uint256 actualSize = 0;\n        for (uint j = 0; j < workerNodes.length; j++) {\n            if (workerNodes[j].currentState() == workerNodes[j].Idle()) {\n                idleWorkers[actualSize++] = workerNodes[j];\n            }\n        }\n        return idleWorkers;\n    }\n\n    function getRandomArray(\n        uint _arrayLength,\n        uint256 _numbersRange)\n    public\n    returns (uint256[] o_result) {\n        o_result = new uint256[](_arrayLength);\n        for (uint i = 0; i < o_result.length; i++) {\n            o_result[i] = workerLotteryEngine.getRandom(_numbersRange);\n        }\n    }\n}",
  "sourcePath": "/home/aleksei/projects/pandora/pandora-pyrrha/pyrrha-consensus/contracts/pandora/managers/CognitiveJobManager.sol",
  "compiler": {
    "name": "solc",
    "version": "0.4.23+commit.124ca40d.Emscripten.clang"
  },
  "schemaVersion": "2.0.0",
  "updatedAt": "2018-06-15T19:01:49.337Z"
}