{
  "contractName": "CognitiveJobManager",
  "abi": [
    {
      "constant": true,
      "inputs": [],
      "name": "workerNodesCount",
      "outputs": [
        {
          "name": "",
          "type": "uint256"
        }
      ],
      "payable": false,
      "stateMutability": "view",
      "type": "function"
    },
    {
      "constant": false,
      "inputs": [
        {
          "name": "_workerOwner",
          "type": "address"
        }
      ],
      "name": "whitelistWorkerOwner",
      "outputs": [],
      "payable": false,
      "stateMutability": "nonpayable",
      "type": "function"
    },
    {
      "constant": true,
      "inputs": [],
      "name": "initialized",
      "outputs": [
        {
          "name": "",
          "type": "bool"
        }
      ],
      "payable": false,
      "stateMutability": "view",
      "type": "function"
    },
    {
      "constant": true,
      "inputs": [
        {
          "name": "",
          "type": "uint256"
        }
      ],
      "name": "workerNodes",
      "outputs": [
        {
          "name": "",
          "type": "address"
        }
      ],
      "payable": false,
      "stateMutability": "view",
      "type": "function"
    },
    {
      "constant": true,
      "inputs": [],
      "name": "RESULT_CODE_JOB_CREATED",
      "outputs": [
        {
          "name": "",
          "type": "uint8"
        }
      ],
      "payable": false,
      "stateMutability": "view",
      "type": "function"
    },
    {
      "constant": false,
      "inputs": [
        {
          "name": "_guiltyWorker",
          "type": "address"
        },
        {
          "name": "_reason",
          "type": "uint8"
        }
      ],
      "name": "penaltizeWorkerNode",
      "outputs": [],
      "payable": false,
      "stateMutability": "nonpayable",
      "type": "function"
    },
    {
      "constant": true,
      "inputs": [
        {
          "name": "",
          "type": "address"
        }
      ],
      "name": "workerNodeOwners",
      "outputs": [
        {
          "name": "",
          "type": "bool"
        }
      ],
      "payable": false,
      "stateMutability": "view",
      "type": "function"
    },
    {
      "constant": false,
      "inputs": [],
      "name": "renounceOwnership",
      "outputs": [],
      "payable": false,
      "stateMutability": "nonpayable",
      "type": "function"
    },
    {
      "constant": false,
      "inputs": [
        {
          "name": "_workerOwner",
          "type": "address"
        }
      ],
      "name": "blacklistWorkerOwner",
      "outputs": [],
      "payable": false,
      "stateMutability": "nonpayable",
      "type": "function"
    },
    {
      "constant": false,
      "inputs": [],
      "name": "initialize",
      "outputs": [],
      "payable": false,
      "stateMutability": "nonpayable",
      "type": "function"
    },
    {
      "constant": true,
      "inputs": [],
      "name": "RESULT_CODE_ADD_TO_QUEUE",
      "outputs": [
        {
          "name": "",
          "type": "uint8"
        }
      ],
      "payable": false,
      "stateMutability": "view",
      "type": "function"
    },
    {
      "constant": false,
      "inputs": [],
      "name": "createWorkerNode",
      "outputs": [
        {
          "name": "",
          "type": "address"
        }
      ],
      "payable": false,
      "stateMutability": "nonpayable",
      "type": "function"
    },
    {
      "constant": true,
      "inputs": [],
      "name": "owner",
      "outputs": [
        {
          "name": "",
          "type": "address"
        }
      ],
      "payable": false,
      "stateMutability": "view",
      "type": "function"
    },
    {
      "constant": false,
      "inputs": [
        {
          "name": "_workerNode",
          "type": "address"
        }
      ],
      "name": "destroyWorkerNode",
      "outputs": [],
      "payable": false,
      "stateMutability": "nonpayable",
      "type": "function"
    },
    {
      "constant": true,
      "inputs": [],
      "name": "REQUIRED_DEPOSIT",
      "outputs": [
        {
          "name": "",
          "type": "uint256"
        }
      ],
      "payable": false,
      "stateMutability": "view",
      "type": "function"
    },
    {
      "constant": false,
      "inputs": [
        {
          "name": "_newOwner",
          "type": "address"
        }
      ],
      "name": "transferOwnership",
      "outputs": [],
      "payable": false,
      "stateMutability": "nonpayable",
      "type": "function"
    },
    {
      "constant": true,
      "inputs": [],
      "name": "workerNodeFactory",
      "outputs": [
        {
          "name": "",
          "type": "address"
        }
      ],
      "payable": false,
      "stateMutability": "view",
      "type": "function"
    },
    {
      "constant": true,
      "inputs": [
        {
          "name": "",
          "type": "address"
        }
      ],
      "name": "deposits",
      "outputs": [
        {
          "name": "",
          "type": "uint256"
        }
      ],
      "payable": false,
      "stateMutability": "view",
      "type": "function"
    },
    {
      "constant": true,
      "inputs": [
        {
          "name": "",
          "type": "address"
        }
      ],
      "name": "workerAddresses",
      "outputs": [
        {
          "name": "",
          "type": "uint16"
        }
      ],
      "payable": false,
      "stateMutability": "view",
      "type": "function"
    },
    {
      "inputs": [
        {
          "name": "_nodeFactory",
          "type": "address"
        },
        {
          "name": "_reputation",
          "type": "address"
        }
      ],
      "payable": false,
      "stateMutability": "nonpayable",
      "type": "constructor"
    },
    {
      "anonymous": false,
      "inputs": [
        {
          "indexed": false,
          "name": "jobId",
          "type": "bytes32"
        }
      ],
      "name": "CognitiveJobCreated",
      "type": "event"
    },
    {
      "anonymous": false,
      "inputs": [
        {
          "indexed": false,
          "name": "jobId",
          "type": "bytes32"
        }
      ],
      "name": "CognitiveJobQueued",
      "type": "event"
    },
    {
      "anonymous": false,
      "inputs": [
        {
          "indexed": false,
          "name": "workerNode",
          "type": "address"
        }
      ],
      "name": "WorkerNodeCreated",
      "type": "event"
    },
    {
      "anonymous": false,
      "inputs": [
        {
          "indexed": false,
          "name": "workerNode",
          "type": "address"
        }
      ],
      "name": "WorkerNodeDestroyed",
      "type": "event"
    },
    {
      "anonymous": false,
      "inputs": [
        {
          "indexed": true,
          "name": "previousOwner",
          "type": "address"
        }
      ],
      "name": "OwnershipRenounced",
      "type": "event"
    },
    {
      "anonymous": false,
      "inputs": [
        {
          "indexed": true,
          "name": "previousOwner",
          "type": "address"
        },
        {
          "indexed": true,
          "name": "newOwner",
          "type": "address"
        }
      ],
      "name": "OwnershipTransferred",
      "type": "event"
    },
    {
      "constant": true,
      "inputs": [],
      "name": "activeJobsCount",
      "outputs": [
        {
          "name": "",
          "type": "uint256"
        }
      ],
      "payable": false,
      "stateMutability": "view",
      "type": "function"
    },
    {
      "constant": true,
      "inputs": [
        {
          "name": "_jobId",
          "type": "bytes32"
        }
      ],
      "name": "isActiveJob",
      "outputs": [
        {
          "name": "",
          "type": "bool"
        }
      ],
      "payable": false,
      "stateMutability": "view",
      "type": "function"
    },
    {
      "constant": true,
      "inputs": [
        {
          "name": "_jobId",
          "type": "bytes32"
        },
        {
          "name": "isActive",
          "type": "bool"
        }
      ],
      "name": "getCognitiveJobDetails",
      "outputs": [
        {
          "name": "kernel",
          "type": "address"
        },
        {
          "name": "dataset",
          "type": "address"
        },
        {
          "name": "comlexity",
          "type": "uint256"
        },
        {
          "name": "description",
          "type": "bytes32"
        },
        {
          "name": "activeWorkers",
          "type": "address[]"
        }
      ],
      "payable": false,
      "stateMutability": "view",
      "type": "function"
    },
    {
      "constant": true,
      "inputs": [
        {
          "name": "_jobId",
          "type": "bytes32"
        },
        {
          "name": "_isActive",
          "type": "bool"
        },
        {
          "name": "_index",
          "type": "uint8"
        }
      ],
      "name": "getCognitiveJobResults",
      "outputs": [
        {
          "name": "ipfsResults",
          "type": "bytes"
        }
      ],
      "payable": false,
      "stateMutability": "view",
      "type": "function"
    },
    {
      "constant": true,
      "inputs": [
        {
          "name": "_jobId",
          "type": "bytes32"
        },
        {
          "name": "_isActive",
          "type": "bool"
        }
      ],
      "name": "getCognitiveJobProgressInfo",
      "outputs": [
        {
          "name": "responseTimestamps",
          "type": "uint32[]"
        },
        {
          "name": "responseFlags",
          "type": "bool[]"
        },
        {
          "name": "progress",
          "type": "uint8"
        },
        {
          "name": "state",
          "type": "uint8"
        }
      ],
      "payable": false,
      "stateMutability": "view",
      "type": "function"
    },
    {
      "constant": false,
      "inputs": [],
      "name": "checkJobQueue",
      "outputs": [],
      "payable": false,
      "stateMutability": "nonpayable",
      "type": "function"
    },
    {
      "constant": false,
      "inputs": [
        {
          "name": "_kernel",
          "type": "address"
        },
        {
          "name": "_dataset",
          "type": "address"
        },
        {
          "name": "_complexity",
          "type": "uint256"
        },
        {
          "name": "_description",
          "type": "bytes32"
        }
      ],
      "name": "createCognitiveJob",
      "outputs": [
        {
          "name": "o_jobId",
          "type": "bytes32"
        },
        {
          "name": "o_resultCode",
          "type": "uint8"
        }
      ],
      "payable": true,
      "stateMutability": "payable",
      "type": "function"
    },
    {
      "constant": false,
      "inputs": [],
      "name": "getQueueDepth",
      "outputs": [
        {
          "name": "",
          "type": "uint256"
        }
      ],
      "payable": false,
      "stateMutability": "nonpayable",
      "type": "function"
    },
    {
      "constant": false,
      "inputs": [
        {
          "name": "_jobId",
          "type": "bytes32"
        },
        {
          "name": "_ipfsResults",
          "type": "bytes"
        }
      ],
      "name": "provideResults",
      "outputs": [],
      "payable": false,
      "stateMutability": "nonpayable",
      "type": "function"
    },
    {
      "constant": false,
      "inputs": [
        {
          "name": "_jobId",
          "type": "bytes32"
        },
        {
          "name": "_responseType",
          "type": "uint8"
        },
        {
          "name": "_response",
          "type": "bool"
        }
      ],
      "name": "respondToJob",
      "outputs": [],
      "payable": false,
      "stateMutability": "nonpayable",
      "type": "function"
    },
    {
      "constant": false,
      "inputs": [
        {
          "name": "_jobId",
          "type": "bytes32"
        },
        {
          "name": "_percent",
          "type": "uint8"
        }
      ],
      "name": "commitProgress",
      "outputs": [],
      "payable": false,
      "stateMutability": "nonpayable",
      "type": "function"
    }
  ],
  "bytecode": "0x608060405260008060006101000a81548160ff0219169083151502179055503480156200002b57600080fd5b50604051604080620057fe83398101806040528101908080519060200190929190805190602001909291905050508160008060006101000a81548160ff02191690831515021790555033600060016101000a81548173ffffffffffffffffffffffffffffffffffffffff021916908373ffffffffffffffffffffffffffffffffffffffff160217905550600073ffffffffffffffffffffffffffffffffffffffff168173ffffffffffffffffffffffffffffffffffffffff1614151515620000f257600080fd5b80600460006101000a81548173ffffffffffffffffffffffffffffffffffffffff021916908373ffffffffffffffffffffffffffffffffffffffff1602179055505080600860006101000a81548173ffffffffffffffffffffffffffffffffffffffff021916908373ffffffffffffffffffffffffffffffffffffffff1602179055506200017f620001e5565b604051809103906000f0801580156200019c573d6000803e3d6000fd5b50600a60006101000a81548173ffffffffffffffffffffffffffffffffffffffff021916908373ffffffffffffffffffffffffffffffffffffffff1602179055505050620001f6565b604051610165806200569983390190565b61549380620002066000396000f300608060405260043610610180576000357c0100000000000000000000000000000000000000000000000000000000900463ffffffff1680630e3b581f1461018557806313b5165f146101b0578063158ef93e146101f35780631dc20af41461022257806323ce524a1461028f57806335672a30146102c05780635c2b37fa146103ce5780635ef17776146103f9578063687fbdff1461044957806370064e3314610487578063715018a6146104e257806379bc5cbd146104f95780637b3c611c146105425780637e58bf1e146105855780638129fc1c146105b057806383c94c69146105c757806386202c2c146105f857806386b07332146106ec5780638da5cb5b14610743578063a3e27fc91461079a578063ae1092ae146107b1578063b0e79d9b146107f4578063bbcc72611461083e578063be64b76b14610887578063c1f661e1146108b2578063ea84546b14610975578063f2fde38b14610a0c578063f9d84ade14610a4f578063fc7e286d14610aa6578063fdb5b8d414610afd575b600080fd5b34801561019157600080fd5b5061019a610b5c565b6040518082815260200191505060405180910390f35b3480156101bc57600080fd5b506101f1600480360381019080803573ffffffffffffffffffffffffffffffffffffffff169060200190929190505050610b8a565b005b3480156101ff57600080fd5b50610208610c41565b604051808215151515815260200191505060405180910390f35b34801561022e57600080fd5b5061024d60048036038101908080359060200190929190505050610c53565b604051808273ffffffffffffffffffffffffffffffffffffffff1673ffffffffffffffffffffffffffffffffffffffff16815260200191505060405180910390f35b34801561029b57600080fd5b506102a4610c91565b604051808260ff1660ff16815260200191505060405180910390f35b3480156102cc57600080fd5b506102fb6004803603810190808035600019169060200190929190803515159060200190929190505050610c96565b604051808673ffffffffffffffffffffffffffffffffffffffff1673ffffffffffffffffffffffffffffffffffffffff1681526020018573ffffffffffffffffffffffffffffffffffffffff1673ffffffffffffffffffffffffffffffffffffffff168152602001848152602001836000191660001916815260200180602001828103825283818151815260200191508051906020019060200280838360005b838110156103b657808201518184015260208101905061039b565b50505050905001965050505050505060405180910390f35b3480156103da57600080fd5b506103e3610e3f565b6040518082815260200191505060405180910390f35b34801561040557600080fd5b50610447600480360381019080803573ffffffffffffffffffffffffffffffffffffffff169060200190929190803560ff169060200190929190505050610e4f565b005b34801561045557600080fd5b506104856004803603810190808035600019169060200190929190803560ff169060200190929190505050610e74565b005b34801561049357600080fd5b506104c8600480360381019080803573ffffffffffffffffffffffffffffffffffffffff169060200190929190505050610e90565b604051808215151515815260200191505060405180910390f35b3480156104ee57600080fd5b506104f7610eb0565b005b34801561050557600080fd5b506105286004803603810190808035600019169060200190929190505050610fb4565b604051808215151515815260200191505060405180910390f35b34801561054e57600080fd5b50610583600480360381019080803573ffffffffffffffffffffffffffffffffffffffff169060200190929190505050610ff1565b005b34801561059157600080fd5b5061059a61109f565b6040518082815260200191505060405180910390f35b3480156105bc57600080fd5b506105c56110b0565b005b3480156105d357600080fd5b506105dc6110cc565b604051808260ff1660ff16815260200191505060405180910390f35b34801561060457600080fd5b5061063360048036038101908080356000191690602001909291908035151590602001909291905050506110d1565b6040518080602001806020018560ff1660ff1681526020018460ff1660ff168152602001838103835287818151815260200191508051906020019060200280838360005b83811015610692578082015181840152602081019050610677565b50505050905001838103825286818151815260200191508051906020019060200280838360005b838110156106d45780820151818401526020810190506106b9565b50505050905001965050505050505060405180910390f35b3480156106f857600080fd5b506107016112b3565b604051808273ffffffffffffffffffffffffffffffffffffffff1673ffffffffffffffffffffffffffffffffffffffff16815260200191505060405180910390f35b34801561074f57600080fd5b506107586115ad565b604051808273ffffffffffffffffffffffffffffffffffffffff1673ffffffffffffffffffffffffffffffffffffffff16815260200191505060405180910390f35b3480156107a657600080fd5b506107af6115d3565b005b3480156107bd57600080fd5b506107f2600480360381019080803573ffffffffffffffffffffffffffffffffffffffff169060200190929190505050611943565b005b34801561080057600080fd5b5061083c6004803603810190808035600019169060200190929190803560ff169060200190929190803515159060200190929190505050611e95565b005b34801561084a57600080fd5b506108856004803603810190808035600019169060200190929190803590602001908201803590602001919091929391929390505050611eb5565b005b34801561089357600080fd5b5061089c6120b1565b6040518082815260200191505060405180910390f35b3480156108be57600080fd5b506108fa6004803603810190808035600019169060200190929190803515159060200190929190803560ff1690602001909291905050506120bd565b6040518080602001828103825283818151815260200191508051906020019080838360005b8381101561093a57808201518184015260208101905061091f565b50505050905090810190601f1680156109675780820380516001836020036101000a031916815260200191505b509250505060405180910390f35b6109e1600480360381019080803573ffffffffffffffffffffffffffffffffffffffff169060200190929190803573ffffffffffffffffffffffffffffffffffffffff16906020019092919080359060200190929190803560001916906020019092919050505061222f565b6040518083600019166000191681526020018260ff1660ff1681526020019250505060405180910390f35b348015610a1857600080fd5b50610a4d600480360381019080803573ffffffffffffffffffffffffffffffffffffffff169060200190929190505050612624565b005b348015610a5b57600080fd5b50610a6461268c565b604051808273ffffffffffffffffffffffffffffffffffffffff1673ffffffffffffffffffffffffffffffffffffffff16815260200191505060405180910390f35b348015610ab257600080fd5b50610ae7600480360381019080803573ffffffffffffffffffffffffffffffffffffffff1690602001909291905050506126b2565b6040518082815260200191505060405180910390f35b348015610b0957600080fd5b50610b3e600480360381019080803573ffffffffffffffffffffffffffffffffffffffff1690602001909291905050506126ca565b604051808261ffff1661ffff16815260200191505060405180910390f35b6000600115156000809054906101000a900460ff161515141515610b7f57600080fd5b600580549050905090565b600060019054906101000a900473ffffffffffffffffffffffffffffffffffffffff1673ffffffffffffffffffffffffffffffffffffffff163373ffffffffffffffffffffffffffffffffffffffff16141515610be657600080fd5b6001600760008373ffffffffffffffffffffffffffffffffffffffff1673ffffffffffffffffffffffffffffffffffffffff16815260200190815260200160002060006101000a81548160ff02191690831515021790555050565b6000809054906101000a900460ff1681565b600581815481101515610c6257fe5b906000526020600020016000915054906101000a900473ffffffffffffffffffffffffffffffffffffffff1681565b600181565b6000806000806060600086610cfa57600e600201600e60000160008a6000191660001916815260200190815260200160002060009054906101000a900461ffff1661ffff16815481101515610ce757fe5b90600052602060002090600a0201610d4b565b600e600101600e60000160008a6000191660001916815260200190815260200160002060009054906101000a900461ffff1661ffff16815481101515610d3c57fe5b90600052602060002090600a02015b90508060010160009054906101000a900473ffffffffffffffffffffffffffffffffffffffff1695508060020160009054906101000a900473ffffffffffffffffffffffffffffffffffffffff169450806003015493508060040154925080600501805480602002602001604051908101604052809291908181526020018280548015610e2d57602002820191906000526020600020905b8160009054906101000a900473ffffffffffffffffffffffffffffffffffffffff1673ffffffffffffffffffffffffffffffffffffffff1681526020019060010190808311610de3575b50505050509150509295509295909350565b6000600e60010180549050905090565b600115156000809054906101000a900460ff161515141515610e7057600080fd5b5050565b610e8c823383600e6126eb909392919063ffffffff16565b5050565b60076020528060005260406000206000915054906101000a900460ff1681565b600060019054906101000a900473ffffffffffffffffffffffffffffffffffffffff1673ffffffffffffffffffffffffffffffffffffffff163373ffffffffffffffffffffffffffffffffffffffff16141515610f0c57600080fd5b600060019054906101000a900473ffffffffffffffffffffffffffffffffffffffff1673ffffffffffffffffffffffffffffffffffffffff167ff8df31144d9c2f0f6b59d69b8b98abd5459d07f2742c4df920b25aae33c6482060405160405180910390a260008060016101000a81548173ffffffffffffffffffffffffffffffffffffffff021916908373ffffffffffffffffffffffffffffffffffffffff160217905550565b600080600e6000016000846000191660001916815260200190815260200160002060009054906101000a900461ffff1661ffff1614159050919050565b600060019054906101000a900473ffffffffffffffffffffffffffffffffffffffff1673ffffffffffffffffffffffffffffffffffffffff163373ffffffffffffffffffffffffffffffffffffffff1614151561104d57600080fd5b600760008273ffffffffffffffffffffffffffffffffffffffff1673ffffffffffffffffffffffffffffffffffffffff16815260200190815260200160002060006101000a81549060ff021916905550565b60006110ab600b6128b2565b905090565b60016000806101000a81548160ff021916908315150217905550565b600081565b60608060008060008561113357600e600201600e6000016000896000191660001916815260200190815260200160002060009054906101000a900461ffff1661ffff1681548110151561112057fe5b90600052602060002090600a0201611184565b600e600101600e6000016000896000191660001916815260200190815260200160002060009054906101000a900461ffff1661ffff1681548110151561117557fe5b90600052602060002090600a02015b90508060070180548060200260200160405190810160405280929190818152602001828054801561120057602002820191906000526020600020906000905b82829054906101000a900463ffffffff1663ffffffff16815260200190600401906020826003010492830192600103820291508084116111c35790505b505050505094508060080180548060200260200160405190810160405280929190818152602001828054801561127a57602002820191906000526020600020906000905b82829054906101000a900460ff161515815260200190600101906020826000010492830192600103820291508084116112445790505b505050505093508060090160009054906101000a900460ff1692508060090160019054906101000a900460ff1691505092959194509250565b600080600115156000809054906101000a900460ff1615151415156112d757600080fd5b60011515600760003373ffffffffffffffffffffffffffffffffffffffff1673ffffffffffffffffffffffffffffffffffffffff16815260200190815260200160002060009054906101000a900460ff16151514151561133657600080fd5b3273ffffffffffffffffffffffffffffffffffffffff163373ffffffffffffffffffffffffffffffffffffffff1614151561137057600080fd5b600d60058054905010151561138457600080fd5b600460009054906101000a900473ffffffffffffffffffffffffffffffffffffffff1673ffffffffffffffffffffffffffffffffffffffff16639ed93318336040518263ffffffff167c0100000000000000000000000000000000000000000000000000000000028152600401808273ffffffffffffffffffffffffffffffffffffffff1673ffffffffffffffffffffffffffffffffffffffff168152602001915050602060405180830381600087803b15801561144157600080fd5b505af1158015611455573d6000803e3d6000fd5b505050506040513d602081101561146b57600080fd5b8101908080519060200190929190505050905060058190806001815401808255809150509060018203906000526020600020016000909192909190916101000a81548173ffffffffffffffffffffffffffffffffffffffff021916908373ffffffffffffffffffffffffffffffffffffffff16021790555050600580549050600660008373ffffffffffffffffffffffffffffffffffffffff1673ffffffffffffffffffffffffffffffffffffffff16815260200190815260200160002060006101000a81548161ffff021916908361ffff1602179055507f093794466f44429afc8d8ec2c4c7f42c98d5db9b3db965ce46a31e7d4f7c29c881604051808273ffffffffffffffffffffffffffffffffffffffff1673ffffffffffffffffffffffffffffffffffffffff16815260200191505060405180910390a18091505090565b600060019054906101000a900473ffffffffffffffffffffffffffffffffffffffff1681565b6115db614d1b565b60008060008060606000806060806000806000806115f9600b6128b2565b9c5060018d60ff161161160c578c61160f565b60015b9c5060009b505b8c60ff168c60ff161015611933575a9a5061162f6128c9565b995060008a11151561164057611933565b6116498a612abb565b985088519750898814151561165d57611933565b61167188600b612d6890919063ffffffff16565b151561167c57611933565b611686600b612d91565b809850819f50505061169c898f60600151612dc0565b955085516040519080825280602002602001820160405280156116ce5781602001602082028038833980820191505090505b509450600093505b84518460ff16101561175757858460ff168151811015156116f357fe5b90602001906020020151858560ff1681518110151561170e57fe5b9060200190602002019073ffffffffffffffffffffffffffffffffffffffff16908173ffffffffffffffffffffffffffffffffffffffff168152505083806001019450506116d6565b6117618e87612f64565b9250600091505b85518260ff16101561182a57858260ff1681518110151561178557fe5b9060200190602002015173ffffffffffffffffffffffffffffffffffffffff16637aee7e09846040518263ffffffff167c0100000000000000000000000000000000000000000000000000000000028152600401808260001916600019168152602001915050600060405180830381600087803b15801561180557600080fd5b505af1158015611819573d6000803e3d6000fd5b505050508380600101945050611768565b7f11a21264ecb93e14000906dc00b4753fd6eec24f9f0f1b4305a1a04740b3023e8360405180826000191660001916815260200191505060405180910390a13a5a8c61dea801030290508681116118815780611883565b865b90503373ffffffffffffffffffffffffffffffffffffffff166108fc829081150290604051600060405180830381858888f193505050501580156118cb573d6000803e3d6000fd5b506000818803141515611926578d6040015173ffffffffffffffffffffffffffffffffffffffff166108fc8289039081150290604051600060405180830381858888f19350505050158015611924573d6000803e3d6000fd5b505b8b806001019c5050611616565b5050505050505050505050505050565b60008060008360003390508173ffffffffffffffffffffffffffffffffffffffff16638da5cb5b6040518163ffffffff167c0100000000000000000000000000000000000000000000000000000000028152600401602060405180830381600087803b1580156119b257600080fd5b505af11580156119c6573d6000803e3d6000fd5b505050506040513d60208110156119dc57600080fd5b810190808051906020019092919050505073ffffffffffffffffffffffffffffffffffffffff168173ffffffffffffffffffffffffffffffffffffffff16141515611a2657600080fd5b6000600660008373ffffffffffffffffffffffffffffffffffffffff1673ffffffffffffffffffffffffffffffffffffffff16815260200190815260200160002060009054906101000a900461ffff1661ffff16111515611a8657600080fd5b600115156000809054906101000a900460ff161515141515611aa757600080fd5b3394508573ffffffffffffffffffffffffffffffffffffffff1663ae897c556040518163ffffffff167c0100000000000000000000000000000000000000000000000000000000028152600401602060405180830381600087803b158015611b0e57600080fd5b505af1158015611b22573d6000803e3d6000fd5b505050506040513d6020811015611b3857600080fd5b810190808051906020019092919050505060ff168673ffffffffffffffffffffffffffffffffffffffff16630c3f6acf6040518163ffffffff167c0100000000000000000000000000000000000000000000000000000000028152600401602060405180830381600087803b158015611bb057600080fd5b505af1158015611bc4573d6000803e3d6000fd5b505050506040513d6020811015611bda57600080fd5b810190808051906020019092919050505060ff16141515611bfa57600080fd5b8573ffffffffffffffffffffffffffffffffffffffff166383197ef06040518163ffffffff167c0100000000000000000000000000000000000000000000000000000000028152600401600060405180830381600087803b158015611c5e57600080fd5b505af1158015611c72573d6000803e3d6000fd5b505050506001600660008773ffffffffffffffffffffffffffffffffffffffff1673ffffffffffffffffffffffffffffffffffffffff16815260200190815260200160002060009054906101000a900461ffff16039350600660008673ffffffffffffffffffffffffffffffffffffffff1673ffffffffffffffffffffffffffffffffffffffff16815260200190815260200160002060006101000a81549061ffff02191690556005600160058054905003815481101515611d3057fe5b9060005260206000200160009054906101000a900473ffffffffffffffffffffffffffffffffffffffff1660058561ffff16815481101515611d6e57fe5b9060005260206000200160006101000a81548173ffffffffffffffffffffffffffffffffffffffff021916908373ffffffffffffffffffffffffffffffffffffffff1602179055925060018401600660008573ffffffffffffffffffffffffffffffffffffffff1673ffffffffffffffffffffffffffffffffffffffff16815260200190815260200160002060006101000a81548161ffff021916908361ffff1602179055506005805480919060019003611e299190614d97565b507f677f03e392472a48b617167ed4dbec758d26d8517257ec077bed2d27d192816486604051808273ffffffffffffffffffffffffffffffffffffffff1673ffffffffffffffffffffffffffffffffffffffff16815260200191505060405180910390a1505050505050565b611eaf83338484600e612fac90949392919063ffffffff16565b50505050565b600080611f02853386868080601f016020809104026020016040519081016040528093929190818152602001838380828437820191505050505050600e61319c909392919063ffffffff16565b156120aa57600e600101600e6000016000876000191660001916815260200190815260200160002060009054906101000a900461ffff1661ffff16815481101515611f4957fe5b90600052602060002090600a02019150600090505b8160050180549050811115156120a957600860009054906101000a900473ffffffffffffffffffffffffffffffffffffffff1673ffffffffffffffffffffffffffffffffffffffff1663e6808ff08360050183815481101515611fbd57fe5b9060005260206000200160009054906101000a900473ffffffffffffffffffffffffffffffffffffffff16611fff84866003015461332a90919063ffffffff16565b6040518363ffffffff167c0100000000000000000000000000000000000000000000000000000000028152600401808373ffffffffffffffffffffffffffffffffffffffff1673ffffffffffffffffffffffffffffffffffffffff16815260200182815260200192505050600060405180830381600087803b15801561208457600080fd5b505af1158015612098573d6000803e3d6000fd5b505050508080600101915050611f5e565b5b5050505050565b6706f05b59d3b2000081565b606060008361211b57600e600201600e6000016000876000191660001916815260200190815260200160002060009054906101000a900461ffff1661ffff1681548110151561210857fe5b90600052602060002090600a020161216c565b600e600101600e6000016000876000191660001916815260200190815260200160002060009054906101000a900461ffff1661ffff1681548110151561215d57fe5b90600052602060002090600a02015b9050806006018360ff1681548110151561218257fe5b906000526020600020018054600181600116156101000203166002900480601f0160208091040260200160405190810160405280929190818152602001828054600181600116156101000203166002900480156122205780601f106121f557610100808354040283529160200191612220565b820191906000526020600020905b81548152906001019060200180831161220357829003601f168201915b50505050509150509392505050565b6000806000806060808873ffffffffffffffffffffffffffffffffffffffff166387ea09616040518163ffffffff167c0100000000000000000000000000000000000000000000000000000000028152600401602060405180830381600087803b15801561229c57600080fd5b505af11580156122b0573d6000803e3d6000fd5b505050506040513d60208110156122c657600080fd5b81019080805190602001909291905050509350600a8460ff16111515156122ec57600080fd5b8873ffffffffffffffffffffffffffffffffffffffff1663b1f8d9ba6040518163ffffffff167c0100000000000000000000000000000000000000000000000000000000028152600401602060405180830381600087803b15801561235057600080fd5b505af1158015612364573d6000803e3d6000fd5b505050506040513d602081101561237a57600080fd5b81019080805190602001909291905050508a73ffffffffffffffffffffffffffffffffffffffff1663b1f8d9ba6040518163ffffffff167c0100000000000000000000000000000000000000000000000000000000028152600401602060405180830381600087803b1580156123ef57600080fd5b505af1158015612403573d6000803e3d6000fd5b505050506040513d602081101561241957600080fd5b810190808051906020019092919050505014151561243657600080fd5b6706f05b59d3b20000341015151561244d57600080fd5b6124556128c9565b92508360ff1683101561256357600094506124898a8a33348860ff168d8d600b61334090979695949392919063ffffffff16565b506124dc34600960003373ffffffffffffffffffffffffffffffffffffffff1673ffffffffffffffffffffffffffffffffffffffff1681526020019081526020016000205461354590919063ffffffff16565b600960003373ffffffffffffffffffffffffffffffffffffffff1673ffffffffffffffffffffffffffffffffffffffff168152602001908152602001600020819055507f2c45d5fba2a924464674ba6274086714ee596687cf6a6110111b80abe05f28b38660405180826000191660001916815260200191505060405180910390a1612617565b3373ffffffffffffffffffffffffffffffffffffffff166108fc349081150290604051600060405180830381858888f193505050501580156125a9573d6000803e3d6000fd5b506125b383612abb565b91506125c2828560ff16612dc0565b90506125d18a8a838b8b613561565b9550600194507f11a21264ecb93e14000906dc00b4753fd6eec24f9f0f1b4305a1a04740b3023e8660405180826000191660001916815260200191505060405180910390a15b5050505094509492505050565b600060019054906101000a900473ffffffffffffffffffffffffffffffffffffffff1673ffffffffffffffffffffffffffffffffffffffff163373ffffffffffffffffffffffffffffffffffffffff1614151561268057600080fd5b61268981613724565b50565b600460009054906101000a900473ffffffffffffffffffffffffffffffffffffffff1681565b60096020528060005260406000206000915090505481565b60066020528060005260406000206000915054906101000a900461ffff1681565b6000848060040160009054906101000a900460ff1615156127105761270f81613820565b5b85856005600881111561271f57fe5b8060ff16836001016001856000016000866000191660001916815260200190815260200160002060009054906101000a900461ffff160361ffff1681548110151561276657fe5b90600052602060002090600a020160090160019054906101000a900460ff1660ff1614151561279457600080fd5b61279f8989896139dd565b94507fffffffffffffffffffffffffffffffffffffffffffffffffffffffffffffffff85141515156127d057600080fd5b428960010160018b60000160008c6000191660001916815260200190815260200160002060009054906101000a900461ffff160361ffff1681548110151561281457fe5b90600052602060002090600a02016007018681548110151561283257fe5b90600052602060002090600891828204019190066004026101000a81548163ffffffff021916908363ffffffff16021790555087600019167f84d08018633e0a8a0ba434acc29166246cfe913279e254647ca8c2f24f13660787604051808260ff1660ff16815260200191505060405180910390a2505050505050505050565b600081600201548260000180549050039050919050565b60008060009150600090505b600580549050811015612ab4576005818154811015156128f157fe5b9060005260206000200160009054906101000a900473ffffffffffffffffffffffffffffffffffffffff1673ffffffffffffffffffffffffffffffffffffffff1663ae897c556040518163ffffffff167c0100000000000000000000000000000000000000000000000000000000028152600401602060405180830381600087803b15801561297f57600080fd5b505af1158015612993573d6000803e3d6000fd5b505050506040513d60208110156129a957600080fd5b810190808051906020019092919050505060ff166005828154811015156129cc57fe5b9060005260206000200160009054906101000a900473ffffffffffffffffffffffffffffffffffffffff1673ffffffffffffffffffffffffffffffffffffffff16630c3f6acf6040518163ffffffff167c0100000000000000000000000000000000000000000000000000000000028152600401602060405180830381600087803b158015612a5a57600080fd5b505af1158015612a6e573d6000803e3d6000fd5b505050506040513d6020811015612a8457600080fd5b810190808051906020019092919050505060ff161415612aa75781806001019250505b80806001019150506128d5565b8191505090565b60608060008084604051908082528060200260200182016040528015612af05781602001602082028038833980820191505090505b50925060009150600090505b600580549050811015612d5d57600581815481101515612b1857fe5b9060005260206000200160009054906101000a900473ffffffffffffffffffffffffffffffffffffffff1673ffffffffffffffffffffffffffffffffffffffff1663ae897c556040518163ffffffff167c0100000000000000000000000000000000000000000000000000000000028152600401602060405180830381600087803b158015612ba657600080fd5b505af1158015612bba573d6000803e3d6000fd5b505050506040513d6020811015612bd057600080fd5b810190808051906020019092919050505060ff16600582815481101515612bf357fe5b9060005260206000200160009054906101000a900473ffffffffffffffffffffffffffffffffffffffff1673ffffffffffffffffffffffffffffffffffffffff16630c3f6acf6040518163ffffffff167c0100000000000000000000000000000000000000000000000000000000028152600401602060405180830381600087803b158015612c8157600080fd5b505af1158015612c95573d6000803e3d6000fd5b505050506040513d6020811015612cab57600080fd5b810190808051906020019092919050505060ff161415612d5057600581815481101515612cd457fe5b9060005260206000200160009054906101000a900473ffffffffffffffffffffffffffffffffffffffff168383806001019450815181101515612d1357fe5b9060200190602002019073ffffffffffffffffffffffffffffffffffffffff16908173ffffffffffffffffffffffffffffffffffffffff16815250505b8080600101915050612afc565b829350505050919050565b6000612d72614d1b565b612d7b84613b1e565b5080915050828160600151111591505092915050565b612d99614d1b565b6000612da483613b1e565b8092508193505050612db583613cab565b818191509150915091565b606060008083604051908082528060200260200182016040528015612df45781602001602082028038833980820191505090505b509250600a60009054906101000a900473ffffffffffffffffffffffffffffffffffffffff1673ffffffffffffffffffffffffffffffffffffffff1663cd4b691484516040518263ffffffff167c010000000000000000000000000000000000000000000000000000000002815260040180828152602001915050602060405180830381600087803b158015612e8957600080fd5b505af1158015612e9d573d6000803e3d6000fd5b505050506040513d6020811015612eb357600080fd5b81019080805190602001909291905050509150600090505b8251811015612f5c578482815181101515612ee257fe5b906020019060200201518382815181101515612efa57fe5b9060200190602002019073ffffffffffffffffffffffffffffffffffffffff16908173ffffffffffffffffffffffffffffffffffffffff168152505060018351038214612f4a5760018201612f4d565b60005b91508080600101915050612ecb565b505092915050565b6000600115156000809054906101000a900460ff161515141515612f8757600080fd5b612fa4836000015184602001518486608001518760a00151613561565b905092915050565b6000858060040160009054906101000a900460ff161515612fd157612fd081613820565b5b86866000826001016001846000016000856000191660001916815260200190815260200160002060009054906101000a900461ffff160361ffff1681548110151561301857fe5b90600052602060002090600a020190506001600881111561303557fe5b60ff168160090160019054906101000a900460ff1660ff16148061307b57506003600881111561306157fe5b60ff168160090160019054906101000a900460ff1660ff16145b806130a857506005600881111561308e57fe5b60ff168160090160019054906101000a900460ff1660ff16145b15156130b357600080fd5b6130bf8a8a8a89613d9e565b6130c98a8a613e1f565b1561318f5760019450600060028111156130df57fe5b60ff168760ff161415613112576131038a8a600160088111156130fe57fe5b613f0b565b61310d8a8a614128565b61318e565b6001600281111561311f57fe5b60ff168760ff161415613152576131438a8a6005600881111561313e57fe5b613f0b565b61314d8a8a614128565b61318d565b60028081111561315e57fe5b60ff168760ff161415613187576131828a8a6007600881111561317d57fe5b613f0b565b61318c565b600094505b5b5b5b5050505095945050505050565b600080858060040160009054906101000a900460ff1615156131c2576131c181613820565b5b8686600560088111156131d157fe5b8060ff16836001016001856000016000866000191660001916815260200190815260200160002060009054906101000a900461ffff160361ffff1681548110151561321857fe5b90600052602060002090600a020160090160019054906101000a900460ff1660ff1614151561324657600080fd5b6132518a8a8a6139dd565b94507fffffffffffffffffffffffffffffffffffffffffffffffffffffffffffffffff851415151561328257600080fd5b868a60010160018c60000160008d6000191660001916815260200190815260200160002060009054906101000a900461ffff160361ffff168154811015156132c657fe5b90600052602060002090600a0201600601868154811015156132e457fe5b906000526020600020019080519060200190613301929190614dc3565b5061331b8a8a8a60028081111561331457fe5b6001612fac565b95505050505050949350505050565b6000818381151561333757fe5b04905092915050565b6000886000018054905060018a600001805490500111151561336157600080fd5b8860000160c0604051908101604052808a73ffffffffffffffffffffffffffffffffffffffff1681526020018973ffffffffffffffffffffffffffffffffffffffff1681526020018873ffffffffffffffffffffffffffffffffffffffff16815260200186815260200185815260200184600019168152509080600181540180825580915050906001820390600052602060002090600602016000909192909190915060008201518160000160006101000a81548173ffffffffffffffffffffffffffffffffffffffff021916908373ffffffffffffffffffffffffffffffffffffffff16021790555060208201518160010160006101000a81548173ffffffffffffffffffffffffffffffffffffffff021916908373ffffffffffffffffffffffffffffffffffffffff16021790555060408201518160020160006101000a81548173ffffffffffffffffffffffffffffffffffffffff021916908373ffffffffffffffffffffffffffffffffffffffff160217905550606082015181600301556080820151816004015560a0820151816005019060001916905550505088600101859080600181540180825580915050906001820390600052602060002001600090919290919091505550613537896128b2565b905098975050505050505050565b6000818301905082811015151561355857fe5b80905092915050565b60006060600080600115156000809054906101000a900460ff16151514151561358957600080fd5b86516040519080825280602002602001820160405280156135b95781602001602082028038833980820191505090505b509250600091505b82518210156136395786828151811015156135d857fe5b9060200190602002015183838151811015156135f057fe5b9060200190602002019073ffffffffffffffffffffffffffffffffffffffff16908173ffffffffffffffffffffffffffffffffffffffff168152505081806001019250506135c1565b6136558989858989600e61424a9095949392919063ffffffff16565b9350600090505b865181101561371857868181518110151561367357fe5b9060200190602002015173ffffffffffffffffffffffffffffffffffffffff16637aee7e09856040518263ffffffff167c0100000000000000000000000000000000000000000000000000000000028152600401808260001916600019168152602001915050600060405180830381600087803b1580156136f357600080fd5b505af1158015613707573d6000803e3d6000fd5b50505050808060010191505061365c565b50505095945050505050565b600073ffffffffffffffffffffffffffffffffffffffff168173ffffffffffffffffffffffffffffffffffffffff161415151561376057600080fd5b8073ffffffffffffffffffffffffffffffffffffffff16600060019054906101000a900473ffffffffffffffffffffffffffffffffffffffff1673ffffffffffffffffffffffffffffffffffffffff167f8be0079c531659141344cd1fd0a4f28419497f9722a3daafe3b4186f6b6457e060405160405180910390a380600060016101000a81548173ffffffffffffffffffffffffffffffffffffffff021916908373ffffffffffffffffffffffffffffffffffffffff16021790555050565b60008160030190506020604051908101604052806001600881111561384157fe5b60ff1660ff1681525081600080600881111561385957fe5b60ff1660ff16815260200190815260200160002090600161387b929190614e43565b5060408051908101604052806002600881111561389457fe5b60ff1660ff168152602001600360088111156138ac57fe5b60ff1660ff16815250816000600160088111156138c557fe5b60ff1660ff1681526020019081526020016000209060026138e7929190614eea565b506060604051908101604052806004600881111561390157fe5b60ff1660ff1681526020016005600881111561391957fe5b60ff1660ff1681526020016002600881111561393157fe5b60ff1660ff168152508160006003600881111561394a57fe5b60ff1660ff16815260200190815260200160002090600361396c929190614f91565b5060408051908101604052806007600881111561398557fe5b60ff1660ff1681526020016006600881111561399d57fe5b60ff1660ff16815250816000600560088111156139b657fe5b60ff1660ff1681526020019081526020016000209060026139d8929190614eea565b505050565b6000806000858060040160009054906101000a900460ff161515613a0557613a0481613820565b5b866001016001886000016000896000191660001916815260200190815260200160002060009054906101000a900461ffff160361ffff16815481101515613a4857fe5b90600052602060002090600a02019250600091505b8260050180549050821015613af0578473ffffffffffffffffffffffffffffffffffffffff168360050183815481101515613a9457fe5b9060005260206000200160009054906101000a900473ffffffffffffffffffffffffffffffffffffffff1673ffffffffffffffffffffffffffffffffffffffff161415613ae357819350613b14565b8180600101925050613a5d565b7fffffffffffffffffffffffffffffffffffffffffffffffffffffffffffffffff93505b5050509392505050565b613b26614d1b565b6000826000018360020154815481101515613b3d57fe5b9060005260206000209060060201836001018460020154815481101515613b6057fe5b90600052602060002001548160c060405190810160405290816000820160009054906101000a900473ffffffffffffffffffffffffffffffffffffffff1673ffffffffffffffffffffffffffffffffffffffff1673ffffffffffffffffffffffffffffffffffffffff1681526020016001820160009054906101000a900473ffffffffffffffffffffffffffffffffffffffff1673ffffffffffffffffffffffffffffffffffffffff1673ffffffffffffffffffffffffffffffffffffffff1681526020016002820160009054906101000a900473ffffffffffffffffffffffffffffffffffffffff1673ffffffffffffffffffffffffffffffffffffffff1673ffffffffffffffffffffffffffffffffffffffff16815260200160038201548152602001600482015481526020016005820154600019166000191681525050915091509150915091565b8060020160008154809291906001019190505550806000016001826002015403815481101515613cd757fe5b9060005260206000209060060201600080820160006101000a81549073ffffffffffffffffffffffffffffffffffffffff02191690556001820160006101000a81549073ffffffffffffffffffffffffffffffffffffffff02191690556002820160006101000a81549073ffffffffffffffffffffffffffffffffffffffff02191690556003820160009055600482016000905560058201600090555050806001016001826002015403815481101515613d8d57fe5b906000526020600020016000905550565b6000848060040160009054906101000a900460ff161515613dc357613dc281613820565b5b613dce8686866139dd565b91507fffffffffffffffffffffffffffffffffffffffffffffffffffffffffffffffff8214151515613dff57600080fd5b613e0b868684866146e5565b613e15868661482f565b5050505050505050565b6000806000848060040160009054906101000a900460ff161515613e4757613e4681613820565b5b60019350856001016001876000016000886000191660001916815260200190815260200160002060009054906101000a900461ffff160361ffff16815481101515613e8e57fe5b90600052602060002090600a02019250600091505b8260080180549050821015613f0257600115158360080183815481101515613ec757fe5b90600052602060002090602091828204019190069054906101000a900460ff161515141515613ef557600093505b8180600101925050613ea3565b50505092915050565b600080848060040160009054906101000a900460ff161515613f3157613f3081613820565b5b85858560008060008092508560030160008760010160018960000160008a6000191660001916815260200190815260200160002060009054906101000a900461ffff160361ffff16815481101515613f8557fe5b90600052602060002090600a020160090160019054906101000a900460ff1660ff1660ff1681526020019081526020016000209150600090505b8180549050811015614018578360ff168282815481101515613fdd57fe5b90600052602060002090602091828204019190069054906101000a900460ff1660ff16141561400b57600192505b8080600101915050613fbf565b6001151583151514151561402b57600080fd5b8b60010160018d60000160008e6000191660001916815260200190815260200160002060009054906101000a900461ffff160361ffff1681548110151561406e57fe5b90600052602060002090600a020198508860090160019054906101000a900460ff169750898960090160016101000a81548160ff021916908360ff1602179055508a600019167f9cb99c834b5e878ca7005d163b0fd70203dbc223d5845abe517de64a74dc5816898b60090160019054906101000a900460ff16604051808360ff1660ff1681526020018260ff1660ff1681526020019250505060405180910390a261411a8c8c614a59565b505050505050505050505050565b600080838060040160009054906101000a900460ff16151561414e5761414d81613820565b5b846001016001866000016000876000191660001916815260200190815260200160002060009054906101000a900461ffff160361ffff1681548110151561419157fe5b90600052602060002090600a02019250600091505b826008018054905082101561424357600083600801838154811015156141c857fe5b90600052602060002090602091828204019190066101000a81548160ff02191690831515021790555042836007018381548110151561420357fe5b90600052602060002090600891828204019190066004026101000a81548163ffffffff021916908363ffffffff16021790555081806001019250506141a6565b5050505050565b6000806000888060040160009054906101000a900460ff1615156142725761427181613820565b5b7fffffffffffffffffffffffffffffffffffffffffffffffffffffffffffffffff61ffff168a600101805490501015156142ab57600080fd5b438a600101805490500160405180828152602001915050604051809103902093508960010161016060405190810160405280866000191681526020018b73ffffffffffffffffffffffffffffffffffffffff1681526020018a73ffffffffffffffffffffffffffffffffffffffff16815260200188815260200187600019168152602001898152602001895160405190808252806020026020018201604052801561436a57816020015b60608152602001906001900390816143555790505b50815260200189516040519080825280602002602001820160405280156143a05781602001602082028038833980820191505090505b50815260200189516040519080825280602002602001820160405280156143d65781602001602082028038833980820191505090505b508152602001600060ff168152602001600060088111156143f357fe5b60ff168152509080600181540180825580915050906001820390600052602060002090600a0201600090919290919091506000820151816000019060001916905560208201518160010160006101000a81548173ffffffffffffffffffffffffffffffffffffffff021916908373ffffffffffffffffffffffffffffffffffffffff16021790555060408201518160020160006101000a81548173ffffffffffffffffffffffffffffffffffffffff021916908373ffffffffffffffffffffffffffffffffffffffff160217905550606082015181600301556080820151816004019060001916905560a08201518160050190805190602001906144f8929190615038565b5060c08201518160060190805190602001906145159291906150c2565b5060e0820151816007019080519060200190614532929190615122565b506101008201518160080190805190602001906145509291906151d2565b506101208201518160090160006101000a81548160ff021916908360ff1602179055506101408201518160090160016101000a81548160ff021916908360ff16021790555050505089600101805490508a6000016000866000191660001916815260200190815260200160002060006101000a81548161ffff021916908361ffff1602179055508960010160018b6000016000876000191660001916815260200190815260200160002060009054906101000a900461ffff160361ffff1681548110151561461a57fe5b90600052602060002090600a02019250600091505b82600701805490508210156146905742836007018381548110151561465057fe5b90600052602060002090600891828204019190066004026101000a81548163ffffffff021916908363ffffffff160217905550818060010192505061462f565b6146a78a85600160088111156146a257fe5b613f0b565b83600019167fcdd8e82457800d3241f19b61393a2bbceb40e44253685afc406b2bb489c84ad360405160405180910390a25050509695505050505050565b838060040160009054906101000a900460ff1615156147085761470781613820565b5b81856001016001876000016000886000191660001916815260200190815260200160002060009054906101000a900461ffff160361ffff1681548110151561474c57fe5b90600052602060002090600a02016008018481548110151561476a57fe5b90600052602060002090602091828204019190066101000a81548160ff02191690831515021790555042856001016001876000016000886000191660001916815260200190815260200160002060009054906101000a900461ffff160361ffff168154811015156147d757fe5b90600052602060002090600a0201600701848154811015156147f557fe5b90600052602060002090600891828204019190066004026101000a81548163ffffffff021916908363ffffffff1602179055505050505050565b600080600080858060040160009054906101000a900460ff1615156148585761485781613820565b5b86866000826001016001846000016000856000191660001916815260200190815260200160002060009054906101000a900461ffff160361ffff1681548110151561489f57fe5b90600052602060002090600a02019050600160088111156148bc57fe5b60ff168160090160019054906101000a900460ff1660ff1614806149025750600360088111156148e857fe5b60ff168160090160019054906101000a900460ff1660ff16145b8061492f57506005600881111561491557fe5b60ff168160090160019054906101000a900460ff1660ff16145b151561493a57600080fd5b8960010160018b60000160008c6000191660001916815260200190815260200160002060009054906101000a900461ffff160361ffff1681548110151561497d57fe5b90600052602060002090600a02019550600094505b8560070180549050851015614a4c5761070886600701868154811015156149b557fe5b90600052602060002090600891828204019190066004029054906101000a900463ffffffff164260ff160363ffffffff161115614a3f5785600501858154811015156149fd57fe5b9060005260206000200160009054906101000a900473ffffffffffffffffffffffffffffffffffffffff1697508560090160019054906101000a900460ff1696505b8480600101955050614992565b5050505050509250929050565b6000828060040160009054906101000a900460ff161515614a7e57614a7d81613820565b5b836001016001856000016000866000191660001916815260200190815260200160002060009054906101000a900461ffff160361ffff16815481101515614ac157fe5b90600052602060002090600a020160090160019054906101000a900460ff16915060026008811115614aef57fe5b60ff168260ff161415614b325782600019167f5261c4ecde326f171b514c548529aa2219b22fedf2fa5640ae6f7d939aaefbf860405160405180910390a2614ced565b60036008811115614b3f57fe5b60ff168260ff161415614b825782600019167f664052ccd6bc90c161d5b3a6ed2bff308e2bf01e52fbc112e7a8d445bb9c66ee60405160405180910390a2614cec565b60046008811115614b8f57fe5b60ff168260ff161415614bd25782600019167fee170c67bd88e14fcfccdcf7817ddb732cb1a466d0c333f4642571d1282556eb60405160405180910390a2614ceb565b60056008811115614bdf57fe5b60ff168260ff161415614c225782600019167f3010926e292de172661e49071a9be4cb18f63877dffcc78013e349175f5b03b260405160405180910390a2614cea565b60066008811115614c2f57fe5b60ff168260ff161415614c825782600019167f439c5ac734864869b402ad7298724e0154a172f98a32de5c8e877b3f234dc5d76001604051808215151515815260200191505060405180910390a2614ce9565b60076008811115614c8f57fe5b60ff168260ff161415614ce85782600019167f439c5ac734864869b402ad7298724e0154a172f98a32de5c8e877b3f234dc5d76000604051808215151515815260200191505060405180910390a2614ce78484614cf3565b5b5b5b5b5b5b50505050565b818060040160009054906101000a900460ff161515614d1657614d1581613820565b5b505050565b60c060405190810160405280600073ffffffffffffffffffffffffffffffffffffffff168152602001600073ffffffffffffffffffffffffffffffffffffffff168152602001600073ffffffffffffffffffffffffffffffffffffffff1681526020016000815260200160008152602001600080191681525090565b815481835581811115614dbe57818360005260206000209182019101614dbd9190615278565b5b505050565b828054600181600116156101000203166002900490600052602060002090601f016020900481019282601f10614e0457805160ff1916838001178555614e32565b82800160010185558215614e32579182015b82811115614e31578251825591602001919060010190614e16565b5b509050614e3f9190615278565b5090565b82805482825590600052602060002090601f01602090048101928215614ed95791602002820160005b83821115614eaa57835183826101000a81548160ff021916908360ff1602179055509260200192600101602081600001049283019260010302614e6c565b8015614ed75782816101000a81549060ff0219169055600101602081600001049283019260010302614eaa565b505b509050614ee6919061529d565b5090565b82805482825590600052602060002090601f01602090048101928215614f805791602002820160005b83821115614f5157835183826101000a81548160ff021916908360ff1602179055509260200192600101602081600001049283019260010302614f13565b8015614f7e5782816101000a81549060ff0219169055600101602081600001049283019260010302614f51565b505b509050614f8d919061529d565b5090565b82805482825590600052602060002090601f016020900481019282156150275791602002820160005b83821115614ff857835183826101000a81548160ff021916908360ff1602179055509260200192600101602081600001049283019260010302614fba565b80156150255782816101000a81549060ff0219169055600101602081600001049283019260010302614ff8565b505b509050615034919061529d565b5090565b8280548282559060005260206000209081019282156150b1579160200282015b828111156150b05782518260006101000a81548173ffffffffffffffffffffffffffffffffffffffff021916908373ffffffffffffffffffffffffffffffffffffffff16021790555091602001919060010190615058565b5b5090506150be91906152cd565b5090565b828054828255906000526020600020908101928215615111579160200282015b82811115615110578251829080519060200190615100929190615310565b50916020019190600101906150e2565b5b50905061511e9190615390565b5090565b828054828255906000526020600020906007016008900481019282156151c15791602002820160005b8382111561518f57835183826101000a81548163ffffffff021916908363ffffffff160217905550926020019260040160208160030104928301926001030261514b565b80156151bf5782816101000a81549063ffffffff021916905560040160208160030104928301926001030261518f565b505b5090506151ce91906153bc565b5090565b82805482825590600052602060002090601f016020900481019282156152675791602002820160005b8382111561523857835183826101000a81548160ff02191690831515021790555092602001926001016020816000010492830192600103026151fb565b80156152655782816101000a81549060ff0219169055600101602081600001049283019260010302615238565b505b50905061527491906153ef565b5090565b61529a91905b8082111561529657600081600090555060010161527e565b5090565b90565b6152ca91905b808211156152c657600081816101000a81549060ff0219169055506001016152a3565b5090565b90565b61530d91905b8082111561530957600081816101000a81549073ffffffffffffffffffffffffffffffffffffffff0219169055506001016152d3565b5090565b90565b828054600181600116156101000203166002900490600052602060002090601f016020900481019282601f1061535157805160ff191683800117855561537f565b8280016001018555821561537f579182015b8281111561537e578251825591602001919060010190615363565b5b50905061538c9190615278565b5090565b6153b991905b808211156153b557600081816153ac919061541f565b50600101615396565b5090565b90565b6153ec91905b808211156153e857600081816101000a81549063ffffffff0219169055506001016153c2565b5090565b90565b61541c91905b8082111561541857600081816101000a81549060ff0219169055506001016153f5565b5090565b90565b50805460018160011615610100020316600290046000825580601f106154455750615464565b601f0160209004906000526020600020908101906154639190615278565b5b505600a165627a7a72305820684648d47e51da8eb07e3d60e16c0f668027dfcfd355af0e92e2bfa36ba5bf370029608060405234801561001057600080fd5b504360018190555061013e806100276000396000f300608060405260043610610041576000357c0100000000000000000000000000000000000000000000000000000000900463ffffffff168063cd4b691414610046575b600080fd5b34801561005257600080fd5b5061007160048036038101908080359060200190929190505050610087565b6040518082815260200191505060405180910390f35b60006001544311156100ce5743600181905550600a4303406001900443406001900401604051808281526020019150506040518091039020600081600019169055506100f9565b6000546040518082600019166000191681526020019150506040518091039020600081600019169055505b816000546001900481151561010a57fe5b0690509190505600a165627a7a7230582034d49b1d6c3ef1f3a22161d34872da9ae53c3c7a697801a5c84a085582735f940029",
  "source": "pragma solidity ^0.4.23;\n\nimport \"openzeppelin-solidity/contracts/math/SafeMath.sol\";\nimport \"../../lifecycle/Initializable.sol\";\nimport \"../lottery/RandomEngine.sol\";\nimport \"./ICognitiveJobManager.sol\";\nimport \"./WorkerNodeManager.sol\";\nimport \"../token/Reputation.sol\";\n\nimport {CognitiveJobLib as CJL} from \"../../libraries/CognitiveJobLib.sol\";\nimport {JobQueueLib as JQL} from \"../../libraries/JobQueueLib.sol\";\n\n/**\n * @title Pandora Smart Contract\n * @author \"Dr Maxim Orlovsky\" <orlovsky@pandora.foundation>\n *\n * @dev # Pandora Smart Contract\n *\n * Main & root contract implementing the first level of Pandora Boxchain consensus\n * See section [\"3.3. Proof of Cognitive Work (PoCW)\" in Pandora white paper](https://steemit.com/cryptocurrency/%40pandoraboxchain/world-decentralized-ai-on-blockchain-with-cognitive-mining-and-open-markets-for-data-and-algorithms-pandora-boxchain)\n * for more details.\n */\n\ncontract CognitiveJobManager is ICognitiveJobManager, WorkerNodeManager {\n\n    /*******************************************************************************************************************\n     * ## Storage\n     */\n\n    /// ### Public variables\n\n    /// @dev Contract, that store rep. values for each address\n    IReputation reputation;\n\n    // Deposits from clients used as payment for work\n    mapping(address => uint256) public deposits;\n\n    /// @notice Status code returned by `createCognitiveJob()` method when no Idle WorkerNodes were available\n    /// and job was not created but was put into the job queue to be processed lately\n    uint8 constant public RESULT_CODE_ADD_TO_QUEUE = 0;\n    /// @notice Status code returned by `createCognitiveJob()` method when CognitiveJob was created successfully\n    uint8 constant public RESULT_CODE_JOB_CREATED = 1;\n\n    uint256 constant public REQUIRED_DEPOSIT = 500 finney;\n\n    /// ### Private and internal variables\n\n    /// @dev Contract implementing lottery interface for workers selection. Only internal usage\n    /// by `createCognitiveJob` function\n    ILotteryEngine internal workerLotteryEngine;\n\n    // Queue for CognitiveJobs kept while no Idle WorkerNodes available\n    /// @dev Cognitive job queue used for case when no idle workers available\n    using JQL for JQL.Queue;\n    JQL.Queue internal jobQueue;\n\n    // Controller for CognitiveJobs\n    using CJL for CJL.Controller;\n    CJL.Controller internal jobController;\n\n    using SafeMath for uint;\n\n    /*******************************************************************************************************************\n     * ## Events\n     */\n\n    /// @dev Event firing when a new cognitive job created\n    event CognitiveJobCreated(bytes32 jobId);\n\n    /// @dev Event firing when a new cognitive job queued\n    event CognitiveJobQueued(bytes32 jobId);\n\n    /*******************************************************************************************************************\n     * ## Constructor and initialization\n     */\n\n    /// ### Constructor\n    /// @dev Constructor receives addresses for the owners of whitelisted worker nodes, which will be assigned an owners\n    /// of worker nodes contracts\n    constructor(\n        IWorkerNodeFactory _nodeFactory, /// Factory class for creating WorkerNode contracts\n        IReputation _reputation\n    )\n    public\n    WorkerNodeManager(_nodeFactory) {\n\n        // Init reputation storage contract\n        reputation = _reputation;\n\n        // Initializing worker lottery engine\n        workerLotteryEngine = new RandomEngine();\n    }\n\n    /*******************************************************************************************************************\n     * ## Modifiers\n     */\n\n\n    /*******************************************************************************************************************\n     * ## Functions\n     */\n\n    /// ### Public\n\n    /// @dev Returns total count of active jobs\n    function activeJobsCount() view public returns (uint256) {\n        return jobController.activeJobs.length;\n    }\n\n    /// @notice Test whether the given `job` is registered as an active job and not completed\n    function isActiveJob(\n        bytes32 _jobId\n    )\n    view\n    public\n    returns (\n        bool\n    ) {\n        return jobController.jobIndexes[_jobId] != 0;\n    }\n\n    function getCognitiveJobDetails(bytes32 _jobId, bool isActive)\n    public\n    view\n    returns (\n        address kernel,\n        address dataset,\n        uint256 comlexity,\n        bytes32 description,\n        address[] activeWorkers\n    ) {\n        CJL.CognitiveJob storage job = isActive ?\n            jobController.activeJobs[jobController.jobIndexes[_jobId]]\n            : jobController.completedJobs[jobController.jobIndexes[_jobId]];\n        kernel = job.kernel;\n        dataset = job.dataset;\n        comlexity = job.complexity;\n        description = job.description;\n        activeWorkers = job.activeWorkers;\n    }\n\n    function getCognitiveJobResults(\n        bytes32 _jobId,\n        bool _isActive, // set false if completed jobs needed\n        uint8 _index //index of worker, whose results should be returned\n    )\n    public\n    view\n    returns(\n        bytes ipfsResults\n    ) {\n        CJL.CognitiveJob storage job = _isActive ?\n        jobController.activeJobs[jobController.jobIndexes[_jobId]]\n        : jobController.completedJobs[jobController.jobIndexes[_jobId]];\n        ipfsResults = job.ipfsResults[_index];\n    }\n\n    function getCognitiveJobProgressInfo(\n        bytes32 _jobId,\n        bool _isActive // set false if completed jobs needed\n    )\n    public\n    view\n    returns(\n        uint32[] responseTimestamps,\n        bool[] responseFlags,\n        uint8 progress,\n        uint8 state\n    ) {\n        CJL.CognitiveJob storage job = _isActive ?\n            jobController.activeJobs[jobController.jobIndexes[_jobId]]\n            : jobController.completedJobs[jobController.jobIndexes[_jobId]];\n        responseTimestamps = job.responseTimestamps;\n        responseFlags = job.responseFlags;\n        progress = job.progress;\n        state = job.state;\n    }\n\n    /// @notice Public function which checks queue of jobs and create new jobs\n    /// #dev Function is called by worker owner, after finalize congitiveJob (but could be called by any address)\n    /// to unlock worker's idle state and allocate newly freed WorkerNodes to perform cognitive jobs from the queue.\n    function checkJobQueue(\n    // No arguments\n    )\n    public {\n        JQL.QueuedJob memory queuedJob;\n        // Iterate queue and check queue depth\n\n        uint8 limitQueueReq = uint8(jobQueue.queueDepth());\n        limitQueueReq = limitQueueReq > 1 ? 1 : limitQueueReq;\n        // todo check limit (2) for queue requests with tests\n\n        for (uint8 k = 0; k < limitQueueReq; k++) {\n\n            // Count remaining gas\n            uint initialGas = gasleft();\n\n            // Counting number of available worker nodes (in Idle state)\n            uint256 estimatedSize = _countIdleWorkers();\n\n            // There must be at least one free worker node\n            if (estimatedSize <= 0) {\n                break;\n            }\n\n            // Initializing in-memory array for idle node list and populating it with data\n            IWorkerNode[] memory idleWorkers = _listIdleWorkers(estimatedSize);\n            uint actualSize = idleWorkers.length;\n            if (actualSize != estimatedSize) {\n                break;\n            }\n\n            // Check number of batches with number of idle workers\n            if (!jobQueue.checkElementBatches(actualSize)) {\n                break;\n            }\n\n            // uint value1 = cognitiveJobQueue.queueDepth();\n            uint256 value;\n            // Value from queuedJob deposit\n            (queuedJob, value) = jobQueue.requestJob();\n\n            // Running lottery to select worker node to be assigned cognitive job contract\n            IWorkerNode[] memory assignedWorkers = _selectWorkersWithLottery(idleWorkers, queuedJob.batches);\n\n            // @fixme remove in upcoming version\n            // (temporarily due to worker controller absence) convert workers array to address array\n            address[] memory workerAddresses = new address[](assignedWorkers.length);\n            for (uint8 i = 0; i < workerAddresses.length; i++) {\n                workerAddresses[i] = address(assignedWorkers[i]);\n            }\n\n            bytes32 jobId = _initQueuedJob(queuedJob, assignedWorkers);\n\n            //todo assign job to each worker\n            for (uint8 j = 0; j < assignedWorkers.length; i++) {\n                assignedWorkers[j].assignJob(jobId);\n            }\n\n            emit CognitiveJobCreated(jobId);\n\n            // Count used funds for queue\n            //todo set limit for gasprice\n            uint weiUsed = (57000 + initialGas - gasleft()) * tx.gasprice;\n            //57k of gas used for transfers and storage writing\n\n            weiUsed = weiUsed > value ? value : weiUsed;\n            //weiUsed should not exceed deposit fixme set constraint to minimal deposit\n\n            // Gas refund to node\n            msg.sender.transfer(weiUsed);\n\n            // Return remaining deposit to customer\n            if (value - weiUsed != 0) {\n                queuedJob.customer.transfer(value - weiUsed);\n            }\n        }\n    }\n\n    /// ### External\n\n    /// @notice Creates and returns new cognitive job contract and starts actual cognitive work instantly\n    /// @dev Core function creating new cognitive job contract and returning it back to the caller\n    function createCognitiveJob(\n        IKernel _kernel, /// Pre-initialized kernel data entity contract\n        IDataset _dataset, /// Pre-initialized dataset entity contract\n        uint256 _complexity,\n        bytes32 _description\n    )\n    external\n    payable\n    returns (\n        bytes32 o_jobId, /// Newly created cognitive jobs (starts automatically)\n        uint8 o_resultCode /// result code of creating job, 0 - job queued (no available workers) , 1 - job created\n    ) {\n\n        // Restriction for batches count came from potential high gas usage in JobQueue processing\n        // todo check batches limit with tests\n        uint8 batchesCount = _dataset.batchesCount();\n        require(batchesCount <= 10);\n\n        // Dimensions of the input data and neural network input layer must be equal\n        require(_kernel.dataDim() == _dataset.dataDim());\n\n        // @todo check payment corresponds to required amount + gas payment - (fixed value + #batches * value)\n        require(msg.value >= REQUIRED_DEPOSIT);\n\n        // Counting number of available worker nodes (in Idle state)\n        // Since Solidity does not supports dynamic in-memory arrays (yet), has to be done in two-staged way:\n        // first by counting array size and then by allocating and populating array itself\n\n        uint256 estimatedSize = _countIdleWorkers();\n        if (estimatedSize < uint256(batchesCount)) {\n            // Put task in queue\n            o_resultCode = RESULT_CODE_ADD_TO_QUEUE;\n            jobQueue.put(\n                address(_kernel),\n                address(_dataset),\n                msg.sender,\n                msg.value,\n                batchesCount,\n                _complexity,\n                _description);\n            //  Hold payment from customer\n            deposits[msg.sender] = deposits[msg.sender].add(msg.value);\n            emit CognitiveJobQueued(o_jobId);\n        } else {\n            // Job created instantly\n            // Return funds to sender\n            msg.sender.transfer(msg.value);\n            // Initializing in-memory array for idle node list and populating it with data\n            IWorkerNode[] memory idleWorkers = _listIdleWorkers(estimatedSize);\n\n            // Running lottery to select worker node to be assigned cognitive job contract\n            IWorkerNode[] memory assignedWorkers = _selectWorkersWithLottery(idleWorkers, batchesCount);\n\n            o_jobId = _initCognitiveJob(_kernel, _dataset, assignedWorkers, _complexity, _description);\n            o_resultCode = RESULT_CODE_JOB_CREATED;\n\n            emit CognitiveJobCreated(o_jobId);\n        }\n    }\n\n    function getQueueDepth(\n        // No arguments\n    )\n    external\n    returns (uint256)\n    {\n        return jobQueue.queueDepth();\n    }\n\n    function provideResults(\n        bytes32 _jobId,\n        bytes _ipfsResults\n    )\n    external {\n        //todo get workerId with workerController in new v.\n        if (jobController.completeWork(_jobId, msg.sender, _ipfsResults)) {\n            // Increase reputation of workers involved to computation\n            //todo add koef for complexity-reputation\n            CJL.CognitiveJob storage job = jobController.activeJobs[jobController.jobIndexes[_jobId]];\n            for (uint256 i = 0; i <= job.activeWorkers.length; i++) {\n                reputation.incrReputation(\n                    job.activeWorkers[i],\n                    job.complexity.div(i));\n            }\n        }\n    }\n\n    function respondToJob(\n        bytes32 _jobId,\n        uint8 _responseType,\n        bool _response)\n    external {\n        //todo implement get workerId with worker controller in new version\n        jobController.onWorkerResponse(_jobId, msg.sender, _responseType, _response);\n    }\n\n    function commitProgress(\n        bytes32 _jobId,\n        uint8 _percent)\n    external {\n        //todo implement get workerId with worker controller in new version\n        jobController.commitProgress(_jobId, msg.sender, _percent);\n    }\n\n    function _initQueuedJob(JQL.QueuedJob queuedJob, IWorkerNode[] assignedWorkers)\n    private\n    onlyInitialized\n    returns (\n        bytes32 jobId\n    ) {\n        jobId = _initCognitiveJob(\n            IKernel(queuedJob.kernel),\n            IDataset(queuedJob.dataset),\n            assignedWorkers,\n            queuedJob.complexity,\n            queuedJob.description\n        );\n    }\n\n    /// @notice Can\"t be called by the user or other contract: for private use only\n    /// @dev Creates cognitive job contract, saves it to storage and fires global event to notify selected worker node.\n    /// Used both by `createCognitiveJob()` and `_checksJobQueue()` methods.\n    function _initCognitiveJob(\n        IKernel _kernel, /// Pre-initialized kernel data entity contract (taken from `createCognitiveJob` arguments or\n    /// from the the `cognitiveJobQueue` `QueuedJob` structure)\n        IDataset _dataset, /// Pre-initialized dataset entity contract (taken from `createCognitiveJob` arguments or\n    /// from the the `cognitiveJobQueue` `QueuedJob` structure)\n        IWorkerNode[] _assignedWorkers, /// Array of workers assigned for the job by the lottery engine //todo change to address\n        uint256 _complexity,\n        bytes32 _description\n    )\n    private\n    onlyInitialized\n    returns (\n        bytes32 o_jobId /// Created cognitive job ID\n    ) {\n\n        // @fixme remove in upcoming version\n        // (temporarily due to worker controller absence) convert workers array to address array\n        address[] memory workerAddresses = new address[](_assignedWorkers.length);\n        for (uint256 i = 0; i < workerAddresses.length; i++) {\n            workerAddresses[i] = address(_assignedWorkers[i]);\n        }\n\n        o_jobId = jobController.createCognitiveJob(\n            address(_kernel),\n            address(_dataset),\n            workerAddresses,\n            _complexity,\n            _description);\n\n        //assign each worker to job\n        for (uint256 j = 0; j < _assignedWorkers.length; j++) {\n            _assignedWorkers[j].assignJob(o_jobId);\n        }\n    }\n\n    /// @notice Can\"t be called by the user or other contract: for private use only\n    /// @dev Running lottery to select random worker nodes from the provided list. Used by both `createCognitiveJob`\n    /// and `_checksJobQueue` functions.\n    function _selectWorkersWithLottery(\n        IWorkerNode[] _idleWorkers, /// Pre-defined pool of Idle WorkerNodes to select from\n        uint _numberWorkersRequired /// Number of workers required by cognitive job, match with number of batches\n    )\n    private\n    returns (\n        IWorkerNode[] assignedWorkers /// Resulting sublist of the selected WorkerNodes\n    ) {\n        assignedWorkers = new IWorkerNode[](_numberWorkersRequired);\n        uint no = workerLotteryEngine.getRandom(assignedWorkers.length);\n        for (uint i = 0; i < assignedWorkers.length; i++) {\n            assignedWorkers[i] = _idleWorkers[no];\n            no = (no == assignedWorkers.length - 1) ? 0 : no + 1;\n        }\n    }\n\n    /// @notice Can\"t be called by the user or other contract: for private use only\n    /// @dev Pre-count amount of available Idle WorkerNodes. Required to allocate in-memory list of WorkerNodes.\n    function _countIdleWorkers(\n    // No arguments\n    )\n    private\n    view\n    returns (\n        uint o_estimatedSize /// Amount of currently available (Idle) WorkerNodes\n    ) {\n        o_estimatedSize = 0;\n        for (uint i = 0; i < workerNodes.length; i++) {\n            if (workerNodes[i].currentState() == workerNodes[i].Idle()) {\n                o_estimatedSize++;\n            }\n        }\n        return o_estimatedSize;\n    }\n\n    /// @notice Can\"t be called by the user or other contract: for private use only\n    /// @dev Allocates and returns in-memory array of all Idle WorkerNodes taking estimated size as an argument\n    /// (returned by `_countIdleWorkers()`)\n    function _listIdleWorkers(\n        uint _estimatedSize /// Size of array to return\n    )\n    private\n    view\n    returns (\n        IWorkerNode[] /// Returned array of all Idle WorkerNodes\n    ) {\n        IWorkerNode[] memory idleWorkers = new IWorkerNode[](_estimatedSize);\n        uint256 actualSize = 0;\n        for (uint j = 0; j < workerNodes.length; j++) {\n            if (workerNodes[j].currentState() == workerNodes[j].Idle()) {\n                idleWorkers[actualSize++] = workerNodes[j];\n            }\n        }\n        return idleWorkers;\n    }\n}",
  "sourcePath": "/home/kostysh/dev/pyrrha-consensus/contracts/pandora/managers/CognitiveJobManager.sol",
  "compiler": {
    "name": "solc",
    "version": "0.4.24+commit.e67f0147.Emscripten.clang"
  },
  "schemaVersion": "2.0.1",
  "updatedAt": "2018-07-20T09:53:22.662Z"
}