{
  "contractName": "CognitiveJob",
  "abi": [
    {
      "constant": true,
      "inputs": [],
      "name": "PartialResult",
      "outputs": [
        {
          "name": "",
          "type": "uint8"
        }
      ],
      "payable": false,
      "stateMutability": "view",
      "type": "function"
    },
    {
      "constant": true,
      "inputs": [],
      "name": "dataset",
      "outputs": [
        {
          "name": "",
          "type": "address"
        }
      ],
      "payable": false,
      "stateMutability": "view",
      "type": "function"
    },
    {
      "constant": true,
      "inputs": [],
      "name": "currentState",
      "outputs": [
        {
          "name": "",
          "type": "uint8"
        }
      ],
      "payable": false,
      "stateMutability": "view",
      "type": "function"
    },
    {
      "constant": true,
      "inputs": [
        {
          "name": "",
          "type": "uint256"
        }
      ],
      "name": "ipfsResults",
      "outputs": [
        {
          "name": "",
          "type": "bytes"
        }
      ],
      "payable": false,
      "stateMutability": "view",
      "type": "function"
    },
    {
      "constant": true,
      "inputs": [],
      "name": "Cognition",
      "outputs": [
        {
          "name": "",
          "type": "uint8"
        }
      ],
      "payable": false,
      "stateMutability": "view",
      "type": "function"
    },
    {
      "constant": true,
      "inputs": [],
      "name": "pandora",
      "outputs": [
        {
          "name": "",
          "type": "address"
        }
      ],
      "payable": false,
      "stateMutability": "view",
      "type": "function"
    },
    {
      "constant": true,
      "inputs": [],
      "name": "Uninitialized",
      "outputs": [
        {
          "name": "",
          "type": "uint8"
        }
      ],
      "payable": false,
      "stateMutability": "view",
      "type": "function"
    },
    {
      "constant": true,
      "inputs": [],
      "name": "GatheringWorkers",
      "outputs": [
        {
          "name": "",
          "type": "uint8"
        }
      ],
      "payable": false,
      "stateMutability": "view",
      "type": "function"
    },
    {
      "constant": true,
      "inputs": [],
      "name": "complexity",
      "outputs": [
        {
          "name": "",
          "type": "uint256"
        }
      ],
      "payable": false,
      "stateMutability": "view",
      "type": "function"
    },
    {
      "constant": true,
      "inputs": [],
      "name": "progress",
      "outputs": [
        {
          "name": "",
          "type": "uint8"
        }
      ],
      "payable": false,
      "stateMutability": "view",
      "type": "function"
    },
    {
      "constant": true,
      "inputs": [
        {
          "name": "",
          "type": "uint256"
        }
      ],
      "name": "activeWorkers",
      "outputs": [
        {
          "name": "",
          "type": "address"
        }
      ],
      "payable": false,
      "stateMutability": "view",
      "type": "function"
    },
    {
      "constant": true,
      "inputs": [],
      "name": "InvalidData",
      "outputs": [
        {
          "name": "",
          "type": "uint8"
        }
      ],
      "payable": false,
      "stateMutability": "view",
      "type": "function"
    },
    {
      "constant": true,
      "inputs": [
        {
          "name": "",
          "type": "uint256"
        }
      ],
      "name": "workersPool",
      "outputs": [
        {
          "name": "",
          "type": "address"
        }
      ],
      "payable": false,
      "stateMutability": "view",
      "type": "function"
    },
    {
      "constant": false,
      "inputs": [],
      "name": "renounceOwnership",
      "outputs": [],
      "payable": false,
      "stateMutability": "nonpayable",
      "type": "function"
    },
    {
      "constant": true,
      "inputs": [],
      "name": "description",
      "outputs": [
        {
          "name": "",
          "type": "bytes32"
        }
      ],
      "payable": false,
      "stateMutability": "view",
      "type": "function"
    },
    {
      "constant": true,
      "inputs": [],
      "name": "jobType",
      "outputs": [
        {
          "name": "",
          "type": "uint256"
        }
      ],
      "payable": false,
      "stateMutability": "view",
      "type": "function"
    },
    {
      "constant": false,
      "inputs": [],
      "name": "destroy",
      "outputs": [],
      "payable": false,
      "stateMutability": "nonpayable",
      "type": "function"
    },
    {
      "constant": true,
      "inputs": [],
      "name": "owner",
      "outputs": [
        {
          "name": "",
          "type": "address"
        }
      ],
      "payable": false,
      "stateMutability": "view",
      "type": "function"
    },
    {
      "constant": true,
      "inputs": [],
      "name": "InsufficientWorkers",
      "outputs": [
        {
          "name": "",
          "type": "uint8"
        }
      ],
      "payable": false,
      "stateMutability": "view",
      "type": "function"
    },
    {
      "constant": true,
      "inputs": [],
      "name": "DataValidation",
      "outputs": [
        {
          "name": "",
          "type": "uint8"
        }
      ],
      "payable": false,
      "stateMutability": "view",
      "type": "function"
    },
    {
      "constant": true,
      "inputs": [],
      "name": "Destroyed",
      "outputs": [
        {
          "name": "",
          "type": "uint8"
        }
      ],
      "payable": false,
      "stateMutability": "view",
      "type": "function"
    },
    {
      "constant": true,
      "inputs": [],
      "name": "batches",
      "outputs": [
        {
          "name": "",
          "type": "uint256"
        }
      ],
      "payable": false,
      "stateMutability": "view",
      "type": "function"
    },
    {
      "constant": true,
      "inputs": [],
      "name": "kernel",
      "outputs": [
        {
          "name": "",
          "type": "address"
        }
      ],
      "payable": false,
      "stateMutability": "view",
      "type": "function"
    },
    {
      "constant": true,
      "inputs": [],
      "name": "Completed",
      "outputs": [
        {
          "name": "",
          "type": "uint8"
        }
      ],
      "payable": false,
      "stateMutability": "view",
      "type": "function"
    },
    {
      "constant": false,
      "inputs": [
        {
          "name": "_newOwner",
          "type": "address"
        }
      ],
      "name": "transferOwnership",
      "outputs": [],
      "payable": false,
      "stateMutability": "nonpayable",
      "type": "function"
    },
    {
      "constant": false,
      "inputs": [
        {
          "name": "_recipient",
          "type": "address"
        }
      ],
      "name": "destroyAndSend",
      "outputs": [],
      "payable": false,
      "stateMutability": "nonpayable",
      "type": "function"
    },
    {
      "inputs": [
        {
          "name": "_pandora",
          "type": "address"
        },
        {
          "name": "_kernel",
          "type": "address"
        },
        {
          "name": "_dataset",
          "type": "address"
        },
        {
          "name": "_workersPool",
          "type": "address[]"
        },
        {
          "name": "_complexity",
          "type": "uint256"
        },
        {
          "name": "_description",
          "type": "bytes32"
        }
      ],
      "payable": false,
      "stateMutability": "nonpayable",
      "type": "constructor"
    },
    {
      "anonymous": false,
      "inputs": [],
      "name": "WorkersUpdated",
      "type": "event"
    },
    {
      "anonymous": false,
      "inputs": [],
      "name": "WorkersNotFound",
      "type": "event"
    },
    {
      "anonymous": false,
      "inputs": [],
      "name": "DataValidationStarted",
      "type": "event"
    },
    {
      "anonymous": false,
      "inputs": [],
      "name": "DataValidationFailed",
      "type": "event"
    },
    {
      "anonymous": false,
      "inputs": [],
      "name": "CognitionStarted",
      "type": "event"
    },
    {
      "anonymous": false,
      "inputs": [
        {
          "indexed": false,
          "name": "precent",
          "type": "uint8"
        }
      ],
      "name": "CognitionProgressed",
      "type": "event"
    },
    {
      "anonymous": false,
      "inputs": [
        {
          "indexed": false,
          "name": "partialResult",
          "type": "bool"
        }
      ],
      "name": "CognitionCompleted",
      "type": "event"
    },
    {
      "anonymous": false,
      "inputs": [
        {
          "indexed": false,
          "name": "number",
          "type": "uint256"
        }
      ],
      "name": "Flag",
      "type": "event"
    },
    {
      "anonymous": false,
      "inputs": [
        {
          "indexed": false,
          "name": "oldState",
          "type": "uint8"
        },
        {
          "indexed": false,
          "name": "newState",
          "type": "uint8"
        }
      ],
      "name": "StateChanged",
      "type": "event"
    },
    {
      "anonymous": false,
      "inputs": [
        {
          "indexed": true,
          "name": "previousOwner",
          "type": "address"
        }
      ],
      "name": "OwnershipRenounced",
      "type": "event"
    },
    {
      "anonymous": false,
      "inputs": [
        {
          "indexed": true,
          "name": "previousOwner",
          "type": "address"
        },
        {
          "indexed": true,
          "name": "newOwner",
          "type": "address"
        }
      ],
      "name": "OwnershipTransferred",
      "type": "event"
    },
    {
      "constant": true,
      "inputs": [],
      "name": "ipfsResultsCount",
      "outputs": [
        {
          "name": "count",
          "type": "uint256"
        }
      ],
      "payable": false,
      "stateMutability": "view",
      "type": "function"
    },
    {
      "constant": false,
      "inputs": [],
      "name": "initialize",
      "outputs": [],
      "payable": false,
      "stateMutability": "nonpayable",
      "type": "function"
    },
    {
      "constant": false,
      "inputs": [
        {
          "name": "_reportedWorker",
          "type": "address"
        }
      ],
      "name": "reportOfflineWorker",
      "outputs": [],
      "payable": true,
      "stateMutability": "payable",
      "type": "function"
    },
    {
      "constant": false,
      "inputs": [
        {
          "name": "_acceptanceFlag",
          "type": "bool"
        }
      ],
      "name": "gatheringWorkersResponse",
      "outputs": [],
      "payable": false,
      "stateMutability": "nonpayable",
      "type": "function"
    },
    {
      "constant": false,
      "inputs": [
        {
          "name": "_response",
          "type": "uint8"
        }
      ],
      "name": "dataValidationResponse",
      "outputs": [],
      "payable": false,
      "stateMutability": "nonpayable",
      "type": "function"
    },
    {
      "constant": false,
      "inputs": [
        {
          "name": "_percent",
          "type": "uint8"
        }
      ],
      "name": "commitProgress",
      "outputs": [],
      "payable": false,
      "stateMutability": "nonpayable",
      "type": "function"
    },
    {
      "constant": false,
      "inputs": [
        {
          "name": "_ipfsResults",
          "type": "bytes"
        }
      ],
      "name": "completeWork",
      "outputs": [],
      "payable": false,
      "stateMutability": "nonpayable",
      "type": "function"
    },
    {
      "constant": true,
      "inputs": [],
      "name": "activeWorkersCount",
      "outputs": [
        {
          "name": "",
          "type": "uint256"
        }
      ],
      "payable": false,
      "stateMutability": "view",
      "type": "function"
    },
    {
      "constant": true,
      "inputs": [
        {
          "name": "no",
          "type": "uint256"
        }
      ],
      "name": "didWorkerCompute",
      "outputs": [
        {
          "name": "",
          "type": "bool"
        }
      ],
      "payable": false,
      "stateMutability": "view",
      "type": "function"
    }
  ],
  "bytecode": "0x60806040523480156200001157600080fd5b5060405162003e2c38038062003e2c833981018060405281019080805190602001909291908051906020019092919080519060200190929190805182019291906020018051906020019092919080519060200190929190505050336000806101000a81548173ffffffffffffffffffffffffffffffffffffffff021916908373ffffffffffffffffffffffffffffffffffffffff1602179055508373ffffffffffffffffffffffffffffffffffffffff166387ea09616040518163ffffffff167c0100000000000000000000000000000000000000000000000000000000028152600401602060405180830381600087803b1580156200011057600080fd5b505af115801562000125573d6000803e3d6000fd5b505050506040513d60208110156200013c57600080fd5b810190808051906020019092919050505060ff1660128190555060006012541115156200016857600080fd5b6012548351101515156200017b57600080fd5b600073ffffffffffffffffffffffffffffffffffffffff168673ffffffffffffffffffffffffffffffffffffffff1614151515620001b857600080fd5b600073ffffffffffffffffffffffffffffffffffffffff168573ffffffffffffffffffffffffffffffffffffffff1614151515620001f557600080fd5b600073ffffffffffffffffffffffffffffffffffffffff168473ffffffffffffffffffffffffffffffffffffffff16141515156200023257600080fd5b85600f60006101000a81548173ffffffffffffffffffffffffffffffffffffffff021916908373ffffffffffffffffffffffffffffffffffffffff16021790555084601060006101000a81548173ffffffffffffffffffffffffffffffffffffffff021916908373ffffffffffffffffffffffffffffffffffffffff16021790555083601160006101000a81548173ffffffffffffffffffffffffffffffffffffffff021916908373ffffffffffffffffffffffffffffffffffffffff16021790555082601690805190602001906200030d92919062000693565b508160138190555080601481600019169055506200033962000345640100000000026401000000009004565b505050505050620009a5565b6000600d6001019050602060405190810160405280600160ff1660ff168152508160008060ff1660ff1681526020019081526020016000209060016200038d92919062000722565b506040805190810160405280600260ff1660ff168152602001600360ff1660ff16815250816000600160ff1660ff168152602001908152602001600020906002620003da929190620007d0565b50606060405190810160405280600460ff1660ff168152602001600560ff1660ff168152602001600260ff1660ff16815250816000600360ff1660ff168152602001908152602001600020906003620004359291906200087e565b506040805190810160405280600760ff1660ff168152602001600660ff1660ff16815250816000600560ff1660ff16815260200190815260200160002090600262000482929190620007d0565b50620004a1620004c36401000000000262003297176401000000009004565b6000600d60000160016101000a81548160ff021916908360ff16021790555050565b6040805190810160405280601181526020017f5f696e697453746174654d616368696e6500000000000000000000000000000081525060001515600c826040518082805190602001908083835b60208310151562000537578051825260208201915060208101905060208303925062000510565b6001836020036101000a038019825116818451168082178552505050505050905001915050908152602001604051809103902060009054906101000a900460ff1615151415156200058757600080fd5b620005a7600d6200063064010000000002620033e9176401000000009004565b6001600c826040518082805190602001908083835b602083101515620005e35780518252602082019150602081019050602083039250620005bc565b6001836020036101000a038019825116818451168082178552505050505050905001915050908152602001604051809103902060006101000a81548160ff02191690831515021790555050565b600015158160000160009054906101000a900460ff1615151415156200065557600080fd5b60018160000160016101000a81548160ff021916908360ff16021790555060018160000160006101000a81548160ff02191690831515021790555050565b8280548282559060005260206000209081019282156200070f579160200282015b828111156200070e5782518260006101000a81548173ffffffffffffffffffffffffffffffffffffffff021916908373ffffffffffffffffffffffffffffffffffffffff16021790555091602001919060010190620006b4565b5b5090506200071e91906200092c565b5090565b82805482825590600052602060002090601f01602090048101928215620007bd5791602002820160005b838211156200078c57835183826101000a81548160ff021916908360ff16021790555092602001926001016020816000010492830192600103026200074c565b8015620007bb5782816101000a81549060ff02191690556001016020816000010492830192600103026200078c565b505b509050620007cc919062000972565b5090565b82805482825590600052602060002090601f016020900481019282156200086b5791602002820160005b838211156200083a57835183826101000a81548160ff021916908360ff1602179055509260200192600101602081600001049283019260010302620007fa565b8015620008695782816101000a81549060ff02191690556001016020816000010492830192600103026200083a565b505b5090506200087a919062000972565b5090565b82805482825590600052602060002090601f01602090048101928215620009195791602002820160005b83821115620008e857835183826101000a81548160ff021916908360ff1602179055509260200192600101602081600001049283019260010302620008a8565b8015620009175782816101000a81549060ff0219169055600101602081600001049283019260010302620008e8565b505b50905062000928919062000972565b5090565b6200096f91905b808211156200096b57600081816101000a81549073ffffffffffffffffffffffffffffffffffffffff02191690555060010162000933565b5090565b90565b620009a291905b808211156200099e57600081816101000a81549060ff02191690555060010162000979565b5090565b90565b61347780620009b56000396000f3006080604052600436106101b7576000357c0100000000000000000000000000000000000000000000000000000000900463ffffffff168063026d49ea146101bc57806302b728ab146101ed5780630c3f6acf146102445780630fb03aad146102755780631590d6581461031b5780631a0bc5961461034c5780631c72fad4146103a357806321514ef3146103d457806323d554731461040557806340a030a2146104305780634804b4ba1461045b5780634e6b42a814610486578063577bd336146104c157806358909400146104f25780635cb045db1461055f5780635e4059671461059057806364d3414c146105fd5780636936087d1461062c578063715018a61461065c5780637284e416146106735780638080be77146106a65780638129fc1c146106d157806383197ef0146106e85780638da5cb5b146106ff578063b225be4214610756578063c36b33b014610786578063cbd315ae146107b7578063cc0e82c1146107e8578063cfdf677e14610819578063d4aae0c414610844578063d6ccdca31461089b578063d94c69aa146108e0578063e06452d014610916578063f2fde38b14610947578063f5074f411461098a575b600080fd5b3480156101c857600080fd5b506101d16109cd565b604051808260ff1660ff16815260200191505060405180910390f35b3480156101f957600080fd5b506102026109d2565b604051808273ffffffffffffffffffffffffffffffffffffffff1673ffffffffffffffffffffffffffffffffffffffff16815260200191505060405180910390f35b34801561025057600080fd5b506102596109f8565b604051808260ff1660ff16815260200191505060405180910390f35b34801561028157600080fd5b506102a060048036038101908080359060200190929190505050610a12565b6040518080602001828103825283818151815260200191508051906020019080838360005b838110156102e05780820151818401526020810190506102c5565b50505050905090810190601f16801561030d5780820380516001836020036101000a031916815260200191505b509250505060405180910390f35b34801561032757600080fd5b50610330610acd565b604051808260ff1660ff16815260200191505060405180910390f35b34801561035857600080fd5b50610361610ad2565b604051808273ffffffffffffffffffffffffffffffffffffffff1673ffffffffffffffffffffffffffffffffffffffff16815260200191505060405180910390f35b3480156103af57600080fd5b506103b8610af8565b604051808260ff1660ff16815260200191505060405180910390f35b3480156103e057600080fd5b506103e9610afd565b604051808260ff1660ff16815260200191505060405180910390f35b34801561041157600080fd5b5061041a610b02565b6040518082815260200191505060405180910390f35b34801561043c57600080fd5b50610445610b08565b6040518082815260200191505060405180910390f35b34801561046757600080fd5b50610470610b15565b6040518082815260200191505060405180910390f35b34801561049257600080fd5b506104bf600480360381019080803590602001908201803590602001919091929391929390505050610b22565b005b3480156104cd57600080fd5b506104d6610d27565b604051808260ff1660ff16815260200191505060405180910390f35b3480156104fe57600080fd5b5061051d60048036038101908080359060200190929190505050610d3a565b604051808273ffffffffffffffffffffffffffffffffffffffff1673ffffffffffffffffffffffffffffffffffffffff16815260200191505060405180910390f35b34801561056b57600080fd5b50610574610d78565b604051808260ff1660ff16815260200191505060405180910390f35b34801561059c57600080fd5b506105bb60048036038101908080359060200190929190505050610d7d565b604051808273ffffffffffffffffffffffffffffffffffffffff1673ffffffffffffffffffffffffffffffffffffffff16815260200191505060405180910390f35b34801561060957600080fd5b5061062a600480360381019080803515159060200190929190505050610dbb565b005b34801561063857600080fd5b5061065a600480360381019080803560ff169060200190929190505050610f52565b005b34801561066857600080fd5b5061067161111e565b005b34801561067f57600080fd5b50610688611220565b60405180826000191660001916815260200191505060405180910390f35b3480156106b257600080fd5b506106bb611226565b6040518082815260200191505060405180910390f35b3480156106dd57600080fd5b506106e661122c565b005b3480156106f457600080fd5b506106fd611729565b005b34801561070b57600080fd5b506107146117be565b604051808273ffffffffffffffffffffffffffffffffffffffff1673ffffffffffffffffffffffffffffffffffffffff16815260200191505060405180910390f35b34801561076257600080fd5b50610784600480360381019080803560ff1690602001909291905050506117e3565b005b34801561079257600080fd5b5061079b611998565b604051808260ff1660ff16815260200191505060405180910390f35b3480156107c357600080fd5b506107cc61199d565b604051808260ff1660ff16815260200191505060405180910390f35b3480156107f457600080fd5b506107fd6119a2565b604051808260ff1660ff16815260200191505060405180910390f35b34801561082557600080fd5b5061082e6119a7565b6040518082815260200191505060405180910390f35b34801561085057600080fd5b506108596119ad565b604051808273ffffffffffffffffffffffffffffffffffffffff1673ffffffffffffffffffffffffffffffffffffffff16815260200191505060405180910390f35b3480156108a757600080fd5b506108c6600480360381019080803590602001909291905050506119d3565b604051808215151515815260200191505060405180910390f35b610914600480360381019080803573ffffffffffffffffffffffffffffffffffffffff169060200190929190505050611a12565b005b34801561092257600080fd5b5061092b611ab6565b604051808260ff1660ff16815260200191505060405180910390f35b34801561095357600080fd5b50610988600480360381019080803573ffffffffffffffffffffffffffffffffffffffff169060200190929190505050611abb565b005b34801561099657600080fd5b506109cb600480360381019080803573ffffffffffffffffffffffffffffffffffffffff169060200190929190505050611b22565b005b600681565b601160009054906101000a900473ffffffffffffffffffffffffffffffffffffffff1681565b6000600d60000160019054906101000a900460ff16905090565b601781815481101515610a2157fe5b906000526020600020016000915090508054600181600116156101000203166002900480601f016020809104026020016040519081016040528092919081815260200182805460018160011615610100020316600290048015610ac55780601f10610a9a57610100808354040283529160200191610ac5565b820191906000526020600020905b815481529060010190602001808311610aa857829003601f168201915b505050505081565b600581565b600f60009054906101000a900473ffffffffffffffffffffffffffffffffffffffff1681565b600081565b600181565b60135481565b6000601780549050905090565b6000601580549050905090565b600080610b2d611b96565b5080915050600073ffffffffffffffffffffffffffffffffffffffff168173ffffffffffffffffffffffffffffffffffffffff1614151515610b6e57600080fd5b8073ffffffffffffffffffffffffffffffffffffffff163373ffffffffffffffffffffffffffffffffffffffff16141515610ba857600080fd5b8073ffffffffffffffffffffffffffffffffffffffff16638da5cb5b6040518163ffffffff167c0100000000000000000000000000000000000000000000000000000000028152600401602060405180830381600087803b158015610c0c57600080fd5b505af1158015610c20573d6000803e3d6000fd5b505050506040513d6020811015610c3657600080fd5b810190808051906020019092919050505073ffffffffffffffffffffffffffffffffffffffff163273ffffffffffffffffffffffffffffffffffffffff16141515610c8057600080fd5b610c88611b96565b9050809250508383601784815481101515610c9f57fe5b906000526020600020019190610cb6929190612df0565b506001601983815481101515610cc857fe5b90600052602060002090602091828204019190066101000a81548160ff02191690831515021790555042601883815481101515610d0157fe5b9060005260206000200181905550610d17611c1e565b610d216007611e8f565b50505050565b600a60009054906101000a900460ff1681565b601581815481101515610d4957fe5b906000526020600020016000915054906101000a900473ffffffffffffffffffffffffffffffffffffffff1681565b600481565b601681815481101515610d8c57fe5b906000526020600020016000915054906101000a900473ffffffffffffffffffffffffffffffffffffffff1681565b6000610dc5611b96565b5080915050600073ffffffffffffffffffffffffffffffffffffffff168173ffffffffffffffffffffffffffffffffffffffff1614151515610e0657600080fd5b8073ffffffffffffffffffffffffffffffffffffffff163373ffffffffffffffffffffffffffffffffffffffff16141515610e4057600080fd5b8073ffffffffffffffffffffffffffffffffffffffff16638da5cb5b6040518163ffffffff167c0100000000000000000000000000000000000000000000000000000000028152600401602060405180830381600087803b158015610ea457600080fd5b505af1158015610eb8573d6000803e3d6000fd5b505050506040513d6020811015610ece57600080fd5b810190808051906020019092919050505073ffffffffffffffffffffffffffffffffffffffff163273ffffffffffffffffffffffffffffffffffffffff16141515610f1857600080fd5b60018060ff16600d60000160019054906101000a900460ff1660ff16141515610f4057600080fd5b610f4d8360006003612020565b505050565b600080610f5d611b96565b5080915050600073ffffffffffffffffffffffffffffffffffffffff168173ffffffffffffffffffffffffffffffffffffffff1614151515610f9e57600080fd5b8073ffffffffffffffffffffffffffffffffffffffff163373ffffffffffffffffffffffffffffffffffffffff16141515610fd857600080fd5b8073ffffffffffffffffffffffffffffffffffffffff16638da5cb5b6040518163ffffffff167c0100000000000000000000000000000000000000000000000000000000028152600401602060405180830381600087803b15801561103c57600080fd5b505af1158015611050573d6000803e3d6000fd5b505050506040513d602081101561106657600080fd5b810190808051906020019092919050505073ffffffffffffffffffffffffffffffffffffffff163273ffffffffffffffffffffffffffffffffffffffff161415156110b057600080fd5b6110b8611b96565b905080925050426018838154811015156110ce57fe5b90600052602060002001819055507f6e61ae137e19999439ac1653b045d99d8b1a4d38b3b2ef2956ab2b5494957b3d83604051808260ff1660ff16815260200191505060405180910390a1505050565b6000809054906101000a900473ffffffffffffffffffffffffffffffffffffffff1673ffffffffffffffffffffffffffffffffffffffff163373ffffffffffffffffffffffffffffffffffffffff1614151561117957600080fd5b6000809054906101000a900473ffffffffffffffffffffffffffffffffffffffff1673ffffffffffffffffffffffffffffffffffffffff167ff8df31144d9c2f0f6b59d69b8b98abd5459d07f2742c4df920b25aae33c6482060405160405180910390a260008060006101000a81548173ffffffffffffffffffffffffffffffffffffffff021916908373ffffffffffffffffffffffffffffffffffffffff160217905550565b60145481565b60065481565b60008060008060ff16600d60000160019054906101000a900460ff1660ff1614151561125757600080fd5b60016000600d60000160019054906101000a900460ff16905061128482600d6121e690919063ffffffff16565b6012546040519080825280602002602001820160405280156112b55781602001602082028038833980820191505090505b50601590805190602001906112cb929190612e70565b506012546040519080825280602002602001820160405280156112fd5781602001602082028038833980820191505090505b5060189080519060200190611313929190612efa565b506012546040519080825280602002602001820160405280156113455781602001602082028038833980820191505090505b506019908051906020019061135b929190612f47565b5060125460405190808252806020026020018201604052801561139257816020015b606081526020019060019003908161137d5790505b50601790805190602001906113a8929190612fed565b50600094505b6012548560ff1610156115ac57600060198660ff168154811015156113cf57fe5b90600052602060002090602091828204019190066101000a81548160ff0219169083151502179055504260188660ff1681548110151561140b57fe5b906000526020600020018190555060168560ff1681548110151561142b57fe5b9060005260206000200160009054906101000a900473ffffffffffffffffffffffffffffffffffffffff1660158660ff1681548110151561146857fe5b9060005260206000200160006101000a81548173ffffffffffffffffffffffffffffffffffffffff021916908373ffffffffffffffffffffffffffffffffffffffff16021790555060158560ff168154811015156114c257fe5b9060005260206000200160009054906101000a900473ffffffffffffffffffffffffffffffffffffffff1673ffffffffffffffffffffffffffffffffffffffff1663897399ae306040518263ffffffff167c0100000000000000000000000000000000000000000000000000000000028152600401808273ffffffffffffffffffffffffffffffffffffffff1673ffffffffffffffffffffffffffffffffffffffff168152602001915050600060405180830381600087803b15801561158757600080fd5b505af115801561159b573d6000803e3d6000fd5b5050505084806001019550506113ae565b8460ff1693505b6016805490508461ffff161015611673576016808561ffff168154811015156115d857fe5b9060005260206000200160009054906101000a900473ffffffffffffffffffffffffffffffffffffffff1690806001815401808255809150509060018203906000526020600020016000909192909190916101000a81548173ffffffffffffffffffffffffffffffffffffffff021916908373ffffffffffffffffffffffffffffffffffffffff1602179055505083806001019450506115b3565b7f7e0d09ae7160446fde9323338cdbe3e98cc2d5197108e8a3c5e037265288335d60405160405180910390a181600d60000160016101000a81548160ff021916908360ff1602179055507fe8a97ea87e4388fa22d496b95a8ed5ced6717f49790318de2b928aaf37a021d881600d60000160019054906101000a900460ff16604051808360ff1660ff1681526020018260ff1660ff1681526020019250505060405180910390a16117226122b6565b5050505050565b6000809054906101000a900473ffffffffffffffffffffffffffffffffffffffff1673ffffffffffffffffffffffffffffffffffffffff163373ffffffffffffffffffffffffffffffffffffffff1614151561178457600080fd5b6000809054906101000a900473ffffffffffffffffffffffffffffffffffffffff1673ffffffffffffffffffffffffffffffffffffffff16ff5b6000809054906101000a900473ffffffffffffffffffffffffffffffffffffffff1681565b60006117ed611b96565b5080915050600073ffffffffffffffffffffffffffffffffffffffff168173ffffffffffffffffffffffffffffffffffffffff161415151561182e57600080fd5b8073ffffffffffffffffffffffffffffffffffffffff163373ffffffffffffffffffffffffffffffffffffffff1614151561186857600080fd5b8073ffffffffffffffffffffffffffffffffffffffff16638da5cb5b6040518163ffffffff167c0100000000000000000000000000000000000000000000000000000000028152600401602060405180830381600087803b1580156118cc57600080fd5b505af11580156118e0573d6000803e3d6000fd5b505050506040513d60208110156118f657600080fd5b810190808051906020019092919050505073ffffffffffffffffffffffffffffffffffffffff163273ffffffffffffffffffffffffffffffffffffffff1614151561194057600080fd5b60028081111561194c57fe5b82600281111561195857fe5b141561196d5761196860046125cf565b611994565b6119936000600281111561197d57fe5b83600281111561198957fe5b1460016005612020565b5b5050565b600281565b600381565b60ff81565b60125481565b601060009054906101000a900473ffffffffffffffffffffffffffffffffffffffff1681565b6000600115156019838154811015156119e857fe5b90600052602060002090602091828204019190069054906101000a900460ff161515149050919050565b6000600160ff16600d60000160019054906101000a900460ff1660ff161480611a535750600360ff16600d60000160019054906101000a900460ff1660ff16145b80611a765750600560ff16600d60000160019054906101000a900460ff1660ff16145b1515611a8157600080fd5b611a8a82612683565b9050610708601882815481101515611a9e57fe5b906000526020600020505050611ab2611c1e565b5050565b600781565b6000809054906101000a900473ffffffffffffffffffffffffffffffffffffffff1673ffffffffffffffffffffffffffffffffffffffff163373ffffffffffffffffffffffffffffffffffffffff16141515611b1657600080fd5b611b1f81612744565b50565b6000809054906101000a900473ffffffffffffffffffffffffffffffffffffffff1673ffffffffffffffffffffffffffffffffffffffff163373ffffffffffffffffffffffffffffffffffffffff16141515611b7d57600080fd5b8073ffffffffffffffffffffffffffffffffffffffff16ff5b600080611ba233612683565b9050601580549050811115611bdd5760007fffffffffffffffffffffffffffffffffffffffffffffffffffffffffffffffff91509150611c1a565b601581815481101515611bec57fe5b9060005260206000200160009054906101000a900473ffffffffffffffffffffffffffffffffffffffff1691505b9091565b6000806000600160ff16600d60000160019054906101000a900460ff1660ff161480611c625750600360ff16600d60000160019054906101000a900460ff1660ff16145b80611c855750600560ff16600d60000160019054906101000a900460ff1660ff16145b1515611c9057600080fd5b600092505b601880549050831015611e8a57610708601884815481101515611cb457fe5b906000526020600020015442031115611e7d57601583815481101515611cd657fe5b9060005260206000200160009054906101000a900473ffffffffffffffffffffffffffffffffffffffff169150600160ff16600d60000160019054906101000a900460ff1660ff161415611d2d5760009050611d88565b600360ff16600d60000160019054906101000a900460ff1660ff161415611d575760029050611d87565b600560ff16600d60000160019054906101000a900460ff1660ff161415611d815760049050611d86565b600080fd5b5b5b600f60009054906101000a900473ffffffffffffffffffffffffffffffffffffffff1673ffffffffffffffffffffffffffffffffffffffff16635ef1777683836040518363ffffffff167c0100000000000000000000000000000000000000000000000000000000028152600401808373ffffffffffffffffffffffffffffffffffffffff1673ffffffffffffffffffffffffffffffffffffffff168152602001826004811115611e3557fe5b60ff16815260200192505050600060405180830381600087803b158015611e5b57600080fd5b505af1158015611e6f573d6000803e3d6000fd5b50505050611e7c8361283e565b5b8280600101935050611c95565b505050565b600080600090505b601980549050811015611ef25760011515601982815481101515611eb757fe5b90600052602060002090602091828204019190069054906101000a900460ff161515141515611ee55761201b565b8080600101915050611e97565b826000600d60000160019054906101000a900460ff169050611f1e82600d6121e690919063ffffffff16565b600093505b601880549050841015611f95576000601985815481101515611f4157fe5b90600052602060002090602091828204019190066101000a81548160ff02191690831515021790555042601885815481101515611f7a57fe5b90600052602060002001819055508380600101945050611f23565b81600d60000160016101000a81548160ff021916908360ff1602179055507fe8a97ea87e4388fa22d496b95a8ed5ced6717f49790318de2b928aaf37a021d881600d60000160019054906101000a900460ff16604051808360ff1660ff1681526020018260ff1660ff1681526020019250505060405180910390a16120186122b6565b50505b505050565b60008061202b611b96565b8092508193505050600073ffffffffffffffffffffffffffffffffffffffff168273ffffffffffffffffffffffffffffffffffffffff161415151561206f57600080fd5b600015158515151415612175576120858161283e565b600f60009054906101000a900473ffffffffffffffffffffffffffffffffffffffff1673ffffffffffffffffffffffffffffffffffffffff16635ef1777683866040518363ffffffff167c0100000000000000000000000000000000000000000000000000000000028152600401808373ffffffffffffffffffffffffffffffffffffffff1673ffffffffffffffffffffffffffffffffffffffff16815260200182600481111561213257fe5b60ff16815260200192505050600060405180830381600087803b15801561215857600080fd5b505af115801561216c573d6000803e3d6000fd5b505050506121df565b600160198281548110151561218657fe5b90600052602060002090602091828204019190066101000a81548160ff021916908315150217905550426018828154811015156121bf57fe5b90600052602060002001819055506121d5611c1e565b6121de83611e8f565b5b5050505050565b600080600060ff8560000160019054906101000a900460ff1660ff161415151561220c57fe5b600092508460010160008660000160019054906101000a900460ff1660ff1660ff1681526020019081526020016000209150600090505b818054905081101561229c578360ff16828281548110151561226157fe5b90600052602060002090602091828204019190069054906101000a900460ff1660ff16141561228f57600192505b8080600101915050612243565b600115158315151415156122af57600080fd5b5050505050565b600260ff166122c36109f8565b60ff161415612305577f5f64b01e798e22b7b006309d50c085491c227a74e9cf11a922528b0d9a414de460405160405180910390a1612300612bb7565b6125cd565b600360ff166123126109f8565b60ff16141561234c577f2d9c6af01e1c3857ef5720b6226a3b900b0db1a5a9430c53d8a35b4fccf2015560405160405180910390a16125cc565b600460ff166123596109f8565b60ff16141561239b577f75be0ccc76f667c80f1c9ab66fafe78bd732b900403eb3f0da135c085955deca60405160405180910390a1612396612bb7565b6125cb565b600560ff166123a86109f8565b60ff1614156123e2577f51273f7efcba23797f509c81f07b426c6b9cdbee92a6a40389a405d0152178c960405160405180910390a16125ca565b600660ff166123ef6109f8565b60ff1614156124d7577ff8d8e42e26bfacf74ecaff47cd43fa79d51c74d3a979d58521d12f369ad2bf7b6001604051808215151515815260200191505060405180910390a1600f60009054906101000a900473ffffffffffffffffffffffffffffffffffffffff1673ffffffffffffffffffffffffffffffffffffffff1663171317516040518163ffffffff167c0100000000000000000000000000000000000000000000000000000000028152600401600060405180830381600087803b1580156124ba57600080fd5b505af11580156124ce573d6000803e3d6000fd5b505050506125c9565b600760ff166124e46109f8565b60ff1614156125c8577ff8d8e42e26bfacf74ecaff47cd43fa79d51c74d3a979d58521d12f369ad2bf7b6000604051808215151515815260200191505060405180910390a1600f60009054906101000a900473ffffffffffffffffffffffffffffffffffffffff1673ffffffffffffffffffffffffffffffffffffffff1663171317516040518163ffffffff167c0100000000000000000000000000000000000000000000000000000000028152600401600060405180830381600087803b1580156125af57600080fd5b505af11580156125c3573d6000803e3d6000fd5b505050505b5b5b5b5b5b565b806000600d60000160019054906101000a900460ff1690506125fb82600d6121e690919063ffffffff16565b81600d60000160016101000a81548160ff021916908360ff1602179055507fe8a97ea87e4388fa22d496b95a8ed5ced6717f49790318de2b928aaf37a021d881600d60000160019054906101000a900460ff16604051808360ff1660ff1681526020018260ff1660ff1681526020019250505060405180910390a161267e6122b6565b505050565b600080600090505b60158054905081101561271a576015818154811015156126a757fe5b9060005260206000200160009054906101000a900473ffffffffffffffffffffffffffffffffffffffff1673ffffffffffffffffffffffffffffffffffffffff168373ffffffffffffffffffffffffffffffffffffffff16141561270d5780915061273e565b808060010191505061268b565b7fffffffffffffffffffffffffffffffffffffffffffffffffffffffffffffffff91505b50919050565b600073ffffffffffffffffffffffffffffffffffffffff168173ffffffffffffffffffffffffffffffffffffffff161415151561278057600080fd5b8073ffffffffffffffffffffffffffffffffffffffff166000809054906101000a900473ffffffffffffffffffffffffffffffffffffffff1673ffffffffffffffffffffffffffffffffffffffff167f8be0079c531659141344cd1fd0a4f28419497f9722a3daafe3b4186f6b6457e060405160405180910390a3806000806101000a81548173ffffffffffffffffffffffffffffffffffffffff021916908373ffffffffffffffffffffffffffffffffffffffff16021790555050565b60006003600561285a8282600d612c099092919063ffffffff16565b5b6000601680549050141561287657612871612c6f565b612bb1565b601660016016805490500381548110151561288d57fe5b9060005260206000200160009054906101000a900473ffffffffffffffffffffffffffffffffffffffff1692506001601680549050036016816128d0919061304d565b508273ffffffffffffffffffffffffffffffffffffffff1663ae897c556040518163ffffffff167c0100000000000000000000000000000000000000000000000000000000028152600401602060405180830381600087803b15801561293557600080fd5b505af1158015612949573d6000803e3d6000fd5b505050506040513d602081101561295f57600080fd5b810190808051906020019092919050505060ff168373ffffffffffffffffffffffffffffffffffffffff16630c3f6acf6040518163ffffffff167c0100000000000000000000000000000000000000000000000000000000028152600401602060405180830381600087803b1580156129d757600080fd5b505af11580156129eb573d6000803e3d6000fd5b505050506040513d6020811015612a0157600080fd5b810190808051906020019092919050505060ff16141515612a215761285b565b6000601985815481101515612a3257fe5b90600052602060002090602091828204019190066101000a81548160ff02191690831515021790555042601885815481101515612a6b57fe5b906000526020600020018190555082601585815481101515612a8957fe5b9060005260206000200160006101000a81548173ffffffffffffffffffffffffffffffffffffffff021916908373ffffffffffffffffffffffffffffffffffffffff1602179055508273ffffffffffffffffffffffffffffffffffffffff1663897399ae306040518263ffffffff167c0100000000000000000000000000000000000000000000000000000000028152600401808273ffffffffffffffffffffffffffffffffffffffff1673ffffffffffffffffffffffffffffffffffffffff168152602001915050600060405180830381600087803b158015612b6c57600080fd5b505af1158015612b80573d6000803e3d6000fd5b505050507f7e0d09ae7160446fde9323338cdbe3e98cc2d5197108e8a3c5e037265288335d60405160405180910390a15b50505050565b6000601681612bc6919061304d565b506000601581612bd6919061304d565b506000601781612be69190613079565b506000601981612bf691906130a5565b506000601881612c0691906130df565b50565b60008090508360000160019054906101000a900460ff1660ff168360ff161415612c3257600190505b8360000160019054906101000a900460ff1660ff168260ff161415612c5657600190505b60011515811515141515612c6957600080fd5b50505050565b6000600160ff16600d60000160019054906101000a900460ff1660ff161480612cb05750600360ff16600d60000160019054906101000a900460ff1660ff16145b80612cd35750600560ff16600d60000160019054906101000a900460ff1660ff16145b1515612cde57600080fd5b600090505b601580549050811015612db257601581815481101515612cff57fe5b9060005260206000200160009054906101000a900473ffffffffffffffffffffffffffffffffffffffff1673ffffffffffffffffffffffffffffffffffffffff1663b07c74756040518163ffffffff167c0100000000000000000000000000000000000000000000000000000000028152600401600060405180830381600087803b158015612d8d57600080fd5b505af1158015612da1573d6000803e3d6000fd5b505050508080600101915050612ce3565b600560ff16600d60000160019054906101000a900460ff1660ff161415612de257612ddd60066125cf565b612ded565b612dec60026125cf565b5b50565b828054600181600116156101000203166002900490600052602060002090601f016020900481019282601f10612e3157803560ff1916838001178555612e5f565b82800160010185558215612e5f579182015b82811115612e5e578235825591602001919060010190612e43565b5b509050612e6c919061310b565b5090565b828054828255906000526020600020908101928215612ee9579160200282015b82811115612ee85782518260006101000a81548173ffffffffffffffffffffffffffffffffffffffff021916908373ffffffffffffffffffffffffffffffffffffffff16021790555091602001919060010190612e90565b5b509050612ef69190613130565b5090565b828054828255906000526020600020908101928215612f36579160200282015b82811115612f35578251825591602001919060010190612f1a565b5b509050612f43919061310b565b5090565b82805482825590600052602060002090601f01602090048101928215612fdc5791602002820160005b83821115612fad57835183826101000a81548160ff0219169083151502179055509260200192600101602081600001049283019260010302612f70565b8015612fda5782816101000a81549060ff0219169055600101602081600001049283019260010302612fad565b505b509050612fe99190613173565b5090565b82805482825590600052602060002090810192821561303c579160200282015b8281111561303b57825182908051906020019061302b9291906131a3565b509160200191906001019061300d565b5b5090506130499190613223565b5090565b81548183558181111561307457818360005260206000209182019101613073919061310b565b5b505050565b8154818355818111156130a05781836000526020600020918201910161309f9190613223565b5b505050565b8154818355818111156130da57601f016020900481601f016020900483600052602060002091820191016130d9919061310b565b5b505050565b81548183558181111561310657818360005260206000209182019101613105919061310b565b5b505050565b61312d91905b80821115613129576000816000905550600101613111565b5090565b90565b61317091905b8082111561316c57600081816101000a81549073ffffffffffffffffffffffffffffffffffffffff021916905550600101613136565b5090565b90565b6131a091905b8082111561319c57600081816101000a81549060ff021916905550600101613179565b5090565b90565b828054600181600116156101000203166002900490600052602060002090601f016020900481019282601f106131e457805160ff1916838001178555613212565b82800160010185558215613212579182015b828111156132115782518255916020019190600101906131f6565b5b50905061321f919061310b565b5090565b61324c91905b80821115613248576000818161323f919061324f565b50600101613229565b5090565b90565b50805460018160011615610100020316600290046000825580601f106132755750613294565b601f016020900490600052602060002090810190613293919061310b565b5b50565b6040805190810160405280601181526020017f5f696e697453746174654d616368696e6500000000000000000000000000000081525060001515600c826040518082805190602001908083835b60208310151561330957805182526020820191506020810190506020830392506132e4565b6001836020036101000a038019825116818451168082178552505050505050905001915050908152602001604051809103902060009054906101000a900460ff16151514151561335857600080fd5b613362600d6133e9565b6001600c826040518082805190602001908083835b60208310151561339c5780518252602082019150602081019050602083039250613377565b6001836020036101000a038019825116818451168082178552505050505050905001915050908152602001604051809103902060006101000a81548160ff02191690831515021790555050565b600015158160000160009054906101000a900460ff16151514151561340d57600080fd5b60018160000160016101000a81548160ff021916908360ff16021790555060018160000160006101000a81548160ff021916908315150217905550505600a165627a7a723058207fcb14e79605fe88c0445fb37e26e13298881fc8287d1917a475d8499be6ab740029",
  "source": "pragma solidity ^0.4.23;\n\nimport \"../libraries/StateMachine.sol\";\nimport \"./IComputingJob.sol\";\n\n/*\n\n */\n\ncontract CognitiveJob is IComputingJob, StateMachine /* final */ {\n\n    /**\n     * ## Main functionality\n     */\n\n    uint internal constant WORKER_TIMEOUT = 30 minutes;\n\n    IPandora public pandora;\n    IKernel public kernel;\n    IDataset public dataset;\n    uint256 public batches;\n    uint256 public complexity; //todo find better name\n    bytes32 public description;\n    IWorkerNode[] public activeWorkers;\n    IWorkerNode[] public workersPool;\n    bytes[] public ipfsResults;\n\n    uint256[] internal responseTimestamps;\n    bool[] internal responseFlags;\n\n    event WorkersUpdated();\n    event WorkersNotFound();\n    event DataValidationStarted();\n    event DataValidationFailed();\n    event CognitionStarted();\n    event CognitionProgressed(uint8 precent);\n    event CognitionCompleted(bool partialResult);\n\n    constructor(\n        IPandora _pandora,\n        IKernel _kernel,\n        IDataset _dataset,\n        IWorkerNode[] _workersPool,\n        uint256 _complexity,\n        bytes32 _description\n    )\n    public {\n        batches = _dataset.batchesCount();\n        require(batches > 0);\n        require(_workersPool.length >= batches);\n        require(_pandora != address(0));\n        require(_kernel != address(0));\n        require(_dataset != address(0));\n\n        pandora = _pandora;\n        kernel = _kernel;\n        dataset = _dataset;\n        workersPool = _workersPool;\n        complexity = _complexity;\n        description = _description;\n        _initStateMachine();\n    }\n\n    modifier onlyPandora() {\n        require(msg.sender == address(pandora));\n        _;\n    }\n\n    modifier onlyActiveWorkers() {\n        IWorkerNode workerNode;\n        (workerNode,) = _getWorkerFromSender();\n        require(workerNode != IWorkerNode(0));\n        require(msg.sender == address(workerNode));\n        require(tx.origin == workerNode.owner());\n        _;\n    }\n\n    modifier checkReadiness() {\n        for (uint256 no = 0; no < responseFlags.length; no++) {\n            if (responseFlags[no] != true) {\n                return;\n            }\n        }\n        _;\n    }\n\n    function _getWorkerIndex(IWorkerNode _worker) private view returns (uint256) {\n        for (uint256 index = 0; index < activeWorkers.length; index++) {\n            if (_worker == address(activeWorkers[index])) {\n                return index;\n            }\n        }\n        return uint256(-1);\n    }\n\n    function ipfsResultsCount() public view returns (uint256 count) {\n        count = ipfsResults.length;\n    }\n\n    function _getWorkerFromSender() private view returns (IWorkerNode o_workerNode, uint256 o_workerIndex) {\n        o_workerIndex = _getWorkerIndex(IWorkerNode(msg.sender));\n        if (o_workerIndex > activeWorkers.length) {\n            return (IWorkerNode(0), uint256(-1));\n        }\n        o_workerNode = activeWorkers[o_workerIndex];\n    }\n\n    function _replaceWorker(uint256 workerIndex) private requireStates2(DataValidation, Cognition) {\n        IWorkerNode replacementWorker;\n        do {\n            if (workersPool.length == 0) {\n                _insufficientWorkers();\n                return;\n            }\n            replacementWorker = workersPool[workersPool.length - 1];\n            workersPool.length = workersPool.length - 1;\n        } while (replacementWorker.currentState() != replacementWorker.Idle());\n\n        responseFlags[workerIndex] = false; // no response is given from the new worker yet\n        responseTimestamps[workerIndex] = block.timestamp;\n        activeWorkers[workerIndex] = replacementWorker;\n        replacementWorker.assignJob(this);\n        emit WorkersUpdated();\n    }\n\n    function _insufficientWorkers() private requireActiveStates {\n        for (uint no = 0; no < activeWorkers.length; no++) {\n            activeWorkers[no].cancelJob();\n        }\n\n        if (stateMachine.currentState == Cognition) {\n            _transitionToState(PartialResult);\n        } else {\n            _transitionToState(InsufficientWorkers);\n        }\n    }\n\n    function _cleanStorage() private {\n        workersPool.length = 0;\n        activeWorkers.length = 0;\n        ipfsResults.length = 0;\n        responseFlags.length = 0;\n        responseTimestamps.length = 0;\n    }\n\n    function _trackOfflineWorkers() private requireActiveStates {\n        for (uint256 no = 0; no < responseTimestamps.length; no++) {\n            if (block.timestamp - responseTimestamps[no] > WORKER_TIMEOUT) {\n                IWorkerNode guiltyWorker = activeWorkers[no];\n                IWorkerNode.Penalties penalty;\n                if (stateMachine.currentState == GatheringWorkers) {\n                    penalty = IWorkerNode.Penalties.OfflineWhileGathering;\n                } else if (stateMachine.currentState == DataValidation) {\n                    penalty = IWorkerNode.Penalties.OfflineWhileDataValidation;\n                } else if (stateMachine.currentState == Cognition) {\n                    penalty = IWorkerNode.Penalties.OfflineWhileCognition;\n                } else {\n                    revert();// This should not happen due to requireActiveStates function modifier\n                }\n                pandora.penaltizeWorkerNode(guiltyWorker, penalty);\n                _replaceWorker(no);\n            }\n        }\n    }\n\n    function _transitionToState(uint8 _newState) private transitionToState(_newState) {\n        // All actual work is performed by function modifier transitionToState\n    }\n\n\n    function _transitionIfReady(uint8 _newState) private checkReadiness transitionToState(_newState) {\n        for (uint256 no = 0; no < responseTimestamps.length; no++) {\n            responseFlags[no] = false;  // no response or update is given yet\n            responseTimestamps[no] = block.timestamp;\n        }\n    }\n\n    function _processWorkerResponse(bool _acceptanceFlag, IWorkerNode.Penalties _penaltyForDecline, uint8 _nextState) private {\n        IWorkerNode reportingWorker;\n        uint256 workerIndex;\n        (reportingWorker, workerIndex) = _getWorkerFromSender();\n        require(reportingWorker != IWorkerNode(0));\n\n        if (_acceptanceFlag == false) {\n            _replaceWorker(workerIndex);\n            pandora.penaltizeWorkerNode(reportingWorker, _penaltyForDecline);\n        } else {\n            responseFlags[workerIndex] = true;\n            responseTimestamps[workerIndex] = block.timestamp;\n            _trackOfflineWorkers();\n            _transitionIfReady(_nextState);\n        }\n    }\n\n    function initialize()\n    external\n// onlyPandora //removed for job queue proper work - TODO research and test consequences of removing modifier\n    requireState(Uninitialized)\n    transitionToState(GatheringWorkers) {\n        // Select initial worker\n        activeWorkers = new IWorkerNode[](batches);\n        responseTimestamps = new uint[](batches);\n        responseFlags = new bool[](batches);\n        ipfsResults = new bytes[](batches);\n        for (uint8 batch = 0; batch < batches; batch++) {\n            responseFlags[batch] = false; // no response is given yet\n            responseTimestamps[batch] = block.timestamp;\n            activeWorkers[batch] = workersPool[batch];\n            activeWorkers[batch].assignJob(this);\n        }\n        for (uint16 pool = batch; pool < workersPool.length; pool++) {\n            workersPool.push(workersPool[pool]);\n        }\n\n        emit WorkersUpdated();\n    }\n\n    /// @dev Main entry point for\n    /// (Witnessing worker nodes went offline)[https://github.com/pandoraboxchain/techspecs/wiki/Witnessing-worker-nodes-going-offline]\n    /// workflow\n    function reportOfflineWorker(IWorkerNode _reportedWorker)\n    payable\n    external\n    requireActiveStates {\n        /// @todo accept deposit\n        uint256 reportedIndex = _getWorkerIndex(_reportedWorker);\n        if (block.timestamp - responseTimestamps[reportedIndex] > WORKER_TIMEOUT) {\n            /// @todo pay reward and return deposit\n        }\n        _trackOfflineWorkers();\n    }\n\n    function gatheringWorkersResponse(bool _acceptanceFlag)\n    onlyActiveWorkers\n    requireState(GatheringWorkers)\n    external {\n        _processWorkerResponse(_acceptanceFlag, IWorkerNode.Penalties.OfflineWhileGathering, DataValidation);\n    }\n\n    function dataValidationResponse(DataValidationResponse _response)\n    onlyActiveWorkers\n    external {\n        /// @todo implement full (data arbitration alorithm)[https://github.com/pandoraboxchain/techspecs/wiki/Data-inconsistency-arbitration]\n        if (_response == DataValidationResponse.Invalid) {\n            _transitionToState(InvalidData);\n            return;\n        }\n        _processWorkerResponse(_response == DataValidationResponse.Accept, IWorkerNode.Penalties.DeclinesJob, Cognition);\n    }\n\n    function commitProgress(uint8 _percent)\n    onlyActiveWorkers\n    external {\n        uint256 workerIndex;\n        (,workerIndex) = _getWorkerFromSender();\n        responseTimestamps[workerIndex] = block.timestamp;\n        emit CognitionProgressed(_percent);\n    }\n\n    function completeWork(bytes _ipfsResults)\n    onlyActiveWorkers\n    external {\n        uint256 workerIndex;\n        (,workerIndex) = _getWorkerFromSender();\n        ipfsResults[workerIndex] = _ipfsResults;\n        responseFlags[workerIndex] = true;\n        responseTimestamps[workerIndex] = block.timestamp;\n        _trackOfflineWorkers();\n        _transitionIfReady(Completed);\n    }\n\n    function activeWorkersCount()\n    view\n    external\n    returns(uint256) {\n        return activeWorkers.length;\n    }\n\n    function didWorkerCompute(\n        uint no\n    )\n    view\n    external\n    returns(bool) {\n        return responseFlags[no] == true;\n    }\n\n    /**\n     * ## State Machine implementation\n     */\n\n    modifier requireActiveStates() {\n        require(\n            stateMachine.currentState == GatheringWorkers ||\n            stateMachine.currentState == DataValidation ||\n            stateMachine.currentState == Cognition\n        );\n        _;\n    }\n\n    function _initStateMachine() internal {\n        // Creating table of possible state transitions\n        mapping(uint8 => uint8[]) transitions = stateMachine.transitionTable;\n        transitions[Uninitialized] = [GatheringWorkers];\n        transitions[GatheringWorkers] = [InsufficientWorkers, DataValidation];\n        transitions[DataValidation] = [InvalidData, Cognition, InsufficientWorkers];\n        transitions[Cognition] = [Completed, PartialResult];\n\n        // Initializing state machine via base contract code\n        super._initStateMachine();\n\n        // Going into initial state (Uninitialized)\n        stateMachine.currentState = Uninitialized;\n    }\n\n    event Flag(uint number);\n\n    function _fireStateEvent() internal {\n        if (currentState() == InsufficientWorkers) {\n            emit WorkersNotFound();\n            _cleanStorage();\n        } else if (currentState() == DataValidation) {\n            emit DataValidationStarted();\n        } else if (currentState() == InvalidData) {\n            emit DataValidationFailed();\n            _cleanStorage();\n        } else if (currentState() == Cognition) {\n            emit CognitionStarted();\n        } else if (currentState() == PartialResult) {\n            emit CognitionCompleted(true);\n            pandora.finishCognitiveJob();\n            //todo separate finishing in cognitiveJobManager\n        } else if (currentState() == Completed) {\n            emit CognitionCompleted(false);\n            pandora.finishCognitiveJob();\n        }\n    }\n}\n",
  "sourcePath": "/home/kostysh/dev/pyrrha-consensus/contracts/jobs/CognitiveJob.sol",
  "compiler": {
    "name": "solc",
    "version": "0.4.24+commit.e67f0147.Emscripten.clang"
  },
  "schemaVersion": "2.0.0",
  "updatedAt": "2018-06-21T18:39:11.819Z"
}