{
  "contractName": "CognitiveJob",
  "abi": [
    {
      "constant": true,
      "inputs": [],
      "name": "PartialResult",
      "outputs": [
        {
          "name": "",
          "type": "uint8"
        }
      ],
      "payable": false,
      "stateMutability": "view",
      "type": "function"
    },
    {
      "constant": true,
      "inputs": [],
      "name": "dataset",
      "outputs": [
        {
          "name": "",
          "type": "address"
        }
      ],
      "payable": false,
      "stateMutability": "view",
      "type": "function"
    },
    {
      "constant": true,
      "inputs": [],
      "name": "currentState",
      "outputs": [
        {
          "name": "",
          "type": "uint8"
        }
      ],
      "payable": false,
      "stateMutability": "view",
      "type": "function"
    },
    {
      "constant": true,
      "inputs": [
        {
          "name": "",
          "type": "uint256"
        }
      ],
      "name": "ipfsResults",
      "outputs": [
        {
          "name": "",
          "type": "bytes"
        }
      ],
      "payable": false,
      "stateMutability": "view",
      "type": "function"
    },
    {
      "constant": true,
      "inputs": [],
      "name": "Cognition",
      "outputs": [
        {
          "name": "",
          "type": "uint8"
        }
      ],
      "payable": false,
      "stateMutability": "view",
      "type": "function"
    },
    {
      "constant": true,
      "inputs": [],
      "name": "pandora",
      "outputs": [
        {
          "name": "",
          "type": "address"
        }
      ],
      "payable": false,
      "stateMutability": "view",
      "type": "function"
    },
    {
      "constant": true,
      "inputs": [],
      "name": "Uninitialized",
      "outputs": [
        {
          "name": "",
          "type": "uint8"
        }
      ],
      "payable": false,
      "stateMutability": "view",
      "type": "function"
    },
    {
      "constant": true,
      "inputs": [],
      "name": "GatheringWorkers",
      "outputs": [
        {
          "name": "",
          "type": "uint8"
        }
      ],
      "payable": false,
      "stateMutability": "view",
      "type": "function"
    },
    {
      "constant": true,
      "inputs": [],
      "name": "progress",
      "outputs": [
        {
          "name": "",
          "type": "uint8"
        }
      ],
      "payable": false,
      "stateMutability": "view",
      "type": "function"
    },
    {
      "constant": true,
      "inputs": [
        {
          "name": "",
          "type": "uint256"
        }
      ],
      "name": "activeWorkers",
      "outputs": [
        {
          "name": "",
          "type": "address"
        }
      ],
      "payable": false,
      "stateMutability": "view",
      "type": "function"
    },
    {
      "constant": true,
      "inputs": [],
      "name": "InvalidData",
      "outputs": [
        {
          "name": "",
          "type": "uint8"
        }
      ],
      "payable": false,
      "stateMutability": "view",
      "type": "function"
    },
    {
      "constant": true,
      "inputs": [
        {
          "name": "",
          "type": "uint256"
        }
      ],
      "name": "workersPool",
      "outputs": [
        {
          "name": "",
          "type": "address"
        }
      ],
      "payable": false,
      "stateMutability": "view",
      "type": "function"
    },
    {
      "constant": false,
      "inputs": [],
      "name": "destroy",
      "outputs": [],
      "payable": false,
      "stateMutability": "nonpayable",
      "type": "function"
    },
    {
      "constant": true,
      "inputs": [],
      "name": "owner",
      "outputs": [
        {
          "name": "",
          "type": "address"
        }
      ],
      "payable": false,
      "stateMutability": "view",
      "type": "function"
    },
    {
      "constant": true,
      "inputs": [],
      "name": "InsufficientWorkers",
      "outputs": [
        {
          "name": "",
          "type": "uint8"
        }
      ],
      "payable": false,
      "stateMutability": "view",
      "type": "function"
    },
    {
      "constant": true,
      "inputs": [],
      "name": "DataValidation",
      "outputs": [
        {
          "name": "",
          "type": "uint8"
        }
      ],
      "payable": false,
      "stateMutability": "view",
      "type": "function"
    },
    {
      "constant": true,
      "inputs": [],
      "name": "Destroyed",
      "outputs": [
        {
          "name": "",
          "type": "uint8"
        }
      ],
      "payable": false,
      "stateMutability": "view",
      "type": "function"
    },
    {
      "constant": true,
      "inputs": [],
      "name": "batches",
      "outputs": [
        {
          "name": "",
          "type": "uint8"
        }
      ],
      "payable": false,
      "stateMutability": "view",
      "type": "function"
    },
    {
      "constant": true,
      "inputs": [],
      "name": "kernel",
      "outputs": [
        {
          "name": "",
          "type": "address"
        }
      ],
      "payable": false,
      "stateMutability": "view",
      "type": "function"
    },
    {
      "constant": true,
      "inputs": [],
      "name": "Completed",
      "outputs": [
        {
          "name": "",
          "type": "uint8"
        }
      ],
      "payable": false,
      "stateMutability": "view",
      "type": "function"
    },
    {
      "constant": false,
      "inputs": [
        {
          "name": "newOwner",
          "type": "address"
        }
      ],
      "name": "transferOwnership",
      "outputs": [],
      "payable": false,
      "stateMutability": "nonpayable",
      "type": "function"
    },
    {
      "constant": false,
      "inputs": [
        {
          "name": "_recipient",
          "type": "address"
        }
      ],
      "name": "destroyAndSend",
      "outputs": [],
      "payable": false,
      "stateMutability": "nonpayable",
      "type": "function"
    },
    {
      "inputs": [
        {
          "name": "_pandora",
          "type": "address"
        },
        {
          "name": "_kernel",
          "type": "address"
        },
        {
          "name": "_dataset",
          "type": "address"
        },
        {
          "name": "_workersPool",
          "type": "address[]"
        }
      ],
      "payable": false,
      "stateMutability": "nonpayable",
      "type": "constructor"
    },
    {
      "anonymous": false,
      "inputs": [
        {
          "indexed": false,
          "name": "number",
          "type": "uint256"
        }
      ],
      "name": "Flag",
      "type": "event"
    },
    {
      "anonymous": false,
      "inputs": [],
      "name": "WorkersUpdated",
      "type": "event"
    },
    {
      "anonymous": false,
      "inputs": [],
      "name": "WorkersNotFound",
      "type": "event"
    },
    {
      "anonymous": false,
      "inputs": [],
      "name": "DataValidationStarted",
      "type": "event"
    },
    {
      "anonymous": false,
      "inputs": [],
      "name": "DataValidationFailed",
      "type": "event"
    },
    {
      "anonymous": false,
      "inputs": [],
      "name": "CognitionStarted",
      "type": "event"
    },
    {
      "anonymous": false,
      "inputs": [
        {
          "indexed": false,
          "name": "precent",
          "type": "uint8"
        }
      ],
      "name": "CognitionProgressed",
      "type": "event"
    },
    {
      "anonymous": false,
      "inputs": [
        {
          "indexed": false,
          "name": "partialResult",
          "type": "bool"
        }
      ],
      "name": "CognitionCompleted",
      "type": "event"
    },
    {
      "anonymous": false,
      "inputs": [
        {
          "indexed": false,
          "name": "oldState",
          "type": "uint8"
        },
        {
          "indexed": false,
          "name": "newState",
          "type": "uint8"
        }
      ],
      "name": "StateChanged",
      "type": "event"
    },
    {
      "anonymous": false,
      "inputs": [
        {
          "indexed": true,
          "name": "previousOwner",
          "type": "address"
        },
        {
          "indexed": true,
          "name": "newOwner",
          "type": "address"
        }
      ],
      "name": "OwnershipTransferred",
      "type": "event"
    },
    {
      "constant": false,
      "inputs": [],
      "name": "initialize",
      "outputs": [],
      "payable": false,
      "stateMutability": "nonpayable",
      "type": "function"
    },
    {
      "constant": false,
      "inputs": [
        {
          "name": "_reportedWorker",
          "type": "address"
        }
      ],
      "name": "reportOfflineWorker",
      "outputs": [],
      "payable": true,
      "stateMutability": "payable",
      "type": "function"
    },
    {
      "constant": false,
      "inputs": [
        {
          "name": "_acceptanceFlag",
          "type": "bool"
        }
      ],
      "name": "gatheringWorkersResponse",
      "outputs": [],
      "payable": false,
      "stateMutability": "nonpayable",
      "type": "function"
    },
    {
      "constant": false,
      "inputs": [
        {
          "name": "_response",
          "type": "uint8"
        }
      ],
      "name": "dataValidationResponse",
      "outputs": [],
      "payable": false,
      "stateMutability": "nonpayable",
      "type": "function"
    },
    {
      "constant": false,
      "inputs": [
        {
          "name": "percent",
          "type": "uint8"
        }
      ],
      "name": "commitProgress",
      "outputs": [],
      "payable": false,
      "stateMutability": "nonpayable",
      "type": "function"
    },
    {
      "constant": false,
      "inputs": [
        {
          "name": "_ipfsResults",
          "type": "bytes"
        }
      ],
      "name": "completeWork",
      "outputs": [],
      "payable": false,
      "stateMutability": "nonpayable",
      "type": "function"
    },
    {
      "constant": true,
      "inputs": [],
      "name": "activeWorkersCount",
      "outputs": [
        {
          "name": "",
          "type": "uint256"
        }
      ],
      "payable": false,
      "stateMutability": "view",
      "type": "function"
    },
    {
      "constant": true,
      "inputs": [
        {
          "name": "no",
          "type": "uint256"
        }
      ],
      "name": "didWorkerCompute",
      "outputs": [
        {
          "name": "",
          "type": "bool"
        }
      ],
      "payable": false,
      "stateMutability": "view",
      "type": "function"
    }
  ],
  "bytecode": "0x60806040526000601260006101000a81548160ff021916908360ff1602179055503480156200002d57600080fd5b5060405162003a8038038062003a8083398101806040528101908080519060200190929190805190602001909291908051906020019092919080518201929190505050336000806101000a81548173ffffffffffffffffffffffffffffffffffffffff021916908373ffffffffffffffffffffffffffffffffffffffff1602179055508173ffffffffffffffffffffffffffffffffffffffff166387ea09616040518163ffffffff167c0100000000000000000000000000000000000000000000000000000000028152600401602060405180830381600087803b1580156200011557600080fd5b505af11580156200012a573d6000803e3d6000fd5b505050506040513d60208110156200014157600080fd5b8101908080519060200190929190505050600d60146101000a81548160ff021916908360ff1602179055506000600d60149054906101000a900460ff1660ff161115156200018e57600080fd5b600d60149054906101000a900460ff1660ff16815110151515620001b157600080fd5b600073ffffffffffffffffffffffffffffffffffffffff168473ffffffffffffffffffffffffffffffffffffffff1614151515620001ee57600080fd5b600073ffffffffffffffffffffffffffffffffffffffff168373ffffffffffffffffffffffffffffffffffffffff16141515156200022b57600080fd5b600073ffffffffffffffffffffffffffffffffffffffff168273ffffffffffffffffffffffffffffffffffffffff16141515156200026857600080fd5b83600b60006101000a81548173ffffffffffffffffffffffffffffffffffffffff021916908373ffffffffffffffffffffffffffffffffffffffff16021790555082600c60006101000a81548173ffffffffffffffffffffffffffffffffffffffff021916908373ffffffffffffffffffffffffffffffffffffffff16021790555081600d60006101000a81548173ffffffffffffffffffffffffffffffffffffffff021916908373ffffffffffffffffffffffffffffffffffffffff16021790555080600f908051906020019062000343929190620006b5565b506200035d62000367640100000000026401000000009004565b50505050620009c7565b600060096001019050602060405190810160405280600160ff1660ff168152508160008060ff1660ff168152602001908152602001600020906001620003af92919062000744565b506040805190810160405280600260ff1660ff168152602001600360ff1660ff16815250816000600160ff1660ff168152602001908152602001600020906002620003fc929190620007f2565b50606060405190810160405280600460ff1660ff168152602001600560ff1660ff168152602001600260ff1660ff16815250816000600360ff1660ff16815260200190815260200160002090600362000457929190620008a0565b506040805190810160405280600760ff1660ff168152602001600660ff1660ff16815250816000600560ff1660ff168152602001908152602001600020906002620004a4929190620007f2565b50620004c3620004e56401000000000262002ec9176401000000009004565b6000600960000160016101000a81548160ff021916908360ff16021790555050565b6040805190810160405280601181526020017f5f696e697453746174654d616368696e65000000000000000000000000000000815250600015156008826040518082805190602001908083835b60208310151562000559578051825260208201915060208101905060208303925062000532565b6001836020036101000a038019825116818451168082178552505050505050905001915050908152602001604051809103902060009054906101000a900460ff161515141515620005a957600080fd5b620005c9600962000652640100000000026200301b176401000000009004565b60016008826040518082805190602001908083835b602083101515620006055780518252602082019150602081019050602083039250620005de565b6001836020036101000a038019825116818451168082178552505050505050905001915050908152602001604051809103902060006101000a81548160ff02191690831515021790555050565b600015158160000160009054906101000a900460ff1615151415156200067757600080fd5b60018160000160016101000a81548160ff021916908360ff16021790555060018160000160006101000a81548160ff02191690831515021790555050565b82805482825590600052602060002090810192821562000731579160200282015b82811115620007305782518260006101000a81548173ffffffffffffffffffffffffffffffffffffffff021916908373ffffffffffffffffffffffffffffffffffffffff16021790555091602001919060010190620006d6565b5b5090506200074091906200094e565b5090565b82805482825590600052602060002090601f01602090048101928215620007df5791602002820160005b83821115620007ae57835183826101000a81548160ff021916908360ff16021790555092602001926001016020816000010492830192600103026200076e565b8015620007dd5782816101000a81549060ff0219169055600101602081600001049283019260010302620007ae565b505b509050620007ee919062000994565b5090565b82805482825590600052602060002090601f016020900481019282156200088d5791602002820160005b838211156200085c57835183826101000a81548160ff021916908360ff16021790555092602001926001016020816000010492830192600103026200081c565b80156200088b5782816101000a81549060ff02191690556001016020816000010492830192600103026200085c565b505b5090506200089c919062000994565b5090565b82805482825590600052602060002090601f016020900481019282156200093b5791602002820160005b838211156200090a57835183826101000a81548160ff021916908360ff1602179055509260200192600101602081600001049283019260010302620008ca565b8015620009395782816101000a81549060ff02191690556001016020816000010492830192600103026200090a565b505b5090506200094a919062000994565b5090565b6200099191905b808211156200098d57600081816101000a81549073ffffffffffffffffffffffffffffffffffffffff02191690555060010162000955565b5090565b90565b620009c491905b80821115620009c057600081816101000a81549060ff0219169055506001016200099b565b5090565b90565b6130a980620009d76000396000f300608060405260043610610180576000357c0100000000000000000000000000000000000000000000000000000000900463ffffffff168063026d49ea1461018557806302b728ab146101b65780630c3f6acf1461020d5780630fb03aad1461023e5780631590d658146102e45780631a0bc596146103155780631c72fad41461036c57806321514ef31461039d5780634804b4ba146103ce5780634e6b42a8146103f9578063577bd3361461043457806358909400146104655780635cb045db146104d25780635e4059671461050357806364d3414c146105705780636936087d1461059f5780638129fc1c146105cf57806383197ef0146105e65780638da5cb5b146105fd578063b225be4214610654578063c36b33b014610684578063cbd315ae146106b5578063cc0e82c1146106e6578063cfdf677e14610717578063d4aae0c414610748578063d6ccdca31461079f578063d94c69aa146107e4578063e06452d01461081a578063f2fde38b1461084b578063f5074f411461088e575b600080fd5b34801561019157600080fd5b5061019a6108d1565b604051808260ff1660ff16815260200191505060405180910390f35b3480156101c257600080fd5b506101cb6108d6565b604051808273ffffffffffffffffffffffffffffffffffffffff1673ffffffffffffffffffffffffffffffffffffffff16815260200191505060405180910390f35b34801561021957600080fd5b506102226108fc565b604051808260ff1660ff16815260200191505060405180910390f35b34801561024a57600080fd5b5061026960048036038101908080359060200190929190505050610916565b6040518080602001828103825283818151815260200191508051906020019080838360005b838110156102a957808201518184015260208101905061028e565b50505050905090810190601f1680156102d65780820380516001836020036101000a031916815260200191505b509250505060405180910390f35b3480156102f057600080fd5b506102f96109d1565b604051808260ff1660ff16815260200191505060405180910390f35b34801561032157600080fd5b5061032a6109d6565b604051808273ffffffffffffffffffffffffffffffffffffffff1673ffffffffffffffffffffffffffffffffffffffff16815260200191505060405180910390f35b34801561037857600080fd5b506103816109fc565b604051808260ff1660ff16815260200191505060405180910390f35b3480156103a957600080fd5b506103b2610a01565b604051808260ff1660ff16815260200191505060405180910390f35b3480156103da57600080fd5b506103e3610a06565b6040518082815260200191505060405180910390f35b34801561040557600080fd5b50610432600480360381019080803590602001908201803590602001919091929391929390505050610a13565b005b34801561044057600080fd5b50610449610bea565b604051808260ff1660ff16815260200191505060405180910390f35b34801561047157600080fd5b5061049060048036038101908080359060200190929190505050610bfd565b604051808273ffffffffffffffffffffffffffffffffffffffff1673ffffffffffffffffffffffffffffffffffffffff16815260200191505060405180910390f35b3480156104de57600080fd5b506104e7610c3b565b604051808260ff1660ff16815260200191505060405180910390f35b34801561050f57600080fd5b5061052e60048036038101908080359060200190929190505050610c40565b604051808273ffffffffffffffffffffffffffffffffffffffff1673ffffffffffffffffffffffffffffffffffffffff16815260200191505060405180910390f35b34801561057c57600080fd5b5061059d600480360381019080803515159060200190929190505050610c7e565b005b3480156105ab57600080fd5b506105cd600480360381019080803560ff169060200190929190505050610e13565b005b3480156105db57600080fd5b506105e4610f72565b005b3480156105f257600080fd5b506105fb611462565b005b34801561060957600080fd5b506106126114f7565b604051808273ffffffffffffffffffffffffffffffffffffffff1673ffffffffffffffffffffffffffffffffffffffff16815260200191505060405180910390f35b34801561066057600080fd5b50610682600480360381019080803560ff16906020019092919050505061151c565b005b34801561069057600080fd5b506106996116cf565b604051808260ff1660ff16815260200191505060405180910390f35b3480156106c157600080fd5b506106ca6116d4565b604051808260ff1660ff16815260200191505060405180910390f35b3480156106f257600080fd5b506106fb6116d9565b604051808260ff1660ff16815260200191505060405180910390f35b34801561072357600080fd5b5061072c6116de565b604051808260ff1660ff16815260200191505060405180910390f35b34801561075457600080fd5b5061075d6116f1565b604051808273ffffffffffffffffffffffffffffffffffffffff1673ffffffffffffffffffffffffffffffffffffffff16815260200191505060405180910390f35b3480156107ab57600080fd5b506107ca60048036038101908080359060200190929190505050611717565b604051808215151515815260200191505060405180910390f35b610818600480360381019080803573ffffffffffffffffffffffffffffffffffffffff169060200190929190505050611756565b005b34801561082657600080fd5b5061082f6117fa565b604051808260ff1660ff16815260200191505060405180910390f35b34801561085757600080fd5b5061088c600480360381019080803573ffffffffffffffffffffffffffffffffffffffff1690602001909291905050506117ff565b005b34801561089a57600080fd5b506108cf600480360381019080803573ffffffffffffffffffffffffffffffffffffffff169060200190929190505050611954565b005b600681565b600d60009054906101000a900473ffffffffffffffffffffffffffffffffffffffff1681565b6000600960000160019054906101000a900460ff16905090565b60138181548110151561092557fe5b906000526020600020016000915090508054600181600116156101000203166002900480601f0160208091040260200160405190810160405280929190818152602001828054600181600116156101000203166002900480156109c95780601f1061099e576101008083540402835291602001916109c9565b820191906000526020600020905b8154815290600101906020018083116109ac57829003601f168201915b505050505081565b600581565b600b60009054906101000a900473ffffffffffffffffffffffffffffffffffffffff1681565b600081565b600181565b6000600e80549050905090565b600080610a1e6119c8565b509050600073ffffffffffffffffffffffffffffffffffffffff168173ffffffffffffffffffffffffffffffffffffffff1614151515610a5d57600080fd5b8073ffffffffffffffffffffffffffffffffffffffff163373ffffffffffffffffffffffffffffffffffffffff16141515610a9757600080fd5b8073ffffffffffffffffffffffffffffffffffffffff16638da5cb5b6040518163ffffffff167c0100000000000000000000000000000000000000000000000000000000028152600401602060405180830381600087803b158015610afb57600080fd5b505af1158015610b0f573d6000803e3d6000fd5b505050506040513d6020811015610b2557600080fd5b810190808051906020019092919050505073ffffffffffffffffffffffffffffffffffffffff163273ffffffffffffffffffffffffffffffffffffffff16141515610b6f57600080fd5b610b776119c8565b9250506001601183815481101515610b8b57fe5b90600052602060002090602091828204019190066101000a81548160ff02191690831515021790555042601083815481101515610bc457fe5b9060005260206000200181905550610bda611a50565b610be46007611cc1565b50505050565b601260009054906101000a900460ff1681565b600e81815481101515610c0c57fe5b906000526020600020016000915054906101000a900473ffffffffffffffffffffffffffffffffffffffff1681565b600481565b600f81815481101515610c4f57fe5b906000526020600020016000915054906101000a900473ffffffffffffffffffffffffffffffffffffffff1681565b6000610c886119c8565b509050600073ffffffffffffffffffffffffffffffffffffffff168173ffffffffffffffffffffffffffffffffffffffff1614151515610cc757600080fd5b8073ffffffffffffffffffffffffffffffffffffffff163373ffffffffffffffffffffffffffffffffffffffff16141515610d0157600080fd5b8073ffffffffffffffffffffffffffffffffffffffff16638da5cb5b6040518163ffffffff167c0100000000000000000000000000000000000000000000000000000000028152600401602060405180830381600087803b158015610d6557600080fd5b505af1158015610d79573d6000803e3d6000fd5b505050506040513d6020811015610d8f57600080fd5b810190808051906020019092919050505073ffffffffffffffffffffffffffffffffffffffff163273ffffffffffffffffffffffffffffffffffffffff16141515610dd957600080fd5b60018060ff16600960000160019054906101000a900460ff1660ff16141515610e0157600080fd5b610e0e8360006003611e52565b505050565b6000610e1d6119c8565b509050600073ffffffffffffffffffffffffffffffffffffffff168173ffffffffffffffffffffffffffffffffffffffff1614151515610e5c57600080fd5b8073ffffffffffffffffffffffffffffffffffffffff163373ffffffffffffffffffffffffffffffffffffffff16141515610e9657600080fd5b8073ffffffffffffffffffffffffffffffffffffffff16638da5cb5b6040518163ffffffff167c0100000000000000000000000000000000000000000000000000000000028152600401602060405180830381600087803b158015610efa57600080fd5b505af1158015610f0e573d6000803e3d6000fd5b505050506040513d6020811015610f2457600080fd5b810190808051906020019092919050505073ffffffffffffffffffffffffffffffffffffffff163273ffffffffffffffffffffffffffffffffffffffff16141515610f6e57600080fd5b5050565b60008060008060ff16600960000160019054906101000a900460ff1660ff16141515610f9d57600080fd5b60016000600960000160019054906101000a900460ff169050610fca82600961201490919063ffffffff16565b600d60149054906101000a900460ff1660ff1660405190808252806020026020018201604052801561100b5781602001602082028038833980820191505090505b50600e9080519060200190611021929190612b60565b50600d60149054906101000a900460ff1660ff166040519080825280602002602001820160405280156110635781602001602082028038833980820191505090505b5060109080519060200190611079929190612bea565b50600d60149054906101000a900460ff1660ff166040519080825280602002602001820160405280156110bb5781602001602082028038833980820191505090505b50601190805190602001906110d1929190612c37565b50600094505b600d60149054906101000a900460ff1660ff168560ff1610156112e557600060118660ff1681548110151561110857fe5b90600052602060002090602091828204019190066101000a81548160ff0219169083151502179055504260108660ff1681548110151561114457fe5b9060005260206000200181905550600f8560ff1681548110151561116457fe5b9060005260206000200160009054906101000a900473ffffffffffffffffffffffffffffffffffffffff16600e8660ff168154811015156111a157fe5b9060005260206000200160006101000a81548173ffffffffffffffffffffffffffffffffffffffff021916908373ffffffffffffffffffffffffffffffffffffffff160217905550600e8560ff168154811015156111fb57fe5b9060005260206000200160009054906101000a900473ffffffffffffffffffffffffffffffffffffffff1673ffffffffffffffffffffffffffffffffffffffff1663897399ae306040518263ffffffff167c0100000000000000000000000000000000000000000000000000000000028152600401808273ffffffffffffffffffffffffffffffffffffffff1673ffffffffffffffffffffffffffffffffffffffff168152602001915050600060405180830381600087803b1580156112c057600080fd5b505af11580156112d4573d6000803e3d6000fd5b5050505084806001019550506110d7565b8460ff1693505b600f805490508461ffff1610156113ac57600f808561ffff1681548110151561131157fe5b9060005260206000200160009054906101000a900473ffffffffffffffffffffffffffffffffffffffff1690806001815401808255809150509060018203906000526020600020016000909192909190916101000a81548173ffffffffffffffffffffffffffffffffffffffff021916908373ffffffffffffffffffffffffffffffffffffffff1602179055505083806001019450506112ec565b7f7e0d09ae7160446fde9323338cdbe3e98cc2d5197108e8a3c5e037265288335d60405160405180910390a181600960000160016101000a81548160ff021916908360ff1602179055507fe8a97ea87e4388fa22d496b95a8ed5ced6717f49790318de2b928aaf37a021d881600960000160019054906101000a900460ff16604051808360ff1660ff1681526020018260ff1660ff1681526020019250505060405180910390a161145b6120e4565b5050505050565b6000809054906101000a900473ffffffffffffffffffffffffffffffffffffffff1673ffffffffffffffffffffffffffffffffffffffff163373ffffffffffffffffffffffffffffffffffffffff161415156114bd57600080fd5b6000809054906101000a900473ffffffffffffffffffffffffffffffffffffffff1673ffffffffffffffffffffffffffffffffffffffff16ff5b6000809054906101000a900473ffffffffffffffffffffffffffffffffffffffff1681565b60006115266119c8565b509050600073ffffffffffffffffffffffffffffffffffffffff168173ffffffffffffffffffffffffffffffffffffffff161415151561156557600080fd5b8073ffffffffffffffffffffffffffffffffffffffff163373ffffffffffffffffffffffffffffffffffffffff1614151561159f57600080fd5b8073ffffffffffffffffffffffffffffffffffffffff16638da5cb5b6040518163ffffffff167c0100000000000000000000000000000000000000000000000000000000028152600401602060405180830381600087803b15801561160357600080fd5b505af1158015611617573d6000803e3d6000fd5b505050506040513d602081101561162d57600080fd5b810190808051906020019092919050505073ffffffffffffffffffffffffffffffffffffffff163273ffffffffffffffffffffffffffffffffffffffff1614151561167757600080fd5b60028081111561168357fe5b82600281111561168f57fe5b14156116a45761169f60046123fd565b6116cb565b6116ca600060028111156116b457fe5b8360028111156116c057fe5b1460016005611e52565b5b5050565b600281565b600381565b60ff81565b600d60149054906101000a900460ff1681565b600c60009054906101000a900473ffffffffffffffffffffffffffffffffffffffff1681565b60006001151560118381548110151561172c57fe5b90600052602060002090602091828204019190069054906101000a900460ff161515149050919050565b6000600160ff16600960000160019054906101000a900460ff1660ff1614806117975750600360ff16600960000160019054906101000a900460ff1660ff16145b806117ba5750600560ff16600960000160019054906101000a900460ff1660ff16145b15156117c557600080fd5b6117ce826124b1565b90506107086010828154811015156117e257fe5b9060005260206000205050506117f6611a50565b5050565b600781565b6000809054906101000a900473ffffffffffffffffffffffffffffffffffffffff1673ffffffffffffffffffffffffffffffffffffffff163373ffffffffffffffffffffffffffffffffffffffff1614151561185a57600080fd5b600073ffffffffffffffffffffffffffffffffffffffff168173ffffffffffffffffffffffffffffffffffffffff161415151561189657600080fd5b8073ffffffffffffffffffffffffffffffffffffffff166000809054906101000a900473ffffffffffffffffffffffffffffffffffffffff1673ffffffffffffffffffffffffffffffffffffffff167f8be0079c531659141344cd1fd0a4f28419497f9722a3daafe3b4186f6b6457e060405160405180910390a3806000806101000a81548173ffffffffffffffffffffffffffffffffffffffff021916908373ffffffffffffffffffffffffffffffffffffffff16021790555050565b6000809054906101000a900473ffffffffffffffffffffffffffffffffffffffff1673ffffffffffffffffffffffffffffffffffffffff163373ffffffffffffffffffffffffffffffffffffffff161415156119af57600080fd5b8073ffffffffffffffffffffffffffffffffffffffff16ff5b6000806119d4336124b1565b9050600e80549050811115611a0f5760007fffffffffffffffffffffffffffffffffffffffffffffffffffffffffffffffff91509150611a4c565b600e81815481101515611a1e57fe5b9060005260206000200160009054906101000a900473ffffffffffffffffffffffffffffffffffffffff1691505b9091565b6000806000600160ff16600960000160019054906101000a900460ff1660ff161480611a945750600360ff16600960000160019054906101000a900460ff1660ff16145b80611ab75750600560ff16600960000160019054906101000a900460ff1660ff16145b1515611ac257600080fd5b600092505b601080549050831015611cbc57610708601084815481101515611ae657fe5b906000526020600020015442031115611caf57600e83815481101515611b0857fe5b9060005260206000200160009054906101000a900473ffffffffffffffffffffffffffffffffffffffff169150600160ff16600960000160019054906101000a900460ff1660ff161415611b5f5760009050611bba565b600360ff16600960000160019054906101000a900460ff1660ff161415611b895760029050611bb9565b600560ff16600960000160019054906101000a900460ff1660ff161415611bb35760049050611bb8565b600080fd5b5b5b600b60009054906101000a900473ffffffffffffffffffffffffffffffffffffffff1673ffffffffffffffffffffffffffffffffffffffff16635ef1777683836040518363ffffffff167c0100000000000000000000000000000000000000000000000000000000028152600401808373ffffffffffffffffffffffffffffffffffffffff1673ffffffffffffffffffffffffffffffffffffffff168152602001826004811115611c6757fe5b60ff16815260200192505050600060405180830381600087803b158015611c8d57600080fd5b505af1158015611ca1573d6000803e3d6000fd5b50505050611cae83612572565b5b8280600101935050611ac7565b505050565b600080600090505b601180549050811015611d245760011515601182815481101515611ce957fe5b90600052602060002090602091828204019190069054906101000a900460ff161515141515611d1757611e4d565b8080600101915050611cc9565b826000600960000160019054906101000a900460ff169050611d5082600961201490919063ffffffff16565b600093505b601080549050841015611dc7576000601185815481101515611d7357fe5b90600052602060002090602091828204019190066101000a81548160ff02191690831515021790555042601085815481101515611dac57fe5b90600052602060002001819055508380600101945050611d55565b81600960000160016101000a81548160ff021916908360ff1602179055507fe8a97ea87e4388fa22d496b95a8ed5ced6717f49790318de2b928aaf37a021d881600960000160019054906101000a900460ff16604051808360ff1660ff1681526020018260ff1660ff1681526020019250505060405180910390a1611e4a6120e4565b50505b505050565b600080611e5d6119c8565b91509150600073ffffffffffffffffffffffffffffffffffffffff168273ffffffffffffffffffffffffffffffffffffffff1614151515611e9d57600080fd5b600015158515151415611fa357611eb381612572565b600b60009054906101000a900473ffffffffffffffffffffffffffffffffffffffff1673ffffffffffffffffffffffffffffffffffffffff16635ef1777683866040518363ffffffff167c0100000000000000000000000000000000000000000000000000000000028152600401808373ffffffffffffffffffffffffffffffffffffffff1673ffffffffffffffffffffffffffffffffffffffff168152602001826004811115611f6057fe5b60ff16815260200192505050600060405180830381600087803b158015611f8657600080fd5b505af1158015611f9a573d6000803e3d6000fd5b5050505061200d565b6001601182815481101515611fb457fe5b90600052602060002090602091828204019190066101000a81548160ff02191690831515021790555042601082815481101515611fed57fe5b9060005260206000200181905550612003611a50565b61200c83611cc1565b5b5050505050565b600080600060ff8560000160019054906101000a900460ff1660ff161415151561203a57fe5b600092508460010160008660000160019054906101000a900460ff1660ff1660ff1681526020019081526020016000209150600090505b81805490508110156120ca578360ff16828281548110151561208f57fe5b90600052602060002090602091828204019190069054906101000a900460ff1660ff1614156120bd57600192505b8080600101915050612071565b600115158315151415156120dd57600080fd5b5050505050565b600260ff166120f16108fc565b60ff161415612133577f5f64b01e798e22b7b006309d50c085491c227a74e9cf11a922528b0d9a414de460405160405180910390a161212e6128eb565b6123fb565b600360ff166121406108fc565b60ff16141561217a577f2d9c6af01e1c3857ef5720b6226a3b900b0db1a5a9430c53d8a35b4fccf2015560405160405180910390a16123fa565b600460ff166121876108fc565b60ff1614156121c9577f75be0ccc76f667c80f1c9ab66fafe78bd732b900403eb3f0da135c085955deca60405160405180910390a16121c46128eb565b6123f9565b600560ff166121d66108fc565b60ff161415612210577f51273f7efcba23797f509c81f07b426c6b9cdbee92a6a40389a405d0152178c960405160405180910390a16123f8565b600660ff1661221d6108fc565b60ff161415612305577ff8d8e42e26bfacf74ecaff47cd43fa79d51c74d3a979d58521d12f369ad2bf7b6001604051808215151515815260200191505060405180910390a1600b60009054906101000a900473ffffffffffffffffffffffffffffffffffffffff1673ffffffffffffffffffffffffffffffffffffffff1663171317516040518163ffffffff167c0100000000000000000000000000000000000000000000000000000000028152600401600060405180830381600087803b1580156122e857600080fd5b505af11580156122fc573d6000803e3d6000fd5b505050506123f7565b600760ff166123126108fc565b60ff1614156123f6577ff8d8e42e26bfacf74ecaff47cd43fa79d51c74d3a979d58521d12f369ad2bf7b6000604051808215151515815260200191505060405180910390a1600b60009054906101000a900473ffffffffffffffffffffffffffffffffffffffff1673ffffffffffffffffffffffffffffffffffffffff1663171317516040518163ffffffff167c0100000000000000000000000000000000000000000000000000000000028152600401600060405180830381600087803b1580156123dd57600080fd5b505af11580156123f1573d6000803e3d6000fd5b505050505b5b5b5b5b5b565b806000600960000160019054906101000a900460ff16905061242982600961201490919063ffffffff16565b81600960000160016101000a81548160ff021916908360ff1602179055507fe8a97ea87e4388fa22d496b95a8ed5ced6717f49790318de2b928aaf37a021d881600960000160019054906101000a900460ff16604051808360ff1660ff1681526020018260ff1660ff1681526020019250505060405180910390a16124ac6120e4565b505050565b600080600090505b600e8054905081101561254857600e818154811015156124d557fe5b9060005260206000200160009054906101000a900473ffffffffffffffffffffffffffffffffffffffff1673ffffffffffffffffffffffffffffffffffffffff163373ffffffffffffffffffffffffffffffffffffffff16141561253b5780915061256c565b80806001019150506124b9565b7fffffffffffffffffffffffffffffffffffffffffffffffffffffffffffffffff91505b50919050565b60006003600561258e8282600961293d9092919063ffffffff16565b5b6000600f8054905014156125aa576125a56129df565b6128e5565b600f6001600f80549050038154811015156125c157fe5b9060005260206000200160009054906101000a900473ffffffffffffffffffffffffffffffffffffffff1692506001600f8054905003600f816126049190612cdd565b508273ffffffffffffffffffffffffffffffffffffffff1663ae897c556040518163ffffffff167c0100000000000000000000000000000000000000000000000000000000028152600401602060405180830381600087803b15801561266957600080fd5b505af115801561267d573d6000803e3d6000fd5b505050506040513d602081101561269357600080fd5b810190808051906020019092919050505060ff168373ffffffffffffffffffffffffffffffffffffffff16630c3f6acf6040518163ffffffff167c0100000000000000000000000000000000000000000000000000000000028152600401602060405180830381600087803b15801561270b57600080fd5b505af115801561271f573d6000803e3d6000fd5b505050506040513d602081101561273557600080fd5b810190808051906020019092919050505060ff161415156127555761258f565b600060118581548110151561276657fe5b90600052602060002090602091828204019190066101000a81548160ff0219169083151502179055504260108581548110151561279f57fe5b906000526020600020018190555082600e858154811015156127bd57fe5b9060005260206000200160006101000a81548173ffffffffffffffffffffffffffffffffffffffff021916908373ffffffffffffffffffffffffffffffffffffffff1602179055508273ffffffffffffffffffffffffffffffffffffffff1663897399ae306040518263ffffffff167c0100000000000000000000000000000000000000000000000000000000028152600401808273ffffffffffffffffffffffffffffffffffffffff1673ffffffffffffffffffffffffffffffffffffffff168152602001915050600060405180830381600087803b1580156128a057600080fd5b505af11580156128b4573d6000803e3d6000fd5b505050507f7e0d09ae7160446fde9323338cdbe3e98cc2d5197108e8a3c5e037265288335d60405160405180910390a15b50505050565b6000600f816128fa9190612cdd565b506000600e8161290a9190612cdd565b50600060138161291a9190612d09565b50600060118161292a9190612d35565b50600060108161293a9190612d6f565b50565b6000612947612d9b565b600080925060408051908101604052808660ff1660ff1681526020018560ff1660ff168152509150600090505b60028110156129c4578560000160019054906101000a900460ff1660ff1682826002811015156129a057fe5b602002015160ff1614156129b757600192506129c4565b8080600101915050612974565b600115158315151415156129d757600080fd5b505050505050565b6000600160ff16600960000160019054906101000a900460ff1660ff161480612a205750600360ff16600960000160019054906101000a900460ff1660ff16145b80612a435750600560ff16600960000160019054906101000a900460ff1660ff16145b1515612a4e57600080fd5b600090505b600e80549050811015612b2257600e81815481101515612a6f57fe5b9060005260206000200160009054906101000a900473ffffffffffffffffffffffffffffffffffffffff1673ffffffffffffffffffffffffffffffffffffffff1663b07c74756040518163ffffffff167c0100000000000000000000000000000000000000000000000000000000028152600401600060405180830381600087803b158015612afd57600080fd5b505af1158015612b11573d6000803e3d6000fd5b505050508080600101915050612a53565b600560ff16600960000160019054906101000a900460ff1660ff161415612b5257612b4d60066123fd565b612b5d565b612b5c60026123fd565b5b50565b828054828255906000526020600020908101928215612bd9579160200282015b82811115612bd85782518260006101000a81548173ffffffffffffffffffffffffffffffffffffffff021916908373ffffffffffffffffffffffffffffffffffffffff16021790555091602001919060010190612b80565b5b509050612be69190612dbd565b5090565b828054828255906000526020600020908101928215612c26579160200282015b82811115612c25578251825591602001919060010190612c0a565b5b509050612c339190612e00565b5090565b82805482825590600052602060002090601f01602090048101928215612ccc5791602002820160005b83821115612c9d57835183826101000a81548160ff0219169083151502179055509260200192600101602081600001049283019260010302612c60565b8015612cca5782816101000a81549060ff0219169055600101602081600001049283019260010302612c9d565b505b509050612cd99190612e25565b5090565b815481835581811115612d0457818360005260206000209182019101612d039190612e00565b5b505050565b815481835581811115612d3057818360005260206000209182019101612d2f9190612e55565b5b505050565b815481835581811115612d6a57601f016020900481601f01602090048360005260206000209182019101612d699190612e00565b5b505050565b815481835581811115612d9657818360005260206000209182019101612d959190612e00565b5b505050565b6040805190810160405280600290602082028038833980820191505090505090565b612dfd91905b80821115612df957600081816101000a81549073ffffffffffffffffffffffffffffffffffffffff021916905550600101612dc3565b5090565b90565b612e2291905b80821115612e1e576000816000905550600101612e06565b5090565b90565b612e5291905b80821115612e4e57600081816101000a81549060ff021916905550600101612e2b565b5090565b90565b612e7e91905b80821115612e7a5760008181612e719190612e81565b50600101612e5b565b5090565b90565b50805460018160011615610100020316600290046000825580601f10612ea75750612ec6565b601f016020900490600052602060002090810190612ec59190612e00565b5b50565b6040805190810160405280601181526020017f5f696e697453746174654d616368696e65000000000000000000000000000000815250600015156008826040518082805190602001908083835b602083101515612f3b5780518252602082019150602081019050602083039250612f16565b6001836020036101000a038019825116818451168082178552505050505050905001915050908152602001604051809103902060009054906101000a900460ff161515141515612f8a57600080fd5b612f94600961301b565b60016008826040518082805190602001908083835b602083101515612fce5780518252602082019150602081019050602083039250612fa9565b6001836020036101000a038019825116818451168082178552505050505050905001915050908152602001604051809103902060006101000a81548160ff02191690831515021790555050565b600015158160000160009054906101000a900460ff16151514151561303f57600080fd5b60018160000160016101000a81548160ff021916908360ff16021790555060018160000160006101000a81548160ff021916908315150217905550505600a165627a7a72305820c341433fbe2b24708fac1ae174987a67040807ef707b6bbe20d00e12493419580029",
  "source": "pragma solidity 0.4.23;\n\nimport \"../libraries/StateMachine.sol\";\nimport \"./IComputingJob.sol\";\n\n/*\n\n */\n\ncontract CognitiveJob is IComputingJob, StateMachine /* final */ {\n    /**\n     * ## State Machine implementation\n     */\n\n    modifier requireActiveStates() {\n        require(\n            stateMachine.currentState == GatheringWorkers ||\n            stateMachine.currentState == DataValidation ||\n            stateMachine.currentState == Cognition\n        );\n        _;\n    }\n\n    function _initStateMachine() internal {\n        // Creating table of possible state transitions\n        var transitions = stateMachine.transitionTable;\n        transitions[Uninitialized] = [GatheringWorkers];\n        transitions[GatheringWorkers] = [InsufficientWorkers, DataValidation];\n        transitions[DataValidation] = [InvalidData, Cognition, InsufficientWorkers];\n        transitions[Cognition] = [Completed, PartialResult];\n\n        // Initializing state machine via base contract code\n        super._initStateMachine();\n\n        // Going into initial state (Uninitialized)\n        stateMachine.currentState = Uninitialized;\n    }\n\n    event Flag(uint number);\n\n    function _fireStateEvent() internal {\n        if (currentState() == InsufficientWorkers) {\n            emit WorkersNotFound();\n            _cleanStorage();\n        } else if (currentState() == DataValidation) {\n            emit DataValidationStarted();\n        } else if (currentState() == InvalidData) {\n            emit DataValidationFailed();\n            _cleanStorage();\n        } else if (currentState() == Cognition) {\n            emit CognitionStarted();\n        } else if (currentState() == PartialResult) {\n            emit CognitionCompleted(true);\n            pandora.finishCognitiveJob();\n        } else if (currentState() == Completed) {\n            emit CognitionCompleted(false);\n            pandora.finishCognitiveJob();\n        }\n    }\n\n    /**\n     * ## Main functionality\n     */\n\n    uint internal constant WORKER_TIMEOUT = 30 minutes;\n\n    IPandora public pandora;\n    IKernel public kernel;\n    IDataset public dataset;\n    uint8 public batches;\n    IWorkerNode[] public activeWorkers;\n    IWorkerNode[] public workersPool;\n\n    uint256[] internal responseTimestamps;\n    bool[] internal responseFlags;\n\n    uint8 public progress = 0;\n    bytes[] public ipfsResults;\n\n    event WorkersUpdated();\n\n    event WorkersNotFound();\n    event DataValidationStarted();\n    event DataValidationFailed();\n    event CognitionStarted();\n    event CognitionProgressed(uint8 precent);\n    event CognitionCompleted(bool partialResult);\n\n    constructor(\n        IPandora _pandora,\n        IKernel _kernel,\n        IDataset _dataset,\n        IWorkerNode[] _workersPool\n    )\n    public {\n        batches = _dataset.batchesCount();\n        require(batches > 0);\n        require(_workersPool.length >= batches);\n        require(_pandora != address(0));\n        require(_kernel != address(0));\n        require(_dataset != address(0));\n\n        pandora = _pandora;\n        kernel = _kernel;\n        dataset = _dataset;\n        workersPool = _workersPool;\n\n        _initStateMachine();\n    }\n\n    modifier onlyPandora() {\n        require(msg.sender == address(pandora));\n        _;\n    }\n\n    modifier onlyActiveWorkers() {\n        var (workerNode,) = _getWorkerFromSender();\n        require(workerNode != IWorkerNode(0));\n        require(msg.sender == address(workerNode));\n        require(tx.origin == workerNode.owner());\n        _;\n    }\n\n    modifier checkReadiness() {\n        for (uint256 no = 0; no < responseFlags.length; no++) {\n            if (responseFlags[no] != true) {\n                return;\n            }\n        }\n        _;\n    }\n\n    function _getWorkerIndex(IWorkerNode _worker) private view returns (uint256) {\n        for (uint256 index = 0; index < activeWorkers.length; index++) {\n            if (msg.sender == address(activeWorkers[index])) {\n                return index;\n            }\n        }\n        return uint256(-1);\n    }\n\n    function _getWorkerFromSender() private view returns (IWorkerNode o_workerNode, uint256 o_workerIndex) {\n        o_workerIndex = _getWorkerIndex(IWorkerNode(msg.sender));\n        if (o_workerIndex > activeWorkers.length) {\n            return (IWorkerNode(0), uint256(-1));\n        }\n        o_workerNode = activeWorkers[o_workerIndex];\n    }\n\n    function _replaceWorker(uint256 workerIndex) private requireStates2(DataValidation, Cognition) {\n        IWorkerNode replacementWorker;\n        do {\n            if (workersPool.length == 0) {\n                _insufficientWorkers();\n                return;\n            }\n            replacementWorker = workersPool[workersPool.length - 1];\n            workersPool.length = workersPool.length - 1;\n        } while (replacementWorker.currentState() != replacementWorker.Idle());\n\n        responseFlags[workerIndex] = false; // no response is given from the new worker yet\n        responseTimestamps[workerIndex] = block.timestamp;\n        activeWorkers[workerIndex] = replacementWorker;\n        replacementWorker.assignJob(this);\n        emit WorkersUpdated();\n    }\n\n    function _insufficientWorkers() private requireActiveStates {\n        for (uint no = 0; no < activeWorkers.length; no++) {\n            activeWorkers[no].cancelJob();\n        }\n\n        if (stateMachine.currentState == Cognition) {\n            _transitionToState(PartialResult);\n        } else {\n            _transitionToState(InsufficientWorkers);\n        }\n    }\n\n    function _cleanStorage() private {\n        workersPool.length = 0;\n        activeWorkers.length = 0;\n        ipfsResults.length = 0;\n        responseFlags.length = 0;\n        responseTimestamps.length = 0;\n    }\n\n    function _trackOfflineWorkers() private requireActiveStates {\n        for (uint256 no = 0; no < responseTimestamps.length; no++) {\n            if (block.timestamp - responseTimestamps[no] > WORKER_TIMEOUT) {\n                IWorkerNode guiltyWorker = activeWorkers[no];\n                IWorkerNode.Penalties penalty;\n                if (stateMachine.currentState == GatheringWorkers) {\n                    penalty = IWorkerNode.Penalties.OfflineWhileGathering;\n                } else if (stateMachine.currentState == DataValidation) {\n                    penalty = IWorkerNode.Penalties.OfflineWhileDataValidation;\n                } else if (stateMachine.currentState == Cognition) {\n                    penalty = IWorkerNode.Penalties.OfflineWhileCognition;\n                } else {\n                    revert();// This should not happen due to requireActiveStates function modifier\n                }\n                pandora.penaltizeWorkerNode(guiltyWorker, penalty);\n                _replaceWorker(no);\n            }\n        }\n    }\n\n    function _transitionToState(uint8 _newState) private transitionToState(_newState) {\n        // All actual work is performed by function modifier transitionToState\n    }\n\n\n    function _transitionIfReady(uint8 _newState) private checkReadiness transitionToState(_newState) {\n        for (uint256 no = 0; no < responseTimestamps.length; no++) {\n            responseFlags[no] = false;  // no response or update is given yet\n            responseTimestamps[no] = block.timestamp;\n        }\n    }\n\n    function _processWorkerResponse(bool _acceptanceFlag, IWorkerNode.Penalties _penaltyForDecline, uint8 _nextState) private {\n        var (reportingWorker, workerIndex) = _getWorkerFromSender();\n        require(reportingWorker != IWorkerNode(0));\n\n        if (_acceptanceFlag == false) {\n            _replaceWorker(workerIndex);\n            pandora.penaltizeWorkerNode(reportingWorker, _penaltyForDecline);\n        } else {\n            responseFlags[workerIndex] = true;\n            responseTimestamps[workerIndex] = block.timestamp;\n            _trackOfflineWorkers();\n            _transitionIfReady(_nextState);\n        }\n    }\n\n    function initialize()\n    external\n// onlyPandora //removed for job queue proper work - TODO research and test consequences of removing modifier\n    requireState(Uninitialized)\n    transitionToState(GatheringWorkers) {\n        // Select initial worker\n        activeWorkers = new IWorkerNode[](batches);\n        responseTimestamps = new uint[](batches);\n        responseFlags = new bool[](batches);\n        /// @fixme ipfsResults = new bytes[](batches);\n        for (uint8 batch = 0; batch < batches; batch++) {\n            responseFlags[batch] = false; // no response is given yet\n            responseTimestamps[batch] = block.timestamp;\n            activeWorkers[batch] = workersPool[batch];\n            activeWorkers[batch].assignJob(this);\n        }\n        for (uint16 pool = batch; pool < workersPool.length; pool++) {\n            workersPool.push(workersPool[pool]);\n        }\n\n        emit WorkersUpdated();\n    }\n\n    /// @dev Main entry point for\n    /// (Witnessing worker nodes went offline)[https://github.com/pandoraboxchain/techspecs/wiki/Witnessing-worker-nodes-going-offline]\n    /// workflow\n    function reportOfflineWorker(IWorkerNode _reportedWorker)\n    payable\n    external\n    requireActiveStates {\n        /// @todo accept deposit\n        uint256 reportedIndex = _getWorkerIndex(_reportedWorker);\n        if (block.timestamp - responseTimestamps[reportedIndex] > WORKER_TIMEOUT) {\n            /// @todo pay reward and return deposit\n        }\n        _trackOfflineWorkers();\n    }\n\n    function gatheringWorkersResponse(bool _acceptanceFlag)\n    onlyActiveWorkers\n    requireState(GatheringWorkers)\n    external {\n        _processWorkerResponse(_acceptanceFlag, IWorkerNode.Penalties.OfflineWhileGathering, DataValidation);\n    }\n\n    function dataValidationResponse(DataValidationResponse _response)\n    onlyActiveWorkers\n    external {\n        /// @todo implement full (data arbitration alorithm)[https://github.com/pandoraboxchain/techspecs/wiki/Data-inconsistency-arbitration]\n        if (_response == DataValidationResponse.Invalid) {\n            _transitionToState(InvalidData);\n            return;\n        }\n        _processWorkerResponse(_response == DataValidationResponse.Accept, IWorkerNode.Penalties.DeclinesJob, Cognition);\n    }\n\n    function commitProgress(uint8 percent)\n    onlyActiveWorkers\n    external {\n        /// @todo Implement tracking progress of cognitive work\n        //CognitionProgressed(percent);\n    }\n\n    function completeWork(bytes _ipfsResults)\n    onlyActiveWorkers\n    external {\n        var (,workerIndex) = _getWorkerFromSender();\n        /// @fixme ipfsResults[workerIndex] = _ipfsResults;\n        responseFlags[workerIndex] = true;\n        responseTimestamps[workerIndex] = block.timestamp;\n        _trackOfflineWorkers();\n        _transitionIfReady(Completed);\n    }\n\n    function activeWorkersCount()\n    view\n    external\n    returns(uint256) {\n        return activeWorkers.length;\n    }\n\n    function didWorkerCompute(\n        uint no\n    )\n    view\n    external\n    returns(bool) {\n        return responseFlags[no] == true;\n    }\n}\n",
  "sourcePath": "/home/kostysh/dev/pyrrha-consensus/contracts/jobs/CognitiveJob.sol",
  "compiler": {
    "name": "solc",
    "version": "0.4.23+commit.124ca40d.Emscripten.clang"
  },
  "schemaVersion": "2.0.0",
  "updatedAt": "2018-05-18T16:54:28.844Z"
}