{
  "contractName": "CognitiveJobController",
  "abi": [
    {
      "constant": true,
      "inputs": [
        {
          "name": "",
          "type": "uint256"
        }
      ],
      "name": "completedJobs",
      "outputs": [
        {
          "name": "id",
          "type": "bytes32"
        },
        {
          "name": "kernel",
          "type": "address"
        },
        {
          "name": "dataset",
          "type": "address"
        },
        {
          "name": "complexity",
          "type": "uint256"
        },
        {
          "name": "description",
          "type": "bytes32"
        },
        {
          "name": "progress",
          "type": "uint8"
        },
        {
          "name": "state",
          "type": "uint8"
        }
      ],
      "payable": false,
      "stateMutability": "view",
      "type": "function"
    },
    {
      "constant": true,
      "inputs": [
        {
          "name": "",
          "type": "bytes32"
        }
      ],
      "name": "completedJobsIndexes",
      "outputs": [
        {
          "name": "",
          "type": "uint16"
        }
      ],
      "payable": false,
      "stateMutability": "view",
      "type": "function"
    },
    {
      "constant": true,
      "inputs": [
        {
          "name": "",
          "type": "bytes32"
        }
      ],
      "name": "activeJobsIndexes",
      "outputs": [
        {
          "name": "",
          "type": "uint16"
        }
      ],
      "payable": false,
      "stateMutability": "view",
      "type": "function"
    },
    {
      "constant": false,
      "inputs": [],
      "name": "renounceOwnership",
      "outputs": [],
      "payable": false,
      "stateMutability": "nonpayable",
      "type": "function"
    },
    {
      "constant": true,
      "inputs": [],
      "name": "owner",
      "outputs": [
        {
          "name": "",
          "type": "address"
        }
      ],
      "payable": false,
      "stateMutability": "view",
      "type": "function"
    },
    {
      "constant": true,
      "inputs": [
        {
          "name": "",
          "type": "uint8"
        },
        {
          "name": "",
          "type": "uint256"
        }
      ],
      "name": "transitionTable",
      "outputs": [
        {
          "name": "",
          "type": "uint8"
        }
      ],
      "payable": false,
      "stateMutability": "view",
      "type": "function"
    },
    {
      "constant": false,
      "inputs": [
        {
          "name": "_newOwner",
          "type": "address"
        }
      ],
      "name": "transferOwnership",
      "outputs": [],
      "payable": false,
      "stateMutability": "nonpayable",
      "type": "function"
    },
    {
      "inputs": [],
      "payable": false,
      "stateMutability": "nonpayable",
      "type": "constructor"
    },
    {
      "anonymous": false,
      "inputs": [
        {
          "indexed": true,
          "name": "jobId",
          "type": "bytes32"
        },
        {
          "indexed": false,
          "name": "oldState",
          "type": "uint8"
        },
        {
          "indexed": false,
          "name": "newState",
          "type": "uint8"
        }
      ],
      "name": "JobStateChanged",
      "type": "event"
    },
    {
      "anonymous": false,
      "inputs": [
        {
          "indexed": true,
          "name": "jobId",
          "type": "bytes32"
        }
      ],
      "name": "WorkersUpdated",
      "type": "event"
    },
    {
      "anonymous": false,
      "inputs": [
        {
          "indexed": true,
          "name": "jobId",
          "type": "bytes32"
        }
      ],
      "name": "WorkersNotFound",
      "type": "event"
    },
    {
      "anonymous": false,
      "inputs": [
        {
          "indexed": true,
          "name": "jobId",
          "type": "bytes32"
        }
      ],
      "name": "DataValidationStarted",
      "type": "event"
    },
    {
      "anonymous": false,
      "inputs": [
        {
          "indexed": true,
          "name": "jobId",
          "type": "bytes32"
        }
      ],
      "name": "DataValidationFailed",
      "type": "event"
    },
    {
      "anonymous": false,
      "inputs": [
        {
          "indexed": true,
          "name": "jobId",
          "type": "bytes32"
        }
      ],
      "name": "CognitionStarted",
      "type": "event"
    },
    {
      "anonymous": false,
      "inputs": [
        {
          "indexed": true,
          "name": "jobId",
          "type": "bytes32"
        },
        {
          "indexed": false,
          "name": "precent",
          "type": "uint8"
        }
      ],
      "name": "CognitionProgressed",
      "type": "event"
    },
    {
      "anonymous": false,
      "inputs": [
        {
          "indexed": true,
          "name": "jobId",
          "type": "bytes32"
        },
        {
          "indexed": false,
          "name": "partialResult",
          "type": "bool"
        }
      ],
      "name": "CognitionCompleted",
      "type": "event"
    },
    {
      "anonymous": false,
      "inputs": [
        {
          "indexed": true,
          "name": "previousOwner",
          "type": "address"
        }
      ],
      "name": "OwnershipRenounced",
      "type": "event"
    },
    {
      "anonymous": false,
      "inputs": [
        {
          "indexed": true,
          "name": "previousOwner",
          "type": "address"
        },
        {
          "indexed": true,
          "name": "newOwner",
          "type": "address"
        }
      ],
      "name": "OwnershipTransferred",
      "type": "event"
    },
    {
      "constant": true,
      "inputs": [],
      "name": "activeJobsCount",
      "outputs": [
        {
          "name": "",
          "type": "uint256"
        }
      ],
      "payable": false,
      "stateMutability": "view",
      "type": "function"
    },
    {
      "constant": true,
      "inputs": [],
      "name": "completedJobsCount",
      "outputs": [
        {
          "name": "",
          "type": "uint256"
        }
      ],
      "payable": false,
      "stateMutability": "view",
      "type": "function"
    },
    {
      "constant": true,
      "inputs": [
        {
          "name": "_index",
          "type": "uint16"
        },
        {
          "name": "_isActive",
          "type": "bool"
        }
      ],
      "name": "getJobId",
      "outputs": [
        {
          "name": "",
          "type": "bytes32"
        }
      ],
      "payable": false,
      "stateMutability": "view",
      "type": "function"
    },
    {
      "constant": true,
      "inputs": [
        {
          "name": "_jobId",
          "type": "bytes32"
        }
      ],
      "name": "getCognitiveJobDetails",
      "outputs": [
        {
          "name": "kernel",
          "type": "address"
        },
        {
          "name": "dataset",
          "type": "address"
        },
        {
          "name": "complexity",
          "type": "uint256"
        },
        {
          "name": "description",
          "type": "bytes32"
        },
        {
          "name": "activeWorkers",
          "type": "address[]"
        },
        {
          "name": "progress",
          "type": "uint8"
        },
        {
          "name": "state",
          "type": "uint8"
        }
      ],
      "payable": false,
      "stateMutability": "view",
      "type": "function"
    },
    {
      "constant": true,
      "inputs": [
        {
          "name": "_jobId",
          "type": "bytes32"
        },
        {
          "name": "_index",
          "type": "uint8"
        }
      ],
      "name": "getCognitiveJobResults",
      "outputs": [
        {
          "name": "ipfsResults",
          "type": "bytes"
        }
      ],
      "payable": false,
      "stateMutability": "view",
      "type": "function"
    },
    {
      "constant": true,
      "inputs": [
        {
          "name": "_jobId",
          "type": "bytes32"
        }
      ],
      "name": "getCognitiveJobServiceInfo",
      "outputs": [
        {
          "name": "responseTimestamps",
          "type": "uint32[]"
        },
        {
          "name": "responseFlags",
          "type": "bool[]"
        }
      ],
      "payable": false,
      "stateMutability": "view",
      "type": "function"
    },
    {
      "constant": false,
      "inputs": [
        {
          "name": "_kernel",
          "type": "address"
        },
        {
          "name": "_dataset",
          "type": "address"
        },
        {
          "name": "_assignedWorkers",
          "type": "address[]"
        },
        {
          "name": "_complexity",
          "type": "uint256"
        },
        {
          "name": "_description",
          "type": "bytes32"
        }
      ],
      "name": "createCognitiveJob",
      "outputs": [
        {
          "name": "id",
          "type": "bytes32"
        }
      ],
      "payable": false,
      "stateMutability": "nonpayable",
      "type": "function"
    },
    {
      "constant": false,
      "inputs": [
        {
          "name": "_jobId",
          "type": "bytes32"
        },
        {
          "name": "_workerId",
          "type": "address"
        },
        {
          "name": "_responseType",
          "type": "uint8"
        },
        {
          "name": "_response",
          "type": "bool"
        }
      ],
      "name": "respondToJob",
      "outputs": [
        {
          "name": "result",
          "type": "bool"
        }
      ],
      "payable": false,
      "stateMutability": "nonpayable",
      "type": "function"
    },
    {
      "constant": false,
      "inputs": [
        {
          "name": "_jobId",
          "type": "bytes32"
        },
        {
          "name": "_workerId",
          "type": "address"
        },
        {
          "name": "_percent",
          "type": "uint8"
        }
      ],
      "name": "commitProgress",
      "outputs": [],
      "payable": false,
      "stateMutability": "nonpayable",
      "type": "function"
    },
    {
      "constant": false,
      "inputs": [
        {
          "name": "_jobId",
          "type": "bytes32"
        },
        {
          "name": "_workerId",
          "type": "address"
        },
        {
          "name": "_ipfsResults",
          "type": "bytes"
        }
      ],
      "name": "completeWork",
      "outputs": [
        {
          "name": "result",
          "type": "bool"
        }
      ],
      "payable": false,
      "stateMutability": "nonpayable",
      "type": "function"
    }
  ],
  "bytecode": "0x60806040523480156200001157600080fd5b50336000806101000a81548173ffffffffffffffffffffffffffffffffffffffff021916908373ffffffffffffffffffffffffffffffffffffffff1602179055506200006b62000071640100000000026401000000009004565b6200047c565b600060059050602060405190810160405280600160088111156200009157fe5b60ff1660ff16815250816000806008811115620000aa57fe5b60ff1660ff168152602001908152602001600020906001620000ce9291906200023f565b50604080519081016040528060026008811115620000e857fe5b60ff1660ff168152602001600360088111156200010157fe5b60ff1660ff16815250816000600160088111156200011b57fe5b60ff1660ff1681526020019081526020016000209060026200013f929190620002ed565b50606060405190810160405280600460088111156200015a57fe5b60ff1660ff168152602001600560088111156200017357fe5b60ff1660ff168152602001600260088111156200018c57fe5b60ff1660ff1681525081600060036008811115620001a657fe5b60ff1660ff168152602001908152602001600020906003620001ca9291906200039b565b50604080519081016040528060076008811115620001e457fe5b60ff1660ff16815260200160066008811115620001fd57fe5b60ff1660ff16815250816000600560088111156200021757fe5b60ff1660ff1681526020019081526020016000209060026200023b929190620002ed565b5050565b82805482825590600052602060002090601f01602090048101928215620002da5791602002820160005b83821115620002a957835183826101000a81548160ff021916908360ff160217905550926020019260010160208160000104928301926001030262000269565b8015620002d85782816101000a81549060ff0219169055600101602081600001049283019260010302620002a9565b505b509050620002e9919062000449565b5090565b82805482825590600052602060002090601f01602090048101928215620003885791602002820160005b838211156200035757835183826101000a81548160ff021916908360ff160217905550926020019260010160208160000104928301926001030262000317565b8015620003865782816101000a81549060ff021916905560010160208160000104928301926001030262000357565b505b50905062000397919062000449565b5090565b82805482825590600052602060002090601f01602090048101928215620004365791602002820160005b838211156200040557835183826101000a81548160ff021916908360ff1602179055509260200192600101602081600001049283019260010302620003c5565b8015620004345782816101000a81549060ff021916905560010160208160000104928301926001030262000405565b505b50905062000445919062000449565b5090565b6200047991905b808211156200047557600081816101000a81549060ff02191690555060010162000450565b5090565b90565b612c7f806200048c6000396000f3006080604052600436106100f1576000357c0100000000000000000000000000000000000000000000000000000000900463ffffffff1680631f9ca61d146100f65780632b4acd86146101d55780633605853f1461028c57806339d9de641461033b5780633b183eb5146104575780634a1f8abc146104d85780634e5613c3146105255780635c2b37fa146105a7578063672d98d6146105d2578063715018a61461061f578063752f4a9c146106365780638da5cb5b1461068f578063ba0a9ef5146106e6578063c9b7b25b146107b4578063ead4d67914610812578063f21ee5c61461083d578063f2fde38b14610891575b600080fd5b34801561010257600080fd5b50610121600480360381019080803590602001909291905050506108d4565b6040518088600019166000191681526020018773ffffffffffffffffffffffffffffffffffffffff1673ffffffffffffffffffffffffffffffffffffffff1681526020018673ffffffffffffffffffffffffffffffffffffffff1673ffffffffffffffffffffffffffffffffffffffff16815260200185815260200184600019166000191681526020018360ff1660ff1681526020018260ff1660ff16815260200197505050505050505060405180910390f35b3480156101e157600080fd5b506102116004803603810190808035600019169060200190929190803560ff16906020019092919050505061097f565b6040518080602001828103825283818151815260200191508051906020019080838360005b83811015610251578082015181840152602081019050610236565b50505050905090810190601f16801561027e5780820380516001836020036101000a031916815260200191505b509250505060405180910390f35b34801561029857600080fd5b5061031d600480360381019080803573ffffffffffffffffffffffffffffffffffffffff169060200190929190803573ffffffffffffffffffffffffffffffffffffffff169060200190929190803590602001908201803590602001919091929391929390803590602001909291908035600019169060200190929190505050610af1565b60405180826000191660001916815260200191505060405180910390f35b34801561034757600080fd5b5061036a6004803603810190808035600019169060200190929190505050610fe8565b604051808873ffffffffffffffffffffffffffffffffffffffff1673ffffffffffffffffffffffffffffffffffffffff1681526020018773ffffffffffffffffffffffffffffffffffffffff1673ffffffffffffffffffffffffffffffffffffffff1681526020018681526020018560001916600019168152602001806020018460ff1660ff1681526020018360ff1660ff168152602001828103825285818151815260200191508051906020019060200280838360005b8381101561043d578082015181840152602081019050610422565b505050509050019850505050505050505060405180910390f35b34801561046357600080fd5b506104be6004803603810190808035600019169060200190929190803573ffffffffffffffffffffffffffffffffffffffff1690602001909291908035906020019082018035906020019190919293919293905050506111be565b604051808215151515815260200191505060405180910390f35b3480156104e457600080fd5b506105076004803603810190808035600019169060200190929190505050611370565b604051808261ffff1661ffff16815260200191505060405180910390f35b34801561053157600080fd5b5061058d6004803603810190808035600019169060200190929190803573ffffffffffffffffffffffffffffffffffffffff169060200190929190803560ff169060200190929190803515159060200190929190505050611391565b604051808215151515815260200191505060405180910390f35b3480156105b357600080fd5b506105bc6114e2565b6040518082815260200191505060405180910390f35b3480156105de57600080fd5b5061060160048036038101908080356000191690602001909291905050506114ef565b604051808261ffff1661ffff16815260200191505060405180910390f35b34801561062b57600080fd5b50610634611510565b005b34801561064257600080fd5b50610671600480360381019080803561ffff169060200190929190803515159060200190929190505050611612565b60405180826000191660001916815260200191505060405180910390f35b34801561069b57600080fd5b506106a4611672565b604051808273ffffffffffffffffffffffffffffffffffffffff1673ffffffffffffffffffffffffffffffffffffffff16815260200191505060405180910390f35b3480156106f257600080fd5b506107156004803603810190808035600019169060200190929190505050611697565b604051808060200180602001838103835285818151815260200191508051906020019060200280838360005b8381101561075c578082015181840152602081019050610741565b50505050905001838103825284818151815260200191508051906020019060200280838360005b8381101561079e578082015181840152602081019050610783565b5050505090500194505050505060405180910390f35b3480156107c057600080fd5b506108106004803603810190808035600019169060200190929190803573ffffffffffffffffffffffffffffffffffffffff169060200190929190803560ff16906020019092919050505061184b565b005b34801561081e57600080fd5b50610827611a3b565b6040518082815260200191505060405180910390f35b34801561084957600080fd5b50610875600480360381019080803560ff16906020019092919080359060200190929190505050611a48565b604051808260ff1660ff16815260200191505060405180910390f35b34801561089d57600080fd5b506108d2600480360381019080803573ffffffffffffffffffffffffffffffffffffffff169060200190929190505050611a8a565b005b6004818154811015156108e357fe5b90600052602060002090600a02016000915090508060000154908060010160009054906101000a900473ffffffffffffffffffffffffffffffffffffffff16908060020160009054906101000a900473ffffffffffffffffffffffffffffffffffffffff16908060030154908060040154908060090160009054906101000a900460ff16908060090160019054906101000a900460ff16905087565b6060600061098c84611af1565b6109e2576004600160036000876000191660001916815260200190815260200160002060009054906101000a900461ffff160361ffff168154811015156109cf57fe5b90600052602060002090600a0201610a2f565b60026001806000876000191660001916815260200190815260200160002060009054906101000a900461ffff160361ffff16815481101515610a2057fe5b90600052602060002090600a02015b9050806006018360ff16815481101515610a4557fe5b906000526020600020018054600181600116156101000203166002900480601f016020809104026020016040519081016040528092919081815260200182805460018160011615610100020316600290048015610ae35780601f10610ab857610100808354040283529160200191610ae3565b820191906000526020600020905b815481529060010190602001808311610ac657829003601f168201915b505050505091505092915050565b60008060008060009054906101000a900473ffffffffffffffffffffffffffffffffffffffff1673ffffffffffffffffffffffffffffffffffffffff163373ffffffffffffffffffffffffffffffffffffffff16141515610b5157600080fd5b7fffffffffffffffffffffffffffffffffffffffffffffffffffffffffffffffff61ffff16600280549050101515610b8857600080fd5b43600280549050016040518082815260200191505060405180910390209250600261016060405190810160405280856000191681526020018b73ffffffffffffffffffffffffffffffffffffffff1681526020018a73ffffffffffffffffffffffffffffffffffffffff16815260200187815260200186600019168152602001898980806020026020016040519081016040528093929190818152602001838360200280828437820191505050505050815260200189899050604051908082528060200260200182016040528015610c7457816020015b6060815260200190600190039081610c5f5790505b50815260200189899050604051908082528060200260200182016040528015610cac5781602001602082028038833980820191505090505b50815260200189899050604051908082528060200260200182016040528015610ce45781602001602082028038833980820191505090505b508152602001600060ff16815260200160006008811115610d0157fe5b60ff168152509080600181540180825580915050906001820390600052602060002090600a0201600090919290919091506000820151816000019060001916905560208201518160010160006101000a81548173ffffffffffffffffffffffffffffffffffffffff021916908373ffffffffffffffffffffffffffffffffffffffff16021790555060408201518160020160006101000a81548173ffffffffffffffffffffffffffffffffffffffff021916908373ffffffffffffffffffffffffffffffffffffffff160217905550606082015181600301556080820151816004019060001916905560a0820151816005019080519060200190610e069291906127d4565b5060c0820151816006019080519060200190610e2392919061285e565b5060e0820151816007019080519060200190610e409291906128be565b50610100820151816008019080519060200190610e5e92919061296e565b506101208201518160090160006101000a81548160ff021916908360ff1602179055506101408201518160090160016101000a81548160ff021916908360ff16021790555050505060028054905060016000856000191660001916815260200190815260200160002060006101000a81548161ffff021916908361ffff16021790555060026001806000866000191660001916815260200190815260200160002060009054906101000a900461ffff160361ffff16815481101515610f1f57fe5b90600052602060002090600a02019150600090505b8160070180549050811015610f9557428260070182815481101515610f5557fe5b90600052602060002090600891828204019190066004026101000a81548163ffffffff021916908363ffffffff1602179055508080600101915050610f34565b610fab8360016008811115610fa657fe5b611b79565b82600019167fcdd8e82457800d3241f19b61393a2bbceb40e44253685afc406b2bb489c84ad360405160405180910390a250509695505050505050565b60008060008060606000806000610ffe89611af1565b6110545760046001600360008c6000191660001916815260200190815260200160002060009054906101000a900461ffff160361ffff1681548110151561104157fe5b90600052602060002090600a02016110a1565b600260018060008c6000191660001916815260200190815260200160002060009054906101000a900461ffff160361ffff1681548110151561109257fe5b90600052602060002090600a02015b90508060010160009054906101000a900473ffffffffffffffffffffffffffffffffffffffff1697508060020160009054906101000a900473ffffffffffffffffffffffffffffffffffffffff16965080600301549550806004015494508060050180548060200260200160405190810160405280929190818152602001828054801561118357602002820191906000526020600020905b8160009054906101000a900473ffffffffffffffffffffffffffffffffffffffff1673ffffffffffffffffffffffffffffffffffffffff1681526020019060010190808311611139575b505050505093508060090160009054906101000a900460ff1692508060090160019054906101000a900460ff16915050919395979092949650565b60008085600560088111156111cf57fe5b8060ff1660026001806000866000191660001916815260200190815260200160002060009054906101000a900461ffff160361ffff1681548110151561121157fe5b90600052602060002090600a020160090160019054906101000a900460ff1660ff1614151561123f57600080fd5b6000809054906101000a900473ffffffffffffffffffffffffffffffffffffffff1673ffffffffffffffffffffffffffffffffffffffff163373ffffffffffffffffffffffffffffffffffffffff1614151561129a57600080fd5b6112a48888611d62565b92507fffffffffffffffffffffffffffffffffffffffffffffffffffffffffffffffff83141515156112d557600080fd5b8585600260018060008d6000191660001916815260200190815260200160002060009054906101000a900461ffff160361ffff1681548110151561131557fe5b90600052602060002090600a02016006018581548110151561133357fe5b90600052602060002001919061134a929190612a14565b50611363888860028081111561135c57fe5b6001611e79565b9350505050949350505050565b60036020528060005260406000206000915054906101000a900461ffff1681565b600084600060026001806000856000191660001916815260200190815260200160002060009054906101000a900461ffff160361ffff168154811015156113d457fe5b90600052602060002090600a02019050600160088111156113f157fe5b60ff168160090160019054906101000a900460ff1660ff16148061143757506003600881111561141d57fe5b60ff168160090160019054906101000a900460ff1660ff16145b8061146457506005600881111561144a57fe5b60ff168160090160019054906101000a900460ff1660ff16145b151561146f57600080fd5b6000809054906101000a900473ffffffffffffffffffffffffffffffffffffffff1673ffffffffffffffffffffffffffffffffffffffff163373ffffffffffffffffffffffffffffffffffffffff161415156114ca57600080fd5b6114d687878787611e79565b92505050949350505050565b6000600280549050905090565b60016020528060005260406000206000915054906101000a900461ffff1681565b6000809054906101000a900473ffffffffffffffffffffffffffffffffffffffff1673ffffffffffffffffffffffffffffffffffffffff163373ffffffffffffffffffffffffffffffffffffffff1614151561156b57600080fd5b6000809054906101000a900473ffffffffffffffffffffffffffffffffffffffff1673ffffffffffffffffffffffffffffffffffffffff167ff8df31144d9c2f0f6b59d69b8b98abd5459d07f2742c4df920b25aae33c6482060405160405180910390a260008060006101000a81548173ffffffffffffffffffffffffffffffffffffffff021916908373ffffffffffffffffffffffffffffffffffffffff160217905550565b600080826116405760048461ffff1681548110151561162d57fe5b90600052602060002090600a0201611662565b60028461ffff1681548110151561165357fe5b90600052602060002090600a02015b9050806000015491505092915050565b6000809054906101000a900473ffffffffffffffffffffffffffffffffffffffff1681565b60608060006116a584611af1565b6116fb576004600160036000876000191660001916815260200190815260200160002060009054906101000a900461ffff160361ffff168154811015156116e857fe5b90600052602060002090600a0201611748565b60026001806000876000191660001916815260200190815260200160002060009054906101000a900461ffff160361ffff1681548110151561173957fe5b90600052602060002090600a02015b9050806007018054806020026020016040519081016040528092919081815260200182805480156117c457602002820191906000526020600020906000905b82829054906101000a900463ffffffff1663ffffffff16815260200190600401906020826003010492830192600103820291508084116117875790505b505050505092508060080180548060200260200160405190810160405280929190818152602001828054801561183e57602002820191906000526020600020906000905b82829054906101000a900460ff161515815260200190600101906020826000010492830192600103820291508084116118085790505b5050505050915050915091565b6000836005600881111561185b57fe5b8060ff1660026001806000866000191660001916815260200190815260200160002060009054906101000a900461ffff160361ffff1681548110151561189d57fe5b90600052602060002090600a020160090160019054906101000a900460ff1660ff161415156118cb57600080fd5b6000809054906101000a900473ffffffffffffffffffffffffffffffffffffffff1673ffffffffffffffffffffffffffffffffffffffff163373ffffffffffffffffffffffffffffffffffffffff1614151561192657600080fd5b6119308686611d62565b92507fffffffffffffffffffffffffffffffffffffffffffffffffffffffffffffffff831415151561196157600080fd5b42600260018060008a6000191660001916815260200190815260200160002060009054906101000a900461ffff160361ffff168154811015156119a057fe5b90600052602060002090600a0201600701848154811015156119be57fe5b90600052602060002090600891828204019190066004026101000a81548163ffffffff021916908363ffffffff16021790555085600019167f84d08018633e0a8a0ba434acc29166246cfe913279e254647ca8c2f24f13660785604051808260ff1660ff16815260200191505060405180910390a2505050505050565b6000600480549050905090565b600560205281600052604060002081815481101515611a6357fe5b9060005260206000209060209182820401919006915091509054906101000a900460ff1681565b6000809054906101000a900473ffffffffffffffffffffffffffffffffffffffff1673ffffffffffffffffffffffffffffffffffffffff163373ffffffffffffffffffffffffffffffffffffffff16141515611ae557600080fd5b611aee81611f42565b50565b60008060016000846000191660001916815260200190815260200160002060009054906101000a900461ffff1661ffff16141515611b325760019050611b74565b600060036000846000191660001916815260200190815260200160002060009054906101000a900461ffff1661ffff1614151515611b6f57600080fd5b600090505b919050565b6000808383600080600080925060056000600260018060008a6000191660001916815260200190815260200160002060009054906101000a900461ffff160361ffff16815481101515611bc857fe5b90600052602060002090600a020160090160019054906101000a900460ff1660ff1660ff1681526020019081526020016000209150600090505b8180549050811015611c5b578360ff168282815481101515611c2057fe5b90600052602060002090602091828204019190069054906101000a900460ff1660ff161415611c4e57600192505b8080600101915050611c02565b60011515831515141515611c6e57600080fd5b600260018060008c6000191660001916815260200190815260200160002060009054906101000a900461ffff160361ffff16815481101515611cac57fe5b90600052602060002090600a020196508660090160019054906101000a900460ff169550878760090160016101000a81548160ff021916908360ff16021790555088600019167f9cb99c834b5e878ca7005d163b0fd70203dbc223d5845abe517de64a74dc5816878960090160019054906101000a900460ff16604051808360ff1660ff1681526020018260ff1660ff1681526020019250505060405180910390a2611d578961203c565b505050505050505050565b600080600060026001806000886000191660001916815260200190815260200160002060009054906101000a900461ffff160361ffff16815481101515611da557fe5b90600052602060002090600a02019150600090505b8160050180549050811015611e4d578373ffffffffffffffffffffffffffffffffffffffff168260050182815481101515611df157fe5b9060005260206000200160009054906101000a900473ffffffffffffffffffffffffffffffffffffffff1673ffffffffffffffffffffffffffffffffffffffff161415611e4057809250611e71565b8080600101915050611dba565b7fffffffffffffffffffffffffffffffffffffffffffffffffffffffffffffffff92505b505092915050565b6000611e868585846122ab565b611e8f85612304565b15611f3a576001905060006002811115611ea557fe5b60ff168360ff161415611ed657611ec88560036008811115611ec357fe5b611b79565b611ed1856123c6565b611f39565b60016002811115611ee357fe5b60ff168360ff161415611f1457611f068560056008811115611f0157fe5b611b79565b611f0f856123c6565b611f38565b600280811115611f2057fe5b60ff168360ff161415611f3257611f37565b600090505b5b5b5b949350505050565b600073ffffffffffffffffffffffffffffffffffffffff168173ffffffffffffffffffffffffffffffffffffffff1614151515611f7e57600080fd5b8073ffffffffffffffffffffffffffffffffffffffff166000809054906101000a900473ffffffffffffffffffffffffffffffffffffffff1673ffffffffffffffffffffffffffffffffffffffff167f8be0079c531659141344cd1fd0a4f28419497f9722a3daafe3b4186f6b6457e060405160405180910390a3806000806101000a81548173ffffffffffffffffffffffffffffffffffffffff021916908373ffffffffffffffffffffffffffffffffffffffff16021790555050565b600060026001806000856000191660001916815260200190815260200160002060009054906101000a900461ffff160361ffff1681548110151561207c57fe5b90600052602060002090600a020160090160019054906101000a900460ff169050600260088111156120aa57fe5b60ff168160ff1614156120ed5781600019167f5261c4ecde326f171b514c548529aa2219b22fedf2fa5640ae6f7d939aaefbf860405160405180910390a26122a7565b600360088111156120fa57fe5b60ff168160ff16141561213d5781600019167f664052ccd6bc90c161d5b3a6ed2bff308e2bf01e52fbc112e7a8d445bb9c66ee60405160405180910390a26122a6565b6004600881111561214a57fe5b60ff168160ff16141561218d5781600019167fee170c67bd88e14fcfccdcf7817ddb732cb1a466d0c333f4642571d1282556eb60405160405180910390a26122a5565b6005600881111561219a57fe5b60ff168160ff1614156121dd5781600019167f3010926e292de172661e49071a9be4cb18f63877dffcc78013e349175f5b03b260405160405180910390a26122a4565b600660088111156121ea57fe5b60ff168160ff16141561223d5781600019167f439c5ac734864869b402ad7298724e0154a172f98a32de5c8e877b3f234dc5d76001604051808215151515815260200191505060405180910390a26122a3565b6007600881111561224a57fe5b60ff168160ff1614156122a25781600019167f439c5ac734864869b402ad7298724e0154a172f98a32de5c8e877b3f234dc5d76000604051808215151515815260200191505060405180910390a26122a1826124be565b5b5b5b5b5b5b5050565b60006122b78484611d62565b90507fffffffffffffffffffffffffffffffffffffffffffffffffffffffffffffffff81141515156122e857600080fd5b6122f38482846124c1565b6122fc846125dc565b505050505050565b60008060006001925060026001806000876000191660001916815260200190815260200160002060009054906101000a900461ffff160361ffff1681548110151561234b57fe5b90600052602060002090600a02019150600090505b81600801805490508110156123bf5760011515826008018281548110151561238457fe5b90600052602060002090602091828204019190069054906101000a900460ff1615151415156123b257600092505b8080600101915050612360565b5050919050565b60008060026001806000866000191660001916815260200190815260200160002060009054906101000a900461ffff160361ffff1681548110151561240757fe5b90600052602060002090600a02019150600090505b81600801805490508110156124b9576000826008018281548110151561243e57fe5b90600052602060002090602091828204019190066101000a81548160ff02191690831515021790555042826007018281548110151561247957fe5b90600052602060002090600891828204019190066004026101000a81548163ffffffff021916908363ffffffff160217905550808060010191505061241c565b505050565b50565b8060026001806000876000191660001916815260200190815260200160002060009054906101000a900461ffff160361ffff1681548110151561250057fe5b90600052602060002090600a02016008018381548110151561251e57fe5b90600052602060002090602091828204019190066101000a81548160ff0219169083151502179055504260026001806000876000191660001916815260200190815260200160002060009054906101000a900461ffff160361ffff1681548110151561258657fe5b90600052602060002090600a0201600701838154811015156125a457fe5b90600052602060002090600891828204019190066004026101000a81548163ffffffff021916908363ffffffff160217905550505050565b60008060008084600060026001806000856000191660001916815260200190815260200160002060009054906101000a900461ffff160361ffff1681548110151561262357fe5b90600052602060002090600a020190506001600881111561264057fe5b60ff168160090160019054906101000a900460ff1660ff16148061268657506003600881111561266c57fe5b60ff168160090160019054906101000a900460ff1660ff16145b806126b357506005600881111561269957fe5b60ff168160090160019054906101000a900460ff1660ff16145b15156126be57600080fd5b600260018060008a6000191660001916815260200190815260200160002060009054906101000a900461ffff160361ffff168154811015156126fc57fe5b90600052602060002090600a02019350600092505b83600701805490508310156127cb57610708846007018481548110151561273457fe5b90600052602060002090600891828204019190066004029054906101000a900463ffffffff164260ff160363ffffffff1611156127be57836005018381548110151561277c57fe5b9060005260206000200160009054906101000a900473ffffffffffffffffffffffffffffffffffffffff1695508360090160019054906101000a900460ff1694505b8280600101935050612711565b50505050915091565b82805482825590600052602060002090810192821561284d579160200282015b8281111561284c5782518260006101000a81548173ffffffffffffffffffffffffffffffffffffffff021916908373ffffffffffffffffffffffffffffffffffffffff160217905550916020019190600101906127f4565b5b50905061285a9190612a94565b5090565b8280548282559060005260206000209081019282156128ad579160200282015b828111156128ac57825182908051906020019061289c929190612ad7565b509160200191906001019061287e565b5b5090506128ba9190612b57565b5090565b8280548282559060005260206000209060070160089004810192821561295d5791602002820160005b8382111561292b57835183826101000a81548163ffffffff021916908363ffffffff16021790555092602001926004016020816003010492830192600103026128e7565b801561295b5782816101000a81549063ffffffff021916905560040160208160030104928301926001030261292b565b505b50905061296a9190612b83565b5090565b82805482825590600052602060002090601f01602090048101928215612a035791602002820160005b838211156129d457835183826101000a81548160ff0219169083151502179055509260200192600101602081600001049283019260010302612997565b8015612a015782816101000a81549060ff02191690556001016020816000010492830192600103026129d4565b505b509050612a109190612bb6565b5090565b828054600181600116156101000203166002900490600052602060002090601f016020900481019282601f10612a5557803560ff1916838001178555612a83565b82800160010185558215612a83579182015b82811115612a82578235825591602001919060010190612a67565b5b509050612a909190612be6565b5090565b612ad491905b80821115612ad057600081816101000a81549073ffffffffffffffffffffffffffffffffffffffff021916905550600101612a9a565b5090565b90565b828054600181600116156101000203166002900490600052602060002090601f016020900481019282601f10612b1857805160ff1916838001178555612b46565b82800160010185558215612b46579182015b82811115612b45578251825591602001919060010190612b2a565b5b509050612b539190612be6565b5090565b612b8091905b80821115612b7c5760008181612b739190612c0b565b50600101612b5d565b5090565b90565b612bb391905b80821115612baf57600081816101000a81549063ffffffff021916905550600101612b89565b5090565b90565b612be391905b80821115612bdf57600081816101000a81549060ff021916905550600101612bbc565b5090565b90565b612c0891905b80821115612c04576000816000905550600101612bec565b5090565b90565b50805460018160011615610100020316600290046000825580601f10612c315750612c50565b601f016020900490600052602060002090810190612c4f9190612be6565b5b505600a165627a7a72305820a1973855df78999316503b2bbcf66e7208bcff5fc054f1fb60b0df74551977930029",
  "source": "pragma solidity ^0.4.24;\r\n\r\nimport \"./ICognitiveJobController.sol\";\r\n\r\n\r\n// Contract implement main cognitive job functionality\r\ncontract CognitiveJobController is ICognitiveJobController{\r\n\r\n    /*******************************************************************************************************************\r\n     * ## Storage\r\n     */\r\n\r\n    enum WorkerResponses {\r\n        Assignment,\r\n        DataValidation,\r\n        Result\r\n    }\r\n\r\n    enum States {\r\n        Uninitialized,\r\n        GatheringWorkers,\r\n        InsufficientWorkers,\r\n        DataValidation,\r\n        InvalidData,\r\n        Cognition,\r\n        PartialResult,\r\n        Completed,\r\n        Destroyed\r\n    }\r\n\r\n    struct CognitiveJob {\r\n        bytes32 id;\r\n        address kernel;\r\n        address dataset;\r\n        uint256 complexity; //todo find better name\r\n        bytes32 description;\r\n        address[] activeWorkers;\r\n        bytes[] ipfsResults;\r\n        uint32[] responseTimestamps; // time of each worker response\r\n        bool[] responseFlags;\r\n        uint8 progress;\r\n        uint8 state;\r\n    }\r\n\r\n    /// @dev Indexes (+1) of active (=running) cognitive jobs in `activeJobs` mapped from their creators\r\n    /// (owners of the corresponding cognitive job contracts). Zero values corresponds to no active job,\r\n    /// one  to the one with index 0 and so forth.\r\n    mapping(bytes32 => uint16) public activeJobsIndexes;\r\n\r\n    /// @dev List of all active cognitive jobs\r\n    CognitiveJob[] activeJobs;\r\n\r\n    mapping(bytes32 => uint16) public completedJobsIndexes;\r\n\r\n    /// @dev List of all completed cognitive jobs\r\n    CognitiveJob[] public completedJobs;\r\n\r\n    ///Table of all possible state transitions\r\n    mapping(uint8 => uint8[]) public transitionTable;\r\n\r\n    //        uint8 WORKER_TIMEOUT = 30 minutes;\r\n\r\n    constructor() public {\r\n        //state machine initialization should be performed only once with filling transitionTable\r\n        _initStateMachine();\r\n    }\r\n\r\n    /******************************************************************************************************************\r\n    Public functions\r\n    */\r\n\r\n    /// @dev Returns total count of active jobs\r\n    function activeJobsCount() view public returns (uint256) {\r\n        return activeJobs.length;\r\n    }\r\n\r\n    /// @dev Returns total count of active jobs\r\n    function completedJobsCount() view public returns (uint256) {\r\n        return completedJobs.length;\r\n    }\r\n\r\n    function getJobId(uint16 _index, bool _isActive)\r\n    view\r\n    public\r\n    returns(bytes32){\r\n        CognitiveJob storage job = _isActive ?\r\n            activeJobs[_index]\r\n            : completedJobs[_index];\r\n        return job.id;\r\n    }\r\n\r\n    function getCognitiveJobDetails(bytes32 _jobId)\r\n    external\r\n    view\r\n    returns (\r\n        address kernel,\r\n        address dataset,\r\n        uint256 complexity,\r\n        bytes32 description,\r\n        address[] activeWorkers,\r\n        uint8 progress,\r\n        uint8 state\r\n    ) {\r\n        CognitiveJob storage job = isActiveJob(_jobId) ?\r\n            activeJobs[activeJobsIndexes[_jobId] - 1]\r\n            : completedJobs[completedJobsIndexes[_jobId] - 1];\r\n        kernel = job.kernel;\r\n        dataset = job.dataset;\r\n        complexity = job.complexity;\r\n        description = job.description;\r\n        activeWorkers = job.activeWorkers;\r\n        progress = job.progress;\r\n        state = job.state;\r\n    }\r\n\r\n    function getCognitiveJobResults(\r\n        bytes32 _jobId,\r\n        uint8 _index //index of worker, whose results should be returned\r\n    )\r\n    public\r\n    view\r\n    returns(\r\n        bytes ipfsResults\r\n    ) {\r\n        CognitiveJob storage job = isActiveJob(_jobId) ?\r\n            activeJobs[activeJobsIndexes[_jobId] - 1]\r\n            : completedJobs[completedJobsIndexes[_jobId] - 1];\r\n        ipfsResults = job.ipfsResults[_index];\r\n    }\r\n\r\n    function getCognitiveJobServiceInfo(\r\n        bytes32 _jobId\r\n    )\r\n    public\r\n    view\r\n    returns(\r\n        uint32[] responseTimestamps,\r\n        bool[] responseFlags\r\n    ) {\r\n        CognitiveJob storage job = isActiveJob(_jobId) ?\r\n            activeJobs[activeJobsIndexes[_jobId] - 1]\r\n            : completedJobs[completedJobsIndexes[_jobId] - 1];\r\n        responseTimestamps = job.responseTimestamps;\r\n        responseFlags = job.responseFlags;\r\n    }\r\n\r\n    /******************************************************************************************************************\r\n    External functions (Only Pandora by interface)\r\n    */\r\n    function createCognitiveJob (\r\n        address _kernel,\r\n        address _dataset,\r\n        address[] _assignedWorkers,\r\n        uint256 _complexity,\r\n        bytes32 _description\r\n    )\r\n    onlyOwner()\r\n    external\r\n    returns(\r\n        bytes32 id\r\n    ){\r\n        // The created job must fit into uint16 size\r\n        require(activeJobs.length < uint16(-1));\r\n\r\n        id = keccak256(activeJobs.length + block.number);\r\n        activeJobs.push(CognitiveJob({\r\n            id: id,\r\n            kernel: _kernel,\r\n            dataset: _dataset,\r\n            complexity: _complexity,\r\n            description: _description,\r\n            activeWorkers: _assignedWorkers,\r\n            ipfsResults: new bytes[](_assignedWorkers.length),\r\n            responseTimestamps: new uint32[](_assignedWorkers.length),\r\n            responseFlags: new bool[](_assignedWorkers.length),\r\n            progress: 0,\r\n            state: uint8(States.Uninitialized)\r\n            })\r\n        );\r\n        // Add to addresses map\r\n        activeJobsIndexes[id] = uint16(activeJobs.length);\r\n\r\n        CognitiveJob storage job = activeJobs[activeJobsIndexes[id] - 1];\r\n        // Init timestamps\r\n        for (uint256 i = 0; i < job.responseTimestamps.length; i++) {\r\n            job.responseTimestamps[i] = uint32(block.timestamp);\r\n        }\r\n        _transitionToState( id, uint8(States.GatheringWorkers));\r\n        emit WorkersUpdated(id);\r\n    }\r\n\r\n    function respondToJob(\r\n        bytes32 _jobId,\r\n        address _workerId,\r\n        uint8 _responseType,\r\n        bool _response)\r\n    requireActiveStates( _jobId)\r\n    onlyOwner()\r\n    external\r\n    returns (bool result)\r\n    {\r\n        return _onWorkerResponse(_jobId, _workerId, _responseType, _response);\r\n    }\r\n\r\n    //should be called for responseTimestamp refresh after actual progress change in workerNode\r\n    //todo implement requirement of new progress > current progress in workerController in new v.\r\n    function commitProgress(\r\n        bytes32 _jobId,\r\n        address _workerId,\r\n        uint8 _percent)\r\n    requireState( _jobId, uint8(States.Cognition))\r\n    onlyOwner()\r\n    external {\r\n        //todo check active worker with workerController\r\n        uint256 workerIndex = _getWorkerIndex( _jobId, _workerId);\r\n        require(workerIndex != uint256(-1)); //worker is computing current job\r\n        activeJobs[activeJobsIndexes[_jobId] - 1].responseTimestamps[workerIndex] = uint32(block.timestamp);\r\n        emit CognitionProgressed(_jobId, _percent);\r\n    }\r\n\r\n    /// @notice should be called with provided results\r\n    function completeWork(\r\n        bytes32 _jobId,\r\n        address _workerId,\r\n        bytes _ipfsResults)\r\n    requireState( _jobId, uint8(States.Cognition))\r\n    onlyOwner()\r\n    external\r\n    returns (\r\n        bool result // true - if all workers have submitted result\r\n    ){\r\n        uint256 workerIndex = _getWorkerIndex( _jobId, _workerId);\r\n        require(workerIndex != uint256(-1)); //worker is computing current job\r\n\r\n        activeJobs[activeJobsIndexes[_jobId] - 1].ipfsResults[workerIndex] = _ipfsResults;\r\n        result = _onWorkerResponse( _jobId, _workerId, uint8(WorkerResponses.Result), true);\r\n    }\r\n\r\n    //    function reportOfflineWorker(IWorkerNode reported) payable external requireActiveStates;\r\n    //todo should be implemented in workerController in upcoming version\r\n\r\n    /******************************************************************************************************************\r\n    Private functions\r\n    */\r\n\r\n    /// @dev Could be called from manager with two types of response - Assignment and DataValidation\r\n    function _onWorkerResponse(\r\n        bytes32 _jobId,\r\n        address _workerId,\r\n        uint8 _responseType,\r\n        bool _response)\r\n    private\r\n    returns (bool result)\r\n    {\r\n        _checkResponse( _jobId, _workerId, _response);\r\n        // Transition to next state when all workers have responded\r\n        if (_isAllWorkersResponded( _jobId)) {\r\n            result = true;\r\n            if (_responseType == uint8(WorkerResponses.Assignment)) {\r\n                _transitionToState( _jobId, uint8(States.DataValidation));\r\n                //todo implement process decline, with validation in new v.\r\n                _resetAllResponses( _jobId);\r\n            } else if (_responseType == uint8(WorkerResponses.DataValidation)) {\r\n                _transitionToState( _jobId, uint8(States.Cognition));\r\n                //todo implement process decline, with validation in new v.\r\n                _resetAllResponses( _jobId);\r\n            } else if (_responseType == uint8(WorkerResponses.Result)) {\r\n//                _transitionToState( _jobId, uint8(States.Completed));\r\n//                _onJobComplete(_jobId); // move active job to completed ones\r\n            } else {\r\n                result = false; //not all workers responded\r\n            }\r\n        }\r\n    }\r\n\r\n    ///@dev Checks is worker actually computing current job, then updates response's flag and timestamp\r\n    function _checkResponse(\r\n        bytes32 _jobId,\r\n        address _workerId,\r\n        bool _response)\r\n    private {\r\n        uint256 workerIndex = _getWorkerIndex( _jobId, _workerId);\r\n        require(workerIndex != uint256(-1)); //worker is computing current job\r\n\r\n        //todo implement penalties\r\n        _updateResponse( _jobId, workerIndex, _response);\r\n        _trackOfflineWorkers( _jobId);\r\n    }\r\n\r\n    function _getWorkerIndex(\r\n        bytes32 _jobId,\r\n        address _workerId)\r\n    private\r\n    view\r\n    returns (\r\n        uint256\r\n    ) {\r\n        CognitiveJob storage job = activeJobs[activeJobsIndexes[_jobId] - 1];\r\n        for (uint256 i = 0; i < job.activeWorkers.length; i++) {\r\n            if (job.activeWorkers[i] == _workerId) {\r\n                return i;\r\n            }\r\n        }\r\n        return uint256(-1);\r\n    }\r\n\r\n    function _isAllWorkersResponded(\r\n        bytes32 _jobId)\r\n    private\r\n    view\r\n    returns (\r\n        bool responded\r\n    ) {\r\n        responded = true;\r\n        CognitiveJob storage job = activeJobs[activeJobsIndexes[_jobId] - 1];\r\n        for (uint256 i = 0; i < job.responseFlags.length; i++) {\r\n            if (job.responseFlags[i] != true) {\r\n                responded = false;\r\n            }\r\n        }\r\n    }\r\n\r\n    function _updateResponse(\r\n        bytes32 _jobId,\r\n        uint256 _workerIndex,\r\n        bool _response)\r\n    private {\r\n        activeJobs[activeJobsIndexes[_jobId] - 1].responseFlags[_workerIndex] = _response;\r\n        activeJobs[activeJobsIndexes[_jobId] - 1].responseTimestamps[_workerIndex] = uint32(block.timestamp);\r\n    }\r\n\r\n    ///@dev Reset all response flags and update all timestamps\r\n    function _resetAllResponses(\r\n        bytes32 _jobId)\r\n    private {\r\n        CognitiveJob storage job = activeJobs[activeJobsIndexes[_jobId] - 1];\r\n        for (uint256 i = 0; i < job.responseFlags.length; i++) {\r\n            job.responseFlags[i] = false;\r\n            job.responseTimestamps[i] = uint32(block.timestamp);\r\n        }\r\n    }\r\n\r\n    //todo provide listener and handle guilty worker and job state in manager, so it could penaltize worker\r\n    function _trackOfflineWorkers(\r\n        bytes32 _jobId)\r\n    requireActiveStates( _jobId)\r\n    internal\r\n    returns (\r\n        address guiltyWorker,\r\n        uint8 jobState\r\n    ){\r\n        CognitiveJob storage job = activeJobs[activeJobsIndexes[_jobId] - 1];\r\n        for (uint256 i = 0; i < job.responseTimestamps.length; i++) {\r\n            if (uint8(block.timestamp) - job.responseTimestamps[i] > 30 minutes) {\r\n                guiltyWorker = job.activeWorkers[i];\r\n                jobState = job.state;\r\n            }\r\n        }\r\n    }\r\n\r\n    /******************************************************************************************************************\r\n    State machine implementation\r\n    */\r\n\r\n    modifier requireActiveStates(\r\n        bytes32 _jobId)\r\n    {\r\n        CognitiveJob storage job = activeJobs[activeJobsIndexes[_jobId] - 1];\r\n        require(\r\n            job.state == uint8(States.GatheringWorkers) ||\r\n            job.state == uint8(States.DataValidation) ||\r\n            job.state == uint8(States.Cognition)\r\n        );\r\n        _;\r\n    }\r\n\r\n    modifier requireState(\r\n        bytes32 _jobId,\r\n        uint8 requiredState\r\n    ) {\r\n        require(activeJobs[activeJobsIndexes[_jobId] - 1].state == requiredState);\r\n        _;\r\n    }\r\n\r\n    modifier requireAllowedTransition(\r\n        bytes32 _jobId,\r\n        uint8 _newState\r\n    ) {\r\n        // Checking if the state transition is allowed\r\n        bool transitionAllowed = false;\r\n        uint8[] storage allowedStates =\r\n            transitionTable[uint8(activeJobs[activeJobsIndexes[_jobId] - 1].state)];\r\n        for (uint no = 0; no < allowedStates.length; no++) {\r\n            if (allowedStates[no] == _newState) {\r\n                transitionAllowed = true;\r\n            }\r\n        }\r\n        require(transitionAllowed == true);\r\n        _;\r\n    }\r\n\r\n    function _transitionToState(\r\n        bytes32 _jobId,\r\n        uint8 _newState)\r\n    requireAllowedTransition( _jobId, _newState)\r\n    private\r\n    {\r\n        CognitiveJob storage job = activeJobs[activeJobsIndexes[_jobId] - 1];\r\n        uint8 oldState = job.state;\r\n        job.state = _newState;\r\n        emit JobStateChanged(_jobId, oldState, job.state);\r\n        _fireStateEvent(_jobId);\r\n    }\r\n\r\n    //Fill table of possible state transitions\r\n    function _initStateMachine()\r\n    private {\r\n        mapping(uint8 => uint8[]) transitions = transitionTable;\r\n        transitions[uint8(States.Uninitialized)] =\r\n            [uint8(States.GatheringWorkers)];\r\n        transitions[uint8(States.GatheringWorkers)] =\r\n            [uint8(States.InsufficientWorkers), uint8(States.DataValidation)];\r\n        transitions[uint8(States.DataValidation)] =\r\n            [uint8(States.InvalidData), uint8(States.Cognition), uint8(States.InsufficientWorkers)];\r\n        transitions[uint8(States.Cognition)] =\r\n            [uint8(States.Completed), uint8(States.PartialResult)];\r\n    }\r\n\r\n    function _fireStateEvent(\r\n        bytes32 _jobId)\r\n    private {\r\n        uint8 state = activeJobs[activeJobsIndexes[_jobId] - 1].state;\r\n        if (state == uint8(States.InsufficientWorkers)) {\r\n            emit WorkersNotFound(_jobId);\r\n            //_onJobComplete(_jobId); //todo refactor with queue\r\n        } else if (state == uint8(States.DataValidation)) {\r\n            emit DataValidationStarted(_jobId);\r\n        } else if (state == uint8(States.InvalidData)) {\r\n            emit DataValidationFailed(_jobId);\r\n            //_cleanStorage(); //todo refactor\r\n        } else if (state == uint8(States.Cognition)) {\r\n            emit CognitionStarted(_jobId);\r\n        } else if (state == uint8(States.PartialResult)) {\r\n            emit CognitionCompleted(_jobId, true);\r\n//            pandora.finishCognitiveJob();\r\n        } else if (state == uint8(States.Completed)) {\r\n            emit CognitionCompleted(_jobId, false);\r\n//            pandora.finishCognitiveJob();\r\n              _onJobComplete(_jobId);\r\n        }\r\n    }\r\n\r\n    function _onJobComplete(\r\n        bytes32 _jobId)\r\n    private\r\n    {\r\n//        CognitiveJob memory currentJob = activeJobs[activeJobsIndexes[_jobId]];\r\n//\r\n//        //Add current job to completed jobs array and mapping\r\n//        completedJobs.push(currentJob);\r\n//        completedJobsIndexes[_jobId] = uint8(completedJobs.length);\r\n//\r\n//        if (activeJobsIndexes[_jobId] != activeJobs.length) {\r\n//            //Get last job in active array\r\n//            CognitiveJob memory movedJob = activeJobs[activeJobs.length - 1];\r\n//            //Rewrite current job with last one\r\n//            activeJobs[activeJobsIndexes[_jobId]] = movedJob;\r\n//        }\r\n//        //Remove last job from active jobs array and mapping\r\n//        delete activeJobs[activeJobsIndexes[_jobId]]; //todo check storage erasing in test\r\n//        activeJobsIndexes[_jobId] = 0;\r\n//        activeJobs.length--;\r\n    }\r\n\r\n    /// @dev Checks that job with given id is active or not (tx will fail if job is not existed)\r\n    function isActiveJob(\r\n        bytes32 _jobId\r\n    )\r\n    view\r\n    private\r\n    returns (\r\n        bool\r\n    ) {\r\n        if (activeJobsIndexes[_jobId] != 0) {\r\n            return true;\r\n        } else {\r\n            require(completedJobsIndexes[_jobId] != 0);\r\n            return false;\r\n        }\r\n    }\r\n}\r\n",
  "sourcePath": "G:\\PROJECTS\\Pandora\\pyrrha-consensus\\contracts\\pandora\\managers\\CognitiveJobController.sol",
  "compiler": {
    "name": "solc",
    "version": "0.4.24+commit.e67f0147.Emscripten.clang"
  },
  "schemaVersion": "2.0.1",
  "updatedAt": "2018-07-25T20:19:20.642Z"
}