{
  "contractName": "CognitiveJobController",
  "abi": [
    {
      "constant": true,
      "inputs": [
        {
          "name": "",
          "type": "uint256"
        }
      ],
      "name": "completedJobs",
      "outputs": [
        {
          "name": "id",
          "type": "bytes32"
        },
        {
          "name": "owner",
          "type": "address"
        },
        {
          "name": "kernel",
          "type": "address"
        },
        {
          "name": "dataset",
          "type": "address"
        },
        {
          "name": "complexity",
          "type": "uint256"
        },
        {
          "name": "description",
          "type": "bytes32"
        },
        {
          "name": "progress",
          "type": "uint8"
        },
        {
          "name": "state",
          "type": "uint8"
        }
      ],
      "payable": false,
      "stateMutability": "view",
      "type": "function"
    },
    {
      "constant": true,
      "inputs": [
        {
          "name": "",
          "type": "uint256"
        }
      ],
      "name": "activeJobs",
      "outputs": [
        {
          "name": "id",
          "type": "bytes32"
        },
        {
          "name": "owner",
          "type": "address"
        },
        {
          "name": "kernel",
          "type": "address"
        },
        {
          "name": "dataset",
          "type": "address"
        },
        {
          "name": "complexity",
          "type": "uint256"
        },
        {
          "name": "description",
          "type": "bytes32"
        },
        {
          "name": "progress",
          "type": "uint8"
        },
        {
          "name": "state",
          "type": "uint8"
        }
      ],
      "payable": false,
      "stateMutability": "view",
      "type": "function"
    },
    {
      "constant": true,
      "inputs": [
        {
          "name": "",
          "type": "bytes32"
        }
      ],
      "name": "completedJobsIndexes",
      "outputs": [
        {
          "name": "",
          "type": "uint16"
        }
      ],
      "payable": false,
      "stateMutability": "view",
      "type": "function"
    },
    {
      "constant": true,
      "inputs": [],
      "name": "economicController",
      "outputs": [
        {
          "name": "",
          "type": "address"
        }
      ],
      "payable": false,
      "stateMutability": "view",
      "type": "function"
    },
    {
      "constant": true,
      "inputs": [
        {
          "name": "",
          "type": "bytes32"
        }
      ],
      "name": "activeJobsIndexes",
      "outputs": [
        {
          "name": "",
          "type": "uint16"
        }
      ],
      "payable": false,
      "stateMutability": "view",
      "type": "function"
    },
    {
      "constant": false,
      "inputs": [],
      "name": "renounceOwnership",
      "outputs": [],
      "payable": false,
      "stateMutability": "nonpayable",
      "type": "function"
    },
    {
      "constant": true,
      "inputs": [],
      "name": "owner",
      "outputs": [
        {
          "name": "",
          "type": "address"
        }
      ],
      "payable": false,
      "stateMutability": "view",
      "type": "function"
    },
    {
      "constant": true,
      "inputs": [],
      "name": "isOwner",
      "outputs": [
        {
          "name": "",
          "type": "bool"
        }
      ],
      "payable": false,
      "stateMutability": "view",
      "type": "function"
    },
    {
      "constant": true,
      "inputs": [
        {
          "name": "",
          "type": "uint8"
        },
        {
          "name": "",
          "type": "uint256"
        }
      ],
      "name": "transitionTable",
      "outputs": [
        {
          "name": "",
          "type": "uint8"
        }
      ],
      "payable": false,
      "stateMutability": "view",
      "type": "function"
    },
    {
      "constant": false,
      "inputs": [
        {
          "name": "newOwner",
          "type": "address"
        }
      ],
      "name": "transferOwnership",
      "outputs": [],
      "payable": false,
      "stateMutability": "nonpayable",
      "type": "function"
    },
    {
      "inputs": [
        {
          "name": "_economicController",
          "type": "address"
        }
      ],
      "payable": false,
      "stateMutability": "nonpayable",
      "type": "constructor"
    },
    {
      "anonymous": false,
      "inputs": [
        {
          "indexed": true,
          "name": "jobId",
          "type": "bytes32"
        },
        {
          "indexed": false,
          "name": "oldState",
          "type": "uint8"
        },
        {
          "indexed": false,
          "name": "newState",
          "type": "uint8"
        }
      ],
      "name": "JobStateChanged",
      "type": "event"
    },
    {
      "anonymous": false,
      "inputs": [
        {
          "indexed": true,
          "name": "jobId",
          "type": "bytes32"
        }
      ],
      "name": "WorkersUpdated",
      "type": "event"
    },
    {
      "anonymous": false,
      "inputs": [
        {
          "indexed": true,
          "name": "jobId",
          "type": "bytes32"
        }
      ],
      "name": "WorkersNotFound",
      "type": "event"
    },
    {
      "anonymous": false,
      "inputs": [
        {
          "indexed": true,
          "name": "jobId",
          "type": "bytes32"
        }
      ],
      "name": "DataValidationStarted",
      "type": "event"
    },
    {
      "anonymous": false,
      "inputs": [
        {
          "indexed": true,
          "name": "jobId",
          "type": "bytes32"
        }
      ],
      "name": "DataValidationFailed",
      "type": "event"
    },
    {
      "anonymous": false,
      "inputs": [
        {
          "indexed": true,
          "name": "jobId",
          "type": "bytes32"
        }
      ],
      "name": "CognitionStarted",
      "type": "event"
    },
    {
      "anonymous": false,
      "inputs": [
        {
          "indexed": true,
          "name": "jobId",
          "type": "bytes32"
        },
        {
          "indexed": false,
          "name": "precent",
          "type": "uint8"
        }
      ],
      "name": "CognitionProgressed",
      "type": "event"
    },
    {
      "anonymous": false,
      "inputs": [
        {
          "indexed": true,
          "name": "jobId",
          "type": "bytes32"
        },
        {
          "indexed": false,
          "name": "partialResult",
          "type": "bool"
        }
      ],
      "name": "CognitionCompleted",
      "type": "event"
    },
    {
      "anonymous": false,
      "inputs": [
        {
          "indexed": true,
          "name": "previousOwner",
          "type": "address"
        },
        {
          "indexed": true,
          "name": "newOwner",
          "type": "address"
        }
      ],
      "name": "OwnershipTransferred",
      "type": "event"
    },
    {
      "constant": true,
      "inputs": [],
      "name": "activeJobsCount",
      "outputs": [
        {
          "name": "",
          "type": "uint256"
        }
      ],
      "payable": false,
      "stateMutability": "view",
      "type": "function"
    },
    {
      "constant": true,
      "inputs": [],
      "name": "completedJobsCount",
      "outputs": [
        {
          "name": "",
          "type": "uint256"
        }
      ],
      "payable": false,
      "stateMutability": "view",
      "type": "function"
    },
    {
      "constant": true,
      "inputs": [
        {
          "name": "_index",
          "type": "uint16"
        },
        {
          "name": "_isActive",
          "type": "bool"
        }
      ],
      "name": "getJobId",
      "outputs": [
        {
          "name": "",
          "type": "bytes32"
        }
      ],
      "payable": false,
      "stateMutability": "view",
      "type": "function"
    },
    {
      "constant": true,
      "inputs": [
        {
          "name": "_jobId",
          "type": "bytes32"
        }
      ],
      "name": "getCognitiveJobDetails",
      "outputs": [
        {
          "name": "owner",
          "type": "address"
        },
        {
          "name": "kernel",
          "type": "address"
        },
        {
          "name": "dataset",
          "type": "address"
        },
        {
          "name": "complexity",
          "type": "uint256"
        },
        {
          "name": "description",
          "type": "bytes32"
        },
        {
          "name": "activeWorkers",
          "type": "address[]"
        },
        {
          "name": "progress",
          "type": "uint8"
        },
        {
          "name": "state",
          "type": "uint8"
        }
      ],
      "payable": false,
      "stateMutability": "view",
      "type": "function"
    },
    {
      "constant": true,
      "inputs": [
        {
          "name": "_jobId",
          "type": "bytes32"
        },
        {
          "name": "_index",
          "type": "uint8"
        }
      ],
      "name": "getCognitiveJobResults",
      "outputs": [
        {
          "name": "ipfsResults",
          "type": "bytes"
        }
      ],
      "payable": false,
      "stateMutability": "view",
      "type": "function"
    },
    {
      "constant": true,
      "inputs": [
        {
          "name": "_jobId",
          "type": "bytes32"
        }
      ],
      "name": "getCognitiveJobServiceInfo",
      "outputs": [
        {
          "name": "responseTimestamps",
          "type": "uint32[]"
        },
        {
          "name": "responseFlags",
          "type": "bool[]"
        }
      ],
      "payable": false,
      "stateMutability": "view",
      "type": "function"
    },
    {
      "constant": false,
      "inputs": [
        {
          "name": "_id",
          "type": "bytes32"
        },
        {
          "name": "_owner",
          "type": "address"
        },
        {
          "name": "_kernel",
          "type": "address"
        },
        {
          "name": "_dataset",
          "type": "address"
        },
        {
          "name": "_assignedWorkers",
          "type": "address[]"
        },
        {
          "name": "_complexity",
          "type": "uint256"
        },
        {
          "name": "_description",
          "type": "bytes32"
        }
      ],
      "name": "createCognitiveJob",
      "outputs": [],
      "payable": false,
      "stateMutability": "nonpayable",
      "type": "function"
    },
    {
      "constant": false,
      "inputs": [
        {
          "name": "_jobId",
          "type": "bytes32"
        },
        {
          "name": "_workerId",
          "type": "address"
        },
        {
          "name": "_responseType",
          "type": "uint8"
        },
        {
          "name": "_response",
          "type": "bool"
        }
      ],
      "name": "respondToJob",
      "outputs": [
        {
          "name": "result",
          "type": "bool"
        }
      ],
      "payable": false,
      "stateMutability": "nonpayable",
      "type": "function"
    },
    {
      "constant": false,
      "inputs": [
        {
          "name": "_jobId",
          "type": "bytes32"
        },
        {
          "name": "_workerId",
          "type": "address"
        },
        {
          "name": "_percent",
          "type": "uint8"
        }
      ],
      "name": "commitProgress",
      "outputs": [],
      "payable": false,
      "stateMutability": "nonpayable",
      "type": "function"
    },
    {
      "constant": false,
      "inputs": [
        {
          "name": "_jobId",
          "type": "bytes32"
        },
        {
          "name": "_workerId",
          "type": "address"
        },
        {
          "name": "_ipfsResults",
          "type": "bytes"
        }
      ],
      "name": "completeWork",
      "outputs": [
        {
          "name": "result",
          "type": "bool"
        }
      ],
      "payable": false,
      "stateMutability": "nonpayable",
      "type": "function"
    }
  ],
  "bytecode": "0x60806040523480156200001157600080fd5b506040516020806200439183398101806040528101908080519060200190929190505050336000806101000a81548173ffffffffffffffffffffffffffffffffffffffff021916908373ffffffffffffffffffffffffffffffffffffffff1602179055506000809054906101000a900473ffffffffffffffffffffffffffffffffffffffff1673ffffffffffffffffffffffffffffffffffffffff16600073ffffffffffffffffffffffffffffffffffffffff167f8be0079c531659141344cd1fd0a4f28419497f9722a3daafe3b4186f6b6457e060405160405180910390a380600660006101000a81548173ffffffffffffffffffffffffffffffffffffffff021916908373ffffffffffffffffffffffffffffffffffffffff1602179055506200014b62000152640100000000026401000000009004565b506200055d565b600060059050602060405190810160405280600160088111156200017257fe5b60ff1660ff168152508160008060088111156200018b57fe5b60ff1660ff168152602001908152602001600020906001620001af92919062000320565b50604080519081016040528060026008811115620001c957fe5b60ff1660ff16815260200160036008811115620001e257fe5b60ff1660ff1681525081600060016008811115620001fc57fe5b60ff1660ff16815260200190815260200160002090600262000220929190620003ce565b50606060405190810160405280600460088111156200023b57fe5b60ff1660ff168152602001600560088111156200025457fe5b60ff1660ff168152602001600260088111156200026d57fe5b60ff1660ff16815250816000600360088111156200028757fe5b60ff1660ff168152602001908152602001600020906003620002ab9291906200047c565b50604080519081016040528060076008811115620002c557fe5b60ff1660ff16815260200160066008811115620002de57fe5b60ff1660ff1681525081600060056008811115620002f857fe5b60ff1660ff1681526020019081526020016000209060026200031c929190620003ce565b5050565b82805482825590600052602060002090601f01602090048101928215620003bb5791602002820160005b838211156200038a57835183826101000a81548160ff021916908360ff16021790555092602001926001016020816000010492830192600103026200034a565b8015620003b95782816101000a81549060ff02191690556001016020816000010492830192600103026200038a565b505b509050620003ca91906200052a565b5090565b82805482825590600052602060002090601f01602090048101928215620004695791602002820160005b838211156200043857835183826101000a81548160ff021916908360ff1602179055509260200192600101602081600001049283019260010302620003f8565b8015620004675782816101000a81549060ff021916905560010160208160000104928301926001030262000438565b505b5090506200047891906200052a565b5090565b82805482825590600052602060002090601f01602090048101928215620005175791602002820160005b83821115620004e657835183826101000a81548160ff021916908360ff1602179055509260200192600101602081600001049283019260010302620004a6565b8015620005155782816101000a81549060ff0219169055600101602081600001049283019260010302620004e6565b505b5090506200052691906200052a565b5090565b6200055a91905b808211156200055657600081816101000a81549060ff02191690555060010162000531565b5090565b90565b613e24806200056d6000396000f300608060405260043610610112576000357c0100000000000000000000000000000000000000000000000000000000900463ffffffff1680630a224a53146101175780631f9ca61d146101d857806321b0908b146102ea5780632b4acd86146103fc57806339d9de64146104b35780633b183eb5146106025780634a1f8abc146106835780634de7485d146106d05780634e5613c3146107275780635c2b37fa146107a9578063672d98d6146107d4578063715018a614610821578063752f4a9c146108385780638da5cb5b146108915780638f32d59b146108e8578063ba0a9ef514610917578063c9b7b25b146109e5578063ead4d67914610a43578063f21ee5c614610a6e578063f2fde38b14610ac2575b600080fd5b34801561012357600080fd5b506101d66004803603810190808035600019169060200190929190803573ffffffffffffffffffffffffffffffffffffffff169060200190929190803573ffffffffffffffffffffffffffffffffffffffff169060200190929190803573ffffffffffffffffffffffffffffffffffffffff169060200190929190803590602001908201803590602001919091929391929390803590602001909291908035600019169060200190929190505050610b05565b005b3480156101e457600080fd5b5061020360048036038101908080359060200190929190505050610ff7565b6040518089600019166000191681526020018873ffffffffffffffffffffffffffffffffffffffff1673ffffffffffffffffffffffffffffffffffffffff1681526020018773ffffffffffffffffffffffffffffffffffffffff1673ffffffffffffffffffffffffffffffffffffffff1681526020018673ffffffffffffffffffffffffffffffffffffffff1673ffffffffffffffffffffffffffffffffffffffff16815260200185815260200184600019166000191681526020018360ff1660ff1681526020018260ff1660ff1681526020019850505050505050505060405180910390f35b3480156102f657600080fd5b50610315600480360381019080803590602001909291905050506110c8565b6040518089600019166000191681526020018873ffffffffffffffffffffffffffffffffffffffff1673ffffffffffffffffffffffffffffffffffffffff1681526020018773ffffffffffffffffffffffffffffffffffffffff1673ffffffffffffffffffffffffffffffffffffffff1681526020018673ffffffffffffffffffffffffffffffffffffffff1673ffffffffffffffffffffffffffffffffffffffff16815260200185815260200184600019166000191681526020018360ff1660ff1681526020018260ff1660ff1681526020019850505050505050505060405180910390f35b34801561040857600080fd5b506104386004803603810190808035600019169060200190929190803560ff169060200190929190505050611199565b6040518080602001828103825283818151815260200191508051906020019080838360005b8381101561047857808201518184015260208101905061045d565b50505050905090810190601f1680156104a55780820380516001836020036101000a031916815260200191505b509250505060405180910390f35b3480156104bf57600080fd5b506104e2600480360381019080803560001916906020019092919050505061130b565b604051808973ffffffffffffffffffffffffffffffffffffffff1673ffffffffffffffffffffffffffffffffffffffff1681526020018873ffffffffffffffffffffffffffffffffffffffff1673ffffffffffffffffffffffffffffffffffffffff1681526020018773ffffffffffffffffffffffffffffffffffffffff1673ffffffffffffffffffffffffffffffffffffffff1681526020018681526020018560001916600019168152602001806020018460ff1660ff1681526020018360ff1660ff168152602001828103825285818151815260200191508051906020019060200280838360005b838110156105e75780820151818401526020810190506105cc565b50505050905001995050505050505050505060405180910390f35b34801561060e57600080fd5b506106696004803603810190808035600019169060200190929190803573ffffffffffffffffffffffffffffffffffffffff16906020019092919080359060200190820180359060200191909192939192939050505061150a565b604051808215151515815260200191505060405180910390f35b34801561068f57600080fd5b506106b26004803603810190808035600019169060200190929190505050611674565b604051808261ffff1661ffff16815260200191505060405180910390f35b3480156106dc57600080fd5b506106e5611695565b604051808273ffffffffffffffffffffffffffffffffffffffff1673ffffffffffffffffffffffffffffffffffffffff16815260200191505060405180910390f35b34801561073357600080fd5b5061078f6004803603810190808035600019169060200190929190803573ffffffffffffffffffffffffffffffffffffffff169060200190929190803560ff1690602001909291908035151590602001909291905050506116bb565b604051808215151515815260200191505060405180910390f35b3480156107b557600080fd5b506107be6117c4565b6040518082815260200191505060405180910390f35b3480156107e057600080fd5b5061080360048036038101908080356000191690602001909291905050506117d1565b604051808261ffff1661ffff16815260200191505060405180910390f35b34801561082d57600080fd5b506108366117f2565b005b34801561084457600080fd5b50610873600480360381019080803561ffff1690602001909291908035151590602001909291905050506118c4565b60405180826000191660001916815260200191505060405180910390f35b34801561089d57600080fd5b506108a6611924565b604051808273ffffffffffffffffffffffffffffffffffffffff1673ffffffffffffffffffffffffffffffffffffffff16815260200191505060405180910390f35b3480156108f457600080fd5b506108fd61194d565b604051808215151515815260200191505060405180910390f35b34801561092357600080fd5b5061094660048036038101908080356000191690602001909291905050506119a4565b604051808060200180602001838103835285818151815260200191508051906020019060200280838360005b8381101561098d578082015181840152602081019050610972565b50505050905001838103825284818151815260200191508051906020019060200280838360005b838110156109cf5780820151818401526020810190506109b4565b5050505090500194505050505060405180910390f35b3480156109f157600080fd5b50610a416004803603810190808035600019169060200190929190803573ffffffffffffffffffffffffffffffffffffffff169060200190929190803560ff169060200190929190505050611b58565b005b348015610a4f57600080fd5b50610a58611d00565b6040518082815260200191505060405180910390f35b348015610a7a57600080fd5b50610aa6600480360381019080803560ff16906020019092919080359060200190929190505050611d0d565b604051808260ff1660ff16815260200191505060405180910390f35b348015610ace57600080fd5b50610b03600480360381019080803573ffffffffffffffffffffffffffffffffffffffff169060200190929190505050611d4f565b005b600080610b1061194d565b1515610b1b57600080fd5b7fffffffffffffffffffffffffffffffffffffffffffffffffffffffffffffffff61ffff16600280549050101515610b5257600080fd5b6002610180604051908101604052808c6000191681526020018b73ffffffffffffffffffffffffffffffffffffffff1681526020018a73ffffffffffffffffffffffffffffffffffffffff1681526020018973ffffffffffffffffffffffffffffffffffffffff16815260200186815260200185600019168152602001888880806020026020016040519081016040528093929190818152602001838360200280828437820191505050505050815260200188889050604051908082528060200260200182016040528015610c3b57816020015b6060815260200190600190039081610c265790505b50815260200188889050604051908082528060200260200182016040528015610c735781602001602082028038833980820191505090505b50815260200188889050604051908082528060200260200182016040528015610cab5781602001602082028038833980820191505090505b508152602001600060ff16815260200160006008811115610cc857fe5b60ff168152509080600181540180825580915050906001820390600052602060002090600b0201600090919290919091506000820151816000019060001916905560208201518160010160006101000a81548173ffffffffffffffffffffffffffffffffffffffff021916908373ffffffffffffffffffffffffffffffffffffffff16021790555060408201518160020160006101000a81548173ffffffffffffffffffffffffffffffffffffffff021916908373ffffffffffffffffffffffffffffffffffffffff16021790555060608201518160030160006101000a81548173ffffffffffffffffffffffffffffffffffffffff021916908373ffffffffffffffffffffffffffffffffffffffff1602179055506080820151816004015560a0820151816005019060001916905560c0820151816006019080519060200190610e14929190613598565b5060e0820151816007019080519060200190610e31929190613622565b50610100820151816008019080519060200190610e4f929190613682565b50610120820151816009019080519060200190610e6d929190613732565b5061014082015181600a0160006101000a81548160ff021916908360ff16021790555061016082015181600a0160016101000a81548160ff021916908360ff160217905550505050600280549050600160008c6000191660001916815260200190815260200160002060006101000a81548161ffff021916908361ffff160217905550600260018060008d6000191660001916815260200190815260200160002060009054906101000a900461ffff160361ffff16815481101515610f2e57fe5b90600052602060002090600b02019150600090505b8160080180549050811015610fa457428260080182815481101515610f6457fe5b90600052602060002090600891828204019190066004026101000a81548163ffffffff021916908363ffffffff1602179055508080600101915050610f43565b610fba8a60016008811115610fb557fe5b611d6e565b89600019167fcdd8e82457800d3241f19b61393a2bbceb40e44253685afc406b2bb489c84ad360405160405180910390a250505050505050505050565b60048181548110151561100657fe5b90600052602060002090600b02016000915090508060000154908060010160009054906101000a900473ffffffffffffffffffffffffffffffffffffffff16908060020160009054906101000a900473ffffffffffffffffffffffffffffffffffffffff16908060030160009054906101000a900473ffffffffffffffffffffffffffffffffffffffff169080600401549080600501549080600a0160009054906101000a900460ff169080600a0160019054906101000a900460ff16905088565b6002818154811015156110d757fe5b90600052602060002090600b02016000915090508060000154908060010160009054906101000a900473ffffffffffffffffffffffffffffffffffffffff16908060020160009054906101000a900473ffffffffffffffffffffffffffffffffffffffff16908060030160009054906101000a900473ffffffffffffffffffffffffffffffffffffffff169080600401549080600501549080600a0160009054906101000a900460ff169080600a0160019054906101000a900460ff16905088565b606060006111a684611f57565b6111fc576004600160036000876000191660001916815260200190815260200160002060009054906101000a900461ffff160361ffff168154811015156111e957fe5b90600052602060002090600b0201611249565b60026001806000876000191660001916815260200190815260200160002060009054906101000a900461ffff160361ffff1681548110151561123a57fe5b90600052602060002090600b02015b9050806007018360ff1681548110151561125f57fe5b906000526020600020018054600181600116156101000203166002900480601f0160208091040260200160405190810160405280929190818152602001828054600181600116156101000203166002900480156112fd5780601f106112d2576101008083540402835291602001916112fd565b820191906000526020600020905b8154815290600101906020018083116112e057829003601f168201915b505050505091505092915050565b6000806000806000606060008060006113238a611f57565b6113795760046001600360008d6000191660001916815260200190815260200160002060009054906101000a900461ffff160361ffff1681548110151561136657fe5b90600052602060002090600b02016113c6565b600260018060008d6000191660001916815260200190815260200160002060009054906101000a900461ffff160361ffff168154811015156113b757fe5b90600052602060002090600b02015b90508060010160009054906101000a900473ffffffffffffffffffffffffffffffffffffffff1698508060020160009054906101000a900473ffffffffffffffffffffffffffffffffffffffff1697508060030160009054906101000a900473ffffffffffffffffffffffffffffffffffffffff1696508060040154955080600501549450806006018054806020026020016040519081016040528092919081815260200182805480156114cf57602002820191906000526020600020905b8160009054906101000a900473ffffffffffffffffffffffffffffffffffffffff1673ffffffffffffffffffffffffffffffffffffffff1681526020019060010190808311611485575b5050505050935080600a0160009054906101000a900460ff16925080600a0160019054906101000a900460ff16915050919395975091939597565b600080856005600881111561151b57fe5b8060ff1660026001806000866000191660001916815260200190815260200160002060009054906101000a900461ffff160361ffff1681548110151561155d57fe5b90600052602060002090600b0201600a0160019054906101000a900460ff1660ff1614151561158b57600080fd5b61159361194d565b151561159e57600080fd5b6115a88888611fdf565b92507fffffffffffffffffffffffffffffffffffffffffffffffffffffffffffffffff83141515156115d957600080fd5b8585600260018060008d6000191660001916815260200190815260200160002060009054906101000a900461ffff160361ffff1681548110151561161957fe5b90600052602060002090600b02016007018581548110151561163757fe5b90600052602060002001919061164e9291906137d8565b50611667888860028081111561166057fe5b60016120f6565b9350505050949350505050565b60036020528060005260406000206000915054906101000a900461ffff1681565b600660009054906101000a900473ffffffffffffffffffffffffffffffffffffffff1681565b600084600060026001806000856000191660001916815260200190815260200160002060009054906101000a900461ffff160361ffff168154811015156116fe57fe5b90600052602060002090600b020190506001600881111561171b57fe5b60ff1681600a0160019054906101000a900460ff1660ff16148061176157506003600881111561174757fe5b60ff1681600a0160019054906101000a900460ff1660ff16145b8061178e57506005600881111561177457fe5b60ff1681600a0160019054906101000a900460ff1660ff16145b151561179957600080fd5b6117a161194d565b15156117ac57600080fd5b6117b8878787876120f6565b92505050949350505050565b6000600280549050905090565b60016020528060005260406000206000915054906101000a900461ffff1681565b6117fa61194d565b151561180557600080fd5b600073ffffffffffffffffffffffffffffffffffffffff166000809054906101000a900473ffffffffffffffffffffffffffffffffffffffff1673ffffffffffffffffffffffffffffffffffffffff167f8be0079c531659141344cd1fd0a4f28419497f9722a3daafe3b4186f6b6457e060405160405180910390a360008060006101000a81548173ffffffffffffffffffffffffffffffffffffffff021916908373ffffffffffffffffffffffffffffffffffffffff160217905550565b600080826118f25760048461ffff168154811015156118df57fe5b90600052602060002090600b0201611914565b60028461ffff1681548110151561190557fe5b90600052602060002090600b02015b9050806000015491505092915050565b60008060009054906101000a900473ffffffffffffffffffffffffffffffffffffffff16905090565b60008060009054906101000a900473ffffffffffffffffffffffffffffffffffffffff1673ffffffffffffffffffffffffffffffffffffffff163373ffffffffffffffffffffffffffffffffffffffff1614905090565b60608060006119b284611f57565b611a08576004600160036000876000191660001916815260200190815260200160002060009054906101000a900461ffff160361ffff168154811015156119f557fe5b90600052602060002090600b0201611a55565b60026001806000876000191660001916815260200190815260200160002060009054906101000a900461ffff160361ffff16815481101515611a4657fe5b90600052602060002090600b02015b905080600801805480602002602001604051908101604052809291908181526020018280548015611ad157602002820191906000526020600020906000905b82829054906101000a900463ffffffff1663ffffffff1681526020019060040190602082600301049283019260010382029150808411611a945790505b5050505050925080600901805480602002602001604051908101604052809291908181526020018280548015611b4b57602002820191906000526020600020906000905b82829054906101000a900460ff16151581526020019060010190602082600001049283019260010382029150808411611b155790505b5050505050915050915091565b60008360056008811115611b6857fe5b8060ff1660026001806000866000191660001916815260200190815260200160002060009054906101000a900461ffff160361ffff16815481101515611baa57fe5b90600052602060002090600b0201600a0160019054906101000a900460ff1660ff16141515611bd857600080fd5b611be061194d565b1515611beb57600080fd5b611bf58686611fdf565b92507fffffffffffffffffffffffffffffffffffffffffffffffffffffffffffffffff8314151515611c2657600080fd5b42600260018060008a6000191660001916815260200190815260200160002060009054906101000a900461ffff160361ffff16815481101515611c6557fe5b90600052602060002090600b020160080184815481101515611c8357fe5b90600052602060002090600891828204019190066004026101000a81548163ffffffff021916908363ffffffff16021790555085600019167f84d08018633e0a8a0ba434acc29166246cfe913279e254647ca8c2f24f13660785604051808260ff1660ff16815260200191505060405180910390a2505050505050565b6000600480549050905090565b600560205281600052604060002081815481101515611d2857fe5b9060005260206000209060209182820401919006915091509054906101000a900460ff1681565b611d5761194d565b1515611d6257600080fd5b611d6b816121df565b50565b6000808383600080600080925060056000600260018060008a6000191660001916815260200190815260200160002060009054906101000a900461ffff160361ffff16815481101515611dbd57fe5b90600052602060002090600b0201600a0160019054906101000a900460ff1660ff1660ff1681526020019081526020016000209150600090505b8180549050811015611e50578360ff168282815481101515611e1557fe5b90600052602060002090602091828204019190069054906101000a900460ff1660ff161415611e4357600192505b8080600101915050611df7565b60011515831515141515611e6357600080fd5b600260018060008c6000191660001916815260200190815260200160002060009054906101000a900461ffff160361ffff16815481101515611ea157fe5b90600052602060002090600b0201965086600a0160019054906101000a900460ff1695508787600a0160016101000a81548160ff021916908360ff16021790555088600019167f9cb99c834b5e878ca7005d163b0fd70203dbc223d5845abe517de64a74dc58168789600a0160019054906101000a900460ff16604051808360ff1660ff1681526020018260ff1660ff1681526020019250505060405180910390a2611f4c896122d9565b505050505050505050565b60008060016000846000191660001916815260200190815260200160002060009054906101000a900461ffff1661ffff16141515611f985760019050611fda565b600060036000846000191660001916815260200190815260200160002060009054906101000a900461ffff1661ffff1614151515611fd557600080fd5b600090505b919050565b600080600060026001806000886000191660001916815260200190815260200160002060009054906101000a900461ffff160361ffff1681548110151561202257fe5b90600052602060002090600b02019150600090505b81600601805490508110156120ca578373ffffffffffffffffffffffffffffffffffffffff16826006018281548110151561206e57fe5b9060005260206000200160009054906101000a900473ffffffffffffffffffffffffffffffffffffffff1673ffffffffffffffffffffffffffffffffffffffff1614156120bd578092506120ee565b8080600101915050612037565b7fffffffffffffffffffffffffffffffffffffffffffffffffffffffffffffffff92505b505092915050565b60006121048585858561253f565b61210d85612891565b156121d757600190506000600281111561212357fe5b60ff168360ff16141561215457612146856003600881111561214157fe5b611d6e565b61214f85612953565b6121d6565b6001600281111561216157fe5b60ff168360ff16141561219257612184856005600881111561217f57fe5b611d6e565b61218d85612953565b6121d5565b60028081111561219e57fe5b60ff168360ff1614156121cf576121c185600760088111156121bc57fe5b611d6e565b6121ca85612a4b565b6121d4565b600090505b5b5b5b949350505050565b600073ffffffffffffffffffffffffffffffffffffffff168173ffffffffffffffffffffffffffffffffffffffff161415151561221b57600080fd5b8073ffffffffffffffffffffffffffffffffffffffff166000809054906101000a900473ffffffffffffffffffffffffffffffffffffffff1673ffffffffffffffffffffffffffffffffffffffff167f8be0079c531659141344cd1fd0a4f28419497f9722a3daafe3b4186f6b6457e060405160405180910390a3806000806101000a81548173ffffffffffffffffffffffffffffffffffffffff021916908373ffffffffffffffffffffffffffffffffffffffff16021790555050565b600060026001806000856000191660001916815260200190815260200160002060009054906101000a900461ffff160361ffff1681548110151561231957fe5b90600052602060002090600b0201600a0160019054906101000a900460ff1690506002600881111561234757fe5b60ff168160ff16141561238a5781600019167f5261c4ecde326f171b514c548529aa2219b22fedf2fa5640ae6f7d939aaefbf860405160405180910390a261253b565b6003600881111561239757fe5b60ff168160ff1614156123da5781600019167f664052ccd6bc90c161d5b3a6ed2bff308e2bf01e52fbc112e7a8d445bb9c66ee60405160405180910390a261253a565b600460088111156123e757fe5b60ff168160ff16141561242a5781600019167fee170c67bd88e14fcfccdcf7817ddb732cb1a466d0c333f4642571d1282556eb60405160405180910390a2612539565b6005600881111561243757fe5b60ff168160ff16141561247a5781600019167f3010926e292de172661e49071a9be4cb18f63877dffcc78013e349175f5b03b260405160405180910390a2612538565b6006600881111561248757fe5b60ff168160ff1614156124da5781600019167f439c5ac734864869b402ad7298724e0154a172f98a32de5c8e877b3f234dc5d76001604051808215151515815260200191505060405180910390a2612537565b600760088111156124e757fe5b60ff168160ff1614156125365781600019167f439c5ac734864869b402ad7298724e0154a172f98a32de5c8e877b3f234dc5d76000604051808215151515815260200191505060405180910390a25b5b5b5b5b5b5050565b600080600061254e8787611fdf565b92507fffffffffffffffffffffffffffffffffffffffffffffffffffffffffffffffff831415151561257f57600080fd5b6000600281111561258c57fe5b60ff168560ff16141561261a57600160088111156125a657fe5b60ff16600260018060008b6000191660001916815260200190815260200160002060009054906101000a900461ffff160361ffff168154811015156125e757fe5b90600052602060002090600b0201600a0160019054906101000a900460ff1660ff1614151561261557600080fd5b61274d565b6001600281111561262757fe5b60ff168560ff1614156126b5576003600881111561264157fe5b60ff16600260018060008b6000191660001916815260200190815260200160002060009054906101000a900461ffff160361ffff1681548110151561268257fe5b90600052602060002090600b0201600a0160019054906101000a900460ff1660ff161415156126b057600080fd5b61274c565b6002808111156126c157fe5b60ff168560ff16141561274b57600560088111156126db57fe5b60ff16600260018060008b6000191660001916815260200190815260200160002060009054906101000a900461ffff160361ffff1681548110151561271c57fe5b90600052602060002090600b0201600a0160019054906101000a900460ff1660ff1614151561274a57600080fd5b5b5b5b612758878486613288565b612761876133a3565b91509150600073ffffffffffffffffffffffffffffffffffffffff168273ffffffffffffffffffffffffffffffffffffffff1614151561288857600660009054906101000a900473ffffffffffffffffffffffffffffffffffffffff1673ffffffffffffffffffffffffffffffffffffffff1663f417e7c98360046040518363ffffffff167c0100000000000000000000000000000000000000000000000000000000028152600401808373ffffffffffffffffffffffffffffffffffffffff1673ffffffffffffffffffffffffffffffffffffffff16815260200182600481111561284957fe5b60ff16815260200192505050600060405180830381600087803b15801561286f57600080fd5b505af1158015612883573d6000803e3d6000fd5b505050505b50505050505050565b60008060006001925060026001806000876000191660001916815260200190815260200160002060009054906101000a900461ffff160361ffff168154811015156128d857fe5b90600052602060002090600b02019150600090505b816009018054905081101561294c5760011515826009018281548110151561291157fe5b90600052602060002090602091828204019190069054906101000a900460ff16151514151561293f57600092505b80806001019150506128ed565b5050919050565b60008060026001806000866000191660001916815260200190815260200160002060009054906101000a900461ffff160361ffff1681548110151561299457fe5b90600052602060002090600b02019150600090505b8160090180549050811015612a4657600082600901828154811015156129cb57fe5b90600052602060002090602091828204019190066101000a81548160ff021916908315150217905550428260080182815481101515612a0657fe5b90600052602060002090600891828204019190066004026101000a81548163ffffffff021916908363ffffffff16021790555080806001019150506129a9565b505050565b600460026001806000856000191660001916815260200190815260200160002060009054906101000a900461ffff160361ffff16815481101515612a8b57fe5b90600052602060002090600b02019080600181540180825580915050906001820390600052602060002090600b020160009091929091909150600082015481600001906000191690556001820160009054906101000a900473ffffffffffffffffffffffffffffffffffffffff168160010160006101000a81548173ffffffffffffffffffffffffffffffffffffffff021916908373ffffffffffffffffffffffffffffffffffffffff1602179055506002820160009054906101000a900473ffffffffffffffffffffffffffffffffffffffff168160020160006101000a81548173ffffffffffffffffffffffffffffffffffffffff021916908373ffffffffffffffffffffffffffffffffffffffff1602179055506003820160009054906101000a900473ffffffffffffffffffffffffffffffffffffffff168160030160006101000a81548173ffffffffffffffffffffffffffffffffffffffff021916908373ffffffffffffffffffffffffffffffffffffffff16021790555060048201548160040155600582015481600501906000191690556006820181600601908054612c39929190613858565b506007820181600701908054612c509291906138aa565b506008820181600801908054612c6792919061391a565b506009820181600901908054612c7e92919061397a565b50600a820160009054906101000a900460ff1681600a0160006101000a81548160ff021916908360ff160217905550600a820160019054906101000a900460ff1681600a0160016101000a81548160ff021916908360ff16021790555050505060048054905060ff1660036000836000191660001916815260200190815260200160002060006101000a81548161ffff021916908361ffff16021790555060028054905060016000836000191660001916815260200190815260200160002060009054906101000a900461ffff1661ffff1614151561306a576002600160028054905003815481101515612d6e57fe5b90600052602060002090600b020160026001806000856000191660001916815260200190815260200160002060009054906101000a900461ffff160361ffff16815481101515612dba57fe5b90600052602060002090600b0201600082015481600001906000191690556001820160009054906101000a900473ffffffffffffffffffffffffffffffffffffffff168160010160006101000a81548173ffffffffffffffffffffffffffffffffffffffff021916908373ffffffffffffffffffffffffffffffffffffffff1602179055506002820160009054906101000a900473ffffffffffffffffffffffffffffffffffffffff168160020160006101000a81548173ffffffffffffffffffffffffffffffffffffffff021916908373ffffffffffffffffffffffffffffffffffffffff1602179055506003820160009054906101000a900473ffffffffffffffffffffffffffffffffffffffff168160030160006101000a81548173ffffffffffffffffffffffffffffffffffffffff021916908373ffffffffffffffffffffffffffffffffffffffff16021790555060048201548160040155600582015481600501906000191690556006820181600601908054612f3d929190613858565b506007820181600701908054612f549291906138aa565b506008820181600801908054612f6b92919061391a565b506009820181600901908054612f8292919061397a565b50600a820160009054906101000a900460ff1681600a0160006101000a81548160ff021916908360ff160217905550600a820160019054906101000a900460ff1681600a0160016101000a81548160ff021916908360ff16021790555090505060016000826000191660001916815260200190815260200160002060009054906101000a900461ffff1660016000600260016002805490500381548110151561302757fe5b90600052602060002090600b0201600001546000191660001916815260200190815260200160002060006101000a81548161ffff021916908361ffff1602179055505b600260016002805490500381548110151561308157fe5b90600052602060002090600b02016000808201600090556001820160006101000a81549073ffffffffffffffffffffffffffffffffffffffff02191690556002820160006101000a81549073ffffffffffffffffffffffffffffffffffffffff02191690556003820160006101000a81549073ffffffffffffffffffffffffffffffffffffffff02191690556004820160009055600582016000905560068201600061312d91906139da565b60078201600061313d91906139fb565b60088201600061314d9190613a1c565b60098201600061315d9190613a44565b600a820160006101000a81549060ff0219169055600a820160016101000a81549060ff02191690555050600060016000836000191660001916815260200190815260200160002060006101000a81548161ffff021916908361ffff16021790555060028054809190600190036131d39190613a6c565b50600660009054906101000a900473ffffffffffffffffffffffffffffffffffffffff1673ffffffffffffffffffffffffffffffffffffffff16632e63178b826040518263ffffffff167c0100000000000000000000000000000000000000000000000000000000028152600401808260001916600019168152602001915050600060405180830381600087803b15801561326d57600080fd5b505af1158015613281573d6000803e3d6000fd5b5050505050565b8060026001806000876000191660001916815260200190815260200160002060009054906101000a900461ffff160361ffff168154811015156132c757fe5b90600052602060002090600b0201600901838154811015156132e557fe5b90600052602060002090602091828204019190066101000a81548160ff0219169083151502179055504260026001806000876000191660001916815260200190815260200160002060009054906101000a900461ffff160361ffff1681548110151561334d57fe5b90600052602060002090600b02016008018381548110151561336b57fe5b90600052602060002090600891828204019190066004026101000a81548163ffffffff021916908363ffffffff160217905550505050565b60008060008084600060026001806000856000191660001916815260200190815260200160002060009054906101000a900461ffff160361ffff168154811015156133ea57fe5b90600052602060002090600b020190506001600881111561340757fe5b60ff1681600a0160019054906101000a900460ff1660ff16148061344d57506003600881111561343357fe5b60ff1681600a0160019054906101000a900460ff1660ff16145b8061347a57506005600881111561346057fe5b60ff1681600a0160019054906101000a900460ff1660ff16145b151561348557600080fd5b600260018060008a6000191660001916815260200190815260200160002060009054906101000a900461ffff160361ffff168154811015156134c357fe5b90600052602060002090600b02019350600092505b836008018054905083101561358f5761070884600801848154811015156134fb57fe5b90600052602060002090600891828204019190066004029054906101000a900463ffffffff1663ffffffff164203111561358257836006018381548110151561354057fe5b9060005260206000200160009054906101000a900473ffffffffffffffffffffffffffffffffffffffff16955083600a0160019054906101000a900460ff1694505b82806001019350506134d8565b50505050915091565b828054828255906000526020600020908101928215613611579160200282015b828111156136105782518260006101000a81548173ffffffffffffffffffffffffffffffffffffffff021916908373ffffffffffffffffffffffffffffffffffffffff160217905550916020019190600101906135b8565b5b50905061361e9190613a9e565b5090565b828054828255906000526020600020908101928215613671579160200282015b82811115613670578251829080519060200190613660929190613ae1565b5091602001919060010190613642565b5b50905061367e9190613b61565b5090565b828054828255906000526020600020906007016008900481019282156137215791602002820160005b838211156136ef57835183826101000a81548163ffffffff021916908363ffffffff16021790555092602001926004016020816003010492830192600103026136ab565b801561371f5782816101000a81549063ffffffff02191690556004016020816003010492830192600103026136ef565b505b50905061372e9190613b8d565b5090565b82805482825590600052602060002090601f016020900481019282156137c75791602002820160005b8382111561379857835183826101000a81548160ff021916908315150217905550926020019260010160208160000104928301926001030261375b565b80156137c55782816101000a81549060ff0219169055600101602081600001049283019260010302613798565b505b5090506137d49190613bc0565b5090565b828054600181600116156101000203166002900490600052602060002090601f016020900481019282601f1061381957803560ff1916838001178555613847565b82800160010185558215613847579182015b8281111561384657823582559160200191906001019061382b565b5b5090506138549190613bf0565b5090565b8280548282559060005260206000209081019282156138995760005260206000209182015b8281111561389857825482559160010191906001019061387d565b5b5090506138a69190613a9e565b5090565b8280548282559060005260206000209081019282156139095760005260206000209182015b8281111561390857828290805460018160011615610100020316600290046138f8929190613c15565b50916001019190600101906138cf565b5b5090506139169190613b61565b5090565b82805482825590600052602060002090600701600890048101928215613969576000526020600020916007016008900482015b8281111561396857825482559160010191906001019061394d565b5b5090506139769190613b8d565b5090565b82805482825590600052602060002090601f016020900481019282156139c957600052602060002091601f016020900482015b828111156139c85782548255916001019190600101906139ad565b5b5090506139d69190613bc0565b5090565b50805460008255906000526020600020908101906139f89190613bf0565b50565b5080546000825590600052602060002090810190613a199190613b61565b50565b508054600082556007016008900490600052602060002090810190613a419190613bf0565b50565b50805460008255601f016020900490600052602060002090810190613a699190613bf0565b50565b815481835581811115613a9957600b0281600b028360005260206000209182019101613a989190613c9c565b5b505050565b613ade91905b80821115613ada57600081816101000a81549073ffffffffffffffffffffffffffffffffffffffff021916905550600101613aa4565b5090565b90565b828054600181600116156101000203166002900490600052602060002090601f016020900481019282601f10613b2257805160ff1916838001178555613b50565b82800160010185558215613b50579182015b82811115613b4f578251825591602001919060010190613b34565b5b509050613b5d9190613bf0565b5090565b613b8a91905b80821115613b865760008181613b7d9190613db0565b50600101613b67565b5090565b90565b613bbd91905b80821115613bb957600081816101000a81549063ffffffff021916905550600101613b93565b5090565b90565b613bed91905b80821115613be957600081816101000a81549060ff021916905550600101613bc6565b5090565b90565b613c1291905b80821115613c0e576000816000905550600101613bf6565b5090565b90565b828054600181600116156101000203166002900490600052602060002090601f016020900481019282601f10613c4e5780548555613c8b565b82800160010185558215613c8b57600052602060002091601f016020900482015b82811115613c8a578254825591600101919060010190613c6f565b5b509050613c989190613bf0565b5090565b613dad91905b80821115613da9576000808201600090556001820160006101000a81549073ffffffffffffffffffffffffffffffffffffffff02191690556002820160006101000a81549073ffffffffffffffffffffffffffffffffffffffff02191690556003820160006101000a81549073ffffffffffffffffffffffffffffffffffffffff021916905560048201600090556005820160009055600682016000613d4891906139da565b600782016000613d5891906139fb565b600882016000613d689190613a1c565b600982016000613d789190613a44565b600a820160006101000a81549060ff0219169055600a820160016101000a81549060ff021916905550600b01613ca2565b5090565b90565b50805460018160011615610100020316600290046000825580601f10613dd65750613df5565b601f016020900490600052602060002090810190613df49190613bf0565b5b505600a165627a7a723058207898ee6bad6ebc501bea46ba6eb292b3462c87ba11cfcbdc54b2379c5fb7ddbc0029",
  "source": "pragma solidity 0.4.24;\n\nimport \"./ICognitiveJobController.sol\";\nimport \"./IEconomicController.sol\";\nimport \"../../nodes/IWorkerNode.sol\";\n\n\n// Contract implement main cognitive job functionality\ncontract CognitiveJobController is ICognitiveJobController{\n\n    /*******************************************************************************************************************\n     * ## Storage\n     */\n\n    /// @dev Indexes (+1) of active (=running) cognitive jobs in `activeJobs` mapped from their creators\n    /// (owners of the corresponding cognitive job contracts). Zero values corresponds to no active job,\n    /// one  to the one with index 0 and so forth.\n    mapping(bytes32 => uint16) public activeJobsIndexes;\n\n    /// @dev List of all active cognitive jobs\n    CognitiveJob[] public activeJobs;\n\n    mapping(bytes32 => uint16) public completedJobsIndexes;\n\n    /// @dev List of all completed cognitive jobs\n    CognitiveJob[] public completedJobs;\n\n    ///Table of all possible state transitions\n    mapping(uint8 => uint8[]) public transitionTable;\n\n    //        uint8 WORKER_TIMEOUT = 30 minutes;\n\n    // Controller for economic\n    IEconomicController public economicController;\n\n    constructor(IEconomicController _economicController) public {\n        economicController = _economicController;\n        //state machine initialization should be performed only once with filling transitionTable\n        _initStateMachine();\n    }\n\n    /******************************************************************************************************************\n    Public functions\n    */\n\n    /// @dev Returns total count of active jobs\n    function activeJobsCount() view public returns (uint256) {\n        return activeJobs.length;\n    }\n\n    /// @dev Returns total count of active jobs\n    function completedJobsCount() view public returns (uint256) {\n        return completedJobs.length;\n    }\n\n    function getJobId(uint16 _index, bool _isActive)\n    view\n    public\n    returns(bytes32){\n        CognitiveJob storage job = _isActive ?\n            activeJobs[_index]\n            : completedJobs[_index];\n        return job.id;\n    }\n\n    function getCognitiveJobDetails(bytes32 _jobId)\n    external\n    view\n    returns (\n        address owner,\n        address kernel,\n        address dataset,\n        uint256 complexity,\n        bytes32 description,\n        address[] activeWorkers,\n        uint8 progress,\n        uint8 state\n    ) {\n        CognitiveJob storage job = isActiveJob(_jobId) ?\n            activeJobs[activeJobsIndexes[_jobId] - 1]\n            : completedJobs[completedJobsIndexes[_jobId] - 1];\n        owner = job.owner;\n        kernel = job.kernel;\n        dataset = job.dataset;\n        complexity = job.complexity;\n        description = job.description;\n        activeWorkers = job.activeWorkers;\n        progress = job.progress;\n        state = job.state;\n    }\n\n    function getCognitiveJobResults(\n        bytes32 _jobId,\n        uint8 _index //index of worker, whose results should be returned\n    )\n    public\n    view\n    returns(\n        bytes ipfsResults\n    ) {\n        CognitiveJob storage job = isActiveJob(_jobId) ?\n            activeJobs[activeJobsIndexes[_jobId] - 1]\n            : completedJobs[completedJobsIndexes[_jobId] - 1];\n        ipfsResults = job.ipfsResults[_index];\n    }\n\n    function getCognitiveJobServiceInfo(\n        bytes32 _jobId\n    )\n    public\n    view\n    returns(\n        uint32[] responseTimestamps,\n        bool[] responseFlags\n    ) {\n        CognitiveJob storage job = isActiveJob(_jobId) ?\n            activeJobs[activeJobsIndexes[_jobId] - 1]\n            : completedJobs[completedJobsIndexes[_jobId] - 1];\n        responseTimestamps = job.responseTimestamps;\n        responseFlags = job.responseFlags;\n    }\n\n    /******************************************************************************************************************\n    External functions (Only Pandora by interface)\n    */\n    function createCognitiveJob (\n        bytes32 _id,\n        address _owner,\n        address _kernel,\n        address _dataset,\n        address[] _assignedWorkers,\n        uint256 _complexity,\n        bytes32 _description\n    )\n    onlyOwner()\n    external {\n        // The created job must fit into uint16 size\n        require(activeJobs.length < uint16(-1));\n\n        activeJobs.push(CognitiveJob({\n            id: _id,\n            owner: _owner,\n            kernel: _kernel,\n            dataset: _dataset,\n            complexity: _complexity,\n            description: _description,\n            activeWorkers: _assignedWorkers,\n            ipfsResults: new bytes[](_assignedWorkers.length),\n            responseTimestamps: new uint32[](_assignedWorkers.length),\n            responseFlags: new bool[](_assignedWorkers.length),\n            progress: 0,\n            state: uint8(States.Uninitialized)\n            })\n        );\n        // Add to addresses map\n        activeJobsIndexes[_id] = uint16(activeJobs.length);\n\n        CognitiveJob storage job = activeJobs[activeJobsIndexes[_id] - 1];\n        // Init timestamps\n        for (uint256 i = 0; i < job.responseTimestamps.length; i++) {\n            job.responseTimestamps[i] = uint32(block.timestamp);\n        }\n        _transitionToState( _id, uint8(States.GatheringWorkers));\n        emit WorkersUpdated(_id);\n    }\n\n    function respondToJob(\n        bytes32 _jobId,\n        address _workerId,\n        uint8 _responseType,\n        bool _response)\n    requireActiveStates(_jobId)\n    onlyOwner()\n    external\n    returns (bool result)\n    {\n        return _onWorkerResponse(_jobId, _workerId, _responseType, _response);\n    }\n\n    //should be called for responseTimestamp refresh after actual progress change in workerNode\n    //todo implement requirement of new progress > current progress in workerController in new v.\n    function commitProgress(\n        bytes32 _jobId,\n        address _workerId,\n        uint8 _percent)\n    requireState(_jobId, uint8(States.Cognition))\n    onlyOwner()\n    external {\n        //todo check active worker with workerController\n        uint256 workerIndex = _getWorkerIndex( _jobId, _workerId);\n        require(workerIndex != uint256(-1)); //worker is computing current job\n        activeJobs[activeJobsIndexes[_jobId] - 1].responseTimestamps[workerIndex] = uint32(block.timestamp);\n        emit CognitionProgressed(_jobId, _percent);\n    }\n\n    /// @notice should be called with provided results\n    function completeWork(\n        bytes32 _jobId,\n        address _workerId,\n        bytes _ipfsResults)\n    requireState(_jobId, uint8(States.Cognition))\n    onlyOwner()\n    external\n    returns (\n        bool result // true - if all workers have submitted result\n    ){\n        uint256 workerIndex = _getWorkerIndex( _jobId, _workerId);\n        require(workerIndex != uint256(-1)); //worker is computing current job\n\n        activeJobs[activeJobsIndexes[_jobId] - 1].ipfsResults[workerIndex] = _ipfsResults;\n        result = _onWorkerResponse( _jobId, _workerId, uint8(WorkerResponses.Result), true);\n    }\n\n    //    function reportOfflineWorker(IWorkerNode reported) payable external requireActiveStates;\n    //todo should be implemented in workerController in upcoming version\n\n    /******************************************************************************************************************\n    Private functions\n    */\n\n    /// @dev Could be called from manager with two types of response - Assignment and DataValidation\n    function _onWorkerResponse(\n        bytes32 _jobId,\n        address _workerId,\n        uint8 _responseType,\n        bool _response)\n    private\n    returns (bool result)\n    {\n        _checkResponse( _jobId, _workerId, _responseType, _response);\n        // Transition to next state when all workers have responded\n        if (_isAllWorkersResponded( _jobId)) {\n            result = true;\n            if (_responseType == uint8(WorkerResponses.Assignment)) {\n                _transitionToState( _jobId, uint8(States.DataValidation));\n                //todo implement process decline, with validation in new v.\n                _resetAllResponses( _jobId);\n            } else if (_responseType == uint8(WorkerResponses.DataValidation)) {\n                _transitionToState( _jobId, uint8(States.Cognition));\n                //todo implement process decline, with validation in new v.\n                _resetAllResponses( _jobId);\n            } else if (_responseType == uint8(WorkerResponses.Result)) {\n                _transitionToState( _jobId, uint8(States.Completed));\n                _onJobComplete(_jobId); // move active job to completed ones\n            } else {\n                result = false; //not all workers responded\n            }\n        }\n    }\n\n    ///@dev Checks is worker actually computing current job, then updates response's flag and timestamp\n    function _checkResponse(\n        bytes32 _jobId,\n        address _workerId,\n        uint8 _responseType,\n        bool _response)\n    private {\n        uint256 workerIndex = _getWorkerIndex( _jobId, _workerId);\n        require(workerIndex != uint256(-1)); //worker is computing current job\n\n        if (_responseType == uint8(WorkerResponses.Assignment)) {\n            require(activeJobs[activeJobsIndexes[_jobId] - 1].state == uint8(States.GatheringWorkers));\n        } else if (_responseType == uint8(WorkerResponses.DataValidation)) {\n            require(activeJobs[activeJobsIndexes[_jobId] - 1].state == uint8(States.DataValidation));\n        } else if (_responseType == uint8(WorkerResponses.Result)) {\n            require(activeJobs[activeJobsIndexes[_jobId] - 1].state == uint8(States.Cognition));\n        }\n\n        _updateResponse( _jobId, workerIndex, _response);\n        (address guiltyWorker, uint8 jobState) = _trackOfflineWorkers( _jobId);\n\n        if (guiltyWorker != address(0)) {\n            economicController.applyPenalty(guiltyWorker, IWorkerNode.Penalties.OfflineWhileCognition);\n        }\n    }\n\n    function _getWorkerIndex(\n        bytes32 _jobId,\n        address _workerId)\n    private\n    view\n    returns (\n        uint256\n    ) {\n        CognitiveJob storage job = activeJobs[activeJobsIndexes[_jobId] - 1];\n        for (uint256 i = 0; i < job.activeWorkers.length; i++) {\n            if (job.activeWorkers[i] == _workerId) {\n                return i;\n            }\n        }\n        return uint256(-1);\n    }\n\n    function _isAllWorkersResponded(\n        bytes32 _jobId)\n    private\n    view\n    returns (\n        bool responded\n    ) {\n        responded = true;\n        CognitiveJob storage job = activeJobs[activeJobsIndexes[_jobId] - 1];\n        for (uint256 i = 0; i < job.responseFlags.length; i++) {\n            if (job.responseFlags[i] != true) {\n                responded = false;\n            }\n        }\n    }\n\n    function _updateResponse(\n        bytes32 _jobId,\n        uint256 _workerIndex,\n        bool _response)\n    private {\n        activeJobs[activeJobsIndexes[_jobId] - 1].responseFlags[_workerIndex] = _response;\n        activeJobs[activeJobsIndexes[_jobId] - 1].responseTimestamps[_workerIndex] = uint32(block.timestamp);\n    }\n\n    ///@dev Reset all response flags and update all timestamps\n    function _resetAllResponses(\n        bytes32 _jobId)\n    private {\n        CognitiveJob storage job = activeJobs[activeJobsIndexes[_jobId] - 1];\n        for (uint256 i = 0; i < job.responseFlags.length; i++) {\n            job.responseFlags[i] = false;\n            job.responseTimestamps[i] = uint32(block.timestamp);\n        }\n    }\n\n    //todo provide listener and handle guilty worker and job state in manager, so it could penaltize worker\n    function _trackOfflineWorkers(\n        bytes32 _jobId)\n    requireActiveStates( _jobId)\n    internal\n    returns (\n        address guiltyWorker,\n        uint8 jobState\n    ){\n        CognitiveJob storage job = activeJobs[activeJobsIndexes[_jobId] - 1];\n        for (uint256 i = 0; i < job.responseTimestamps.length; i++) {\n            if (block.timestamp - job.responseTimestamps[i] > 30 minutes) {\n                guiltyWorker = job.activeWorkers[i];\n                jobState = job.state;\n            }\n        }\n    }\n\n    function _onJobComplete(\n        bytes32 _jobId)\n    private\n    {\n        completedJobs.push(activeJobs[activeJobsIndexes[_jobId] - 1]);\n        completedJobsIndexes[_jobId] = uint8(completedJobs.length);\n\n        if (activeJobsIndexes[_jobId] != activeJobs.length) {\n            activeJobs[activeJobsIndexes[_jobId] - 1] = activeJobs[activeJobs.length - 1];\n            activeJobsIndexes[activeJobs[activeJobs.length - 1].id] = activeJobsIndexes[_jobId];\n        }\n        delete activeJobs[activeJobs.length - 1];\n        activeJobsIndexes[_jobId] = 0;\n        activeJobs.length--;\n\n        // economic calculations and rewards assignment\n        economicController.makeRewards(_jobId);        \n    }\n\n    /// @dev Checks that job with given id is active or not (tx will fail if job is not existed)\n    function isActiveJob(\n        bytes32 _jobId\n    )\n    view\n    private\n    returns (\n        bool\n    ) {\n        if (activeJobsIndexes[_jobId] != 0) {\n            return true;\n        } else {\n            require(completedJobsIndexes[_jobId] != 0);\n            return false;\n        }\n    }\n\n    /******************************************************************************************************************\n    State machine implementation\n    */\n\n    modifier requireActiveStates(\n        bytes32 _jobId)\n    {\n        CognitiveJob storage job = activeJobs[activeJobsIndexes[_jobId] - 1];\n        require(\n            job.state == uint8(States.GatheringWorkers) ||\n            job.state == uint8(States.DataValidation) ||\n            job.state == uint8(States.Cognition)\n        );\n        _;\n    }\n\n    modifier requireState(\n        bytes32 _jobId,\n        uint8 requiredState\n    ) {\n        require(activeJobs[activeJobsIndexes[_jobId] - 1].state == requiredState);\n        _;\n    }\n\n    modifier requireAllowedTransition(\n        bytes32 _jobId,\n        uint8 _newState\n    ) {\n        // Checking if the state transition is allowed\n        bool transitionAllowed = false;\n        uint8[] storage allowedStates =\n            transitionTable[uint8(activeJobs[activeJobsIndexes[_jobId] - 1].state)];\n        for (uint no = 0; no < allowedStates.length; no++) {\n            if (allowedStates[no] == _newState) {\n                transitionAllowed = true;\n            }\n        }\n        require(transitionAllowed == true);\n        _;\n    }\n\n    function _transitionToState(\n        bytes32 _jobId,\n        uint8 _newState)\n    requireAllowedTransition( _jobId, _newState)\n    private\n    {\n        CognitiveJob storage job = activeJobs[activeJobsIndexes[_jobId] - 1];\n        uint8 oldState = job.state;\n        job.state = _newState;\n        emit JobStateChanged(_jobId, oldState, job.state);\n        _fireStateEvent(_jobId);\n    }\n\n    //Fill table of possible state transitions\n    function _initStateMachine()\n    private {\n        mapping(uint8 => uint8[]) transitions = transitionTable;\n        transitions[uint8(States.Uninitialized)] =\n            [uint8(States.GatheringWorkers)];\n        transitions[uint8(States.GatheringWorkers)] =\n            [uint8(States.InsufficientWorkers), uint8(States.DataValidation)];\n        transitions[uint8(States.DataValidation)] =\n            [uint8(States.InvalidData), uint8(States.Cognition), uint8(States.InsufficientWorkers)];\n        transitions[uint8(States.Cognition)] =\n            [uint8(States.Completed), uint8(States.PartialResult)];\n    }\n\n    function _fireStateEvent(\n        bytes32 _jobId)\n    private {\n        uint8 state = activeJobs[activeJobsIndexes[_jobId] - 1].state;\n        if (state == uint8(States.InsufficientWorkers)) {\n            emit WorkersNotFound(_jobId);\n            //_onJobComplete(_jobId); //todo refactor with queue\n        } else if (state == uint8(States.DataValidation)) {\n            emit DataValidationStarted(_jobId);\n        } else if (state == uint8(States.InvalidData)) {\n            emit DataValidationFailed(_jobId);\n            //_cleanStorage(); //todo refactor\n        } else if (state == uint8(States.Cognition)) {\n            emit CognitionStarted(_jobId);\n        } else if (state == uint8(States.PartialResult)) {\n            emit CognitionCompleted(_jobId, true);\n        } else if (state == uint8(States.Completed)) {\n            emit CognitionCompleted(_jobId, false);\n        }\n    }\n}\n",
  "sourcePath": "/home/kostysh/dev/pyrrha-consensus/contracts/pandora/managers/CognitiveJobController.sol",
  "compiler": {
    "name": "solc",
    "version": "0.4.24+commit.e67f0147.Emscripten.clang"
  },
  "schemaVersion": "2.0.1",
  "updatedAt": "2019-01-10T18:19:12.099Z"
}