{
  "contractName": "CognitiveJobFactory",
  "abi": [
    {
      "constant": true,
      "inputs": [],
      "name": "owner",
      "outputs": [
        {
          "name": "",
          "type": "address"
        }
      ],
      "payable": false,
      "stateMutability": "view",
      "type": "function"
    },
    {
      "constant": false,
      "inputs": [
        {
          "name": "newOwner",
          "type": "address"
        }
      ],
      "name": "transferOwnership",
      "outputs": [],
      "payable": false,
      "stateMutability": "nonpayable",
      "type": "function"
    },
    {
      "inputs": [],
      "payable": false,
      "stateMutability": "nonpayable",
      "type": "constructor"
    },
    {
      "anonymous": false,
      "inputs": [
        {
          "indexed": true,
          "name": "previousOwner",
          "type": "address"
        },
        {
          "indexed": true,
          "name": "newOwner",
          "type": "address"
        }
      ],
      "name": "OwnershipTransferred",
      "type": "event"
    },
    {
      "constant": false,
      "inputs": [
        {
          "name": "_kernel",
          "type": "address"
        },
        {
          "name": "_dataset",
          "type": "address"
        },
        {
          "name": "_workersPool",
          "type": "address[]"
        }
      ],
      "name": "create",
      "outputs": [
        {
          "name": "o_cognitiveJob",
          "type": "address"
        }
      ],
      "payable": false,
      "stateMutability": "nonpayable",
      "type": "function"
    }
  ],
  "bytecode": "0x6060604052341561000f57600080fd5b336000806101000a81548173ffffffffffffffffffffffffffffffffffffffff021916908373ffffffffffffffffffffffffffffffffffffffff1602179055506141bc8061005e6000396000f300606060405260043610610057576000357c0100000000000000000000000000000000000000000000000000000000900463ffffffff1680631c695d2b1461005c5780638da5cb5b14610108578063f2fde38b1461015d575b600080fd5b341561006757600080fd5b6100c6600480803573ffffffffffffffffffffffffffffffffffffffff1690602001909190803573ffffffffffffffffffffffffffffffffffffffff169060200190919080359060200190820180359060200191909192905050610196565b604051808273ffffffffffffffffffffffffffffffffffffffff1673ffffffffffffffffffffffffffffffffffffffff16815260200191505060405180910390f35b341561011357600080fd5b61011b6103cb565b604051808273ffffffffffffffffffffffffffffffffffffffff1673ffffffffffffffffffffffffffffffffffffffff16815260200191505060405180910390f35b341561016857600080fd5b610194600480803573ffffffffffffffffffffffffffffffffffffffff169060200190919050506103f0565b005b60008060009054906101000a900473ffffffffffffffffffffffffffffffffffffffff1673ffffffffffffffffffffffffffffffffffffffff163373ffffffffffffffffffffffffffffffffffffffff161415156101f357600080fd5b6000809054906101000a900473ffffffffffffffffffffffffffffffffffffffff1685858585610221610545565b808673ffffffffffffffffffffffffffffffffffffffff1673ffffffffffffffffffffffffffffffffffffffff1681526020018573ffffffffffffffffffffffffffffffffffffffff1673ffffffffffffffffffffffffffffffffffffffff1681526020018473ffffffffffffffffffffffffffffffffffffffff1673ffffffffffffffffffffffffffffffffffffffff16815260200180602001828103825284848281815260200192506020028082843782019150509650505050505050604051809103906000f08015156102f657600080fd5b90508073ffffffffffffffffffffffffffffffffffffffff1663f2fde38b6000809054906101000a900473ffffffffffffffffffffffffffffffffffffffff166040518263ffffffff167c0100000000000000000000000000000000000000000000000000000000028152600401808273ffffffffffffffffffffffffffffffffffffffff1673ffffffffffffffffffffffffffffffffffffffff168152602001915050600060405180830381600087803b15156103b357600080fd5b5af115156103c057600080fd5b505050949350505050565b6000809054906101000a900473ffffffffffffffffffffffffffffffffffffffff1681565b6000809054906101000a900473ffffffffffffffffffffffffffffffffffffffff1673ffffffffffffffffffffffffffffffffffffffff163373ffffffffffffffffffffffffffffffffffffffff1614151561044b57600080fd5b600073ffffffffffffffffffffffffffffffffffffffff168173ffffffffffffffffffffffffffffffffffffffff161415151561048757600080fd5b8073ffffffffffffffffffffffffffffffffffffffff166000809054906101000a900473ffffffffffffffffffffffffffffffffffffffff1673ffffffffffffffffffffffffffffffffffffffff167f8be0079c531659141344cd1fd0a4f28419497f9722a3daafe3b4186f6b6457e060405160405180910390a3806000806101000a81548173ffffffffffffffffffffffffffffffffffffffff021916908373ffffffffffffffffffffffffffffffffffffffff16021790555050565b604051613c3a806200055783390190560060606040526000601260006101000a81548160ff021916908360ff16021790555034156200002c57600080fd5b60405162003c3a38038062003c3a83398101604052808051906020019091908051906020019091908051906020019091908051820191905050336000806101000a81548173ffffffffffffffffffffffffffffffffffffffff021916908373ffffffffffffffffffffffffffffffffffffffff1602179055508173ffffffffffffffffffffffffffffffffffffffff166387ea09616040518163ffffffff167c0100000000000000000000000000000000000000000000000000000000028152600401602060405180830381600087803b15156200010957600080fd5b5af115156200011757600080fd5b50505060405180519050600d60146101000a81548160ff021916908360ff1602179055506000600d60149054906101000a900460ff1660ff161115156200015d57600080fd5b600d60149054906101000a900460ff1660ff168151101515156200018057600080fd5b600073ffffffffffffffffffffffffffffffffffffffff168473ffffffffffffffffffffffffffffffffffffffff1614151515620001bd57600080fd5b600073ffffffffffffffffffffffffffffffffffffffff168373ffffffffffffffffffffffffffffffffffffffff1614151515620001fa57600080fd5b600073ffffffffffffffffffffffffffffffffffffffff168273ffffffffffffffffffffffffffffffffffffffff16141515156200023757600080fd5b83600b60006101000a81548173ffffffffffffffffffffffffffffffffffffffff021916908373ffffffffffffffffffffffffffffffffffffffff16021790555082600c60006101000a81548173ffffffffffffffffffffffffffffffffffffffff021916908373ffffffffffffffffffffffffffffffffffffffff16021790555081600d60006101000a81548173ffffffffffffffffffffffffffffffffffffffff021916908373ffffffffffffffffffffffffffffffffffffffff16021790555080600f90805190602001906200031292919062000689565b50620003316200033b6401000000000262002d2a176401000000009004565b505050506200099b565b600060096001019050602060405190810160405280600160ff1660ff168152508160008060ff1660ff1681526020019081526020016000209060016200038392919062000718565b506040805190810160405280600260ff1660ff168152602001600360ff1660ff16815250816000600160ff1660ff168152602001908152602001600020906002620003d0929190620007c6565b50606060405190810160405280600460ff1660ff168152602001600560ff1660ff168152602001600260ff1660ff16815250816000600360ff1660ff1681526020019081526020016000209060036200042b92919062000874565b506040805190810160405280600760ff1660ff168152602001600660ff1660ff16815250816000600560ff1660ff16815260200190815260200160002090600262000478929190620007c6565b5062000497620004b96401000000000262002e8a176401000000009004565b6000600960000160016101000a81548160ff021916908360ff16021790555050565b6040805190810160405280601181526020017f5f696e697453746174654d616368696e65000000000000000000000000000000815250600015156008826040518082805190602001908083835b6020831015156200052d578051825260208201915060208101905060208303925062000506565b6001836020036101000a038019825116818451168082178552505050505050905001915050908152602001604051809103902060009054906101000a900460ff1615151415156200057d57600080fd5b6200059d6009620006266401000000000262002fdc176401000000009004565b60016008826040518082805190602001908083835b602083101515620005d95780518252602082019150602081019050602083039250620005b2565b6001836020036101000a038019825116818451168082178552505050505050905001915050908152602001604051809103902060006101000a81548160ff02191690831515021790555050565b600015158160000160009054906101000a900460ff1615151415156200064b57600080fd5b60018160000160016101000a81548160ff021916908360ff16021790555060018160000160006101000a81548160ff02191690831515021790555050565b82805482825590600052602060002090810192821562000705579160200282015b82811115620007045782518260006101000a81548173ffffffffffffffffffffffffffffffffffffffff021916908373ffffffffffffffffffffffffffffffffffffffff16021790555091602001919060010190620006aa565b5b50905062000714919062000922565b5090565b82805482825590600052602060002090601f01602090048101928215620007b35791602002820160005b838211156200078257835183826101000a81548160ff021916908360ff160217905550926020019260010160208160000104928301926001030262000742565b8015620007b15782816101000a81549060ff021916905560010160208160000104928301926001030262000782565b505b509050620007c2919062000968565b5090565b82805482825590600052602060002090601f01602090048101928215620008615791602002820160005b838211156200083057835183826101000a81548160ff021916908360ff1602179055509260200192600101602081600001049283019260010302620007f0565b80156200085f5782816101000a81549060ff021916905560010160208160000104928301926001030262000830565b505b50905062000870919062000968565b5090565b82805482825590600052602060002090601f016020900481019282156200090f5791602002820160005b83821115620008de57835183826101000a81548160ff021916908360ff16021790555092602001926001016020816000010492830192600103026200089e565b80156200090d5782816101000a81549060ff0219169055600101602081600001049283019260010302620008de565b505b5090506200091e919062000968565b5090565b6200096591905b808211156200096157600081816101000a81549073ffffffffffffffffffffffffffffffffffffffff02191690555060010162000929565b5090565b90565b6200099891905b808211156200099457600081816101000a81549060ff0219169055506001016200096f565b5090565b90565b61328f80620009ab6000396000f300606060405260043610610180576000357c0100000000000000000000000000000000000000000000000000000000900463ffffffff168063026d49ea1461018557806302b728ab146101b45780630c3f6acf146102095780630fb03aad146102385780631590d658146102d45780631a0bc596146103035780631c72fad41461035857806321514ef3146103875780634804b4ba146103b65780634e6b42a8146103df578063577bd3361461040d578063589094001461043c5780635cb045db1461049f5780635e405967146104ce57806364d3414c146105315780636936087d146105565780638129fc1c1461057c57806383197ef0146105915780638da5cb5b146105a6578063b225be42146105fb578063c36b33b014610621578063cbd315ae14610650578063cc0e82c11461067f578063cfdf677e146106ae578063d4aae0c4146106dd578063d6ccdca314610732578063d94c69aa1461076d578063e06452d01461079b578063f2fde38b146107ca578063f5074f4114610803575b600080fd5b341561019057600080fd5b61019861083c565b604051808260ff1660ff16815260200191505060405180910390f35b34156101bf57600080fd5b6101c7610841565b604051808273ffffffffffffffffffffffffffffffffffffffff1673ffffffffffffffffffffffffffffffffffffffff16815260200191505060405180910390f35b341561021457600080fd5b61021c610867565b604051808260ff1660ff16815260200191505060405180910390f35b341561024357600080fd5b6102596004808035906020019091905050610881565b6040518080602001828103825283818151815260200191508051906020019080838360005b8381101561029957808201518184015260208101905061027e565b50505050905090810190601f1680156102c65780820380516001836020036101000a031916815260200191505b509250505060405180910390f35b34156102df57600080fd5b6102e761093d565b604051808260ff1660ff16815260200191505060405180910390f35b341561030e57600080fd5b610316610942565b604051808273ffffffffffffffffffffffffffffffffffffffff1673ffffffffffffffffffffffffffffffffffffffff16815260200191505060405180910390f35b341561036357600080fd5b61036b610968565b604051808260ff1660ff16815260200191505060405180910390f35b341561039257600080fd5b61039a61096d565b604051808260ff1660ff16815260200191505060405180910390f35b34156103c157600080fd5b6103c9610972565b6040518082815260200191505060405180910390f35b34156103ea57600080fd5b61040b6004808035906020019082018035906020019190919290505061097f565b005b341561041857600080fd5b610420610b32565b604051808260ff1660ff16815260200191505060405180910390f35b341561044757600080fd5b61045d6004808035906020019091905050610b45565b604051808273ffffffffffffffffffffffffffffffffffffffff1673ffffffffffffffffffffffffffffffffffffffff16815260200191505060405180910390f35b34156104aa57600080fd5b6104b2610b84565b604051808260ff1660ff16815260200191505060405180910390f35b34156104d957600080fd5b6104ef6004808035906020019091905050610b89565b604051808273ffffffffffffffffffffffffffffffffffffffff1673ffffffffffffffffffffffffffffffffffffffff16815260200191505060405180910390f35b341561053c57600080fd5b61055460048080351515906020019091905050610bc8565b005b341561056157600080fd5b61057a600480803560ff16906020019091905050610d38565b005b341561058757600080fd5b61058f610e72565b005b341561059c57600080fd5b6105a4611329565b005b34156105b157600080fd5b6105b96113be565b604051808273ffffffffffffffffffffffffffffffffffffffff1673ffffffffffffffffffffffffffffffffffffffff16815260200191505060405180910390f35b341561060657600080fd5b61061f600480803560ff169060200190919050506113e3565b005b341561062c57600080fd5b610634611571565b604051808260ff1660ff16815260200191505060405180910390f35b341561065b57600080fd5b610663611576565b604051808260ff1660ff16815260200191505060405180910390f35b341561068a57600080fd5b61069261157b565b604051808260ff1660ff16815260200191505060405180910390f35b34156106b957600080fd5b6106c1611580565b604051808260ff1660ff16815260200191505060405180910390f35b34156106e857600080fd5b6106f0611593565b604051808273ffffffffffffffffffffffffffffffffffffffff1673ffffffffffffffffffffffffffffffffffffffff16815260200191505060405180910390f35b341561073d57600080fd5b61075360048080359060200190919050506115b9565b604051808215151515815260200191505060405180910390f35b610799600480803573ffffffffffffffffffffffffffffffffffffffff169060200190919050506115f8565b005b34156107a657600080fd5b6107ae61169d565b604051808260ff1660ff16815260200191505060405180910390f35b34156107d557600080fd5b610801600480803573ffffffffffffffffffffffffffffffffffffffff169060200190919050506116a2565b005b341561080e57600080fd5b61083a600480803573ffffffffffffffffffffffffffffffffffffffff169060200190919050506117f7565b005b600681565b600d60009054906101000a900473ffffffffffffffffffffffffffffffffffffffff1681565b6000600960000160019054906101000a900460ff16905090565b60138181548110151561089057fe5b90600052602060002090016000915090508054600181600116156101000203166002900480601f0160208091040260200160405190810160405280929190818152602001828054600181600116156101000203166002900480156109355780601f1061090a57610100808354040283529160200191610935565b820191906000526020600020905b81548152906001019060200180831161091857829003601f168201915b505050505081565b600581565b600b60009054906101000a900473ffffffffffffffffffffffffffffffffffffffff1681565b600081565b600181565b6000600e80549050905090565b60008061098a61186b565b509050600073ffffffffffffffffffffffffffffffffffffffff168173ffffffffffffffffffffffffffffffffffffffff16141515156109c957600080fd5b8073ffffffffffffffffffffffffffffffffffffffff163373ffffffffffffffffffffffffffffffffffffffff16141515610a0357600080fd5b8073ffffffffffffffffffffffffffffffffffffffff16638da5cb5b6040518163ffffffff167c0100000000000000000000000000000000000000000000000000000000028152600401602060405180830381600087803b1515610a6657600080fd5b5af11515610a7357600080fd5b5050506040518051905073ffffffffffffffffffffffffffffffffffffffff163273ffffffffffffffffffffffffffffffffffffffff16141515610ab657600080fd5b610abe61186b565b9250506001601183815481101515610ad257fe5b90600052602060002090602091828204019190066101000a81548160ff02191690831515021790555042601083815481101515610b0b57fe5b906000526020600020900181905550610b226118f4565b610b2c6007611b5e565b50505050565b601260009054906101000a900460ff1681565b600e81815481101515610b5457fe5b90600052602060002090016000915054906101000a900473ffffffffffffffffffffffffffffffffffffffff1681565b600481565b600f81815481101515610b9857fe5b90600052602060002090016000915054906101000a900473ffffffffffffffffffffffffffffffffffffffff1681565b6000610bd261186b565b509050600073ffffffffffffffffffffffffffffffffffffffff168173ffffffffffffffffffffffffffffffffffffffff1614151515610c1157600080fd5b8073ffffffffffffffffffffffffffffffffffffffff163373ffffffffffffffffffffffffffffffffffffffff16141515610c4b57600080fd5b8073ffffffffffffffffffffffffffffffffffffffff16638da5cb5b6040518163ffffffff167c0100000000000000000000000000000000000000000000000000000000028152600401602060405180830381600087803b1515610cae57600080fd5b5af11515610cbb57600080fd5b5050506040518051905073ffffffffffffffffffffffffffffffffffffffff163273ffffffffffffffffffffffffffffffffffffffff16141515610cfe57600080fd5b60018060ff16600960000160019054906101000a900460ff1660ff16141515610d2657600080fd5b610d338360006003611cf0565b505050565b6000610d4261186b565b509050600073ffffffffffffffffffffffffffffffffffffffff168173ffffffffffffffffffffffffffffffffffffffff1614151515610d8157600080fd5b8073ffffffffffffffffffffffffffffffffffffffff163373ffffffffffffffffffffffffffffffffffffffff16141515610dbb57600080fd5b8073ffffffffffffffffffffffffffffffffffffffff16638da5cb5b6040518163ffffffff167c0100000000000000000000000000000000000000000000000000000000028152600401602060405180830381600087803b1515610e1e57600080fd5b5af11515610e2b57600080fd5b5050506040518051905073ffffffffffffffffffffffffffffffffffffffff163273ffffffffffffffffffffffffffffffffffffffff16141515610e6e57600080fd5b5050565b60008060008060ff16600960000160019054906101000a900460ff1660ff16141515610e9d57600080fd5b60016000600960000160019054906101000a900460ff169050610eca826009611eaa90919063ffffffff16565b600d60149054906101000a900460ff1660ff16604051805910610eea5750595b9080825280602002602001820160405250600e9080519060200190610f1092919061298d565b50600d60149054906101000a900460ff1660ff16604051805910610f315750595b908082528060200260200182016040525060109080519060200190610f57929190612a17565b50600d60149054906101000a900460ff1660ff16604051805910610f785750595b908082528060200260200182016040525060119080519060200190610f9e929190612a64565b50600094505b600d60149054906101000a900460ff1660ff168560ff1610156111ad57600060118660ff16815481101515610fd557fe5b90600052602060002090602091828204019190066101000a81548160ff0219169083151502179055504260108660ff1681548110151561101157fe5b906000526020600020900181905550600f8560ff1681548110151561103257fe5b906000526020600020900160009054906101000a900473ffffffffffffffffffffffffffffffffffffffff16600e8660ff1681548110151561107057fe5b906000526020600020900160006101000a81548173ffffffffffffffffffffffffffffffffffffffff021916908373ffffffffffffffffffffffffffffffffffffffff160217905550600e8560ff168154811015156110cb57fe5b906000526020600020900160009054906101000a900473ffffffffffffffffffffffffffffffffffffffff1673ffffffffffffffffffffffffffffffffffffffff1663897399ae306040518263ffffffff167c0100000000000000000000000000000000000000000000000000000000028152600401808273ffffffffffffffffffffffffffffffffffffffff1673ffffffffffffffffffffffffffffffffffffffff168152602001915050600060405180830381600087803b151561119057600080fd5b5af1151561119d57600080fd5b5050508480600101955050610fa4565b8460ff1693505b600f805490508461ffff16101561127357600f80548060010182816111d99190612b0a565b91600052602060002090016000600f8761ffff168154811015156111f957fe5b906000526020600020900160009054906101000a900473ffffffffffffffffffffffffffffffffffffffff16909190916101000a81548173ffffffffffffffffffffffffffffffffffffffff021916908373ffffffffffffffffffffffffffffffffffffffff1602179055505083806001019450506111b4565b7f7e0d09ae7160446fde9323338cdbe3e98cc2d5197108e8a3c5e037265288335d60405160405180910390a181600960000160016101000a81548160ff021916908360ff1602179055507fe8a97ea87e4388fa22d496b95a8ed5ced6717f49790318de2b928aaf37a021d881600960000160019054906101000a900460ff16604051808360ff1660ff1681526020018260ff1660ff1681526020019250505060405180910390a1611322611f7a565b5050505050565b6000809054906101000a900473ffffffffffffffffffffffffffffffffffffffff1673ffffffffffffffffffffffffffffffffffffffff163373ffffffffffffffffffffffffffffffffffffffff1614151561138457600080fd5b6000809054906101000a900473ffffffffffffffffffffffffffffffffffffffff1673ffffffffffffffffffffffffffffffffffffffff16ff5b6000809054906101000a900473ffffffffffffffffffffffffffffffffffffffff1681565b60006113ed61186b565b509050600073ffffffffffffffffffffffffffffffffffffffff168173ffffffffffffffffffffffffffffffffffffffff161415151561142c57600080fd5b8073ffffffffffffffffffffffffffffffffffffffff163373ffffffffffffffffffffffffffffffffffffffff1614151561146657600080fd5b8073ffffffffffffffffffffffffffffffffffffffff16638da5cb5b6040518163ffffffff167c0100000000000000000000000000000000000000000000000000000000028152600401602060405180830381600087803b15156114c957600080fd5b5af115156114d657600080fd5b5050506040518051905073ffffffffffffffffffffffffffffffffffffffff163273ffffffffffffffffffffffffffffffffffffffff1614151561151957600080fd5b60028081111561152557fe5b82600281111561153157fe5b1415611546576115416004612281565b61156d565b61156c6000600281111561155657fe5b83600281111561156257fe5b1460016005611cf0565b5b5050565b600281565b600381565b60ff81565b600d60149054906101000a900460ff1681565b600c60009054906101000a900473ffffffffffffffffffffffffffffffffffffffff1681565b6000600115156011838154811015156115ce57fe5b90600052602060002090602091828204019190069054906101000a900460ff161515149050919050565b6000600160ff16600960000160019054906101000a900460ff1660ff1614806116395750600360ff16600960000160019054906101000a900460ff1660ff16145b8061165c5750600560ff16600960000160019054906101000a900460ff1660ff16145b151561166757600080fd5b61167082612335565b905061070860108281548110151561168457fe5b906000526020600020905050506116996118f4565b5050565b600781565b6000809054906101000a900473ffffffffffffffffffffffffffffffffffffffff1673ffffffffffffffffffffffffffffffffffffffff163373ffffffffffffffffffffffffffffffffffffffff161415156116fd57600080fd5b600073ffffffffffffffffffffffffffffffffffffffff168173ffffffffffffffffffffffffffffffffffffffff161415151561173957600080fd5b8073ffffffffffffffffffffffffffffffffffffffff166000809054906101000a900473ffffffffffffffffffffffffffffffffffffffff1673ffffffffffffffffffffffffffffffffffffffff167f8be0079c531659141344cd1fd0a4f28419497f9722a3daafe3b4186f6b6457e060405160405180910390a3806000806101000a81548173ffffffffffffffffffffffffffffffffffffffff021916908373ffffffffffffffffffffffffffffffffffffffff16021790555050565b6000809054906101000a900473ffffffffffffffffffffffffffffffffffffffff1673ffffffffffffffffffffffffffffffffffffffff163373ffffffffffffffffffffffffffffffffffffffff1614151561185257600080fd5b8073ffffffffffffffffffffffffffffffffffffffff16ff5b60008061187733612335565b9050600e805490508111156118b25760007fffffffffffffffffffffffffffffffffffffffffffffffffffffffffffffffff915091506118f0565b600e818154811015156118c157fe5b906000526020600020900160009054906101000a900473ffffffffffffffffffffffffffffffffffffffff1691505b9091565b6000806000600160ff16600960000160019054906101000a900460ff1660ff1614806119385750600360ff16600960000160019054906101000a900460ff1660ff16145b8061195b5750600560ff16600960000160019054906101000a900460ff1660ff16145b151561196657600080fd5b600092505b601080549050831015611b595761070860108481548110151561198a57fe5b90600052602060002090015442031115611b4c57600e838154811015156119ad57fe5b906000526020600020900160009054906101000a900473ffffffffffffffffffffffffffffffffffffffff169150600160ff16600960000160019054906101000a900460ff1660ff161415611a055760009050611a60565b600360ff16600960000160019054906101000a900460ff1660ff161415611a2f5760029050611a5f565b600560ff16600960000160019054906101000a900460ff1660ff161415611a595760049050611a5e565b600080fd5b5b5b600b60009054906101000a900473ffffffffffffffffffffffffffffffffffffffff1673ffffffffffffffffffffffffffffffffffffffff16635ef1777683836040518363ffffffff167c0100000000000000000000000000000000000000000000000000000000028152600401808373ffffffffffffffffffffffffffffffffffffffff1673ffffffffffffffffffffffffffffffffffffffff168152602001826004811115611b0d57fe5b60ff16815260200192505050600060405180830381600087803b1515611b3257600080fd5b5af11515611b3f57600080fd5b505050611b4b836123f7565b5b828060010193505061196b565b505050565b600080600090505b601180549050811015611bc15760011515601182815481101515611b8657fe5b90600052602060002090602091828204019190069054906101000a900460ff161515141515611bb457611ceb565b8080600101915050611b66565b826000600960000160019054906101000a900460ff169050611bed826009611eaa90919063ffffffff16565b600093505b601080549050841015611c65576000601185815481101515611c1057fe5b90600052602060002090602091828204019190066101000a81548160ff02191690831515021790555042601085815481101515611c4957fe5b9060005260206000209001819055508380600101945050611bf2565b81600960000160016101000a81548160ff021916908360ff1602179055507fe8a97ea87e4388fa22d496b95a8ed5ced6717f49790318de2b928aaf37a021d881600960000160019054906101000a900460ff16604051808360ff1660ff1681526020018260ff1660ff1681526020019250505060405180910390a1611ce8611f7a565b50505b505050565b600080611cfb61186b565b91509150600073ffffffffffffffffffffffffffffffffffffffff168273ffffffffffffffffffffffffffffffffffffffff1614151515611d3b57600080fd5b600015158515151415611e3857611d51816123f7565b600b60009054906101000a900473ffffffffffffffffffffffffffffffffffffffff1673ffffffffffffffffffffffffffffffffffffffff16635ef1777683866040518363ffffffff167c0100000000000000000000000000000000000000000000000000000000028152600401808373ffffffffffffffffffffffffffffffffffffffff1673ffffffffffffffffffffffffffffffffffffffff168152602001826004811115611dfe57fe5b60ff16815260200192505050600060405180830381600087803b1515611e2357600080fd5b5af11515611e3057600080fd5b505050611ea3565b6001601182815481101515611e4957fe5b90600052602060002090602091828204019190066101000a81548160ff02191690831515021790555042601082815481101515611e8257fe5b906000526020600020900181905550611e996118f4565b611ea283611b5e565b5b5050505050565b600080600060ff8560000160019054906101000a900460ff1660ff1614151515611ed057fe5b600092508460010160008660000160019054906101000a900460ff1660ff1660ff1681526020019081526020016000209150600090505b8180549050811015611f60578360ff168282815481101515611f2557fe5b90600052602060002090602091828204019190069054906101000a900460ff1660ff161415611f5357600192505b8080600101915050611f07565b60011515831515141515611f7357600080fd5b5050505050565b600260ff16611f87610867565b60ff161415611fc9577f5f64b01e798e22b7b006309d50c085491c227a74e9cf11a922528b0d9a414de460405160405180910390a1611fc4612720565b61227f565b600360ff16611fd6610867565b60ff161415612010577f2d9c6af01e1c3857ef5720b6226a3b900b0db1a5a9430c53d8a35b4fccf2015560405160405180910390a161227e565b600460ff1661201d610867565b60ff16141561205f577f75be0ccc76f667c80f1c9ab66fafe78bd732b900403eb3f0da135c085955deca60405160405180910390a161205a612720565b61227d565b600560ff1661206c610867565b60ff1614156120a6577f51273f7efcba23797f509c81f07b426c6b9cdbee92a6a40389a405d0152178c960405160405180910390a161227c565b600660ff166120b3610867565b60ff161415612192577ff8d8e42e26bfacf74ecaff47cd43fa79d51c74d3a979d58521d12f369ad2bf7b6001604051808215151515815260200191505060405180910390a1600b60009054906101000a900473ffffffffffffffffffffffffffffffffffffffff1673ffffffffffffffffffffffffffffffffffffffff1663171317516040518163ffffffff167c0100000000000000000000000000000000000000000000000000000000028152600401600060405180830381600087803b151561217d57600080fd5b5af1151561218a57600080fd5b50505061227b565b600760ff1661219f610867565b60ff16141561227a577ff8d8e42e26bfacf74ecaff47cd43fa79d51c74d3a979d58521d12f369ad2bf7b6000604051808215151515815260200191505060405180910390a1600b60009054906101000a900473ffffffffffffffffffffffffffffffffffffffff1673ffffffffffffffffffffffffffffffffffffffff1663171317516040518163ffffffff167c0100000000000000000000000000000000000000000000000000000000028152600401600060405180830381600087803b151561226957600080fd5b5af1151561227657600080fd5b5050505b5b5b5b5b5b565b806000600960000160019054906101000a900460ff1690506122ad826009611eaa90919063ffffffff16565b81600960000160016101000a81548160ff021916908360ff1602179055507fe8a97ea87e4388fa22d496b95a8ed5ced6717f49790318de2b928aaf37a021d881600960000160019054906101000a900460ff16604051808360ff1660ff1681526020018260ff1660ff1681526020019250505060405180910390a1612330611f7a565b505050565b600080600090505b600e805490508110156123cd57600e8181548110151561235957fe5b906000526020600020900160009054906101000a900473ffffffffffffffffffffffffffffffffffffffff1673ffffffffffffffffffffffffffffffffffffffff163373ffffffffffffffffffffffffffffffffffffffff1614156123c0578091506123f1565b808060010191505061233d565b7fffffffffffffffffffffffffffffffffffffffffffffffffffffffffffffffff91505b50919050565b600060036005612413828260096127729092919063ffffffff16565b5b6000600f80549050141561242f5761242a612814565b61271a565b600f6001600f805490500381548110151561244657fe5b906000526020600020900160009054906101000a900473ffffffffffffffffffffffffffffffffffffffff1692506001600f8054905003600f8161248a9190612b36565b508273ffffffffffffffffffffffffffffffffffffffff1663ae897c556040518163ffffffff167c0100000000000000000000000000000000000000000000000000000000028152600401602060405180830381600087803b15156124ee57600080fd5b5af115156124fb57600080fd5b5050506040518051905060ff168373ffffffffffffffffffffffffffffffffffffffff16630c3f6acf6040518163ffffffff167c0100000000000000000000000000000000000000000000000000000000028152600401602060405180830381600087803b151561256b57600080fd5b5af1151561257857600080fd5b5050506040518051905060ff1614151561259157612414565b60006011858154811015156125a257fe5b90600052602060002090602091828204019190066101000a81548160ff021916908315150217905550426010858154811015156125db57fe5b90600052602060002090018190555082600e858154811015156125fa57fe5b906000526020600020900160006101000a81548173ffffffffffffffffffffffffffffffffffffffff021916908373ffffffffffffffffffffffffffffffffffffffff1602179055508273ffffffffffffffffffffffffffffffffffffffff1663897399ae306040518263ffffffff167c0100000000000000000000000000000000000000000000000000000000028152600401808273ffffffffffffffffffffffffffffffffffffffff1673ffffffffffffffffffffffffffffffffffffffff168152602001915050600060405180830381600087803b15156126dd57600080fd5b5af115156126ea57600080fd5b5050507f7e0d09ae7160446fde9323338cdbe3e98cc2d5197108e8a3c5e037265288335d60405160405180910390a15b50505050565b6000600f8161272f9190612b36565b506000600e8161273f9190612b36565b50600060138161274f9190612b62565b50600060118161275f9190612b8e565b50600060108161276f9190612bc8565b50565b600061277c612bf4565b600080925060408051908101604052808660ff1660ff1681526020018560ff1660ff168152509150600090505b60028110156127f9578560000160019054906101000a900460ff1660ff1682826002811015156127d557fe5b602002015160ff1614156127ec57600192506127f9565b80806001019150506127a9565b6001151583151514151561280c57600080fd5b505050505050565b6000600160ff16600960000160019054906101000a900460ff1660ff1614806128555750600360ff16600960000160019054906101000a900460ff1660ff16145b806128785750600560ff16600960000160019054906101000a900460ff1660ff16145b151561288357600080fd5b600090505b600e8054905081101561294f57600e818154811015156128a457fe5b906000526020600020900160009054906101000a900473ffffffffffffffffffffffffffffffffffffffff1673ffffffffffffffffffffffffffffffffffffffff1663b07c74756040518163ffffffff167c0100000000000000000000000000000000000000000000000000000000028152600401600060405180830381600087803b151561293257600080fd5b5af1151561293f57600080fd5b5050508080600101915050612888565b600560ff16600960000160019054906101000a900460ff1660ff16141561297f5761297a6006612281565b61298a565b6129896002612281565b5b50565b828054828255906000526020600020908101928215612a06579160200282015b82811115612a055782518260006101000a81548173ffffffffffffffffffffffffffffffffffffffff021916908373ffffffffffffffffffffffffffffffffffffffff160217905550916020019190600101906129ad565b5b509050612a139190612c1e565b5090565b828054828255906000526020600020908101928215612a53579160200282015b82811115612a52578251825591602001919060010190612a37565b5b509050612a609190612c61565b5090565b82805482825590600052602060002090601f01602090048101928215612af95791602002820160005b83821115612aca57835183826101000a81548160ff0219169083151502179055509260200192600101602081600001049283019260010302612a8d565b8015612af75782816101000a81549060ff0219169055600101602081600001049283019260010302612aca565b505b509050612b069190612c86565b5090565b815481835581811511612b3157818360005260206000209182019101612b309190612c61565b5b505050565b815481835581811511612b5d57818360005260206000209182019101612b5c9190612c61565b5b505050565b815481835581811511612b8957818360005260206000209182019101612b889190612cb6565b5b505050565b815481835581811511612bc357601f016020900481601f01602090048360005260206000209182019101612bc29190612c61565b5b505050565b815481835581811511612bef57818360005260206000209182019101612bee9190612c61565b5b505050565b60408051908101604052806002905b600060ff16815260200190600190039081612c035790505090565b612c5e91905b80821115612c5a57600081816101000a81549073ffffffffffffffffffffffffffffffffffffffff021916905550600101612c24565b5090565b90565b612c8391905b80821115612c7f576000816000905550600101612c67565b5090565b90565b612cb391905b80821115612caf57600081816101000a81549060ff021916905550600101612c8c565b5090565b90565b612cdf91905b80821115612cdb5760008181612cd29190612ce2565b50600101612cbc565b5090565b90565b50805460018160011615610100020316600290046000825580601f10612d085750612d27565b601f016020900490600052602060002090810190612d269190612c61565b5b50565b600060096001019050602060405190810160405280600160ff1660ff168152508160008060ff1660ff168152602001908152602001600020906001612d7092919061303e565b506040805190810160405280600260ff1660ff168152602001600360ff1660ff16815250816000600160ff1660ff168152602001908152602001600020906002612dbb9291906130e5565b50606060405190810160405280600460ff1660ff168152602001600560ff1660ff168152602001600260ff1660ff16815250816000600360ff1660ff168152602001908152602001600020906003612e1492919061318c565b506040805190810160405280600760ff1660ff168152602001600660ff1660ff16815250816000600560ff1660ff168152602001908152602001600020906002612e5f9291906130e5565b50612e68612e8a565b6000600960000160016101000a81548160ff021916908360ff16021790555050565b6040805190810160405280601181526020017f5f696e697453746174654d616368696e65000000000000000000000000000000815250600015156008826040518082805190602001908083835b602083101515612efc5780518252602082019150602081019050602083039250612ed7565b6001836020036101000a038019825116818451168082178552505050505050905001915050908152602001604051809103902060009054906101000a900460ff161515141515612f4b57600080fd5b612f556009612fdc565b60016008826040518082805190602001908083835b602083101515612f8f5780518252602082019150602081019050602083039250612f6a565b6001836020036101000a038019825116818451168082178552505050505050905001915050908152602001604051809103902060006101000a81548160ff02191690831515021790555050565b600015158160000160009054906101000a900460ff16151514151561300057600080fd5b60018160000160016101000a81548160ff021916908360ff16021790555060018160000160006101000a81548160ff02191690831515021790555050565b82805482825590600052602060002090601f016020900481019282156130d45791602002820160005b838211156130a557835183826101000a81548160ff021916908360ff1602179055509260200192600101602081600001049283019260010302613067565b80156130d25782816101000a81549060ff02191690556001016020816000010492830192600103026130a5565b505b5090506130e19190613233565b5090565b82805482825590600052602060002090601f0160209004810192821561317b5791602002820160005b8382111561314c57835183826101000a81548160ff021916908360ff160217905550926020019260010160208160000104928301926001030261310e565b80156131795782816101000a81549060ff021916905560010160208160000104928301926001030261314c565b505b5090506131889190613233565b5090565b82805482825590600052602060002090601f016020900481019282156132225791602002820160005b838211156131f357835183826101000a81548160ff021916908360ff16021790555092602001926001016020816000010492830192600103026131b5565b80156132205782816101000a81549060ff02191690556001016020816000010492830192600103026131f3565b505b50905061322f9190613233565b5090565b61326091905b8082111561325c57600081816101000a81549060ff021916905550600101613239565b5090565b905600a165627a7a723058209455ab1d4a7c7508323bc1d474d903cfd4cae8df5428418d5fac68cbe20dd0350029a165627a7a72305820db7b296cc961faa6a79f2cb26b73edefe051dece20496aa621bcbf61e6011dff0029",
  "source": "pragma solidity ^0.4.18;\n\nimport 'zeppelin-solidity/contracts/ownership/Ownable.sol';\nimport '../../jobs/CognitiveJob.sol';\nimport '../../entities/IDataEntity.sol';\nimport '../../entities/IDataset.sol';\nimport '../../entities/IKernel.sol';\nimport '../../nodes/IWorkerNode.sol';\nimport '../IPandora.sol';\n\ncontract CognitiveJobFactory is Ownable {\n    function CognitiveJobFactory() public { }\n\n    function create(\n        IKernel _kernel,\n        IDataset _dataset,\n        IWorkerNode[] _workersPool\n    )\n    onlyOwner\n    external\n    returns (CognitiveJob o_cognitiveJob) {\n        // Creating job\n        o_cognitiveJob = new CognitiveJob(IPandora(owner), _kernel, _dataset, _workersPool);\n\n//        // Checking that it was created correctly\n//        assert(o_cognitiveJob != CognitiveJob(0));\n\n        // Transferring ownership to the main Pandora contract (which owns this factory)\n        o_cognitiveJob.transferOwnership(owner);\n    }\n}\n",
  "sourcePath": "/home/aleksei/pandora-pyrrha/pyrrha-consensus/contracts/pandora/factories/CognitiveJobFactory.sol",
  "compiler": {
    "name": "solc",
    "version": "0.4.21+commit.dfe3193c.Emscripten.clang"
  },
  "schemaVersion": "2.0.0",
  "updatedAt": "2018-04-11T12:12:45.965Z"
}