{
  "contractName": "CognitiveJobController",
  "abi": [
    {
      "constant": true,
      "inputs": [
        {
          "name": "",
          "type": "uint256"
        }
      ],
      "name": "completedJobs",
      "outputs": [
        {
          "name": "id",
          "type": "bytes32"
        },
        {
          "name": "kernel",
          "type": "address"
        },
        {
          "name": "dataset",
          "type": "address"
        },
        {
          "name": "complexity",
          "type": "uint256"
        },
        {
          "name": "description",
          "type": "bytes32"
        },
        {
          "name": "progress",
          "type": "uint8"
        },
        {
          "name": "state",
          "type": "uint8"
        }
      ],
      "payable": false,
      "stateMutability": "view",
      "type": "function"
    },
    {
      "constant": true,
      "inputs": [
        {
          "name": "",
          "type": "bytes32"
        }
      ],
      "name": "completedJobsIndexes",
      "outputs": [
        {
          "name": "",
          "type": "uint16"
        }
      ],
      "payable": false,
      "stateMutability": "view",
      "type": "function"
    },
    {
      "constant": true,
      "inputs": [
        {
          "name": "",
          "type": "bytes32"
        }
      ],
      "name": "activeJobsIndexes",
      "outputs": [
        {
          "name": "",
          "type": "uint16"
        }
      ],
      "payable": false,
      "stateMutability": "view",
      "type": "function"
    },
    {
      "constant": false,
      "inputs": [],
      "name": "renounceOwnership",
      "outputs": [],
      "payable": false,
      "stateMutability": "nonpayable",
      "type": "function"
    },
    {
      "constant": true,
      "inputs": [],
      "name": "owner",
      "outputs": [
        {
          "name": "",
          "type": "address"
        }
      ],
      "payable": false,
      "stateMutability": "view",
      "type": "function"
    },
    {
      "constant": true,
      "inputs": [
        {
          "name": "",
          "type": "uint8"
        },
        {
          "name": "",
          "type": "uint256"
        }
      ],
      "name": "transitionTable",
      "outputs": [
        {
          "name": "",
          "type": "uint8"
        }
      ],
      "payable": false,
      "stateMutability": "view",
      "type": "function"
    },
    {
      "constant": false,
      "inputs": [
        {
          "name": "_newOwner",
          "type": "address"
        }
      ],
      "name": "transferOwnership",
      "outputs": [],
      "payable": false,
      "stateMutability": "nonpayable",
      "type": "function"
    },
    {
      "inputs": [],
      "payable": false,
      "stateMutability": "nonpayable",
      "type": "constructor"
    },
    {
      "anonymous": false,
      "inputs": [
        {
          "indexed": true,
          "name": "jobId",
          "type": "bytes32"
        },
        {
          "indexed": false,
          "name": "oldState",
          "type": "uint8"
        },
        {
          "indexed": false,
          "name": "newState",
          "type": "uint8"
        }
      ],
      "name": "JobStateChanged",
      "type": "event"
    },
    {
      "anonymous": false,
      "inputs": [
        {
          "indexed": true,
          "name": "jobId",
          "type": "bytes32"
        }
      ],
      "name": "WorkersUpdated",
      "type": "event"
    },
    {
      "anonymous": false,
      "inputs": [
        {
          "indexed": true,
          "name": "jobId",
          "type": "bytes32"
        }
      ],
      "name": "WorkersNotFound",
      "type": "event"
    },
    {
      "anonymous": false,
      "inputs": [
        {
          "indexed": true,
          "name": "jobId",
          "type": "bytes32"
        }
      ],
      "name": "DataValidationStarted",
      "type": "event"
    },
    {
      "anonymous": false,
      "inputs": [
        {
          "indexed": true,
          "name": "jobId",
          "type": "bytes32"
        }
      ],
      "name": "DataValidationFailed",
      "type": "event"
    },
    {
      "anonymous": false,
      "inputs": [
        {
          "indexed": true,
          "name": "jobId",
          "type": "bytes32"
        }
      ],
      "name": "CognitionStarted",
      "type": "event"
    },
    {
      "anonymous": false,
      "inputs": [
        {
          "indexed": true,
          "name": "jobId",
          "type": "bytes32"
        },
        {
          "indexed": false,
          "name": "precent",
          "type": "uint8"
        }
      ],
      "name": "CognitionProgressed",
      "type": "event"
    },
    {
      "anonymous": false,
      "inputs": [
        {
          "indexed": true,
          "name": "jobId",
          "type": "bytes32"
        },
        {
          "indexed": false,
          "name": "partialResult",
          "type": "bool"
        }
      ],
      "name": "CognitionCompleted",
      "type": "event"
    },
    {
      "anonymous": false,
      "inputs": [
        {
          "indexed": true,
          "name": "previousOwner",
          "type": "address"
        }
      ],
      "name": "OwnershipRenounced",
      "type": "event"
    },
    {
      "anonymous": false,
      "inputs": [
        {
          "indexed": true,
          "name": "previousOwner",
          "type": "address"
        },
        {
          "indexed": true,
          "name": "newOwner",
          "type": "address"
        }
      ],
      "name": "OwnershipTransferred",
      "type": "event"
    },
    {
      "constant": true,
      "inputs": [],
      "name": "activeJobsCount",
      "outputs": [
        {
          "name": "",
          "type": "uint256"
        }
      ],
      "payable": false,
      "stateMutability": "view",
      "type": "function"
    },
    {
      "constant": true,
      "inputs": [],
      "name": "completedJobsCount",
      "outputs": [
        {
          "name": "",
          "type": "uint256"
        }
      ],
      "payable": false,
      "stateMutability": "view",
      "type": "function"
    },
    {
      "constant": true,
      "inputs": [
        {
          "name": "_index",
          "type": "uint16"
        },
        {
          "name": "_isActive",
          "type": "bool"
        }
      ],
      "name": "getJobId",
      "outputs": [
        {
          "name": "",
          "type": "bytes32"
        }
      ],
      "payable": false,
      "stateMutability": "view",
      "type": "function"
    },
    {
      "constant": true,
      "inputs": [
        {
          "name": "_jobId",
          "type": "bytes32"
        }
      ],
      "name": "getCognitiveJobDetails",
      "outputs": [
        {
          "name": "kernel",
          "type": "address"
        },
        {
          "name": "dataset",
          "type": "address"
        },
        {
          "name": "complexity",
          "type": "uint256"
        },
        {
          "name": "description",
          "type": "bytes32"
        },
        {
          "name": "activeWorkers",
          "type": "address[]"
        },
        {
          "name": "progress",
          "type": "uint8"
        },
        {
          "name": "state",
          "type": "uint8"
        }
      ],
      "payable": false,
      "stateMutability": "view",
      "type": "function"
    },
    {
      "constant": true,
      "inputs": [
        {
          "name": "_jobId",
          "type": "bytes32"
        },
        {
          "name": "_index",
          "type": "uint8"
        }
      ],
      "name": "getCognitiveJobResults",
      "outputs": [
        {
          "name": "ipfsResults",
          "type": "bytes"
        }
      ],
      "payable": false,
      "stateMutability": "view",
      "type": "function"
    },
    {
      "constant": true,
      "inputs": [
        {
          "name": "_jobId",
          "type": "bytes32"
        }
      ],
      "name": "getCognitiveJobServiceInfo",
      "outputs": [
        {
          "name": "responseTimestamps",
          "type": "uint32[]"
        },
        {
          "name": "responseFlags",
          "type": "bool[]"
        }
      ],
      "payable": false,
      "stateMutability": "view",
      "type": "function"
    },
    {
      "constant": false,
      "inputs": [
        {
          "name": "_kernel",
          "type": "address"
        },
        {
          "name": "_dataset",
          "type": "address"
        },
        {
          "name": "_assignedWorkers",
          "type": "address[]"
        },
        {
          "name": "_complexity",
          "type": "uint256"
        },
        {
          "name": "_description",
          "type": "bytes32"
        }
      ],
      "name": "createCognitiveJob",
      "outputs": [
        {
          "name": "id",
          "type": "bytes32"
        }
      ],
      "payable": false,
      "stateMutability": "nonpayable",
      "type": "function"
    },
    {
      "constant": false,
      "inputs": [
        {
          "name": "_jobId",
          "type": "bytes32"
        },
        {
          "name": "_workerId",
          "type": "address"
        },
        {
          "name": "_responseType",
          "type": "uint8"
        },
        {
          "name": "_response",
          "type": "bool"
        }
      ],
      "name": "onWorkerResponse",
      "outputs": [
        {
          "name": "result",
          "type": "bool"
        }
      ],
      "payable": false,
      "stateMutability": "nonpayable",
      "type": "function"
    },
    {
      "constant": false,
      "inputs": [
        {
          "name": "_jobId",
          "type": "bytes32"
        },
        {
          "name": "_workerId",
          "type": "address"
        },
        {
          "name": "_percent",
          "type": "uint8"
        }
      ],
      "name": "commitProgress",
      "outputs": [],
      "payable": false,
      "stateMutability": "nonpayable",
      "type": "function"
    },
    {
      "constant": false,
      "inputs": [
        {
          "name": "_jobId",
          "type": "bytes32"
        },
        {
          "name": "_workerId",
          "type": "address"
        },
        {
          "name": "_ipfsResults",
          "type": "bytes"
        }
      ],
      "name": "completeWork",
      "outputs": [
        {
          "name": "result",
          "type": "bool"
        }
      ],
      "payable": false,
      "stateMutability": "nonpayable",
      "type": "function"
    }
  ],
  "bytecode": "0x60806040523480156200001157600080fd5b50336000806101000a81548173ffffffffffffffffffffffffffffffffffffffff021916908373ffffffffffffffffffffffffffffffffffffffff1602179055506200006b62000071640100000000026401000000009004565b6200047c565b600060059050602060405190810160405280600160088111156200009157fe5b60ff1660ff16815250816000806008811115620000aa57fe5b60ff1660ff168152602001908152602001600020906001620000ce9291906200023f565b50604080519081016040528060026008811115620000e857fe5b60ff1660ff168152602001600360088111156200010157fe5b60ff1660ff16815250816000600160088111156200011b57fe5b60ff1660ff1681526020019081526020016000209060026200013f929190620002ed565b50606060405190810160405280600460088111156200015a57fe5b60ff1660ff168152602001600560088111156200017357fe5b60ff1660ff168152602001600260088111156200018c57fe5b60ff1660ff1681525081600060036008811115620001a657fe5b60ff1660ff168152602001908152602001600020906003620001ca9291906200039b565b50604080519081016040528060076008811115620001e457fe5b60ff1660ff16815260200160066008811115620001fd57fe5b60ff1660ff16815250816000600560088111156200021757fe5b60ff1660ff1681526020019081526020016000209060026200023b929190620002ed565b5050565b82805482825590600052602060002090601f01602090048101928215620002da5791602002820160005b83821115620002a957835183826101000a81548160ff021916908360ff160217905550926020019260010160208160000104928301926001030262000269565b8015620002d85782816101000a81549060ff0219169055600101602081600001049283019260010302620002a9565b505b509050620002e9919062000449565b5090565b82805482825590600052602060002090601f01602090048101928215620003885791602002820160005b838211156200035757835183826101000a81548160ff021916908360ff160217905550926020019260010160208160000104928301926001030262000317565b8015620003865782816101000a81549060ff021916905560010160208160000104928301926001030262000357565b505b50905062000397919062000449565b5090565b82805482825590600052602060002090601f01602090048101928215620004365791602002820160005b838211156200040557835183826101000a81548160ff021916908360ff1602179055509260200192600101602081600001049283019260010302620003c5565b8015620004345782816101000a81549060ff021916905560010160208160000104928301926001030262000405565b505b50905062000445919062000449565b5090565b6200047991905b808211156200047557600081816101000a81549060ff02191690555060010162000450565b5090565b90565b613ca9806200048c6000396000f3006080604052600436106100f1576000357c0100000000000000000000000000000000000000000000000000000000900463ffffffff1680631f9ca61d146100f65780632b4acd86146101d55780633605853f1461028c57806339d9de641461033b5780633b183eb5146104575780634028d76c146104d85780634a1f8abc1461055a5780635c2b37fa146105a7578063672d98d6146105d2578063715018a61461061f578063752f4a9c146106365780638da5cb5b1461068f578063ba0a9ef5146106e6578063c9b7b25b146107b4578063ead4d67914610812578063f21ee5c61461083d578063f2fde38b14610891575b600080fd5b34801561010257600080fd5b50610121600480360381019080803590602001909291905050506108d4565b6040518088600019166000191681526020018773ffffffffffffffffffffffffffffffffffffffff1673ffffffffffffffffffffffffffffffffffffffff1681526020018673ffffffffffffffffffffffffffffffffffffffff1673ffffffffffffffffffffffffffffffffffffffff16815260200185815260200184600019166000191681526020018360ff1660ff1681526020018260ff1660ff16815260200197505050505050505060405180910390f35b3480156101e157600080fd5b506102116004803603810190808035600019169060200190929190803560ff16906020019092919050505061097f565b6040518080602001828103825283818151815260200191508051906020019080838360005b83811015610251578082015181840152602081019050610236565b50505050905090810190601f16801561027e5780820380516001836020036101000a031916815260200191505b509250505060405180910390f35b34801561029857600080fd5b5061031d600480360381019080803573ffffffffffffffffffffffffffffffffffffffff169060200190929190803573ffffffffffffffffffffffffffffffffffffffff169060200190929190803590602001908201803590602001919091929391929390803590602001909291908035600019169060200190929190505050610aec565b60405180826000191660001916815260200191505060405180910390f35b34801561034757600080fd5b5061036a6004803603810190808035600019169060200190929190505050610fe3565b604051808873ffffffffffffffffffffffffffffffffffffffff1673ffffffffffffffffffffffffffffffffffffffff1681526020018773ffffffffffffffffffffffffffffffffffffffff1673ffffffffffffffffffffffffffffffffffffffff1681526020018681526020018560001916600019168152602001806020018460ff1660ff1681526020018360ff1660ff168152602001828103825285818151815260200191508051906020019060200280838360005b8381101561043d578082015181840152602081019050610422565b505050509050019850505050505050505060405180910390f35b34801561046357600080fd5b506104be6004803603810190808035600019169060200190929190803573ffffffffffffffffffffffffffffffffffffffff1690602001909291908035906020019082018035906020019190919293919293905050506111b4565b604051808215151515815260200191505060405180910390f35b3480156104e457600080fd5b506105406004803603810190808035600019169060200190929190803573ffffffffffffffffffffffffffffffffffffffff169060200190929190803560ff16906020019092919080351515906020019092919050505061145a565b604051808215151515815260200191505060405180910390f35b34801561056657600080fd5b50610589600480360381019080803560001916906020019092919050505061167b565b604051808261ffff1661ffff16815260200191505060405180910390f35b3480156105b357600080fd5b506105bc61169c565b6040518082815260200191505060405180910390f35b3480156105de57600080fd5b5061060160048036038101908080356000191690602001909291905050506116a9565b604051808261ffff1661ffff16815260200191505060405180910390f35b34801561062b57600080fd5b506106346116ca565b005b34801561064257600080fd5b50610671600480360381019080803561ffff1690602001909291908035151590602001909291905050506117cc565b60405180826000191660001916815260200191505060405180910390f35b34801561069b57600080fd5b506106a461182c565b604051808273ffffffffffffffffffffffffffffffffffffffff1673ffffffffffffffffffffffffffffffffffffffff16815260200191505060405180910390f35b3480156106f257600080fd5b506107156004803603810190808035600019169060200190929190505050611851565b604051808060200180602001838103835285818151815260200191508051906020019060200280838360005b8381101561075c578082015181840152602081019050610741565b50505050905001838103825284818151815260200191508051906020019060200280838360005b8381101561079e578082015181840152602081019050610783565b5050505090500194505050505060405180910390f35b3480156107c057600080fd5b506108106004803603810190808035600019169060200190929190803573ffffffffffffffffffffffffffffffffffffffff169060200190929190803560ff169060200190929190505050611a00565b005b34801561081e57600080fd5b50610827611bf0565b6040518082815260200191505060405180910390f35b34801561084957600080fd5b50610875600480360381019080803560ff16906020019092919080359060200190929190505050611bfd565b604051808260ff1660ff16815260200191505060405180910390f35b34801561089d57600080fd5b506108d2600480360381019080803573ffffffffffffffffffffffffffffffffffffffff169060200190929190505050611c3f565b005b6004818154811015156108e357fe5b90600052602060002090600a02016000915090508060000154908060010160009054906101000a900473ffffffffffffffffffffffffffffffffffffffff16908060020160009054906101000a900473ffffffffffffffffffffffffffffffffffffffff16908060030154908060040154908060090160009054906101000a900460ff16908060090160019054906101000a900460ff16905087565b6060600061098c84611ca6565b6109df57600460036000866000191660001916815260200190815260200160002060009054906101000a900461ffff1661ffff168154811015156109cc57fe5b90600052602060002090600a0201610a2a565b600260016000866000191660001916815260200190815260200160002060009054906101000a900461ffff1661ffff16815481101515610a1b57fe5b90600052602060002090600a02015b9050806006018360ff16815481101515610a4057fe5b906000526020600020018054600181600116156101000203166002900480601f016020809104026020016040519081016040528092919081815260200182805460018160011615610100020316600290048015610ade5780601f10610ab357610100808354040283529160200191610ade565b820191906000526020600020905b815481529060010190602001808311610ac157829003601f168201915b505050505091505092915050565b60008060008060009054906101000a900473ffffffffffffffffffffffffffffffffffffffff1673ffffffffffffffffffffffffffffffffffffffff163373ffffffffffffffffffffffffffffffffffffffff16141515610b4c57600080fd5b7fffffffffffffffffffffffffffffffffffffffffffffffffffffffffffffffff61ffff16600280549050101515610b8357600080fd5b43600280549050016040518082815260200191505060405180910390209250600261016060405190810160405280856000191681526020018b73ffffffffffffffffffffffffffffffffffffffff1681526020018a73ffffffffffffffffffffffffffffffffffffffff16815260200187815260200186600019168152602001898980806020026020016040519081016040528093929190818152602001838360200280828437820191505050505050815260200189899050604051908082528060200260200182016040528015610c6f57816020015b6060815260200190600190039081610c5a5790505b50815260200189899050604051908082528060200260200182016040528015610ca75781602001602082028038833980820191505090505b50815260200189899050604051908082528060200260200182016040528015610cdf5781602001602082028038833980820191505090505b508152602001600060ff16815260200160006008811115610cfc57fe5b60ff168152509080600181540180825580915050906001820390600052602060002090600a0201600090919290919091506000820151816000019060001916905560208201518160010160006101000a81548173ffffffffffffffffffffffffffffffffffffffff021916908373ffffffffffffffffffffffffffffffffffffffff16021790555060408201518160020160006101000a81548173ffffffffffffffffffffffffffffffffffffffff021916908373ffffffffffffffffffffffffffffffffffffffff160217905550606082015181600301556080820151816004019060001916905560a0820151816005019080519060200190610e019291906135ba565b5060c0820151816006019080519060200190610e1e929190613644565b5060e0820151816007019080519060200190610e3b9291906136a4565b50610100820151816008019080519060200190610e59929190613754565b506101208201518160090160006101000a81548160ff021916908360ff1602179055506101408201518160090160016101000a81548160ff021916908360ff16021790555050505060028054905060016000856000191660001916815260200190815260200160002060006101000a81548161ffff021916908361ffff16021790555060026001806000866000191660001916815260200190815260200160002060009054906101000a900461ffff160361ffff16815481101515610f1a57fe5b90600052602060002090600a02019150600090505b8160070180549050811015610f9057428260070182815481101515610f5057fe5b90600052602060002090600891828204019190066004026101000a81548163ffffffff021916908363ffffffff1602179055508080600101915050610f2f565b610fa68360016008811115610fa157fe5b611d2e565b82600019167fcdd8e82457800d3241f19b61393a2bbceb40e44253685afc406b2bb489c84ad360405160405180910390a250509695505050505050565b60008060008060606000806000610ff989611ca6565b61104c576004600360008b6000191660001916815260200190815260200160002060009054906101000a900461ffff1661ffff1681548110151561103957fe5b90600052602060002090600a0201611097565b6002600160008b6000191660001916815260200190815260200160002060009054906101000a900461ffff1661ffff1681548110151561108857fe5b90600052602060002090600a02015b90508060010160009054906101000a900473ffffffffffffffffffffffffffffffffffffffff1697508060020160009054906101000a900473ffffffffffffffffffffffffffffffffffffffff16965080600301549550806004015494508060050180548060200260200160405190810160405280929190818152602001828054801561117957602002820191906000526020600020905b8160009054906101000a900473ffffffffffffffffffffffffffffffffffffffff1673ffffffffffffffffffffffffffffffffffffffff168152602001906001019080831161112f575b505050505093508060090160009054906101000a900460ff1692508060090160019054906101000a900460ff16915050919395979092949650565b60008085600560088111156111c557fe5b8060ff1660026001806000866000191660001916815260200190815260200160002060009054906101000a900461ffff160361ffff1681548110151561120757fe5b90600052602060002090600a020160090160019054906101000a900460ff1660ff1614151561123557600080fd5b6000809054906101000a900473ffffffffffffffffffffffffffffffffffffffff1673ffffffffffffffffffffffffffffffffffffffff163373ffffffffffffffffffffffffffffffffffffffff1614151561129057600080fd5b61129a8888611f17565b92507fffffffffffffffffffffffffffffffffffffffffffffffffffffffffffffffff83141515156112cb57600080fd5b8585600260018060008d6000191660001916815260200190815260200160002060009054906101000a900461ffff160361ffff1681548110151561130b57fe5b90600052602060002090600a02016006018581548110151561132957fe5b9060005260206000200191906113409291906137fa565b503073ffffffffffffffffffffffffffffffffffffffff16634028d76c898960028081111561136b57fe5b60016040518563ffffffff167c01000000000000000000000000000000000000000000000000000000000281526004018085600019166000191681526020018473ffffffffffffffffffffffffffffffffffffffff1673ffffffffffffffffffffffffffffffffffffffff1681526020018360ff1660ff16815260200182151515158152602001945050505050602060405180830381600087803b15801561141257600080fd5b505af1158015611426573d6000803e3d6000fd5b505050506040513d602081101561143c57600080fd5b81019080805190602001909291905050509350505050949350505050565b600084600060026001806000856000191660001916815260200190815260200160002060009054906101000a900461ffff160361ffff1681548110151561149d57fe5b90600052602060002090600a02019050600160088111156114ba57fe5b60ff168160090160019054906101000a900460ff1660ff1614806115005750600360088111156114e657fe5b60ff168160090160019054906101000a900460ff1660ff16145b8061152d57506005600881111561151357fe5b60ff168160090160019054906101000a900460ff1660ff16145b151561153857600080fd5b6000809054906101000a900473ffffffffffffffffffffffffffffffffffffffff1673ffffffffffffffffffffffffffffffffffffffff163373ffffffffffffffffffffffffffffffffffffffff1614151561159357600080fd5b61159e87878661202e565b6115a787612087565b156116715760019250600060028111156115bd57fe5b60ff168560ff1614156115ee576115e087600160088111156115db57fe5b611d2e565b6115e987612149565b611670565b600160028111156115fb57fe5b60ff168560ff16141561162c5761161e876005600881111561161957fe5b611d2e565b61162787612149565b61166f565b60028081111561163857fe5b60ff168560ff1614156116695761165b876007600881111561165657fe5b611d2e565b61166487612241565b61166e565b600092505b5b5b5b5050949350505050565b60036020528060005260406000206000915054906101000a900461ffff1681565b6000600280549050905090565b60016020528060005260406000206000915054906101000a900461ffff1681565b6000809054906101000a900473ffffffffffffffffffffffffffffffffffffffff1673ffffffffffffffffffffffffffffffffffffffff163373ffffffffffffffffffffffffffffffffffffffff1614151561172557600080fd5b6000809054906101000a900473ffffffffffffffffffffffffffffffffffffffff1673ffffffffffffffffffffffffffffffffffffffff167ff8df31144d9c2f0f6b59d69b8b98abd5459d07f2742c4df920b25aae33c6482060405160405180910390a260008060006101000a81548173ffffffffffffffffffffffffffffffffffffffff021916908373ffffffffffffffffffffffffffffffffffffffff160217905550565b600080826117fa5760048461ffff168154811015156117e757fe5b90600052602060002090600a020161181c565b60028461ffff1681548110151561180d57fe5b90600052602060002090600a02015b9050806000015491505092915050565b6000809054906101000a900473ffffffffffffffffffffffffffffffffffffffff1681565b606080600061185f84611ca6565b6118b257600460036000866000191660001916815260200190815260200160002060009054906101000a900461ffff1661ffff1681548110151561189f57fe5b90600052602060002090600a02016118fd565b600260016000866000191660001916815260200190815260200160002060009054906101000a900461ffff1661ffff168154811015156118ee57fe5b90600052602060002090600a02015b90508060070180548060200260200160405190810160405280929190818152602001828054801561197957602002820191906000526020600020906000905b82829054906101000a900463ffffffff1663ffffffff168152602001906004019060208260030104928301926001038202915080841161193c5790505b50505050509250806008018054806020026020016040519081016040528092919081815260200182805480156119f357602002820191906000526020600020906000905b82829054906101000a900460ff161515815260200190600101906020826000010492830192600103820291508084116119bd5790505b5050505050915050915091565b60008360056008811115611a1057fe5b8060ff1660026001806000866000191660001916815260200190815260200160002060009054906101000a900461ffff160361ffff16815481101515611a5257fe5b90600052602060002090600a020160090160019054906101000a900460ff1660ff16141515611a8057600080fd5b6000809054906101000a900473ffffffffffffffffffffffffffffffffffffffff1673ffffffffffffffffffffffffffffffffffffffff163373ffffffffffffffffffffffffffffffffffffffff16141515611adb57600080fd5b611ae58686611f17565b92507fffffffffffffffffffffffffffffffffffffffffffffffffffffffffffffffff8314151515611b1657600080fd5b42600260018060008a6000191660001916815260200190815260200160002060009054906101000a900461ffff160361ffff16815481101515611b5557fe5b90600052602060002090600a020160070184815481101515611b7357fe5b90600052602060002090600891828204019190066004026101000a81548163ffffffff021916908363ffffffff16021790555085600019167f84d08018633e0a8a0ba434acc29166246cfe913279e254647ca8c2f24f13660785604051808260ff1660ff16815260200191505060405180910390a2505050505050565b6000600480549050905090565b600560205281600052604060002081815481101515611c1857fe5b9060005260206000209060209182820401919006915091509054906101000a900460ff1681565b6000809054906101000a900473ffffffffffffffffffffffffffffffffffffffff1673ffffffffffffffffffffffffffffffffffffffff163373ffffffffffffffffffffffffffffffffffffffff16141515611c9a57600080fd5b611ca381612f3e565b50565b60008060016000846000191660001916815260200190815260200160002060009054906101000a900461ffff1661ffff16141515611ce75760019050611d29565b600060036000846000191660001916815260200190815260200160002060009054906101000a900461ffff1661ffff1614151515611d2457600080fd5b600090505b919050565b6000808383600080600080925060056000600260018060008a6000191660001916815260200190815260200160002060009054906101000a900461ffff160361ffff16815481101515611d7d57fe5b90600052602060002090600a020160090160019054906101000a900460ff1660ff1660ff1681526020019081526020016000209150600090505b8180549050811015611e10578360ff168282815481101515611dd557fe5b90600052602060002090602091828204019190069054906101000a900460ff1660ff161415611e0357600192505b8080600101915050611db7565b60011515831515141515611e2357600080fd5b600260018060008c6000191660001916815260200190815260200160002060009054906101000a900461ffff160361ffff16815481101515611e6157fe5b90600052602060002090600a020196508660090160019054906101000a900460ff169550878760090160016101000a81548160ff021916908360ff16021790555088600019167f9cb99c834b5e878ca7005d163b0fd70203dbc223d5845abe517de64a74dc5816878960090160019054906101000a900460ff16604051808360ff1660ff1681526020018260ff1660ff1681526020019250505060405180910390a2611f0c89613038565b505050505050505050565b600080600060026001806000886000191660001916815260200190815260200160002060009054906101000a900461ffff160361ffff16815481101515611f5a57fe5b90600052602060002090600a02019150600090505b8160050180549050811015612002578373ffffffffffffffffffffffffffffffffffffffff168260050182815481101515611fa657fe5b9060005260206000200160009054906101000a900473ffffffffffffffffffffffffffffffffffffffff1673ffffffffffffffffffffffffffffffffffffffff161415611ff557809250612026565b8080600101915050611f6f565b7fffffffffffffffffffffffffffffffffffffffffffffffffffffffffffffffff92505b505092915050565b600061203a8484611f17565b90507fffffffffffffffffffffffffffffffffffffffffffffffffffffffffffffffff811415151561206b57600080fd5b6120768482846132a7565b61207f846133c2565b505050505050565b60008060006001925060026001806000876000191660001916815260200190815260200160002060009054906101000a900461ffff160361ffff168154811015156120ce57fe5b90600052602060002090600a02019150600090505b81600801805490508110156121425760011515826008018281548110151561210757fe5b90600052602060002090602091828204019190069054906101000a900460ff16151514151561213557600092505b80806001019150506120e3565b5050919050565b60008060026001806000866000191660001916815260200190815260200160002060009054906101000a900461ffff160361ffff1681548110151561218a57fe5b90600052602060002090600a02019150600090505b816008018054905081101561223c57600082600801828154811015156121c157fe5b90600052602060002090602091828204019190066101000a81548160ff0219169083151502179055504282600701828154811015156121fc57fe5b90600052602060002090600891828204019190066004026101000a81548163ffffffff021916908363ffffffff160217905550808060010191505061219f565b505050565b61224961387a565b61225161387a565b600260016000856000191660001916815260200190815260200160002060009054906101000a900461ffff1661ffff1681548110151561228d57fe5b90600052602060002090600a020161016060405190810160405290816000820154600019166000191681526020016001820160009054906101000a900473ffffffffffffffffffffffffffffffffffffffff1673ffffffffffffffffffffffffffffffffffffffff1673ffffffffffffffffffffffffffffffffffffffff1681526020016002820160009054906101000a900473ffffffffffffffffffffffffffffffffffffffff1673ffffffffffffffffffffffffffffffffffffffff1673ffffffffffffffffffffffffffffffffffffffff168152602001600382015481526020016004820154600019166000191681526020016005820180548060200260200160405190810160405280929190818152602001828054801561240757602002820191906000526020600020905b8160009054906101000a900473ffffffffffffffffffffffffffffffffffffffff1673ffffffffffffffffffffffffffffffffffffffff16815260200190600101908083116123bd575b5050505050815260200160068201805480602002602001604051908101604052809291908181526020016000905b828210156124f1578382906000526020600020018054600181600116156101000203166002900480601f0160208091040260200160405190810160405280929190818152602001828054600181600116156101000203166002900480156124dd5780601f106124b2576101008083540402835291602001916124dd565b820191906000526020600020905b8154815290600101906020018083116124c057829003601f168201915b505050505081526020019060010190612435565b5050505081526020016007820180548060200260200160405190810160405280929190818152602001828054801561257457602002820191906000526020600020906000905b82829054906101000a900463ffffffff1663ffffffff16815260200190600401906020826003010492830192600103820291508084116125375790505b50505050508152602001600882018054806020026020016040519081016040528092919081815260200182805480156125f157602002820191906000526020600020906000905b82829054906101000a900460ff161515815260200190600101906020826000010492830192600103820291508084116125bb5790505b505050505081526020016009820160009054906101000a900460ff1660ff1660ff1681526020016009820160019054906101000a900460ff1660ff1660ff168152505091506004829080600181540180825580915050906001820390600052602060002090600a0201600090919290919091506000820151816000019060001916905560208201518160010160006101000a81548173ffffffffffffffffffffffffffffffffffffffff021916908373ffffffffffffffffffffffffffffffffffffffff16021790555060408201518160020160006101000a81548173ffffffffffffffffffffffffffffffffffffffff021916908373ffffffffffffffffffffffffffffffffffffffff160217905550606082015181600301556080820151816004019060001916905560a08201518160050190805190602001906127389291906135ba565b5060c0820151816006019080519060200190612755929190613644565b5060e08201518160070190805190602001906127729291906136a4565b50610100820151816008019080519060200190612790929190613754565b506101208201518160090160006101000a81548160ff021916908360ff1602179055506101408201518160090160016101000a81548160ff021916908360ff16021790555050505060048054905060ff1660036000856000191660001916815260200190815260200160002060006101000a81548161ffff021916908361ffff16021790555060028054905060016000856000191660001916815260200190815260200160002060009054906101000a900461ffff1661ffff16141515612dd157600260016002805490500381548110151561286857fe5b90600052602060002090600a020161016060405190810160405290816000820154600019166000191681526020016001820160009054906101000a900473ffffffffffffffffffffffffffffffffffffffff1673ffffffffffffffffffffffffffffffffffffffff1673ffffffffffffffffffffffffffffffffffffffff1681526020016002820160009054906101000a900473ffffffffffffffffffffffffffffffffffffffff1673ffffffffffffffffffffffffffffffffffffffff1673ffffffffffffffffffffffffffffffffffffffff16815260200160038201548152602001600482015460001916600019168152602001600582018054806020026020016040519081016040528092919081815260200182805480156129e257602002820191906000526020600020905b8160009054906101000a900473ffffffffffffffffffffffffffffffffffffffff1673ffffffffffffffffffffffffffffffffffffffff1681526020019060010190808311612998575b5050505050815260200160068201805480602002602001604051908101604052809291908181526020016000905b82821015612acc578382906000526020600020018054600181600116156101000203166002900480601f016020809104026020016040519081016040528092919081815260200182805460018160011615610100020316600290048015612ab85780601f10612a8d57610100808354040283529160200191612ab8565b820191906000526020600020905b815481529060010190602001808311612a9b57829003601f168201915b505050505081526020019060010190612a10565b50505050815260200160078201805480602002602001604051908101604052809291908181526020018280548015612b4f57602002820191906000526020600020906000905b82829054906101000a900463ffffffff1663ffffffff1681526020019060040190602082600301049283019260010382029150808411612b125790505b5050505050815260200160088201805480602002602001604051908101604052809291908181526020018280548015612bcc57602002820191906000526020600020906000905b82829054906101000a900460ff16151581526020019060010190602082600001049283019260010382029150808411612b965790505b505050505081526020016009820160009054906101000a900460ff1660ff1660ff1681526020016009820160019054906101000a900460ff1660ff1660ff1681525050905080600260016000866000191660001916815260200190815260200160002060009054906101000a900461ffff1661ffff16815481101515612c4e57fe5b90600052602060002090600a02016000820151816000019060001916905560208201518160010160006101000a81548173ffffffffffffffffffffffffffffffffffffffff021916908373ffffffffffffffffffffffffffffffffffffffff16021790555060408201518160020160006101000a81548173ffffffffffffffffffffffffffffffffffffffff021916908373ffffffffffffffffffffffffffffffffffffffff160217905550606082015181600301556080820151816004019060001916905560a0820151816005019080519060200190612d309291906135ba565b5060c0820151816006019080519060200190612d4d929190613644565b5060e0820151816007019080519060200190612d6a9291906136a4565b50610100820151816008019080519060200190612d88929190613754565b506101208201518160090160006101000a81548160ff021916908360ff1602179055506101408201518160090160016101000a81548160ff021916908360ff1602179055509050505b600260016000856000191660001916815260200190815260200160002060009054906101000a900461ffff1661ffff16815481101515612e0d57fe5b90600052602060002090600a02016000808201600090556001820160006101000a81549073ffffffffffffffffffffffffffffffffffffffff02191690556002820160006101000a81549073ffffffffffffffffffffffffffffffffffffffff021916905560038201600090556004820160009055600582016000612e92919061390d565b600682016000612ea2919061392e565b600782016000612eb2919061394f565b600882016000612ec29190613977565b6009820160006101000a81549060ff02191690556009820160016101000a81549060ff02191690555050600060016000856000191660001916815260200190815260200160002060006101000a81548161ffff021916908361ffff1602179055506002805480919060019003612f38919061399f565b50505050565b600073ffffffffffffffffffffffffffffffffffffffff168173ffffffffffffffffffffffffffffffffffffffff1614151515612f7a57600080fd5b8073ffffffffffffffffffffffffffffffffffffffff166000809054906101000a900473ffffffffffffffffffffffffffffffffffffffff1673ffffffffffffffffffffffffffffffffffffffff167f8be0079c531659141344cd1fd0a4f28419497f9722a3daafe3b4186f6b6457e060405160405180910390a3806000806101000a81548173ffffffffffffffffffffffffffffffffffffffff021916908373ffffffffffffffffffffffffffffffffffffffff16021790555050565b600060026001806000856000191660001916815260200190815260200160002060009054906101000a900461ffff160361ffff1681548110151561307857fe5b90600052602060002090600a020160090160019054906101000a900460ff169050600260088111156130a657fe5b60ff168160ff1614156130e95781600019167f5261c4ecde326f171b514c548529aa2219b22fedf2fa5640ae6f7d939aaefbf860405160405180910390a26132a3565b600360088111156130f657fe5b60ff168160ff1614156131395781600019167f664052ccd6bc90c161d5b3a6ed2bff308e2bf01e52fbc112e7a8d445bb9c66ee60405160405180910390a26132a2565b6004600881111561314657fe5b60ff168160ff1614156131895781600019167fee170c67bd88e14fcfccdcf7817ddb732cb1a466d0c333f4642571d1282556eb60405160405180910390a26132a1565b6005600881111561319657fe5b60ff168160ff1614156131d95781600019167f3010926e292de172661e49071a9be4cb18f63877dffcc78013e349175f5b03b260405160405180910390a26132a0565b600660088111156131e657fe5b60ff168160ff1614156132395781600019167f439c5ac734864869b402ad7298724e0154a172f98a32de5c8e877b3f234dc5d76001604051808215151515815260200191505060405180910390a261329f565b6007600881111561324657fe5b60ff168160ff16141561329e5781600019167f439c5ac734864869b402ad7298724e0154a172f98a32de5c8e877b3f234dc5d76000604051808215151515815260200191505060405180910390a261329d82612241565b5b5b5b5b5b5b5050565b8060026001806000876000191660001916815260200190815260200160002060009054906101000a900461ffff160361ffff168154811015156132e657fe5b90600052602060002090600a02016008018381548110151561330457fe5b90600052602060002090602091828204019190066101000a81548160ff0219169083151502179055504260026001806000876000191660001916815260200190815260200160002060009054906101000a900461ffff160361ffff1681548110151561336c57fe5b90600052602060002090600a02016007018381548110151561338a57fe5b90600052602060002090600891828204019190066004026101000a81548163ffffffff021916908363ffffffff160217905550505050565b60008060008084600060026001806000856000191660001916815260200190815260200160002060009054906101000a900461ffff160361ffff1681548110151561340957fe5b90600052602060002090600a020190506001600881111561342657fe5b60ff168160090160019054906101000a900460ff1660ff16148061346c57506003600881111561345257fe5b60ff168160090160019054906101000a900460ff1660ff16145b8061349957506005600881111561347f57fe5b60ff168160090160019054906101000a900460ff1660ff16145b15156134a457600080fd5b600260018060008a6000191660001916815260200190815260200160002060009054906101000a900461ffff160361ffff168154811015156134e257fe5b90600052602060002090600a02019350600092505b83600701805490508310156135b157610708846007018481548110151561351a57fe5b90600052602060002090600891828204019190066004029054906101000a900463ffffffff164260ff160363ffffffff1611156135a457836005018381548110151561356257fe5b9060005260206000200160009054906101000a900473ffffffffffffffffffffffffffffffffffffffff1695508360090160019054906101000a900460ff1694505b82806001019350506134f7565b50505050915091565b828054828255906000526020600020908101928215613633579160200282015b828111156136325782518260006101000a81548173ffffffffffffffffffffffffffffffffffffffff021916908373ffffffffffffffffffffffffffffffffffffffff160217905550916020019190600101906135da565b5b50905061364091906139d1565b5090565b828054828255906000526020600020908101928215613693579160200282015b82811115613692578251829080519060200190613682929190613a14565b5091602001919060010190613664565b5b5090506136a09190613a94565b5090565b828054828255906000526020600020906007016008900481019282156137435791602002820160005b8382111561371157835183826101000a81548163ffffffff021916908363ffffffff16021790555092602001926004016020816003010492830192600103026136cd565b80156137415782816101000a81549063ffffffff0219169055600401602081600301049283019260010302613711565b505b5090506137509190613ac0565b5090565b82805482825590600052602060002090601f016020900481019282156137e95791602002820160005b838211156137ba57835183826101000a81548160ff021916908315150217905550926020019260010160208160000104928301926001030261377d565b80156137e75782816101000a81549060ff02191690556001016020816000010492830192600103026137ba565b505b5090506137f69190613af3565b5090565b828054600181600116156101000203166002900490600052602060002090601f016020900481019282601f1061383b57803560ff1916838001178555613869565b82800160010185558215613869579182015b8281111561386857823582559160200191906001019061384d565b5b5090506138769190613b23565b5090565b6101606040519081016040528060008019168152602001600073ffffffffffffffffffffffffffffffffffffffff168152602001600073ffffffffffffffffffffffffffffffffffffffff168152602001600081526020016000801916815260200160608152602001606081526020016060815260200160608152602001600060ff168152602001600060ff1681525090565b508054600082559060005260206000209081019061392b9190613b23565b50565b508054600082559060005260206000209081019061394c9190613a94565b50565b5080546000825560070160089004906000526020600020908101906139749190613b23565b50565b50805460008255601f01602090049060005260206000209081019061399c9190613b23565b50565b8154818355818111156139cc57600a0281600a0283600052602060002091820191016139cb9190613b48565b5b505050565b613a1191905b80821115613a0d57600081816101000a81549073ffffffffffffffffffffffffffffffffffffffff0219169055506001016139d7565b5090565b90565b828054600181600116156101000203166002900490600052602060002090601f016020900481019282601f10613a5557805160ff1916838001178555613a83565b82800160010185558215613a83579182015b82811115613a82578251825591602001919060010190613a67565b5b509050613a909190613b23565b5090565b613abd91905b80821115613ab95760008181613ab09190613c35565b50600101613a9a565b5090565b90565b613af091905b80821115613aec57600081816101000a81549063ffffffff021916905550600101613ac6565b5090565b90565b613b2091905b80821115613b1c57600081816101000a81549060ff021916905550600101613af9565b5090565b90565b613b4591905b80821115613b41576000816000905550600101613b29565b5090565b90565b613c3291905b80821115613c2e576000808201600090556001820160006101000a81549073ffffffffffffffffffffffffffffffffffffffff02191690556002820160006101000a81549073ffffffffffffffffffffffffffffffffffffffff021916905560038201600090556004820160009055600582016000613bcd919061390d565b600682016000613bdd919061392e565b600782016000613bed919061394f565b600882016000613bfd9190613977565b6009820160006101000a81549060ff02191690556009820160016101000a81549060ff021916905550600a01613b4e565b5090565b90565b50805460018160011615610100020316600290046000825580601f10613c5b5750613c7a565b601f016020900490600052602060002090810190613c799190613b23565b5b505600a165627a7a7230582005f5fe3d75142c5e447fabe00b4cc602013375058f9123e07cf465cd5acc62e50029",
  "source": "pragma solidity ^0.4.24;\n\nimport \"./ICognitiveJobController.sol\";\n\n\n// Contract implement main cognitive job functionality\ncontract CognitiveJobController is ICognitiveJobController{\n\n    /*******************************************************************************************************************\n     * ## Storage\n     */\n\n    enum WorkerResponses {\n        Assignment,\n        DataValidation,\n        Result\n    }\n\n    enum States {\n        Uninitialized,\n        GatheringWorkers,\n        InsufficientWorkers,\n        DataValidation,\n        InvalidData,\n        Cognition,\n        PartialResult,\n        Completed,\n        Destroyed\n    }\n\n    struct CognitiveJob {\n        bytes32 id;\n        address kernel;\n        address dataset;\n        uint256 complexity; //todo find better name\n        bytes32 description;\n        address[] activeWorkers;\n        bytes[] ipfsResults;\n        uint32[] responseTimestamps; // time of each worker response\n        bool[] responseFlags;\n        uint8 progress;\n        uint8 state;\n    }\n\n    /// @dev Indexes (+1) of active (=running) cognitive jobs in `activeJobs` mapped from their creators\n    /// (owners of the corresponding cognitive job contracts). Zero values corresponds to no active job,\n    /// one  to the one with index 0 and so forth.\n    mapping(bytes32 => uint16) public activeJobsIndexes;\n\n    /// @dev List of all active cognitive jobs\n    CognitiveJob[] activeJobs;\n\n    mapping(bytes32 => uint16) public completedJobsIndexes;\n\n    /// @dev List of all completed cognitive jobs\n    CognitiveJob[] public completedJobs;\n\n    ///Table of all possible state transitions\n    mapping(uint8 => uint8[]) public transitionTable;\n\n    //        uint8 WORKER_TIMEOUT = 30 minutes;\n\n    constructor() public {\n        //state machine initialization should be performed only once with filling transitionTable\n        _initStateMachine();\n    }\n\n    /******************************************************************************************************************\n    Public functions\n    */\n\n    /// @dev Returns total count of active jobs\n    function activeJobsCount() view public returns (uint256) {\n        return activeJobs.length;\n    }\n\n    /// @dev Returns total count of active jobs\n    function completedJobsCount() view public returns (uint256) {\n        return completedJobs.length;\n    }\n\n    function getJobId(uint16 _index, bool _isActive)\n    view\n    public\n    returns(bytes32){\n        CognitiveJob storage job = _isActive ?\n            activeJobs[_index]\n            : completedJobs[_index];\n        return job.id;\n    }\n\n    function getCognitiveJobDetails(bytes32 _jobId)\n    public\n    view\n    returns (\n        address kernel,\n        address dataset,\n        uint256 complexity,\n        bytes32 description,\n        address[] activeWorkers,\n        uint8 progress,\n        uint8 state\n    ) {\n        CognitiveJob storage job = isActiveJob(_jobId) ?\n            activeJobs[activeJobsIndexes[_jobId]]\n            : completedJobs[completedJobsIndexes[_jobId]];\n        kernel = job.kernel;\n        dataset = job.dataset;\n        complexity = job.complexity;\n        description = job.description;\n        activeWorkers = job.activeWorkers;\n        progress = job.progress;\n        state = job.state;\n    }\n\n    function getCognitiveJobResults(\n        bytes32 _jobId,\n        uint8 _index //index of worker, whose results should be returned\n    )\n    public\n    view\n    returns(\n        bytes ipfsResults\n    ) {\n        CognitiveJob storage job = isActiveJob(_jobId) ?\n            activeJobs[activeJobsIndexes[_jobId]]\n            : completedJobs[completedJobsIndexes[_jobId]];\n        ipfsResults = job.ipfsResults[_index];\n    }\n\n    function getCognitiveJobServiceInfo(\n        bytes32 _jobId\n    )\n    public\n    view\n    returns(\n        uint32[] responseTimestamps,\n        bool[] responseFlags\n    ) {\n        CognitiveJob storage job = isActiveJob(_jobId) ?\n            activeJobs[activeJobsIndexes[_jobId]]\n            : completedJobs[completedJobsIndexes[_jobId]];\n        responseTimestamps = job.responseTimestamps;\n        responseFlags = job.responseFlags;\n    }\n\n    /******************************************************************************************************************\n    External functions (Only Pandora by interface)\n    */\n    function createCognitiveJob (\n        address _kernel,\n        address _dataset,\n        address[] _assignedWorkers,\n        uint256 _complexity,\n        bytes32 _description\n    )\n    onlyOwner()\n    external\n    returns(\n        bytes32 id\n    ){\n        // The created job must fit into uint16 size\n        require(activeJobs.length < uint16(-1));\n\n        id = keccak256(activeJobs.length + block.number);\n        activeJobs.push(CognitiveJob({\n            id: id,\n            kernel: _kernel,\n            dataset: _dataset,\n            complexity: _complexity,\n            description: _description,\n            activeWorkers: _assignedWorkers,\n            ipfsResults: new bytes[](_assignedWorkers.length),\n            responseTimestamps: new uint32[](_assignedWorkers.length),\n            responseFlags: new bool[](_assignedWorkers.length),\n            progress: 0,\n            state: uint8(States.Uninitialized)\n            })\n        );\n        // Add to addresses map\n        activeJobsIndexes[id] = uint16(activeJobs.length);\n\n        CognitiveJob storage job = activeJobs[activeJobsIndexes[id] - 1];\n        // Init timestamps\n        for (uint256 i = 0; i < job.responseTimestamps.length; i++) {\n            job.responseTimestamps[i] = uint32(block.timestamp);\n        }\n        _transitionToState( id, uint8(States.GatheringWorkers));\n        emit WorkersUpdated(id);\n    }\n\n    /// @dev Could be called from manager with two types of response - Assignment and DataValidation\n    function onWorkerResponse(\n        bytes32 _jobId,\n        address _workerId,\n        uint8 _responseType,\n        bool _response)\n    requireActiveStates( _jobId)\n    onlyOwner()\n    external\n    returns (bool result)\n    {\n        _checkResponse( _jobId, _workerId, _response);\n        // Transition to next state when all workers have responded\n        if (_isAllWorkersResponded( _jobId)) {\n            result = true;\n            if (_responseType == uint8(WorkerResponses.Assignment)) {\n                _transitionToState( _jobId, uint8(States.GatheringWorkers));\n                //todo implement process decline, with validation in new v.\n                _resetAllResponses( _jobId);\n            } else if (_responseType == uint8(WorkerResponses.DataValidation)) {\n                _transitionToState( _jobId, uint8(States.Cognition));\n                //todo implement process decline, with validation in new v.\n                _resetAllResponses( _jobId);\n            } else if (_responseType == uint8(WorkerResponses.Result)) {\n                _transitionToState( _jobId, uint8(States.Completed));\n                _onJobComplete(_jobId); // move active job to completed ones\n            } else {\n                result = false; //not all workers responded\n            }\n        }\n    }\n\n    //should be called for responseTimestamp refresh after actual progress change in workerNode\n    //todo implement requirement of new progress > current progress in workerController in new v.\n    function commitProgress(\n        bytes32 _jobId,\n        address _workerId,\n        uint8 _percent)\n    requireState( _jobId, uint8(States.Cognition))\n    onlyOwner()\n    external {\n        //todo check active worker with workerController\n        uint256 workerIndex = _getWorkerIndex( _jobId, _workerId);\n        require(workerIndex != uint256(-1)); //worker is computing current job\n        activeJobs[activeJobsIndexes[_jobId] - 1].responseTimestamps[workerIndex] = uint32(block.timestamp);\n        emit CognitionProgressed(_jobId, _percent);\n    }\n\n    /// @notice should be called with provided results\n    function completeWork(\n        bytes32 _jobId,\n        address _workerId,\n        bytes _ipfsResults)\n    requireState( _jobId, uint8(States.Cognition))\n    onlyOwner()\n    external\n    returns (\n        bool result // true - if all workers have submitted result\n    ){\n        uint256 workerIndex = _getWorkerIndex( _jobId, _workerId);\n        require(workerIndex != uint256(-1)); //worker is computing current job\n\n        activeJobs[activeJobsIndexes[_jobId] - 1].ipfsResults[workerIndex] = _ipfsResults;\n        result = this.onWorkerResponse( _jobId, _workerId, uint8(WorkerResponses.Result), true);\n    }\n\n    //    function reportOfflineWorker(IWorkerNode reported) payable external requireActiveStates;\n    //todo should be implemented in workerController in upcoming version\n\n    /******************************************************************************************************************\n    Private functions\n    */\n\n    ///@dev Checks is worker actually computing current job, then updates response's flag and timestamp\n    function _checkResponse(\n        bytes32 _jobId,\n        address _workerId,\n        bool _response)\n    private {\n        uint256 workerIndex = _getWorkerIndex( _jobId, _workerId);\n        require(workerIndex != uint256(-1)); //worker is computing current job\n\n        //todo implement penalties\n        _updateResponse( _jobId, workerIndex, _response);\n        _trackOfflineWorkers( _jobId);\n    }\n\n    function _getWorkerIndex(\n        bytes32 _jobId,\n        address _workerId)\n    private\n    view\n    returns (\n        uint256\n    ) {\n        CognitiveJob storage job = activeJobs[activeJobsIndexes[_jobId] - 1];\n        for (uint256 i = 0; i < job.activeWorkers.length; i++) {\n            if (job.activeWorkers[i] == _workerId) {\n                return i;\n            }\n        }\n        return uint256(-1);\n    }\n\n    function _isAllWorkersResponded(\n        bytes32 _jobId)\n    private\n    view\n    returns (\n        bool responded\n    ) {\n        responded = true;\n        CognitiveJob storage job = activeJobs[activeJobsIndexes[_jobId] - 1];\n        for (uint256 i = 0; i < job.responseFlags.length; i++) {\n            if (job.responseFlags[i] != true) {\n                responded = false;\n            }\n        }\n    }\n\n    function _updateResponse(\n        bytes32 _jobId,\n        uint256 _workerIndex,\n        bool _response)\n    private {\n        activeJobs[activeJobsIndexes[_jobId] - 1].responseFlags[_workerIndex] = _response;\n        activeJobs[activeJobsIndexes[_jobId] - 1].responseTimestamps[_workerIndex] = uint32(block.timestamp);\n    }\n\n    ///@dev Reset all response flags and update all timestamps\n    function _resetAllResponses(\n        bytes32 _jobId)\n    private {\n        CognitiveJob storage job = activeJobs[activeJobsIndexes[_jobId] - 1];\n        for (uint256 i = 0; i < job.responseFlags.length; i++) {\n            job.responseFlags[i] = false;\n            job.responseTimestamps[i] = uint32(block.timestamp);\n        }\n    }\n\n    //todo provide listener and handle guilty worker and job state in manager, so it could penaltize worker\n    function _trackOfflineWorkers(\n        bytes32 _jobId)\n    requireActiveStates( _jobId)\n    internal\n    returns (\n        address guiltyWorker,\n        uint8 jobState\n    ){\n        CognitiveJob storage job = activeJobs[activeJobsIndexes[_jobId] - 1];\n        for (uint256 i = 0; i < job.responseTimestamps.length; i++) {\n            if (uint8(block.timestamp) - job.responseTimestamps[i] > 30 minutes) {\n                guiltyWorker = job.activeWorkers[i];\n                jobState = job.state;\n            }\n        }\n    }\n\n    /******************************************************************************************************************\n    State machine implementation\n    */\n\n    modifier requireActiveStates(\n        bytes32 _jobId)\n    {\n        CognitiveJob storage job = activeJobs[activeJobsIndexes[_jobId] - 1];\n        require(\n            job.state == uint8(States.GatheringWorkers) ||\n            job.state == uint8(States.DataValidation) ||\n            job.state == uint8(States.Cognition)\n        );\n        _;\n    }\n\n    modifier requireState(\n        bytes32 _jobId,\n        uint8 requiredState\n    ) {\n        require(activeJobs[activeJobsIndexes[_jobId] - 1].state == requiredState);\n        _;\n    }\n\n    modifier requireAllowedTransition(\n        bytes32 _jobId,\n        uint8 _newState\n    ) {\n        // Checking if the state transition is allowed\n        bool transitionAllowed = false;\n        uint8[] storage allowedStates =\n            transitionTable[uint8(activeJobs[activeJobsIndexes[_jobId] - 1].state)];\n        for (uint no = 0; no < allowedStates.length; no++) {\n            if (allowedStates[no] == _newState) {\n                transitionAllowed = true;\n            }\n        }\n        require(transitionAllowed == true);\n        _;\n    }\n\n    function _transitionToState(\n        bytes32 _jobId,\n        uint8 _newState)\n    requireAllowedTransition( _jobId, _newState)\n    private\n    {\n        CognitiveJob storage job = activeJobs[activeJobsIndexes[_jobId] - 1];\n        uint8 oldState = job.state;\n        job.state = _newState;\n        emit JobStateChanged(_jobId, oldState, job.state);\n        _fireStateEvent(_jobId);\n    }\n\n    //Fill table of possible state transitions\n    function _initStateMachine()\n    private {\n        mapping(uint8 => uint8[]) transitions = transitionTable;\n        transitions[uint8(States.Uninitialized)] =\n            [uint8(States.GatheringWorkers)];\n        transitions[uint8(States.GatheringWorkers)] =\n            [uint8(States.InsufficientWorkers), uint8(States.DataValidation)];\n        transitions[uint8(States.DataValidation)] =\n            [uint8(States.InvalidData), uint8(States.Cognition), uint8(States.InsufficientWorkers)];\n        transitions[uint8(States.Cognition)] =\n            [uint8(States.Completed), uint8(States.PartialResult)];\n    }\n\n    function _fireStateEvent(\n        bytes32 _jobId)\n    private {\n        uint8 state = activeJobs[activeJobsIndexes[_jobId] - 1].state;\n        if (state == uint8(States.InsufficientWorkers)) {\n            emit WorkersNotFound(_jobId);\n            //_onJobComplete(_jobId); //todo refactor with queue\n        } else if (state == uint8(States.DataValidation)) {\n            emit DataValidationStarted(_jobId);\n        } else if (state == uint8(States.InvalidData)) {\n            emit DataValidationFailed(_jobId);\n            //_cleanStorage(); //todo refactor\n        } else if (state == uint8(States.Cognition)) {\n            emit CognitionStarted(_jobId);\n        } else if (state == uint8(States.PartialResult)) {\n            emit CognitionCompleted(_jobId, true);\n//            pandora.finishCognitiveJob();\n        } else if (state == uint8(States.Completed)) {\n            emit CognitionCompleted(_jobId, false);\n//            pandora.finishCognitiveJob();\n              _onJobComplete(_jobId);\n        }\n    }\n\n    function _onJobComplete(\n        bytes32 _jobId)\n    private\n    {\n        CognitiveJob memory currentJob = activeJobs[activeJobsIndexes[_jobId]];\n\n        //Add current job to completed jobs array and mapping\n        completedJobs.push(currentJob);\n        completedJobsIndexes[_jobId] = uint8(completedJobs.length);\n\n        if (activeJobsIndexes[_jobId] != activeJobs.length) {\n            //Get last job in active array\n            CognitiveJob memory movedJob = activeJobs[activeJobs.length - 1];\n            //Rewrite current job with last one\n            activeJobs[activeJobsIndexes[_jobId]] = movedJob;\n        }\n        //Remove last job from active jobs array and mapping\n        delete activeJobs[activeJobsIndexes[_jobId]]; //todo check storage erasing in test\n        activeJobsIndexes[_jobId] = 0;\n        activeJobs.length--;\n    }\n\n    /// @dev Checks that job with given id is active or not (tx will fail if job is not existed)\n    function isActiveJob(\n        bytes32 _jobId\n    )\n    view\n    private\n    returns (\n        bool\n    ) {\n        if (activeJobsIndexes[_jobId] != 0) {\n            return true;\n        } else {\n            require(completedJobsIndexes[_jobId] != 0);\n            return false;\n        }\n    }\n}\n",
  "sourcePath": "/home/kostysh/dev/pyrrha-consensus/contracts/pandora/managers/CognitiveJobController.sol",
  "compiler": {
    "name": "solc",
    "version": "0.4.24+commit.e67f0147.Emscripten.clang"
  },
  "schemaVersion": "2.0.1",
  "updatedAt": "2018-07-23T10:54:57.221Z"
}