{
  "contractName": "CognitiveJobController",
  "abi": [
    {
      "constant": true,
      "inputs": [
        {
          "name": "",
          "type": "uint256"
        }
      ],
      "name": "completedJobs",
      "outputs": [
        {
          "name": "id",
          "type": "bytes32"
        },
        {
          "name": "kernel",
          "type": "address"
        },
        {
          "name": "dataset",
          "type": "address"
        },
        {
          "name": "complexity",
          "type": "uint256"
        },
        {
          "name": "description",
          "type": "bytes32"
        },
        {
          "name": "progress",
          "type": "uint8"
        },
        {
          "name": "state",
          "type": "uint8"
        }
      ],
      "payable": false,
      "stateMutability": "view",
      "type": "function"
    },
    {
      "constant": true,
      "inputs": [
        {
          "name": "",
          "type": "uint256"
        }
      ],
      "name": "activeJobs",
      "outputs": [
        {
          "name": "id",
          "type": "bytes32"
        },
        {
          "name": "kernel",
          "type": "address"
        },
        {
          "name": "dataset",
          "type": "address"
        },
        {
          "name": "complexity",
          "type": "uint256"
        },
        {
          "name": "description",
          "type": "bytes32"
        },
        {
          "name": "progress",
          "type": "uint8"
        },
        {
          "name": "state",
          "type": "uint8"
        }
      ],
      "payable": false,
      "stateMutability": "view",
      "type": "function"
    },
    {
      "constant": true,
      "inputs": [
        {
          "name": "",
          "type": "bytes32"
        }
      ],
      "name": "completedJobsIndexes",
      "outputs": [
        {
          "name": "",
          "type": "uint16"
        }
      ],
      "payable": false,
      "stateMutability": "view",
      "type": "function"
    },
    {
      "constant": true,
      "inputs": [
        {
          "name": "",
          "type": "bytes32"
        }
      ],
      "name": "activeJobsIndexes",
      "outputs": [
        {
          "name": "",
          "type": "uint16"
        }
      ],
      "payable": false,
      "stateMutability": "view",
      "type": "function"
    },
    {
      "constant": false,
      "inputs": [],
      "name": "renounceOwnership",
      "outputs": [],
      "payable": false,
      "stateMutability": "nonpayable",
      "type": "function"
    },
    {
      "constant": true,
      "inputs": [],
      "name": "owner",
      "outputs": [
        {
          "name": "",
          "type": "address"
        }
      ],
      "payable": false,
      "stateMutability": "view",
      "type": "function"
    },
    {
      "constant": true,
      "inputs": [],
      "name": "isOwner",
      "outputs": [
        {
          "name": "",
          "type": "bool"
        }
      ],
      "payable": false,
      "stateMutability": "view",
      "type": "function"
    },
    {
      "constant": true,
      "inputs": [
        {
          "name": "",
          "type": "uint8"
        },
        {
          "name": "",
          "type": "uint256"
        }
      ],
      "name": "transitionTable",
      "outputs": [
        {
          "name": "",
          "type": "uint8"
        }
      ],
      "payable": false,
      "stateMutability": "view",
      "type": "function"
    },
    {
      "constant": false,
      "inputs": [
        {
          "name": "newOwner",
          "type": "address"
        }
      ],
      "name": "transferOwnership",
      "outputs": [],
      "payable": false,
      "stateMutability": "nonpayable",
      "type": "function"
    },
    {
      "inputs": [],
      "payable": false,
      "stateMutability": "nonpayable",
      "type": "constructor"
    },
    {
      "anonymous": false,
      "inputs": [
        {
          "indexed": true,
          "name": "jobId",
          "type": "bytes32"
        },
        {
          "indexed": false,
          "name": "oldState",
          "type": "uint8"
        },
        {
          "indexed": false,
          "name": "newState",
          "type": "uint8"
        }
      ],
      "name": "JobStateChanged",
      "type": "event"
    },
    {
      "anonymous": false,
      "inputs": [
        {
          "indexed": true,
          "name": "jobId",
          "type": "bytes32"
        }
      ],
      "name": "WorkersUpdated",
      "type": "event"
    },
    {
      "anonymous": false,
      "inputs": [
        {
          "indexed": true,
          "name": "jobId",
          "type": "bytes32"
        }
      ],
      "name": "WorkersNotFound",
      "type": "event"
    },
    {
      "anonymous": false,
      "inputs": [
        {
          "indexed": true,
          "name": "jobId",
          "type": "bytes32"
        }
      ],
      "name": "DataValidationStarted",
      "type": "event"
    },
    {
      "anonymous": false,
      "inputs": [
        {
          "indexed": true,
          "name": "jobId",
          "type": "bytes32"
        }
      ],
      "name": "DataValidationFailed",
      "type": "event"
    },
    {
      "anonymous": false,
      "inputs": [
        {
          "indexed": true,
          "name": "jobId",
          "type": "bytes32"
        }
      ],
      "name": "CognitionStarted",
      "type": "event"
    },
    {
      "anonymous": false,
      "inputs": [
        {
          "indexed": true,
          "name": "jobId",
          "type": "bytes32"
        },
        {
          "indexed": false,
          "name": "precent",
          "type": "uint8"
        }
      ],
      "name": "CognitionProgressed",
      "type": "event"
    },
    {
      "anonymous": false,
      "inputs": [
        {
          "indexed": true,
          "name": "jobId",
          "type": "bytes32"
        },
        {
          "indexed": false,
          "name": "partialResult",
          "type": "bool"
        }
      ],
      "name": "CognitionCompleted",
      "type": "event"
    },
    {
      "anonymous": false,
      "inputs": [
        {
          "indexed": true,
          "name": "previousOwner",
          "type": "address"
        },
        {
          "indexed": true,
          "name": "newOwner",
          "type": "address"
        }
      ],
      "name": "OwnershipTransferred",
      "type": "event"
    },
    {
      "constant": true,
      "inputs": [],
      "name": "activeJobsCount",
      "outputs": [
        {
          "name": "",
          "type": "uint256"
        }
      ],
      "payable": false,
      "stateMutability": "view",
      "type": "function"
    },
    {
      "constant": true,
      "inputs": [],
      "name": "completedJobsCount",
      "outputs": [
        {
          "name": "",
          "type": "uint256"
        }
      ],
      "payable": false,
      "stateMutability": "view",
      "type": "function"
    },
    {
      "constant": true,
      "inputs": [
        {
          "name": "_index",
          "type": "uint16"
        },
        {
          "name": "_isActive",
          "type": "bool"
        }
      ],
      "name": "getJobId",
      "outputs": [
        {
          "name": "",
          "type": "bytes32"
        }
      ],
      "payable": false,
      "stateMutability": "view",
      "type": "function"
    },
    {
      "constant": true,
      "inputs": [
        {
          "name": "_jobId",
          "type": "bytes32"
        }
      ],
      "name": "getCognitiveJobDetails",
      "outputs": [
        {
          "name": "kernel",
          "type": "address"
        },
        {
          "name": "dataset",
          "type": "address"
        },
        {
          "name": "complexity",
          "type": "uint256"
        },
        {
          "name": "description",
          "type": "bytes32"
        },
        {
          "name": "activeWorkers",
          "type": "address[]"
        },
        {
          "name": "progress",
          "type": "uint8"
        },
        {
          "name": "state",
          "type": "uint8"
        }
      ],
      "payable": false,
      "stateMutability": "view",
      "type": "function"
    },
    {
      "constant": true,
      "inputs": [
        {
          "name": "_jobId",
          "type": "bytes32"
        },
        {
          "name": "_index",
          "type": "uint8"
        }
      ],
      "name": "getCognitiveJobResults",
      "outputs": [
        {
          "name": "ipfsResults",
          "type": "bytes"
        }
      ],
      "payable": false,
      "stateMutability": "view",
      "type": "function"
    },
    {
      "constant": true,
      "inputs": [
        {
          "name": "_jobId",
          "type": "bytes32"
        }
      ],
      "name": "getCognitiveJobServiceInfo",
      "outputs": [
        {
          "name": "responseTimestamps",
          "type": "uint32[]"
        },
        {
          "name": "responseFlags",
          "type": "bool[]"
        }
      ],
      "payable": false,
      "stateMutability": "view",
      "type": "function"
    },
    {
      "constant": false,
      "inputs": [
        {
          "name": "_id",
          "type": "bytes32"
        },
        {
          "name": "_kernel",
          "type": "address"
        },
        {
          "name": "_dataset",
          "type": "address"
        },
        {
          "name": "_assignedWorkers",
          "type": "address[]"
        },
        {
          "name": "_complexity",
          "type": "uint256"
        },
        {
          "name": "_description",
          "type": "bytes32"
        }
      ],
      "name": "createCognitiveJob",
      "outputs": [],
      "payable": false,
      "stateMutability": "nonpayable",
      "type": "function"
    },
    {
      "constant": false,
      "inputs": [
        {
          "name": "_jobId",
          "type": "bytes32"
        },
        {
          "name": "_workerId",
          "type": "address"
        },
        {
          "name": "_responseType",
          "type": "uint8"
        },
        {
          "name": "_response",
          "type": "bool"
        }
      ],
      "name": "respondToJob",
      "outputs": [
        {
          "name": "result",
          "type": "bool"
        }
      ],
      "payable": false,
      "stateMutability": "nonpayable",
      "type": "function"
    },
    {
      "constant": false,
      "inputs": [
        {
          "name": "_jobId",
          "type": "bytes32"
        },
        {
          "name": "_workerId",
          "type": "address"
        },
        {
          "name": "_percent",
          "type": "uint8"
        }
      ],
      "name": "commitProgress",
      "outputs": [],
      "payable": false,
      "stateMutability": "nonpayable",
      "type": "function"
    },
    {
      "constant": false,
      "inputs": [
        {
          "name": "_jobId",
          "type": "bytes32"
        },
        {
          "name": "_workerId",
          "type": "address"
        },
        {
          "name": "_ipfsResults",
          "type": "bytes"
        }
      ],
      "name": "completeWork",
      "outputs": [
        {
          "name": "result",
          "type": "bool"
        }
      ],
      "payable": false,
      "stateMutability": "nonpayable",
      "type": "function"
    }
  ],
  "bytecode": "0x60806040523480156200001157600080fd5b50336000806101000a81548173ffffffffffffffffffffffffffffffffffffffff021916908373ffffffffffffffffffffffffffffffffffffffff1602179055506000809054906101000a900473ffffffffffffffffffffffffffffffffffffffff1673ffffffffffffffffffffffffffffffffffffffff16600073ffffffffffffffffffffffffffffffffffffffff167f8be0079c531659141344cd1fd0a4f28419497f9722a3daafe3b4186f6b6457e060405160405180910390a3620000e7620000ed640100000000026401000000009004565b620004f8565b600060059050602060405190810160405280600160088111156200010d57fe5b60ff1660ff168152508160008060088111156200012657fe5b60ff1660ff1681526020019081526020016000209060016200014a929190620002bb565b506040805190810160405280600260088111156200016457fe5b60ff1660ff168152602001600360088111156200017d57fe5b60ff1660ff16815250816000600160088111156200019757fe5b60ff1660ff168152602001908152602001600020906002620001bb92919062000369565b5060606040519081016040528060046008811115620001d657fe5b60ff1660ff16815260200160056008811115620001ef57fe5b60ff1660ff168152602001600260088111156200020857fe5b60ff1660ff16815250816000600360088111156200022257fe5b60ff1660ff1681526020019081526020016000209060036200024692919062000417565b506040805190810160405280600760088111156200026057fe5b60ff1660ff168152602001600660088111156200027957fe5b60ff1660ff16815250816000600560088111156200029357fe5b60ff1660ff168152602001908152602001600020906002620002b792919062000369565b5050565b82805482825590600052602060002090601f01602090048101928215620003565791602002820160005b838211156200032557835183826101000a81548160ff021916908360ff1602179055509260200192600101602081600001049283019260010302620002e5565b8015620003545782816101000a81549060ff021916905560010160208160000104928301926001030262000325565b505b509050620003659190620004c5565b5090565b82805482825590600052602060002090601f01602090048101928215620004045791602002820160005b83821115620003d357835183826101000a81548160ff021916908360ff160217905550926020019260010160208160000104928301926001030262000393565b8015620004025782816101000a81549060ff0219169055600101602081600001049283019260010302620003d3565b505b509050620004139190620004c5565b5090565b82805482825590600052602060002090601f01602090048101928215620004b25791602002820160005b838211156200048157835183826101000a81548160ff021916908360ff160217905550926020019260010160208160000104928301926001030262000441565b8015620004b05782816101000a81549060ff021916905560010160208160000104928301926001030262000481565b505b509050620004c19190620004c5565b5090565b620004f591905b80821115620004f157600081816101000a81549060ff021916905550600101620004cc565b5090565b90565b61391580620005086000396000f300608060405260043610610107576000357c0100000000000000000000000000000000000000000000000000000000900463ffffffff1680631f9ca61d1461010c57806321b0908b146101eb5780632b4acd86146102ca57806339d9de64146103815780633b183eb51461049d57806347d9eee91461051e5780634a1f8abc146105bf5780634e5613c31461060c5780635c2b37fa1461068e578063672d98d6146106b9578063715018a614610706578063752f4a9c1461071d5780638da5cb5b146107765780638f32d59b146107cd578063ba0a9ef5146107fc578063c9b7b25b146108ca578063ead4d67914610928578063f21ee5c614610953578063f2fde38b146109a7575b600080fd5b34801561011857600080fd5b50610137600480360381019080803590602001909291905050506109ea565b6040518088600019166000191681526020018773ffffffffffffffffffffffffffffffffffffffff1673ffffffffffffffffffffffffffffffffffffffff1681526020018673ffffffffffffffffffffffffffffffffffffffff1673ffffffffffffffffffffffffffffffffffffffff16815260200185815260200184600019166000191681526020018360ff1660ff1681526020018260ff1660ff16815260200197505050505050505060405180910390f35b3480156101f757600080fd5b5061021660048036038101908080359060200190929190505050610a95565b6040518088600019166000191681526020018773ffffffffffffffffffffffffffffffffffffffff1673ffffffffffffffffffffffffffffffffffffffff1681526020018673ffffffffffffffffffffffffffffffffffffffff1673ffffffffffffffffffffffffffffffffffffffff16815260200185815260200184600019166000191681526020018360ff1660ff1681526020018260ff1660ff16815260200197505050505050505060405180910390f35b3480156102d657600080fd5b506103066004803603810190808035600019169060200190929190803560ff169060200190929190505050610b40565b6040518080602001828103825283818151815260200191508051906020019080838360005b8381101561034657808201518184015260208101905061032b565b50505050905090810190601f1680156103735780820380516001836020036101000a031916815260200191505b509250505060405180910390f35b34801561038d57600080fd5b506103b06004803603810190808035600019169060200190929190505050610cb2565b604051808873ffffffffffffffffffffffffffffffffffffffff1673ffffffffffffffffffffffffffffffffffffffff1681526020018773ffffffffffffffffffffffffffffffffffffffff1673ffffffffffffffffffffffffffffffffffffffff1681526020018681526020018560001916600019168152602001806020018460ff1660ff1681526020018360ff1660ff168152602001828103825285818151815260200191508051906020019060200280838360005b83811015610483578082015181840152602081019050610468565b505050509050019850505050505050505060405180910390f35b3480156104a957600080fd5b506105046004803603810190808035600019169060200190929190803573ffffffffffffffffffffffffffffffffffffffff169060200190929190803590602001908201803590602001919091929391929390505050610e88565b604051808215151515815260200191505060405180910390f35b34801561052a57600080fd5b506105bd6004803603810190808035600019169060200190929190803573ffffffffffffffffffffffffffffffffffffffff169060200190929190803573ffffffffffffffffffffffffffffffffffffffff169060200190929190803590602001908201803590602001919091929391929390803590602001909291908035600019169060200190929190505050610ff2565b005b3480156105cb57600080fd5b506105ee600480360381019080803560001916906020019092919050505061147f565b604051808261ffff1661ffff16815260200191505060405180910390f35b34801561061857600080fd5b506106746004803603810190808035600019169060200190929190803573ffffffffffffffffffffffffffffffffffffffff169060200190929190803560ff1690602001909291908035151590602001909291905050506114a0565b604051808215151515815260200191505060405180910390f35b34801561069a57600080fd5b506106a36115a9565b6040518082815260200191505060405180910390f35b3480156106c557600080fd5b506106e860048036038101908080356000191690602001909291905050506115b6565b604051808261ffff1661ffff16815260200191505060405180910390f35b34801561071257600080fd5b5061071b6115d7565b005b34801561072957600080fd5b50610758600480360381019080803561ffff1690602001909291908035151590602001909291905050506116a9565b60405180826000191660001916815260200191505060405180910390f35b34801561078257600080fd5b5061078b611709565b604051808273ffffffffffffffffffffffffffffffffffffffff1673ffffffffffffffffffffffffffffffffffffffff16815260200191505060405180910390f35b3480156107d957600080fd5b506107e2611732565b604051808215151515815260200191505060405180910390f35b34801561080857600080fd5b5061082b6004803603810190808035600019169060200190929190505050611789565b604051808060200180602001838103835285818151815260200191508051906020019060200280838360005b83811015610872578082015181840152602081019050610857565b50505050905001838103825284818151815260200191508051906020019060200280838360005b838110156108b4578082015181840152602081019050610899565b5050505090500194505050505060405180910390f35b3480156108d657600080fd5b506109266004803603810190808035600019169060200190929190803573ffffffffffffffffffffffffffffffffffffffff169060200190929190803560ff16906020019092919050505061193d565b005b34801561093457600080fd5b5061093d611ae5565b6040518082815260200191505060405180910390f35b34801561095f57600080fd5b5061098b600480360381019080803560ff16906020019092919080359060200190929190505050611af2565b604051808260ff1660ff16815260200191505060405180910390f35b3480156109b357600080fd5b506109e8600480360381019080803573ffffffffffffffffffffffffffffffffffffffff169060200190929190505050611b34565b005b6004818154811015156109f957fe5b90600052602060002090600a02016000915090508060000154908060010160009054906101000a900473ffffffffffffffffffffffffffffffffffffffff16908060020160009054906101000a900473ffffffffffffffffffffffffffffffffffffffff16908060030154908060040154908060090160009054906101000a900460ff16908060090160019054906101000a900460ff16905087565b600281815481101515610aa457fe5b90600052602060002090600a02016000915090508060000154908060010160009054906101000a900473ffffffffffffffffffffffffffffffffffffffff16908060020160009054906101000a900473ffffffffffffffffffffffffffffffffffffffff16908060030154908060040154908060090160009054906101000a900460ff16908060090160019054906101000a900460ff16905087565b60606000610b4d84611b53565b610ba3576004600160036000876000191660001916815260200190815260200160002060009054906101000a900461ffff160361ffff16815481101515610b9057fe5b90600052602060002090600a0201610bf0565b60026001806000876000191660001916815260200190815260200160002060009054906101000a900461ffff160361ffff16815481101515610be157fe5b90600052602060002090600a02015b9050806006018360ff16815481101515610c0657fe5b906000526020600020018054600181600116156101000203166002900480601f016020809104026020016040519081016040528092919081815260200182805460018160011615610100020316600290048015610ca45780601f10610c7957610100808354040283529160200191610ca4565b820191906000526020600020905b815481529060010190602001808311610c8757829003601f168201915b505050505091505092915050565b60008060008060606000806000610cc889611b53565b610d1e5760046001600360008c6000191660001916815260200190815260200160002060009054906101000a900461ffff160361ffff16815481101515610d0b57fe5b90600052602060002090600a0201610d6b565b600260018060008c6000191660001916815260200190815260200160002060009054906101000a900461ffff160361ffff16815481101515610d5c57fe5b90600052602060002090600a02015b90508060010160009054906101000a900473ffffffffffffffffffffffffffffffffffffffff1697508060020160009054906101000a900473ffffffffffffffffffffffffffffffffffffffff169650806003015495508060040154945080600501805480602002602001604051908101604052809291908181526020018280548015610e4d57602002820191906000526020600020905b8160009054906101000a900473ffffffffffffffffffffffffffffffffffffffff1673ffffffffffffffffffffffffffffffffffffffff1681526020019060010190808311610e03575b505050505093508060090160009054906101000a900460ff1692508060090160019054906101000a900460ff16915050919395979092949650565b6000808560056008811115610e9957fe5b8060ff1660026001806000866000191660001916815260200190815260200160002060009054906101000a900461ffff160361ffff16815481101515610edb57fe5b90600052602060002090600a020160090160019054906101000a900460ff1660ff16141515610f0957600080fd5b610f11611732565b1515610f1c57600080fd5b610f268888611bdb565b92507fffffffffffffffffffffffffffffffffffffffffffffffffffffffffffffffff8314151515610f5757600080fd5b8585600260018060008d6000191660001916815260200190815260200160002060009054906101000a900461ffff160361ffff16815481101515610f9757fe5b90600052602060002090600a020160060185815481101515610fb557fe5b906000526020600020019190610fcc9291906130b0565b50610fe58888600280811115610fde57fe5b6001611cf2565b9350505050949350505050565b600080610ffd611732565b151561100857600080fd5b7fffffffffffffffffffffffffffffffffffffffffffffffffffffffffffffffff61ffff1660028054905010151561103f57600080fd5b6002610160604051908101604052808b6000191681526020018a73ffffffffffffffffffffffffffffffffffffffff1681526020018973ffffffffffffffffffffffffffffffffffffffff1681526020018681526020018560001916815260200188888080602002602001604051908101604052809392919081815260200183836020028082843782019150505050505081526020018888905060405190808252806020026020018201604052801561110c57816020015b60608152602001906001900390816110f75790505b508152602001888890506040519080825280602002602001820160405280156111445781602001602082028038833980820191505090505b5081526020018888905060405190808252806020026020018201604052801561117c5781602001602082028038833980820191505090505b508152602001600060ff1681526020016000600881111561119957fe5b60ff168152509080600181540180825580915050906001820390600052602060002090600a0201600090919290919091506000820151816000019060001916905560208201518160010160006101000a81548173ffffffffffffffffffffffffffffffffffffffff021916908373ffffffffffffffffffffffffffffffffffffffff16021790555060408201518160020160006101000a81548173ffffffffffffffffffffffffffffffffffffffff021916908373ffffffffffffffffffffffffffffffffffffffff160217905550606082015181600301556080820151816004019060001916905560a082015181600501908051906020019061129e929190613130565b5060c08201518160060190805190602001906112bb9291906131ba565b5060e08201518160070190805190602001906112d892919061321a565b506101008201518160080190805190602001906112f69291906132ca565b506101208201518160090160006101000a81548160ff021916908360ff1602179055506101408201518160090160016101000a81548160ff021916908360ff160217905550505050600280549050600160008b6000191660001916815260200190815260200160002060006101000a81548161ffff021916908361ffff160217905550600260018060008c6000191660001916815260200190815260200160002060009054906101000a900461ffff160361ffff168154811015156113b757fe5b90600052602060002090600a02019150600090505b816007018054905081101561142d574282600701828154811015156113ed57fe5b90600052602060002090600891828204019190066004026101000a81548163ffffffff021916908363ffffffff16021790555080806001019150506113cc565b611443896001600881111561143e57fe5b611ddb565b88600019167fcdd8e82457800d3241f19b61393a2bbceb40e44253685afc406b2bb489c84ad360405160405180910390a2505050505050505050565b60036020528060005260406000206000915054906101000a900461ffff1681565b600084600060026001806000856000191660001916815260200190815260200160002060009054906101000a900461ffff160361ffff168154811015156114e357fe5b90600052602060002090600a020190506001600881111561150057fe5b60ff168160090160019054906101000a900460ff1660ff16148061154657506003600881111561152c57fe5b60ff168160090160019054906101000a900460ff1660ff16145b8061157357506005600881111561155957fe5b60ff168160090160019054906101000a900460ff1660ff16145b151561157e57600080fd5b611586611732565b151561159157600080fd5b61159d87878787611cf2565b92505050949350505050565b6000600280549050905090565b60016020528060005260406000206000915054906101000a900461ffff1681565b6115df611732565b15156115ea57600080fd5b600073ffffffffffffffffffffffffffffffffffffffff166000809054906101000a900473ffffffffffffffffffffffffffffffffffffffff1673ffffffffffffffffffffffffffffffffffffffff167f8be0079c531659141344cd1fd0a4f28419497f9722a3daafe3b4186f6b6457e060405160405180910390a360008060006101000a81548173ffffffffffffffffffffffffffffffffffffffff021916908373ffffffffffffffffffffffffffffffffffffffff160217905550565b600080826116d75760048461ffff168154811015156116c457fe5b90600052602060002090600a02016116f9565b60028461ffff168154811015156116ea57fe5b90600052602060002090600a02015b9050806000015491505092915050565b60008060009054906101000a900473ffffffffffffffffffffffffffffffffffffffff16905090565b60008060009054906101000a900473ffffffffffffffffffffffffffffffffffffffff1673ffffffffffffffffffffffffffffffffffffffff163373ffffffffffffffffffffffffffffffffffffffff1614905090565b606080600061179784611b53565b6117ed576004600160036000876000191660001916815260200190815260200160002060009054906101000a900461ffff160361ffff168154811015156117da57fe5b90600052602060002090600a020161183a565b60026001806000876000191660001916815260200190815260200160002060009054906101000a900461ffff160361ffff1681548110151561182b57fe5b90600052602060002090600a02015b9050806007018054806020026020016040519081016040528092919081815260200182805480156118b657602002820191906000526020600020906000905b82829054906101000a900463ffffffff1663ffffffff16815260200190600401906020826003010492830192600103820291508084116118795790505b505050505092508060080180548060200260200160405190810160405280929190818152602001828054801561193057602002820191906000526020600020906000905b82829054906101000a900460ff161515815260200190600101906020826000010492830192600103820291508084116118fa5790505b5050505050915050915091565b6000836005600881111561194d57fe5b8060ff1660026001806000866000191660001916815260200190815260200160002060009054906101000a900461ffff160361ffff1681548110151561198f57fe5b90600052602060002090600a020160090160019054906101000a900460ff1660ff161415156119bd57600080fd5b6119c5611732565b15156119d057600080fd5b6119da8686611bdb565b92507fffffffffffffffffffffffffffffffffffffffffffffffffffffffffffffffff8314151515611a0b57600080fd5b42600260018060008a6000191660001916815260200190815260200160002060009054906101000a900461ffff160361ffff16815481101515611a4a57fe5b90600052602060002090600a020160070184815481101515611a6857fe5b90600052602060002090600891828204019190066004026101000a81548163ffffffff021916908363ffffffff16021790555085600019167f84d08018633e0a8a0ba434acc29166246cfe913279e254647ca8c2f24f13660785604051808260ff1660ff16815260200191505060405180910390a2505050505050565b6000600480549050905090565b600560205281600052604060002081815481101515611b0d57fe5b9060005260206000209060209182820401919006915091509054906101000a900460ff1681565b611b3c611732565b1515611b4757600080fd5b611b5081611fc4565b50565b60008060016000846000191660001916815260200190815260200160002060009054906101000a900461ffff1661ffff16141515611b945760019050611bd6565b600060036000846000191660001916815260200190815260200160002060009054906101000a900461ffff1661ffff1614151515611bd157600080fd5b600090505b919050565b600080600060026001806000886000191660001916815260200190815260200160002060009054906101000a900461ffff160361ffff16815481101515611c1e57fe5b90600052602060002090600a02019150600090505b8160050180549050811015611cc6578373ffffffffffffffffffffffffffffffffffffffff168260050182815481101515611c6a57fe5b9060005260206000200160009054906101000a900473ffffffffffffffffffffffffffffffffffffffff1673ffffffffffffffffffffffffffffffffffffffff161415611cb957809250611cea565b8080600101915050611c33565b7fffffffffffffffffffffffffffffffffffffffffffffffffffffffffffffffff92505b505092915050565b6000611d00858585856120be565b611d09856122e6565b15611dd3576001905060006002811115611d1f57fe5b60ff168360ff161415611d5057611d428560036008811115611d3d57fe5b611ddb565b611d4b856123a8565b611dd2565b60016002811115611d5d57fe5b60ff168360ff161415611d8e57611d808560056008811115611d7b57fe5b611ddb565b611d89856123a8565b611dd1565b600280811115611d9a57fe5b60ff168360ff161415611dcb57611dbd8560076008811115611db857fe5b611ddb565b611dc6856124a0565b611dd0565b600090505b5b5b5b949350505050565b6000808383600080600080925060056000600260018060008a6000191660001916815260200190815260200160002060009054906101000a900461ffff160361ffff16815481101515611e2a57fe5b90600052602060002090600a020160090160019054906101000a900460ff1660ff1660ff1681526020019081526020016000209150600090505b8180549050811015611ebd578360ff168282815481101515611e8257fe5b90600052602060002090602091828204019190069054906101000a900460ff1660ff161415611eb057600192505b8080600101915050611e64565b60011515831515141515611ed057600080fd5b600260018060008c6000191660001916815260200190815260200160002060009054906101000a900461ffff160361ffff16815481101515611f0e57fe5b90600052602060002090600a020196508660090160019054906101000a900460ff169550878760090160016101000a81548160ff021916908360ff16021790555088600019167f9cb99c834b5e878ca7005d163b0fd70203dbc223d5845abe517de64a74dc5816878960090160019054906101000a900460ff16604051808360ff1660ff1681526020018260ff1660ff1681526020019250505060405180910390a2611fb989612b37565b505050505050505050565b600073ffffffffffffffffffffffffffffffffffffffff168173ffffffffffffffffffffffffffffffffffffffff161415151561200057600080fd5b8073ffffffffffffffffffffffffffffffffffffffff166000809054906101000a900473ffffffffffffffffffffffffffffffffffffffff1673ffffffffffffffffffffffffffffffffffffffff167f8be0079c531659141344cd1fd0a4f28419497f9722a3daafe3b4186f6b6457e060405160405180910390a3806000806101000a81548173ffffffffffffffffffffffffffffffffffffffff021916908373ffffffffffffffffffffffffffffffffffffffff16021790555050565b60006120ca8585611bdb565b90507fffffffffffffffffffffffffffffffffffffffffffffffffffffffffffffffff81141515156120fb57600080fd5b6000600281111561210857fe5b60ff168360ff161415612196576001600881111561212257fe5b60ff1660026001806000896000191660001916815260200190815260200160002060009054906101000a900461ffff160361ffff1681548110151561216357fe5b90600052602060002090600a020160090160019054906101000a900460ff1660ff1614151561219157600080fd5b6122c9565b600160028111156121a357fe5b60ff168360ff16141561223157600360088111156121bd57fe5b60ff1660026001806000896000191660001916815260200190815260200160002060009054906101000a900461ffff160361ffff168154811015156121fe57fe5b90600052602060002090600a020160090160019054906101000a900460ff1660ff1614151561222c57600080fd5b6122c8565b60028081111561223d57fe5b60ff168360ff1614156122c7576005600881111561225757fe5b60ff1660026001806000896000191660001916815260200190815260200160002060009054906101000a900461ffff160361ffff1681548110151561229857fe5b90600052602060002090600a020160090160019054906101000a900460ff1660ff161415156122c657600080fd5b5b5b5b6122d4858284612d9d565b6122dd85612eb8565b50505050505050565b60008060006001925060026001806000876000191660001916815260200190815260200160002060009054906101000a900461ffff160361ffff1681548110151561232d57fe5b90600052602060002090600a02019150600090505b81600801805490508110156123a15760011515826008018281548110151561236657fe5b90600052602060002090602091828204019190069054906101000a900460ff16151514151561239457600092505b8080600101915050612342565b5050919050565b60008060026001806000866000191660001916815260200190815260200160002060009054906101000a900461ffff160361ffff168154811015156123e957fe5b90600052602060002090600a02019150600090505b816008018054905081101561249b576000826008018281548110151561242057fe5b90600052602060002090602091828204019190066101000a81548160ff02191690831515021790555042826007018281548110151561245b57fe5b90600052602060002090600891828204019190066004026101000a81548163ffffffff021916908363ffffffff16021790555080806001019150506123fe565b505050565b600460026001806000856000191660001916815260200190815260200160002060009054906101000a900461ffff160361ffff168154811015156124e057fe5b90600052602060002090600a02019080600181540180825580915050906001820390600052602060002090600a020160009091929091909150600082015481600001906000191690556001820160009054906101000a900473ffffffffffffffffffffffffffffffffffffffff168160010160006101000a81548173ffffffffffffffffffffffffffffffffffffffff021916908373ffffffffffffffffffffffffffffffffffffffff1602179055506002820160009054906101000a900473ffffffffffffffffffffffffffffffffffffffff168160020160006101000a81548173ffffffffffffffffffffffffffffffffffffffff021916908373ffffffffffffffffffffffffffffffffffffffff16021790555060038201548160030155600482015481600401906000191690556005820181600501908054612627929190613370565b50600682018160060190805461263e9291906133c2565b506007820181600701908054612655929190613432565b50600882018160080190805461266c929190613492565b506009820160009054906101000a900460ff168160090160006101000a81548160ff021916908360ff1602179055506009820160019054906101000a900460ff168160090160016101000a81548160ff021916908360ff16021790555050505060048054905060ff1660036000836000191660001916815260200190815260200160002060006101000a81548161ffff021916908361ffff16021790555060028054905060016000836000191660001916815260200190815260200160002060009054906101000a900461ffff1661ffff161415156129f157600260016002805490500381548110151561275c57fe5b90600052602060002090600a020160026001806000856000191660001916815260200190815260200160002060009054906101000a900461ffff160361ffff168154811015156127a857fe5b90600052602060002090600a0201600082015481600001906000191690556001820160009054906101000a900473ffffffffffffffffffffffffffffffffffffffff168160010160006101000a81548173ffffffffffffffffffffffffffffffffffffffff021916908373ffffffffffffffffffffffffffffffffffffffff1602179055506002820160009054906101000a900473ffffffffffffffffffffffffffffffffffffffff168160020160006101000a81548173ffffffffffffffffffffffffffffffffffffffff021916908373ffffffffffffffffffffffffffffffffffffffff160217905550600382015481600301556004820154816004019060001916905560058201816005019080546128c4929190613370565b5060068201816006019080546128db9291906133c2565b5060078201816007019080546128f2929190613432565b506008820181600801908054612909929190613492565b506009820160009054906101000a900460ff168160090160006101000a81548160ff021916908360ff1602179055506009820160019054906101000a900460ff168160090160016101000a81548160ff021916908360ff16021790555090505060016000826000191660001916815260200190815260200160002060009054906101000a900461ffff166001600060026001600280549050038154811015156129ae57fe5b90600052602060002090600a0201600001546000191660001916815260200190815260200160002060006101000a81548161ffff021916908361ffff1602179055505b6002600160028054905003815481101515612a0857fe5b90600052602060002090600a02016000808201600090556001820160006101000a81549073ffffffffffffffffffffffffffffffffffffffff02191690556002820160006101000a81549073ffffffffffffffffffffffffffffffffffffffff021916905560038201600090556004820160009055600582016000612a8d91906134f2565b600682016000612a9d9190613513565b600782016000612aad9190613534565b600882016000612abd919061355c565b6009820160006101000a81549060ff02191690556009820160016101000a81549060ff02191690555050600060016000836000191660001916815260200190815260200160002060006101000a81548161ffff021916908361ffff1602179055506002805480919060019003612b339190613584565b5050565b600060026001806000856000191660001916815260200190815260200160002060009054906101000a900461ffff160361ffff16815481101515612b7757fe5b90600052602060002090600a020160090160019054906101000a900460ff16905060026008811115612ba557fe5b60ff168160ff161415612be85781600019167f5261c4ecde326f171b514c548529aa2219b22fedf2fa5640ae6f7d939aaefbf860405160405180910390a2612d99565b60036008811115612bf557fe5b60ff168160ff161415612c385781600019167f664052ccd6bc90c161d5b3a6ed2bff308e2bf01e52fbc112e7a8d445bb9c66ee60405160405180910390a2612d98565b60046008811115612c4557fe5b60ff168160ff161415612c885781600019167fee170c67bd88e14fcfccdcf7817ddb732cb1a466d0c333f4642571d1282556eb60405160405180910390a2612d97565b60056008811115612c9557fe5b60ff168160ff161415612cd85781600019167f3010926e292de172661e49071a9be4cb18f63877dffcc78013e349175f5b03b260405160405180910390a2612d96565b60066008811115612ce557fe5b60ff168160ff161415612d385781600019167f439c5ac734864869b402ad7298724e0154a172f98a32de5c8e877b3f234dc5d76001604051808215151515815260200191505060405180910390a2612d95565b60076008811115612d4557fe5b60ff168160ff161415612d945781600019167f439c5ac734864869b402ad7298724e0154a172f98a32de5c8e877b3f234dc5d76000604051808215151515815260200191505060405180910390a25b5b5b5b5b5b5050565b8060026001806000876000191660001916815260200190815260200160002060009054906101000a900461ffff160361ffff16815481101515612ddc57fe5b90600052602060002090600a020160080183815481101515612dfa57fe5b90600052602060002090602091828204019190066101000a81548160ff0219169083151502179055504260026001806000876000191660001916815260200190815260200160002060009054906101000a900461ffff160361ffff16815481101515612e6257fe5b90600052602060002090600a020160070183815481101515612e8057fe5b90600052602060002090600891828204019190066004026101000a81548163ffffffff021916908363ffffffff160217905550505050565b60008060008084600060026001806000856000191660001916815260200190815260200160002060009054906101000a900461ffff160361ffff16815481101515612eff57fe5b90600052602060002090600a0201905060016008811115612f1c57fe5b60ff168160090160019054906101000a900460ff1660ff161480612f62575060036008811115612f4857fe5b60ff168160090160019054906101000a900460ff1660ff16145b80612f8f575060056008811115612f7557fe5b60ff168160090160019054906101000a900460ff1660ff16145b1515612f9a57600080fd5b600260018060008a6000191660001916815260200190815260200160002060009054906101000a900461ffff160361ffff16815481101515612fd857fe5b90600052602060002090600a02019350600092505b83600701805490508310156130a757610708846007018481548110151561301057fe5b90600052602060002090600891828204019190066004029054906101000a900463ffffffff164260ff160363ffffffff16111561309a57836005018381548110151561305857fe5b9060005260206000200160009054906101000a900473ffffffffffffffffffffffffffffffffffffffff1695508360090160019054906101000a900460ff1694505b8280600101935050612fed565b50505050915091565b828054600181600116156101000203166002900490600052602060002090601f016020900481019282601f106130f157803560ff191683800117855561311f565b8280016001018555821561311f579182015b8281111561311e578235825591602001919060010190613103565b5b50905061312c91906135b6565b5090565b8280548282559060005260206000209081019282156131a9579160200282015b828111156131a85782518260006101000a81548173ffffffffffffffffffffffffffffffffffffffff021916908373ffffffffffffffffffffffffffffffffffffffff16021790555091602001919060010190613150565b5b5090506131b691906135db565b5090565b828054828255906000526020600020908101928215613209579160200282015b828111156132085782518290805190602001906131f892919061361e565b50916020019190600101906131da565b5b509050613216919061369e565b5090565b828054828255906000526020600020906007016008900481019282156132b95791602002820160005b8382111561328757835183826101000a81548163ffffffff021916908363ffffffff1602179055509260200192600401602081600301049283019260010302613243565b80156132b75782816101000a81549063ffffffff0219169055600401602081600301049283019260010302613287565b505b5090506132c691906136ca565b5090565b82805482825590600052602060002090601f0160209004810192821561335f5791602002820160005b8382111561333057835183826101000a81548160ff02191690831515021790555092602001926001016020816000010492830192600103026132f3565b801561335d5782816101000a81549060ff0219169055600101602081600001049283019260010302613330565b505b50905061336c91906136fd565b5090565b8280548282559060005260206000209081019282156133b15760005260206000209182015b828111156133b0578254825591600101919060010190613395565b5b5090506133be91906135db565b5090565b8280548282559060005260206000209081019282156134215760005260206000209182015b82811115613420578282908054600181600116156101000203166002900461341092919061372d565b50916001019190600101906133e7565b5b50905061342e919061369e565b5090565b82805482825590600052602060002090600701600890048101928215613481576000526020600020916007016008900482015b82811115613480578254825591600101919060010190613465565b5b50905061348e91906136ca565b5090565b82805482825590600052602060002090601f016020900481019282156134e157600052602060002091601f016020900482015b828111156134e05782548255916001019190600101906134c5565b5b5090506134ee91906136fd565b5090565b508054600082559060005260206000209081019061351091906135b6565b50565b5080546000825590600052602060002090810190613531919061369e565b50565b50805460008255600701600890049060005260206000209081019061355991906135b6565b50565b50805460008255601f01602090049060005260206000209081019061358191906135b6565b50565b8154818355818111156135b157600a0281600a0283600052602060002091820191016135b091906137b4565b5b505050565b6135d891905b808211156135d45760008160009055506001016135bc565b5090565b90565b61361b91905b8082111561361757600081816101000a81549073ffffffffffffffffffffffffffffffffffffffff0219169055506001016135e1565b5090565b90565b828054600181600116156101000203166002900490600052602060002090601f016020900481019282601f1061365f57805160ff191683800117855561368d565b8280016001018555821561368d579182015b8281111561368c578251825591602001919060010190613671565b5b50905061369a91906135b6565b5090565b6136c791905b808211156136c357600081816136ba91906138a1565b506001016136a4565b5090565b90565b6136fa91905b808211156136f657600081816101000a81549063ffffffff0219169055506001016136d0565b5090565b90565b61372a91905b8082111561372657600081816101000a81549060ff021916905550600101613703565b5090565b90565b828054600181600116156101000203166002900490600052602060002090601f016020900481019282601f1061376657805485556137a3565b828001600101855582156137a357600052602060002091601f016020900482015b828111156137a2578254825591600101919060010190613787565b5b5090506137b091906135b6565b5090565b61389e91905b8082111561389a576000808201600090556001820160006101000a81549073ffffffffffffffffffffffffffffffffffffffff02191690556002820160006101000a81549073ffffffffffffffffffffffffffffffffffffffff02191690556003820160009055600482016000905560058201600061383991906134f2565b6006820160006138499190613513565b6007820160006138599190613534565b600882016000613869919061355c565b6009820160006101000a81549060ff02191690556009820160016101000a81549060ff021916905550600a016137ba565b5090565b90565b50805460018160011615610100020316600290046000825580601f106138c757506138e6565b601f0160209004906000526020600020908101906138e591906135b6565b5b505600a165627a7a723058209a74185a33e76ec91cff6a3b1ed47d8a6f18a73ef37d87421b3137217c1b1baa0029",
  "source": "pragma solidity ^0.4.24;\n\nimport \"./ICognitiveJobController.sol\";\n\n\n// Contract implement main cognitive job functionality\ncontract CognitiveJobController is ICognitiveJobController{\n\n    /*******************************************************************************************************************\n     * ## Storage\n     */\n\n    enum WorkerResponses {\n        Assignment,\n        DataValidation,\n        Result\n    }\n\n    enum States {\n        Uninitialized,\n        GatheringWorkers,\n        InsufficientWorkers,\n        DataValidation,\n        InvalidData,\n        Cognition,\n        PartialResult,\n        Completed,\n        Destroyed\n    }\n\n    struct CognitiveJob {\n        bytes32 id;\n        address kernel;\n        address dataset;\n        uint256 complexity; //todo find better name\n        bytes32 description;\n        address[] activeWorkers;\n        bytes[] ipfsResults;\n        uint32[] responseTimestamps; // time of each worker response\n        bool[] responseFlags;\n        uint8 progress;\n        uint8 state;\n    }\n\n    /// @dev Indexes (+1) of active (=running) cognitive jobs in `activeJobs` mapped from their creators\n    /// (owners of the corresponding cognitive job contracts). Zero values corresponds to no active job,\n    /// one  to the one with index 0 and so forth.\n    mapping(bytes32 => uint16) public activeJobsIndexes;\n\n    /// @dev List of all active cognitive jobs\n    CognitiveJob[] public activeJobs;\n\n    mapping(bytes32 => uint16) public completedJobsIndexes;\n\n    /// @dev List of all completed cognitive jobs\n    CognitiveJob[] public completedJobs;\n\n    ///Table of all possible state transitions\n    mapping(uint8 => uint8[]) public transitionTable;\n\n    //        uint8 WORKER_TIMEOUT = 30 minutes;\n\n    constructor() public {\n        //state machine initialization should be performed only once with filling transitionTable\n        _initStateMachine();\n    }\n\n    /******************************************************************************************************************\n    Public functions\n    */\n\n    /// @dev Returns total count of active jobs\n    function activeJobsCount() view public returns (uint256) {\n        return activeJobs.length;\n    }\n\n    /// @dev Returns total count of active jobs\n    function completedJobsCount() view public returns (uint256) {\n        return completedJobs.length;\n    }\n\n    function getJobId(uint16 _index, bool _isActive)\n    view\n    public\n    returns(bytes32){\n        CognitiveJob storage job = _isActive ?\n            activeJobs[_index]\n            : completedJobs[_index];\n        return job.id;\n    }\n\n    function getCognitiveJobDetails(bytes32 _jobId)\n    external\n    view\n    returns (\n        address kernel,\n        address dataset,\n        uint256 complexity,\n        bytes32 description,\n        address[] activeWorkers,\n        uint8 progress,\n        uint8 state\n    ) {\n        CognitiveJob storage job = isActiveJob(_jobId) ?\n            activeJobs[activeJobsIndexes[_jobId] - 1]\n            : completedJobs[completedJobsIndexes[_jobId] - 1];\n        kernel = job.kernel;\n        dataset = job.dataset;\n        complexity = job.complexity;\n        description = job.description;\n        activeWorkers = job.activeWorkers;\n        progress = job.progress;\n        state = job.state;\n    }\n\n    function getCognitiveJobResults(\n        bytes32 _jobId,\n        uint8 _index //index of worker, whose results should be returned\n    )\n    public\n    view\n    returns(\n        bytes ipfsResults\n    ) {\n        CognitiveJob storage job = isActiveJob(_jobId) ?\n            activeJobs[activeJobsIndexes[_jobId] - 1]\n            : completedJobs[completedJobsIndexes[_jobId] - 1];\n        ipfsResults = job.ipfsResults[_index];\n    }\n\n    function getCognitiveJobServiceInfo(\n        bytes32 _jobId\n    )\n    public\n    view\n    returns(\n        uint32[] responseTimestamps,\n        bool[] responseFlags\n    ) {\n        CognitiveJob storage job = isActiveJob(_jobId) ?\n            activeJobs[activeJobsIndexes[_jobId] - 1]\n            : completedJobs[completedJobsIndexes[_jobId] - 1];\n        responseTimestamps = job.responseTimestamps;\n        responseFlags = job.responseFlags;\n    }\n\n    /******************************************************************************************************************\n    External functions (Only Pandora by interface)\n    */\n    function createCognitiveJob (\n        bytes32 _id,\n        address _kernel,\n        address _dataset,\n        address[] _assignedWorkers,\n        uint256 _complexity,\n        bytes32 _description\n    )\n    onlyOwner()\n    external {\n        // The created job must fit into uint16 size\n        require(activeJobs.length < uint16(-1));\n\n        activeJobs.push(CognitiveJob({\n            id: _id,\n            kernel: _kernel,\n            dataset: _dataset,\n            complexity: _complexity,\n            description: _description,\n            activeWorkers: _assignedWorkers,\n            ipfsResults: new bytes[](_assignedWorkers.length),\n            responseTimestamps: new uint32[](_assignedWorkers.length),\n            responseFlags: new bool[](_assignedWorkers.length),\n            progress: 0,\n            state: uint8(States.Uninitialized)\n            })\n        );\n        // Add to addresses map\n        activeJobsIndexes[_id] = uint16(activeJobs.length);\n\n        CognitiveJob storage job = activeJobs[activeJobsIndexes[_id] - 1];\n        // Init timestamps\n        for (uint256 i = 0; i < job.responseTimestamps.length; i++) {\n            job.responseTimestamps[i] = uint32(block.timestamp);\n        }\n        _transitionToState( _id, uint8(States.GatheringWorkers));\n        emit WorkersUpdated(_id);\n    }\n\n    function respondToJob(\n        bytes32 _jobId,\n        address _workerId,\n        uint8 _responseType,\n        bool _response)\n    requireActiveStates(_jobId)\n    onlyOwner()\n    external\n    returns (bool result)\n    {\n        return _onWorkerResponse(_jobId, _workerId, _responseType, _response);\n    }\n\n    //should be called for responseTimestamp refresh after actual progress change in workerNode\n    //todo implement requirement of new progress > current progress in workerController in new v.\n    function commitProgress(\n        bytes32 _jobId,\n        address _workerId,\n        uint8 _percent)\n    requireState(_jobId, uint8(States.Cognition))\n    onlyOwner()\n    external {\n        //todo check active worker with workerController\n        uint256 workerIndex = _getWorkerIndex( _jobId, _workerId);\n        require(workerIndex != uint256(-1)); //worker is computing current job\n        activeJobs[activeJobsIndexes[_jobId] - 1].responseTimestamps[workerIndex] = uint32(block.timestamp);\n        emit CognitionProgressed(_jobId, _percent);\n    }\n\n    /// @notice should be called with provided results\n    function completeWork(\n        bytes32 _jobId,\n        address _workerId,\n        bytes _ipfsResults)\n    requireState(_jobId, uint8(States.Cognition))\n    onlyOwner()\n    external\n    returns (\n        bool result // true - if all workers have submitted result\n    ){\n        uint256 workerIndex = _getWorkerIndex( _jobId, _workerId);\n        require(workerIndex != uint256(-1)); //worker is computing current job\n\n        activeJobs[activeJobsIndexes[_jobId] - 1].ipfsResults[workerIndex] = _ipfsResults;\n        result = _onWorkerResponse( _jobId, _workerId, uint8(WorkerResponses.Result), true);\n    }\n\n    //    function reportOfflineWorker(IWorkerNode reported) payable external requireActiveStates;\n    //todo should be implemented in workerController in upcoming version\n\n    /******************************************************************************************************************\n    Private functions\n    */\n\n    /// @dev Could be called from manager with two types of response - Assignment and DataValidation\n    function _onWorkerResponse(\n        bytes32 _jobId,\n        address _workerId,\n        uint8 _responseType,\n        bool _response)\n    private\n    returns (bool result)\n    {\n        _checkResponse( _jobId, _workerId, _responseType, _response);\n        // Transition to next state when all workers have responded\n        if (_isAllWorkersResponded( _jobId)) {\n            result = true;\n            if (_responseType == uint8(WorkerResponses.Assignment)) {\n                _transitionToState( _jobId, uint8(States.DataValidation));\n                //todo implement process decline, with validation in new v.\n                _resetAllResponses( _jobId);\n            } else if (_responseType == uint8(WorkerResponses.DataValidation)) {\n                _transitionToState( _jobId, uint8(States.Cognition));\n                //todo implement process decline, with validation in new v.\n                _resetAllResponses( _jobId);\n            } else if (_responseType == uint8(WorkerResponses.Result)) {\n                _transitionToState( _jobId, uint8(States.Completed));\n                _onJobComplete(_jobId); // move active job to completed ones\n            } else {\n                result = false; //not all workers responded\n            }\n        }\n    }\n\n    ///@dev Checks is worker actually computing current job, then updates response's flag and timestamp\n    function _checkResponse(\n        bytes32 _jobId,\n        address _workerId,\n        uint8 _responseType,\n        bool _response)\n    private {\n        uint256 workerIndex = _getWorkerIndex( _jobId, _workerId);\n        require(workerIndex != uint256(-1)); //worker is computing current job\n\n        if (_responseType == uint8(WorkerResponses.Assignment)) {\n            require(activeJobs[activeJobsIndexes[_jobId] - 1].state == uint8(States.GatheringWorkers));\n        } else if (_responseType == uint8(WorkerResponses.DataValidation)) {\n            require(activeJobs[activeJobsIndexes[_jobId] - 1].state == uint8(States.DataValidation));\n        } else if (_responseType == uint8(WorkerResponses.Result)) {\n            require(activeJobs[activeJobsIndexes[_jobId] - 1].state == uint8(States.Cognition));\n        }\n\n        //todo implement penalties\n        _updateResponse( _jobId, workerIndex, _response);\n        _trackOfflineWorkers( _jobId);\n    }\n\n    function _getWorkerIndex(\n        bytes32 _jobId,\n        address _workerId)\n    private\n    view\n    returns (\n        uint256\n    ) {\n        CognitiveJob storage job = activeJobs[activeJobsIndexes[_jobId] - 1];\n        for (uint256 i = 0; i < job.activeWorkers.length; i++) {\n            if (job.activeWorkers[i] == _workerId) {\n                return i;\n            }\n        }\n        return uint256(-1);\n    }\n\n    function _isAllWorkersResponded(\n        bytes32 _jobId)\n    private\n    view\n    returns (\n        bool responded\n    ) {\n        responded = true;\n        CognitiveJob storage job = activeJobs[activeJobsIndexes[_jobId] - 1];\n        for (uint256 i = 0; i < job.responseFlags.length; i++) {\n            if (job.responseFlags[i] != true) {\n                responded = false;\n            }\n        }\n    }\n\n    function _updateResponse(\n        bytes32 _jobId,\n        uint256 _workerIndex,\n        bool _response)\n    private {\n        activeJobs[activeJobsIndexes[_jobId] - 1].responseFlags[_workerIndex] = _response;\n        activeJobs[activeJobsIndexes[_jobId] - 1].responseTimestamps[_workerIndex] = uint32(block.timestamp);\n    }\n\n    ///@dev Reset all response flags and update all timestamps\n    function _resetAllResponses(\n        bytes32 _jobId)\n    private {\n        CognitiveJob storage job = activeJobs[activeJobsIndexes[_jobId] - 1];\n        for (uint256 i = 0; i < job.responseFlags.length; i++) {\n            job.responseFlags[i] = false;\n            job.responseTimestamps[i] = uint32(block.timestamp);\n        }\n    }\n\n    //todo provide listener and handle guilty worker and job state in manager, so it could penaltize worker\n    function _trackOfflineWorkers(\n        bytes32 _jobId)\n    requireActiveStates( _jobId)\n    internal\n    returns (\n        address guiltyWorker,\n        uint8 jobState\n    ){\n        CognitiveJob storage job = activeJobs[activeJobsIndexes[_jobId] - 1];\n        for (uint256 i = 0; i < job.responseTimestamps.length; i++) {\n            if (uint8(block.timestamp) - job.responseTimestamps[i] > 30 minutes) {\n                guiltyWorker = job.activeWorkers[i];\n                jobState = job.state;\n            }\n        }\n    }\n\n    function _onJobComplete(\n        bytes32 _jobId)\n    private\n    {\n        completedJobs.push(activeJobs[activeJobsIndexes[_jobId] - 1]);\n        completedJobsIndexes[_jobId] = uint8(completedJobs.length);\n\n        if (activeJobsIndexes[_jobId] != activeJobs.length) {\n            activeJobs[activeJobsIndexes[_jobId] - 1] = activeJobs[activeJobs.length - 1];\n            activeJobsIndexes[activeJobs[activeJobs.length - 1].id] = activeJobsIndexes[_jobId];\n        }\n        delete activeJobs[activeJobs.length - 1];\n        activeJobsIndexes[_jobId] = 0;\n        activeJobs.length--;\n    }\n\n    /// @dev Checks that job with given id is active or not (tx will fail if job is not existed)\n    function isActiveJob(\n        bytes32 _jobId\n    )\n    view\n    private\n    returns (\n        bool\n    ) {\n        if (activeJobsIndexes[_jobId] != 0) {\n            return true;\n        } else {\n            require(completedJobsIndexes[_jobId] != 0);\n            return false;\n        }\n    }\n\n    /******************************************************************************************************************\n    State machine implementation\n    */\n\n    modifier requireActiveStates(\n        bytes32 _jobId)\n    {\n        CognitiveJob storage job = activeJobs[activeJobsIndexes[_jobId] - 1];\n        require(\n            job.state == uint8(States.GatheringWorkers) ||\n            job.state == uint8(States.DataValidation) ||\n            job.state == uint8(States.Cognition)\n        );\n        _;\n    }\n\n    modifier requireState(\n        bytes32 _jobId,\n        uint8 requiredState\n    ) {\n        require(activeJobs[activeJobsIndexes[_jobId] - 1].state == requiredState);\n        _;\n    }\n\n    modifier requireAllowedTransition(\n        bytes32 _jobId,\n        uint8 _newState\n    ) {\n        // Checking if the state transition is allowed\n        bool transitionAllowed = false;\n        uint8[] storage allowedStates =\n            transitionTable[uint8(activeJobs[activeJobsIndexes[_jobId] - 1].state)];\n        for (uint no = 0; no < allowedStates.length; no++) {\n            if (allowedStates[no] == _newState) {\n                transitionAllowed = true;\n            }\n        }\n        require(transitionAllowed == true);\n        _;\n    }\n\n    function _transitionToState(\n        bytes32 _jobId,\n        uint8 _newState)\n    requireAllowedTransition( _jobId, _newState)\n    private\n    {\n        CognitiveJob storage job = activeJobs[activeJobsIndexes[_jobId] - 1];\n        uint8 oldState = job.state;\n        job.state = _newState;\n        emit JobStateChanged(_jobId, oldState, job.state);\n        _fireStateEvent(_jobId);\n    }\n\n    //Fill table of possible state transitions\n    function _initStateMachine()\n    private {\n        mapping(uint8 => uint8[]) transitions = transitionTable;\n        transitions[uint8(States.Uninitialized)] =\n            [uint8(States.GatheringWorkers)];\n        transitions[uint8(States.GatheringWorkers)] =\n            [uint8(States.InsufficientWorkers), uint8(States.DataValidation)];\n        transitions[uint8(States.DataValidation)] =\n            [uint8(States.InvalidData), uint8(States.Cognition), uint8(States.InsufficientWorkers)];\n        transitions[uint8(States.Cognition)] =\n            [uint8(States.Completed), uint8(States.PartialResult)];\n    }\n\n    function _fireStateEvent(\n        bytes32 _jobId)\n    private {\n        uint8 state = activeJobs[activeJobsIndexes[_jobId] - 1].state;\n        if (state == uint8(States.InsufficientWorkers)) {\n            emit WorkersNotFound(_jobId);\n            //_onJobComplete(_jobId); //todo refactor with queue\n        } else if (state == uint8(States.DataValidation)) {\n            emit DataValidationStarted(_jobId);\n        } else if (state == uint8(States.InvalidData)) {\n            emit DataValidationFailed(_jobId);\n            //_cleanStorage(); //todo refactor\n        } else if (state == uint8(States.Cognition)) {\n            emit CognitionStarted(_jobId);\n        } else if (state == uint8(States.PartialResult)) {\n            emit CognitionCompleted(_jobId, true);\n        } else if (state == uint8(States.Completed)) {\n            emit CognitionCompleted(_jobId, false);\n        }\n    }\n}\n",
  "sourcePath": "/home/kostysh/dev/pyrrha-consensus/contracts/pandora/managers/CognitiveJobController.sol",
  "compiler": {
    "name": "solc",
    "version": "0.4.24+commit.e67f0147.Emscripten.clang"
  },
  "schemaVersion": "2.0.1",
  "updatedAt": "2018-12-27T18:52:29.592Z"
}