{
  "contractName": "CognitiveJobManager",
  "abi": [
    {
      "constant": true,
      "inputs": [],
      "name": "workerNodesCount",
      "outputs": [
        {
          "name": "",
          "type": "uint256"
        }
      ],
      "payable": false,
      "stateMutability": "view",
      "type": "function"
    },
    {
      "constant": false,
      "inputs": [
        {
          "name": "_workerOwner",
          "type": "address"
        }
      ],
      "name": "whitelistWorkerOwner",
      "outputs": [],
      "payable": false,
      "stateMutability": "nonpayable",
      "type": "function"
    },
    {
      "constant": true,
      "inputs": [],
      "name": "initialized",
      "outputs": [
        {
          "name": "",
          "type": "bool"
        }
      ],
      "payable": false,
      "stateMutability": "view",
      "type": "function"
    },
    {
      "constant": true,
      "inputs": [
        {
          "name": "",
          "type": "uint256"
        }
      ],
      "name": "workerNodes",
      "outputs": [
        {
          "name": "",
          "type": "address"
        }
      ],
      "payable": false,
      "stateMutability": "view",
      "type": "function"
    },
    {
      "constant": true,
      "inputs": [],
      "name": "RESULT_CODE_JOB_CREATED",
      "outputs": [
        {
          "name": "",
          "type": "uint8"
        }
      ],
      "payable": false,
      "stateMutability": "view",
      "type": "function"
    },
    {
      "constant": true,
      "inputs": [],
      "name": "cognitiveJobFactory",
      "outputs": [
        {
          "name": "",
          "type": "address"
        }
      ],
      "payable": false,
      "stateMutability": "view",
      "type": "function"
    },
    {
      "constant": true,
      "inputs": [
        {
          "name": "",
          "type": "address"
        }
      ],
      "name": "jobAddresses",
      "outputs": [
        {
          "name": "",
          "type": "uint16"
        }
      ],
      "payable": false,
      "stateMutability": "view",
      "type": "function"
    },
    {
      "constant": false,
      "inputs": [
        {
          "name": "_guiltyWorker",
          "type": "address"
        },
        {
          "name": "_reason",
          "type": "uint8"
        }
      ],
      "name": "penaltizeWorkerNode",
      "outputs": [],
      "payable": false,
      "stateMutability": "nonpayable",
      "type": "function"
    },
    {
      "constant": true,
      "inputs": [
        {
          "name": "",
          "type": "address"
        }
      ],
      "name": "workerNodeOwners",
      "outputs": [
        {
          "name": "",
          "type": "bool"
        }
      ],
      "payable": false,
      "stateMutability": "view",
      "type": "function"
    },
    {
      "constant": false,
      "inputs": [
        {
          "name": "_workerOwner",
          "type": "address"
        }
      ],
      "name": "blacklistWorkerOwner",
      "outputs": [],
      "payable": false,
      "stateMutability": "nonpayable",
      "type": "function"
    },
    {
      "constant": false,
      "inputs": [],
      "name": "initialize",
      "outputs": [],
      "payable": false,
      "stateMutability": "nonpayable",
      "type": "function"
    },
    {
      "constant": true,
      "inputs": [],
      "name": "RESULT_CODE_ADD_TO_QUEUE",
      "outputs": [
        {
          "name": "",
          "type": "uint8"
        }
      ],
      "payable": false,
      "stateMutability": "view",
      "type": "function"
    },
    {
      "constant": false,
      "inputs": [],
      "name": "createWorkerNode",
      "outputs": [
        {
          "name": "",
          "type": "address"
        }
      ],
      "payable": false,
      "stateMutability": "nonpayable",
      "type": "function"
    },
    {
      "constant": true,
      "inputs": [],
      "name": "owner",
      "outputs": [
        {
          "name": "",
          "type": "address"
        }
      ],
      "payable": false,
      "stateMutability": "view",
      "type": "function"
    },
    {
      "constant": false,
      "inputs": [
        {
          "name": "_workerNode",
          "type": "address"
        }
      ],
      "name": "destroyWorkerNode",
      "outputs": [],
      "payable": false,
      "stateMutability": "nonpayable",
      "type": "function"
    },
    {
      "constant": true,
      "inputs": [
        {
          "name": "",
          "type": "uint256"
        }
      ],
      "name": "cognitiveJobs",
      "outputs": [
        {
          "name": "",
          "type": "address"
        }
      ],
      "payable": false,
      "stateMutability": "view",
      "type": "function"
    },
    {
      "constant": false,
      "inputs": [
        {
          "name": "newOwner",
          "type": "address"
        }
      ],
      "name": "transferOwnership",
      "outputs": [],
      "payable": false,
      "stateMutability": "nonpayable",
      "type": "function"
    },
    {
      "constant": true,
      "inputs": [],
      "name": "workerNodeFactory",
      "outputs": [
        {
          "name": "",
          "type": "address"
        }
      ],
      "payable": false,
      "stateMutability": "view",
      "type": "function"
    },
    {
      "constant": true,
      "inputs": [
        {
          "name": "",
          "type": "address"
        }
      ],
      "name": "workerAddresses",
      "outputs": [
        {
          "name": "",
          "type": "uint16"
        }
      ],
      "payable": false,
      "stateMutability": "view",
      "type": "function"
    },
    {
      "inputs": [
        {
          "name": "_jobFactory",
          "type": "address"
        },
        {
          "name": "_nodeFactory",
          "type": "address"
        },
        {
          "name": "_reputation",
          "type": "address"
        }
      ],
      "payable": false,
      "stateMutability": "nonpayable",
      "type": "constructor"
    },
    {
      "anonymous": false,
      "inputs": [
        {
          "indexed": false,
          "name": "cognitiveJob",
          "type": "address"
        },
        {
          "indexed": false,
          "name": "resultCode",
          "type": "uint256"
        }
      ],
      "name": "CognitiveJobCreated",
      "type": "event"
    },
    {
      "anonymous": false,
      "inputs": [
        {
          "indexed": false,
          "name": "cognitiveJob",
          "type": "address"
        },
        {
          "indexed": false,
          "name": "resultCode",
          "type": "uint256"
        }
      ],
      "name": "CognitiveJobCreateFailed",
      "type": "event"
    },
    {
      "anonymous": false,
      "inputs": [
        {
          "indexed": false,
          "name": "workerNode",
          "type": "address"
        }
      ],
      "name": "WorkerNodeCreated",
      "type": "event"
    },
    {
      "anonymous": false,
      "inputs": [
        {
          "indexed": false,
          "name": "workerNode",
          "type": "address"
        }
      ],
      "name": "WorkerNodeDestroyed",
      "type": "event"
    },
    {
      "anonymous": false,
      "inputs": [
        {
          "indexed": true,
          "name": "previousOwner",
          "type": "address"
        },
        {
          "indexed": true,
          "name": "newOwner",
          "type": "address"
        }
      ],
      "name": "OwnershipTransferred",
      "type": "event"
    },
    {
      "anonymous": false,
      "inputs": [
        {
          "indexed": false,
          "name": "cognitiveJob",
          "type": "address"
        }
      ],
      "name": "CognitiveJobCreated",
      "type": "event"
    },
    {
      "constant": true,
      "inputs": [],
      "name": "cognitiveJobsCount",
      "outputs": [
        {
          "name": "",
          "type": "uint256"
        }
      ],
      "payable": false,
      "stateMutability": "view",
      "type": "function"
    },
    {
      "constant": true,
      "inputs": [
        {
          "name": "_job",
          "type": "address"
        }
      ],
      "name": "isActiveJob",
      "outputs": [
        {
          "name": "",
          "type": "bool"
        }
      ],
      "payable": false,
      "stateMutability": "view",
      "type": "function"
    },
    {
      "constant": false,
      "inputs": [
        {
          "name": "_kernel",
          "type": "address"
        },
        {
          "name": "_dataset",
          "type": "address"
        },
        {
          "name": "_complexity",
          "type": "uint256"
        },
        {
          "name": "_description",
          "type": "bytes32"
        }
      ],
      "name": "createCognitiveJob",
      "outputs": [
        {
          "name": "o_cognitiveJob",
          "type": "address"
        },
        {
          "name": "o_resultCode",
          "type": "uint8"
        }
      ],
      "payable": true,
      "stateMutability": "payable",
      "type": "function"
    },
    {
      "constant": false,
      "inputs": [],
      "name": "finishCognitiveJob",
      "outputs": [],
      "payable": false,
      "stateMutability": "nonpayable",
      "type": "function"
    },
    {
      "constant": false,
      "inputs": [
        {
          "name": "_arrayLength",
          "type": "uint256"
        },
        {
          "name": "_numbersRange",
          "type": "uint256"
        }
      ],
      "name": "getRandomArray",
      "outputs": [
        {
          "name": "o_result",
          "type": "uint256[]"
        }
      ],
      "payable": false,
      "stateMutability": "nonpayable",
      "type": "function"
    }
  ],
  "bytecode": "0x608060405260008060006101000a81548160ff0219169083151502179055503480156200002b57600080fd5b50604051606080620037e58339810180604052810190808051906020019092919080519060200190929190805190602001909291905050508160008060006101000a81548160ff02191690831515021790555033600360006101000a81548173ffffffffffffffffffffffffffffffffffffffff021916908373ffffffffffffffffffffffffffffffffffffffff160217905550600073ffffffffffffffffffffffffffffffffffffffff168173ffffffffffffffffffffffffffffffffffffffff1614151515620000fc57600080fd5b80600760006101000a81548173ffffffffffffffffffffffffffffffffffffffff021916908373ffffffffffffffffffffffffffffffffffffffff16021790555050600073ffffffffffffffffffffffffffffffffffffffff168373ffffffffffffffffffffffffffffffffffffffff16141515156200017b57600080fd5b82600b60006101000a81548173ffffffffffffffffffffffffffffffffffffffff021916908373ffffffffffffffffffffffffffffffffffffffff16021790555080600e60006101000a81548173ffffffffffffffffffffffffffffffffffffffff021916908373ffffffffffffffffffffffffffffffffffffffff160217905550620002076200026e565b604051809103906000f08015801562000224573d6000803e3d6000fd5b50601060006101000a81548173ffffffffffffffffffffffffffffffffffffffff021916908373ffffffffffffffffffffffffffffffffffffffff1602179055505050506200027e565b60405160f080620036f583390190565b613467806200028e6000396000f30060806040526004361061013e576000357c0100000000000000000000000000000000000000000000000000000000900463ffffffff1680630ba58574146101435780630e3b581f1461019e57806313b5165f146101c9578063158ef93e1461020c578063171317511461023b5780631dc20af41461025257806323ce524a146102bf57806336bad828146102f05780635ecc2e44146103475780635ef17776146103a657806370064e33146103f65780637b3c611c146104515780638129fc1c1461049457806383c94c69146104ab57806386b07332146104dc5780638da5cb5b14610533578063a00197fb1461058a578063ae1092ae146105b5578063b6438095146105f8578063ea449e0f14610665578063ea84546b146106f1578063f2fde38b146107ac578063f9d84ade146107ef578063fdb5b8d414610846575b600080fd5b34801561014f57600080fd5b50610184600480360381019080803573ffffffffffffffffffffffffffffffffffffffff1690602001909291905050506108a5565b604051808215151515815260200191505060405180910390f35b3480156101aa57600080fd5b506101b36109b3565b6040518082815260200191505060405180910390f35b3480156101d557600080fd5b5061020a600480360381019080803573ffffffffffffffffffffffffffffffffffffffff1690602001909291905050506109e1565b005b34801561021857600080fd5b50610221610a98565b604051808215151515815260200191505060405180910390f35b34801561024757600080fd5b50610250610aaa565b005b34801561025e57600080fd5b5061027d60048036038101908080359060200190929190505050610dfd565b604051808273ffffffffffffffffffffffffffffffffffffffff1673ffffffffffffffffffffffffffffffffffffffff16815260200191505060405180910390f35b3480156102cb57600080fd5b506102d4610e3b565b604051808260ff1660ff16815260200191505060405180910390f35b3480156102fc57600080fd5b50610305610e40565b604051808273ffffffffffffffffffffffffffffffffffffffff1673ffffffffffffffffffffffffffffffffffffffff16815260200191505060405180910390f35b34801561035357600080fd5b50610388600480360381019080803573ffffffffffffffffffffffffffffffffffffffff169060200190929190505050610e66565b604051808261ffff1661ffff16815260200191505060405180910390f35b3480156103b257600080fd5b506103f4600480360381019080803573ffffffffffffffffffffffffffffffffffffffff169060200190929190803560ff169060200190929190505050610e87565b005b34801561040257600080fd5b50610437600480360381019080803573ffffffffffffffffffffffffffffffffffffffff169060200190929190505050610eac565b604051808215151515815260200191505060405180910390f35b34801561045d57600080fd5b50610492600480360381019080803573ffffffffffffffffffffffffffffffffffffffff169060200190929190505050610ecc565b005b3480156104a057600080fd5b506104a9610f7a565b005b3480156104b757600080fd5b506104c0610f96565b604051808260ff1660ff16815260200191505060405180910390f35b3480156104e857600080fd5b506104f1610f9b565b604051808273ffffffffffffffffffffffffffffffffffffffff1673ffffffffffffffffffffffffffffffffffffffff16815260200191505060405180910390f35b34801561053f57600080fd5b5061054861129b565b604051808273ffffffffffffffffffffffffffffffffffffffff1673ffffffffffffffffffffffffffffffffffffffff16815260200191505060405180910390f35b34801561059657600080fd5b5061059f6112c1565b6040518082815260200191505060405180910390f35b3480156105c157600080fd5b506105f6600480360381019080803573ffffffffffffffffffffffffffffffffffffffff1690602001909291905050506112ef565b005b34801561060457600080fd5b5061062360048036038101908080359060200190929190505050611841565b604051808273ffffffffffffffffffffffffffffffffffffffff1673ffffffffffffffffffffffffffffffffffffffff16815260200191505060405180910390f35b34801561067157600080fd5b5061069a600480360381019080803590602001909291908035906020019092919050505061187f565b6040518080602001828103825283818151815260200191508051906020019060200280838360005b838110156106dd5780820151818401526020810190506106c2565b505050509050019250505060405180910390f35b61075d600480360381019080803573ffffffffffffffffffffffffffffffffffffffff169060200190929190803573ffffffffffffffffffffffffffffffffffffffff1690602001909291908035906020019092919080356000191690602001909291905050506119bf565b604051808373ffffffffffffffffffffffffffffffffffffffff1673ffffffffffffffffffffffffffffffffffffffff1681526020018260ff1660ff1681526020019250505060405180910390f35b3480156107b857600080fd5b506107ed600480360381019080803573ffffffffffffffffffffffffffffffffffffffff169060200190929190505050611f25565b005b3480156107fb57600080fd5b5061080461207d565b604051808273ffffffffffffffffffffffffffffffffffffffff1673ffffffffffffffffffffffffffffffffffffffff16815260200191505060405180910390f35b34801561085257600080fd5b50610887600480360381019080803573ffffffffffffffffffffffffffffffffffffffff1690602001909291905050506120a3565b604051808261ffff1661ffff16815260200191505060405180910390f35b6000806000600115156000809054906101000a900460ff1615151415156108cb57600080fd5b600c60008573ffffffffffffffffffffffffffffffffffffffff1673ffffffffffffffffffffffffffffffffffffffff16815260200190815260200160002060009054906101000a900461ffff16915060008261ffff16141561093157600092506109ac565b818060019003925050600d8261ffff1681548110151561094d57fe5b9060005260206000200160009054906101000a900473ffffffffffffffffffffffffffffffffffffffff1690508373ffffffffffffffffffffffffffffffffffffffff168173ffffffffffffffffffffffffffffffffffffffff161492505b5050919050565b6000600115156000809054906101000a900460ff1615151415156109d657600080fd5b600880549050905090565b600360009054906101000a900473ffffffffffffffffffffffffffffffffffffffff1673ffffffffffffffffffffffffffffffffffffffff163373ffffffffffffffffffffffffffffffffffffffff16141515610a3d57600080fd5b6001600a60008373ffffffffffffffffffffffffffffffffffffffff1673ffffffffffffffffffffffffffffffffffffffff16815260200190815260200160002060006101000a81548160ff02191690831515021790555050565b6000809054906101000a900460ff1681565b600080600080600115156000809054906101000a900460ff161515141515610ad157600080fd5b600c60003373ffffffffffffffffffffffffffffffffffffffff1673ffffffffffffffffffffffffffffffffffffffff16815260200190815260200160002060009054906101000a900461ffff16935060008461ffff1614151515610b3557600080fd5b838060019003945050600d8461ffff16815481101515610b5157fe5b9060005260206000200160009054906101000a900473ffffffffffffffffffffffffffffffffffffffff1692503373ffffffffffffffffffffffffffffffffffffffff168373ffffffffffffffffffffffffffffffffffffffff16141515610bb857600080fd5b610bc06120c4565b8273ffffffffffffffffffffffffffffffffffffffff166323d554736040518163ffffffff167c0100000000000000000000000000000000000000000000000000000000028152600401602060405180830381600087803b158015610c2457600080fd5b505af1158015610c38573d6000803e3d6000fd5b505050506040513d6020811015610c4e57600080fd5b81019080805190602001909291905050509150600090505b8273ffffffffffffffffffffffffffffffffffffffff16634804b4ba6040518163ffffffff167c0100000000000000000000000000000000000000000000000000000000028152600401602060405180830381600087803b158015610cca57600080fd5b505af1158015610cde573d6000803e3d6000fd5b505050506040513d6020811015610cf457600080fd5b810190808051906020019092919050505081111515610df757600e60009054906101000a900473ffffffffffffffffffffffffffffffffffffffff1673ffffffffffffffffffffffffffffffffffffffff1663e6808ff082846040518363ffffffff167c0100000000000000000000000000000000000000000000000000000000028152600401808373ffffffffffffffffffffffffffffffffffffffff1673ffffffffffffffffffffffffffffffffffffffff16815260200182815260200192505050600060405180830381600087803b158015610dd257600080fd5b505af1158015610de6573d6000803e3d6000fd5b505050508080600101915050610c66565b50505050565b600881815481101515610e0c57fe5b906000526020600020016000915054906101000a900473ffffffffffffffffffffffffffffffffffffffff1681565b600181565b600b60009054906101000a900473ffffffffffffffffffffffffffffffffffffffff1681565b600c6020528060005260406000206000915054906101000a900461ffff1681565b600115156000809054906101000a900460ff161515141515610ea857600080fd5b5050565b600a6020528060005260406000206000915054906101000a900460ff1681565b600360009054906101000a900473ffffffffffffffffffffffffffffffffffffffff1673ffffffffffffffffffffffffffffffffffffffff163373ffffffffffffffffffffffffffffffffffffffff16141515610f2857600080fd5b600a60008273ffffffffffffffffffffffffffffffffffffffff1673ffffffffffffffffffffffffffffffffffffffff16815260200190815260200160002060006101000a81549060ff021916905550565b60016000806101000a81548160ff021916908315150217905550565b600081565b6000806000600115156000809054906101000a900460ff161515141515610fc157600080fd5b60011515600a60003373ffffffffffffffffffffffffffffffffffffffff1673ffffffffffffffffffffffffffffffffffffffff16815260200190815260200160002060009054906101000a900460ff16151514151561102057600080fd5b3391503273ffffffffffffffffffffffffffffffffffffffff163373ffffffffffffffffffffffffffffffffffffffff1614151561105d57600080fd5b600d60088054905010151561107157600080fd5b600760009054906101000a900473ffffffffffffffffffffffffffffffffffffffff1673ffffffffffffffffffffffffffffffffffffffff16639ed93318836040518263ffffffff167c0100000000000000000000000000000000000000000000000000000000028152600401808273ffffffffffffffffffffffffffffffffffffffff1673ffffffffffffffffffffffffffffffffffffffff168152602001915050602060405180830381600087803b15801561112e57600080fd5b505af1158015611142573d6000803e3d6000fd5b505050506040513d602081101561115857600080fd5b8101908080519060200190929190505050905060088190806001815401808255809150509060018203906000526020600020016000909192909190916101000a81548173ffffffffffffffffffffffffffffffffffffffff021916908373ffffffffffffffffffffffffffffffffffffffff16021790555050600880549050600960008373ffffffffffffffffffffffffffffffffffffffff1673ffffffffffffffffffffffffffffffffffffffff16815260200190815260200160002060006101000a81548161ffff021916908361ffff1602179055507f093794466f44429afc8d8ec2c4c7f42c98d5db9b3db965ce46a31e7d4f7c29c881604051808273ffffffffffffffffffffffffffffffffffffffff1673ffffffffffffffffffffffffffffffffffffffff16815260200191505060405180910390a1809250505090565b600360009054906101000a900473ffffffffffffffffffffffffffffffffffffffff1681565b6000600115156000809054906101000a900460ff1615151415156112e457600080fd5b600d80549050905090565b60008060008360003390508173ffffffffffffffffffffffffffffffffffffffff16638da5cb5b6040518163ffffffff167c0100000000000000000000000000000000000000000000000000000000028152600401602060405180830381600087803b15801561135e57600080fd5b505af1158015611372573d6000803e3d6000fd5b505050506040513d602081101561138857600080fd5b810190808051906020019092919050505073ffffffffffffffffffffffffffffffffffffffff168173ffffffffffffffffffffffffffffffffffffffff161415156113d257600080fd5b6000600960008373ffffffffffffffffffffffffffffffffffffffff1673ffffffffffffffffffffffffffffffffffffffff16815260200190815260200160002060009054906101000a900461ffff1661ffff1611151561143257600080fd5b600115156000809054906101000a900460ff16151514151561145357600080fd5b3394508573ffffffffffffffffffffffffffffffffffffffff1663ae897c556040518163ffffffff167c0100000000000000000000000000000000000000000000000000000000028152600401602060405180830381600087803b1580156114ba57600080fd5b505af11580156114ce573d6000803e3d6000fd5b505050506040513d60208110156114e457600080fd5b810190808051906020019092919050505060ff168673ffffffffffffffffffffffffffffffffffffffff16630c3f6acf6040518163ffffffff167c0100000000000000000000000000000000000000000000000000000000028152600401602060405180830381600087803b15801561155c57600080fd5b505af1158015611570573d6000803e3d6000fd5b505050506040513d602081101561158657600080fd5b810190808051906020019092919050505060ff161415156115a657600080fd5b8573ffffffffffffffffffffffffffffffffffffffff166383197ef06040518163ffffffff167c0100000000000000000000000000000000000000000000000000000000028152600401600060405180830381600087803b15801561160a57600080fd5b505af115801561161e573d6000803e3d6000fd5b505050506001600960008773ffffffffffffffffffffffffffffffffffffffff1673ffffffffffffffffffffffffffffffffffffffff16815260200190815260200160002060009054906101000a900461ffff16039350600960008673ffffffffffffffffffffffffffffffffffffffff1673ffffffffffffffffffffffffffffffffffffffff16815260200190815260200160002060006101000a81549061ffff021916905560086001600880549050038154811015156116dc57fe5b9060005260206000200160009054906101000a900473ffffffffffffffffffffffffffffffffffffffff1660088561ffff1681548110151561171a57fe5b9060005260206000200160006101000a81548173ffffffffffffffffffffffffffffffffffffffff021916908373ffffffffffffffffffffffffffffffffffffffff1602179055925060018401600960008573ffffffffffffffffffffffffffffffffffffffff1673ffffffffffffffffffffffffffffffffffffffff16815260200190815260200160002060006101000a81548161ffff021916908361ffff16021790555060088054809190600190036117d59190613375565b507f677f03e392472a48b617167ed4dbec758d26d8517257ec077bed2d27d192816486604051808273ffffffffffffffffffffffffffffffffffffffff1673ffffffffffffffffffffffffffffffffffffffff16815260200191505060405180910390a1505050505050565b600d8181548110151561185057fe5b906000526020600020016000915054906101000a900473ffffffffffffffffffffffffffffffffffffffff1681565b60606000836040519080825280602002602001820160405280156118b25781602001602082028038833980820191505090505b509150600090505b81518110156119b857601060009054906101000a900473ffffffffffffffffffffffffffffffffffffffff1673ffffffffffffffffffffffffffffffffffffffff1663cd4b6914846040518263ffffffff167c010000000000000000000000000000000000000000000000000000000002815260040180828152602001915050602060405180830381600087803b15801561195457600080fd5b505af1158015611968573d6000803e3d6000fd5b505050506040513d602081101561197e57600080fd5b8101908080519060200190929190505050828281518110151561199d57fe5b906020019060200201818152505080806001019150506118ba565b5092915050565b600080600080606080600115156000809054906101000a900460ff1615151415156119e957600080fd5b600a8973ffffffffffffffffffffffffffffffffffffffff166387ea09616040518163ffffffff167c0100000000000000000000000000000000000000000000000000000000028152600401602060405180830381600087803b158015611a4f57600080fd5b505af1158015611a63573d6000803e3d6000fd5b505050506040513d6020811015611a7957600080fd5b810190808051906020019092919050505060ff1611151515611a9a57600080fd5b8873ffffffffffffffffffffffffffffffffffffffff1663b1f8d9ba6040518163ffffffff167c0100000000000000000000000000000000000000000000000000000000028152600401602060405180830381600087803b158015611afe57600080fd5b505af1158015611b12573d6000803e3d6000fd5b505050506040513d6020811015611b2857600080fd5b81019080805190602001909291905050508a73ffffffffffffffffffffffffffffffffffffffff1663b1f8d9ba6040518163ffffffff167c0100000000000000000000000000000000000000000000000000000000028152600401602060405180830381600087803b158015611b9d57600080fd5b505af1158015611bb1573d6000803e3d6000fd5b505050506040513d6020811015611bc757600080fd5b8101908080519060200190929190505050141515611be457600080fd5b600d8080549050101515611bf757600080fd5b611bff6123cc565b93508873ffffffffffffffffffffffffffffffffffffffff166387ea09616040518163ffffffff167c0100000000000000000000000000000000000000000000000000000000028152600401602060405180830381600087803b158015611c6557600080fd5b505af1158015611c79573d6000803e3d6000fd5b505050506040513d6020811015611c8f57600080fd5b810190808051906020019092919050505092508260ff16841015611d495760009450611ccf8a8a34338c8c60116125be909695949392919063ffffffff16565b507fea6be648d373c4709986e67f6b7ee9ef9875b1243f38efc6bd48024bc10f8aac8686604051808373ffffffffffffffffffffffffffffffffffffffff1673ffffffffffffffffffffffffffffffffffffffff1681526020018260ff1681526020019250505060405180910390a1858595509550611f18565b611d52846127b2565b9150611dff828a73ffffffffffffffffffffffffffffffffffffffff166387ea09616040518163ffffffff167c0100000000000000000000000000000000000000000000000000000000028152600401602060405180830381600087803b158015611dbc57600080fd5b505af1158015611dd0573d6000803e3d6000fd5b505050506040513d6020811015611de657600080fd5b810190808051906020019092919050505060ff16612a5f565b9050611e0e8a8a838b8b612b40565b955060019450611e6634600f60003373ffffffffffffffffffffffffffffffffffffffff1673ffffffffffffffffffffffffffffffffffffffff16815260200190815260200160002054612fc290919063ffffffff16565b600f60003373ffffffffffffffffffffffffffffffffffffffff1673ffffffffffffffffffffffffffffffffffffffff168152602001908152602001600020819055507f422ca471d1a1b69b87453d0f5149fd001dc7fd04fc2b5b8b8d70b17398a9b85a8686604051808373ffffffffffffffffffffffffffffffffffffffff1673ffffffffffffffffffffffffffffffffffffffff1681526020018260ff1681526020019250505060405180910390a15b5050505094509492505050565b600360009054906101000a900473ffffffffffffffffffffffffffffffffffffffff1673ffffffffffffffffffffffffffffffffffffffff163373ffffffffffffffffffffffffffffffffffffffff16141515611f8157600080fd5b600073ffffffffffffffffffffffffffffffffffffffff168173ffffffffffffffffffffffffffffffffffffffff1614151515611fbd57600080fd5b8073ffffffffffffffffffffffffffffffffffffffff16600360009054906101000a900473ffffffffffffffffffffffffffffffffffffffff1673ffffffffffffffffffffffffffffffffffffffff167f8be0079c531659141344cd1fd0a4f28419497f9722a3daafe3b4186f6b6457e060405160405180910390a380600360006101000a81548173ffffffffffffffffffffffffffffffffffffffff021916908373ffffffffffffffffffffffffffffffffffffffff16021790555050565b600760009054906101000a900473ffffffffffffffffffffffffffffffffffffffff1681565b60096020528060005260406000206000915054906101000a900461ffff1681565b6120cc6133a1565b600080600060606000806060600080600115156000809054906101000a900460ff1615151415156120fc57600080fd5b600098505b61210b6011612fde565b8910806121185750600a89105b156123c0575a97506121286123cc565b9650600087111515612139576123c0565b612142876127b2565b9550855194508685141515612156576123c0565b61216a856011612ff590919063ffffffff16565b1515612175576123c0565b61217f60116130bf565b809550819b505050612236868b6020015173ffffffffffffffffffffffffffffffffffffffff166387ea09616040518163ffffffff167c0100000000000000000000000000000000000000000000000000000000028152600401602060405180830381600087803b1580156121f357600080fd5b505af1158015612207573d6000803e3d6000fd5b505050506040513d602081101561221d57600080fd5b810190808051906020019092919050505060ff16612a5f565b92506122558a600001518b60200151858d606001518e60800151612b40565b91507f422ca471d1a1b69b87453d0f5149fd001dc7fd04fc2b5b8b8d70b17398a9b85a826001604051808373ffffffffffffffffffffffffffffffffffffffff1673ffffffffffffffffffffffffffffffffffffffff1681526020018260ff1681526020019250505060405180910390a13a5a89030290503273ffffffffffffffffffffffffffffffffffffffff166108fc829081150290604051600060405180830381858888f19350505050158015612313573d6000803e3d6000fd5b5061236c848203600f60008d6040015173ffffffffffffffffffffffffffffffffffffffff1673ffffffffffffffffffffffffffffffffffffffff168152602001908152602001600020546130ee90919063ffffffff16565b600f60008c6040015173ffffffffffffffffffffffffffffffffffffffff1673ffffffffffffffffffffffffffffffffffffffff168152602001908152602001600020819055508880600101995050612101565b50505050505050505050565b60008060009150600090505b6008805490508110156125b7576008818154811015156123f457fe5b9060005260206000200160009054906101000a900473ffffffffffffffffffffffffffffffffffffffff1673ffffffffffffffffffffffffffffffffffffffff1663ae897c556040518163ffffffff167c0100000000000000000000000000000000000000000000000000000000028152600401602060405180830381600087803b15801561248257600080fd5b505af1158015612496573d6000803e3d6000fd5b505050506040513d60208110156124ac57600080fd5b810190808051906020019092919050505060ff166008828154811015156124cf57fe5b9060005260206000200160009054906101000a900473ffffffffffffffffffffffffffffffffffffffff1673ffffffffffffffffffffffffffffffffffffffff16630c3f6acf6040518163ffffffff167c0100000000000000000000000000000000000000000000000000000000028152600401602060405180830381600087803b15801561255d57600080fd5b505af1158015612571573d6000803e3d6000fd5b505050506040513d602081101561258757600080fd5b810190808051906020019092919050505060ff1614156125aa5781806001019250505b80806001019150506123d8565b8191505090565b6000876000018054905060018960000180549050011115156125df57600080fd5b8760000160a0604051908101604052808973ffffffffffffffffffffffffffffffffffffffff1681526020018873ffffffffffffffffffffffffffffffffffffffff1681526020018673ffffffffffffffffffffffffffffffffffffffff16815260200185815260200184600019168152509080600181540180825580915050906001820390600052602060002090600502016000909192909190915060008201518160000160006101000a81548173ffffffffffffffffffffffffffffffffffffffff021916908373ffffffffffffffffffffffffffffffffffffffff16021790555060208201518160010160006101000a81548173ffffffffffffffffffffffffffffffffffffffff021916908373ffffffffffffffffffffffffffffffffffffffff16021790555060408201518160020160006101000a81548173ffffffffffffffffffffffffffffffffffffffff021916908373ffffffffffffffffffffffffffffffffffffffff1602179055506060820151816003015560808201518160040190600019169055505050876001018590806001815401808255809150509060018203906000526020600020016000909192909190915055506127a588612fde565b9050979650505050505050565b606080600080846040519080825280602002602001820160405280156127e75781602001602082028038833980820191505090505b50925060009150600090505b600880549050811015612a545760088181548110151561280f57fe5b9060005260206000200160009054906101000a900473ffffffffffffffffffffffffffffffffffffffff1673ffffffffffffffffffffffffffffffffffffffff1663ae897c556040518163ffffffff167c0100000000000000000000000000000000000000000000000000000000028152600401602060405180830381600087803b15801561289d57600080fd5b505af11580156128b1573d6000803e3d6000fd5b505050506040513d60208110156128c757600080fd5b810190808051906020019092919050505060ff166008828154811015156128ea57fe5b9060005260206000200160009054906101000a900473ffffffffffffffffffffffffffffffffffffffff1673ffffffffffffffffffffffffffffffffffffffff16630c3f6acf6040518163ffffffff167c0100000000000000000000000000000000000000000000000000000000028152600401602060405180830381600087803b15801561297857600080fd5b505af115801561298c573d6000803e3d6000fd5b505050506040513d60208110156129a257600080fd5b810190808051906020019092919050505060ff161415612a47576008818154811015156129cb57fe5b9060005260206000200160009054906101000a900473ffffffffffffffffffffffffffffffffffffffff168383806001019450815181101515612a0a57fe5b9060200190602002019073ffffffffffffffffffffffffffffffffffffffff16908173ffffffffffffffffffffffffffffffffffffffff16815250505b80806001019150506127f3565b829350505050919050565b606080600083604051908082528060200260200182016040528015612a935781602001602082028038833980820191505090505b509250612aa28351865161187f565b9150600090505b8251811015612b3857848282815181101515612ac157fe5b90602001906020020151815181101515612ad757fe5b906020019060200201518382815181101515612aef57fe5b9060200190602002019073ffffffffffffffffffffffffffffffffffffffff16908173ffffffffffffffffffffffffffffffffffffffff16815250508080600101915050612aa9565b505092915050565b6000600115156000809054906101000a900460ff161515141515612b6357600080fd5b600b60009054906101000a900473ffffffffffffffffffffffffffffffffffffffff1673ffffffffffffffffffffffffffffffffffffffff16630109c3f987878787876040518663ffffffff167c0100000000000000000000000000000000000000000000000000000000028152600401808673ffffffffffffffffffffffffffffffffffffffff1673ffffffffffffffffffffffffffffffffffffffff1681526020018573ffffffffffffffffffffffffffffffffffffffff1673ffffffffffffffffffffffffffffffffffffffff168152602001806020018481526020018360001916600019168152602001828103825285818151815260200191508051906020019060200280838360005b83811015612c8c578082015181840152602081019050612c71565b505050509050019650505050505050602060405180830381600087803b158015612cb557600080fd5b505af1158015612cc9573d6000803e3d6000fd5b505050506040513d6020811015612cdf57600080fd5b81019080805190602001909291905050509050600073ffffffffffffffffffffffffffffffffffffffff168173ffffffffffffffffffffffffffffffffffffffff1614151515612d2b57fe5b8073ffffffffffffffffffffffffffffffffffffffff16631c72fad46040518163ffffffff167c0100000000000000000000000000000000000000000000000000000000028152600401602060405180830381600087803b158015612d8f57600080fd5b505af1158015612da3573d6000803e3d6000fd5b505050506040513d6020811015612db957600080fd5b810190808051906020019092919050505060ff168173ffffffffffffffffffffffffffffffffffffffff16630c3f6acf6040518163ffffffff167c0100000000000000000000000000000000000000000000000000000000028152600401602060405180830381600087803b158015612e3157600080fd5b505af1158015612e45573d6000803e3d6000fd5b505050506040513d6020811015612e5b57600080fd5b810190808051906020019092919050505060ff16141515612e7857fe5b600d8190806001815401808255809150509060018203906000526020600020016000909192909190916101000a81548173ffffffffffffffffffffffffffffffffffffffff021916908373ffffffffffffffffffffffffffffffffffffffff16021790555050600d80549050600c60008373ffffffffffffffffffffffffffffffffffffffff1673ffffffffffffffffffffffffffffffffffffffff16815260200190815260200160002060006101000a81548161ffff021916908361ffff1602179055508073ffffffffffffffffffffffffffffffffffffffff16638129fc1c6040518163ffffffff167c0100000000000000000000000000000000000000000000000000000000028152600401600060405180830381600087803b158015612fa157600080fd5b505af1158015612fb5573d6000803e3d6000fd5b5050505095945050505050565b60008183019050828110151515612fd557fe5b80905092915050565b600081600201548260000180549050039050919050565b6000612fff6133a1565b61300884613107565b508091505082816020015173ffffffffffffffffffffffffffffffffffffffff166387ea09616040518163ffffffff167c0100000000000000000000000000000000000000000000000000000000028152600401602060405180830381600087803b15801561307657600080fd5b505af115801561308a573d6000803e3d6000fd5b505050506040513d60208110156130a057600080fd5b810190808051906020019092919050505060ff16111591505092915050565b6130c76133a1565b60006130d283613107565b80925081935050506130e38361328a565b818191509150915091565b60008282111515156130fc57fe5b818303905092915050565b61310f6133a1565b600082600001836002015481548110151561312657fe5b906000526020600020906005020183600101846002015481548110151561314957fe5b90600052602060002001548160a060405190810160405290816000820160009054906101000a900473ffffffffffffffffffffffffffffffffffffffff1673ffffffffffffffffffffffffffffffffffffffff1673ffffffffffffffffffffffffffffffffffffffff1681526020016001820160009054906101000a900473ffffffffffffffffffffffffffffffffffffffff1673ffffffffffffffffffffffffffffffffffffffff1673ffffffffffffffffffffffffffffffffffffffff1681526020016002820160009054906101000a900473ffffffffffffffffffffffffffffffffffffffff1673ffffffffffffffffffffffffffffffffffffffff1673ffffffffffffffffffffffffffffffffffffffff168152602001600382015481526020016004820154600019166000191681525050915091509150915091565b80600201600081548092919060010191905055508060000160018260020154038154811015156132b657fe5b9060005260206000209060050201600080820160006101000a81549073ffffffffffffffffffffffffffffffffffffffff02191690556001820160006101000a81549073ffffffffffffffffffffffffffffffffffffffff02191690556002820160006101000a81549073ffffffffffffffffffffffffffffffffffffffff021916905560038201600090556004820160009055505080600101600182600201540381548110151561336457fe5b906000526020600020016000905550565b81548183558181111561339c5781836000526020600020918201910161339b9190613416565b5b505050565b60a060405190810160405280600073ffffffffffffffffffffffffffffffffffffffff168152602001600073ffffffffffffffffffffffffffffffffffffffff168152602001600073ffffffffffffffffffffffffffffffffffffffff16815260200160008152602001600080191681525090565b61343891905b8082111561343457600081600090555060010161341c565b5090565b905600a165627a7a723058200245eac80813e4b55c4003f9b68a8ba150f35f4679c63768d0c60007d3a231ac0029608060405234801561001057600080fd5b5060d18061001f6000396000f300608060405260043610603f576000357c0100000000000000000000000000000000000000000000000000000000900463ffffffff168063cd4b6914146044575b600080fd5b348015604f57600080fd5b50606c600480360381019080803590602001909291905050506082565b6040518082815260200191505060405180910390f35b600081600a4303406001900443406001900401811515609d57fe5b0690509190505600a165627a7a72305820b941c253fe2f5bfdc66993018a5d3815c3e28a16c8aae45246fd39be69ac8bc40029",
  "source": "pragma solidity ^0.4.23;\n\nimport \"openzeppelin-solidity/contracts/math/SafeMath.sol\";\nimport \"../../lifecycle/Initializable.sol\";\nimport \"../lottery/RandomEngine.sol\";\nimport \"./ICognitiveJobManager.sol\";\nimport \"./WorkerNodeManager.sol\";\nimport \"../../jobs/IComputingJob.sol\";\nimport \"../../libraries/JobQueueLib.sol\";\nimport \"../token/Reputation.sol\";\n\n/**\n * @title Pandora Smart Contract\n * @author \"Dr Maxim Orlovsky\" <orlovsky@pandora.foundation>\n *\n * @dev # Pandora Smart Contract\n *\n * Main & root contract implementing the first level of Pandora Boxchain consensus\n * See section [\"3.3. Proof of Cognitive Work (PoCW)\" in Pandora white paper](https://steemit.com/cryptocurrency/%40pandoraboxchain/world-decentralized-ai-on-blockchain-with-cognitive-mining-and-open-markets-for-data-and-algorithms-pandora-boxchain)\n * for more details.\n *\n * Contract token functionality is separated into a separate contract named PAN (after the name of the token)\n * and Pandora contracts just simply inherits PAN contract.\n */\n\ncontract CognitiveJobManager is Initializable, ICognitiveJobManager, WorkerNodeManager {\n\n    /*******************************************************************************************************************\n     * ## Storage\n     */\n\n    /// ### Public variables\n\n    /// @notice Reference to a factory used in creating CognitiveJob contracts\n    /// @dev Factories are used to reduce gas consumption by the main Pandora contract. Since Pandora needs to control\n    /// the code used to deploy Cognitive Jobs and Worker Nodes, it must embed all the byte code for the smart contract.\n    /// However this dramatically increases gas consumption for deploying Pandora contract itself. Thus, the\n    /// CognitiveJob smart contract is deployed by a special factory class `CognitiveJobFactory`, and a special workflow\n    /// is used to ensure uniqueness of the factories and the fact that their code source is coming from the same\n    /// address which have deployed the main Pandora contract. In particular, because of this Pandora is defined as an\n    /// `Ownable` contract and a special `initialize` function and `properlyInitialized` member variable is added.\n    CognitiveJobFactory public cognitiveJobFactory;\n\n    /// @dev Indexes (+1) of active (=running) cognitive jobs in `activeJobs` mapped from their creators\n    /// (owners of the corresponding cognitive job contracts). Zero values corresponds to no active job,\n    /// one  to the one with index 0 and so forth.\n    mapping(address => uint16) public jobAddresses;\n\n    /// @dev List of all active cognitive jobs\n    IComputingJob[] public cognitiveJobs;\n\n    /// @dev Contract, that store rep. values for each address\n    Reputation reputation;\n\n    /// @dev Returns total count of active jobs\n    function cognitiveJobsCount() onlyInitialized view public returns (uint256) {\n        return cognitiveJobs.length;\n    }\n\n    // Deposits from clients used as payment for work\n    mapping(address => uint256) deposits;\n\n    /// @notice Status code returned by `createCognitiveJob()` method when no Idle WorkerNodes were available\n    /// and job was not created but was put into the job queue to be processed lately\n    uint8 constant public RESULT_CODE_ADD_TO_QUEUE = 0;\n    /// @notice Status code returned by `createCognitiveJob()` method when CognitiveJob was created successfully\n    uint8 constant public RESULT_CODE_JOB_CREATED = 1;\n\n    /// ### Private and internal variables\n\n    /// @dev Limit for the amount of lottery cycles before reporting failure to start cognitive job.\n    /// Used in `createCognitiveJob`\n    uint8 constant private MAX_WORKER_LOTTERY_TRIES = 10;\n\n    /// @dev Contract implementing lottery interface for workers selection. Only internal usage\n    /// by `createCognitiveJob` function\n    ILotteryEngine internal workerLotteryEngine;\n\n    // Queue for CognitiveJobs kept while no Idle WorkerNodes available\n    using JobQueueLib for JobQueueLib.Queue;\n    /// @dev Cognitive job queue used for case when no idle workers available\n    JobQueueLib.Queue internal cognitiveJobQueue;\n\n    using SafeMath for uint;\n\n    /*******************************************************************************************************************\n     * ## Events\n     */\n\n    /// @dev Event firing when a new cognitive job created\n    event CognitiveJobCreated(IComputingJob cognitiveJob, uint resultCode);\n\n    /// @dev Event firing when a new cognitive job failed to create\n    event CognitiveJobCreateFailed(IComputingJob cognitiveJob, uint resultCode);\n\n    /*******************************************************************************************************************\n     * ## Constructor and initialization\n     */\n\n    /// ### Constructor\n    /// @dev Constructor receives addresses for the owners of whitelisted worker nodes, which will be assigned an owners\n    /// of worker nodes contracts\n    constructor(\n        CognitiveJobFactory _jobFactory, /// Factory class for creating CognitiveJob contracts\n        WorkerNodeFactory _nodeFactory, /// Factory class for creating WorkerNode contracts\n        Reputation _reputation\n    )\n    public\n    WorkerNodeManager(_nodeFactory) {\n\n        // Must ensure that the supplied factories are already created contracts\n        require(_jobFactory != address(0));\n\n        // Assign factories to storage variables\n        cognitiveJobFactory = _jobFactory;\n\n        reputation = _reputation;\n\n        // Initializing worker lottery engine\n        // In Pyrrha we use round robin algorithm to give our whitelisted nodes equal and consequential chances\n        workerLotteryEngine = new RandomEngine();\n    }\n\n    /*******************************************************************************************************************\n     * ## Modifiers\n     */\n\n\n    /*******************************************************************************************************************\n     * ## Functions\n     */\n\n    /// ### Public and external\n\n    /// @notice Test whether the given `job` is registered as an active job by the main Pandora contract\n    /// @dev Used to test if some given job contract is a contract created by the Pandora and is listed by it as an\n    /// active contract\n    function isActiveJob(\n        IComputingJob _job /// Job contract to test\n    )\n    onlyInitialized\n    view\n    public\n    returns (\n        bool /// Testing result\n    ) {\n        // Getting the index of the job from the internal list\n        uint16 index = jobAddresses[_job];\n        // Testing if the job was present in the list\n        if (index == 0) {\n            return false;\n        }\n        // We must decrease the index since they are 1-based, not 0-based (0 corresponds to \"no contract\" due to\n        // Solidity specificity\n        index--;\n\n        // Retrieving the job contract from the index\n        IComputingJob job = cognitiveJobs[index];\n        // Double-checking that the job at the index is the actual job being tested\n        return(job == _job);\n    }\n\n\n    /// @notice Creates and returns new cognitive job contract and starts actual cognitive work instantly\n    /// @dev Core function creating new cognitive job contract and returning it back to the caller\n    function createCognitiveJob(\n        IKernel _kernel, /// Pre-initialized kernel data entity contract\n        IDataset _dataset, /// Pre-initialized dataset entity contract\n        uint256 _complexity,\n        bytes32 _description\n    )\n    external\n    payable\n    onlyInitialized\n    returns (\n        IComputingJob o_cognitiveJob, /// Newly created cognitive jobs (starts automatically)\n        uint8 o_resultCode /// result code of creating cognitiveJob, 0 - no available workers, 1 - job created\n    ) {\n\n        // Restriction for batches count came from potential high gas usage in JobQueue processing\n        // todo check max restriction with tests\n        require(_dataset.batchesCount() <= 10);\n\n        // Dimensions of the input data and neural network input layer must be equal\n        require(_kernel.dataDim() == _dataset.dataDim());\n\n        // The created job must fit into uint16 size\n        require(cognitiveJobs.length < 2 ^ 16 - 1);\n\n        // @todo check payment corresponds to required amount + gas payment (from tests)\n\n        // Counting number of available worker nodes (in Idle state)\n        // Since Solidity does not supports dynamic in-memory arrays (yet), has to be done in two-staged way:\n        // first by counting array size and then by allocating and populating array itself\n\n        uint256 estimatedSize = _countIdleWorkers();\n\n        // Put task in queue if number of idle workers less than number of batches in dataset\n        uint8 batchesCount = _dataset.batchesCount();\n        if (estimatedSize < uint256(batchesCount)) {\n            o_resultCode = RESULT_CODE_ADD_TO_QUEUE;\n            cognitiveJobQueue.put(_kernel, _dataset, msg.value, msg.sender, _complexity, _description);\n            emit CognitiveJobCreateFailed(o_cognitiveJob, o_resultCode);\n            return (o_cognitiveJob, o_resultCode);\n        }\n\n        // Initializing in-memory array for idle node list and populating it with data\n        IWorkerNode[] memory idleWorkers = _listIdleWorkers(estimatedSize);\n//        uint actualSize = idleWorkers.length;\n\n//        // Something really wrong happened with EVM if this assert fails\n//        if (actualSize != estimatedSize) {\n//            o_resultCode = RESULT_CODE_ADD_TO_QUEUE;\n//            cognitiveJobQueue.put(kernel, dataset, msg.value, msg.sender);\n//            CognitiveJobCreateFailed(o_cognitiveJob, o_resultCode);\n//            return (o_cognitiveJob, o_resultCode);\n//        }\n\n        // Running lottery to select worker node to be assigned cognitive job contract\n        IWorkerNode[] memory assignedWorkers = _selectWorkersWithLottery(idleWorkers, _dataset.batchesCount());\n\n        o_cognitiveJob = _initCognitiveJob(_kernel, _dataset, assignedWorkers, _complexity, _description);\n        o_resultCode = RESULT_CODE_JOB_CREATED;\n\n        //  Hold payment from client\n        deposits[msg.sender] = deposits[msg.sender].add(msg.value);\n\n        emit CognitiveJobCreated(o_cognitiveJob, o_resultCode);\n    }\n\n    //todo should be called after providing full resulta of entire job\n\n    /// @notice Can\"t be called by the user, for internal use only\n    /// @dev Function must be called only by the master node running cognitive job. It completes the job, updates\n    /// worker node back to `Idle` state (in smart contract) and removes job contract from the list of active contracts\n    function finishCognitiveJob(\n        // No arguments - cognitive job is taken from msg.sender\n    )\n    external\n    onlyInitialized\n    {\n        uint16 index = jobAddresses[msg.sender];\n        require(index != 0);\n        index--;\n\n        IComputingJob job = cognitiveJobs[index];\n        require(address(job) == msg.sender);\n\n        // @fixme set \"Idle\" state to the worker (check in stateMachine lib)\n\n        // After finish, try to start new CognitiveJob from a queue of activeJobs\n        _checkJobQueue();\n\n        // Increase reputation of workers involved to computation\n        uint256 reputationReward = job.complexity(); //todo add koef for complexity-reputation\n        for (uint256 i = 0; i <= job.activeWorkersCount(); i++) {\n            reputation.incrReputation(address(i), reputationReward);\n        }\n        //todo: user have to able to withdraw remaining funds if worker is idle\n    }\n\n    /// @notice Private function which checks queue of jobs and create new jobs\n    /// #dev Function is called only in `finishCognitiveJob()` in order to allocate newly freed WorkerNodes\n    /// to perform cognitive jobs from the queue.\n    function _checkJobQueue(\n        // No arguments\n    )\n    private\n    onlyInitialized {\n        JobQueueLib.QueuedJob memory queuedJob;\n        // Iterate queue and check queue depth\n\n//        uint limitQueueRequests = 10;\n\n        for (uint256 k = 0; (k < cognitiveJobQueue.queueDepth()) || (k < 10); k++) { // todo check limit (10) for queue requests with tests\n\n            // Count remaining gas\n            uint initialGas = gasleft();\n\n            // Counting number of available worker nodes (in Idle state)\n            uint256 estimatedSize = _countIdleWorkers();\n\n            // There must be at least one free worker node\n            if (estimatedSize <= 0) {\n                break;\n            }\n\n            // Initializing in-memory array for idle node list and populating it with data\n            IWorkerNode[] memory idleWorkers = _listIdleWorkers(estimatedSize);\n            uint actualSize = idleWorkers.length;\n            if (actualSize != estimatedSize) {\n                break;\n            }\n\n            // Check number of batches with number of idle workers\n            if (!cognitiveJobQueue.compareFirstElementToIdleWorkers(actualSize)) {\n                break;\n            }\n\n            uint256 value; // Value from queuedJob deposit\n            (queuedJob, value) = cognitiveJobQueue.requestJob();\n\n            // Running lottery to select worker node to be assigned cognitive job contract\n            IWorkerNode[] memory assignedWorkers = _selectWorkersWithLottery(idleWorkers, queuedJob.dataset.batchesCount());\n\n            IComputingJob createdCognitiveJob = _initCognitiveJob(\n                queuedJob.kernel,\n                queuedJob.dataset,\n                assignedWorkers,\n                queuedJob.complexity,\n                queuedJob.description\n            );\n\n            emit CognitiveJobCreated(createdCognitiveJob, RESULT_CODE_JOB_CREATED);\n\n            // Count used funds for queue\n            uint weiUsedForQueuedJob = (initialGas - gasleft()) * tx.gasprice;\n\n            // Gas refund to node\n            tx.origin.transfer(weiUsedForQueuedJob);\n\n            // Withdraw from client\"s deposits\n            deposits[queuedJob.client] = deposits[queuedJob.client].sub(weiUsedForQueuedJob - value);\n        }\n    }\n\n    /// @notice Can\"t be called by the user or other contract: for private use only\n    /// @dev Creates cognitive job contract, saves it to storage and fires global event to notify selected worker node.\n    /// Used both by `createCognitiveJob()` and `_checksJobQueue()` methods.\n    function _initCognitiveJob(\n        IKernel _kernel, /// Pre-initialized kernel data entity contract (taken from `createCognitiveJob` arguments or\n                        /// from the the `cognitiveJobQueue` `QueuedJob` structure)\n        IDataset _dataset, /// Pre-initialized dataset entity contract (taken from `createCognitiveJob` arguments or\n                          /// from the the `cognitiveJobQueue` `QueuedJob` structure)\n        IWorkerNode[] _assignedWorkers, /// Array of workers assigned for the job by the lottery engine\n        uint256 _complexity,\n        bytes32 _description\n    )\n    private\n    onlyInitialized\n    returns (\n        IComputingJob o_cognitiveJob /// Created cognitive job (function may fail only due to the bugs, so there is no\n                                     /// reason for returning status code)\n    ) {\n        o_cognitiveJob = cognitiveJobFactory.create(_kernel, _dataset, _assignedWorkers, _complexity, _description);\n\n        // Ensuring that contract was successfully created\n        assert(o_cognitiveJob != address(0));\n        // Hint: trying to figure out was the contract body actually created and initialized with proper values\n        assert(o_cognitiveJob.currentState() == o_cognitiveJob.Uninitialized());\n\n        // Save new contract to the storage\n        cognitiveJobs.push(o_cognitiveJob);\n        jobAddresses[o_cognitiveJob] = uint16(cognitiveJobs.length);\n\n        o_cognitiveJob.initialize();\n    }\n\n    /// @notice Can\"t be called by the user or other contract: for private use only\n    /// @dev Running lottery to select random worker nodes from the provided list. Used by both `createCognitiveJob`\n    /// and `_checksJobQueue` functions.\n    function _selectWorkersWithLottery(\n        IWorkerNode[] _idleWorkers, /// Pre-defined pool of Idle WorkerNodes to select from\n        uint _numberWorkersRequired /// Number of workers required by cognitive job, match with number of batches\n    )\n    private\n    returns (\n        IWorkerNode[] assignedWorkers /// Resulting sublist of the selected WorkerNodes\n    ) {\n        assignedWorkers = new IWorkerNode[](_numberWorkersRequired);\n        uint256[] memory randomNumbers = getRandomArray(\n            assignedWorkers.length,\n            uint256(_idleWorkers.length));\n        for (uint i = 0; i < assignedWorkers.length; i++) {\n            assignedWorkers[i] = _idleWorkers[randomNumbers[i]];\n        }\n    }\n\n    /// @notice Can\"t be called by the user or other contract: for private use only\n    /// @dev Pre-count amount of available Idle WorkerNodes. Required to allocate in-memory list of WorkerNodes.\n    function _countIdleWorkers(\n        // No arguments\n    )\n    private\n    view\n    returns (\n        uint o_estimatedSize /// Amount of currently available (Idle) WorkerNodes\n    ) {\n        o_estimatedSize = 0;\n        for (uint i = 0; i < workerNodes.length; i++) {\n            if (workerNodes[i].currentState() == workerNodes[i].Idle()) {\n                o_estimatedSize++;\n            }\n        }\n        return o_estimatedSize;\n    }\n\n    /// @notice Can\"t be called by the user or other contract: for private use only\n    /// @dev Allocates and returns in-memory array of all Idle WorkerNodes taking estimated size as an argument\n    /// (returned by `_countIdleWorkers()`)\n    function _listIdleWorkers(\n        uint _estimatedSize /// Size of array to return\n    )\n    private\n    view\n    returns (\n        IWorkerNode[] /// Returned array of all Idle WorkerNodes\n    ) {\n        IWorkerNode[] memory idleWorkers = new IWorkerNode[](_estimatedSize);\n        uint256 actualSize = 0;\n        for (uint j = 0; j < workerNodes.length; j++) {\n            if (workerNodes[j].currentState() == workerNodes[j].Idle()) {\n                idleWorkers[actualSize++] = workerNodes[j];\n            }\n        }\n        return idleWorkers;\n    }\n\n    function getRandomArray(\n        uint _arrayLength,\n        uint256 _numbersRange)\n    public\n    returns (uint256[] o_result) {\n        o_result = new uint256[](_arrayLength);\n        for (uint i = 0; i < o_result.length; i++) {\n            o_result[i] = workerLotteryEngine.getRandom(_numbersRange);\n        }\n    }\n}",
  "sourcePath": "/home/kostysh/dev/pyrrha-consensus/contracts/pandora/managers/CognitiveJobManager.sol",
  "compiler": {
    "name": "solc",
    "version": "0.4.24+commit.e67f0147.Emscripten.clang"
  },
  "schemaVersion": "2.0.0",
  "updatedAt": "2018-06-19T10:02:41.307Z"
}