{
  "contractName": "CognitiveJobManager",
  "abi": [
    {
      "constant": true,
      "inputs": [],
      "name": "workerNodesCount",
      "outputs": [
        {
          "name": "",
          "type": "uint256"
        }
      ],
      "payable": false,
      "stateMutability": "view",
      "type": "function"
    },
    {
      "constant": false,
      "inputs": [
        {
          "name": "_workerOwner",
          "type": "address"
        }
      ],
      "name": "whitelistWorkerOwner",
      "outputs": [],
      "payable": false,
      "stateMutability": "nonpayable",
      "type": "function"
    },
    {
      "constant": true,
      "inputs": [],
      "name": "initialized",
      "outputs": [
        {
          "name": "",
          "type": "bool"
        }
      ],
      "payable": false,
      "stateMutability": "view",
      "type": "function"
    },
    {
      "constant": true,
      "inputs": [
        {
          "name": "",
          "type": "uint256"
        }
      ],
      "name": "workerNodes",
      "outputs": [
        {
          "name": "",
          "type": "address"
        }
      ],
      "payable": false,
      "stateMutability": "view",
      "type": "function"
    },
    {
      "constant": true,
      "inputs": [],
      "name": "RESULT_CODE_JOB_CREATED",
      "outputs": [
        {
          "name": "",
          "type": "uint8"
        }
      ],
      "payable": false,
      "stateMutability": "view",
      "type": "function"
    },
    {
      "constant": true,
      "inputs": [],
      "name": "cognitiveJobFactory",
      "outputs": [
        {
          "name": "",
          "type": "address"
        }
      ],
      "payable": false,
      "stateMutability": "view",
      "type": "function"
    },
    {
      "constant": true,
      "inputs": [
        {
          "name": "",
          "type": "address"
        }
      ],
      "name": "jobAddresses",
      "outputs": [
        {
          "name": "",
          "type": "uint16"
        }
      ],
      "payable": false,
      "stateMutability": "view",
      "type": "function"
    },
    {
      "constant": false,
      "inputs": [
        {
          "name": "_guiltyWorker",
          "type": "address"
        },
        {
          "name": "_reason",
          "type": "uint8"
        }
      ],
      "name": "penaltizeWorkerNode",
      "outputs": [],
      "payable": false,
      "stateMutability": "nonpayable",
      "type": "function"
    },
    {
      "constant": true,
      "inputs": [
        {
          "name": "",
          "type": "address"
        }
      ],
      "name": "workerNodeOwners",
      "outputs": [
        {
          "name": "",
          "type": "bool"
        }
      ],
      "payable": false,
      "stateMutability": "view",
      "type": "function"
    },
    {
      "constant": false,
      "inputs": [],
      "name": "renounceOwnership",
      "outputs": [],
      "payable": false,
      "stateMutability": "nonpayable",
      "type": "function"
    },
    {
      "constant": false,
      "inputs": [
        {
          "name": "_workerOwner",
          "type": "address"
        }
      ],
      "name": "blacklistWorkerOwner",
      "outputs": [],
      "payable": false,
      "stateMutability": "nonpayable",
      "type": "function"
    },
    {
      "constant": false,
      "inputs": [],
      "name": "initialize",
      "outputs": [],
      "payable": false,
      "stateMutability": "nonpayable",
      "type": "function"
    },
    {
      "constant": true,
      "inputs": [],
      "name": "RESULT_CODE_ADD_TO_QUEUE",
      "outputs": [
        {
          "name": "",
          "type": "uint8"
        }
      ],
      "payable": false,
      "stateMutability": "view",
      "type": "function"
    },
    {
      "constant": false,
      "inputs": [],
      "name": "createWorkerNode",
      "outputs": [
        {
          "name": "",
          "type": "address"
        }
      ],
      "payable": false,
      "stateMutability": "nonpayable",
      "type": "function"
    },
    {
      "constant": true,
      "inputs": [],
      "name": "owner",
      "outputs": [
        {
          "name": "",
          "type": "address"
        }
      ],
      "payable": false,
      "stateMutability": "view",
      "type": "function"
    },
    {
      "constant": false,
      "inputs": [
        {
          "name": "_workerNode",
          "type": "address"
        }
      ],
      "name": "destroyWorkerNode",
      "outputs": [],
      "payable": false,
      "stateMutability": "nonpayable",
      "type": "function"
    },
    {
      "constant": true,
      "inputs": [
        {
          "name": "",
          "type": "uint256"
        }
      ],
      "name": "cognitiveJobs",
      "outputs": [
        {
          "name": "",
          "type": "address"
        }
      ],
      "payable": false,
      "stateMutability": "view",
      "type": "function"
    },
    {
      "constant": true,
      "inputs": [],
      "name": "REQUIRED_DEPOSIT",
      "outputs": [
        {
          "name": "",
          "type": "uint256"
        }
      ],
      "payable": false,
      "stateMutability": "view",
      "type": "function"
    },
    {
      "constant": false,
      "inputs": [
        {
          "name": "_newOwner",
          "type": "address"
        }
      ],
      "name": "transferOwnership",
      "outputs": [],
      "payable": false,
      "stateMutability": "nonpayable",
      "type": "function"
    },
    {
      "constant": true,
      "inputs": [],
      "name": "workerNodeFactory",
      "outputs": [
        {
          "name": "",
          "type": "address"
        }
      ],
      "payable": false,
      "stateMutability": "view",
      "type": "function"
    },
    {
      "constant": true,
      "inputs": [
        {
          "name": "",
          "type": "address"
        }
      ],
      "name": "deposits",
      "outputs": [
        {
          "name": "",
          "type": "uint256"
        }
      ],
      "payable": false,
      "stateMutability": "view",
      "type": "function"
    },
    {
      "constant": true,
      "inputs": [
        {
          "name": "",
          "type": "address"
        }
      ],
      "name": "workerAddresses",
      "outputs": [
        {
          "name": "",
          "type": "uint16"
        }
      ],
      "payable": false,
      "stateMutability": "view",
      "type": "function"
    },
    {
      "inputs": [
        {
          "name": "_jobFactory",
          "type": "address"
        },
        {
          "name": "_nodeFactory",
          "type": "address"
        },
        {
          "name": "_reputation",
          "type": "address"
        }
      ],
      "payable": false,
      "stateMutability": "nonpayable",
      "type": "constructor"
    },
    {
      "anonymous": false,
      "inputs": [
        {
          "indexed": false,
          "name": "cognitiveJob",
          "type": "address"
        },
        {
          "indexed": false,
          "name": "resultCode",
          "type": "uint256"
        }
      ],
      "name": "CognitiveJobCreated",
      "type": "event"
    },
    {
      "anonymous": false,
      "inputs": [
        {
          "indexed": false,
          "name": "cognitiveJob",
          "type": "address"
        },
        {
          "indexed": false,
          "name": "resultCode",
          "type": "uint256"
        }
      ],
      "name": "CognitiveJobCreateFailed",
      "type": "event"
    },
    {
      "anonymous": false,
      "inputs": [
        {
          "indexed": false,
          "name": "workerNode",
          "type": "address"
        }
      ],
      "name": "WorkerNodeCreated",
      "type": "event"
    },
    {
      "anonymous": false,
      "inputs": [
        {
          "indexed": false,
          "name": "workerNode",
          "type": "address"
        }
      ],
      "name": "WorkerNodeDestroyed",
      "type": "event"
    },
    {
      "anonymous": false,
      "inputs": [
        {
          "indexed": true,
          "name": "previousOwner",
          "type": "address"
        }
      ],
      "name": "OwnershipRenounced",
      "type": "event"
    },
    {
      "anonymous": false,
      "inputs": [
        {
          "indexed": true,
          "name": "previousOwner",
          "type": "address"
        },
        {
          "indexed": true,
          "name": "newOwner",
          "type": "address"
        }
      ],
      "name": "OwnershipTransferred",
      "type": "event"
    },
    {
      "anonymous": false,
      "inputs": [
        {
          "indexed": false,
          "name": "cognitiveJob",
          "type": "address"
        }
      ],
      "name": "CognitiveJobCreated",
      "type": "event"
    },
    {
      "constant": true,
      "inputs": [],
      "name": "cognitiveJobsCount",
      "outputs": [
        {
          "name": "",
          "type": "uint256"
        }
      ],
      "payable": false,
      "stateMutability": "view",
      "type": "function"
    },
    {
      "constant": true,
      "inputs": [
        {
          "name": "_job",
          "type": "address"
        }
      ],
      "name": "isActiveJob",
      "outputs": [
        {
          "name": "",
          "type": "bool"
        }
      ],
      "payable": false,
      "stateMutability": "view",
      "type": "function"
    },
    {
      "constant": false,
      "inputs": [
        {
          "name": "_kernel",
          "type": "address"
        },
        {
          "name": "_dataset",
          "type": "address"
        },
        {
          "name": "_complexity",
          "type": "uint256"
        },
        {
          "name": "_description",
          "type": "bytes32"
        }
      ],
      "name": "createCognitiveJob",
      "outputs": [
        {
          "name": "o_cognitiveJob",
          "type": "address"
        },
        {
          "name": "o_resultCode",
          "type": "uint8"
        }
      ],
      "payable": true,
      "stateMutability": "payable",
      "type": "function"
    },
    {
      "constant": false,
      "inputs": [],
      "name": "finishCognitiveJob",
      "outputs": [],
      "payable": false,
      "stateMutability": "nonpayable",
      "type": "function"
    },
    {
      "constant": false,
      "inputs": [
        {
          "name": "_cognitiveJob",
          "type": "address"
        }
      ],
      "name": "unlockFinalizedWorker",
      "outputs": [],
      "payable": false,
      "stateMutability": "nonpayable",
      "type": "function"
    }
  ],
  "bytecode": "0x608060405260008060006101000a81548160ff0219169083151502179055503480156200002b57600080fd5b50604051606080620038b28339810180604052810190808051906020019092919080519060200190929190805190602001909291905050508160008060006101000a81548160ff02191690831515021790555033600360006101000a81548173ffffffffffffffffffffffffffffffffffffffff021916908373ffffffffffffffffffffffffffffffffffffffff160217905550600073ffffffffffffffffffffffffffffffffffffffff168173ffffffffffffffffffffffffffffffffffffffff1614151515620000fc57600080fd5b80600760006101000a81548173ffffffffffffffffffffffffffffffffffffffff021916908373ffffffffffffffffffffffffffffffffffffffff16021790555050600073ffffffffffffffffffffffffffffffffffffffff168373ffffffffffffffffffffffffffffffffffffffff16141515156200017b57600080fd5b82600b60006101000a81548173ffffffffffffffffffffffffffffffffffffffff021916908373ffffffffffffffffffffffffffffffffffffffff16021790555080600e60006101000a81548173ffffffffffffffffffffffffffffffffffffffff021916908373ffffffffffffffffffffffffffffffffffffffff160217905550620002076200026e565b604051809103906000f08015801562000224573d6000803e3d6000fd5b50601060006101000a81548173ffffffffffffffffffffffffffffffffffffffff021916908373ffffffffffffffffffffffffffffffffffffffff1602179055505050506200027f565b604051610165806200374d83390190565b6134be806200028f6000396000f30060806040526004361061015f576000357c0100000000000000000000000000000000000000000000000000000000900463ffffffff1680630ba58574146101645780630e3b581f146101bf57806313b5165f146101ea578063158ef93e1461022d578063171317511461025c5780631dc20af41461027357806323ce524a146102e057806336bad82814610311578063407ec8ee146103685780635ecc2e44146103ab5780635ef177761461040a57806370064e331461045a578063715018a6146104b55780637b3c611c146104cc5780638129fc1c1461050f57806383c94c691461052657806386b07332146105575780638da5cb5b146105ae578063a00197fb14610605578063ae1092ae14610630578063b643809514610673578063be64b76b146106e0578063ea84546b1461070b578063f2fde38b146107c6578063f9d84ade14610809578063fc7e286d14610860578063fdb5b8d4146108b7575b600080fd5b34801561017057600080fd5b506101a5600480360381019080803573ffffffffffffffffffffffffffffffffffffffff169060200190929190505050610916565b604051808215151515815260200191505060405180910390f35b3480156101cb57600080fd5b506101d4610a24565b6040518082815260200191505060405180910390f35b3480156101f657600080fd5b5061022b600480360381019080803573ffffffffffffffffffffffffffffffffffffffff169060200190929190505050610a52565b005b34801561023957600080fd5b50610242610b09565b604051808215151515815260200191505060405180910390f35b34801561026857600080fd5b50610271610b1b565b005b34801561027f57600080fd5b5061029e60048036038101908080359060200190929190505050610e66565b604051808273ffffffffffffffffffffffffffffffffffffffff1673ffffffffffffffffffffffffffffffffffffffff16815260200191505060405180910390f35b3480156102ec57600080fd5b506102f5610ea4565b604051808260ff1660ff16815260200191505060405180910390f35b34801561031d57600080fd5b50610326610ea9565b604051808273ffffffffffffffffffffffffffffffffffffffff1673ffffffffffffffffffffffffffffffffffffffff16815260200191505060405180910390f35b34801561037457600080fd5b506103a9600480360381019080803573ffffffffffffffffffffffffffffffffffffffff169060200190929190505050610ecf565b005b3480156103b757600080fd5b506103ec600480360381019080803573ffffffffffffffffffffffffffffffffffffffff169060200190929190505050610f56565b604051808261ffff1661ffff16815260200191505060405180910390f35b34801561041657600080fd5b50610458600480360381019080803573ffffffffffffffffffffffffffffffffffffffff169060200190929190803560ff169060200190929190505050610f77565b005b34801561046657600080fd5b5061049b600480360381019080803573ffffffffffffffffffffffffffffffffffffffff169060200190929190505050610f9c565b604051808215151515815260200191505060405180910390f35b3480156104c157600080fd5b506104ca610fbc565b005b3480156104d857600080fd5b5061050d600480360381019080803573ffffffffffffffffffffffffffffffffffffffff1690602001909291905050506110c1565b005b34801561051b57600080fd5b5061052461116f565b005b34801561053257600080fd5b5061053b61118b565b604051808260ff1660ff16815260200191505060405180910390f35b34801561056357600080fd5b5061056c611190565b604051808273ffffffffffffffffffffffffffffffffffffffff1673ffffffffffffffffffffffffffffffffffffffff16815260200191505060405180910390f35b3480156105ba57600080fd5b506105c361148a565b604051808273ffffffffffffffffffffffffffffffffffffffff1673ffffffffffffffffffffffffffffffffffffffff16815260200191505060405180910390f35b34801561061157600080fd5b5061061a6114b0565b6040518082815260200191505060405180910390f35b34801561063c57600080fd5b50610671600480360381019080803573ffffffffffffffffffffffffffffffffffffffff1690602001909291905050506114de565b005b34801561067f57600080fd5b5061069e60048036038101908080359060200190929190505050611a30565b604051808273ffffffffffffffffffffffffffffffffffffffff1673ffffffffffffffffffffffffffffffffffffffff16815260200191505060405180910390f35b3480156106ec57600080fd5b506106f5611a6e565b6040518082815260200191505060405180910390f35b610777600480360381019080803573ffffffffffffffffffffffffffffffffffffffff169060200190929190803573ffffffffffffffffffffffffffffffffffffffff169060200190929190803590602001909291908035600019169060200190929190505050611a7a565b604051808373ffffffffffffffffffffffffffffffffffffffff1673ffffffffffffffffffffffffffffffffffffffff1681526020018260ff1660ff1681526020019250505060405180910390f35b3480156107d257600080fd5b50610807600480360381019080803573ffffffffffffffffffffffffffffffffffffffff169060200190929190505050611f03565b005b34801561081557600080fd5b5061081e611f6b565b604051808273ffffffffffffffffffffffffffffffffffffffff1673ffffffffffffffffffffffffffffffffffffffff16815260200191505060405180910390f35b34801561086c57600080fd5b506108a1600480360381019080803573ffffffffffffffffffffffffffffffffffffffff169060200190929190505050611f91565b6040518082815260200191505060405180910390f35b3480156108c357600080fd5b506108f8600480360381019080803573ffffffffffffffffffffffffffffffffffffffff169060200190929190505050611fa9565b604051808261ffff1661ffff16815260200191505060405180910390f35b6000806000600115156000809054906101000a900460ff16151514151561093c57600080fd5b600c60008573ffffffffffffffffffffffffffffffffffffffff1673ffffffffffffffffffffffffffffffffffffffff16815260200190815260200160002060009054906101000a900461ffff16915060008261ffff1614156109a25760009250610a1d565b818060019003925050600d8261ffff168154811015156109be57fe5b9060005260206000200160009054906101000a900473ffffffffffffffffffffffffffffffffffffffff1690508373ffffffffffffffffffffffffffffffffffffffff168173ffffffffffffffffffffffffffffffffffffffff161492505b5050919050565b6000600115156000809054906101000a900460ff161515141515610a4757600080fd5b600880549050905090565b600360009054906101000a900473ffffffffffffffffffffffffffffffffffffffff1673ffffffffffffffffffffffffffffffffffffffff163373ffffffffffffffffffffffffffffffffffffffff16141515610aae57600080fd5b6001600a60008373ffffffffffffffffffffffffffffffffffffffff1673ffffffffffffffffffffffffffffffffffffffff16815260200190815260200160002060006101000a81548160ff02191690831515021790555050565b6000809054906101000a900460ff1681565b600080600080600115156000809054906101000a900460ff161515141515610b4257600080fd5b600c60003373ffffffffffffffffffffffffffffffffffffffff1673ffffffffffffffffffffffffffffffffffffffff16815260200190815260200160002060009054906101000a900461ffff16935060008461ffff1614151515610ba657600080fd5b838060019003945050600d8461ffff16815481101515610bc257fe5b9060005260206000200160009054906101000a900473ffffffffffffffffffffffffffffffffffffffff1692503373ffffffffffffffffffffffffffffffffffffffff168373ffffffffffffffffffffffffffffffffffffffff16141515610c2957600080fd5b8273ffffffffffffffffffffffffffffffffffffffff166323d554736040518163ffffffff167c0100000000000000000000000000000000000000000000000000000000028152600401602060405180830381600087803b158015610c8d57600080fd5b505af1158015610ca1573d6000803e3d6000fd5b505050506040513d6020811015610cb757600080fd5b81019080805190602001909291905050509150600090505b8273ffffffffffffffffffffffffffffffffffffffff16634804b4ba6040518163ffffffff167c0100000000000000000000000000000000000000000000000000000000028152600401602060405180830381600087803b158015610d3357600080fd5b505af1158015610d47573d6000803e3d6000fd5b505050506040513d6020811015610d5d57600080fd5b810190808051906020019092919050505081111515610e6057600e60009054906101000a900473ffffffffffffffffffffffffffffffffffffffff1673ffffffffffffffffffffffffffffffffffffffff1663e6808ff082846040518363ffffffff167c0100000000000000000000000000000000000000000000000000000000028152600401808373ffffffffffffffffffffffffffffffffffffffff1673ffffffffffffffffffffffffffffffffffffffff16815260200182815260200192505050600060405180830381600087803b158015610e3b57600080fd5b505af1158015610e4f573d6000803e3d6000fd5b505050508080600101915050610ccf565b50505050565b600881815481101515610e7557fe5b906000526020600020016000915054906101000a900473ffffffffffffffffffffffffffffffffffffffff1681565b600181565b600b60009054906101000a900473ffffffffffffffffffffffffffffffffffffffff1681565b8073ffffffffffffffffffffffffffffffffffffffff16637932293a6040518163ffffffff167c0100000000000000000000000000000000000000000000000000000000028152600401600060405180830381600087803b158015610f3357600080fd5b505af1158015610f47573d6000803e3d6000fd5b50505050610f53611fca565b50565b600c6020528060005260406000206000915054906101000a900461ffff1681565b600115156000809054906101000a900460ff161515141515610f9857600080fd5b5050565b600a6020528060005260406000206000915054906101000a900460ff1681565b600360009054906101000a900473ffffffffffffffffffffffffffffffffffffffff1673ffffffffffffffffffffffffffffffffffffffff163373ffffffffffffffffffffffffffffffffffffffff1614151561101857600080fd5b600360009054906101000a900473ffffffffffffffffffffffffffffffffffffffff1673ffffffffffffffffffffffffffffffffffffffff167ff8df31144d9c2f0f6b59d69b8b98abd5459d07f2742c4df920b25aae33c6482060405160405180910390a26000600360006101000a81548173ffffffffffffffffffffffffffffffffffffffff021916908373ffffffffffffffffffffffffffffffffffffffff160217905550565b600360009054906101000a900473ffffffffffffffffffffffffffffffffffffffff1673ffffffffffffffffffffffffffffffffffffffff163373ffffffffffffffffffffffffffffffffffffffff1614151561111d57600080fd5b600a60008273ffffffffffffffffffffffffffffffffffffffff1673ffffffffffffffffffffffffffffffffffffffff16815260200190815260200160002060006101000a81549060ff021916905550565b60016000806101000a81548160ff021916908315150217905550565b600081565b600080600115156000809054906101000a900460ff1615151415156111b457600080fd5b60011515600a60003373ffffffffffffffffffffffffffffffffffffffff1673ffffffffffffffffffffffffffffffffffffffff16815260200190815260200160002060009054906101000a900460ff16151514151561121357600080fd5b3273ffffffffffffffffffffffffffffffffffffffff163373ffffffffffffffffffffffffffffffffffffffff1614151561124d57600080fd5b600d60088054905010151561126157600080fd5b600760009054906101000a900473ffffffffffffffffffffffffffffffffffffffff1673ffffffffffffffffffffffffffffffffffffffff16639ed93318336040518263ffffffff167c0100000000000000000000000000000000000000000000000000000000028152600401808273ffffffffffffffffffffffffffffffffffffffff1673ffffffffffffffffffffffffffffffffffffffff168152602001915050602060405180830381600087803b15801561131e57600080fd5b505af1158015611332573d6000803e3d6000fd5b505050506040513d602081101561134857600080fd5b8101908080519060200190929190505050905060088190806001815401808255809150509060018203906000526020600020016000909192909190916101000a81548173ffffffffffffffffffffffffffffffffffffffff021916908373ffffffffffffffffffffffffffffffffffffffff16021790555050600880549050600960008373ffffffffffffffffffffffffffffffffffffffff1673ffffffffffffffffffffffffffffffffffffffff16815260200190815260200160002060006101000a81548161ffff021916908361ffff1602179055507f093794466f44429afc8d8ec2c4c7f42c98d5db9b3db965ce46a31e7d4f7c29c881604051808273ffffffffffffffffffffffffffffffffffffffff1673ffffffffffffffffffffffffffffffffffffffff16815260200191505060405180910390a18091505090565b600360009054906101000a900473ffffffffffffffffffffffffffffffffffffffff1681565b6000600115156000809054906101000a900460ff1615151415156114d357600080fd5b600d80549050905090565b60008060008360003390508173ffffffffffffffffffffffffffffffffffffffff16638da5cb5b6040518163ffffffff167c0100000000000000000000000000000000000000000000000000000000028152600401602060405180830381600087803b15801561154d57600080fd5b505af1158015611561573d6000803e3d6000fd5b505050506040513d602081101561157757600080fd5b810190808051906020019092919050505073ffffffffffffffffffffffffffffffffffffffff168173ffffffffffffffffffffffffffffffffffffffff161415156115c157600080fd5b6000600960008373ffffffffffffffffffffffffffffffffffffffff1673ffffffffffffffffffffffffffffffffffffffff16815260200190815260200160002060009054906101000a900461ffff1661ffff1611151561162157600080fd5b600115156000809054906101000a900460ff16151514151561164257600080fd5b3394508573ffffffffffffffffffffffffffffffffffffffff1663ae897c556040518163ffffffff167c0100000000000000000000000000000000000000000000000000000000028152600401602060405180830381600087803b1580156116a957600080fd5b505af11580156116bd573d6000803e3d6000fd5b505050506040513d60208110156116d357600080fd5b810190808051906020019092919050505060ff168673ffffffffffffffffffffffffffffffffffffffff16630c3f6acf6040518163ffffffff167c0100000000000000000000000000000000000000000000000000000000028152600401602060405180830381600087803b15801561174b57600080fd5b505af115801561175f573d6000803e3d6000fd5b505050506040513d602081101561177557600080fd5b810190808051906020019092919050505060ff1614151561179557600080fd5b8573ffffffffffffffffffffffffffffffffffffffff166383197ef06040518163ffffffff167c0100000000000000000000000000000000000000000000000000000000028152600401600060405180830381600087803b1580156117f957600080fd5b505af115801561180d573d6000803e3d6000fd5b505050506001600960008773ffffffffffffffffffffffffffffffffffffffff1673ffffffffffffffffffffffffffffffffffffffff16815260200190815260200160002060009054906101000a900461ffff16039350600960008673ffffffffffffffffffffffffffffffffffffffff1673ffffffffffffffffffffffffffffffffffffffff16815260200190815260200160002060006101000a81549061ffff021916905560086001600880549050038154811015156118cb57fe5b9060005260206000200160009054906101000a900473ffffffffffffffffffffffffffffffffffffffff1660088561ffff1681548110151561190957fe5b9060005260206000200160006101000a81548173ffffffffffffffffffffffffffffffffffffffff021916908373ffffffffffffffffffffffffffffffffffffffff1602179055925060018401600960008573ffffffffffffffffffffffffffffffffffffffff1673ffffffffffffffffffffffffffffffffffffffff16815260200190815260200160002060006101000a81548161ffff021916908361ffff16021790555060088054809190600190036119c491906133c5565b507f677f03e392472a48b617167ed4dbec758d26d8517257ec077bed2d27d192816486604051808273ffffffffffffffffffffffffffffffffffffffff1673ffffffffffffffffffffffffffffffffffffffff16815260200191505060405180910390a1505050505050565b600d81815481101515611a3f57fe5b906000526020600020016000915054906101000a900473ffffffffffffffffffffffffffffffffffffffff1681565b6706f05b59d3b2000081565b600080600080606080600115156000809054906101000a900460ff161515141515611aa457600080fd5b8873ffffffffffffffffffffffffffffffffffffffff166387ea09616040518163ffffffff167c0100000000000000000000000000000000000000000000000000000000028152600401602060405180830381600087803b158015611b0857600080fd5b505af1158015611b1c573d6000803e3d6000fd5b505050506040513d6020811015611b3257600080fd5b81019080805190602001909291905050509350600a8460ff1611151515611b5857600080fd5b8873ffffffffffffffffffffffffffffffffffffffff1663b1f8d9ba6040518163ffffffff167c0100000000000000000000000000000000000000000000000000000000028152600401602060405180830381600087803b158015611bbc57600080fd5b505af1158015611bd0573d6000803e3d6000fd5b505050506040513d6020811015611be657600080fd5b81019080805190602001909291905050508a73ffffffffffffffffffffffffffffffffffffffff1663b1f8d9ba6040518163ffffffff167c0100000000000000000000000000000000000000000000000000000000028152600401602060405180830381600087803b158015611c5b57600080fd5b505af1158015611c6f573d6000803e3d6000fd5b505050506040513d6020811015611c8557600080fd5b8101908080519060200190929190505050141515611ca257600080fd5b61ffff600d80549050101515611cb757600080fd5b6706f05b59d3b200003410151515611cce57600080fd5b611cd6612293565b92508360ff16831015611e135760009450611d0a8a8a33348860ff168d8d601161248590979695949392919063ffffffff16565b50611d5d34600f60003373ffffffffffffffffffffffffffffffffffffffff1673ffffffffffffffffffffffffffffffffffffffff1681526020019081526020016000205461268a90919063ffffffff16565b600f60003373ffffffffffffffffffffffffffffffffffffffff1673ffffffffffffffffffffffffffffffffffffffff168152602001908152602001600020819055507fea6be648d373c4709986e67f6b7ee9ef9875b1243f38efc6bd48024bc10f8aac8686604051808373ffffffffffffffffffffffffffffffffffffffff1673ffffffffffffffffffffffffffffffffffffffff1681526020018260ff1681526020019250505060405180910390a1611ef6565b3373ffffffffffffffffffffffffffffffffffffffff166108fc349081150290604051600060405180830381858888f19350505050158015611e59573d6000803e3d6000fd5b50611e63836126a6565b9150611e72828560ff16612953565b9050611e818a8a838b8b612af7565b9550600194507f422ca471d1a1b69b87453d0f5149fd001dc7fd04fc2b5b8b8d70b17398a9b85a8686604051808373ffffffffffffffffffffffffffffffffffffffff1673ffffffffffffffffffffffffffffffffffffffff1681526020018260ff1681526020019250505060405180910390a15b5050505094509492505050565b600360009054906101000a900473ffffffffffffffffffffffffffffffffffffffff1673ffffffffffffffffffffffffffffffffffffffff163373ffffffffffffffffffffffffffffffffffffffff16141515611f5f57600080fd5b611f6881612f79565b50565b600760009054906101000a900473ffffffffffffffffffffffffffffffffffffffff1681565b600f6020528060005260406000206000915090505481565b60096020528060005260406000206000915054906101000a900461ffff1681565b611fd26133f1565b60008060008060606000806060600080600115156000809054906101000a900460ff16151514151561200357600080fd5b61200d6011613075565b9950600a8a1161201d5789612020565b600a5b9950600098505b89891015612286575a975061203a612293565b965060008711151561204b57612286565b612054876126a6565b955085519450868514151561206857612286565b61207c85601161308c90919063ffffffff16565b151561208757612286565b61209160116130b5565b809550819c5050506120a7868c60600151612953565b92506120b38b846130e4565b91507f422ca471d1a1b69b87453d0f5149fd001dc7fd04fc2b5b8b8d70b17398a9b85a826001604051808373ffffffffffffffffffffffffffffffffffffffff1673ffffffffffffffffffffffffffffffffffffffff1681526020018260ff1681526020019250505060405180910390a13a5a8961dea801030290508381111561213b578390505b61219184600f60008e6040015173ffffffffffffffffffffffffffffffffffffffff1673ffffffffffffffffffffffffffffffffffffffff1681526020019081526020016000205461312c90919063ffffffff16565b600f60008d6040015173ffffffffffffffffffffffffffffffffffffffff1673ffffffffffffffffffffffffffffffffffffffff168152602001908152602001600020819055503273ffffffffffffffffffffffffffffffffffffffff166108fc829081150290604051600060405180830381858888f1935050505015801561221e573d6000803e3d6000fd5b506000818503141515612279578a6040015173ffffffffffffffffffffffffffffffffffffffff166108fc8286039081150290604051600060405180830381858888f19350505050158015612277573d6000803e3d6000fd5b505b8880600101995050612027565b5050505050505050505050565b60008060009150600090505b60088054905081101561247e576008818154811015156122bb57fe5b9060005260206000200160009054906101000a900473ffffffffffffffffffffffffffffffffffffffff1673ffffffffffffffffffffffffffffffffffffffff1663ae897c556040518163ffffffff167c0100000000000000000000000000000000000000000000000000000000028152600401602060405180830381600087803b15801561234957600080fd5b505af115801561235d573d6000803e3d6000fd5b505050506040513d602081101561237357600080fd5b810190808051906020019092919050505060ff1660088281548110151561239657fe5b9060005260206000200160009054906101000a900473ffffffffffffffffffffffffffffffffffffffff1673ffffffffffffffffffffffffffffffffffffffff16630c3f6acf6040518163ffffffff167c0100000000000000000000000000000000000000000000000000000000028152600401602060405180830381600087803b15801561242457600080fd5b505af1158015612438573d6000803e3d6000fd5b505050506040513d602081101561244e57600080fd5b810190808051906020019092919050505060ff1614156124715781806001019250505b808060010191505061229f565b8191505090565b6000886000018054905060018a60000180549050011115156124a657600080fd5b8860000160c0604051908101604052808a73ffffffffffffffffffffffffffffffffffffffff1681526020018973ffffffffffffffffffffffffffffffffffffffff1681526020018873ffffffffffffffffffffffffffffffffffffffff16815260200186815260200185815260200184600019168152509080600181540180825580915050906001820390600052602060002090600602016000909192909190915060008201518160000160006101000a81548173ffffffffffffffffffffffffffffffffffffffff021916908373ffffffffffffffffffffffffffffffffffffffff16021790555060208201518160010160006101000a81548173ffffffffffffffffffffffffffffffffffffffff021916908373ffffffffffffffffffffffffffffffffffffffff16021790555060408201518160020160006101000a81548173ffffffffffffffffffffffffffffffffffffffff021916908373ffffffffffffffffffffffffffffffffffffffff160217905550606082015181600301556080820151816004015560a082015181600501906000191690555050508860010185908060018154018082558091505090600182039060005260206000200160009091929091909150555061267c89613075565b905098975050505050505050565b6000818301905082811015151561269d57fe5b80905092915050565b606080600080846040519080825280602002602001820160405280156126db5781602001602082028038833980820191505090505b50925060009150600090505b6008805490508110156129485760088181548110151561270357fe5b9060005260206000200160009054906101000a900473ffffffffffffffffffffffffffffffffffffffff1673ffffffffffffffffffffffffffffffffffffffff1663ae897c556040518163ffffffff167c0100000000000000000000000000000000000000000000000000000000028152600401602060405180830381600087803b15801561279157600080fd5b505af11580156127a5573d6000803e3d6000fd5b505050506040513d60208110156127bb57600080fd5b810190808051906020019092919050505060ff166008828154811015156127de57fe5b9060005260206000200160009054906101000a900473ffffffffffffffffffffffffffffffffffffffff1673ffffffffffffffffffffffffffffffffffffffff16630c3f6acf6040518163ffffffff167c0100000000000000000000000000000000000000000000000000000000028152600401602060405180830381600087803b15801561286c57600080fd5b505af1158015612880573d6000803e3d6000fd5b505050506040513d602081101561289657600080fd5b810190808051906020019092919050505060ff16141561293b576008818154811015156128bf57fe5b9060005260206000200160009054906101000a900473ffffffffffffffffffffffffffffffffffffffff1683838060010194508151811015156128fe57fe5b9060200190602002019073ffffffffffffffffffffffffffffffffffffffff16908173ffffffffffffffffffffffffffffffffffffffff16815250505b80806001019150506126e7565b829350505050919050565b6060600080836040519080825280602002602001820160405280156129875781602001602082028038833980820191505090505b509250601060009054906101000a900473ffffffffffffffffffffffffffffffffffffffff1673ffffffffffffffffffffffffffffffffffffffff1663cd4b691484516040518263ffffffff167c010000000000000000000000000000000000000000000000000000000002815260040180828152602001915050602060405180830381600087803b158015612a1c57600080fd5b505af1158015612a30573d6000803e3d6000fd5b505050506040513d6020811015612a4657600080fd5b81019080805190602001909291905050509150600090505b8251811015612aef578482815181101515612a7557fe5b906020019060200201518382815181101515612a8d57fe5b9060200190602002019073ffffffffffffffffffffffffffffffffffffffff16908173ffffffffffffffffffffffffffffffffffffffff168152505060018351038214612add5760018201612ae0565b60005b91508080600101915050612a5e565b505092915050565b6000600115156000809054906101000a900460ff161515141515612b1a57600080fd5b600b60009054906101000a900473ffffffffffffffffffffffffffffffffffffffff1673ffffffffffffffffffffffffffffffffffffffff16630109c3f987878787876040518663ffffffff167c0100000000000000000000000000000000000000000000000000000000028152600401808673ffffffffffffffffffffffffffffffffffffffff1673ffffffffffffffffffffffffffffffffffffffff1681526020018573ffffffffffffffffffffffffffffffffffffffff1673ffffffffffffffffffffffffffffffffffffffff168152602001806020018481526020018360001916600019168152602001828103825285818151815260200191508051906020019060200280838360005b83811015612c43578082015181840152602081019050612c28565b505050509050019650505050505050602060405180830381600087803b158015612c6c57600080fd5b505af1158015612c80573d6000803e3d6000fd5b505050506040513d6020811015612c9657600080fd5b81019080805190602001909291905050509050600073ffffffffffffffffffffffffffffffffffffffff168173ffffffffffffffffffffffffffffffffffffffff1614151515612ce257fe5b8073ffffffffffffffffffffffffffffffffffffffff16631c72fad46040518163ffffffff167c0100000000000000000000000000000000000000000000000000000000028152600401602060405180830381600087803b158015612d4657600080fd5b505af1158015612d5a573d6000803e3d6000fd5b505050506040513d6020811015612d7057600080fd5b810190808051906020019092919050505060ff168173ffffffffffffffffffffffffffffffffffffffff16630c3f6acf6040518163ffffffff167c0100000000000000000000000000000000000000000000000000000000028152600401602060405180830381600087803b158015612de857600080fd5b505af1158015612dfc573d6000803e3d6000fd5b505050506040513d6020811015612e1257600080fd5b810190808051906020019092919050505060ff16141515612e2f57fe5b600d8190806001815401808255809150509060018203906000526020600020016000909192909190916101000a81548173ffffffffffffffffffffffffffffffffffffffff021916908373ffffffffffffffffffffffffffffffffffffffff16021790555050600d80549050600c60008373ffffffffffffffffffffffffffffffffffffffff1673ffffffffffffffffffffffffffffffffffffffff16815260200190815260200160002060006101000a81548161ffff021916908361ffff1602179055508073ffffffffffffffffffffffffffffffffffffffff16638129fc1c6040518163ffffffff167c0100000000000000000000000000000000000000000000000000000000028152600401600060405180830381600087803b158015612f5857600080fd5b505af1158015612f6c573d6000803e3d6000fd5b5050505095945050505050565b600073ffffffffffffffffffffffffffffffffffffffff168173ffffffffffffffffffffffffffffffffffffffff1614151515612fb557600080fd5b8073ffffffffffffffffffffffffffffffffffffffff16600360009054906101000a900473ffffffffffffffffffffffffffffffffffffffff1673ffffffffffffffffffffffffffffffffffffffff167f8be0079c531659141344cd1fd0a4f28419497f9722a3daafe3b4186f6b6457e060405160405180910390a380600360006101000a81548173ffffffffffffffffffffffffffffffffffffffff021916908373ffffffffffffffffffffffffffffffffffffffff16021790555050565b600081600201548260000180549050039050919050565b60006130966133f1565b61309f84613145565b5080915050828160600151111591505092915050565b6130bd6133f1565b60006130c883613145565b80925081935050506130d9836132d2565b818191509150915091565b6000600115156000809054906101000a900460ff16151514151561310757600080fd5b613124836000015184602001518486608001518760a00151612af7565b905092915050565b600082821115151561313a57fe5b818303905092915050565b61314d6133f1565b600082600001836002015481548110151561316457fe5b906000526020600020906006020183600101846002015481548110151561318757fe5b90600052602060002001548160c060405190810160405290816000820160009054906101000a900473ffffffffffffffffffffffffffffffffffffffff1673ffffffffffffffffffffffffffffffffffffffff1673ffffffffffffffffffffffffffffffffffffffff1681526020016001820160009054906101000a900473ffffffffffffffffffffffffffffffffffffffff1673ffffffffffffffffffffffffffffffffffffffff1673ffffffffffffffffffffffffffffffffffffffff1681526020016002820160009054906101000a900473ffffffffffffffffffffffffffffffffffffffff1673ffffffffffffffffffffffffffffffffffffffff1673ffffffffffffffffffffffffffffffffffffffff16815260200160038201548152602001600482015481526020016005820154600019166000191681525050915091509150915091565b80600201600081548092919060010191905055508060000160018260020154038154811015156132fe57fe5b9060005260206000209060060201600080820160006101000a81549073ffffffffffffffffffffffffffffffffffffffff02191690556001820160006101000a81549073ffffffffffffffffffffffffffffffffffffffff02191690556002820160006101000a81549073ffffffffffffffffffffffffffffffffffffffff021916905560038201600090556004820160009055600582016000905550508060010160018260020154038154811015156133b457fe5b906000526020600020016000905550565b8154818355818111156133ec578183600052602060002091820191016133eb919061346d565b5b505050565b60c060405190810160405280600073ffffffffffffffffffffffffffffffffffffffff168152602001600073ffffffffffffffffffffffffffffffffffffffff168152602001600073ffffffffffffffffffffffffffffffffffffffff1681526020016000815260200160008152602001600080191681525090565b61348f91905b8082111561348b576000816000905550600101613473565b5090565b905600a165627a7a72305820a53da5b6b8852474d864e609164a16048e35cfb690dec3680d63fd802897eb8d0029608060405234801561001057600080fd5b504360018190555061013e806100276000396000f300608060405260043610610041576000357c0100000000000000000000000000000000000000000000000000000000900463ffffffff168063cd4b691414610046575b600080fd5b34801561005257600080fd5b5061007160048036038101908080359060200190929190505050610087565b6040518082815260200191505060405180910390f35b60006001544311156100ce5743600181905550600a4303406001900443406001900401604051808281526020019150506040518091039020600081600019169055506100f9565b6000546040518082600019166000191681526020019150506040518091039020600081600019169055505b816000546001900481151561010a57fe5b0690509190505600a165627a7a72305820cdba0c79fd01bbe288f4e8d4866cd18b946f3c552cca739624dbb2533343bf0c0029",
  "source": "pragma solidity ^0.4.23;\r\n\r\nimport \"openzeppelin-solidity/contracts/math/SafeMath.sol\";\r\nimport \"../../lifecycle/Initializable.sol\";\r\nimport \"../lottery/RandomEngine.sol\";\r\nimport \"./ICognitiveJobManager.sol\";\r\nimport \"./WorkerNodeManager.sol\";\r\nimport \"../../jobs/IComputingJob.sol\";\r\nimport \"../../libraries/JobQueueLib.sol\";\r\nimport \"../token/Reputation.sol\";\r\n\r\n/**\r\n * @title Pandora Smart Contract\r\n * @author \"Dr Maxim Orlovsky\" <orlovsky@pandora.foundation>\r\n *\r\n * @dev # Pandora Smart Contract\r\n *\r\n * Main & root contract implementing the first level of Pandora Boxchain consensus\r\n * See section [\"3.3. Proof of Cognitive Work (PoCW)\" in Pandora white paper](https://steemit.com/cryptocurrency/%40pandoraboxchain/world-decentralized-ai-on-blockchain-with-cognitive-mining-and-open-markets-for-data-and-algorithms-pandora-boxchain)\r\n * for more details.\r\n *\r\n * Contract token functionality is separated into a separate contract named PAN (after the name of the token)\r\n * and Pandora contracts just simply inherits PAN contract.\r\n */\r\n\r\ncontract CognitiveJobManager is Initializable, ICognitiveJobManager, WorkerNodeManager {\r\n\r\n    /*******************************************************************************************************************\r\n     * ## Storage\r\n     */\r\n\r\n    /// ### Public variables\r\n\r\n    /// @notice Reference to a factory used in creating CognitiveJob contracts\r\n    /// @dev Factories are used to reduce gas consumption by the main Pandora contract. Since Pandora needs to control\r\n    /// the code used to deploy Cognitive Jobs and Worker Nodes, it must embed all the byte code for the smart contract.\r\n    /// However this dramatically increases gas consumption for deploying Pandora contract itself. Thus, the\r\n    /// CognitiveJob smart contract is deployed by a special factory class `CognitiveJobFactory`, and a special workflow\r\n    /// is used to ensure uniqueness of the factories and the fact that their code source is coming from the same\r\n    /// address which have deployed the main Pandora contract. In particular, because of this Pandora is defined as an\r\n    /// `Ownable` contract and a special `initialize` function and `properlyInitialized` member variable is added.\r\n    ICognitiveJobFactory public cognitiveJobFactory;\r\n\r\n    /// @dev Indexes (+1) of active (=running) cognitive jobs in `activeJobs` mapped from their creators\r\n    /// (owners of the corresponding cognitive job contracts). Zero values corresponds to no active job,\r\n    /// one  to the one with index 0 and so forth.\r\n    mapping(address => uint16) public jobAddresses;\r\n\r\n    /// @dev List of all active cognitive jobs\r\n    IComputingJob[] public cognitiveJobs;\r\n\r\n    /// @dev Contract, that store rep. values for each address\r\n    IReputation reputation;\r\n\r\n    /// @dev Returns total count of active jobs\r\n    function cognitiveJobsCount() onlyInitialized view public returns (uint256) {\r\n        return cognitiveJobs.length;\r\n    }\r\n\r\n    // Deposits from clients used as payment for work\r\n    mapping(address => uint256) public deposits;\r\n\r\n    /// @notice Status code returned by `createCognitiveJob()` method when no Idle WorkerNodes were available\r\n    /// and job was not created but was put into the job queue to be processed lately\r\n    uint8 constant public RESULT_CODE_ADD_TO_QUEUE = 0;\r\n    /// @notice Status code returned by `createCognitiveJob()` method when CognitiveJob was created successfully\r\n    uint8 constant public RESULT_CODE_JOB_CREATED = 1;\r\n\r\n    uint256 constant public REQUIRED_DEPOSIT = 500 finney;\r\n\r\n    /// ### Private and internal variables\r\n\r\n    /// @dev Contract implementing lottery interface for workers selection. Only internal usage\r\n    /// by `createCognitiveJob` function\r\n    ILotteryEngine internal workerLotteryEngine;\r\n\r\n    // Queue for CognitiveJobs kept while no Idle WorkerNodes available\r\n    using JobQueueLib for JobQueueLib.Queue;\r\n    /// @dev Cognitive job queue used for case when no idle workers available\r\n    JobQueueLib.Queue internal cognitiveJobQueue;\r\n\r\n    using SafeMath for uint;\r\n\r\n    /*******************************************************************************************************************\r\n     * ## Events\r\n     */\r\n\r\n    /// @dev Event firing when a new cognitive job created\r\n    event CognitiveJobCreated(IComputingJob cognitiveJob, uint resultCode);\r\n\r\n    /// @dev Event firing when a new cognitive job failed to create\r\n    event CognitiveJobCreateFailed(IComputingJob cognitiveJob, uint resultCode);\r\n\r\n    /*******************************************************************************************************************\r\n     * ## Constructor and initialization\r\n     */\r\n\r\n    /// ### Constructor\r\n    /// @dev Constructor receives addresses for the owners of whitelisted worker nodes, which will be assigned an owners\r\n    /// of worker nodes contracts\r\n    constructor(\r\n        ICognitiveJobFactory _jobFactory, /// Factory class for creating CognitiveJob contracts\r\n        IWorkerNodeFactory _nodeFactory, /// Factory class for creating WorkerNode contracts\r\n        IReputation _reputation\r\n    )\r\n    public\r\n    WorkerNodeManager(_nodeFactory) {\r\n\r\n        // Must ensure that the supplied factories are already created contracts\r\n        require(_jobFactory != address(0));\r\n\r\n        // Assign factories to storage variables\r\n        cognitiveJobFactory = _jobFactory;\r\n\r\n        reputation = _reputation;\r\n\r\n        // Initializing worker lottery engine\r\n        // In Pyrrha we use round robin algorithm to give our whitelisted nodes equal and consequential chances\r\n        workerLotteryEngine = new RandomEngine();\r\n    }\r\n\r\n    /*******************************************************************************************************************\r\n     * ## Modifiers\r\n     */\r\n\r\n\r\n    /*******************************************************************************************************************\r\n     * ## Functions\r\n     */\r\n\r\n    /// ### Public and external\r\n\r\n    /// @notice Test whether the given `job` is registered as an active job by the main Pandora contract\r\n    /// @dev Used to test if some given job contract is a contract created by the Pandora and is listed by it as an\r\n    /// active contract\r\n    function isActiveJob(\r\n        IComputingJob _job /// Job contract to test\r\n    )\r\n    onlyInitialized\r\n    view\r\n    public\r\n    returns (\r\n        bool /// Testing result\r\n    ) {\r\n        // Getting the index of the job from the internal list\r\n        uint16 index = jobAddresses[_job];\r\n        // Testing if the job was present in the list\r\n        if (index == 0) {\r\n            return false;\r\n        }\r\n        // We must decrease the index since they are 1-based, not 0-based (0 corresponds to \"no contract\" due to\r\n        // Solidity specificity\r\n        index--;\r\n\r\n        // Retrieving the job contract from the index\r\n        IComputingJob job = cognitiveJobs[index];\r\n        // Double-checking that the job at the index is the actual job being tested\r\n        return (job == _job);\r\n    }\r\n\r\n    /// @notice Creates and returns new cognitive job contract and starts actual cognitive work instantly\r\n    /// @dev Core function creating new cognitive job contract and returning it back to the caller\r\n    function createCognitiveJob(\r\n        IKernel _kernel, /// Pre-initialized kernel data entity contract\r\n        IDataset _dataset, /// Pre-initialized dataset entity contract\r\n        uint256 _complexity,\r\n        bytes32 _description\r\n    )\r\n    external\r\n    payable\r\n    onlyInitialized\r\n    returns (\r\n        IComputingJob o_cognitiveJob, /// Newly created cognitive jobs (starts automatically)\r\n        uint8 o_resultCode /// result code of creating cognitiveJob, 0 - no available workers, 1 - job created\r\n    ) {\r\n\r\n        // Restriction for batches count came from potential high gas usage in JobQueue processing\r\n        // todo check batches limit with tests\r\n        uint8 batchesCount = _dataset.batchesCount();\r\n        require(batchesCount <= 10);\r\n\r\n        // Dimensions of the input data and neural network input layer must be equal\r\n        require(_kernel.dataDim() == _dataset.dataDim());\r\n\r\n        // The created job must fit into uint16 size\r\n        require(uint256(cognitiveJobs.length) < 2 ** 16 - 1);\r\n\r\n        // @todo check payment corresponds to required amount + gas payment - (fixed value + #batches * value)\r\n        require(msg.value >= REQUIRED_DEPOSIT);\r\n\r\n\r\n\r\n        // Counting number of available worker nodes (in Idle state)\r\n        // Since Solidity does not supports dynamic in-memory arrays (yet), has to be done in two-staged way:\r\n        // first by counting array size and then by allocating and populating array itself\r\n\r\n        uint256 estimatedSize = _countIdleWorkers();\r\n        if (estimatedSize < uint256(batchesCount)) {\r\n            // Put task in queue\r\n            o_resultCode = RESULT_CODE_ADD_TO_QUEUE;\r\n            cognitiveJobQueue.put(\r\n                address(_kernel),\r\n                address(_dataset),\r\n                msg.sender,\r\n                msg.value,\r\n                batchesCount,\r\n                _complexity,\r\n                _description);\r\n            //  Hold payment from customer\r\n            deposits[msg.sender] = deposits[msg.sender].add(msg.value);\r\n            emit CognitiveJobCreateFailed(o_cognitiveJob, o_resultCode);\r\n        } else {\r\n            // Job created instantly\r\n            // Return funds to sender\r\n            msg.sender.transfer(msg.value);\r\n            // Initializing in-memory array for idle node list and populating it with data\r\n            IWorkerNode[] memory idleWorkers = _listIdleWorkers(estimatedSize);\r\n\r\n            // Running lottery to select worker node to be assigned cognitive job contract\r\n            IWorkerNode[] memory assignedWorkers = _selectWorkersWithLottery(idleWorkers, batchesCount);\r\n\r\n            o_cognitiveJob = _initCognitiveJob(_kernel, _dataset, assignedWorkers, _complexity, _description);\r\n            o_resultCode = RESULT_CODE_JOB_CREATED;\r\n\r\n            emit CognitiveJobCreated(o_cognitiveJob, o_resultCode);\r\n        }\r\n    }\r\n\r\n    /// @notice Can\"t be called by the user, for internal use only\r\n    /// @dev Function must be called only by the master node running cognitive job. It completes the job, updates\r\n    /// worker node back to `Idle` state (in smart contract) and removes job contract from the list of active contracts\r\n    function finishCognitiveJob(\r\n    // No arguments - cognitive job is taken from msg.sender\r\n    )\r\n    external\r\n    onlyInitialized\r\n    {\r\n        uint16 index = jobAddresses[msg.sender];\r\n        require(index != 0);\r\n        index--;\r\n\r\n        IComputingJob job = cognitiveJobs[index];\r\n        require(address(job) == msg.sender);\r\n\r\n        // Increase reputation of workers involved to computation\r\n        uint256 reputationReward = job.complexity();\r\n        //todo add koef for complexity-reputation\r\n        for (uint256 i = 0; i <= job.activeWorkersCount(); i++) {\r\n            reputation.incrReputation(address(i), reputationReward);\r\n        }\r\n    }\r\n\r\n    /// @notice Private function which checks queue of jobs and create new jobs\r\n    /// #dev Function is called by worker owner, after finalize congitiveJob (but could be called by any address)\r\n    /// to unlock worker's idle state and allocate newly freed WorkerNodes to perform cognitive jobs from the queue.\r\n    function _checkJobQueue(\r\n    // No arguments\r\n    )\r\n    private\r\n    onlyInitialized {\r\n        JobQueueLib.QueuedJob memory queuedJob;\r\n        // Iterate queue and check queue depth\r\n\r\n        uint256 limitQueueReq = cognitiveJobQueue.queueDepth();\r\n        limitQueueReq = limitQueueReq > 10 ? 10 : limitQueueReq;\r\n        // todo check limit (2) for queue requests with tests\r\n\r\n        for (uint256 k = 0; k < limitQueueReq; k++) {\r\n\r\n            // Count remaining gas\r\n            uint initialGas = gasleft();\r\n\r\n            // Counting number of available worker nodes (in Idle state)\r\n            uint256 estimatedSize = _countIdleWorkers();\r\n\r\n            // There must be at least one free worker node\r\n            if (estimatedSize <= 0) {\r\n                break;\r\n            }\r\n\r\n            // Initializing in-memory array for idle node list and populating it with data\r\n            IWorkerNode[] memory idleWorkers = _listIdleWorkers(estimatedSize);\r\n            uint actualSize = idleWorkers.length;\r\n            if (actualSize != estimatedSize) {\r\n                break;\r\n            }\r\n\r\n            // Check number of batches with number of idle workers\r\n            if (!cognitiveJobQueue.checkElementBatches(actualSize)) {\r\n                break;\r\n            }\r\n\r\n            // uint value1 = cognitiveJobQueue.queueDepth();\r\n            uint256 value;\r\n            // Value from queuedJob deposit\r\n            (queuedJob, value) = cognitiveJobQueue.requestJob();\r\n\r\n            // Running lottery to select worker node to be assigned cognitive job contract\r\n            IWorkerNode[] memory assignedWorkers = _selectWorkersWithLottery(idleWorkers, queuedJob.batches);\r\n\r\n            IComputingJob createdCognitiveJob = _initQueuedJob(queuedJob, assignedWorkers);\r\n\r\n            emit CognitiveJobCreated(createdCognitiveJob, RESULT_CODE_JOB_CREATED);\r\n\r\n            // Count used funds for queue\r\n            //todo set limit for gasprice\r\n            uint weiUsed = (57000 + initialGas - gasleft()) * tx.gasprice;\r\n            //57k of gas used for transfers and storage writing\r\n            if (weiUsed > value) {\r\n                weiUsed = value; //weiUsed should not exceed deposit fixme set constraint to minimal deposit\r\n            }\r\n\r\n            //Withdraw from customer's deposit\r\n            deposits[queuedJob.customer] = deposits[queuedJob.customer].sub(value);\r\n\r\n            // Gas refund to node\r\n            tx.origin.transfer(weiUsed);\r\n\r\n            // Return remaining deposit to customer\r\n            if (value - weiUsed != 0) {\r\n                queuedJob.customer.transfer(value - weiUsed);\r\n            }\r\n        }\r\n    }\r\n\r\n    function unlockFinalizedWorker(IComputingJob _cognitiveJob) external {\r\n        _cognitiveJob.unlockFinalizedWorker();\r\n        _checkJobQueue();\r\n    }\r\n\r\n    function _initQueuedJob(JobQueueLib.QueuedJob queuedJob, IWorkerNode[] assignedWorkers)\r\n    private\r\n    onlyInitialized\r\n    returns (\r\n        IComputingJob job\r\n    ) {\r\n        job = _initCognitiveJob(\r\n            IKernel(queuedJob.kernel),\r\n            IDataset(queuedJob.dataset),\r\n            assignedWorkers,\r\n            queuedJob.complexity,\r\n            queuedJob.description\r\n        );\r\n    }\r\n\r\n    /// @notice Can\"t be called by the user or other contract: for private use only\r\n    /// @dev Creates cognitive job contract, saves it to storage and fires global event to notify selected worker node.\r\n    /// Used both by `createCognitiveJob()` and `_checksJobQueue()` methods.\r\n    function _initCognitiveJob(\r\n        IKernel _kernel, /// Pre-initialized kernel data entity contract (taken from `createCognitiveJob` arguments or\r\n    /// from the the `cognitiveJobQueue` `QueuedJob` structure)\r\n        IDataset _dataset, /// Pre-initialized dataset entity contract (taken from `createCognitiveJob` arguments or\r\n    /// from the the `cognitiveJobQueue` `QueuedJob` structure)\r\n        IWorkerNode[] _assignedWorkers, /// Array of workers assigned for the job by the lottery engine\r\n        uint256 _complexity,\r\n        bytes32 _description\r\n    )\r\n    private\r\n    onlyInitialized\r\n    returns (\r\n        IComputingJob o_cognitiveJob /// Created cognitive job (function may fail only due to the bugs, so there is no\r\n    /// reason for returning status code)\r\n    ) {\r\n        o_cognitiveJob = cognitiveJobFactory.create(_kernel, _dataset, _assignedWorkers, _complexity, _description);\r\n        //\r\n        // Ensuring that contract was successfully created\r\n        assert(o_cognitiveJob != address(0));\r\n        // Hint: trying to figure out was the contract body actually created and initialized with proper values\r\n        assert(o_cognitiveJob.currentState() == o_cognitiveJob.Uninitialized());\r\n\r\n        // Save new contract to the storage\r\n        cognitiveJobs.push(o_cognitiveJob);\r\n        jobAddresses[o_cognitiveJob] = uint16(cognitiveJobs.length);\r\n\r\n        o_cognitiveJob.initialize();\r\n    }\r\n\r\n    /// @notice Can\"t be called by the user or other contract: for private use only\r\n    /// @dev Running lottery to select random worker nodes from the provided list. Used by both `createCognitiveJob`\r\n    /// and `_checksJobQueue` functions.\r\n    function _selectWorkersWithLottery(\r\n        IWorkerNode[] _idleWorkers, /// Pre-defined pool of Idle WorkerNodes to select from\r\n        uint _numberWorkersRequired /// Number of workers required by cognitive job, match with number of batches\r\n    )\r\n    private\r\n    returns (\r\n        IWorkerNode[] assignedWorkers /// Resulting sublist of the selected WorkerNodes\r\n    ) {\r\n        assignedWorkers = new IWorkerNode[](_numberWorkersRequired);\r\n        uint no = workerLotteryEngine.getRandom(assignedWorkers.length);\r\n        for (uint i = 0; i < assignedWorkers.length; i++) {\r\n            assignedWorkers[i] = _idleWorkers[no];\r\n            no = (no == assignedWorkers.length - 1) ? 0 : no + 1;\r\n        }\r\n    }\r\n\r\n    /// @notice Can\"t be called by the user or other contract: for private use only\r\n    /// @dev Pre-count amount of available Idle WorkerNodes. Required to allocate in-memory list of WorkerNodes.\r\n    function _countIdleWorkers(\r\n    // No arguments\r\n    )\r\n    private\r\n    view\r\n    returns (\r\n        uint o_estimatedSize /// Amount of currently available (Idle) WorkerNodes\r\n    ) {\r\n        o_estimatedSize = 0;\r\n        for (uint i = 0; i < workerNodes.length; i++) {\r\n            if (workerNodes[i].currentState() == workerNodes[i].Idle()) {\r\n                o_estimatedSize++;\r\n            }\r\n        }\r\n        return o_estimatedSize;\r\n    }\r\n\r\n    /// @notice Can\"t be called by the user or other contract: for private use only\r\n    /// @dev Allocates and returns in-memory array of all Idle WorkerNodes taking estimated size as an argument\r\n    /// (returned by `_countIdleWorkers()`)\r\n    function _listIdleWorkers(\r\n        uint _estimatedSize /// Size of array to return\r\n    )\r\n    private\r\n    view\r\n    returns (\r\n        IWorkerNode[] /// Returned array of all Idle WorkerNodes\r\n    ) {\r\n        IWorkerNode[] memory idleWorkers = new IWorkerNode[](_estimatedSize);\r\n        uint256 actualSize = 0;\r\n        for (uint j = 0; j < workerNodes.length; j++) {\r\n            if (workerNodes[j].currentState() == workerNodes[j].Idle()) {\r\n                idleWorkers[actualSize++] = workerNodes[j];\r\n            }\r\n        }\r\n        return idleWorkers;\r\n    }\r\n}",
  "sourcePath": "C:\\Users\\Oleksii\\Pandora\\pyrrha-consensus\\contracts\\pandora\\managers\\CognitiveJobManager.sol",
  "compiler": {
    "name": "solc",
    "version": "0.4.24+commit.e67f0147.Emscripten.clang"
  },
  "schemaVersion": "2.0.1",
  "updatedAt": "2018-06-29T20:49:42.350Z"
}