{
  "contractName": "DataEntity",
  "abi": [
    {
      "constant": true,
      "inputs": [],
      "name": "owner",
      "outputs": [
        {
          "name": "",
          "type": "address"
        }
      ],
      "payable": false,
      "stateMutability": "view",
      "type": "function"
    },
    {
      "constant": true,
      "inputs": [],
      "name": "currentPrice",
      "outputs": [
        {
          "name": "",
          "type": "uint256"
        }
      ],
      "payable": false,
      "stateMutability": "view",
      "type": "function"
    },
    {
      "constant": true,
      "inputs": [],
      "name": "dataDim",
      "outputs": [
        {
          "name": "",
          "type": "uint256"
        }
      ],
      "payable": false,
      "stateMutability": "view",
      "type": "function"
    },
    {
      "constant": true,
      "inputs": [],
      "name": "ipfsAddress",
      "outputs": [
        {
          "name": "",
          "type": "bytes"
        }
      ],
      "payable": false,
      "stateMutability": "view",
      "type": "function"
    },
    {
      "constant": false,
      "inputs": [
        {
          "name": "newOwner",
          "type": "address"
        }
      ],
      "name": "transferOwnership",
      "outputs": [],
      "payable": false,
      "stateMutability": "nonpayable",
      "type": "function"
    },
    {
      "inputs": [
        {
          "name": "_ipfsAddress",
          "type": "bytes"
        },
        {
          "name": "_dataDim",
          "type": "uint256"
        },
        {
          "name": "_initialPrice",
          "type": "uint256"
        }
      ],
      "payable": false,
      "stateMutability": "nonpayable",
      "type": "constructor"
    },
    {
      "anonymous": false,
      "inputs": [
        {
          "indexed": false,
          "name": "oldPrice",
          "type": "uint256"
        },
        {
          "indexed": false,
          "name": "newPrice",
          "type": "uint256"
        }
      ],
      "name": "PriceUpdated",
      "type": "event"
    },
    {
      "anonymous": false,
      "inputs": [
        {
          "indexed": true,
          "name": "previousOwner",
          "type": "address"
        },
        {
          "indexed": true,
          "name": "newOwner",
          "type": "address"
        }
      ],
      "name": "OwnershipTransferred",
      "type": "event"
    },
    {
      "constant": false,
      "inputs": [
        {
          "name": "_newPrice",
          "type": "uint256"
        }
      ],
      "name": "updatePrice",
      "outputs": [],
      "payable": false,
      "stateMutability": "nonpayable",
      "type": "function"
    },
    {
      "constant": false,
      "inputs": [],
      "name": "withdrawBalance",
      "outputs": [],
      "payable": false,
      "stateMutability": "nonpayable",
      "type": "function"
    }
  ],
  "bytecode": "0x608060405234801561001057600080fd5b5060405161078f38038061078f833981018060405281019080805182019291906020018051906020019092919080519060200190929190505050336000806101000a81548173ffffffffffffffffffffffffffffffffffffffff021916908373ffffffffffffffffffffffffffffffffffffffff1602179055508160058190555082600490805190602001906100a79291906100b7565b508060068190555050505061015c565b828054600181600116156101000203166002900490600052602060002090601f016020900481019282601f106100f857805160ff1916838001178555610126565b82800160010185558215610126579182015b8281111561012557825182559160200191906001019061010a565b5b5090506101339190610137565b5090565b61015991905b8082111561015557600081600090555060010161013d565b5090565b90565b6106248061016b6000396000f300608060405260043610610083576000357c0100000000000000000000000000000000000000000000000000000000900463ffffffff1680635fd8c710146100885780638d6cc56d1461009f5780638da5cb5b146100cc5780639d1b464a14610123578063b1f8d9ba1461014e578063e1b40a7614610179578063f2fde38b14610209575b600080fd5b34801561009457600080fd5b5061009d61024c565b005b3480156100ab57600080fd5b506100ca60048036038101908080359060200190929190505050610328565b005b3480156100d857600080fd5b506100e16103d4565b604051808273ffffffffffffffffffffffffffffffffffffffff1673ffffffffffffffffffffffffffffffffffffffff16815260200191505060405180910390f35b34801561012f57600080fd5b506101386103f9565b6040518082815260200191505060405180910390f35b34801561015a57600080fd5b506101636103ff565b6040518082815260200191505060405180910390f35b34801561018557600080fd5b5061018e610405565b6040518080602001828103825283818151815260200191508051906020019080838360005b838110156101ce5780820151818401526020810190506101b3565b50505050905090810190601f1680156101fb5780820380516001836020036101000a031916815260200191505b509250505060405180910390f35b34801561021557600080fd5b5061024a600480360381019080803573ffffffffffffffffffffffffffffffffffffffff1690602001909291905050506104a3565b005b6000809054906101000a900473ffffffffffffffffffffffffffffffffffffffff1673ffffffffffffffffffffffffffffffffffffffff163373ffffffffffffffffffffffffffffffffffffffff161415156102a757600080fd5b6000809054906101000a900473ffffffffffffffffffffffffffffffffffffffff1673ffffffffffffffffffffffffffffffffffffffff166108fc3073ffffffffffffffffffffffffffffffffffffffff16319081150290604051600060405180830381858888f19350505050158015610325573d6000803e3d6000fd5b50565b60008060009054906101000a900473ffffffffffffffffffffffffffffffffffffffff1673ffffffffffffffffffffffffffffffffffffffff163373ffffffffffffffffffffffffffffffffffffffff1614151561038557600080fd5b6006549050816006819055507f945c1c4e99aa89f648fbfe3df471b916f719e16d960fcec0737d4d56bd6968388183604051808381526020018281526020019250505060405180910390a15050565b6000809054906101000a900473ffffffffffffffffffffffffffffffffffffffff1681565b60065481565b60055481565b60048054600181600116156101000203166002900480601f01602080910402602001604051908101604052809291908181526020018280546001816001161561010002031660029004801561049b5780601f106104705761010080835404028352916020019161049b565b820191906000526020600020905b81548152906001019060200180831161047e57829003601f168201915b505050505081565b6000809054906101000a900473ffffffffffffffffffffffffffffffffffffffff1673ffffffffffffffffffffffffffffffffffffffff163373ffffffffffffffffffffffffffffffffffffffff161415156104fe57600080fd5b600073ffffffffffffffffffffffffffffffffffffffff168173ffffffffffffffffffffffffffffffffffffffff161415151561053a57600080fd5b8073ffffffffffffffffffffffffffffffffffffffff166000809054906101000a900473ffffffffffffffffffffffffffffffffffffffff1673ffffffffffffffffffffffffffffffffffffffff167f8be0079c531659141344cd1fd0a4f28419497f9722a3daafe3b4186f6b6457e060405160405180910390a3806000806101000a81548173ffffffffffffffffffffffffffffffffffffffff021916908373ffffffffffffffffffffffffffffffffffffffff160217905550505600a165627a7a723058206940fff6e3d116cfd912babdd3810a55b3351d6ac6f556e1d5031e120365e0cf0029",
  "source": "pragma solidity ^0.4.23;\n\nimport \"./IDataEntity.sol\";\n\n/**\n * @title DataEntity Contract (parent for Kernel and Dataset contracts)\n * @author \"Dr Maxim Orlovsky\" <orlovsky@pandora.foundation>\n *\n * @dev Root contract for data entities and their workflows. For more details please refer to the\n * [Technical specification](https://github.com/pandoraboxchain/techspecs/wiki/Creating-data-entities)\n */\n\ncontract DataEntity is IDataEntity {\n\n    /// @dev Address of IPFS metadata file in JSON format that contains all necessary information about data entity,\n    /// together with references on other data files stored in IPFS (models, big data sets and data chunks etc)\n    bytes public ipfsAddress;\n\n    /// @dev Data dimension: sample data vector length for datasets and input layer vector length for AI kernel.\n    /// Needs to be present in blockchain storage since used by the Pandora contract for checking during creation of\n    /// cognitive job contract (dataset and kernel dimensions must match).\n    uint256 public dataDim;\n\n    /// @dev Current price (in PAN tokens) for the single use of the data entity\n    uint256 public currentPrice;\n\n    /// @dev Fired by `updatePrice` function\n    event PriceUpdated(uint256 oldPrice, uint256 newPrice);\n\n\n    constructor(\n        bytes _ipfsAddress,\n        uint256 _dataDim,\n        uint256 _initialPrice\n    )\n    public {\n        dataDim = _dataDim;\n        ipfsAddress = _ipfsAddress;\n        currentPrice = _initialPrice;\n    }\n\n    function updatePrice (\n        uint256 _newPrice\n    ) external\n        onlyOwner\n    {\n        uint256 oldPrice = currentPrice;\n        currentPrice = _newPrice;\n\n        emit PriceUpdated(oldPrice, _newPrice);\n    }\n\n    /// @notice Withdraws full balance to the owner account. Can be called only by the owner of the contract.\n    function withdrawBalance(\n        // No arguments\n    ) external\n        onlyOwner // Can be called only by the owner\n    {\n        owner.transfer(this.balance);\n    }\n}\n",
  "sourcePath": "/home/aleksei/projects/pandora/pandora-pyrrha/pyrrha-consensus/contracts/entities/DataEntity.sol",
  "compiler": {
    "name": "solc",
    "version": "0.4.23+commit.124ca40d.Emscripten.clang"
  },
  "schemaVersion": "2.0.0",
  "updatedAt": "2018-06-15T19:01:49.262Z"
}