{
  "contractName": "DataEntity",
  "abi": [
    {
      "constant": false,
      "inputs": [],
      "name": "renounceOwnership",
      "outputs": [],
      "payable": false,
      "stateMutability": "nonpayable",
      "type": "function"
    },
    {
      "constant": true,
      "inputs": [],
      "name": "owner",
      "outputs": [
        {
          "name": "",
          "type": "address"
        }
      ],
      "payable": false,
      "stateMutability": "view",
      "type": "function"
    },
    {
      "constant": true,
      "inputs": [],
      "name": "isOwner",
      "outputs": [
        {
          "name": "",
          "type": "bool"
        }
      ],
      "payable": false,
      "stateMutability": "view",
      "type": "function"
    },
    {
      "constant": true,
      "inputs": [],
      "name": "currentPrice",
      "outputs": [
        {
          "name": "",
          "type": "uint256"
        }
      ],
      "payable": false,
      "stateMutability": "view",
      "type": "function"
    },
    {
      "constant": true,
      "inputs": [],
      "name": "dataDim",
      "outputs": [
        {
          "name": "",
          "type": "uint256"
        }
      ],
      "payable": false,
      "stateMutability": "view",
      "type": "function"
    },
    {
      "constant": true,
      "inputs": [],
      "name": "ipfsAddress",
      "outputs": [
        {
          "name": "",
          "type": "bytes"
        }
      ],
      "payable": false,
      "stateMutability": "view",
      "type": "function"
    },
    {
      "constant": false,
      "inputs": [
        {
          "name": "newOwner",
          "type": "address"
        }
      ],
      "name": "transferOwnership",
      "outputs": [],
      "payable": false,
      "stateMutability": "nonpayable",
      "type": "function"
    },
    {
      "inputs": [
        {
          "name": "_ipfsAddress",
          "type": "bytes"
        },
        {
          "name": "_dataDim",
          "type": "uint256"
        },
        {
          "name": "_initialPrice",
          "type": "uint256"
        }
      ],
      "payable": true,
      "stateMutability": "payable",
      "type": "constructor"
    },
    {
      "anonymous": false,
      "inputs": [
        {
          "indexed": false,
          "name": "oldPrice",
          "type": "uint256"
        },
        {
          "indexed": false,
          "name": "newPrice",
          "type": "uint256"
        }
      ],
      "name": "PriceUpdated",
      "type": "event"
    },
    {
      "anonymous": false,
      "inputs": [
        {
          "indexed": true,
          "name": "previousOwner",
          "type": "address"
        },
        {
          "indexed": true,
          "name": "newOwner",
          "type": "address"
        }
      ],
      "name": "OwnershipTransferred",
      "type": "event"
    },
    {
      "constant": false,
      "inputs": [
        {
          "name": "_newPrice",
          "type": "uint256"
        }
      ],
      "name": "updatePrice",
      "outputs": [],
      "payable": false,
      "stateMutability": "nonpayable",
      "type": "function"
    },
    {
      "constant": false,
      "inputs": [],
      "name": "withdrawBalance",
      "outputs": [],
      "payable": false,
      "stateMutability": "nonpayable",
      "type": "function"
    }
  ],
  "bytecode": "0x60806040526040516108a73803806108a7833981018060405281019080805182019291906020018051906020019092919080519060200190929190505050336000806101000a81548173ffffffffffffffffffffffffffffffffffffffff021916908373ffffffffffffffffffffffffffffffffffffffff1602179055506000809054906101000a900473ffffffffffffffffffffffffffffffffffffffff1673ffffffffffffffffffffffffffffffffffffffff16600073ffffffffffffffffffffffffffffffffffffffff167f8be0079c531659141344cd1fd0a4f28419497f9722a3daafe3b4186f6b6457e060405160405180910390a3816005819055508260049080519060200190610116929190610126565b50806006819055505050506101cb565b828054600181600116156101000203166002900490600052602060002090601f016020900481019282601f1061016757805160ff1916838001178555610195565b82800160010185558215610195579182015b82811115610194578251825591602001919060010190610179565b5b5090506101a291906101a6565b5090565b6101c891905b808211156101c45760008160009055506001016101ac565b5090565b90565b6106cd806101da6000396000f300608060405260043610610099576000357c0100000000000000000000000000000000000000000000000000000000900463ffffffff1680635fd8c7101461009e578063715018a6146100b55780638d6cc56d146100cc5780638da5cb5b146100f95780638f32d59b146101505780639d1b464a1461017f578063b1f8d9ba146101aa578063e1b40a76146101d5578063f2fde38b14610265575b600080fd5b3480156100aa57600080fd5b506100b36102a8565b005b3480156100c157600080fd5b506100ca610328565b005b3480156100d857600080fd5b506100f7600480360381019080803590602001909291905050506103fa565b005b34801561010557600080fd5b5061010e61045e565b604051808273ffffffffffffffffffffffffffffffffffffffff1673ffffffffffffffffffffffffffffffffffffffff16815260200191505060405180910390f35b34801561015c57600080fd5b50610165610487565b604051808215151515815260200191505060405180910390f35b34801561018b57600080fd5b506101946104de565b6040518082815260200191505060405180910390f35b3480156101b657600080fd5b506101bf6104e4565b6040518082815260200191505060405180910390f35b3480156101e157600080fd5b506101ea6104ea565b6040518080602001828103825283818151815260200191508051906020019080838360005b8381101561022a57808201518184015260208101905061020f565b50505050905090810190601f1680156102575780820380516001836020036101000a031916815260200191505b509250505060405180910390f35b34801561027157600080fd5b506102a6600480360381019080803573ffffffffffffffffffffffffffffffffffffffff169060200190929190505050610588565b005b60006102b2610487565b15156102bd57600080fd5b6102c561045e565b90508073ffffffffffffffffffffffffffffffffffffffff166108fc3073ffffffffffffffffffffffffffffffffffffffff16319081150290604051600060405180830381858888f19350505050158015610324573d6000803e3d6000fd5b5050565b610330610487565b151561033b57600080fd5b600073ffffffffffffffffffffffffffffffffffffffff166000809054906101000a900473ffffffffffffffffffffffffffffffffffffffff1673ffffffffffffffffffffffffffffffffffffffff167f8be0079c531659141344cd1fd0a4f28419497f9722a3daafe3b4186f6b6457e060405160405180910390a360008060006101000a81548173ffffffffffffffffffffffffffffffffffffffff021916908373ffffffffffffffffffffffffffffffffffffffff160217905550565b6000610404610487565b151561040f57600080fd5b6006549050816006819055507f945c1c4e99aa89f648fbfe3df471b916f719e16d960fcec0737d4d56bd6968388183604051808381526020018281526020019250505060405180910390a15050565b60008060009054906101000a900473ffffffffffffffffffffffffffffffffffffffff16905090565b60008060009054906101000a900473ffffffffffffffffffffffffffffffffffffffff1673ffffffffffffffffffffffffffffffffffffffff163373ffffffffffffffffffffffffffffffffffffffff1614905090565b60065481565b60055481565b60048054600181600116156101000203166002900480601f0160208091040260200160405190810160405280929190818152602001828054600181600116156101000203166002900480156105805780601f1061055557610100808354040283529160200191610580565b820191906000526020600020905b81548152906001019060200180831161056357829003601f168201915b505050505081565b610590610487565b151561059b57600080fd5b6105a4816105a7565b50565b600073ffffffffffffffffffffffffffffffffffffffff168173ffffffffffffffffffffffffffffffffffffffff16141515156105e357600080fd5b8073ffffffffffffffffffffffffffffffffffffffff166000809054906101000a900473ffffffffffffffffffffffffffffffffffffffff1673ffffffffffffffffffffffffffffffffffffffff167f8be0079c531659141344cd1fd0a4f28419497f9722a3daafe3b4186f6b6457e060405160405180910390a3806000806101000a81548173ffffffffffffffffffffffffffffffffffffffff021916908373ffffffffffffffffffffffffffffffffffffffff160217905550505600a165627a7a72305820ee50ff687e4c0d59add7860a9a6f835cc4cd3587d67a112ad3fe8f8445ac38fb0029",
  "source": "pragma solidity ^0.4.24;\n\nimport \"./IDataEntity.sol\";\n\n/**\n * @title DataEntity Contract (parent for Kernel and Dataset contracts)\n * @author \"Dr Maxim Orlovsky\" <orlovsky@pandora.foundation>\n *\n * @dev Root contract for data entities and their workflows. For more details please refer to the\n * [Technical specification](https://github.com/pandoraboxchain/techspecs/wiki/Creating-data-entities)\n */\n\ncontract DataEntity is IDataEntity {\n\n    /// @dev Address of IPFS metadata file in JSON format that contains all necessary information about data entity,\n    /// together with references on other data files stored in IPFS (models, big data sets and data chunks etc)\n    bytes public ipfsAddress;\n\n    /// @dev Data dimension: sample data vector length for datasets and input layer vector length for AI kernel.\n    /// Needs to be present in blockchain storage since used by the Pandora contract for checking during creation of\n    /// cognitive job contract (dataset and kernel dimensions must match).\n    uint256 public dataDim;\n\n    /// @dev Current price (in PAN tokens) for the single use of the data entity\n    uint256 public currentPrice;\n\n    /// @dev Fired by `updatePrice` function\n    event PriceUpdated(uint256 oldPrice, uint256 newPrice);\n\n    constructor(\n        bytes _ipfsAddress,\n        uint256 _dataDim,\n        uint256 _initialPrice\n    )\n    public\n    payable {\n        dataDim = _dataDim;\n        ipfsAddress = _ipfsAddress;\n        currentPrice = _initialPrice;\n    }\n\n    function updatePrice (\n        uint256 _newPrice\n    ) external\n        onlyOwner\n    {\n        uint256 oldPrice = currentPrice;\n        currentPrice = _newPrice;\n\n        emit PriceUpdated(oldPrice, _newPrice);\n    }\n\n    /// @notice Withdraws full balance to the owner account. Can be called only by the owner of the contract.\n    function withdrawBalance(\n        // No arguments\n    ) external\n        onlyOwner // Can be called only by the owner\n    {\n        address ownerAddr = owner();\n        ownerAddr.transfer(address(this).balance);\n    }\n}\n",
  "sourcePath": "/home/kostysh/dev/pyrrha-consensus/contracts/entities/DataEntity.sol",
  "compiler": {
    "name": "solc",
    "version": "0.4.24+commit.e67f0147.Emscripten.clang"
  },
  "schemaVersion": "2.0.1",
  "updatedAt": "2019-01-11T15:27:33.216Z"
}