{
  "contractName": "EconomicController",
  "abi": [
    {
      "constant": false,
      "inputs": [],
      "name": "renounceOwnership",
      "outputs": [],
      "payable": false,
      "stateMutability": "nonpayable",
      "type": "function"
    },
    {
      "constant": true,
      "inputs": [],
      "name": "owner",
      "outputs": [
        {
          "name": "",
          "type": "address"
        }
      ],
      "payable": false,
      "stateMutability": "view",
      "type": "function"
    },
    {
      "constant": true,
      "inputs": [],
      "name": "isOwner",
      "outputs": [
        {
          "name": "",
          "type": "bool"
        }
      ],
      "payable": false,
      "stateMutability": "view",
      "type": "function"
    },
    {
      "constant": true,
      "inputs": [],
      "name": "minimumWorkerNodeStake",
      "outputs": [
        {
          "name": "",
          "type": "uint256"
        }
      ],
      "payable": false,
      "stateMutability": "view",
      "type": "function"
    },
    {
      "constant": false,
      "inputs": [
        {
          "name": "newOwner",
          "type": "address"
        }
      ],
      "name": "transferOwnership",
      "outputs": [],
      "payable": false,
      "stateMutability": "nonpayable",
      "type": "function"
    },
    {
      "inputs": [
        {
          "name": "_panToken",
          "type": "address"
        }
      ],
      "payable": false,
      "stateMutability": "nonpayable",
      "type": "constructor"
    },
    {
      "anonymous": false,
      "inputs": [
        {
          "indexed": true,
          "name": "previousOwner",
          "type": "address"
        },
        {
          "indexed": true,
          "name": "newOwner",
          "type": "address"
        }
      ],
      "name": "OwnershipTransferred",
      "type": "event"
    },
    {
      "anonymous": false,
      "inputs": [
        {
          "indexed": true,
          "name": "owner",
          "type": "address"
        },
        {
          "indexed": true,
          "name": "value",
          "type": "uint256"
        }
      ],
      "name": "BlockedTokens",
      "type": "event"
    },
    {
      "anonymous": false,
      "inputs": [
        {
          "indexed": true,
          "name": "from",
          "type": "address"
        },
        {
          "indexed": true,
          "name": "to",
          "type": "address"
        },
        {
          "indexed": false,
          "name": "value",
          "type": "uint256"
        }
      ],
      "name": "UnblockedTokens",
      "type": "event"
    },
    {
      "anonymous": false,
      "inputs": [
        {
          "indexed": false,
          "name": "reason",
          "type": "uint8"
        },
        {
          "indexed": true,
          "name": "owner",
          "type": "address"
        },
        {
          "indexed": false,
          "name": "value",
          "type": "uint256"
        }
      ],
      "name": "PenaltyApplied",
      "type": "event"
    },
    {
      "constant": false,
      "inputs": [
        {
          "name": "_pandora",
          "type": "address"
        }
      ],
      "name": "initialize",
      "outputs": [],
      "payable": false,
      "stateMutability": "nonpayable",
      "type": "function"
    },
    {
      "constant": false,
      "inputs": [],
      "name": "blockWorkerNodeStake",
      "outputs": [],
      "payable": false,
      "stateMutability": "nonpayable",
      "type": "function"
    },
    {
      "constant": true,
      "inputs": [
        {
          "name": "addr",
          "type": "address"
        }
      ],
      "name": "hasAvailableFunds",
      "outputs": [
        {
          "name": "",
          "type": "bool"
        }
      ],
      "payable": false,
      "stateMutability": "view",
      "type": "function"
    },
    {
      "constant": true,
      "inputs": [
        {
          "name": "addr",
          "type": "address"
        },
        {
          "name": "funds",
          "type": "uint256"
        }
      ],
      "name": "hasEnoughFunds",
      "outputs": [
        {
          "name": "",
          "type": "bool"
        }
      ],
      "payable": false,
      "stateMutability": "view",
      "type": "function"
    },
    {
      "constant": true,
      "inputs": [
        {
          "name": "workerNodeAddr",
          "type": "address"
        }
      ],
      "name": "positiveWorkerNodeStake",
      "outputs": [
        {
          "name": "",
          "type": "bool"
        }
      ],
      "payable": false,
      "stateMutability": "view",
      "type": "function"
    },
    {
      "constant": true,
      "inputs": [
        {
          "name": "addr",
          "type": "address"
        }
      ],
      "name": "balanceOf",
      "outputs": [
        {
          "name": "",
          "type": "uint256"
        }
      ],
      "payable": false,
      "stateMutability": "view",
      "type": "function"
    },
    {
      "constant": false,
      "inputs": [
        {
          "name": "from",
          "type": "address"
        },
        {
          "name": "to",
          "type": "address"
        },
        {
          "name": "value",
          "type": "uint256"
        }
      ],
      "name": "unblockTokens",
      "outputs": [],
      "payable": false,
      "stateMutability": "nonpayable",
      "type": "function"
    },
    {
      "constant": false,
      "inputs": [
        {
          "name": "reason",
          "type": "uint8"
        },
        {
          "name": "owner",
          "type": "address"
        }
      ],
      "name": "applyPenalty",
      "outputs": [],
      "payable": false,
      "stateMutability": "nonpayable",
      "type": "function"
    },
    {
      "constant": false,
      "inputs": [
        {
          "name": "value",
          "type": "uint256"
        }
      ],
      "name": "blockTokens",
      "outputs": [],
      "payable": false,
      "stateMutability": "nonpayable",
      "type": "function"
    }
  ],
  "bytecode": "0x608060405234801561001057600080fd5b50604051602080611d5d83398101806040528101908080519060200190929190505050336000806101000a81548173ffffffffffffffffffffffffffffffffffffffff021916908373ffffffffffffffffffffffffffffffffffffffff1602179055506000809054906101000a900473ffffffffffffffffffffffffffffffffffffffff1673ffffffffffffffffffffffffffffffffffffffff16600073ffffffffffffffffffffffffffffffffffffffff167f8be0079c531659141344cd1fd0a4f28419497f9722a3daafe3b4186f6b6457e060405160405180910390a380600560006101000a81548173ffffffffffffffffffffffffffffffffffffffff021916908373ffffffffffffffffffffffffffffffffffffffff16021790555050611c1d806101406000396000f3006080604052600436106100d0576000357c0100000000000000000000000000000000000000000000000000000000900463ffffffff16806347b27b8b146100d557806364db26b81461014257806370a082311461016f578063715018a6146101c65780638da5cb5b146101dd5780638f32d59b14610234578063913e4db41461026357806395eeab13146102b35780639e625859146102ca578063a27ef1bc146102f5578063b05b89a114610350578063bb9f765f146103b5578063c4d66de814610410578063f2fde38b14610453575b600080fd5b3480156100e157600080fd5b50610140600480360381019080803573ffffffffffffffffffffffffffffffffffffffff169060200190929190803573ffffffffffffffffffffffffffffffffffffffff16906020019092919080359060200190929190505050610496565b005b34801561014e57600080fd5b5061016d600480360381019080803590602001909291905050506107a9565b005b34801561017b57600080fd5b506101b0600480360381019080803573ffffffffffffffffffffffffffffffffffffffff169060200190929190505050610841565b6040518082815260200191505060405180910390f35b3480156101d257600080fd5b506101db61085e565b005b3480156101e957600080fd5b506101f2610930565b604051808273ffffffffffffffffffffffffffffffffffffffff1673ffffffffffffffffffffffffffffffffffffffff16815260200191505060405180910390f35b34801561024057600080fd5b50610249610959565b604051808215151515815260200191505060405180910390f35b34801561026f57600080fd5b506102b1600480360381019080803560ff169060200190929190803573ffffffffffffffffffffffffffffffffffffffff1690602001909291905050506109b0565b005b3480156102bf57600080fd5b506102c8610b9e565b005b3480156102d657600080fd5b506102df610bb2565b6040518082815260200191505060405180910390f35b34801561030157600080fd5b50610336600480360381019080803573ffffffffffffffffffffffffffffffffffffffff169060200190929190505050610bbf565b604051808215151515815260200191505060405180910390f35b34801561035c57600080fd5b5061039b600480360381019080803573ffffffffffffffffffffffffffffffffffffffff16906020019092919080359060200190929190505050610c7c565b604051808215151515815260200191505060405180910390f35b3480156103c157600080fd5b506103f6600480360381019080803573ffffffffffffffffffffffffffffffffffffffff169060200190929190505050610c9d565b604051808215151515815260200191505060405180910390f35b34801561041c57600080fd5b50610451600480360381019080803573ffffffffffffffffffffffffffffffffffffffff169060200190929190505050610cbc565b005b34801561045f57600080fd5b50610494600480360381019080803573ffffffffffffffffffffffffffffffffffffffff169060200190929190505050610e6b565b005b600660009054906101000a900473ffffffffffffffffffffffffffffffffffffffff1673ffffffffffffffffffffffffffffffffffffffff163373ffffffffffffffffffffffffffffffffffffffff1614151561055b576040517f08c379a00000000000000000000000000000000000000000000000000000000081526004018080602001828103825260188152602001807f4552524f525f4e4f545f50414e444f52415f53454e444552000000000000000081525060200191505060405180910390fd5b600073ffffffffffffffffffffffffffffffffffffffff168273ffffffffffffffffffffffffffffffffffffffff1614151515610600576040517f08c379a00000000000000000000000000000000000000000000000000000000081526004018080602001828103825260158152602001807f4552524f525f494e56414c49445f41444452455353000000000000000000000081525060200191505060405180910390fd5b600560009054906101000a900473ffffffffffffffffffffffffffffffffffffffff1673ffffffffffffffffffffffffffffffffffffffff166323b872dd3084846040518463ffffffff167c0100000000000000000000000000000000000000000000000000000000028152600401808473ffffffffffffffffffffffffffffffffffffffff1673ffffffffffffffffffffffffffffffffffffffff1681526020018373ffffffffffffffffffffffffffffffffffffffff1673ffffffffffffffffffffffffffffffffffffffff1681526020018281526020019350505050602060405180830381600087803b1580156106f957600080fd5b505af115801561070d573d6000803e3d6000fd5b505050506040513d602081101561072357600080fd5b81019080805190602001909291905050505061073f8382610e8a565b8173ffffffffffffffffffffffffffffffffffffffff168373ffffffffffffffffffffffffffffffffffffffff167fdd2ca7ed370c4a9f5d5939c47ee79d8a8af5eee18d271400df4cfd44663024ee836040518082815260200191505060405180910390a3505050565b806107be336001610f6b90919063ffffffff16565b10151515610834576040517f08c379a00000000000000000000000000000000000000000000000000000000081526004018080602001828103825260198152602001807f4552524f525f494e53554646494349454e545f544f4b454e530000000000000081525060200191505060405180910390fd5b61083e3382611038565b50565b6000610857826001610f6b90919063ffffffff16565b9050919050565b610866610959565b151561087157600080fd5b600073ffffffffffffffffffffffffffffffffffffffff166000809054906101000a900473ffffffffffffffffffffffffffffffffffffffff1673ffffffffffffffffffffffffffffffffffffffff167f8be0079c531659141344cd1fd0a4f28419497f9722a3daafe3b4186f6b6457e060405160405180910390a360008060006101000a81548173ffffffffffffffffffffffffffffffffffffffff021916908373ffffffffffffffffffffffffffffffffffffffff160217905550565b60008060009054906101000a900473ffffffffffffffffffffffffffffffffffffffff16905090565b60008060009054906101000a900473ffffffffffffffffffffffffffffffffffffffff1673ffffffffffffffffffffffffffffffffffffffff163373ffffffffffffffffffffffffffffffffffffffff1614905090565b600660009054906101000a900473ffffffffffffffffffffffffffffffffffffffff1673ffffffffffffffffffffffffffffffffffffffff163373ffffffffffffffffffffffffffffffffffffffff16141515610a75576040517f08c379a00000000000000000000000000000000000000000000000000000000081526004018080602001828103825260188152602001807f4552524f525f4e4f545f50414e444f52415f53454e444552000000000000000081525060200191505060405180910390fd5b60006004811115610a8257fe5b826004811115610a8e57fe5b1415610a9957610b9a565b60016004811115610aa657fe5b826004811115610ab257fe5b1415610abd57610b99565b60026004811115610aca57fe5b826004811115610ad657fe5b1415610ae157610b98565b60036004811115610aee57fe5b826004811115610afa57fe5b1415610b0557610b97565b600480811115610b1157fe5b826004811115610b1d57fe5b1415610b2857610b96565b6040517f08c379a000000000000000000000000000000000000000000000000000000000815260040180806020018281038252601c8152602001807f4552524f525f554e4b4e4f574e5f50454e414c54595f524541534f4e0000000081525060200191505060405180910390fd5b5b5b5b5b5050565b610bb068056bc75e2d631000006107a9565b565b68056bc75e2d6310000081565b600080610c748373ffffffffffffffffffffffffffffffffffffffff16638da5cb5b6040518163ffffffff167c0100000000000000000000000000000000000000000000000000000000028152600401602060405180830381600087803b158015610c2957600080fd5b505af1158015610c3d573d6000803e3d6000fd5b505050506040513d6020811015610c5357600080fd5b81019080805190602001909291905050506001610f6b90919063ffffffff16565b119050919050565b600081610c93846001610f6b90919063ffffffff16565b1015905092915050565b600080610cb4836001610f6b90919063ffffffff16565b119050919050565b600073ffffffffffffffffffffffffffffffffffffffff168173ffffffffffffffffffffffffffffffffffffffff1614151515610d61576040517f08c379a00000000000000000000000000000000000000000000000000000000081526004018080602001828103825260158152602001807f45525230525f494e56414c49445f41444452455353000000000000000000000081525060200191505060405180910390fd5b600073ffffffffffffffffffffffffffffffffffffffff16600660009054906101000a900473ffffffffffffffffffffffffffffffffffffffff1673ffffffffffffffffffffffffffffffffffffffff16141515610e27576040517f08c379a00000000000000000000000000000000000000000000000000000000081526004018080602001828103825260198152602001807f4552524f525f414c52454144595f494e495449414c495a45440000000000000081525060200191505060405180910390fd5b80600660006101000a81548173ffffffffffffffffffffffffffffffffffffffff021916908373ffffffffffffffffffffffffffffffffffffffff16021790555050565b610e73610959565b1515610e7e57600080fd5b610e8781611286565b50565b600073ffffffffffffffffffffffffffffffffffffffff16600660009054906101000a900473ffffffffffffffffffffffffffffffffffffffff1673ffffffffffffffffffffffffffffffffffffffff1614151515610f51576040517f08c379a00000000000000000000000000000000000000000000000000000000081526004018080602001828103825260158152602001807f4552524f525f4e4f545f494e495449414c495a4544000000000000000000000081525060200191505060405180910390fd5b610f67828260016113809092919063ffffffff16565b5050565b6000610f778383611523565b1515610feb576040517f08c379a00000000000000000000000000000000000000000000000000000000081526004018080602001828103825260178152602001807f4552524f525f4c45444745525f4e4f545f45584953545300000000000000000081525060200191505060405180910390fd5b8260010160008373ffffffffffffffffffffffffffffffffffffffff1673ffffffffffffffffffffffffffffffffffffffff16815260200190815260200160002060010154905092915050565b600073ffffffffffffffffffffffffffffffffffffffff16600660009054906101000a900473ffffffffffffffffffffffffffffffffffffffff1673ffffffffffffffffffffffffffffffffffffffff16141515156110ff576040517f08c379a00000000000000000000000000000000000000000000000000000000081526004018080602001828103825260158152602001807f4552524f525f4e4f545f494e495449414c495a4544000000000000000000000081525060200191505060405180910390fd5b600560009054906101000a900473ffffffffffffffffffffffffffffffffffffffff1673ffffffffffffffffffffffffffffffffffffffff166323b872dd8330846040518463ffffffff167c0100000000000000000000000000000000000000000000000000000000028152600401808473ffffffffffffffffffffffffffffffffffffffff1673ffffffffffffffffffffffffffffffffffffffff1681526020018373ffffffffffffffffffffffffffffffffffffffff1673ffffffffffffffffffffffffffffffffffffffff1681526020018281526020019350505050602060405180830381600087803b1580156111f857600080fd5b505af115801561120c573d6000803e3d6000fd5b505050506040513d602081101561122257600080fd5b81019080805190602001909291905050505061123e8282611666565b803373ffffffffffffffffffffffffffffffffffffffff167f76852ef4c94d5aa389f0cc3347a4e47856bf9f9afa1569b67e7e41252058116060405160405180910390a35050565b600073ffffffffffffffffffffffffffffffffffffffff168173ffffffffffffffffffffffffffffffffffffffff16141515156112c257600080fd5b8073ffffffffffffffffffffffffffffffffffffffff166000809054906101000a900473ffffffffffffffffffffffffffffffffffffffff1673ffffffffffffffffffffffffffffffffffffffff167f8be0079c531659141344cd1fd0a4f28419497f9722a3daafe3b4186f6b6457e060405160405180910390a3806000806101000a81548173ffffffffffffffffffffffffffffffffffffffff021916908373ffffffffffffffffffffffffffffffffffffffff16021790555050565b61138a8383611523565b15156113fe576040517f08c379a00000000000000000000000000000000000000000000000000000000081526004018080602001828103825260178152602001807f4552524f525f4c45444745525f4e4f545f45584953545300000000000000000081525060200191505060405180910390fd5b806114098484610f6b565b1015151561147f576040517f08c379a00000000000000000000000000000000000000000000000000000000081526004018080602001828103825260188152602001807f4552524f525f494e53554646494349454e545f46554e4453000000000000000081525060200191505060405180910390fd5b6114d6818460010160008573ffffffffffffffffffffffffffffffffffffffff1673ffffffffffffffffffffffffffffffffffffffff1681526020019081526020016000206001015461177690919063ffffffff16565b8360010160008473ffffffffffffffffffffffffffffffffffffffff1673ffffffffffffffffffffffffffffffffffffffff16815260200190815260200160002060010181905550505050565b60008073ffffffffffffffffffffffffffffffffffffffff168273ffffffffffffffffffffffffffffffffffffffff16141515156115c9576040517f08c379a00000000000000000000000000000000000000000000000000000000081526004018080602001828103825260158152602001807f4552524f525f494e56414c49445f41444452455353000000000000000000000081525060200191505060405180910390fd5b600073ffffffffffffffffffffffffffffffffffffffff168360010160008473ffffffffffffffffffffffffffffffffffffffff1673ffffffffffffffffffffffffffffffffffffffff16815260200190815260200160002060000160009054906101000a900473ffffffffffffffffffffffffffffffffffffffff1673ffffffffffffffffffffffffffffffffffffffff161415905092915050565b600073ffffffffffffffffffffffffffffffffffffffff16600660009054906101000a900473ffffffffffffffffffffffffffffffffffffffff1673ffffffffffffffffffffffffffffffffffffffff161415151561172d576040517f08c379a00000000000000000000000000000000000000000000000000000000081526004018080602001828103825260158152602001807f4552524f525f4e4f545f494e495449414c495a4544000000000000000000000081525060200191505060405180910390fd5b61174182600161152390919063ffffffff16565b151561175c5761175b82600161179790919063ffffffff16565b5b61177282826001611a359092919063ffffffff16565b5050565b60008083831115151561178857600080fd5b82840390508091505092915050565b600073ffffffffffffffffffffffffffffffffffffffff168173ffffffffffffffffffffffffffffffffffffffff161415151561183c576040517f08c379a00000000000000000000000000000000000000000000000000000000081526004018080602001828103825260158152602001807f4552524f525f494e56414c49445f41444452455353000000000000000000000081525060200191505060405180910390fd5b6118468282611523565b1515156118bb576040517f08c379a000000000000000000000000000000000000000000000000000000000815260040180806020018281038252601b8152602001807f4552524f525f4c45444745525f414c52454144595f455849535453000000000081525060200191505060405180910390fd5b60408051908101604052808273ffffffffffffffffffffffffffffffffffffffff16815260200160008152508260010160008373ffffffffffffffffffffffffffffffffffffffff1673ffffffffffffffffffffffffffffffffffffffff16815260200190815260200160002060008201518160000160006101000a81548173ffffffffffffffffffffffffffffffffffffffff021916908373ffffffffffffffffffffffffffffffffffffffff1602179055506020820151816001015590505081600001548260020160008373ffffffffffffffffffffffffffffffffffffffff1673ffffffffffffffffffffffffffffffffffffffff16815260200190815260200160002081905550808260030160008460000154815260200190815260200160002060006101000a81548173ffffffffffffffffffffffffffffffffffffffff021916908373ffffffffffffffffffffffffffffffffffffffff160217905550600182600001600082825401925050819055505050565b611a3f8383611523565b1515611ab3576040517f08c379a00000000000000000000000000000000000000000000000000000000081526004018080602001828103825260178152602001807f4552524f525f4c45444745525f4e4f545f45584953545300000000000000000081525060200191505060405180910390fd5b60018110151515611b2c576040517f08c379a000000000000000000000000000000000000000000000000000000000815260040180806020018281038252601b8152602001807f4552524f525f494e56414c49445f544f4b454e535f414d4f554e54000000000081525060200191505060405180910390fd5b611b83818460010160008573ffffffffffffffffffffffffffffffffffffffff1673ffffffffffffffffffffffffffffffffffffffff16815260200190815260200160002060010154611bd090919063ffffffff16565b8360010160008473ffffffffffffffffffffffffffffffffffffffff1673ffffffffffffffffffffffffffffffffffffffff16815260200190815260200160002060010181905550505050565b6000808284019050838110151515611be757600080fd5b80915050929150505600a165627a7a72305820e5b91414d16539494c1b17ac3e8c4e676884258b69600a0a2b713643de2b4f0d0029",
  "source": "pragma solidity 0.4.24;\n\nimport \"openzeppelin-solidity/contracts/token/ERC20/IERC20.sol\";\nimport \"openzeppelin-solidity/contracts/ownership/Ownable.sol\";\nimport \"./IEconomicController.sol\";\nimport \"./ICognitiveJobManager.sol\";\nimport \"../../libraries/LedgersLib.sol\";\nimport \"../../nodes/IWorkerNode.sol\";\n\n\ncontract EconomicController is IEconomicController, Ownable {\n\n    using LedgersLib for LedgersLib.LedgersStorage;\n\n    /**\n     * @dev Internal ledgers storage    \n     */\n    LedgersLib.LedgersStorage internal ledgers;\n    \n    IERC20 internal panToken;\n    \n    ICognitiveJobManager internal pandora;\n\n    modifier onlyInitiazed() {\n        require(address(pandora) != address(0), \"ERROR_NOT_INITIALIZED\");\n        _;\n    }\n\n    modifier onlyPandora() {\n        require(msg.sender == address(pandora), \"ERROR_NOT_PANDORA_SENDER\");\n        _;\n    }\n\n    constructor (IERC20 _panToken) public {\n        panToken = _panToken;        \n    }\n\n    function initialize(ICognitiveJobManager _pandora) public {\n        require(_pandora != address(0), \"ERR0R_INVALID_ADDRESS\");\n        require(pandora == address(0), \"ERROR_ALREADY_INITIALIZED\");\n        pandora = _pandora;\n    }\n\n    function blockWorkerNodeStake() external {\n        blockTokens(minimumWorkerNodeStake);\n    }\n\n    function hasAvailableFunds(address addr) external view returns (bool) {\n        return ledgers.balanceOf(addr) > 0;\n    }\n\n    function hasEnoughFunds(address addr, uint256 funds) external view returns (bool) {\n        return ledgers.balanceOf(addr) >= funds;\n    }\n\n    function positiveWorkerNodeStake(address workerNodeAddr) external view returns (bool) {\n        return ledgers.balanceOf(address(IWorkerNode(workerNodeAddr).owner())) > 0;\n    }\n\n    function balanceOf(address addr) external view returns (uint256) {\n        return ledgers.balanceOf(addr);\n    }\n\n    function unblockTokens(\n        address from, \n        address to,\n        uint256 value\n    ) external onlyPandora {\n        require(to != address(0), \"ERROR_INVALID_ADDRESS\");\n        panToken.transferFrom(address(this), to, value);\n        _sub(from, value);\n        emit UnblockedTokens(from, to, value);\n    }\n\n    function applyPenalty(\n        IWorkerNode.Penalties reason, \n        address owner\n    ) external onlyPandora {\n\n        if (reason == IWorkerNode.Penalties.OfflineWhileGathering) {\n\n        } else if (reason == IWorkerNode.Penalties.DeclinesJob) {\n\n        } else if (reason == IWorkerNode.Penalties.OfflineWhileDataValidation) {\n            \n        } else if (reason == IWorkerNode.Penalties.FalseReportInvalidData) {\n            \n        } else if (reason == IWorkerNode.Penalties.OfflineWhileCognition) {\n            \n        } else {\n            revert(\"ERROR_UNKNOWN_PENALTY_REASON\");\n        }\n    }\n\n    function blockTokens(uint256 value) public {\n        require(ledgers.balanceOf(msg.sender) >= value, \"ERROR_INSUFFICIENT_TOKENS\");\n        _block(msg.sender, value);\n    }\n\n    function _add(\n        address addr, \n        uint256 value\n    ) private onlyInitiazed {\n\n        if (!ledgers.isLedgerExists(addr)) {\n            ledgers.put(addr);\n        }\n        \n        ledgers.add(addr, value);\n    }\n\n    function _sub(\n        address from,\n        uint256 value\n    ) private onlyInitiazed {\n        ledgers.sub(from, value);\n    }\n\n    function _block(\n        address from,\n        uint256 value\n    ) private onlyInitiazed {\n        panToken.transferFrom(from, address(this), value);\n        _add(from, value);\n        emit BlockedTokens(msg.sender, value);\n    }\n}\n",
  "sourcePath": "/home/kostysh/dev/pyrrha-consensus/contracts/pandora/managers/EconomicController.sol",
  "compiler": {
    "name": "solc",
    "version": "0.4.24+commit.e67f0147.Emscripten.clang"
  },
  "schemaVersion": "2.0.1",
  "updatedAt": "2018-12-27T18:52:29.479Z"
}