{
  "contractName": "EconomicControllerTests",
  "abi": [
    {
      "constant": true,
      "inputs": [],
      "name": "economicController",
      "outputs": [
        {
          "name": "",
          "type": "address"
        }
      ],
      "payable": false,
      "stateMutability": "view",
      "type": "function"
    },
    {
      "inputs": [
        {
          "name": "_economicController",
          "type": "address"
        }
      ],
      "payable": false,
      "stateMutability": "nonpayable",
      "type": "constructor"
    },
    {
      "constant": false,
      "inputs": [
        {
          "name": "from",
          "type": "address"
        },
        {
          "name": "to",
          "type": "address"
        },
        {
          "name": "value",
          "type": "uint256"
        }
      ],
      "name": "testUnblockTokensFrom",
      "outputs": [],
      "payable": false,
      "stateMutability": "nonpayable",
      "type": "function"
    }
  ],
  "bytecode": "0x608060405234801561001057600080fd5b506040516020806102fe83398101806040528101908080519060200190929190505050806000806101000a81548173ffffffffffffffffffffffffffffffffffffffff021916908373ffffffffffffffffffffffffffffffffffffffff1602179055505061027b806100836000396000f30060806040526004361061004c576000357c0100000000000000000000000000000000000000000000000000000000900463ffffffff1680634de7485d14610051578063fe6f4fe3146100a8575b600080fd5b34801561005d57600080fd5b50610066610115565b604051808273ffffffffffffffffffffffffffffffffffffffff1673ffffffffffffffffffffffffffffffffffffffff16815260200191505060405180910390f35b3480156100b457600080fd5b50610113600480360381019080803573ffffffffffffffffffffffffffffffffffffffff169060200190929190803573ffffffffffffffffffffffffffffffffffffffff1690602001909291908035906020019092919050505061013a565b005b6000809054906101000a900473ffffffffffffffffffffffffffffffffffffffff1681565b6000809054906101000a900473ffffffffffffffffffffffffffffffffffffffff1673ffffffffffffffffffffffffffffffffffffffff166347b27b8b8484846040518463ffffffff167c0100000000000000000000000000000000000000000000000000000000028152600401808473ffffffffffffffffffffffffffffffffffffffff1673ffffffffffffffffffffffffffffffffffffffff1681526020018373ffffffffffffffffffffffffffffffffffffffff1673ffffffffffffffffffffffffffffffffffffffff1681526020018281526020019350505050600060405180830381600087803b15801561023257600080fd5b505af1158015610246573d6000803e3d6000fd5b505050505050505600a165627a7a72305820b668896f4dc55c647b636137ad9bf295523d682e1dc938ffa27558bc40f8310b0029",
  "source": "pragma solidity ^0.4.24;\n\nimport \"../pandora/managers/ICognitiveJobManager.sol\";\nimport \"../pandora/managers/IEconomicController.sol\";\n\n/**\n * @title EconomicControllerTests\n * @dev This contract represents tokens management logic\n * @author Kostiantyn Smyrnov <kostysh@gmail.com>\n */\ncontract EconomicControllerTests {\n\n    address public economicController;\n\n    constructor (address _economicController) public {\n        economicController = _economicController;\n    }\n\n    /**\n     * @dev Unblock tokens and send to address\n     * @param from Source address\n     * @param to Destination address\n     * @param value Value\n     */\n    function testUnblockTokensFrom(\n        address from, \n        address to,\n        uint256 value\n    ) public {\n        IEconomicController(economicController).unblockTokens(from, to, value);\n    }\n}\n",
  "sourcePath": "/home/kostysh/dev/pyrrha-consensus/contracts/test/EconomicControllerTests.sol",
  "compiler": {
    "name": "solc",
    "version": "0.4.24+commit.e67f0147.Emscripten.clang"
  },
  "schemaVersion": "2.0.1",
  "updatedAt": "2019-01-11T15:27:33.206Z"
}