{
  "contractName": "EconomicController",
  "abi": [
    {
      "constant": false,
      "inputs": [],
      "name": "renounceOwnership",
      "outputs": [],
      "payable": false,
      "stateMutability": "nonpayable",
      "type": "function"
    },
    {
      "constant": true,
      "inputs": [],
      "name": "owner",
      "outputs": [
        {
          "name": "",
          "type": "address"
        }
      ],
      "payable": false,
      "stateMutability": "view",
      "type": "function"
    },
    {
      "constant": true,
      "inputs": [],
      "name": "isOwner",
      "outputs": [
        {
          "name": "",
          "type": "bool"
        }
      ],
      "payable": false,
      "stateMutability": "view",
      "type": "function"
    },
    {
      "constant": true,
      "inputs": [],
      "name": "minimumWorkerNodeStake",
      "outputs": [
        {
          "name": "",
          "type": "uint256"
        }
      ],
      "payable": false,
      "stateMutability": "view",
      "type": "function"
    },
    {
      "constant": true,
      "inputs": [],
      "name": "systemCommission",
      "outputs": [
        {
          "name": "",
          "type": "uint256"
        }
      ],
      "payable": false,
      "stateMutability": "view",
      "type": "function"
    },
    {
      "constant": false,
      "inputs": [
        {
          "name": "newOwner",
          "type": "address"
        }
      ],
      "name": "transferOwnership",
      "outputs": [],
      "payable": false,
      "stateMutability": "nonpayable",
      "type": "function"
    },
    {
      "inputs": [
        {
          "name": "_panToken",
          "type": "address"
        }
      ],
      "payable": false,
      "stateMutability": "nonpayable",
      "type": "constructor"
    },
    {
      "anonymous": false,
      "inputs": [
        {
          "indexed": true,
          "name": "previousOwner",
          "type": "address"
        },
        {
          "indexed": true,
          "name": "newOwner",
          "type": "address"
        }
      ],
      "name": "OwnershipTransferred",
      "type": "event"
    },
    {
      "anonymous": false,
      "inputs": [
        {
          "indexed": true,
          "name": "initializer",
          "type": "address"
        }
      ],
      "name": "EconomicInitialized",
      "type": "event"
    },
    {
      "anonymous": false,
      "inputs": [
        {
          "indexed": true,
          "name": "owner",
          "type": "address"
        },
        {
          "indexed": false,
          "name": "value",
          "type": "uint256"
        }
      ],
      "name": "BlockedTokens",
      "type": "event"
    },
    {
      "anonymous": false,
      "inputs": [
        {
          "indexed": true,
          "name": "from",
          "type": "address"
        },
        {
          "indexed": true,
          "name": "to",
          "type": "address"
        },
        {
          "indexed": false,
          "name": "value",
          "type": "uint256"
        }
      ],
      "name": "UnblockedTokens",
      "type": "event"
    },
    {
      "anonymous": false,
      "inputs": [
        {
          "indexed": true,
          "name": "owner",
          "type": "address"
        },
        {
          "indexed": false,
          "name": "reason",
          "type": "uint8"
        },
        {
          "indexed": false,
          "name": "value",
          "type": "uint256"
        }
      ],
      "name": "PenaltyApplied",
      "type": "event"
    },
    {
      "anonymous": false,
      "inputs": [
        {
          "indexed": true,
          "name": "jobId",
          "type": "bytes32"
        },
        {
          "indexed": false,
          "name": "value",
          "type": "uint256"
        }
      ],
      "name": "TokensMined",
      "type": "event"
    },
    {
      "anonymous": false,
      "inputs": [
        {
          "indexed": true,
          "name": "jobId",
          "type": "bytes32"
        },
        {
          "indexed": true,
          "name": "to",
          "type": "address"
        },
        {
          "indexed": false,
          "name": "value",
          "type": "uint256"
        }
      ],
      "name": "RewardTransferred",
      "type": "event"
    },
    {
      "anonymous": false,
      "inputs": [
        {
          "indexed": true,
          "name": "jobId",
          "type": "bytes32"
        },
        {
          "indexed": true,
          "name": "to",
          "type": "address"
        },
        {
          "indexed": false,
          "name": "value",
          "type": "uint256"
        }
      ],
      "name": "RefundedDelta",
      "type": "event"
    },
    {
      "constant": false,
      "inputs": [
        {
          "name": "_pandora",
          "type": "address"
        }
      ],
      "name": "initialize",
      "outputs": [],
      "payable": false,
      "stateMutability": "nonpayable",
      "type": "function"
    },
    {
      "constant": false,
      "inputs": [],
      "name": "blockWorkerNodeStake",
      "outputs": [],
      "payable": false,
      "stateMutability": "nonpayable",
      "type": "function"
    },
    {
      "constant": false,
      "inputs": [
        {
          "name": "from",
          "type": "address"
        }
      ],
      "name": "blockWorkerNodeStakeFrom",
      "outputs": [],
      "payable": false,
      "stateMutability": "nonpayable",
      "type": "function"
    },
    {
      "constant": true,
      "inputs": [
        {
          "name": "addr",
          "type": "address"
        }
      ],
      "name": "hasAvailableFunds",
      "outputs": [
        {
          "name": "",
          "type": "bool"
        }
      ],
      "payable": false,
      "stateMutability": "view",
      "type": "function"
    },
    {
      "constant": true,
      "inputs": [
        {
          "name": "addr",
          "type": "address"
        },
        {
          "name": "funds",
          "type": "uint256"
        }
      ],
      "name": "hasEnoughFunds",
      "outputs": [
        {
          "name": "",
          "type": "bool"
        }
      ],
      "payable": false,
      "stateMutability": "view",
      "type": "function"
    },
    {
      "constant": true,
      "inputs": [
        {
          "name": "workerNodeAddr",
          "type": "address"
        }
      ],
      "name": "positiveWorkerNodeStake",
      "outputs": [
        {
          "name": "",
          "type": "bool"
        }
      ],
      "payable": false,
      "stateMutability": "view",
      "type": "function"
    },
    {
      "constant": true,
      "inputs": [
        {
          "name": "addr",
          "type": "address"
        }
      ],
      "name": "balanceOf",
      "outputs": [
        {
          "name": "",
          "type": "uint256"
        }
      ],
      "payable": false,
      "stateMutability": "view",
      "type": "function"
    },
    {
      "constant": false,
      "inputs": [
        {
          "name": "workerNodeAddr",
          "type": "address"
        },
        {
          "name": "reason",
          "type": "uint8"
        }
      ],
      "name": "applyPenalty",
      "outputs": [],
      "payable": false,
      "stateMutability": "nonpayable",
      "type": "function"
    },
    {
      "constant": false,
      "inputs": [
        {
          "name": "_jobId",
          "type": "bytes32"
        }
      ],
      "name": "makeRewards",
      "outputs": [],
      "payable": false,
      "stateMutability": "nonpayable",
      "type": "function"
    },
    {
      "constant": false,
      "inputs": [
        {
          "name": "value",
          "type": "uint256"
        }
      ],
      "name": "blockTokens",
      "outputs": [],
      "payable": false,
      "stateMutability": "nonpayable",
      "type": "function"
    },
    {
      "constant": false,
      "inputs": [
        {
          "name": "from",
          "type": "address"
        },
        {
          "name": "value",
          "type": "uint256"
        }
      ],
      "name": "blockTokensFrom",
      "outputs": [],
      "payable": false,
      "stateMutability": "nonpayable",
      "type": "function"
    },
    {
      "constant": false,
      "inputs": [
        {
          "name": "from",
          "type": "address"
        },
        {
          "name": "to",
          "type": "address"
        },
        {
          "name": "value",
          "type": "uint256"
        }
      ],
      "name": "unblockTokens",
      "outputs": [],
      "payable": false,
      "stateMutability": "nonpayable",
      "type": "function"
    }
  ],
  "bytecode": "0x608060405234801561001057600080fd5b50604051602080613f6b83398101806040528101908080519060200190929190505050336000806101000a81548173ffffffffffffffffffffffffffffffffffffffff021916908373ffffffffffffffffffffffffffffffffffffffff1602179055506000809054906101000a900473ffffffffffffffffffffffffffffffffffffffff1673ffffffffffffffffffffffffffffffffffffffff16600073ffffffffffffffffffffffffffffffffffffffff167f8be0079c531659141344cd1fd0a4f28419497f9722a3daafe3b4186f6b6457e060405160405180910390a380600560006101000a81548173ffffffffffffffffffffffffffffffffffffffff021916908373ffffffffffffffffffffffffffffffffffffffff16021790555050613e2b806101406000396000f3006080604052600436106100fc576000357c0100000000000000000000000000000000000000000000000000000000900463ffffffff1680632e63178b1461010157806347b27b8b1461013257806350bb343a1461019f57806364db26b8146101ec57806370a0823114610219578063715018a614610270578063823043a4146102875780638da5cb5b146102ca5780638f32d59b1461032157806395eeab13146103505780639e62585914610367578063a27ef1bc14610392578063b05b89a1146103ed578063bb9f765f14610452578063c49f597b146104ad578063c4d66de8146104d8578063f2fde38b1461051b578063f417e7c91461055e575b600080fd5b34801561010d57600080fd5b5061013060048036038101908080356000191690602001909291905050506105ae565b005b34801561013e57600080fd5b5061019d600480360381019080803573ffffffffffffffffffffffffffffffffffffffff169060200190929190803573ffffffffffffffffffffffffffffffffffffffff16906020019092919080359060200190929190505050611ea7565b005b3480156101ab57600080fd5b506101ea600480360381019080803573ffffffffffffffffffffffffffffffffffffffff16906020019092919080359060200190929190505050611f7c565b005b3480156101f857600080fd5b50610217600480360381019080803590602001909291905050506120f9565b005b34801561022557600080fd5b5061025a600480360381019080803573ffffffffffffffffffffffffffffffffffffffff169060200190929190505050612106565b6040518082815260200191505060405180910390f35b34801561027c57600080fd5b50610285612123565b005b34801561029357600080fd5b506102c8600480360381019080803573ffffffffffffffffffffffffffffffffffffffff1690602001909291905050506121f5565b005b3480156102d657600080fd5b506102df61220b565b604051808273ffffffffffffffffffffffffffffffffffffffff1673ffffffffffffffffffffffffffffffffffffffff16815260200191505060405180910390f35b34801561032d57600080fd5b50610336612234565b604051808215151515815260200191505060405180910390f35b34801561035c57600080fd5b5061036561228b565b005b34801561037357600080fd5b5061037c61229f565b6040518082815260200191505060405180910390f35b34801561039e57600080fd5b506103d3600480360381019080803573ffffffffffffffffffffffffffffffffffffffff1690602001909291905050506122ac565b604051808215151515815260200191505060405180910390f35b3480156103f957600080fd5b50610438600480360381019080803573ffffffffffffffffffffffffffffffffffffffff16906020019092919080359060200190929190505050612369565b604051808215151515815260200191505060405180910390f35b34801561045e57600080fd5b50610493600480360381019080803573ffffffffffffffffffffffffffffffffffffffff16906020019092919050505061238a565b604051808215151515815260200191505060405180910390f35b3480156104b957600080fd5b506104c26123a9565b6040518082815260200191505060405180910390f35b3480156104e457600080fd5b50610519600480360381019080803573ffffffffffffffffffffffffffffffffffffffff1690602001909291905050506123ae565b005b34801561052757600080fd5b5061055c600480360381019080803573ffffffffffffffffffffffffffffffffffffffff1690602001909291905050506125a0565b005b34801561056a57600080fd5b506105ac600480360381019080803573ffffffffffffffffffffffffffffffffffffffff169060200190929190803560ff1690602001909291905050506125bf565b005b60008060006060600080600080600080600080600073ffffffffffffffffffffffffffffffffffffffff16600660009054906101000a900473ffffffffffffffffffffffffffffffffffffffff1673ffffffffffffffffffffffffffffffffffffffff1614151515610688576040517f08c379a00000000000000000000000000000000000000000000000000000000081526004018080602001828103825260158152602001807f4552524f525f4e4f545f494e495449414c495a4544000000000000000000000081525060200191505060405180910390fd5b600660009054906101000a900473ffffffffffffffffffffffffffffffffffffffff1673ffffffffffffffffffffffffffffffffffffffff163373ffffffffffffffffffffffffffffffffffffffff1614806107cf5750600660009054906101000a900473ffffffffffffffffffffffffffffffffffffffff1673ffffffffffffffffffffffffffffffffffffffff16632f853d866040518163ffffffff167c0100000000000000000000000000000000000000000000000000000000028152600401602060405180830381600087803b15801561076557600080fd5b505af1158015610779573d6000803e3d6000fd5b505050506040513d602081101561078f57600080fd5b810190808051906020019092919050505073ffffffffffffffffffffffffffffffffffffffff163373ffffffffffffffffffffffffffffffffffffffff16145b1515610869576040517f08c379a00000000000000000000000000000000000000000000000000000000081526004018080602001828103825260238152602001807f4552524f525f4e4f545f50414e444f52415f4f525f4a4f425f434f4e54524f4c81526020017f4c4552000000000000000000000000000000000000000000000000000000000081525060400191505060405180910390fd5b600660009054906101000a900473ffffffffffffffffffffffffffffffffffffffff1673ffffffffffffffffffffffffffffffffffffffff16632f853d866040518163ffffffff167c0100000000000000000000000000000000000000000000000000000000028152600401602060405180830381600087803b1580156108ef57600080fd5b505af1158015610903573d6000803e3d6000fd5b505050506040513d602081101561091957600080fd5b810190808051906020019092919050505073ffffffffffffffffffffffffffffffffffffffff166339d9de648e6040518263ffffffff167c0100000000000000000000000000000000000000000000000000000000028152600401808260001916600019168152602001915050600060405180830381600087803b1580156109a057600080fd5b505af11580156109b4573d6000803e3d6000fd5b505050506040513d6000823e3d601f19601f820116820180604052506101008110156109df57600080fd5b8101908080519060200190929190805190602001909291908051906020019092919080519060200190929190805190602001909291908051640100000000811115610a2957600080fd5b82810190506020810184811115610a3f57600080fd5b8151856020820283011164010000000082111715610a5c57600080fd5b505092919060200180519060200190929190805190602001909291905050509e50509d5050509b509b509b50600760008e6000191660001916815260200190815260200160002060009054906101000a900460ff16151515610b26576040517f08c379a000000000000000000000000000000000000000000000000000000000815260040180806020018281038252601a8152602001807f4552524f525f4a4f425f414c52454144595f524557415244454400000000000081525060200191505060405180910390fd5b60076008811115610b3357fe5b60ff168860ff16141515610bd5576040517f08c379a00000000000000000000000000000000000000000000000000000000081526004018080602001828103825260218152602001807f4552524f525f57524f4e475f4a4f425f53544154455f464f525f52455741524481526020017f530000000000000000000000000000000000000000000000000000000000000081525060400191505060405180910390fd5b6001600760008f6000191660001916815260200190815260200160002060006101000a81548160ff021916908315150217905550600660009054906101000a900473ffffffffffffffffffffffffffffffffffffffff1673ffffffffffffffffffffffffffffffffffffffff166346f340746040518163ffffffff167c0100000000000000000000000000000000000000000000000000000000028152600401602060405180830381600087803b158015610c8f57600080fd5b505af1158015610ca3573d6000803e3d6000fd5b505050506040513d6020811015610cb957600080fd5b810190808051906020019092919050505096508973ffffffffffffffffffffffffffffffffffffffff16639d1b464a6040518163ffffffff167c0100000000000000000000000000000000000000000000000000000000028152600401602060405180830381600087803b158015610d3057600080fd5b505af1158015610d44573d6000803e3d6000fd5b505050506040513d6020811015610d5a57600080fd5b810190808051906020019092919050505095508a73ffffffffffffffffffffffffffffffffffffffff16639d1b464a6040518163ffffffff167c0100000000000000000000000000000000000000000000000000000000028152600401602060405180830381600087803b158015610dd157600080fd5b505af1158015610de5573d6000803e3d6000fd5b505050506040513d6020811015610dfb57600080fd5b81019080805190602001909291905050509450610ec88c8b73ffffffffffffffffffffffffffffffffffffffff16638da5cb5b6040518163ffffffff167c0100000000000000000000000000000000000000000000000000000000028152600401602060405180830381600087803b158015610e7657600080fd5b505af1158015610e8a573d6000803e3d6000fd5b505050506040513d6020811015610ea057600080fd5b8101908080519060200190929190505050600560648a811515610ebf57fe5b04028903612e82565b8973ffffffffffffffffffffffffffffffffffffffff16638da5cb5b6040518163ffffffff167c0100000000000000000000000000000000000000000000000000000000028152600401602060405180830381600087803b158015610f2c57600080fd5b505af1158015610f40573d6000803e3d6000fd5b505050506040513d6020811015610f5657600080fd5b810190808051906020019092919050505073ffffffffffffffffffffffffffffffffffffffff168d600019167f64db34a1de38ac3a90dbb79f6ac7b8a26311b6fde0486ad143d99b4081898ddb600560648a811515610fb157fe5b040289036040518082815260200191505060405180910390a36110068c600660009054906101000a900473ffffffffffffffffffffffffffffffffffffffff16600560648a811515610fff57fe5b0402612e82565b600660009054906101000a900473ffffffffffffffffffffffffffffffffffffffff1673ffffffffffffffffffffffffffffffffffffffff168d600019167f64db34a1de38ac3a90dbb79f6ac7b8a26311b6fde0486ad143d99b4081898ddb600560648a81151561107357fe5b04026040518082815260200191505060405180910390a36111448c8c73ffffffffffffffffffffffffffffffffffffffff16638da5cb5b6040518163ffffffff167c0100000000000000000000000000000000000000000000000000000000028152600401602060405180830381600087803b1580156110f257600080fd5b505af1158015611106573d6000803e3d6000fd5b505050506040513d602081101561111c57600080fd5b8101908080519060200190929190505050600560648981151561113b57fe5b04028803612e82565b8a73ffffffffffffffffffffffffffffffffffffffff16638da5cb5b6040518163ffffffff167c0100000000000000000000000000000000000000000000000000000000028152600401602060405180830381600087803b1580156111a857600080fd5b505af11580156111bc573d6000803e3d6000fd5b505050506040513d60208110156111d257600080fd5b810190808051906020019092919050505073ffffffffffffffffffffffffffffffffffffffff168d600019167f64db34a1de38ac3a90dbb79f6ac7b8a26311b6fde0486ad143d99b4081898ddb600560648981151561122d57fe5b040288036040518082815260200191505060405180910390a36112828c600660009054906101000a900473ffffffffffffffffffffffffffffffffffffffff16600560648981151561127b57fe5b0402612e82565b600660009054906101000a900473ffffffffffffffffffffffffffffffffffffffff1673ffffffffffffffffffffffffffffffffffffffff168d600019167f64db34a1de38ac3a90dbb79f6ac7b8a26311b6fde0486ad143d99b4081898ddb60056064898115156112ef57fe5b04026040518082815260200191505060405180910390a360009150600090505b8851811015611e305760009250888181518110151561132a57fe5b9060200190602002015173ffffffffffffffffffffffffffffffffffffffff166312c88ecd6040518163ffffffff167c0100000000000000000000000000000000000000000000000000000000028152600401602060405180830381600087803b15801561139757600080fd5b505af11580156113ab573d6000803e3d6000fd5b505050506040513d60208110156113c157600080fd5b8101908080519060200190929190505050935086841015611b7857838703925082820191506114b78c8a838151811015156113f857fe5b9060200190602002015173ffffffffffffffffffffffffffffffffffffffff16638da5cb5b6040518163ffffffff167c0100000000000000000000000000000000000000000000000000000000028152600401602060405180830381600087803b15801561146557600080fd5b505af1158015611479573d6000803e3d6000fd5b505050506040513d602081101561148f57600080fd5b810190808051906020019092919050505060056064888115156114ae57fe5b04028703612e82565b88818151811015156114c557fe5b9060200190602002015173ffffffffffffffffffffffffffffffffffffffff16638da5cb5b6040518163ffffffff167c0100000000000000000000000000000000000000000000000000000000028152600401602060405180830381600087803b15801561153257600080fd5b505af1158015611546573d6000803e3d6000fd5b505050506040513d602081101561155c57600080fd5b810190808051906020019092919050505073ffffffffffffffffffffffffffffffffffffffff168d600019167f64db34a1de38ac3a90dbb79f6ac7b8a26311b6fde0486ad143d99b4081898ddb60056064888115156115b757fe5b040287036040518082815260200191505060405180910390a361160c8c600660009054906101000a900473ffffffffffffffffffffffffffffffffffffffff16600560648881151561160557fe5b0402612e82565b600660009054906101000a900473ffffffffffffffffffffffffffffffffffffffff1673ffffffffffffffffffffffffffffffffffffffff168d600019167f64db34a1de38ac3a90dbb79f6ac7b8a26311b6fde0486ad143d99b4081898ddb600560648881151561167957fe5b04026040518082815260200191505060405180910390a3600560009054906101000a900473ffffffffffffffffffffffffffffffffffffffff1673ffffffffffffffffffffffffffffffffffffffff166340c10f198a838151811015156116dc57fe5b9060200190602002015173ffffffffffffffffffffffffffffffffffffffff16638da5cb5b6040518163ffffffff167c0100000000000000000000000000000000000000000000000000000000028152600401602060405180830381600087803b15801561174957600080fd5b505af115801561175d573d6000803e3d6000fd5b505050506040513d602081101561177357600080fd5b8101908080519060200190929190505050600560648781151561179257fe5b040286036040518363ffffffff167c0100000000000000000000000000000000000000000000000000000000028152600401808373ffffffffffffffffffffffffffffffffffffffff1673ffffffffffffffffffffffffffffffffffffffff16815260200182815260200192505050602060405180830381600087803b15801561181b57600080fd5b505af115801561182f573d6000803e3d6000fd5b505050506040513d602081101561184557600080fd5b8101908080519060200190929190505050508c600019167f8e9460427fc854f79454bac27d71ebf6abb5da1dae2ce798183d03a2edf61231600560648681151561188b57fe5b040285036040518082815260200191505060405180910390a288818151811015156118b257fe5b9060200190602002015173ffffffffffffffffffffffffffffffffffffffff16638da5cb5b6040518163ffffffff167c0100000000000000000000000000000000000000000000000000000000028152600401602060405180830381600087803b15801561191f57600080fd5b505af1158015611933573d6000803e3d6000fd5b505050506040513d602081101561194957600080fd5b810190808051906020019092919050505073ffffffffffffffffffffffffffffffffffffffff168d600019167f64db34a1de38ac3a90dbb79f6ac7b8a26311b6fde0486ad143d99b4081898ddb60056064878115156119a457fe5b040286036040518082815260200191505060405180910390a3600560009054906101000a900473ffffffffffffffffffffffffffffffffffffffff1673ffffffffffffffffffffffffffffffffffffffff166340c10f19600660009054906101000a900473ffffffffffffffffffffffffffffffffffffffff166005606487811515611a2c57fe5b04026040518363ffffffff167c0100000000000000000000000000000000000000000000000000000000028152600401808373ffffffffffffffffffffffffffffffffffffffff1673ffffffffffffffffffffffffffffffffffffffff16815260200182815260200192505050602060405180830381600087803b158015611ab357600080fd5b505af1158015611ac7573d6000803e3d6000fd5b505050506040513d6020811015611add57600080fd5b810190808051906020019092919050505050600660009054906101000a900473ffffffffffffffffffffffffffffffffffffffff1673ffffffffffffffffffffffffffffffffffffffff168d600019167f64db34a1de38ac3a90dbb79f6ac7b8a26311b6fde0486ad143d99b4081898ddb6005606487811515611b5c57fe5b04026040518082815260200191505060405180910390a3611e23565b611c498c8a83815181101515611b8a57fe5b9060200190602002015173ffffffffffffffffffffffffffffffffffffffff16638da5cb5b6040518163ffffffff167c0100000000000000000000000000000000000000000000000000000000028152600401602060405180830381600087803b158015611bf757600080fd5b505af1158015611c0b573d6000803e3d6000fd5b505050506040513d6020811015611c2157600080fd5b8101908080519060200190929190505050600560648b811515611c4057fe5b04028a03612e82565b8881815181101515611c5757fe5b9060200190602002015173ffffffffffffffffffffffffffffffffffffffff16638da5cb5b6040518163ffffffff167c0100000000000000000000000000000000000000000000000000000000028152600401602060405180830381600087803b158015611cc457600080fd5b505af1158015611cd8573d6000803e3d6000fd5b505050506040513d6020811015611cee57600080fd5b810190808051906020019092919050505073ffffffffffffffffffffffffffffffffffffffff168d600019167f64db34a1de38ac3a90dbb79f6ac7b8a26311b6fde0486ad143d99b4081898ddb600560648b811515611d4957fe5b04028a036040518082815260200191505060405180910390a3611d9e8c600660009054906101000a900473ffffffffffffffffffffffffffffffffffffffff16600560648b811515611d9757fe5b0402612e82565b600660009054906101000a900473ffffffffffffffffffffffffffffffffffffffff1673ffffffffffffffffffffffffffffffffffffffff168d600019167f64db34a1de38ac3a90dbb79f6ac7b8a26311b6fde0486ad143d99b4081898ddb600560648b811515611e0b57fe5b04026040518082815260200191505060405180910390a35b808060010191505061130f565b6000821115611e9857611e448c8d84612e82565b8b73ffffffffffffffffffffffffffffffffffffffff168d600019167f33f370e91353f20b942542da3d6429bf075d6253c04a9697977a45bacb8f62da846040518082815260200191505060405180910390a35b50505050505050505050505050565b600660009054906101000a900473ffffffffffffffffffffffffffffffffffffffff1673ffffffffffffffffffffffffffffffffffffffff163373ffffffffffffffffffffffffffffffffffffffff16141515611f6c576040517f08c379a00000000000000000000000000000000000000000000000000000000081526004018080602001828103825260118152602001807f4552524f525f4e4f545f50414e444f524100000000000000000000000000000081525060200191505060405180910390fd5b611f77838383612e82565b505050565b80600560009054906101000a900473ffffffffffffffffffffffffffffffffffffffff1673ffffffffffffffffffffffffffffffffffffffff166370a08231846040518263ffffffff167c0100000000000000000000000000000000000000000000000000000000028152600401808273ffffffffffffffffffffffffffffffffffffffff1673ffffffffffffffffffffffffffffffffffffffff168152602001915050602060405180830381600087803b15801561203a57600080fd5b505af115801561204e573d6000803e3d6000fd5b505050506040513d602081101561206457600080fd5b8101908080519060200190929190505050101515156120eb576040517f08c379a00000000000000000000000000000000000000000000000000000000081526004018080602001828103825260198152602001807f4552524f525f494e53554646494349454e545f544f4b454e530000000000000081525060200191505060405180910390fd5b6120f5828261316f565b5050565b6121033382611f7c565b50565b600061211c8260016133c790919063ffffffff16565b9050919050565b61212b612234565b151561213657600080fd5b600073ffffffffffffffffffffffffffffffffffffffff166000809054906101000a900473ffffffffffffffffffffffffffffffffffffffff1673ffffffffffffffffffffffffffffffffffffffff167f8be0079c531659141344cd1fd0a4f28419497f9722a3daafe3b4186f6b6457e060405160405180910390a360008060006101000a81548173ffffffffffffffffffffffffffffffffffffffff021916908373ffffffffffffffffffffffffffffffffffffffff160217905550565b6122088168056bc75e2d63100000611f7c565b50565b60008060009054906101000a900473ffffffffffffffffffffffffffffffffffffffff16905090565b60008060009054906101000a900473ffffffffffffffffffffffffffffffffffffffff1673ffffffffffffffffffffffffffffffffffffffff163373ffffffffffffffffffffffffffffffffffffffff1614905090565b61229d68056bc75e2d631000006120f9565b565b68056bc75e2d6310000081565b6000806123618373ffffffffffffffffffffffffffffffffffffffff16638da5cb5b6040518163ffffffff167c0100000000000000000000000000000000000000000000000000000000028152600401602060405180830381600087803b15801561231657600080fd5b505af115801561232a573d6000803e3d6000fd5b505050506040513d602081101561234057600080fd5b810190808051906020019092919050505060016133c790919063ffffffff16565b119050919050565b6000816123808460016133c790919063ffffffff16565b1015905092915050565b6000806123a18360016133c790919063ffffffff16565b119050919050565b600581565b600073ffffffffffffffffffffffffffffffffffffffff168173ffffffffffffffffffffffffffffffffffffffff1614151515612453576040517f08c379a00000000000000000000000000000000000000000000000000000000081526004018080602001828103825260158152602001807f45525230525f494e56414c49445f41444452455353000000000000000000000081525060200191505060405180910390fd5b600073ffffffffffffffffffffffffffffffffffffffff16600660009054906101000a900473ffffffffffffffffffffffffffffffffffffffff1673ffffffffffffffffffffffffffffffffffffffff16141515612519576040517f08c379a00000000000000000000000000000000000000000000000000000000081526004018080602001828103825260198152602001807f4552524f525f414c52454144595f494e495449414c495a45440000000000000081525060200191505060405180910390fd5b80600660006101000a81548173ffffffffffffffffffffffffffffffffffffffff021916908373ffffffffffffffffffffffffffffffffffffffff1602179055503373ffffffffffffffffffffffffffffffffffffffff167f4219d9bbd44c76f9ea4acb25aa1cc25435d5b8ce03420a85bd07dce0e16c104560405160405180910390a250565b6125a8612234565b15156125b357600080fd5b6125bc81613494565b50565b600080600073ffffffffffffffffffffffffffffffffffffffff16600660009054906101000a900473ffffffffffffffffffffffffffffffffffffffff1673ffffffffffffffffffffffffffffffffffffffff1614151515612689576040517f08c379a00000000000000000000000000000000000000000000000000000000081526004018080602001828103825260158152602001807f4552524f525f4e4f545f494e495449414c495a4544000000000000000000000081525060200191505060405180910390fd5b600660009054906101000a900473ffffffffffffffffffffffffffffffffffffffff1673ffffffffffffffffffffffffffffffffffffffff163373ffffffffffffffffffffffffffffffffffffffff1614806127d05750600660009054906101000a900473ffffffffffffffffffffffffffffffffffffffff1673ffffffffffffffffffffffffffffffffffffffff16632f853d866040518163ffffffff167c0100000000000000000000000000000000000000000000000000000000028152600401602060405180830381600087803b15801561276657600080fd5b505af115801561277a573d6000803e3d6000fd5b505050506040513d602081101561279057600080fd5b810190808051906020019092919050505073ffffffffffffffffffffffffffffffffffffffff163373ffffffffffffffffffffffffffffffffffffffff16145b151561286a576040517f08c379a00000000000000000000000000000000000000000000000000000000081526004018080602001828103825260238152602001807f4552524f525f4e4f545f50414e444f52415f4f525f4a4f425f434f4e54524f4c81526020017f4c4552000000000000000000000000000000000000000000000000000000000081525060400191505060405180910390fd5b8391506000600481111561287a57fe5b83600481111561288657fe5b1415612932578173ffffffffffffffffffffffffffffffffffffffff166312c88ecd6040518163ffffffff167c0100000000000000000000000000000000000000000000000000000000028152600401602060405180830381600087803b1580156128f057600080fd5b505af1158015612904573d6000803e3d6000fd5b505050506040513d602081101561291a57600080fd5b81019080805190602001909291905050509050612c29565b6001600481111561293f57fe5b83600481111561294b57fe5b14156129f7578173ffffffffffffffffffffffffffffffffffffffff166312c88ecd6040518163ffffffff167c0100000000000000000000000000000000000000000000000000000000028152600401602060405180830381600087803b1580156129b557600080fd5b505af11580156129c9573d6000803e3d6000fd5b505050506040513d60208110156129df57600080fd5b81019080805190602001909291905050509050612c28565b60026004811115612a0457fe5b836004811115612a1057fe5b1415612a1b57612c27565b60036004811115612a2857fe5b836004811115612a3457fe5b1415612af357612aec8273ffffffffffffffffffffffffffffffffffffffff16638da5cb5b6040518163ffffffff167c0100000000000000000000000000000000000000000000000000000000028152600401602060405180830381600087803b158015612aa157600080fd5b505af1158015612ab5573d6000803e3d6000fd5b505050506040513d6020811015612acb57600080fd5b810190808051906020019092919050505060016133c790919063ffffffff16565b9050612c26565b600480811115612aff57fe5b836004811115612b0b57fe5b1415612bb7578173ffffffffffffffffffffffffffffffffffffffff166312c88ecd6040518163ffffffff167c0100000000000000000000000000000000000000000000000000000000028152600401602060405180830381600087803b158015612b7557600080fd5b505af1158015612b89573d6000803e3d6000fd5b505050506040513d6020811015612b9f57600080fd5b81019080805190602001909291905050509050612c25565b6040517f08c379a000000000000000000000000000000000000000000000000000000000815260040180806020018281038252601c8152602001807f4552524f525f554e4b4e4f574e5f50454e414c54595f524541534f4e0000000081525060200191505060405180910390fd5b5b5b5b5b6000811115612e7c57612cfd8273ffffffffffffffffffffffffffffffffffffffff16638da5cb5b6040518163ffffffff167c0100000000000000000000000000000000000000000000000000000000028152600401602060405180830381600087803b158015612c9957600080fd5b505af1158015612cad573d6000803e3d6000fd5b505050506040513d6020811015612cc357600080fd5b8101908080519060200190929190505050600660009054906101000a900473ffffffffffffffffffffffffffffffffffffffff1683612e82565b8173ffffffffffffffffffffffffffffffffffffffff166342c1b5076040518163ffffffff167c0100000000000000000000000000000000000000000000000000000000028152600401600060405180830381600087803b158015612d6157600080fd5b505af1158015612d75573d6000803e3d6000fd5b505050508173ffffffffffffffffffffffffffffffffffffffff16638da5cb5b6040518163ffffffff167c0100000000000000000000000000000000000000000000000000000000028152600401602060405180830381600087803b158015612ddd57600080fd5b505af1158015612df1573d6000803e3d6000fd5b505050506040513d6020811015612e0757600080fd5b810190808051906020019092919050505073ffffffffffffffffffffffffffffffffffffffff167f99216146260d5787939ee20dea099d39439aef1b9c2dc979f0c58ef96e3f1670848360405180836004811115612e6157fe5b60ff1681526020018281526020019250505060405180910390a25b50505050565b600073ffffffffffffffffffffffffffffffffffffffff16600660009054906101000a900473ffffffffffffffffffffffffffffffffffffffff1673ffffffffffffffffffffffffffffffffffffffff1614151515612f49576040517f08c379a00000000000000000000000000000000000000000000000000000000081526004018080602001828103825260158152602001807f4552524f525f4e4f545f494e495449414c495a4544000000000000000000000081525060200191505060405180910390fd5b600073ffffffffffffffffffffffffffffffffffffffff168273ffffffffffffffffffffffffffffffffffffffff1614151515612fee576040517f08c379a00000000000000000000000000000000000000000000000000000000081526004018080602001828103825260158152602001807f4552524f525f494e56414c49445f41444452455353000000000000000000000081525060200191505060405180910390fd5b600560009054906101000a900473ffffffffffffffffffffffffffffffffffffffff1673ffffffffffffffffffffffffffffffffffffffff1663a9059cbb83836040518363ffffffff167c0100000000000000000000000000000000000000000000000000000000028152600401808373ffffffffffffffffffffffffffffffffffffffff1673ffffffffffffffffffffffffffffffffffffffff16815260200182815260200192505050602060405180830381600087803b1580156130b357600080fd5b505af11580156130c7573d6000803e3d6000fd5b505050506040513d60208110156130dd57600080fd5b8101908080519060200190929190505050506131058382600161358e9092919063ffffffff16565b8173ffffffffffffffffffffffffffffffffffffffff168373ffffffffffffffffffffffffffffffffffffffff167fdd2ca7ed370c4a9f5d5939c47ee79d8a8af5eee18d271400df4cfd44663024ee836040518082815260200191505060405180910390a3505050565b600073ffffffffffffffffffffffffffffffffffffffff16600660009054906101000a900473ffffffffffffffffffffffffffffffffffffffff1673ffffffffffffffffffffffffffffffffffffffff1614151515613236576040517f08c379a00000000000000000000000000000000000000000000000000000000081526004018080602001828103825260158152602001807f4552524f525f4e4f545f494e495449414c495a4544000000000000000000000081525060200191505060405180910390fd5b600560009054906101000a900473ffffffffffffffffffffffffffffffffffffffff1673ffffffffffffffffffffffffffffffffffffffff166323b872dd8330846040518463ffffffff167c0100000000000000000000000000000000000000000000000000000000028152600401808473ffffffffffffffffffffffffffffffffffffffff1673ffffffffffffffffffffffffffffffffffffffff1681526020018373ffffffffffffffffffffffffffffffffffffffff1673ffffffffffffffffffffffffffffffffffffffff1681526020018281526020019350505050602060405180830381600087803b15801561332f57600080fd5b505af1158015613343573d6000803e3d6000fd5b505050506040513d602081101561335957600080fd5b8101908080519060200190929190505050506133758282613731565b8173ffffffffffffffffffffffffffffffffffffffff167f76852ef4c94d5aa389f0cc3347a4e47856bf9f9afa1569b67e7e412520581160826040518082815260200191505060405180910390a25050565b60006133d38383613841565b1515613447576040517f08c379a00000000000000000000000000000000000000000000000000000000081526004018080602001828103825260178152602001807f4552524f525f4c45444745525f4e4f545f45584953545300000000000000000081525060200191505060405180910390fd5b8260010160008373ffffffffffffffffffffffffffffffffffffffff1673ffffffffffffffffffffffffffffffffffffffff16815260200190815260200160002060010154905092915050565b600073ffffffffffffffffffffffffffffffffffffffff168173ffffffffffffffffffffffffffffffffffffffff16141515156134d057600080fd5b8073ffffffffffffffffffffffffffffffffffffffff166000809054906101000a900473ffffffffffffffffffffffffffffffffffffffff1673ffffffffffffffffffffffffffffffffffffffff167f8be0079c531659141344cd1fd0a4f28419497f9722a3daafe3b4186f6b6457e060405160405180910390a3806000806101000a81548173ffffffffffffffffffffffffffffffffffffffff021916908373ffffffffffffffffffffffffffffffffffffffff16021790555050565b6135988383613841565b151561360c576040517f08c379a00000000000000000000000000000000000000000000000000000000081526004018080602001828103825260178152602001807f4552524f525f4c45444745525f4e4f545f45584953545300000000000000000081525060200191505060405180910390fd5b8061361784846133c7565b1015151561368d576040517f08c379a00000000000000000000000000000000000000000000000000000000081526004018080602001828103825260188152602001807f4552524f525f494e53554646494349454e545f46554e4453000000000000000081525060200191505060405180910390fd5b6136e4818460010160008573ffffffffffffffffffffffffffffffffffffffff1673ffffffffffffffffffffffffffffffffffffffff1681526020019081526020016000206001015461398490919063ffffffff16565b8360010160008473ffffffffffffffffffffffffffffffffffffffff1673ffffffffffffffffffffffffffffffffffffffff16815260200190815260200160002060010181905550505050565b600073ffffffffffffffffffffffffffffffffffffffff16600660009054906101000a900473ffffffffffffffffffffffffffffffffffffffff1673ffffffffffffffffffffffffffffffffffffffff16141515156137f8576040517f08c379a00000000000000000000000000000000000000000000000000000000081526004018080602001828103825260158152602001807f4552524f525f4e4f545f494e495449414c495a4544000000000000000000000081525060200191505060405180910390fd5b61380c82600161384190919063ffffffff16565b1515613827576138268260016139a590919063ffffffff16565b5b61383d82826001613c439092919063ffffffff16565b5050565b60008073ffffffffffffffffffffffffffffffffffffffff168273ffffffffffffffffffffffffffffffffffffffff16141515156138e7576040517f08c379a00000000000000000000000000000000000000000000000000000000081526004018080602001828103825260158152602001807f4552524f525f494e56414c49445f41444452455353000000000000000000000081525060200191505060405180910390fd5b600073ffffffffffffffffffffffffffffffffffffffff168360010160008473ffffffffffffffffffffffffffffffffffffffff1673ffffffffffffffffffffffffffffffffffffffff16815260200190815260200160002060000160009054906101000a900473ffffffffffffffffffffffffffffffffffffffff1673ffffffffffffffffffffffffffffffffffffffff161415905092915050565b60008083831115151561399657600080fd5b82840390508091505092915050565b600073ffffffffffffffffffffffffffffffffffffffff168173ffffffffffffffffffffffffffffffffffffffff1614151515613a4a576040517f08c379a00000000000000000000000000000000000000000000000000000000081526004018080602001828103825260158152602001807f4552524f525f494e56414c49445f41444452455353000000000000000000000081525060200191505060405180910390fd5b613a548282613841565b151515613ac9576040517f08c379a000000000000000000000000000000000000000000000000000000000815260040180806020018281038252601b8152602001807f4552524f525f4c45444745525f414c52454144595f455849535453000000000081525060200191505060405180910390fd5b60408051908101604052808273ffffffffffffffffffffffffffffffffffffffff16815260200160008152508260010160008373ffffffffffffffffffffffffffffffffffffffff1673ffffffffffffffffffffffffffffffffffffffff16815260200190815260200160002060008201518160000160006101000a81548173ffffffffffffffffffffffffffffffffffffffff021916908373ffffffffffffffffffffffffffffffffffffffff1602179055506020820151816001015590505081600001548260020160008373ffffffffffffffffffffffffffffffffffffffff1673ffffffffffffffffffffffffffffffffffffffff16815260200190815260200160002081905550808260030160008460000154815260200190815260200160002060006101000a81548173ffffffffffffffffffffffffffffffffffffffff021916908373ffffffffffffffffffffffffffffffffffffffff160217905550600182600001600082825401925050819055505050565b613c4d8383613841565b1515613cc1576040517f08c379a00000000000000000000000000000000000000000000000000000000081526004018080602001828103825260178152602001807f4552524f525f4c45444745525f4e4f545f45584953545300000000000000000081525060200191505060405180910390fd5b60018110151515613d3a576040517f08c379a000000000000000000000000000000000000000000000000000000000815260040180806020018281038252601b8152602001807f4552524f525f494e56414c49445f544f4b454e535f414d4f554e54000000000081525060200191505060405180910390fd5b613d91818460010160008573ffffffffffffffffffffffffffffffffffffffff1673ffffffffffffffffffffffffffffffffffffffff16815260200190815260200160002060010154613dde90919063ffffffff16565b8360010160008473ffffffffffffffffffffffffffffffffffffffff1673ffffffffffffffffffffffffffffffffffffffff16815260200190815260200160002060010181905550505050565b6000808284019050838110151515613df557600080fd5b80915050929150505600a165627a7a723058203b111b3394e34781a990261cc19ec5369e7527dac08e3d871de73adda288eb790029",
  "source": "pragma solidity 0.4.24;\n\nimport \"openzeppelin-solidity/contracts/ownership/Ownable.sol\";\nimport \"../token/Pan.sol\";\nimport \"./IEconomicController.sol\";\nimport \"./ICognitiveJobController.sol\";\nimport \"../Pandora.sol\";\nimport \"../../libraries/LedgersLib.sol\";\nimport \"../../nodes/IWorkerNode.sol\";\nimport \"../../entities/IDataset.sol\";\nimport \"../../entities/IKernel.sol\";\n\n/**\n * @title Economic Controller for Pandora\n * @author \"Kostiantyn Smyrnov\" <kostysh@gmail.com>\n *\n * @dev Economic Controller Smart Contract implementing economic across of Pandora Smart Contract\n */\ncontract EconomicController is IEconomicController, Ownable {\n\n    // Ledgers storage management library\n    using LedgersLib for LedgersLib.LedgersStorage;\n\n    /**\n     * @dev Internal ledgers storage    \n     * for storing of blocked tokens\n     */\n    LedgersLib.LedgersStorage internal ledgers;\n    \n    // Link to the Pan Token contract\n    Pan internal panToken;\n    \n    // Link to the Pandora contract\n    Pandora internal pandora;\n\n    // Storage of already processed jobs\n    mapping (bytes32 => bool) rewardedJobs;\n\n    /**\n     * @dev onlyInitiazed modifier prevents execution of functions if controller not been initialized\n     */\n    modifier onlyInitiazed() {\n        require(address(pandora) != address(0), \"ERROR_NOT_INITIALIZED\");\n        _;\n    }\n\n    /**\n     * @dev onlyPandora modifier prevents execution of function if sender is not a Pandora contract\n     */\n    modifier onlyPandora() {\n        require(msg.sender == address(pandora), \"ERROR_NOT_PANDORA\");\n        _;\n    }\n\n    /**\n     * @dev onlyPandora modifier prevents execution of function if sender is not a Pandora \n     * or JobController contract\n     */\n    modifier onlyPandoraOrJobController() {\n        require(msg.sender == address(pandora) || msg.sender == address(pandora.jobController()), \"ERROR_NOT_PANDORA_OR_JOB_CONTROLLER\");\n        _;\n    }\n\n    /**\n     * @dev EconomicController costructor\n     * @param _panToken Pan contract instance\n     */\n    constructor (Pan _panToken) public {\n        panToken = _panToken;// @todo Move panToken initialization to the initialize function\n    }\n\n    /**\n     * @dev Economic controller initialization\n     * @param _pandora Pandora contract instance\n     */\n    function initialize(Pandora _pandora) public {\n        require(_pandora != address(0), \"ERR0R_INVALID_ADDRESS\");\n        require(pandora == address(0), \"ERROR_ALREADY_INITIALIZED\");\n        pandora = _pandora;\n        emit EconomicInitialized(msg.sender);\n    }\n\n    /**\n     * @dev Block tokens of worker node owner\n     */\n    function blockWorkerNodeStake() external {\n        blockTokens(minimumWorkerNodeStake);\n    }\n\n    /**\n     * @dev Block tokens of specific worker node owner\n     * @param from Address of the worker node owner\n     */\n    function blockWorkerNodeStakeFrom(address from) external {\n        blockTokensFrom(from, minimumWorkerNodeStake);\n    }\n\n    /**\n     * @dev Determine if given address has tokens (blocked) on the intrenal ledger\n     * @param addr Address od account\n     */\n    function hasAvailableFunds(address addr) external view returns (bool) {\n        return ledgers.balanceOf(addr) > 0;\n    }\n\n    /**\n     * @dev Determine if given address has enough blocked funds\n     * @param addr Address of account\n     * @param funds Amount of tokens\n     */\n    function hasEnoughFunds(address addr, uint256 funds) external view returns (bool) {\n        return ledgers.balanceOf(addr) >= funds;\n    }\n\n    /**\n     * @dev Determine if specific worker has positive blocked funds balance\n     * @param workerNodeAddr Address of the worker node\n     */\n    function positiveWorkerNodeStake(address workerNodeAddr) external view returns (bool) {\n        return ledgers.balanceOf(address(IWorkerNode(workerNodeAddr).owner())) > 0;\n    }\n\n    /**\n     * @dev Get blocked funds balance for the specific address\n     * @param addr Address of the balance owner\n     */\n    function balanceOf(address addr) external view returns (uint256) {\n        return ledgers.balanceOf(addr);\n    }\n\n    /**\n     * @dev Apply penalty for worker node\n     * @param workerNodeAddr Worker node address\n     * @param reason Penalty reason\n     */\n    function applyPenalty(\n        address workerNodeAddr,\n        IWorkerNode.Penalties reason\n    ) external onlyInitiazed onlyPandoraOrJobController {        \n        IWorkerNode workerNode = IWorkerNode(workerNodeAddr);\n        uint256 penaltyValue;\n\n        if (reason == IWorkerNode.Penalties.OfflineWhileGathering) {\n            penaltyValue = workerNode.computingPrice();\n        } else if (reason == IWorkerNode.Penalties.DeclinesJob) {\n            penaltyValue = workerNode.computingPrice();\n        } else if (reason == IWorkerNode.Penalties.OfflineWhileDataValidation) {\n            // ??? not implemented yet\n        } else if (reason == IWorkerNode.Penalties.FalseReportInvalidData) {\n            penaltyValue = ledgers.balanceOf(workerNode.owner());// expropriate a whole worker node stake\n        } else if (reason == IWorkerNode.Penalties.OfflineWhileCognition) {\n           penaltyValue = workerNode.computingPrice(); \n        } else {\n            revert(\"ERROR_UNKNOWN_PENALTY_REASON\");\n        }\n\n        if (penaltyValue > 0) {\n            _unblock(workerNode.owner(), address(pandora), penaltyValue);\n            workerNode.penalized();// Move worker node to the UnderPenalty state\n            emit PenaltyApplied(workerNode.owner(), reason, penaltyValue);\n        }        \n    }\n\n    /**\n     * @dev Make rewards for all parties of the job\n     * @param _jobId Job Id\n     */\n    function makeRewards(bytes32 _jobId) external onlyInitiazed onlyPandoraOrJobController {\n        // get job \n        (address owner, address kernel, address dataset, , , address[] memory activeWorkers, , uint8 state) = (pandora.jobController()).getCognitiveJobDetails(_jobId);\n\n        require(!rewardedJobs[_jobId], \"ERROR_JOB_ALREADY_REWARDED\");\n        require(state == uint8(ICognitiveJobController.States.Completed), \"ERROR_WRONG_JOB_STATE_FOR_REWARDS\");\n\n        // save link to prevent double rewards\n        rewardedJobs[_jobId] = true;\n        \n        // get maximum worker price\n        uint256 maximumWorkerPrice = pandora.getMaximumWorkerPrice();\n\n        // get dataset and kernel price\n        uint256 datasetPrice = IDataset(dataset).currentPrice();\n        uint256 kernelPrice = IKernel(kernel).currentPrice();\n\n        // transfer datasetOwner reward\n        _unblock(owner, IDataset(dataset).owner(), datasetPrice - (datasetPrice / 100 * systemCommission));\n        emit RewardTransferred(_jobId, IDataset(dataset).owner(), datasetPrice - (datasetPrice / 100 * systemCommission));\n\n        // system commission from dataset\n        _unblock(owner, address(pandora), datasetPrice / 100 * systemCommission);\n        emit RewardTransferred(_jobId, address(pandora), datasetPrice / 100 * systemCommission);\n\n        // transfer kernelOwner reward\n        _unblock(owner, IKernel(kernel).owner(), kernelPrice - (kernelPrice / 100 * systemCommission));\n        emit RewardTransferred(_jobId, IKernel(kernel).owner(), kernelPrice - (kernelPrice / 100 * systemCommission));\n\n        // system commission from kernel\n        _unblock(owner, address(pandora), kernelPrice / 100 * systemCommission);\n        emit RewardTransferred(_jobId, address(pandora), kernelPrice / 100 * systemCommission);\n\n        uint256 workerPrice;\n        uint256 priceDelta;\n        uint256 workersDeltaTotal = 0;// accumulator for delta of maximumWorkerPrice and actual workerPrice \n\n        // transfer rewards to workers\n        for (uint256 i = 0; i < activeWorkers.length; i++) {\n\n            priceDelta = 0;\n            workerPrice = IWorkerNode(activeWorkers[i]).computingPrice();\n            \n            if (workerPrice < maximumWorkerPrice) {\n\n                priceDelta = maximumWorkerPrice - workerPrice;\n                workersDeltaTotal += priceDelta;\n                \n                // Reward to the the worker node on base of the actual worker computing price\n                _unblock(owner, IWorkerNode(activeWorkers[i]).owner(), workerPrice - (workerPrice / 100 * systemCommission));\n                emit RewardTransferred(_jobId, IWorkerNode(activeWorkers[i]).owner(), workerPrice - (workerPrice / 100 * systemCommission));\n\n                // System commission from the workers original price\n                _unblock(owner, address(pandora), workerPrice / 100 * systemCommission);\n                emit RewardTransferred(_jobId, address(pandora), workerPrice / 100 * systemCommission);\n\n                // Mine missing tokens in count of delta of maximumWorkerPrice and actual workerPrice\n                // Mined tokens immidiately transffered as reward to the worker node\n                panToken.mint(IWorkerNode(activeWorkers[i]).owner(), priceDelta - (priceDelta / 100 * systemCommission));\n                emit TokensMined(_jobId, priceDelta - (priceDelta / 100 * systemCommission));\n                emit RewardTransferred(_jobId, IWorkerNode(activeWorkers[i]).owner(), priceDelta - (priceDelta / 100 * systemCommission));\n                \n                // System commission from the workers mined part\n                // Mined tokens immidiately transffered as reward to the system owner (Pandora contract)\n                panToken.mint(address(pandora), priceDelta / 100 * systemCommission);\n                emit RewardTransferred(_jobId, address(pandora), priceDelta / 100 * systemCommission);\n            } else {\n                // Reward to the the worker node on base of the maximumWorkerPrice\n                _unblock(owner, IWorkerNode(activeWorkers[i]).owner(), maximumWorkerPrice - (maximumWorkerPrice / 100 * systemCommission));\n                emit RewardTransferred(_jobId, IWorkerNode(activeWorkers[i]).owner(), maximumWorkerPrice - (maximumWorkerPrice / 100 * systemCommission));\n\n                // system commission from worker\n                _unblock(owner, address(pandora), maximumWorkerPrice / 100 * systemCommission);\n                emit RewardTransferred(_jobId, address(pandora), maximumWorkerPrice / 100 * systemCommission);\n            }\n        }\n\n        if (workersDeltaTotal > 0) {\n            // Refund workers price delta to the job owner\n            _unblock(owner, owner, workersDeltaTotal);\n            emit RefundedDelta(_jobId, owner, workersDeltaTotal);\n        }\n    }\n\n    /**\n     * @dev Block tokens from the sender in amount of \"value\"\n     * @param value Amount of tokens to be blocked\n     * @notice Amount of tokens should be aproved (pan.approve function) by sender before executing of this function\n     */\n    function blockTokens(uint256 value) public {\n        blockTokensFrom(msg.sender, value);\n    }\n\n    /**\n     * @dev Block tokens from the specific address in amount of \"value\"\n     * @param from Address of tokens owner\n     * @param value Amount of tokens to be blocked\n     */\n    function blockTokensFrom(address from, uint256 value) public {\n        require(panToken.balanceOf(from) >= value, \"ERROR_INSUFFICIENT_TOKENS\");\n        _block(from, value);\n    }\n\n    /**\n     * @dev Unblock previously blocked tokens from one address and transfer them to another\n     * @param from Source address\n     * @param to Destination address\n     * @param value Amount of tokens to unblock\n     * @notice unblockTokens function can be called only by Pandora contract\n     */\n    function unblockTokens(\n        address from, \n        address to,\n        uint256 value\n    ) public onlyPandora {\n        _unblock(from, to, value);\n    }\n\n    /**\n     * @dev Add (blocked) funds to the address\n     * @param addr Destination address\n     * @param value Amount of tokens to add\n     */\n    function _add(\n        address addr, \n        uint256 value\n    ) private onlyInitiazed {\n\n        if (!ledgers.isLedgerExists(addr)) {\n            ledgers.put(addr);\n        }\n        \n        ledgers.add(addr, value);\n    }\n\n    /**\n     * @dev Block tokens from the address and add funds to the ledger\n     * @param from Source address\n     * @param value Amount of tokens to block\n     */\n    function _block(\n        address from,\n        uint256 value\n    ) private onlyInitiazed {\n        panToken.transferFrom(from, address(this), value);\n        _add(from, value);\n        emit BlockedTokens(from, value);\n    }\n\n    /**\n     * @dev Unblock tokens from the address and transfer them to the destination address\n     * @param from Source address\n     * @param to Destination address\n     * @param value Amount of tokens to unblock\n     */\n    function _unblock(\n        address from, \n        address to,\n        uint256 value\n    ) private onlyInitiazed {\n        require(to != address(0), \"ERROR_INVALID_ADDRESS\");\n        panToken.transfer(to, value);\n        ledgers.sub(from, value);\n        emit UnblockedTokens(from, to, value);\n    }\n}\n",
  "sourcePath": "/home/kostysh/dev/pyrrha-consensus/contracts/pandora/managers/EconomicController.sol",
  "compiler": {
    "name": "solc",
    "version": "0.4.24+commit.e67f0147.Emscripten.clang"
  },
  "schemaVersion": "2.0.1",
  "updatedAt": "2019-01-10T21:31:35.479Z"
}