{
  "contractName": "FeatureInitializable",
  "abi": [
    {
      "anonymous": false,
      "inputs": [
        {
          "indexed": true,
          "name": "feature",
          "type": "bytes32"
        },
        {
          "indexed": true,
          "name": "initializer",
          "type": "address"
        }
      ],
      "name": "FeatureInitialized",
      "type": "event"
    },
    {
      "constant": true,
      "inputs": [
        {
          "name": "feature",
          "type": "bytes32"
        }
      ],
      "name": "isFeatureInitialized",
      "outputs": [
        {
          "name": "",
          "type": "bool"
        }
      ],
      "payable": false,
      "stateMutability": "view",
      "type": "function"
    }
  ],
  "bytecode": "0x608060405234801561001057600080fd5b5060e78061001f6000396000f300608060405260043610603f576000357c0100000000000000000000000000000000000000000000000000000000900463ffffffff1680631bb0eb78146044575b600080fd5b348015604f57600080fd5b5060706004803603810190808035600019169060200190929190505050608a565b604051808215151515815260200191505060405180910390f35b6000806000836000191660001916815260200190815260200160002060009054906101000a900460ff1690509190505600a165627a7a7230582067021519f3698cbe2bb9bffde1a83fa3daed05f6ff7f03d13c2d3466823d44000029",
  "source": "pragma solidity ^0.4.24;\n\n\n/**\n * @title FeatureInitializable\n * @dev The FeatureInitializable contract provides initialization control for separate features\n */\ncontract FeatureInitializable {\n\n    mapping(bytes32 => bool) initialized;// feature key => isInitialized\n\n    /**\n     * @dev This event will be emitted if feature is set initialized\n     * @param initializer Feature initializer\n     */\n    event FeatureInitialized(bytes32 indexed feature, address indexed initializer);\n\n    /**\n     * @dev Throws if called not initialized contract\n     * @param feature Feature name\n     */\n    modifier onlyInitializedFeature(bytes32 feature) {\n        require(isFeatureInitialized(feature), \"ERROR_FEATURE_NOT_INITIALIZED\");\n        _;\n    }\n\n    /**\n     * @dev Throws if called already initialized contract\n     * @param feature Feature name\n     */\n    modifier notInitializedFeature(bytes32 feature) {\n        require(!isFeatureInitialized(feature), \"ERROR_FEATURE_ALREADY_INITIALIZED\");\n        _;\n    }\n\n    /**\n     * @dev Returns is the contract is initialized\n     * @param feature Feature name\n     * @return bool value of initialized state\n     */\n    function isFeatureInitialized(bytes32 feature) public view returns(bool) {\n        return initialized[feature];\n    }\n\n    /**\n     * @dev Set the feature as initialized and emit a proper event\n     * @param feature Feature name\n     */\n    function _setFeatureInitialized(bytes32 feature) internal {\n        require(!isFeatureInitialized(feature), \"ERROR_ALREADY_INITIALIZED\");\n        initialized[feature] = true;\n        emit FeatureInitialized(feature, msg.sender);\n    }\n}\n",
  "sourcePath": "/home/kostysh/dev/pyrrha-consensus/contracts/lifecycle/FeatureInitializable.sol",
  "compiler": {
    "name": "solc",
    "version": "0.4.24+commit.e67f0147.Emscripten.clang"
  },
  "schemaVersion": "2.0.1",
  "updatedAt": "2019-01-24T12:53:32.765Z"
}