{
  "contractName": "IEconomicController",
  "abi": [
    {
      "constant": true,
      "inputs": [],
      "name": "minimumWorkerNodeStake",
      "outputs": [
        {
          "name": "",
          "type": "uint256"
        }
      ],
      "payable": false,
      "stateMutability": "view",
      "type": "function"
    },
    {
      "constant": true,
      "inputs": [],
      "name": "systemCommission",
      "outputs": [
        {
          "name": "",
          "type": "uint256"
        }
      ],
      "payable": false,
      "stateMutability": "view",
      "type": "function"
    },
    {
      "anonymous": false,
      "inputs": [
        {
          "indexed": true,
          "name": "initializer",
          "type": "address"
        }
      ],
      "name": "EconomicInitialized",
      "type": "event"
    },
    {
      "anonymous": false,
      "inputs": [
        {
          "indexed": true,
          "name": "owner",
          "type": "address"
        },
        {
          "indexed": false,
          "name": "value",
          "type": "uint256"
        }
      ],
      "name": "BlockedTokens",
      "type": "event"
    },
    {
      "anonymous": false,
      "inputs": [
        {
          "indexed": true,
          "name": "from",
          "type": "address"
        },
        {
          "indexed": true,
          "name": "to",
          "type": "address"
        },
        {
          "indexed": false,
          "name": "value",
          "type": "uint256"
        }
      ],
      "name": "UnblockedTokens",
      "type": "event"
    },
    {
      "anonymous": false,
      "inputs": [
        {
          "indexed": true,
          "name": "owner",
          "type": "address"
        },
        {
          "indexed": false,
          "name": "reason",
          "type": "uint8"
        },
        {
          "indexed": false,
          "name": "value",
          "type": "uint256"
        }
      ],
      "name": "PenaltyApplied",
      "type": "event"
    },
    {
      "anonymous": false,
      "inputs": [
        {
          "indexed": true,
          "name": "jobId",
          "type": "bytes32"
        },
        {
          "indexed": false,
          "name": "value",
          "type": "uint256"
        }
      ],
      "name": "TokensMined",
      "type": "event"
    },
    {
      "anonymous": false,
      "inputs": [
        {
          "indexed": true,
          "name": "jobId",
          "type": "bytes32"
        },
        {
          "indexed": true,
          "name": "to",
          "type": "address"
        },
        {
          "indexed": false,
          "name": "value",
          "type": "uint256"
        }
      ],
      "name": "RewardTransferred",
      "type": "event"
    },
    {
      "anonymous": false,
      "inputs": [
        {
          "indexed": true,
          "name": "jobId",
          "type": "bytes32"
        },
        {
          "indexed": true,
          "name": "to",
          "type": "address"
        },
        {
          "indexed": false,
          "name": "value",
          "type": "uint256"
        }
      ],
      "name": "RefundedDelta",
      "type": "event"
    },
    {
      "constant": false,
      "inputs": [],
      "name": "blockWorkerNodeStake",
      "outputs": [],
      "payable": false,
      "stateMutability": "nonpayable",
      "type": "function"
    },
    {
      "constant": false,
      "inputs": [
        {
          "name": "from",
          "type": "address"
        }
      ],
      "name": "blockWorkerNodeStakeFrom",
      "outputs": [],
      "payable": false,
      "stateMutability": "nonpayable",
      "type": "function"
    },
    {
      "constant": true,
      "inputs": [
        {
          "name": "addr",
          "type": "address"
        }
      ],
      "name": "hasAvailableFunds",
      "outputs": [
        {
          "name": "",
          "type": "bool"
        }
      ],
      "payable": false,
      "stateMutability": "view",
      "type": "function"
    },
    {
      "constant": true,
      "inputs": [
        {
          "name": "addr",
          "type": "address"
        },
        {
          "name": "funds",
          "type": "uint256"
        }
      ],
      "name": "hasEnoughFunds",
      "outputs": [
        {
          "name": "",
          "type": "bool"
        }
      ],
      "payable": false,
      "stateMutability": "view",
      "type": "function"
    },
    {
      "constant": true,
      "inputs": [
        {
          "name": "workerNodeAddr",
          "type": "address"
        }
      ],
      "name": "positiveWorkerNodeStake",
      "outputs": [
        {
          "name": "",
          "type": "bool"
        }
      ],
      "payable": false,
      "stateMutability": "view",
      "type": "function"
    },
    {
      "constant": false,
      "inputs": [
        {
          "name": "workerNodeAddr",
          "type": "address"
        },
        {
          "name": "reason",
          "type": "uint8"
        }
      ],
      "name": "applyPenalty",
      "outputs": [],
      "payable": false,
      "stateMutability": "nonpayable",
      "type": "function"
    },
    {
      "constant": true,
      "inputs": [
        {
          "name": "addr",
          "type": "address"
        }
      ],
      "name": "balanceOf",
      "outputs": [
        {
          "name": "",
          "type": "uint256"
        }
      ],
      "payable": false,
      "stateMutability": "view",
      "type": "function"
    },
    {
      "constant": false,
      "inputs": [
        {
          "name": "_jobId",
          "type": "bytes32"
        }
      ],
      "name": "makeRewards",
      "outputs": [],
      "payable": false,
      "stateMutability": "nonpayable",
      "type": "function"
    },
    {
      "constant": false,
      "inputs": [
        {
          "name": "value",
          "type": "uint256"
        }
      ],
      "name": "blockTokens",
      "outputs": [],
      "payable": false,
      "stateMutability": "nonpayable",
      "type": "function"
    },
    {
      "constant": false,
      "inputs": [
        {
          "name": "from",
          "type": "address"
        },
        {
          "name": "value",
          "type": "uint256"
        }
      ],
      "name": "blockTokensFrom",
      "outputs": [],
      "payable": false,
      "stateMutability": "nonpayable",
      "type": "function"
    },
    {
      "constant": false,
      "inputs": [
        {
          "name": "from",
          "type": "address"
        },
        {
          "name": "to",
          "type": "address"
        },
        {
          "name": "value",
          "type": "uint256"
        }
      ],
      "name": "unblockTokens",
      "outputs": [],
      "payable": false,
      "stateMutability": "nonpayable",
      "type": "function"
    }
  ],
  "bytecode": "0x608060405234801561001057600080fd5b506104c7806100206000396000f3006080604052600436106100c5576000357c0100000000000000000000000000000000000000000000000000000000900463ffffffff1680632e63178b146100ca57806347b27b8b146100fb57806350bb343a1461016857806364db26b8146101b557806370a08231146101e2578063823043a41461023957806395eeab131461027c5780639e62585914610293578063a27ef1bc146102be578063b05b89a114610319578063bb9f765f1461037e578063c49f597b146103d9578063f417e7c914610404575b600080fd5b3480156100d657600080fd5b506100f96004803603810190808035600019169060200190929190505050610454565b005b34801561010757600080fd5b50610166600480360381019080803573ffffffffffffffffffffffffffffffffffffffff169060200190929190803573ffffffffffffffffffffffffffffffffffffffff16906020019092919080359060200190929190505050610457565b005b34801561017457600080fd5b506101b3600480360381019080803573ffffffffffffffffffffffffffffffffffffffff1690602001909291908035906020019092919050505061045c565b005b3480156101c157600080fd5b506101e060048036038101908080359060200190929190505050610460565b005b3480156101ee57600080fd5b50610223600480360381019080803573ffffffffffffffffffffffffffffffffffffffff169060200190929190505050610463565b6040518082815260200191505060405180910390f35b34801561024557600080fd5b5061027a600480360381019080803573ffffffffffffffffffffffffffffffffffffffff16906020019092919050505061046a565b005b34801561028857600080fd5b5061029161046d565b005b34801561029f57600080fd5b506102a861046f565b6040518082815260200191505060405180910390f35b3480156102ca57600080fd5b506102ff600480360381019080803573ffffffffffffffffffffffffffffffffffffffff16906020019092919050505061047c565b604051808215151515815260200191505060405180910390f35b34801561032557600080fd5b50610364600480360381019080803573ffffffffffffffffffffffffffffffffffffffff16906020019092919080359060200190929190505050610483565b604051808215151515815260200191505060405180910390f35b34801561038a57600080fd5b506103bf600480360381019080803573ffffffffffffffffffffffffffffffffffffffff16906020019092919050505061048b565b604051808215151515815260200191505060405180910390f35b3480156103e557600080fd5b506103ee610492565b6040518082815260200191505060405180910390f35b34801561041057600080fd5b50610452600480360381019080803573ffffffffffffffffffffffffffffffffffffffff169060200190929190803560ff169060200190929190505050610497565b005b50565b505050565b5050565b50565b6000919050565b50565b565b68056bc75e2d6310000081565b6000919050565b600092915050565b6000919050565b600581565b50505600a165627a7a72305820913a1f2a19c90fe56c50b868b67baa6d636cb4e33e65779b5dfa8509411f4b450029",
  "source": "pragma solidity ^0.4.24;\n\nimport \"../../nodes/IWorkerNode.sol\";\n\n\ncontract IEconomicController {\n\n    uint256 public constant systemCommission = 5;// value in percents\n    uint256 public constant minimumWorkerNodeStake = 100 * 1000000000000000000;// 100 PAN\n\n    /**\n     * @dev This event will be emitted when controller is initialized\n     * @param initializer Initializer address\n     */\n    event EconomicInitialized(\n        address indexed initializer\n    );\n\n    /**\n     * @dev This event will be emitted every time tokens are blocked\n     * @param owner Tokens owner address\n     * @param value Tokens value\n     */\n    event BlockedTokens(\n        address indexed owner, \n        uint256 value\n    );\n\n    /**\n     * @dev This event will be emitted every time tokens are unblocked and transfered to address\n     * @param from Blocked funds owner address\n     * @param to Destination address\n     * @param value Tokens value\n     */\n    event UnblockedTokens(\n        address indexed from,\n        address indexed to,\n        uint256 value\n    );\n\n    /**\n     * @dev This event will be emitted every time a penalty been applied to the stake owner\n     * @param owner Stake owner address\n     * @param value Penalty value\n     */\n    event PenaltyApplied(\n        address indexed owner,\n        IWorkerNode.Penalties reason,\n        uint256 value\n    );\n\n    event TokensMined(\n        bytes32 indexed jobId,\n        uint256 value\n    );\n\n    event RewardTransferred(\n        bytes32 indexed jobId,\n        address indexed to,\n        uint256 value\n    );\n\n    event RefundedDelta(\n        bytes32 indexed jobId,\n        address indexed to,\n        uint256 value\n    );\n\n    function blockWorkerNodeStake() external {}// block tokens from sender with worker node stake amount control\n    function blockWorkerNodeStakeFrom(address from) external {}\n    function hasAvailableFunds(address addr) external view returns (bool) {}\n    function hasEnoughFunds(address addr, uint256 funds) external view returns (bool) {}\n    function positiveWorkerNodeStake(address workerNodeAddr) external view returns (bool) {}\n    function applyPenalty(address workerNodeAddr, IWorkerNode.Penalties reason) external {}\n    function balanceOf(address addr) external view returns (uint256) {}\n    function makeRewards(bytes32 _jobId) external {}\n\n    function blockTokens(uint256 value) public {}// block tokens from sender\n    function blockTokensFrom(address from, uint256 value) public {}\n    function unblockTokens(address from, address to, uint256 value) public {}\n\n    function _add(address addr, uint256 value) private {}\n    function _sub(address from, uint256 value) private {}\n    function _block(address from, uint256 value) private {}\n}\n",
  "sourcePath": "/home/kostysh/dev/pyrrha-consensus/contracts/pandora/managers/IEconomicController.sol",
  "compiler": {
    "name": "solc",
    "version": "0.4.24+commit.e67f0147.Emscripten.clang"
  },
  "schemaVersion": "2.0.1",
  "updatedAt": "2019-01-11T15:27:33.232Z"
}