{
  "contractName": "IEconomicController",
  "abi": [
    {
      "constant": true,
      "inputs": [],
      "name": "minimumWorkerNodeStake",
      "outputs": [
        {
          "name": "",
          "type": "uint256"
        }
      ],
      "payable": false,
      "stateMutability": "view",
      "type": "function"
    },
    {
      "anonymous": false,
      "inputs": [
        {
          "indexed": true,
          "name": "owner",
          "type": "address"
        },
        {
          "indexed": true,
          "name": "value",
          "type": "uint256"
        }
      ],
      "name": "BlockedTokens",
      "type": "event"
    },
    {
      "anonymous": false,
      "inputs": [
        {
          "indexed": true,
          "name": "from",
          "type": "address"
        },
        {
          "indexed": true,
          "name": "to",
          "type": "address"
        },
        {
          "indexed": false,
          "name": "value",
          "type": "uint256"
        }
      ],
      "name": "UnblockedTokens",
      "type": "event"
    },
    {
      "anonymous": false,
      "inputs": [
        {
          "indexed": false,
          "name": "reason",
          "type": "uint8"
        },
        {
          "indexed": true,
          "name": "owner",
          "type": "address"
        },
        {
          "indexed": false,
          "name": "value",
          "type": "uint256"
        }
      ],
      "name": "PenaltyApplied",
      "type": "event"
    },
    {
      "constant": false,
      "inputs": [],
      "name": "blockWorkerNodeStake",
      "outputs": [],
      "payable": false,
      "stateMutability": "nonpayable",
      "type": "function"
    },
    {
      "constant": true,
      "inputs": [
        {
          "name": "addr",
          "type": "address"
        }
      ],
      "name": "hasAvailableFunds",
      "outputs": [
        {
          "name": "",
          "type": "bool"
        }
      ],
      "payable": false,
      "stateMutability": "view",
      "type": "function"
    },
    {
      "constant": true,
      "inputs": [
        {
          "name": "addr",
          "type": "address"
        },
        {
          "name": "funds",
          "type": "uint256"
        }
      ],
      "name": "hasEnoughFunds",
      "outputs": [
        {
          "name": "",
          "type": "bool"
        }
      ],
      "payable": false,
      "stateMutability": "view",
      "type": "function"
    },
    {
      "constant": true,
      "inputs": [
        {
          "name": "workerNodeAddr",
          "type": "address"
        }
      ],
      "name": "positiveWorkerNodeStake",
      "outputs": [
        {
          "name": "",
          "type": "bool"
        }
      ],
      "payable": false,
      "stateMutability": "view",
      "type": "function"
    },
    {
      "constant": false,
      "inputs": [
        {
          "name": "from",
          "type": "address"
        },
        {
          "name": "to",
          "type": "address"
        },
        {
          "name": "value",
          "type": "uint256"
        }
      ],
      "name": "unblockTokens",
      "outputs": [],
      "payable": false,
      "stateMutability": "nonpayable",
      "type": "function"
    },
    {
      "constant": false,
      "inputs": [
        {
          "name": "reason",
          "type": "uint8"
        },
        {
          "name": "owner",
          "type": "address"
        }
      ],
      "name": "applyPenalty",
      "outputs": [],
      "payable": false,
      "stateMutability": "nonpayable",
      "type": "function"
    },
    {
      "constant": true,
      "inputs": [
        {
          "name": "addr",
          "type": "address"
        }
      ],
      "name": "balanceOf",
      "outputs": [
        {
          "name": "",
          "type": "uint256"
        }
      ],
      "payable": false,
      "stateMutability": "view",
      "type": "function"
    },
    {
      "constant": false,
      "inputs": [
        {
          "name": "value",
          "type": "uint256"
        }
      ],
      "name": "blockTokens",
      "outputs": [],
      "payable": false,
      "stateMutability": "nonpayable",
      "type": "function"
    }
  ],
  "bytecode": "0x608060405234801561001057600080fd5b506103a0806100206000396000f300608060405260043610610099576000357c0100000000000000000000000000000000000000000000000000000000900463ffffffff16806347b27b8b1461009e57806364db26b81461010b57806370a0823114610138578063913e4db41461018f57806395eeab13146101df5780639e625859146101f6578063a27ef1bc14610221578063b05b89a11461027c578063bb9f765f146102e1575b600080fd5b3480156100aa57600080fd5b50610109600480360381019080803573ffffffffffffffffffffffffffffffffffffffff169060200190929190803573ffffffffffffffffffffffffffffffffffffffff1690602001909291908035906020019092919050505061033c565b005b34801561011757600080fd5b5061013660048036038101908080359060200190929190505050610341565b005b34801561014457600080fd5b50610179600480360381019080803573ffffffffffffffffffffffffffffffffffffffff169060200190929190505050610344565b6040518082815260200191505060405180910390f35b34801561019b57600080fd5b506101dd600480360381019080803560ff169060200190929190803573ffffffffffffffffffffffffffffffffffffffff16906020019092919050505061034b565b005b3480156101eb57600080fd5b506101f461034f565b005b34801561020257600080fd5b5061020b610351565b6040518082815260200191505060405180910390f35b34801561022d57600080fd5b50610262600480360381019080803573ffffffffffffffffffffffffffffffffffffffff16906020019092919050505061035e565b604051808215151515815260200191505060405180910390f35b34801561028857600080fd5b506102c7600480360381019080803573ffffffffffffffffffffffffffffffffffffffff16906020019092919080359060200190929190505050610365565b604051808215151515815260200191505060405180910390f35b3480156102ed57600080fd5b50610322600480360381019080803573ffffffffffffffffffffffffffffffffffffffff16906020019092919050505061036d565b604051808215151515815260200191505060405180910390f35b505050565b50565b6000919050565b5050565b565b68056bc75e2d6310000081565b6000919050565b600092915050565b60009190505600a165627a7a72305820a939d2461314c50e0a841ca69de49e1aba1a04c53237d0dae91f8cc369c02d190029",
  "source": "pragma solidity 0.4.24;\n\nimport \"../../nodes/IWorkerNode.sol\";\n\n\ncontract IEconomicController {\n\n    uint256 public constant minimumWorkerNodeStake = 100 * 1000000000000000000;// 100 PAN\n\n    /**\n     * @dev This event will be emitted every time tokens are blocked\n     * @param owner Tokens owner address\n     * @param value Tokens value\n     */\n    event BlockedTokens(\n        address indexed owner, \n        uint256 indexed value\n    );\n\n    /**\n     * @dev This event will be emitted every time tokens are unblocked and transfered to address\n     * @param from Blocked funds owner address\n     * @param to Destination address\n     * @param value Tokens value\n     */\n    event UnblockedTokens(\n        address indexed from,\n        address indexed to,\n        uint256 value\n    );\n\n    /**\n     * @dev This event will be emitted every time a penalty been applied to the stake owner\n     * @param owner Stake owner address\n     * @param value Penalty value\n     */\n    event PenaltyApplied(\n        IWorkerNode.Penalties reason,\n        address indexed owner,\n        uint256 value\n    );\n\n    function blockWorkerNodeStake() external {}// block tokens from sender with worker node stake amount control\n    function hasAvailableFunds(address addr) external view returns (bool) {}\n    function hasEnoughFunds(address addr, uint256 funds) external view returns (bool) {}\n    function positiveWorkerNodeStake(address workerNodeAddr) external view returns (bool) {}\n    function unblockTokens(address from, address to, uint256 value) external {}\n    function applyPenalty(IWorkerNode.Penalties reason, address owner) external {}\n    function balanceOf(address addr) external view returns (uint256) {}\n\n    function blockTokens(uint256 value) public {}// block tokens from sender\n\n    function _add(address addr, uint256 value) private {}\n    function _sub(address from, uint256 value) private {}\n    function _block(address from, uint256 value) private {}\n}\n",
  "sourcePath": "/home/kostysh/dev/pyrrha-consensus/contracts/pandora/managers/IEconomicController.sol",
  "compiler": {
    "name": "solc",
    "version": "0.4.24+commit.e67f0147.Emscripten.clang"
  },
  "schemaVersion": "2.0.1",
  "updatedAt": "2018-12-27T18:52:29.481Z"
}