{
  "contractName": "Initializable",
  "abi": [
    {
      "constant": true,
      "inputs": [],
      "name": "initialized",
      "outputs": [
        {
          "name": "",
          "type": "bool"
        }
      ],
      "payable": false,
      "stateMutability": "view",
      "type": "function"
    },
    {
      "inputs": [],
      "payable": false,
      "stateMutability": "nonpayable",
      "type": "constructor"
    },
    {
      "constant": false,
      "inputs": [],
      "name": "initialize",
      "outputs": [],
      "payable": false,
      "stateMutability": "nonpayable",
      "type": "function"
    }
  ],
  "bytecode": "0x608060405260008060006101000a81548160ff02191690831515021790555034801561002a57600080fd5b5060008060006101000a81548160ff02191690831515021790555060e8806100536000396000f3006080604052600436106049576000357c0100000000000000000000000000000000000000000000000000000000900463ffffffff168063158ef93e14604e5780638129fc1c14607a575b600080fd5b348015605957600080fd5b506060608e565b604051808215151515815260200191505060405180910390f35b348015608557600080fd5b50608c60a0565b005b6000809054906101000a900460ff1681565b60016000806101000a81548160ff0219169083151502179055505600a165627a7a72305820b434dccf4468dd7879f5afb8d9d0d51eb3988f5b23781d81bfdc8afd739e52570029",
  "source": "pragma solidity 0.4.24;\n\n\ncontract Initializable {\n    bool public initialized = false;\n\n    constructor() public {\n        initialized = false;\n    }\n\n    function initialize() public {\n        initialized = true;\n    }\n\n    /// @dev Modifier ensures that the function can be called only after Pandora contract was properly initialized\n    /// (see `initialize` and `properlyInitialized`\n    modifier onlyInitialized() {\n        require(initialized == true);\n        _;\n    }\n}\n",
  "sourcePath": "/home/kostysh/dev/pyrrha-consensus/contracts/lifecycle/Initializable.sol",
  "compiler": {
    "name": "solc",
    "version": "0.4.24+commit.e67f0147.Emscripten.clang"
  },
  "schemaVersion": "2.0.1",
  "updatedAt": "2019-01-10T21:31:35.364Z"
}