{
  "contractName": "Initializable",
  "abi": [
    {
      "constant": true,
      "inputs": [],
      "name": "initialized",
      "outputs": [
        {
          "name": "",
          "type": "bool"
        }
      ],
      "payable": false,
      "stateMutability": "view",
      "type": "function"
    },
    {
      "inputs": [],
      "payable": false,
      "stateMutability": "nonpayable",
      "type": "constructor"
    },
    {
      "constant": false,
      "inputs": [],
      "name": "initialize",
      "outputs": [],
      "payable": false,
      "stateMutability": "nonpayable",
      "type": "function"
    }
  ],
  "bytecode": "0x608060405260008060006101000a81548160ff02191690831515021790555034801561002a57600080fd5b5060008060006101000a81548160ff02191690831515021790555060e8806100536000396000f3006080604052600436106049576000357c0100000000000000000000000000000000000000000000000000000000900463ffffffff168063158ef93e14604e5780638129fc1c14607a575b600080fd5b348015605957600080fd5b506060608e565b604051808215151515815260200191505060405180910390f35b348015608557600080fd5b50608c60a0565b005b6000809054906101000a900460ff1681565b60016000806101000a81548160ff0219169083151502179055505600a165627a7a723058204d57326a36536fa79ba8f28dd2962450c10212b54466322037346f6f94cc43a10029",
  "source": "pragma solidity ^0.4.23;\r\n\r\n\r\ncontract Initializable {\r\n    bool public initialized = false;\r\n\r\n    constructor() public {\r\n        initialized = false;\r\n    }\r\n\r\n    function initialize() public {\r\n        initialized = true;\r\n    }\r\n\r\n    /// @dev Modifier ensures that the function can be called only after Pandora contract was properly initialized\r\n    /// (see `initialize` and `properlyInitialized`\r\n    modifier onlyInitialized() {\r\n        require(initialized == true);\r\n        _;\r\n    }\r\n}\r\n",
  "sourcePath": "G:\\PROJECTS\\Pandora\\pyrrha-consensus\\contracts\\lifecycle\\Initializable.sol",
  "compiler": {
    "name": "solc",
    "version": "0.4.24+commit.e67f0147.Emscripten.clang"
  },
  "schemaVersion": "2.0.1",
  "updatedAt": "2018-07-24T12:23:15.812Z"
}