{
  "contractName": "Initializable",
  "abi": [
    {
      "constant": true,
      "inputs": [],
      "name": "initialized",
      "outputs": [
        {
          "name": "",
          "type": "bool"
        }
      ],
      "payable": false,
      "stateMutability": "view",
      "type": "function"
    },
    {
      "inputs": [],
      "payable": false,
      "stateMutability": "nonpayable",
      "type": "constructor"
    },
    {
      "constant": false,
      "inputs": [],
      "name": "initialize",
      "outputs": [],
      "payable": false,
      "stateMutability": "nonpayable",
      "type": "function"
    }
  ],
  "bytecode": "0x606060405260008060006101000a81548160ff021916908315150217905550341561002957600080fd5b60008060006101000a81548160ff02191690831515021790555060e4806100516000396000f3006060604052600436106049576000357c0100000000000000000000000000000000000000000000000000000000900463ffffffff168063158ef93e14604e5780638129fc1c146078575b600080fd5b3415605857600080fd5b605e608a565b604051808215151515815260200191505060405180910390f35b3415608257600080fd5b6088609c565b005b6000809054906101000a900460ff1681565b60016000806101000a81548160ff0219169083151502179055505600a165627a7a7230582015aa411249c21fe3a52e18edaa759a3589b24492eb3ec56d34d53a45d8df0dab0029",
  "source": "pragma solidity ^0.4.18;\n\n\ncontract Initializable {\n    bool public initialized = false;\n\n    function Initializable() public {\n        initialized = false;\n    }\n\n    function initialize() public {\n        initialized = true;\n    }\n\n    /// @dev Modifier ensures that the function can be called only after Pandora contract was properly initialized\n    /// (see `initialize` and `properlyInitialized`\n    modifier onlyInitialized() {\n        require(initialized == true);\n        _;\n    }\n}\n",
  "sourcePath": "/home/aleksei/pandora-pyrrha/pyrrha-consensus/contracts/lifecycle/Initializable.sol",
  "compiler": {
    "name": "solc",
    "version": "0.4.21+commit.dfe3193c.Emscripten.clang"
  },
  "schemaVersion": "2.0.0",
  "updatedAt": "2018-04-11T12:12:45.954Z"
}