{
  "contractName": "JobStates",
  "abi": [
    {
      "constant": true,
      "inputs": [],
      "name": "PartialResult",
      "outputs": [
        {
          "name": "",
          "type": "uint8"
        }
      ],
      "payable": false,
      "stateMutability": "view",
      "type": "function"
    },
    {
      "constant": true,
      "inputs": [],
      "name": "Cognition",
      "outputs": [
        {
          "name": "",
          "type": "uint8"
        }
      ],
      "payable": false,
      "stateMutability": "view",
      "type": "function"
    },
    {
      "constant": true,
      "inputs": [],
      "name": "Uninitialized",
      "outputs": [
        {
          "name": "",
          "type": "uint8"
        }
      ],
      "payable": false,
      "stateMutability": "view",
      "type": "function"
    },
    {
      "constant": true,
      "inputs": [],
      "name": "GatheringWorkers",
      "outputs": [
        {
          "name": "",
          "type": "uint8"
        }
      ],
      "payable": false,
      "stateMutability": "view",
      "type": "function"
    },
    {
      "constant": true,
      "inputs": [],
      "name": "InvalidData",
      "outputs": [
        {
          "name": "",
          "type": "uint8"
        }
      ],
      "payable": false,
      "stateMutability": "view",
      "type": "function"
    },
    {
      "constant": true,
      "inputs": [],
      "name": "InsufficientWorkers",
      "outputs": [
        {
          "name": "",
          "type": "uint8"
        }
      ],
      "payable": false,
      "stateMutability": "view",
      "type": "function"
    },
    {
      "constant": true,
      "inputs": [],
      "name": "DataValidation",
      "outputs": [
        {
          "name": "",
          "type": "uint8"
        }
      ],
      "payable": false,
      "stateMutability": "view",
      "type": "function"
    },
    {
      "constant": true,
      "inputs": [],
      "name": "Destroyed",
      "outputs": [
        {
          "name": "",
          "type": "uint8"
        }
      ],
      "payable": false,
      "stateMutability": "view",
      "type": "function"
    },
    {
      "constant": true,
      "inputs": [],
      "name": "Completed",
      "outputs": [
        {
          "name": "",
          "type": "uint8"
        }
      ],
      "payable": false,
      "stateMutability": "view",
      "type": "function"
    }
  ],
  "bytecode": "0x6060604052341561000f57600080fd5b61029e8061001e6000396000f300606060405260043610610099576000357c0100000000000000000000000000000000000000000000000000000000900463ffffffff168063026d49ea1461009e5780631590d658146100cd5780631c72fad4146100fc57806321514ef31461012b5780635cb045db1461015a578063c36b33b014610189578063cbd315ae146101b8578063cc0e82c1146101e7578063e06452d014610216575b600080fd5b34156100a957600080fd5b6100b1610245565b604051808260ff1660ff16815260200191505060405180910390f35b34156100d857600080fd5b6100e061024a565b604051808260ff1660ff16815260200191505060405180910390f35b341561010757600080fd5b61010f61024f565b604051808260ff1660ff16815260200191505060405180910390f35b341561013657600080fd5b61013e610254565b604051808260ff1660ff16815260200191505060405180910390f35b341561016557600080fd5b61016d610259565b604051808260ff1660ff16815260200191505060405180910390f35b341561019457600080fd5b61019c61025e565b604051808260ff1660ff16815260200191505060405180910390f35b34156101c357600080fd5b6101cb610263565b604051808260ff1660ff16815260200191505060405180910390f35b34156101f257600080fd5b6101fa610268565b604051808260ff1660ff16815260200191505060405180910390f35b341561022157600080fd5b61022961026d565b604051808260ff1660ff16815260200191505060405180910390f35b600681565b600581565b600081565b600181565b600481565b600281565b600381565b60ff81565b6007815600a165627a7a723058201bb9c6f4b37d000bdadfcabec5930025e76f044b2f9006c6630a88eef3ec80200029",
  "source": "pragma solidity ^0.4.18;\n\ncontract JobStates {\n    // Since `destroyself()` zeroes values of all variables, we need the first state (corresponding to zero)\n    // to indicate that contract had being destroyed\n    uint8 public constant Destroyed = 0xFF;\n\n    // Reserved system state not participating in transition table. Since contract creation all variables are\n    // initialized to zero and contract state will be zero until it will be initialized with some definite state\n    uint8 public constant Uninitialized = 0;\n\n    uint8 public constant GatheringWorkers = 1;\n\n    uint8 public constant InsufficientWorkers = 2;\n\n    uint8 public constant DataValidation = 3;\n\n    uint8 public constant InvalidData = 4;\n\n    uint8 public constant Cognition = 5;\n\n    uint8 public constant PartialResult = 6;\n\n    uint8 public constant Completed = 7;\n}\n",
  "sourcePath": "/home/aleksei/pandora-pyrrha/pyrrha-consensus/contracts/jobs/JobStates.sol",
  "compiler": {
    "name": "solc",
    "version": "0.4.21+commit.dfe3193c.Emscripten.clang"
  },
  "schemaVersion": "2.0.0",
  "updatedAt": "2018-04-11T12:12:45.952Z"
}