{
  "contractName": "JobStates",
  "abi": [
    {
      "constant": true,
      "inputs": [],
      "name": "PartialResult",
      "outputs": [
        {
          "name": "",
          "type": "uint8"
        }
      ],
      "payable": false,
      "stateMutability": "view",
      "type": "function"
    },
    {
      "constant": true,
      "inputs": [],
      "name": "Cognition",
      "outputs": [
        {
          "name": "",
          "type": "uint8"
        }
      ],
      "payable": false,
      "stateMutability": "view",
      "type": "function"
    },
    {
      "constant": true,
      "inputs": [],
      "name": "Uninitialized",
      "outputs": [
        {
          "name": "",
          "type": "uint8"
        }
      ],
      "payable": false,
      "stateMutability": "view",
      "type": "function"
    },
    {
      "constant": true,
      "inputs": [],
      "name": "GatheringWorkers",
      "outputs": [
        {
          "name": "",
          "type": "uint8"
        }
      ],
      "payable": false,
      "stateMutability": "view",
      "type": "function"
    },
    {
      "constant": true,
      "inputs": [],
      "name": "InvalidData",
      "outputs": [
        {
          "name": "",
          "type": "uint8"
        }
      ],
      "payable": false,
      "stateMutability": "view",
      "type": "function"
    },
    {
      "constant": true,
      "inputs": [],
      "name": "InsufficientWorkers",
      "outputs": [
        {
          "name": "",
          "type": "uint8"
        }
      ],
      "payable": false,
      "stateMutability": "view",
      "type": "function"
    },
    {
      "constant": true,
      "inputs": [],
      "name": "DataValidation",
      "outputs": [
        {
          "name": "",
          "type": "uint8"
        }
      ],
      "payable": false,
      "stateMutability": "view",
      "type": "function"
    },
    {
      "constant": true,
      "inputs": [],
      "name": "Destroyed",
      "outputs": [
        {
          "name": "",
          "type": "uint8"
        }
      ],
      "payable": false,
      "stateMutability": "view",
      "type": "function"
    },
    {
      "constant": true,
      "inputs": [],
      "name": "Completed",
      "outputs": [
        {
          "name": "",
          "type": "uint8"
        }
      ],
      "payable": false,
      "stateMutability": "view",
      "type": "function"
    }
  ],
  "bytecode": "0x608060405234801561001057600080fd5b506102b0806100206000396000f300608060405260043610610099576000357c0100000000000000000000000000000000000000000000000000000000900463ffffffff168063026d49ea1461009e5780631590d658146100cf5780631c72fad41461010057806321514ef3146101315780635cb045db14610162578063c36b33b014610193578063cbd315ae146101c4578063cc0e82c1146101f5578063e06452d014610226575b600080fd5b3480156100aa57600080fd5b506100b3610257565b604051808260ff1660ff16815260200191505060405180910390f35b3480156100db57600080fd5b506100e461025c565b604051808260ff1660ff16815260200191505060405180910390f35b34801561010c57600080fd5b50610115610261565b604051808260ff1660ff16815260200191505060405180910390f35b34801561013d57600080fd5b50610146610266565b604051808260ff1660ff16815260200191505060405180910390f35b34801561016e57600080fd5b5061017761026b565b604051808260ff1660ff16815260200191505060405180910390f35b34801561019f57600080fd5b506101a8610270565b604051808260ff1660ff16815260200191505060405180910390f35b3480156101d057600080fd5b506101d9610275565b604051808260ff1660ff16815260200191505060405180910390f35b34801561020157600080fd5b5061020a61027a565b604051808260ff1660ff16815260200191505060405180910390f35b34801561023257600080fd5b5061023b61027f565b604051808260ff1660ff16815260200191505060405180910390f35b600681565b600581565b600081565b600181565b600481565b600281565b600381565b60ff81565b6007815600a165627a7a72305820f455883e8e9e7d31d0e79be603b8ee398c029d82686904415c961df23e16b9b60029",
  "source": "pragma solidity ^0.4.23;\n\n\ncontract JobStates {\n    // Since `destroyself()` zeroes values of all variables, we need the first state (corresponding to zero)\n    // to indicate that contract had being destroyed\n    uint8 public constant Destroyed = 0xFF;\n\n    // Reserved system state not participating in transition table. Since contract creation all variables are\n    // initialized to zero and contract state will be zero until it will be initialized with some definite state\n    uint8 public constant Uninitialized = 0;\n\n    uint8 public constant GatheringWorkers = 1;\n\n    uint8 public constant InsufficientWorkers = 2;\n\n    uint8 public constant DataValidation = 3;\n\n    uint8 public constant InvalidData = 4;\n\n    uint8 public constant Cognition = 5;\n\n    uint8 public constant PartialResult = 6;\n\n    uint8 public constant Completed = 7;\n}\n",
  "sourcePath": "/home/kostysh/dev/pyrrha-consensus/contracts/jobs/JobStates.sol",
  "compiler": {
    "name": "solc",
    "version": "0.4.23+commit.124ca40d.Emscripten.clang"
  },
  "schemaVersion": "2.0.0",
  "updatedAt": "2018-05-21T20:36:00.817Z"
}