{
  "contractName": "PandoraMarket",
  "abi": [
    {
      "constant": true,
      "inputs": [],
      "name": "STATUS_FAILED_CONTRACT",
      "outputs": [
        {
          "name": "",
          "type": "uint8"
        }
      ],
      "payable": false,
      "stateMutability": "view",
      "type": "function"
    },
    {
      "constant": true,
      "inputs": [
        {
          "name": "",
          "type": "uint256"
        }
      ],
      "name": "datasets",
      "outputs": [
        {
          "name": "",
          "type": "address"
        }
      ],
      "payable": false,
      "stateMutability": "view",
      "type": "function"
    },
    {
      "constant": true,
      "inputs": [],
      "name": "STATUS_ALREADY_EXISTS",
      "outputs": [
        {
          "name": "",
          "type": "uint8"
        }
      ],
      "payable": false,
      "stateMutability": "view",
      "type": "function"
    },
    {
      "constant": true,
      "inputs": [],
      "name": "STATUS_SUCCESS",
      "outputs": [
        {
          "name": "",
          "type": "uint8"
        }
      ],
      "payable": false,
      "stateMutability": "view",
      "type": "function"
    },
    {
      "constant": true,
      "inputs": [],
      "name": "STATUS_NO_SPACE",
      "outputs": [
        {
          "name": "",
          "type": "uint8"
        }
      ],
      "payable": false,
      "stateMutability": "view",
      "type": "function"
    },
    {
      "constant": true,
      "inputs": [
        {
          "name": "",
          "type": "address"
        }
      ],
      "name": "kernelMap",
      "outputs": [
        {
          "name": "",
          "type": "uint256"
        }
      ],
      "payable": false,
      "stateMutability": "view",
      "type": "function"
    },
    {
      "constant": true,
      "inputs": [],
      "name": "STATUS_NOT_EXISTS",
      "outputs": [
        {
          "name": "",
          "type": "uint8"
        }
      ],
      "payable": false,
      "stateMutability": "view",
      "type": "function"
    },
    {
      "constant": true,
      "inputs": [
        {
          "name": "",
          "type": "uint256"
        }
      ],
      "name": "kernels",
      "outputs": [
        {
          "name": "",
          "type": "address"
        }
      ],
      "payable": false,
      "stateMutability": "view",
      "type": "function"
    },
    {
      "constant": true,
      "inputs": [
        {
          "name": "",
          "type": "address"
        }
      ],
      "name": "datasetMap",
      "outputs": [
        {
          "name": "",
          "type": "uint256"
        }
      ],
      "payable": false,
      "stateMutability": "view",
      "type": "function"
    },
    {
      "inputs": [],
      "payable": false,
      "stateMutability": "nonpayable",
      "type": "constructor"
    },
    {
      "anonymous": false,
      "inputs": [
        {
          "indexed": false,
          "name": "kernel",
          "type": "address"
        }
      ],
      "name": "KernelAdded",
      "type": "event"
    },
    {
      "anonymous": false,
      "inputs": [
        {
          "indexed": false,
          "name": "dataset",
          "type": "address"
        }
      ],
      "name": "DatasetAdded",
      "type": "event"
    },
    {
      "anonymous": false,
      "inputs": [
        {
          "indexed": false,
          "name": "kernel",
          "type": "address"
        }
      ],
      "name": "KernelRemoved",
      "type": "event"
    },
    {
      "anonymous": false,
      "inputs": [
        {
          "indexed": false,
          "name": "dataset",
          "type": "address"
        }
      ],
      "name": "DatasetRemoved",
      "type": "event"
    },
    {
      "constant": true,
      "inputs": [],
      "name": "kernelsCount",
      "outputs": [
        {
          "name": "o_count",
          "type": "uint256"
        }
      ],
      "payable": false,
      "stateMutability": "view",
      "type": "function"
    },
    {
      "constant": true,
      "inputs": [],
      "name": "datasetsCount",
      "outputs": [
        {
          "name": "o_count",
          "type": "uint256"
        }
      ],
      "payable": false,
      "stateMutability": "view",
      "type": "function"
    },
    {
      "constant": false,
      "inputs": [
        {
          "name": "_kernel",
          "type": "address"
        }
      ],
      "name": "addKernel",
      "outputs": [
        {
          "name": "o_result",
          "type": "uint8"
        }
      ],
      "payable": false,
      "stateMutability": "nonpayable",
      "type": "function"
    },
    {
      "constant": false,
      "inputs": [
        {
          "name": "_dataset",
          "type": "address"
        }
      ],
      "name": "addDataset",
      "outputs": [
        {
          "name": "o_result",
          "type": "uint8"
        }
      ],
      "payable": false,
      "stateMutability": "nonpayable",
      "type": "function"
    },
    {
      "constant": false,
      "inputs": [
        {
          "name": "_kernel",
          "type": "address"
        }
      ],
      "name": "removeKernel",
      "outputs": [
        {
          "name": "o_result",
          "type": "uint8"
        }
      ],
      "payable": false,
      "stateMutability": "nonpayable",
      "type": "function"
    },
    {
      "constant": false,
      "inputs": [
        {
          "name": "_dataset",
          "type": "address"
        }
      ],
      "name": "removeDataset",
      "outputs": [
        {
          "name": "o_result",
          "type": "uint8"
        }
      ],
      "payable": false,
      "stateMutability": "nonpayable",
      "type": "function"
    }
  ],
  "bytecode": "0x608060405234801561001057600080fd5b50610e77806100206000396000f3006080604052600436106100db576000357c0100000000000000000000000000000000000000000000000000000000900463ffffffff1680630125f62b146100e0578063015f5148146101115780631cff85e11461016e5780631d184132146101db57806330ce4b531461020c578063379c131e14610237578063433e0358146102625780638855e092146102bf57806399951408146102f0578063a14bcc0e14610321578063caa27f821461037e578063d21dca9f146103d5578063d4f6ab7914610406578063d572dca514610473578063e691aec4146104d0575b600080fd5b3480156100ec57600080fd5b506100f5610527565b604051808260ff1660ff16815260200191505060405180910390f35b34801561011d57600080fd5b50610152600480360381019080803573ffffffffffffffffffffffffffffffffffffffff16906020019092919050505061052c565b604051808260ff1660ff16815260200191505060405180910390f35b34801561017a57600080fd5b506101996004803603810190808035906020019092919050505061077c565b604051808273ffffffffffffffffffffffffffffffffffffffff1673ffffffffffffffffffffffffffffffffffffffff16815260200191505060405180910390f35b3480156101e757600080fd5b506101f06107ba565b604051808260ff1660ff16815260200191505060405180910390f35b34801561021857600080fd5b506102216107bf565b6040518082815260200191505060405180910390f35b34801561024357600080fd5b5061024c6107cc565b6040518082815260200191505060405180910390f35b34801561026e57600080fd5b506102a3600480360381019080803573ffffffffffffffffffffffffffffffffffffffff1690602001909291905050506107d9565b604051808260ff1660ff16815260200191505060405180910390f35b3480156102cb57600080fd5b506102d461096d565b604051808260ff1660ff16815260200191505060405180910390f35b3480156102fc57600080fd5b50610305610972565b604051808260ff1660ff16815260200191505060405180910390f35b34801561032d57600080fd5b50610362600480360381019080803573ffffffffffffffffffffffffffffffffffffffff169060200190929190505050610977565b604051808260ff1660ff16815260200191505060405180910390f35b34801561038a57600080fd5b506103bf600480360381019080803573ffffffffffffffffffffffffffffffffffffffff169060200190929190505050610b0b565b6040518082815260200191505060405180910390f35b3480156103e157600080fd5b506103ea610b23565b604051808260ff1660ff16815260200191505060405180910390f35b34801561041257600080fd5b5061043160048036038101908080359060200190929190505050610b28565b604051808273ffffffffffffffffffffffffffffffffffffffff1673ffffffffffffffffffffffffffffffffffffffff16815260200191505060405180910390f35b34801561047f57600080fd5b506104b4600480360381019080803573ffffffffffffffffffffffffffffffffffffffff169060200190929190505050610b66565b604051808260ff1660ff16815260200191505060405180910390f35b3480156104dc57600080fd5b50610511600480360381019080803573ffffffffffffffffffffffffffffffffffffffff169060200190929190505050610db6565b6040518082815260200191505060405180910390f35b600081565b600080600080600760008673ffffffffffffffffffffffffffffffffffffffff1673ffffffffffffffffffffffffffffffffffffffff16815260200190815260200160002054925060008314156105895760049350839350610774565b60058054905091506005600183038154811015156105a357fe5b9060005260206000200160009054906101000a900473ffffffffffffffffffffffffffffffffffffffff169050806005600185038154811015156105e357fe5b9060005260206000200160006101000a81548173ffffffffffffffffffffffffffffffffffffffff021916908373ffffffffffffffffffffffffffffffffffffffff1602179055506000600760008773ffffffffffffffffffffffffffffffffffffffff1673ffffffffffffffffffffffffffffffffffffffff1681526020019081526020016000208190555082600760008373ffffffffffffffffffffffffffffffffffffffff1673ffffffffffffffffffffffffffffffffffffffff168152602001908152602001600020819055506005600183038154811015156106c657fe5b9060005260206000200160006101000a81549073ffffffffffffffffffffffffffffffffffffffff021916905560058054809190600190036107089190610dce565b507f8c915c9fd390f8f4da90f661dd26612aeafd3908a283036d02540aa4053d1f6a85604051808273ffffffffffffffffffffffffffffffffffffffff1673ffffffffffffffffffffffffffffffffffffffff16815260200191505060405180910390a1600193508393505b505050919050565b60058181548110151561078b57fe5b906000526020600020016000915054906101000a900473ffffffffffffffffffffffffffffffffffffffff1681565b600381565b6000600480549050905090565b6000600580549050905090565b600063fffffffe6004805490501015156107f95760029050809050610968565b6000600660008473ffffffffffffffffffffffffffffffffffffffff1673ffffffffffffffffffffffffffffffffffffffff1681526020019081526020016000205414151561084e5760039050809050610968565b60048290806001815401808255809150509060018203906000526020600020016000909192909190916101000a81548173ffffffffffffffffffffffffffffffffffffffff021916908373ffffffffffffffffffffffffffffffffffffffff16021790555050600480549050600660008473ffffffffffffffffffffffffffffffffffffffff1673ffffffffffffffffffffffffffffffffffffffff168152602001908152602001600020819055507fcf31165d5ed409961af0e533d1df52e392ca2a050a9e73c406bb1ccb683cc5ba82604051808273ffffffffffffffffffffffffffffffffffffffff1673ffffffffffffffffffffffffffffffffffffffff16815260200191505060405180910390a1600190508090505b919050565b600181565b600281565b600063fffffffe6005805490501015156109975760029050809050610b06565b6000600760008473ffffffffffffffffffffffffffffffffffffffff1673ffffffffffffffffffffffffffffffffffffffff168152602001908152602001600020541415156109ec5760039050809050610b06565b60058290806001815401808255809150509060018203906000526020600020016000909192909190916101000a81548173ffffffffffffffffffffffffffffffffffffffff021916908373ffffffffffffffffffffffffffffffffffffffff16021790555050600580549050600760008473ffffffffffffffffffffffffffffffffffffffff1673ffffffffffffffffffffffffffffffffffffffff168152602001908152602001600020819055507f0c4c9279435b64167addbdd51e76b8ef0cb6dd29fd131c486b1a276b4c6ad2b282604051808273ffffffffffffffffffffffffffffffffffffffff1673ffffffffffffffffffffffffffffffffffffffff16815260200191505060405180910390a1600190508090505b919050565b60066020528060005260406000206000915090505481565b600481565b600481815481101515610b3757fe5b906000526020600020016000915054906101000a900473ffffffffffffffffffffffffffffffffffffffff1681565b600080600080600660008673ffffffffffffffffffffffffffffffffffffffff1673ffffffffffffffffffffffffffffffffffffffff1681526020019081526020016000205492506000831415610bc35760049350839350610dae565b6004805490509150600460018303815481101515610bdd57fe5b9060005260206000200160009054906101000a900473ffffffffffffffffffffffffffffffffffffffff16905080600460018503815481101515610c1d57fe5b9060005260206000200160006101000a81548173ffffffffffffffffffffffffffffffffffffffff021916908373ffffffffffffffffffffffffffffffffffffffff1602179055506000600660008773ffffffffffffffffffffffffffffffffffffffff1673ffffffffffffffffffffffffffffffffffffffff1681526020019081526020016000208190555082600660008373ffffffffffffffffffffffffffffffffffffffff1673ffffffffffffffffffffffffffffffffffffffff16815260200190815260200160002081905550600460018303815481101515610d0057fe5b9060005260206000200160006101000a81549073ffffffffffffffffffffffffffffffffffffffff02191690556004805480919060019003610d429190610dfa565b507f71574028d614ed221ccaf33bd6f2c3f152ab7832b2f3f755f744bbc96da75f5a85604051808273ffffffffffffffffffffffffffffffffffffffff1673ffffffffffffffffffffffffffffffffffffffff16815260200191505060405180910390a1600193508393505b505050919050565b60076020528060005260406000206000915090505481565b815481835581811115610df557818360005260206000209182019101610df49190610e26565b5b505050565b815481835581811115610e2157818360005260206000209182019101610e209190610e26565b5b505050565b610e4891905b80821115610e44576000816000905550600101610e2c565b5090565b905600a165627a7a723058203a36fbc6691a539c450ce46e96b6ae7c6a36c02f29facd21dc86e2a62cb153140029",
  "source": "pragma solidity ^0.4.23;\r\n\r\nimport \"../entities/IKernel.sol\";\r\nimport \"../entities/IDataset.sol\";\r\nimport \"./IMarket.sol\";\r\n\r\ncontract PandoraMarket is IMarket {\r\n    IKernel[] public kernels;\r\n    IDataset[] public datasets;\r\n    mapping(address => uint256) public kernelMap;\r\n    mapping(address => uint256) public datasetMap;\r\n\r\n    /// @dev Since functions of destroyed contracts return zero then we have to reserve zero value as a special\r\n    /// indicator of the failed contract\r\n    uint8 public constant STATUS_FAILED_CONTRACT = 0;\r\n    uint8 public constant STATUS_SUCCESS = 1;\r\n    uint8 public constant STATUS_NO_SPACE = 2;\r\n    uint8 public constant STATUS_ALREADY_EXISTS = 3;\r\n    uint8 public constant STATUS_NOT_EXISTS = 4;\r\n\r\n    event KernelAdded(IKernel kernel);\r\n    event DatasetAdded(IDataset dataset);\r\n    event KernelRemoved(IKernel kernel);\r\n    event DatasetRemoved(IDataset dataset);\r\n\r\n    constructor() public {\r\n    }\r\n\r\n    function kernelsCount()\r\n    external\r\n    view\r\n    returns (\r\n        uint o_count\r\n    ) {\r\n        o_count = kernels.length;\r\n    }\r\n\r\n    function datasetsCount()\r\n    external\r\n    view\r\n    returns (\r\n        uint o_count\r\n    ) {\r\n        o_count = datasets.length;\r\n    }\r\n\r\n    function addKernel(\r\n        IKernel _kernel\r\n    )\r\n    external\r\n    returns (\r\n        uint8 o_result\r\n    ) {\r\n        if (kernels.length >= 0xFFFFFFFE) {\r\n            return o_result = STATUS_NO_SPACE;\r\n        }\r\n        if (kernelMap[address(_kernel)] != 0) {\r\n            return o_result = STATUS_ALREADY_EXISTS;\r\n        }\r\n        kernels.push(_kernel);\r\n        kernelMap[address(_kernel)] = kernels.length;\r\n        emit KernelAdded(_kernel);\r\n        return o_result = STATUS_SUCCESS;\r\n    }\r\n\r\n    function addDataset(\r\n        IDataset _dataset\r\n    )\r\n    external\r\n    returns (\r\n        uint8 o_result\r\n    ) {\r\n        if (datasets.length >= 0xFFFFFFFE) {\r\n            return o_result = STATUS_NO_SPACE;\r\n        }\r\n        if (datasetMap[address(_dataset)] != 0) {\r\n            return o_result = STATUS_ALREADY_EXISTS;\r\n        }\r\n        datasets.push(_dataset);\r\n        datasetMap[address(_dataset)] = datasets.length;\r\n        emit DatasetAdded(_dataset);\r\n        return o_result = STATUS_SUCCESS;\r\n    }\r\n\r\n    function removeKernel(\r\n        IKernel _kernel\r\n    )\r\n    external\r\n    returns (\r\n        uint8 o_result\r\n    ) {\r\n        uint256 pos = kernelMap[address(_kernel)];\r\n        if (pos == 0) {\r\n            return o_result = STATUS_NOT_EXISTS;\r\n        }\r\n\r\n        uint len = kernels.length;\r\n        IKernel lastKernel = kernels[len - 1];\r\n        kernels[pos - 1] = lastKernel;\r\n        kernelMap[address(_kernel)] = 0;\r\n        kernelMap[address(lastKernel)] = pos;\r\n        delete kernels[len - 1];\r\n        kernels.length--;\r\n\r\n        emit KernelRemoved(_kernel);\r\n\r\n        return o_result = STATUS_SUCCESS;\r\n    }\r\n\r\n    function removeDataset(\r\n        IDataset _dataset\r\n    )\r\n    external\r\n    returns (\r\n        uint8 o_result\r\n    ) {\r\n        uint256 pos = datasetMap[address(_dataset)];\r\n        if (pos == 0) {\r\n            return o_result = STATUS_NOT_EXISTS;\r\n        }\r\n\r\n        uint len = datasets.length;\r\n        IDataset lastDataset = datasets[len - 1];\r\n        datasets[pos - 1] = lastDataset;\r\n        datasetMap[address(_dataset)] = 0;\r\n        datasetMap[address(lastDataset)] = pos;\r\n        delete datasets[len - 1];\r\n        datasets.length--;\r\n\r\n        emit DatasetRemoved(_dataset);\r\n\r\n        return o_result = STATUS_SUCCESS;\r\n    }\r\n}\r\n",
  "sourcePath": "G:\\PROJECTS\\Pandora\\pyrrha-consensus\\contracts\\dmarket\\PandoraMarket.sol",
  "compiler": {
    "name": "solc",
    "version": "0.4.24+commit.e67f0147.Emscripten.clang"
  },
  "schemaVersion": "2.0.1",
  "updatedAt": "2018-07-25T20:19:20.580Z"
}