{
  "contractName": "Pandora",
  "abi": [
    {
      "constant": true,
      "inputs": [],
      "name": "workerNodesCount",
      "outputs": [
        {
          "name": "",
          "type": "uint256"
        }
      ],
      "payable": false,
      "stateMutability": "view",
      "type": "function"
    },
    {
      "constant": false,
      "inputs": [
        {
          "name": "_workerOwner",
          "type": "address"
        }
      ],
      "name": "whitelistWorkerOwner",
      "outputs": [],
      "payable": false,
      "stateMutability": "nonpayable",
      "type": "function"
    },
    {
      "constant": true,
      "inputs": [],
      "name": "initialized",
      "outputs": [
        {
          "name": "",
          "type": "bool"
        }
      ],
      "payable": false,
      "stateMutability": "view",
      "type": "function"
    },
    {
      "constant": true,
      "inputs": [
        {
          "name": "",
          "type": "uint256"
        }
      ],
      "name": "workerNodes",
      "outputs": [
        {
          "name": "",
          "type": "address"
        }
      ],
      "payable": false,
      "stateMutability": "view",
      "type": "function"
    },
    {
      "constant": true,
      "inputs": [],
      "name": "RESULT_CODE_JOB_CREATED",
      "outputs": [
        {
          "name": "",
          "type": "uint8"
        }
      ],
      "payable": false,
      "stateMutability": "view",
      "type": "function"
    },
    {
      "constant": true,
      "inputs": [],
      "name": "jobController",
      "outputs": [
        {
          "name": "",
          "type": "address"
        }
      ],
      "payable": false,
      "stateMutability": "view",
      "type": "function"
    },
    {
      "constant": true,
      "inputs": [],
      "name": "economicController",
      "outputs": [
        {
          "name": "",
          "type": "address"
        }
      ],
      "payable": false,
      "stateMutability": "view",
      "type": "function"
    },
    {
      "constant": true,
      "inputs": [],
      "name": "version",
      "outputs": [
        {
          "name": "",
          "type": "bytes32"
        }
      ],
      "payable": false,
      "stateMutability": "view",
      "type": "function"
    },
    {
      "constant": false,
      "inputs": [
        {
          "name": "_guiltyWorker",
          "type": "address"
        },
        {
          "name": "_reason",
          "type": "uint8"
        }
      ],
      "name": "penaltizeWorkerNode",
      "outputs": [],
      "payable": false,
      "stateMutability": "nonpayable",
      "type": "function"
    },
    {
      "constant": false,
      "inputs": [
        {
          "name": "_jobId",
          "type": "bytes32"
        },
        {
          "name": "_percent",
          "type": "uint8"
        }
      ],
      "name": "commitProgress",
      "outputs": [],
      "payable": false,
      "stateMutability": "nonpayable",
      "type": "function"
    },
    {
      "constant": false,
      "inputs": [
        {
          "name": "computingPrice",
          "type": "uint256"
        }
      ],
      "name": "createWorkerNode",
      "outputs": [
        {
          "name": "",
          "type": "address"
        }
      ],
      "payable": false,
      "stateMutability": "nonpayable",
      "type": "function"
    },
    {
      "constant": true,
      "inputs": [
        {
          "name": "",
          "type": "address"
        }
      ],
      "name": "workerNodeOwners",
      "outputs": [
        {
          "name": "",
          "type": "bool"
        }
      ],
      "payable": false,
      "stateMutability": "view",
      "type": "function"
    },
    {
      "constant": false,
      "inputs": [],
      "name": "renounceOwnership",
      "outputs": [],
      "payable": false,
      "stateMutability": "nonpayable",
      "type": "function"
    },
    {
      "constant": false,
      "inputs": [
        {
          "name": "_workerOwner",
          "type": "address"
        }
      ],
      "name": "blacklistWorkerOwner",
      "outputs": [],
      "payable": false,
      "stateMutability": "nonpayable",
      "type": "function"
    },
    {
      "constant": false,
      "inputs": [],
      "name": "getQueueDepth",
      "outputs": [
        {
          "name": "",
          "type": "uint256"
        }
      ],
      "payable": false,
      "stateMutability": "nonpayable",
      "type": "function"
    },
    {
      "constant": true,
      "inputs": [],
      "name": "RESULT_CODE_ADD_TO_QUEUE",
      "outputs": [
        {
          "name": "",
          "type": "uint8"
        }
      ],
      "payable": false,
      "stateMutability": "view",
      "type": "function"
    },
    {
      "constant": true,
      "inputs": [],
      "name": "owner",
      "outputs": [
        {
          "name": "",
          "type": "address"
        }
      ],
      "payable": false,
      "stateMutability": "view",
      "type": "function"
    },
    {
      "constant": true,
      "inputs": [],
      "name": "isOwner",
      "outputs": [
        {
          "name": "",
          "type": "bool"
        }
      ],
      "payable": false,
      "stateMutability": "view",
      "type": "function"
    },
    {
      "constant": false,
      "inputs": [],
      "name": "checkJobQueue",
      "outputs": [],
      "payable": false,
      "stateMutability": "nonpayable",
      "type": "function"
    },
    {
      "constant": false,
      "inputs": [
        {
          "name": "_workerNode",
          "type": "address"
        }
      ],
      "name": "destroyWorkerNode",
      "outputs": [],
      "payable": false,
      "stateMutability": "nonpayable",
      "type": "function"
    },
    {
      "constant": false,
      "inputs": [
        {
          "name": "_jobId",
          "type": "bytes32"
        },
        {
          "name": "_responseType",
          "type": "uint8"
        },
        {
          "name": "_response",
          "type": "bool"
        }
      ],
      "name": "respondToJob",
      "outputs": [],
      "payable": false,
      "stateMutability": "nonpayable",
      "type": "function"
    },
    {
      "constant": false,
      "inputs": [
        {
          "name": "_jobId",
          "type": "bytes32"
        },
        {
          "name": "_ipfsResults",
          "type": "bytes"
        }
      ],
      "name": "provideResults",
      "outputs": [],
      "payable": false,
      "stateMutability": "nonpayable",
      "type": "function"
    },
    {
      "constant": true,
      "inputs": [],
      "name": "REQUIRED_DEPOSIT",
      "outputs": [
        {
          "name": "",
          "type": "uint256"
        }
      ],
      "payable": false,
      "stateMutability": "view",
      "type": "function"
    },
    {
      "constant": true,
      "inputs": [],
      "name": "reputation",
      "outputs": [
        {
          "name": "",
          "type": "address"
        }
      ],
      "payable": false,
      "stateMutability": "view",
      "type": "function"
    },
    {
      "constant": false,
      "inputs": [
        {
          "name": "_kernel",
          "type": "address"
        },
        {
          "name": "_dataset",
          "type": "address"
        },
        {
          "name": "_complexity",
          "type": "uint256"
        },
        {
          "name": "_description",
          "type": "bytes32"
        }
      ],
      "name": "createCognitiveJob",
      "outputs": [
        {
          "name": "o_jobId",
          "type": "bytes32"
        },
        {
          "name": "o_resultCode",
          "type": "uint8"
        }
      ],
      "payable": true,
      "stateMutability": "payable",
      "type": "function"
    },
    {
      "constant": false,
      "inputs": [
        {
          "name": "newOwner",
          "type": "address"
        }
      ],
      "name": "transferOwnership",
      "outputs": [],
      "payable": false,
      "stateMutability": "nonpayable",
      "type": "function"
    },
    {
      "constant": true,
      "inputs": [],
      "name": "workerNodeFactory",
      "outputs": [
        {
          "name": "",
          "type": "address"
        }
      ],
      "payable": false,
      "stateMutability": "view",
      "type": "function"
    },
    {
      "constant": true,
      "inputs": [
        {
          "name": "",
          "type": "address"
        }
      ],
      "name": "deposits",
      "outputs": [
        {
          "name": "",
          "type": "uint256"
        }
      ],
      "payable": false,
      "stateMutability": "view",
      "type": "function"
    },
    {
      "constant": true,
      "inputs": [
        {
          "name": "",
          "type": "address"
        }
      ],
      "name": "workerAddresses",
      "outputs": [
        {
          "name": "",
          "type": "uint16"
        }
      ],
      "payable": false,
      "stateMutability": "view",
      "type": "function"
    },
    {
      "inputs": [
        {
          "name": "_jobController",
          "type": "address"
        },
        {
          "name": "_economicController",
          "type": "address"
        },
        {
          "name": "_nodeFactory",
          "type": "address"
        },
        {
          "name": "_reputation",
          "type": "address"
        }
      ],
      "payable": false,
      "stateMutability": "nonpayable",
      "type": "constructor"
    },
    {
      "anonymous": false,
      "inputs": [
        {
          "indexed": false,
          "name": "jobId",
          "type": "bytes32"
        }
      ],
      "name": "CognitiveJobCreated",
      "type": "event"
    },
    {
      "anonymous": false,
      "inputs": [
        {
          "indexed": false,
          "name": "jobId",
          "type": "bytes32"
        }
      ],
      "name": "CognitiveJobQueued",
      "type": "event"
    },
    {
      "anonymous": false,
      "inputs": [
        {
          "indexed": false,
          "name": "worker",
          "type": "address"
        }
      ],
      "name": "Debug",
      "type": "event"
    },
    {
      "anonymous": false,
      "inputs": [
        {
          "indexed": false,
          "name": "workerNode",
          "type": "address"
        }
      ],
      "name": "WorkerNodeCreated",
      "type": "event"
    },
    {
      "anonymous": false,
      "inputs": [
        {
          "indexed": false,
          "name": "workerNode",
          "type": "address"
        }
      ],
      "name": "WorkerNodeDestroyed",
      "type": "event"
    },
    {
      "anonymous": false,
      "inputs": [
        {
          "indexed": true,
          "name": "previousOwner",
          "type": "address"
        },
        {
          "indexed": true,
          "name": "newOwner",
          "type": "address"
        }
      ],
      "name": "OwnershipTransferred",
      "type": "event"
    },
    {
      "constant": false,
      "inputs": [],
      "name": "initialize",
      "outputs": [],
      "payable": false,
      "stateMutability": "nonpayable",
      "type": "function"
    }
  ],
  "bytecode": "0x60806040526000600160006101000a81548160ff0219169083151502179055503480156200002c57600080fd5b506040516080806200400e8339810180604052810190808051906020019092919080519060200190929190805190602001909291908051906020019092919050505083838383816000600160006101000a81548160ff021916908315150217905550336001806101000a81548173ffffffffffffffffffffffffffffffffffffffff021916908373ffffffffffffffffffffffffffffffffffffffff1602179055506001809054906101000a900473ffffffffffffffffffffffffffffffffffffffff1673ffffffffffffffffffffffffffffffffffffffff16600073ffffffffffffffffffffffffffffffffffffffff167f8be0079c531659141344cd1fd0a4f28419497f9722a3daafe3b4186f6b6457e060405160405180910390a3600073ffffffffffffffffffffffffffffffffffffffff168173ffffffffffffffffffffffffffffffffffffffff16141515156200018757600080fd5b80600660006101000a81548173ffffffffffffffffffffffffffffffffffffffff021916908373ffffffffffffffffffffffffffffffffffffffff1602179055505083601060006101000a81548173ffffffffffffffffffffffffffffffffffffffff021916908373ffffffffffffffffffffffffffffffffffffffff16021790555082600260006101000a81548173ffffffffffffffffffffffffffffffffffffffff021916908373ffffffffffffffffffffffffffffffffffffffff16021790555080600a60006101000a81548173ffffffffffffffffffffffffffffffffffffffff021916908373ffffffffffffffffffffffffffffffffffffffff1602179055506200029662000302565b604051809103906000f080158015620002b3573d6000803e3d6000fd5b50600c60006101000a81548173ffffffffffffffffffffffffffffffffffffffff021916908373ffffffffffffffffffffffffffffffffffffffff160217905550505050505050505062000313565b60405161023d8062003dd183390190565b613aae80620003236000396000f300608060405260043610610180576000357c0100000000000000000000000000000000000000000000000000000000900463ffffffff1680630e3b581f1461018557806313b5165f146101b0578063158ef93e146101f35780631dc20af41461022257806323ce524a1461028f5780632f853d86146102c05780634de7485d1461031757806354fd4d501461036e5780635ef17776146103a1578063687fbdff146103f15780636d77b2081461042f57806370064e331461049c578063715018a6146104f75780637b3c611c1461050e5780637e58bf1e146105515780638129fc1c1461057c57806383c94c69146105935780638da5cb5b146105c45780638f32d59b1461061b578063a3e27fc91461064a578063ae1092ae14610661578063b0e79d9b146106a4578063bbcc7261146106ee578063be64b76b14610737578063c52164c614610762578063ea84546b146107b9578063f2fde38b14610850578063f9d84ade14610893578063fc7e286d146108ea578063fdb5b8d414610941575b600080fd5b34801561019157600080fd5b5061019a6109a0565b6040518082815260200191505060405180910390f35b3480156101bc57600080fd5b506101f1600480360381019080803573ffffffffffffffffffffffffffffffffffffffff1690602001909291905050506109cf565b005b3480156101ff57600080fd5b50610208610a3d565b604051808215151515815260200191505060405180910390f35b34801561022e57600080fd5b5061024d60048036038101908080359060200190929190505050610a50565b604051808273ffffffffffffffffffffffffffffffffffffffff1673ffffffffffffffffffffffffffffffffffffffff16815260200191505060405180910390f35b34801561029b57600080fd5b506102a4610a8e565b604051808260ff1660ff16815260200191505060405180910390f35b3480156102cc57600080fd5b506102d5610a93565b604051808273ffffffffffffffffffffffffffffffffffffffff1673ffffffffffffffffffffffffffffffffffffffff16815260200191505060405180910390f35b34801561032357600080fd5b5061032c610ab9565b604051808273ffffffffffffffffffffffffffffffffffffffff1673ffffffffffffffffffffffffffffffffffffffff16815260200191505060405180910390f35b34801561037a57600080fd5b50610383610adf565b60405180826000191660001916815260200191505060405180910390f35b3480156103ad57600080fd5b506103ef600480360381019080803573ffffffffffffffffffffffffffffffffffffffff169060200190929190803560ff169060200190929190505050610b03565b005b3480156103fd57600080fd5b5061042d6004803603810190808035600019169060200190929190803560ff169060200190929190505050610b29565b005b34801561043b57600080fd5b5061045a60048036038101908080359060200190929190505050610c20565b604051808273ffffffffffffffffffffffffffffffffffffffff1673ffffffffffffffffffffffffffffffffffffffff16815260200191505060405180910390f35b3480156104a857600080fd5b506104dd600480360381019080803573ffffffffffffffffffffffffffffffffffffffff169060200190929190505050611092565b604051808215151515815260200191505060405180910390f35b34801561050357600080fd5b5061050c6110b2565b005b34801561051a57600080fd5b5061054f600480360381019080803573ffffffffffffffffffffffffffffffffffffffff169060200190929190505050611184565b005b34801561055d57600080fd5b506105666111e9565b6040518082815260200191505060405180910390f35b34801561058857600080fd5b506105916111fa565b005b34801561059f57600080fd5b506105a8611457565b604051808260ff1660ff16815260200191505060405180910390f35b3480156105d057600080fd5b506105d961145c565b604051808273ffffffffffffffffffffffffffffffffffffffff1673ffffffffffffffffffffffffffffffffffffffff16815260200191505060405180910390f35b34801561062757600080fd5b50610630611485565b604051808215151515815260200191505060405180910390f35b34801561065657600080fd5b5061065f6114dc565b005b34801561066d57600080fd5b506106a2600480360381019080803573ffffffffffffffffffffffffffffffffffffffff1690602001909291905050506116c5565b005b3480156106b057600080fd5b506106ec6004803603810190808035600019169060200190929190803560ff169060200190929190803515159060200190929190505050611c6c565b005b3480156106fa57600080fd5b506107356004803603810190808035600019169060200190929190803590602001908201803590602001919091929391929390505050611f00565b005b34801561074357600080fd5b5061074c6122de565b6040518082815260200191505060405180910390f35b34801561076e57600080fd5b506107776122ea565b604051808273ffffffffffffffffffffffffffffffffffffffff1673ffffffffffffffffffffffffffffffffffffffff16815260200191505060405180910390f35b610825600480360381019080803573ffffffffffffffffffffffffffffffffffffffff169060200190929190803573ffffffffffffffffffffffffffffffffffffffff169060200190929190803590602001909291908035600019169060200190929190505050612310565b6040518083600019166000191681526020018260ff1660ff1681526020019250505060405180910390f35b34801561085c57600080fd5b50610891600480360381019080803573ffffffffffffffffffffffffffffffffffffffff169060200190929190505050612929565b005b34801561089f57600080fd5b506108a8612948565b604051808273ffffffffffffffffffffffffffffffffffffffff1673ffffffffffffffffffffffffffffffffffffffff16815260200191505060405180910390f35b3480156108f657600080fd5b5061092b600480360381019080803573ffffffffffffffffffffffffffffffffffffffff16906020019092919050505061296e565b6040518082815260200191505060405180910390f35b34801561094d57600080fd5b50610982600480360381019080803573ffffffffffffffffffffffffffffffffffffffff169060200190929190505050612986565b604051808261ffff1661ffff16815260200191505060405180910390f35b600060011515600160009054906101000a900460ff1615151415156109c457600080fd5b600780549050905090565b6109d7611485565b15156109e257600080fd5b6001600960008373ffffffffffffffffffffffffffffffffffffffff1673ffffffffffffffffffffffffffffffffffffffff16815260200190815260200160002060006101000a81548160ff02191690831515021790555050565b600160009054906101000a900460ff1681565b600781815481101515610a5f57fe5b906000526020600020016000915054906101000a900473ffffffffffffffffffffffffffffffffffffffff1681565b600181565b601060009054906101000a900473ffffffffffffffffffffffffffffffffffffffff1681565b600260009054906101000a900473ffffffffffffffffffffffffffffffffffffffff1681565b7f302e362e3000000000000000000000000000000000000000000000000000000081565b60011515600160009054906101000a900460ff161515141515610b2557600080fd5b5050565b601060009054906101000a900473ffffffffffffffffffffffffffffffffffffffff1673ffffffffffffffffffffffffffffffffffffffff1663c9b7b25b8333846040518463ffffffff167c01000000000000000000000000000000000000000000000000000000000281526004018084600019166000191681526020018373ffffffffffffffffffffffffffffffffffffffff1673ffffffffffffffffffffffffffffffffffffffff1681526020018260ff1660ff1681526020019350505050600060405180830381600087803b158015610c0457600080fd5b505af1158015610c18573d6000803e3d6000fd5b505050505050565b60008060011515600160009054906101000a900460ff161515141515610c4557600080fd5b60011515600960003373ffffffffffffffffffffffffffffffffffffffff1673ffffffffffffffffffffffffffffffffffffffff16815260200190815260200160002060009054906101000a900460ff161515141515610ca457600080fd5b3273ffffffffffffffffffffffffffffffffffffffff163373ffffffffffffffffffffffffffffffffffffffff16141515610cde57600080fd5b600d600780549050101515610cf257600080fd5b60018310151515610d6b576040517f08c379a000000000000000000000000000000000000000000000000000000000815260040180806020018281038252601d8152602001807f4552524f525f494e56414c49445f434f4d505554494e475f505249434500000081525060200191505060405180910390fd5b600260009054906101000a900473ffffffffffffffffffffffffffffffffffffffff1673ffffffffffffffffffffffffffffffffffffffff166395eeab136040518163ffffffff167c0100000000000000000000000000000000000000000000000000000000028152600401600060405180830381600087803b158015610df157600080fd5b505af1158015610e05573d6000803e3d6000fd5b50505050600660009054906101000a900473ffffffffffffffffffffffffffffffffffffffff1673ffffffffffffffffffffffffffffffffffffffff1663ffe5725f33600260009054906101000a900473ffffffffffffffffffffffffffffffffffffffff16866040518463ffffffff167c0100000000000000000000000000000000000000000000000000000000028152600401808473ffffffffffffffffffffffffffffffffffffffff1673ffffffffffffffffffffffffffffffffffffffff1681526020018373ffffffffffffffffffffffffffffffffffffffff1673ffffffffffffffffffffffffffffffffffffffff1681526020018281526020019350505050602060405180830381600087803b158015610f2457600080fd5b505af1158015610f38573d6000803e3d6000fd5b505050506040513d6020811015610f4e57600080fd5b8101908080519060200190929190505050905060078190806001815401808255809150509060018203906000526020600020016000909192909190916101000a81548173ffffffffffffffffffffffffffffffffffffffff021916908373ffffffffffffffffffffffffffffffffffffffff16021790555050600780549050600860008373ffffffffffffffffffffffffffffffffffffffff1673ffffffffffffffffffffffffffffffffffffffff16815260200190815260200160002060006101000a81548161ffff021916908361ffff1602179055507f093794466f44429afc8d8ec2c4c7f42c98d5db9b3db965ce46a31e7d4f7c29c881604051808273ffffffffffffffffffffffffffffffffffffffff1673ffffffffffffffffffffffffffffffffffffffff16815260200191505060405180910390a180915050919050565b60096020528060005260406000206000915054906101000a900460ff1681565b6110ba611485565b15156110c557600080fd5b600073ffffffffffffffffffffffffffffffffffffffff166001809054906101000a900473ffffffffffffffffffffffffffffffffffffffff1673ffffffffffffffffffffffffffffffffffffffff167f8be0079c531659141344cd1fd0a4f28419497f9722a3daafe3b4186f6b6457e060405160405180910390a360006001806101000a81548173ffffffffffffffffffffffffffffffffffffffff021916908373ffffffffffffffffffffffffffffffffffffffff160217905550565b61118c611485565b151561119757600080fd5b600960008273ffffffffffffffffffffffffffffffffffffffff1673ffffffffffffffffffffffffffffffffffffffff16815260200190815260200160002060006101000a81549060ff021916905550565b60006111f5600d6129a7565b905090565b611202611485565b151561120d57600080fd5b6040805190810160405280600a81526020017f696e697469616c697a6500000000000000000000000000000000000000000000815250600015156000826040518082805190602001908083835b60208310151561127f578051825260208201915060208101905060208303925061125a565b6001836020036101000a038019825116818451168082178552505050505050905001915050908152602001604051809103902060009054906101000a900460ff1615151415156112ce57600080fd5b3073ffffffffffffffffffffffffffffffffffffffff16600660009054906101000a900473ffffffffffffffffffffffffffffffffffffffff1673ffffffffffffffffffffffffffffffffffffffff16638da5cb5b6040518163ffffffff167c0100000000000000000000000000000000000000000000000000000000028152600401602060405180830381600087803b15801561136b57600080fd5b505af115801561137f573d6000803e3d6000fd5b505050506040513d602081101561139557600080fd5b810190808051906020019092919050505073ffffffffffffffffffffffffffffffffffffffff161415156113c857600080fd5b6113d06129be565b60016000826040518082805190602001908083835b60208310151561140a57805182526020820191506020810190506020830392506113e5565b6001836020036101000a038019825116818451168082178552505050505050905001915050908152602001604051809103902060006101000a81548160ff02191690831515021790555050565b600081565b60006001809054906101000a900473ffffffffffffffffffffffffffffffffffffffff16905090565b60006001809054906101000a900473ffffffffffffffffffffffffffffffffffffffff1673ffffffffffffffffffffffffffffffffffffffff163373ffffffffffffffffffffffffffffffffffffffff1614905090565b6114e46139ab565b600080600080606060008060606000806114fe600d6129a7565b995060018a60ff16116115115789611514565b60015b9950600098505b8960ff168960ff1610156116b8575a97506115346129da565b9650600087111515611545576116b8565b61154e87612bcc565b9550855194508685141515611562576116b8565b61157685600d612e7990919063ffffffff16565b1515611581576116b8565b61158b600d612ea2565b809550819c5050506115a1868c60800151612ed1565b92506115ad8b84613075565b91507f11a21264ecb93e14000906dc00b4753fd6eec24f9f0f1b4305a1a04740b3023e8260405180826000191660001916815260200191505060405180910390a13a5a8961dea801030290508381116116065780611608565b835b90503373ffffffffffffffffffffffffffffffffffffffff166108fc829081150290604051600060405180830381858888f19350505050158015611650573d6000803e3d6000fd5b5060008185031415156116ab578a6060015173ffffffffffffffffffffffffffffffffffffffff166108fc8286039081150290604051600060405180830381858888f193505050501580156116a9573d6000803e3d6000fd5b505b888060010199505061151b565b5050505050505050505050565b60008060011515600160009054906101000a900460ff1615151415156116ea57600080fd5b3373ffffffffffffffffffffffffffffffffffffffff168373ffffffffffffffffffffffffffffffffffffffff16638da5cb5b6040518163ffffffff167c0100000000000000000000000000000000000000000000000000000000028152600401602060405180830381600087803b15801561176557600080fd5b505af1158015611779573d6000803e3d6000fd5b505050506040513d602081101561178f57600080fd5b810190808051906020019092919050505073ffffffffffffffffffffffffffffffffffffffff161415156117c257600080fd5b8273ffffffffffffffffffffffffffffffffffffffff1663ae897c556040518163ffffffff167c0100000000000000000000000000000000000000000000000000000000028152600401602060405180830381600087803b15801561182657600080fd5b505af115801561183a573d6000803e3d6000fd5b505050506040513d602081101561185057600080fd5b810190808051906020019092919050505060ff168373ffffffffffffffffffffffffffffffffffffffff16630c3f6acf6040518163ffffffff167c0100000000000000000000000000000000000000000000000000000000028152600401602060405180830381600087803b1580156118c857600080fd5b505af11580156118dc573d6000803e3d6000fd5b505050506040513d60208110156118f257600080fd5b810190808051906020019092919050505060ff1614151561191257600080fd5b6000600860008573ffffffffffffffffffffffffffffffffffffffff1673ffffffffffffffffffffffffffffffffffffffff16815260200190815260200160002060009054906101000a900461ffff1661ffff161415151561197357600080fd5b8273ffffffffffffffffffffffffffffffffffffffff166383197ef06040518163ffffffff167c0100000000000000000000000000000000000000000000000000000000028152600401600060405180830381600087803b1580156119d757600080fd5b505af11580156119eb573d6000803e3d6000fd5b505050506001600860008573ffffffffffffffffffffffffffffffffffffffff1673ffffffffffffffffffffffffffffffffffffffff16815260200190815260200160002060009054906101000a900461ffff16039150600860008473ffffffffffffffffffffffffffffffffffffffff1673ffffffffffffffffffffffffffffffffffffffff16815260200190815260200160002060006101000a81549061ffff02191690556001600780549050038261ffff16141515611ba9576007600160078054905003815481101515611abe57fe5b9060005260206000200160009054906101000a900473ffffffffffffffffffffffffffffffffffffffff1690508060078361ffff16815481101515611aff57fe5b9060005260206000200160006101000a81548173ffffffffffffffffffffffffffffffffffffffff021916908373ffffffffffffffffffffffffffffffffffffffff16021790555060018201600860008373ffffffffffffffffffffffffffffffffffffffff1673ffffffffffffffffffffffffffffffffffffffff16815260200190815260200160002060006101000a81548161ffff021916908361ffff160217905550611bee565b6007600160078054905003815481101515611bc057fe5b9060005260206000200160006101000a81549073ffffffffffffffffffffffffffffffffffffffff02191690555b6007805480919060019003611c039190613a31565b507f677f03e392472a48b617167ed4dbec758d26d8517257ec077bed2d27d192816483604051808273ffffffffffffffffffffffffffffffffffffffff1673ffffffffffffffffffffffffffffffffffffffff16815260200191505060405180910390a1505050565b600260009054906101000a900473ffffffffffffffffffffffffffffffffffffffff1673ffffffffffffffffffffffffffffffffffffffff1663a27ef1bc336040518263ffffffff167c0100000000000000000000000000000000000000000000000000000000028152600401808273ffffffffffffffffffffffffffffffffffffffff1673ffffffffffffffffffffffffffffffffffffffff168152602001915050602060405180830381600087803b158015611d2957600080fd5b505af1158015611d3d573d6000803e3d6000fd5b505050506040513d6020811015611d5357600080fd5b81019080805190602001909291905050501515611dd8576040517f08c379a00000000000000000000000000000000000000000000000000000000081526004018080602001828103825260208152602001807f4552524f525f4e454741544956455f574f524b45525f4e4f44455f5354414b4581525060200191505060405180910390fd5b601060009054906101000a900473ffffffffffffffffffffffffffffffffffffffff1673ffffffffffffffffffffffffffffffffffffffff16634e5613c3843385856040518563ffffffff167c01000000000000000000000000000000000000000000000000000000000281526004018085600019166000191681526020018473ffffffffffffffffffffffffffffffffffffffff1673ffffffffffffffffffffffffffffffffffffffff1681526020018360ff1660ff16815260200182151515158152602001945050505050602060405180830381600087803b158015611ebf57600080fd5b505af1158015611ed3573d6000803e3d6000fd5b505050506040513d6020811015611ee957600080fd5b810190808051906020019092919050505050505050565b600060606000601060009054906101000a900473ffffffffffffffffffffffffffffffffffffffff1673ffffffffffffffffffffffffffffffffffffffff16633b183eb5873388886040518563ffffffff167c01000000000000000000000000000000000000000000000000000000000281526004018085600019166000191681526020018473ffffffffffffffffffffffffffffffffffffffff1673ffffffffffffffffffffffffffffffffffffffff168152602001806020018281038252848482818152602001925080828437820191505095505050505050602060405180830381600087803b158015611ff557600080fd5b505af1158015612009573d6000803e3d6000fd5b505050506040513d602081101561201f57600080fd5b8101908080519060200190929190505050156122d657601060009054906101000a900473ffffffffffffffffffffffffffffffffffffffff1673ffffffffffffffffffffffffffffffffffffffff166339d9de64876040518263ffffffff167c0100000000000000000000000000000000000000000000000000000000028152600401808260001916600019168152602001915050600060405180830381600087803b1580156120ce57600080fd5b505af11580156120e2573d6000803e3d6000fd5b505050506040513d6000823e3d601f19601f8201168201806040525060e081101561210c57600080fd5b8101908080519060200190929190805190602001909291908051906020019092919080519060200190929190805164010000000081111561214c57600080fd5b8281019050602081018481111561216257600080fd5b815185602082028301116401000000008211171561217f57600080fd5b5050929190602001805190602001909291908051906020019092919050505090919293949550909192939450909192509050508093508194505050600090505b81518110156122d557600a60009054906101000a900473ffffffffffffffffffffffffffffffffffffffff1673ffffffffffffffffffffffffffffffffffffffff1663e6808ff0838381518110151561221457fe5b9060200190602002015184518681151561222a57fe5b046040518363ffffffff167c0100000000000000000000000000000000000000000000000000000000028152600401808373ffffffffffffffffffffffffffffffffffffffff1673ffffffffffffffffffffffffffffffffffffffff16815260200182815260200192505050600060405180830381600087803b1580156122b057600080fd5b505af11580156122c4573d6000803e3d6000fd5b5050505080806001019150506121bf565b5b505050505050565b6706f05b59d3b2000081565b600a60009054906101000a900473ffffffffffffffffffffffffffffffffffffffff1681565b6000806000806060808873ffffffffffffffffffffffffffffffffffffffff166387ea09616040518163ffffffff167c0100000000000000000000000000000000000000000000000000000000028152600401602060405180830381600087803b15801561237d57600080fd5b505af1158015612391573d6000803e3d6000fd5b505050506040513d60208110156123a757600080fd5b81019080805190602001909291905050509350600a8460ff16111515156123cd57600080fd5b8360ff1688101515156123df57600080fd5b8873ffffffffffffffffffffffffffffffffffffffff1663b1f8d9ba6040518163ffffffff167c0100000000000000000000000000000000000000000000000000000000028152600401602060405180830381600087803b15801561244357600080fd5b505af1158015612457573d6000803e3d6000fd5b505050506040513d602081101561246d57600080fd5b81019080805190602001909291905050508a73ffffffffffffffffffffffffffffffffffffffff1663b1f8d9ba6040518163ffffffff167c0100000000000000000000000000000000000000000000000000000000028152600401602060405180830381600087803b1580156124e257600080fd5b505af11580156124f6573d6000803e3d6000fd5b505050506040513d602081101561250c57600080fd5b810190808051906020019092919050505014151561252957600080fd5b6706f05b59d3b20000341015151561254057600080fd5b43600d60000180549050601060009054906101000a900473ffffffffffffffffffffffffffffffffffffffff1673ffffffffffffffffffffffffffffffffffffffff1663ead4d6796040518163ffffffff167c0100000000000000000000000000000000000000000000000000000000028152600401602060405180830381600087803b1580156125d057600080fd5b505af11580156125e4573d6000803e3d6000fd5b505050506040513d60208110156125fa57600080fd5b8101908080519060200190929190505050601060009054906101000a900473ffffffffffffffffffffffffffffffffffffffff1673ffffffffffffffffffffffffffffffffffffffff16635c2b37fa6040518163ffffffff167c0100000000000000000000000000000000000000000000000000000000028152600401602060405180830381600087803b15801561269157600080fd5b505af11580156126a5573d6000803e3d6000fd5b505050506040513d60208110156126bb57600080fd5b8101908080519060200190929190505050010101604051602001808281526020019150506040516020818303038152906040526040518082805190602001908083835b60208310151561272357805182526020820191506020810190506020830392506126fe565b6001836020036101000a0380198251168184511680821785525050505050509050019150506040518091039020955061275a6129da565b92508360ff168310156128695761278c868b8b33348960ff168e8e600d6130c89098979695949392919063ffffffff16565b6127de34600b60003373ffffffffffffffffffffffffffffffffffffffff1673ffffffffffffffffffffffffffffffffffffffff168152602001908152602001600020546132d990919063ffffffff16565b600b60003373ffffffffffffffffffffffffffffffffffffffff1673ffffffffffffffffffffffffffffffffffffffff16815260200190815260200160002081905550600094507f2c45d5fba2a924464674ba6274086714ee596687cf6a6110111b80abe05f28b38660405180826000191660001916815260200191505060405180910390a161291c565b3373ffffffffffffffffffffffffffffffffffffffff166108fc349081150290604051600060405180830381858888f193505050501580156128af573d6000803e3d6000fd5b506128b983612bcc565b91506128c8828560ff16612ed1565b90506128d8868b8b848c8c6132fa565b600194507f11a21264ecb93e14000906dc00b4753fd6eec24f9f0f1b4305a1a04740b3023e8660405180826000191660001916815260200191505060405180910390a15b5050505094509492505050565b612931611485565b151561293c57600080fd5b61294581613617565b50565b600660009054906101000a900473ffffffffffffffffffffffffffffffffffffffff1681565b600b6020528060005260406000206000915090505481565b60086020528060005260406000206000915054906101000a900461ffff1681565b600081600201548260000180549050039050919050565b60018060006101000a81548160ff021916908315150217905550565b60008060009150600090505b600780549050811015612bc557600781815481101515612a0257fe5b9060005260206000200160009054906101000a900473ffffffffffffffffffffffffffffffffffffffff1673ffffffffffffffffffffffffffffffffffffffff1663ae897c556040518163ffffffff167c0100000000000000000000000000000000000000000000000000000000028152600401602060405180830381600087803b158015612a9057600080fd5b505af1158015612aa4573d6000803e3d6000fd5b505050506040513d6020811015612aba57600080fd5b810190808051906020019092919050505060ff16600782815481101515612add57fe5b9060005260206000200160009054906101000a900473ffffffffffffffffffffffffffffffffffffffff1673ffffffffffffffffffffffffffffffffffffffff16630c3f6acf6040518163ffffffff167c0100000000000000000000000000000000000000000000000000000000028152600401602060405180830381600087803b158015612b6b57600080fd5b505af1158015612b7f573d6000803e3d6000fd5b505050506040513d6020811015612b9557600080fd5b810190808051906020019092919050505060ff161415612bb85781806001019250505b80806001019150506129e6565b8191505090565b60608060008084604051908082528060200260200182016040528015612c015781602001602082028038833980820191505090505b50925060009150600090505b600780549050811015612e6e57600781815481101515612c2957fe5b9060005260206000200160009054906101000a900473ffffffffffffffffffffffffffffffffffffffff1673ffffffffffffffffffffffffffffffffffffffff1663ae897c556040518163ffffffff167c0100000000000000000000000000000000000000000000000000000000028152600401602060405180830381600087803b158015612cb757600080fd5b505af1158015612ccb573d6000803e3d6000fd5b505050506040513d6020811015612ce157600080fd5b810190808051906020019092919050505060ff16600782815481101515612d0457fe5b9060005260206000200160009054906101000a900473ffffffffffffffffffffffffffffffffffffffff1673ffffffffffffffffffffffffffffffffffffffff16630c3f6acf6040518163ffffffff167c0100000000000000000000000000000000000000000000000000000000028152600401602060405180830381600087803b158015612d9257600080fd5b505af1158015612da6573d6000803e3d6000fd5b505050506040513d6020811015612dbc57600080fd5b810190808051906020019092919050505060ff161415612e6157600781815481101515612de557fe5b9060005260206000200160009054906101000a900473ffffffffffffffffffffffffffffffffffffffff168383806001019450815181101515612e2457fe5b9060200190602002019073ffffffffffffffffffffffffffffffffffffffff16908173ffffffffffffffffffffffffffffffffffffffff16815250505b8080600101915050612c0d565b829350505050919050565b6000612e836139ab565b612e8c84613711565b5080915050828160800151111591505092915050565b612eaa6139ab565b6000612eb583613711565b8092508193505050612ec6836138b0565b818191509150915091565b606060008083604051908082528060200260200182016040528015612f055781602001602082028038833980820191505090505b509250600c60009054906101000a900473ffffffffffffffffffffffffffffffffffffffff1673ffffffffffffffffffffffffffffffffffffffff1663cd4b691484516040518263ffffffff167c010000000000000000000000000000000000000000000000000000000002815260040180828152602001915050602060405180830381600087803b158015612f9a57600080fd5b505af1158015612fae573d6000803e3d6000fd5b505050506040513d6020811015612fc457600080fd5b81019080805190602001909291905050509150600090505b825181101561306d578482815181101515612ff357fe5b90602001906020020151838281518110151561300b57fe5b9060200190602002019073ffffffffffffffffffffffffffffffffffffffff16908173ffffffffffffffffffffffffffffffffffffffff16815250506001835103821461305b576001820161305e565b60005b91508080600101915050612fdc565b505092915050565b600060011515600160009054906101000a900460ff16151514151561309957600080fd5b6130bb836000015184602001518560400151858760a001518860c001516132fa565b8260000151905092915050565b886000018054905060018a60000180549050011115156130e757600080fd5b8860000160e0604051908101604052808a6000191681526020018973ffffffffffffffffffffffffffffffffffffffff1681526020018873ffffffffffffffffffffffffffffffffffffffff1681526020018773ffffffffffffffffffffffffffffffffffffffff1681526020018581526020018481526020018360001916815250908060018154018082558091505090600182039060005260206000209060070201600090919290919091506000820151816000019060001916905560208201518160010160006101000a81548173ffffffffffffffffffffffffffffffffffffffff021916908373ffffffffffffffffffffffffffffffffffffffff16021790555060408201518160020160006101000a81548173ffffffffffffffffffffffffffffffffffffffff021916908373ffffffffffffffffffffffffffffffffffffffff16021790555060608201518160030160006101000a81548173ffffffffffffffffffffffffffffffffffffffff021916908373ffffffffffffffffffffffffffffffffffffffff1602179055506080820151816004015560a0820151816005015560c0820151816006019060001916905550505088600101849080600181540180825580915050906001820390600052602060002001600090919290919091505550505050505050505050565b60008082840190508381101515156132f057600080fd5b8091505092915050565b606060008060011515600160009054906101000a900460ff16151514151561332157600080fd5b85516040519080825280602002602001820160405280156133515781602001602082028038833980820191505090505b509250600091505b82518210156133d157858281518110151561337057fe5b90602001906020020151838381518110151561338857fe5b9060200190602002019073ffffffffffffffffffffffffffffffffffffffff16908173ffffffffffffffffffffffffffffffffffffffff16815250508180600101925050613359565b601060009054906101000a900473ffffffffffffffffffffffffffffffffffffffff1673ffffffffffffffffffffffffffffffffffffffff166347d9eee98a8a8a878a8a6040518763ffffffff167c01000000000000000000000000000000000000000000000000000000000281526004018087600019166000191681526020018673ffffffffffffffffffffffffffffffffffffffff1673ffffffffffffffffffffffffffffffffffffffff1681526020018573ffffffffffffffffffffffffffffffffffffffff1673ffffffffffffffffffffffffffffffffffffffff168152602001806020018481526020018360001916600019168152602001828103825285818151815260200191508051906020019060200280838360005b838110156135095780820151818401526020810190506134ee565b50505050905001975050505050505050600060405180830381600087803b15801561353357600080fd5b505af1158015613547573d6000803e3d6000fd5b50505050600090505b855181101561360c57858181518110151561356757fe5b9060200190602002015173ffffffffffffffffffffffffffffffffffffffff16637aee7e098a6040518263ffffffff167c0100000000000000000000000000000000000000000000000000000000028152600401808260001916600019168152602001915050600060405180830381600087803b1580156135e757600080fd5b505af11580156135fb573d6000803e3d6000fd5b505050508080600101915050613550565b505050505050505050565b600073ffffffffffffffffffffffffffffffffffffffff168173ffffffffffffffffffffffffffffffffffffffff161415151561365357600080fd5b8073ffffffffffffffffffffffffffffffffffffffff166001809054906101000a900473ffffffffffffffffffffffffffffffffffffffff1673ffffffffffffffffffffffffffffffffffffffff167f8be0079c531659141344cd1fd0a4f28419497f9722a3daafe3b4186f6b6457e060405160405180910390a3806001806101000a81548173ffffffffffffffffffffffffffffffffffffffff021916908373ffffffffffffffffffffffffffffffffffffffff16021790555050565b6137196139ab565b600082600001836002015481548110151561373057fe5b906000526020600020906007020183600101846002015481548110151561375357fe5b90600052602060002001548160e060405190810160405290816000820154600019166000191681526020016001820160009054906101000a900473ffffffffffffffffffffffffffffffffffffffff1673ffffffffffffffffffffffffffffffffffffffff1673ffffffffffffffffffffffffffffffffffffffff1681526020016002820160009054906101000a900473ffffffffffffffffffffffffffffffffffffffff1673ffffffffffffffffffffffffffffffffffffffff1673ffffffffffffffffffffffffffffffffffffffff1681526020016003820160009054906101000a900473ffffffffffffffffffffffffffffffffffffffff1673ffffffffffffffffffffffffffffffffffffffff1673ffffffffffffffffffffffffffffffffffffffff16815260200160048201548152602001600582015481526020016006820154600019166000191681525050915091509150915091565b80600201600081548092919060010191905055508060000160018260020154038154811015156138dc57fe5b90600052602060002090600702016000808201600090556001820160006101000a81549073ffffffffffffffffffffffffffffffffffffffff02191690556002820160006101000a81549073ffffffffffffffffffffffffffffffffffffffff02191690556003820160006101000a81549073ffffffffffffffffffffffffffffffffffffffff0219169055600482016000905560058201600090556006820160009055505080600101600182600201540381548110151561399a57fe5b906000526020600020016000905550565b60e06040519081016040528060008019168152602001600073ffffffffffffffffffffffffffffffffffffffff168152602001600073ffffffffffffffffffffffffffffffffffffffff168152602001600073ffffffffffffffffffffffffffffffffffffffff1681526020016000815260200160008152602001600080191681525090565b815481835581811115613a5857818360005260206000209182019101613a579190613a5d565b5b505050565b613a7f91905b80821115613a7b576000816000905550600101613a63565b5090565b905600a165627a7a723058204067bac83ca2618b8f4a7710222a35a3ff02ab008072fe871d8aef99e60cafc80029608060405234801561001057600080fd5b5043600181905550610216806100276000396000f300608060405260043610610041576000357c0100000000000000000000000000000000000000000000000000000000900463ffffffff168063cd4b691414610046575b600080fd5b34801561005257600080fd5b5061007160048036038101908080359060200190929190505050610087565b6040518082815260200191505060405180910390f35b600060015443111561013a5743600181905550600a4303406001900443406001900401604051602001808281526020019150506040516020818303038152906040526040518082805190602001908083835b6020831015156100fe57805182526020820191506020810190506020830392506100d9565b6001836020036101000a0380198251168184511680821785525050505050509050019150506040518091039020600081600019169055506101d1565b6000546040516020018082600019166000191681526020019150506040516020818303038152906040526040518082805190602001908083835b6020831015156101995780518252602082019150602081019050602083039250610174565b6001836020036101000a0380198251168184511680821785525050505050509050019150506040518091039020600081600019169055505b81600054600190048115156101e257fe5b0690509190505600a165627a7a723058201ba3fced9b6c890462be9e5abcceeb59a4c5eacf6473625f2fd6e48fb69aceab0029",
  "source": "pragma solidity 0.4.24;\n\nimport \"../lifecycle/OnlyOnce.sol\";\nimport \"./factories/IWorkerNodeFactory.sol\";\nimport \"./managers/CognitiveJobManager.sol\";\nimport \"./managers/ICognitiveJobController.sol\";\n\n\n/**\n * @title Pandora Smart Contract\n * @author \"Dr Maxim Orlovsky\" <orlovsky@pandora.foundation>\n *\n * @dev # Pandora Smart Contract\n *\n * Main & root contract implementing the first level of Pandora Boxchain consensus\n * See section [\"3.3. Proof of Cognitive Work (PoCW)\" in Pandora white paper](https://steemit.com/cryptocurrency/%40pandoraboxchain/world-decentralized-ai-on-blockchain-with-cognitive-mining-and-open-markets-for-data-and-algorithms-pandora-boxchain)\n * for more details.\n *\n * Contract token functionality is separated into a separate contract named PAN (after the name of the token)\n * and Pandora contracts just simply inherits PAN contract.\n */\n\ncontract Pandora is OnlyOnce, CognitiveJobManager {\n\n    /*******************************************************************************************************************\n     * ## Storage\n     */\n\n    /// ### Public variables\n\n    bytes32 public constant version = \"0.6.0\";\n\n\n    /*******************************************************************************************************************\n     * ## Events\n     */\n\n\n    /*******************************************************************************************************************\n     * ## Constructor and initialization\n     */\n\n    /// ### Constructor\n    /// @dev Constructor receives addresses for the owners of whitelisted worker nodes, which will be assigned an owners\n    /// of worker nodes contracts\n    constructor(\n        ICognitiveJobController _jobController,\n        IEconomicController _economicController,\n        IWorkerNodeFactory _nodeFactory, /// Factory class for creating WorkerNode contracts\n        IReputation _reputation\n    ) public\n    CognitiveJobManager(_jobController, _economicController, _nodeFactory, _reputation)\n    // Ensure that the contract is still uninitialized and `initialize` function be called to check the proper\n    // setup of class factories\n    Initializable()\n    Ownable() {\n    }\n\n    /// ### Initialization\n    /// @notice Function that checks the proper setup of class factories. May be called only once and only by Pandora\n    /// contract owner.\n    /// @dev Function that checks the proper setup of class factories. May be called only once and only by Pandora\n    /// contract owner.\n    function initialize()\n    public\n    onlyOwner\n    onlyOnce(\"initialize\") {\n        // Checks that the factory contracts creator has assigned Pandora as an owner of the factory contracts:\n        // an important security measure preventing \"Parity-style\" contract bugs\n        require(workerNodeFactory.owner() == address(this));\n\n        Initializable.initialize();\n    }\n\n    /*******************************************************************************************************************\n     * ## Modifiers\n     */\n\n\n    /*******************************************************************************************************************\n     * ## Functions\n     */\n\n    /// ### Public and external\n}\n",
  "sourcePath": "/home/kostysh/dev/pyrrha-consensus/contracts/pandora/Pandora.sol",
  "compiler": {
    "name": "solc",
    "version": "0.4.24+commit.e67f0147.Emscripten.clang"
  },
  "schemaVersion": "2.0.1",
  "updatedAt": "2018-12-27T18:52:29.522Z"
}