{
  "contractName": "PandoraMarket",
  "abi": [
    {
      "constant": true,
      "inputs": [],
      "name": "STATUS_FAILED_CONTRACT",
      "outputs": [
        {
          "name": "",
          "type": "uint8"
        }
      ],
      "payable": false,
      "stateMutability": "view",
      "type": "function"
    },
    {
      "constant": true,
      "inputs": [
        {
          "name": "",
          "type": "uint256"
        }
      ],
      "name": "datasets",
      "outputs": [
        {
          "name": "",
          "type": "address"
        }
      ],
      "payable": false,
      "stateMutability": "view",
      "type": "function"
    },
    {
      "constant": true,
      "inputs": [],
      "name": "STATUS_ALREADY_EXISTS",
      "outputs": [
        {
          "name": "",
          "type": "uint8"
        }
      ],
      "payable": false,
      "stateMutability": "view",
      "type": "function"
    },
    {
      "constant": true,
      "inputs": [],
      "name": "STATUS_SUCCESS",
      "outputs": [
        {
          "name": "",
          "type": "uint8"
        }
      ],
      "payable": false,
      "stateMutability": "view",
      "type": "function"
    },
    {
      "constant": true,
      "inputs": [],
      "name": "STATUS_NO_SPACE",
      "outputs": [
        {
          "name": "",
          "type": "uint8"
        }
      ],
      "payable": false,
      "stateMutability": "view",
      "type": "function"
    },
    {
      "constant": true,
      "inputs": [
        {
          "name": "",
          "type": "address"
        }
      ],
      "name": "kernelMap",
      "outputs": [
        {
          "name": "",
          "type": "uint256"
        }
      ],
      "payable": false,
      "stateMutability": "view",
      "type": "function"
    },
    {
      "constant": true,
      "inputs": [],
      "name": "STATUS_NOT_EXISTS",
      "outputs": [
        {
          "name": "",
          "type": "uint8"
        }
      ],
      "payable": false,
      "stateMutability": "view",
      "type": "function"
    },
    {
      "constant": true,
      "inputs": [
        {
          "name": "",
          "type": "uint256"
        }
      ],
      "name": "kernels",
      "outputs": [
        {
          "name": "",
          "type": "address"
        }
      ],
      "payable": false,
      "stateMutability": "view",
      "type": "function"
    },
    {
      "constant": true,
      "inputs": [
        {
          "name": "",
          "type": "address"
        }
      ],
      "name": "datasetMap",
      "outputs": [
        {
          "name": "",
          "type": "uint256"
        }
      ],
      "payable": false,
      "stateMutability": "view",
      "type": "function"
    },
    {
      "inputs": [],
      "payable": false,
      "stateMutability": "nonpayable",
      "type": "constructor"
    },
    {
      "anonymous": false,
      "inputs": [
        {
          "indexed": false,
          "name": "kernel",
          "type": "address"
        }
      ],
      "name": "KernelAdded",
      "type": "event"
    },
    {
      "anonymous": false,
      "inputs": [
        {
          "indexed": false,
          "name": "dataset",
          "type": "address"
        }
      ],
      "name": "DatasetAdded",
      "type": "event"
    },
    {
      "anonymous": false,
      "inputs": [
        {
          "indexed": false,
          "name": "kernel",
          "type": "address"
        }
      ],
      "name": "KernelRemoved",
      "type": "event"
    },
    {
      "anonymous": false,
      "inputs": [
        {
          "indexed": false,
          "name": "dataset",
          "type": "address"
        }
      ],
      "name": "DatasetRemoved",
      "type": "event"
    },
    {
      "constant": true,
      "inputs": [],
      "name": "kernelsCount",
      "outputs": [
        {
          "name": "o_count",
          "type": "uint256"
        }
      ],
      "payable": false,
      "stateMutability": "view",
      "type": "function"
    },
    {
      "constant": true,
      "inputs": [],
      "name": "datasetsCount",
      "outputs": [
        {
          "name": "o_count",
          "type": "uint256"
        }
      ],
      "payable": false,
      "stateMutability": "view",
      "type": "function"
    },
    {
      "constant": false,
      "inputs": [
        {
          "name": "_kernel",
          "type": "address"
        }
      ],
      "name": "addKernel",
      "outputs": [
        {
          "name": "o_result",
          "type": "uint8"
        }
      ],
      "payable": false,
      "stateMutability": "nonpayable",
      "type": "function"
    },
    {
      "constant": false,
      "inputs": [
        {
          "name": "_dataset",
          "type": "address"
        }
      ],
      "name": "addDataset",
      "outputs": [
        {
          "name": "o_result",
          "type": "uint8"
        }
      ],
      "payable": false,
      "stateMutability": "nonpayable",
      "type": "function"
    },
    {
      "constant": false,
      "inputs": [
        {
          "name": "_kernel",
          "type": "address"
        }
      ],
      "name": "removeKernel",
      "outputs": [
        {
          "name": "o_result",
          "type": "uint8"
        }
      ],
      "payable": false,
      "stateMutability": "nonpayable",
      "type": "function"
    },
    {
      "constant": false,
      "inputs": [
        {
          "name": "_dataset",
          "type": "address"
        }
      ],
      "name": "removeDataset",
      "outputs": [
        {
          "name": "o_result",
          "type": "uint8"
        }
      ],
      "payable": false,
      "stateMutability": "nonpayable",
      "type": "function"
    }
  ],
  "bytecode": "0x6060604052341561000f57600080fd5b610de98061001e6000396000f3006060604052600436106100db576000357c0100000000000000000000000000000000000000000000000000000000900463ffffffff1680630125f62b146100e0578063015f51481461010f5780631cff85e1146101625780631d184132146101c557806330ce4b53146101f4578063379c131e1461021d578063433e0358146102465780638855e0921461029957806399951408146102c8578063a14bcc0e146102f7578063caa27f821461034a578063d21dca9f14610397578063d4f6ab79146103c6578063d572dca514610429578063e691aec41461047c575b600080fd5b34156100eb57600080fd5b6100f36104c9565b604051808260ff1660ff16815260200191505060405180910390f35b341561011a57600080fd5b610146600480803573ffffffffffffffffffffffffffffffffffffffff169060200190919050506104ce565b604051808260ff1660ff16815260200191505060405180910390f35b341561016d57600080fd5b6101836004808035906020019091905050610708565b604051808273ffffffffffffffffffffffffffffffffffffffff1673ffffffffffffffffffffffffffffffffffffffff16815260200191505060405180910390f35b34156101d057600080fd5b6101d8610747565b604051808260ff1660ff16815260200191505060405180910390f35b34156101ff57600080fd5b61020761074c565b6040518082815260200191505060405180910390f35b341561022857600080fd5b610230610759565b6040518082815260200191505060405180910390f35b341561025157600080fd5b61027d600480803573ffffffffffffffffffffffffffffffffffffffff16906020019091905050610766565b604051808260ff1660ff16815260200191505060405180910390f35b34156102a457600080fd5b6102ac6108f7565b604051808260ff1660ff16815260200191505060405180910390f35b34156102d357600080fd5b6102db6108fc565b604051808260ff1660ff16815260200191505060405180910390f35b341561030257600080fd5b61032e600480803573ffffffffffffffffffffffffffffffffffffffff16906020019091905050610901565b604051808260ff1660ff16815260200191505060405180910390f35b341561035557600080fd5b610381600480803573ffffffffffffffffffffffffffffffffffffffff16906020019091905050610a92565b6040518082815260200191505060405180910390f35b34156103a257600080fd5b6103aa610aaa565b604051808260ff1660ff16815260200191505060405180910390f35b34156103d157600080fd5b6103e76004808035906020019091905050610aaf565b604051808273ffffffffffffffffffffffffffffffffffffffff1673ffffffffffffffffffffffffffffffffffffffff16815260200191505060405180910390f35b341561043457600080fd5b610460600480803573ffffffffffffffffffffffffffffffffffffffff16906020019091905050610aee565b604051808260ff1660ff16815260200191505060405180910390f35b341561048757600080fd5b6104b3600480803573ffffffffffffffffffffffffffffffffffffffff16906020019091905050610d28565b6040518082815260200191505060405180910390f35b600081565b600080600080600760008673ffffffffffffffffffffffffffffffffffffffff1673ffffffffffffffffffffffffffffffffffffffff168152602001908152602001600020549250600083141561052b5760049350839350610700565b600580549050915060056001830381548110151561054557fe5b906000526020600020900160009054906101000a900473ffffffffffffffffffffffffffffffffffffffff1690508060058481548110151561058357fe5b906000526020600020900160006101000a81548173ffffffffffffffffffffffffffffffffffffffff021916908373ffffffffffffffffffffffffffffffffffffffff1602179055506000600760008773ffffffffffffffffffffffffffffffffffffffff1673ffffffffffffffffffffffffffffffffffffffff1681526020019081526020016000208190555082600760008373ffffffffffffffffffffffffffffffffffffffff1673ffffffffffffffffffffffffffffffffffffffff1681526020019081526020016000208190555060056001830381548110151561066757fe5b906000526020600020900160006101000a81549073ffffffffffffffffffffffffffffffffffffffff02191690557f8c915c9fd390f8f4da90f661dd26612aeafd3908a283036d02540aa4053d1f6a85604051808273ffffffffffffffffffffffffffffffffffffffff1673ffffffffffffffffffffffffffffffffffffffff16815260200191505060405180910390a1600193508393505b505050919050565b60058181548110151561071757fe5b90600052602060002090016000915054906101000a900473ffffffffffffffffffffffffffffffffffffffff1681565b600381565b6000600480549050905090565b6000600580549050905090565b600063fffffffe60048054905010151561078657600290508090506108f2565b6000600660008473ffffffffffffffffffffffffffffffffffffffff1673ffffffffffffffffffffffffffffffffffffffff168152602001908152602001600020541415156107db57600390508090506108f2565b600480548060010182816107ef9190610d40565b9160005260206000209001600084909190916101000a81548173ffffffffffffffffffffffffffffffffffffffff021916908373ffffffffffffffffffffffffffffffffffffffff16021790555050600480549050600660008473ffffffffffffffffffffffffffffffffffffffff1673ffffffffffffffffffffffffffffffffffffffff168152602001908152602001600020819055507fcf31165d5ed409961af0e533d1df52e392ca2a050a9e73c406bb1ccb683cc5ba82604051808273ffffffffffffffffffffffffffffffffffffffff1673ffffffffffffffffffffffffffffffffffffffff16815260200191505060405180910390a1600190508090505b919050565b600181565b600281565b600063fffffffe6005805490501015156109215760029050809050610a8d565b6000600760008473ffffffffffffffffffffffffffffffffffffffff1673ffffffffffffffffffffffffffffffffffffffff168152602001908152602001600020541415156109765760039050809050610a8d565b6005805480600101828161098a9190610d6c565b9160005260206000209001600084909190916101000a81548173ffffffffffffffffffffffffffffffffffffffff021916908373ffffffffffffffffffffffffffffffffffffffff16021790555050600580549050600760008473ffffffffffffffffffffffffffffffffffffffff1673ffffffffffffffffffffffffffffffffffffffff168152602001908152602001600020819055507f0c4c9279435b64167addbdd51e76b8ef0cb6dd29fd131c486b1a276b4c6ad2b282604051808273ffffffffffffffffffffffffffffffffffffffff1673ffffffffffffffffffffffffffffffffffffffff16815260200191505060405180910390a1600190508090505b919050565b60066020528060005260406000206000915090505481565b600481565b600481815481101515610abe57fe5b90600052602060002090016000915054906101000a900473ffffffffffffffffffffffffffffffffffffffff1681565b600080600080600660008673ffffffffffffffffffffffffffffffffffffffff1673ffffffffffffffffffffffffffffffffffffffff1681526020019081526020016000205492506000831415610b4b5760049350839350610d20565b6004805490509150600460018303815481101515610b6557fe5b906000526020600020900160009054906101000a900473ffffffffffffffffffffffffffffffffffffffff16905080600484815481101515610ba357fe5b906000526020600020900160006101000a81548173ffffffffffffffffffffffffffffffffffffffff021916908373ffffffffffffffffffffffffffffffffffffffff1602179055506000600660008773ffffffffffffffffffffffffffffffffffffffff1673ffffffffffffffffffffffffffffffffffffffff1681526020019081526020016000208190555082600660008373ffffffffffffffffffffffffffffffffffffffff1673ffffffffffffffffffffffffffffffffffffffff16815260200190815260200160002081905550600460018303815481101515610c8757fe5b906000526020600020900160006101000a81549073ffffffffffffffffffffffffffffffffffffffff02191690557f71574028d614ed221ccaf33bd6f2c3f152ab7832b2f3f755f744bbc96da75f5a85604051808273ffffffffffffffffffffffffffffffffffffffff1673ffffffffffffffffffffffffffffffffffffffff16815260200191505060405180910390a1600193508393505b505050919050565b60076020528060005260406000206000915090505481565b815481835581811511610d6757818360005260206000209182019101610d669190610d98565b5b505050565b815481835581811511610d9357818360005260206000209182019101610d929190610d98565b5b505050565b610dba91905b80821115610db6576000816000905550600101610d9e565b5090565b905600a165627a7a72305820a7f330623de15e7c5ebebc912ee6f0e8fe98d356a8a22285c9fe605f65608d800029",
  "source": "pragma solidity ^0.4.18;\n\nimport \"../entities/IKernel.sol\";\nimport \"../entities/IDataset.sol\";\nimport \"./IMarket.sol\";\n\ncontract PandoraMarket is IMarket {\n    IKernel[] public kernels;\n    IDataset[] public datasets;\n    mapping(address => uint256) public kernelMap;\n    mapping(address => uint256) public datasetMap;\n\n    /// @dev Since functions of destroyed contracts return zero then we have to reserve zero value as a special\n    /// indicator of the failed contract\n    uint8 public constant STATUS_FAILED_CONTRACT = 0;\n    uint8 public constant STATUS_SUCCESS = 1;\n    uint8 public constant STATUS_NO_SPACE = 2;\n    uint8 public constant STATUS_ALREADY_EXISTS = 3;\n    uint8 public constant STATUS_NOT_EXISTS = 4;\n\n    event KernelAdded(IKernel kernel);\n    event DatasetAdded(IDataset dataset);\n    event KernelRemoved(IKernel kernel);\n    event DatasetRemoved(IDataset dataset);\n\n    function PandoraMarket() {\n    }\n\n    function kernelsCount()\n    external\n    view\n    returns (\n        uint o_count\n    ) {\n        o_count = kernels.length;\n    }\n\n    function datasetsCount()\n    external\n    view\n    returns (\n        uint o_count\n    ) {\n        o_count = datasets.length;\n    }\n\n    function addKernel(\n        IKernel _kernel\n    )\n    external\n    returns (\n        uint8 o_result\n    ) {\n        if (kernels.length >= 0xFFFFFFFE) {\n            return o_result = STATUS_NO_SPACE;\n        }\n        if (kernelMap[address(_kernel)] != 0) {\n            return o_result = STATUS_ALREADY_EXISTS;\n        }\n        kernels.push(_kernel);\n        kernelMap[address(_kernel)] = kernels.length;\n        KernelAdded(_kernel);\n        return o_result = STATUS_SUCCESS;\n    }\n\n    function addDataset(\n        IDataset _dataset\n    )\n    external\n    returns (\n        uint8 o_result\n    ) {\n        if (datasets.length >= 0xFFFFFFFE) {\n            return o_result = STATUS_NO_SPACE;\n        }\n        if (datasetMap[address(_dataset)] != 0) {\n            return o_result = STATUS_ALREADY_EXISTS;\n        }\n        datasets.push(_dataset);\n        datasetMap[address(_dataset)] = datasets.length;\n        DatasetAdded(_dataset);\n        return o_result = STATUS_SUCCESS;\n    }\n\n    function removeKernel(\n        IKernel _kernel\n    )\n    external\n    returns (\n        uint8 o_result\n    ) {\n        uint256 pos = kernelMap[address(_kernel)];\n        if (pos == 0) {\n            return o_result = STATUS_NOT_EXISTS;\n        }\n\n        uint len = kernels.length;\n        IKernel lastKernel = kernels[len - 1];\n        kernels[pos] = lastKernel;\n        kernelMap[address(_kernel)] = 0;\n        kernelMap[address(lastKernel)] = pos;\n        delete kernels[len - 1];\n\n        KernelRemoved(_kernel);\n\n        return o_result = STATUS_SUCCESS;\n    }\n\n    function removeDataset(\n        IDataset _dataset\n    )\n    external\n    returns (\n        uint8 o_result\n    ) {\n        uint256 pos = datasetMap[address(_dataset)];\n        if (pos == 0) {\n            return o_result = STATUS_NOT_EXISTS;\n        }\n\n        uint len = datasets.length;\n        IDataset lastDataset = datasets[len - 1];\n        datasets[pos] = lastDataset;\n        datasetMap[address(_dataset)] = 0;\n        datasetMap[address(lastDataset)] = pos;\n        delete datasets[len - 1];\n\n        DatasetRemoved(_dataset);\n\n        return o_result = STATUS_SUCCESS;\n    }\n}\n",
  "sourcePath": "/home/kostysh/Dropbox/pandora/pyrrha-consensus/contracts/dmarket/PandoraMarket.sol",
  "compiler": {
    "name": "solc",
    "version": "0.4.21+commit.dfe3193c.Emscripten.clang"
  },
  "schemaVersion": "2.0.0",
  "updatedAt": "2018-04-07T18:04:43.040Z"
}