{
  "contractName": "PandoraMarket",
  "abi": [
    {
      "constant": true,
      "inputs": [],
      "name": "STATUS_FAILED_CONTRACT",
      "outputs": [
        {
          "name": "",
          "type": "uint8"
        }
      ],
      "payable": false,
      "stateMutability": "view",
      "type": "function"
    },
    {
      "constant": true,
      "inputs": [
        {
          "name": "",
          "type": "uint256"
        }
      ],
      "name": "datasets",
      "outputs": [
        {
          "name": "",
          "type": "address"
        }
      ],
      "payable": false,
      "stateMutability": "view",
      "type": "function"
    },
    {
      "constant": true,
      "inputs": [],
      "name": "STATUS_ALREADY_EXISTS",
      "outputs": [
        {
          "name": "",
          "type": "uint8"
        }
      ],
      "payable": false,
      "stateMutability": "view",
      "type": "function"
    },
    {
      "constant": true,
      "inputs": [],
      "name": "STATUS_SUCCESS",
      "outputs": [
        {
          "name": "",
          "type": "uint8"
        }
      ],
      "payable": false,
      "stateMutability": "view",
      "type": "function"
    },
    {
      "constant": true,
      "inputs": [],
      "name": "STATUS_NO_SPACE",
      "outputs": [
        {
          "name": "",
          "type": "uint8"
        }
      ],
      "payable": false,
      "stateMutability": "view",
      "type": "function"
    },
    {
      "constant": true,
      "inputs": [
        {
          "name": "",
          "type": "address"
        }
      ],
      "name": "kernelMap",
      "outputs": [
        {
          "name": "",
          "type": "uint256"
        }
      ],
      "payable": false,
      "stateMutability": "view",
      "type": "function"
    },
    {
      "constant": true,
      "inputs": [],
      "name": "STATUS_NOT_EXISTS",
      "outputs": [
        {
          "name": "",
          "type": "uint8"
        }
      ],
      "payable": false,
      "stateMutability": "view",
      "type": "function"
    },
    {
      "constant": true,
      "inputs": [
        {
          "name": "",
          "type": "uint256"
        }
      ],
      "name": "kernels",
      "outputs": [
        {
          "name": "",
          "type": "address"
        }
      ],
      "payable": false,
      "stateMutability": "view",
      "type": "function"
    },
    {
      "constant": true,
      "inputs": [
        {
          "name": "",
          "type": "address"
        }
      ],
      "name": "datasetMap",
      "outputs": [
        {
          "name": "",
          "type": "uint256"
        }
      ],
      "payable": false,
      "stateMutability": "view",
      "type": "function"
    },
    {
      "inputs": [],
      "payable": false,
      "stateMutability": "nonpayable",
      "type": "constructor"
    },
    {
      "anonymous": false,
      "inputs": [
        {
          "indexed": false,
          "name": "kernel",
          "type": "address"
        }
      ],
      "name": "KernelAdded",
      "type": "event"
    },
    {
      "anonymous": false,
      "inputs": [
        {
          "indexed": false,
          "name": "dataset",
          "type": "address"
        }
      ],
      "name": "DatasetAdded",
      "type": "event"
    },
    {
      "anonymous": false,
      "inputs": [
        {
          "indexed": false,
          "name": "kernel",
          "type": "address"
        }
      ],
      "name": "KernelRemoved",
      "type": "event"
    },
    {
      "anonymous": false,
      "inputs": [
        {
          "indexed": false,
          "name": "dataset",
          "type": "address"
        }
      ],
      "name": "DatasetRemoved",
      "type": "event"
    },
    {
      "constant": true,
      "inputs": [],
      "name": "kernelsCount",
      "outputs": [
        {
          "name": "o_count",
          "type": "uint256"
        }
      ],
      "payable": false,
      "stateMutability": "view",
      "type": "function"
    },
    {
      "constant": true,
      "inputs": [],
      "name": "datasetsCount",
      "outputs": [
        {
          "name": "o_count",
          "type": "uint256"
        }
      ],
      "payable": false,
      "stateMutability": "view",
      "type": "function"
    },
    {
      "constant": false,
      "inputs": [
        {
          "name": "_kernel",
          "type": "address"
        }
      ],
      "name": "addKernel",
      "outputs": [
        {
          "name": "o_result",
          "type": "uint8"
        }
      ],
      "payable": false,
      "stateMutability": "nonpayable",
      "type": "function"
    },
    {
      "constant": false,
      "inputs": [
        {
          "name": "_dataset",
          "type": "address"
        }
      ],
      "name": "addDataset",
      "outputs": [
        {
          "name": "o_result",
          "type": "uint8"
        }
      ],
      "payable": false,
      "stateMutability": "nonpayable",
      "type": "function"
    },
    {
      "constant": false,
      "inputs": [
        {
          "name": "_kernel",
          "type": "address"
        }
      ],
      "name": "removeKernel",
      "outputs": [
        {
          "name": "o_result",
          "type": "uint8"
        }
      ],
      "payable": false,
      "stateMutability": "nonpayable",
      "type": "function"
    },
    {
      "constant": false,
      "inputs": [
        {
          "name": "_dataset",
          "type": "address"
        }
      ],
      "name": "removeDataset",
      "outputs": [
        {
          "name": "o_result",
          "type": "uint8"
        }
      ],
      "payable": false,
      "stateMutability": "nonpayable",
      "type": "function"
    }
  ],
  "bytecode": "0x608060405234801561001057600080fd5b50610e77806100206000396000f3006080604052600436106100db576000357c0100000000000000000000000000000000000000000000000000000000900463ffffffff1680630125f62b146100e0578063015f5148146101115780631cff85e11461016e5780631d184132146101db57806330ce4b531461020c578063379c131e14610237578063433e0358146102625780638855e092146102bf57806399951408146102f0578063a14bcc0e14610321578063caa27f821461037e578063d21dca9f146103d5578063d4f6ab7914610406578063d572dca514610473578063e691aec4146104d0575b600080fd5b3480156100ec57600080fd5b506100f5610527565b604051808260ff1660ff16815260200191505060405180910390f35b34801561011d57600080fd5b50610152600480360381019080803573ffffffffffffffffffffffffffffffffffffffff16906020019092919050505061052c565b604051808260ff1660ff16815260200191505060405180910390f35b34801561017a57600080fd5b506101996004803603810190808035906020019092919050505061077c565b604051808273ffffffffffffffffffffffffffffffffffffffff1673ffffffffffffffffffffffffffffffffffffffff16815260200191505060405180910390f35b3480156101e757600080fd5b506101f06107ba565b604051808260ff1660ff16815260200191505060405180910390f35b34801561021857600080fd5b506102216107bf565b6040518082815260200191505060405180910390f35b34801561024357600080fd5b5061024c6107cc565b6040518082815260200191505060405180910390f35b34801561026e57600080fd5b506102a3600480360381019080803573ffffffffffffffffffffffffffffffffffffffff1690602001909291905050506107d9565b604051808260ff1660ff16815260200191505060405180910390f35b3480156102cb57600080fd5b506102d461096d565b604051808260ff1660ff16815260200191505060405180910390f35b3480156102fc57600080fd5b50610305610972565b604051808260ff1660ff16815260200191505060405180910390f35b34801561032d57600080fd5b50610362600480360381019080803573ffffffffffffffffffffffffffffffffffffffff169060200190929190505050610977565b604051808260ff1660ff16815260200191505060405180910390f35b34801561038a57600080fd5b506103bf600480360381019080803573ffffffffffffffffffffffffffffffffffffffff169060200190929190505050610b0b565b6040518082815260200191505060405180910390f35b3480156103e157600080fd5b506103ea610b23565b604051808260ff1660ff16815260200191505060405180910390f35b34801561041257600080fd5b5061043160048036038101908080359060200190929190505050610b28565b604051808273ffffffffffffffffffffffffffffffffffffffff1673ffffffffffffffffffffffffffffffffffffffff16815260200191505060405180910390f35b34801561047f57600080fd5b506104b4600480360381019080803573ffffffffffffffffffffffffffffffffffffffff169060200190929190505050610b66565b604051808260ff1660ff16815260200191505060405180910390f35b3480156104dc57600080fd5b50610511600480360381019080803573ffffffffffffffffffffffffffffffffffffffff169060200190929190505050610db6565b6040518082815260200191505060405180910390f35b600081565b600080600080600760008673ffffffffffffffffffffffffffffffffffffffff1673ffffffffffffffffffffffffffffffffffffffff16815260200190815260200160002054925060008314156105895760049350839350610774565b60058054905091506005600183038154811015156105a357fe5b9060005260206000200160009054906101000a900473ffffffffffffffffffffffffffffffffffffffff169050806005600185038154811015156105e357fe5b9060005260206000200160006101000a81548173ffffffffffffffffffffffffffffffffffffffff021916908373ffffffffffffffffffffffffffffffffffffffff1602179055506000600760008773ffffffffffffffffffffffffffffffffffffffff1673ffffffffffffffffffffffffffffffffffffffff1681526020019081526020016000208190555082600760008373ffffffffffffffffffffffffffffffffffffffff1673ffffffffffffffffffffffffffffffffffffffff168152602001908152602001600020819055506005600183038154811015156106c657fe5b9060005260206000200160006101000a81549073ffffffffffffffffffffffffffffffffffffffff021916905560058054809190600190036107089190610dce565b507f8c915c9fd390f8f4da90f661dd26612aeafd3908a283036d02540aa4053d1f6a85604051808273ffffffffffffffffffffffffffffffffffffffff1673ffffffffffffffffffffffffffffffffffffffff16815260200191505060405180910390a1600193508393505b505050919050565b60058181548110151561078b57fe5b906000526020600020016000915054906101000a900473ffffffffffffffffffffffffffffffffffffffff1681565b600381565b6000600480549050905090565b6000600580549050905090565b600063fffffffe6004805490501015156107f95760029050809050610968565b6000600660008473ffffffffffffffffffffffffffffffffffffffff1673ffffffffffffffffffffffffffffffffffffffff1681526020019081526020016000205414151561084e5760039050809050610968565b60048290806001815401808255809150509060018203906000526020600020016000909192909190916101000a81548173ffffffffffffffffffffffffffffffffffffffff021916908373ffffffffffffffffffffffffffffffffffffffff16021790555050600480549050600660008473ffffffffffffffffffffffffffffffffffffffff1673ffffffffffffffffffffffffffffffffffffffff168152602001908152602001600020819055507fcf31165d5ed409961af0e533d1df52e392ca2a050a9e73c406bb1ccb683cc5ba82604051808273ffffffffffffffffffffffffffffffffffffffff1673ffffffffffffffffffffffffffffffffffffffff16815260200191505060405180910390a1600190508090505b919050565b600181565b600281565b600063fffffffe6005805490501015156109975760029050809050610b06565b6000600760008473ffffffffffffffffffffffffffffffffffffffff1673ffffffffffffffffffffffffffffffffffffffff168152602001908152602001600020541415156109ec5760039050809050610b06565b60058290806001815401808255809150509060018203906000526020600020016000909192909190916101000a81548173ffffffffffffffffffffffffffffffffffffffff021916908373ffffffffffffffffffffffffffffffffffffffff16021790555050600580549050600760008473ffffffffffffffffffffffffffffffffffffffff1673ffffffffffffffffffffffffffffffffffffffff168152602001908152602001600020819055507f0c4c9279435b64167addbdd51e76b8ef0cb6dd29fd131c486b1a276b4c6ad2b282604051808273ffffffffffffffffffffffffffffffffffffffff1673ffffffffffffffffffffffffffffffffffffffff16815260200191505060405180910390a1600190508090505b919050565b60066020528060005260406000206000915090505481565b600481565b600481815481101515610b3757fe5b906000526020600020016000915054906101000a900473ffffffffffffffffffffffffffffffffffffffff1681565b600080600080600660008673ffffffffffffffffffffffffffffffffffffffff1673ffffffffffffffffffffffffffffffffffffffff1681526020019081526020016000205492506000831415610bc35760049350839350610dae565b6004805490509150600460018303815481101515610bdd57fe5b9060005260206000200160009054906101000a900473ffffffffffffffffffffffffffffffffffffffff16905080600460018503815481101515610c1d57fe5b9060005260206000200160006101000a81548173ffffffffffffffffffffffffffffffffffffffff021916908373ffffffffffffffffffffffffffffffffffffffff1602179055506000600660008773ffffffffffffffffffffffffffffffffffffffff1673ffffffffffffffffffffffffffffffffffffffff1681526020019081526020016000208190555082600660008373ffffffffffffffffffffffffffffffffffffffff1673ffffffffffffffffffffffffffffffffffffffff16815260200190815260200160002081905550600460018303815481101515610d0057fe5b9060005260206000200160006101000a81549073ffffffffffffffffffffffffffffffffffffffff02191690556004805480919060019003610d429190610dfa565b507f71574028d614ed221ccaf33bd6f2c3f152ab7832b2f3f755f744bbc96da75f5a85604051808273ffffffffffffffffffffffffffffffffffffffff1673ffffffffffffffffffffffffffffffffffffffff16815260200191505060405180910390a1600193508393505b505050919050565b60076020528060005260406000206000915090505481565b815481835581811115610df557818360005260206000209182019101610df49190610e26565b5b505050565b815481835581811115610e2157818360005260206000209182019101610e209190610e26565b5b505050565b610e4891905b80821115610e44576000816000905550600101610e2c565b5090565b905600a165627a7a72305820885f985950b827d8581da6bc2688c103a03f69da4a7b74b0180ed0b466f956060029",
  "source": "pragma solidity ^0.4.23;\n\nimport \"../entities/IKernel.sol\";\nimport \"../entities/IDataset.sol\";\nimport \"./IMarket.sol\";\n\ncontract PandoraMarket is IMarket {\n    IKernel[] public kernels;\n    IDataset[] public datasets;\n    mapping(address => uint256) public kernelMap;\n    mapping(address => uint256) public datasetMap;\n\n    /// @dev Since functions of destroyed contracts return zero then we have to reserve zero value as a special\n    /// indicator of the failed contract\n    uint8 public constant STATUS_FAILED_CONTRACT = 0;\n    uint8 public constant STATUS_SUCCESS = 1;\n    uint8 public constant STATUS_NO_SPACE = 2;\n    uint8 public constant STATUS_ALREADY_EXISTS = 3;\n    uint8 public constant STATUS_NOT_EXISTS = 4;\n\n    event KernelAdded(IKernel kernel);\n    event DatasetAdded(IDataset dataset);\n    event KernelRemoved(IKernel kernel);\n    event DatasetRemoved(IDataset dataset);\n\n    constructor() {\n    }\n\n    function kernelsCount()\n    external\n    view\n    returns (\n        uint o_count\n    ) {\n        o_count = kernels.length;\n    }\n\n    function datasetsCount()\n    external\n    view\n    returns (\n        uint o_count\n    ) {\n        o_count = datasets.length;\n    }\n\n    function addKernel(\n        IKernel _kernel\n    )\n    external\n    returns (\n        uint8 o_result\n    ) {\n        if (kernels.length >= 0xFFFFFFFE) {\n            return o_result = STATUS_NO_SPACE;\n        }\n        if (kernelMap[address(_kernel)] != 0) {\n            return o_result = STATUS_ALREADY_EXISTS;\n        }\n        kernels.push(_kernel);\n        kernelMap[address(_kernel)] = kernels.length;\n        emit KernelAdded(_kernel);\n        return o_result = STATUS_SUCCESS;\n    }\n\n    function addDataset(\n        IDataset _dataset\n    )\n    external\n    returns (\n        uint8 o_result\n    ) {\n        if (datasets.length >= 0xFFFFFFFE) {\n            return o_result = STATUS_NO_SPACE;\n        }\n        if (datasetMap[address(_dataset)] != 0) {\n            return o_result = STATUS_ALREADY_EXISTS;\n        }\n        datasets.push(_dataset);\n        datasetMap[address(_dataset)] = datasets.length;\n        emit DatasetAdded(_dataset);\n        return o_result = STATUS_SUCCESS;\n    }\n\n    function removeKernel(\n        IKernel _kernel\n    )\n    external\n    returns (\n        uint8 o_result\n    ) {\n        uint256 pos = kernelMap[address(_kernel)];\n        if (pos == 0) {\n            return o_result = STATUS_NOT_EXISTS;\n        }\n\n        uint len = kernels.length;\n        IKernel lastKernel = kernels[len - 1];\n        kernels[pos - 1] = lastKernel;\n        kernelMap[address(_kernel)] = 0;\n        kernelMap[address(lastKernel)] = pos;\n        delete kernels[len - 1];\n        kernels.length--;\n\n        emit KernelRemoved(_kernel);\n\n        return o_result = STATUS_SUCCESS;\n    }\n\n    function removeDataset(\n        IDataset _dataset\n    )\n    external\n    returns (\n        uint8 o_result\n    ) {\n        uint256 pos = datasetMap[address(_dataset)];\n        if (pos == 0) {\n            return o_result = STATUS_NOT_EXISTS;\n        }\n\n        uint len = datasets.length;\n        IDataset lastDataset = datasets[len - 1];\n        datasets[pos - 1] = lastDataset;\n        datasetMap[address(_dataset)] = 0;\n        datasetMap[address(lastDataset)] = pos;\n        delete datasets[len - 1];\n        datasets.length--;\n\n        emit DatasetRemoved(_dataset);\n\n        return o_result = STATUS_SUCCESS;\n    }\n}\n",
  "sourcePath": "/home/kostysh/dev/pyrrha-consensus/contracts/dmarket/PandoraMarket.sol",
  "compiler": {
    "name": "solc",
    "version": "0.4.23+commit.124ca40d.Emscripten.clang"
  },
  "schemaVersion": "2.0.0",
  "updatedAt": "2018-05-21T20:36:00.820Z"
}