{
  "contractName": "PandoraHooks",
  "abi": [
    {
      "constant": true,
      "inputs": [],
      "name": "workerNodesCount",
      "outputs": [
        {
          "name": "",
          "type": "uint256"
        }
      ],
      "payable": false,
      "stateMutability": "view",
      "type": "function"
    },
    {
      "constant": false,
      "inputs": [
        {
          "name": "_workerOwner",
          "type": "address"
        }
      ],
      "name": "whitelistWorkerOwner",
      "outputs": [],
      "payable": false,
      "stateMutability": "nonpayable",
      "type": "function"
    },
    {
      "constant": true,
      "inputs": [],
      "name": "initialized",
      "outputs": [
        {
          "name": "",
          "type": "bool"
        }
      ],
      "payable": false,
      "stateMutability": "view",
      "type": "function"
    },
    {
      "constant": true,
      "inputs": [
        {
          "name": "",
          "type": "uint256"
        }
      ],
      "name": "workerNodes",
      "outputs": [
        {
          "name": "",
          "type": "address"
        }
      ],
      "payable": false,
      "stateMutability": "view",
      "type": "function"
    },
    {
      "constant": true,
      "inputs": [],
      "name": "RESULT_CODE_JOB_CREATED",
      "outputs": [
        {
          "name": "",
          "type": "uint8"
        }
      ],
      "payable": false,
      "stateMutability": "view",
      "type": "function"
    },
    {
      "constant": true,
      "inputs": [
        {
          "name": "_jobId",
          "type": "bytes32"
        },
        {
          "name": "isActive",
          "type": "bool"
        }
      ],
      "name": "getCognitiveJobDetails",
      "outputs": [
        {
          "name": "kernel",
          "type": "address"
        },
        {
          "name": "dataset",
          "type": "address"
        },
        {
          "name": "comlexity",
          "type": "uint256"
        },
        {
          "name": "description",
          "type": "bytes32"
        },
        {
          "name": "activeWorkers",
          "type": "address[]"
        }
      ],
      "payable": false,
      "stateMutability": "view",
      "type": "function"
    },
    {
      "constant": true,
      "inputs": [],
      "name": "version",
      "outputs": [
        {
          "name": "",
          "type": "bytes32"
        }
      ],
      "payable": false,
      "stateMutability": "view",
      "type": "function"
    },
    {
      "constant": true,
      "inputs": [],
      "name": "activeJobsCount",
      "outputs": [
        {
          "name": "",
          "type": "uint256"
        }
      ],
      "payable": false,
      "stateMutability": "view",
      "type": "function"
    },
    {
      "constant": false,
      "inputs": [
        {
          "name": "_guiltyWorker",
          "type": "address"
        },
        {
          "name": "_reason",
          "type": "uint8"
        }
      ],
      "name": "penaltizeWorkerNode",
      "outputs": [],
      "payable": false,
      "stateMutability": "nonpayable",
      "type": "function"
    },
    {
      "constant": false,
      "inputs": [
        {
          "name": "_jobId",
          "type": "bytes32"
        },
        {
          "name": "_percent",
          "type": "uint8"
        }
      ],
      "name": "commitProgress",
      "outputs": [],
      "payable": false,
      "stateMutability": "nonpayable",
      "type": "function"
    },
    {
      "constant": true,
      "inputs": [
        {
          "name": "",
          "type": "address"
        }
      ],
      "name": "workerNodeOwners",
      "outputs": [
        {
          "name": "",
          "type": "bool"
        }
      ],
      "payable": false,
      "stateMutability": "view",
      "type": "function"
    },
    {
      "constant": false,
      "inputs": [],
      "name": "renounceOwnership",
      "outputs": [],
      "payable": false,
      "stateMutability": "nonpayable",
      "type": "function"
    },
    {
      "constant": true,
      "inputs": [
        {
          "name": "_jobId",
          "type": "bytes32"
        }
      ],
      "name": "isActiveJob",
      "outputs": [
        {
          "name": "",
          "type": "bool"
        }
      ],
      "payable": false,
      "stateMutability": "view",
      "type": "function"
    },
    {
      "constant": false,
      "inputs": [
        {
          "name": "_workerOwner",
          "type": "address"
        }
      ],
      "name": "blacklistWorkerOwner",
      "outputs": [],
      "payable": false,
      "stateMutability": "nonpayable",
      "type": "function"
    },
    {
      "constant": false,
      "inputs": [],
      "name": "getQueueDepth",
      "outputs": [
        {
          "name": "",
          "type": "uint256"
        }
      ],
      "payable": false,
      "stateMutability": "nonpayable",
      "type": "function"
    },
    {
      "constant": false,
      "inputs": [],
      "name": "initialize",
      "outputs": [],
      "payable": false,
      "stateMutability": "nonpayable",
      "type": "function"
    },
    {
      "constant": true,
      "inputs": [],
      "name": "RESULT_CODE_ADD_TO_QUEUE",
      "outputs": [
        {
          "name": "",
          "type": "uint8"
        }
      ],
      "payable": false,
      "stateMutability": "view",
      "type": "function"
    },
    {
      "constant": true,
      "inputs": [
        {
          "name": "_jobId",
          "type": "bytes32"
        },
        {
          "name": "_isActive",
          "type": "bool"
        }
      ],
      "name": "getCognitiveJobProgressInfo",
      "outputs": [
        {
          "name": "responseTimestamps",
          "type": "uint32[]"
        },
        {
          "name": "responseFlags",
          "type": "bool[]"
        },
        {
          "name": "progress",
          "type": "uint8"
        },
        {
          "name": "state",
          "type": "uint8"
        }
      ],
      "payable": false,
      "stateMutability": "view",
      "type": "function"
    },
    {
      "constant": false,
      "inputs": [],
      "name": "createWorkerNode",
      "outputs": [
        {
          "name": "",
          "type": "address"
        }
      ],
      "payable": false,
      "stateMutability": "nonpayable",
      "type": "function"
    },
    {
      "constant": true,
      "inputs": [],
      "name": "owner",
      "outputs": [
        {
          "name": "",
          "type": "address"
        }
      ],
      "payable": false,
      "stateMutability": "view",
      "type": "function"
    },
    {
      "constant": false,
      "inputs": [],
      "name": "checkJobQueue",
      "outputs": [],
      "payable": false,
      "stateMutability": "nonpayable",
      "type": "function"
    },
    {
      "constant": false,
      "inputs": [
        {
          "name": "_workerNode",
          "type": "address"
        }
      ],
      "name": "destroyWorkerNode",
      "outputs": [],
      "payable": false,
      "stateMutability": "nonpayable",
      "type": "function"
    },
    {
      "constant": false,
      "inputs": [
        {
          "name": "_jobId",
          "type": "bytes32"
        },
        {
          "name": "_responseType",
          "type": "uint8"
        },
        {
          "name": "_response",
          "type": "bool"
        }
      ],
      "name": "respondToJob",
      "outputs": [],
      "payable": false,
      "stateMutability": "nonpayable",
      "type": "function"
    },
    {
      "constant": false,
      "inputs": [
        {
          "name": "_jobId",
          "type": "bytes32"
        },
        {
          "name": "_ipfsResults",
          "type": "bytes"
        }
      ],
      "name": "provideResults",
      "outputs": [],
      "payable": false,
      "stateMutability": "nonpayable",
      "type": "function"
    },
    {
      "constant": true,
      "inputs": [],
      "name": "REQUIRED_DEPOSIT",
      "outputs": [
        {
          "name": "",
          "type": "uint256"
        }
      ],
      "payable": false,
      "stateMutability": "view",
      "type": "function"
    },
    {
      "constant": true,
      "inputs": [
        {
          "name": "_jobId",
          "type": "bytes32"
        },
        {
          "name": "_isActive",
          "type": "bool"
        },
        {
          "name": "_index",
          "type": "uint8"
        }
      ],
      "name": "getCognitiveJobResults",
      "outputs": [
        {
          "name": "ipfsResults",
          "type": "bytes"
        }
      ],
      "payable": false,
      "stateMutability": "view",
      "type": "function"
    },
    {
      "constant": false,
      "inputs": [
        {
          "name": "_kernel",
          "type": "address"
        },
        {
          "name": "_dataset",
          "type": "address"
        },
        {
          "name": "_complexity",
          "type": "uint256"
        },
        {
          "name": "_description",
          "type": "bytes32"
        }
      ],
      "name": "createCognitiveJob",
      "outputs": [
        {
          "name": "o_jobId",
          "type": "bytes32"
        },
        {
          "name": "o_resultCode",
          "type": "uint8"
        }
      ],
      "payable": true,
      "stateMutability": "payable",
      "type": "function"
    },
    {
      "constant": false,
      "inputs": [
        {
          "name": "_newOwner",
          "type": "address"
        }
      ],
      "name": "transferOwnership",
      "outputs": [],
      "payable": false,
      "stateMutability": "nonpayable",
      "type": "function"
    },
    {
      "constant": true,
      "inputs": [],
      "name": "workerNodeFactory",
      "outputs": [
        {
          "name": "",
          "type": "address"
        }
      ],
      "payable": false,
      "stateMutability": "view",
      "type": "function"
    },
    {
      "constant": true,
      "inputs": [
        {
          "name": "",
          "type": "address"
        }
      ],
      "name": "deposits",
      "outputs": [
        {
          "name": "",
          "type": "uint256"
        }
      ],
      "payable": false,
      "stateMutability": "view",
      "type": "function"
    },
    {
      "constant": true,
      "inputs": [
        {
          "name": "",
          "type": "address"
        }
      ],
      "name": "workerAddresses",
      "outputs": [
        {
          "name": "",
          "type": "uint16"
        }
      ],
      "payable": false,
      "stateMutability": "view",
      "type": "function"
    },
    {
      "inputs": [
        {
          "name": "_nodeFactory",
          "type": "address"
        },
        {
          "name": "_reputation",
          "type": "address"
        }
      ],
      "payable": false,
      "stateMutability": "nonpayable",
      "type": "constructor"
    },
    {
      "anonymous": false,
      "inputs": [
        {
          "indexed": false,
          "name": "jobId",
          "type": "bytes32"
        }
      ],
      "name": "CognitiveJobCreated",
      "type": "event"
    },
    {
      "anonymous": false,
      "inputs": [
        {
          "indexed": false,
          "name": "jobId",
          "type": "bytes32"
        }
      ],
      "name": "CognitiveJobQueued",
      "type": "event"
    },
    {
      "anonymous": false,
      "inputs": [
        {
          "indexed": false,
          "name": "workerNode",
          "type": "address"
        }
      ],
      "name": "WorkerNodeCreated",
      "type": "event"
    },
    {
      "anonymous": false,
      "inputs": [
        {
          "indexed": false,
          "name": "workerNode",
          "type": "address"
        }
      ],
      "name": "WorkerNodeDestroyed",
      "type": "event"
    },
    {
      "anonymous": false,
      "inputs": [
        {
          "indexed": true,
          "name": "previousOwner",
          "type": "address"
        }
      ],
      "name": "OwnershipRenounced",
      "type": "event"
    },
    {
      "anonymous": false,
      "inputs": [
        {
          "indexed": true,
          "name": "previousOwner",
          "type": "address"
        },
        {
          "indexed": true,
          "name": "newOwner",
          "type": "address"
        }
      ],
      "name": "OwnershipTransferred",
      "type": "event"
    },
    {
      "constant": true,
      "inputs": [
        {
          "name": "no",
          "type": "uint256"
        }
      ],
      "name": "hook_whitelistedOwner",
      "outputs": [
        {
          "name": "",
          "type": "address"
        }
      ],
      "payable": false,
      "stateMutability": "view",
      "type": "function"
    },
    {
      "constant": true,
      "inputs": [],
      "name": "hook_whitelistedOwnerCount",
      "outputs": [
        {
          "name": "",
          "type": "uint256"
        }
      ],
      "payable": false,
      "stateMutability": "view",
      "type": "function"
    }
  ],
  "bytecode": "0x60806040526000600160006101000a81548160ff0219169083151502179055503480156200002c57600080fd5b5060405160408062005bfe833981018060405281019080805190602001909291908051906020019092919050505081818181816000600160006101000a81548160ff021916908315150217905550336001806101000a81548173ffffffffffffffffffffffffffffffffffffffff021916908373ffffffffffffffffffffffffffffffffffffffff160217905550600073ffffffffffffffffffffffffffffffffffffffff168173ffffffffffffffffffffffffffffffffffffffff1614151515620000f757600080fd5b80600560006101000a81548173ffffffffffffffffffffffffffffffffffffffff021916908373ffffffffffffffffffffffffffffffffffffffff1602179055505080600960006101000a81548173ffffffffffffffffffffffffffffffffffffffff021916908373ffffffffffffffffffffffffffffffffffffffff16021790555062000184620001ee565b604051809103906000f080158015620001a1573d6000803e3d6000fd5b50600b60006101000a81548173ffffffffffffffffffffffffffffffffffffffff021916908373ffffffffffffffffffffffffffffffffffffffff160217905550505050505050620001ff565b6040516101658062005a9983390190565b61588a806200020f6000396000f3006080604052600436106101a1576000357c0100000000000000000000000000000000000000000000000000000000900463ffffffff1680630e3b581f146101a657806313b5165f146101d1578063158ef93e146102145780631dc20af41461024357806323ce524a146102b0578063260aa5bb146102e157806335672a301461034e57806354fd4d501461045c5780635c2b37fa1461048f5780635ef17776146104ba578063687fbdff1461050a57806370064e3314610548578063715018a6146105a357806373953af0146105ba57806379bc5cbd146105e55780637b3c611c1461062e5780637e58bf1e146106715780638129fc1c1461069c57806383c94c69146106b357806386202c2c146106e457806386b07332146107d85780638da5cb5b1461082f578063a3e27fc914610886578063ae1092ae1461089d578063b0e79d9b146108e0578063bbcc72611461092a578063be64b76b14610973578063c1f661e11461099e578063ea84546b14610a61578063f2fde38b14610af8578063f9d84ade14610b3b578063fc7e286d14610b92578063fdb5b8d414610be9575b600080fd5b3480156101b257600080fd5b506101bb610c48565b6040518082815260200191505060405180910390f35b3480156101dd57600080fd5b50610212600480360381019080803573ffffffffffffffffffffffffffffffffffffffff169060200190929190505050610c77565b005b34801561022057600080fd5b50610229610d2d565b604051808215151515815260200191505060405180910390f35b34801561024f57600080fd5b5061026e60048036038101908080359060200190929190505050610d40565b604051808273ffffffffffffffffffffffffffffffffffffffff1673ffffffffffffffffffffffffffffffffffffffff16815260200191505060405180910390f35b3480156102bc57600080fd5b506102c5610d7e565b604051808260ff1660ff16815260200191505060405180910390f35b3480156102ed57600080fd5b5061030c60048036038101908080359060200190929190505050610d83565b604051808273ffffffffffffffffffffffffffffffffffffffff1673ffffffffffffffffffffffffffffffffffffffff16815260200191505060405180910390f35b34801561035a57600080fd5b506103896004803603810190808035600019169060200190929190803515159060200190929190505050610dbd565b604051808673ffffffffffffffffffffffffffffffffffffffff1673ffffffffffffffffffffffffffffffffffffffff1681526020018573ffffffffffffffffffffffffffffffffffffffff1673ffffffffffffffffffffffffffffffffffffffff168152602001848152602001836000191660001916815260200180602001828103825283818151815260200191508051906020019060200280838360005b83811015610444578082015181840152602081019050610429565b50505050905001965050505050505060405180910390f35b34801561046857600080fd5b50610471610f66565b60405180826000191660001916815260200191505060405180910390f35b34801561049b57600080fd5b506104a4610f8a565b6040518082815260200191505060405180910390f35b3480156104c657600080fd5b50610508600480360381019080803573ffffffffffffffffffffffffffffffffffffffff169060200190929190803560ff169060200190929190505050610f9a565b005b34801561051657600080fd5b506105466004803603810190808035600019169060200190929190803560ff169060200190929190505050610fc0565b005b34801561055457600080fd5b50610589600480360381019080803573ffffffffffffffffffffffffffffffffffffffff169060200190929190505050610fdc565b604051808215151515815260200191505060405180910390f35b3480156105af57600080fd5b506105b8610ffc565b005b3480156105c657600080fd5b506105cf6110fe565b6040518082815260200191505060405180910390f35b3480156105f157600080fd5b506106146004803603810190808035600019169060200190929190505050611107565b604051808215151515815260200191505060405180910390f35b34801561063a57600080fd5b5061066f600480360381019080803573ffffffffffffffffffffffffffffffffffffffff169060200190929190505050611144565b005b34801561067d57600080fd5b506106866111f1565b6040518082815260200191505060405180910390f35b3480156106a857600080fd5b506106b1611202565b005b3480156106bf57600080fd5b506106c86114a7565b604051808260ff1660ff16815260200191505060405180910390f35b3480156106f057600080fd5b5061071f60048036038101908080356000191690602001909291908035151590602001909291905050506114ac565b6040518080602001806020018560ff1660ff1681526020018460ff1660ff168152602001838103835287818151815260200191508051906020019060200280838360005b8381101561077e578082015181840152602081019050610763565b50505050905001838103825286818151815260200191508051906020019060200280838360005b838110156107c05780820151818401526020810190506107a5565b50505050905001965050505050505060405180910390f35b3480156107e457600080fd5b506107ed61168e565b604051808273ffffffffffffffffffffffffffffffffffffffff1673ffffffffffffffffffffffffffffffffffffffff16815260200191505060405180910390f35b34801561083b57600080fd5b50610844611989565b604051808273ffffffffffffffffffffffffffffffffffffffff1673ffffffffffffffffffffffffffffffffffffffff16815260200191505060405180910390f35b34801561089257600080fd5b5061089b6119ae565b005b3480156108a957600080fd5b506108de600480360381019080803573ffffffffffffffffffffffffffffffffffffffff169060200190929190505050611d1e565b005b3480156108ec57600080fd5b506109286004803603810190808035600019169060200190929190803560ff169060200190929190803515159060200190929190505050612271565b005b34801561093657600080fd5b506109716004803603810190808035600019169060200190929190803590602001908201803590602001919091929391929390505050612291565b005b34801561097f57600080fd5b5061098861248d565b6040518082815260200191505060405180910390f35b3480156109aa57600080fd5b506109e66004803603810190808035600019169060200190929190803515159060200190929190803560ff169060200190929190505050612499565b6040518080602001828103825283818151815260200191508051906020019080838360005b83811015610a26578082015181840152602081019050610a0b565b50505050905090810190601f168015610a535780820380516001836020036101000a031916815260200191505b509250505060405180910390f35b610acd600480360381019080803573ffffffffffffffffffffffffffffffffffffffff169060200190929190803573ffffffffffffffffffffffffffffffffffffffff16906020019092919080359060200190929190803560001916906020019092919050505061260b565b6040518083600019166000191681526020018260ff1660ff1681526020019250505060405180910390f35b348015610b0457600080fd5b50610b39600480360381019080803573ffffffffffffffffffffffffffffffffffffffff169060200190929190505050612a00565b005b348015610b4757600080fd5b50610b50612a67565b604051808273ffffffffffffffffffffffffffffffffffffffff1673ffffffffffffffffffffffffffffffffffffffff16815260200191505060405180910390f35b348015610b9e57600080fd5b50610bd3600480360381019080803573ffffffffffffffffffffffffffffffffffffffff169060200190929190505050612a8d565b6040518082815260200191505060405180910390f35b348015610bf557600080fd5b50610c2a600480360381019080803573ffffffffffffffffffffffffffffffffffffffff169060200190929190505050612aa5565b604051808261ffff1661ffff16815260200191505060405180910390f35b600060011515600160009054906101000a900460ff161515141515610c6c57600080fd5b600680549050905090565b6001809054906101000a900473ffffffffffffffffffffffffffffffffffffffff1673ffffffffffffffffffffffffffffffffffffffff163373ffffffffffffffffffffffffffffffffffffffff16141515610cd257600080fd5b6001600860008373ffffffffffffffffffffffffffffffffffffffff1673ffffffffffffffffffffffffffffffffffffffff16815260200190815260200160002060006101000a81548160ff02191690831515021790555050565b600160009054906101000a900460ff1681565b600681815481101515610d4f57fe5b906000526020600020016000915054906101000a900473ffffffffffffffffffffffffffffffffffffffff1681565b600181565b6000601482600381101515610d9457fe5b0160009054906101000a900473ffffffffffffffffffffffffffffffffffffffff169050919050565b6000806000806060600086610e2157600f600201600f60000160008a6000191660001916815260200190815260200160002060009054906101000a900461ffff1661ffff16815481101515610e0e57fe5b90600052602060002090600a0201610e72565b600f600101600f60000160008a6000191660001916815260200190815260200160002060009054906101000a900461ffff1661ffff16815481101515610e6357fe5b90600052602060002090600a02015b90508060010160009054906101000a900473ffffffffffffffffffffffffffffffffffffffff1695508060020160009054906101000a900473ffffffffffffffffffffffffffffffffffffffff169450806003015493508060040154925080600501805480602002602001604051908101604052809291908181526020018280548015610f5457602002820191906000526020600020905b8160009054906101000a900473ffffffffffffffffffffffffffffffffffffffff1673ffffffffffffffffffffffffffffffffffffffff1681526020019060010190808311610f0a575b50505050509150509295509295909350565b7f302e342e3300000000000000000000000000000000000000000000000000000081565b6000600f60010180549050905090565b60011515600160009054906101000a900460ff161515141515610fbc57600080fd5b5050565b610fd8823383600f612ac6909392919063ffffffff16565b5050565b60086020528060005260406000206000915054906101000a900460ff1681565b6001809054906101000a900473ffffffffffffffffffffffffffffffffffffffff1673ffffffffffffffffffffffffffffffffffffffff163373ffffffffffffffffffffffffffffffffffffffff1614151561105757600080fd5b6001809054906101000a900473ffffffffffffffffffffffffffffffffffffffff1673ffffffffffffffffffffffffffffffffffffffff167ff8df31144d9c2f0f6b59d69b8b98abd5459d07f2742c4df920b25aae33c6482060405160405180910390a260006001806101000a81548173ffffffffffffffffffffffffffffffffffffffff021916908373ffffffffffffffffffffffffffffffffffffffff160217905550565b60006003905090565b600080600f6000016000846000191660001916815260200190815260200160002060009054906101000a900461ffff1661ffff1614159050919050565b6001809054906101000a900473ffffffffffffffffffffffffffffffffffffffff1673ffffffffffffffffffffffffffffffffffffffff163373ffffffffffffffffffffffffffffffffffffffff1614151561119f57600080fd5b600860008273ffffffffffffffffffffffffffffffffffffffff1673ffffffffffffffffffffffffffffffffffffffff16815260200190815260200160002060006101000a81549060ff021916905550565b60006111fd600c612c8d565b905090565b6001809054906101000a900473ffffffffffffffffffffffffffffffffffffffff1673ffffffffffffffffffffffffffffffffffffffff163373ffffffffffffffffffffffffffffffffffffffff1614151561125d57600080fd5b6040805190810160405280600a81526020017f696e697469616c697a6500000000000000000000000000000000000000000000815250600015156000826040518082805190602001908083835b6020831015156112cf57805182526020820191506020810190506020830392506112aa565b6001836020036101000a038019825116818451168082178552505050505050905001915050908152602001604051809103902060009054906101000a900460ff16151514151561131e57600080fd5b3073ffffffffffffffffffffffffffffffffffffffff16600560009054906101000a900473ffffffffffffffffffffffffffffffffffffffff1673ffffffffffffffffffffffffffffffffffffffff16638da5cb5b6040518163ffffffff167c0100000000000000000000000000000000000000000000000000000000028152600401602060405180830381600087803b1580156113bb57600080fd5b505af11580156113cf573d6000803e3d6000fd5b505050506040513d60208110156113e557600080fd5b810190808051906020019092919050505073ffffffffffffffffffffffffffffffffffffffff1614151561141857600080fd5b611420612ca4565b60016000826040518082805190602001908083835b60208310151561145a5780518252602082019150602081019050602083039250611435565b6001836020036101000a038019825116818451168082178552505050505050905001915050908152602001604051809103902060006101000a81548160ff02191690831515021790555050565b600081565b60608060008060008561150e57600f600201600f6000016000896000191660001916815260200190815260200160002060009054906101000a900461ffff1661ffff168154811015156114fb57fe5b90600052602060002090600a020161155f565b600f600101600f6000016000896000191660001916815260200190815260200160002060009054906101000a900461ffff1661ffff1681548110151561155057fe5b90600052602060002090600a02015b9050806007018054806020026020016040519081016040528092919081815260200182805480156115db57602002820191906000526020600020906000905b82829054906101000a900463ffffffff1663ffffffff168152602001906004019060208260030104928301926001038202915080841161159e5790505b505050505094508060080180548060200260200160405190810160405280929190818152602001828054801561165557602002820191906000526020600020906000905b82829054906101000a900460ff1615158152602001906001019060208260000104928301926001038202915080841161161f5790505b505050505093508060090160009054906101000a900460ff1692508060090160019054906101000a900460ff1691505092959194509250565b60008060011515600160009054906101000a900460ff1615151415156116b357600080fd5b60011515600860003373ffffffffffffffffffffffffffffffffffffffff1673ffffffffffffffffffffffffffffffffffffffff16815260200190815260200160002060009054906101000a900460ff16151514151561171257600080fd5b3273ffffffffffffffffffffffffffffffffffffffff163373ffffffffffffffffffffffffffffffffffffffff1614151561174c57600080fd5b600d60068054905010151561176057600080fd5b600560009054906101000a900473ffffffffffffffffffffffffffffffffffffffff1673ffffffffffffffffffffffffffffffffffffffff16639ed93318336040518263ffffffff167c0100000000000000000000000000000000000000000000000000000000028152600401808273ffffffffffffffffffffffffffffffffffffffff1673ffffffffffffffffffffffffffffffffffffffff168152602001915050602060405180830381600087803b15801561181d57600080fd5b505af1158015611831573d6000803e3d6000fd5b505050506040513d602081101561184757600080fd5b8101908080519060200190929190505050905060068190806001815401808255809150509060018203906000526020600020016000909192909190916101000a81548173ffffffffffffffffffffffffffffffffffffffff021916908373ffffffffffffffffffffffffffffffffffffffff16021790555050600680549050600760008373ffffffffffffffffffffffffffffffffffffffff1673ffffffffffffffffffffffffffffffffffffffff16815260200190815260200160002060006101000a81548161ffff021916908361ffff1602179055507f093794466f44429afc8d8ec2c4c7f42c98d5db9b3db965ce46a31e7d4f7c29c881604051808273ffffffffffffffffffffffffffffffffffffffff1673ffffffffffffffffffffffffffffffffffffffff16815260200191505060405180910390a18091505090565b6001809054906101000a900473ffffffffffffffffffffffffffffffffffffffff1681565b6119b6615112565b60008060008060606000806060806000806000806119d4600c612c8d565b9c5060018d60ff16116119e7578c6119ea565b60015b9c5060009b505b8c60ff168c60ff161015611d0e575a9a50611a0a612cc0565b995060008a111515611a1b57611d0e565b611a248a612eb2565b9850885197508988141515611a3857611d0e565b611a4c88600c61315f90919063ffffffff16565b1515611a5757611d0e565b611a61600c613188565b809850819f505050611a77898f606001516131b7565b95508551604051908082528060200260200182016040528015611aa95781602001602082028038833980820191505090505b509450600093505b84518460ff161015611b3257858460ff16815181101515611ace57fe5b90602001906020020151858560ff16815181101515611ae957fe5b9060200190602002019073ffffffffffffffffffffffffffffffffffffffff16908173ffffffffffffffffffffffffffffffffffffffff16815250508380600101945050611ab1565b611b3c8e8761335b565b9250600091505b85518260ff161015611c0557858260ff16815181101515611b6057fe5b9060200190602002015173ffffffffffffffffffffffffffffffffffffffff16637aee7e09846040518263ffffffff167c0100000000000000000000000000000000000000000000000000000000028152600401808260001916600019168152602001915050600060405180830381600087803b158015611be057600080fd5b505af1158015611bf4573d6000803e3d6000fd5b505050508380600101945050611b43565b7f11a21264ecb93e14000906dc00b4753fd6eec24f9f0f1b4305a1a04740b3023e8360405180826000191660001916815260200191505060405180910390a13a5a8c61dea80103029050868111611c5c5780611c5e565b865b90503373ffffffffffffffffffffffffffffffffffffffff166108fc829081150290604051600060405180830381858888f19350505050158015611ca6573d6000803e3d6000fd5b506000818803141515611d01578d6040015173ffffffffffffffffffffffffffffffffffffffff166108fc8289039081150290604051600060405180830381858888f19350505050158015611cff573d6000803e3d6000fd5b505b8b806001019c50506119f1565b5050505050505050505050505050565b60008060008360003390508173ffffffffffffffffffffffffffffffffffffffff16638da5cb5b6040518163ffffffff167c0100000000000000000000000000000000000000000000000000000000028152600401602060405180830381600087803b158015611d8d57600080fd5b505af1158015611da1573d6000803e3d6000fd5b505050506040513d6020811015611db757600080fd5b810190808051906020019092919050505073ffffffffffffffffffffffffffffffffffffffff168173ffffffffffffffffffffffffffffffffffffffff16141515611e0157600080fd5b6000600760008373ffffffffffffffffffffffffffffffffffffffff1673ffffffffffffffffffffffffffffffffffffffff16815260200190815260200160002060009054906101000a900461ffff1661ffff16111515611e6157600080fd5b60011515600160009054906101000a900460ff161515141515611e8357600080fd5b3394508573ffffffffffffffffffffffffffffffffffffffff1663ae897c556040518163ffffffff167c0100000000000000000000000000000000000000000000000000000000028152600401602060405180830381600087803b158015611eea57600080fd5b505af1158015611efe573d6000803e3d6000fd5b505050506040513d6020811015611f1457600080fd5b810190808051906020019092919050505060ff168673ffffffffffffffffffffffffffffffffffffffff16630c3f6acf6040518163ffffffff167c0100000000000000000000000000000000000000000000000000000000028152600401602060405180830381600087803b158015611f8c57600080fd5b505af1158015611fa0573d6000803e3d6000fd5b505050506040513d6020811015611fb657600080fd5b810190808051906020019092919050505060ff16141515611fd657600080fd5b8573ffffffffffffffffffffffffffffffffffffffff166383197ef06040518163ffffffff167c0100000000000000000000000000000000000000000000000000000000028152600401600060405180830381600087803b15801561203a57600080fd5b505af115801561204e573d6000803e3d6000fd5b505050506001600760008773ffffffffffffffffffffffffffffffffffffffff1673ffffffffffffffffffffffffffffffffffffffff16815260200190815260200160002060009054906101000a900461ffff16039350600760008673ffffffffffffffffffffffffffffffffffffffff1673ffffffffffffffffffffffffffffffffffffffff16815260200190815260200160002060006101000a81549061ffff0219169055600660016006805490500381548110151561210c57fe5b9060005260206000200160009054906101000a900473ffffffffffffffffffffffffffffffffffffffff1660068561ffff1681548110151561214a57fe5b9060005260206000200160006101000a81548173ffffffffffffffffffffffffffffffffffffffff021916908373ffffffffffffffffffffffffffffffffffffffff1602179055925060018401600760008573ffffffffffffffffffffffffffffffffffffffff1673ffffffffffffffffffffffffffffffffffffffff16815260200190815260200160002060006101000a81548161ffff021916908361ffff1602179055506006805480919060019003612205919061518e565b507f677f03e392472a48b617167ed4dbec758d26d8517257ec077bed2d27d192816486604051808273ffffffffffffffffffffffffffffffffffffffff1673ffffffffffffffffffffffffffffffffffffffff16815260200191505060405180910390a1505050505050565b61228b83338484600f6133a490949392919063ffffffff16565b50505050565b6000806122de853386868080601f016020809104026020016040519081016040528093929190818152602001838380828437820191505050505050600f613594909392919063ffffffff16565b1561248657600f600101600f6000016000876000191660001916815260200190815260200160002060009054906101000a900461ffff1661ffff1681548110151561232557fe5b90600052602060002090600a02019150600090505b81600501805490508111151561248557600960009054906101000a900473ffffffffffffffffffffffffffffffffffffffff1673ffffffffffffffffffffffffffffffffffffffff1663e6808ff0836005018381548110151561239957fe5b9060005260206000200160009054906101000a900473ffffffffffffffffffffffffffffffffffffffff166123db84866003015461372290919063ffffffff16565b6040518363ffffffff167c0100000000000000000000000000000000000000000000000000000000028152600401808373ffffffffffffffffffffffffffffffffffffffff1673ffffffffffffffffffffffffffffffffffffffff16815260200182815260200192505050600060405180830381600087803b15801561246057600080fd5b505af1158015612474573d6000803e3d6000fd5b50505050808060010191505061233a565b5b5050505050565b6706f05b59d3b2000081565b60606000836124f757600f600201600f6000016000876000191660001916815260200190815260200160002060009054906101000a900461ffff1661ffff168154811015156124e457fe5b90600052602060002090600a0201612548565b600f600101600f6000016000876000191660001916815260200190815260200160002060009054906101000a900461ffff1661ffff1681548110151561253957fe5b90600052602060002090600a02015b9050806006018360ff1681548110151561255e57fe5b906000526020600020018054600181600116156101000203166002900480601f0160208091040260200160405190810160405280929190818152602001828054600181600116156101000203166002900480156125fc5780601f106125d1576101008083540402835291602001916125fc565b820191906000526020600020905b8154815290600101906020018083116125df57829003601f168201915b50505050509150509392505050565b6000806000806060808873ffffffffffffffffffffffffffffffffffffffff166387ea09616040518163ffffffff167c0100000000000000000000000000000000000000000000000000000000028152600401602060405180830381600087803b15801561267857600080fd5b505af115801561268c573d6000803e3d6000fd5b505050506040513d60208110156126a257600080fd5b81019080805190602001909291905050509350600a8460ff16111515156126c857600080fd5b8873ffffffffffffffffffffffffffffffffffffffff1663b1f8d9ba6040518163ffffffff167c0100000000000000000000000000000000000000000000000000000000028152600401602060405180830381600087803b15801561272c57600080fd5b505af1158015612740573d6000803e3d6000fd5b505050506040513d602081101561275657600080fd5b81019080805190602001909291905050508a73ffffffffffffffffffffffffffffffffffffffff1663b1f8d9ba6040518163ffffffff167c0100000000000000000000000000000000000000000000000000000000028152600401602060405180830381600087803b1580156127cb57600080fd5b505af11580156127df573d6000803e3d6000fd5b505050506040513d60208110156127f557600080fd5b810190808051906020019092919050505014151561281257600080fd5b6706f05b59d3b20000341015151561282957600080fd5b612831612cc0565b92508360ff1683101561293f57600094506128658a8a33348860ff168d8d600c61373890979695949392919063ffffffff16565b506128b834600a60003373ffffffffffffffffffffffffffffffffffffffff1673ffffffffffffffffffffffffffffffffffffffff1681526020019081526020016000205461393d90919063ffffffff16565b600a60003373ffffffffffffffffffffffffffffffffffffffff1673ffffffffffffffffffffffffffffffffffffffff168152602001908152602001600020819055507f2c45d5fba2a924464674ba6274086714ee596687cf6a6110111b80abe05f28b38660405180826000191660001916815260200191505060405180910390a16129f3565b3373ffffffffffffffffffffffffffffffffffffffff166108fc349081150290604051600060405180830381858888f19350505050158015612985573d6000803e3d6000fd5b5061298f83612eb2565b915061299e828560ff166131b7565b90506129ad8a8a838b8b613959565b9550600194507f11a21264ecb93e14000906dc00b4753fd6eec24f9f0f1b4305a1a04740b3023e8660405180826000191660001916815260200191505060405180910390a15b5050505094509492505050565b6001809054906101000a900473ffffffffffffffffffffffffffffffffffffffff1673ffffffffffffffffffffffffffffffffffffffff163373ffffffffffffffffffffffffffffffffffffffff16141515612a5b57600080fd5b612a6481613b1d565b50565b600560009054906101000a900473ffffffffffffffffffffffffffffffffffffffff1681565b600a6020528060005260406000206000915090505481565b60076020528060005260406000206000915054906101000a900461ffff1681565b6000848060040160009054906101000a900460ff161515612aeb57612aea81613c17565b5b858560056008811115612afa57fe5b8060ff16836001016001856000016000866000191660001916815260200190815260200160002060009054906101000a900461ffff160361ffff16815481101515612b4157fe5b90600052602060002090600a020160090160019054906101000a900460ff1660ff16141515612b6f57600080fd5b612b7a898989613dd4565b94507fffffffffffffffffffffffffffffffffffffffffffffffffffffffffffffffff8514151515612bab57600080fd5b428960010160018b60000160008c6000191660001916815260200190815260200160002060009054906101000a900461ffff160361ffff16815481101515612bef57fe5b90600052602060002090600a020160070186815481101515612c0d57fe5b90600052602060002090600891828204019190066004026101000a81548163ffffffff021916908363ffffffff16021790555087600019167f84d08018633e0a8a0ba434acc29166246cfe913279e254647ca8c2f24f13660787604051808260ff1660ff16815260200191505060405180910390a2505050505050505050565b600081600201548260000180549050039050919050565b60018060006101000a81548160ff021916908315150217905550565b60008060009150600090505b600680549050811015612eab57600681815481101515612ce857fe5b9060005260206000200160009054906101000a900473ffffffffffffffffffffffffffffffffffffffff1673ffffffffffffffffffffffffffffffffffffffff1663ae897c556040518163ffffffff167c0100000000000000000000000000000000000000000000000000000000028152600401602060405180830381600087803b158015612d7657600080fd5b505af1158015612d8a573d6000803e3d6000fd5b505050506040513d6020811015612da057600080fd5b810190808051906020019092919050505060ff16600682815481101515612dc357fe5b9060005260206000200160009054906101000a900473ffffffffffffffffffffffffffffffffffffffff1673ffffffffffffffffffffffffffffffffffffffff16630c3f6acf6040518163ffffffff167c0100000000000000000000000000000000000000000000000000000000028152600401602060405180830381600087803b158015612e5157600080fd5b505af1158015612e65573d6000803e3d6000fd5b505050506040513d6020811015612e7b57600080fd5b810190808051906020019092919050505060ff161415612e9e5781806001019250505b8080600101915050612ccc565b8191505090565b60608060008084604051908082528060200260200182016040528015612ee75781602001602082028038833980820191505090505b50925060009150600090505b60068054905081101561315457600681815481101515612f0f57fe5b9060005260206000200160009054906101000a900473ffffffffffffffffffffffffffffffffffffffff1673ffffffffffffffffffffffffffffffffffffffff1663ae897c556040518163ffffffff167c0100000000000000000000000000000000000000000000000000000000028152600401602060405180830381600087803b158015612f9d57600080fd5b505af1158015612fb1573d6000803e3d6000fd5b505050506040513d6020811015612fc757600080fd5b810190808051906020019092919050505060ff16600682815481101515612fea57fe5b9060005260206000200160009054906101000a900473ffffffffffffffffffffffffffffffffffffffff1673ffffffffffffffffffffffffffffffffffffffff16630c3f6acf6040518163ffffffff167c0100000000000000000000000000000000000000000000000000000000028152600401602060405180830381600087803b15801561307857600080fd5b505af115801561308c573d6000803e3d6000fd5b505050506040513d60208110156130a257600080fd5b810190808051906020019092919050505060ff161415613147576006818154811015156130cb57fe5b9060005260206000200160009054906101000a900473ffffffffffffffffffffffffffffffffffffffff16838380600101945081518110151561310a57fe5b9060200190602002019073ffffffffffffffffffffffffffffffffffffffff16908173ffffffffffffffffffffffffffffffffffffffff16815250505b8080600101915050612ef3565b829350505050919050565b6000613169615112565b61317284613f15565b5080915050828160600151111591505092915050565b613190615112565b600061319b83613f15565b80925081935050506131ac836140a2565b818191509150915091565b6060600080836040519080825280602002602001820160405280156131eb5781602001602082028038833980820191505090505b509250600b60009054906101000a900473ffffffffffffffffffffffffffffffffffffffff1673ffffffffffffffffffffffffffffffffffffffff1663cd4b691484516040518263ffffffff167c010000000000000000000000000000000000000000000000000000000002815260040180828152602001915050602060405180830381600087803b15801561328057600080fd5b505af1158015613294573d6000803e3d6000fd5b505050506040513d60208110156132aa57600080fd5b81019080805190602001909291905050509150600090505b82518110156133535784828151811015156132d957fe5b9060200190602002015183828151811015156132f157fe5b9060200190602002019073ffffffffffffffffffffffffffffffffffffffff16908173ffffffffffffffffffffffffffffffffffffffff1681525050600183510382146133415760018201613344565b60005b915080806001019150506132c2565b505092915050565b600060011515600160009054906101000a900460ff16151514151561337f57600080fd5b61339c836000015184602001518486608001518760a00151613959565b905092915050565b6000858060040160009054906101000a900460ff1615156133c9576133c881613c17565b5b86866000826001016001846000016000856000191660001916815260200190815260200160002060009054906101000a900461ffff160361ffff1681548110151561341057fe5b90600052602060002090600a020190506001600881111561342d57fe5b60ff168160090160019054906101000a900460ff1660ff16148061347357506003600881111561345957fe5b60ff168160090160019054906101000a900460ff1660ff16145b806134a057506005600881111561348657fe5b60ff168160090160019054906101000a900460ff1660ff16145b15156134ab57600080fd5b6134b78a8a8a89614195565b6134c18a8a614216565b156135875760019450600060028111156134d757fe5b60ff168760ff16141561350a576134fb8a8a600160088111156134f657fe5b614302565b6135058a8a61451f565b613586565b6001600281111561351757fe5b60ff168760ff16141561354a5761353b8a8a6005600881111561353657fe5b614302565b6135458a8a61451f565b613585565b60028081111561355657fe5b60ff168760ff16141561357f5761357a8a8a6007600881111561357557fe5b614302565b613584565b600094505b5b5b5b5050505095945050505050565b600080858060040160009054906101000a900460ff1615156135ba576135b981613c17565b5b8686600560088111156135c957fe5b8060ff16836001016001856000016000866000191660001916815260200190815260200160002060009054906101000a900461ffff160361ffff1681548110151561361057fe5b90600052602060002090600a020160090160019054906101000a900460ff1660ff1614151561363e57600080fd5b6136498a8a8a613dd4565b94507fffffffffffffffffffffffffffffffffffffffffffffffffffffffffffffffff851415151561367a57600080fd5b868a60010160018c60000160008d6000191660001916815260200190815260200160002060009054906101000a900461ffff160361ffff168154811015156136be57fe5b90600052602060002090600a0201600601868154811015156136dc57fe5b9060005260206000200190805190602001906136f99291906151ba565b506137138a8a8a60028081111561370c57fe5b60016133a4565b95505050505050949350505050565b6000818381151561372f57fe5b04905092915050565b6000886000018054905060018a600001805490500111151561375957600080fd5b8860000160c0604051908101604052808a73ffffffffffffffffffffffffffffffffffffffff1681526020018973ffffffffffffffffffffffffffffffffffffffff1681526020018873ffffffffffffffffffffffffffffffffffffffff16815260200186815260200185815260200184600019168152509080600181540180825580915050906001820390600052602060002090600602016000909192909190915060008201518160000160006101000a81548173ffffffffffffffffffffffffffffffffffffffff021916908373ffffffffffffffffffffffffffffffffffffffff16021790555060208201518160010160006101000a81548173ffffffffffffffffffffffffffffffffffffffff021916908373ffffffffffffffffffffffffffffffffffffffff16021790555060408201518160020160006101000a81548173ffffffffffffffffffffffffffffffffffffffff021916908373ffffffffffffffffffffffffffffffffffffffff160217905550606082015181600301556080820151816004015560a082015181600501906000191690555050508860010185908060018154018082558091505090600182039060005260206000200160009091929091909150555061392f89612c8d565b905098975050505050505050565b6000818301905082811015151561395057fe5b80905092915050565b6000606060008060011515600160009054906101000a900460ff16151514151561398257600080fd5b86516040519080825280602002602001820160405280156139b25781602001602082028038833980820191505090505b509250600091505b8251821015613a325786828151811015156139d157fe5b9060200190602002015183838151811015156139e957fe5b9060200190602002019073ffffffffffffffffffffffffffffffffffffffff16908173ffffffffffffffffffffffffffffffffffffffff168152505081806001019250506139ba565b613a4e8989858989600f6146419095949392919063ffffffff16565b9350600090505b8651811015613b11578681815181101515613a6c57fe5b9060200190602002015173ffffffffffffffffffffffffffffffffffffffff16637aee7e09856040518263ffffffff167c0100000000000000000000000000000000000000000000000000000000028152600401808260001916600019168152602001915050600060405180830381600087803b158015613aec57600080fd5b505af1158015613b00573d6000803e3d6000fd5b505050508080600101915050613a55565b50505095945050505050565b600073ffffffffffffffffffffffffffffffffffffffff168173ffffffffffffffffffffffffffffffffffffffff1614151515613b5957600080fd5b8073ffffffffffffffffffffffffffffffffffffffff166001809054906101000a900473ffffffffffffffffffffffffffffffffffffffff1673ffffffffffffffffffffffffffffffffffffffff167f8be0079c531659141344cd1fd0a4f28419497f9722a3daafe3b4186f6b6457e060405160405180910390a3806001806101000a81548173ffffffffffffffffffffffffffffffffffffffff021916908373ffffffffffffffffffffffffffffffffffffffff16021790555050565b600081600301905060206040519081016040528060016008811115613c3857fe5b60ff1660ff16815250816000806008811115613c5057fe5b60ff1660ff168152602001908152602001600020906001613c7292919061523a565b50604080519081016040528060026008811115613c8b57fe5b60ff1660ff16815260200160036008811115613ca357fe5b60ff1660ff1681525081600060016008811115613cbc57fe5b60ff1660ff168152602001908152602001600020906002613cde9291906152e1565b5060606040519081016040528060046008811115613cf857fe5b60ff1660ff16815260200160056008811115613d1057fe5b60ff1660ff16815260200160026008811115613d2857fe5b60ff1660ff1681525081600060036008811115613d4157fe5b60ff1660ff168152602001908152602001600020906003613d63929190615388565b50604080519081016040528060076008811115613d7c57fe5b60ff1660ff16815260200160066008811115613d9457fe5b60ff1660ff1681525081600060056008811115613dad57fe5b60ff1660ff168152602001908152602001600020906002613dcf9291906152e1565b505050565b6000806000858060040160009054906101000a900460ff161515613dfc57613dfb81613c17565b5b866001016001886000016000896000191660001916815260200190815260200160002060009054906101000a900461ffff160361ffff16815481101515613e3f57fe5b90600052602060002090600a02019250600091505b8260050180549050821015613ee7578473ffffffffffffffffffffffffffffffffffffffff168360050183815481101515613e8b57fe5b9060005260206000200160009054906101000a900473ffffffffffffffffffffffffffffffffffffffff1673ffffffffffffffffffffffffffffffffffffffff161415613eda57819350613f0b565b8180600101925050613e54565b7fffffffffffffffffffffffffffffffffffffffffffffffffffffffffffffffff93505b5050509392505050565b613f1d615112565b6000826000018360020154815481101515613f3457fe5b9060005260206000209060060201836001018460020154815481101515613f5757fe5b90600052602060002001548160c060405190810160405290816000820160009054906101000a900473ffffffffffffffffffffffffffffffffffffffff1673ffffffffffffffffffffffffffffffffffffffff1673ffffffffffffffffffffffffffffffffffffffff1681526020016001820160009054906101000a900473ffffffffffffffffffffffffffffffffffffffff1673ffffffffffffffffffffffffffffffffffffffff1673ffffffffffffffffffffffffffffffffffffffff1681526020016002820160009054906101000a900473ffffffffffffffffffffffffffffffffffffffff1673ffffffffffffffffffffffffffffffffffffffff1673ffffffffffffffffffffffffffffffffffffffff16815260200160038201548152602001600482015481526020016005820154600019166000191681525050915091509150915091565b80600201600081548092919060010191905055508060000160018260020154038154811015156140ce57fe5b9060005260206000209060060201600080820160006101000a81549073ffffffffffffffffffffffffffffffffffffffff02191690556001820160006101000a81549073ffffffffffffffffffffffffffffffffffffffff02191690556002820160006101000a81549073ffffffffffffffffffffffffffffffffffffffff0219169055600382016000905560048201600090556005820160009055505080600101600182600201540381548110151561418457fe5b906000526020600020016000905550565b6000848060040160009054906101000a900460ff1615156141ba576141b981613c17565b5b6141c5868686613dd4565b91507fffffffffffffffffffffffffffffffffffffffffffffffffffffffffffffffff82141515156141f657600080fd5b61420286868486614adc565b61420c8686614c26565b5050505050505050565b6000806000848060040160009054906101000a900460ff16151561423e5761423d81613c17565b5b60019350856001016001876000016000886000191660001916815260200190815260200160002060009054906101000a900461ffff160361ffff1681548110151561428557fe5b90600052602060002090600a02019250600091505b82600801805490508210156142f9576001151583600801838154811015156142be57fe5b90600052602060002090602091828204019190069054906101000a900460ff1615151415156142ec57600093505b818060010192505061429a565b50505092915050565b600080848060040160009054906101000a900460ff1615156143285761432781613c17565b5b85858560008060008092508560030160008760010160018960000160008a6000191660001916815260200190815260200160002060009054906101000a900461ffff160361ffff1681548110151561437c57fe5b90600052602060002090600a020160090160019054906101000a900460ff1660ff1660ff1681526020019081526020016000209150600090505b818054905081101561440f578360ff1682828154811015156143d457fe5b90600052602060002090602091828204019190069054906101000a900460ff1660ff16141561440257600192505b80806001019150506143b6565b6001151583151514151561442257600080fd5b8b60010160018d60000160008e6000191660001916815260200190815260200160002060009054906101000a900461ffff160361ffff1681548110151561446557fe5b90600052602060002090600a020198508860090160019054906101000a900460ff169750898960090160016101000a81548160ff021916908360ff1602179055508a600019167f9cb99c834b5e878ca7005d163b0fd70203dbc223d5845abe517de64a74dc5816898b60090160019054906101000a900460ff16604051808360ff1660ff1681526020018260ff1660ff1681526020019250505060405180910390a26145118c8c614e50565b505050505050505050505050565b600080838060040160009054906101000a900460ff1615156145455761454481613c17565b5b846001016001866000016000876000191660001916815260200190815260200160002060009054906101000a900461ffff160361ffff1681548110151561458857fe5b90600052602060002090600a02019250600091505b826008018054905082101561463a57600083600801838154811015156145bf57fe5b90600052602060002090602091828204019190066101000a81548160ff0219169083151502179055504283600701838154811015156145fa57fe5b90600052602060002090600891828204019190066004026101000a81548163ffffffff021916908363ffffffff160217905550818060010192505061459d565b5050505050565b6000806000888060040160009054906101000a900460ff1615156146695761466881613c17565b5b7fffffffffffffffffffffffffffffffffffffffffffffffffffffffffffffffff61ffff168a600101805490501015156146a257600080fd5b438a600101805490500160405180828152602001915050604051809103902093508960010161016060405190810160405280866000191681526020018b73ffffffffffffffffffffffffffffffffffffffff1681526020018a73ffffffffffffffffffffffffffffffffffffffff16815260200188815260200187600019168152602001898152602001895160405190808252806020026020018201604052801561476157816020015b606081526020019060019003908161474c5790505b50815260200189516040519080825280602002602001820160405280156147975781602001602082028038833980820191505090505b50815260200189516040519080825280602002602001820160405280156147cd5781602001602082028038833980820191505090505b508152602001600060ff168152602001600060088111156147ea57fe5b60ff168152509080600181540180825580915050906001820390600052602060002090600a0201600090919290919091506000820151816000019060001916905560208201518160010160006101000a81548173ffffffffffffffffffffffffffffffffffffffff021916908373ffffffffffffffffffffffffffffffffffffffff16021790555060408201518160020160006101000a81548173ffffffffffffffffffffffffffffffffffffffff021916908373ffffffffffffffffffffffffffffffffffffffff160217905550606082015181600301556080820151816004019060001916905560a08201518160050190805190602001906148ef92919061542f565b5060c082015181600601908051906020019061490c9291906154b9565b5060e0820151816007019080519060200190614929929190615519565b506101008201518160080190805190602001906149479291906155c9565b506101208201518160090160006101000a81548160ff021916908360ff1602179055506101408201518160090160016101000a81548160ff021916908360ff16021790555050505089600101805490508a6000016000866000191660001916815260200190815260200160002060006101000a81548161ffff021916908361ffff1602179055508960010160018b6000016000876000191660001916815260200190815260200160002060009054906101000a900461ffff160361ffff16815481101515614a1157fe5b90600052602060002090600a02019250600091505b8260070180549050821015614a8757428360070183815481101515614a4757fe5b90600052602060002090600891828204019190066004026101000a81548163ffffffff021916908363ffffffff1602179055508180600101925050614a26565b614a9e8a8560016008811115614a9957fe5b614302565b83600019167fcdd8e82457800d3241f19b61393a2bbceb40e44253685afc406b2bb489c84ad360405160405180910390a25050509695505050505050565b838060040160009054906101000a900460ff161515614aff57614afe81613c17565b5b81856001016001876000016000886000191660001916815260200190815260200160002060009054906101000a900461ffff160361ffff16815481101515614b4357fe5b90600052602060002090600a020160080184815481101515614b6157fe5b90600052602060002090602091828204019190066101000a81548160ff02191690831515021790555042856001016001876000016000886000191660001916815260200190815260200160002060009054906101000a900461ffff160361ffff16815481101515614bce57fe5b90600052602060002090600a020160070184815481101515614bec57fe5b90600052602060002090600891828204019190066004026101000a81548163ffffffff021916908363ffffffff1602179055505050505050565b600080600080858060040160009054906101000a900460ff161515614c4f57614c4e81613c17565b5b86866000826001016001846000016000856000191660001916815260200190815260200160002060009054906101000a900461ffff160361ffff16815481101515614c9657fe5b90600052602060002090600a0201905060016008811115614cb357fe5b60ff168160090160019054906101000a900460ff1660ff161480614cf9575060036008811115614cdf57fe5b60ff168160090160019054906101000a900460ff1660ff16145b80614d26575060056008811115614d0c57fe5b60ff168160090160019054906101000a900460ff1660ff16145b1515614d3157600080fd5b8960010160018b60000160008c6000191660001916815260200190815260200160002060009054906101000a900461ffff160361ffff16815481101515614d7457fe5b90600052602060002090600a02019550600094505b8560070180549050851015614e43576107088660070186815481101515614dac57fe5b90600052602060002090600891828204019190066004029054906101000a900463ffffffff164260ff160363ffffffff161115614e36578560050185815481101515614df457fe5b9060005260206000200160009054906101000a900473ffffffffffffffffffffffffffffffffffffffff1697508560090160019054906101000a900460ff1696505b8480600101955050614d89565b5050505050509250929050565b6000828060040160009054906101000a900460ff161515614e7557614e7481613c17565b5b836001016001856000016000866000191660001916815260200190815260200160002060009054906101000a900461ffff160361ffff16815481101515614eb857fe5b90600052602060002090600a020160090160019054906101000a900460ff16915060026008811115614ee657fe5b60ff168260ff161415614f295782600019167f5261c4ecde326f171b514c548529aa2219b22fedf2fa5640ae6f7d939aaefbf860405160405180910390a26150e4565b60036008811115614f3657fe5b60ff168260ff161415614f795782600019167f664052ccd6bc90c161d5b3a6ed2bff308e2bf01e52fbc112e7a8d445bb9c66ee60405160405180910390a26150e3565b60046008811115614f8657fe5b60ff168260ff161415614fc95782600019167fee170c67bd88e14fcfccdcf7817ddb732cb1a466d0c333f4642571d1282556eb60405160405180910390a26150e2565b60056008811115614fd657fe5b60ff168260ff1614156150195782600019167f3010926e292de172661e49071a9be4cb18f63877dffcc78013e349175f5b03b260405160405180910390a26150e1565b6006600881111561502657fe5b60ff168260ff1614156150795782600019167f439c5ac734864869b402ad7298724e0154a172f98a32de5c8e877b3f234dc5d76001604051808215151515815260200191505060405180910390a26150e0565b6007600881111561508657fe5b60ff168260ff1614156150df5782600019167f439c5ac734864869b402ad7298724e0154a172f98a32de5c8e877b3f234dc5d76000604051808215151515815260200191505060405180910390a26150de84846150ea565b5b5b5b5b5b5b50505050565b818060040160009054906101000a900460ff16151561510d5761510c81613c17565b5b505050565b60c060405190810160405280600073ffffffffffffffffffffffffffffffffffffffff168152602001600073ffffffffffffffffffffffffffffffffffffffff168152602001600073ffffffffffffffffffffffffffffffffffffffff1681526020016000815260200160008152602001600080191681525090565b8154818355818111156151b5578183600052602060002091820191016151b4919061566f565b5b505050565b828054600181600116156101000203166002900490600052602060002090601f016020900481019282601f106151fb57805160ff1916838001178555615229565b82800160010185558215615229579182015b8281111561522857825182559160200191906001019061520d565b5b509050615236919061566f565b5090565b82805482825590600052602060002090601f016020900481019282156152d05791602002820160005b838211156152a157835183826101000a81548160ff021916908360ff1602179055509260200192600101602081600001049283019260010302615263565b80156152ce5782816101000a81549060ff02191690556001016020816000010492830192600103026152a1565b505b5090506152dd9190615694565b5090565b82805482825590600052602060002090601f016020900481019282156153775791602002820160005b8382111561534857835183826101000a81548160ff021916908360ff160217905550926020019260010160208160000104928301926001030261530a565b80156153755782816101000a81549060ff0219169055600101602081600001049283019260010302615348565b505b5090506153849190615694565b5090565b82805482825590600052602060002090601f0160209004810192821561541e5791602002820160005b838211156153ef57835183826101000a81548160ff021916908360ff16021790555092602001926001016020816000010492830192600103026153b1565b801561541c5782816101000a81549060ff02191690556001016020816000010492830192600103026153ef565b505b50905061542b9190615694565b5090565b8280548282559060005260206000209081019282156154a8579160200282015b828111156154a75782518260006101000a81548173ffffffffffffffffffffffffffffffffffffffff021916908373ffffffffffffffffffffffffffffffffffffffff1602179055509160200191906001019061544f565b5b5090506154b591906156c4565b5090565b828054828255906000526020600020908101928215615508579160200282015b828111156155075782518290805190602001906154f7929190615707565b50916020019190600101906154d9565b5b5090506155159190615787565b5090565b828054828255906000526020600020906007016008900481019282156155b85791602002820160005b8382111561558657835183826101000a81548163ffffffff021916908363ffffffff1602179055509260200192600401602081600301049283019260010302615542565b80156155b65782816101000a81549063ffffffff0219169055600401602081600301049283019260010302615586565b505b5090506155c591906157b3565b5090565b82805482825590600052602060002090601f0160209004810192821561565e5791602002820160005b8382111561562f57835183826101000a81548160ff02191690831515021790555092602001926001016020816000010492830192600103026155f2565b801561565c5782816101000a81549060ff021916905560010160208160000104928301926001030261562f565b505b50905061566b91906157e6565b5090565b61569191905b8082111561568d576000816000905550600101615675565b5090565b90565b6156c191905b808211156156bd57600081816101000a81549060ff02191690555060010161569a565b5090565b90565b61570491905b8082111561570057600081816101000a81549073ffffffffffffffffffffffffffffffffffffffff0219169055506001016156ca565b5090565b90565b828054600181600116156101000203166002900490600052602060002090601f016020900481019282601f1061574857805160ff1916838001178555615776565b82800160010185558215615776579182015b8281111561577557825182559160200191906001019061575a565b5b509050615783919061566f565b5090565b6157b091905b808211156157ac57600081816157a39190615816565b5060010161578d565b5090565b90565b6157e391905b808211156157df57600081816101000a81549063ffffffff0219169055506001016157b9565b5090565b90565b61581391905b8082111561580f57600081816101000a81549060ff0219169055506001016157ec565b5090565b90565b50805460018160011615610100020316600290046000825580601f1061583c575061585b565b601f01602090049060005260206000209081019061585a919061566f565b5b505600a165627a7a723058200320027cca7081c02d0737918c50f76893d8ed9b4e2602abafe2a466dded60200029608060405234801561001057600080fd5b504360018190555061013e806100276000396000f300608060405260043610610041576000357c0100000000000000000000000000000000000000000000000000000000900463ffffffff168063cd4b691414610046575b600080fd5b34801561005257600080fd5b5061007160048036038101908080359060200190929190505050610087565b6040518082815260200191505060405180910390f35b60006001544311156100ce5743600181905550600a4303406001900443406001900401604051808281526020019150506040518091039020600081600019169055506100f9565b6000546040518082600019166000191681526020019150506040518091039020600081600019169055505b816000546001900481151561010a57fe5b0690509190505600a165627a7a7230582034d49b1d6c3ef1f3a22161d34872da9ae53c3c7a697801a5c84a085582735f940029",
  "source": "pragma solidity ^0.4.23;\n\nimport \"../Pandora.sol\";\n\ncontract PandoraHooks is Pandora {\n\n    address[3] _workerNodeOwners;\n\n    constructor(\n        WorkerNodeFactory _nodeFactory,\n        Reputation _reputation\n    )\n    Pandora(_nodeFactory, _reputation)\n    public {\n    }\n\n    function hook_whitelistedOwner(uint256 no)\n    public\n    view\n    returns (address) {\n        return _workerNodeOwners[no];\n    }\n\n    function hook_whitelistedOwnerCount()\n    public\n    view\n    returns (uint) {\n        return _workerNodeOwners.length;\n    }\n}\n",
  "sourcePath": "/home/kostysh/dev/pyrrha-consensus/contracts/pandora/hooks/PandoraHooks.sol",
  "compiler": {
    "name": "solc",
    "version": "0.4.24+commit.e67f0147.Emscripten.clang"
  },
  "schemaVersion": "2.0.1",
  "updatedAt": "2018-07-20T09:53:22.661Z"
}