{
  "contractName": "Pandora",
  "abi": [
    {
      "constant": true,
      "inputs": [],
      "name": "name",
      "outputs": [
        {
          "name": "",
          "type": "string"
        }
      ],
      "payable": false,
      "stateMutability": "view",
      "type": "function"
    },
    {
      "constant": false,
      "inputs": [
        {
          "name": "_spender",
          "type": "address"
        },
        {
          "name": "_value",
          "type": "uint256"
        }
      ],
      "name": "approve",
      "outputs": [
        {
          "name": "",
          "type": "bool"
        }
      ],
      "payable": false,
      "stateMutability": "nonpayable",
      "type": "function"
    },
    {
      "constant": true,
      "inputs": [
        {
          "name": "_job",
          "type": "address"
        }
      ],
      "name": "isActiveJob",
      "outputs": [
        {
          "name": "",
          "type": "bool"
        }
      ],
      "payable": false,
      "stateMutability": "view",
      "type": "function"
    },
    {
      "constant": true,
      "inputs": [],
      "name": "workerNodesCount",
      "outputs": [
        {
          "name": "",
          "type": "uint256"
        }
      ],
      "payable": false,
      "stateMutability": "view",
      "type": "function"
    },
    {
      "constant": false,
      "inputs": [
        {
          "name": "_workerOwner",
          "type": "address"
        }
      ],
      "name": "whitelistWorkerOwner",
      "outputs": [],
      "payable": false,
      "stateMutability": "nonpayable",
      "type": "function"
    },
    {
      "constant": true,
      "inputs": [],
      "name": "initialized",
      "outputs": [
        {
          "name": "",
          "type": "bool"
        }
      ],
      "payable": false,
      "stateMutability": "view",
      "type": "function"
    },
    {
      "constant": false,
      "inputs": [],
      "name": "finishCognitiveJob",
      "outputs": [],
      "payable": false,
      "stateMutability": "nonpayable",
      "type": "function"
    },
    {
      "constant": true,
      "inputs": [],
      "name": "totalSupply",
      "outputs": [
        {
          "name": "",
          "type": "uint256"
        }
      ],
      "payable": false,
      "stateMutability": "view",
      "type": "function"
    },
    {
      "constant": true,
      "inputs": [
        {
          "name": "",
          "type": "uint256"
        }
      ],
      "name": "workerNodes",
      "outputs": [
        {
          "name": "",
          "type": "address"
        }
      ],
      "payable": false,
      "stateMutability": "view",
      "type": "function"
    },
    {
      "constant": false,
      "inputs": [
        {
          "name": "_from",
          "type": "address"
        },
        {
          "name": "_to",
          "type": "address"
        },
        {
          "name": "_value",
          "type": "uint256"
        }
      ],
      "name": "transferFrom",
      "outputs": [
        {
          "name": "",
          "type": "bool"
        }
      ],
      "payable": false,
      "stateMutability": "nonpayable",
      "type": "function"
    },
    {
      "constant": true,
      "inputs": [],
      "name": "RESULT_CODE_JOB_CREATED",
      "outputs": [
        {
          "name": "",
          "type": "uint8"
        }
      ],
      "payable": false,
      "stateMutability": "view",
      "type": "function"
    },
    {
      "constant": true,
      "inputs": [],
      "name": "INITIAL_SUPPLY",
      "outputs": [
        {
          "name": "",
          "type": "uint256"
        }
      ],
      "payable": false,
      "stateMutability": "view",
      "type": "function"
    },
    {
      "constant": true,
      "inputs": [],
      "name": "decimals",
      "outputs": [
        {
          "name": "",
          "type": "uint256"
        }
      ],
      "payable": false,
      "stateMutability": "view",
      "type": "function"
    },
    {
      "constant": true,
      "inputs": [],
      "name": "cognitiveJobFactory",
      "outputs": [
        {
          "name": "",
          "type": "address"
        }
      ],
      "payable": false,
      "stateMutability": "view",
      "type": "function"
    },
    {
      "constant": true,
      "inputs": [],
      "name": "version",
      "outputs": [
        {
          "name": "",
          "type": "bytes32"
        }
      ],
      "payable": false,
      "stateMutability": "view",
      "type": "function"
    },
    {
      "constant": true,
      "inputs": [
        {
          "name": "",
          "type": "address"
        }
      ],
      "name": "jobAddresses",
      "outputs": [
        {
          "name": "",
          "type": "uint16"
        }
      ],
      "payable": false,
      "stateMutability": "view",
      "type": "function"
    },
    {
      "constant": false,
      "inputs": [
        {
          "name": "_guiltyWorker",
          "type": "address"
        },
        {
          "name": "_reason",
          "type": "uint8"
        }
      ],
      "name": "penaltizeWorkerNode",
      "outputs": [],
      "payable": false,
      "stateMutability": "nonpayable",
      "type": "function"
    },
    {
      "constant": false,
      "inputs": [
        {
          "name": "_spender",
          "type": "address"
        },
        {
          "name": "_subtractedValue",
          "type": "uint256"
        }
      ],
      "name": "decreaseApproval",
      "outputs": [
        {
          "name": "",
          "type": "bool"
        }
      ],
      "payable": false,
      "stateMutability": "nonpayable",
      "type": "function"
    },
    {
      "constant": true,
      "inputs": [
        {
          "name": "",
          "type": "address"
        }
      ],
      "name": "workerNodeOwners",
      "outputs": [
        {
          "name": "",
          "type": "bool"
        }
      ],
      "payable": false,
      "stateMutability": "view",
      "type": "function"
    },
    {
      "constant": true,
      "inputs": [
        {
          "name": "_owner",
          "type": "address"
        }
      ],
      "name": "balanceOf",
      "outputs": [
        {
          "name": "",
          "type": "uint256"
        }
      ],
      "payable": false,
      "stateMutability": "view",
      "type": "function"
    },
    {
      "constant": false,
      "inputs": [],
      "name": "renounceOwnership",
      "outputs": [],
      "payable": false,
      "stateMutability": "nonpayable",
      "type": "function"
    },
    {
      "constant": false,
      "inputs": [
        {
          "name": "_workerOwner",
          "type": "address"
        }
      ],
      "name": "blacklistWorkerOwner",
      "outputs": [],
      "payable": false,
      "stateMutability": "nonpayable",
      "type": "function"
    },
    {
      "constant": true,
      "inputs": [],
      "name": "RESULT_CODE_ADD_TO_QUEUE",
      "outputs": [
        {
          "name": "",
          "type": "uint8"
        }
      ],
      "payable": false,
      "stateMutability": "view",
      "type": "function"
    },
    {
      "constant": false,
      "inputs": [],
      "name": "createWorkerNode",
      "outputs": [
        {
          "name": "",
          "type": "address"
        }
      ],
      "payable": false,
      "stateMutability": "nonpayable",
      "type": "function"
    },
    {
      "constant": true,
      "inputs": [],
      "name": "owner",
      "outputs": [
        {
          "name": "",
          "type": "address"
        }
      ],
      "payable": false,
      "stateMutability": "view",
      "type": "function"
    },
    {
      "constant": true,
      "inputs": [],
      "name": "symbol",
      "outputs": [
        {
          "name": "",
          "type": "string"
        }
      ],
      "payable": false,
      "stateMutability": "view",
      "type": "function"
    },
    {
      "constant": true,
      "inputs": [],
      "name": "cognitiveJobsCount",
      "outputs": [
        {
          "name": "",
          "type": "uint256"
        }
      ],
      "payable": false,
      "stateMutability": "view",
      "type": "function"
    },
    {
      "constant": false,
      "inputs": [
        {
          "name": "_to",
          "type": "address"
        },
        {
          "name": "_value",
          "type": "uint256"
        }
      ],
      "name": "transfer",
      "outputs": [
        {
          "name": "",
          "type": "bool"
        }
      ],
      "payable": false,
      "stateMutability": "nonpayable",
      "type": "function"
    },
    {
      "constant": false,
      "inputs": [
        {
          "name": "_workerNode",
          "type": "address"
        }
      ],
      "name": "destroyWorkerNode",
      "outputs": [],
      "payable": false,
      "stateMutability": "nonpayable",
      "type": "function"
    },
    {
      "constant": true,
      "inputs": [
        {
          "name": "",
          "type": "uint256"
        }
      ],
      "name": "cognitiveJobs",
      "outputs": [
        {
          "name": "",
          "type": "address"
        }
      ],
      "payable": false,
      "stateMutability": "view",
      "type": "function"
    },
    {
      "constant": true,
      "inputs": [],
      "name": "REQUIRED_DEPOSIT",
      "outputs": [
        {
          "name": "",
          "type": "uint256"
        }
      ],
      "payable": false,
      "stateMutability": "view",
      "type": "function"
    },
    {
      "constant": false,
      "inputs": [
        {
          "name": "_spender",
          "type": "address"
        },
        {
          "name": "_addedValue",
          "type": "uint256"
        }
      ],
      "name": "increaseApproval",
      "outputs": [
        {
          "name": "",
          "type": "bool"
        }
      ],
      "payable": false,
      "stateMutability": "nonpayable",
      "type": "function"
    },
    {
      "constant": true,
      "inputs": [
        {
          "name": "_owner",
          "type": "address"
        },
        {
          "name": "_spender",
          "type": "address"
        }
      ],
      "name": "allowance",
      "outputs": [
        {
          "name": "",
          "type": "uint256"
        }
      ],
      "payable": false,
      "stateMutability": "view",
      "type": "function"
    },
    {
      "constant": false,
      "inputs": [
        {
          "name": "_kernel",
          "type": "address"
        },
        {
          "name": "_dataset",
          "type": "address"
        },
        {
          "name": "_complexity",
          "type": "uint256"
        },
        {
          "name": "_description",
          "type": "bytes32"
        }
      ],
      "name": "createCognitiveJob",
      "outputs": [
        {
          "name": "o_cognitiveJob",
          "type": "address"
        },
        {
          "name": "o_resultCode",
          "type": "uint8"
        }
      ],
      "payable": true,
      "stateMutability": "payable",
      "type": "function"
    },
    {
      "constant": false,
      "inputs": [
        {
          "name": "_newOwner",
          "type": "address"
        }
      ],
      "name": "transferOwnership",
      "outputs": [],
      "payable": false,
      "stateMutability": "nonpayable",
      "type": "function"
    },
    {
      "constant": true,
      "inputs": [],
      "name": "workerNodeFactory",
      "outputs": [
        {
          "name": "",
          "type": "address"
        }
      ],
      "payable": false,
      "stateMutability": "view",
      "type": "function"
    },
    {
      "constant": true,
      "inputs": [
        {
          "name": "",
          "type": "address"
        }
      ],
      "name": "deposits",
      "outputs": [
        {
          "name": "",
          "type": "uint256"
        }
      ],
      "payable": false,
      "stateMutability": "view",
      "type": "function"
    },
    {
      "constant": true,
      "inputs": [
        {
          "name": "",
          "type": "address"
        }
      ],
      "name": "workerAddresses",
      "outputs": [
        {
          "name": "",
          "type": "uint16"
        }
      ],
      "payable": false,
      "stateMutability": "view",
      "type": "function"
    },
    {
      "inputs": [
        {
          "name": "_jobFactory",
          "type": "address"
        },
        {
          "name": "_nodeFactory",
          "type": "address"
        },
        {
          "name": "_reputation",
          "type": "address"
        }
      ],
      "payable": false,
      "stateMutability": "nonpayable",
      "type": "constructor"
    },
    {
      "anonymous": false,
      "inputs": [
        {
          "indexed": false,
          "name": "cognitiveJob",
          "type": "address"
        },
        {
          "indexed": false,
          "name": "resultCode",
          "type": "uint256"
        }
      ],
      "name": "CognitiveJobCreated",
      "type": "event"
    },
    {
      "anonymous": false,
      "inputs": [
        {
          "indexed": false,
          "name": "cognitiveJob",
          "type": "address"
        },
        {
          "indexed": false,
          "name": "resultCode",
          "type": "uint256"
        }
      ],
      "name": "CognitiveJobCreateFailed",
      "type": "event"
    },
    {
      "anonymous": false,
      "inputs": [
        {
          "indexed": false,
          "name": "value",
          "type": "uint256"
        }
      ],
      "name": "DebugEvent",
      "type": "event"
    },
    {
      "anonymous": false,
      "inputs": [
        {
          "indexed": false,
          "name": "addr",
          "type": "address"
        }
      ],
      "name": "DebugEvent1",
      "type": "event"
    },
    {
      "anonymous": false,
      "inputs": [
        {
          "indexed": false,
          "name": "nodes",
          "type": "address[]"
        }
      ],
      "name": "DebugEvent2",
      "type": "event"
    },
    {
      "anonymous": false,
      "inputs": [
        {
          "indexed": false,
          "name": "descr",
          "type": "bytes32"
        }
      ],
      "name": "DebugEvent3",
      "type": "event"
    },
    {
      "anonymous": false,
      "inputs": [
        {
          "indexed": false,
          "name": "workerNode",
          "type": "address"
        }
      ],
      "name": "WorkerNodeCreated",
      "type": "event"
    },
    {
      "anonymous": false,
      "inputs": [
        {
          "indexed": false,
          "name": "workerNode",
          "type": "address"
        }
      ],
      "name": "WorkerNodeDestroyed",
      "type": "event"
    },
    {
      "anonymous": false,
      "inputs": [
        {
          "indexed": true,
          "name": "previousOwner",
          "type": "address"
        }
      ],
      "name": "OwnershipRenounced",
      "type": "event"
    },
    {
      "anonymous": false,
      "inputs": [
        {
          "indexed": true,
          "name": "previousOwner",
          "type": "address"
        },
        {
          "indexed": true,
          "name": "newOwner",
          "type": "address"
        }
      ],
      "name": "OwnershipTransferred",
      "type": "event"
    },
    {
      "anonymous": false,
      "inputs": [
        {
          "indexed": false,
          "name": "cognitiveJob",
          "type": "address"
        }
      ],
      "name": "CognitiveJobCreated",
      "type": "event"
    },
    {
      "anonymous": false,
      "inputs": [
        {
          "indexed": true,
          "name": "owner",
          "type": "address"
        },
        {
          "indexed": true,
          "name": "spender",
          "type": "address"
        },
        {
          "indexed": false,
          "name": "value",
          "type": "uint256"
        }
      ],
      "name": "Approval",
      "type": "event"
    },
    {
      "anonymous": false,
      "inputs": [
        {
          "indexed": true,
          "name": "from",
          "type": "address"
        },
        {
          "indexed": true,
          "name": "to",
          "type": "address"
        },
        {
          "indexed": false,
          "name": "value",
          "type": "uint256"
        }
      ],
      "name": "Transfer",
      "type": "event"
    },
    {
      "constant": false,
      "inputs": [],
      "name": "initialize",
      "outputs": [],
      "payable": false,
      "stateMutability": "nonpayable",
      "type": "function"
    }
  ],
  "bytecode": "0x60806040526000600460006101000a81548160ff0219169083151502179055503480156200002c57600080fd5b5060405160608062004dd0833981018060405281019080805190602001909291908051906020019092919080519060200190929190505050828282816601c6bf526340006003819055506601c6bf526340006000803373ffffffffffffffffffffffffffffffffffffffff1673ffffffffffffffffffffffffffffffffffffffff168152602001908152602001600020819055506000600460006101000a81548160ff02191690831515021790555033600760006101000a81548173ffffffffffffffffffffffffffffffffffffffff021916908373ffffffffffffffffffffffffffffffffffffffff160217905550600073ffffffffffffffffffffffffffffffffffffffff168173ffffffffffffffffffffffffffffffffffffffff16141515156200015957600080fd5b80600c60006101000a81548173ffffffffffffffffffffffffffffffffffffffff021916908373ffffffffffffffffffffffffffffffffffffffff16021790555050600073ffffffffffffffffffffffffffffffffffffffff168373ffffffffffffffffffffffffffffffffffffffff1614151515620001d857600080fd5b82601060006101000a81548173ffffffffffffffffffffffffffffffffffffffff021916908373ffffffffffffffffffffffffffffffffffffffff16021790555080601360006101000a81548173ffffffffffffffffffffffffffffffffffffffff021916908373ffffffffffffffffffffffffffffffffffffffff16021790555062000264620002ce565b604051809103906000f08015801562000281573d6000803e3d6000fd5b50601560006101000a81548173ffffffffffffffffffffffffffffffffffffffff021916908373ffffffffffffffffffffffffffffffffffffffff160217905550505050505050620002df565b6040516101658062004c6b83390190565b61497c80620002ef6000396000f3006080604052600436106101e3576000357c0100000000000000000000000000000000000000000000000000000000900463ffffffff16806306fdde03146101e8578063095ea7b3146102785780630ba58574146102dd5780630e3b581f1461033857806313b5165f14610363578063158ef93e146103a657806317131751146103d557806318160ddd146103ec5780631dc20af41461041757806323b872dd1461048457806323ce524a146105095780632ff2e9dc1461053a578063313ce5671461056557806336bad8281461059057806354fd4d50146105e75780635ecc2e441461061a5780635ef177761461067957806366188463146106c957806370064e331461072e57806370a0823114610789578063715018a6146107e05780637b3c611c146107f75780638129fc1c1461083a57806383c94c691461085157806386b07332146108825780638da5cb5b146108d957806395d89b4114610930578063a00197fb146109c0578063a9059cbb146109eb578063ae1092ae14610a50578063b643809514610a93578063be64b76b14610b00578063d73dd62314610b2b578063dd62ed3e14610b90578063ea84546b14610c07578063f2fde38b14610cc2578063f9d84ade14610d05578063fc7e286d14610d5c578063fdb5b8d414610db3575b600080fd5b3480156101f457600080fd5b506101fd610e12565b6040518080602001828103825283818151815260200191508051906020019080838360005b8381101561023d578082015181840152602081019050610222565b50505050905090810190601f16801561026a5780820380516001836020036101000a031916815260200191505b509250505060405180910390f35b34801561028457600080fd5b506102c3600480360381019080803573ffffffffffffffffffffffffffffffffffffffff16906020019092919080359060200190929190505050610e4b565b604051808215151515815260200191505060405180910390f35b3480156102e957600080fd5b5061031e600480360381019080803573ffffffffffffffffffffffffffffffffffffffff169060200190929190505050610f3d565b604051808215151515815260200191505060405180910390f35b34801561034457600080fd5b5061034d61104c565b6040518082815260200191505060405180910390f35b34801561036f57600080fd5b506103a4600480360381019080803573ffffffffffffffffffffffffffffffffffffffff16906020019092919050505061107b565b005b3480156103b257600080fd5b506103bb611132565b604051808215151515815260200191505060405180910390f35b3480156103e157600080fd5b506103ea611145565b005b3480156103f857600080fd5b50610401611499565b6040518082815260200191505060405180910390f35b34801561042357600080fd5b50610442600480360381019080803590602001909291905050506114a3565b604051808273ffffffffffffffffffffffffffffffffffffffff1673ffffffffffffffffffffffffffffffffffffffff16815260200191505060405180910390f35b34801561049057600080fd5b506104ef600480360381019080803573ffffffffffffffffffffffffffffffffffffffff169060200190929190803573ffffffffffffffffffffffffffffffffffffffff169060200190929190803590602001909291905050506114e1565b604051808215151515815260200191505060405180910390f35b34801561051557600080fd5b5061051e61189b565b604051808260ff1660ff16815260200191505060405180910390f35b34801561054657600080fd5b5061054f6118a0565b6040518082815260200191505060405180910390f35b34801561057157600080fd5b5061057a6118ab565b6040518082815260200191505060405180910390f35b34801561059c57600080fd5b506105a56118b0565b604051808273ffffffffffffffffffffffffffffffffffffffff1673ffffffffffffffffffffffffffffffffffffffff16815260200191505060405180910390f35b3480156105f357600080fd5b506105fc6118d6565b60405180826000191660001916815260200191505060405180910390f35b34801561062657600080fd5b5061065b600480360381019080803573ffffffffffffffffffffffffffffffffffffffff1690602001909291905050506118fa565b604051808261ffff1661ffff16815260200191505060405180910390f35b34801561068557600080fd5b506106c7600480360381019080803573ffffffffffffffffffffffffffffffffffffffff169060200190929190803560ff16906020019092919050505061191b565b005b3480156106d557600080fd5b50610714600480360381019080803573ffffffffffffffffffffffffffffffffffffffff16906020019092919080359060200190929190505050611941565b604051808215151515815260200191505060405180910390f35b34801561073a57600080fd5b5061076f600480360381019080803573ffffffffffffffffffffffffffffffffffffffff169060200190929190505050611bd2565b604051808215151515815260200191505060405180910390f35b34801561079557600080fd5b506107ca600480360381019080803573ffffffffffffffffffffffffffffffffffffffff169060200190929190505050611bf2565b6040518082815260200191505060405180910390f35b3480156107ec57600080fd5b506107f5611c3a565b005b34801561080357600080fd5b50610838600480360381019080803573ffffffffffffffffffffffffffffffffffffffff169060200190929190505050611d3f565b005b34801561084657600080fd5b5061084f611ded565b005b34801561085d57600080fd5b5061086661218d565b604051808260ff1660ff16815260200191505060405180910390f35b34801561088e57600080fd5b50610897612192565b604051808273ffffffffffffffffffffffffffffffffffffffff1673ffffffffffffffffffffffffffffffffffffffff16815260200191505060405180910390f35b3480156108e557600080fd5b506108ee61248c565b604051808273ffffffffffffffffffffffffffffffffffffffff1673ffffffffffffffffffffffffffffffffffffffff16815260200191505060405180910390f35b34801561093c57600080fd5b506109456124b2565b6040518080602001828103825283818151815260200191508051906020019080838360005b8381101561098557808201518184015260208101905061096a565b50505050905090810190601f1680156109b25780820380516001836020036101000a031916815260200191505b509250505060405180910390f35b3480156109cc57600080fd5b506109d56124eb565b6040518082815260200191505060405180910390f35b3480156109f757600080fd5b50610a36600480360381019080803573ffffffffffffffffffffffffffffffffffffffff1690602001909291908035906020019092919050505061251a565b604051808215151515815260200191505060405180910390f35b348015610a5c57600080fd5b50610a91600480360381019080803573ffffffffffffffffffffffffffffffffffffffff169060200190929190505050612739565b005b348015610a9f57600080fd5b50610abe60048036038101908080359060200190929190505050612c8c565b604051808273ffffffffffffffffffffffffffffffffffffffff1673ffffffffffffffffffffffffffffffffffffffff16815260200191505060405180910390f35b348015610b0c57600080fd5b50610b15612cca565b6040518082815260200191505060405180910390f35b348015610b3757600080fd5b50610b76600480360381019080803573ffffffffffffffffffffffffffffffffffffffff16906020019092919080359060200190929190505050612cd6565b604051808215151515815260200191505060405180910390f35b348015610b9c57600080fd5b50610bf1600480360381019080803573ffffffffffffffffffffffffffffffffffffffff169060200190929190803573ffffffffffffffffffffffffffffffffffffffff169060200190929190505050612ed2565b6040518082815260200191505060405180910390f35b610c73600480360381019080803573ffffffffffffffffffffffffffffffffffffffff169060200190929190803573ffffffffffffffffffffffffffffffffffffffff169060200190929190803590602001909291908035600019169060200190929190505050612f59565b604051808373ffffffffffffffffffffffffffffffffffffffff1673ffffffffffffffffffffffffffffffffffffffff1681526020018260ff1660ff1681526020019250505060405180910390f35b348015610cce57600080fd5b50610d03600480360381019080803573ffffffffffffffffffffffffffffffffffffffff1690602001909291905050506133a1565b005b348015610d1157600080fd5b50610d1a613409565b604051808273ffffffffffffffffffffffffffffffffffffffff1673ffffffffffffffffffffffffffffffffffffffff16815260200191505060405180910390f35b348015610d6857600080fd5b50610d9d600480360381019080803573ffffffffffffffffffffffffffffffffffffffff16906020019092919050505061342f565b6040518082815260200191505060405180910390f35b348015610dbf57600080fd5b50610df4600480360381019080803573ffffffffffffffffffffffffffffffffffffffff169060200190929190505050613447565b604051808261ffff1661ffff16815260200191505060405180910390f35b6040805190810160405280600781526020017f50616e646f72610000000000000000000000000000000000000000000000000081525081565b600081600260003373ffffffffffffffffffffffffffffffffffffffff1673ffffffffffffffffffffffffffffffffffffffff16815260200190815260200160002060008573ffffffffffffffffffffffffffffffffffffffff1673ffffffffffffffffffffffffffffffffffffffff168152602001908152602001600020819055508273ffffffffffffffffffffffffffffffffffffffff163373ffffffffffffffffffffffffffffffffffffffff167f8c5be1e5ebec7d5bd14f71427d1e84f3dd0314c0f7b2291e5b200ac8c7c3b925846040518082815260200191505060405180910390a36001905092915050565b600080600060011515600460009054906101000a900460ff161515141515610f6457600080fd5b601160008573ffffffffffffffffffffffffffffffffffffffff1673ffffffffffffffffffffffffffffffffffffffff16815260200190815260200160002060009054906101000a900461ffff16915060008261ffff161415610fca5760009250611045565b81806001900392505060128261ffff16815481101515610fe657fe5b9060005260206000200160009054906101000a900473ffffffffffffffffffffffffffffffffffffffff1690508373ffffffffffffffffffffffffffffffffffffffff168173ffffffffffffffffffffffffffffffffffffffff161492505b5050919050565b600060011515600460009054906101000a900460ff16151514151561107057600080fd5b600d80549050905090565b600760009054906101000a900473ffffffffffffffffffffffffffffffffffffffff1673ffffffffffffffffffffffffffffffffffffffff163373ffffffffffffffffffffffffffffffffffffffff161415156110d757600080fd5b6001600f60008373ffffffffffffffffffffffffffffffffffffffff1673ffffffffffffffffffffffffffffffffffffffff16815260200190815260200160002060006101000a81548160ff02191690831515021790555050565b600460009054906101000a900460ff1681565b60008060008060011515600460009054906101000a900460ff16151514151561116d57600080fd5b601160003373ffffffffffffffffffffffffffffffffffffffff1673ffffffffffffffffffffffffffffffffffffffff16815260200190815260200160002060009054906101000a900461ffff16935060008461ffff16141515156111d157600080fd5b83806001900394505060128461ffff168154811015156111ed57fe5b9060005260206000200160009054906101000a900473ffffffffffffffffffffffffffffffffffffffff1692503373ffffffffffffffffffffffffffffffffffffffff168373ffffffffffffffffffffffffffffffffffffffff1614151561125457600080fd5b61125c613468565b8273ffffffffffffffffffffffffffffffffffffffff166323d554736040518163ffffffff167c0100000000000000000000000000000000000000000000000000000000028152600401602060405180830381600087803b1580156112c057600080fd5b505af11580156112d4573d6000803e3d6000fd5b505050506040513d60208110156112ea57600080fd5b81019080805190602001909291905050509150600090505b8273ffffffffffffffffffffffffffffffffffffffff16634804b4ba6040518163ffffffff167c0100000000000000000000000000000000000000000000000000000000028152600401602060405180830381600087803b15801561136657600080fd5b505af115801561137a573d6000803e3d6000fd5b505050506040513d602081101561139057600080fd5b81019080805190602001909291905050508111151561149357601360009054906101000a900473ffffffffffffffffffffffffffffffffffffffff1673ffffffffffffffffffffffffffffffffffffffff1663e6808ff082846040518363ffffffff167c0100000000000000000000000000000000000000000000000000000000028152600401808373ffffffffffffffffffffffffffffffffffffffff1673ffffffffffffffffffffffffffffffffffffffff16815260200182815260200192505050600060405180830381600087803b15801561146e57600080fd5b505af1158015611482573d6000803e3d6000fd5b505050508080600101915050611302565b50505050565b6000600354905090565b600d818154811015156114b257fe5b906000526020600020016000915054906101000a900473ffffffffffffffffffffffffffffffffffffffff1681565b60008073ffffffffffffffffffffffffffffffffffffffff168373ffffffffffffffffffffffffffffffffffffffff161415151561151e57600080fd5b6000808573ffffffffffffffffffffffffffffffffffffffff1673ffffffffffffffffffffffffffffffffffffffff16815260200190815260200160002054821115151561156b57600080fd5b600260008573ffffffffffffffffffffffffffffffffffffffff1673ffffffffffffffffffffffffffffffffffffffff16815260200190815260200160002060003373ffffffffffffffffffffffffffffffffffffffff1673ffffffffffffffffffffffffffffffffffffffff1681526020019081526020016000205482111515156115f657600080fd5b611647826000808773ffffffffffffffffffffffffffffffffffffffff1673ffffffffffffffffffffffffffffffffffffffff1681526020019081526020016000205461373290919063ffffffff16565b6000808673ffffffffffffffffffffffffffffffffffffffff1673ffffffffffffffffffffffffffffffffffffffff168152602001908152602001600020819055506116da826000808673ffffffffffffffffffffffffffffffffffffffff1673ffffffffffffffffffffffffffffffffffffffff1681526020019081526020016000205461374b90919063ffffffff16565b6000808573ffffffffffffffffffffffffffffffffffffffff1673ffffffffffffffffffffffffffffffffffffffff168152602001908152602001600020819055506117ab82600260008773ffffffffffffffffffffffffffffffffffffffff1673ffffffffffffffffffffffffffffffffffffffff16815260200190815260200160002060003373ffffffffffffffffffffffffffffffffffffffff1673ffffffffffffffffffffffffffffffffffffffff1681526020019081526020016000205461373290919063ffffffff16565b600260008673ffffffffffffffffffffffffffffffffffffffff1673ffffffffffffffffffffffffffffffffffffffff16815260200190815260200160002060003373ffffffffffffffffffffffffffffffffffffffff1673ffffffffffffffffffffffffffffffffffffffff168152602001908152602001600020819055508273ffffffffffffffffffffffffffffffffffffffff168473ffffffffffffffffffffffffffffffffffffffff167fddf252ad1be2c89b69c2b068fc378daa952ba7f163c4a11628f55a4df523b3ef846040518082815260200191505060405180910390a3600190509392505050565b600181565b6601c6bf5263400081565b601281565b601060009054906101000a900473ffffffffffffffffffffffffffffffffffffffff1681565b7f302e342e3100000000000000000000000000000000000000000000000000000081565b60116020528060005260406000206000915054906101000a900461ffff1681565b60011515600460009054906101000a900460ff16151514151561193d57600080fd5b5050565b600080600260003373ffffffffffffffffffffffffffffffffffffffff1673ffffffffffffffffffffffffffffffffffffffff16815260200190815260200160002060008573ffffffffffffffffffffffffffffffffffffffff1673ffffffffffffffffffffffffffffffffffffffff16815260200190815260200160002054905080831115611a52576000600260003373ffffffffffffffffffffffffffffffffffffffff1673ffffffffffffffffffffffffffffffffffffffff16815260200190815260200160002060008673ffffffffffffffffffffffffffffffffffffffff1673ffffffffffffffffffffffffffffffffffffffff16815260200190815260200160002081905550611ae6565b611a65838261373290919063ffffffff16565b600260003373ffffffffffffffffffffffffffffffffffffffff1673ffffffffffffffffffffffffffffffffffffffff16815260200190815260200160002060008673ffffffffffffffffffffffffffffffffffffffff1673ffffffffffffffffffffffffffffffffffffffff168152602001908152602001600020819055505b8373ffffffffffffffffffffffffffffffffffffffff163373ffffffffffffffffffffffffffffffffffffffff167f8c5be1e5ebec7d5bd14f71427d1e84f3dd0314c0f7b2291e5b200ac8c7c3b925600260003373ffffffffffffffffffffffffffffffffffffffff1673ffffffffffffffffffffffffffffffffffffffff16815260200190815260200160002060008873ffffffffffffffffffffffffffffffffffffffff1673ffffffffffffffffffffffffffffffffffffffff168152602001908152602001600020546040518082815260200191505060405180910390a3600191505092915050565b600f6020528060005260406000206000915054906101000a900460ff1681565b60008060008373ffffffffffffffffffffffffffffffffffffffff1673ffffffffffffffffffffffffffffffffffffffff168152602001908152602001600020549050919050565b600760009054906101000a900473ffffffffffffffffffffffffffffffffffffffff1673ffffffffffffffffffffffffffffffffffffffff163373ffffffffffffffffffffffffffffffffffffffff16141515611c9657600080fd5b600760009054906101000a900473ffffffffffffffffffffffffffffffffffffffff1673ffffffffffffffffffffffffffffffffffffffff167ff8df31144d9c2f0f6b59d69b8b98abd5459d07f2742c4df920b25aae33c6482060405160405180910390a26000600760006101000a81548173ffffffffffffffffffffffffffffffffffffffff021916908373ffffffffffffffffffffffffffffffffffffffff160217905550565b600760009054906101000a900473ffffffffffffffffffffffffffffffffffffffff1673ffffffffffffffffffffffffffffffffffffffff163373ffffffffffffffffffffffffffffffffffffffff16141515611d9b57600080fd5b600f60008273ffffffffffffffffffffffffffffffffffffffff1673ffffffffffffffffffffffffffffffffffffffff16815260200190815260200160002060006101000a81549060ff021916905550565b600760009054906101000a900473ffffffffffffffffffffffffffffffffffffffff1673ffffffffffffffffffffffffffffffffffffffff163373ffffffffffffffffffffffffffffffffffffffff16141515611e4957600080fd5b6040805190810160405280600a81526020017f696e697469616c697a650000000000000000000000000000000000000000000081525060001515600b826040518082805190602001908083835b602083101515611ebb5780518252602082019150602081019050602083039250611e96565b6001836020036101000a038019825116818451168082178552505050505050905001915050908152602001604051809103902060009054906101000a900460ff161515141515611f0a57600080fd5b3073ffffffffffffffffffffffffffffffffffffffff16600c60009054906101000a900473ffffffffffffffffffffffffffffffffffffffff1673ffffffffffffffffffffffffffffffffffffffff16638da5cb5b6040518163ffffffff167c0100000000000000000000000000000000000000000000000000000000028152600401602060405180830381600087803b158015611fa757600080fd5b505af1158015611fbb573d6000803e3d6000fd5b505050506040513d6020811015611fd157600080fd5b810190808051906020019092919050505073ffffffffffffffffffffffffffffffffffffffff1614151561200457600080fd5b3073ffffffffffffffffffffffffffffffffffffffff16601060009054906101000a900473ffffffffffffffffffffffffffffffffffffffff1673ffffffffffffffffffffffffffffffffffffffff16638da5cb5b6040518163ffffffff167c0100000000000000000000000000000000000000000000000000000000028152600401602060405180830381600087803b1580156120a157600080fd5b505af11580156120b5573d6000803e3d6000fd5b505050506040513d60208110156120cb57600080fd5b810190808051906020019092919050505073ffffffffffffffffffffffffffffffffffffffff161415156120fe57600080fd5b612106613767565b6001600b826040518082805190602001908083835b602083101515612140578051825260208201915060208101905060208303925061211b565b6001836020036101000a038019825116818451168082178552505050505050905001915050908152602001604051809103902060006101000a81548160ff02191690831515021790555050565b600081565b60008060011515600460009054906101000a900460ff1615151415156121b757600080fd5b60011515600f60003373ffffffffffffffffffffffffffffffffffffffff1673ffffffffffffffffffffffffffffffffffffffff16815260200190815260200160002060009054906101000a900460ff16151514151561221657600080fd5b3273ffffffffffffffffffffffffffffffffffffffff163373ffffffffffffffffffffffffffffffffffffffff1614151561225057600080fd5b600d808054905010151561226357600080fd5b600c60009054906101000a900473ffffffffffffffffffffffffffffffffffffffff1673ffffffffffffffffffffffffffffffffffffffff16639ed93318336040518263ffffffff167c0100000000000000000000000000000000000000000000000000000000028152600401808273ffffffffffffffffffffffffffffffffffffffff1673ffffffffffffffffffffffffffffffffffffffff168152602001915050602060405180830381600087803b15801561232057600080fd5b505af1158015612334573d6000803e3d6000fd5b505050506040513d602081101561234a57600080fd5b81019080805190602001909291905050509050600d8190806001815401808255809150509060018203906000526020600020016000909192909190916101000a81548173ffffffffffffffffffffffffffffffffffffffff021916908373ffffffffffffffffffffffffffffffffffffffff16021790555050600d80549050600e60008373ffffffffffffffffffffffffffffffffffffffff1673ffffffffffffffffffffffffffffffffffffffff16815260200190815260200160002060006101000a81548161ffff021916908361ffff1602179055507f093794466f44429afc8d8ec2c4c7f42c98d5db9b3db965ce46a31e7d4f7c29c881604051808273ffffffffffffffffffffffffffffffffffffffff1673ffffffffffffffffffffffffffffffffffffffff16815260200191505060405180910390a18091505090565b600760009054906101000a900473ffffffffffffffffffffffffffffffffffffffff1681565b6040805190810160405280600381526020017f50414e000000000000000000000000000000000000000000000000000000000081525081565b600060011515600460009054906101000a900460ff16151514151561250f57600080fd5b601280549050905090565b60008073ffffffffffffffffffffffffffffffffffffffff168373ffffffffffffffffffffffffffffffffffffffff161415151561255757600080fd5b6000803373ffffffffffffffffffffffffffffffffffffffff1673ffffffffffffffffffffffffffffffffffffffff1681526020019081526020016000205482111515156125a457600080fd5b6125f5826000803373ffffffffffffffffffffffffffffffffffffffff1673ffffffffffffffffffffffffffffffffffffffff1681526020019081526020016000205461373290919063ffffffff16565b6000803373ffffffffffffffffffffffffffffffffffffffff1673ffffffffffffffffffffffffffffffffffffffff16815260200190815260200160002081905550612688826000808673ffffffffffffffffffffffffffffffffffffffff1673ffffffffffffffffffffffffffffffffffffffff1681526020019081526020016000205461374b90919063ffffffff16565b6000808573ffffffffffffffffffffffffffffffffffffffff1673ffffffffffffffffffffffffffffffffffffffff168152602001908152602001600020819055508273ffffffffffffffffffffffffffffffffffffffff163373ffffffffffffffffffffffffffffffffffffffff167fddf252ad1be2c89b69c2b068fc378daa952ba7f163c4a11628f55a4df523b3ef846040518082815260200191505060405180910390a36001905092915050565b60008060008360003390508173ffffffffffffffffffffffffffffffffffffffff16638da5cb5b6040518163ffffffff167c0100000000000000000000000000000000000000000000000000000000028152600401602060405180830381600087803b1580156127a857600080fd5b505af11580156127bc573d6000803e3d6000fd5b505050506040513d60208110156127d257600080fd5b810190808051906020019092919050505073ffffffffffffffffffffffffffffffffffffffff168173ffffffffffffffffffffffffffffffffffffffff1614151561281c57600080fd5b6000600e60008373ffffffffffffffffffffffffffffffffffffffff1673ffffffffffffffffffffffffffffffffffffffff16815260200190815260200160002060009054906101000a900461ffff1661ffff1611151561287c57600080fd5b60011515600460009054906101000a900460ff16151514151561289e57600080fd5b3394508573ffffffffffffffffffffffffffffffffffffffff1663ae897c556040518163ffffffff167c0100000000000000000000000000000000000000000000000000000000028152600401602060405180830381600087803b15801561290557600080fd5b505af1158015612919573d6000803e3d6000fd5b505050506040513d602081101561292f57600080fd5b810190808051906020019092919050505060ff168673ffffffffffffffffffffffffffffffffffffffff16630c3f6acf6040518163ffffffff167c0100000000000000000000000000000000000000000000000000000000028152600401602060405180830381600087803b1580156129a757600080fd5b505af11580156129bb573d6000803e3d6000fd5b505050506040513d60208110156129d157600080fd5b810190808051906020019092919050505060ff161415156129f157600080fd5b8573ffffffffffffffffffffffffffffffffffffffff166383197ef06040518163ffffffff167c0100000000000000000000000000000000000000000000000000000000028152600401600060405180830381600087803b158015612a5557600080fd5b505af1158015612a69573d6000803e3d6000fd5b505050506001600e60008773ffffffffffffffffffffffffffffffffffffffff1673ffffffffffffffffffffffffffffffffffffffff16815260200190815260200160002060009054906101000a900461ffff16039350600e60008673ffffffffffffffffffffffffffffffffffffffff1673ffffffffffffffffffffffffffffffffffffffff16815260200190815260200160002060006101000a81549061ffff0219169055600d6001600d8054905003815481101515612b2757fe5b9060005260206000200160009054906101000a900473ffffffffffffffffffffffffffffffffffffffff16600d8561ffff16815481101515612b6557fe5b9060005260206000200160006101000a81548173ffffffffffffffffffffffffffffffffffffffff021916908373ffffffffffffffffffffffffffffffffffffffff1602179055925060018401600e60008573ffffffffffffffffffffffffffffffffffffffff1673ffffffffffffffffffffffffffffffffffffffff16815260200190815260200160002060006101000a81548161ffff021916908361ffff160217905550600d805480919060019003612c209190614883565b507f677f03e392472a48b617167ed4dbec758d26d8517257ec077bed2d27d192816486604051808273ffffffffffffffffffffffffffffffffffffffff1673ffffffffffffffffffffffffffffffffffffffff16815260200191505060405180910390a1505050505050565b601281815481101515612c9b57fe5b906000526020600020016000915054906101000a900473ffffffffffffffffffffffffffffffffffffffff1681565b6706f05b59d3b2000081565b6000612d6782600260003373ffffffffffffffffffffffffffffffffffffffff1673ffffffffffffffffffffffffffffffffffffffff16815260200190815260200160002060008673ffffffffffffffffffffffffffffffffffffffff1673ffffffffffffffffffffffffffffffffffffffff1681526020019081526020016000205461374b90919063ffffffff16565b600260003373ffffffffffffffffffffffffffffffffffffffff1673ffffffffffffffffffffffffffffffffffffffff16815260200190815260200160002060008573ffffffffffffffffffffffffffffffffffffffff1673ffffffffffffffffffffffffffffffffffffffff168152602001908152602001600020819055508273ffffffffffffffffffffffffffffffffffffffff163373ffffffffffffffffffffffffffffffffffffffff167f8c5be1e5ebec7d5bd14f71427d1e84f3dd0314c0f7b2291e5b200ac8c7c3b925600260003373ffffffffffffffffffffffffffffffffffffffff1673ffffffffffffffffffffffffffffffffffffffff16815260200190815260200160002060008773ffffffffffffffffffffffffffffffffffffffff1673ffffffffffffffffffffffffffffffffffffffff168152602001908152602001600020546040518082815260200191505060405180910390a36001905092915050565b6000600260008473ffffffffffffffffffffffffffffffffffffffff1673ffffffffffffffffffffffffffffffffffffffff16815260200190815260200160002060008373ffffffffffffffffffffffffffffffffffffffff1673ffffffffffffffffffffffffffffffffffffffff16815260200190815260200160002054905092915050565b60008060008060608060011515600460009054906101000a900460ff161515141515612f8457600080fd5b8873ffffffffffffffffffffffffffffffffffffffff166387ea09616040518163ffffffff167c0100000000000000000000000000000000000000000000000000000000028152600401602060405180830381600087803b158015612fe857600080fd5b505af1158015612ffc573d6000803e3d6000fd5b505050506040513d602081101561301257600080fd5b81019080805190602001909291905050509350600a8460ff161115151561303857600080fd5b8873ffffffffffffffffffffffffffffffffffffffff1663b1f8d9ba6040518163ffffffff167c0100000000000000000000000000000000000000000000000000000000028152600401602060405180830381600087803b15801561309c57600080fd5b505af11580156130b0573d6000803e3d6000fd5b505050506040513d60208110156130c657600080fd5b81019080805190602001909291905050508a73ffffffffffffffffffffffffffffffffffffffff1663b1f8d9ba6040518163ffffffff167c0100000000000000000000000000000000000000000000000000000000028152600401602060405180830381600087803b15801561313b57600080fd5b505af115801561314f573d6000803e3d6000fd5b505050506040513d602081101561316557600080fd5b810190808051906020019092919050505014151561318257600080fd5b600d60128054905010151561319657600080fd5b6706f05b59d3b2000034101515156131ad57600080fd5b6131b5613784565b92508360ff1683101561326357600094506131e98a8a33348860ff168d8d601661397690979695949392919063ffffffff16565b507fea6be648d373c4709986e67f6b7ee9ef9875b1243f38efc6bd48024bc10f8aac8686604051808373ffffffffffffffffffffffffffffffffffffffff1673ffffffffffffffffffffffffffffffffffffffff1681526020018260ff1681526020019250505060405180910390a1858595509550613394565b61326c83613b7b565b915061327b828560ff16613e28565b905061328a8a8a838b8b613fcc565b9550600194506132e234601460003373ffffffffffffffffffffffffffffffffffffffff1673ffffffffffffffffffffffffffffffffffffffff1681526020019081526020016000205461374b90919063ffffffff16565b601460003373ffffffffffffffffffffffffffffffffffffffff1673ffffffffffffffffffffffffffffffffffffffff168152602001908152602001600020819055507f422ca471d1a1b69b87453d0f5149fd001dc7fd04fc2b5b8b8d70b17398a9b85a8686604051808373ffffffffffffffffffffffffffffffffffffffff1673ffffffffffffffffffffffffffffffffffffffff1681526020018260ff1681526020019250505060405180910390a15b5050505094509492505050565b600760009054906101000a900473ffffffffffffffffffffffffffffffffffffffff1673ffffffffffffffffffffffffffffffffffffffff163373ffffffffffffffffffffffffffffffffffffffff161415156133fd57600080fd5b6134068161444f565b50565b600c60009054906101000a900473ffffffffffffffffffffffffffffffffffffffff1681565b60146020528060005260406000206000915090505481565b600e6020528060005260406000206000915054906101000a900461ffff1681565b6134706148af565b6000806000806060600080606060008060011515600460009054906101000a900460ff1615151415156134a257600080fd5b6134ac601661454b565b9950600a8a116134bc57896134bf565b600a5b9950600098505b89891015613725575a97506134d9613784565b96506000871115156134ea57613725565b6134f387613b7b565b955085519450868514151561350757613725565b61351b85601661456290919063ffffffff16565b151561352657613725565b613530601661458b565b809550819c505050613546868c60600151613e28565b92506135528b846145ba565b91507f422ca471d1a1b69b87453d0f5149fd001dc7fd04fc2b5b8b8d70b17398a9b85a826001604051808373ffffffffffffffffffffffffffffffffffffffff1673ffffffffffffffffffffffffffffffffffffffff1681526020018260ff1681526020019250505060405180910390a13a5a8961dea80103029050838111156135da578390505b61363084601460008e6040015173ffffffffffffffffffffffffffffffffffffffff1673ffffffffffffffffffffffffffffffffffffffff1681526020019081526020016000205461373290919063ffffffff16565b601460008d6040015173ffffffffffffffffffffffffffffffffffffffff1673ffffffffffffffffffffffffffffffffffffffff168152602001908152602001600020819055503273ffffffffffffffffffffffffffffffffffffffff166108fc829081150290604051600060405180830381858888f193505050501580156136bd573d6000803e3d6000fd5b506000818503141515613718578a6040015173ffffffffffffffffffffffffffffffffffffffff166108fc8286039081150290604051600060405180830381858888f19350505050158015613716573d6000803e3d6000fd5b505b88806001019950506134c6565b5050505050505050505050565b600082821115151561374057fe5b818303905092915050565b6000818301905082811015151561375e57fe5b80905092915050565b6001600460006101000a81548160ff021916908315150217905550565b60008060009150600090505b600d8054905081101561396f57600d818154811015156137ac57fe5b9060005260206000200160009054906101000a900473ffffffffffffffffffffffffffffffffffffffff1673ffffffffffffffffffffffffffffffffffffffff1663ae897c556040518163ffffffff167c0100000000000000000000000000000000000000000000000000000000028152600401602060405180830381600087803b15801561383a57600080fd5b505af115801561384e573d6000803e3d6000fd5b505050506040513d602081101561386457600080fd5b810190808051906020019092919050505060ff16600d8281548110151561388757fe5b9060005260206000200160009054906101000a900473ffffffffffffffffffffffffffffffffffffffff1673ffffffffffffffffffffffffffffffffffffffff16630c3f6acf6040518163ffffffff167c0100000000000000000000000000000000000000000000000000000000028152600401602060405180830381600087803b15801561391557600080fd5b505af1158015613929573d6000803e3d6000fd5b505050506040513d602081101561393f57600080fd5b810190808051906020019092919050505060ff1614156139625781806001019250505b8080600101915050613790565b8191505090565b6000886000018054905060018a600001805490500111151561399757600080fd5b8860000160c0604051908101604052808a73ffffffffffffffffffffffffffffffffffffffff1681526020018973ffffffffffffffffffffffffffffffffffffffff1681526020018873ffffffffffffffffffffffffffffffffffffffff16815260200186815260200185815260200184600019168152509080600181540180825580915050906001820390600052602060002090600602016000909192909190915060008201518160000160006101000a81548173ffffffffffffffffffffffffffffffffffffffff021916908373ffffffffffffffffffffffffffffffffffffffff16021790555060208201518160010160006101000a81548173ffffffffffffffffffffffffffffffffffffffff021916908373ffffffffffffffffffffffffffffffffffffffff16021790555060408201518160020160006101000a81548173ffffffffffffffffffffffffffffffffffffffff021916908373ffffffffffffffffffffffffffffffffffffffff160217905550606082015181600301556080820151816004015560a0820151816005019060001916905550505088600101859080600181540180825580915050906001820390600052602060002001600090919290919091505550613b6d8961454b565b905098975050505050505050565b60608060008084604051908082528060200260200182016040528015613bb05781602001602082028038833980820191505090505b50925060009150600090505b600d80549050811015613e1d57600d81815481101515613bd857fe5b9060005260206000200160009054906101000a900473ffffffffffffffffffffffffffffffffffffffff1673ffffffffffffffffffffffffffffffffffffffff1663ae897c556040518163ffffffff167c0100000000000000000000000000000000000000000000000000000000028152600401602060405180830381600087803b158015613c6657600080fd5b505af1158015613c7a573d6000803e3d6000fd5b505050506040513d6020811015613c9057600080fd5b810190808051906020019092919050505060ff16600d82815481101515613cb357fe5b9060005260206000200160009054906101000a900473ffffffffffffffffffffffffffffffffffffffff1673ffffffffffffffffffffffffffffffffffffffff16630c3f6acf6040518163ffffffff167c0100000000000000000000000000000000000000000000000000000000028152600401602060405180830381600087803b158015613d4157600080fd5b505af1158015613d55573d6000803e3d6000fd5b505050506040513d6020811015613d6b57600080fd5b810190808051906020019092919050505060ff161415613e1057600d81815481101515613d9457fe5b9060005260206000200160009054906101000a900473ffffffffffffffffffffffffffffffffffffffff168383806001019450815181101515613dd357fe5b9060200190602002019073ffffffffffffffffffffffffffffffffffffffff16908173ffffffffffffffffffffffffffffffffffffffff16815250505b8080600101915050613bbc565b829350505050919050565b606060008083604051908082528060200260200182016040528015613e5c5781602001602082028038833980820191505090505b509250601560009054906101000a900473ffffffffffffffffffffffffffffffffffffffff1673ffffffffffffffffffffffffffffffffffffffff1663cd4b691484516040518263ffffffff167c010000000000000000000000000000000000000000000000000000000002815260040180828152602001915050602060405180830381600087803b158015613ef157600080fd5b505af1158015613f05573d6000803e3d6000fd5b505050506040513d6020811015613f1b57600080fd5b81019080805190602001909291905050509150600090505b8251811015613fc4578482815181101515613f4a57fe5b906020019060200201518382815181101515613f6257fe5b9060200190602002019073ffffffffffffffffffffffffffffffffffffffff16908173ffffffffffffffffffffffffffffffffffffffff168152505060018351038214613fb25760018201613fb5565b60005b91508080600101915050613f33565b505092915050565b600060011515600460009054906101000a900460ff161515141515613ff057600080fd5b601060009054906101000a900473ffffffffffffffffffffffffffffffffffffffff1673ffffffffffffffffffffffffffffffffffffffff16630109c3f987878787876040518663ffffffff167c0100000000000000000000000000000000000000000000000000000000028152600401808673ffffffffffffffffffffffffffffffffffffffff1673ffffffffffffffffffffffffffffffffffffffff1681526020018573ffffffffffffffffffffffffffffffffffffffff1673ffffffffffffffffffffffffffffffffffffffff168152602001806020018481526020018360001916600019168152602001828103825285818151815260200191508051906020019060200280838360005b838110156141195780820151818401526020810190506140fe565b505050509050019650505050505050602060405180830381600087803b15801561414257600080fd5b505af1158015614156573d6000803e3d6000fd5b505050506040513d602081101561416c57600080fd5b81019080805190602001909291905050509050600073ffffffffffffffffffffffffffffffffffffffff168173ffffffffffffffffffffffffffffffffffffffff16141515156141b857fe5b8073ffffffffffffffffffffffffffffffffffffffff16631c72fad46040518163ffffffff167c0100000000000000000000000000000000000000000000000000000000028152600401602060405180830381600087803b15801561421c57600080fd5b505af1158015614230573d6000803e3d6000fd5b505050506040513d602081101561424657600080fd5b810190808051906020019092919050505060ff168173ffffffffffffffffffffffffffffffffffffffff16630c3f6acf6040518163ffffffff167c0100000000000000000000000000000000000000000000000000000000028152600401602060405180830381600087803b1580156142be57600080fd5b505af11580156142d2573d6000803e3d6000fd5b505050506040513d60208110156142e857600080fd5b810190808051906020019092919050505060ff1614151561430557fe5b60128190806001815401808255809150509060018203906000526020600020016000909192909190916101000a81548173ffffffffffffffffffffffffffffffffffffffff021916908373ffffffffffffffffffffffffffffffffffffffff16021790555050601280549050601160008373ffffffffffffffffffffffffffffffffffffffff1673ffffffffffffffffffffffffffffffffffffffff16815260200190815260200160002060006101000a81548161ffff021916908361ffff1602179055508073ffffffffffffffffffffffffffffffffffffffff16638129fc1c6040518163ffffffff167c0100000000000000000000000000000000000000000000000000000000028152600401600060405180830381600087803b15801561442e57600080fd5b505af1158015614442573d6000803e3d6000fd5b5050505095945050505050565b600073ffffffffffffffffffffffffffffffffffffffff168173ffffffffffffffffffffffffffffffffffffffff161415151561448b57600080fd5b8073ffffffffffffffffffffffffffffffffffffffff16600760009054906101000a900473ffffffffffffffffffffffffffffffffffffffff1673ffffffffffffffffffffffffffffffffffffffff167f8be0079c531659141344cd1fd0a4f28419497f9722a3daafe3b4186f6b6457e060405160405180910390a380600760006101000a81548173ffffffffffffffffffffffffffffffffffffffff021916908373ffffffffffffffffffffffffffffffffffffffff16021790555050565b600081600201548260000180549050039050919050565b600061456c6148af565b61457584614603565b5080915050828160600151111591505092915050565b6145936148af565b600061459e83614603565b80925081935050506145af83614790565b818191509150915091565b600060011515600460009054906101000a900460ff1615151415156145de57600080fd5b6145fb836000015184602001518486608001518760a00151613fcc565b905092915050565b61460b6148af565b600082600001836002015481548110151561462257fe5b906000526020600020906006020183600101846002015481548110151561464557fe5b90600052602060002001548160c060405190810160405290816000820160009054906101000a900473ffffffffffffffffffffffffffffffffffffffff1673ffffffffffffffffffffffffffffffffffffffff1673ffffffffffffffffffffffffffffffffffffffff1681526020016001820160009054906101000a900473ffffffffffffffffffffffffffffffffffffffff1673ffffffffffffffffffffffffffffffffffffffff1673ffffffffffffffffffffffffffffffffffffffff1681526020016002820160009054906101000a900473ffffffffffffffffffffffffffffffffffffffff1673ffffffffffffffffffffffffffffffffffffffff1673ffffffffffffffffffffffffffffffffffffffff16815260200160038201548152602001600482015481526020016005820154600019166000191681525050915091509150915091565b80600201600081548092919060010191905055508060000160018260020154038154811015156147bc57fe5b9060005260206000209060060201600080820160006101000a81549073ffffffffffffffffffffffffffffffffffffffff02191690556001820160006101000a81549073ffffffffffffffffffffffffffffffffffffffff02191690556002820160006101000a81549073ffffffffffffffffffffffffffffffffffffffff0219169055600382016000905560048201600090556005820160009055505080600101600182600201540381548110151561487257fe5b906000526020600020016000905550565b8154818355818111156148aa578183600052602060002091820191016148a9919061492b565b5b505050565b60c060405190810160405280600073ffffffffffffffffffffffffffffffffffffffff168152602001600073ffffffffffffffffffffffffffffffffffffffff168152602001600073ffffffffffffffffffffffffffffffffffffffff1681526020016000815260200160008152602001600080191681525090565b61494d91905b80821115614949576000816000905550600101614931565b5090565b905600a165627a7a723058205336350e1c7a83aeaa4b5b22d8646e68e79e0e9ff873df699eddcbcb7e8a83420029608060405234801561001057600080fd5b504360018190555061013e806100276000396000f300608060405260043610610041576000357c0100000000000000000000000000000000000000000000000000000000900463ffffffff168063cd4b691414610046575b600080fd5b34801561005257600080fd5b5061007160048036038101908080359060200190929190505050610087565b6040518082815260200191505060405180910390f35b60006001544311156100ce5743600181905550600a4303406001900443406001900401604051808281526020019150506040518091039020600081600019169055506100f9565b6000546040518082600019166000191681526020019150506040518091039020600081600019169055505b816000546001900481151561010a57fe5b0690509190505600a165627a7a723058207d1203d115f9334e2e262ce744641f6cf745a5777fc2a653f60204c0ccdddb960029",
  "source": "pragma solidity ^0.4.23;\n\nimport \"../lifecycle/OnlyOnce.sol\";\nimport \"../nodes/IWorkerNode.sol\";\nimport \"../entities/IDataEntity.sol\";\nimport \"./factories/CognitiveJobFactory.sol\";\nimport \"./factories/WorkerNodeFactory.sol\";\nimport \"./managers/CognitiveJobManager.sol\";\nimport \"./lottery/RandomEngine.sol\";\n\nimport \"./IPandora.sol\";\n\n/**\n * @title Pandora Smart Contract\n * @author \"Dr Maxim Orlovsky\" <orlovsky@pandora.foundation>\n *\n * @dev # Pandora Smart Contract\n *\n * Main & root contract implementing the first level of Pandora Boxchain consensus\n * See section [\"3.3. Proof of Cognitive Work (PoCW)\" in Pandora white paper](https://steemit.com/cryptocurrency/%40pandoraboxchain/world-decentralized-ai-on-blockchain-with-cognitive-mining-and-open-markets-for-data-and-algorithms-pandora-boxchain)\n * for more details.\n *\n * Contract token functionality is separated into a separate contract named PAN (after the name of the token)\n * and Pandora contracts just simply inherits PAN contract.\n */\n\ncontract Pandora is IPandora, OnlyOnce, CognitiveJobManager {\n\n    /*******************************************************************************************************************\n     * ## Storage\n     */\n\n    /// ### Public variables\n\n    bytes32 public constant version = \"0.4.1\";\n\n\n    /*******************************************************************************************************************\n     * ## Events\n     */\n\n\n    /*******************************************************************************************************************\n     * ## Constructor and initialization\n     */\n\n    /// ### Constructor\n    /// @dev Constructor receives addresses for the owners of whitelisted worker nodes, which will be assigned an owners\n    /// of worker nodes contracts\n    constructor(\n        CognitiveJobFactory _jobFactory, /// Factory class for creating CognitiveJob contracts\n        WorkerNodeFactory _nodeFactory, /// Factory class for creating WorkerNode contracts\n        Reputation _reputation\n    ) public\n    CognitiveJobManager(_jobFactory, _nodeFactory, _reputation)\n    // Ensure that the contract is still uninitialized and `initialize` function be called to check the proper\n    // setup of class factories\n    Initializable()\n    Ownable() {         \n    }\n\n    /// ### Initialization\n    /// @notice Function that checks the proper setup of class factories. May be called only once and only by Pandora\n    /// contract owner.\n    /// @dev Function that checks the proper setup of class factories. May be called only once and only by Pandora\n    /// contract owner.\n    function initialize()\n    public\n    onlyOwner\n    onlyOnce(\"initialize\") {\n        // Checks that the factory contracts creator has assigned Pandora as an owner of the factory contracts:\n        // an important security measure preventing \"Parity-style\" contract bugs\n        require(workerNodeFactory.owner() == address(this));\n        require(cognitiveJobFactory.owner() == address(this));\n\n        Initializable.initialize();\n    }\n\n    /*******************************************************************************************************************\n     * ## Modifiers\n     */\n\n\n    /*******************************************************************************************************************\n     * ## Functions\n     */\n\n    /// ### Public and external\n}\n",
  "sourcePath": "/home/kostysh/dev/pyrrha-consensus/contracts/pandora/Pandora.sol",
  "compiler": {
    "name": "solc",
    "version": "0.4.24+commit.e67f0147.Emscripten.clang"
  },
  "schemaVersion": "2.0.0",
  "updatedAt": "2018-06-27T12:31:51.077Z"
}