{
  "contractName": "Pandora",
  "abi": [
    {
      "constant": true,
      "inputs": [],
      "name": "workerNodesCount",
      "outputs": [
        {
          "name": "",
          "type": "uint256"
        }
      ],
      "payable": false,
      "stateMutability": "view",
      "type": "function"
    },
    {
      "constant": false,
      "inputs": [
        {
          "name": "_workerOwner",
          "type": "address"
        }
      ],
      "name": "whitelistWorkerOwner",
      "outputs": [],
      "payable": false,
      "stateMutability": "nonpayable",
      "type": "function"
    },
    {
      "constant": true,
      "inputs": [],
      "name": "initialized",
      "outputs": [
        {
          "name": "",
          "type": "bool"
        }
      ],
      "payable": false,
      "stateMutability": "view",
      "type": "function"
    },
    {
      "constant": true,
      "inputs": [
        {
          "name": "",
          "type": "uint256"
        }
      ],
      "name": "workerNodes",
      "outputs": [
        {
          "name": "",
          "type": "address"
        }
      ],
      "payable": false,
      "stateMutability": "view",
      "type": "function"
    },
    {
      "constant": true,
      "inputs": [],
      "name": "RESULT_CODE_JOB_CREATED",
      "outputs": [
        {
          "name": "",
          "type": "uint8"
        }
      ],
      "payable": false,
      "stateMutability": "view",
      "type": "function"
    },
    {
      "constant": true,
      "inputs": [
        {
          "name": "_jobId",
          "type": "bytes32"
        },
        {
          "name": "isActive",
          "type": "bool"
        }
      ],
      "name": "getCognitiveJobDetails",
      "outputs": [
        {
          "name": "kernel",
          "type": "address"
        },
        {
          "name": "dataset",
          "type": "address"
        },
        {
          "name": "comlexity",
          "type": "uint256"
        },
        {
          "name": "description",
          "type": "bytes32"
        },
        {
          "name": "activeWorkers",
          "type": "address[]"
        }
      ],
      "payable": false,
      "stateMutability": "view",
      "type": "function"
    },
    {
      "constant": true,
      "inputs": [],
      "name": "version",
      "outputs": [
        {
          "name": "",
          "type": "bytes32"
        }
      ],
      "payable": false,
      "stateMutability": "view",
      "type": "function"
    },
    {
      "constant": true,
      "inputs": [],
      "name": "activeJobsCount",
      "outputs": [
        {
          "name": "",
          "type": "uint256"
        }
      ],
      "payable": false,
      "stateMutability": "view",
      "type": "function"
    },
    {
      "constant": false,
      "inputs": [
        {
          "name": "_guiltyWorker",
          "type": "address"
        },
        {
          "name": "_reason",
          "type": "uint8"
        }
      ],
      "name": "penaltizeWorkerNode",
      "outputs": [],
      "payable": false,
      "stateMutability": "nonpayable",
      "type": "function"
    },
    {
      "constant": false,
      "inputs": [
        {
          "name": "_jobId",
          "type": "bytes32"
        },
        {
          "name": "_percent",
          "type": "uint8"
        }
      ],
      "name": "commitProgress",
      "outputs": [],
      "payable": false,
      "stateMutability": "nonpayable",
      "type": "function"
    },
    {
      "constant": true,
      "inputs": [
        {
          "name": "",
          "type": "address"
        }
      ],
      "name": "workerNodeOwners",
      "outputs": [
        {
          "name": "",
          "type": "bool"
        }
      ],
      "payable": false,
      "stateMutability": "view",
      "type": "function"
    },
    {
      "constant": false,
      "inputs": [],
      "name": "renounceOwnership",
      "outputs": [],
      "payable": false,
      "stateMutability": "nonpayable",
      "type": "function"
    },
    {
      "constant": true,
      "inputs": [
        {
          "name": "_jobId",
          "type": "bytes32"
        }
      ],
      "name": "isActiveJob",
      "outputs": [
        {
          "name": "",
          "type": "bool"
        }
      ],
      "payable": false,
      "stateMutability": "view",
      "type": "function"
    },
    {
      "constant": false,
      "inputs": [
        {
          "name": "_workerOwner",
          "type": "address"
        }
      ],
      "name": "blacklistWorkerOwner",
      "outputs": [],
      "payable": false,
      "stateMutability": "nonpayable",
      "type": "function"
    },
    {
      "constant": false,
      "inputs": [],
      "name": "getQueueDepth",
      "outputs": [
        {
          "name": "",
          "type": "uint256"
        }
      ],
      "payable": false,
      "stateMutability": "nonpayable",
      "type": "function"
    },
    {
      "constant": true,
      "inputs": [],
      "name": "RESULT_CODE_ADD_TO_QUEUE",
      "outputs": [
        {
          "name": "",
          "type": "uint8"
        }
      ],
      "payable": false,
      "stateMutability": "view",
      "type": "function"
    },
    {
      "constant": true,
      "inputs": [
        {
          "name": "_jobId",
          "type": "bytes32"
        },
        {
          "name": "_isActive",
          "type": "bool"
        }
      ],
      "name": "getCognitiveJobProgressInfo",
      "outputs": [
        {
          "name": "responseTimestamps",
          "type": "uint32[]"
        },
        {
          "name": "responseFlags",
          "type": "bool[]"
        },
        {
          "name": "progress",
          "type": "uint8"
        },
        {
          "name": "state",
          "type": "uint8"
        }
      ],
      "payable": false,
      "stateMutability": "view",
      "type": "function"
    },
    {
      "constant": false,
      "inputs": [],
      "name": "createWorkerNode",
      "outputs": [
        {
          "name": "",
          "type": "address"
        }
      ],
      "payable": false,
      "stateMutability": "nonpayable",
      "type": "function"
    },
    {
      "constant": true,
      "inputs": [],
      "name": "owner",
      "outputs": [
        {
          "name": "",
          "type": "address"
        }
      ],
      "payable": false,
      "stateMutability": "view",
      "type": "function"
    },
    {
      "constant": false,
      "inputs": [],
      "name": "checkJobQueue",
      "outputs": [],
      "payable": false,
      "stateMutability": "nonpayable",
      "type": "function"
    },
    {
      "constant": false,
      "inputs": [
        {
          "name": "_workerNode",
          "type": "address"
        }
      ],
      "name": "destroyWorkerNode",
      "outputs": [],
      "payable": false,
      "stateMutability": "nonpayable",
      "type": "function"
    },
    {
      "constant": false,
      "inputs": [
        {
          "name": "_jobId",
          "type": "bytes32"
        },
        {
          "name": "_responseType",
          "type": "uint8"
        },
        {
          "name": "_response",
          "type": "bool"
        }
      ],
      "name": "respondToJob",
      "outputs": [],
      "payable": false,
      "stateMutability": "nonpayable",
      "type": "function"
    },
    {
      "constant": false,
      "inputs": [
        {
          "name": "_jobId",
          "type": "bytes32"
        },
        {
          "name": "_ipfsResults",
          "type": "bytes"
        }
      ],
      "name": "provideResults",
      "outputs": [],
      "payable": false,
      "stateMutability": "nonpayable",
      "type": "function"
    },
    {
      "constant": true,
      "inputs": [],
      "name": "REQUIRED_DEPOSIT",
      "outputs": [
        {
          "name": "",
          "type": "uint256"
        }
      ],
      "payable": false,
      "stateMutability": "view",
      "type": "function"
    },
    {
      "constant": true,
      "inputs": [
        {
          "name": "_jobId",
          "type": "bytes32"
        },
        {
          "name": "_isActive",
          "type": "bool"
        },
        {
          "name": "_index",
          "type": "uint8"
        }
      ],
      "name": "getCognitiveJobResults",
      "outputs": [
        {
          "name": "ipfsResults",
          "type": "bytes"
        }
      ],
      "payable": false,
      "stateMutability": "view",
      "type": "function"
    },
    {
      "constant": false,
      "inputs": [
        {
          "name": "_kernel",
          "type": "address"
        },
        {
          "name": "_dataset",
          "type": "address"
        },
        {
          "name": "_complexity",
          "type": "uint256"
        },
        {
          "name": "_description",
          "type": "bytes32"
        }
      ],
      "name": "createCognitiveJob",
      "outputs": [
        {
          "name": "o_jobId",
          "type": "bytes32"
        },
        {
          "name": "o_resultCode",
          "type": "uint8"
        }
      ],
      "payable": true,
      "stateMutability": "payable",
      "type": "function"
    },
    {
      "constant": false,
      "inputs": [
        {
          "name": "_newOwner",
          "type": "address"
        }
      ],
      "name": "transferOwnership",
      "outputs": [],
      "payable": false,
      "stateMutability": "nonpayable",
      "type": "function"
    },
    {
      "constant": true,
      "inputs": [],
      "name": "workerNodeFactory",
      "outputs": [
        {
          "name": "",
          "type": "address"
        }
      ],
      "payable": false,
      "stateMutability": "view",
      "type": "function"
    },
    {
      "constant": true,
      "inputs": [
        {
          "name": "",
          "type": "address"
        }
      ],
      "name": "deposits",
      "outputs": [
        {
          "name": "",
          "type": "uint256"
        }
      ],
      "payable": false,
      "stateMutability": "view",
      "type": "function"
    },
    {
      "constant": true,
      "inputs": [
        {
          "name": "",
          "type": "address"
        }
      ],
      "name": "workerAddresses",
      "outputs": [
        {
          "name": "",
          "type": "uint16"
        }
      ],
      "payable": false,
      "stateMutability": "view",
      "type": "function"
    },
    {
      "inputs": [
        {
          "name": "_nodeFactory",
          "type": "address"
        },
        {
          "name": "_reputation",
          "type": "address"
        }
      ],
      "payable": false,
      "stateMutability": "nonpayable",
      "type": "constructor"
    },
    {
      "anonymous": false,
      "inputs": [
        {
          "indexed": false,
          "name": "jobId",
          "type": "bytes32"
        }
      ],
      "name": "CognitiveJobCreated",
      "type": "event"
    },
    {
      "anonymous": false,
      "inputs": [
        {
          "indexed": false,
          "name": "jobId",
          "type": "bytes32"
        }
      ],
      "name": "CognitiveJobQueued",
      "type": "event"
    },
    {
      "anonymous": false,
      "inputs": [
        {
          "indexed": false,
          "name": "workerNode",
          "type": "address"
        }
      ],
      "name": "WorkerNodeCreated",
      "type": "event"
    },
    {
      "anonymous": false,
      "inputs": [
        {
          "indexed": false,
          "name": "workerNode",
          "type": "address"
        }
      ],
      "name": "WorkerNodeDestroyed",
      "type": "event"
    },
    {
      "anonymous": false,
      "inputs": [
        {
          "indexed": true,
          "name": "previousOwner",
          "type": "address"
        }
      ],
      "name": "OwnershipRenounced",
      "type": "event"
    },
    {
      "anonymous": false,
      "inputs": [
        {
          "indexed": true,
          "name": "previousOwner",
          "type": "address"
        },
        {
          "indexed": true,
          "name": "newOwner",
          "type": "address"
        }
      ],
      "name": "OwnershipTransferred",
      "type": "event"
    },
    {
      "constant": false,
      "inputs": [],
      "name": "initialize",
      "outputs": [],
      "payable": false,
      "stateMutability": "nonpayable",
      "type": "function"
    }
  ],
  "bytecode": "0x60806040526000600160006101000a81548160ff0219169083151502179055503480156200002c57600080fd5b5060405160408062005b0983398101806040528101908080519060200190929190805190602001909291905050508181816000600160006101000a81548160ff021916908315150217905550336001806101000a81548173ffffffffffffffffffffffffffffffffffffffff021916908373ffffffffffffffffffffffffffffffffffffffff160217905550600073ffffffffffffffffffffffffffffffffffffffff168173ffffffffffffffffffffffffffffffffffffffff1614151515620000f557600080fd5b80600560006101000a81548173ffffffffffffffffffffffffffffffffffffffff021916908373ffffffffffffffffffffffffffffffffffffffff1602179055505080600960006101000a81548173ffffffffffffffffffffffffffffffffffffffff021916908373ffffffffffffffffffffffffffffffffffffffff16021790555062000182620001ea565b604051809103906000f0801580156200019f573d6000803e3d6000fd5b50600b60006101000a81548173ffffffffffffffffffffffffffffffffffffffff021916908373ffffffffffffffffffffffffffffffffffffffff16021790555050505050620001fb565b60405161016580620059a483390190565b615799806200020b6000396000f30060806040526004361061018b576000357c0100000000000000000000000000000000000000000000000000000000900463ffffffff1680630e3b581f1461019057806313b5165f146101bb578063158ef93e146101fe5780631dc20af41461022d57806323ce524a1461029a57806335672a30146102cb57806354fd4d50146103d95780635c2b37fa1461040c5780635ef1777614610437578063687fbdff1461048757806370064e33146104c5578063715018a61461052057806379bc5cbd146105375780637b3c611c146105805780637e58bf1e146105c35780638129fc1c146105ee57806383c94c691461060557806386202c2c1461063657806386b073321461072a5780638da5cb5b14610781578063a3e27fc9146107d8578063ae1092ae146107ef578063b0e79d9b14610832578063bbcc72611461087c578063be64b76b146108c5578063c1f661e1146108f0578063ea84546b146109b3578063f2fde38b14610a4a578063f9d84ade14610a8d578063fc7e286d14610ae4578063fdb5b8d414610b3b575b600080fd5b34801561019c57600080fd5b506101a5610b9a565b6040518082815260200191505060405180910390f35b3480156101c757600080fd5b506101fc600480360381019080803573ffffffffffffffffffffffffffffffffffffffff169060200190929190505050610bc9565b005b34801561020a57600080fd5b50610213610c7f565b604051808215151515815260200191505060405180910390f35b34801561023957600080fd5b5061025860048036038101908080359060200190929190505050610c92565b604051808273ffffffffffffffffffffffffffffffffffffffff1673ffffffffffffffffffffffffffffffffffffffff16815260200191505060405180910390f35b3480156102a657600080fd5b506102af610cd0565b604051808260ff1660ff16815260200191505060405180910390f35b3480156102d757600080fd5b506103066004803603810190808035600019169060200190929190803515159060200190929190505050610cd5565b604051808673ffffffffffffffffffffffffffffffffffffffff1673ffffffffffffffffffffffffffffffffffffffff1681526020018573ffffffffffffffffffffffffffffffffffffffff1673ffffffffffffffffffffffffffffffffffffffff168152602001848152602001836000191660001916815260200180602001828103825283818151815260200191508051906020019060200280838360005b838110156103c15780820151818401526020810190506103a6565b50505050905001965050505050505060405180910390f35b3480156103e557600080fd5b506103ee610e7e565b60405180826000191660001916815260200191505060405180910390f35b34801561041857600080fd5b50610421610ea2565b6040518082815260200191505060405180910390f35b34801561044357600080fd5b50610485600480360381019080803573ffffffffffffffffffffffffffffffffffffffff169060200190929190803560ff169060200190929190505050610eb2565b005b34801561049357600080fd5b506104c36004803603810190808035600019169060200190929190803560ff169060200190929190505050610ed8565b005b3480156104d157600080fd5b50610506600480360381019080803573ffffffffffffffffffffffffffffffffffffffff169060200190929190505050610ef4565b604051808215151515815260200191505060405180910390f35b34801561052c57600080fd5b50610535610f14565b005b34801561054357600080fd5b506105666004803603810190808035600019169060200190929190505050611016565b604051808215151515815260200191505060405180910390f35b34801561058c57600080fd5b506105c1600480360381019080803573ffffffffffffffffffffffffffffffffffffffff169060200190929190505050611053565b005b3480156105cf57600080fd5b506105d8611100565b6040518082815260200191505060405180910390f35b3480156105fa57600080fd5b50610603611111565b005b34801561061157600080fd5b5061061a6113b6565b604051808260ff1660ff16815260200191505060405180910390f35b34801561064257600080fd5b5061067160048036038101908080356000191690602001909291908035151590602001909291905050506113bb565b6040518080602001806020018560ff1660ff1681526020018460ff1660ff168152602001838103835287818151815260200191508051906020019060200280838360005b838110156106d05780820151818401526020810190506106b5565b50505050905001838103825286818151815260200191508051906020019060200280838360005b838110156107125780820151818401526020810190506106f7565b50505050905001965050505050505060405180910390f35b34801561073657600080fd5b5061073f61159d565b604051808273ffffffffffffffffffffffffffffffffffffffff1673ffffffffffffffffffffffffffffffffffffffff16815260200191505060405180910390f35b34801561078d57600080fd5b50610796611898565b604051808273ffffffffffffffffffffffffffffffffffffffff1673ffffffffffffffffffffffffffffffffffffffff16815260200191505060405180910390f35b3480156107e457600080fd5b506107ed6118bd565b005b3480156107fb57600080fd5b50610830600480360381019080803573ffffffffffffffffffffffffffffffffffffffff169060200190929190505050611c2d565b005b34801561083e57600080fd5b5061087a6004803603810190808035600019169060200190929190803560ff169060200190929190803515159060200190929190505050612180565b005b34801561088857600080fd5b506108c360048036038101908080356000191690602001909291908035906020019082018035906020019190919293919293905050506121a0565b005b3480156108d157600080fd5b506108da61239c565b6040518082815260200191505060405180910390f35b3480156108fc57600080fd5b506109386004803603810190808035600019169060200190929190803515159060200190929190803560ff1690602001909291905050506123a8565b6040518080602001828103825283818151815260200191508051906020019080838360005b8381101561097857808201518184015260208101905061095d565b50505050905090810190601f1680156109a55780820380516001836020036101000a031916815260200191505b509250505060405180910390f35b610a1f600480360381019080803573ffffffffffffffffffffffffffffffffffffffff169060200190929190803573ffffffffffffffffffffffffffffffffffffffff16906020019092919080359060200190929190803560001916906020019092919050505061251a565b6040518083600019166000191681526020018260ff1660ff1681526020019250505060405180910390f35b348015610a5657600080fd5b50610a8b600480360381019080803573ffffffffffffffffffffffffffffffffffffffff16906020019092919050505061290f565b005b348015610a9957600080fd5b50610aa2612976565b604051808273ffffffffffffffffffffffffffffffffffffffff1673ffffffffffffffffffffffffffffffffffffffff16815260200191505060405180910390f35b348015610af057600080fd5b50610b25600480360381019080803573ffffffffffffffffffffffffffffffffffffffff16906020019092919050505061299c565b6040518082815260200191505060405180910390f35b348015610b4757600080fd5b50610b7c600480360381019080803573ffffffffffffffffffffffffffffffffffffffff1690602001909291905050506129b4565b604051808261ffff1661ffff16815260200191505060405180910390f35b600060011515600160009054906101000a900460ff161515141515610bbe57600080fd5b600680549050905090565b6001809054906101000a900473ffffffffffffffffffffffffffffffffffffffff1673ffffffffffffffffffffffffffffffffffffffff163373ffffffffffffffffffffffffffffffffffffffff16141515610c2457600080fd5b6001600860008373ffffffffffffffffffffffffffffffffffffffff1673ffffffffffffffffffffffffffffffffffffffff16815260200190815260200160002060006101000a81548160ff02191690831515021790555050565b600160009054906101000a900460ff1681565b600681815481101515610ca157fe5b906000526020600020016000915054906101000a900473ffffffffffffffffffffffffffffffffffffffff1681565b600181565b6000806000806060600086610d3957600f600201600f60000160008a6000191660001916815260200190815260200160002060009054906101000a900461ffff1661ffff16815481101515610d2657fe5b90600052602060002090600a0201610d8a565b600f600101600f60000160008a6000191660001916815260200190815260200160002060009054906101000a900461ffff1661ffff16815481101515610d7b57fe5b90600052602060002090600a02015b90508060010160009054906101000a900473ffffffffffffffffffffffffffffffffffffffff1695508060020160009054906101000a900473ffffffffffffffffffffffffffffffffffffffff169450806003015493508060040154925080600501805480602002602001604051908101604052809291908181526020018280548015610e6c57602002820191906000526020600020905b8160009054906101000a900473ffffffffffffffffffffffffffffffffffffffff1673ffffffffffffffffffffffffffffffffffffffff1681526020019060010190808311610e22575b50505050509150509295509295909350565b7f302e342e3300000000000000000000000000000000000000000000000000000081565b6000600f60010180549050905090565b60011515600160009054906101000a900460ff161515141515610ed457600080fd5b5050565b610ef0823383600f6129d5909392919063ffffffff16565b5050565b60086020528060005260406000206000915054906101000a900460ff1681565b6001809054906101000a900473ffffffffffffffffffffffffffffffffffffffff1673ffffffffffffffffffffffffffffffffffffffff163373ffffffffffffffffffffffffffffffffffffffff16141515610f6f57600080fd5b6001809054906101000a900473ffffffffffffffffffffffffffffffffffffffff1673ffffffffffffffffffffffffffffffffffffffff167ff8df31144d9c2f0f6b59d69b8b98abd5459d07f2742c4df920b25aae33c6482060405160405180910390a260006001806101000a81548173ffffffffffffffffffffffffffffffffffffffff021916908373ffffffffffffffffffffffffffffffffffffffff160217905550565b600080600f6000016000846000191660001916815260200190815260200160002060009054906101000a900461ffff1661ffff1614159050919050565b6001809054906101000a900473ffffffffffffffffffffffffffffffffffffffff1673ffffffffffffffffffffffffffffffffffffffff163373ffffffffffffffffffffffffffffffffffffffff161415156110ae57600080fd5b600860008273ffffffffffffffffffffffffffffffffffffffff1673ffffffffffffffffffffffffffffffffffffffff16815260200190815260200160002060006101000a81549060ff021916905550565b600061110c600c612b9c565b905090565b6001809054906101000a900473ffffffffffffffffffffffffffffffffffffffff1673ffffffffffffffffffffffffffffffffffffffff163373ffffffffffffffffffffffffffffffffffffffff1614151561116c57600080fd5b6040805190810160405280600a81526020017f696e697469616c697a6500000000000000000000000000000000000000000000815250600015156000826040518082805190602001908083835b6020831015156111de57805182526020820191506020810190506020830392506111b9565b6001836020036101000a038019825116818451168082178552505050505050905001915050908152602001604051809103902060009054906101000a900460ff16151514151561122d57600080fd5b3073ffffffffffffffffffffffffffffffffffffffff16600560009054906101000a900473ffffffffffffffffffffffffffffffffffffffff1673ffffffffffffffffffffffffffffffffffffffff16638da5cb5b6040518163ffffffff167c0100000000000000000000000000000000000000000000000000000000028152600401602060405180830381600087803b1580156112ca57600080fd5b505af11580156112de573d6000803e3d6000fd5b505050506040513d60208110156112f457600080fd5b810190808051906020019092919050505073ffffffffffffffffffffffffffffffffffffffff1614151561132757600080fd5b61132f612bb3565b60016000826040518082805190602001908083835b6020831015156113695780518252602082019150602081019050602083039250611344565b6001836020036101000a038019825116818451168082178552505050505050905001915050908152602001604051809103902060006101000a81548160ff02191690831515021790555050565b600081565b60608060008060008561141d57600f600201600f6000016000896000191660001916815260200190815260200160002060009054906101000a900461ffff1661ffff1681548110151561140a57fe5b90600052602060002090600a020161146e565b600f600101600f6000016000896000191660001916815260200190815260200160002060009054906101000a900461ffff1661ffff1681548110151561145f57fe5b90600052602060002090600a02015b9050806007018054806020026020016040519081016040528092919081815260200182805480156114ea57602002820191906000526020600020906000905b82829054906101000a900463ffffffff1663ffffffff16815260200190600401906020826003010492830192600103820291508084116114ad5790505b505050505094508060080180548060200260200160405190810160405280929190818152602001828054801561156457602002820191906000526020600020906000905b82829054906101000a900460ff1615158152602001906001019060208260000104928301926001038202915080841161152e5790505b505050505093508060090160009054906101000a900460ff1692508060090160019054906101000a900460ff1691505092959194509250565b60008060011515600160009054906101000a900460ff1615151415156115c257600080fd5b60011515600860003373ffffffffffffffffffffffffffffffffffffffff1673ffffffffffffffffffffffffffffffffffffffff16815260200190815260200160002060009054906101000a900460ff16151514151561162157600080fd5b3273ffffffffffffffffffffffffffffffffffffffff163373ffffffffffffffffffffffffffffffffffffffff1614151561165b57600080fd5b600d60068054905010151561166f57600080fd5b600560009054906101000a900473ffffffffffffffffffffffffffffffffffffffff1673ffffffffffffffffffffffffffffffffffffffff16639ed93318336040518263ffffffff167c0100000000000000000000000000000000000000000000000000000000028152600401808273ffffffffffffffffffffffffffffffffffffffff1673ffffffffffffffffffffffffffffffffffffffff168152602001915050602060405180830381600087803b15801561172c57600080fd5b505af1158015611740573d6000803e3d6000fd5b505050506040513d602081101561175657600080fd5b8101908080519060200190929190505050905060068190806001815401808255809150509060018203906000526020600020016000909192909190916101000a81548173ffffffffffffffffffffffffffffffffffffffff021916908373ffffffffffffffffffffffffffffffffffffffff16021790555050600680549050600760008373ffffffffffffffffffffffffffffffffffffffff1673ffffffffffffffffffffffffffffffffffffffff16815260200190815260200160002060006101000a81548161ffff021916908361ffff1602179055507f093794466f44429afc8d8ec2c4c7f42c98d5db9b3db965ce46a31e7d4f7c29c881604051808273ffffffffffffffffffffffffffffffffffffffff1673ffffffffffffffffffffffffffffffffffffffff16815260200191505060405180910390a18091505090565b6001809054906101000a900473ffffffffffffffffffffffffffffffffffffffff1681565b6118c5615021565b60008060008060606000806060806000806000806118e3600c612b9c565b9c5060018d60ff16116118f6578c6118f9565b60015b9c5060009b505b8c60ff168c60ff161015611c1d575a9a50611919612bcf565b995060008a11151561192a57611c1d565b6119338a612dc1565b985088519750898814151561194757611c1d565b61195b88600c61306e90919063ffffffff16565b151561196657611c1d565b611970600c613097565b809850819f505050611986898f606001516130c6565b955085516040519080825280602002602001820160405280156119b85781602001602082028038833980820191505090505b509450600093505b84518460ff161015611a4157858460ff168151811015156119dd57fe5b90602001906020020151858560ff168151811015156119f857fe5b9060200190602002019073ffffffffffffffffffffffffffffffffffffffff16908173ffffffffffffffffffffffffffffffffffffffff168152505083806001019450506119c0565b611a4b8e8761326a565b9250600091505b85518260ff161015611b1457858260ff16815181101515611a6f57fe5b9060200190602002015173ffffffffffffffffffffffffffffffffffffffff16637aee7e09846040518263ffffffff167c0100000000000000000000000000000000000000000000000000000000028152600401808260001916600019168152602001915050600060405180830381600087803b158015611aef57600080fd5b505af1158015611b03573d6000803e3d6000fd5b505050508380600101945050611a52565b7f11a21264ecb93e14000906dc00b4753fd6eec24f9f0f1b4305a1a04740b3023e8360405180826000191660001916815260200191505060405180910390a13a5a8c61dea80103029050868111611b6b5780611b6d565b865b90503373ffffffffffffffffffffffffffffffffffffffff166108fc829081150290604051600060405180830381858888f19350505050158015611bb5573d6000803e3d6000fd5b506000818803141515611c10578d6040015173ffffffffffffffffffffffffffffffffffffffff166108fc8289039081150290604051600060405180830381858888f19350505050158015611c0e573d6000803e3d6000fd5b505b8b806001019c5050611900565b5050505050505050505050505050565b60008060008360003390508173ffffffffffffffffffffffffffffffffffffffff16638da5cb5b6040518163ffffffff167c0100000000000000000000000000000000000000000000000000000000028152600401602060405180830381600087803b158015611c9c57600080fd5b505af1158015611cb0573d6000803e3d6000fd5b505050506040513d6020811015611cc657600080fd5b810190808051906020019092919050505073ffffffffffffffffffffffffffffffffffffffff168173ffffffffffffffffffffffffffffffffffffffff16141515611d1057600080fd5b6000600760008373ffffffffffffffffffffffffffffffffffffffff1673ffffffffffffffffffffffffffffffffffffffff16815260200190815260200160002060009054906101000a900461ffff1661ffff16111515611d7057600080fd5b60011515600160009054906101000a900460ff161515141515611d9257600080fd5b3394508573ffffffffffffffffffffffffffffffffffffffff1663ae897c556040518163ffffffff167c0100000000000000000000000000000000000000000000000000000000028152600401602060405180830381600087803b158015611df957600080fd5b505af1158015611e0d573d6000803e3d6000fd5b505050506040513d6020811015611e2357600080fd5b810190808051906020019092919050505060ff168673ffffffffffffffffffffffffffffffffffffffff16630c3f6acf6040518163ffffffff167c0100000000000000000000000000000000000000000000000000000000028152600401602060405180830381600087803b158015611e9b57600080fd5b505af1158015611eaf573d6000803e3d6000fd5b505050506040513d6020811015611ec557600080fd5b810190808051906020019092919050505060ff16141515611ee557600080fd5b8573ffffffffffffffffffffffffffffffffffffffff166383197ef06040518163ffffffff167c0100000000000000000000000000000000000000000000000000000000028152600401600060405180830381600087803b158015611f4957600080fd5b505af1158015611f5d573d6000803e3d6000fd5b505050506001600760008773ffffffffffffffffffffffffffffffffffffffff1673ffffffffffffffffffffffffffffffffffffffff16815260200190815260200160002060009054906101000a900461ffff16039350600760008673ffffffffffffffffffffffffffffffffffffffff1673ffffffffffffffffffffffffffffffffffffffff16815260200190815260200160002060006101000a81549061ffff0219169055600660016006805490500381548110151561201b57fe5b9060005260206000200160009054906101000a900473ffffffffffffffffffffffffffffffffffffffff1660068561ffff1681548110151561205957fe5b9060005260206000200160006101000a81548173ffffffffffffffffffffffffffffffffffffffff021916908373ffffffffffffffffffffffffffffffffffffffff1602179055925060018401600760008573ffffffffffffffffffffffffffffffffffffffff1673ffffffffffffffffffffffffffffffffffffffff16815260200190815260200160002060006101000a81548161ffff021916908361ffff1602179055506006805480919060019003612114919061509d565b507f677f03e392472a48b617167ed4dbec758d26d8517257ec077bed2d27d192816486604051808273ffffffffffffffffffffffffffffffffffffffff1673ffffffffffffffffffffffffffffffffffffffff16815260200191505060405180910390a1505050505050565b61219a83338484600f6132b390949392919063ffffffff16565b50505050565b6000806121ed853386868080601f016020809104026020016040519081016040528093929190818152602001838380828437820191505050505050600f6134a3909392919063ffffffff16565b1561239557600f600101600f6000016000876000191660001916815260200190815260200160002060009054906101000a900461ffff1661ffff1681548110151561223457fe5b90600052602060002090600a02019150600090505b81600501805490508111151561239457600960009054906101000a900473ffffffffffffffffffffffffffffffffffffffff1673ffffffffffffffffffffffffffffffffffffffff1663e6808ff083600501838154811015156122a857fe5b9060005260206000200160009054906101000a900473ffffffffffffffffffffffffffffffffffffffff166122ea84866003015461363190919063ffffffff16565b6040518363ffffffff167c0100000000000000000000000000000000000000000000000000000000028152600401808373ffffffffffffffffffffffffffffffffffffffff1673ffffffffffffffffffffffffffffffffffffffff16815260200182815260200192505050600060405180830381600087803b15801561236f57600080fd5b505af1158015612383573d6000803e3d6000fd5b505050508080600101915050612249565b5b5050505050565b6706f05b59d3b2000081565b606060008361240657600f600201600f6000016000876000191660001916815260200190815260200160002060009054906101000a900461ffff1661ffff168154811015156123f357fe5b90600052602060002090600a0201612457565b600f600101600f6000016000876000191660001916815260200190815260200160002060009054906101000a900461ffff1661ffff1681548110151561244857fe5b90600052602060002090600a02015b9050806006018360ff1681548110151561246d57fe5b906000526020600020018054600181600116156101000203166002900480601f01602080910402602001604051908101604052809291908181526020018280546001816001161561010002031660029004801561250b5780601f106124e05761010080835404028352916020019161250b565b820191906000526020600020905b8154815290600101906020018083116124ee57829003601f168201915b50505050509150509392505050565b6000806000806060808873ffffffffffffffffffffffffffffffffffffffff166387ea09616040518163ffffffff167c0100000000000000000000000000000000000000000000000000000000028152600401602060405180830381600087803b15801561258757600080fd5b505af115801561259b573d6000803e3d6000fd5b505050506040513d60208110156125b157600080fd5b81019080805190602001909291905050509350600a8460ff16111515156125d757600080fd5b8873ffffffffffffffffffffffffffffffffffffffff1663b1f8d9ba6040518163ffffffff167c0100000000000000000000000000000000000000000000000000000000028152600401602060405180830381600087803b15801561263b57600080fd5b505af115801561264f573d6000803e3d6000fd5b505050506040513d602081101561266557600080fd5b81019080805190602001909291905050508a73ffffffffffffffffffffffffffffffffffffffff1663b1f8d9ba6040518163ffffffff167c0100000000000000000000000000000000000000000000000000000000028152600401602060405180830381600087803b1580156126da57600080fd5b505af11580156126ee573d6000803e3d6000fd5b505050506040513d602081101561270457600080fd5b810190808051906020019092919050505014151561272157600080fd5b6706f05b59d3b20000341015151561273857600080fd5b612740612bcf565b92508360ff1683101561284e57600094506127748a8a33348860ff168d8d600c61364790979695949392919063ffffffff16565b506127c734600a60003373ffffffffffffffffffffffffffffffffffffffff1673ffffffffffffffffffffffffffffffffffffffff1681526020019081526020016000205461384c90919063ffffffff16565b600a60003373ffffffffffffffffffffffffffffffffffffffff1673ffffffffffffffffffffffffffffffffffffffff168152602001908152602001600020819055507f2c45d5fba2a924464674ba6274086714ee596687cf6a6110111b80abe05f28b38660405180826000191660001916815260200191505060405180910390a1612902565b3373ffffffffffffffffffffffffffffffffffffffff166108fc349081150290604051600060405180830381858888f19350505050158015612894573d6000803e3d6000fd5b5061289e83612dc1565b91506128ad828560ff166130c6565b90506128bc8a8a838b8b613868565b9550600194507f11a21264ecb93e14000906dc00b4753fd6eec24f9f0f1b4305a1a04740b3023e8660405180826000191660001916815260200191505060405180910390a15b5050505094509492505050565b6001809054906101000a900473ffffffffffffffffffffffffffffffffffffffff1673ffffffffffffffffffffffffffffffffffffffff163373ffffffffffffffffffffffffffffffffffffffff1614151561296a57600080fd5b61297381613a2c565b50565b600560009054906101000a900473ffffffffffffffffffffffffffffffffffffffff1681565b600a6020528060005260406000206000915090505481565b60076020528060005260406000206000915054906101000a900461ffff1681565b6000848060040160009054906101000a900460ff1615156129fa576129f981613b26565b5b858560056008811115612a0957fe5b8060ff16836001016001856000016000866000191660001916815260200190815260200160002060009054906101000a900461ffff160361ffff16815481101515612a5057fe5b90600052602060002090600a020160090160019054906101000a900460ff1660ff16141515612a7e57600080fd5b612a89898989613ce3565b94507fffffffffffffffffffffffffffffffffffffffffffffffffffffffffffffffff8514151515612aba57600080fd5b428960010160018b60000160008c6000191660001916815260200190815260200160002060009054906101000a900461ffff160361ffff16815481101515612afe57fe5b90600052602060002090600a020160070186815481101515612b1c57fe5b90600052602060002090600891828204019190066004026101000a81548163ffffffff021916908363ffffffff16021790555087600019167f84d08018633e0a8a0ba434acc29166246cfe913279e254647ca8c2f24f13660787604051808260ff1660ff16815260200191505060405180910390a2505050505050505050565b600081600201548260000180549050039050919050565b60018060006101000a81548160ff021916908315150217905550565b60008060009150600090505b600680549050811015612dba57600681815481101515612bf757fe5b9060005260206000200160009054906101000a900473ffffffffffffffffffffffffffffffffffffffff1673ffffffffffffffffffffffffffffffffffffffff1663ae897c556040518163ffffffff167c0100000000000000000000000000000000000000000000000000000000028152600401602060405180830381600087803b158015612c8557600080fd5b505af1158015612c99573d6000803e3d6000fd5b505050506040513d6020811015612caf57600080fd5b810190808051906020019092919050505060ff16600682815481101515612cd257fe5b9060005260206000200160009054906101000a900473ffffffffffffffffffffffffffffffffffffffff1673ffffffffffffffffffffffffffffffffffffffff16630c3f6acf6040518163ffffffff167c0100000000000000000000000000000000000000000000000000000000028152600401602060405180830381600087803b158015612d6057600080fd5b505af1158015612d74573d6000803e3d6000fd5b505050506040513d6020811015612d8a57600080fd5b810190808051906020019092919050505060ff161415612dad5781806001019250505b8080600101915050612bdb565b8191505090565b60608060008084604051908082528060200260200182016040528015612df65781602001602082028038833980820191505090505b50925060009150600090505b60068054905081101561306357600681815481101515612e1e57fe5b9060005260206000200160009054906101000a900473ffffffffffffffffffffffffffffffffffffffff1673ffffffffffffffffffffffffffffffffffffffff1663ae897c556040518163ffffffff167c0100000000000000000000000000000000000000000000000000000000028152600401602060405180830381600087803b158015612eac57600080fd5b505af1158015612ec0573d6000803e3d6000fd5b505050506040513d6020811015612ed657600080fd5b810190808051906020019092919050505060ff16600682815481101515612ef957fe5b9060005260206000200160009054906101000a900473ffffffffffffffffffffffffffffffffffffffff1673ffffffffffffffffffffffffffffffffffffffff16630c3f6acf6040518163ffffffff167c0100000000000000000000000000000000000000000000000000000000028152600401602060405180830381600087803b158015612f8757600080fd5b505af1158015612f9b573d6000803e3d6000fd5b505050506040513d6020811015612fb157600080fd5b810190808051906020019092919050505060ff16141561305657600681815481101515612fda57fe5b9060005260206000200160009054906101000a900473ffffffffffffffffffffffffffffffffffffffff16838380600101945081518110151561301957fe5b9060200190602002019073ffffffffffffffffffffffffffffffffffffffff16908173ffffffffffffffffffffffffffffffffffffffff16815250505b8080600101915050612e02565b829350505050919050565b6000613078615021565b61308184613e24565b5080915050828160600151111591505092915050565b61309f615021565b60006130aa83613e24565b80925081935050506130bb83613fb1565b818191509150915091565b6060600080836040519080825280602002602001820160405280156130fa5781602001602082028038833980820191505090505b509250600b60009054906101000a900473ffffffffffffffffffffffffffffffffffffffff1673ffffffffffffffffffffffffffffffffffffffff1663cd4b691484516040518263ffffffff167c010000000000000000000000000000000000000000000000000000000002815260040180828152602001915050602060405180830381600087803b15801561318f57600080fd5b505af11580156131a3573d6000803e3d6000fd5b505050506040513d60208110156131b957600080fd5b81019080805190602001909291905050509150600090505b82518110156132625784828151811015156131e857fe5b90602001906020020151838281518110151561320057fe5b9060200190602002019073ffffffffffffffffffffffffffffffffffffffff16908173ffffffffffffffffffffffffffffffffffffffff1681525050600183510382146132505760018201613253565b60005b915080806001019150506131d1565b505092915050565b600060011515600160009054906101000a900460ff16151514151561328e57600080fd5b6132ab836000015184602001518486608001518760a00151613868565b905092915050565b6000858060040160009054906101000a900460ff1615156132d8576132d781613b26565b5b86866000826001016001846000016000856000191660001916815260200190815260200160002060009054906101000a900461ffff160361ffff1681548110151561331f57fe5b90600052602060002090600a020190506001600881111561333c57fe5b60ff168160090160019054906101000a900460ff1660ff16148061338257506003600881111561336857fe5b60ff168160090160019054906101000a900460ff1660ff16145b806133af57506005600881111561339557fe5b60ff168160090160019054906101000a900460ff1660ff16145b15156133ba57600080fd5b6133c68a8a8a896140a4565b6133d08a8a614125565b156134965760019450600060028111156133e657fe5b60ff168760ff1614156134195761340a8a8a6001600881111561340557fe5b614211565b6134148a8a61442e565b613495565b6001600281111561342657fe5b60ff168760ff1614156134595761344a8a8a6005600881111561344557fe5b614211565b6134548a8a61442e565b613494565b60028081111561346557fe5b60ff168760ff16141561348e576134898a8a6007600881111561348457fe5b614211565b613493565b600094505b5b5b5b5050505095945050505050565b600080858060040160009054906101000a900460ff1615156134c9576134c881613b26565b5b8686600560088111156134d857fe5b8060ff16836001016001856000016000866000191660001916815260200190815260200160002060009054906101000a900461ffff160361ffff1681548110151561351f57fe5b90600052602060002090600a020160090160019054906101000a900460ff1660ff1614151561354d57600080fd5b6135588a8a8a613ce3565b94507fffffffffffffffffffffffffffffffffffffffffffffffffffffffffffffffff851415151561358957600080fd5b868a60010160018c60000160008d6000191660001916815260200190815260200160002060009054906101000a900461ffff160361ffff168154811015156135cd57fe5b90600052602060002090600a0201600601868154811015156135eb57fe5b9060005260206000200190805190602001906136089291906150c9565b506136228a8a8a60028081111561361b57fe5b60016132b3565b95505050505050949350505050565b6000818381151561363e57fe5b04905092915050565b6000886000018054905060018a600001805490500111151561366857600080fd5b8860000160c0604051908101604052808a73ffffffffffffffffffffffffffffffffffffffff1681526020018973ffffffffffffffffffffffffffffffffffffffff1681526020018873ffffffffffffffffffffffffffffffffffffffff16815260200186815260200185815260200184600019168152509080600181540180825580915050906001820390600052602060002090600602016000909192909190915060008201518160000160006101000a81548173ffffffffffffffffffffffffffffffffffffffff021916908373ffffffffffffffffffffffffffffffffffffffff16021790555060208201518160010160006101000a81548173ffffffffffffffffffffffffffffffffffffffff021916908373ffffffffffffffffffffffffffffffffffffffff16021790555060408201518160020160006101000a81548173ffffffffffffffffffffffffffffffffffffffff021916908373ffffffffffffffffffffffffffffffffffffffff160217905550606082015181600301556080820151816004015560a082015181600501906000191690555050508860010185908060018154018082558091505090600182039060005260206000200160009091929091909150555061383e89612b9c565b905098975050505050505050565b6000818301905082811015151561385f57fe5b80905092915050565b6000606060008060011515600160009054906101000a900460ff16151514151561389157600080fd5b86516040519080825280602002602001820160405280156138c15781602001602082028038833980820191505090505b509250600091505b82518210156139415786828151811015156138e057fe5b9060200190602002015183838151811015156138f857fe5b9060200190602002019073ffffffffffffffffffffffffffffffffffffffff16908173ffffffffffffffffffffffffffffffffffffffff168152505081806001019250506138c9565b61395d8989858989600f6145509095949392919063ffffffff16565b9350600090505b8651811015613a2057868181518110151561397b57fe5b9060200190602002015173ffffffffffffffffffffffffffffffffffffffff16637aee7e09856040518263ffffffff167c0100000000000000000000000000000000000000000000000000000000028152600401808260001916600019168152602001915050600060405180830381600087803b1580156139fb57600080fd5b505af1158015613a0f573d6000803e3d6000fd5b505050508080600101915050613964565b50505095945050505050565b600073ffffffffffffffffffffffffffffffffffffffff168173ffffffffffffffffffffffffffffffffffffffff1614151515613a6857600080fd5b8073ffffffffffffffffffffffffffffffffffffffff166001809054906101000a900473ffffffffffffffffffffffffffffffffffffffff1673ffffffffffffffffffffffffffffffffffffffff167f8be0079c531659141344cd1fd0a4f28419497f9722a3daafe3b4186f6b6457e060405160405180910390a3806001806101000a81548173ffffffffffffffffffffffffffffffffffffffff021916908373ffffffffffffffffffffffffffffffffffffffff16021790555050565b600081600301905060206040519081016040528060016008811115613b4757fe5b60ff1660ff16815250816000806008811115613b5f57fe5b60ff1660ff168152602001908152602001600020906001613b81929190615149565b50604080519081016040528060026008811115613b9a57fe5b60ff1660ff16815260200160036008811115613bb257fe5b60ff1660ff1681525081600060016008811115613bcb57fe5b60ff1660ff168152602001908152602001600020906002613bed9291906151f0565b5060606040519081016040528060046008811115613c0757fe5b60ff1660ff16815260200160056008811115613c1f57fe5b60ff1660ff16815260200160026008811115613c3757fe5b60ff1660ff1681525081600060036008811115613c5057fe5b60ff1660ff168152602001908152602001600020906003613c72929190615297565b50604080519081016040528060076008811115613c8b57fe5b60ff1660ff16815260200160066008811115613ca357fe5b60ff1660ff1681525081600060056008811115613cbc57fe5b60ff1660ff168152602001908152602001600020906002613cde9291906151f0565b505050565b6000806000858060040160009054906101000a900460ff161515613d0b57613d0a81613b26565b5b866001016001886000016000896000191660001916815260200190815260200160002060009054906101000a900461ffff160361ffff16815481101515613d4e57fe5b90600052602060002090600a02019250600091505b8260050180549050821015613df6578473ffffffffffffffffffffffffffffffffffffffff168360050183815481101515613d9a57fe5b9060005260206000200160009054906101000a900473ffffffffffffffffffffffffffffffffffffffff1673ffffffffffffffffffffffffffffffffffffffff161415613de957819350613e1a565b8180600101925050613d63565b7fffffffffffffffffffffffffffffffffffffffffffffffffffffffffffffffff93505b5050509392505050565b613e2c615021565b6000826000018360020154815481101515613e4357fe5b9060005260206000209060060201836001018460020154815481101515613e6657fe5b90600052602060002001548160c060405190810160405290816000820160009054906101000a900473ffffffffffffffffffffffffffffffffffffffff1673ffffffffffffffffffffffffffffffffffffffff1673ffffffffffffffffffffffffffffffffffffffff1681526020016001820160009054906101000a900473ffffffffffffffffffffffffffffffffffffffff1673ffffffffffffffffffffffffffffffffffffffff1673ffffffffffffffffffffffffffffffffffffffff1681526020016002820160009054906101000a900473ffffffffffffffffffffffffffffffffffffffff1673ffffffffffffffffffffffffffffffffffffffff1673ffffffffffffffffffffffffffffffffffffffff16815260200160038201548152602001600482015481526020016005820154600019166000191681525050915091509150915091565b8060020160008154809291906001019190505550806000016001826002015403815481101515613fdd57fe5b9060005260206000209060060201600080820160006101000a81549073ffffffffffffffffffffffffffffffffffffffff02191690556001820160006101000a81549073ffffffffffffffffffffffffffffffffffffffff02191690556002820160006101000a81549073ffffffffffffffffffffffffffffffffffffffff0219169055600382016000905560048201600090556005820160009055505080600101600182600201540381548110151561409357fe5b906000526020600020016000905550565b6000848060040160009054906101000a900460ff1615156140c9576140c881613b26565b5b6140d4868686613ce3565b91507fffffffffffffffffffffffffffffffffffffffffffffffffffffffffffffffff821415151561410557600080fd5b614111868684866149eb565b61411b8686614b35565b5050505050505050565b6000806000848060040160009054906101000a900460ff16151561414d5761414c81613b26565b5b60019350856001016001876000016000886000191660001916815260200190815260200160002060009054906101000a900461ffff160361ffff1681548110151561419457fe5b90600052602060002090600a02019250600091505b8260080180549050821015614208576001151583600801838154811015156141cd57fe5b90600052602060002090602091828204019190069054906101000a900460ff1615151415156141fb57600093505b81806001019250506141a9565b50505092915050565b600080848060040160009054906101000a900460ff1615156142375761423681613b26565b5b85858560008060008092508560030160008760010160018960000160008a6000191660001916815260200190815260200160002060009054906101000a900461ffff160361ffff1681548110151561428b57fe5b90600052602060002090600a020160090160019054906101000a900460ff1660ff1660ff1681526020019081526020016000209150600090505b818054905081101561431e578360ff1682828154811015156142e357fe5b90600052602060002090602091828204019190069054906101000a900460ff1660ff16141561431157600192505b80806001019150506142c5565b6001151583151514151561433157600080fd5b8b60010160018d60000160008e6000191660001916815260200190815260200160002060009054906101000a900461ffff160361ffff1681548110151561437457fe5b90600052602060002090600a020198508860090160019054906101000a900460ff169750898960090160016101000a81548160ff021916908360ff1602179055508a600019167f9cb99c834b5e878ca7005d163b0fd70203dbc223d5845abe517de64a74dc5816898b60090160019054906101000a900460ff16604051808360ff1660ff1681526020018260ff1660ff1681526020019250505060405180910390a26144208c8c614d5f565b505050505050505050505050565b600080838060040160009054906101000a900460ff1615156144545761445381613b26565b5b846001016001866000016000876000191660001916815260200190815260200160002060009054906101000a900461ffff160361ffff1681548110151561449757fe5b90600052602060002090600a02019250600091505b826008018054905082101561454957600083600801838154811015156144ce57fe5b90600052602060002090602091828204019190066101000a81548160ff02191690831515021790555042836007018381548110151561450957fe5b90600052602060002090600891828204019190066004026101000a81548163ffffffff021916908363ffffffff16021790555081806001019250506144ac565b5050505050565b6000806000888060040160009054906101000a900460ff1615156145785761457781613b26565b5b7fffffffffffffffffffffffffffffffffffffffffffffffffffffffffffffffff61ffff168a600101805490501015156145b157600080fd5b438a600101805490500160405180828152602001915050604051809103902093508960010161016060405190810160405280866000191681526020018b73ffffffffffffffffffffffffffffffffffffffff1681526020018a73ffffffffffffffffffffffffffffffffffffffff16815260200188815260200187600019168152602001898152602001895160405190808252806020026020018201604052801561467057816020015b606081526020019060019003908161465b5790505b50815260200189516040519080825280602002602001820160405280156146a65781602001602082028038833980820191505090505b50815260200189516040519080825280602002602001820160405280156146dc5781602001602082028038833980820191505090505b508152602001600060ff168152602001600060088111156146f957fe5b60ff168152509080600181540180825580915050906001820390600052602060002090600a0201600090919290919091506000820151816000019060001916905560208201518160010160006101000a81548173ffffffffffffffffffffffffffffffffffffffff021916908373ffffffffffffffffffffffffffffffffffffffff16021790555060408201518160020160006101000a81548173ffffffffffffffffffffffffffffffffffffffff021916908373ffffffffffffffffffffffffffffffffffffffff160217905550606082015181600301556080820151816004019060001916905560a08201518160050190805190602001906147fe92919061533e565b5060c082015181600601908051906020019061481b9291906153c8565b5060e0820151816007019080519060200190614838929190615428565b506101008201518160080190805190602001906148569291906154d8565b506101208201518160090160006101000a81548160ff021916908360ff1602179055506101408201518160090160016101000a81548160ff021916908360ff16021790555050505089600101805490508a6000016000866000191660001916815260200190815260200160002060006101000a81548161ffff021916908361ffff1602179055508960010160018b6000016000876000191660001916815260200190815260200160002060009054906101000a900461ffff160361ffff1681548110151561492057fe5b90600052602060002090600a02019250600091505b82600701805490508210156149965742836007018381548110151561495657fe5b90600052602060002090600891828204019190066004026101000a81548163ffffffff021916908363ffffffff1602179055508180600101925050614935565b6149ad8a85600160088111156149a857fe5b614211565b83600019167fcdd8e82457800d3241f19b61393a2bbceb40e44253685afc406b2bb489c84ad360405160405180910390a25050509695505050505050565b838060040160009054906101000a900460ff161515614a0e57614a0d81613b26565b5b81856001016001876000016000886000191660001916815260200190815260200160002060009054906101000a900461ffff160361ffff16815481101515614a5257fe5b90600052602060002090600a020160080184815481101515614a7057fe5b90600052602060002090602091828204019190066101000a81548160ff02191690831515021790555042856001016001876000016000886000191660001916815260200190815260200160002060009054906101000a900461ffff160361ffff16815481101515614add57fe5b90600052602060002090600a020160070184815481101515614afb57fe5b90600052602060002090600891828204019190066004026101000a81548163ffffffff021916908363ffffffff1602179055505050505050565b600080600080858060040160009054906101000a900460ff161515614b5e57614b5d81613b26565b5b86866000826001016001846000016000856000191660001916815260200190815260200160002060009054906101000a900461ffff160361ffff16815481101515614ba557fe5b90600052602060002090600a0201905060016008811115614bc257fe5b60ff168160090160019054906101000a900460ff1660ff161480614c08575060036008811115614bee57fe5b60ff168160090160019054906101000a900460ff1660ff16145b80614c35575060056008811115614c1b57fe5b60ff168160090160019054906101000a900460ff1660ff16145b1515614c4057600080fd5b8960010160018b60000160008c6000191660001916815260200190815260200160002060009054906101000a900461ffff160361ffff16815481101515614c8357fe5b90600052602060002090600a02019550600094505b8560070180549050851015614d52576107088660070186815481101515614cbb57fe5b90600052602060002090600891828204019190066004029054906101000a900463ffffffff164260ff160363ffffffff161115614d45578560050185815481101515614d0357fe5b9060005260206000200160009054906101000a900473ffffffffffffffffffffffffffffffffffffffff1697508560090160019054906101000a900460ff1696505b8480600101955050614c98565b5050505050509250929050565b6000828060040160009054906101000a900460ff161515614d8457614d8381613b26565b5b836001016001856000016000866000191660001916815260200190815260200160002060009054906101000a900461ffff160361ffff16815481101515614dc757fe5b90600052602060002090600a020160090160019054906101000a900460ff16915060026008811115614df557fe5b60ff168260ff161415614e385782600019167f5261c4ecde326f171b514c548529aa2219b22fedf2fa5640ae6f7d939aaefbf860405160405180910390a2614ff3565b60036008811115614e4557fe5b60ff168260ff161415614e885782600019167f664052ccd6bc90c161d5b3a6ed2bff308e2bf01e52fbc112e7a8d445bb9c66ee60405160405180910390a2614ff2565b60046008811115614e9557fe5b60ff168260ff161415614ed85782600019167fee170c67bd88e14fcfccdcf7817ddb732cb1a466d0c333f4642571d1282556eb60405160405180910390a2614ff1565b60056008811115614ee557fe5b60ff168260ff161415614f285782600019167f3010926e292de172661e49071a9be4cb18f63877dffcc78013e349175f5b03b260405160405180910390a2614ff0565b60066008811115614f3557fe5b60ff168260ff161415614f885782600019167f439c5ac734864869b402ad7298724e0154a172f98a32de5c8e877b3f234dc5d76001604051808215151515815260200191505060405180910390a2614fef565b60076008811115614f9557fe5b60ff168260ff161415614fee5782600019167f439c5ac734864869b402ad7298724e0154a172f98a32de5c8e877b3f234dc5d76000604051808215151515815260200191505060405180910390a2614fed8484614ff9565b5b5b5b5b5b5b50505050565b818060040160009054906101000a900460ff16151561501c5761501b81613b26565b5b505050565b60c060405190810160405280600073ffffffffffffffffffffffffffffffffffffffff168152602001600073ffffffffffffffffffffffffffffffffffffffff168152602001600073ffffffffffffffffffffffffffffffffffffffff1681526020016000815260200160008152602001600080191681525090565b8154818355818111156150c4578183600052602060002091820191016150c3919061557e565b5b505050565b828054600181600116156101000203166002900490600052602060002090601f016020900481019282601f1061510a57805160ff1916838001178555615138565b82800160010185558215615138579182015b8281111561513757825182559160200191906001019061511c565b5b509050615145919061557e565b5090565b82805482825590600052602060002090601f016020900481019282156151df5791602002820160005b838211156151b057835183826101000a81548160ff021916908360ff1602179055509260200192600101602081600001049283019260010302615172565b80156151dd5782816101000a81549060ff02191690556001016020816000010492830192600103026151b0565b505b5090506151ec91906155a3565b5090565b82805482825590600052602060002090601f016020900481019282156152865791602002820160005b8382111561525757835183826101000a81548160ff021916908360ff1602179055509260200192600101602081600001049283019260010302615219565b80156152845782816101000a81549060ff0219169055600101602081600001049283019260010302615257565b505b50905061529391906155a3565b5090565b82805482825590600052602060002090601f0160209004810192821561532d5791602002820160005b838211156152fe57835183826101000a81548160ff021916908360ff16021790555092602001926001016020816000010492830192600103026152c0565b801561532b5782816101000a81549060ff02191690556001016020816000010492830192600103026152fe565b505b50905061533a91906155a3565b5090565b8280548282559060005260206000209081019282156153b7579160200282015b828111156153b65782518260006101000a81548173ffffffffffffffffffffffffffffffffffffffff021916908373ffffffffffffffffffffffffffffffffffffffff1602179055509160200191906001019061535e565b5b5090506153c491906155d3565b5090565b828054828255906000526020600020908101928215615417579160200282015b82811115615416578251829080519060200190615406929190615616565b50916020019190600101906153e8565b5b5090506154249190615696565b5090565b828054828255906000526020600020906007016008900481019282156154c75791602002820160005b8382111561549557835183826101000a81548163ffffffff021916908363ffffffff1602179055509260200192600401602081600301049283019260010302615451565b80156154c55782816101000a81549063ffffffff0219169055600401602081600301049283019260010302615495565b505b5090506154d491906156c2565b5090565b82805482825590600052602060002090601f0160209004810192821561556d5791602002820160005b8382111561553e57835183826101000a81548160ff0219169083151502179055509260200192600101602081600001049283019260010302615501565b801561556b5782816101000a81549060ff021916905560010160208160000104928301926001030261553e565b505b50905061557a91906156f5565b5090565b6155a091905b8082111561559c576000816000905550600101615584565b5090565b90565b6155d091905b808211156155cc57600081816101000a81549060ff0219169055506001016155a9565b5090565b90565b61561391905b8082111561560f57600081816101000a81549073ffffffffffffffffffffffffffffffffffffffff0219169055506001016155d9565b5090565b90565b828054600181600116156101000203166002900490600052602060002090601f016020900481019282601f1061565757805160ff1916838001178555615685565b82800160010185558215615685579182015b82811115615684578251825591602001919060010190615669565b5b509050615692919061557e565b5090565b6156bf91905b808211156156bb57600081816156b29190615725565b5060010161569c565b5090565b90565b6156f291905b808211156156ee57600081816101000a81549063ffffffff0219169055506001016156c8565b5090565b90565b61572291905b8082111561571e57600081816101000a81549060ff0219169055506001016156fb565b5090565b90565b50805460018160011615610100020316600290046000825580601f1061574b575061576a565b601f016020900490600052602060002090810190615769919061557e565b5b505600a165627a7a723058209bb788fb154622664cce7851932f63f7782c53a147678439848d19486b8a46930029608060405234801561001057600080fd5b504360018190555061013e806100276000396000f300608060405260043610610041576000357c0100000000000000000000000000000000000000000000000000000000900463ffffffff168063cd4b691414610046575b600080fd5b34801561005257600080fd5b5061007160048036038101908080359060200190929190505050610087565b6040518082815260200191505060405180910390f35b60006001544311156100ce5743600181905550600a4303406001900443406001900401604051808281526020019150506040518091039020600081600019169055506100f9565b6000546040518082600019166000191681526020019150506040518091039020600081600019169055505b816000546001900481151561010a57fe5b0690509190505600a165627a7a7230582034d49b1d6c3ef1f3a22161d34872da9ae53c3c7a697801a5c84a085582735f940029",
  "source": "pragma solidity ^0.4.23;\n\nimport \"../lifecycle/OnlyOnce.sol\";\nimport \"./factories/IWorkerNodeFactory.sol\";\nimport \"./managers/CognitiveJobManager.sol\";\nimport \"./token/PAN.sol\";\n\n/**\n * @title Pandora Smart Contract\n * @author \"Dr Maxim Orlovsky\" <orlovsky@pandora.foundation>\n *\n * @dev # Pandora Smart Contract\n *\n * Main & root contract implementing the first level of Pandora Boxchain consensus\n * See section [\"3.3. Proof of Cognitive Work (PoCW)\" in Pandora white paper](https://steemit.com/cryptocurrency/%40pandoraboxchain/world-decentralized-ai-on-blockchain-with-cognitive-mining-and-open-markets-for-data-and-algorithms-pandora-boxchain)\n * for more details.\n *\n * Contract token functionality is separated into a separate contract named PAN (after the name of the token)\n * and Pandora contracts just simply inherits PAN contract.\n */\n\ncontract Pandora is OnlyOnce, CognitiveJobManager {\n\n    /*******************************************************************************************************************\n     * ## Storage\n     */\n\n    /// ### Public variables\n\n    bytes32 public constant version = \"0.4.3\";\n\n\n    /*******************************************************************************************************************\n     * ## Events\n     */\n\n\n    /*******************************************************************************************************************\n     * ## Constructor and initialization\n     */\n\n    /// ### Constructor\n    /// @dev Constructor receives addresses for the owners of whitelisted worker nodes, which will be assigned an owners\n    /// of worker nodes contracts\n    constructor(\n        IWorkerNodeFactory _nodeFactory, /// Factory class for creating WorkerNode contracts\n        IReputation _reputation\n    ) public\n    CognitiveJobManager(_nodeFactory, _reputation)\n    // Ensure that the contract is still uninitialized and `initialize` function be called to check the proper\n    // setup of class factories\n    Initializable()\n    Ownable() {\n    }\n\n    /// ### Initialization\n    /// @notice Function that checks the proper setup of class factories. May be called only once and only by Pandora\n    /// contract owner.\n    /// @dev Function that checks the proper setup of class factories. May be called only once and only by Pandora\n    /// contract owner.\n    function initialize()\n    public\n    onlyOwner\n    onlyOnce(\"initialize\") {\n        // Checks that the factory contracts creator has assigned Pandora as an owner of the factory contracts:\n        // an important security measure preventing \"Parity-style\" contract bugs\n        require(workerNodeFactory.owner() == address(this));\n\n        Initializable.initialize();\n    }\n\n    /*******************************************************************************************************************\n     * ## Modifiers\n     */\n\n\n    /*******************************************************************************************************************\n     * ## Functions\n     */\n\n    /// ### Public and external\n}\n",
  "sourcePath": "/home/kostysh/dev/pyrrha-consensus/contracts/pandora/Pandora.sol",
  "compiler": {
    "name": "solc",
    "version": "0.4.24+commit.e67f0147.Emscripten.clang"
  },
  "schemaVersion": "2.0.1",
  "updatedAt": "2018-07-20T09:53:22.659Z"
}