{
  "contractName": "RandomEngine",
  "abi": [
    {
      "inputs": [],
      "payable": false,
      "stateMutability": "nonpayable",
      "type": "constructor"
    },
    {
      "constant": false,
      "inputs": [
        {
          "name": "_max",
          "type": "uint256"
        }
      ],
      "name": "getRandom",
      "outputs": [
        {
          "name": "o_result",
          "type": "uint256"
        }
      ],
      "payable": false,
      "stateMutability": "nonpayable",
      "type": "function"
    }
  ],
  "bytecode": "0x608060405234801561001057600080fd5b5043600181905550610216806100276000396000f300608060405260043610610041576000357c0100000000000000000000000000000000000000000000000000000000900463ffffffff168063cd4b691414610046575b600080fd5b34801561005257600080fd5b5061007160048036038101908080359060200190929190505050610087565b6040518082815260200191505060405180910390f35b600060015443111561013a5743600181905550600a4303406001900443406001900401604051602001808281526020019150506040516020818303038152906040526040518082805190602001908083835b6020831015156100fe57805182526020820191506020810190506020830392506100d9565b6001836020036101000a0380198251168184511680821785525050505050509050019150506040518091039020600081600019169055506101d1565b6000546040516020018082600019166000191681526020019150506040516020818303038152906040526040518082805190602001908083835b6020831015156101995780518252602082019150602081019050602083039250610174565b6001836020036101000a0380198251168184511680821785525050505050509050019150506040518091039020600081600019169055505b81600054600190048115156101e257fe5b0690509190505600a165627a7a723058201ba3fced9b6c890462be9e5abcceeb59a4c5eacf6473625f2fd6e48fb69aceab0029",
  "source": "pragma solidity 0.4.24;\n\nimport \"./ILotteryEngine.sol\";\n\ncontract RandomEngine is ILotteryEngine {\n    bytes32 baseHash;\n    uint256 lastBlockNumber;\n\n    constructor()\n    public {\n        lastBlockNumber = block.number;\n    }\n\n    // Current implementation able to return one unique value per block\n    function getRandom(uint256 _max)\n    public\n    returns (uint256 o_result) {\n        if (block.number > lastBlockNumber) {\n            lastBlockNumber = block.number;\n            baseHash = keccak256(abi.encodePacked(uint256(blockhash(block.number)) + uint256(blockhash(block.number - 10))));\n        } else {\n            baseHash = keccak256(abi.encodePacked(baseHash));\n        }\n        o_result = uint256(baseHash) % _max;\n    }\n}\n",
  "sourcePath": "/home/kostysh/dev/pyrrha-consensus/contracts/pandora/lottery/RandomEngine.sol",
  "compiler": {
    "name": "solc",
    "version": "0.4.24+commit.e67f0147.Emscripten.clang"
  },
  "schemaVersion": "2.0.1",
  "updatedAt": "2019-01-10T18:19:12.005Z"
}