{
  "contractName": "RandomEngine",
  "abi": [
    {
      "inputs": [],
      "payable": false,
      "stateMutability": "nonpayable",
      "type": "constructor"
    },
    {
      "constant": false,
      "inputs": [
        {
          "name": "_max",
          "type": "uint256"
        }
      ],
      "name": "getRandom",
      "outputs": [
        {
          "name": "o_result",
          "type": "uint256"
        }
      ],
      "payable": false,
      "stateMutability": "nonpayable",
      "type": "function"
    }
  ],
  "bytecode": "0x608060405234801561001057600080fd5b504360018190555061013e806100276000396000f300608060405260043610610041576000357c0100000000000000000000000000000000000000000000000000000000900463ffffffff168063cd4b691414610046575b600080fd5b34801561005257600080fd5b5061007160048036038101908080359060200190929190505050610087565b6040518082815260200191505060405180910390f35b60006001544311156100ce5743600181905550600a4303406001900443406001900401604051808281526020019150506040518091039020600081600019169055506100f9565b6000546040518082600019166000191681526020019150506040518091039020600081600019169055505b816000546001900481151561010a57fe5b0690509190505600a165627a7a723058207d1203d115f9334e2e262ce744641f6cf745a5777fc2a653f60204c0ccdddb960029",
  "source": "pragma solidity ^0.4.23;\n\nimport \"./ILotteryEngine.sol\";\n\ncontract RandomEngine is ILotteryEngine {\n    bytes32 baseHash;\n    uint256 lastBlockNumber;\n\n    constructor()\n    public {\n        lastBlockNumber = block.number;\n    }\n\n    // Current implementation able to return one unique value per block\n    function getRandom(uint256 _max)\n    public\n    returns (uint256 o_result) {\n        if (block.number > lastBlockNumber) {\n            lastBlockNumber = block.number;\n            baseHash = keccak256((uint256(blockhash(block.number)) + uint256(blockhash(block.number - 10))));\n        } else {\n            baseHash = keccak256(baseHash);\n        }\n        o_result = uint256(baseHash) % _max;\n    }\n}\n",
  "sourcePath": "/home/kostysh/dev/pyrrha-consensus/contracts/pandora/lottery/RandomEngine.sol",
  "compiler": {
    "name": "solc",
    "version": "0.4.24+commit.e67f0147.Emscripten.clang"
  },
  "schemaVersion": "2.0.0",
  "updatedAt": "2018-06-28T15:40:02.912Z"
}