{
  "contractName": "RandomEngine",
  "abi": [
    {
      "inputs": [],
      "payable": false,
      "stateMutability": "nonpayable",
      "type": "constructor"
    },
    {
      "constant": false,
      "inputs": [
        {
          "name": "_max",
          "type": "uint256"
        }
      ],
      "name": "getRandom",
      "outputs": [
        {
          "name": "o_result",
          "type": "uint256"
        }
      ],
      "payable": false,
      "stateMutability": "nonpayable",
      "type": "function"
    }
  ],
  "bytecode": "0x608060405234801561001057600080fd5b5043600181905550610216806100276000396000f300608060405260043610610041576000357c0100000000000000000000000000000000000000000000000000000000900463ffffffff168063cd4b691414610046575b600080fd5b34801561005257600080fd5b5061007160048036038101908080359060200190929190505050610087565b6040518082815260200191505060405180910390f35b600060015443111561013a5743600181905550600a4303406001900443406001900401604051602001808281526020019150506040516020818303038152906040526040518082805190602001908083835b6020831015156100fe57805182526020820191506020810190506020830392506100d9565b6001836020036101000a0380198251168184511680821785525050505050509050019150506040518091039020600081600019169055506101d1565b6000546040516020018082600019166000191681526020019150506040516020818303038152906040526040518082805190602001908083835b6020831015156101995780518252602082019150602081019050602083039250610174565b6001836020036101000a0380198251168184511680821785525050505050509050019150506040518091039020600081600019169055505b81600054600190048115156101e257fe5b0690509190505600a165627a7a72305820de80d90f2a89a3947ff57507bec2cc40578a154492d9aef6b0a3a1a46030e71c0029",
  "source": "pragma solidity ^0.4.23;\r\n\r\nimport \"./ILotteryEngine.sol\";\r\n\r\ncontract RandomEngine is ILotteryEngine {\r\n    bytes32 baseHash;\r\n    uint256 lastBlockNumber;\r\n\r\n    constructor()\r\n    public {\r\n        lastBlockNumber = block.number;\r\n    }\r\n\r\n    // Current implementation able to return one unique value per block\r\n    function getRandom(uint256 _max)\r\n    public\r\n    returns (uint256 o_result) {\r\n        if (block.number > lastBlockNumber) {\r\n            lastBlockNumber = block.number;\r\n            baseHash = keccak256(abi.encodePacked(uint256(blockhash(block.number)) + uint256(blockhash(block.number - 10))));\r\n        } else {\r\n            baseHash = keccak256(abi.encodePacked(baseHash));\r\n        }\r\n        o_result = uint256(baseHash) % _max;\r\n    }\r\n}\r\n",
  "sourcePath": "G:\\PROJECTS\\Pandora\\pyrrha-consensus\\contracts\\pandora\\lottery\\RandomEngine.sol",
  "compiler": {
    "name": "solc",
    "version": "0.4.24+commit.e67f0147.Emscripten.clang"
  },
  "schemaVersion": "2.0.1",
  "updatedAt": "2018-08-10T16:46:52.176Z"
}