{
  "contractName": "RoundRobinLottery",
  "abi": [
    {
      "inputs": [],
      "payable": false,
      "stateMutability": "nonpayable",
      "type": "constructor"
    },
    {
      "constant": false,
      "inputs": [
        {
          "name": "_max",
          "type": "uint256"
        }
      ],
      "name": "getRandom",
      "outputs": [
        {
          "name": "o_result",
          "type": "uint256"
        }
      ],
      "payable": false,
      "stateMutability": "nonpayable",
      "type": "function"
    }
  ],
  "bytecode": "0x6060604052341561000f57600080fd5b6000808190555060d3806100246000396000f300606060405260043610603f576000357c0100000000000000000000000000000000000000000000000000000000900463ffffffff168063cd4b6914146044575b600080fd5b3415604e57600080fd5b606260048080359060200190919050506078565b6040518082815260200191505060405180910390f35b600081600054101515608c57600080819055505b600054905060008081548092919060010191905055509190505600a165627a7a7230582034df830d406b2ec606b68d9f91a3c0cfde0cf4c55fe89e344b39df8a4e0d645d0029",
  "source": "pragma solidity ^0.4.18;\n\nimport './ILotteryEngine.sol';\n\ncontract RoundRobinLottery is ILotteryEngine {\n\n    uint256 internal m_lastValue;\n\n    function RoundRobinLottery()\n    public {\n        m_lastValue = 0;\n    }\n\n    function getRandom(uint256 _max)\n    public\n    returns (uint256 o_result) {\n        if (m_lastValue >= _max) {\n            m_lastValue = 0;\n        }\n        o_result = m_lastValue;\n        m_lastValue++;\n    }\n}\n",
  "sourcePath": "/home/kostysh/Dropbox/pandora/pyrrha-consensus/contracts/pandora/lottery/RoundRobinLottery.sol",
  "compiler": {
    "name": "solc",
    "version": "0.4.21+commit.dfe3193c.Emscripten.clang"
  },
  "schemaVersion": "2.0.0",
  "updatedAt": "2018-04-07T18:04:43.056Z"
}