{
  "contractName": "StateMachine",
  "abi": [
    {
      "anonymous": false,
      "inputs": [
        {
          "indexed": false,
          "name": "oldState",
          "type": "uint8"
        },
        {
          "indexed": false,
          "name": "newState",
          "type": "uint8"
        }
      ],
      "name": "StateChanged",
      "type": "event"
    },
    {
      "constant": true,
      "inputs": [],
      "name": "currentState",
      "outputs": [
        {
          "name": "",
          "type": "uint8"
        }
      ],
      "payable": false,
      "stateMutability": "view",
      "type": "function"
    },
    {
      "constant": false,
      "inputs": [
        {
          "name": "_newState",
          "type": "uint8"
        }
      ],
      "name": "transitionToState",
      "outputs": [],
      "payable": false,
      "stateMutability": "nonpayable",
      "type": "function"
    }
  ],
  "bytecode": "0x6080604052610198806100136000396000f30060806040526004361061004c576000357c0100000000000000000000000000000000000000000000000000000000900463ffffffff1680630c3f6acf14610051578063acf7807b14610082575b600080fd5b34801561005d57600080fd5b506100666100b2565b604051808260ff1660ff16815260200191505060405180910390f35b34801561008e57600080fd5b506100b0600480360381019080803560ff1690602001909291905050506100cc565b005b6000600160000160019054906101000a900460ff16905090565b6000600160000160019054906101000a900460ff16905081600160000160016101000a81548160ff021916908360ff1602179055507fe8a97ea87e4388fa22d496b95a8ed5ced6717f49790318de2b928aaf37a021d881600160000160019054906101000a900460ff16604051808360ff1660ff1681526020018260ff1660ff1681526020019250505060405180910390a161016661016a565b5050565b5600a165627a7a723058203b4bb6b5672b14085a630c584ea59bd18c944918fb57d5327457578cdb90e1180029",
  "source": "pragma solidity ^0.4.23;\n\nimport \"./IStateMachine.sol\";\nimport \"../lifecycle/OnlyOnce.sol\";\nimport {StateMachineLib as SM} from \"../libraries/StateMachineLib.sol\";\n\ncontract StateMachine is IStateMachine, OnlyOnce {\n\n    // todo exp branch replace statemachine lib with modifiers for each state -- and check for gas\n\n    /**\n     * ## State Machine implementation\n     */\n\n    using SM for SM.StateMachine;\n\n    /// @dev Structure holding the state of the contract\n    SM.StateMachine internal stateMachine;\n\n    event StateChanged(uint8 oldState, uint8 newState);\n\n    modifier requireAllowedTransition(uint8 _newState) {\n        stateMachine.isTransitionAllowed(_newState);\n        _;\n    }\n\n    /// @notice Returns current state of the contract state machine\n    /// @dev Shortcut to receive current state from external contracts\n    function currentState() public view returns (\n        uint8 /// Current state\n    ) {\n        return stateMachine.currentState;\n    }\n\n    /// @dev State transition function\n    function transitionToState(\n        uint8 _newState /// New state to transition into\n    ) public {\n        uint8 oldState = stateMachine.currentState;\n        stateMachine.currentState = _newState;\n        emit StateChanged(oldState, stateMachine.currentState);\n        _fireStateEvent();\n    }\n\n//\n//    /// @dev State transition function from StateMachineLib put into modifier form.\n//    /// **Important:** state transition happens _before_ the main code of the calling function, and _after_ the\n//    /// execution contract is returned to the original state.\n//    modifier transitionThroughState(\n//        uint8 _transitionState /// Intermediary state to transition through\n//    ) {\n//        uint8 initialState = stateMachine.currentState;\n//        stateMachine.transitionThroughState(_transitionState);\n//        emit StateChanged(initialState, stateMachine.currentState);\n//        _fireStateEvent();\n//        _;\n//        stateMachine.currentState = initialState;\n//        emit StateChanged(_transitionState, stateMachine.currentState);\n//        _fireStateEvent();\n//    }\n\n    /// @dev Modifier requiring contract to be present in certain state; otherwise the exception is generated and the\n    /// function does not execute\n    modifier requireState(\n        uint8 _requiredState /// Required state\n    ) {\n        require(stateMachine.currentState == _requiredState);\n        _;\n    }\n\n    /// @dev Modifier requiring contract to be present in one of two certain states; otherwise an exception is\n    /// generated and the function does not execute\n    modifier requireStates2(\n        uint8 _requiredState1, /// Required state, option 1\n        uint8 _requiredState2 /// Required state, option 2\n    ) {\n        stateMachine.requireStates2(_requiredState1, _requiredState2);\n        _;\n    }\n\n    /// @dev Private method initializing state machine. Must be called only once from the contract constructor\n    function _initStateMachine() internal onlyOnce(\"_initStateMachine\") {\n        // Initializing state machine via library code\n        stateMachine.initStateMachine();\n    }\n\n    /// @dev Hook for inherited contracts to fire contract-specific state change events\n    function _fireStateEvent() internal {\n        // Implemented by child contracts\n    }\n}\n",
  "sourcePath": "/home/kostysh/dev/pyrrha-consensus/contracts/libraries/StateMachine.sol",
  "compiler": {
    "name": "solc",
    "version": "0.4.24+commit.e67f0147.Emscripten.clang"
  },
  "schemaVersion": "2.0.1",
  "updatedAt": "2018-07-20T09:53:22.654Z"
}