{
  "contractName": "StateMachine",
  "abi": [
    {
      "anonymous": false,
      "inputs": [
        {
          "indexed": false,
          "name": "oldState",
          "type": "uint8"
        },
        {
          "indexed": false,
          "name": "newState",
          "type": "uint8"
        }
      ],
      "name": "StateChanged",
      "type": "event"
    },
    {
      "constant": true,
      "inputs": [],
      "name": "currentState",
      "outputs": [
        {
          "name": "",
          "type": "uint8"
        }
      ],
      "payable": false,
      "stateMutability": "view",
      "type": "function"
    }
  ],
  "bytecode": "0x608060405260b8806100126000396000f300608060405260043610603f576000357c0100000000000000000000000000000000000000000000000000000000900463ffffffff1680630c3f6acf146044575b600080fd5b348015604f57600080fd5b5060566072565b604051808260ff1660ff16815260200191505060405180910390f35b6000600160000160019054906101000a900460ff169050905600a165627a7a72305820d283f28c8630fe9cbb2c2835d580f9e7a5fc42fa8eab6c694f2fa36a4ecab5580029",
  "source": "pragma solidity ^0.4.23;\n\nimport \"./IStateMachine.sol\";\nimport \"../lifecycle/OnlyOnce.sol\";\nimport {StateMachineLib as SM} from \"../libraries/StateMachineLib.sol\";\n\ncontract StateMachine is IStateMachine, OnlyOnce {\n    /**\n     * ## State Machine implementation\n     */\n\n    using SM for SM.StateMachine;\n\n    /// @dev Structure holding the state of the contract\n    SM.StateMachine internal stateMachine;\n\n    event StateChanged(uint8 oldState, uint8 newState);\n\n    /// @notice Returns current state of the contract state machine\n    /// @dev Shortcut to receive current state from external contracts\n    function currentState() public view returns (\n        uint8 /// Current state\n    ) {\n        return stateMachine.currentState;\n    }\n\n    /// @dev State transition function from StateMachineLib put into modifier form.\n    /// **Important:** state transition happens _after_ the main code of the calling function.\n    modifier transitionToState(\n        uint8 _newState /// New state to transition into\n    ) {\n        uint8 oldState = stateMachine.currentState;\n        stateMachine.transitionToState(_newState);\n        _;\n        stateMachine.currentState = _newState;\n        emit StateChanged(oldState, stateMachine.currentState);\n        _fireStateEvent();\n    }\n\n    /// @dev State transition function from StateMachineLib put into modifier form.\n    /// **Important:** state transition happens _before_ the main code of the calling function, and _after_ the\n    /// execution contract is returned to the original state.\n    modifier transitionThroughState(\n        uint8 _transitionState /// Intermediary state to transition through\n    ) {\n        var initialState = stateMachine.currentState;\n        stateMachine.transitionThroughState(_transitionState);\n        emit StateChanged(initialState, stateMachine.currentState);\n        _fireStateEvent();\n        _;\n        stateMachine.currentState = initialState;\n        emit StateChanged(_transitionState, stateMachine.currentState);\n        _fireStateEvent();\n    }\n\n    /// @dev Modifier requiring contract to be present in certain state; otherwise the exception is generated and the\n    /// function does not execute\n    modifier requireState(\n        uint8 _requiredState /// Required state\n    ) {\n        require(stateMachine.currentState == _requiredState);\n        _;\n    }\n\n    /// @dev Modifier requiring contract to be present in one of two certain states; otherwise an exception is\n    /// generated and the function does not execute\n    modifier requireStates2(\n        uint8 _requiredState1, /// Required state, option 1\n        uint8 _requiredState2 /// Required state, option 2\n    ) {\n        stateMachine.requireStates2(_requiredState1, _requiredState2);\n        _;\n    }\n\n    /// @dev Private method initializing state machine. Must be called only once from the contract constructor\n    function _initStateMachine() internal onlyOnce(\"_initStateMachine\") {\n        // Initializing state machine via library code\n        stateMachine.initStateMachine();\n    }\n\n    /// @dev Hook for inherited contracts to fire contract-specific state change events\n    function _fireStateEvent() internal {\n        // Implemented by child contracts\n    }\n}\n",
  "sourcePath": "/home/kostysh/dev/pyrrha-consensus/contracts/libraries/StateMachine.sol",
  "compiler": {
    "name": "solc",
    "version": "0.4.23+commit.124ca40d.Emscripten.clang"
  },
  "schemaVersion": "2.0.0",
  "updatedAt": "2018-05-21T20:36:00.822Z"
}