{
  "contractName": "StateMachine",
  "abi": [
    {
      "anonymous": false,
      "inputs": [
        {
          "indexed": false,
          "name": "oldState",
          "type": "uint8"
        },
        {
          "indexed": false,
          "name": "newState",
          "type": "uint8"
        }
      ],
      "name": "StateChanged",
      "type": "event"
    },
    {
      "constant": true,
      "inputs": [],
      "name": "currentState",
      "outputs": [
        {
          "name": "",
          "type": "uint8"
        }
      ],
      "payable": false,
      "stateMutability": "view",
      "type": "function"
    },
    {
      "constant": false,
      "inputs": [
        {
          "name": "_newState",
          "type": "uint8"
        }
      ],
      "name": "transitionToState",
      "outputs": [],
      "payable": false,
      "stateMutability": "nonpayable",
      "type": "function"
    }
  ],
  "bytecode": "0x6080604052610198806100136000396000f30060806040526004361061004c576000357c0100000000000000000000000000000000000000000000000000000000900463ffffffff1680630c3f6acf14610051578063acf7807b14610082575b600080fd5b34801561005d57600080fd5b506100666100b2565b604051808260ff1660ff16815260200191505060405180910390f35b34801561008e57600080fd5b506100b0600480360381019080803560ff1690602001909291905050506100cc565b005b6000600160000160019054906101000a900460ff16905090565b6000600160000160019054906101000a900460ff16905081600160000160016101000a81548160ff021916908360ff1602179055507fe8a97ea87e4388fa22d496b95a8ed5ced6717f49790318de2b928aaf37a021d881600160000160019054906101000a900460ff16604051808360ff1660ff1681526020018260ff1660ff1681526020019250505060405180910390a161016661016a565b5050565b5600a165627a7a723058209a349df862d9b8f254596182a004c01536e77cc42cfbe5b75858339d0349a8990029",
  "source": "pragma solidity ^0.4.23;\r\n\r\nimport \"./IStateMachine.sol\";\r\nimport \"../lifecycle/OnlyOnce.sol\";\r\nimport {StateMachineLib as SM} from \"../libraries/StateMachineLib.sol\";\r\n\r\ncontract StateMachine is IStateMachine, OnlyOnce {\r\n\r\n    // todo exp branch replace statemachine lib with modifiers for each state -- and check for gas\r\n\r\n    /**\r\n     * ## State Machine implementation\r\n     */\r\n\r\n    using SM for SM.StateMachine;\r\n\r\n    /// @dev Structure holding the state of the contract\r\n    SM.StateMachine internal stateMachine;\r\n\r\n    event StateChanged(uint8 oldState, uint8 newState);\r\n\r\n    modifier requireAllowedTransition(uint8 _newState) {\r\n        stateMachine.isTransitionAllowed(_newState);\r\n        _;\r\n    }\r\n\r\n    /// @notice Returns current state of the contract state machine\r\n    /// @dev Shortcut to receive current state from external contracts\r\n    function currentState() public view returns (\r\n        uint8 /// Current state\r\n    ) {\r\n        return stateMachine.currentState;\r\n    }\r\n\r\n    /// @dev State transition function\r\n    function transitionToState(\r\n        uint8 _newState /// New state to transition into\r\n    ) public {\r\n        uint8 oldState = stateMachine.currentState;\r\n        stateMachine.currentState = _newState;\r\n        emit StateChanged(oldState, stateMachine.currentState);\r\n        _fireStateEvent();\r\n    }\r\n\r\n//\r\n//    /// @dev State transition function from StateMachineLib put into modifier form.\r\n//    /// **Important:** state transition happens _before_ the main code of the calling function, and _after_ the\r\n//    /// execution contract is returned to the original state.\r\n//    modifier transitionThroughState(\r\n//        uint8 _transitionState /// Intermediary state to transition through\r\n//    ) {\r\n//        uint8 initialState = stateMachine.currentState;\r\n//        stateMachine.transitionThroughState(_transitionState);\r\n//        emit StateChanged(initialState, stateMachine.currentState);\r\n//        _fireStateEvent();\r\n//        _;\r\n//        stateMachine.currentState = initialState;\r\n//        emit StateChanged(_transitionState, stateMachine.currentState);\r\n//        _fireStateEvent();\r\n//    }\r\n\r\n    /// @dev Modifier requiring contract to be present in certain state; otherwise the exception is generated and the\r\n    /// function does not execute\r\n    modifier requireState(\r\n        uint8 _requiredState /// Required state\r\n    ) {\r\n        require(stateMachine.currentState == _requiredState);\r\n        _;\r\n    }\r\n\r\n    /// @dev Modifier requiring contract to be present in one of two certain states; otherwise an exception is\r\n    /// generated and the function does not execute\r\n    modifier requireStates2(\r\n        uint8 _requiredState1, /// Required state, option 1\r\n        uint8 _requiredState2 /// Required state, option 2\r\n    ) {\r\n        stateMachine.requireStates2(_requiredState1, _requiredState2);\r\n        _;\r\n    }\r\n\r\n    /// @dev Private method initializing state machine. Must be called only once from the contract constructor\r\n    function _initStateMachine() internal onlyOnce(\"_initStateMachine\") {\r\n        // Initializing state machine via library code\r\n        stateMachine.initStateMachine();\r\n    }\r\n\r\n    /// @dev Hook for inherited contracts to fire contract-specific state change events\r\n    function _fireStateEvent() internal {\r\n        // Implemented by child contracts\r\n    }\r\n}\r\n",
  "sourcePath": "G:\\PROJECTS\\Pandora\\pyrrha-consensus\\contracts\\libraries\\StateMachine.sol",
  "compiler": {
    "name": "solc",
    "version": "0.4.24+commit.e67f0147.Emscripten.clang"
  },
  "schemaVersion": "2.0.1",
  "updatedAt": "2018-07-23T18:23:08.354Z"
}