{
  "contractName": "WorkerNode",
  "abi": [
    {
      "constant": true,
      "inputs": [],
      "name": "currentState",
      "outputs": [
        {
          "name": "",
          "type": "uint8"
        }
      ],
      "payable": false,
      "stateMutability": "view",
      "type": "function"
    },
    {
      "constant": true,
      "inputs": [],
      "name": "pandora",
      "outputs": [
        {
          "name": "",
          "type": "address"
        }
      ],
      "payable": false,
      "stateMutability": "view",
      "type": "function"
    },
    {
      "constant": true,
      "inputs": [],
      "name": "Uninitialized",
      "outputs": [
        {
          "name": "",
          "type": "uint8"
        }
      ],
      "payable": false,
      "stateMutability": "view",
      "type": "function"
    },
    {
      "constant": true,
      "inputs": [],
      "name": "Computing",
      "outputs": [
        {
          "name": "",
          "type": "uint8"
        }
      ],
      "payable": false,
      "stateMutability": "view",
      "type": "function"
    },
    {
      "constant": true,
      "inputs": [],
      "name": "ReadyForComputing",
      "outputs": [
        {
          "name": "",
          "type": "uint8"
        }
      ],
      "payable": false,
      "stateMutability": "view",
      "type": "function"
    },
    {
      "constant": true,
      "inputs": [],
      "name": "jobProgress",
      "outputs": [
        {
          "name": "",
          "type": "uint256"
        }
      ],
      "payable": false,
      "stateMutability": "view",
      "type": "function"
    },
    {
      "constant": false,
      "inputs": [],
      "name": "renounceOwnership",
      "outputs": [],
      "payable": false,
      "stateMutability": "nonpayable",
      "type": "function"
    },
    {
      "constant": true,
      "inputs": [],
      "name": "ValidatingData",
      "outputs": [
        {
          "name": "",
          "type": "uint8"
        }
      ],
      "payable": false,
      "stateMutability": "view",
      "type": "function"
    },
    {
      "constant": true,
      "inputs": [],
      "name": "Offline",
      "outputs": [
        {
          "name": "",
          "type": "uint8"
        }
      ],
      "payable": false,
      "stateMutability": "view",
      "type": "function"
    },
    {
      "constant": true,
      "inputs": [],
      "name": "owner",
      "outputs": [
        {
          "name": "",
          "type": "address"
        }
      ],
      "payable": false,
      "stateMutability": "view",
      "type": "function"
    },
    {
      "constant": true,
      "inputs": [],
      "name": "activeJob",
      "outputs": [
        {
          "name": "",
          "type": "address"
        }
      ],
      "payable": false,
      "stateMutability": "view",
      "type": "function"
    },
    {
      "constant": true,
      "inputs": [],
      "name": "UnderPenalty",
      "outputs": [
        {
          "name": "",
          "type": "uint8"
        }
      ],
      "payable": false,
      "stateMutability": "view",
      "type": "function"
    },
    {
      "constant": true,
      "inputs": [],
      "name": "Idle",
      "outputs": [
        {
          "name": "",
          "type": "uint8"
        }
      ],
      "payable": false,
      "stateMutability": "view",
      "type": "function"
    },
    {
      "constant": true,
      "inputs": [],
      "name": "ReadyForDataValidation",
      "outputs": [
        {
          "name": "",
          "type": "uint8"
        }
      ],
      "payable": false,
      "stateMutability": "view",
      "type": "function"
    },
    {
      "constant": true,
      "inputs": [],
      "name": "Destroyed",
      "outputs": [
        {
          "name": "",
          "type": "uint8"
        }
      ],
      "payable": false,
      "stateMutability": "view",
      "type": "function"
    },
    {
      "constant": true,
      "inputs": [],
      "name": "InsufficientStake",
      "outputs": [
        {
          "name": "",
          "type": "uint8"
        }
      ],
      "payable": false,
      "stateMutability": "view",
      "type": "function"
    },
    {
      "constant": true,
      "inputs": [],
      "name": "Assigned",
      "outputs": [
        {
          "name": "",
          "type": "uint8"
        }
      ],
      "payable": false,
      "stateMutability": "view",
      "type": "function"
    },
    {
      "constant": false,
      "inputs": [
        {
          "name": "_newOwner",
          "type": "address"
        }
      ],
      "name": "transferOwnership",
      "outputs": [],
      "payable": false,
      "stateMutability": "nonpayable",
      "type": "function"
    },
    {
      "inputs": [
        {
          "name": "_pandora",
          "type": "address"
        }
      ],
      "payable": false,
      "stateMutability": "nonpayable",
      "type": "constructor"
    },
    {
      "anonymous": false,
      "inputs": [],
      "name": "WorkerDestroyed",
      "type": "event"
    },
    {
      "anonymous": false,
      "inputs": [
        {
          "indexed": false,
          "name": "oldState",
          "type": "uint8"
        },
        {
          "indexed": false,
          "name": "newState",
          "type": "uint8"
        }
      ],
      "name": "StateChanged",
      "type": "event"
    },
    {
      "anonymous": false,
      "inputs": [
        {
          "indexed": true,
          "name": "previousOwner",
          "type": "address"
        }
      ],
      "name": "OwnershipRenounced",
      "type": "event"
    },
    {
      "anonymous": false,
      "inputs": [
        {
          "indexed": true,
          "name": "previousOwner",
          "type": "address"
        },
        {
          "indexed": true,
          "name": "newOwner",
          "type": "address"
        }
      ],
      "name": "OwnershipTransferred",
      "type": "event"
    },
    {
      "constant": false,
      "inputs": [],
      "name": "destroy",
      "outputs": [],
      "payable": false,
      "stateMutability": "nonpayable",
      "type": "function"
    },
    {
      "constant": false,
      "inputs": [],
      "name": "alive",
      "outputs": [],
      "payable": false,
      "stateMutability": "nonpayable",
      "type": "function"
    },
    {
      "constant": false,
      "inputs": [
        {
          "name": "_percent",
          "type": "uint8"
        }
      ],
      "name": "reportProgress",
      "outputs": [],
      "payable": false,
      "stateMutability": "nonpayable",
      "type": "function"
    },
    {
      "constant": false,
      "inputs": [
        {
          "name": "_job",
          "type": "address"
        }
      ],
      "name": "assignJob",
      "outputs": [],
      "payable": false,
      "stateMutability": "nonpayable",
      "type": "function"
    },
    {
      "constant": false,
      "inputs": [],
      "name": "cancelJob",
      "outputs": [],
      "payable": false,
      "stateMutability": "nonpayable",
      "type": "function"
    },
    {
      "constant": false,
      "inputs": [],
      "name": "acceptAssignment",
      "outputs": [],
      "payable": false,
      "stateMutability": "nonpayable",
      "type": "function"
    },
    {
      "constant": false,
      "inputs": [],
      "name": "declineAssignment",
      "outputs": [],
      "payable": false,
      "stateMutability": "nonpayable",
      "type": "function"
    },
    {
      "constant": false,
      "inputs": [],
      "name": "processToDataValidation",
      "outputs": [],
      "payable": false,
      "stateMutability": "nonpayable",
      "type": "function"
    },
    {
      "constant": false,
      "inputs": [],
      "name": "acceptValidData",
      "outputs": [],
      "payable": false,
      "stateMutability": "nonpayable",
      "type": "function"
    },
    {
      "constant": false,
      "inputs": [],
      "name": "declineValidData",
      "outputs": [],
      "payable": false,
      "stateMutability": "nonpayable",
      "type": "function"
    },
    {
      "constant": false,
      "inputs": [],
      "name": "reportInvalidData",
      "outputs": [],
      "payable": false,
      "stateMutability": "nonpayable",
      "type": "function"
    },
    {
      "constant": false,
      "inputs": [],
      "name": "processToCognition",
      "outputs": [],
      "payable": false,
      "stateMutability": "nonpayable",
      "type": "function"
    },
    {
      "constant": false,
      "inputs": [
        {
          "name": "_ipfsAddress",
          "type": "bytes"
        }
      ],
      "name": "provideResults",
      "outputs": [],
      "payable": false,
      "stateMutability": "nonpayable",
      "type": "function"
    },
    {
      "constant": false,
      "inputs": [],
      "name": "withdrawBalance",
      "outputs": [],
      "payable": false,
      "stateMutability": "nonpayable",
      "type": "function"
    }
  ],
  "bytecode": "0x60806040523480156200001157600080fd5b50604051602080620030ef83398101806040528101908080519060200190929190505050336000806101000a81548173ffffffffffffffffffffffffffffffffffffffff021916908373ffffffffffffffffffffffffffffffffffffffff160217905550600073ffffffffffffffffffffffffffffffffffffffff168173ffffffffffffffffffffffffffffffffffffffff1614151515620000b257600080fd5b80600660006101000a81548173ffffffffffffffffffffffffffffffffffffffff021916908373ffffffffffffffffffffffffffffffffffffffff1602179055506000600760006101000a81548173ffffffffffffffffffffffffffffffffffffffff021916908373ffffffffffffffffffffffffffffffffffffffff1602179055506200014e62000155640100000000026401000000009004565b5062000950565b600060046001019050606060405190810160405280600260ff1660ff168152602001600160ff1660ff168152602001600860ff1660ff168152508160008060ff1660ff168152602001908152602001600020906003620001b792919062000713565b50602060405190810160405280600260ff1660ff16815250816000600160ff1660ff168152602001908152602001600020906001620001f8929190620007c1565b50608060405190810160405280600160ff1660ff168152602001600960ff1660ff168152602001600360ff1660ff16815260200160ff801660ff16815250816000600260ff1660ff1681526020019081526020016000209060046200025f9291906200086f565b50606060405190810160405280600160ff1660ff168152602001600960ff1660ff168152602001600460ff1660ff16815250816000600360ff1660ff168152602001908152602001600020906003620002ba92919062000713565b50608060405190810160405280600560ff1660ff168152602001600160ff1660ff168152602001600960ff1660ff168152602001600260ff1660ff16815250816000600460ff1660ff168152602001908152602001600020906004620003229291906200086f565b50606060405190810160405280600160ff1660ff168152602001600860ff1660ff168152602001600260ff1660ff16815250816000600960ff1660ff1681526020019081526020016000209060036200037d92919062000713565b50608060405190810160405280600160ff1660ff168152602001600260ff1660ff168152602001600960ff1660ff168152602001600660ff1660ff16815250816000600560ff1660ff168152602001908152602001600020906004620003e59291906200086f565b50608060405190810160405280600760ff1660ff168152602001600160ff1660ff168152602001600960ff1660ff168152602001600260ff1660ff16815250816000600660ff1660ff1681526020019081526020016000209060046200044d9291906200086f565b50606060405190810160405280600160ff1660ff168152602001600960ff1660ff168152602001600260ff1660ff16815250816000600760ff1660ff168152602001908152602001600020906003620004a892919062000713565b50606060405190810160405280600160ff1660ff168152602001600260ff1660ff16815260200160ff801660ff16815250816000600860ff1660ff1681526020019081526020016000209060036200050292919062000713565b50620005216200054364010000000002620025af176401000000009004565b6001600460000160016101000a81548160ff021916908360ff16021790555050565b6040805190810160405280601181526020017f5f696e697453746174654d616368696e65000000000000000000000000000000815250600015156003826040518082805190602001908083835b602083101515620005b7578051825260208201915060208101905060208303925062000590565b6001836020036101000a038019825116818451168082178552505050505050905001915050908152602001604051809103902060009054906101000a900460ff1615151415156200060757600080fd5b620006276004620006b06401000000000262002701176401000000009004565b60016003826040518082805190602001908083835b6020831015156200066357805182526020820191506020810190506020830392506200063c565b6001836020036101000a038019825116818451168082178552505050505050905001915050908152602001604051809103902060006101000a81548160ff02191690831515021790555050565b600015158160000160009054906101000a900460ff161515141515620006d557600080fd5b60018160000160016101000a81548160ff021916908360ff16021790555060018160000160006101000a81548160ff02191690831515021790555050565b82805482825590600052602060002090601f01602090048101928215620007ae5791602002820160005b838211156200077d57835183826101000a81548160ff021916908360ff16021790555092602001926001016020816000010492830192600103026200073d565b8015620007ac5782816101000a81549060ff02191690556001016020816000010492830192600103026200077d565b505b509050620007bd91906200091d565b5090565b82805482825590600052602060002090601f016020900481019282156200085c5791602002820160005b838211156200082b57835183826101000a81548160ff021916908360ff1602179055509260200192600101602081600001049283019260010302620007eb565b80156200085a5782816101000a81549060ff02191690556001016020816000010492830192600103026200082b565b505b5090506200086b91906200091d565b5090565b82805482825590600052602060002090601f016020900481019282156200090a5791602002820160005b83821115620008d957835183826101000a81548160ff021916908360ff160217905550926020019260010160208160000104928301926001030262000899565b8015620009085782816101000a81549060ff0219169055600101602081600001049283019260010302620008d9565b505b5090506200091991906200091d565b5090565b6200094d91905b808211156200094957600081816101000a81549060ff02191690555060010162000924565b5090565b90565b61278f80620009606000396000f300608060405260043610610196576000357c0100000000000000000000000000000000000000000000000000000000900463ffffffff16806306401ff41461019b5780630c3f6acf146101b25780631a0bc596146101e35780631a6b2eb11461023a5780631c72fad4146102515780631d53dbed146102825780633b976974146102b357806347850cce146102e4578063481deb4e146102fb5780634a60442c146103365780635e903db0146103615780635fd8c71014610378578063715018a61461038f57806374de5bde146103a6578063753899e9146103d757806377c6cc38146103ee578063822bb4d11461040557806383197ef014610436578063897399ae1461044d5780638da5cb5b146104905780638daeaa40146104e75780638dd172a21461053e578063ae897c551461056f578063b07c7475146105a0578063bb94d792146105b7578063c162bef5146105e7578063c80ce25d146105fe578063cc0e82c11461062f578063df12e6c314610660578063f1bc94d214610677578063f2361410146106a8578063f2fde38b146106d9575b600080fd5b3480156101a757600080fd5b506101b061071c565b005b3480156101be57600080fd5b506101c7610854565b604051808260ff1660ff16815260200191505060405180910390f35b3480156101ef57600080fd5b506101f861086e565b604051808273ffffffffffffffffffffffffffffffffffffffff1673ffffffffffffffffffffffffffffffffffffffff16815260200191505060405180910390f35b34801561024657600080fd5b5061024f610894565b005b34801561025d57600080fd5b50610266610ae2565b604051808260ff1660ff16815260200191505060405180910390f35b34801561028e57600080fd5b50610297610ae7565b604051808260ff1660ff16815260200191505060405180910390f35b3480156102bf57600080fd5b506102c8610aec565b604051808260ff1660ff16815260200191505060405180910390f35b3480156102f057600080fd5b506102f9610af1565b005b34801561030757600080fd5b50610334600480360381019080803590602001908201803590602001919091929391929390505050610d3f565b005b34801561034257600080fd5b5061034b610f9a565b6040518082815260200191505060405180910390f35b34801561036d57600080fd5b50610376610fa0565b005b34801561038457600080fd5b5061038d6111ee565b005b34801561039b57600080fd5b506103a46112e6565b005b3480156103b257600080fd5b506103bb6113e8565b604051808260ff1660ff16815260200191505060405180910390f35b3480156103e357600080fd5b506103ec6113ed565b005b3480156103fa57600080fd5b50610403611525565b005b34801561041157600080fd5b5061041a61165d565b604051808260ff1660ff16815260200191505060405180910390f35b34801561044257600080fd5b5061044b611662565b005b34801561045957600080fd5b5061048e600480360381019080803573ffffffffffffffffffffffffffffffffffffffff169060200190929190505050611782565b005b34801561049c57600080fd5b506104a5611b09565b604051808273ffffffffffffffffffffffffffffffffffffffff1673ffffffffffffffffffffffffffffffffffffffff16815260200191505060405180910390f35b3480156104f357600080fd5b506104fc611b2e565b604051808273ffffffffffffffffffffffffffffffffffffffff1673ffffffffffffffffffffffffffffffffffffffff16815260200191505060405180910390f35b34801561054a57600080fd5b50610553611b54565b604051808260ff1660ff16815260200191505060405180910390f35b34801561057b57600080fd5b50610584611b59565b604051808260ff1660ff16815260200191505060405180910390f35b3480156105ac57600080fd5b506105b5611b5e565b005b3480156105c357600080fd5b506105e5600480360381019080803560ff169060200190929190505050611d63565b005b3480156105f357600080fd5b506105fc611e7a565b005b34801561060a57600080fd5b506106136120be565b604051808260ff1660ff16815260200191505060405180910390f35b34801561063b57600080fd5b506106446120c3565b604051808260ff1660ff16815260200191505060405180910390f35b34801561066c57600080fd5b506106756120c8565b005b34801561068357600080fd5b5061068c61230c565b604051808260ff1660ff16815260200191505060405180910390f35b3480156106b457600080fd5b506106bd612311565b604051808260ff1660ff16815260200191505060405180910390f35b3480156106e557600080fd5b5061071a600480360381019080803573ffffffffffffffffffffffffffffffffffffffff169060200190929190505050612316565b005b6000809054906101000a900473ffffffffffffffffffffffffffffffffffffffff1673ffffffffffffffffffffffffffffffffffffffff163373ffffffffffffffffffffffffffffffffffffffff1614151561077757600080fd5b60068060ff16600460000160019054906101000a900460ff1660ff1614151561079f57600080fd5b60076000600460000160019054906101000a900460ff1690506107cc82600461237d90919063ffffffff16565b81600460000160016101000a81548160ff021916908360ff1602179055507fe8a97ea87e4388fa22d496b95a8ed5ced6717f49790318de2b928aaf37a021d881600460000160019054906101000a900460ff16604051808360ff1660ff1681526020018260ff1660ff1681526020019250505060405180910390a161084f61244d565b505050565b6000600460000160019054906101000a900460ff16905090565b600660009054906101000a900473ffffffffffffffffffffffffffffffffffffffff1681565b6000809054906101000a900473ffffffffffffffffffffffffffffffffffffffff1673ffffffffffffffffffffffffffffffffffffffff163373ffffffffffffffffffffffffffffffffffffffff161415156108ef57600080fd5b60058060ff16600460000160019054906101000a900460ff1660ff1614151561091757600080fd5b60026000600460000160019054906101000a900460ff16905061094482600461237d90919063ffffffff16565b600073ffffffffffffffffffffffffffffffffffffffff16600760009054906101000a900473ffffffffffffffffffffffffffffffffffffffff1673ffffffffffffffffffffffffffffffffffffffff16141515156109a257600080fd5b600760009054906101000a900473ffffffffffffffffffffffffffffffffffffffff1673ffffffffffffffffffffffffffffffffffffffff1663b225be4260016040518263ffffffff167c010000000000000000000000000000000000000000000000000000000002815260040180826002811115610a1d57fe5b60ff168152602001915050600060405180830381600087803b158015610a4257600080fd5b505af1158015610a56573d6000803e3d6000fd5b5050505081600460000160016101000a81548160ff021916908360ff1602179055507fe8a97ea87e4388fa22d496b95a8ed5ced6717f49790318de2b928aaf37a021d881600460000160019054906101000a900460ff16604051808360ff1660ff1681526020018260ff1660ff1681526020019250505060405180910390a1610add61244d565b505050565b600081565b600781565b600681565b6000809054906101000a900473ffffffffffffffffffffffffffffffffffffffff1673ffffffffffffffffffffffffffffffffffffffff163373ffffffffffffffffffffffffffffffffffffffff16141515610b4c57600080fd5b60058060ff16600460000160019054906101000a900460ff1660ff16141515610b7457600080fd5b60026000600460000160019054906101000a900460ff169050610ba182600461237d90919063ffffffff16565b600073ffffffffffffffffffffffffffffffffffffffff16600760009054906101000a900473ffffffffffffffffffffffffffffffffffffffff1673ffffffffffffffffffffffffffffffffffffffff1614151515610bff57600080fd5b600760009054906101000a900473ffffffffffffffffffffffffffffffffffffffff1673ffffffffffffffffffffffffffffffffffffffff1663b225be4260026040518263ffffffff167c010000000000000000000000000000000000000000000000000000000002815260040180826002811115610c7a57fe5b60ff168152602001915050600060405180830381600087803b158015610c9f57600080fd5b505af1158015610cb3573d6000803e3d6000fd5b5050505081600460000160016101000a81548160ff021916908360ff1602179055507fe8a97ea87e4388fa22d496b95a8ed5ced6717f49790318de2b928aaf37a021d881600460000160019054906101000a900460ff16604051808360ff1660ff1681526020018260ff1660ff1681526020019250505060405180910390a1610d3a61244d565b505050565b6000809054906101000a900473ffffffffffffffffffffffffffffffffffffffff1673ffffffffffffffffffffffffffffffffffffffff163373ffffffffffffffffffffffffffffffffffffffff16141515610d9a57600080fd5b60078060ff16600460000160019054906101000a900460ff1660ff16141515610dc257600080fd5b60026000600460000160019054906101000a900460ff169050610def82600461237d90919063ffffffff16565b600073ffffffffffffffffffffffffffffffffffffffff16600760009054906101000a900473ffffffffffffffffffffffffffffffffffffffff1673ffffffffffffffffffffffffffffffffffffffff1614151515610e4d57600080fd5b600760009054906101000a900473ffffffffffffffffffffffffffffffffffffffff1673ffffffffffffffffffffffffffffffffffffffff16634e6b42a886866040518363ffffffff167c01000000000000000000000000000000000000000000000000000000000281526004018080602001828103825284848281815260200192508082843782019150509350505050600060405180830381600087803b158015610ef857600080fd5b505af1158015610f0c573d6000803e3d6000fd5b5050505081600460000160016101000a81548160ff021916908360ff1602179055507fe8a97ea87e4388fa22d496b95a8ed5ced6717f49790318de2b928aaf37a021d881600460000160019054906101000a900460ff16604051808360ff1660ff1681526020018260ff1660ff1681526020019250505060405180910390a1610f9361244d565b5050505050565b60085481565b6000809054906101000a900473ffffffffffffffffffffffffffffffffffffffff1673ffffffffffffffffffffffffffffffffffffffff163373ffffffffffffffffffffffffffffffffffffffff16141515610ffb57600080fd5b60058060ff16600460000160019054906101000a900460ff1660ff1614151561102357600080fd5b60066000600460000160019054906101000a900460ff16905061105082600461237d90919063ffffffff16565b600073ffffffffffffffffffffffffffffffffffffffff16600760009054906101000a900473ffffffffffffffffffffffffffffffffffffffff1673ffffffffffffffffffffffffffffffffffffffff16141515156110ae57600080fd5b600760009054906101000a900473ffffffffffffffffffffffffffffffffffffffff1673ffffffffffffffffffffffffffffffffffffffff1663b225be4260006040518263ffffffff167c01000000000000000000000000000000000000000000000000000000000281526004018082600281111561112957fe5b60ff168152602001915050600060405180830381600087803b15801561114e57600080fd5b505af1158015611162573d6000803e3d6000fd5b5050505081600460000160016101000a81548160ff021916908360ff1602179055507fe8a97ea87e4388fa22d496b95a8ed5ced6717f49790318de2b928aaf37a021d881600460000160019054906101000a900460ff16604051808360ff1660ff1681526020018260ff1660ff1681526020019250505060405180910390a16111e961244d565b505050565b6000809054906101000a900473ffffffffffffffffffffffffffffffffffffffff1673ffffffffffffffffffffffffffffffffffffffff163373ffffffffffffffffffffffffffffffffffffffff1614151561124957600080fd5b600260016112638282600461244f9092919063ffffffff16565b6000809054906101000a900473ffffffffffffffffffffffffffffffffffffffff1673ffffffffffffffffffffffffffffffffffffffff166108fc3073ffffffffffffffffffffffffffffffffffffffff16319081150290604051600060405180830381858888f193505050501580156112e1573d6000803e3d6000fd5b505050565b6000809054906101000a900473ffffffffffffffffffffffffffffffffffffffff1673ffffffffffffffffffffffffffffffffffffffff163373ffffffffffffffffffffffffffffffffffffffff1614151561134157600080fd5b6000809054906101000a900473ffffffffffffffffffffffffffffffffffffffff1673ffffffffffffffffffffffffffffffffffffffff167ff8df31144d9c2f0f6b59d69b8b98abd5459d07f2742c4df920b25aae33c6482060405160405180910390a260008060006101000a81548173ffffffffffffffffffffffffffffffffffffffff021916908373ffffffffffffffffffffffffffffffffffffffff160217905550565b600581565b6000809054906101000a900473ffffffffffffffffffffffffffffffffffffffff1673ffffffffffffffffffffffffffffffffffffffff163373ffffffffffffffffffffffffffffffffffffffff1614151561144857600080fd5b60018060ff16600460000160019054906101000a900460ff1660ff1614151561147057600080fd5b60026000600460000160019054906101000a900460ff16905061149d82600461237d90919063ffffffff16565b81600460000160016101000a81548160ff021916908360ff1602179055507fe8a97ea87e4388fa22d496b95a8ed5ced6717f49790318de2b928aaf37a021d881600460000160019054906101000a900460ff16604051808360ff1660ff1681526020018260ff1660ff1681526020019250505060405180910390a161152061244d565b505050565b6000809054906101000a900473ffffffffffffffffffffffffffffffffffffffff1673ffffffffffffffffffffffffffffffffffffffff163373ffffffffffffffffffffffffffffffffffffffff1614151561158057600080fd5b60048060ff16600460000160019054906101000a900460ff1660ff161415156115a857600080fd5b60056000600460000160019054906101000a900460ff1690506115d582600461237d90919063ffffffff16565b81600460000160016101000a81548160ff021916908360ff1602179055507fe8a97ea87e4388fa22d496b95a8ed5ced6717f49790318de2b928aaf37a021d881600460000160019054906101000a900460ff16604051808360ff1660ff1681526020018260ff1660ff1681526020019250505060405180910390a161165861244d565b505050565b600181565b600073ffffffffffffffffffffffffffffffffffffffff16600660009054906101000a900473ffffffffffffffffffffffffffffffffffffffff1673ffffffffffffffffffffffffffffffffffffffff16141515156116c057600080fd5b600660009054906101000a900473ffffffffffffffffffffffffffffffffffffffff1673ffffffffffffffffffffffffffffffffffffffff163373ffffffffffffffffffffffffffffffffffffffff1614151561171c57600080fd5b7f4447806c1856b9de7671994ea8dbdc03abd565d1b8c00ffc5fa053c49bd40ecc60405160405180910390a16000809054906101000a900473ffffffffffffffffffffffffffffffffffffffff1673ffffffffffffffffffffffffffffffffffffffff16ff5b60008073ffffffffffffffffffffffffffffffffffffffff16600660009054906101000a900473ffffffffffffffffffffffffffffffffffffffff1673ffffffffffffffffffffffffffffffffffffffff16141515156117e157600080fd5b3390508073ffffffffffffffffffffffffffffffffffffffff16631a0bc5966040518163ffffffff167c0100000000000000000000000000000000000000000000000000000000028152600401602060405180830381600087803b15801561184857600080fd5b505af115801561185c573d6000803e3d6000fd5b505050506040513d602081101561187257600080fd5b810190808051906020019092919050505073ffffffffffffffffffffffffffffffffffffffff16600660009054906101000a900473ffffffffffffffffffffffffffffffffffffffff1673ffffffffffffffffffffffffffffffffffffffff161415156118de57600080fd5b600660009054906101000a900473ffffffffffffffffffffffffffffffffffffffff1673ffffffffffffffffffffffffffffffffffffffff16630ba58574826040518263ffffffff167c0100000000000000000000000000000000000000000000000000000000028152600401808273ffffffffffffffffffffffffffffffffffffffff1673ffffffffffffffffffffffffffffffffffffffff168152602001915050602060405180830381600087803b15801561199b57600080fd5b505af11580156119af573d6000803e3d6000fd5b505050506040513d60208110156119c557600080fd5b810190808051906020019092919050505015156119e157600080fd5b60028060ff16600460000160019054906101000a900460ff1660ff16141515611a0957600080fd5b60036000600460000160019054906101000a900460ff169050611a3682600461237d90919063ffffffff16565b84600760006101000a81548173ffffffffffffffffffffffffffffffffffffffff021916908373ffffffffffffffffffffffffffffffffffffffff160217905550600060088190555081600460000160016101000a81548160ff021916908360ff1602179055507fe8a97ea87e4388fa22d496b95a8ed5ced6717f49790318de2b928aaf37a021d881600460000160019054906101000a900460ff16604051808360ff1660ff1681526020018260ff1660ff1681526020019250505060405180910390a1611b0261244d565b5050505050565b6000809054906101000a900473ffffffffffffffffffffffffffffffffffffffff1681565b600760009054906101000a900473ffffffffffffffffffffffffffffffffffffffff1681565b600981565b600281565b600760009054906101000a900473ffffffffffffffffffffffffffffffffffffffff1673ffffffffffffffffffffffffffffffffffffffff163373ffffffffffffffffffffffffffffffffffffffff16141515611bba57600080fd5b600360ff16600460000160019054906101000a900460ff1660ff161480611bf95750600460ff16600460000160019054906101000a900460ff1660ff16145b80611c1c5750600560ff16600460000160019054906101000a900460ff1660ff16145b80611c3f5750600660ff16600460000160019054906101000a900460ff1660ff16145b80611c625750600760ff16600460000160019054906101000a900460ff1660ff16145b1515611c6d57600080fd5b60026000600460000160019054906101000a900460ff169050611c9a82600461237d90919063ffffffff16565b6000600760006101000a81548173ffffffffffffffffffffffffffffffffffffffff021916908373ffffffffffffffffffffffffffffffffffffffff16021790555081600460000160016101000a81548160ff021916908360ff1602179055507fe8a97ea87e4388fa22d496b95a8ed5ced6717f49790318de2b928aaf37a021d881600460000160019054906101000a900460ff16604051808360ff1660ff1681526020018260ff1660ff1681526020019250505060405180910390a1611d5f61244d565b5050565b6000809054906101000a900473ffffffffffffffffffffffffffffffffffffffff1673ffffffffffffffffffffffffffffffffffffffff163373ffffffffffffffffffffffffffffffffffffffff16141515611dbe57600080fd5b8060ff16600881905550600760009054906101000a900473ffffffffffffffffffffffffffffffffffffffff1673ffffffffffffffffffffffffffffffffffffffff16636936087d826040518263ffffffff167c0100000000000000000000000000000000000000000000000000000000028152600401808260ff1660ff168152602001915050600060405180830381600087803b158015611e5f57600080fd5b505af1158015611e73573d6000803e3d6000fd5b5050505050565b6000809054906101000a900473ffffffffffffffffffffffffffffffffffffffff1673ffffffffffffffffffffffffffffffffffffffff163373ffffffffffffffffffffffffffffffffffffffff16141515611ed557600080fd5b60038060ff16600460000160019054906101000a900460ff1660ff16141515611efd57600080fd5b60026000600460000160019054906101000a900460ff169050611f2a82600461237d90919063ffffffff16565b600073ffffffffffffffffffffffffffffffffffffffff16600760009054906101000a900473ffffffffffffffffffffffffffffffffffffffff1673ffffffffffffffffffffffffffffffffffffffff1614151515611f8857600080fd5b600760009054906101000a900473ffffffffffffffffffffffffffffffffffffffff1673ffffffffffffffffffffffffffffffffffffffff166364d3414c60006040518263ffffffff167c01000000000000000000000000000000000000000000000000000000000281526004018082151515158152602001915050600060405180830381600087803b15801561201e57600080fd5b505af1158015612032573d6000803e3d6000fd5b5050505081600460000160016101000a81548160ff021916908360ff1602179055507fe8a97ea87e4388fa22d496b95a8ed5ced6717f49790318de2b928aaf37a021d881600460000160019054906101000a900460ff16604051808360ff1660ff1681526020018260ff1660ff1681526020019250505060405180910390a16120b961244d565b505050565b600481565b60ff81565b6000809054906101000a900473ffffffffffffffffffffffffffffffffffffffff1673ffffffffffffffffffffffffffffffffffffffff163373ffffffffffffffffffffffffffffffffffffffff1614151561212357600080fd5b60038060ff16600460000160019054906101000a900460ff1660ff1614151561214b57600080fd5b60046000600460000160019054906101000a900460ff16905061217882600461237d90919063ffffffff16565b600073ffffffffffffffffffffffffffffffffffffffff16600760009054906101000a900473ffffffffffffffffffffffffffffffffffffffff1673ffffffffffffffffffffffffffffffffffffffff16141515156121d657600080fd5b600760009054906101000a900473ffffffffffffffffffffffffffffffffffffffff1673ffffffffffffffffffffffffffffffffffffffff166364d3414c60016040518263ffffffff167c01000000000000000000000000000000000000000000000000000000000281526004018082151515158152602001915050600060405180830381600087803b15801561226c57600080fd5b505af1158015612280573d6000803e3d6000fd5b5050505081600460000160016101000a81548160ff021916908360ff1602179055507fe8a97ea87e4388fa22d496b95a8ed5ced6717f49790318de2b928aaf37a021d881600460000160019054906101000a900460ff16604051808360ff1660ff1681526020018260ff1660ff1681526020019250505060405180910390a161230761244d565b505050565b600881565b600381565b6000809054906101000a900473ffffffffffffffffffffffffffffffffffffffff1673ffffffffffffffffffffffffffffffffffffffff163373ffffffffffffffffffffffffffffffffffffffff1614151561237157600080fd5b61237a816124b5565b50565b600080600060ff8560000160019054906101000a900460ff1660ff16141515156123a357fe5b600092508460010160008660000160019054906101000a900460ff1660ff1660ff1681526020019081526020016000209150600090505b8180549050811015612433578360ff1682828154811015156123f857fe5b90600052602060002090602091828204019190069054906101000a900460ff1660ff16141561242657600192505b80806001019150506123da565b6001151583151514151561244657600080fd5b5050505050565b565b60008090508360000160019054906101000a900460ff1660ff168360ff16141561247857600190505b8360000160019054906101000a900460ff1660ff168260ff16141561249c57600190505b600115158115151415156124af57600080fd5b50505050565b600073ffffffffffffffffffffffffffffffffffffffff168173ffffffffffffffffffffffffffffffffffffffff16141515156124f157600080fd5b8073ffffffffffffffffffffffffffffffffffffffff166000809054906101000a900473ffffffffffffffffffffffffffffffffffffffff1673ffffffffffffffffffffffffffffffffffffffff167f8be0079c531659141344cd1fd0a4f28419497f9722a3daafe3b4186f6b6457e060405160405180910390a3806000806101000a81548173ffffffffffffffffffffffffffffffffffffffff021916908373ffffffffffffffffffffffffffffffffffffffff16021790555050565b6040805190810160405280601181526020017f5f696e697453746174654d616368696e65000000000000000000000000000000815250600015156003826040518082805190602001908083835b60208310151561262157805182526020820191506020810190506020830392506125fc565b6001836020036101000a038019825116818451168082178552505050505050905001915050908152602001604051809103902060009054906101000a900460ff16151514151561267057600080fd5b61267a6004612701565b60016003826040518082805190602001908083835b6020831015156126b4578051825260208201915060208101905060208303925061268f565b6001836020036101000a038019825116818451168082178552505050505050905001915050908152602001604051809103902060006101000a81548160ff02191690831515021790555050565b600015158160000160009054906101000a900460ff16151514151561272557600080fd5b60018160000160016101000a81548160ff021916908360ff16021790555060018160000160006101000a81548160ff021916908315150217905550505600a165627a7a723058206622be27a28d7ad70561eaaaf23d424d94b99efa05b7f7726bd094fe891f03670029",
  "source": "pragma solidity ^0.4.23;\n\nimport \"../libraries/StateMachine.sol\";\nimport \"../pandora/IPandora.sol\";\nimport \"../jobs/IComputingJob.sol\";\nimport \"./IWorkerNode.sol\";\n\n/**\n * @title Worker Node Smart Contract\n * @author \"Dr Maxim Orlovsky\" <orlovsky@pandora.foundation>\n *\n * @dev # Worker Node Smart Contract\n *\n * Worker node contract accumulates funds/payments for performed cognitive work and contains inalienable reputation.\n * Note: In Pyrrha there is no mining. In the following versions all mined coins will be also assigned to the\n * `WorkerNode` contract\n *\n * Worker node acts as a state machine and each its function can be evoked only in some certain states. That\"s\n * why each function must have state machine-controlled function modifiers. Contract state is managed by\n * - Worker node code (second level of consensus)\n * - Main Pandora contract [Pandora.sol]\n * - Worker node contract itself\n */\n\ncontract WorkerNode is IWorkerNode, StateMachine /* final */ {\n    /**\n     * ## State Machine extensions\n     */\n\n    /// @dev Modifier requiring contract to be preset in one of the active states (`Assigned`, `ReadyForDataValidation`,\n    /// `ValidatingData`, `ReadyForComputing`, `Computing`); otherwise an exception is generated and the function\n    /// does not execute\n    modifier requireActiveStates() {\n        require(\n            stateMachine.currentState == Assigned ||\n            stateMachine.currentState == ReadyForDataValidation ||\n            stateMachine.currentState == ValidatingData ||\n            stateMachine.currentState == ReadyForComputing ||\n            stateMachine.currentState == Computing);\n        _;\n    }\n\n    /// @dev Private method initializing state machine. Must be called only once from the contract constructor\n    function _initStateMachine() internal {\n        // Creating table of possible state transitions\n        mapping(uint8 => uint8[]) transitions = stateMachine.transitionTable;\n        transitions[Uninitialized] = [Idle, Offline, InsufficientStake];\n        transitions[Offline] = [Idle];\n        transitions[Idle] = [Offline, UnderPenalty, Assigned, Destroyed];\n        transitions[Assigned] = [Offline, UnderPenalty, ReadyForDataValidation];\n        transitions[ReadyForDataValidation] = [ValidatingData, Offline, UnderPenalty, Idle];\n        transitions[UnderPenalty] = [Offline, InsufficientStake, Idle];\n        transitions[ValidatingData] = [Offline, Idle, UnderPenalty, ReadyForComputing];\n        transitions[ReadyForComputing] = [Computing, Offline, UnderPenalty, Idle];\n        transitions[Computing] = [Offline, UnderPenalty, Idle];\n        transitions[InsufficientStake] = [Offline, Idle, Destroyed];\n\n        // Initializing state machine via base contract code\n        super._initStateMachine();\n\n        // Going into initial state (Offline)\n        stateMachine.currentState = Offline;\n    }\n\n    /**\n     * ## Main implementation\n     */\n\n    /// ### Public variables\n\n\n    /// @notice Reference to the main Pandora contract.\n    /// @dev Required to check the validity of the method calls coming from the Pandora contract.\n    /// Initialy set from the address supplied to the constructor and can\"t be changed after.\n    IPandora public pandora;\n\n    /// @notice Active cognitive job reference. Zero when there is no active cognitive job assigned or performed\n    /// @dev Valid (non-zero) only for active states (see `activeStates` modified for the list of such states)\n    IComputingJob public activeJob;\n\n\t/// @notice Progress of completing current active job batch, should be updated by node itself\n\tuint256 public jobProgress;\n\n    event WorkerDestroyed();\n\n    /// ### Constructor and destructor\n\n    constructor(\n        IPandora _pandora /// Reference to the main Pandora contract that creates Worker Node\n    )\n    public {\n        require(_pandora != address(0));\n        pandora = _pandora;\n\n        // There should be no active cognitive job upon contract creation\n        activeJob = IComputingJob(0);\n\n        // Initialize state machine (state transition table and initial state). Always must be performed at the very\n        // end of contract constructor code.\n        _initStateMachine();\n    }\n\n    /// ### Function modifiers\n\n    /// @dev Modifier for functions that can be called only by the main Pandora contract\n    modifier onlyPandora() {\n        require(pandora != address(0));\n        require(msg.sender == address(pandora));\n        _;\n    }\n\n    /// @dev Modifier for functions that can be called only by one of the active cognitive jobs performed under\n    /// main Pandora contract. It includes jobs _not_ assigned to the worker node\n    modifier onlyCognitiveJob() {\n        require(pandora != address(0));\n        IComputingJob sender = IComputingJob(msg.sender);\n        require(pandora == sender.pandora());\n        require(pandora.isActiveJob(sender));\n        _;\n    }\n\n    /// @dev Modifier for functions that can be called only by the cognitive job assigned or performed by the worker\n    /// node in one of its active states\n    modifier onlyActiveCognitiveJob() {\n        require(msg.sender == address(activeJob));\n        _;\n    }\n\n    /// ### External and public functions\n\n    function destroy()\n        external\n        onlyPandora\n    {\n        /// Call event before doing the actual contract suicide\n        emit WorkerDestroyed();\n\n        /// Suiciding\n        selfdestruct(owner);\n    }\n\n    function alive() external\n        onlyOwner\n        requireState(Offline)\n        transitionToState(Idle)\n    {\n        // Nothing to do here\n    }\n\n\tfunction reportProgress(uint8 _percent) external\n\t\tonlyOwner\n\t{\n\t\tjobProgress = _percent;\n\t\tactiveJob.commitProgress(_percent);\n\t}\n\n    /// @notice Do not call\n    /// @dev Assigns cognitive job to the worker. Can be called only by one of active cognitive jobs listed under\n    /// the main Pandora contract\n    function assignJob(\n        /// @dev Cognitive job to be assigned\n        IComputingJob _job\n    ) external // Can\"t be called internally\n        /// @dev Must be called only by one of active cognitive jobs listed under the main Pandora contract\n        onlyCognitiveJob\n        /// @dev Job can be assigned only to Idle workers\n        requireState(Idle)\n        /// @dev Successful completion must transition worker to an `Assigned` stage\n        transitionToState(Assigned)\n    {\n        activeJob = _job;\n\t    jobProgress = 0;\n    }\n\n    function cancelJob() external\n        onlyActiveCognitiveJob\n        requireActiveStates\n        transitionToState(Idle)\n    {\n        activeJob = IComputingJob(0);\n    }\n\n    function acceptAssignment() external\n        onlyOwner\n        requireState(Assigned)\n        transitionToState(ReadyForDataValidation)\n    {\n        require(activeJob != IComputingJob(0));\n        activeJob.gatheringWorkersResponse(true);\n    }\n\n    function declineAssignment() external\n        onlyOwner\n        requireState(Assigned)\n        transitionToState(Idle)\n    {\n        require(activeJob != IComputingJob(0));\n        activeJob.gatheringWorkersResponse(false);\n    }\n\n    function processToDataValidation() external\n        onlyOwner\n        requireState(ReadyForDataValidation)\n        transitionToState(ValidatingData)\n    {\n        // All actual work is done by function modifiers\n    }\n\n    function acceptValidData() external\n        onlyOwner\n        requireState(ValidatingData)\n        transitionToState(ReadyForComputing)\n    {\n        require(activeJob != IComputingJob(0));\n        activeJob.dataValidationResponse(IComputingJob.DataValidationResponse.Accept);\n    }\n\n    function declineValidData() external\n        onlyOwner\n        requireState(ValidatingData)\n        transitionToState(Idle)\n    {\n        require(activeJob != IComputingJob(0));\n        activeJob.dataValidationResponse(IComputingJob.DataValidationResponse.Decline);\n    }\n\n    function reportInvalidData() external\n        onlyOwner\n        requireState(ValidatingData)\n        transitionToState(Idle)\n    {\n        require(activeJob != IComputingJob(0));\n        activeJob.dataValidationResponse(IComputingJob.DataValidationResponse.Invalid);\n    }\n\n    function processToCognition() external\n        onlyOwner\n        requireState(ReadyForComputing)\n        transitionToState(Computing)\n    {\n        // All actual work is done by function modifiers\n    }\n\n    function provideResults(\n        bytes _ipfsAddress\n    ) external\n        onlyOwner\n        requireState(Computing)\n        transitionToState(Idle)\n    {\n        require(activeJob != IComputingJob(0));\n        activeJob.completeWork(_ipfsAddress);\n    }\n\n    /// @notice Withdraws full balance to the owner account. Can be called only by the owner of the contract.\n    function withdrawBalance() external\n        onlyOwner // Can be called only by the owner\n        requireStates2(Idle, Offline)\n    {\n        /// @todo Handle stakes etc\n        owner.transfer(address(this).balance);\n    }\n}\n",
  "sourcePath": "/home/kostysh/dev/pyrrha-consensus/contracts/nodes/WorkerNode.sol",
  "compiler": {
    "name": "solc",
    "version": "0.4.24+commit.e67f0147.Emscripten.clang"
  },
  "schemaVersion": "2.0.0",
  "updatedAt": "2018-06-21T18:25:28.891Z"
}