{
  "contractName": "WorkerNode",
  "abi": [
    {
      "constant": true,
      "inputs": [],
      "name": "currentState",
      "outputs": [
        {
          "name": "",
          "type": "uint8"
        }
      ],
      "payable": false,
      "stateMutability": "view",
      "type": "function"
    },
    {
      "constant": true,
      "inputs": [],
      "name": "pandora",
      "outputs": [
        {
          "name": "",
          "type": "address"
        }
      ],
      "payable": false,
      "stateMutability": "view",
      "type": "function"
    },
    {
      "constant": true,
      "inputs": [],
      "name": "Uninitialized",
      "outputs": [
        {
          "name": "",
          "type": "uint8"
        }
      ],
      "payable": false,
      "stateMutability": "view",
      "type": "function"
    },
    {
      "constant": true,
      "inputs": [],
      "name": "Computing",
      "outputs": [
        {
          "name": "",
          "type": "uint8"
        }
      ],
      "payable": false,
      "stateMutability": "view",
      "type": "function"
    },
    {
      "constant": true,
      "inputs": [],
      "name": "ReadyForComputing",
      "outputs": [
        {
          "name": "",
          "type": "uint8"
        }
      ],
      "payable": false,
      "stateMutability": "view",
      "type": "function"
    },
    {
      "constant": true,
      "inputs": [],
      "name": "jobProgress",
      "outputs": [
        {
          "name": "",
          "type": "uint256"
        }
      ],
      "payable": false,
      "stateMutability": "view",
      "type": "function"
    },
    {
      "constant": false,
      "inputs": [],
      "name": "renounceOwnership",
      "outputs": [],
      "payable": false,
      "stateMutability": "nonpayable",
      "type": "function"
    },
    {
      "constant": true,
      "inputs": [],
      "name": "ValidatingData",
      "outputs": [
        {
          "name": "",
          "type": "uint8"
        }
      ],
      "payable": false,
      "stateMutability": "view",
      "type": "function"
    },
    {
      "constant": true,
      "inputs": [],
      "name": "Offline",
      "outputs": [
        {
          "name": "",
          "type": "uint8"
        }
      ],
      "payable": false,
      "stateMutability": "view",
      "type": "function"
    },
    {
      "constant": true,
      "inputs": [],
      "name": "owner",
      "outputs": [
        {
          "name": "",
          "type": "address"
        }
      ],
      "payable": false,
      "stateMutability": "view",
      "type": "function"
    },
    {
      "constant": true,
      "inputs": [],
      "name": "activeJob",
      "outputs": [
        {
          "name": "",
          "type": "address"
        }
      ],
      "payable": false,
      "stateMutability": "view",
      "type": "function"
    },
    {
      "constant": true,
      "inputs": [],
      "name": "UnderPenalty",
      "outputs": [
        {
          "name": "",
          "type": "uint8"
        }
      ],
      "payable": false,
      "stateMutability": "view",
      "type": "function"
    },
    {
      "constant": false,
      "inputs": [
        {
          "name": "_newState",
          "type": "uint8"
        }
      ],
      "name": "transitionToState",
      "outputs": [],
      "payable": false,
      "stateMutability": "nonpayable",
      "type": "function"
    },
    {
      "constant": true,
      "inputs": [],
      "name": "Idle",
      "outputs": [
        {
          "name": "",
          "type": "uint8"
        }
      ],
      "payable": false,
      "stateMutability": "view",
      "type": "function"
    },
    {
      "constant": true,
      "inputs": [],
      "name": "ReadyForDataValidation",
      "outputs": [
        {
          "name": "",
          "type": "uint8"
        }
      ],
      "payable": false,
      "stateMutability": "view",
      "type": "function"
    },
    {
      "constant": true,
      "inputs": [],
      "name": "Destroyed",
      "outputs": [
        {
          "name": "",
          "type": "uint8"
        }
      ],
      "payable": false,
      "stateMutability": "view",
      "type": "function"
    },
    {
      "constant": true,
      "inputs": [],
      "name": "InsufficientStake",
      "outputs": [
        {
          "name": "",
          "type": "uint8"
        }
      ],
      "payable": false,
      "stateMutability": "view",
      "type": "function"
    },
    {
      "constant": true,
      "inputs": [],
      "name": "Assigned",
      "outputs": [
        {
          "name": "",
          "type": "uint8"
        }
      ],
      "payable": false,
      "stateMutability": "view",
      "type": "function"
    },
    {
      "constant": false,
      "inputs": [
        {
          "name": "_newOwner",
          "type": "address"
        }
      ],
      "name": "transferOwnership",
      "outputs": [],
      "payable": false,
      "stateMutability": "nonpayable",
      "type": "function"
    },
    {
      "inputs": [
        {
          "name": "_pandora",
          "type": "address"
        }
      ],
      "payable": false,
      "stateMutability": "nonpayable",
      "type": "constructor"
    },
    {
      "anonymous": false,
      "inputs": [],
      "name": "WorkerDestroyed",
      "type": "event"
    },
    {
      "anonymous": false,
      "inputs": [
        {
          "indexed": false,
          "name": "oldState",
          "type": "uint8"
        },
        {
          "indexed": false,
          "name": "newState",
          "type": "uint8"
        }
      ],
      "name": "StateChanged",
      "type": "event"
    },
    {
      "anonymous": false,
      "inputs": [
        {
          "indexed": true,
          "name": "previousOwner",
          "type": "address"
        }
      ],
      "name": "OwnershipRenounced",
      "type": "event"
    },
    {
      "anonymous": false,
      "inputs": [
        {
          "indexed": true,
          "name": "previousOwner",
          "type": "address"
        },
        {
          "indexed": true,
          "name": "newOwner",
          "type": "address"
        }
      ],
      "name": "OwnershipTransferred",
      "type": "event"
    },
    {
      "constant": false,
      "inputs": [],
      "name": "destroy",
      "outputs": [],
      "payable": false,
      "stateMutability": "nonpayable",
      "type": "function"
    },
    {
      "constant": false,
      "inputs": [],
      "name": "alive",
      "outputs": [],
      "payable": false,
      "stateMutability": "nonpayable",
      "type": "function"
    },
    {
      "constant": false,
      "inputs": [
        {
          "name": "_percent",
          "type": "uint8"
        }
      ],
      "name": "reportProgress",
      "outputs": [],
      "payable": false,
      "stateMutability": "nonpayable",
      "type": "function"
    },
    {
      "constant": false,
      "inputs": [
        {
          "name": "_job",
          "type": "address"
        }
      ],
      "name": "assignJob",
      "outputs": [],
      "payable": false,
      "stateMutability": "nonpayable",
      "type": "function"
    },
    {
      "constant": false,
      "inputs": [],
      "name": "cancelJob",
      "outputs": [],
      "payable": false,
      "stateMutability": "nonpayable",
      "type": "function"
    },
    {
      "constant": false,
      "inputs": [],
      "name": "acceptAssignment",
      "outputs": [],
      "payable": false,
      "stateMutability": "nonpayable",
      "type": "function"
    },
    {
      "constant": false,
      "inputs": [],
      "name": "declineAssignment",
      "outputs": [],
      "payable": false,
      "stateMutability": "nonpayable",
      "type": "function"
    },
    {
      "constant": false,
      "inputs": [],
      "name": "processToDataValidation",
      "outputs": [],
      "payable": false,
      "stateMutability": "nonpayable",
      "type": "function"
    },
    {
      "constant": false,
      "inputs": [],
      "name": "acceptValidData",
      "outputs": [],
      "payable": false,
      "stateMutability": "nonpayable",
      "type": "function"
    },
    {
      "constant": false,
      "inputs": [],
      "name": "declineValidData",
      "outputs": [],
      "payable": false,
      "stateMutability": "nonpayable",
      "type": "function"
    },
    {
      "constant": false,
      "inputs": [],
      "name": "reportInvalidData",
      "outputs": [],
      "payable": false,
      "stateMutability": "nonpayable",
      "type": "function"
    },
    {
      "constant": false,
      "inputs": [],
      "name": "processToCognition",
      "outputs": [],
      "payable": false,
      "stateMutability": "nonpayable",
      "type": "function"
    },
    {
      "constant": false,
      "inputs": [
        {
          "name": "_ipfsAddress",
          "type": "bytes"
        }
      ],
      "name": "provideResults",
      "outputs": [],
      "payable": false,
      "stateMutability": "nonpayable",
      "type": "function"
    },
    {
      "constant": false,
      "inputs": [],
      "name": "withdrawBalance",
      "outputs": [],
      "payable": false,
      "stateMutability": "nonpayable",
      "type": "function"
    }
  ],
  "bytecode": "0x60806040523480156200001157600080fd5b5060405160208062002ab283398101806040528101908080519060200190929190505050336000806101000a81548173ffffffffffffffffffffffffffffffffffffffff021916908373ffffffffffffffffffffffffffffffffffffffff160217905550600073ffffffffffffffffffffffffffffffffffffffff168173ffffffffffffffffffffffffffffffffffffffff1614151515620000b257600080fd5b80600660006101000a81548173ffffffffffffffffffffffffffffffffffffffff021916908373ffffffffffffffffffffffffffffffffffffffff1602179055506000600760006101000a81548173ffffffffffffffffffffffffffffffffffffffff021916908373ffffffffffffffffffffffffffffffffffffffff1602179055506200014e62000155640100000000026401000000009004565b5062000950565b600060046001019050606060405190810160405280600260ff1660ff168152602001600160ff1660ff168152602001600860ff1660ff168152508160008060ff1660ff168152602001908152602001600020906003620001b792919062000713565b50602060405190810160405280600260ff1660ff16815250816000600160ff1660ff168152602001908152602001600020906001620001f8929190620007c1565b50608060405190810160405280600160ff1660ff168152602001600960ff1660ff168152602001600360ff1660ff16815260200160ff801660ff16815250816000600260ff1660ff1681526020019081526020016000209060046200025f9291906200086f565b50606060405190810160405280600160ff1660ff168152602001600960ff1660ff168152602001600460ff1660ff16815250816000600360ff1660ff168152602001908152602001600020906003620002ba92919062000713565b50608060405190810160405280600560ff1660ff168152602001600160ff1660ff168152602001600960ff1660ff168152602001600260ff1660ff16815250816000600460ff1660ff168152602001908152602001600020906004620003229291906200086f565b50606060405190810160405280600160ff1660ff168152602001600860ff1660ff168152602001600260ff1660ff16815250816000600960ff1660ff1681526020019081526020016000209060036200037d92919062000713565b50608060405190810160405280600160ff1660ff168152602001600260ff1660ff168152602001600960ff1660ff168152602001600660ff1660ff16815250816000600560ff1660ff168152602001908152602001600020906004620003e59291906200086f565b50608060405190810160405280600760ff1660ff168152602001600160ff1660ff168152602001600960ff1660ff168152602001600260ff1660ff16815250816000600660ff1660ff1681526020019081526020016000209060046200044d9291906200086f565b50606060405190810160405280600160ff1660ff168152602001600960ff1660ff168152602001600260ff1660ff16815250816000600760ff1660ff168152602001908152602001600020906003620004a892919062000713565b50606060405190810160405280600160ff1660ff168152602001600260ff1660ff16815260200160ff801660ff16815250816000600860ff1660ff1681526020019081526020016000209060036200050292919062000713565b5062000521620005436401000000000262001f72176401000000009004565b6001600460000160016101000a81548160ff021916908360ff16021790555050565b6040805190810160405280601181526020017f5f696e697453746174654d616368696e65000000000000000000000000000000815250600015156003826040518082805190602001908083835b602083101515620005b7578051825260208201915060208101905060208303925062000590565b6001836020036101000a038019825116818451168082178552505050505050905001915050908152602001604051809103902060009054906101000a900460ff1615151415156200060757600080fd5b620006276004620006b064010000000002620020c4176401000000009004565b60016003826040518082805190602001908083835b6020831015156200066357805182526020820191506020810190506020830392506200063c565b6001836020036101000a038019825116818451168082178552505050505050905001915050908152602001604051809103902060006101000a81548160ff02191690831515021790555050565b600015158160000160009054906101000a900460ff161515141515620006d557600080fd5b60018160000160016101000a81548160ff021916908360ff16021790555060018160000160006101000a81548160ff02191690831515021790555050565b82805482825590600052602060002090601f01602090048101928215620007ae5791602002820160005b838211156200077d57835183826101000a81548160ff021916908360ff16021790555092602001926001016020816000010492830192600103026200073d565b8015620007ac5782816101000a81549060ff02191690556001016020816000010492830192600103026200077d565b505b509050620007bd91906200091d565b5090565b82805482825590600052602060002090601f016020900481019282156200085c5791602002820160005b838211156200082b57835183826101000a81548160ff021916908360ff1602179055509260200192600101602081600001049283019260010302620007eb565b80156200085a5782816101000a81549060ff02191690556001016020816000010492830192600103026200082b565b505b5090506200086b91906200091d565b5090565b82805482825590600052602060002090601f016020900481019282156200090a5791602002820160005b83821115620008d957835183826101000a81548160ff021916908360ff160217905550926020019260010160208160000104928301926001030262000899565b8015620009085782816101000a81549060ff0219169055600101602081600001049283019260010302620008d9565b505b5090506200091991906200091d565b5090565b6200094d91905b808211156200094957600081816101000a81549060ff02191690555060010162000924565b5090565b90565b61215280620009606000396000f3006080604052600436106101a1576000357c0100000000000000000000000000000000000000000000000000000000900463ffffffff16806306401ff4146101a65780630c3f6acf146101bd5780631a0bc596146101ee5780631a6b2eb1146102455780631c72fad41461025c5780631d53dbed1461028d5780633b976974146102be57806347850cce146102ef578063481deb4e146103065780634a60442c146103415780635e903db01461036c5780635fd8c71014610383578063715018a61461039a57806374de5bde146103b1578063753899e9146103e257806377c6cc38146103f9578063822bb4d11461041057806383197ef014610441578063897399ae146104585780638da5cb5b1461049b5780638daeaa40146104f25780638dd172a214610549578063acf7807b1461057a578063ae897c55146105aa578063b07c7475146105db578063bb94d792146105f2578063c162bef514610622578063c80ce25d14610639578063cc0e82c11461066a578063df12e6c31461069b578063f1bc94d2146106b2578063f2361410146106e3578063f2fde38b14610714575b600080fd5b3480156101b257600080fd5b506101bb610757565b005b3480156101c957600080fd5b506101d26107e7565b604051808260ff1660ff16815260200191505060405180910390f35b3480156101fa57600080fd5b50610203610801565b604051808273ffffffffffffffffffffffffffffffffffffffff1673ffffffffffffffffffffffffffffffffffffffff16815260200191505060405180910390f35b34801561025157600080fd5b5061025a610827565b005b34801561026857600080fd5b506102716109cd565b604051808260ff1660ff16815260200191505060405180910390f35b34801561029957600080fd5b506102a26109d2565b604051808260ff1660ff16815260200191505060405180910390f35b3480156102ca57600080fd5b506102d36109d7565b604051808260ff1660ff16815260200191505060405180910390f35b3480156102fb57600080fd5b506103046109dc565b005b34801561031257600080fd5b5061033f600480360381019080803590602001908201803590602001919091929391929390505050610b82565b005b34801561034d57600080fd5b50610356610d35565b6040518082815260200191505060405180910390f35b34801561037857600080fd5b50610381610d3b565b005b34801561038f57600080fd5b50610398610ee1565b005b3480156103a657600080fd5b506103af610fd9565b005b3480156103bd57600080fd5b506103c66110db565b604051808260ff1660ff16815260200191505060405180910390f35b3480156103ee57600080fd5b506103f76110e0565b005b34801561040557600080fd5b5061040e611170565b005b34801561041c57600080fd5b50610425611200565b604051808260ff1660ff16815260200191505060405180910390f35b34801561044d57600080fd5b50610456611205565b005b34801561046457600080fd5b50610499600480360381019080803573ffffffffffffffffffffffffffffffffffffffff169060200190929190505050611325565b005b3480156104a757600080fd5b506104b0611604565b604051808273ffffffffffffffffffffffffffffffffffffffff1673ffffffffffffffffffffffffffffffffffffffff16815260200191505060405180910390f35b3480156104fe57600080fd5b50610507611629565b604051808273ffffffffffffffffffffffffffffffffffffffff1673ffffffffffffffffffffffffffffffffffffffff16815260200191505060405180910390f35b34801561055557600080fd5b5061055e61164f565b604051808260ff1660ff16815260200191505060405180910390f35b34801561058657600080fd5b506105a8600480360381019080803560ff169060200190929190505050611654565b005b3480156105b657600080fd5b506105bf6116f2565b604051808260ff1660ff16815260200191505060405180910390f35b3480156105e757600080fd5b506105f06116f7565b005b3480156105fe57600080fd5b50610620600480360381019080803560ff169060200190929190505050611854565b005b34801561062e57600080fd5b5061063761196b565b005b34801561064557600080fd5b5061064e611b07565b604051808260ff1660ff16815260200191505060405180910390f35b34801561067657600080fd5b5061067f611b0c565b604051808260ff1660ff16815260200191505060405180910390f35b3480156106a757600080fd5b506106b0611b11565b005b3480156106be57600080fd5b506106c7611cad565b604051808260ff1660ff16815260200191505060405180910390f35b3480156106ef57600080fd5b506106f8611cb2565b604051808260ff1660ff16815260200191505060405180910390f35b34801561072057600080fd5b50610755600480360381019080803573ffffffffffffffffffffffffffffffffffffffff169060200190929190505050611cb7565b005b6000809054906101000a900473ffffffffffffffffffffffffffffffffffffffff1673ffffffffffffffffffffffffffffffffffffffff163373ffffffffffffffffffffffffffffffffffffffff161415156107b257600080fd5b60068060ff16600460000160019054906101000a900460ff1660ff161415156107da57600080fd5b6107e46007611d1e565b50565b6000600460000160019054906101000a900460ff16905090565b600660009054906101000a900473ffffffffffffffffffffffffffffffffffffffff1681565b6000809054906101000a900473ffffffffffffffffffffffffffffffffffffffff1673ffffffffffffffffffffffffffffffffffffffff163373ffffffffffffffffffffffffffffffffffffffff1614151561088257600080fd5b60058060ff16600460000160019054906101000a900460ff1660ff161415156108aa57600080fd5b600073ffffffffffffffffffffffffffffffffffffffff16600760009054906101000a900473ffffffffffffffffffffffffffffffffffffffff1673ffffffffffffffffffffffffffffffffffffffff161415151561090857600080fd5b600760009054906101000a900473ffffffffffffffffffffffffffffffffffffffff1673ffffffffffffffffffffffffffffffffffffffff1663b225be4260016040518263ffffffff167c01000000000000000000000000000000000000000000000000000000000281526004018082600281111561098357fe5b60ff168152602001915050600060405180830381600087803b1580156109a857600080fd5b505af11580156109bc573d6000803e3d6000fd5b505050506109ca6002611d1e565b50565b600081565b600781565b600681565b6000809054906101000a900473ffffffffffffffffffffffffffffffffffffffff1673ffffffffffffffffffffffffffffffffffffffff163373ffffffffffffffffffffffffffffffffffffffff16141515610a3757600080fd5b60058060ff16600460000160019054906101000a900460ff1660ff16141515610a5f57600080fd5b600073ffffffffffffffffffffffffffffffffffffffff16600760009054906101000a900473ffffffffffffffffffffffffffffffffffffffff1673ffffffffffffffffffffffffffffffffffffffff1614151515610abd57600080fd5b600760009054906101000a900473ffffffffffffffffffffffffffffffffffffffff1673ffffffffffffffffffffffffffffffffffffffff1663b225be4260026040518263ffffffff167c010000000000000000000000000000000000000000000000000000000002815260040180826002811115610b3857fe5b60ff168152602001915050600060405180830381600087803b158015610b5d57600080fd5b505af1158015610b71573d6000803e3d6000fd5b50505050610b7f6002611d1e565b50565b6000809054906101000a900473ffffffffffffffffffffffffffffffffffffffff1673ffffffffffffffffffffffffffffffffffffffff163373ffffffffffffffffffffffffffffffffffffffff16141515610bdd57600080fd5b60078060ff16600460000160019054906101000a900460ff1660ff16141515610c0557600080fd5b600073ffffffffffffffffffffffffffffffffffffffff16600760009054906101000a900473ffffffffffffffffffffffffffffffffffffffff1673ffffffffffffffffffffffffffffffffffffffff1614151515610c6357600080fd5b600760009054906101000a900473ffffffffffffffffffffffffffffffffffffffff1673ffffffffffffffffffffffffffffffffffffffff16634e6b42a884846040518363ffffffff167c01000000000000000000000000000000000000000000000000000000000281526004018080602001828103825284848281815260200192508082843782019150509350505050600060405180830381600087803b158015610d0e57600080fd5b505af1158015610d22573d6000803e3d6000fd5b50505050610d306002611d1e565b505050565b60085481565b6000809054906101000a900473ffffffffffffffffffffffffffffffffffffffff1673ffffffffffffffffffffffffffffffffffffffff163373ffffffffffffffffffffffffffffffffffffffff16141515610d9657600080fd5b60058060ff16600460000160019054906101000a900460ff1660ff16141515610dbe57600080fd5b600073ffffffffffffffffffffffffffffffffffffffff16600760009054906101000a900473ffffffffffffffffffffffffffffffffffffffff1673ffffffffffffffffffffffffffffffffffffffff1614151515610e1c57600080fd5b600760009054906101000a900473ffffffffffffffffffffffffffffffffffffffff1673ffffffffffffffffffffffffffffffffffffffff1663b225be4260006040518263ffffffff167c010000000000000000000000000000000000000000000000000000000002815260040180826002811115610e9757fe5b60ff168152602001915050600060405180830381600087803b158015610ebc57600080fd5b505af1158015610ed0573d6000803e3d6000fd5b50505050610ede6006611d1e565b50565b6000809054906101000a900473ffffffffffffffffffffffffffffffffffffffff1673ffffffffffffffffffffffffffffffffffffffff163373ffffffffffffffffffffffffffffffffffffffff16141515610f3c57600080fd5b60026001610f5682826004611d409092919063ffffffff16565b6000809054906101000a900473ffffffffffffffffffffffffffffffffffffffff1673ffffffffffffffffffffffffffffffffffffffff166108fc3073ffffffffffffffffffffffffffffffffffffffff16319081150290604051600060405180830381858888f19350505050158015610fd4573d6000803e3d6000fd5b505050565b6000809054906101000a900473ffffffffffffffffffffffffffffffffffffffff1673ffffffffffffffffffffffffffffffffffffffff163373ffffffffffffffffffffffffffffffffffffffff1614151561103457600080fd5b6000809054906101000a900473ffffffffffffffffffffffffffffffffffffffff1673ffffffffffffffffffffffffffffffffffffffff167ff8df31144d9c2f0f6b59d69b8b98abd5459d07f2742c4df920b25aae33c6482060405160405180910390a260008060006101000a81548173ffffffffffffffffffffffffffffffffffffffff021916908373ffffffffffffffffffffffffffffffffffffffff160217905550565b600581565b6000809054906101000a900473ffffffffffffffffffffffffffffffffffffffff1673ffffffffffffffffffffffffffffffffffffffff163373ffffffffffffffffffffffffffffffffffffffff1614151561113b57600080fd5b60018060ff16600460000160019054906101000a900460ff1660ff1614151561116357600080fd5b61116d6002611d1e565b50565b6000809054906101000a900473ffffffffffffffffffffffffffffffffffffffff1673ffffffffffffffffffffffffffffffffffffffff163373ffffffffffffffffffffffffffffffffffffffff161415156111cb57600080fd5b60048060ff16600460000160019054906101000a900460ff1660ff161415156111f357600080fd5b6111fd6005611d1e565b50565b600181565b600073ffffffffffffffffffffffffffffffffffffffff16600660009054906101000a900473ffffffffffffffffffffffffffffffffffffffff1673ffffffffffffffffffffffffffffffffffffffff161415151561126357600080fd5b600660009054906101000a900473ffffffffffffffffffffffffffffffffffffffff1673ffffffffffffffffffffffffffffffffffffffff163373ffffffffffffffffffffffffffffffffffffffff161415156112bf57600080fd5b7f4447806c1856b9de7671994ea8dbdc03abd565d1b8c00ffc5fa053c49bd40ecc60405160405180910390a16000809054906101000a900473ffffffffffffffffffffffffffffffffffffffff1673ffffffffffffffffffffffffffffffffffffffff16ff5b60008073ffffffffffffffffffffffffffffffffffffffff16600660009054906101000a900473ffffffffffffffffffffffffffffffffffffffff1673ffffffffffffffffffffffffffffffffffffffff161415151561138457600080fd5b3390508073ffffffffffffffffffffffffffffffffffffffff16631a0bc5966040518163ffffffff167c0100000000000000000000000000000000000000000000000000000000028152600401602060405180830381600087803b1580156113eb57600080fd5b505af11580156113ff573d6000803e3d6000fd5b505050506040513d602081101561141557600080fd5b810190808051906020019092919050505073ffffffffffffffffffffffffffffffffffffffff16600660009054906101000a900473ffffffffffffffffffffffffffffffffffffffff1673ffffffffffffffffffffffffffffffffffffffff1614151561148157600080fd5b600660009054906101000a900473ffffffffffffffffffffffffffffffffffffffff1673ffffffffffffffffffffffffffffffffffffffff16630ba58574826040518263ffffffff167c0100000000000000000000000000000000000000000000000000000000028152600401808273ffffffffffffffffffffffffffffffffffffffff1673ffffffffffffffffffffffffffffffffffffffff168152602001915050602060405180830381600087803b15801561153e57600080fd5b505af1158015611552573d6000803e3d6000fd5b505050506040513d602081101561156857600080fd5b8101908080519060200190929190505050151561158457600080fd5b60028060ff16600460000160019054906101000a900460ff1660ff161415156115ac57600080fd5b82600760006101000a81548173ffffffffffffffffffffffffffffffffffffffff021916908373ffffffffffffffffffffffffffffffffffffffff16021790555060006008819055506115ff6003611d1e565b505050565b6000809054906101000a900473ffffffffffffffffffffffffffffffffffffffff1681565b600760009054906101000a900473ffffffffffffffffffffffffffffffffffffffff1681565b600981565b6000600460000160019054906101000a900460ff16905081600460000160016101000a81548160ff021916908360ff1602179055507fe8a97ea87e4388fa22d496b95a8ed5ced6717f49790318de2b928aaf37a021d881600460000160019054906101000a900460ff16604051808360ff1660ff1681526020018260ff1660ff1681526020019250505060405180910390a16116ee611da6565b5050565b600281565b600760009054906101000a900473ffffffffffffffffffffffffffffffffffffffff1673ffffffffffffffffffffffffffffffffffffffff163373ffffffffffffffffffffffffffffffffffffffff1614151561175357600080fd5b600360ff16600460000160019054906101000a900460ff1660ff1614806117925750600460ff16600460000160019054906101000a900460ff1660ff16145b806117b55750600560ff16600460000160019054906101000a900460ff1660ff16145b806117d85750600660ff16600460000160019054906101000a900460ff1660ff16145b806117fb5750600760ff16600460000160019054906101000a900460ff1660ff16145b151561180657600080fd5b6000600760006101000a81548173ffffffffffffffffffffffffffffffffffffffff021916908373ffffffffffffffffffffffffffffffffffffffff1602179055506118526002611d1e565b565b6000809054906101000a900473ffffffffffffffffffffffffffffffffffffffff1673ffffffffffffffffffffffffffffffffffffffff163373ffffffffffffffffffffffffffffffffffffffff161415156118af57600080fd5b8060ff16600881905550600760009054906101000a900473ffffffffffffffffffffffffffffffffffffffff1673ffffffffffffffffffffffffffffffffffffffff16636936087d826040518263ffffffff167c0100000000000000000000000000000000000000000000000000000000028152600401808260ff1660ff168152602001915050600060405180830381600087803b15801561195057600080fd5b505af1158015611964573d6000803e3d6000fd5b5050505050565b6000809054906101000a900473ffffffffffffffffffffffffffffffffffffffff1673ffffffffffffffffffffffffffffffffffffffff163373ffffffffffffffffffffffffffffffffffffffff161415156119c657600080fd5b60038060ff16600460000160019054906101000a900460ff1660ff161415156119ee57600080fd5b600073ffffffffffffffffffffffffffffffffffffffff16600760009054906101000a900473ffffffffffffffffffffffffffffffffffffffff1673ffffffffffffffffffffffffffffffffffffffff1614151515611a4c57600080fd5b600760009054906101000a900473ffffffffffffffffffffffffffffffffffffffff1673ffffffffffffffffffffffffffffffffffffffff166364d3414c60006040518263ffffffff167c01000000000000000000000000000000000000000000000000000000000281526004018082151515158152602001915050600060405180830381600087803b158015611ae257600080fd5b505af1158015611af6573d6000803e3d6000fd5b50505050611b046002611d1e565b50565b600481565b60ff81565b6000809054906101000a900473ffffffffffffffffffffffffffffffffffffffff1673ffffffffffffffffffffffffffffffffffffffff163373ffffffffffffffffffffffffffffffffffffffff16141515611b6c57600080fd5b60038060ff16600460000160019054906101000a900460ff1660ff16141515611b9457600080fd5b600073ffffffffffffffffffffffffffffffffffffffff16600760009054906101000a900473ffffffffffffffffffffffffffffffffffffffff1673ffffffffffffffffffffffffffffffffffffffff1614151515611bf257600080fd5b600760009054906101000a900473ffffffffffffffffffffffffffffffffffffffff1673ffffffffffffffffffffffffffffffffffffffff166364d3414c60016040518263ffffffff167c01000000000000000000000000000000000000000000000000000000000281526004018082151515158152602001915050600060405180830381600087803b158015611c8857600080fd5b505af1158015611c9c573d6000803e3d6000fd5b50505050611caa6004611d1e565b50565b600881565b600381565b6000809054906101000a900473ffffffffffffffffffffffffffffffffffffffff1673ffffffffffffffffffffffffffffffffffffffff163373ffffffffffffffffffffffffffffffffffffffff16141515611d1257600080fd5b611d1b81611da8565b50565b80611d33816004611ea290919063ffffffff16565b611d3c82611654565b5050565b60008090508360000160019054906101000a900460ff1660ff168360ff161415611d6957600190505b8360000160019054906101000a900460ff1660ff168260ff161415611d8d57600190505b60011515811515141515611da057600080fd5b50505050565b565b600073ffffffffffffffffffffffffffffffffffffffff168173ffffffffffffffffffffffffffffffffffffffff1614151515611de457600080fd5b8073ffffffffffffffffffffffffffffffffffffffff166000809054906101000a900473ffffffffffffffffffffffffffffffffffffffff1673ffffffffffffffffffffffffffffffffffffffff167f8be0079c531659141344cd1fd0a4f28419497f9722a3daafe3b4186f6b6457e060405160405180910390a3806000806101000a81548173ffffffffffffffffffffffffffffffffffffffff021916908373ffffffffffffffffffffffffffffffffffffffff16021790555050565b600080600060ff8560000160019054906101000a900460ff1660ff1614151515611ec857fe5b600092508460010160008660000160019054906101000a900460ff1660ff1660ff1681526020019081526020016000209150600090505b8180549050811015611f58578360ff168282815481101515611f1d57fe5b90600052602060002090602091828204019190069054906101000a900460ff1660ff161415611f4b57600192505b8080600101915050611eff565b60011515831515141515611f6b57600080fd5b5050505050565b6040805190810160405280601181526020017f5f696e697453746174654d616368696e65000000000000000000000000000000815250600015156003826040518082805190602001908083835b602083101515611fe45780518252602082019150602081019050602083039250611fbf565b6001836020036101000a038019825116818451168082178552505050505050905001915050908152602001604051809103902060009054906101000a900460ff16151514151561203357600080fd5b61203d60046120c4565b60016003826040518082805190602001908083835b6020831015156120775780518252602082019150602081019050602083039250612052565b6001836020036101000a038019825116818451168082178552505050505050905001915050908152602001604051809103902060006101000a81548160ff02191690831515021790555050565b600015158160000160009054906101000a900460ff1615151415156120e857600080fd5b60018160000160016101000a81548160ff021916908360ff16021790555060018160000160006101000a81548160ff021916908315150217905550505600a165627a7a7230582030e69830507731c392dd205c2491b25bb54be0371530ed8a5a178c13479931430029",
  "source": "pragma solidity ^0.4.23;\n\nimport \"../libraries/StateMachine.sol\";\nimport \"../pandora/IPandora.sol\";\nimport \"../jobs/IComputingJob.sol\";\nimport \"./IWorkerNode.sol\";\n\n/**\n * @title Worker Node Smart Contract\n * @author \"Dr Maxim Orlovsky\" <orlovsky@pandora.foundation>\n *\n * @dev # Worker Node Smart Contract\n *\n * Worker node contract accumulates funds/payments for performed cognitive work and contains inalienable reputation.\n * Note: In Pyrrha there is no mining. In the following versions all mined coins will be also assigned to the\n * `WorkerNode` contract\n *\n * Worker node acts as a state machine and each its function can be evoked only in some certain states. That\"s\n * why each function must have state machine-controlled function modifiers. Contract state is managed by\n * - Worker node code (second level of consensus)\n * - Main Pandora contract [Pandora.sol]\n * - Worker node contract itself\n */\n\ncontract WorkerNode is IWorkerNode, StateMachine /* final */ {\n    /**\n     * ## State Machine extensions\n     */\n\n    /// @dev Modifier requiring contract to be preset in one of the active states (`Assigned`, `ReadyForDataValidation`,\n    /// `ValidatingData`, `ReadyForComputing`, `Computing`); otherwise an exception is generated and the function\n    /// does not execute\n    modifier requireActiveStates() {\n        require(\n            stateMachine.currentState == Assigned ||\n            stateMachine.currentState == ReadyForDataValidation ||\n            stateMachine.currentState == ValidatingData ||\n            stateMachine.currentState == ReadyForComputing ||\n            stateMachine.currentState == Computing);\n        _;\n    }\n\n    /// @dev Private method initializing state machine. Must be called only once from the contract constructor\n    function _initStateMachine() internal {\n        // Creating table of possible state transitions\n        mapping(uint8 => uint8[]) transitions = stateMachine.transitionTable;\n        transitions[Uninitialized] = [Idle, Offline, InsufficientStake];\n        transitions[Offline] = [Idle];\n        transitions[Idle] = [Offline, UnderPenalty, Assigned, Destroyed];\n        transitions[Assigned] = [Offline, UnderPenalty, ReadyForDataValidation];\n        transitions[ReadyForDataValidation] = [ValidatingData, Offline, UnderPenalty, Idle];\n        transitions[UnderPenalty] = [Offline, InsufficientStake, Idle];\n        transitions[ValidatingData] = [Offline, Idle, UnderPenalty, ReadyForComputing];\n        transitions[ReadyForComputing] = [Computing, Offline, UnderPenalty, Idle];\n        transitions[Computing] = [Offline, UnderPenalty, Idle];\n        transitions[InsufficientStake] = [Offline, Idle, Destroyed];\n\n        // Initializing state machine via base contract code\n        super._initStateMachine();\n\n        // Going into initial state (Offline)\n        stateMachine.currentState = Offline;\n    }\n\n    /**\n     * ## Main implementation\n     */\n\n    /// ### Public variables\n\n\n    /// @notice Reference to the main Pandora contract.\n    /// @dev Required to check the validity of the method calls coming from the Pandora contract.\n    /// Initialy set from the address supplied to the constructor and can\"t be changed after.\n    IPandora public pandora;\n\n    /// @notice Active cognitive job reference. Zero when there is no active cognitive job assigned or performed\n    /// @dev Valid (non-zero) only for active states (see `activeStates` modified for the list of such states)\n    IComputingJob public activeJob;\n\n\t/// @notice Progress of completing current active job batch, should be updated by node itself\n    uint256 public jobProgress;\n\n    event WorkerDestroyed();\n\n    /// ### Constructor and destructor\n\n    constructor(\n        IPandora _pandora /// Reference to the main Pandora contract that creates Worker Node\n    )\n    public {\n        require(_pandora != address(0));\n        pandora = _pandora;\n\n        // There should be no active cognitive job upon contract creation\n        activeJob = IComputingJob(0);\n\n        // Initialize state machine (state transition table and initial state). Always must be performed at the very\n        // end of contract constructor code.\n        _initStateMachine();\n    }\n\n    /// ### Function modifiers\n\n    /// @dev Modifier for functions that can be called only by the main Pandora contract\n    modifier onlyPandora() {\n        require(pandora != address(0));\n        require(msg.sender == address(pandora));\n        _;\n    }\n\n    /// @dev Modifier for functions that can be called only by one of the active cognitive jobs performed under\n    /// main Pandora contract. It includes jobs _not_ assigned to the worker node\n    modifier onlyCognitiveJob() {\n        require(pandora != address(0));\n        IComputingJob sender = IComputingJob(msg.sender);\n        require(pandora == sender.pandora());\n        require(pandora.isActiveJob(sender));\n        _;\n    }\n\n    /// @dev Modifier for functions that can be called only by the cognitive job assigned or performed by the worker\n    /// node in one of its active states\n    modifier onlyActiveCognitiveJob() {\n        require(msg.sender == address(activeJob));\n        _;\n    }\n\n    /// ### External and public functions\n\n    function destroy()\n        external\n        onlyPandora\n    {\n        /// Call event before doing the actual contract suicide\n        emit WorkerDestroyed();\n\n        /// Suiciding\n        selfdestruct(owner);\n    }\n\n    function alive() external\n        onlyOwner\n        requireState(Offline)\n    {\n        _transitionToState(Idle);\n    }\n\n    function reportProgress(uint8 _percent) external\n        onlyOwner\n    {\n        jobProgress = _percent;\n        activeJob.commitProgress(_percent);\n    }\n\n    /// @notice Do not call\n    /// @dev Assigns cognitive job to the worker. Can be called only by one of active cognitive jobs listed under\n    /// the main Pandora contract\n    function assignJob(\n        /// @dev Cognitive job to be assigned\n        IComputingJob _job\n    ) external // Can\"t be called internally\n        /// @dev Must be called only by one of active cognitive jobs listed under the main Pandora contract\n        onlyCognitiveJob\n        /// @dev Job can be assigned only to Idle workers\n        requireState(Idle)\n    {\n        activeJob = _job;\n        jobProgress = 0;\n        _transitionToState(Assigned);\n    }\n\n    function cancelJob() external\n        onlyActiveCognitiveJob\n        requireActiveStates\n    {\n        activeJob = IComputingJob(0);\n        _transitionToState(Idle);\n    }\n\n    function acceptAssignment() external\n        onlyOwner\n        requireState(Assigned)\n    {\n        require(activeJob != IComputingJob(0));\n        activeJob.gatheringWorkersResponse(true);\n        _transitionToState(ReadyForDataValidation);\n    }\n\n    function declineAssignment() external\n        onlyOwner\n        requireState(Assigned)\n    {\n        require(activeJob != IComputingJob(0));\n        activeJob.gatheringWorkersResponse(false);\n        _transitionToState(Idle);\n    }\n\n    function processToDataValidation() external\n        onlyOwner\n        requireState(ReadyForDataValidation)\n    {\n        _transitionToState(ValidatingData);\n    }\n\n    function acceptValidData() external\n        onlyOwner\n        requireState(ValidatingData)\n    {\n        require(activeJob != IComputingJob(0));\n        activeJob.dataValidationResponse(IComputingJob.DataValidationResponse.Accept);\n        _transitionToState(ReadyForComputing);\n    }\n\n    function declineValidData() external\n        onlyOwner\n        requireState(ValidatingData)\n    {\n        require(activeJob != IComputingJob(0));\n        activeJob.dataValidationResponse(IComputingJob.DataValidationResponse.Decline);\n        _transitionToState(Idle);\n    }\n\n    function reportInvalidData() external\n        onlyOwner\n        requireState(ValidatingData)\n    {\n        require(activeJob != IComputingJob(0));\n        activeJob.dataValidationResponse(IComputingJob.DataValidationResponse.Invalid);\n        _transitionToState(Idle);\n    }\n\n    function processToCognition() external\n        onlyOwner\n        requireState(ReadyForComputing)\n    {\n        _transitionToState(Computing);\n    }\n\n    function provideResults(\n        bytes _ipfsAddress\n    ) external\n        onlyOwner\n        requireState(Computing)\n    {\n        require(activeJob != IComputingJob(0));\n        activeJob.completeWork(_ipfsAddress);\n        _transitionToState(Idle);\n    }\n\n    /// @notice Withdraws full balance to the owner account. Can be called only by the owner of the contract.\n    function withdrawBalance() external\n        onlyOwner // Can be called only by the owner\n        requireStates2(Idle, Offline)\n    {\n        /// @todo Handle stakes etc\n        owner.transfer(address(this).balance);\n    }\n\n    function _transitionToState(uint8 _newState) private requireAllowedTransition(_newState)  {\n        transitionToState(_newState);\n    }\n}\n",
  "sourcePath": "/home/kostysh/dev/pyrrha-consensus/contracts/nodes/WorkerNode.sol",
  "compiler": {
    "name": "solc",
    "version": "0.4.24+commit.e67f0147.Emscripten.clang"
  },
  "schemaVersion": "2.0.0",
  "updatedAt": "2018-06-28T15:40:02.905Z"
}