{
  "contractName": "WorkerNodeFactory",
  "abi": [
    {
      "constant": false,
      "inputs": [],
      "name": "renounceOwnership",
      "outputs": [],
      "payable": false,
      "stateMutability": "nonpayable",
      "type": "function"
    },
    {
      "constant": true,
      "inputs": [],
      "name": "owner",
      "outputs": [
        {
          "name": "",
          "type": "address"
        }
      ],
      "payable": false,
      "stateMutability": "view",
      "type": "function"
    },
    {
      "constant": true,
      "inputs": [],
      "name": "isOwner",
      "outputs": [
        {
          "name": "",
          "type": "bool"
        }
      ],
      "payable": false,
      "stateMutability": "view",
      "type": "function"
    },
    {
      "constant": false,
      "inputs": [
        {
          "name": "newOwner",
          "type": "address"
        }
      ],
      "name": "transferOwnership",
      "outputs": [],
      "payable": false,
      "stateMutability": "nonpayable",
      "type": "function"
    },
    {
      "inputs": [],
      "payable": false,
      "stateMutability": "nonpayable",
      "type": "constructor"
    },
    {
      "anonymous": false,
      "inputs": [
        {
          "indexed": false,
          "name": "owner",
          "type": "address"
        }
      ],
      "name": "WorkerNodeOwner",
      "type": "event"
    },
    {
      "anonymous": false,
      "inputs": [
        {
          "indexed": true,
          "name": "previousOwner",
          "type": "address"
        },
        {
          "indexed": true,
          "name": "newOwner",
          "type": "address"
        }
      ],
      "name": "OwnershipTransferred",
      "type": "event"
    },
    {
      "constant": false,
      "inputs": [
        {
          "name": "_nodeOwner",
          "type": "address"
        }
      ],
      "name": "create",
      "outputs": [
        {
          "name": "o_workerNode",
          "type": "address"
        }
      ],
      "payable": false,
      "stateMutability": "nonpayable",
      "type": "function"
    }
  ],
  "bytecode": "0x608060405234801561001057600080fd5b50336000806101000a81548173ffffffffffffffffffffffffffffffffffffffff021916908373ffffffffffffffffffffffffffffffffffffffff1602179055506000809054906101000a900473ffffffffffffffffffffffffffffffffffffffff1673ffffffffffffffffffffffffffffffffffffffff16600073ffffffffffffffffffffffffffffffffffffffff167f8be0079c531659141344cd1fd0a4f28419497f9722a3daafe3b4186f6b6457e060405160405180910390a361295e806100dc6000396000f30060806040526004361062000073576000357c0100000000000000000000000000000000000000000000000000000000900463ffffffff168063715018a614620000785780638da5cb5b14620000925780638f32d59b14620000ec5780639ed93318146200011e578063f2fde38b14620001a4575b600080fd5b3480156200008557600080fd5b5062000090620001ea565b005b3480156200009f57600080fd5b50620000aa620002bf565b604051808273ffffffffffffffffffffffffffffffffffffffff1673ffffffffffffffffffffffffffffffffffffffff16815260200191505060405180910390f35b348015620000f957600080fd5b5062000104620002e8565b604051808215151515815260200191505060405180910390f35b3480156200012b57600080fd5b5062000162600480360381019080803573ffffffffffffffffffffffffffffffffffffffff1690602001909291905050506200033f565b604051808273ffffffffffffffffffffffffffffffffffffffff1673ffffffffffffffffffffffffffffffffffffffff16815260200191505060405180910390f35b348015620001b157600080fd5b50620001e8600480360381019080803573ffffffffffffffffffffffffffffffffffffffff16906020019092919050505062000518565b005b620001f4620002e8565b15156200020057600080fd5b600073ffffffffffffffffffffffffffffffffffffffff166000809054906101000a900473ffffffffffffffffffffffffffffffffffffffff1673ffffffffffffffffffffffffffffffffffffffff167f8be0079c531659141344cd1fd0a4f28419497f9722a3daafe3b4186f6b6457e060405160405180910390a360008060006101000a81548173ffffffffffffffffffffffffffffffffffffffff021916908373ffffffffffffffffffffffffffffffffffffffff160217905550565b60008060009054906101000a900473ffffffffffffffffffffffffffffffffffffffff16905090565b60008060009054906101000a900473ffffffffffffffffffffffffffffffffffffffff1673ffffffffffffffffffffffffffffffffffffffff163373ffffffffffffffffffffffffffffffffffffffff1614905090565b60006200034b620002e8565b15156200035757600080fd5b62000361620002bf565b6200036b62000637565b808273ffffffffffffffffffffffffffffffffffffffff1673ffffffffffffffffffffffffffffffffffffffff168152602001915050604051809103906000f080158015620003be573d6000803e3d6000fd5b509050600073ffffffffffffffffffffffffffffffffffffffff168173ffffffffffffffffffffffffffffffffffffffff1614151515620003fb57fe5b8073ffffffffffffffffffffffffffffffffffffffff1663f2fde38b836040518263ffffffff167c0100000000000000000000000000000000000000000000000000000000028152600401808273ffffffffffffffffffffffffffffffffffffffff1673ffffffffffffffffffffffffffffffffffffffff168152602001915050600060405180830381600087803b1580156200049757600080fd5b505af1158015620004ac573d6000803e3d6000fd5b505050507ffdc096b66b6e50fabf401010098ada94d32726d356fc947dea8d1c321f6b336982604051808273ffffffffffffffffffffffffffffffffffffffff1673ffffffffffffffffffffffffffffffffffffffff16815260200191505060405180910390a1919050565b62000522620002e8565b15156200052e57600080fd5b62000539816200053c565b50565b600073ffffffffffffffffffffffffffffffffffffffff168173ffffffffffffffffffffffffffffffffffffffff16141515156200057957600080fd5b8073ffffffffffffffffffffffffffffffffffffffff166000809054906101000a900473ffffffffffffffffffffffffffffffffffffffff1673ffffffffffffffffffffffffffffffffffffffff167f8be0079c531659141344cd1fd0a4f28419497f9722a3daafe3b4186f6b6457e060405160405180910390a3806000806101000a81548173ffffffffffffffffffffffffffffffffffffffff021916908373ffffffffffffffffffffffffffffffffffffffff16021790555050565b6040516122ea806200064983390190560060806040523480156200001157600080fd5b50604051602080620022ea83398101806040528101908080519060200190929190505050336000806101000a81548173ffffffffffffffffffffffffffffffffffffffff021916908373ffffffffffffffffffffffffffffffffffffffff1602179055506000809054906101000a900473ffffffffffffffffffffffffffffffffffffffff1673ffffffffffffffffffffffffffffffffffffffff16600073ffffffffffffffffffffffffffffffffffffffff167f8be0079c531659141344cd1fd0a4f28419497f9722a3daafe3b4186f6b6457e060405160405180910390a3600073ffffffffffffffffffffffffffffffffffffffff168173ffffffffffffffffffffffffffffffffffffffff16141515156200012e57600080fd5b80600560006101000a81548173ffffffffffffffffffffffffffffffffffffffff021916908373ffffffffffffffffffffffffffffffffffffffff160217905550620001886200018f640100000000026401000000009004565b506200098a565b600060036001019050606060405190810160405280600260ff1660ff168152602001600160ff1660ff168152602001600860ff1660ff168152508160008060ff1660ff168152602001908152602001600020906003620001f19291906200074d565b50602060405190810160405280600260ff1660ff16815250816000600160ff1660ff16815260200190815260200160002090600162000232929190620007fb565b50608060405190810160405280600160ff1660ff168152602001600960ff1660ff168152602001600360ff1660ff16815260200160ff801660ff16815250816000600260ff1660ff16815260200190815260200160002090600462000299929190620008a9565b50606060405190810160405280600160ff1660ff168152602001600960ff1660ff168152602001600460ff1660ff16815250816000600360ff1660ff168152602001908152602001600020906003620002f49291906200074d565b50608060405190810160405280600560ff1660ff168152602001600160ff1660ff168152602001600960ff1660ff168152602001600260ff1660ff16815250816000600460ff1660ff1681526020019081526020016000209060046200035c929190620008a9565b50606060405190810160405280600160ff1660ff168152602001600860ff1660ff168152602001600260ff1660ff16815250816000600960ff1660ff168152602001908152602001600020906003620003b79291906200074d565b50608060405190810160405280600160ff1660ff168152602001600260ff1660ff168152602001600960ff1660ff168152602001600660ff1660ff16815250816000600560ff1660ff1681526020019081526020016000209060046200041f929190620008a9565b50608060405190810160405280600760ff1660ff168152602001600160ff1660ff168152602001600960ff1660ff168152602001600260ff1660ff16815250816000600660ff1660ff16815260200190815260200160002090600462000487929190620008a9565b50606060405190810160405280600160ff1660ff168152602001600960ff1660ff168152602001600260ff1660ff16815250816000600760ff1660ff168152602001908152602001600020906003620004e29291906200074d565b50606060405190810160405280600160ff1660ff168152602001600260ff1660ff16815260200160ff801660ff16815250816000600860ff1660ff1681526020019081526020016000209060036200053c9291906200074d565b506200055b6200057d6401000000000262001770176401000000009004565b6001600360000160016101000a81548160ff021916908360ff16021790555050565b6040805190810160405280601181526020017f5f696e697453746174654d616368696e65000000000000000000000000000000815250600015156002826040518082805190602001908083835b602083101515620005f15780518252602082019150602081019050602083039250620005ca565b6001836020036101000a038019825116818451168082178552505050505050905001915050908152602001604051809103902060009054906101000a900460ff1615151415156200064157600080fd5b620006616003620006ea64010000000002620018c2176401000000009004565b60016002826040518082805190602001908083835b6020831015156200069d578051825260208201915060208101905060208303925062000676565b6001836020036101000a038019825116818451168082178552505050505050905001915050908152602001604051809103902060006101000a81548160ff02191690831515021790555050565b600015158160000160009054906101000a900460ff1615151415156200070f57600080fd5b60018160000160016101000a81548160ff021916908360ff16021790555060018160000160006101000a81548160ff02191690831515021790555050565b82805482825590600052602060002090601f01602090048101928215620007e85791602002820160005b83821115620007b757835183826101000a81548160ff021916908360ff160217905550926020019260010160208160000104928301926001030262000777565b8015620007e65782816101000a81549060ff0219169055600101602081600001049283019260010302620007b7565b505b509050620007f7919062000957565b5090565b82805482825590600052602060002090601f01602090048101928215620008965791602002820160005b838211156200086557835183826101000a81548160ff021916908360ff160217905550926020019260010160208160000104928301926001030262000825565b8015620008945782816101000a81549060ff021916905560010160208160000104928301926001030262000865565b505b509050620008a5919062000957565b5090565b82805482825590600052602060002090601f01602090048101928215620009445791602002820160005b838211156200091357835183826101000a81548160ff021916908360ff1602179055509260200192600101602081600001049283019260010302620008d3565b8015620009425782816101000a81549060ff021916905560010160208160000104928301926001030262000913565b505b50905062000953919062000957565b5090565b6200098791905b808211156200098357600081816101000a81549060ff0219169055506001016200095e565b5090565b90565b611950806200099a6000396000f3006080604052600436106101ac576000357c0100000000000000000000000000000000000000000000000000000000900463ffffffff16806306401ff4146101b15780630c3f6acf146101c85780631a0bc596146101f95780631a6b2eb1146102505780631c72fad4146102675780631d53dbed146102985780633b976974146102c957806347850cce146102fa578063481deb4e146103115780634a60442c1461034c5780635e903db0146103775780635fd8c7101461038e578063715018a6146103a557806374de5bde146103bc578063753899e9146103ed57806377c6cc38146104045780637aee7e091461041b578063822bb4d11461044c57806383197ef01461047d5780638da5cb5b146104945780638daeaa40146104eb5780638dd172a21461051e5780638f32d59b1461054f578063acf7807b1461057e578063ae897c55146105ae578063b07c7475146105df578063bb94d792146105f6578063c162bef514610626578063c80ce25d1461063d578063cc0e82c11461066e578063df12e6c31461069f578063f1bc94d2146106b6578063f2361410146106e7578063f2fde38b14610718575b600080fd5b3480156101bd57600080fd5b506101c661075b565b005b3480156101d457600080fd5b506101dd6107a3565b604051808260ff1660ff16815260200191505060405180910390f35b34801561020557600080fd5b5061020e6107bd565b604051808273ffffffffffffffffffffffffffffffffffffffff1673ffffffffffffffffffffffffffffffffffffffff16815260200191505060405180910390f35b34801561025c57600080fd5b506102656107e3565b005b34801561027357600080fd5b5061027c610914565b604051808260ff1660ff16815260200191505060405180910390f35b3480156102a457600080fd5b506102ad610919565b604051808260ff1660ff16815260200191505060405180910390f35b3480156102d557600080fd5b506102de61091e565b604051808260ff1660ff16815260200191505060405180910390f35b34801561030657600080fd5b5061030f610923565b005b34801561031d57600080fd5b5061034a600480360381019080803590602001908201803590602001919091929391929390505050610988565b005b34801561035857600080fd5b50610361610ac4565b6040518082815260200191505060405180910390f35b34801561038357600080fd5b5061038c610aca565b005b34801561039a57600080fd5b506103a3610bfa565b005b3480156103b157600080fd5b506103ba610c96565b005b3480156103c857600080fd5b506103d1610d68565b604051808260ff1660ff16815260200191505060405180910390f35b3480156103f957600080fd5b50610402610d6d565b005b34801561041057600080fd5b50610419610db5565b005b34801561042757600080fd5b5061044a6004803603810190808035600019169060200190929190505050610dfd565b005b34801561045857600080fd5b50610461610ea2565b604051808260ff1660ff16815260200191505060405180910390f35b34801561048957600080fd5b50610492610ea7565b005b3480156104a057600080fd5b506104a9610f4f565b604051808273ffffffffffffffffffffffffffffffffffffffff1673ffffffffffffffffffffffffffffffffffffffff16815260200191505060405180910390f35b3480156104f757600080fd5b50610500610f78565b60405180826000191660001916815260200191505060405180910390f35b34801561052a57600080fd5b50610533610f7e565b604051808260ff1660ff16815260200191505060405180910390f35b34801561055b57600080fd5b50610564610f83565b604051808215151515815260200191505060405180910390f35b34801561058a57600080fd5b506105ac600480360381019080803560ff169060200190929190505050610fda565b005b3480156105ba57600080fd5b506105c3611078565b604051808260ff1660ff16815260200191505060405180910390f35b3480156105eb57600080fd5b506105f461107d565b005b34801561060257600080fd5b50610624600480360381019080803560ff1690602001909291905050506111a7565b005b34801561063257600080fd5b5061063b611288565b005b34801561064957600080fd5b506106526113b8565b604051808260ff1660ff16815260200191505060405180910390f35b34801561067a57600080fd5b506106836113bd565b604051808260ff1660ff16815260200191505060405180910390f35b3480156106ab57600080fd5b506106b46113c2565b005b3480156106c257600080fd5b506106cb6114f3565b604051808260ff1660ff16815260200191505060405180910390f35b3480156106f357600080fd5b506106fc6114f8565b604051808260ff1660ff16815260200191505060405180910390f35b34801561072457600080fd5b50610759600480360381019080803573ffffffffffffffffffffffffffffffffffffffff1690602001909291905050506114fd565b005b610763610f83565b151561076e57600080fd5b60068060ff16600360000160019054906101000a900460ff1660ff1614151561079657600080fd5b6107a0600761151c565b50565b6000600360000160019054906101000a900460ff16905090565b600560009054906101000a900473ffffffffffffffffffffffffffffffffffffffff1681565b6107eb610f83565b15156107f657600080fd5b60058060ff16600360000160019054906101000a900460ff1660ff1614151561081e57600080fd5b600060010260001916600654600019161415151561083b57600080fd5b600560009054906101000a900473ffffffffffffffffffffffffffffffffffffffff1673ffffffffffffffffffffffffffffffffffffffff1663b0e79d9b600654600160006040518463ffffffff167c01000000000000000000000000000000000000000000000000000000000281526004018084600019166000191681526020018360ff168152602001821515151581526020019350505050600060405180830381600087803b1580156108ef57600080fd5b505af1158015610903573d6000803e3d6000fd5b50505050610911600261151c565b50565b600081565b600781565b600681565b61092b610f83565b151561093657600080fd5b60058060ff16600360000160019054906101000a900460ff1660ff1614151561095e57600080fd5b600060010260001916600654600019161415151561097b57600080fd5b610985600261151c565b50565b610990610f83565b151561099b57600080fd5b60078060ff16600360000160019054906101000a900460ff1660ff161415156109c357600080fd5b60006001026000191660065460001916141515156109e057600080fd5b600560009054906101000a900473ffffffffffffffffffffffffffffffffffffffff1673ffffffffffffffffffffffffffffffffffffffff1663bbcc726160065485856040518463ffffffff167c01000000000000000000000000000000000000000000000000000000000281526004018084600019166000191681526020018060200182810382528484828181526020019250808284378201915050945050505050600060405180830381600087803b158015610a9d57600080fd5b505af1158015610ab1573d6000803e3d6000fd5b50505050610abf600261151c565b505050565b60075481565b610ad2610f83565b1515610add57600080fd5b60058060ff16600360000160019054906101000a900460ff1660ff16141515610b0557600080fd5b6000600102600019166006546000191614151515610b2257600080fd5b600560009054906101000a900473ffffffffffffffffffffffffffffffffffffffff1673ffffffffffffffffffffffffffffffffffffffff1663b0e79d9b6006546001806040518463ffffffff167c01000000000000000000000000000000000000000000000000000000000281526004018084600019166000191681526020018360ff168152602001821515151581526020019350505050600060405180830381600087803b158015610bd557600080fd5b505af1158015610be9573d6000803e3d6000fd5b50505050610bf7600661151c565b50565b6000610c04610f83565b1515610c0f57600080fd5b60026001610c298282600361153e9092919063ffffffff16565b610c31610f4f565b92508273ffffffffffffffffffffffffffffffffffffffff166108fc3073ffffffffffffffffffffffffffffffffffffffff16319081150290604051600060405180830381858888f19350505050158015610c90573d6000803e3d6000fd5b50505050565b610c9e610f83565b1515610ca957600080fd5b600073ffffffffffffffffffffffffffffffffffffffff166000809054906101000a900473ffffffffffffffffffffffffffffffffffffffff1673ffffffffffffffffffffffffffffffffffffffff167f8be0079c531659141344cd1fd0a4f28419497f9722a3daafe3b4186f6b6457e060405160405180910390a360008060006101000a81548173ffffffffffffffffffffffffffffffffffffffff021916908373ffffffffffffffffffffffffffffffffffffffff160217905550565b600581565b610d75610f83565b1515610d8057600080fd5b60018060ff16600360000160019054906101000a900460ff1660ff16141515610da857600080fd5b610db2600261151c565b50565b610dbd610f83565b1515610dc857600080fd5b60048060ff16600360000160019054906101000a900460ff1660ff16141515610df057600080fd5b610dfa600561151c565b50565b600560009054906101000a900473ffffffffffffffffffffffffffffffffffffffff1673ffffffffffffffffffffffffffffffffffffffff163373ffffffffffffffffffffffffffffffffffffffff16141515610e5957600080fd5b60028060ff16600360000160019054906101000a900460ff1660ff16141515610e8157600080fd5b81600681600019169055506000600781905550610e9e600361151c565b5050565b600181565b600560009054906101000a900473ffffffffffffffffffffffffffffffffffffffff1673ffffffffffffffffffffffffffffffffffffffff163373ffffffffffffffffffffffffffffffffffffffff16141515610f0357600080fd5b7f4447806c1856b9de7671994ea8dbdc03abd565d1b8c00ffc5fa053c49bd40ecc60405160405180910390a1610f37610f4f565b73ffffffffffffffffffffffffffffffffffffffff16ff5b60008060009054906101000a900473ffffffffffffffffffffffffffffffffffffffff16905090565b60065481565b600981565b60008060009054906101000a900473ffffffffffffffffffffffffffffffffffffffff1673ffffffffffffffffffffffffffffffffffffffff163373ffffffffffffffffffffffffffffffffffffffff1614905090565b6000600360000160019054906101000a900460ff16905081600360000160016101000a81548160ff021916908360ff1602179055507fe8a97ea87e4388fa22d496b95a8ed5ced6717f49790318de2b928aaf37a021d881600360000160019054906101000a900460ff16604051808360ff1660ff1681526020018260ff1660ff1681526020019250505060405180910390a16110746115a4565b5050565b600281565b600560009054906101000a900473ffffffffffffffffffffffffffffffffffffffff1673ffffffffffffffffffffffffffffffffffffffff163373ffffffffffffffffffffffffffffffffffffffff161415156110d957600080fd5b600360ff16600360000160019054906101000a900460ff1660ff1614806111185750600460ff16600360000160019054906101000a900460ff1660ff16145b8061113b5750600560ff16600360000160019054906101000a900460ff1660ff16145b8061115e5750600660ff16600360000160019054906101000a900460ff1660ff16145b806111815750600760ff16600360000160019054906101000a900460ff1660ff16145b151561118c57600080fd5b6000600102600681600019169055506111a5600261151c565b565b6111af610f83565b15156111ba57600080fd5b8060ff16600781905550600560009054906101000a900473ffffffffffffffffffffffffffffffffffffffff1673ffffffffffffffffffffffffffffffffffffffff1663687fbdff600654836040518363ffffffff167c01000000000000000000000000000000000000000000000000000000000281526004018083600019166000191681526020018260ff1660ff16815260200192505050600060405180830381600087803b15801561126d57600080fd5b505af1158015611281573d6000803e3d6000fd5b5050505050565b611290610f83565b151561129b57600080fd5b60038060ff16600360000160019054906101000a900460ff1660ff161415156112c357600080fd5b60006001026000191660065460001916141515156112e057600080fd5b600560009054906101000a900473ffffffffffffffffffffffffffffffffffffffff1673ffffffffffffffffffffffffffffffffffffffff1663b0e79d9b6006546000806040518463ffffffff167c01000000000000000000000000000000000000000000000000000000000281526004018084600019166000191681526020018360ff168152602001821515151581526020019350505050600060405180830381600087803b15801561139357600080fd5b505af11580156113a7573d6000803e3d6000fd5b505050506113b5600261151c565b50565b600481565b60ff81565b6113ca610f83565b15156113d557600080fd5b60038060ff16600360000160019054906101000a900460ff1660ff161415156113fd57600080fd5b600060010260001916600654600019161415151561141a57600080fd5b600560009054906101000a900473ffffffffffffffffffffffffffffffffffffffff1673ffffffffffffffffffffffffffffffffffffffff1663b0e79d9b600654600060016040518463ffffffff167c01000000000000000000000000000000000000000000000000000000000281526004018084600019166000191681526020018360ff168152602001821515151581526020019350505050600060405180830381600087803b1580156114ce57600080fd5b505af11580156114e2573d6000803e3d6000fd5b505050506114f0600461151c565b50565b600881565b600381565b611505610f83565b151561151057600080fd5b611519816115a6565b50565b806115318160036116a090919063ffffffff16565b61153a82610fda565b5050565b60008090508360000160019054906101000a900460ff1660ff168360ff16141561156757600190505b8360000160019054906101000a900460ff1660ff168260ff16141561158b57600190505b6001151581151514151561159e57600080fd5b50505050565b565b600073ffffffffffffffffffffffffffffffffffffffff168173ffffffffffffffffffffffffffffffffffffffff16141515156115e257600080fd5b8073ffffffffffffffffffffffffffffffffffffffff166000809054906101000a900473ffffffffffffffffffffffffffffffffffffffff1673ffffffffffffffffffffffffffffffffffffffff167f8be0079c531659141344cd1fd0a4f28419497f9722a3daafe3b4186f6b6457e060405160405180910390a3806000806101000a81548173ffffffffffffffffffffffffffffffffffffffff021916908373ffffffffffffffffffffffffffffffffffffffff16021790555050565b600080600060ff8560000160019054906101000a900460ff1660ff16141515156116c657fe5b600092508460010160008660000160019054906101000a900460ff1660ff1660ff1681526020019081526020016000209150600090505b8180549050811015611756578360ff16828281548110151561171b57fe5b90600052602060002090602091828204019190069054906101000a900460ff1660ff16141561174957600192505b80806001019150506116fd565b6001151583151514151561176957600080fd5b5050505050565b6040805190810160405280601181526020017f5f696e697453746174654d616368696e65000000000000000000000000000000815250600015156002826040518082805190602001908083835b6020831015156117e257805182526020820191506020810190506020830392506117bd565b6001836020036101000a038019825116818451168082178552505050505050905001915050908152602001604051809103902060009054906101000a900460ff16151514151561183157600080fd5b61183b60036118c2565b60016002826040518082805190602001908083835b6020831015156118755780518252602082019150602081019050602083039250611850565b6001836020036101000a038019825116818451168082178552505050505050905001915050908152602001604051809103902060006101000a81548160ff02191690831515021790555050565b600015158160000160009054906101000a900460ff1615151415156118e657600080fd5b60018160000160016101000a81548160ff021916908360ff16021790555060018160000160006101000a81548160ff021916908315150217905550505600a165627a7a72305820deab08869bc4d1467823f805c5aff706d4c2af78f271a7acad0ab5cd206e77a60029a165627a7a7230582033c90fafda1eac39e6a61f4d43ca9536cd1011fb46a99057215582d2db8d0ed50029",
  "source": "pragma solidity ^0.4.23;\n\nimport \"../../nodes/WorkerNode.sol\";\nimport \"../managers/ICognitiveJobManager.sol\";\nimport \"./IWorkerNodeFactory.sol\";\n\ncontract WorkerNodeFactory is IWorkerNodeFactory {\n    constructor() public {}\n\n    event WorkerNodeOwner(address owner);\n    /// @dev Creates worker node contract for the main Pandora contract and does necessary preparations of it\n    /// (transferring ownership). Can be called only by a Pandora contract (Pandora is the owner of the factory)\n    function create(\n        address _nodeOwner /// Worker node owner. Contract ownership will be transferred to this owner upon creation\n    )\n    onlyOwner\n    external\n    returns (\n        WorkerNode o_workerNode /// Worker node created by the factory\n    ) {\n        // Creating node\n        o_workerNode = new WorkerNode(ICognitiveJobManager(owner()));\n\n        // Checking that it was created correctly\n        assert(o_workerNode != WorkerNode(0));\n\n        // Transferring ownership to the owner supplied by Pandora (it must be a caller of `Pandora.createWorkerNode`\n        // function\n        o_workerNode.transferOwnership(_nodeOwner);\n\n        emit WorkerNodeOwner(_nodeOwner);\n    }\n}\n",
  "sourcePath": "/home/kostysh/dev/pyrrha-consensus/contracts/pandora/factories/WorkerNodeFactory.sol",
  "compiler": {
    "name": "solc",
    "version": "0.4.24+commit.e67f0147.Emscripten.clang"
  },
  "schemaVersion": "2.0.1",
  "updatedAt": "2018-11-12T16:38:07.355Z"
}