{
  "contractName": "WorkerNode",
  "abi": [
    {
      "constant": true,
      "inputs": [],
      "name": "currentState",
      "outputs": [
        {
          "name": "",
          "type": "uint8"
        }
      ],
      "payable": false,
      "stateMutability": "view",
      "type": "function"
    },
    {
      "constant": true,
      "inputs": [],
      "name": "pandora",
      "outputs": [
        {
          "name": "",
          "type": "address"
        }
      ],
      "payable": false,
      "stateMutability": "view",
      "type": "function"
    },
    {
      "constant": true,
      "inputs": [],
      "name": "Uninitialized",
      "outputs": [
        {
          "name": "",
          "type": "uint8"
        }
      ],
      "payable": false,
      "stateMutability": "view",
      "type": "function"
    },
    {
      "constant": true,
      "inputs": [],
      "name": "Computing",
      "outputs": [
        {
          "name": "",
          "type": "uint8"
        }
      ],
      "payable": false,
      "stateMutability": "view",
      "type": "function"
    },
    {
      "constant": true,
      "inputs": [],
      "name": "ReadyForComputing",
      "outputs": [
        {
          "name": "",
          "type": "uint8"
        }
      ],
      "payable": false,
      "stateMutability": "view",
      "type": "function"
    },
    {
      "constant": true,
      "inputs": [],
      "name": "jobProgress",
      "outputs": [
        {
          "name": "",
          "type": "uint256"
        }
      ],
      "payable": false,
      "stateMutability": "view",
      "type": "function"
    },
    {
      "constant": false,
      "inputs": [],
      "name": "renounceOwnership",
      "outputs": [],
      "payable": false,
      "stateMutability": "nonpayable",
      "type": "function"
    },
    {
      "constant": true,
      "inputs": [],
      "name": "ValidatingData",
      "outputs": [
        {
          "name": "",
          "type": "uint8"
        }
      ],
      "payable": false,
      "stateMutability": "view",
      "type": "function"
    },
    {
      "constant": true,
      "inputs": [],
      "name": "Offline",
      "outputs": [
        {
          "name": "",
          "type": "uint8"
        }
      ],
      "payable": false,
      "stateMutability": "view",
      "type": "function"
    },
    {
      "constant": true,
      "inputs": [],
      "name": "owner",
      "outputs": [
        {
          "name": "",
          "type": "address"
        }
      ],
      "payable": false,
      "stateMutability": "view",
      "type": "function"
    },
    {
      "constant": true,
      "inputs": [],
      "name": "activeJob",
      "outputs": [
        {
          "name": "",
          "type": "address"
        }
      ],
      "payable": false,
      "stateMutability": "view",
      "type": "function"
    },
    {
      "constant": true,
      "inputs": [],
      "name": "UnderPenalty",
      "outputs": [
        {
          "name": "",
          "type": "uint8"
        }
      ],
      "payable": false,
      "stateMutability": "view",
      "type": "function"
    },
    {
      "constant": false,
      "inputs": [
        {
          "name": "_newState",
          "type": "uint8"
        }
      ],
      "name": "transitionToState",
      "outputs": [],
      "payable": false,
      "stateMutability": "nonpayable",
      "type": "function"
    },
    {
      "constant": true,
      "inputs": [],
      "name": "Idle",
      "outputs": [
        {
          "name": "",
          "type": "uint8"
        }
      ],
      "payable": false,
      "stateMutability": "view",
      "type": "function"
    },
    {
      "constant": true,
      "inputs": [],
      "name": "ReadyForDataValidation",
      "outputs": [
        {
          "name": "",
          "type": "uint8"
        }
      ],
      "payable": false,
      "stateMutability": "view",
      "type": "function"
    },
    {
      "constant": true,
      "inputs": [],
      "name": "Destroyed",
      "outputs": [
        {
          "name": "",
          "type": "uint8"
        }
      ],
      "payable": false,
      "stateMutability": "view",
      "type": "function"
    },
    {
      "constant": true,
      "inputs": [],
      "name": "InsufficientStake",
      "outputs": [
        {
          "name": "",
          "type": "uint8"
        }
      ],
      "payable": false,
      "stateMutability": "view",
      "type": "function"
    },
    {
      "constant": true,
      "inputs": [],
      "name": "Assigned",
      "outputs": [
        {
          "name": "",
          "type": "uint8"
        }
      ],
      "payable": false,
      "stateMutability": "view",
      "type": "function"
    },
    {
      "constant": false,
      "inputs": [
        {
          "name": "_newOwner",
          "type": "address"
        }
      ],
      "name": "transferOwnership",
      "outputs": [],
      "payable": false,
      "stateMutability": "nonpayable",
      "type": "function"
    },
    {
      "inputs": [
        {
          "name": "_pandora",
          "type": "address"
        }
      ],
      "payable": false,
      "stateMutability": "nonpayable",
      "type": "constructor"
    },
    {
      "anonymous": false,
      "inputs": [],
      "name": "WorkerDestroyed",
      "type": "event"
    },
    {
      "anonymous": false,
      "inputs": [
        {
          "indexed": false,
          "name": "oldState",
          "type": "uint8"
        },
        {
          "indexed": false,
          "name": "newState",
          "type": "uint8"
        }
      ],
      "name": "StateChanged",
      "type": "event"
    },
    {
      "anonymous": false,
      "inputs": [
        {
          "indexed": true,
          "name": "previousOwner",
          "type": "address"
        }
      ],
      "name": "OwnershipRenounced",
      "type": "event"
    },
    {
      "anonymous": false,
      "inputs": [
        {
          "indexed": true,
          "name": "previousOwner",
          "type": "address"
        },
        {
          "indexed": true,
          "name": "newOwner",
          "type": "address"
        }
      ],
      "name": "OwnershipTransferred",
      "type": "event"
    },
    {
      "constant": false,
      "inputs": [],
      "name": "destroy",
      "outputs": [],
      "payable": false,
      "stateMutability": "nonpayable",
      "type": "function"
    },
    {
      "constant": false,
      "inputs": [],
      "name": "alive",
      "outputs": [],
      "payable": false,
      "stateMutability": "nonpayable",
      "type": "function"
    },
    {
      "constant": false,
      "inputs": [
        {
          "name": "_percent",
          "type": "uint8"
        }
      ],
      "name": "reportProgress",
      "outputs": [],
      "payable": false,
      "stateMutability": "nonpayable",
      "type": "function"
    },
    {
      "constant": false,
      "inputs": [
        {
          "name": "_job",
          "type": "address"
        }
      ],
      "name": "assignJob",
      "outputs": [],
      "payable": false,
      "stateMutability": "nonpayable",
      "type": "function"
    },
    {
      "constant": false,
      "inputs": [],
      "name": "cancelJob",
      "outputs": [],
      "payable": false,
      "stateMutability": "nonpayable",
      "type": "function"
    },
    {
      "constant": false,
      "inputs": [],
      "name": "acceptAssignment",
      "outputs": [],
      "payable": false,
      "stateMutability": "nonpayable",
      "type": "function"
    },
    {
      "constant": false,
      "inputs": [],
      "name": "declineAssignment",
      "outputs": [],
      "payable": false,
      "stateMutability": "nonpayable",
      "type": "function"
    },
    {
      "constant": false,
      "inputs": [],
      "name": "processToDataValidation",
      "outputs": [],
      "payable": false,
      "stateMutability": "nonpayable",
      "type": "function"
    },
    {
      "constant": false,
      "inputs": [],
      "name": "acceptValidData",
      "outputs": [],
      "payable": false,
      "stateMutability": "nonpayable",
      "type": "function"
    },
    {
      "constant": false,
      "inputs": [],
      "name": "declineValidData",
      "outputs": [],
      "payable": false,
      "stateMutability": "nonpayable",
      "type": "function"
    },
    {
      "constant": false,
      "inputs": [],
      "name": "reportInvalidData",
      "outputs": [],
      "payable": false,
      "stateMutability": "nonpayable",
      "type": "function"
    },
    {
      "constant": false,
      "inputs": [],
      "name": "processToCognition",
      "outputs": [],
      "payable": false,
      "stateMutability": "nonpayable",
      "type": "function"
    },
    {
      "constant": false,
      "inputs": [
        {
          "name": "_ipfsAddress",
          "type": "bytes"
        }
      ],
      "name": "provideResults",
      "outputs": [],
      "payable": false,
      "stateMutability": "nonpayable",
      "type": "function"
    },
    {
      "constant": false,
      "inputs": [],
      "name": "unlockFinalizedState",
      "outputs": [],
      "payable": false,
      "stateMutability": "nonpayable",
      "type": "function"
    },
    {
      "constant": false,
      "inputs": [],
      "name": "withdrawBalance",
      "outputs": [],
      "payable": false,
      "stateMutability": "nonpayable",
      "type": "function"
    }
  ],
  "bytecode": "0x60806040523480156200001157600080fd5b5060405160208062002b6c83398101806040528101908080519060200190929190505050336000806101000a81548173ffffffffffffffffffffffffffffffffffffffff021916908373ffffffffffffffffffffffffffffffffffffffff160217905550600073ffffffffffffffffffffffffffffffffffffffff168173ffffffffffffffffffffffffffffffffffffffff1614151515620000b257600080fd5b80600660006101000a81548173ffffffffffffffffffffffffffffffffffffffff021916908373ffffffffffffffffffffffffffffffffffffffff1602179055506000600760006101000a81548173ffffffffffffffffffffffffffffffffffffffff021916908373ffffffffffffffffffffffffffffffffffffffff1602179055506200014e62000155640100000000026401000000009004565b5062000950565b600060046001019050606060405190810160405280600260ff1660ff168152602001600160ff1660ff168152602001600860ff1660ff168152508160008060ff1660ff168152602001908152602001600020906003620001b792919062000713565b50602060405190810160405280600260ff1660ff16815250816000600160ff1660ff168152602001908152602001600020906001620001f8929190620007c1565b50608060405190810160405280600160ff1660ff168152602001600960ff1660ff168152602001600360ff1660ff16815260200160ff801660ff16815250816000600260ff1660ff1681526020019081526020016000209060046200025f9291906200086f565b50606060405190810160405280600160ff1660ff168152602001600960ff1660ff168152602001600460ff1660ff16815250816000600360ff1660ff168152602001908152602001600020906003620002ba92919062000713565b50608060405190810160405280600560ff1660ff168152602001600160ff1660ff168152602001600960ff1660ff168152602001600260ff1660ff16815250816000600460ff1660ff168152602001908152602001600020906004620003229291906200086f565b50606060405190810160405280600160ff1660ff168152602001600860ff1660ff168152602001600260ff1660ff16815250816000600960ff1660ff1681526020019081526020016000209060036200037d92919062000713565b50608060405190810160405280600160ff1660ff168152602001600260ff1660ff168152602001600960ff1660ff168152602001600660ff1660ff16815250816000600560ff1660ff168152602001908152602001600020906004620003e59291906200086f565b50608060405190810160405280600760ff1660ff168152602001600160ff1660ff168152602001600960ff1660ff168152602001600260ff1660ff16815250816000600660ff1660ff1681526020019081526020016000209060046200044d9291906200086f565b50606060405190810160405280600160ff1660ff168152602001600960ff1660ff168152602001600260ff1660ff16815250816000600760ff1660ff168152602001908152602001600020906003620004a892919062000713565b50606060405190810160405280600160ff1660ff168152602001600260ff1660ff16815260200160ff801660ff16815250816000600860ff1660ff1681526020019081526020016000209060036200050292919062000713565b506200052162000543640100000000026200202c176401000000009004565b6001600460000160016101000a81548160ff021916908360ff16021790555050565b6040805190810160405280601181526020017f5f696e697453746174654d616368696e65000000000000000000000000000000815250600015156003826040518082805190602001908083835b602083101515620005b7578051825260208201915060208101905060208303925062000590565b6001836020036101000a038019825116818451168082178552505050505050905001915050908152602001604051809103902060009054906101000a900460ff1615151415156200060757600080fd5b620006276004620006b0640100000000026200217e176401000000009004565b60016003826040518082805190602001908083835b6020831015156200066357805182526020820191506020810190506020830392506200063c565b6001836020036101000a038019825116818451168082178552505050505050905001915050908152602001604051809103902060006101000a81548160ff02191690831515021790555050565b600015158160000160009054906101000a900460ff161515141515620006d557600080fd5b60018160000160016101000a81548160ff021916908360ff16021790555060018160000160006101000a81548160ff02191690831515021790555050565b82805482825590600052602060002090601f01602090048101928215620007ae5791602002820160005b838211156200077d57835183826101000a81548160ff021916908360ff16021790555092602001926001016020816000010492830192600103026200073d565b8015620007ac5782816101000a81549060ff02191690556001016020816000010492830192600103026200077d565b505b509050620007bd91906200091d565b5090565b82805482825590600052602060002090601f016020900481019282156200085c5791602002820160005b838211156200082b57835183826101000a81548160ff021916908360ff1602179055509260200192600101602081600001049283019260010302620007eb565b80156200085a5782816101000a81549060ff02191690556001016020816000010492830192600103026200082b565b505b5090506200086b91906200091d565b5090565b82805482825590600052602060002090601f016020900481019282156200090a5791602002820160005b83821115620008d957835183826101000a81548160ff021916908360ff160217905550926020019260010160208160000104928301926001030262000899565b8015620009085782816101000a81549060ff0219169055600101602081600001049283019260010302620008d9565b505b5090506200091991906200091d565b5090565b6200094d91905b808211156200094957600081816101000a81549060ff02191690555060010162000924565b5090565b90565b61220c80620009606000396000f3006080604052600436106101ac576000357c0100000000000000000000000000000000000000000000000000000000900463ffffffff16806306401ff4146101b15780630c3f6acf146101c85780631a0bc596146101f95780631a6b2eb1146102505780631c72fad4146102675780631d53dbed146102985780633b976974146102c957806347850cce146102fa578063481deb4e146103115780634a60442c1461034c5780635e903db0146103775780635fd8c7101461038e578063715018a6146103a557806374de5bde146103bc578063753899e9146103ed57806377c6cc3814610404578063822bb4d11461041b57806383197ef01461044c578063897399ae146104635780638da5cb5b146104a65780638daeaa40146104fd5780638dd172a214610554578063acf7807b14610585578063ae897c55146105b5578063b07c7475146105e6578063bb94d792146105fd578063bc1d3c1d1461062d578063c162bef514610644578063c80ce25d1461065b578063cc0e82c11461068c578063df12e6c3146106bd578063f1bc94d2146106d4578063f236141014610705578063f2fde38b14610736575b600080fd5b3480156101bd57600080fd5b506101c6610779565b005b3480156101d457600080fd5b506101dd610809565b604051808260ff1660ff16815260200191505060405180910390f35b34801561020557600080fd5b5061020e610823565b604051808273ffffffffffffffffffffffffffffffffffffffff1673ffffffffffffffffffffffffffffffffffffffff16815260200191505060405180910390f35b34801561025c57600080fd5b50610265610849565b005b34801561027357600080fd5b5061027c6109ef565b604051808260ff1660ff16815260200191505060405180910390f35b3480156102a457600080fd5b506102ad6109f4565b604051808260ff1660ff16815260200191505060405180910390f35b3480156102d557600080fd5b506102de6109f9565b604051808260ff1660ff16815260200191505060405180910390f35b34801561030657600080fd5b5061030f6109fe565b005b34801561031d57600080fd5b5061034a600480360381019080803590602001908201803590602001919091929391929390505050610ba4565b005b34801561035857600080fd5b50610361610d87565b6040518082815260200191505060405180910390f35b34801561038357600080fd5b5061038c610d8d565b005b34801561039a57600080fd5b506103a3610f33565b005b3480156103b157600080fd5b506103ba61102b565b005b3480156103c857600080fd5b506103d161112d565b604051808260ff1660ff16815260200191505060405180910390f35b3480156103f957600080fd5b50610402611132565b005b34801561041057600080fd5b506104196111c2565b005b34801561042757600080fd5b50610430611252565b604051808260ff1660ff16815260200191505060405180910390f35b34801561045857600080fd5b50610461611257565b005b34801561046f57600080fd5b506104a4600480360381019080803573ffffffffffffffffffffffffffffffffffffffff169060200190929190505050611377565b005b3480156104b257600080fd5b506104bb611656565b604051808273ffffffffffffffffffffffffffffffffffffffff1673ffffffffffffffffffffffffffffffffffffffff16815260200191505060405180910390f35b34801561050957600080fd5b5061051261167b565b604051808273ffffffffffffffffffffffffffffffffffffffff1673ffffffffffffffffffffffffffffffffffffffff16815260200191505060405180910390f35b34801561056057600080fd5b506105696116a1565b604051808260ff1660ff16815260200191505060405180910390f35b34801561059157600080fd5b506105b3600480360381019080803560ff1690602001909291905050506116a6565b005b3480156105c157600080fd5b506105ca611744565b604051808260ff1660ff16815260200191505060405180910390f35b3480156105f257600080fd5b506105fb611749565b005b34801561060957600080fd5b5061062b600480360381019080803560ff1690602001909291905050506118a6565b005b34801561063957600080fd5b506106426119bd565b005b34801561065057600080fd5b50610659611a25565b005b34801561066757600080fd5b50610670611bc1565b604051808260ff1660ff16815260200191505060405180910390f35b34801561069857600080fd5b506106a1611bc6565b604051808260ff1660ff16815260200191505060405180910390f35b3480156106c957600080fd5b506106d2611bcb565b005b3480156106e057600080fd5b506106e9611d67565b604051808260ff1660ff16815260200191505060405180910390f35b34801561071157600080fd5b5061071a611d6c565b604051808260ff1660ff16815260200191505060405180910390f35b34801561074257600080fd5b50610777600480360381019080803573ffffffffffffffffffffffffffffffffffffffff169060200190929190505050611d71565b005b6000809054906101000a900473ffffffffffffffffffffffffffffffffffffffff1673ffffffffffffffffffffffffffffffffffffffff163373ffffffffffffffffffffffffffffffffffffffff161415156107d457600080fd5b60068060ff16600460000160019054906101000a900460ff1660ff161415156107fc57600080fd5b6108066007611dd8565b50565b6000600460000160019054906101000a900460ff16905090565b600660009054906101000a900473ffffffffffffffffffffffffffffffffffffffff1681565b6000809054906101000a900473ffffffffffffffffffffffffffffffffffffffff1673ffffffffffffffffffffffffffffffffffffffff163373ffffffffffffffffffffffffffffffffffffffff161415156108a457600080fd5b60058060ff16600460000160019054906101000a900460ff1660ff161415156108cc57600080fd5b600073ffffffffffffffffffffffffffffffffffffffff16600760009054906101000a900473ffffffffffffffffffffffffffffffffffffffff1673ffffffffffffffffffffffffffffffffffffffff161415151561092a57600080fd5b600760009054906101000a900473ffffffffffffffffffffffffffffffffffffffff1673ffffffffffffffffffffffffffffffffffffffff1663b225be4260016040518263ffffffff167c0100000000000000000000000000000000000000000000000000000000028152600401808260028111156109a557fe5b60ff168152602001915050600060405180830381600087803b1580156109ca57600080fd5b505af11580156109de573d6000803e3d6000fd5b505050506109ec6002611dd8565b50565b600081565b600781565b600681565b6000809054906101000a900473ffffffffffffffffffffffffffffffffffffffff1673ffffffffffffffffffffffffffffffffffffffff163373ffffffffffffffffffffffffffffffffffffffff16141515610a5957600080fd5b60058060ff16600460000160019054906101000a900460ff1660ff16141515610a8157600080fd5b600073ffffffffffffffffffffffffffffffffffffffff16600760009054906101000a900473ffffffffffffffffffffffffffffffffffffffff1673ffffffffffffffffffffffffffffffffffffffff1614151515610adf57600080fd5b600760009054906101000a900473ffffffffffffffffffffffffffffffffffffffff1673ffffffffffffffffffffffffffffffffffffffff1663b225be4260026040518263ffffffff167c010000000000000000000000000000000000000000000000000000000002815260040180826002811115610b5a57fe5b60ff168152602001915050600060405180830381600087803b158015610b7f57600080fd5b505af1158015610b93573d6000803e3d6000fd5b50505050610ba16002611dd8565b50565b60008060009054906101000a900473ffffffffffffffffffffffffffffffffffffffff1673ffffffffffffffffffffffffffffffffffffffff163373ffffffffffffffffffffffffffffffffffffffff16141515610c0157600080fd5b60078060ff16600460000160019054906101000a900460ff1660ff16141515610c2957600080fd5b600073ffffffffffffffffffffffffffffffffffffffff16600760009054906101000a900473ffffffffffffffffffffffffffffffffffffffff1673ffffffffffffffffffffffffffffffffffffffff1614151515610c8757600080fd5b600760009054906101000a900473ffffffffffffffffffffffffffffffffffffffff1673ffffffffffffffffffffffffffffffffffffffff16634e6b42a885856040518363ffffffff167c01000000000000000000000000000000000000000000000000000000000281526004018080602001828103825284848281815260200192508082843782019150509350505050602060405180830381600087803b158015610d3257600080fd5b505af1158015610d46573d6000803e3d6000fd5b505050506040513d6020811015610d5c57600080fd5b81019080805190602001909291905050509150811515610d8157610d806002611dd8565b5b50505050565b60085481565b6000809054906101000a900473ffffffffffffffffffffffffffffffffffffffff1673ffffffffffffffffffffffffffffffffffffffff163373ffffffffffffffffffffffffffffffffffffffff16141515610de857600080fd5b60058060ff16600460000160019054906101000a900460ff1660ff16141515610e1057600080fd5b600073ffffffffffffffffffffffffffffffffffffffff16600760009054906101000a900473ffffffffffffffffffffffffffffffffffffffff1673ffffffffffffffffffffffffffffffffffffffff1614151515610e6e57600080fd5b600760009054906101000a900473ffffffffffffffffffffffffffffffffffffffff1673ffffffffffffffffffffffffffffffffffffffff1663b225be4260006040518263ffffffff167c010000000000000000000000000000000000000000000000000000000002815260040180826002811115610ee957fe5b60ff168152602001915050600060405180830381600087803b158015610f0e57600080fd5b505af1158015610f22573d6000803e3d6000fd5b50505050610f306006611dd8565b50565b6000809054906101000a900473ffffffffffffffffffffffffffffffffffffffff1673ffffffffffffffffffffffffffffffffffffffff163373ffffffffffffffffffffffffffffffffffffffff16141515610f8e57600080fd5b60026001610fa882826004611dfa9092919063ffffffff16565b6000809054906101000a900473ffffffffffffffffffffffffffffffffffffffff1673ffffffffffffffffffffffffffffffffffffffff166108fc3073ffffffffffffffffffffffffffffffffffffffff16319081150290604051600060405180830381858888f19350505050158015611026573d6000803e3d6000fd5b505050565b6000809054906101000a900473ffffffffffffffffffffffffffffffffffffffff1673ffffffffffffffffffffffffffffffffffffffff163373ffffffffffffffffffffffffffffffffffffffff1614151561108657600080fd5b6000809054906101000a900473ffffffffffffffffffffffffffffffffffffffff1673ffffffffffffffffffffffffffffffffffffffff167ff8df31144d9c2f0f6b59d69b8b98abd5459d07f2742c4df920b25aae33c6482060405160405180910390a260008060006101000a81548173ffffffffffffffffffffffffffffffffffffffff021916908373ffffffffffffffffffffffffffffffffffffffff160217905550565b600581565b6000809054906101000a900473ffffffffffffffffffffffffffffffffffffffff1673ffffffffffffffffffffffffffffffffffffffff163373ffffffffffffffffffffffffffffffffffffffff1614151561118d57600080fd5b60018060ff16600460000160019054906101000a900460ff1660ff161415156111b557600080fd5b6111bf6002611dd8565b50565b6000809054906101000a900473ffffffffffffffffffffffffffffffffffffffff1673ffffffffffffffffffffffffffffffffffffffff163373ffffffffffffffffffffffffffffffffffffffff1614151561121d57600080fd5b60048060ff16600460000160019054906101000a900460ff1660ff1614151561124557600080fd5b61124f6005611dd8565b50565b600181565b600073ffffffffffffffffffffffffffffffffffffffff16600660009054906101000a900473ffffffffffffffffffffffffffffffffffffffff1673ffffffffffffffffffffffffffffffffffffffff16141515156112b557600080fd5b600660009054906101000a900473ffffffffffffffffffffffffffffffffffffffff1673ffffffffffffffffffffffffffffffffffffffff163373ffffffffffffffffffffffffffffffffffffffff1614151561131157600080fd5b7f4447806c1856b9de7671994ea8dbdc03abd565d1b8c00ffc5fa053c49bd40ecc60405160405180910390a16000809054906101000a900473ffffffffffffffffffffffffffffffffffffffff1673ffffffffffffffffffffffffffffffffffffffff16ff5b60008073ffffffffffffffffffffffffffffffffffffffff16600660009054906101000a900473ffffffffffffffffffffffffffffffffffffffff1673ffffffffffffffffffffffffffffffffffffffff16141515156113d657600080fd5b3390508073ffffffffffffffffffffffffffffffffffffffff16631a0bc5966040518163ffffffff167c0100000000000000000000000000000000000000000000000000000000028152600401602060405180830381600087803b15801561143d57600080fd5b505af1158015611451573d6000803e3d6000fd5b505050506040513d602081101561146757600080fd5b810190808051906020019092919050505073ffffffffffffffffffffffffffffffffffffffff16600660009054906101000a900473ffffffffffffffffffffffffffffffffffffffff1673ffffffffffffffffffffffffffffffffffffffff161415156114d357600080fd5b600660009054906101000a900473ffffffffffffffffffffffffffffffffffffffff1673ffffffffffffffffffffffffffffffffffffffff16630ba58574826040518263ffffffff167c0100000000000000000000000000000000000000000000000000000000028152600401808273ffffffffffffffffffffffffffffffffffffffff1673ffffffffffffffffffffffffffffffffffffffff168152602001915050602060405180830381600087803b15801561159057600080fd5b505af11580156115a4573d6000803e3d6000fd5b505050506040513d60208110156115ba57600080fd5b810190808051906020019092919050505015156115d657600080fd5b60028060ff16600460000160019054906101000a900460ff1660ff161415156115fe57600080fd5b82600760006101000a81548173ffffffffffffffffffffffffffffffffffffffff021916908373ffffffffffffffffffffffffffffffffffffffff16021790555060006008819055506116516003611dd8565b505050565b6000809054906101000a900473ffffffffffffffffffffffffffffffffffffffff1681565b600760009054906101000a900473ffffffffffffffffffffffffffffffffffffffff1681565b600981565b6000600460000160019054906101000a900460ff16905081600460000160016101000a81548160ff021916908360ff1602179055507fe8a97ea87e4388fa22d496b95a8ed5ced6717f49790318de2b928aaf37a021d881600460000160019054906101000a900460ff16604051808360ff1660ff1681526020018260ff1660ff1681526020019250505060405180910390a1611740611e60565b5050565b600281565b600760009054906101000a900473ffffffffffffffffffffffffffffffffffffffff1673ffffffffffffffffffffffffffffffffffffffff163373ffffffffffffffffffffffffffffffffffffffff161415156117a557600080fd5b600360ff16600460000160019054906101000a900460ff1660ff1614806117e45750600460ff16600460000160019054906101000a900460ff1660ff16145b806118075750600560ff16600460000160019054906101000a900460ff1660ff16145b8061182a5750600660ff16600460000160019054906101000a900460ff1660ff16145b8061184d5750600760ff16600460000160019054906101000a900460ff1660ff16145b151561185857600080fd5b6000600760006101000a81548173ffffffffffffffffffffffffffffffffffffffff021916908373ffffffffffffffffffffffffffffffffffffffff1602179055506118a46002611dd8565b565b6000809054906101000a900473ffffffffffffffffffffffffffffffffffffffff1673ffffffffffffffffffffffffffffffffffffffff163373ffffffffffffffffffffffffffffffffffffffff1614151561190157600080fd5b8060ff16600881905550600760009054906101000a900473ffffffffffffffffffffffffffffffffffffffff1673ffffffffffffffffffffffffffffffffffffffff16636936087d826040518263ffffffff167c0100000000000000000000000000000000000000000000000000000000028152600401808260ff1660ff168152602001915050600060405180830381600087803b1580156119a257600080fd5b505af11580156119b6573d6000803e3d6000fd5b5050505050565b600760009054906101000a900473ffffffffffffffffffffffffffffffffffffffff1673ffffffffffffffffffffffffffffffffffffffff163373ffffffffffffffffffffffffffffffffffffffff16141515611a1957600080fd5b611a236002611dd8565b565b6000809054906101000a900473ffffffffffffffffffffffffffffffffffffffff1673ffffffffffffffffffffffffffffffffffffffff163373ffffffffffffffffffffffffffffffffffffffff16141515611a8057600080fd5b60038060ff16600460000160019054906101000a900460ff1660ff16141515611aa857600080fd5b600073ffffffffffffffffffffffffffffffffffffffff16600760009054906101000a900473ffffffffffffffffffffffffffffffffffffffff1673ffffffffffffffffffffffffffffffffffffffff1614151515611b0657600080fd5b600760009054906101000a900473ffffffffffffffffffffffffffffffffffffffff1673ffffffffffffffffffffffffffffffffffffffff166364d3414c60006040518263ffffffff167c01000000000000000000000000000000000000000000000000000000000281526004018082151515158152602001915050600060405180830381600087803b158015611b9c57600080fd5b505af1158015611bb0573d6000803e3d6000fd5b50505050611bbe6002611dd8565b50565b600481565b60ff81565b6000809054906101000a900473ffffffffffffffffffffffffffffffffffffffff1673ffffffffffffffffffffffffffffffffffffffff163373ffffffffffffffffffffffffffffffffffffffff16141515611c2657600080fd5b60038060ff16600460000160019054906101000a900460ff1660ff16141515611c4e57600080fd5b600073ffffffffffffffffffffffffffffffffffffffff16600760009054906101000a900473ffffffffffffffffffffffffffffffffffffffff1673ffffffffffffffffffffffffffffffffffffffff1614151515611cac57600080fd5b600760009054906101000a900473ffffffffffffffffffffffffffffffffffffffff1673ffffffffffffffffffffffffffffffffffffffff166364d3414c60016040518263ffffffff167c01000000000000000000000000000000000000000000000000000000000281526004018082151515158152602001915050600060405180830381600087803b158015611d4257600080fd5b505af1158015611d56573d6000803e3d6000fd5b50505050611d646004611dd8565b50565b600881565b600381565b6000809054906101000a900473ffffffffffffffffffffffffffffffffffffffff1673ffffffffffffffffffffffffffffffffffffffff163373ffffffffffffffffffffffffffffffffffffffff16141515611dcc57600080fd5b611dd581611e62565b50565b80611ded816004611f5c90919063ffffffff16565b611df6826116a6565b5050565b60008090508360000160019054906101000a900460ff1660ff168360ff161415611e2357600190505b8360000160019054906101000a900460ff1660ff168260ff161415611e4757600190505b60011515811515141515611e5a57600080fd5b50505050565b565b600073ffffffffffffffffffffffffffffffffffffffff168173ffffffffffffffffffffffffffffffffffffffff1614151515611e9e57600080fd5b8073ffffffffffffffffffffffffffffffffffffffff166000809054906101000a900473ffffffffffffffffffffffffffffffffffffffff1673ffffffffffffffffffffffffffffffffffffffff167f8be0079c531659141344cd1fd0a4f28419497f9722a3daafe3b4186f6b6457e060405160405180910390a3806000806101000a81548173ffffffffffffffffffffffffffffffffffffffff021916908373ffffffffffffffffffffffffffffffffffffffff16021790555050565b600080600060ff8560000160019054906101000a900460ff1660ff1614151515611f8257fe5b600092508460010160008660000160019054906101000a900460ff1660ff1660ff1681526020019081526020016000209150600090505b8180549050811015612012578360ff168282815481101515611fd757fe5b90600052602060002090602091828204019190069054906101000a900460ff1660ff16141561200557600192505b8080600101915050611fb9565b6001151583151514151561202557600080fd5b5050505050565b6040805190810160405280601181526020017f5f696e697453746174654d616368696e65000000000000000000000000000000815250600015156003826040518082805190602001908083835b60208310151561209e5780518252602082019150602081019050602083039250612079565b6001836020036101000a038019825116818451168082178552505050505050905001915050908152602001604051809103902060009054906101000a900460ff1615151415156120ed57600080fd5b6120f7600461217e565b60016003826040518082805190602001908083835b602083101515612131578051825260208201915060208101905060208303925061210c565b6001836020036101000a038019825116818451168082178552505050505050905001915050908152602001604051809103902060006101000a81548160ff02191690831515021790555050565b600015158160000160009054906101000a900460ff1615151415156121a257600080fd5b60018160000160016101000a81548160ff021916908360ff16021790555060018160000160006101000a81548160ff021916908315150217905550505600a165627a7a72305820bbcc485396aff28b5804946f839dcb959351348e842e55f068495d5ae24bf8fe0029",
  "source": "pragma solidity ^0.4.23;\r\n\r\nimport \"../libraries/StateMachine.sol\";\r\nimport \"../pandora/IPandora.sol\";\r\nimport \"../jobs/IComputingJob.sol\";\r\nimport \"./IWorkerNode.sol\";\r\n\r\n/**\r\n * @title Worker Node Smart Contract\r\n * @author \"Dr Maxim Orlovsky\" <orlovsky@pandora.foundation>\r\n *\r\n * @dev # Worker Node Smart Contract\r\n *\r\n * Worker node contract accumulates funds/payments for performed cognitive work and contains inalienable reputation.\r\n * Note: In Pyrrha there is no mining. In the following versions all mined coins will be also assigned to the\r\n * `WorkerNode` contract\r\n *\r\n * Worker node acts as a state machine and each its function can be evoked only in some certain states. That\"s\r\n * why each function must have state machine-controlled function modifiers. Contract state is managed by\r\n * - Worker node code (second level of consensus)\r\n * - Main Pandora contract [Pandora.sol]\r\n * - Worker node contract itself\r\n */\r\n\r\ncontract WorkerNode is IWorkerNode, StateMachine /* final */ {\r\n    /**\r\n     * ## State Machine extensions\r\n     */\r\n\r\n    /// @dev Modifier requiring contract to be preset in one of the active states (`Assigned`, `ReadyForDataValidation`,\r\n    /// `ValidatingData`, `ReadyForComputing`, `Computing`); otherwise an exception is generated and the function\r\n    /// does not execute\r\n    modifier requireActiveStates() {\r\n        require(\r\n            stateMachine.currentState == Assigned ||\r\n            stateMachine.currentState == ReadyForDataValidation ||\r\n            stateMachine.currentState == ValidatingData ||\r\n            stateMachine.currentState == ReadyForComputing ||\r\n            stateMachine.currentState == Computing);\r\n        _;\r\n    }\r\n\r\n    /// @dev Private method initializing state machine. Must be called only once from the contract constructor\r\n    function _initStateMachine() internal {\r\n        // Creating table of possible state transitions\r\n        mapping(uint8 => uint8[]) transitions = stateMachine.transitionTable;\r\n        transitions[Uninitialized] = [Idle, Offline, InsufficientStake];\r\n        transitions[Offline] = [Idle];\r\n        transitions[Idle] = [Offline, UnderPenalty, Assigned, Destroyed];\r\n        transitions[Assigned] = [Offline, UnderPenalty, ReadyForDataValidation];\r\n        transitions[ReadyForDataValidation] = [ValidatingData, Offline, UnderPenalty, Idle];\r\n        transitions[UnderPenalty] = [Offline, InsufficientStake, Idle];\r\n        transitions[ValidatingData] = [Offline, Idle, UnderPenalty, ReadyForComputing];\r\n        transitions[ReadyForComputing] = [Computing, Offline, UnderPenalty, Idle];\r\n        transitions[Computing] = [Offline, UnderPenalty, Idle];\r\n        transitions[InsufficientStake] = [Offline, Idle, Destroyed];\r\n\r\n        // Initializing state machine via base contract code\r\n        super._initStateMachine();\r\n\r\n        // Going into initial state (Offline)\r\n        stateMachine.currentState = Offline;\r\n    }\r\n\r\n    /**\r\n     * ## Main implementation\r\n     */\r\n\r\n    /// ### Public variables\r\n\r\n\r\n    /// @notice Reference to the main Pandora contract.\r\n    /// @dev Required to check the validity of the method calls coming from the Pandora contract.\r\n    /// Initialy set from the address supplied to the constructor and can\"t be changed after.\r\n    IPandora public pandora;\r\n\r\n    /// @notice Active cognitive job reference. Zero when there is no active cognitive job assigned or performed\r\n    /// @dev Valid (non-zero) only for active states (see `activeStates` modified for the list of such states)\r\n    IComputingJob public activeJob;\r\n\r\n\t/// @notice Progress of completing current active job batch, should be updated by node itself\r\n    uint256 public jobProgress;\r\n\r\n    event WorkerDestroyed();\r\n\r\n    /// ### Constructor and destructor\r\n\r\n    constructor(\r\n        IPandora _pandora /// Reference to the main Pandora contract that creates Worker Node\r\n    )\r\n    public {\r\n        require(_pandora != address(0));\r\n        pandora = _pandora;\r\n\r\n        // There should be no active cognitive job upon contract creation\r\n        activeJob = IComputingJob(0);\r\n\r\n        // Initialize state machine (state transition table and initial state). Always must be performed at the very\r\n        // end of contract constructor code.\r\n        _initStateMachine();\r\n    }\r\n\r\n    /// ### Function modifiers\r\n\r\n    /// @dev Modifier for functions that can be called only by the main Pandora contract\r\n    modifier onlyPandora() {\r\n        require(pandora != address(0));\r\n        require(msg.sender == address(pandora));\r\n        _;\r\n    }\r\n\r\n    /// @dev Modifier for functions that can be called only by one of the active cognitive jobs performed under\r\n    /// main Pandora contract. It includes jobs _not_ assigned to the worker node\r\n    modifier onlyCognitiveJob() {\r\n        require(pandora != address(0));\r\n        IComputingJob sender = IComputingJob(msg.sender);\r\n        require(pandora == sender.pandora());\r\n        require(pandora.isActiveJob(sender));\r\n        _;\r\n    }\r\n\r\n    /// @dev Modifier for functions that can be called only by the cognitive job assigned or performed by the worker\r\n    /// node in one of its active states\r\n    modifier onlyActiveCognitiveJob() {\r\n        require(msg.sender == address(activeJob));\r\n        _;\r\n    }\r\n\r\n    /// ### External and public functions\r\n\r\n    function destroy()\r\n        external\r\n        onlyPandora\r\n    {\r\n        /// Call event before doing the actual contract suicide\r\n        emit WorkerDestroyed();\r\n\r\n        /// Suiciding\r\n        selfdestruct(owner);\r\n    }\r\n\r\n    function alive() external\r\n        onlyOwner\r\n        requireState(Offline)\r\n    {\r\n        _transitionToState(Idle);\r\n    }\r\n\r\n    function reportProgress(uint8 _percent) external\r\n        onlyOwner\r\n    {\r\n        jobProgress = _percent;\r\n        activeJob.commitProgress(_percent);\r\n    }\r\n\r\n    /// @notice Do not call\r\n    /// @dev Assigns cognitive job to the worker. Can be called only by one of active cognitive jobs listed under\r\n    /// the main Pandora contract\r\n    function assignJob(\r\n        /// @dev Cognitive job to be assigned\r\n        IComputingJob _job\r\n    ) external // Can\"t be called internally\r\n        /// @dev Must be called only by one of active cognitive jobs listed under the main Pandora contract\r\n        onlyCognitiveJob\r\n        /// @dev Job can be assigned only to Idle workers\r\n        requireState(Idle)\r\n    {\r\n        activeJob = _job;\r\n        jobProgress = 0;\r\n        _transitionToState(Assigned);\r\n    }\r\n\r\n    function cancelJob() external\r\n        onlyActiveCognitiveJob\r\n        requireActiveStates\r\n    {\r\n        activeJob = IComputingJob(0);\r\n        _transitionToState(Idle);\r\n    }\r\n\r\n    function acceptAssignment() external\r\n        onlyOwner\r\n        requireState(Assigned)\r\n    {\r\n        require(activeJob != IComputingJob(0));\r\n        activeJob.gatheringWorkersResponse(true);\r\n        _transitionToState(ReadyForDataValidation);\r\n    }\r\n\r\n    function declineAssignment() external\r\n        onlyOwner\r\n        requireState(Assigned)\r\n    {\r\n        require(activeJob != IComputingJob(0));\r\n        activeJob.gatheringWorkersResponse(false);\r\n        _transitionToState(Idle);\r\n    }\r\n\r\n    function processToDataValidation() external\r\n        onlyOwner\r\n        requireState(ReadyForDataValidation)\r\n    {\r\n        _transitionToState(ValidatingData);\r\n    }\r\n\r\n    function acceptValidData() external\r\n        onlyOwner\r\n        requireState(ValidatingData)\r\n    {\r\n        require(activeJob != IComputingJob(0));\r\n        activeJob.dataValidationResponse(IComputingJob.DataValidationResponse.Accept);\r\n        _transitionToState(ReadyForComputing);\r\n    }\r\n\r\n    function declineValidData() external\r\n        onlyOwner\r\n        requireState(ValidatingData)\r\n    {\r\n        require(activeJob != IComputingJob(0));\r\n        activeJob.dataValidationResponse(IComputingJob.DataValidationResponse.Decline);\r\n        _transitionToState(Idle);\r\n    }\r\n\r\n    function reportInvalidData() external\r\n        onlyOwner\r\n        requireState(ValidatingData)\r\n    {\r\n        require(activeJob != IComputingJob(0));\r\n        activeJob.dataValidationResponse(IComputingJob.DataValidationResponse.Invalid);\r\n        _transitionToState(Idle);\r\n    }\r\n\r\n    function processToCognition() external\r\n        onlyOwner\r\n        requireState(ReadyForComputing)\r\n    {\r\n        _transitionToState(Computing);\r\n    }\r\n\r\n    ///Job is considered completed, when every worker finalize. The last one, who submits results should chech the\r\n    ///Pandora job queue, in case it doesn't do this - it couldn't switch to idle state.\r\n    function provideResults(\r\n        bytes _ipfsAddress\r\n    ) external\r\n        onlyOwner\r\n        requireState(Computing)\r\n    {\r\n        require(activeJob != IComputingJob(0));\r\n        bool isFinalized = activeJob.completeWork(_ipfsAddress);\r\n        if (!isFinalized) {\r\n            _transitionToState(Idle);\r\n        }\r\n    }\r\n\r\n    function unlockFinalizedState()\r\n    external\r\n    onlyActiveCognitiveJob\r\n    {\r\n        _transitionToState(Idle);\r\n    }\r\n\r\n    /// @notice Withdraws full balance to the owner account. Can be called only by the owner of the contract.\r\n    function withdrawBalance() external\r\n        onlyOwner // Can be called only by the owner\r\n        requireStates2(Idle, Offline)\r\n    {\r\n        /// @todo Handle stakes etc\r\n        owner.transfer(address(this).balance);\r\n    }\r\n\r\n    function _transitionToState(uint8 _newState) private requireAllowedTransition(_newState)  {\r\n        transitionToState(_newState);\r\n    }\r\n}\r\n",
  "sourcePath": "C:\\Users\\Oleksii\\Pandora\\pyrrha-consensus\\contracts\\nodes\\WorkerNode.sol",
  "compiler": {
    "name": "solc",
    "version": "0.4.24+commit.e67f0147.Emscripten.clang"
  },
  "schemaVersion": "2.0.1",
  "updatedAt": "2018-06-29T20:49:42.344Z"
}