{
  "contractName": "WorkerNodeManager",
  "abi": [
    {
      "constant": true,
      "inputs": [],
      "name": "initialized",
      "outputs": [
        {
          "name": "",
          "type": "bool"
        }
      ],
      "payable": false,
      "stateMutability": "view",
      "type": "function"
    },
    {
      "constant": true,
      "inputs": [
        {
          "name": "",
          "type": "uint256"
        }
      ],
      "name": "workerNodes",
      "outputs": [
        {
          "name": "",
          "type": "address"
        }
      ],
      "payable": false,
      "stateMutability": "view",
      "type": "function"
    },
    {
      "constant": true,
      "inputs": [
        {
          "name": "",
          "type": "address"
        }
      ],
      "name": "workerNodeOwners",
      "outputs": [
        {
          "name": "",
          "type": "bool"
        }
      ],
      "payable": false,
      "stateMutability": "view",
      "type": "function"
    },
    {
      "constant": false,
      "inputs": [],
      "name": "initialize",
      "outputs": [],
      "payable": false,
      "stateMutability": "nonpayable",
      "type": "function"
    },
    {
      "constant": true,
      "inputs": [],
      "name": "owner",
      "outputs": [
        {
          "name": "",
          "type": "address"
        }
      ],
      "payable": false,
      "stateMutability": "view",
      "type": "function"
    },
    {
      "constant": false,
      "inputs": [
        {
          "name": "newOwner",
          "type": "address"
        }
      ],
      "name": "transferOwnership",
      "outputs": [],
      "payable": false,
      "stateMutability": "nonpayable",
      "type": "function"
    },
    {
      "constant": true,
      "inputs": [],
      "name": "workerNodeFactory",
      "outputs": [
        {
          "name": "",
          "type": "address"
        }
      ],
      "payable": false,
      "stateMutability": "view",
      "type": "function"
    },
    {
      "constant": true,
      "inputs": [
        {
          "name": "",
          "type": "address"
        }
      ],
      "name": "workerAddresses",
      "outputs": [
        {
          "name": "",
          "type": "uint16"
        }
      ],
      "payable": false,
      "stateMutability": "view",
      "type": "function"
    },
    {
      "inputs": [
        {
          "name": "_nodeFactory",
          "type": "address"
        }
      ],
      "payable": false,
      "stateMutability": "nonpayable",
      "type": "constructor"
    },
    {
      "anonymous": false,
      "inputs": [
        {
          "indexed": false,
          "name": "workerNode",
          "type": "address"
        }
      ],
      "name": "WorkerNodeCreated",
      "type": "event"
    },
    {
      "anonymous": false,
      "inputs": [
        {
          "indexed": false,
          "name": "workerNode",
          "type": "address"
        }
      ],
      "name": "WorkerNodeDestroyed",
      "type": "event"
    },
    {
      "anonymous": false,
      "inputs": [
        {
          "indexed": true,
          "name": "previousOwner",
          "type": "address"
        },
        {
          "indexed": true,
          "name": "newOwner",
          "type": "address"
        }
      ],
      "name": "OwnershipTransferred",
      "type": "event"
    },
    {
      "constant": false,
      "inputs": [
        {
          "name": "_workerOwner",
          "type": "address"
        }
      ],
      "name": "whitelistWorkerOwner",
      "outputs": [],
      "payable": false,
      "stateMutability": "nonpayable",
      "type": "function"
    },
    {
      "constant": false,
      "inputs": [
        {
          "name": "_workerOwner",
          "type": "address"
        }
      ],
      "name": "blacklistWorkerOwner",
      "outputs": [],
      "payable": false,
      "stateMutability": "nonpayable",
      "type": "function"
    },
    {
      "constant": true,
      "inputs": [],
      "name": "workerNodesCount",
      "outputs": [
        {
          "name": "",
          "type": "uint256"
        }
      ],
      "payable": false,
      "stateMutability": "view",
      "type": "function"
    },
    {
      "constant": false,
      "inputs": [],
      "name": "createWorkerNode",
      "outputs": [
        {
          "name": "",
          "type": "address"
        }
      ],
      "payable": false,
      "stateMutability": "nonpayable",
      "type": "function"
    },
    {
      "constant": false,
      "inputs": [
        {
          "name": "_guiltyWorker",
          "type": "address"
        },
        {
          "name": "_reason",
          "type": "uint8"
        }
      ],
      "name": "penaltizeWorkerNode",
      "outputs": [],
      "payable": false,
      "stateMutability": "nonpayable",
      "type": "function"
    },
    {
      "constant": false,
      "inputs": [
        {
          "name": "_workerNode",
          "type": "address"
        }
      ],
      "name": "destroyWorkerNode",
      "outputs": [],
      "payable": false,
      "stateMutability": "nonpayable",
      "type": "function"
    }
  ],
  "bytecode": "0x608060405260008060006101000a81548160ff02191690831515021790555034801561002a57600080fd5b506040516020806112db8339810180604052810190808051906020019092919050505060008060006101000a81548160ff02191690831515021790555033600060016101000a81548173ffffffffffffffffffffffffffffffffffffffff021916908373ffffffffffffffffffffffffffffffffffffffff160217905550600073ffffffffffffffffffffffffffffffffffffffff168173ffffffffffffffffffffffffffffffffffffffff16141515156100e457600080fd5b80600460006101000a81548173ffffffffffffffffffffffffffffffffffffffff021916908373ffffffffffffffffffffffffffffffffffffffff160217905550506111a6806101356000396000f3006080604052600436106100d0576000357c0100000000000000000000000000000000000000000000000000000000900463ffffffff1680630e3b581f146100d557806313b5165f14610100578063158ef93e146101435780631dc20af4146101725780635ef17776146101df57806370064e331461022f5780637b3c611c1461028a5780638129fc1c146102cd57806386b07332146102e45780638da5cb5b1461033b578063ae1092ae14610392578063f2fde38b146103d5578063f9d84ade14610418578063fdb5b8d41461046f575b600080fd5b3480156100e157600080fd5b506100ea6104ce565b6040518082815260200191505060405180910390f35b34801561010c57600080fd5b50610141600480360381019080803573ffffffffffffffffffffffffffffffffffffffff1690602001909291905050506104fc565b005b34801561014f57600080fd5b506101586105b3565b604051808215151515815260200191505060405180910390f35b34801561017e57600080fd5b5061019d600480360381019080803590602001909291905050506105c5565b604051808273ffffffffffffffffffffffffffffffffffffffff1673ffffffffffffffffffffffffffffffffffffffff16815260200191505060405180910390f35b3480156101eb57600080fd5b5061022d600480360381019080803573ffffffffffffffffffffffffffffffffffffffff169060200190929190803560ff169060200190929190505050610603565b005b34801561023b57600080fd5b50610270600480360381019080803573ffffffffffffffffffffffffffffffffffffffff169060200190929190505050610628565b604051808215151515815260200191505060405180910390f35b34801561029657600080fd5b506102cb600480360381019080803573ffffffffffffffffffffffffffffffffffffffff169060200190929190505050610648565b005b3480156102d957600080fd5b506102e26106f6565b005b3480156102f057600080fd5b506102f9610712565b604051808273ffffffffffffffffffffffffffffffffffffffff1673ffffffffffffffffffffffffffffffffffffffff16815260200191505060405180910390f35b34801561034757600080fd5b50610350610a12565b604051808273ffffffffffffffffffffffffffffffffffffffff1673ffffffffffffffffffffffffffffffffffffffff16815260200191505060405180910390f35b34801561039e57600080fd5b506103d3600480360381019080803573ffffffffffffffffffffffffffffffffffffffff169060200190929190505050610a38565b005b3480156103e157600080fd5b50610416600480360381019080803573ffffffffffffffffffffffffffffffffffffffff169060200190929190505050610f8a565b005b34801561042457600080fd5b5061042d6110e2565b604051808273ffffffffffffffffffffffffffffffffffffffff1673ffffffffffffffffffffffffffffffffffffffff16815260200191505060405180910390f35b34801561047b57600080fd5b506104b0600480360381019080803573ffffffffffffffffffffffffffffffffffffffff169060200190929190505050611108565b604051808261ffff1661ffff16815260200191505060405180910390f35b6000600115156000809054906101000a900460ff1615151415156104f157600080fd5b600580549050905090565b600060019054906101000a900473ffffffffffffffffffffffffffffffffffffffff1673ffffffffffffffffffffffffffffffffffffffff163373ffffffffffffffffffffffffffffffffffffffff1614151561055857600080fd5b6001600760008373ffffffffffffffffffffffffffffffffffffffff1673ffffffffffffffffffffffffffffffffffffffff16815260200190815260200160002060006101000a81548160ff02191690831515021790555050565b6000809054906101000a900460ff1681565b6005818154811015156105d457fe5b906000526020600020016000915054906101000a900473ffffffffffffffffffffffffffffffffffffffff1681565b600115156000809054906101000a900460ff16151514151561062457600080fd5b5050565b60076020528060005260406000206000915054906101000a900460ff1681565b600060019054906101000a900473ffffffffffffffffffffffffffffffffffffffff1673ffffffffffffffffffffffffffffffffffffffff163373ffffffffffffffffffffffffffffffffffffffff161415156106a457600080fd5b600760008273ffffffffffffffffffffffffffffffffffffffff1673ffffffffffffffffffffffffffffffffffffffff16815260200190815260200160002060006101000a81549060ff021916905550565b60016000806101000a81548160ff021916908315150217905550565b6000806000600115156000809054906101000a900460ff16151514151561073857600080fd5b60011515600760003373ffffffffffffffffffffffffffffffffffffffff1673ffffffffffffffffffffffffffffffffffffffff16815260200190815260200160002060009054906101000a900460ff16151514151561079757600080fd5b3391503273ffffffffffffffffffffffffffffffffffffffff163373ffffffffffffffffffffffffffffffffffffffff161415156107d457600080fd5b600d6005805490501015156107e857600080fd5b600460009054906101000a900473ffffffffffffffffffffffffffffffffffffffff1673ffffffffffffffffffffffffffffffffffffffff16639ed93318836040518263ffffffff167c0100000000000000000000000000000000000000000000000000000000028152600401808273ffffffffffffffffffffffffffffffffffffffff1673ffffffffffffffffffffffffffffffffffffffff168152602001915050602060405180830381600087803b1580156108a557600080fd5b505af11580156108b9573d6000803e3d6000fd5b505050506040513d60208110156108cf57600080fd5b8101908080519060200190929190505050905060058190806001815401808255809150509060018203906000526020600020016000909192909190916101000a81548173ffffffffffffffffffffffffffffffffffffffff021916908373ffffffffffffffffffffffffffffffffffffffff16021790555050600580549050600660008373ffffffffffffffffffffffffffffffffffffffff1673ffffffffffffffffffffffffffffffffffffffff16815260200190815260200160002060006101000a81548161ffff021916908361ffff1602179055507f093794466f44429afc8d8ec2c4c7f42c98d5db9b3db965ce46a31e7d4f7c29c881604051808273ffffffffffffffffffffffffffffffffffffffff1673ffffffffffffffffffffffffffffffffffffffff16815260200191505060405180910390a1809250505090565b600060019054906101000a900473ffffffffffffffffffffffffffffffffffffffff1681565b60008060008360003390508173ffffffffffffffffffffffffffffffffffffffff16638da5cb5b6040518163ffffffff167c0100000000000000000000000000000000000000000000000000000000028152600401602060405180830381600087803b158015610aa757600080fd5b505af1158015610abb573d6000803e3d6000fd5b505050506040513d6020811015610ad157600080fd5b810190808051906020019092919050505073ffffffffffffffffffffffffffffffffffffffff168173ffffffffffffffffffffffffffffffffffffffff16141515610b1b57600080fd5b6000600660008373ffffffffffffffffffffffffffffffffffffffff1673ffffffffffffffffffffffffffffffffffffffff16815260200190815260200160002060009054906101000a900461ffff1661ffff16111515610b7b57600080fd5b600115156000809054906101000a900460ff161515141515610b9c57600080fd5b3394508573ffffffffffffffffffffffffffffffffffffffff1663ae897c556040518163ffffffff167c0100000000000000000000000000000000000000000000000000000000028152600401602060405180830381600087803b158015610c0357600080fd5b505af1158015610c17573d6000803e3d6000fd5b505050506040513d6020811015610c2d57600080fd5b810190808051906020019092919050505060ff168673ffffffffffffffffffffffffffffffffffffffff16630c3f6acf6040518163ffffffff167c0100000000000000000000000000000000000000000000000000000000028152600401602060405180830381600087803b158015610ca557600080fd5b505af1158015610cb9573d6000803e3d6000fd5b505050506040513d6020811015610ccf57600080fd5b810190808051906020019092919050505060ff16141515610cef57600080fd5b8573ffffffffffffffffffffffffffffffffffffffff166383197ef06040518163ffffffff167c0100000000000000000000000000000000000000000000000000000000028152600401600060405180830381600087803b158015610d5357600080fd5b505af1158015610d67573d6000803e3d6000fd5b505050506001600660008773ffffffffffffffffffffffffffffffffffffffff1673ffffffffffffffffffffffffffffffffffffffff16815260200190815260200160002060009054906101000a900461ffff16039350600660008673ffffffffffffffffffffffffffffffffffffffff1673ffffffffffffffffffffffffffffffffffffffff16815260200190815260200160002060006101000a81549061ffff02191690556005600160058054905003815481101515610e2557fe5b9060005260206000200160009054906101000a900473ffffffffffffffffffffffffffffffffffffffff1660058561ffff16815481101515610e6357fe5b9060005260206000200160006101000a81548173ffffffffffffffffffffffffffffffffffffffff021916908373ffffffffffffffffffffffffffffffffffffffff1602179055925060018401600660008573ffffffffffffffffffffffffffffffffffffffff1673ffffffffffffffffffffffffffffffffffffffff16815260200190815260200160002060006101000a81548161ffff021916908361ffff1602179055506005805480919060019003610f1e9190611129565b507f677f03e392472a48b617167ed4dbec758d26d8517257ec077bed2d27d192816486604051808273ffffffffffffffffffffffffffffffffffffffff1673ffffffffffffffffffffffffffffffffffffffff16815260200191505060405180910390a1505050505050565b600060019054906101000a900473ffffffffffffffffffffffffffffffffffffffff1673ffffffffffffffffffffffffffffffffffffffff163373ffffffffffffffffffffffffffffffffffffffff16141515610fe657600080fd5b600073ffffffffffffffffffffffffffffffffffffffff168173ffffffffffffffffffffffffffffffffffffffff161415151561102257600080fd5b8073ffffffffffffffffffffffffffffffffffffffff16600060019054906101000a900473ffffffffffffffffffffffffffffffffffffffff1673ffffffffffffffffffffffffffffffffffffffff167f8be0079c531659141344cd1fd0a4f28419497f9722a3daafe3b4186f6b6457e060405160405180910390a380600060016101000a81548173ffffffffffffffffffffffffffffffffffffffff021916908373ffffffffffffffffffffffffffffffffffffffff16021790555050565b600460009054906101000a900473ffffffffffffffffffffffffffffffffffffffff1681565b60066020528060005260406000206000915054906101000a900461ffff1681565b8154818355818111156111505781836000526020600020918201910161114f9190611155565b5b505050565b61117791905b8082111561117357600081600090555060010161115b565b5090565b905600a165627a7a72305820f298c32484c5cd8c1da8955aa2799b4edb31f3e324b15a79e3f8f6f4be0eae190029",
  "source": "pragma solidity 0.4.23;\n\nimport \"../../lifecycle/Initializable.sol\";\nimport \"./IWorkerNodeManager.sol\";\n\n/**\n * @title Pandora Smart Contract\n * @author \"Dr Maxim Orlovsky\" <orlovsky@pandora.foundation>\n *\n * @dev # Pandora Smart Contract\n *\n * Main & root contract implementing the first level of Pandora Boxchain consensus\n * See section [\"3.3. Proof of Cognitive Work (PoCW)\" in Pandora white paper](https://steemit.com/cryptocurrency/%40pandoraboxchain/world-decentralized-ai-on-blockchain-with-cognitive-mining-and-open-markets-for-data-and-algorithms-pandora-boxchain)\n * for more details.\n *\n * Contract token functionality is separated into a separate contract named PAN (after the name of the token)\n * and Pandora contracts just simply inherits PAN contract.\n */\n\ncontract WorkerNodeManager is Initializable, Ownable, IWorkerNodeManager {\n\n    /*******************************************************************************************************************\n     * ## Storage\n     */\n\n    /// ### Public variables\n\n    /// @notice Reference to a factory used in creating WorkerNode contracts\n    /// @dev Factories are used to reduce gas consumption by the main Pandora contract. Since Pandora needs to control\n    /// the code used to deploy Cognitive Jobs and Worker Nodes, it must embed all the byte code for the smart contract.\n    /// However this dramatically increases gas consumption for deploying Pandora contract itself. Thus, the\n    /// CognitiveJob smart contract is deployed by a special factory class `CognitiveJobFactory`, and a special workflow\n    /// is used to ensure uniqueness of the factories and the fact that their code source is coming from the same\n    /// address which have deployed the main Pandora contract. In particular, because of this Pandora is defined as an\n    /// `Ownable` contract and a special `initialize` function and `properlyInitialized` member variable is added.\n    WorkerNodeFactory public workerNodeFactory;\n\n    /// @notice List of registered worker nodes\n    /// @dev List of registered worker nodes\n    IWorkerNode[] public workerNodes;\n\n    /// @notice Index of registered worker nodes by their contract addresses mapping to their index in `workerNodes`.\n    /// @dev Index of registered worker nodes by their contract addresses. Used for quick checks instead of\n    /// gas-expensive search. Must have the same elements as `workerNodes`. Mapped +1 to the indexes of the contract in\n    /// `workerNodes`; zero value is reserved for the removed or non-existing workers.\n    /// At any point of time there must be less then 2^16 worker nodes.\n    mapping(address => uint16) public workerAddresses;\n\n    /// ### Private and internal variables\n\n    /// @dev Since in the initial Pyrrha release of Pandora network reputation, verification and arbitration mechanics\n    /// are under development it uses a set of pre-defined trusted addresses allowed to register worker nodes.\n    /// These are specified during initial Pandora contract deployment by the founders.\n    mapping(address => bool) public workerNodeOwners;\n\n    /*******************************************************************************************************************\n     * ## Events\n     */\n\n    /// @dev Event firing when there is another worker node created\n    event WorkerNodeCreated(IWorkerNode workerNode);\n\n    /// @dev Event firing when some worker node was destroyed\n    event WorkerNodeDestroyed(IWorkerNode workerNode);\n\n    /*******************************************************************************************************************\n     * ## Constructor and initialization\n     */\n\n    /// ### Constructor\n    /// @dev Constructor receives addresses for the owners of whitelisted worker nodes, which will be assigned an owners\n    /// of worker nodes contracts\n    constructor(\n        WorkerNodeFactory _nodeFactory /// Factory class for creating WorkerNode contracts\n    ) public {\n        // Must ensure that the supplied factories are already created contracts\n        require(_nodeFactory != address(0));\n\n        // Assign factories to storage variables\n        workerNodeFactory = _nodeFactory;\n    }\n\n    /*******************************************************************************************************************\n     * ## Modifiers\n     */\n\n    /// @dev Checks that the function is called by the one of the nodes\n    modifier onlyWorkerNodes() {\n        require(workerAddresses[msg.sender] > 0);\n        _;\n    }\n\n    /// @dev Checks that the function is called by the owner of one of the whitelisted nodes\n    modifier onlyWhitelistedOwners() {\n        // Failing if ownership conditions are not satisfied\n        require(workerNodeOwners[msg.sender] == true);\n        _;\n    }\n\n    modifier checkWorkerAndOwner(\n        IWorkerNode _workerNode\n    ) {\n        address nodeOwner = msg.sender;\n        require(nodeOwner == address(_workerNode.owner()));\n        require(workerAddresses[nodeOwner] > 0);\n        _;\n    }\n\n    /*******************************************************************************************************************\n     * ## Functions\n     */\n\n    /// ### Public and external\n\n    /// @notice Adds address to the whitelist of owners allowed to create WorkerNodes contracts\n    /// @dev Can be called only by the owner of Pandora contract\n    function whitelistWorkerOwner(\n        address _workerOwner /// Address for adding to whitelist\n    )\n    onlyOwner // Only by owner of Pandora contract\n    external {\n        // Whitelist is organised in a form of mapping with whitelisted addresses set to \"true\"\n        workerNodeOwners[_workerOwner] = true;\n    }\n\n    /// @notice Removes address from the whitelist of owners allowed to create WorkerNodes contracts\n    /// @dev Can be called only by the owner of Pandora contract\n    function blacklistWorkerOwner(\n        address _workerOwner /// Address to remove from the whitelist\n    )\n    onlyOwner\n    external {\n        // Just simply free the storage\n        delete workerNodeOwners[_workerOwner];\n    }\n\n    /// @notice Returns count of registered worker nodes\n    function workerNodesCount()\n    onlyInitialized\n    public\n    view\n    returns (\n        uint /// Count of registered worker nodes\n    ) {\n        return workerNodes.length;\n    }\n\n    /// @notice Creates, registers and returns a new worker node owned by the caller of the contract.\n    /// Can be called only by the whitelisted node owner address.\n    function createWorkerNode()\n    external\n    onlyInitialized\n    onlyWhitelistedOwners\n    returns (\n        IWorkerNode /// Address of the created worker node\n    ) {\n        address nodeOwner = msg.sender;\n\n        // Worker node can be created only be external transactions, not by internal inter-contract messages\n        require(msg.sender == tx.origin);\n\n        /// Check that we do not reach limits in the node count\n        require(workerNodes.length < 2 ^ 16 - 1);\n\n        // @todo Check the stake and bind it\n\n        // Creating worker node by using factory. See `properlyInitialized` comments for more details on factories\n        IWorkerNode workerNode = workerNodeFactory.create(nodeOwner);\n        // We do not check the created `workerNode` since all checks are done by the factory class\n        workerNodes.push(workerNode);\n        // Saving index of the node in the `workerNodes` array (index + 1, zero is reserved for non-existing values)\n        workerAddresses[address(workerNode)] = uint16(workerNodes.length);\n\n        // Firing event\n        emit WorkerNodeCreated(workerNode);\n\n        return workerNode;\n    }\n\n    function penaltizeWorkerNode(\n        IWorkerNode _guiltyWorker,\n        IWorkerNode.Penalties _reason\n    )\n    external\n        // @fixme Implement the modifier and uncomment\n    onlyInitialized {\n        /// Can be called only by the assigned cognitive job\n        /// @todo Implement penalties from the bound worker node stakes\n    }\n\n    /// @notice Removes worker from the workers list and destroys it. Can be called only by the worker node owner\n    /// and only for the idle workers\n    function destroyWorkerNode(\n        IWorkerNode _workerNode\n    )\n    external\n    checkWorkerAndOwner(_workerNode) /// Worker node can be destroyed only by its owner\n    onlyInitialized {\n        address nodeOwner = msg.sender;\n\n        /// Can be called only for the idle workers\n        require(_workerNode.currentState() == _workerNode.Idle());\n\n        /// Call worker node destroy function (can be triggered only by this Pandora contract). All balance\n        /// is transferred to the node owner.\n        /// We do this before removing worker node from the lists since we need to ensure that the node didn\"t\n        /// got into non-idle state (self-destruct puts node into Destroyed state and it can\"t be assigned any\n        /// tasks after that)\n        _workerNode.destroy();\n\n        /// Immediately removing node from the lists\n        uint16 index = workerAddresses[nodeOwner] - 1;\n        delete workerAddresses[nodeOwner];\n        IWorkerNode movedWorker = workerNodes[index] = workerNodes[workerNodes.length - 1];\n        workerAddresses[movedWorker] = index + 1;\n        workerNodes.length--;\n\n        /// @todo Return the unspent stake\n\n        /// Firing the event\n        emit WorkerNodeDestroyed(_workerNode);\n    }\n}\n",
  "sourcePath": "/home/kostysh/Dropbox/pandora/pyrrha-consensus/contracts/pandora/managers/WorkerNodeManager.sol",
  "compiler": {
    "name": "solc",
    "version": "0.4.23+commit.124ca40d.Emscripten.clang"
  },
  "schemaVersion": "2.0.0",
  "updatedAt": "2018-05-04T17:27:10.978Z"
}