{
  "contractName": "WorkerNodeStates",
  "abi": [
    {
      "constant": true,
      "inputs": [],
      "name": "Uninitialized",
      "outputs": [
        {
          "name": "",
          "type": "uint8"
        }
      ],
      "payable": false,
      "stateMutability": "view",
      "type": "function"
    },
    {
      "constant": true,
      "inputs": [],
      "name": "Computing",
      "outputs": [
        {
          "name": "",
          "type": "uint8"
        }
      ],
      "payable": false,
      "stateMutability": "view",
      "type": "function"
    },
    {
      "constant": true,
      "inputs": [],
      "name": "ReadyForComputing",
      "outputs": [
        {
          "name": "",
          "type": "uint8"
        }
      ],
      "payable": false,
      "stateMutability": "view",
      "type": "function"
    },
    {
      "constant": true,
      "inputs": [],
      "name": "ValidatingData",
      "outputs": [
        {
          "name": "",
          "type": "uint8"
        }
      ],
      "payable": false,
      "stateMutability": "view",
      "type": "function"
    },
    {
      "constant": true,
      "inputs": [],
      "name": "Offline",
      "outputs": [
        {
          "name": "",
          "type": "uint8"
        }
      ],
      "payable": false,
      "stateMutability": "view",
      "type": "function"
    },
    {
      "constant": true,
      "inputs": [],
      "name": "UnderPenalty",
      "outputs": [
        {
          "name": "",
          "type": "uint8"
        }
      ],
      "payable": false,
      "stateMutability": "view",
      "type": "function"
    },
    {
      "constant": true,
      "inputs": [],
      "name": "Idle",
      "outputs": [
        {
          "name": "",
          "type": "uint8"
        }
      ],
      "payable": false,
      "stateMutability": "view",
      "type": "function"
    },
    {
      "constant": true,
      "inputs": [],
      "name": "ReadyForDataValidation",
      "outputs": [
        {
          "name": "",
          "type": "uint8"
        }
      ],
      "payable": false,
      "stateMutability": "view",
      "type": "function"
    },
    {
      "constant": true,
      "inputs": [],
      "name": "Destroyed",
      "outputs": [
        {
          "name": "",
          "type": "uint8"
        }
      ],
      "payable": false,
      "stateMutability": "view",
      "type": "function"
    },
    {
      "constant": true,
      "inputs": [],
      "name": "InsufficientStake",
      "outputs": [
        {
          "name": "",
          "type": "uint8"
        }
      ],
      "payable": false,
      "stateMutability": "view",
      "type": "function"
    },
    {
      "constant": true,
      "inputs": [],
      "name": "Assigned",
      "outputs": [
        {
          "name": "",
          "type": "uint8"
        }
      ],
      "payable": false,
      "stateMutability": "view",
      "type": "function"
    }
  ],
  "bytecode": "0x608060405234801561001057600080fd5b50610332806100206000396000f3006080604052600436106100af576000357c0100000000000000000000000000000000000000000000000000000000900463ffffffff1680631c72fad4146100b45780631d53dbed146100e55780633b9769741461011657806374de5bde14610147578063822bb4d1146101785780638dd172a2146101a9578063ae897c55146101da578063c80ce25d1461020b578063cc0e82c11461023c578063f1bc94d21461026d578063f23614101461029e575b600080fd5b3480156100c057600080fd5b506100c96102cf565b604051808260ff1660ff16815260200191505060405180910390f35b3480156100f157600080fd5b506100fa6102d4565b604051808260ff1660ff16815260200191505060405180910390f35b34801561012257600080fd5b5061012b6102d9565b604051808260ff1660ff16815260200191505060405180910390f35b34801561015357600080fd5b5061015c6102de565b604051808260ff1660ff16815260200191505060405180910390f35b34801561018457600080fd5b5061018d6102e3565b604051808260ff1660ff16815260200191505060405180910390f35b3480156101b557600080fd5b506101be6102e8565b604051808260ff1660ff16815260200191505060405180910390f35b3480156101e657600080fd5b506101ef6102ed565b604051808260ff1660ff16815260200191505060405180910390f35b34801561021757600080fd5b506102206102f2565b604051808260ff1660ff16815260200191505060405180910390f35b34801561024857600080fd5b506102516102f7565b604051808260ff1660ff16815260200191505060405180910390f35b34801561027957600080fd5b506102826102fc565b604051808260ff1660ff16815260200191505060405180910390f35b3480156102aa57600080fd5b506102b3610301565b604051808260ff1660ff16815260200191505060405180910390f35b600081565b600781565b600681565b600581565b600181565b600981565b600281565b600481565b60ff81565b600881565b6003815600a165627a7a723058204d9196a6b984d084f4f73bedea1707b0e0ae4be8e7db3b5b69b24d9b1402b7630029",
  "source": "pragma solidity ^0.4.23;\r\n\r\n\r\ncontract WorkerNodeStates {\r\n    /// @dev Since `destroyself()` zeroes values of all variables, we need the first state (corresponding to zero)\r\n    /// to indicate that contract had being destroyed\r\n    uint8 public constant Destroyed = 0xFF;\r\n\r\n    /// @dev Reserved system state not participating in transition table. Since contract creation all variables are\r\n    /// initialized to zero and contract state will be zero until it will be initialized with some definite state\r\n    uint8 public constant Uninitialized = 0;\r\n\r\n    /// @dev When node goes offline it can mark itself as offline to prevent penalties.\r\n    /// If node is not responding to Pandora events and does not submit updates on the cognitive work in time\r\n    /// then it will be penaltied and put into `Offline` state\r\n    uint8 public constant Offline = 1;\r\n\r\n    /// @dev Initial and base state\r\n    uint8 public constant Idle = 2;\r\n\r\n    /// @dev State when cognitive job is created and worker node is assigned to it, but the node didn't responded with\r\n    /// readiness status yet\r\n    uint8 public constant Assigned = 3;\r\n\r\n    /// @dev Worker node have responded with readiness status and awaits cognitive job contract to transition into the\r\n    /// next stage\r\n    uint8 public constant ReadyForDataValidation = 4;\r\n\r\n    /// @dev Worker node downloads and validates source data for correctness and consistency\r\n    uint8 public constant ValidatingData = 5;\r\n\r\n    /// @dev Worker node have finished data validation, confirmed data correctness and completeness, and reported\r\n    /// readiness to start performing actual cognition – however cognitive job contract didn't transitioned into\r\n    /// cognitive state yet (not all workers have reported readiness)\r\n    uint8 public constant ReadyForComputing = 6;\r\n\r\n    /// @dev State when worker node performs cognitive job\r\n    uint8 public constant Computing = 7;\r\n\r\n    /// @dev Intermediary state when worker node stake is reduced below threshold required for performing\r\n    /// cognitive computations\r\n    uint8 public constant InsufficientStake = 8;\r\n\r\n    /// @dev Intermediary state preventing from performing any type of work during penalty process\r\n    uint8 public constant UnderPenalty = 9;\r\n}\r\n",
  "sourcePath": "C:\\Users\\Oleksii\\Pandora\\pyrrha-consensus\\contracts\\nodes\\WorkerNodeStates.sol",
  "compiler": {
    "name": "solc",
    "version": "0.4.24+commit.e67f0147.Emscripten.clang"
  },
  "schemaVersion": "2.0.1",
  "updatedAt": "2018-06-29T20:49:42.347Z"
}