{
  "contractName": "WorkerNodeFactory",
  "abi": [
    {
      "constant": false,
      "inputs": [],
      "name": "renounceOwnership",
      "outputs": [],
      "payable": false,
      "stateMutability": "nonpayable",
      "type": "function"
    },
    {
      "constant": true,
      "inputs": [],
      "name": "owner",
      "outputs": [
        {
          "name": "",
          "type": "address"
        }
      ],
      "payable": false,
      "stateMutability": "view",
      "type": "function"
    },
    {
      "constant": true,
      "inputs": [],
      "name": "isOwner",
      "outputs": [
        {
          "name": "",
          "type": "bool"
        }
      ],
      "payable": false,
      "stateMutability": "view",
      "type": "function"
    },
    {
      "constant": false,
      "inputs": [
        {
          "name": "newOwner",
          "type": "address"
        }
      ],
      "name": "transferOwnership",
      "outputs": [],
      "payable": false,
      "stateMutability": "nonpayable",
      "type": "function"
    },
    {
      "inputs": [],
      "payable": false,
      "stateMutability": "nonpayable",
      "type": "constructor"
    },
    {
      "anonymous": false,
      "inputs": [
        {
          "indexed": false,
          "name": "owner",
          "type": "address"
        }
      ],
      "name": "WorkerNodeOwner",
      "type": "event"
    },
    {
      "anonymous": false,
      "inputs": [
        {
          "indexed": true,
          "name": "previousOwner",
          "type": "address"
        },
        {
          "indexed": true,
          "name": "newOwner",
          "type": "address"
        }
      ],
      "name": "OwnershipTransferred",
      "type": "event"
    },
    {
      "constant": false,
      "inputs": [
        {
          "name": "_nodeOwner",
          "type": "address"
        },
        {
          "name": "_economicController",
          "type": "address"
        },
        {
          "name": "_computingPrice",
          "type": "uint256"
        }
      ],
      "name": "create",
      "outputs": [
        {
          "name": "o_workerNode",
          "type": "address"
        }
      ],
      "payable": false,
      "stateMutability": "nonpayable",
      "type": "function"
    }
  ],
  "bytecode": "0x608060405234801561001057600080fd5b50336000806101000a81548173ffffffffffffffffffffffffffffffffffffffff021916908373ffffffffffffffffffffffffffffffffffffffff1602179055506000809054906101000a900473ffffffffffffffffffffffffffffffffffffffff1673ffffffffffffffffffffffffffffffffffffffff16600073ffffffffffffffffffffffffffffffffffffffff167f8be0079c531659141344cd1fd0a4f28419497f9722a3daafe3b4186f6b6457e060405160405180910390a3612e6d806100dc6000396000f30060806040526004361062000073576000357c0100000000000000000000000000000000000000000000000000000000900463ffffffff168063715018a614620000785780638da5cb5b14620000925780638f32d59b14620000ec578063f2fde38b146200011e578063ffe5725f1462000164575b600080fd5b3480156200008557600080fd5b506200009062000214565b005b3480156200009f57600080fd5b50620000aa620002e9565b604051808273ffffffffffffffffffffffffffffffffffffffff1673ffffffffffffffffffffffffffffffffffffffff16815260200191505060405180910390f35b348015620000f957600080fd5b506200010462000312565b604051808215151515815260200191505060405180910390f35b3480156200012b57600080fd5b5062000162600480360381019080803573ffffffffffffffffffffffffffffffffffffffff16906020019092919050505062000369565b005b3480156200017157600080fd5b50620001d2600480360381019080803573ffffffffffffffffffffffffffffffffffffffff169060200190929190803573ffffffffffffffffffffffffffffffffffffffff169060200190929190803590602001909291905050506200038d565b604051808273ffffffffffffffffffffffffffffffffffffffff1673ffffffffffffffffffffffffffffffffffffffff16815260200191505060405180910390f35b6200021e62000312565b15156200022a57600080fd5b600073ffffffffffffffffffffffffffffffffffffffff166000809054906101000a900473ffffffffffffffffffffffffffffffffffffffff1673ffffffffffffffffffffffffffffffffffffffff167f8be0079c531659141344cd1fd0a4f28419497f9722a3daafe3b4186f6b6457e060405160405180910390a360008060006101000a81548173ffffffffffffffffffffffffffffffffffffffff021916908373ffffffffffffffffffffffffffffffffffffffff160217905550565b60008060009054906101000a900473ffffffffffffffffffffffffffffffffffffffff16905090565b60008060009054906101000a900473ffffffffffffffffffffffffffffffffffffffff1673ffffffffffffffffffffffffffffffffffffffff163373ffffffffffffffffffffffffffffffffffffffff1614905090565b6200037362000312565b15156200037f57600080fd5b6200038a81620005a4565b50565b60006200039962000312565b1515620003a557600080fd5b620003af620002e9565b8383620003bb6200069f565b808473ffffffffffffffffffffffffffffffffffffffff1673ffffffffffffffffffffffffffffffffffffffff1681526020018373ffffffffffffffffffffffffffffffffffffffff1673ffffffffffffffffffffffffffffffffffffffff1681526020018281526020019350505050604051809103906000f08015801562000448573d6000803e3d6000fd5b509050600073ffffffffffffffffffffffffffffffffffffffff168173ffffffffffffffffffffffffffffffffffffffff16141515156200048557fe5b8073ffffffffffffffffffffffffffffffffffffffff1663f2fde38b856040518263ffffffff167c0100000000000000000000000000000000000000000000000000000000028152600401808273ffffffffffffffffffffffffffffffffffffffff1673ffffffffffffffffffffffffffffffffffffffff168152602001915050600060405180830381600087803b1580156200052157600080fd5b505af115801562000536573d6000803e3d6000fd5b505050507ffdc096b66b6e50fabf401010098ada94d32726d356fc947dea8d1c321f6b336984604051808273ffffffffffffffffffffffffffffffffffffffff1673ffffffffffffffffffffffffffffffffffffffff16815260200191505060405180910390a19392505050565b600073ffffffffffffffffffffffffffffffffffffffff168173ffffffffffffffffffffffffffffffffffffffff1614151515620005e157600080fd5b8073ffffffffffffffffffffffffffffffffffffffff166000809054906101000a900473ffffffffffffffffffffffffffffffffffffffff1673ffffffffffffffffffffffffffffffffffffffff167f8be0079c531659141344cd1fd0a4f28419497f9722a3daafe3b4186f6b6457e060405160405180910390a3806000806101000a81548173ffffffffffffffffffffffffffffffffffffffff021916908373ffffffffffffffffffffffffffffffffffffffff16021790555050565b60405161279180620006b183390190560060806040523480156200001157600080fd5b5060405160608062002791833981018060405281019080805190602001909291908051906020019092919080519060200190929190505050336000806101000a81548173ffffffffffffffffffffffffffffffffffffffff021916908373ffffffffffffffffffffffffffffffffffffffff1602179055506000809054906101000a900473ffffffffffffffffffffffffffffffffffffffff1673ffffffffffffffffffffffffffffffffffffffff16600073ffffffffffffffffffffffffffffffffffffffff167f8be0079c531659141344cd1fd0a4f28419497f9722a3daafe3b4186f6b6457e060405160405180910390a3600073ffffffffffffffffffffffffffffffffffffffff168373ffffffffffffffffffffffffffffffffffffffff1614151515620001ab576040517f08c379a00000000000000000000000000000000000000000000000000000000081526004018080602001828103825260158152602001807f4552524f525f494e56414c49445f41444452455353000000000000000000000081525060200191505060405180910390fd5b600073ffffffffffffffffffffffffffffffffffffffff168273ffffffffffffffffffffffffffffffffffffffff161415151562000251576040517f08c379a00000000000000000000000000000000000000000000000000000000081526004018080602001828103825260158152602001807f4552524f525f494e56414c49445f41444452455353000000000000000000000081525060200191505060405180910390fd5b82600660006101000a81548173ffffffffffffffffffffffffffffffffffffffff021916908373ffffffffffffffffffffffffffffffffffffffff16021790555081600760006101000a81548173ffffffffffffffffffffffffffffffffffffffff021916908373ffffffffffffffffffffffffffffffffffffffff16021790555080600881905550620002f3620002fc640100000000026401000000009004565b50505062000a63565b600060046001019050606060405190810160405280600260ff1660ff168152602001600160ff1660ff168152602001600860ff1660ff168152508160008060ff1660ff1681526020019081526020016000209060036200035e929190620008d4565b50606060405190810160405280600260ff1660ff168152602001600860ff1660ff168152602001600960ff1660ff16815250816000600160ff1660ff168152602001908152602001600020906003620003b9929190620008d4565b50608060405190810160405280600160ff1660ff168152602001600960ff1660ff168152602001600360ff1660ff16815260200160ff801660ff16815250816000600260ff1660ff1681526020019081526020016000209060046200042092919062000982565b50606060405190810160405280600160ff1660ff168152602001600960ff1660ff168152602001600460ff1660ff16815250816000600360ff1660ff1681526020019081526020016000209060036200047b929190620008d4565b50608060405190810160405280600560ff1660ff168152602001600160ff1660ff168152602001600960ff1660ff168152602001600260ff1660ff16815250816000600460ff1660ff168152602001908152602001600020906004620004e392919062000982565b50606060405190810160405280600160ff1660ff168152602001600860ff1660ff168152602001600260ff1660ff16815250816000600960ff1660ff1681526020019081526020016000209060036200053e929190620008d4565b50608060405190810160405280600160ff1660ff168152602001600260ff1660ff168152602001600960ff1660ff168152602001600660ff1660ff16815250816000600560ff1660ff168152602001908152602001600020906004620005a692919062000982565b50608060405190810160405280600760ff1660ff168152602001600160ff1660ff168152602001600960ff1660ff168152602001600260ff1660ff16815250816000600660ff1660ff1681526020019081526020016000209060046200060e92919062000982565b50606060405190810160405280600160ff1660ff168152602001600960ff1660ff168152602001600260ff1660ff16815250816000600760ff1660ff16815260200190815260200160002090600362000669929190620008d4565b50606060405190810160405280600160ff1660ff168152602001600260ff1660ff16815260200160ff801660ff16815250816000600860ff1660ff168152602001908152602001600020906003620006c3929190620008d4565b50620006e2620007046401000000000262001b3e176401000000009004565b6001600460000160016101000a81548160ff021916908360ff16021790555050565b6040805190810160405280601181526020017f5f696e697453746174654d616368696e65000000000000000000000000000000815250600015156003826040518082805190602001908083835b60208310151562000778578051825260208201915060208101905060208303925062000751565b6001836020036101000a038019825116818451168082178552505050505050905001915050908152602001604051809103902060009054906101000a900460ff161515141515620007c857600080fd5b620007e86004620008716401000000000262001c90176401000000009004565b60016003826040518082805190602001908083835b602083101515620008245780518252602082019150602081019050602083039250620007fd565b6001836020036101000a038019825116818451168082178552505050505050905001915050908152602001604051809103902060006101000a81548160ff02191690831515021790555050565b600015158160000160009054906101000a900460ff1615151415156200089657600080fd5b60018160000160016101000a81548160ff021916908360ff16021790555060018160000160006101000a81548160ff02191690831515021790555050565b82805482825590600052602060002090601f016020900481019282156200096f5791602002820160005b838211156200093e57835183826101000a81548160ff021916908360ff1602179055509260200192600101602081600001049283019260010302620008fe565b80156200096d5782816101000a81549060ff02191690556001016020816000010492830192600103026200093e565b505b5090506200097e919062000a30565b5090565b82805482825590600052602060002090601f0160209004810192821562000a1d5791602002820160005b83821115620009ec57835183826101000a81548160ff021916908360ff1602179055509260200192600101602081600001049283019260010302620009ac565b801562000a1b5782816101000a81549060ff0219169055600101602081600001049283019260010302620009ec565b505b50905062000a2c919062000a30565b5090565b62000a6091905b8082111562000a5c57600081816101000a81549060ff02191690555060010162000a37565b5090565b90565b611d1e8062000a736000396000f3006080604052600436106101d8576000357c0100000000000000000000000000000000000000000000000000000000900463ffffffff16806306401ff4146101dd5780630c3f6acf146101f457806312c88ecd146102255780631a0bc596146102505780631a6b2eb1146102a75780631c72fad4146102be5780631d53dbed146102ef5780632889d1a9146103205780633b9769741461034d57806342c1b5071461037e57806347850cce14610395578063481deb4e146103ac5780634a60442c146103e75780634de7485d146104125780635e903db0146104695780635fd8c71014610480578063715018a61461049757806374de5bde146104ae578063753899e9146104df57806377c6cc38146104f65780637aee7e091461050d578063822bb4d11461053e57806383197ef01461056f5780638da5cb5b146105865780638daeaa40146105dd5780638dd172a2146106105780638f32d59b146106415780639fa2526f14610670578063ae897c5514610687578063b07c7475146106b8578063bb94d792146106cf578063c162bef5146106ff578063c80ce25d14610716578063cc0e82c114610747578063df12e6c314610778578063f1bc94d21461078f578063f2361410146107c0578063f2fde38b146107f1575b600080fd5b3480156101e957600080fd5b506101f2610834565b005b34801561020057600080fd5b5061020961087c565b604051808260ff1660ff16815260200191505060405180910390f35b34801561023157600080fd5b5061023a610896565b6040518082815260200191505060405180910390f35b34801561025c57600080fd5b5061026561089c565b604051808273ffffffffffffffffffffffffffffffffffffffff1673ffffffffffffffffffffffffffffffffffffffff16815260200191505060405180910390f35b3480156102b357600080fd5b506102bc6108c2565b005b3480156102ca57600080fd5b506102d36109f3565b604051808260ff1660ff16815260200191505060405180910390f35b3480156102fb57600080fd5b506103046109f8565b604051808260ff1660ff16815260200191505060405180910390f35b34801561032c57600080fd5b5061034b600480360381019080803590602001909291905050506109fd565b005b34801561035957600080fd5b50610362610aaf565b604051808260ff1660ff16815260200191505060405180910390f35b34801561038a57600080fd5b50610393610ab4565b005b3480156103a157600080fd5b506103aa610b2b565b005b3480156103b857600080fd5b506103e5600480360381019080803590602001908201803590602001919091929391929390505050610b90565b005b3480156103f357600080fd5b506103fc610ccc565b6040518082815260200191505060405180910390f35b34801561041e57600080fd5b50610427610cd2565b604051808273ffffffffffffffffffffffffffffffffffffffff1673ffffffffffffffffffffffffffffffffffffffff16815260200191505060405180910390f35b34801561047557600080fd5b5061047e610cf8565b005b34801561048c57600080fd5b50610495610e28565b005b3480156104a357600080fd5b506104ac610ec4565b005b3480156104ba57600080fd5b506104c3610f96565b604051808260ff1660ff16815260200191505060405180910390f35b3480156104eb57600080fd5b506104f4610f9b565b005b34801561050257600080fd5b5061050b61113b565b005b34801561051957600080fd5b5061053c6004803603810190808035600019169060200190929190505050611183565b005b34801561054a57600080fd5b50610553611228565b604051808260ff1660ff16815260200191505060405180910390f35b34801561057b57600080fd5b5061058461122d565b005b34801561059257600080fd5b5061059b6112d5565b604051808273ffffffffffffffffffffffffffffffffffffffff1673ffffffffffffffffffffffffffffffffffffffff16815260200191505060405180910390f35b3480156105e957600080fd5b506105f26112fe565b60405180826000191660001916815260200191505060405180910390f35b34801561061c57600080fd5b50610625611304565b604051808260ff1660ff16815260200191505060405180910390f35b34801561064d57600080fd5b50610656611309565b604051808215151515815260200191505060405180910390f35b34801561067c57600080fd5b50610685611360565b005b34801561069357600080fd5b5061069c6113a8565b604051808260ff1660ff16815260200191505060405180910390f35b3480156106c457600080fd5b506106cd6113ad565b005b3480156106db57600080fd5b506106fd600480360381019080803560ff1690602001909291905050506114d7565b005b34801561070b57600080fd5b506107146115b8565b005b34801561072257600080fd5b5061072b6116e8565b604051808260ff1660ff16815260200191505060405180910390f35b34801561075357600080fd5b5061075c6116ed565b604051808260ff1660ff16815260200191505060405180910390f35b34801561078457600080fd5b5061078d6116f2565b005b34801561079b57600080fd5b506107a4611823565b604051808260ff1660ff16815260200191505060405180910390f35b3480156107cc57600080fd5b506107d5611828565b604051808260ff1660ff16815260200191505060405180910390f35b3480156107fd57600080fd5b50610832600480360381019080803573ffffffffffffffffffffffffffffffffffffffff16906020019092919050505061182d565b005b61083c611309565b151561084757600080fd5b60068060ff16600460000160019054906101000a900460ff1660ff1614151561086f57600080fd5b610879600761184c565b50565b6000600460000160019054906101000a900460ff16905090565b60085481565b600660009054906101000a900473ffffffffffffffffffffffffffffffffffffffff1681565b6108ca611309565b15156108d557600080fd5b60058060ff16600460000160019054906101000a900460ff1660ff161415156108fd57600080fd5b600060010260001916600954600019161415151561091a57600080fd5b600660009054906101000a900473ffffffffffffffffffffffffffffffffffffffff1673ffffffffffffffffffffffffffffffffffffffff1663b0e79d9b600954600160006040518463ffffffff167c01000000000000000000000000000000000000000000000000000000000281526004018084600019166000191681526020018360ff168152602001821515151581526020019350505050600060405180830381600087803b1580156109ce57600080fd5b505af11580156109e2573d6000803e3d6000fd5b505050506109f0600261184c565b50565b600081565b600781565b610a05611309565b1515610a1057600080fd5b60026001610a2a8282600461186e9092919063ffffffff16565b60018310151515610aa3576040517f08c379a000000000000000000000000000000000000000000000000000000000815260040180806020018281038252601d8152602001807f4552524f525f494e56414c49445f434f4d505554494e475f505249434500000081525060200191505060405180910390fd5b82600881905550505050565b600681565b600760009054906101000a900473ffffffffffffffffffffffffffffffffffffffff1673ffffffffffffffffffffffffffffffffffffffff163373ffffffffffffffffffffffffffffffffffffffff16141515610b1057600080fd5b600060010260098160001916905550610b29600961184c565b565b610b33611309565b1515610b3e57600080fd5b60058060ff16600460000160019054906101000a900460ff1660ff16141515610b6657600080fd5b6000600102600019166009546000191614151515610b8357600080fd5b610b8d600261184c565b50565b610b98611309565b1515610ba357600080fd5b60078060ff16600460000160019054906101000a900460ff1660ff16141515610bcb57600080fd5b6000600102600019166009546000191614151515610be857600080fd5b600660009054906101000a900473ffffffffffffffffffffffffffffffffffffffff1673ffffffffffffffffffffffffffffffffffffffff1663bbcc726160095485856040518463ffffffff167c01000000000000000000000000000000000000000000000000000000000281526004018084600019166000191681526020018060200182810382528484828181526020019250808284378201915050945050505050600060405180830381600087803b158015610ca557600080fd5b505af1158015610cb9573d6000803e3d6000fd5b50505050610cc7600261184c565b505050565b600a5481565b600760009054906101000a900473ffffffffffffffffffffffffffffffffffffffff1681565b610d00611309565b1515610d0b57600080fd5b60058060ff16600460000160019054906101000a900460ff1660ff16141515610d3357600080fd5b6000600102600019166009546000191614151515610d5057600080fd5b600660009054906101000a900473ffffffffffffffffffffffffffffffffffffffff1673ffffffffffffffffffffffffffffffffffffffff1663b0e79d9b6009546001806040518463ffffffff167c01000000000000000000000000000000000000000000000000000000000281526004018084600019166000191681526020018360ff168152602001821515151581526020019350505050600060405180830381600087803b158015610e0357600080fd5b505af1158015610e17573d6000803e3d6000fd5b50505050610e25600661184c565b50565b6000610e32611309565b1515610e3d57600080fd5b60026001610e578282600461186e9092919063ffffffff16565b610e5f6112d5565b92508273ffffffffffffffffffffffffffffffffffffffff166108fc3073ffffffffffffffffffffffffffffffffffffffff16319081150290604051600060405180830381858888f19350505050158015610ebe573d6000803e3d6000fd5b50505050565b610ecc611309565b1515610ed757600080fd5b600073ffffffffffffffffffffffffffffffffffffffff166000809054906101000a900473ffffffffffffffffffffffffffffffffffffffff1673ffffffffffffffffffffffffffffffffffffffff167f8be0079c531659141344cd1fd0a4f28419497f9722a3daafe3b4186f6b6457e060405160405180910390a360008060006101000a81548173ffffffffffffffffffffffffffffffffffffffff021916908373ffffffffffffffffffffffffffffffffffffffff160217905550565b600581565b610fa3611309565b1515610fae57600080fd5b600060ff16600460000160019054906101000a900460ff1660ff161480610fed5750600160ff16600460000160019054906101000a900460ff1660ff16145b806110105750600960ff16600460000160019054906101000a900460ff1660ff16145b151561101b57600080fd5b600760009054906101000a900473ffffffffffffffffffffffffffffffffffffffff1673ffffffffffffffffffffffffffffffffffffffff1663bb9f765f6110616112d5565b6040518263ffffffff167c0100000000000000000000000000000000000000000000000000000000028152600401808273ffffffffffffffffffffffffffffffffffffffff1673ffffffffffffffffffffffffffffffffffffffff168152602001915050602060405180830381600087803b1580156110df57600080fd5b505af11580156110f3573d6000803e3d6000fd5b505050506040513d602081101561110957600080fd5b81019080805190602001909291905050501561112e57611129600261184c565b611139565b611138600861184c565b5b565b611143611309565b151561114e57600080fd5b60048060ff16600460000160019054906101000a900460ff1660ff1614151561117657600080fd5b611180600561184c565b50565b600660009054906101000a900473ffffffffffffffffffffffffffffffffffffffff1673ffffffffffffffffffffffffffffffffffffffff163373ffffffffffffffffffffffffffffffffffffffff161415156111df57600080fd5b60028060ff16600460000160019054906101000a900460ff1660ff1614151561120757600080fd5b81600981600019169055506000600a81905550611224600361184c565b5050565b600181565b600660009054906101000a900473ffffffffffffffffffffffffffffffffffffffff1673ffffffffffffffffffffffffffffffffffffffff163373ffffffffffffffffffffffffffffffffffffffff1614151561128957600080fd5b7f4447806c1856b9de7671994ea8dbdc03abd565d1b8c00ffc5fa053c49bd40ecc60405160405180910390a16112bd6112d5565b73ffffffffffffffffffffffffffffffffffffffff16ff5b60008060009054906101000a900473ffffffffffffffffffffffffffffffffffffffff16905090565b60095481565b600981565b60008060009054906101000a900473ffffffffffffffffffffffffffffffffffffffff1673ffffffffffffffffffffffffffffffffffffffff163373ffffffffffffffffffffffffffffffffffffffff1614905090565b611368611309565b151561137357600080fd5b60028060ff16600460000160019054906101000a900460ff1660ff1614151561139b57600080fd5b6113a5600161184c565b50565b600281565b600660009054906101000a900473ffffffffffffffffffffffffffffffffffffffff1673ffffffffffffffffffffffffffffffffffffffff163373ffffffffffffffffffffffffffffffffffffffff1614151561140957600080fd5b600360ff16600460000160019054906101000a900460ff1660ff1614806114485750600460ff16600460000160019054906101000a900460ff1660ff16145b8061146b5750600560ff16600460000160019054906101000a900460ff1660ff16145b8061148e5750600660ff16600460000160019054906101000a900460ff1660ff16145b806114b15750600760ff16600460000160019054906101000a900460ff1660ff16145b15156114bc57600080fd5b6000600102600981600019169055506114d5600261184c565b565b6114df611309565b15156114ea57600080fd5b8060ff16600a81905550600660009054906101000a900473ffffffffffffffffffffffffffffffffffffffff1673ffffffffffffffffffffffffffffffffffffffff1663687fbdff600954836040518363ffffffff167c01000000000000000000000000000000000000000000000000000000000281526004018083600019166000191681526020018260ff1660ff16815260200192505050600060405180830381600087803b15801561159d57600080fd5b505af11580156115b1573d6000803e3d6000fd5b5050505050565b6115c0611309565b15156115cb57600080fd5b60038060ff16600460000160019054906101000a900460ff1660ff161415156115f357600080fd5b600060010260001916600954600019161415151561161057600080fd5b600660009054906101000a900473ffffffffffffffffffffffffffffffffffffffff1673ffffffffffffffffffffffffffffffffffffffff1663b0e79d9b6009546000806040518463ffffffff167c01000000000000000000000000000000000000000000000000000000000281526004018084600019166000191681526020018360ff168152602001821515151581526020019350505050600060405180830381600087803b1580156116c357600080fd5b505af11580156116d7573d6000803e3d6000fd5b505050506116e5600261184c565b50565b600481565b60ff81565b6116fa611309565b151561170557600080fd5b60038060ff16600460000160019054906101000a900460ff1660ff1614151561172d57600080fd5b600060010260001916600954600019161415151561174a57600080fd5b600660009054906101000a900473ffffffffffffffffffffffffffffffffffffffff1673ffffffffffffffffffffffffffffffffffffffff1663b0e79d9b600954600060016040518463ffffffff167c01000000000000000000000000000000000000000000000000000000000281526004018084600019166000191681526020018360ff168152602001821515151581526020019350505050600060405180830381600087803b1580156117fe57600080fd5b505af1158015611812573d6000803e3d6000fd5b50505050611820600461184c565b50565b600881565b600381565b611835611309565b151561184057600080fd5b611849816118d4565b50565b806118618160046119ce90919063ffffffff16565b61186a82611a9e565b5050565b60008090508360000160019054906101000a900460ff1660ff168360ff16141561189757600190505b8360000160019054906101000a900460ff1660ff168260ff1614156118bb57600190505b600115158115151415156118ce57600080fd5b50505050565b600073ffffffffffffffffffffffffffffffffffffffff168173ffffffffffffffffffffffffffffffffffffffff161415151561191057600080fd5b8073ffffffffffffffffffffffffffffffffffffffff166000809054906101000a900473ffffffffffffffffffffffffffffffffffffffff1673ffffffffffffffffffffffffffffffffffffffff167f8be0079c531659141344cd1fd0a4f28419497f9722a3daafe3b4186f6b6457e060405160405180910390a3806000806101000a81548173ffffffffffffffffffffffffffffffffffffffff021916908373ffffffffffffffffffffffffffffffffffffffff16021790555050565b600080600060ff8560000160019054906101000a900460ff1660ff16141515156119f457fe5b600092508460010160008660000160019054906101000a900460ff1660ff1660ff1681526020019081526020016000209150600090505b8180549050811015611a84578360ff168282815481101515611a4957fe5b90600052602060002090602091828204019190069054906101000a900460ff1660ff161415611a7757600192505b8080600101915050611a2b565b60011515831515141515611a9757600080fd5b5050505050565b6000600460000160019054906101000a900460ff16905081600460000160016101000a81548160ff021916908360ff1602179055507fe8a97ea87e4388fa22d496b95a8ed5ced6717f49790318de2b928aaf37a021d881600460000160019054906101000a900460ff16604051808360ff1660ff1681526020018260ff1660ff1681526020019250505060405180910390a1611b38611b3c565b5050565b565b6040805190810160405280601181526020017f5f696e697453746174654d616368696e65000000000000000000000000000000815250600015156003826040518082805190602001908083835b602083101515611bb05780518252602082019150602081019050602083039250611b8b565b6001836020036101000a038019825116818451168082178552505050505050905001915050908152602001604051809103902060009054906101000a900460ff161515141515611bff57600080fd5b611c096004611c90565b60016003826040518082805190602001908083835b602083101515611c435780518252602082019150602081019050602083039250611c1e565b6001836020036101000a038019825116818451168082178552505050505050905001915050908152602001604051809103902060006101000a81548160ff02191690831515021790555050565b600015158160000160009054906101000a900460ff161515141515611cb457600080fd5b60018160000160016101000a81548160ff021916908360ff16021790555060018160000160006101000a81548160ff021916908315150217905550505600a165627a7a72305820ee2ccc101e323032868d120dd5d6723ecf4829c558320efa7c2fb9e3f4b94cef0029a165627a7a723058201f6ec19f1f91f40ccd3d0f5840184b1f26fe12884779d82dfbbe217b3fee9cc30029",
  "source": "pragma solidity ^0.4.24;\n\nimport \"../../nodes/WorkerNode.sol\";\nimport \"../managers/ICognitiveJobManager.sol\";\nimport \"./IWorkerNodeFactory.sol\";\nimport \"../managers/IEconomicController.sol\";\n\ncontract WorkerNodeFactory is IWorkerNodeFactory {\n    constructor() public {}\n\n    event WorkerNodeOwner(address owner);\n    /// @dev Creates worker node contract for the main Pandora contract and does necessary preparations of it\n    /// (transferring ownership). Can be called only by a Pandora contract (Pandora is the owner of the factory)\n    function create(\n        address _nodeOwner, /// Worker node owner. Contract ownership will be transferred to this owner upon creation\n        address _economicController,\n        uint256 _computingPrice  /// Computing price\n    )\n    external \n    onlyOwner \n    returns (\n        WorkerNode o_workerNode /// Worker node created by the factory\n    ) {        \n        // Creating node\n        o_workerNode = new WorkerNode(ICognitiveJobManager(owner()), IEconomicController(_economicController), _computingPrice);\n\n        // Checking that it was created correctly\n        assert(o_workerNode != WorkerNode(0));\n\n        // Transferring ownership to the owner supplied by Pandora (it must be a caller of `Pandora.createWorkerNode`\n        // function\n        o_workerNode.transferOwnership(_nodeOwner);\n\n        emit WorkerNodeOwner(_nodeOwner);\n    }\n}\n",
  "sourcePath": "/home/kostysh/dev/pyrrha-consensus/contracts/pandora/factories/WorkerNodeFactory.sol",
  "compiler": {
    "name": "solc",
    "version": "0.4.24+commit.e67f0147.Emscripten.clang"
  },
  "schemaVersion": "2.0.1",
  "updatedAt": "2019-01-11T15:27:33.227Z"
}