{
  "contractName": "WorkerNodeStates",
  "abi": [
    {
      "constant": true,
      "inputs": [],
      "name": "Uninitialized",
      "outputs": [
        {
          "name": "",
          "type": "uint8"
        }
      ],
      "payable": false,
      "stateMutability": "view",
      "type": "function"
    },
    {
      "constant": true,
      "inputs": [],
      "name": "Computing",
      "outputs": [
        {
          "name": "",
          "type": "uint8"
        }
      ],
      "payable": false,
      "stateMutability": "view",
      "type": "function"
    },
    {
      "constant": true,
      "inputs": [],
      "name": "ReadyForComputing",
      "outputs": [
        {
          "name": "",
          "type": "uint8"
        }
      ],
      "payable": false,
      "stateMutability": "view",
      "type": "function"
    },
    {
      "constant": true,
      "inputs": [],
      "name": "ValidatingData",
      "outputs": [
        {
          "name": "",
          "type": "uint8"
        }
      ],
      "payable": false,
      "stateMutability": "view",
      "type": "function"
    },
    {
      "constant": true,
      "inputs": [],
      "name": "Offline",
      "outputs": [
        {
          "name": "",
          "type": "uint8"
        }
      ],
      "payable": false,
      "stateMutability": "view",
      "type": "function"
    },
    {
      "constant": true,
      "inputs": [],
      "name": "UnderPenalty",
      "outputs": [
        {
          "name": "",
          "type": "uint8"
        }
      ],
      "payable": false,
      "stateMutability": "view",
      "type": "function"
    },
    {
      "constant": true,
      "inputs": [],
      "name": "Idle",
      "outputs": [
        {
          "name": "",
          "type": "uint8"
        }
      ],
      "payable": false,
      "stateMutability": "view",
      "type": "function"
    },
    {
      "constant": true,
      "inputs": [],
      "name": "ReadyForDataValidation",
      "outputs": [
        {
          "name": "",
          "type": "uint8"
        }
      ],
      "payable": false,
      "stateMutability": "view",
      "type": "function"
    },
    {
      "constant": true,
      "inputs": [],
      "name": "Destroyed",
      "outputs": [
        {
          "name": "",
          "type": "uint8"
        }
      ],
      "payable": false,
      "stateMutability": "view",
      "type": "function"
    },
    {
      "constant": true,
      "inputs": [],
      "name": "InsufficientStake",
      "outputs": [
        {
          "name": "",
          "type": "uint8"
        }
      ],
      "payable": false,
      "stateMutability": "view",
      "type": "function"
    },
    {
      "constant": true,
      "inputs": [],
      "name": "Assigned",
      "outputs": [
        {
          "name": "",
          "type": "uint8"
        }
      ],
      "payable": false,
      "stateMutability": "view",
      "type": "function"
    }
  ],
  "bytecode": "0x608060405234801561001057600080fd5b50610332806100206000396000f3006080604052600436106100af576000357c0100000000000000000000000000000000000000000000000000000000900463ffffffff1680631c72fad4146100b45780631d53dbed146100e55780633b9769741461011657806374de5bde14610147578063822bb4d1146101785780638dd172a2146101a9578063ae897c55146101da578063c80ce25d1461020b578063cc0e82c11461023c578063f1bc94d21461026d578063f23614101461029e575b600080fd5b3480156100c057600080fd5b506100c96102cf565b604051808260ff1660ff16815260200191505060405180910390f35b3480156100f157600080fd5b506100fa6102d4565b604051808260ff1660ff16815260200191505060405180910390f35b34801561012257600080fd5b5061012b6102d9565b604051808260ff1660ff16815260200191505060405180910390f35b34801561015357600080fd5b5061015c6102de565b604051808260ff1660ff16815260200191505060405180910390f35b34801561018457600080fd5b5061018d6102e3565b604051808260ff1660ff16815260200191505060405180910390f35b3480156101b557600080fd5b506101be6102e8565b604051808260ff1660ff16815260200191505060405180910390f35b3480156101e657600080fd5b506101ef6102ed565b604051808260ff1660ff16815260200191505060405180910390f35b34801561021757600080fd5b506102206102f2565b604051808260ff1660ff16815260200191505060405180910390f35b34801561024857600080fd5b506102516102f7565b604051808260ff1660ff16815260200191505060405180910390f35b34801561027957600080fd5b506102826102fc565b604051808260ff1660ff16815260200191505060405180910390f35b3480156102aa57600080fd5b506102b3610301565b604051808260ff1660ff16815260200191505060405180910390f35b600081565b600781565b600681565b600581565b600181565b600981565b600281565b600481565b60ff81565b600881565b6003815600a165627a7a72305820ee377fe135414582c336e1c2921dabb8cf7ad0c2fc1ee01f5eb80b33d0e2cb8a0029",
  "source": "pragma solidity ^0.4.23;\n\n\ncontract WorkerNodeStates {\n    /// @dev Since `destroyself()` zeroes values of all variables, we need the first state (corresponding to zero)\n    /// to indicate that contract had being destroyed\n    uint8 public constant Destroyed = 0xFF;\n\n    /// @dev Reserved system state not participating in transition table. Since contract creation all variables are\n    /// initialized to zero and contract state will be zero until it will be initialized with some definite state\n    uint8 public constant Uninitialized = 0;\n\n    /// @dev When node goes offline it can mark itself as offline to prevent penalties.\n    /// If node is not responding to Pandora events and does not submit updates on the cognitive work in time\n    /// then it will be penaltied and put into `Offline` state\n    uint8 public constant Offline = 1;\n\n    /// @dev Initial and base state\n    uint8 public constant Idle = 2;\n\n    /// @dev State when cognitive job is created and worker node is assigned to it, but the node didn't responded with\n    /// readiness status yet\n    uint8 public constant Assigned = 3;\n\n    /// @dev Worker node have responded with readiness status and awaits cognitive job contract to transition into the\n    /// next stage\n    uint8 public constant ReadyForDataValidation = 4;\n\n    /// @dev Worker node downloads and validates source data for correctness and consistency\n    uint8 public constant ValidatingData = 5;\n\n    /// @dev Worker node have finished data validation, confirmed data correctness and completeness, and reported\n    /// readiness to start performing actual cognition – however cognitive job contract didn't transitioned into\n    /// cognitive state yet (not all workers have reported readiness)\n    uint8 public constant ReadyForComputing = 6;\n\n    /// @dev State when worker node performs cognitive job\n    uint8 public constant Computing = 7;\n\n    /// @dev Intermediary state when worker node stake is reduced below threshold required for performing\n    /// cognitive computations\n    uint8 public constant InsufficientStake = 8;\n\n    /// @dev Intermediary state preventing from performing any type of work during penalty process\n    uint8 public constant UnderPenalty = 9;\n}\n",
  "sourcePath": "/home/kostysh/dev/pyrrha-consensus/contracts/nodes/WorkerNodeStates.sol",
  "compiler": {
    "name": "solc",
    "version": "0.4.24+commit.e67f0147.Emscripten.clang"
  },
  "schemaVersion": "2.0.1",
  "updatedAt": "2018-10-17T17:24:30.796Z"
}