{
  "contractName": "WorkerNode",
  "abi": [
    {
      "constant": true,
      "inputs": [],
      "name": "currentState",
      "outputs": [
        {
          "name": "",
          "type": "uint8"
        }
      ],
      "payable": false,
      "stateMutability": "view",
      "type": "function"
    },
    {
      "constant": true,
      "inputs": [],
      "name": "computingPrice",
      "outputs": [
        {
          "name": "",
          "type": "uint256"
        }
      ],
      "payable": false,
      "stateMutability": "view",
      "type": "function"
    },
    {
      "constant": true,
      "inputs": [],
      "name": "pandora",
      "outputs": [
        {
          "name": "",
          "type": "address"
        }
      ],
      "payable": false,
      "stateMutability": "view",
      "type": "function"
    },
    {
      "constant": true,
      "inputs": [],
      "name": "Uninitialized",
      "outputs": [
        {
          "name": "",
          "type": "uint8"
        }
      ],
      "payable": false,
      "stateMutability": "view",
      "type": "function"
    },
    {
      "constant": true,
      "inputs": [],
      "name": "Computing",
      "outputs": [
        {
          "name": "",
          "type": "uint8"
        }
      ],
      "payable": false,
      "stateMutability": "view",
      "type": "function"
    },
    {
      "constant": true,
      "inputs": [],
      "name": "ReadyForComputing",
      "outputs": [
        {
          "name": "",
          "type": "uint8"
        }
      ],
      "payable": false,
      "stateMutability": "view",
      "type": "function"
    },
    {
      "constant": true,
      "inputs": [],
      "name": "jobProgress",
      "outputs": [
        {
          "name": "",
          "type": "uint256"
        }
      ],
      "payable": false,
      "stateMutability": "view",
      "type": "function"
    },
    {
      "constant": true,
      "inputs": [],
      "name": "economicController",
      "outputs": [
        {
          "name": "",
          "type": "address"
        }
      ],
      "payable": false,
      "stateMutability": "view",
      "type": "function"
    },
    {
      "constant": false,
      "inputs": [],
      "name": "renounceOwnership",
      "outputs": [],
      "payable": false,
      "stateMutability": "nonpayable",
      "type": "function"
    },
    {
      "constant": true,
      "inputs": [],
      "name": "ValidatingData",
      "outputs": [
        {
          "name": "",
          "type": "uint8"
        }
      ],
      "payable": false,
      "stateMutability": "view",
      "type": "function"
    },
    {
      "constant": true,
      "inputs": [],
      "name": "Offline",
      "outputs": [
        {
          "name": "",
          "type": "uint8"
        }
      ],
      "payable": false,
      "stateMutability": "view",
      "type": "function"
    },
    {
      "constant": true,
      "inputs": [],
      "name": "owner",
      "outputs": [
        {
          "name": "",
          "type": "address"
        }
      ],
      "payable": false,
      "stateMutability": "view",
      "type": "function"
    },
    {
      "constant": true,
      "inputs": [],
      "name": "activeJob",
      "outputs": [
        {
          "name": "",
          "type": "bytes32"
        }
      ],
      "payable": false,
      "stateMutability": "view",
      "type": "function"
    },
    {
      "constant": true,
      "inputs": [],
      "name": "UnderPenalty",
      "outputs": [
        {
          "name": "",
          "type": "uint8"
        }
      ],
      "payable": false,
      "stateMutability": "view",
      "type": "function"
    },
    {
      "constant": true,
      "inputs": [],
      "name": "isOwner",
      "outputs": [
        {
          "name": "",
          "type": "bool"
        }
      ],
      "payable": false,
      "stateMutability": "view",
      "type": "function"
    },
    {
      "constant": true,
      "inputs": [],
      "name": "Idle",
      "outputs": [
        {
          "name": "",
          "type": "uint8"
        }
      ],
      "payable": false,
      "stateMutability": "view",
      "type": "function"
    },
    {
      "constant": true,
      "inputs": [],
      "name": "ReadyForDataValidation",
      "outputs": [
        {
          "name": "",
          "type": "uint8"
        }
      ],
      "payable": false,
      "stateMutability": "view",
      "type": "function"
    },
    {
      "constant": true,
      "inputs": [],
      "name": "Destroyed",
      "outputs": [
        {
          "name": "",
          "type": "uint8"
        }
      ],
      "payable": false,
      "stateMutability": "view",
      "type": "function"
    },
    {
      "constant": true,
      "inputs": [],
      "name": "InsufficientStake",
      "outputs": [
        {
          "name": "",
          "type": "uint8"
        }
      ],
      "payable": false,
      "stateMutability": "view",
      "type": "function"
    },
    {
      "constant": true,
      "inputs": [],
      "name": "Assigned",
      "outputs": [
        {
          "name": "",
          "type": "uint8"
        }
      ],
      "payable": false,
      "stateMutability": "view",
      "type": "function"
    },
    {
      "constant": false,
      "inputs": [
        {
          "name": "newOwner",
          "type": "address"
        }
      ],
      "name": "transferOwnership",
      "outputs": [],
      "payable": false,
      "stateMutability": "nonpayable",
      "type": "function"
    },
    {
      "inputs": [
        {
          "name": "_pandora",
          "type": "address"
        },
        {
          "name": "_economicController",
          "type": "address"
        },
        {
          "name": "_computingPrice",
          "type": "uint256"
        }
      ],
      "payable": false,
      "stateMutability": "nonpayable",
      "type": "constructor"
    },
    {
      "anonymous": false,
      "inputs": [],
      "name": "WorkerDestroyed",
      "type": "event"
    },
    {
      "anonymous": false,
      "inputs": [
        {
          "indexed": false,
          "name": "oldState",
          "type": "uint8"
        },
        {
          "indexed": false,
          "name": "newState",
          "type": "uint8"
        }
      ],
      "name": "StateChanged",
      "type": "event"
    },
    {
      "anonymous": false,
      "inputs": [
        {
          "indexed": true,
          "name": "previousOwner",
          "type": "address"
        },
        {
          "indexed": true,
          "name": "newOwner",
          "type": "address"
        }
      ],
      "name": "OwnershipTransferred",
      "type": "event"
    },
    {
      "constant": false,
      "inputs": [],
      "name": "destroy",
      "outputs": [],
      "payable": false,
      "stateMutability": "nonpayable",
      "type": "function"
    },
    {
      "constant": false,
      "inputs": [],
      "name": "alive",
      "outputs": [],
      "payable": false,
      "stateMutability": "nonpayable",
      "type": "function"
    },
    {
      "constant": false,
      "inputs": [],
      "name": "offline",
      "outputs": [],
      "payable": false,
      "stateMutability": "nonpayable",
      "type": "function"
    },
    {
      "constant": false,
      "inputs": [
        {
          "name": "_percent",
          "type": "uint8"
        }
      ],
      "name": "reportProgress",
      "outputs": [],
      "payable": false,
      "stateMutability": "nonpayable",
      "type": "function"
    },
    {
      "constant": false,
      "inputs": [
        {
          "name": "_jobId",
          "type": "bytes32"
        }
      ],
      "name": "assignJob",
      "outputs": [],
      "payable": false,
      "stateMutability": "nonpayable",
      "type": "function"
    },
    {
      "constant": false,
      "inputs": [],
      "name": "cancelJob",
      "outputs": [],
      "payable": false,
      "stateMutability": "nonpayable",
      "type": "function"
    },
    {
      "constant": false,
      "inputs": [],
      "name": "acceptAssignment",
      "outputs": [],
      "payable": false,
      "stateMutability": "nonpayable",
      "type": "function"
    },
    {
      "constant": false,
      "inputs": [],
      "name": "declineAssignment",
      "outputs": [],
      "payable": false,
      "stateMutability": "nonpayable",
      "type": "function"
    },
    {
      "constant": false,
      "inputs": [],
      "name": "processToDataValidation",
      "outputs": [],
      "payable": false,
      "stateMutability": "nonpayable",
      "type": "function"
    },
    {
      "constant": false,
      "inputs": [],
      "name": "acceptValidData",
      "outputs": [],
      "payable": false,
      "stateMutability": "nonpayable",
      "type": "function"
    },
    {
      "constant": false,
      "inputs": [],
      "name": "declineValidData",
      "outputs": [],
      "payable": false,
      "stateMutability": "nonpayable",
      "type": "function"
    },
    {
      "constant": false,
      "inputs": [],
      "name": "reportInvalidData",
      "outputs": [],
      "payable": false,
      "stateMutability": "nonpayable",
      "type": "function"
    },
    {
      "constant": false,
      "inputs": [],
      "name": "processToCognition",
      "outputs": [],
      "payable": false,
      "stateMutability": "nonpayable",
      "type": "function"
    },
    {
      "constant": false,
      "inputs": [
        {
          "name": "_ipfsAddress",
          "type": "bytes"
        }
      ],
      "name": "provideResults",
      "outputs": [],
      "payable": false,
      "stateMutability": "nonpayable",
      "type": "function"
    },
    {
      "constant": false,
      "inputs": [],
      "name": "withdrawBalance",
      "outputs": [],
      "payable": false,
      "stateMutability": "nonpayable",
      "type": "function"
    },
    {
      "constant": false,
      "inputs": [
        {
          "name": "_newPrice",
          "type": "uint256"
        }
      ],
      "name": "updateComputingPrice",
      "outputs": [],
      "payable": false,
      "stateMutability": "nonpayable",
      "type": "function"
    }
  ],
  "bytecode": "0x60806040523480156200001157600080fd5b5060405160608062002748833981018060405281019080805190602001909291908051906020019092919080519060200190929190505050336000806101000a81548173ffffffffffffffffffffffffffffffffffffffff021916908373ffffffffffffffffffffffffffffffffffffffff1602179055506000809054906101000a900473ffffffffffffffffffffffffffffffffffffffff1673ffffffffffffffffffffffffffffffffffffffff16600073ffffffffffffffffffffffffffffffffffffffff167f8be0079c531659141344cd1fd0a4f28419497f9722a3daafe3b4186f6b6457e060405160405180910390a3600073ffffffffffffffffffffffffffffffffffffffff168373ffffffffffffffffffffffffffffffffffffffff1614151515620001ab576040517f08c379a00000000000000000000000000000000000000000000000000000000081526004018080602001828103825260158152602001807f4552524f525f494e56414c49445f41444452455353000000000000000000000081525060200191505060405180910390fd5b600073ffffffffffffffffffffffffffffffffffffffff168273ffffffffffffffffffffffffffffffffffffffff161415151562000251576040517f08c379a00000000000000000000000000000000000000000000000000000000081526004018080602001828103825260158152602001807f4552524f525f494e56414c49445f41444452455353000000000000000000000081525060200191505060405180910390fd5b82600560006101000a81548173ffffffffffffffffffffffffffffffffffffffff021916908373ffffffffffffffffffffffffffffffffffffffff16021790555081600660006101000a81548173ffffffffffffffffffffffffffffffffffffffff021916908373ffffffffffffffffffffffffffffffffffffffff16021790555080600781905550620002f3620002fc640100000000026401000000009004565b50505062000af7565b600060036001019050606060405190810160405280600260ff1660ff168152602001600160ff1660ff168152602001600860ff1660ff168152508160008060ff1660ff1681526020019081526020016000209060036200035e929190620008ba565b50602060405190810160405280600260ff1660ff16815250816000600160ff1660ff1681526020019081526020016000209060016200039f92919062000968565b50608060405190810160405280600160ff1660ff168152602001600960ff1660ff168152602001600360ff1660ff16815260200160ff801660ff16815250816000600260ff1660ff1681526020019081526020016000209060046200040692919062000a16565b50606060405190810160405280600160ff1660ff168152602001600960ff1660ff168152602001600460ff1660ff16815250816000600360ff1660ff16815260200190815260200160002090600362000461929190620008ba565b50608060405190810160405280600560ff1660ff168152602001600160ff1660ff168152602001600960ff1660ff168152602001600260ff1660ff16815250816000600460ff1660ff168152602001908152602001600020906004620004c992919062000a16565b50606060405190810160405280600160ff1660ff168152602001600860ff1660ff168152602001600260ff1660ff16815250816000600960ff1660ff16815260200190815260200160002090600362000524929190620008ba565b50608060405190810160405280600160ff1660ff168152602001600260ff1660ff168152602001600960ff1660ff168152602001600660ff1660ff16815250816000600560ff1660ff1681526020019081526020016000209060046200058c92919062000a16565b50608060405190810160405280600760ff1660ff168152602001600160ff1660ff168152602001600960ff1660ff168152602001600260ff1660ff16815250816000600660ff1660ff168152602001908152602001600020906004620005f492919062000a16565b50606060405190810160405280600160ff1660ff168152602001600960ff1660ff168152602001600260ff1660ff16815250816000600760ff1660ff1681526020019081526020016000209060036200064f929190620008ba565b50606060405190810160405280600160ff1660ff168152602001600260ff1660ff16815260200160ff801660ff16815250816000600860ff1660ff168152602001908152602001600020906003620006a9929190620008ba565b50620006c8620006ea6401000000000262001a61176401000000009004565b6001600360000160016101000a81548160ff021916908360ff16021790555050565b6040805190810160405280601181526020017f5f696e697453746174654d616368696e65000000000000000000000000000000815250600015156002826040518082805190602001908083835b6020831015156200075e578051825260208201915060208101905060208303925062000737565b6001836020036101000a038019825116818451168082178552505050505050905001915050908152602001604051809103902060009054906101000a900460ff161515141515620007ae57600080fd5b620007ce6003620008576401000000000262001bb3176401000000009004565b60016002826040518082805190602001908083835b6020831015156200080a5780518252602082019150602081019050602083039250620007e3565b6001836020036101000a038019825116818451168082178552505050505050905001915050908152602001604051809103902060006101000a81548160ff02191690831515021790555050565b600015158160000160009054906101000a900460ff1615151415156200087c57600080fd5b60018160000160016101000a81548160ff021916908360ff16021790555060018160000160006101000a81548160ff02191690831515021790555050565b82805482825590600052602060002090601f01602090048101928215620009555791602002820160005b838211156200092457835183826101000a81548160ff021916908360ff1602179055509260200192600101602081600001049283019260010302620008e4565b8015620009535782816101000a81549060ff021916905560010160208160000104928301926001030262000924565b505b50905062000964919062000ac4565b5090565b82805482825590600052602060002090601f0160209004810192821562000a035791602002820160005b83821115620009d257835183826101000a81548160ff021916908360ff160217905550926020019260010160208160000104928301926001030262000992565b801562000a015782816101000a81549060ff0219169055600101602081600001049283019260010302620009d2565b505b50905062000a12919062000ac4565b5090565b82805482825590600052602060002090601f0160209004810192821562000ab15791602002820160005b8382111562000a8057835183826101000a81548160ff021916908360ff160217905550926020019260010160208160000104928301926001030262000a40565b801562000aaf5782816101000a81549060ff021916905560010160208160000104928301926001030262000a80565b505b50905062000ac0919062000ac4565b5090565b62000af491905b8082111562000af057600081816101000a81549060ff02191690555060010162000acb565b5090565b90565b611c418062000b076000396000f3006080604052600436106101cd576000357c0100000000000000000000000000000000000000000000000000000000900463ffffffff16806306401ff4146101d25780630c3f6acf146101e957806312c88ecd1461021a5780631a0bc596146102455780631a6b2eb11461029c5780631c72fad4146102b35780631d53dbed146102e45780632889d1a9146103155780633b9769741461034257806347850cce14610373578063481deb4e1461038a5780634a60442c146103c55780634de7485d146103f05780635e903db0146104475780635fd8c7101461045e578063715018a61461047557806374de5bde1461048c578063753899e9146104bd57806377c6cc38146104d45780637aee7e09146104eb578063822bb4d11461051c57806383197ef01461054d5780638da5cb5b146105645780638daeaa40146105bb5780638dd172a2146105ee5780638f32d59b1461061f5780639fa2526f1461064e578063ae897c5514610665578063b07c747514610696578063bb94d792146106ad578063c162bef5146106dd578063c80ce25d146106f4578063cc0e82c114610725578063df12e6c314610756578063f1bc94d21461076d578063f23614101461079e578063f2fde38b146107cf575b600080fd5b3480156101de57600080fd5b506101e7610812565b005b3480156101f557600080fd5b506101fe61085a565b604051808260ff1660ff16815260200191505060405180910390f35b34801561022657600080fd5b5061022f610874565b6040518082815260200191505060405180910390f35b34801561025157600080fd5b5061025a61087a565b604051808273ffffffffffffffffffffffffffffffffffffffff1673ffffffffffffffffffffffffffffffffffffffff16815260200191505060405180910390f35b3480156102a857600080fd5b506102b16108a0565b005b3480156102bf57600080fd5b506102c86109d1565b604051808260ff1660ff16815260200191505060405180910390f35b3480156102f057600080fd5b506102f96109d6565b604051808260ff1660ff16815260200191505060405180910390f35b34801561032157600080fd5b50610340600480360381019080803590602001909291905050506109db565b005b34801561034e57600080fd5b50610357610a8d565b604051808260ff1660ff16815260200191505060405180910390f35b34801561037f57600080fd5b50610388610a92565b005b34801561039657600080fd5b506103c3600480360381019080803590602001908201803590602001919091929391929390505050610af7565b005b3480156103d157600080fd5b506103da610c33565b6040518082815260200191505060405180910390f35b3480156103fc57600080fd5b50610405610c39565b604051808273ffffffffffffffffffffffffffffffffffffffff1673ffffffffffffffffffffffffffffffffffffffff16815260200191505060405180910390f35b34801561045357600080fd5b5061045c610c5f565b005b34801561046a57600080fd5b50610473610d8f565b005b34801561048157600080fd5b5061048a610e2b565b005b34801561049857600080fd5b506104a1610efd565b604051808260ff1660ff16815260200191505060405180910390f35b3480156104c957600080fd5b506104d2610f02565b005b3480156104e057600080fd5b506104e961105e565b005b3480156104f757600080fd5b5061051a60048036038101908080356000191690602001909291905050506110a6565b005b34801561052857600080fd5b5061053161114b565b604051808260ff1660ff16815260200191505060405180910390f35b34801561055957600080fd5b50610562611150565b005b34801561057057600080fd5b506105796111f8565b604051808273ffffffffffffffffffffffffffffffffffffffff1673ffffffffffffffffffffffffffffffffffffffff16815260200191505060405180910390f35b3480156105c757600080fd5b506105d0611221565b60405180826000191660001916815260200191505060405180910390f35b3480156105fa57600080fd5b50610603611227565b604051808260ff1660ff16815260200191505060405180910390f35b34801561062b57600080fd5b5061063461122c565b604051808215151515815260200191505060405180910390f35b34801561065a57600080fd5b50610663611283565b005b34801561067157600080fd5b5061067a6112cb565b604051808260ff1660ff16815260200191505060405180910390f35b3480156106a257600080fd5b506106ab6112d0565b005b3480156106b957600080fd5b506106db600480360381019080803560ff1690602001909291905050506113fa565b005b3480156106e957600080fd5b506106f26114db565b005b34801561070057600080fd5b5061070961160b565b604051808260ff1660ff16815260200191505060405180910390f35b34801561073157600080fd5b5061073a611610565b604051808260ff1660ff16815260200191505060405180910390f35b34801561076257600080fd5b5061076b611615565b005b34801561077957600080fd5b50610782611746565b604051808260ff1660ff16815260200191505060405180910390f35b3480156107aa57600080fd5b506107b361174b565b604051808260ff1660ff16815260200191505060405180910390f35b3480156107db57600080fd5b50610810600480360381019080803573ffffffffffffffffffffffffffffffffffffffff169060200190929190505050611750565b005b61081a61122c565b151561082557600080fd5b60068060ff16600360000160019054906101000a900460ff1660ff1614151561084d57600080fd5b610857600761176f565b50565b6000600360000160019054906101000a900460ff16905090565b60075481565b600560009054906101000a900473ffffffffffffffffffffffffffffffffffffffff1681565b6108a861122c565b15156108b357600080fd5b60058060ff16600360000160019054906101000a900460ff1660ff161415156108db57600080fd5b60006001026000191660085460001916141515156108f857600080fd5b600560009054906101000a900473ffffffffffffffffffffffffffffffffffffffff1673ffffffffffffffffffffffffffffffffffffffff1663b0e79d9b600854600160006040518463ffffffff167c01000000000000000000000000000000000000000000000000000000000281526004018084600019166000191681526020018360ff168152602001821515151581526020019350505050600060405180830381600087803b1580156109ac57600080fd5b505af11580156109c0573d6000803e3d6000fd5b505050506109ce600261176f565b50565b600081565b600781565b6109e361122c565b15156109ee57600080fd5b60026001610a08828260036117919092919063ffffffff16565b60018310151515610a81576040517f08c379a000000000000000000000000000000000000000000000000000000000815260040180806020018281038252601d8152602001807f4552524f525f494e56414c49445f434f4d505554494e475f505249434500000081525060200191505060405180910390fd5b82600781905550505050565b600681565b610a9a61122c565b1515610aa557600080fd5b60058060ff16600360000160019054906101000a900460ff1660ff16141515610acd57600080fd5b6000600102600019166008546000191614151515610aea57600080fd5b610af4600261176f565b50565b610aff61122c565b1515610b0a57600080fd5b60078060ff16600360000160019054906101000a900460ff1660ff16141515610b3257600080fd5b6000600102600019166008546000191614151515610b4f57600080fd5b600560009054906101000a900473ffffffffffffffffffffffffffffffffffffffff1673ffffffffffffffffffffffffffffffffffffffff1663bbcc726160085485856040518463ffffffff167c01000000000000000000000000000000000000000000000000000000000281526004018084600019166000191681526020018060200182810382528484828181526020019250808284378201915050945050505050600060405180830381600087803b158015610c0c57600080fd5b505af1158015610c20573d6000803e3d6000fd5b50505050610c2e600261176f565b505050565b60095481565b600660009054906101000a900473ffffffffffffffffffffffffffffffffffffffff1681565b610c6761122c565b1515610c7257600080fd5b60058060ff16600360000160019054906101000a900460ff1660ff16141515610c9a57600080fd5b6000600102600019166008546000191614151515610cb757600080fd5b600560009054906101000a900473ffffffffffffffffffffffffffffffffffffffff1673ffffffffffffffffffffffffffffffffffffffff1663b0e79d9b6008546001806040518463ffffffff167c01000000000000000000000000000000000000000000000000000000000281526004018084600019166000191681526020018360ff168152602001821515151581526020019350505050600060405180830381600087803b158015610d6a57600080fd5b505af1158015610d7e573d6000803e3d6000fd5b50505050610d8c600661176f565b50565b6000610d9961122c565b1515610da457600080fd5b60026001610dbe828260036117919092919063ffffffff16565b610dc66111f8565b92508273ffffffffffffffffffffffffffffffffffffffff166108fc3073ffffffffffffffffffffffffffffffffffffffff16319081150290604051600060405180830381858888f19350505050158015610e25573d6000803e3d6000fd5b50505050565b610e3361122c565b1515610e3e57600080fd5b600073ffffffffffffffffffffffffffffffffffffffff166000809054906101000a900473ffffffffffffffffffffffffffffffffffffffff1673ffffffffffffffffffffffffffffffffffffffff167f8be0079c531659141344cd1fd0a4f28419497f9722a3daafe3b4186f6b6457e060405160405180910390a360008060006101000a81548173ffffffffffffffffffffffffffffffffffffffff021916908373ffffffffffffffffffffffffffffffffffffffff160217905550565b600581565b610f0a61122c565b1515610f1557600080fd5b60018060ff16600360000160019054906101000a900460ff1660ff16141515610f3d57600080fd5b600660009054906101000a900473ffffffffffffffffffffffffffffffffffffffff1673ffffffffffffffffffffffffffffffffffffffff1663bb9f765f610f836111f8565b6040518263ffffffff167c0100000000000000000000000000000000000000000000000000000000028152600401808273ffffffffffffffffffffffffffffffffffffffff1673ffffffffffffffffffffffffffffffffffffffff168152602001915050602060405180830381600087803b15801561100157600080fd5b505af1158015611015573d6000803e3d6000fd5b505050506040513d602081101561102b57600080fd5b8101908080519060200190929190505050156110505761104b600261176f565b61105b565b61105a600861176f565b5b50565b61106661122c565b151561107157600080fd5b60048060ff16600360000160019054906101000a900460ff1660ff1614151561109957600080fd5b6110a3600561176f565b50565b600560009054906101000a900473ffffffffffffffffffffffffffffffffffffffff1673ffffffffffffffffffffffffffffffffffffffff163373ffffffffffffffffffffffffffffffffffffffff1614151561110257600080fd5b60028060ff16600360000160019054906101000a900460ff1660ff1614151561112a57600080fd5b81600881600019169055506000600981905550611147600361176f565b5050565b600181565b600560009054906101000a900473ffffffffffffffffffffffffffffffffffffffff1673ffffffffffffffffffffffffffffffffffffffff163373ffffffffffffffffffffffffffffffffffffffff161415156111ac57600080fd5b7f4447806c1856b9de7671994ea8dbdc03abd565d1b8c00ffc5fa053c49bd40ecc60405160405180910390a16111e06111f8565b73ffffffffffffffffffffffffffffffffffffffff16ff5b60008060009054906101000a900473ffffffffffffffffffffffffffffffffffffffff16905090565b60085481565b600981565b60008060009054906101000a900473ffffffffffffffffffffffffffffffffffffffff1673ffffffffffffffffffffffffffffffffffffffff163373ffffffffffffffffffffffffffffffffffffffff1614905090565b61128b61122c565b151561129657600080fd5b60028060ff16600360000160019054906101000a900460ff1660ff161415156112be57600080fd5b6112c8600161176f565b50565b600281565b600560009054906101000a900473ffffffffffffffffffffffffffffffffffffffff1673ffffffffffffffffffffffffffffffffffffffff163373ffffffffffffffffffffffffffffffffffffffff1614151561132c57600080fd5b600360ff16600360000160019054906101000a900460ff1660ff16148061136b5750600460ff16600360000160019054906101000a900460ff1660ff16145b8061138e5750600560ff16600360000160019054906101000a900460ff1660ff16145b806113b15750600660ff16600360000160019054906101000a900460ff1660ff16145b806113d45750600760ff16600360000160019054906101000a900460ff1660ff16145b15156113df57600080fd5b6000600102600881600019169055506113f8600261176f565b565b61140261122c565b151561140d57600080fd5b8060ff16600981905550600560009054906101000a900473ffffffffffffffffffffffffffffffffffffffff1673ffffffffffffffffffffffffffffffffffffffff1663687fbdff600854836040518363ffffffff167c01000000000000000000000000000000000000000000000000000000000281526004018083600019166000191681526020018260ff1660ff16815260200192505050600060405180830381600087803b1580156114c057600080fd5b505af11580156114d4573d6000803e3d6000fd5b5050505050565b6114e361122c565b15156114ee57600080fd5b60038060ff16600360000160019054906101000a900460ff1660ff1614151561151657600080fd5b600060010260001916600854600019161415151561153357600080fd5b600560009054906101000a900473ffffffffffffffffffffffffffffffffffffffff1673ffffffffffffffffffffffffffffffffffffffff1663b0e79d9b6008546000806040518463ffffffff167c01000000000000000000000000000000000000000000000000000000000281526004018084600019166000191681526020018360ff168152602001821515151581526020019350505050600060405180830381600087803b1580156115e657600080fd5b505af11580156115fa573d6000803e3d6000fd5b50505050611608600261176f565b50565b600481565b60ff81565b61161d61122c565b151561162857600080fd5b60038060ff16600360000160019054906101000a900460ff1660ff1614151561165057600080fd5b600060010260001916600854600019161415151561166d57600080fd5b600560009054906101000a900473ffffffffffffffffffffffffffffffffffffffff1673ffffffffffffffffffffffffffffffffffffffff1663b0e79d9b600854600060016040518463ffffffff167c01000000000000000000000000000000000000000000000000000000000281526004018084600019166000191681526020018360ff168152602001821515151581526020019350505050600060405180830381600087803b15801561172157600080fd5b505af1158015611735573d6000803e3d6000fd5b50505050611743600461176f565b50565b600881565b600381565b61175861122c565b151561176357600080fd5b61176c816117f7565b50565b806117848160036118f190919063ffffffff16565b61178d826119c1565b5050565b60008090508360000160019054906101000a900460ff1660ff168360ff1614156117ba57600190505b8360000160019054906101000a900460ff1660ff168260ff1614156117de57600190505b600115158115151415156117f157600080fd5b50505050565b600073ffffffffffffffffffffffffffffffffffffffff168173ffffffffffffffffffffffffffffffffffffffff161415151561183357600080fd5b8073ffffffffffffffffffffffffffffffffffffffff166000809054906101000a900473ffffffffffffffffffffffffffffffffffffffff1673ffffffffffffffffffffffffffffffffffffffff167f8be0079c531659141344cd1fd0a4f28419497f9722a3daafe3b4186f6b6457e060405160405180910390a3806000806101000a81548173ffffffffffffffffffffffffffffffffffffffff021916908373ffffffffffffffffffffffffffffffffffffffff16021790555050565b600080600060ff8560000160019054906101000a900460ff1660ff161415151561191757fe5b600092508460010160008660000160019054906101000a900460ff1660ff1660ff1681526020019081526020016000209150600090505b81805490508110156119a7578360ff16828281548110151561196c57fe5b90600052602060002090602091828204019190069054906101000a900460ff1660ff16141561199a57600192505b808060010191505061194e565b600115158315151415156119ba57600080fd5b5050505050565b6000600360000160019054906101000a900460ff16905081600360000160016101000a81548160ff021916908360ff1602179055507fe8a97ea87e4388fa22d496b95a8ed5ced6717f49790318de2b928aaf37a021d881600360000160019054906101000a900460ff16604051808360ff1660ff1681526020018260ff1660ff1681526020019250505060405180910390a1611a5b611a5f565b5050565b565b6040805190810160405280601181526020017f5f696e697453746174654d616368696e65000000000000000000000000000000815250600015156002826040518082805190602001908083835b602083101515611ad35780518252602082019150602081019050602083039250611aae565b6001836020036101000a038019825116818451168082178552505050505050905001915050908152602001604051809103902060009054906101000a900460ff161515141515611b2257600080fd5b611b2c6003611bb3565b60016002826040518082805190602001908083835b602083101515611b665780518252602082019150602081019050602083039250611b41565b6001836020036101000a038019825116818451168082178552505050505050905001915050908152602001604051809103902060006101000a81548160ff02191690831515021790555050565b600015158160000160009054906101000a900460ff161515141515611bd757600080fd5b60018160000160016101000a81548160ff021916908360ff16021790555060018160000160006101000a81548160ff021916908315150217905550505600a165627a7a72305820ef5731368e5674e19c9b34746347f6ef64ffed5e8e56d74a0d5305ac25bbe1e40029",
  "source": "pragma solidity 0.4.24;\n\nimport \"../libraries/StateMachine.sol\";\nimport \"../pandora/managers/ICognitiveJobManager.sol\";\nimport \"../pandora/managers/IEconomicController.sol\";\nimport \"./IWorkerNode.sol\";\n\n/**\n * @title Worker Node Smart Contract\n * @author \"Dr Maxim Orlovsky\" <orlovsky@pandora.foundation>\n *\n * @dev # Worker Node Smart Contract\n *\n * Worker node contract accumulates funds/payments for performed cognitive work and contains inalienable reputation.\n * Note: In Pyrrha there is no mining. In the following versions all mined coins will be also assigned to the\n * `WorkerNode` contract\n *\n * Worker node acts as a state machine and each its function can be evoked only in some certain states. That\"s\n * why each function must have state machine-controlled function modifiers. Contract state is managed by\n * - Worker node code (second level of consensus)\n * - Main Pandora contract [Pandora.sol]\n * - Worker node contract itself\n */\n\ncontract WorkerNode is IWorkerNode, StateMachine   /* final */ {\n    /**\n     * ## State Machine extensions\n     */\n\n    /// @dev Modifier requiring contract to be preset in one of the active states (`Assigned`, `ReadyForDataValidation`,\n    /// `ValidatingData`, `ReadyForComputing`, `Computing`); otherwise an exception is generated and the function\n    /// does not execute\n    modifier requireActiveStates() {\n        require(\n            stateMachine.currentState == Assigned ||\n            stateMachine.currentState == ReadyForDataValidation ||\n            stateMachine.currentState == ValidatingData ||\n            stateMachine.currentState == ReadyForComputing ||\n            stateMachine.currentState == Computing);\n        _;\n    }\n\n    /// @dev Private method initializing state machine. Must be called only once from the contract constructor\n    function _initStateMachine() internal {\n        // Creating table of possible state transitions\n        mapping(uint8 => uint8[]) transitions = stateMachine.transitionTable;\n        transitions[Uninitialized] = [Idle, Offline, InsufficientStake];\n        transitions[Offline] = [Idle];\n        transitions[Idle] = [Offline, UnderPenalty, Assigned, Destroyed];\n        transitions[Assigned] = [Offline, UnderPenalty, ReadyForDataValidation];\n        transitions[ReadyForDataValidation] = [ValidatingData, Offline, UnderPenalty, Idle];\n        transitions[UnderPenalty] = [Offline, InsufficientStake, Idle];\n        transitions[ValidatingData] = [Offline, Idle, UnderPenalty, ReadyForComputing];\n        transitions[ReadyForComputing] = [Computing, Offline, UnderPenalty, Idle];\n        transitions[Computing] = [Offline, UnderPenalty, Idle];\n        transitions[InsufficientStake] = [Offline, Idle, Destroyed];\n\n        // Initializing state machine via base contract code\n        super._initStateMachine();\n\n        stateMachine.currentState = Offline;\n    }\n\n    /**\n     * ## Main implementation\n     */\n\n    /// ### Public variables\n\n\n    /// @notice Reference to the main Pandora contract.\n    /// @dev Required to check the validity of the method calls coming from the Pandora contract.\n    /// Initialy set from the address supplied to the constructor and can\"t be changed after.\n    ICognitiveJobManager public pandora;\n\n    IEconomicController public economicController;\n\n    uint256 public computingPrice;\n\n    /// @notice Active cognitive job reference. Zero when there is no active cognitive job assigned or performed\n    /// @dev Valid (non-zero) only for active states (see `activeStates` modified for the list of such states)\n    bytes32 public activeJob;\n\n\t/// @notice Progress of completing current active job batch, should be updated by node itself\n    uint256 public jobProgress;\n\n    event WorkerDestroyed();\n\n    /// ### Constructor and destructor\n\n    constructor(\n        ICognitiveJobManager _pandora, /// Reference to the main Pandora contract that creates Worker Node\n        IEconomicController _economicController,\n        uint256 _computingPrice\n    )\n    public {\n        require(_pandora != address(0), \"ERROR_INVALID_ADDRESS\");\n        require(_economicController != address(0), \"ERROR_INVALID_ADDRESS\");\n        pandora = _pandora;\n        economicController = _economicController;\n        computingPrice = _computingPrice;\n\n        // Initialize state machine (state transition table and initial state). Always must be performed at the very\n        // end of contract constructor code.\n        _initStateMachine();\n    }\n\n    /// ### Function modifiers\n\n    /// @dev Modifier for functions that can be called only by the main Pandora contract\n    modifier onlyPandora() {\n        require(msg.sender == address(pandora));\n        _;\n    }\n\n    /// ### External and public functions\n\n    function destroy()\n        external\n        onlyPandora\n    {\n        /// Call event before doing the actual contract suicide\n        emit WorkerDestroyed();\n\n        /// Suiciding\n        selfdestruct(owner());\n    }\n\n    function alive() external\n        onlyOwner\n        requireState(Offline)\n    {\n        if (economicController.hasAvailableFunds(owner())) {\n            _transitionToState(Idle);\n        } else {\n            _transitionToState(InsufficientStake);\n        }           \n    }\n\n    function offline() external\n        onlyOwner\n        requireState(Idle)\n    {\n        _transitionToState(Offline);   \n    }\n\n    function reportProgress(uint8 _percent) external\n        onlyOwner\n    {\n        jobProgress = _percent;\n        pandora.commitProgress(activeJob, _percent);        \n    }\n\n    /// @notice Do not call\n    /// @dev Assigns cognitive job to the worker. Can be called only by one of active cognitive jobs listed under\n    /// the main Pandora contract\n    function assignJob(\n        /// @dev Cognitive job to be assigned\n        bytes32 _jobId\n\n    )\n    onlyPandora\n    external\n        /// @dev Job can be assigned only to Idle workers\n        requireState(Idle)\n    {\n        activeJob = _jobId;\n        jobProgress = 0;\n        _transitionToState(Assigned);\n    }\n\n    function cancelJob()\n        onlyPandora\n        requireActiveStates\n        external\n    {\n        activeJob = bytes32(0);\n        _transitionToState(Idle);\n    }\n\n    function acceptAssignment() external\n        onlyOwner\n        requireState(Assigned)\n    {\n        require(activeJob != bytes32(0));\n        pandora.respondToJob(activeJob, 0, true); // 0 - response type AcceptAssignment\n        _transitionToState(ReadyForDataValidation);\n    }\n\n    function declineAssignment() external\n        onlyOwner\n        requireState(Assigned)\n    {\n        require(activeJob != bytes32(0));\n        pandora.respondToJob(activeJob, 0, false); // 0 - response type AcceptAssignment\n        _transitionToState(Idle);\n    }\n\n    function processToDataValidation() external\n        onlyOwner\n        requireState(ReadyForDataValidation)\n    {\n        _transitionToState(ValidatingData);\n    }\n\n    function acceptValidData() external\n        onlyOwner\n        requireState(ValidatingData)\n    {\n        require(activeJob != bytes32(0));\n        pandora.respondToJob(activeJob, 1, true); // 1 - response type DataValidation\n        _transitionToState(ReadyForComputing);\n    }\n\n    function declineValidData() external\n        onlyOwner\n        requireState(ValidatingData)\n    {\n        require(activeJob != bytes32(0));\n        pandora.respondToJob(activeJob, 1, false);  // 1 - response type DataValidation\n        _transitionToState(Idle);\n    }\n\n    function reportInvalidData() external\n        onlyOwner\n        requireState(ValidatingData)\n    {\n        require(activeJob != bytes32(0));\n        //todo implement with validation\n        _transitionToState(Idle);\n    }\n\n    function processToCognition() external\n        onlyOwner\n        requireState(ReadyForComputing)\n    {\n        _transitionToState(Computing);\n    }\n\n    function provideResults(\n        bytes _ipfsAddress\n    ) external\n        onlyOwner\n        requireState(Computing)\n    {\n        require(activeJob != bytes32(0));\n        pandora.provideResults(activeJob, _ipfsAddress);\n        _transitionToState(Idle);\n    }\n\n    /// @notice Withdraws full balance to the owner account. Can be called only by the owner of the contract.\n    function withdrawBalance() external\n        onlyOwner // Can be called only by the owner\n        requireStates2(Idle, Offline)\n    {\n        address ownerAddr = owner();\n        ownerAddr.transfer(address(this).balance);\n    }\n\n    function _transitionToState(uint8 _newState) private requireAllowedTransition(_newState)  {\n        transitionToState(_newState);\n    }\n\n    function updateComputingPrice(uint256 _newPrice) external\n        onlyOwner // Can be called only by the owner\n        requireStates2(Idle, Offline) {\n        \n        require(_newPrice >= 1, \"ERROR_INVALID_COMPUTING_PRICE\");\n        computingPrice = _newPrice;\n    }\n}\n",
  "sourcePath": "/home/kostysh/dev/pyrrha-consensus/contracts/nodes/WorkerNode.sol",
  "compiler": {
    "name": "solc",
    "version": "0.4.24+commit.e67f0147.Emscripten.clang"
  },
  "schemaVersion": "2.0.1",
  "updatedAt": "2018-12-27T18:52:29.547Z"
}