{
  "contractName": "WorkerNodeFactory",
  "abi": [
    {
      "constant": false,
      "inputs": [],
      "name": "renounceOwnership",
      "outputs": [],
      "payable": false,
      "stateMutability": "nonpayable",
      "type": "function"
    },
    {
      "constant": true,
      "inputs": [],
      "name": "owner",
      "outputs": [
        {
          "name": "",
          "type": "address"
        }
      ],
      "payable": false,
      "stateMutability": "view",
      "type": "function"
    },
    {
      "constant": false,
      "inputs": [
        {
          "name": "_newOwner",
          "type": "address"
        }
      ],
      "name": "transferOwnership",
      "outputs": [],
      "payable": false,
      "stateMutability": "nonpayable",
      "type": "function"
    },
    {
      "inputs": [],
      "payable": false,
      "stateMutability": "nonpayable",
      "type": "constructor"
    },
    {
      "anonymous": false,
      "inputs": [
        {
          "indexed": false,
          "name": "owner",
          "type": "address"
        }
      ],
      "name": "WorkerNodeOwner",
      "type": "event"
    },
    {
      "anonymous": false,
      "inputs": [
        {
          "indexed": true,
          "name": "previousOwner",
          "type": "address"
        }
      ],
      "name": "OwnershipRenounced",
      "type": "event"
    },
    {
      "anonymous": false,
      "inputs": [
        {
          "indexed": true,
          "name": "previousOwner",
          "type": "address"
        },
        {
          "indexed": true,
          "name": "newOwner",
          "type": "address"
        }
      ],
      "name": "OwnershipTransferred",
      "type": "event"
    },
    {
      "constant": false,
      "inputs": [
        {
          "name": "_nodeOwner",
          "type": "address"
        }
      ],
      "name": "create",
      "outputs": [
        {
          "name": "o_workerNode",
          "type": "address"
        }
      ],
      "payable": false,
      "stateMutability": "nonpayable",
      "type": "function"
    }
  ],
  "bytecode": "0x608060405234801561001057600080fd5b50336000806101000a81548173ffffffffffffffffffffffffffffffffffffffff021916908373ffffffffffffffffffffffffffffffffffffffff160217905550612c44806100606000396000f30060806040526004361062000067576000357c0100000000000000000000000000000000000000000000000000000000900463ffffffff168063715018a6146200006c5780638da5cb5b14620000865780639ed9331814620000e0578063f2fde38b1462000166575b600080fd5b3480156200007957600080fd5b5062000084620001ac565b005b3480156200009357600080fd5b506200009e620002af565b604051808273ffffffffffffffffffffffffffffffffffffffff1673ffffffffffffffffffffffffffffffffffffffff16815260200191505060405180910390f35b348015620000ed57600080fd5b5062000124600480360381019080803573ffffffffffffffffffffffffffffffffffffffff169060200190929190505050620002d4565b604051808273ffffffffffffffffffffffffffffffffffffffff1673ffffffffffffffffffffffffffffffffffffffff16815260200191505060405180910390f35b3480156200017357600080fd5b50620001aa600480360381019080803573ffffffffffffffffffffffffffffffffffffffff1690602001909291905050506200050b565b005b6000809054906101000a900473ffffffffffffffffffffffffffffffffffffffff1673ffffffffffffffffffffffffffffffffffffffff163373ffffffffffffffffffffffffffffffffffffffff161415156200020857600080fd5b6000809054906101000a900473ffffffffffffffffffffffffffffffffffffffff1673ffffffffffffffffffffffffffffffffffffffff167ff8df31144d9c2f0f6b59d69b8b98abd5459d07f2742c4df920b25aae33c6482060405160405180910390a260008060006101000a81548173ffffffffffffffffffffffffffffffffffffffff021916908373ffffffffffffffffffffffffffffffffffffffff160217905550565b6000809054906101000a900473ffffffffffffffffffffffffffffffffffffffff1681565b60008060009054906101000a900473ffffffffffffffffffffffffffffffffffffffff1673ffffffffffffffffffffffffffffffffffffffff163373ffffffffffffffffffffffffffffffffffffffff161415156200033257600080fd5b6000809054906101000a900473ffffffffffffffffffffffffffffffffffffffff166200035e62000670565b808273ffffffffffffffffffffffffffffffffffffffff1673ffffffffffffffffffffffffffffffffffffffff168152602001915050604051809103906000f080158015620003b1573d6000803e3d6000fd5b509050600073ffffffffffffffffffffffffffffffffffffffff168173ffffffffffffffffffffffffffffffffffffffff1614151515620003ee57fe5b8073ffffffffffffffffffffffffffffffffffffffff1663f2fde38b836040518263ffffffff167c0100000000000000000000000000000000000000000000000000000000028152600401808273ffffffffffffffffffffffffffffffffffffffff1673ffffffffffffffffffffffffffffffffffffffff168152602001915050600060405180830381600087803b1580156200048a57600080fd5b505af11580156200049f573d6000803e3d6000fd5b505050507ffdc096b66b6e50fabf401010098ada94d32726d356fc947dea8d1c321f6b336982604051808273ffffffffffffffffffffffffffffffffffffffff1673ffffffffffffffffffffffffffffffffffffffff16815260200191505060405180910390a1919050565b6000809054906101000a900473ffffffffffffffffffffffffffffffffffffffff1673ffffffffffffffffffffffffffffffffffffffff163373ffffffffffffffffffffffffffffffffffffffff161415156200056757600080fd5b620005728162000575565b50565b600073ffffffffffffffffffffffffffffffffffffffff168173ffffffffffffffffffffffffffffffffffffffff1614151515620005b257600080fd5b8073ffffffffffffffffffffffffffffffffffffffff166000809054906101000a900473ffffffffffffffffffffffffffffffffffffffff1673ffffffffffffffffffffffffffffffffffffffff167f8be0079c531659141344cd1fd0a4f28419497f9722a3daafe3b4186f6b6457e060405160405180910390a3806000806101000a81548173ffffffffffffffffffffffffffffffffffffffff021916908373ffffffffffffffffffffffffffffffffffffffff16021790555050565b604051612597806200068283390190560060806040523480156200001157600080fd5b506040516020806200259783398101806040528101908080519060200190929190505050336000806101000a81548173ffffffffffffffffffffffffffffffffffffffff021916908373ffffffffffffffffffffffffffffffffffffffff160217905550600073ffffffffffffffffffffffffffffffffffffffff168173ffffffffffffffffffffffffffffffffffffffff1614151515620000b257600080fd5b80600560006101000a81548173ffffffffffffffffffffffffffffffffffffffff021916908373ffffffffffffffffffffffffffffffffffffffff1602179055506200010c62000113640100000000026401000000009004565b506200090e565b600060036001019050606060405190810160405280600260ff1660ff168152602001600160ff1660ff168152602001600860ff1660ff168152508160008060ff1660ff16815260200190815260200160002090600362000175929190620006d1565b50602060405190810160405280600260ff1660ff16815250816000600160ff1660ff168152602001908152602001600020906001620001b69291906200077f565b50608060405190810160405280600160ff1660ff168152602001600960ff1660ff168152602001600360ff1660ff16815260200160ff801660ff16815250816000600260ff1660ff1681526020019081526020016000209060046200021d9291906200082d565b50606060405190810160405280600160ff1660ff168152602001600960ff1660ff168152602001600460ff1660ff16815250816000600360ff1660ff16815260200190815260200160002090600362000278929190620006d1565b50608060405190810160405280600560ff1660ff168152602001600160ff1660ff168152602001600960ff1660ff168152602001600260ff1660ff16815250816000600460ff1660ff168152602001908152602001600020906004620002e09291906200082d565b50606060405190810160405280600160ff1660ff168152602001600860ff1660ff168152602001600260ff1660ff16815250816000600960ff1660ff1681526020019081526020016000209060036200033b929190620006d1565b50608060405190810160405280600160ff1660ff168152602001600260ff1660ff168152602001600960ff1660ff168152602001600660ff1660ff16815250816000600560ff1660ff168152602001908152602001600020906004620003a39291906200082d565b50608060405190810160405280600760ff1660ff168152602001600160ff1660ff168152602001600960ff1660ff168152602001600260ff1660ff16815250816000600660ff1660ff1681526020019081526020016000209060046200040b9291906200082d565b50606060405190810160405280600160ff1660ff168152602001600960ff1660ff168152602001600260ff1660ff16815250816000600760ff1660ff16815260200190815260200160002090600362000466929190620006d1565b50606060405190810160405280600160ff1660ff168152602001600260ff1660ff16815260200160ff801660ff16815250816000600860ff1660ff168152602001908152602001600020906003620004c0929190620006d1565b50620004df620005016401000000000262001a99176401000000009004565b6001600360000160016101000a81548160ff021916908360ff16021790555050565b6040805190810160405280601181526020017f5f696e697453746174654d616368696e65000000000000000000000000000000815250600015156002826040518082805190602001908083835b6020831015156200057557805182526020820191506020810190506020830392506200054e565b6001836020036101000a038019825116818451168082178552505050505050905001915050908152602001604051809103902060009054906101000a900460ff161515141515620005c557600080fd5b620005e560036200066e6401000000000262001beb176401000000009004565b60016002826040518082805190602001908083835b602083101515620006215780518252602082019150602081019050602083039250620005fa565b6001836020036101000a038019825116818451168082178552505050505050905001915050908152602001604051809103902060006101000a81548160ff02191690831515021790555050565b600015158160000160009054906101000a900460ff1615151415156200069357600080fd5b60018160000160016101000a81548160ff021916908360ff16021790555060018160000160006101000a81548160ff02191690831515021790555050565b82805482825590600052602060002090601f016020900481019282156200076c5791602002820160005b838211156200073b57835183826101000a81548160ff021916908360ff1602179055509260200192600101602081600001049283019260010302620006fb565b80156200076a5782816101000a81549060ff02191690556001016020816000010492830192600103026200073b565b505b5090506200077b9190620008db565b5090565b82805482825590600052602060002090601f016020900481019282156200081a5791602002820160005b83821115620007e957835183826101000a81548160ff021916908360ff1602179055509260200192600101602081600001049283019260010302620007a9565b8015620008185782816101000a81549060ff0219169055600101602081600001049283019260010302620007e9565b505b509050620008299190620008db565b5090565b82805482825590600052602060002090601f01602090048101928215620008c85791602002820160005b838211156200089757835183826101000a81548160ff021916908360ff160217905550926020019260010160208160000104928301926001030262000857565b8015620008c65782816101000a81549060ff021916905560010160208160000104928301926001030262000897565b505b509050620008d79190620008db565b5090565b6200090b91905b808211156200090757600081816101000a81549060ff021916905550600101620008e2565b5090565b90565b611c79806200091e6000396000f3006080604052600436106101a1576000357c0100000000000000000000000000000000000000000000000000000000900463ffffffff16806306401ff4146101a65780630c3f6acf146101bd5780631a0bc596146101ee5780631a6b2eb1146102455780631c72fad41461025c5780631d53dbed1461028d5780633b976974146102be57806347850cce146102ef578063481deb4e146103065780634a60442c146103415780635e903db01461036c5780635fd8c71014610383578063715018a61461039a57806374de5bde146103b1578063753899e9146103e257806377c6cc38146103f95780637aee7e0914610410578063822bb4d11461044157806383197ef0146104725780638da5cb5b146104895780638daeaa40146104e05780638dd172a214610513578063acf7807b14610544578063ae897c5514610574578063b07c7475146105a5578063bb94d792146105bc578063c162bef5146105ec578063c80ce25d14610603578063cc0e82c114610634578063df12e6c314610665578063f1bc94d21461067c578063f2361410146106ad578063f2fde38b146106de575b600080fd5b3480156101b257600080fd5b506101bb610721565b005b3480156101c957600080fd5b506101d26107b1565b604051808260ff1660ff16815260200191505060405180910390f35b3480156101fa57600080fd5b506102036107cb565b604051808273ffffffffffffffffffffffffffffffffffffffff1673ffffffffffffffffffffffffffffffffffffffff16815260200191505060405180910390f35b34801561025157600080fd5b5061025a6107f1565b005b34801561026857600080fd5b5061027161096a565b604051808260ff1660ff16815260200191505060405180910390f35b34801561029957600080fd5b506102a261096f565b604051808260ff1660ff16815260200191505060405180910390f35b3480156102ca57600080fd5b506102d3610974565b604051808260ff1660ff16815260200191505060405180910390f35b3480156102fb57600080fd5b50610304610979565b005b34801561031257600080fd5b5061033f600480360381019080803590602001908201803590602001919091929391929390505050610a26565b005b34801561034d57600080fd5b50610356610baa565b6040518082815260200191505060405180910390f35b34801561037857600080fd5b50610381610bb0565b005b34801561038f57600080fd5b50610398610d28565b005b3480156103a657600080fd5b506103af610e20565b005b3480156103bd57600080fd5b506103c6610f22565b604051808260ff1660ff16815260200191505060405180910390f35b3480156103ee57600080fd5b506103f7610f27565b005b34801561040557600080fd5b5061040e610fb7565b005b34801561041c57600080fd5b5061043f6004803603810190808035600019169060200190929190505050611047565b005b34801561044d57600080fd5b506104566110ec565b604051808260ff1660ff16815260200191505060405180910390f35b34801561047e57600080fd5b506104876110f1565b005b34801561049557600080fd5b5061049e6111b3565b604051808273ffffffffffffffffffffffffffffffffffffffff1673ffffffffffffffffffffffffffffffffffffffff16815260200191505060405180910390f35b3480156104ec57600080fd5b506104f56111d8565b60405180826000191660001916815260200191505060405180910390f35b34801561051f57600080fd5b506105286111de565b604051808260ff1660ff16815260200191505060405180910390f35b34801561055057600080fd5b50610572600480360381019080803560ff1690602001909291905050506111e3565b005b34801561058057600080fd5b50610589611281565b604051808260ff1660ff16815260200191505060405180910390f35b3480156105b157600080fd5b506105ba611286565b005b3480156105c857600080fd5b506105ea600480360381019080803560ff1690602001909291905050506113b0565b005b3480156105f857600080fd5b506106016114d9565b005b34801561060f57600080fd5b50610618611651565b604051808260ff1660ff16815260200191505060405180910390f35b34801561064057600080fd5b50610649611656565b604051808260ff1660ff16815260200191505060405180910390f35b34801561067157600080fd5b5061067a61165b565b005b34801561068857600080fd5b506106916117d4565b604051808260ff1660ff16815260200191505060405180910390f35b3480156106b957600080fd5b506106c26117d9565b604051808260ff1660ff16815260200191505060405180910390f35b3480156106ea57600080fd5b5061071f600480360381019080803573ffffffffffffffffffffffffffffffffffffffff1690602001909291905050506117de565b005b6000809054906101000a900473ffffffffffffffffffffffffffffffffffffffff1673ffffffffffffffffffffffffffffffffffffffff163373ffffffffffffffffffffffffffffffffffffffff1614151561077c57600080fd5b60068060ff16600360000160019054906101000a900460ff1660ff161415156107a457600080fd5b6107ae6007611845565b50565b6000600360000160019054906101000a900460ff16905090565b600560009054906101000a900473ffffffffffffffffffffffffffffffffffffffff1681565b6000809054906101000a900473ffffffffffffffffffffffffffffffffffffffff1673ffffffffffffffffffffffffffffffffffffffff163373ffffffffffffffffffffffffffffffffffffffff1614151561084c57600080fd5b60058060ff16600360000160019054906101000a900460ff1660ff1614151561087457600080fd5b600060010260001916600654600019161415151561089157600080fd5b600560009054906101000a900473ffffffffffffffffffffffffffffffffffffffff1673ffffffffffffffffffffffffffffffffffffffff1663b0e79d9b600654600160006040518463ffffffff167c01000000000000000000000000000000000000000000000000000000000281526004018084600019166000191681526020018360ff168152602001821515151581526020019350505050600060405180830381600087803b15801561094557600080fd5b505af1158015610959573d6000803e3d6000fd5b505050506109676002611845565b50565b600081565b600781565b600681565b6000809054906101000a900473ffffffffffffffffffffffffffffffffffffffff1673ffffffffffffffffffffffffffffffffffffffff163373ffffffffffffffffffffffffffffffffffffffff161415156109d457600080fd5b60058060ff16600360000160019054906101000a900460ff1660ff161415156109fc57600080fd5b6000600102600019166006546000191614151515610a1957600080fd5b610a236002611845565b50565b6000809054906101000a900473ffffffffffffffffffffffffffffffffffffffff1673ffffffffffffffffffffffffffffffffffffffff163373ffffffffffffffffffffffffffffffffffffffff16141515610a8157600080fd5b60078060ff16600360000160019054906101000a900460ff1660ff16141515610aa957600080fd5b6000600102600019166006546000191614151515610ac657600080fd5b600560009054906101000a900473ffffffffffffffffffffffffffffffffffffffff1673ffffffffffffffffffffffffffffffffffffffff1663bbcc726160065485856040518463ffffffff167c01000000000000000000000000000000000000000000000000000000000281526004018084600019166000191681526020018060200182810382528484828181526020019250808284378201915050945050505050600060405180830381600087803b158015610b8357600080fd5b505af1158015610b97573d6000803e3d6000fd5b50505050610ba56002611845565b505050565b60075481565b6000809054906101000a900473ffffffffffffffffffffffffffffffffffffffff1673ffffffffffffffffffffffffffffffffffffffff163373ffffffffffffffffffffffffffffffffffffffff16141515610c0b57600080fd5b60058060ff16600360000160019054906101000a900460ff1660ff16141515610c3357600080fd5b6000600102600019166006546000191614151515610c5057600080fd5b600560009054906101000a900473ffffffffffffffffffffffffffffffffffffffff1673ffffffffffffffffffffffffffffffffffffffff1663b0e79d9b6006546001806040518463ffffffff167c01000000000000000000000000000000000000000000000000000000000281526004018084600019166000191681526020018360ff168152602001821515151581526020019350505050600060405180830381600087803b158015610d0357600080fd5b505af1158015610d17573d6000803e3d6000fd5b50505050610d256006611845565b50565b6000809054906101000a900473ffffffffffffffffffffffffffffffffffffffff1673ffffffffffffffffffffffffffffffffffffffff163373ffffffffffffffffffffffffffffffffffffffff16141515610d8357600080fd5b60026001610d9d828260036118679092919063ffffffff16565b6000809054906101000a900473ffffffffffffffffffffffffffffffffffffffff1673ffffffffffffffffffffffffffffffffffffffff166108fc3073ffffffffffffffffffffffffffffffffffffffff16319081150290604051600060405180830381858888f19350505050158015610e1b573d6000803e3d6000fd5b505050565b6000809054906101000a900473ffffffffffffffffffffffffffffffffffffffff1673ffffffffffffffffffffffffffffffffffffffff163373ffffffffffffffffffffffffffffffffffffffff16141515610e7b57600080fd5b6000809054906101000a900473ffffffffffffffffffffffffffffffffffffffff1673ffffffffffffffffffffffffffffffffffffffff167ff8df31144d9c2f0f6b59d69b8b98abd5459d07f2742c4df920b25aae33c6482060405160405180910390a260008060006101000a81548173ffffffffffffffffffffffffffffffffffffffff021916908373ffffffffffffffffffffffffffffffffffffffff160217905550565b600581565b6000809054906101000a900473ffffffffffffffffffffffffffffffffffffffff1673ffffffffffffffffffffffffffffffffffffffff163373ffffffffffffffffffffffffffffffffffffffff16141515610f8257600080fd5b60018060ff16600360000160019054906101000a900460ff1660ff16141515610faa57600080fd5b610fb46002611845565b50565b6000809054906101000a900473ffffffffffffffffffffffffffffffffffffffff1673ffffffffffffffffffffffffffffffffffffffff163373ffffffffffffffffffffffffffffffffffffffff1614151561101257600080fd5b60048060ff16600360000160019054906101000a900460ff1660ff1614151561103a57600080fd5b6110446005611845565b50565b600560009054906101000a900473ffffffffffffffffffffffffffffffffffffffff1673ffffffffffffffffffffffffffffffffffffffff163373ffffffffffffffffffffffffffffffffffffffff161415156110a357600080fd5b60028060ff16600360000160019054906101000a900460ff1660ff161415156110cb57600080fd5b816006816000191690555060006007819055506110e86003611845565b5050565b600181565b600560009054906101000a900473ffffffffffffffffffffffffffffffffffffffff1673ffffffffffffffffffffffffffffffffffffffff163373ffffffffffffffffffffffffffffffffffffffff1614151561114d57600080fd5b7f4447806c1856b9de7671994ea8dbdc03abd565d1b8c00ffc5fa053c49bd40ecc60405160405180910390a16000809054906101000a900473ffffffffffffffffffffffffffffffffffffffff1673ffffffffffffffffffffffffffffffffffffffff16ff5b6000809054906101000a900473ffffffffffffffffffffffffffffffffffffffff1681565b60065481565b600981565b6000600360000160019054906101000a900460ff16905081600360000160016101000a81548160ff021916908360ff1602179055507fe8a97ea87e4388fa22d496b95a8ed5ced6717f49790318de2b928aaf37a021d881600360000160019054906101000a900460ff16604051808360ff1660ff1681526020018260ff1660ff1681526020019250505060405180910390a161127d6118cd565b5050565b600281565b600560009054906101000a900473ffffffffffffffffffffffffffffffffffffffff1673ffffffffffffffffffffffffffffffffffffffff163373ffffffffffffffffffffffffffffffffffffffff161415156112e257600080fd5b600360ff16600360000160019054906101000a900460ff1660ff1614806113215750600460ff16600360000160019054906101000a900460ff1660ff16145b806113445750600560ff16600360000160019054906101000a900460ff1660ff16145b806113675750600660ff16600360000160019054906101000a900460ff1660ff16145b8061138a5750600760ff16600360000160019054906101000a900460ff1660ff16145b151561139557600080fd5b6000600102600681600019169055506113ae6002611845565b565b6000809054906101000a900473ffffffffffffffffffffffffffffffffffffffff1673ffffffffffffffffffffffffffffffffffffffff163373ffffffffffffffffffffffffffffffffffffffff1614151561140b57600080fd5b8060ff16600781905550600560009054906101000a900473ffffffffffffffffffffffffffffffffffffffff1673ffffffffffffffffffffffffffffffffffffffff1663687fbdff600654836040518363ffffffff167c01000000000000000000000000000000000000000000000000000000000281526004018083600019166000191681526020018260ff1660ff16815260200192505050600060405180830381600087803b1580156114be57600080fd5b505af11580156114d2573d6000803e3d6000fd5b5050505050565b6000809054906101000a900473ffffffffffffffffffffffffffffffffffffffff1673ffffffffffffffffffffffffffffffffffffffff163373ffffffffffffffffffffffffffffffffffffffff1614151561153457600080fd5b60038060ff16600360000160019054906101000a900460ff1660ff1614151561155c57600080fd5b600060010260001916600654600019161415151561157957600080fd5b600560009054906101000a900473ffffffffffffffffffffffffffffffffffffffff1673ffffffffffffffffffffffffffffffffffffffff1663b0e79d9b6006546000806040518463ffffffff167c01000000000000000000000000000000000000000000000000000000000281526004018084600019166000191681526020018360ff168152602001821515151581526020019350505050600060405180830381600087803b15801561162c57600080fd5b505af1158015611640573d6000803e3d6000fd5b5050505061164e6002611845565b50565b600481565b60ff81565b6000809054906101000a900473ffffffffffffffffffffffffffffffffffffffff1673ffffffffffffffffffffffffffffffffffffffff163373ffffffffffffffffffffffffffffffffffffffff161415156116b657600080fd5b60038060ff16600360000160019054906101000a900460ff1660ff161415156116de57600080fd5b60006001026000191660065460001916141515156116fb57600080fd5b600560009054906101000a900473ffffffffffffffffffffffffffffffffffffffff1673ffffffffffffffffffffffffffffffffffffffff1663b0e79d9b600654600060016040518463ffffffff167c01000000000000000000000000000000000000000000000000000000000281526004018084600019166000191681526020018360ff168152602001821515151581526020019350505050600060405180830381600087803b1580156117af57600080fd5b505af11580156117c3573d6000803e3d6000fd5b505050506117d16004611845565b50565b600881565b600381565b6000809054906101000a900473ffffffffffffffffffffffffffffffffffffffff1673ffffffffffffffffffffffffffffffffffffffff163373ffffffffffffffffffffffffffffffffffffffff1614151561183957600080fd5b611842816118cf565b50565b8061185a8160036119c990919063ffffffff16565b611863826111e3565b5050565b60008090508360000160019054906101000a900460ff1660ff168360ff16141561189057600190505b8360000160019054906101000a900460ff1660ff168260ff1614156118b457600190505b600115158115151415156118c757600080fd5b50505050565b565b600073ffffffffffffffffffffffffffffffffffffffff168173ffffffffffffffffffffffffffffffffffffffff161415151561190b57600080fd5b8073ffffffffffffffffffffffffffffffffffffffff166000809054906101000a900473ffffffffffffffffffffffffffffffffffffffff1673ffffffffffffffffffffffffffffffffffffffff167f8be0079c531659141344cd1fd0a4f28419497f9722a3daafe3b4186f6b6457e060405160405180910390a3806000806101000a81548173ffffffffffffffffffffffffffffffffffffffff021916908373ffffffffffffffffffffffffffffffffffffffff16021790555050565b600080600060ff8560000160019054906101000a900460ff1660ff16141515156119ef57fe5b600092508460010160008660000160019054906101000a900460ff1660ff1660ff1681526020019081526020016000209150600090505b8180549050811015611a7f578360ff168282815481101515611a4457fe5b90600052602060002090602091828204019190069054906101000a900460ff1660ff161415611a7257600192505b8080600101915050611a26565b60011515831515141515611a9257600080fd5b5050505050565b6040805190810160405280601181526020017f5f696e697453746174654d616368696e65000000000000000000000000000000815250600015156002826040518082805190602001908083835b602083101515611b0b5780518252602082019150602081019050602083039250611ae6565b6001836020036101000a038019825116818451168082178552505050505050905001915050908152602001604051809103902060009054906101000a900460ff161515141515611b5a57600080fd5b611b646003611beb565b60016002826040518082805190602001908083835b602083101515611b9e5780518252602082019150602081019050602083039250611b79565b6001836020036101000a038019825116818451168082178552505050505050905001915050908152602001604051809103902060006101000a81548160ff02191690831515021790555050565b600015158160000160009054906101000a900460ff161515141515611c0f57600080fd5b60018160000160016101000a81548160ff021916908360ff16021790555060018160000160006101000a81548160ff021916908315150217905550505600a165627a7a7230582049bd42ef48a543bed39a8cc808a793ad536e559d8a315db3e7d42009af0ac0980029a165627a7a7230582077b0bd67bddbbc6bbd57a6f0850cf135f8d092bc99f2c25c913a5bc742324ec70029",
  "source": "pragma solidity ^0.4.23;\r\n\r\nimport \"../../nodes/WorkerNode.sol\";\r\nimport \"../managers/ICognitiveJobManager.sol\";\r\nimport \"./IWorkerNodeFactory.sol\";\r\n\r\ncontract WorkerNodeFactory is IWorkerNodeFactory {\r\n    constructor() public {}\r\n\r\n    event WorkerNodeOwner(address owner);\r\n    /// @dev Creates worker node contract for the main Pandora contract and does necessary preparations of it\r\n    /// (transferring ownership). Can be called only by a Pandora contract (Pandora is the owner of the factory)\r\n    function create(\r\n        address _nodeOwner /// Worker node owner. Contract ownership will be transferred to this owner upon creation\r\n    )\r\n    onlyOwner\r\n    external\r\n    returns (\r\n        WorkerNode o_workerNode /// Worker node created by the factory\r\n    ) {\r\n        // Creating node\r\n        o_workerNode = new WorkerNode(ICognitiveJobManager(owner));\r\n\r\n        // Checking that it was created correctly\r\n        assert(o_workerNode != WorkerNode(0));\r\n\r\n        // Transferring ownership to the owner supplied by Pandora (it must be a caller of `Pandora.createWorkerNode`\r\n        // function\r\n        o_workerNode.transferOwnership(_nodeOwner);\r\n\r\n        emit WorkerNodeOwner(_nodeOwner);\r\n    }\r\n}\r\n",
  "sourcePath": "G:\\PROJECTS\\Pandora\\pyrrha-consensus\\contracts\\pandora\\factories\\WorkerNodeFactory.sol",
  "compiler": {
    "name": "solc",
    "version": "0.4.24+commit.e67f0147.Emscripten.clang"
  },
  "schemaVersion": "2.0.1",
  "updatedAt": "2018-07-24T12:23:19.696Z"
}