{
  "contractName": "WorkerNode",
  "abi": [
    {
      "constant": true,
      "inputs": [],
      "name": "currentState",
      "outputs": [
        {
          "name": "",
          "type": "uint8"
        }
      ],
      "payable": false,
      "stateMutability": "view",
      "type": "function"
    },
    {
      "constant": true,
      "inputs": [],
      "name": "pandora",
      "outputs": [
        {
          "name": "",
          "type": "address"
        }
      ],
      "payable": false,
      "stateMutability": "view",
      "type": "function"
    },
    {
      "constant": true,
      "inputs": [],
      "name": "Uninitialized",
      "outputs": [
        {
          "name": "",
          "type": "uint8"
        }
      ],
      "payable": false,
      "stateMutability": "view",
      "type": "function"
    },
    {
      "constant": true,
      "inputs": [],
      "name": "Computing",
      "outputs": [
        {
          "name": "",
          "type": "uint8"
        }
      ],
      "payable": false,
      "stateMutability": "view",
      "type": "function"
    },
    {
      "constant": true,
      "inputs": [],
      "name": "ReadyForComputing",
      "outputs": [
        {
          "name": "",
          "type": "uint8"
        }
      ],
      "payable": false,
      "stateMutability": "view",
      "type": "function"
    },
    {
      "constant": true,
      "inputs": [],
      "name": "ValidatingData",
      "outputs": [
        {
          "name": "",
          "type": "uint8"
        }
      ],
      "payable": false,
      "stateMutability": "view",
      "type": "function"
    },
    {
      "constant": true,
      "inputs": [],
      "name": "Offline",
      "outputs": [
        {
          "name": "",
          "type": "uint8"
        }
      ],
      "payable": false,
      "stateMutability": "view",
      "type": "function"
    },
    {
      "constant": true,
      "inputs": [],
      "name": "owner",
      "outputs": [
        {
          "name": "",
          "type": "address"
        }
      ],
      "payable": false,
      "stateMutability": "view",
      "type": "function"
    },
    {
      "constant": true,
      "inputs": [],
      "name": "activeJob",
      "outputs": [
        {
          "name": "",
          "type": "address"
        }
      ],
      "payable": false,
      "stateMutability": "view",
      "type": "function"
    },
    {
      "constant": true,
      "inputs": [],
      "name": "UnderPenalty",
      "outputs": [
        {
          "name": "",
          "type": "uint8"
        }
      ],
      "payable": false,
      "stateMutability": "view",
      "type": "function"
    },
    {
      "constant": true,
      "inputs": [],
      "name": "Idle",
      "outputs": [
        {
          "name": "",
          "type": "uint8"
        }
      ],
      "payable": false,
      "stateMutability": "view",
      "type": "function"
    },
    {
      "constant": true,
      "inputs": [],
      "name": "reputation",
      "outputs": [
        {
          "name": "",
          "type": "uint256"
        }
      ],
      "payable": false,
      "stateMutability": "view",
      "type": "function"
    },
    {
      "constant": true,
      "inputs": [],
      "name": "ReadyForDataValidation",
      "outputs": [
        {
          "name": "",
          "type": "uint8"
        }
      ],
      "payable": false,
      "stateMutability": "view",
      "type": "function"
    },
    {
      "constant": true,
      "inputs": [],
      "name": "Destroyed",
      "outputs": [
        {
          "name": "",
          "type": "uint8"
        }
      ],
      "payable": false,
      "stateMutability": "view",
      "type": "function"
    },
    {
      "constant": true,
      "inputs": [],
      "name": "InsufficientStake",
      "outputs": [
        {
          "name": "",
          "type": "uint8"
        }
      ],
      "payable": false,
      "stateMutability": "view",
      "type": "function"
    },
    {
      "constant": true,
      "inputs": [],
      "name": "Assigned",
      "outputs": [
        {
          "name": "",
          "type": "uint8"
        }
      ],
      "payable": false,
      "stateMutability": "view",
      "type": "function"
    },
    {
      "constant": false,
      "inputs": [
        {
          "name": "newOwner",
          "type": "address"
        }
      ],
      "name": "transferOwnership",
      "outputs": [],
      "payable": false,
      "stateMutability": "nonpayable",
      "type": "function"
    },
    {
      "inputs": [
        {
          "name": "_pandora",
          "type": "address"
        }
      ],
      "payable": false,
      "stateMutability": "nonpayable",
      "type": "constructor"
    },
    {
      "anonymous": false,
      "inputs": [],
      "name": "WorkerDestroyed",
      "type": "event"
    },
    {
      "anonymous": false,
      "inputs": [
        {
          "indexed": false,
          "name": "oldState",
          "type": "uint8"
        },
        {
          "indexed": false,
          "name": "newState",
          "type": "uint8"
        }
      ],
      "name": "StateChanged",
      "type": "event"
    },
    {
      "anonymous": false,
      "inputs": [
        {
          "indexed": true,
          "name": "previousOwner",
          "type": "address"
        },
        {
          "indexed": true,
          "name": "newOwner",
          "type": "address"
        }
      ],
      "name": "OwnershipTransferred",
      "type": "event"
    },
    {
      "constant": false,
      "inputs": [],
      "name": "destroy",
      "outputs": [],
      "payable": false,
      "stateMutability": "nonpayable",
      "type": "function"
    },
    {
      "constant": false,
      "inputs": [],
      "name": "alive",
      "outputs": [],
      "payable": false,
      "stateMutability": "nonpayable",
      "type": "function"
    },
    {
      "constant": false,
      "inputs": [
        {
          "name": "_job",
          "type": "address"
        }
      ],
      "name": "assignJob",
      "outputs": [],
      "payable": false,
      "stateMutability": "nonpayable",
      "type": "function"
    },
    {
      "constant": false,
      "inputs": [],
      "name": "cancelJob",
      "outputs": [],
      "payable": false,
      "stateMutability": "nonpayable",
      "type": "function"
    },
    {
      "constant": false,
      "inputs": [],
      "name": "acceptAssignment",
      "outputs": [],
      "payable": false,
      "stateMutability": "nonpayable",
      "type": "function"
    },
    {
      "constant": false,
      "inputs": [],
      "name": "declineAssignment",
      "outputs": [],
      "payable": false,
      "stateMutability": "nonpayable",
      "type": "function"
    },
    {
      "constant": false,
      "inputs": [],
      "name": "processToDataValidation",
      "outputs": [],
      "payable": false,
      "stateMutability": "nonpayable",
      "type": "function"
    },
    {
      "constant": false,
      "inputs": [],
      "name": "acceptValidData",
      "outputs": [],
      "payable": false,
      "stateMutability": "nonpayable",
      "type": "function"
    },
    {
      "constant": false,
      "inputs": [],
      "name": "declineValidData",
      "outputs": [],
      "payable": false,
      "stateMutability": "nonpayable",
      "type": "function"
    },
    {
      "constant": false,
      "inputs": [],
      "name": "reportInvalidData",
      "outputs": [],
      "payable": false,
      "stateMutability": "nonpayable",
      "type": "function"
    },
    {
      "constant": false,
      "inputs": [],
      "name": "processToCognition",
      "outputs": [],
      "payable": false,
      "stateMutability": "nonpayable",
      "type": "function"
    },
    {
      "constant": false,
      "inputs": [
        {
          "name": "_ipfsAddress",
          "type": "bytes"
        }
      ],
      "name": "provideResults",
      "outputs": [],
      "payable": false,
      "stateMutability": "nonpayable",
      "type": "function"
    },
    {
      "constant": false,
      "inputs": [],
      "name": "increaseReputation",
      "outputs": [],
      "payable": false,
      "stateMutability": "nonpayable",
      "type": "function"
    },
    {
      "constant": false,
      "inputs": [],
      "name": "decreaseReputation",
      "outputs": [],
      "payable": false,
      "stateMutability": "nonpayable",
      "type": "function"
    },
    {
      "constant": false,
      "inputs": [],
      "name": "resetReputation",
      "outputs": [],
      "payable": false,
      "stateMutability": "nonpayable",
      "type": "function"
    },
    {
      "constant": false,
      "inputs": [],
      "name": "maxPenalty",
      "outputs": [],
      "payable": false,
      "stateMutability": "nonpayable",
      "type": "function"
    },
    {
      "constant": false,
      "inputs": [],
      "name": "deathPenalty",
      "outputs": [],
      "payable": false,
      "stateMutability": "nonpayable",
      "type": "function"
    },
    {
      "constant": false,
      "inputs": [],
      "name": "withdrawBalance",
      "outputs": [],
      "payable": false,
      "stateMutability": "nonpayable",
      "type": "function"
    }
  ],
  "bytecode": "0x60806040523480156200001157600080fd5b50604051602080620037dc83398101806040528101908080519060200190929190505050336000806101000a81548173ffffffffffffffffffffffffffffffffffffffff021916908373ffffffffffffffffffffffffffffffffffffffff160217905550600073ffffffffffffffffffffffffffffffffffffffff168173ffffffffffffffffffffffffffffffffffffffff1614151515620000b257600080fd5b80600760006101000a81548173ffffffffffffffffffffffffffffffffffffffff021916908373ffffffffffffffffffffffffffffffffffffffff16021790555060006009819055506000600860006101000a81548173ffffffffffffffffffffffffffffffffffffffff021916908373ffffffffffffffffffffffffffffffffffffffff160217905550620001566200015d640100000000026401000000009004565b5062000958565b600060056001019050606060405190810160405280600260ff1660ff168152602001600160ff1660ff168152602001600860ff1660ff168152508160008060ff1660ff168152602001908152602001600020906003620001bf9291906200071b565b50602060405190810160405280600260ff1660ff16815250816000600160ff1660ff16815260200190815260200160002090600162000200929190620007c9565b50608060405190810160405280600160ff1660ff168152602001600960ff1660ff168152602001600360ff1660ff16815260200160ff801660ff16815250816000600260ff1660ff1681526020019081526020016000209060046200026792919062000877565b50606060405190810160405280600160ff1660ff168152602001600960ff1660ff168152602001600460ff1660ff16815250816000600360ff1660ff168152602001908152602001600020906003620002c29291906200071b565b50608060405190810160405280600560ff1660ff168152602001600160ff1660ff168152602001600960ff1660ff168152602001600260ff1660ff16815250816000600460ff1660ff1681526020019081526020016000209060046200032a92919062000877565b50606060405190810160405280600160ff1660ff168152602001600860ff1660ff168152602001600260ff1660ff16815250816000600960ff1660ff168152602001908152602001600020906003620003859291906200071b565b50608060405190810160405280600160ff1660ff168152602001600260ff1660ff168152602001600960ff1660ff168152602001600660ff1660ff16815250816000600560ff1660ff168152602001908152602001600020906004620003ed92919062000877565b50608060405190810160405280600760ff1660ff168152602001600160ff1660ff168152602001600960ff1660ff168152602001600260ff1660ff16815250816000600660ff1660ff1681526020019081526020016000209060046200045592919062000877565b50606060405190810160405280600160ff1660ff168152602001600960ff1660ff168152602001600260ff1660ff16815250816000600760ff1660ff168152602001908152602001600020906003620004b09291906200071b565b50606060405190810160405280600160ff1660ff168152602001600260ff1660ff16815260200160ff801660ff16815250816000600860ff1660ff1681526020019081526020016000209060036200050a9291906200071b565b50620005296200054b6401000000000262002c94176401000000009004565b6001600560000160016101000a81548160ff021916908360ff16021790555050565b6040805190810160405280601181526020017f5f696e697453746174654d616368696e65000000000000000000000000000000815250600015156004826040518082805190602001908083835b602083101515620005bf578051825260208201915060208101905060208303925062000598565b6001836020036101000a038019825116818451168082178552505050505050905001915050908152602001604051809103902060009054906101000a900460ff1615151415156200060f57600080fd5b6200062f6005620006b86401000000000262002de6176401000000009004565b60016004826040518082805190602001908083835b6020831015156200066b578051825260208201915060208101905060208303925062000644565b6001836020036101000a038019825116818451168082178552505050505050905001915050908152602001604051809103902060006101000a81548160ff02191690831515021790555050565b600015158160000160009054906101000a900460ff161515141515620006dd57600080fd5b60018160000160016101000a81548160ff021916908360ff16021790555060018160000160006101000a81548160ff02191690831515021790555050565b82805482825590600052602060002090601f01602090048101928215620007b65791602002820160005b838211156200078557835183826101000a81548160ff021916908360ff160217905550926020019260010160208160000104928301926001030262000745565b8015620007b45782816101000a81549060ff021916905560010160208160000104928301926001030262000785565b505b509050620007c5919062000925565b5090565b82805482825590600052602060002090601f01602090048101928215620008645791602002820160005b838211156200083357835183826101000a81548160ff021916908360ff1602179055509260200192600101602081600001049283019260010302620007f3565b8015620008625782816101000a81549060ff021916905560010160208160000104928301926001030262000833565b505b50905062000873919062000925565b5090565b82805482825590600052602060002090601f01602090048101928215620009125791602002820160005b83821115620008e157835183826101000a81548160ff021916908360ff1602179055509260200192600101602081600001049283019260010302620008a1565b8015620009105782816101000a81549060ff0219169055600101602081600001049283019260010302620008e1565b505b50905062000921919062000925565b5090565b6200095591905b808211156200095157600081816101000a81549060ff0219169055506001016200092c565b5090565b90565b612e7480620009686000396000f3006080604052600436106101b7576000357c0100000000000000000000000000000000000000000000000000000000900463ffffffff16806306401ff4146101bc5780630c3f6acf146101d35780631a0bc596146102045780631a6b2eb11461025b5780631c72fad4146102725780631d53dbed146102a35780633b976974146102d457806347850cce14610305578063481deb4e1461031c5780635200e79e14610357578063597c0b7c1461036e5780635e903db0146103855780635fd8c7101461039c57806374de5bde146103b3578063753899e9146103e457806377c6cc38146103fb578063822bb4d11461041257806383197ef014610443578063897399ae1461045a5780638da5cb5b1461049d5780638daeaa40146104f45780638dd172a21461054b5780638f8004cf1461057c578063a73de1ec14610593578063ae897c55146105aa578063b07c7475146105db578063c162bef5146105f2578063c52164c614610609578063c80ce25d14610634578063cc0e82c114610665578063df12e6c314610696578063e5469d9f146106ad578063f1bc94d2146106c4578063f2361410146106f5578063f2fde38b14610726575b600080fd5b3480156101c857600080fd5b506101d1610769565b005b3480156101df57600080fd5b506101e8610846565b604051808260ff1660ff16815260200191505060405180910390f35b34801561021057600080fd5b50610219610860565b604051808273ffffffffffffffffffffffffffffffffffffffff1673ffffffffffffffffffffffffffffffffffffffff16815260200191505060405180910390f35b34801561026757600080fd5b50610270610886565b005b34801561027e57600080fd5b50610287610a79565b604051808260ff1660ff16815260200191505060405180910390f35b3480156102af57600080fd5b506102b8610a7e565b604051808260ff1660ff16815260200191505060405180910390f35b3480156102e057600080fd5b506102e9610a83565b604051808260ff1660ff16815260200191505060405180910390f35b34801561031157600080fd5b5061031a610a88565b005b34801561032857600080fd5b50610355600480360381019080803590602001908201803590602001919091929391929390505050610c7b565b005b34801561036357600080fd5b5061036c610e7b565b005b34801561037a57600080fd5b50610383611056565b005b34801561039157600080fd5b5061039a611231565b005b3480156103a857600080fd5b506103b1611424565b005b3480156103bf57600080fd5b506103c861151c565b604051808260ff1660ff16815260200191505060405180910390f35b3480156103f057600080fd5b506103f9611521565b005b34801561040757600080fd5b506104106115fe565b005b34801561041e57600080fd5b506104276116db565b604051808260ff1660ff16815260200191505060405180910390f35b34801561044f57600080fd5b506104586116e0565b005b34801561046657600080fd5b5061049b600480360381019080803573ffffffffffffffffffffffffffffffffffffffff169060200190929190505050611800565b005b3480156104a957600080fd5b506104b2611b7f565b604051808273ffffffffffffffffffffffffffffffffffffffff1673ffffffffffffffffffffffffffffffffffffffff16815260200191505060405180910390f35b34801561050057600080fd5b50610509611ba4565b604051808273ffffffffffffffffffffffffffffffffffffffff1673ffffffffffffffffffffffffffffffffffffffff16815260200191505060405180910390f35b34801561055757600080fd5b50610560611bca565b604051808260ff1660ff16815260200191505060405180910390f35b34801561058857600080fd5b50610591611bcf565b005b34801561059f57600080fd5b506105a8611e7f565b005b3480156105b657600080fd5b506105bf61214b565b604051808260ff1660ff16815260200191505060405180910390f35b3480156105e757600080fd5b506105f0612150565b005b3480156105fe57600080fd5b50610607612355565b005b34801561061557600080fd5b5061061e61253e565b6040518082815260200191505060405180910390f35b34801561064057600080fd5b50610649612544565b604051808260ff1660ff16815260200191505060405180910390f35b34801561067157600080fd5b5061067a612549565b604051808260ff1660ff16815260200191505060405180910390f35b3480156106a257600080fd5b506106ab61254e565b005b3480156106b957600080fd5b506106c2612737565b005b3480156106d057600080fd5b506106d9612805565b604051808260ff1660ff16815260200191505060405180910390f35b34801561070157600080fd5b5061070a61280a565b604051808260ff1660ff16815260200191505060405180910390f35b34801561073257600080fd5b50610767600480360381019080803573ffffffffffffffffffffffffffffffffffffffff16906020019092919050505061280f565b005b60068060ff16600560000160019054906101000a900460ff1660ff1614151561079157600080fd5b60076000600560000160019054906101000a900460ff1690506107be82600561296490919063ffffffff16565b81600560000160016101000a81548160ff021916908360ff1602179055507fe8a97ea87e4388fa22d496b95a8ed5ced6717f49790318de2b928aaf37a021d881600560000160019054906101000a900460ff16604051808360ff1660ff1681526020018260ff1660ff1681526020019250505060405180910390a1610841612a34565b505050565b6000600560000160019054906101000a900460ff16905090565b600760009054906101000a900473ffffffffffffffffffffffffffffffffffffffff1681565b60058060ff16600560000160019054906101000a900460ff1660ff161415156108ae57600080fd5b60026000600560000160019054906101000a900460ff1690506108db82600561296490919063ffffffff16565b600073ffffffffffffffffffffffffffffffffffffffff16600860009054906101000a900473ffffffffffffffffffffffffffffffffffffffff1673ffffffffffffffffffffffffffffffffffffffff161415151561093957600080fd5b600860009054906101000a900473ffffffffffffffffffffffffffffffffffffffff1673ffffffffffffffffffffffffffffffffffffffff1663b225be4260016040518263ffffffff167c0100000000000000000000000000000000000000000000000000000000028152600401808260028111156109b457fe5b60ff168152602001915050600060405180830381600087803b1580156109d957600080fd5b505af11580156109ed573d6000803e3d6000fd5b5050505081600560000160016101000a81548160ff021916908360ff1602179055507fe8a97ea87e4388fa22d496b95a8ed5ced6717f49790318de2b928aaf37a021d881600560000160019054906101000a900460ff16604051808360ff1660ff1681526020018260ff1660ff1681526020019250505060405180910390a1610a74612a34565b505050565b600081565b600781565b600681565b60058060ff16600560000160019054906101000a900460ff1660ff16141515610ab057600080fd5b60026000600560000160019054906101000a900460ff169050610add82600561296490919063ffffffff16565b600073ffffffffffffffffffffffffffffffffffffffff16600860009054906101000a900473ffffffffffffffffffffffffffffffffffffffff1673ffffffffffffffffffffffffffffffffffffffff1614151515610b3b57600080fd5b600860009054906101000a900473ffffffffffffffffffffffffffffffffffffffff1673ffffffffffffffffffffffffffffffffffffffff1663b225be4260026040518263ffffffff167c010000000000000000000000000000000000000000000000000000000002815260040180826002811115610bb657fe5b60ff168152602001915050600060405180830381600087803b158015610bdb57600080fd5b505af1158015610bef573d6000803e3d6000fd5b5050505081600560000160016101000a81548160ff021916908360ff1602179055507fe8a97ea87e4388fa22d496b95a8ed5ced6717f49790318de2b928aaf37a021d881600560000160019054906101000a900460ff16604051808360ff1660ff1681526020018260ff1660ff1681526020019250505060405180910390a1610c76612a34565b505050565b60078060ff16600560000160019054906101000a900460ff1660ff16141515610ca357600080fd5b60026000600560000160019054906101000a900460ff169050610cd082600561296490919063ffffffff16565b600073ffffffffffffffffffffffffffffffffffffffff16600860009054906101000a900473ffffffffffffffffffffffffffffffffffffffff1673ffffffffffffffffffffffffffffffffffffffff1614151515610d2e57600080fd5b600860009054906101000a900473ffffffffffffffffffffffffffffffffffffffff1673ffffffffffffffffffffffffffffffffffffffff16634e6b42a886866040518363ffffffff167c01000000000000000000000000000000000000000000000000000000000281526004018080602001828103825284848281815260200192508082843782019150509350505050600060405180830381600087803b158015610dd957600080fd5b505af1158015610ded573d6000803e3d6000fd5b5050505081600560000160016101000a81548160ff021916908360ff1602179055507fe8a97ea87e4388fa22d496b95a8ed5ced6717f49790318de2b928aaf37a021d881600560000160019054906101000a900460ff16604051808360ff1660ff1681526020018260ff1660ff1681526020019250505060405180910390a1610e74612a34565b5050505050565b600073ffffffffffffffffffffffffffffffffffffffff16600760009054906101000a900473ffffffffffffffffffffffffffffffffffffffff1673ffffffffffffffffffffffffffffffffffffffff1614151515610ed957600080fd5b600760009054906101000a900473ffffffffffffffffffffffffffffffffffffffff1673ffffffffffffffffffffffffffffffffffffffff163373ffffffffffffffffffffffffffffffffffffffff16141515610f3557600080fd5b60096000600560000160019054906101000a900460ff169050610f62826005612a3690919063ffffffff16565b7fe8a97ea87e4388fa22d496b95a8ed5ced6717f49790318de2b928aaf37a021d881600560000160019054906101000a900460ff16604051808360ff1660ff1681526020018260ff1660ff1681526020019250505060405180910390a1610fc7612a34565b600060098190555080600560000160016101000a81548160ff021916908360ff1602179055507fe8a97ea87e4388fa22d496b95a8ed5ced6717f49790318de2b928aaf37a021d882600560000160019054906101000a900460ff16604051808360ff1660ff1681526020018260ff1660ff1681526020019250505060405180910390a1611052612a34565b5050565b600073ffffffffffffffffffffffffffffffffffffffff16600760009054906101000a900473ffffffffffffffffffffffffffffffffffffffff1673ffffffffffffffffffffffffffffffffffffffff16141515156110b457600080fd5b600760009054906101000a900473ffffffffffffffffffffffffffffffffffffffff1673ffffffffffffffffffffffffffffffffffffffff163373ffffffffffffffffffffffffffffffffffffffff1614151561111057600080fd5b60096000600560000160019054906101000a900460ff16905061113d826005612a3690919063ffffffff16565b7fe8a97ea87e4388fa22d496b95a8ed5ced6717f49790318de2b928aaf37a021d881600560000160019054906101000a900460ff16604051808360ff1660ff1681526020018260ff1660ff1681526020019250505060405180910390a16111a2612a34565b600060098190555080600560000160016101000a81548160ff021916908360ff1602179055507fe8a97ea87e4388fa22d496b95a8ed5ced6717f49790318de2b928aaf37a021d882600560000160019054906101000a900460ff16604051808360ff1660ff1681526020018260ff1660ff1681526020019250505060405180910390a161122d612a34565b5050565b60058060ff16600560000160019054906101000a900460ff1660ff1614151561125957600080fd5b60066000600560000160019054906101000a900460ff16905061128682600561296490919063ffffffff16565b600073ffffffffffffffffffffffffffffffffffffffff16600860009054906101000a900473ffffffffffffffffffffffffffffffffffffffff1673ffffffffffffffffffffffffffffffffffffffff16141515156112e457600080fd5b600860009054906101000a900473ffffffffffffffffffffffffffffffffffffffff1673ffffffffffffffffffffffffffffffffffffffff1663b225be4260006040518263ffffffff167c01000000000000000000000000000000000000000000000000000000000281526004018082600281111561135f57fe5b60ff168152602001915050600060405180830381600087803b15801561138457600080fd5b505af1158015611398573d6000803e3d6000fd5b5050505081600560000160016101000a81548160ff021916908360ff1602179055507fe8a97ea87e4388fa22d496b95a8ed5ced6717f49790318de2b928aaf37a021d881600560000160019054906101000a900460ff16604051808360ff1660ff1681526020018260ff1660ff1681526020019250505060405180910390a161141f612a34565b505050565b6000809054906101000a900473ffffffffffffffffffffffffffffffffffffffff1673ffffffffffffffffffffffffffffffffffffffff163373ffffffffffffffffffffffffffffffffffffffff1614151561147f57600080fd5b6002600161149982826005612bd09092919063ffffffff16565b6000809054906101000a900473ffffffffffffffffffffffffffffffffffffffff1673ffffffffffffffffffffffffffffffffffffffff166108fc3073ffffffffffffffffffffffffffffffffffffffff16319081150290604051600060405180830381858888f19350505050158015611517573d6000803e3d6000fd5b505050565b600581565b60018060ff16600560000160019054906101000a900460ff1660ff1614151561154957600080fd5b60026000600560000160019054906101000a900460ff16905061157682600561296490919063ffffffff16565b81600560000160016101000a81548160ff021916908360ff1602179055507fe8a97ea87e4388fa22d496b95a8ed5ced6717f49790318de2b928aaf37a021d881600560000160019054906101000a900460ff16604051808360ff1660ff1681526020018260ff1660ff1681526020019250505060405180910390a16115f9612a34565b505050565b60048060ff16600560000160019054906101000a900460ff1660ff1614151561162657600080fd5b60056000600560000160019054906101000a900460ff16905061165382600561296490919063ffffffff16565b81600560000160016101000a81548160ff021916908360ff1602179055507fe8a97ea87e4388fa22d496b95a8ed5ced6717f49790318de2b928aaf37a021d881600560000160019054906101000a900460ff16604051808360ff1660ff1681526020018260ff1660ff1681526020019250505060405180910390a16116d6612a34565b505050565b600181565b600073ffffffffffffffffffffffffffffffffffffffff16600760009054906101000a900473ffffffffffffffffffffffffffffffffffffffff1673ffffffffffffffffffffffffffffffffffffffff161415151561173e57600080fd5b600760009054906101000a900473ffffffffffffffffffffffffffffffffffffffff1673ffffffffffffffffffffffffffffffffffffffff163373ffffffffffffffffffffffffffffffffffffffff1614151561179a57600080fd5b7f4447806c1856b9de7671994ea8dbdc03abd565d1b8c00ffc5fa053c49bd40ecc60405160405180910390a16000809054906101000a900473ffffffffffffffffffffffffffffffffffffffff1673ffffffffffffffffffffffffffffffffffffffff16ff5b60008073ffffffffffffffffffffffffffffffffffffffff16600760009054906101000a900473ffffffffffffffffffffffffffffffffffffffff1673ffffffffffffffffffffffffffffffffffffffff161415151561185f57600080fd5b3390508073ffffffffffffffffffffffffffffffffffffffff16631a0bc5966040518163ffffffff167c0100000000000000000000000000000000000000000000000000000000028152600401602060405180830381600087803b1580156118c657600080fd5b505af11580156118da573d6000803e3d6000fd5b505050506040513d60208110156118f057600080fd5b810190808051906020019092919050505073ffffffffffffffffffffffffffffffffffffffff16600760009054906101000a900473ffffffffffffffffffffffffffffffffffffffff1673ffffffffffffffffffffffffffffffffffffffff1614151561195c57600080fd5b600760009054906101000a900473ffffffffffffffffffffffffffffffffffffffff1673ffffffffffffffffffffffffffffffffffffffff16630ba58574826040518263ffffffff167c0100000000000000000000000000000000000000000000000000000000028152600401808273ffffffffffffffffffffffffffffffffffffffff1673ffffffffffffffffffffffffffffffffffffffff168152602001915050602060405180830381600087803b158015611a1957600080fd5b505af1158015611a2d573d6000803e3d6000fd5b505050506040513d6020811015611a4357600080fd5b81019080805190602001909291905050501515611a5f57600080fd5b60028060ff16600560000160019054906101000a900460ff1660ff16141515611a8757600080fd5b60036000600560000160019054906101000a900460ff169050611ab482600561296490919063ffffffff16565b84600860006101000a81548173ffffffffffffffffffffffffffffffffffffffff021916908373ffffffffffffffffffffffffffffffffffffffff16021790555081600560000160016101000a81548160ff021916908360ff1602179055507fe8a97ea87e4388fa22d496b95a8ed5ced6717f49790318de2b928aaf37a021d881600560000160019054906101000a900460ff16604051808360ff1660ff1681526020018260ff1660ff1681526020019250505060405180910390a1611b78612a34565b5050505050565b6000809054906101000a900473ffffffffffffffffffffffffffffffffffffffff1681565b600860009054906101000a900473ffffffffffffffffffffffffffffffffffffffff1681565b600981565b600073ffffffffffffffffffffffffffffffffffffffff16600760009054906101000a900473ffffffffffffffffffffffffffffffffffffffff1673ffffffffffffffffffffffffffffffffffffffff1614151515611c2d57600080fd5b600760009054906101000a900473ffffffffffffffffffffffffffffffffffffffff1673ffffffffffffffffffffffffffffffffffffffff163373ffffffffffffffffffffffffffffffffffffffff16141515611c8957600080fd5b60096000600560000160019054906101000a900460ff169050611cb6826005612a3690919063ffffffff16565b7fe8a97ea87e4388fa22d496b95a8ed5ced6717f49790318de2b928aaf37a021d881600560000160019054906101000a900460ff16604051808360ff1660ff1681526020018260ff1660ff1681526020019250505060405180910390a1611d1b612a34565b6000600981905550600760009054906101000a900473ffffffffffffffffffffffffffffffffffffffff1673ffffffffffffffffffffffffffffffffffffffff1663ae1092ae306040518263ffffffff167c0100000000000000000000000000000000000000000000000000000000028152600401808273ffffffffffffffffffffffffffffffffffffffff1673ffffffffffffffffffffffffffffffffffffffff168152602001915050600060405180830381600087803b158015611de057600080fd5b505af1158015611df4573d6000803e3d6000fd5b5050505080600560000160016101000a81548160ff021916908360ff1602179055507fe8a97ea87e4388fa22d496b95a8ed5ced6717f49790318de2b928aaf37a021d882600560000160019054906101000a900460ff16604051808360ff1660ff1681526020018260ff1660ff1681526020019250505060405180910390a1611e7b612a34565b5050565b600073ffffffffffffffffffffffffffffffffffffffff16600760009054906101000a900473ffffffffffffffffffffffffffffffffffffffff1673ffffffffffffffffffffffffffffffffffffffff1614151515611edd57600080fd5b600760009054906101000a900473ffffffffffffffffffffffffffffffffffffffff1673ffffffffffffffffffffffffffffffffffffffff163373ffffffffffffffffffffffffffffffffffffffff16141515611f3957600080fd5b60096000600560000160019054906101000a900460ff169050611f66826005612a3690919063ffffffff16565b7fe8a97ea87e4388fa22d496b95a8ed5ced6717f49790318de2b928aaf37a021d881600560000160019054906101000a900460ff16604051808360ff1660ff1681526020018260ff1660ff1681526020019250505060405180910390a1611fcb612a34565b600060095414156120b057600760009054906101000a900473ffffffffffffffffffffffffffffffffffffffff1673ffffffffffffffffffffffffffffffffffffffff1663ae1092ae306040518263ffffffff167c0100000000000000000000000000000000000000000000000000000000028152600401808273ffffffffffffffffffffffffffffffffffffffff1673ffffffffffffffffffffffffffffffffffffffff168152602001915050600060405180830381600087803b15801561209357600080fd5b505af11580156120a7573d6000803e3d6000fd5b505050506120c4565b600960008154809291906001900391905055505b80600560000160016101000a81548160ff021916908360ff1602179055507fe8a97ea87e4388fa22d496b95a8ed5ced6717f49790318de2b928aaf37a021d882600560000160019054906101000a900460ff16604051808360ff1660ff1681526020018260ff1660ff1681526020019250505060405180910390a1612147612a34565b5050565b600281565b600860009054906101000a900473ffffffffffffffffffffffffffffffffffffffff1673ffffffffffffffffffffffffffffffffffffffff163373ffffffffffffffffffffffffffffffffffffffff161415156121ac57600080fd5b600360ff16600560000160019054906101000a900460ff1660ff1614806121eb5750600460ff16600560000160019054906101000a900460ff1660ff16145b8061220e5750600560ff16600560000160019054906101000a900460ff1660ff16145b806122315750600660ff16600560000160019054906101000a900460ff1660ff16145b806122545750600760ff16600560000160019054906101000a900460ff1660ff16145b151561225f57600080fd5b60026000600560000160019054906101000a900460ff16905061228c82600561296490919063ffffffff16565b6000600860006101000a81548173ffffffffffffffffffffffffffffffffffffffff021916908373ffffffffffffffffffffffffffffffffffffffff16021790555081600560000160016101000a81548160ff021916908360ff1602179055507fe8a97ea87e4388fa22d496b95a8ed5ced6717f49790318de2b928aaf37a021d881600560000160019054906101000a900460ff16604051808360ff1660ff1681526020018260ff1660ff1681526020019250505060405180910390a1612351612a34565b5050565b60038060ff16600560000160019054906101000a900460ff1660ff1614151561237d57600080fd5b60026000600560000160019054906101000a900460ff1690506123aa82600561296490919063ffffffff16565b600073ffffffffffffffffffffffffffffffffffffffff16600860009054906101000a900473ffffffffffffffffffffffffffffffffffffffff1673ffffffffffffffffffffffffffffffffffffffff161415151561240857600080fd5b600860009054906101000a900473ffffffffffffffffffffffffffffffffffffffff1673ffffffffffffffffffffffffffffffffffffffff166364d3414c60006040518263ffffffff167c01000000000000000000000000000000000000000000000000000000000281526004018082151515158152602001915050600060405180830381600087803b15801561249e57600080fd5b505af11580156124b2573d6000803e3d6000fd5b5050505081600560000160016101000a81548160ff021916908360ff1602179055507fe8a97ea87e4388fa22d496b95a8ed5ced6717f49790318de2b928aaf37a021d881600560000160019054906101000a900460ff16604051808360ff1660ff1681526020018260ff1660ff1681526020019250505060405180910390a1612539612a34565b505050565b60095481565b600481565b60ff81565b60038060ff16600560000160019054906101000a900460ff1660ff1614151561257657600080fd5b60046000600560000160019054906101000a900460ff1690506125a382600561296490919063ffffffff16565b600073ffffffffffffffffffffffffffffffffffffffff16600860009054906101000a900473ffffffffffffffffffffffffffffffffffffffff1673ffffffffffffffffffffffffffffffffffffffff161415151561260157600080fd5b600860009054906101000a900473ffffffffffffffffffffffffffffffffffffffff1673ffffffffffffffffffffffffffffffffffffffff166364d3414c60016040518263ffffffff167c01000000000000000000000000000000000000000000000000000000000281526004018082151515158152602001915050600060405180830381600087803b15801561269757600080fd5b505af11580156126ab573d6000803e3d6000fd5b5050505081600560000160016101000a81548160ff021916908360ff1602179055507fe8a97ea87e4388fa22d496b95a8ed5ced6717f49790318de2b928aaf37a021d881600560000160019054906101000a900460ff16604051808360ff1660ff1681526020018260ff1660ff1681526020019250505060405180910390a1612732612a34565b505050565b600073ffffffffffffffffffffffffffffffffffffffff16600760009054906101000a900473ffffffffffffffffffffffffffffffffffffffff1673ffffffffffffffffffffffffffffffffffffffff161415151561279557600080fd5b600760009054906101000a900473ffffffffffffffffffffffffffffffffffffffff1673ffffffffffffffffffffffffffffffffffffffff163373ffffffffffffffffffffffffffffffffffffffff161415156127f157600080fd5b600960008154809291906001019190505550565b600881565b600381565b6000809054906101000a900473ffffffffffffffffffffffffffffffffffffffff1673ffffffffffffffffffffffffffffffffffffffff163373ffffffffffffffffffffffffffffffffffffffff1614151561286a57600080fd5b600073ffffffffffffffffffffffffffffffffffffffff168173ffffffffffffffffffffffffffffffffffffffff16141515156128a657600080fd5b8073ffffffffffffffffffffffffffffffffffffffff166000809054906101000a900473ffffffffffffffffffffffffffffffffffffffff1673ffffffffffffffffffffffffffffffffffffffff167f8be0079c531659141344cd1fd0a4f28419497f9722a3daafe3b4186f6b6457e060405160405180910390a3806000806101000a81548173ffffffffffffffffffffffffffffffffffffffff021916908373ffffffffffffffffffffffffffffffffffffffff16021790555050565b600080600060ff8560000160019054906101000a900460ff1660ff161415151561298a57fe5b600092508460010160008660000160019054906101000a900460ff1660ff1660ff1681526020019081526020016000209150600090505b8180549050811015612a1a578360ff1682828154811015156129df57fe5b90600052602060002090602091828204019190069054906101000a900460ff1660ff161415612a0d57600192505b80806001019150506129c1565b60011515831515141515612a2d57600080fd5b5050505050565b565b60008060008060ff8660000160019054906101000a900460ff1660ff1614151515612a5d57fe5b600093508560010160008760000160019054906101000a900460ff1660ff1660ff1681526020019081526020016000209250600091505b8280549050821015612af1578460ff168383815481101515612ab257fe5b90600052602060002090602091828204019190069054906101000a900460ff1660ff161415612ae45760019350612af1565b8180600101925050612a94565b60011515841515141515612b0457600080fd5b600090508560010160008660ff1660ff1681526020019081526020016000209250600091505b8280549050821015612b98578560000160019054906101000a900460ff1660ff168383815481101515612b5957fe5b90600052602060002090602091828204019190069054906101000a900460ff1660ff161415612b8b5760019050612b98565b8180600101925050612b2a565b60011515811515141515612bab57600080fd5b848660000160016101000a81548160ff021916908360ff160217905550505050505050565b6000612bda612c72565b600080925060408051908101604052808660ff1660ff1681526020018560ff1660ff168152509150600090505b6002811015612c57578560000160019054906101000a900460ff1660ff168282600281101515612c3357fe5b602002015160ff161415612c4a5760019250612c57565b8080600101915050612c07565b60011515831515141515612c6a57600080fd5b505050505050565b6040805190810160405280600290602082028038833980820191505090505090565b6040805190810160405280601181526020017f5f696e697453746174654d616368696e65000000000000000000000000000000815250600015156004826040518082805190602001908083835b602083101515612d065780518252602082019150602081019050602083039250612ce1565b6001836020036101000a038019825116818451168082178552505050505050905001915050908152602001604051809103902060009054906101000a900460ff161515141515612d5557600080fd5b612d5f6005612de6565b60016004826040518082805190602001908083835b602083101515612d995780518252602082019150602081019050602083039250612d74565b6001836020036101000a038019825116818451168082178552505050505050905001915050908152602001604051809103902060006101000a81548160ff02191690831515021790555050565b600015158160000160009054906101000a900460ff161515141515612e0a57600080fd5b60018160000160016101000a81548160ff021916908360ff16021790555060018160000160006101000a81548160ff021916908315150217905550505600a165627a7a723058207c5a64ac14cc4d85e03e52fc1c1b0aa985ccfee754fd45751b5bdf3b94817b7c0029",
  "source": "pragma solidity 0.4.23;\n\nimport \"../libraries/StateMachine.sol\";\nimport \"../pandora/IPandora.sol\";\nimport \"../jobs/IComputingJob.sol\";\nimport \"./IWorkerNode.sol\";\n\n/**\n * @title Worker Node Smart Contract\n * @author \"Dr Maxim Orlovsky\" <orlovsky@pandora.foundation>\n *\n * @dev # Worker Node Smart Contract\n *\n * Worker node contract accumulates funds/payments for performed cognitive work and contains inalienable reputation.\n * Note: In Pyrrha there is no mining. In the following versions all mined coins will be also assigned to the\n * `WorkerNode` contract\n *\n * Worker node acts as a state machine and each its function can be evoked only in some certain states. That\"s\n * why each function must have state machine-controlled function modifiers. Contract state is managed by\n * - Worker node code (second level of consensus)\n * - Main Pandora contract [Pandora.sol]\n * - Worker node contract itself\n */\n\ncontract WorkerNode is IWorkerNode, StateMachine /* final */ {\n    /**\n     * ## State Machine extensions\n     */\n\n    /// @dev Modifier requiring contract to be preset in one of the active states (`Assigned`, `ReadyForDataValidation`,\n    /// `ValidatingData`, `ReadyForComputing`, `Computing`); otherwise an exception is generated and the function\n    /// does not execute\n    modifier requireActiveStates() {\n        require(\n            stateMachine.currentState == Assigned ||\n            stateMachine.currentState == ReadyForDataValidation ||\n            stateMachine.currentState == ValidatingData ||\n            stateMachine.currentState == ReadyForComputing ||\n            stateMachine.currentState == Computing);\n        _;\n    }\n\n    /// @dev Private method initializing state machine. Must be called only once from the contract constructor\n    function _initStateMachine() internal {\n        // Creating table of possible state transitions\n        var transitions = stateMachine.transitionTable;\n        transitions[Uninitialized] = [Idle, Offline, InsufficientStake];\n        transitions[Offline] = [Idle];\n        transitions[Idle] = [Offline, UnderPenalty, Assigned, Destroyed];\n        transitions[Assigned] = [Offline, UnderPenalty, ReadyForDataValidation];\n        transitions[ReadyForDataValidation] = [ValidatingData, Offline, UnderPenalty, Idle];\n        transitions[UnderPenalty] = [Offline, InsufficientStake, Idle];\n        transitions[ValidatingData] = [Offline, Idle, UnderPenalty, ReadyForComputing];\n        transitions[ReadyForComputing] = [Computing, Offline, UnderPenalty, Idle];\n        transitions[Computing] = [Offline, UnderPenalty, Idle];\n        transitions[InsufficientStake] = [Offline, Idle, Destroyed];\n\n        // Initializing state machine via base contract code\n        super._initStateMachine();\n\n        // Going into initial state (Offline)\n        stateMachine.currentState = Offline;\n    }\n\n    /**\n     * ## Main implementation\n     */\n\n    /// ### Public variables\n\n\n    /// @notice Reference to the main Pandora contract.\n    /// @dev Required to check the validity of the method calls coming from the Pandora contract.\n    /// Initialy set from the address supplied to the constructor and can\"t be changed after.\n    IPandora public pandora;\n\n    /// @notice Active cognitive job reference. Zero when there is no active cognitive job assigned or performed\n    /// @dev Valid (non-zero) only for active states (see `activeStates` modified for the list of such states)\n    IComputingJob public activeJob;\n\n    /// @notice Current worker node reputation. Can be changed only by the main Pandora contract via special\n    /// external function calls\n    /// @dev Reputation can\"t be transferred or bought.\n    uint256 public reputation;\n\n    event WorkerDestroyed();\n\n    /// ### Constructor and destructor\n\n    constructor(\n        IPandora _pandora /// Reference to the main Pandora contract that creates Worker Node\n    )\n    public {\n        require(_pandora != address(0));\n        pandora = _pandora;\n\n        // Initial reputation is always zero\n        reputation = 0;\n\n        // There should be no active cognitive job upon contract creation\n        activeJob = IComputingJob(0);\n\n        // Initialize state machine (state transition table and initial state). Always must be performed at the very\n        // end of contract constructor code.\n        _initStateMachine();\n    }\n\n    function destroy()\n    external\n    onlyPandora {\n        /// Call event before doing the actual contract suicide\n        emit WorkerDestroyed();\n\n        /// Suiciding\n        selfdestruct(owner);\n    }\n\n    /// ### Function modifiers\n\n    /// @dev Modifier for functions that can be called only by the main Pandora contract\n    modifier onlyPandora() {\n        require(pandora != address(0));\n        require(msg.sender == address(pandora));\n        _;\n    }\n\n    /// @dev Modifier for functions that can be called only by one of the active cognitive jobs performed under\n    /// main Pandora contract. It includes jobs _not_ assigned to the worker node\n    modifier onlyCognitiveJob() {\n        require(pandora != address(0));\n        IComputingJob sender = IComputingJob(msg.sender);\n        require(pandora == sender.pandora());\n        require(pandora.isActiveJob(sender));\n        _;\n    }\n\n    /// @dev Modifier for functions that can be called only by the cognitive job assigned or performed by the worker\n    /// node in one of its active states\n    modifier onlyActiveCognitiveJob() {\n        require(msg.sender == address(activeJob));\n        _;\n    }\n\n    /// ### External and public functions\n\n    function alive(\n        // No arguments\n    ) external // Can\"t be called internally\n        /* @fixme onlyOwner */\n        requireState(Offline)\n        transitionToState(Idle)\n    {\n        // Nothing to do here\n    }\n\n    /// @notice Do not call\n    /// @dev Assigns cognitive job to the worker. Can be called only by one of active cognitive jobs listed under\n    /// the main Pandora contract\n    function assignJob(\n        /// @dev Cognitive job to be assigned\n        IComputingJob _job\n    ) external // Can\"t be called internally\n        /// @dev Must be called only by one of active cognitive jobs listed under the main Pandora contract\n        onlyCognitiveJob\n        /// @dev Job can be assigned only to Idle workers\n        requireState(Idle)\n        /// @dev Successful completion must transition worker to an `Assigned` stage\n        transitionToState(Assigned)\n    {\n        activeJob = _job;\n    }\n\n    function cancelJob(\n        // No arguments\n    ) external // Can\"t be called internally\n        onlyActiveCognitiveJob\n        requireActiveStates\n        transitionToState(Idle)\n    {\n        activeJob = IComputingJob(0);\n    }\n\n    function acceptAssignment(\n        // No arguments\n    ) external // Can\"t be called internally\n        /* @fixme onlyOwner */\n        requireState(Assigned)\n        transitionToState(ReadyForDataValidation)\n    {\n        require(activeJob != IComputingJob(0));\n        activeJob.gatheringWorkersResponse(true);\n    }\n\n    function declineAssignment(\n        // No arguments\n    ) external // Can\"t be called internally\n        /* @fixme onlyOwner */\n        requireState(Assigned)\n        transitionToState(Idle)\n    {\n        require(activeJob != IComputingJob(0));\n        activeJob.gatheringWorkersResponse(false);\n    }\n\n    function processToDataValidation(\n        // No arguments\n    ) external // Can\"t be called internally\n        /* @fixme onlyOwner */\n        requireState(ReadyForDataValidation)\n        transitionToState(ValidatingData)\n    {\n        // All actual work is done by function modifiers\n    }\n\n    function acceptValidData(\n        // No arguments\n    ) external // Can\"t be called internally\n        /* @fixme onlyOwner */\n        requireState(ValidatingData)\n        transitionToState(ReadyForComputing)\n    {\n        require(activeJob != IComputingJob(0));\n        activeJob.dataValidationResponse(IComputingJob.DataValidationResponse.Accept);\n    }\n\n    function declineValidData(\n        // No arguments\n    ) external // Can\"t be called internally\n        /* @fixme onlyOwner */\n        requireState(ValidatingData)\n        transitionToState(Idle)\n    {\n        require(activeJob != IComputingJob(0));\n        activeJob.dataValidationResponse(IComputingJob.DataValidationResponse.Decline);\n    }\n\n    function reportInvalidData(\n        // No arguments\n    ) external // Can\"t be called internally\n        /* @fixme onlyOwner */\n        requireState(ValidatingData)\n        transitionToState(Idle)\n    {\n        require(activeJob != IComputingJob(0));\n        activeJob.dataValidationResponse(IComputingJob.DataValidationResponse.Invalid);\n    }\n\n    function processToCognition(\n        // No arguments\n    ) external // Can\"t be called internally\n        /* @fixme onlyOwner */\n        requireState(ReadyForComputing)\n        transitionToState(Computing)\n    {\n        // All actual work is done by function modifiers\n    }\n\n    function provideResults(\n        bytes _ipfsAddress\n    ) external // Can\"t be called internally\n        /* @fixme onlyOwner */\n        requireState(Computing)\n        transitionToState(Idle)\n    {\n        require(activeJob != IComputingJob(0));\n        activeJob.completeWork(_ipfsAddress);\n    }\n\n    function increaseReputation(\n        // No arguments\n    ) external // Can\"t be called internally\n        onlyPandora\n    {\n        reputation++;\n    }\n\n    function decreaseReputation(\n    ) external // Can\"t be called internally\n        onlyPandora\n        transitionThroughState(UnderPenalty)\n    {\n        if (reputation == 0) {\n            pandora.destroyWorkerNode(this);\n        } else {\n            reputation--;\n        }\n    }\n\n    function resetReputation(\n        // No arguments\n    ) external // Can\"t be called internally\n        // Only Pandora contract can put such penalty\n        onlyPandora\n        // State machine processes\n        transitionThroughState(UnderPenalty)\n    {\n        reputation = 0;\n    }\n\n    function maxPenalty(\n        // No arguments\n    ) external // Can\"t be called internally\n        // Only Pandora contract can put such penalty\n        onlyPandora\n        // State machine processes\n        transitionThroughState(UnderPenalty)\n    {\n        reputation = 0;\n    }\n\n    /// @notice For internal use by main Pandora contract\n    /// @dev Zeroes reputation and destroys node\n    function deathPenalty(\n    ) external // Can\"t be called internally\n        // Only Pandora contract can put such penalty\n        onlyPandora\n        // State machine processes\n        transitionThroughState(UnderPenalty)\n    {\n        // First, we put remove all reputation\n        reputation = 0;\n\n        // Use function from OpenZepplin Destructible contract\n        pandora.destroyWorkerNode(this);\n    }\n\n    /// @notice Withdraws full balance to the owner account. Can be called only by the owner of the contract.\n    function withdrawBalance(\n        // No arguments\n    ) external // Can\"t be called internally\n        onlyOwner // Can be called only by the owner\n        requireStates2(Idle, Offline)\n    {\n        /// @todo Handle stakes etc\n        owner.transfer(this.balance);\n    }\n}\n",
  "sourcePath": "/home/kostysh/dev/pyrrha-consensus/contracts/nodes/WorkerNode.sol",
  "compiler": {
    "name": "solc",
    "version": "0.4.23+commit.124ca40d.Emscripten.clang"
  },
  "schemaVersion": "2.0.0",
  "updatedAt": "2018-05-18T17:13:02.411Z"
}